{
	"contracts/TestContract.sol": {
		"TestContract": {
			"abi": [
				{
					"inputs": [
						{
							"internalType": "string",
							"name": "_secret",
							"type": "string"
						}
					],
					"stateMutability": "nonpayable",
					"type": "constructor"
				},
				{
					"inputs": [],
					"name": "getSecret",
					"outputs": [
						{
							"internalType": "string",
							"name": "",
							"type": "string"
						}
					],
					"stateMutability": "view",
					"type": "function"
				}
			],
			"devdoc": {
				"kind": "dev",
				"methods": {},
				"version": 1
			},
			"evm": {
				"assembly": "    /* \"contracts/TestContract.sol\":253:499  contract TestContract is Ownable {... */\n  mstore(0x40, 0x80)\n    /* \"contracts/TestContract.sol\":312:395  constructor(string memory _secret) {... */\n  callvalue\n  dup1\n  iszero\n  tag_1\n  jumpi\n  0x00\n  dup1\n  revert\ntag_1:\n  pop\n  mload(0x40)\n  sub(codesize, bytecodeSize)\n  dup1\n  bytecodeSize\n  dup4\n  codecopy\n  dup2\n  dup2\n  add\n  0x40\n  mstore\n  dup2\n  add\n  swap1\n  tag_2\n  swap2\n  swap1\n  tag_3\n  jump\t// in\ntag_2:\n    /* \"contracts/TestContract.sol\":232:242  msg.sender */\n  caller\n    /* \"contracts/TestContract.sol\":224:229  owner */\n  0x00\n  dup1\n    /* \"contracts/TestContract.sol\":224:242  owner = msg.sender */\n  0x0100\n  exp\n  dup2\n  sload\n  dup2\n  0xffffffffffffffffffffffffffffffffffffffff\n  mul\n  not\n  and\n  swap1\n  dup4\n  0xffffffffffffffffffffffffffffffffffffffff\n  and\n  mul\n  or\n  swap1\n  sstore\n  pop\n    /* \"contracts/TestContract.sol\":366:373  _secret */\n  dup1\n    /* \"contracts/TestContract.sol\":357:363  secret */\n  0x01\n    /* \"contracts/TestContract.sol\":357:373  secret = _secret */\n  swap1\n  dup2\n  tag_8\n  swap2\n  swap1\n  tag_9\n  jump\t// in\ntag_8:\n  pop\n    /* \"contracts/TestContract.sol\":312:395  constructor(string memory _secret) {... */\n  pop\n    /* \"contracts/TestContract.sol\":253:499  contract TestContract is Ownable {... */\n  jump(tag_10)\n    /* \"#utility.yul\":7:82   */\ntag_11:\n    /* \"#utility.yul\":40:46   */\n  0x00\n    /* \"#utility.yul\":73:75   */\n  0x40\n    /* \"#utility.yul\":67:76   */\n  mload\n    /* \"#utility.yul\":57:76   */\n  swap1\n  pop\n    /* \"#utility.yul\":7:82   */\n  swap1\n  jump\t// out\n    /* \"#utility.yul\":88:205   */\ntag_12:\n    /* \"#utility.yul\":197:198   */\n  0x00\n    /* \"#utility.yul\":194:195   */\n  dup1\n    /* \"#utility.yul\":187:199   */\n  revert\n    /* \"#utility.yul\":211:328   */\ntag_13:\n    /* \"#utility.yul\":320:321   */\n  0x00\n    /* \"#utility.yul\":317:318   */\n  dup1\n    /* \"#utility.yul\":310:322   */\n  revert\n    /* \"#utility.yul\":334:451   */\ntag_14:\n    /* \"#utility.yul\":443:444   */\n  0x00\n    /* \"#utility.yul\":440:441   */\n  dup1\n    /* \"#utility.yul\":433:445   */\n  revert\n    /* \"#utility.yul\":457:574   */\ntag_15:\n    /* \"#utility.yul\":566:567   */\n  0x00\n    /* \"#utility.yul\":563:564   */\n  dup1\n    /* \"#utility.yul\":556:568   */\n  revert\n    /* \"#utility.yul\":580:682   */\ntag_16:\n    /* \"#utility.yul\":621:627   */\n  0x00\n    /* \"#utility.yul\":672:674   */\n  0x1f\n    /* \"#utility.yul\":668:675   */\n  not\n    /* \"#utility.yul\":663:665   */\n  0x1f\n    /* \"#utility.yul\":656:661   */\n  dup4\n    /* \"#utility.yul\":652:666   */\n  add\n    /* \"#utility.yul\":648:676   */\n  and\n    /* \"#utility.yul\":638:676   */\n  swap1\n  pop\n    /* \"#utility.yul\":580:682   */\n  swap2\n  swap1\n  pop\n  jump\t// out\n    /* \"#utility.yul\":688:868   */\ntag_17:\n    /* \"#utility.yul\":736:813   */\n  0x4e487b7100000000000000000000000000000000000000000000000000000000\n    /* \"#utility.yul\":733:734   */\n  0x00\n    /* \"#utility.yul\":726:814   */\n  mstore\n    /* \"#utility.yul\":833:837   */\n  0x41\n    /* \"#utility.yul\":830:831   */\n  0x04\n    /* \"#utility.yul\":823:838   */\n  mstore\n    /* \"#utility.yul\":857:861   */\n  0x24\n    /* \"#utility.yul\":854:855   */\n  0x00\n    /* \"#utility.yul\":847:862   */\n  revert\n    /* \"#utility.yul\":874:1155   */\ntag_18:\n    /* \"#utility.yul\":957:984   */\n  tag_52\n    /* \"#utility.yul\":979:983   */\n  dup3\n    /* \"#utility.yul\":957:984   */\n  tag_16\n  jump\t// in\ntag_52:\n    /* \"#utility.yul\":949:955   */\n  dup2\n    /* \"#utility.yul\":945:985   */\n  add\n    /* \"#utility.yul\":1087:1093   */\n  dup2\n    /* \"#utility.yul\":1075:1085   */\n  dup2\n    /* \"#utility.yul\":1072:1094   */\n  lt\n    /* \"#utility.yul\":1051:1069   */\n  0xffffffffffffffff\n    /* \"#utility.yul\":1039:1049   */\n  dup3\n    /* \"#utility.yul\":1036:1070   */\n  gt\n    /* \"#utility.yul\":1033:1095   */\n  or\n    /* \"#utility.yul\":1030:1118   */\n  iszero\n  tag_53\n  jumpi\n    /* \"#utility.yul\":1098:1116   */\n  tag_54\n  tag_17\n  jump\t// in\ntag_54:\n    /* \"#utility.yul\":1030:1118   */\ntag_53:\n    /* \"#utility.yul\":1138:1148   */\n  dup1\n    /* \"#utility.yul\":1134:1136   */\n  0x40\n    /* \"#utility.yul\":1127:1149   */\n  mstore\n    /* \"#utility.yul\":917:1155   */\n  pop\n    /* \"#utility.yul\":874:1155   */\n  pop\n  pop\n  jump\t// out\n    /* \"#utility.yul\":1161:1290   */\ntag_19:\n    /* \"#utility.yul\":1195:1201   */\n  0x00\n    /* \"#utility.yul\":1222:1242   */\n  tag_56\n  tag_11\n  jump\t// in\ntag_56:\n    /* \"#utility.yul\":1212:1242   */\n  swap1\n  pop\n    /* \"#utility.yul\":1251:1284   */\n  tag_57\n    /* \"#utility.yul\":1279:1283   */\n  dup3\n    /* \"#utility.yul\":1271:1277   */\n  dup3\n    /* \"#utility.yul\":1251:1284   */\n  tag_18\n  jump\t// in\ntag_57:\n    /* \"#utility.yul\":1161:1290   */\n  swap2\n  swap1\n  pop\n  jump\t// out\n    /* \"#utility.yul\":1296:1604   */\ntag_20:\n    /* \"#utility.yul\":1358:1362   */\n  0x00\n    /* \"#utility.yul\":1448:1466   */\n  0xffffffffffffffff\n    /* \"#utility.yul\":1440:1446   */\n  dup3\n    /* \"#utility.yul\":1437:1467   */\n  gt\n    /* \"#utility.yul\":1434:1490   */\n  iszero\n  tag_59\n  jumpi\n    /* \"#utility.yul\":1470:1488   */\n  tag_60\n  tag_17\n  jump\t// in\ntag_60:\n    /* \"#utility.yul\":1434:1490   */\ntag_59:\n    /* \"#utility.yul\":1508:1537   */\n  tag_61\n    /* \"#utility.yul\":1530:1536   */\n  dup3\n    /* \"#utility.yul\":1508:1537   */\n  tag_16\n  jump\t// in\ntag_61:\n    /* \"#utility.yul\":1500:1537   */\n  swap1\n  pop\n    /* \"#utility.yul\":1592:1596   */\n  0x20\n    /* \"#utility.yul\":1586:1590   */\n  dup2\n    /* \"#utility.yul\":1582:1597   */\n  add\n    /* \"#utility.yul\":1574:1597   */\n  swap1\n  pop\n    /* \"#utility.yul\":1296:1604   */\n  swap2\n  swap1\n  pop\n  jump\t// out\n    /* \"#utility.yul\":1610:1856   */\ntag_21:\n    /* \"#utility.yul\":1691:1692   */\n  0x00\n    /* \"#utility.yul\":1701:1814   */\ntag_63:\n    /* \"#utility.yul\":1715:1721   */\n  dup4\n    /* \"#utility.yul\":1712:1713   */\n  dup2\n    /* \"#utility.yul\":1709:1722   */\n  lt\n    /* \"#utility.yul\":1701:1814   */\n  iszero\n  tag_65\n  jumpi\n    /* \"#utility.yul\":1800:1801   */\n  dup1\n    /* \"#utility.yul\":1795:1798   */\n  dup3\n    /* \"#utility.yul\":1791:1802   */\n  add\n    /* \"#utility.yul\":1785:1803   */\n  mload\n    /* \"#utility.yul\":1781:1782   */\n  dup2\n    /* \"#utility.yul\":1776:1779   */\n  dup5\n    /* \"#utility.yul\":1772:1783   */\n  add\n    /* \"#utility.yul\":1765:1804   */\n  mstore\n    /* \"#utility.yul\":1737:1739   */\n  0x20\n    /* \"#utility.yul\":1734:1735   */\n  dup2\n    /* \"#utility.yul\":1730:1740   */\n  add\n    /* \"#utility.yul\":1725:1740   */\n  swap1\n  pop\n    /* \"#utility.yul\":1701:1814   */\n  jump(tag_63)\ntag_65:\n    /* \"#utility.yul\":1848:1849   */\n  0x00\n    /* \"#utility.yul\":1839:1845   */\n  dup5\n    /* \"#utility.yul\":1834:1837   */\n  dup5\n    /* \"#utility.yul\":1830:1846   */\n  add\n    /* \"#utility.yul\":1823:1850   */\n  mstore\n    /* \"#utility.yul\":1672:1856   */\n  pop\n    /* \"#utility.yul\":1610:1856   */\n  pop\n  pop\n  pop\n  jump\t// out\n    /* \"#utility.yul\":1862:2296   */\ntag_22:\n    /* \"#utility.yul\":1951:1956   */\n  0x00\n    /* \"#utility.yul\":1976:2042   */\n  tag_67\n    /* \"#utility.yul\":1992:2041   */\n  tag_68\n    /* \"#utility.yul\":2034:2040   */\n  dup5\n    /* \"#utility.yul\":1992:2041   */\n  tag_20\n  jump\t// in\ntag_68:\n    /* \"#utility.yul\":1976:2042   */\n  tag_19\n  jump\t// in\ntag_67:\n    /* \"#utility.yul\":1967:2042   */\n  swap1\n  pop\n    /* \"#utility.yul\":2065:2071   */\n  dup3\n    /* \"#utility.yul\":2058:2063   */\n  dup2\n    /* \"#utility.yul\":2051:2072   */\n  mstore\n    /* \"#utility.yul\":2103:2107   */\n  0x20\n    /* \"#utility.yul\":2096:2101   */\n  dup2\n    /* \"#utility.yul\":2092:2108   */\n  add\n    /* \"#utility.yul\":2141:2144   */\n  dup5\n    /* \"#utility.yul\":2132:2138   */\n  dup5\n    /* \"#utility.yul\":2127:2130   */\n  dup5\n    /* \"#utility.yul\":2123:2139   */\n  add\n    /* \"#utility.yul\":2120:2145   */\n  gt\n    /* \"#utility.yul\":2117:2229   */\n  iszero\n  tag_69\n  jumpi\n    /* \"#utility.yul\":2148:2227   */\n  tag_70\n  tag_15\n  jump\t// in\ntag_70:\n    /* \"#utility.yul\":2117:2229   */\ntag_69:\n    /* \"#utility.yul\":2238:2290   */\n  tag_71\n    /* \"#utility.yul\":2283:2289   */\n  dup5\n    /* \"#utility.yul\":2278:2281   */\n  dup3\n    /* \"#utility.yul\":2273:2276   */\n  dup6\n    /* \"#utility.yul\":2238:2290   */\n  tag_21\n  jump\t// in\ntag_71:\n    /* \"#utility.yul\":1957:2296   */\n  pop\n    /* \"#utility.yul\":1862:2296   */\n  swap4\n  swap3\n  pop\n  pop\n  pop\n  jump\t// out\n    /* \"#utility.yul\":2316:2671   */\ntag_23:\n    /* \"#utility.yul\":2383:2388   */\n  0x00\n    /* \"#utility.yul\":2432:2435   */\n  dup3\n    /* \"#utility.yul\":2425:2429   */\n  0x1f\n    /* \"#utility.yul\":2417:2423   */\n  dup4\n    /* \"#utility.yul\":2413:2430   */\n  add\n    /* \"#utility.yul\":2409:2436   */\n  slt\n    /* \"#utility.yul\":2399:2521   */\n  tag_73\n  jumpi\n    /* \"#utility.yul\":2440:2519   */\n  tag_74\n  tag_14\n  jump\t// in\ntag_74:\n    /* \"#utility.yul\":2399:2521   */\ntag_73:\n    /* \"#utility.yul\":2550:2556   */\n  dup2\n    /* \"#utility.yul\":2544:2557   */\n  mload\n    /* \"#utility.yul\":2575:2665   */\n  tag_75\n    /* \"#utility.yul\":2661:2664   */\n  dup5\n    /* \"#utility.yul\":2653:2659   */\n  dup3\n    /* \"#utility.yul\":2646:2650   */\n  0x20\n    /* \"#utility.yul\":2638:2644   */\n  dup7\n    /* \"#utility.yul\":2634:2651   */\n  add\n    /* \"#utility.yul\":2575:2665   */\n  tag_22\n  jump\t// in\ntag_75:\n    /* \"#utility.yul\":2566:2665   */\n  swap2\n  pop\n    /* \"#utility.yul\":2389:2671   */\n  pop\n    /* \"#utility.yul\":2316:2671   */\n  swap3\n  swap2\n  pop\n  pop\n  jump\t// out\n    /* \"#utility.yul\":2677:3201   */\ntag_3:\n    /* \"#utility.yul\":2757:2763   */\n  0x00\n    /* \"#utility.yul\":2806:2808   */\n  0x20\n    /* \"#utility.yul\":2794:2803   */\n  dup3\n    /* \"#utility.yul\":2785:2792   */\n  dup5\n    /* \"#utility.yul\":2781:2804   */\n  sub\n    /* \"#utility.yul\":2777:2809   */\n  slt\n    /* \"#utility.yul\":2774:2893   */\n  iszero\n  tag_77\n  jumpi\n    /* \"#utility.yul\":2812:2891   */\n  tag_78\n  tag_12\n  jump\t// in\ntag_78:\n    /* \"#utility.yul\":2774:2893   */\ntag_77:\n    /* \"#utility.yul\":2953:2954   */\n  0x00\n    /* \"#utility.yul\":2942:2951   */\n  dup3\n    /* \"#utility.yul\":2938:2955   */\n  add\n    /* \"#utility.yul\":2932:2956   */\n  mload\n    /* \"#utility.yul\":2983:3001   */\n  0xffffffffffffffff\n    /* \"#utility.yul\":2975:2981   */\n  dup2\n    /* \"#utility.yul\":2972:3002   */\n  gt\n    /* \"#utility.yul\":2969:3086   */\n  iszero\n  tag_79\n  jumpi\n    /* \"#utility.yul\":3005:3084   */\n  tag_80\n  tag_13\n  jump\t// in\ntag_80:\n    /* \"#utility.yul\":2969:3086   */\ntag_79:\n    /* \"#utility.yul\":3110:3184   */\n  tag_81\n    /* \"#utility.yul\":3176:3183   */\n  dup5\n    /* \"#utility.yul\":3167:3173   */\n  dup3\n    /* \"#utility.yul\":3156:3165   */\n  dup6\n    /* \"#utility.yul\":3152:3174   */\n  add\n    /* \"#utility.yul\":3110:3184   */\n  tag_23\n  jump\t// in\ntag_81:\n    /* \"#utility.yul\":3100:3184   */\n  swap2\n  pop\n    /* \"#utility.yul\":2903:3194   */\n  pop\n    /* \"#utility.yul\":2677:3201   */\n  swap3\n  swap2\n  pop\n  pop\n  jump\t// out\n    /* \"#utility.yul\":3207:3306   */\ntag_24:\n    /* \"#utility.yul\":3259:3265   */\n  0x00\n    /* \"#utility.yul\":3293:3298   */\n  dup2\n    /* \"#utility.yul\":3287:3299   */\n  mload\n    /* \"#utility.yul\":3277:3299   */\n  swap1\n  pop\n    /* \"#utility.yul\":3207:3306   */\n  swap2\n  swap1\n  pop\n  jump\t// out\n    /* \"#utility.yul\":3312:3492   */\ntag_25:\n    /* \"#utility.yul\":3360:3437   */\n  0x4e487b7100000000000000000000000000000000000000000000000000000000\n    /* \"#utility.yul\":3357:3358   */\n  0x00\n    /* \"#utility.yul\":3350:3438   */\n  mstore\n    /* \"#utility.yul\":3457:3461   */\n  0x22\n    /* \"#utility.yul\":3454:3455   */\n  0x04\n    /* \"#utility.yul\":3447:3462   */\n  mstore\n    /* \"#utility.yul\":3481:3485   */\n  0x24\n    /* \"#utility.yul\":3478:3479   */\n  0x00\n    /* \"#utility.yul\":3471:3486   */\n  revert\n    /* \"#utility.yul\":3498:3818   */\ntag_26:\n    /* \"#utility.yul\":3542:3548   */\n  0x00\n    /* \"#utility.yul\":3579:3580   */\n  0x02\n    /* \"#utility.yul\":3573:3577   */\n  dup3\n    /* \"#utility.yul\":3569:3581   */\n  div\n    /* \"#utility.yul\":3559:3581   */\n  swap1\n  pop\n    /* \"#utility.yul\":3626:3627   */\n  0x01\n    /* \"#utility.yul\":3620:3624   */\n  dup3\n    /* \"#utility.yul\":3616:3628   */\n  and\n    /* \"#utility.yul\":3647:3665   */\n  dup1\n    /* \"#utility.yul\":3637:3718   */\n  tag_85\n  jumpi\n    /* \"#utility.yul\":3703:3707   */\n  0x7f\n    /* \"#utility.yul\":3695:3701   */\n  dup3\n    /* \"#utility.yul\":3691:3708   */\n  and\n    /* \"#utility.yul\":3681:3708   */\n  swap2\n  pop\n    /* \"#utility.yul\":3637:3718   */\ntag_85:\n    /* \"#utility.yul\":3765:3767   */\n  0x20\n    /* \"#utility.yul\":3757:3763   */\n  dup3\n    /* \"#utility.yul\":3754:3768   */\n  lt\n    /* \"#utility.yul\":3734:3752   */\n  dup2\n    /* \"#utility.yul\":3731:3769   */\n  sub\n    /* \"#utility.yul\":3728:3812   */\n  tag_86\n  jumpi\n    /* \"#utility.yul\":3784:3802   */\n  tag_87\n  tag_25\n  jump\t// in\ntag_87:\n    /* \"#utility.yul\":3728:3812   */\ntag_86:\n    /* \"#utility.yul\":3549:3818   */\n  pop\n    /* \"#utility.yul\":3498:3818   */\n  swap2\n  swap1\n  pop\n  jump\t// out\n    /* \"#utility.yul\":3824:3965   */\ntag_27:\n    /* \"#utility.yul\":3873:3877   */\n  0x00\n    /* \"#utility.yul\":3896:3899   */\n  dup2\n    /* \"#utility.yul\":3888:3899   */\n  swap1\n  pop\n    /* \"#utility.yul\":3919:3922   */\n  dup2\n    /* \"#utility.yul\":3916:3917   */\n  0x00\n    /* \"#utility.yul\":3909:3923   */\n  mstore\n    /* \"#utility.yul\":3953:3957   */\n  0x20\n    /* \"#utility.yul\":3950:3951   */\n  0x00\n    /* \"#utility.yul\":3940:3958   */\n  keccak256\n    /* \"#utility.yul\":3932:3958   */\n  swap1\n  pop\n    /* \"#utility.yul\":3824:3965   */\n  swap2\n  swap1\n  pop\n  jump\t// out\n    /* \"#utility.yul\":3971:4064   */\ntag_28:\n    /* \"#utility.yul\":4008:4014   */\n  0x00\n    /* \"#utility.yul\":4055:4057   */\n  0x20\n    /* \"#utility.yul\":4050:4052   */\n  0x1f\n    /* \"#utility.yul\":4043:4048   */\n  dup4\n    /* \"#utility.yul\":4039:4053   */\n  add\n    /* \"#utility.yul\":4035:4058   */\n  div\n    /* \"#utility.yul\":4025:4058   */\n  swap1\n  pop\n    /* \"#utility.yul\":3971:4064   */\n  swap2\n  swap1\n  pop\n  jump\t// out\n    /* \"#utility.yul\":4070:4177   */\ntag_29:\n    /* \"#utility.yul\":4114:4122   */\n  0x00\n    /* \"#utility.yul\":4164:4169   */\n  dup3\n    /* \"#utility.yul\":4158:4162   */\n  dup3\n    /* \"#utility.yul\":4154:4170   */\n  shl\n    /* \"#utility.yul\":4133:4170   */\n  swap1\n  pop\n    /* \"#utility.yul\":4070:4177   */\n  swap3\n  swap2\n  pop\n  pop\n  jump\t// out\n    /* \"#utility.yul\":4183:4576   */\ntag_30:\n    /* \"#utility.yul\":4252:4258   */\n  0x00\n    /* \"#utility.yul\":4302:4303   */\n  0x08\n    /* \"#utility.yul\":4290:4300   */\n  dup4\n    /* \"#utility.yul\":4286:4304   */\n  mul\n    /* \"#utility.yul\":4325:4422   */\n  tag_92\n    /* \"#utility.yul\":4355:4421   */\n  0xffffffffffffffffffffffffffffffffffffffffffffffffffffffffffffffff\n    /* \"#utility.yul\":4344:4353   */\n  dup3\n    /* \"#utility.yul\":4325:4422   */\n  tag_29\n  jump\t// in\ntag_92:\n    /* \"#utility.yul\":4443:4482   */\n  tag_93\n    /* \"#utility.yul\":4473:4481   */\n  dup7\n    /* \"#utility.yul\":4462:4471   */\n  dup4\n    /* \"#utility.yul\":4443:4482   */\n  tag_29\n  jump\t// in\ntag_93:\n    /* \"#utility.yul\":4431:4482   */\n  swap6\n  pop\n    /* \"#utility.yul\":4515:4519   */\n  dup1\n    /* \"#utility.yul\":4511:4520   */\n  not\n    /* \"#utility.yul\":4504:4509   */\n  dup5\n    /* \"#utility.yul\":4500:4521   */\n  and\n    /* \"#utility.yul\":4491:4521   */\n  swap4\n  pop\n    /* \"#utility.yul\":4564:4568   */\n  dup1\n    /* \"#utility.yul\":4554:4562   */\n  dup7\n    /* \"#utility.yul\":4550:4569   */\n  and\n    /* \"#utility.yul\":4543:4548   */\n  dup5\n    /* \"#utility.yul\":4540:4570   */\n  or\n    /* \"#utility.yul\":4530:4570   */\n  swap3\n  pop\n    /* \"#utility.yul\":4259:4576   */\n  pop\n  pop\n    /* \"#utility.yul\":4183:4576   */\n  swap4\n  swap3\n  pop\n  pop\n  pop\n  jump\t// out\n    /* \"#utility.yul\":4582:4659   */\ntag_31:\n    /* \"#utility.yul\":4619:4626   */\n  0x00\n    /* \"#utility.yul\":4648:4653   */\n  dup2\n    /* \"#utility.yul\":4637:4653   */\n  swap1\n  pop\n    /* \"#utility.yul\":4582:4659   */\n  swap2\n  swap1\n  pop\n  jump\t// out\n    /* \"#utility.yul\":4665:4725   */\ntag_32:\n    /* \"#utility.yul\":4693:4696   */\n  0x00\n    /* \"#utility.yul\":4714:4719   */\n  dup2\n    /* \"#utility.yul\":4707:4719   */\n  swap1\n  pop\n    /* \"#utility.yul\":4665:4725   */\n  swap2\n  swap1\n  pop\n  jump\t// out\n    /* \"#utility.yul\":4731:4873   */\ntag_33:\n    /* \"#utility.yul\":4781:4790   */\n  0x00\n    /* \"#utility.yul\":4814:4867   */\n  tag_97\n    /* \"#utility.yul\":4832:4866   */\n  tag_98\n    /* \"#utility.yul\":4841:4865   */\n  tag_99\n    /* \"#utility.yul\":4859:4864   */\n  dup5\n    /* \"#utility.yul\":4841:4865   */\n  tag_31\n  jump\t// in\ntag_99:\n    /* \"#utility.yul\":4832:4866   */\n  tag_32\n  jump\t// in\ntag_98:\n    /* \"#utility.yul\":4814:4867   */\n  tag_31\n  jump\t// in\ntag_97:\n    /* \"#utility.yul\":4801:4867   */\n  swap1\n  pop\n    /* \"#utility.yul\":4731:4873   */\n  swap2\n  swap1\n  pop\n  jump\t// out\n    /* \"#utility.yul\":4879:4954   */\ntag_34:\n    /* \"#utility.yul\":4922:4925   */\n  0x00\n    /* \"#utility.yul\":4943:4948   */\n  dup2\n    /* \"#utility.yul\":4936:4948   */\n  swap1\n  pop\n    /* \"#utility.yul\":4879:4954   */\n  swap2\n  swap1\n  pop\n  jump\t// out\n    /* \"#utility.yul\":4960:5229   */\ntag_35:\n    /* \"#utility.yul\":5070:5109   */\n  tag_102\n    /* \"#utility.yul\":5101:5108   */\n  dup4\n    /* \"#utility.yul\":5070:5109   */\n  tag_33\n  jump\t// in\ntag_102:\n    /* \"#utility.yul\":5131:5222   */\n  tag_103\n    /* \"#utility.yul\":5180:5221   */\n  tag_104\n    /* \"#utility.yul\":5204:5220   */\n  dup3\n    /* \"#utility.yul\":5180:5221   */\n  tag_34\n  jump\t// in\ntag_104:\n    /* \"#utility.yul\":5172:5178   */\n  dup5\n    /* \"#utility.yul\":5165:5169   */\n  dup5\n    /* \"#utility.yul\":5159:5170   */\n  sload\n    /* \"#utility.yul\":5131:5222   */\n  tag_30\n  jump\t// in\ntag_103:\n    /* \"#utility.yul\":5125:5129   */\n  dup3\n    /* \"#utility.yul\":5118:5223   */\n  sstore\n    /* \"#utility.yul\":5036:5229   */\n  pop\n    /* \"#utility.yul\":4960:5229   */\n  pop\n  pop\n  pop\n  jump\t// out\n    /* \"#utility.yul\":5235:5308   */\ntag_36:\n    /* \"#utility.yul\":5280:5283   */\n  0x00\n    /* \"#utility.yul\":5235:5308   */\n  swap1\n  jump\t// out\n    /* \"#utility.yul\":5314:5503   */\ntag_37:\n    /* \"#utility.yul\":5391:5423   */\n  tag_107\n  tag_36\n  jump\t// in\ntag_107:\n    /* \"#utility.yul\":5432:5497   */\n  tag_108\n    /* \"#utility.yul\":5490:5496   */\n  dup2\n    /* \"#utility.yul\":5482:5488   */\n  dup5\n    /* \"#utility.yul\":5476:5480   */\n  dup5\n    /* \"#utility.yul\":5432:5497   */\n  tag_35\n  jump\t// in\ntag_108:\n    /* \"#utility.yul\":5367:5503   */\n  pop\n    /* \"#utility.yul\":5314:5503   */\n  pop\n  pop\n  jump\t// out\n    /* \"#utility.yul\":5509:5695   */\ntag_38:\n    /* \"#utility.yul\":5569:5689   */\ntag_110:\n    /* \"#utility.yul\":5586:5589   */\n  dup2\n    /* \"#utility.yul\":5579:5584   */\n  dup2\n    /* \"#utility.yul\":5576:5590   */\n  lt\n    /* \"#utility.yul\":5569:5689   */\n  iszero\n  tag_112\n  jumpi\n    /* \"#utility.yul\":5640:5679   */\n  tag_113\n    /* \"#utility.yul\":5677:5678   */\n  0x00\n    /* \"#utility.yul\":5670:5675   */\n  dup3\n    /* \"#utility.yul\":5640:5679   */\n  tag_37\n  jump\t// in\ntag_113:\n    /* \"#utility.yul\":5613:5614   */\n  0x01\n    /* \"#utility.yul\":5606:5611   */\n  dup2\n    /* \"#utility.yul\":5602:5615   */\n  add\n    /* \"#utility.yul\":5593:5615   */\n  swap1\n  pop\n    /* \"#utility.yul\":5569:5689   */\n  jump(tag_110)\ntag_112:\n    /* \"#utility.yul\":5509:5695   */\n  pop\n  pop\n  jump\t// out\n    /* \"#utility.yul\":5701:6244   */\ntag_39:\n    /* \"#utility.yul\":5802:5804   */\n  0x1f\n    /* \"#utility.yul\":5797:5800   */\n  dup3\n    /* \"#utility.yul\":5794:5805   */\n  gt\n    /* \"#utility.yul\":5791:6237   */\n  iszero\n  tag_115\n  jumpi\n    /* \"#utility.yul\":5836:5874   */\n  tag_116\n    /* \"#utility.yul\":5868:5873   */\n  dup2\n    /* \"#utility.yul\":5836:5874   */\n  tag_27\n  jump\t// in\ntag_116:\n    /* \"#utility.yul\":5920:5949   */\n  tag_117\n    /* \"#utility.yul\":5938:5948   */\n  dup5\n    /* \"#utility.yul\":5920:5949   */\n  tag_28\n  jump\t// in\ntag_117:\n    /* \"#utility.yul\":5910:5918   */\n  dup2\n    /* \"#utility.yul\":5906:5950   */\n  add\n    /* \"#utility.yul\":6103:6105   */\n  0x20\n    /* \"#utility.yul\":6091:6101   */\n  dup6\n    /* \"#utility.yul\":6088:6106   */\n  lt\n    /* \"#utility.yul\":6085:6134   */\n  iszero\n  tag_118\n  jumpi\n    /* \"#utility.yul\":6124:6132   */\n  dup2\n    /* \"#utility.yul\":6109:6132   */\n  swap1\n  pop\n    /* \"#utility.yul\":6085:6134   */\ntag_118:\n    /* \"#utility.yul\":6147:6227   */\n  tag_119\n    /* \"#utility.yul\":6203:6225   */\n  tag_120\n    /* \"#utility.yul\":6221:6224   */\n  dup6\n    /* \"#utility.yul\":6203:6225   */\n  tag_28\n  jump\t// in\ntag_120:\n    /* \"#utility.yul\":6193:6201   */\n  dup4\n    /* \"#utility.yul\":6189:6226   */\n  add\n    /* \"#utility.yul\":6176:6187   */\n  dup3\n    /* \"#utility.yul\":6147:6227   */\n  tag_38\n  jump\t// in\ntag_119:\n    /* \"#utility.yul\":5806:6237   */\n  pop\n  pop\n    /* \"#utility.yul\":5791:6237   */\ntag_115:\n    /* \"#utility.yul\":5701:6244   */\n  pop\n  pop\n  pop\n  jump\t// out\n    /* \"#utility.yul\":6250:6367   */\ntag_40:\n    /* \"#utility.yul\":6304:6312   */\n  0x00\n    /* \"#utility.yul\":6354:6359   */\n  dup3\n    /* \"#utility.yul\":6348:6352   */\n  dup3\n    /* \"#utility.yul\":6344:6360   */\n  shr\n    /* \"#utility.yul\":6323:6360   */\n  swap1\n  pop\n    /* \"#utility.yul\":6250:6367   */\n  swap3\n  swap2\n  pop\n  pop\n  jump\t// out\n    /* \"#utility.yul\":6373:6542   */\ntag_41:\n    /* \"#utility.yul\":6417:6423   */\n  0x00\n    /* \"#utility.yul\":6450:6501   */\n  tag_123\n    /* \"#utility.yul\":6498:6499   */\n  0x00\n    /* \"#utility.yul\":6494:6500   */\n  not\n    /* \"#utility.yul\":6486:6491   */\n  dup5\n    /* \"#utility.yul\":6483:6484   */\n  0x08\n    /* \"#utility.yul\":6479:6492   */\n  mul\n    /* \"#utility.yul\":6450:6501   */\n  tag_40\n  jump\t// in\ntag_123:\n    /* \"#utility.yul\":6446:6502   */\n  not\n    /* \"#utility.yul\":6531:6535   */\n  dup1\n    /* \"#utility.yul\":6525:6529   */\n  dup4\n    /* \"#utility.yul\":6521:6536   */\n  and\n    /* \"#utility.yul\":6511:6536   */\n  swap2\n  pop\n    /* \"#utility.yul\":6424:6542   */\n  pop\n    /* \"#utility.yul\":6373:6542   */\n  swap3\n  swap2\n  pop\n  pop\n  jump\t// out\n    /* \"#utility.yul\":6547:6842   */\ntag_42:\n    /* \"#utility.yul\":6623:6627   */\n  0x00\n    /* \"#utility.yul\":6769:6798   */\n  tag_125\n    /* \"#utility.yul\":6794:6797   */\n  dup4\n    /* \"#utility.yul\":6788:6792   */\n  dup4\n    /* \"#utility.yul\":6769:6798   */\n  tag_41\n  jump\t// in\ntag_125:\n    /* \"#utility.yul\":6761:6798   */\n  swap2\n  pop\n    /* \"#utility.yul\":6831:6834   */\n  dup3\n    /* \"#utility.yul\":6828:6829   */\n  0x02\n    /* \"#utility.yul\":6824:6835   */\n  mul\n    /* \"#utility.yul\":6818:6822   */\n  dup3\n    /* \"#utility.yul\":6815:6836   */\n  or\n    /* \"#utility.yul\":6807:6836   */\n  swap1\n  pop\n    /* \"#utility.yul\":6547:6842   */\n  swap3\n  swap2\n  pop\n  pop\n  jump\t// out\n    /* \"#utility.yul\":6847:8242   */\ntag_9:\n    /* \"#utility.yul\":6964:7001   */\n  tag_127\n    /* \"#utility.yul\":6997:7000   */\n  dup3\n    /* \"#utility.yul\":6964:7001   */\n  tag_24\n  jump\t// in\ntag_127:\n    /* \"#utility.yul\":7066:7084   */\n  0xffffffffffffffff\n    /* \"#utility.yul\":7058:7064   */\n  dup2\n    /* \"#utility.yul\":7055:7085   */\n  gt\n    /* \"#utility.yul\":7052:7108   */\n  iszero\n  tag_128\n  jumpi\n    /* \"#utility.yul\":7088:7106   */\n  tag_129\n  tag_17\n  jump\t// in\ntag_129:\n    /* \"#utility.yul\":7052:7108   */\ntag_128:\n    /* \"#utility.yul\":7132:7170   */\n  tag_130\n    /* \"#utility.yul\":7164:7168   */\n  dup3\n    /* \"#utility.yul\":7158:7169   */\n  sload\n    /* \"#utility.yul\":7132:7170   */\n  tag_26\n  jump\t// in\ntag_130:\n    /* \"#utility.yul\":7217:7284   */\n  tag_131\n    /* \"#utility.yul\":7277:7283   */\n  dup3\n    /* \"#utility.yul\":7269:7275   */\n  dup3\n    /* \"#utility.yul\":7263:7267   */\n  dup6\n    /* \"#utility.yul\":7217:7284   */\n  tag_39\n  jump\t// in\ntag_131:\n    /* \"#utility.yul\":7311:7312   */\n  0x00\n    /* \"#utility.yul\":7335:7339   */\n  0x20\n    /* \"#utility.yul\":7322:7339   */\n  swap1\n  pop\n    /* \"#utility.yul\":7367:7369   */\n  0x1f\n    /* \"#utility.yul\":7359:7365   */\n  dup4\n    /* \"#utility.yul\":7356:7370   */\n  gt\n    /* \"#utility.yul\":7384:7385   */\n  0x01\n    /* \"#utility.yul\":7379:7997   */\n  dup2\n  eq\n  tag_133\n  jumpi\n    /* \"#utility.yul\":8041:8042   */\n  0x00\n    /* \"#utility.yul\":8058:8064   */\n  dup5\n    /* \"#utility.yul\":8055:8132   */\n  iszero\n  tag_134\n  jumpi\n    /* \"#utility.yul\":8107:8116   */\n  dup3\n    /* \"#utility.yul\":8102:8105   */\n  dup8\n    /* \"#utility.yul\":8098:8117   */\n  add\n    /* \"#utility.yul\":8092:8118   */\n  mload\n    /* \"#utility.yul\":8083:8118   */\n  swap1\n  pop\n    /* \"#utility.yul\":8055:8132   */\ntag_134:\n    /* \"#utility.yul\":8158:8225   */\n  tag_135\n    /* \"#utility.yul\":8218:8224   */\n  dup6\n    /* \"#utility.yul\":8211:8216   */\n  dup3\n    /* \"#utility.yul\":8158:8225   */\n  tag_42\n  jump\t// in\ntag_135:\n    /* \"#utility.yul\":8152:8156   */\n  dup7\n    /* \"#utility.yul\":8145:8226   */\n  sstore\n    /* \"#utility.yul\":8014:8236   */\n  pop\n    /* \"#utility.yul\":7349:8236   */\n  jump(tag_132)\n    /* \"#utility.yul\":7379:7997   */\ntag_133:\n    /* \"#utility.yul\":7431:7435   */\n  0x1f\n    /* \"#utility.yul\":7427:7436   */\n  not\n    /* \"#utility.yul\":7419:7425   */\n  dup5\n    /* \"#utility.yul\":7415:7437   */\n  and\n    /* \"#utility.yul\":7465:7502   */\n  tag_136\n    /* \"#utility.yul\":7497:7501   */\n  dup7\n    /* \"#utility.yul\":7465:7502   */\n  tag_27\n  jump\t// in\ntag_136:\n    /* \"#utility.yul\":7524:7525   */\n  0x00\n    /* \"#utility.yul\":7538:7746   */\ntag_137:\n    /* \"#utility.yul\":7552:7559   */\n  dup3\n    /* \"#utility.yul\":7549:7550   */\n  dup2\n    /* \"#utility.yul\":7546:7560   */\n  lt\n    /* \"#utility.yul\":7538:7746   */\n  iszero\n  tag_139\n  jumpi\n    /* \"#utility.yul\":7631:7640   */\n  dup5\n    /* \"#utility.yul\":7626:7629   */\n  dup10\n    /* \"#utility.yul\":7622:7641   */\n  add\n    /* \"#utility.yul\":7616:7642   */\n  mload\n    /* \"#utility.yul\":7608:7614   */\n  dup3\n    /* \"#utility.yul\":7601:7643   */\n  sstore\n    /* \"#utility.yul\":7682:7683   */\n  0x01\n    /* \"#utility.yul\":7674:7680   */\n  dup3\n    /* \"#utility.yul\":7670:7684   */\n  add\n    /* \"#utility.yul\":7660:7684   */\n  swap2\n  pop\n    /* \"#utility.yul\":7729:7731   */\n  0x20\n    /* \"#utility.yul\":7718:7727   */\n  dup6\n    /* \"#utility.yul\":7714:7732   */\n  add\n    /* \"#utility.yul\":7701:7732   */\n  swap5\n  pop\n    /* \"#utility.yul\":7575:7579   */\n  0x20\n    /* \"#utility.yul\":7572:7573   */\n  dup2\n    /* \"#utility.yul\":7568:7580   */\n  add\n    /* \"#utility.yul\":7563:7580   */\n  swap1\n  pop\n    /* \"#utility.yul\":7538:7746   */\n  jump(tag_137)\ntag_139:\n    /* \"#utility.yul\":7774:7780   */\n  dup7\n    /* \"#utility.yul\":7765:7772   */\n  dup4\n    /* \"#utility.yul\":7762:7781   */\n  lt\n    /* \"#utility.yul\":7759:7938   */\n  iszero\n  tag_140\n  jumpi\n    /* \"#utility.yul\":7832:7841   */\n  dup5\n    /* \"#utility.yul\":7827:7830   */\n  dup10\n    /* \"#utility.yul\":7823:7842   */\n  add\n    /* \"#utility.yul\":7817:7843   */\n  mload\n    /* \"#utility.yul\":7875:7923   */\n  tag_141\n    /* \"#utility.yul\":7917:7921   */\n  0x1f\n    /* \"#utility.yul\":7909:7915   */\n  dup10\n    /* \"#utility.yul\":7905:7922   */\n  and\n    /* \"#utility.yul\":7894:7903   */\n  dup3\n    /* \"#utility.yul\":7875:7923   */\n  tag_41\n  jump\t// in\ntag_141:\n    /* \"#utility.yul\":7867:7873   */\n  dup4\n    /* \"#utility.yul\":7860:7924   */\n  sstore\n    /* \"#utility.yul\":7782:7938   */\n  pop\n    /* \"#utility.yul\":7759:7938   */\ntag_140:\n    /* \"#utility.yul\":7984:7985   */\n  0x01\n    /* \"#utility.yul\":7980:7981   */\n  0x02\n    /* \"#utility.yul\":7972:7978   */\n  dup9\n    /* \"#utility.yul\":7968:7982   */\n  mul\n    /* \"#utility.yul\":7964:7986   */\n  add\n    /* \"#utility.yul\":7958:7962   */\n  dup9\n    /* \"#utility.yul\":7951:7987   */\n  sstore\n    /* \"#utility.yul\":7386:7997   */\n  pop\n  pop\n  pop\n    /* \"#utility.yul\":7349:8236   */\ntag_132:\n  pop\n    /* \"#utility.yul\":6939:8242   */\n  pop\n  pop\n  pop\n    /* \"#utility.yul\":6847:8242   */\n  pop\n  pop\n  jump\t// out\n    /* \"contracts/TestContract.sol\":253:499  contract TestContract is Ownable {... */\ntag_10:\n  dataSize(sub_0)\n  dup1\n  dataOffset(sub_0)\n  0x00\n  codecopy\n  0x00\n  return\nstop\n\nsub_0: assembly {\n        /* \"contracts/TestContract.sol\":253:499  contract TestContract is Ownable {... */\n      mstore(0x40, 0x80)\n      callvalue\n      dup1\n      iszero\n      tag_1\n      jumpi\n      0x00\n      dup1\n      revert\n    tag_1:\n      pop\n      jumpi(tag_2, lt(calldatasize, 0x04))\n      shr(0xe0, calldataload(0x00))\n      dup1\n      0x5b9fdc30\n      eq\n      tag_3\n      jumpi\n    tag_2:\n      0x00\n      dup1\n      revert\n        /* \"contracts/TestContract.sol\":401:497  function getSecret() public view onlyOwner returns(string memory) {... */\n    tag_3:\n      tag_4\n      tag_5\n      jump\t// in\n    tag_4:\n      mload(0x40)\n      tag_6\n      swap2\n      swap1\n      tag_7\n      jump\t// in\n    tag_6:\n      mload(0x40)\n      dup1\n      swap2\n      sub\n      swap1\n      return\n    tag_5:\n        /* \"contracts/TestContract.sol\":452:465  string memory */\n      0x60\n        /* \"contracts/TestContract.sol\":153:158  owner */\n      0x00\n      dup1\n      sload\n      swap1\n      0x0100\n      exp\n      swap1\n      div\n      0xffffffffffffffffffffffffffffffffffffffff\n      and\n        /* \"contracts/TestContract.sol\":139:158  msg.sender == owner */\n      0xffffffffffffffffffffffffffffffffffffffff\n      and\n        /* \"contracts/TestContract.sol\":139:149  msg.sender */\n      caller\n        /* \"contracts/TestContract.sol\":139:158  msg.sender == owner */\n      0xffffffffffffffffffffffffffffffffffffffff\n      and\n      eq\n        /* \"contracts/TestContract.sol\":131:176  require(msg.sender == owner, \"Must be owner\") */\n      tag_9\n      jumpi\n      mload(0x40)\n      0x08c379a000000000000000000000000000000000000000000000000000000000\n      dup2\n      mstore\n      0x04\n      add\n      tag_10\n      swap1\n      tag_11\n      jump\t// in\n    tag_10:\n      mload(0x40)\n      dup1\n      swap2\n      sub\n      swap1\n      revert\n    tag_9:\n        /* \"contracts/TestContract.sol\":484:490  secret */\n      0x01\n        /* \"contracts/TestContract.sol\":477:490  return secret */\n      dup1\n      sload\n      tag_13\n      swap1\n      tag_14\n      jump\t// in\n    tag_13:\n      dup1\n      0x1f\n      add\n      0x20\n      dup1\n      swap2\n      div\n      mul\n      0x20\n      add\n      mload(0x40)\n      swap1\n      dup2\n      add\n      0x40\n      mstore\n      dup1\n      swap3\n      swap2\n      swap1\n      dup2\n      dup2\n      mstore\n      0x20\n      add\n      dup3\n      dup1\n      sload\n      tag_15\n      swap1\n      tag_14\n      jump\t// in\n    tag_15:\n      dup1\n      iszero\n      tag_16\n      jumpi\n      dup1\n      0x1f\n      lt\n      tag_17\n      jumpi\n      0x0100\n      dup1\n      dup4\n      sload\n      div\n      mul\n      dup4\n      mstore\n      swap2\n      0x20\n      add\n      swap2\n      jump(tag_16)\n    tag_17:\n      dup3\n      add\n      swap2\n      swap1\n      0x00\n      mstore\n      keccak256(0x00, 0x20)\n      swap1\n    tag_18:\n      dup2\n      sload\n      dup2\n      mstore\n      swap1\n      0x01\n      add\n      swap1\n      0x20\n      add\n      dup1\n      dup4\n      gt\n      tag_18\n      jumpi\n      dup3\n      swap1\n      sub\n      0x1f\n      and\n      dup3\n      add\n      swap2\n    tag_16:\n      pop\n      pop\n      pop\n      pop\n      pop\n      swap1\n      pop\n        /* \"contracts/TestContract.sol\":401:497  function getSecret() public view onlyOwner returns(string memory) {... */\n      swap1\n      jump\t// out\n        /* \"#utility.yul\":7:106   */\n    tag_19:\n        /* \"#utility.yul\":59:65   */\n      0x00\n        /* \"#utility.yul\":93:98   */\n      dup2\n        /* \"#utility.yul\":87:99   */\n      mload\n        /* \"#utility.yul\":77:99   */\n      swap1\n      pop\n        /* \"#utility.yul\":7:106   */\n      swap2\n      swap1\n      pop\n      jump\t// out\n        /* \"#utility.yul\":112:281   */\n    tag_20:\n        /* \"#utility.yul\":196:207   */\n      0x00\n        /* \"#utility.yul\":230:236   */\n      dup3\n        /* \"#utility.yul\":225:228   */\n      dup3\n        /* \"#utility.yul\":218:237   */\n      mstore\n        /* \"#utility.yul\":270:274   */\n      0x20\n        /* \"#utility.yul\":265:268   */\n      dup3\n        /* \"#utility.yul\":261:275   */\n      add\n        /* \"#utility.yul\":246:275   */\n      swap1\n      pop\n        /* \"#utility.yul\":112:281   */\n      swap3\n      swap2\n      pop\n      pop\n      jump\t// out\n        /* \"#utility.yul\":287:533   */\n    tag_21:\n        /* \"#utility.yul\":368:369   */\n      0x00\n        /* \"#utility.yul\":378:491   */\n    tag_31:\n        /* \"#utility.yul\":392:398   */\n      dup4\n        /* \"#utility.yul\":389:390   */\n      dup2\n        /* \"#utility.yul\":386:399   */\n      lt\n        /* \"#utility.yul\":378:491   */\n      iszero\n      tag_33\n      jumpi\n        /* \"#utility.yul\":477:478   */\n      dup1\n        /* \"#utility.yul\":472:475   */\n      dup3\n        /* \"#utility.yul\":468:479   */\n      add\n        /* \"#utility.yul\":462:480   */\n      mload\n        /* \"#utility.yul\":458:459   */\n      dup2\n        /* \"#utility.yul\":453:456   */\n      dup5\n        /* \"#utility.yul\":449:460   */\n      add\n        /* \"#utility.yul\":442:481   */\n      mstore\n        /* \"#utility.yul\":414:416   */\n      0x20\n        /* \"#utility.yul\":411:412   */\n      dup2\n        /* \"#utility.yul\":407:417   */\n      add\n        /* \"#utility.yul\":402:417   */\n      swap1\n      pop\n        /* \"#utility.yul\":378:491   */\n      jump(tag_31)\n    tag_33:\n        /* \"#utility.yul\":525:526   */\n      0x00\n        /* \"#utility.yul\":516:522   */\n      dup5\n        /* \"#utility.yul\":511:514   */\n      dup5\n        /* \"#utility.yul\":507:523   */\n      add\n        /* \"#utility.yul\":500:527   */\n      mstore\n        /* \"#utility.yul\":349:533   */\n      pop\n        /* \"#utility.yul\":287:533   */\n      pop\n      pop\n      pop\n      jump\t// out\n        /* \"#utility.yul\":539:641   */\n    tag_22:\n        /* \"#utility.yul\":580:586   */\n      0x00\n        /* \"#utility.yul\":631:633   */\n      0x1f\n        /* \"#utility.yul\":627:634   */\n      not\n        /* \"#utility.yul\":622:624   */\n      0x1f\n        /* \"#utility.yul\":615:620   */\n      dup4\n        /* \"#utility.yul\":611:625   */\n      add\n        /* \"#utility.yul\":607:635   */\n      and\n        /* \"#utility.yul\":597:635   */\n      swap1\n      pop\n        /* \"#utility.yul\":539:641   */\n      swap2\n      swap1\n      pop\n      jump\t// out\n        /* \"#utility.yul\":647:1024   */\n    tag_23:\n        /* \"#utility.yul\":735:738   */\n      0x00\n        /* \"#utility.yul\":763:802   */\n      tag_36\n        /* \"#utility.yul\":796:801   */\n      dup3\n        /* \"#utility.yul\":763:802   */\n      tag_19\n      jump\t// in\n    tag_36:\n        /* \"#utility.yul\":818:889   */\n      tag_37\n        /* \"#utility.yul\":882:888   */\n      dup2\n        /* \"#utility.yul\":877:880   */\n      dup6\n        /* \"#utility.yul\":818:889   */\n      tag_20\n      jump\t// in\n    tag_37:\n        /* \"#utility.yul\":811:889   */\n      swap4\n      pop\n        /* \"#utility.yul\":898:963   */\n      tag_38\n        /* \"#utility.yul\":956:962   */\n      dup2\n        /* \"#utility.yul\":951:954   */\n      dup6\n        /* \"#utility.yul\":944:948   */\n      0x20\n        /* \"#utility.yul\":937:942   */\n      dup7\n        /* \"#utility.yul\":933:949   */\n      add\n        /* \"#utility.yul\":898:963   */\n      tag_21\n      jump\t// in\n    tag_38:\n        /* \"#utility.yul\":988:1017   */\n      tag_39\n        /* \"#utility.yul\":1010:1016   */\n      dup2\n        /* \"#utility.yul\":988:1017   */\n      tag_22\n      jump\t// in\n    tag_39:\n        /* \"#utility.yul\":983:986   */\n      dup5\n        /* \"#utility.yul\":979:1018   */\n      add\n        /* \"#utility.yul\":972:1018   */\n      swap2\n      pop\n        /* \"#utility.yul\":739:1024   */\n      pop\n        /* \"#utility.yul\":647:1024   */\n      swap3\n      swap2\n      pop\n      pop\n      jump\t// out\n        /* \"#utility.yul\":1030:1343   */\n    tag_7:\n        /* \"#utility.yul\":1143:1147   */\n      0x00\n        /* \"#utility.yul\":1181:1183   */\n      0x20\n        /* \"#utility.yul\":1170:1179   */\n      dup3\n        /* \"#utility.yul\":1166:1184   */\n      add\n        /* \"#utility.yul\":1158:1184   */\n      swap1\n      pop\n        /* \"#utility.yul\":1230:1239   */\n      dup2\n        /* \"#utility.yul\":1224:1228   */\n      dup2\n        /* \"#utility.yul\":1220:1240   */\n      sub\n        /* \"#utility.yul\":1216:1217   */\n      0x00\n        /* \"#utility.yul\":1205:1214   */\n      dup4\n        /* \"#utility.yul\":1201:1218   */\n      add\n        /* \"#utility.yul\":1194:1241   */\n      mstore\n        /* \"#utility.yul\":1258:1336   */\n      tag_41\n        /* \"#utility.yul\":1331:1335   */\n      dup2\n        /* \"#utility.yul\":1322:1328   */\n      dup5\n        /* \"#utility.yul\":1258:1336   */\n      tag_23\n      jump\t// in\n    tag_41:\n        /* \"#utility.yul\":1250:1336   */\n      swap1\n      pop\n        /* \"#utility.yul\":1030:1343   */\n      swap3\n      swap2\n      pop\n      pop\n      jump\t// out\n        /* \"#utility.yul\":1349:1512   */\n    tag_24:\n        /* \"#utility.yul\":1489:1504   */\n      0x4d757374206265206f776e657200000000000000000000000000000000000000\n        /* \"#utility.yul\":1485:1486   */\n      0x00\n        /* \"#utility.yul\":1477:1483   */\n      dup3\n        /* \"#utility.yul\":1473:1487   */\n      add\n        /* \"#utility.yul\":1466:1505   */\n      mstore\n        /* \"#utility.yul\":1349:1512   */\n      pop\n      jump\t// out\n        /* \"#utility.yul\":1518:1884   */\n    tag_25:\n        /* \"#utility.yul\":1660:1663   */\n      0x00\n        /* \"#utility.yul\":1681:1748   */\n      tag_44\n        /* \"#utility.yul\":1745:1747   */\n      0x0d\n        /* \"#utility.yul\":1740:1743   */\n      dup4\n        /* \"#utility.yul\":1681:1748   */\n      tag_20\n      jump\t// in\n    tag_44:\n        /* \"#utility.yul\":1674:1748   */\n      swap2\n      pop\n        /* \"#utility.yul\":1757:1850   */\n      tag_45\n        /* \"#utility.yul\":1846:1849   */\n      dup3\n        /* \"#utility.yul\":1757:1850   */\n      tag_24\n      jump\t// in\n    tag_45:\n        /* \"#utility.yul\":1875:1877   */\n      0x20\n        /* \"#utility.yul\":1870:1873   */\n      dup3\n        /* \"#utility.yul\":1866:1878   */\n      add\n        /* \"#utility.yul\":1859:1878   */\n      swap1\n      pop\n        /* \"#utility.yul\":1518:1884   */\n      swap2\n      swap1\n      pop\n      jump\t// out\n        /* \"#utility.yul\":1890:2309   */\n    tag_11:\n        /* \"#utility.yul\":2056:2060   */\n      0x00\n        /* \"#utility.yul\":2094:2096   */\n      0x20\n        /* \"#utility.yul\":2083:2092   */\n      dup3\n        /* \"#utility.yul\":2079:2097   */\n      add\n        /* \"#utility.yul\":2071:2097   */\n      swap1\n      pop\n        /* \"#utility.yul\":2143:2152   */\n      dup2\n        /* \"#utility.yul\":2137:2141   */\n      dup2\n        /* \"#utility.yul\":2133:2153   */\n      sub\n        /* \"#utility.yul\":2129:2130   */\n      0x00\n        /* \"#utility.yul\":2118:2127   */\n      dup4\n        /* \"#utility.yul\":2114:2131   */\n      add\n        /* \"#utility.yul\":2107:2154   */\n      mstore\n        /* \"#utility.yul\":2171:2302   */\n      tag_47\n        /* \"#utility.yul\":2297:2301   */\n      dup2\n        /* \"#utility.yul\":2171:2302   */\n      tag_25\n      jump\t// in\n    tag_47:\n        /* \"#utility.yul\":2163:2302   */\n      swap1\n      pop\n        /* \"#utility.yul\":1890:2309   */\n      swap2\n      swap1\n      pop\n      jump\t// out\n        /* \"#utility.yul\":2315:2495   */\n    tag_26:\n        /* \"#utility.yul\":2363:2440   */\n      0x4e487b7100000000000000000000000000000000000000000000000000000000\n        /* \"#utility.yul\":2360:2361   */\n      0x00\n        /* \"#utility.yul\":2353:2441   */\n      mstore\n        /* \"#utility.yul\":2460:2464   */\n      0x22\n        /* \"#utility.yul\":2457:2458   */\n      0x04\n        /* \"#utility.yul\":2450:2465   */\n      mstore\n        /* \"#utility.yul\":2484:2488   */\n      0x24\n        /* \"#utility.yul\":2481:2482   */\n      0x00\n        /* \"#utility.yul\":2474:2489   */\n      revert\n        /* \"#utility.yul\":2501:2821   */\n    tag_14:\n        /* \"#utility.yul\":2545:2551   */\n      0x00\n        /* \"#utility.yul\":2582:2583   */\n      0x02\n        /* \"#utility.yul\":2576:2580   */\n      dup3\n        /* \"#utility.yul\":2572:2584   */\n      div\n        /* \"#utility.yul\":2562:2584   */\n      swap1\n      pop\n        /* \"#utility.yul\":2629:2630   */\n      0x01\n        /* \"#utility.yul\":2623:2627   */\n      dup3\n        /* \"#utility.yul\":2619:2631   */\n      and\n        /* \"#utility.yul\":2650:2668   */\n      dup1\n        /* \"#utility.yul\":2640:2721   */\n      tag_50\n      jumpi\n        /* \"#utility.yul\":2706:2710   */\n      0x7f\n        /* \"#utility.yul\":2698:2704   */\n      dup3\n        /* \"#utility.yul\":2694:2711   */\n      and\n        /* \"#utility.yul\":2684:2711   */\n      swap2\n      pop\n        /* \"#utility.yul\":2640:2721   */\n    tag_50:\n        /* \"#utility.yul\":2768:2770   */\n      0x20\n        /* \"#utility.yul\":2760:2766   */\n      dup3\n        /* \"#utility.yul\":2757:2771   */\n      lt\n        /* \"#utility.yul\":2737:2755   */\n      dup2\n        /* \"#utility.yul\":2734:2772   */\n      sub\n        /* \"#utility.yul\":2731:2815   */\n      tag_51\n      jumpi\n        /* \"#utility.yul\":2787:2805   */\n      tag_52\n      tag_26\n      jump\t// in\n    tag_52:\n        /* \"#utility.yul\":2731:2815   */\n    tag_51:\n        /* \"#utility.yul\":2552:2821   */\n      pop\n        /* \"#utility.yul\":2501:2821   */\n      swap2\n      swap1\n      pop\n      jump\t// out\n\n    auxdata: 0xa2646970667358221220becf56570d2ddfb593e75c49cdc57248f3676d8655bc0fe92e87427fa74b7de064736f6c63430008120033\n}\n",
				"bytecode": {
					"linkReferences": {},
					"object": "60806040523480156200001157600080fd5b50604051620008d8380380620008d8833981810160405281019062000037919062000223565b336000806101000a81548173ffffffffffffffffffffffffffffffffffffffff021916908373ffffffffffffffffffffffffffffffffffffffff1602179055508060019081620000889190620004bf565b5050620005a6565b6000604051905090565b600080fd5b600080fd5b600080fd5b600080fd5b6000601f19601f8301169050919050565b7f4e487b7100000000000000000000000000000000000000000000000000000000600052604160045260246000fd5b620000f982620000ae565b810181811067ffffffffffffffff821117156200011b576200011a620000bf565b5b80604052505050565b60006200013062000090565b90506200013e8282620000ee565b919050565b600067ffffffffffffffff821115620001615762000160620000bf565b5b6200016c82620000ae565b9050602081019050919050565b60005b83811015620001995780820151818401526020810190506200017c565b60008484015250505050565b6000620001bc620001b68462000143565b62000124565b905082815260208101848484011115620001db57620001da620000a9565b5b620001e884828562000179565b509392505050565b600082601f830112620002085762000207620000a4565b5b81516200021a848260208601620001a5565b91505092915050565b6000602082840312156200023c576200023b6200009a565b5b600082015167ffffffffffffffff8111156200025d576200025c6200009f565b5b6200026b84828501620001f0565b91505092915050565b600081519050919050565b7f4e487b7100000000000000000000000000000000000000000000000000000000600052602260045260246000fd5b60006002820490506001821680620002c757607f821691505b602082108103620002dd57620002dc6200027f565b5b50919050565b60008190508160005260206000209050919050565b60006020601f8301049050919050565b600082821b905092915050565b600060088302620003477fffffffffffffffffffffffffffffffffffffffffffffffffffffffffffffffff8262000308565b62000353868362000308565b95508019841693508086168417925050509392505050565b6000819050919050565b6000819050919050565b6000620003a06200039a62000394846200036b565b62000375565b6200036b565b9050919050565b6000819050919050565b620003bc836200037f565b620003d4620003cb82620003a7565b84845462000315565b825550505050565b600090565b620003eb620003dc565b620003f8818484620003b1565b505050565b5b81811015620004205762000414600082620003e1565b600181019050620003fe565b5050565b601f8211156200046f576200043981620002e3565b6200044484620002f8565b8101602085101562000454578190505b6200046c6200046385620002f8565b830182620003fd565b50505b505050565b600082821c905092915050565b6000620004946000198460080262000474565b1980831691505092915050565b6000620004af838362000481565b9150826002028217905092915050565b620004ca8262000274565b67ffffffffffffffff811115620004e657620004e5620000bf565b5b620004f28254620002ae565b620004ff82828562000424565b600060209050601f83116001811462000537576000841562000522578287015190505b6200052e8582620004a1565b8655506200059e565b601f1984166200054786620002e3565b60005b8281101562000571578489015182556001820191506020850194506020810190506200054a565b868310156200059157848901516200058d601f89168262000481565b8355505b6001600288020188555050505b505050505050565b61032280620005b66000396000f3fe608060405234801561001057600080fd5b506004361061002b5760003560e01c80635b9fdc3014610030575b600080fd5b61003861004e565b60405161004591906101fe565b60405180910390f35b606060008054906101000a900473ffffffffffffffffffffffffffffffffffffffff1673ffffffffffffffffffffffffffffffffffffffff163373ffffffffffffffffffffffffffffffffffffffff16146100de576040517f08c379a00000000000000000000000000000000000000000000000000000000081526004016100d59061026c565b60405180910390fd5b600180546100eb906102bb565b80601f0160208091040260200160405190810160405280929190818152602001828054610117906102bb565b80156101645780601f1061013957610100808354040283529160200191610164565b820191906000526020600020905b81548152906001019060200180831161014757829003601f168201915b5050505050905090565b600081519050919050565b600082825260208201905092915050565b60005b838110156101a857808201518184015260208101905061018d565b60008484015250505050565b6000601f19601f8301169050919050565b60006101d08261016e565b6101da8185610179565b93506101ea81856020860161018a565b6101f3816101b4565b840191505092915050565b6000602082019050818103600083015261021881846101c5565b905092915050565b7f4d757374206265206f776e657200000000000000000000000000000000000000600082015250565b6000610256600d83610179565b915061026182610220565b602082019050919050565b6000602082019050818103600083015261028581610249565b9050919050565b7f4e487b7100000000000000000000000000000000000000000000000000000000600052602260045260246000fd5b600060028204905060018216806102d357607f821691505b6020821081036102e6576102e561028c565b5b5091905056fea2646970667358221220becf56570d2ddfb593e75c49cdc57248f3676d8655bc0fe92e87427fa74b7de064736f6c63430008120033",
					"opcodes": "PUSH1 0x80 PUSH1 0x40 MSTORE CALLVALUE DUP1 ISZERO PUSH3 0x11 JUMPI PUSH1 0x0 DUP1 REVERT JUMPDEST POP PUSH1 0x40 MLOAD PUSH3 0x8D8 CODESIZE SUB DUP1 PUSH3 0x8D8 DUP4 CODECOPY DUP2 DUP2 ADD PUSH1 0x40 MSTORE DUP2 ADD SWAP1 PUSH3 0x37 SWAP2 SWAP1 PUSH3 0x223 JUMP JUMPDEST CALLER PUSH1 0x0 DUP1 PUSH2 0x100 EXP DUP2 SLOAD DUP2 PUSH20 0xFFFFFFFFFFFFFFFFFFFFFFFFFFFFFFFFFFFFFFFF MUL NOT AND SWAP1 DUP4 PUSH20 0xFFFFFFFFFFFFFFFFFFFFFFFFFFFFFFFFFFFFFFFF AND MUL OR SWAP1 SSTORE POP DUP1 PUSH1 0x1 SWAP1 DUP2 PUSH3 0x88 SWAP2 SWAP1 PUSH3 0x4BF JUMP JUMPDEST POP POP PUSH3 0x5A6 JUMP JUMPDEST PUSH1 0x0 PUSH1 0x40 MLOAD SWAP1 POP SWAP1 JUMP JUMPDEST PUSH1 0x0 DUP1 REVERT JUMPDEST PUSH1 0x0 DUP1 REVERT JUMPDEST PUSH1 0x0 DUP1 REVERT JUMPDEST PUSH1 0x0 DUP1 REVERT JUMPDEST PUSH1 0x0 PUSH1 0x1F NOT PUSH1 0x1F DUP4 ADD AND SWAP1 POP SWAP2 SWAP1 POP JUMP JUMPDEST PUSH32 0x4E487B7100000000000000000000000000000000000000000000000000000000 PUSH1 0x0 MSTORE PUSH1 0x41 PUSH1 0x4 MSTORE PUSH1 0x24 PUSH1 0x0 REVERT JUMPDEST PUSH3 0xF9 DUP3 PUSH3 0xAE JUMP JUMPDEST DUP2 ADD DUP2 DUP2 LT PUSH8 0xFFFFFFFFFFFFFFFF DUP3 GT OR ISZERO PUSH3 0x11B JUMPI PUSH3 0x11A PUSH3 0xBF JUMP JUMPDEST JUMPDEST DUP1 PUSH1 0x40 MSTORE POP POP POP JUMP JUMPDEST PUSH1 0x0 PUSH3 0x130 PUSH3 0x90 JUMP JUMPDEST SWAP1 POP PUSH3 0x13E DUP3 DUP3 PUSH3 0xEE JUMP JUMPDEST SWAP2 SWAP1 POP JUMP JUMPDEST PUSH1 0x0 PUSH8 0xFFFFFFFFFFFFFFFF DUP3 GT ISZERO PUSH3 0x161 JUMPI PUSH3 0x160 PUSH3 0xBF JUMP JUMPDEST JUMPDEST PUSH3 0x16C DUP3 PUSH3 0xAE JUMP JUMPDEST SWAP1 POP PUSH1 0x20 DUP2 ADD SWAP1 POP SWAP2 SWAP1 POP JUMP JUMPDEST PUSH1 0x0 JUMPDEST DUP4 DUP2 LT ISZERO PUSH3 0x199 JUMPI DUP1 DUP3 ADD MLOAD DUP2 DUP5 ADD MSTORE PUSH1 0x20 DUP2 ADD SWAP1 POP PUSH3 0x17C JUMP JUMPDEST PUSH1 0x0 DUP5 DUP5 ADD MSTORE POP POP POP POP JUMP JUMPDEST PUSH1 0x0 PUSH3 0x1BC PUSH3 0x1B6 DUP5 PUSH3 0x143 JUMP JUMPDEST PUSH3 0x124 JUMP JUMPDEST SWAP1 POP DUP3 DUP2 MSTORE PUSH1 0x20 DUP2 ADD DUP5 DUP5 DUP5 ADD GT ISZERO PUSH3 0x1DB JUMPI PUSH3 0x1DA PUSH3 0xA9 JUMP JUMPDEST JUMPDEST PUSH3 0x1E8 DUP5 DUP3 DUP6 PUSH3 0x179 JUMP JUMPDEST POP SWAP4 SWAP3 POP POP POP JUMP JUMPDEST PUSH1 0x0 DUP3 PUSH1 0x1F DUP4 ADD SLT PUSH3 0x208 JUMPI PUSH3 0x207 PUSH3 0xA4 JUMP JUMPDEST JUMPDEST DUP2 MLOAD PUSH3 0x21A DUP5 DUP3 PUSH1 0x20 DUP7 ADD PUSH3 0x1A5 JUMP JUMPDEST SWAP2 POP POP SWAP3 SWAP2 POP POP JUMP JUMPDEST PUSH1 0x0 PUSH1 0x20 DUP3 DUP5 SUB SLT ISZERO PUSH3 0x23C JUMPI PUSH3 0x23B PUSH3 0x9A JUMP JUMPDEST JUMPDEST PUSH1 0x0 DUP3 ADD MLOAD PUSH8 0xFFFFFFFFFFFFFFFF DUP2 GT ISZERO PUSH3 0x25D JUMPI PUSH3 0x25C PUSH3 0x9F JUMP JUMPDEST JUMPDEST PUSH3 0x26B DUP5 DUP3 DUP6 ADD PUSH3 0x1F0 JUMP JUMPDEST SWAP2 POP POP SWAP3 SWAP2 POP POP JUMP JUMPDEST PUSH1 0x0 DUP2 MLOAD SWAP1 POP SWAP2 SWAP1 POP JUMP JUMPDEST PUSH32 0x4E487B7100000000000000000000000000000000000000000000000000000000 PUSH1 0x0 MSTORE PUSH1 0x22 PUSH1 0x4 MSTORE PUSH1 0x24 PUSH1 0x0 REVERT JUMPDEST PUSH1 0x0 PUSH1 0x2 DUP3 DIV SWAP1 POP PUSH1 0x1 DUP3 AND DUP1 PUSH3 0x2C7 JUMPI PUSH1 0x7F DUP3 AND SWAP2 POP JUMPDEST PUSH1 0x20 DUP3 LT DUP2 SUB PUSH3 0x2DD JUMPI PUSH3 0x2DC PUSH3 0x27F JUMP JUMPDEST JUMPDEST POP SWAP2 SWAP1 POP JUMP JUMPDEST PUSH1 0x0 DUP2 SWAP1 POP DUP2 PUSH1 0x0 MSTORE PUSH1 0x20 PUSH1 0x0 KECCAK256 SWAP1 POP SWAP2 SWAP1 POP JUMP JUMPDEST PUSH1 0x0 PUSH1 0x20 PUSH1 0x1F DUP4 ADD DIV SWAP1 POP SWAP2 SWAP1 POP JUMP JUMPDEST PUSH1 0x0 DUP3 DUP3 SHL SWAP1 POP SWAP3 SWAP2 POP POP JUMP JUMPDEST PUSH1 0x0 PUSH1 0x8 DUP4 MUL PUSH3 0x347 PUSH32 0xFFFFFFFFFFFFFFFFFFFFFFFFFFFFFFFFFFFFFFFFFFFFFFFFFFFFFFFFFFFFFFFF DUP3 PUSH3 0x308 JUMP JUMPDEST PUSH3 0x353 DUP7 DUP4 PUSH3 0x308 JUMP JUMPDEST SWAP6 POP DUP1 NOT DUP5 AND SWAP4 POP DUP1 DUP7 AND DUP5 OR SWAP3 POP POP POP SWAP4 SWAP3 POP POP POP JUMP JUMPDEST PUSH1 0x0 DUP2 SWAP1 POP SWAP2 SWAP1 POP JUMP JUMPDEST PUSH1 0x0 DUP2 SWAP1 POP SWAP2 SWAP1 POP JUMP JUMPDEST PUSH1 0x0 PUSH3 0x3A0 PUSH3 0x39A PUSH3 0x394 DUP5 PUSH3 0x36B JUMP JUMPDEST PUSH3 0x375 JUMP JUMPDEST PUSH3 0x36B JUMP JUMPDEST SWAP1 POP SWAP2 SWAP1 POP JUMP JUMPDEST PUSH1 0x0 DUP2 SWAP1 POP SWAP2 SWAP1 POP JUMP JUMPDEST PUSH3 0x3BC DUP4 PUSH3 0x37F JUMP JUMPDEST PUSH3 0x3D4 PUSH3 0x3CB DUP3 PUSH3 0x3A7 JUMP JUMPDEST DUP5 DUP5 SLOAD PUSH3 0x315 JUMP JUMPDEST DUP3 SSTORE POP POP POP POP JUMP JUMPDEST PUSH1 0x0 SWAP1 JUMP JUMPDEST PUSH3 0x3EB PUSH3 0x3DC JUMP JUMPDEST PUSH3 0x3F8 DUP2 DUP5 DUP5 PUSH3 0x3B1 JUMP JUMPDEST POP POP POP JUMP JUMPDEST JUMPDEST DUP2 DUP2 LT ISZERO PUSH3 0x420 JUMPI PUSH3 0x414 PUSH1 0x0 DUP3 PUSH3 0x3E1 JUMP JUMPDEST PUSH1 0x1 DUP2 ADD SWAP1 POP PUSH3 0x3FE JUMP JUMPDEST POP POP JUMP JUMPDEST PUSH1 0x1F DUP3 GT ISZERO PUSH3 0x46F JUMPI PUSH3 0x439 DUP2 PUSH3 0x2E3 JUMP JUMPDEST PUSH3 0x444 DUP5 PUSH3 0x2F8 JUMP JUMPDEST DUP2 ADD PUSH1 0x20 DUP6 LT ISZERO PUSH3 0x454 JUMPI DUP2 SWAP1 POP JUMPDEST PUSH3 0x46C PUSH3 0x463 DUP6 PUSH3 0x2F8 JUMP JUMPDEST DUP4 ADD DUP3 PUSH3 0x3FD JUMP JUMPDEST POP POP JUMPDEST POP POP POP JUMP JUMPDEST PUSH1 0x0 DUP3 DUP3 SHR SWAP1 POP SWAP3 SWAP2 POP POP JUMP JUMPDEST PUSH1 0x0 PUSH3 0x494 PUSH1 0x0 NOT DUP5 PUSH1 0x8 MUL PUSH3 0x474 JUMP JUMPDEST NOT DUP1 DUP4 AND SWAP2 POP POP SWAP3 SWAP2 POP POP JUMP JUMPDEST PUSH1 0x0 PUSH3 0x4AF DUP4 DUP4 PUSH3 0x481 JUMP JUMPDEST SWAP2 POP DUP3 PUSH1 0x2 MUL DUP3 OR SWAP1 POP SWAP3 SWAP2 POP POP JUMP JUMPDEST PUSH3 0x4CA DUP3 PUSH3 0x274 JUMP JUMPDEST PUSH8 0xFFFFFFFFFFFFFFFF DUP2 GT ISZERO PUSH3 0x4E6 JUMPI PUSH3 0x4E5 PUSH3 0xBF JUMP JUMPDEST JUMPDEST PUSH3 0x4F2 DUP3 SLOAD PUSH3 0x2AE JUMP JUMPDEST PUSH3 0x4FF DUP3 DUP3 DUP6 PUSH3 0x424 JUMP JUMPDEST PUSH1 0x0 PUSH1 0x20 SWAP1 POP PUSH1 0x1F DUP4 GT PUSH1 0x1 DUP2 EQ PUSH3 0x537 JUMPI PUSH1 0x0 DUP5 ISZERO PUSH3 0x522 JUMPI DUP3 DUP8 ADD MLOAD SWAP1 POP JUMPDEST PUSH3 0x52E DUP6 DUP3 PUSH3 0x4A1 JUMP JUMPDEST DUP7 SSTORE POP PUSH3 0x59E JUMP JUMPDEST PUSH1 0x1F NOT DUP5 AND PUSH3 0x547 DUP7 PUSH3 0x2E3 JUMP JUMPDEST PUSH1 0x0 JUMPDEST DUP3 DUP2 LT ISZERO PUSH3 0x571 JUMPI DUP5 DUP10 ADD MLOAD DUP3 SSTORE PUSH1 0x1 DUP3 ADD SWAP2 POP PUSH1 0x20 DUP6 ADD SWAP5 POP PUSH1 0x20 DUP2 ADD SWAP1 POP PUSH3 0x54A JUMP JUMPDEST DUP7 DUP4 LT ISZERO PUSH3 0x591 JUMPI DUP5 DUP10 ADD MLOAD PUSH3 0x58D PUSH1 0x1F DUP10 AND DUP3 PUSH3 0x481 JUMP JUMPDEST DUP4 SSTORE POP JUMPDEST PUSH1 0x1 PUSH1 0x2 DUP9 MUL ADD DUP9 SSTORE POP POP POP JUMPDEST POP POP POP POP POP POP JUMP JUMPDEST PUSH2 0x322 DUP1 PUSH3 0x5B6 PUSH1 0x0 CODECOPY PUSH1 0x0 RETURN INVALID PUSH1 0x80 PUSH1 0x40 MSTORE CALLVALUE DUP1 ISZERO PUSH2 0x10 JUMPI PUSH1 0x0 DUP1 REVERT JUMPDEST POP PUSH1 0x4 CALLDATASIZE LT PUSH2 0x2B JUMPI PUSH1 0x0 CALLDATALOAD PUSH1 0xE0 SHR DUP1 PUSH4 0x5B9FDC30 EQ PUSH2 0x30 JUMPI JUMPDEST PUSH1 0x0 DUP1 REVERT JUMPDEST PUSH2 0x38 PUSH2 0x4E JUMP JUMPDEST PUSH1 0x40 MLOAD PUSH2 0x45 SWAP2 SWAP1 PUSH2 0x1FE JUMP JUMPDEST PUSH1 0x40 MLOAD DUP1 SWAP2 SUB SWAP1 RETURN JUMPDEST PUSH1 0x60 PUSH1 0x0 DUP1 SLOAD SWAP1 PUSH2 0x100 EXP SWAP1 DIV PUSH20 0xFFFFFFFFFFFFFFFFFFFFFFFFFFFFFFFFFFFFFFFF AND PUSH20 0xFFFFFFFFFFFFFFFFFFFFFFFFFFFFFFFFFFFFFFFF AND CALLER PUSH20 0xFFFFFFFFFFFFFFFFFFFFFFFFFFFFFFFFFFFFFFFF AND EQ PUSH2 0xDE JUMPI PUSH1 0x40 MLOAD PUSH32 0x8C379A000000000000000000000000000000000000000000000000000000000 DUP2 MSTORE PUSH1 0x4 ADD PUSH2 0xD5 SWAP1 PUSH2 0x26C JUMP JUMPDEST PUSH1 0x40 MLOAD DUP1 SWAP2 SUB SWAP1 REVERT JUMPDEST PUSH1 0x1 DUP1 SLOAD PUSH2 0xEB SWAP1 PUSH2 0x2BB JUMP JUMPDEST DUP1 PUSH1 0x1F ADD PUSH1 0x20 DUP1 SWAP2 DIV MUL PUSH1 0x20 ADD PUSH1 0x40 MLOAD SWAP1 DUP2 ADD PUSH1 0x40 MSTORE DUP1 SWAP3 SWAP2 SWAP1 DUP2 DUP2 MSTORE PUSH1 0x20 ADD DUP3 DUP1 SLOAD PUSH2 0x117 SWAP1 PUSH2 0x2BB JUMP JUMPDEST DUP1 ISZERO PUSH2 0x164 JUMPI DUP1 PUSH1 0x1F LT PUSH2 0x139 JUMPI PUSH2 0x100 DUP1 DUP4 SLOAD DIV MUL DUP4 MSTORE SWAP2 PUSH1 0x20 ADD SWAP2 PUSH2 0x164 JUMP JUMPDEST DUP3 ADD SWAP2 SWAP1 PUSH1 0x0 MSTORE PUSH1 0x20 PUSH1 0x0 KECCAK256 SWAP1 JUMPDEST DUP2 SLOAD DUP2 MSTORE SWAP1 PUSH1 0x1 ADD SWAP1 PUSH1 0x20 ADD DUP1 DUP4 GT PUSH2 0x147 JUMPI DUP3 SWAP1 SUB PUSH1 0x1F AND DUP3 ADD SWAP2 JUMPDEST POP POP POP POP POP SWAP1 POP SWAP1 JUMP JUMPDEST PUSH1 0x0 DUP2 MLOAD SWAP1 POP SWAP2 SWAP1 POP JUMP JUMPDEST PUSH1 0x0 DUP3 DUP3 MSTORE PUSH1 0x20 DUP3 ADD SWAP1 POP SWAP3 SWAP2 POP POP JUMP JUMPDEST PUSH1 0x0 JUMPDEST DUP4 DUP2 LT ISZERO PUSH2 0x1A8 JUMPI DUP1 DUP3 ADD MLOAD DUP2 DUP5 ADD MSTORE PUSH1 0x20 DUP2 ADD SWAP1 POP PUSH2 0x18D JUMP JUMPDEST PUSH1 0x0 DUP5 DUP5 ADD MSTORE POP POP POP POP JUMP JUMPDEST PUSH1 0x0 PUSH1 0x1F NOT PUSH1 0x1F DUP4 ADD AND SWAP1 POP SWAP2 SWAP1 POP JUMP JUMPDEST PUSH1 0x0 PUSH2 0x1D0 DUP3 PUSH2 0x16E JUMP JUMPDEST PUSH2 0x1DA DUP2 DUP6 PUSH2 0x179 JUMP JUMPDEST SWAP4 POP PUSH2 0x1EA DUP2 DUP6 PUSH1 0x20 DUP7 ADD PUSH2 0x18A JUMP JUMPDEST PUSH2 0x1F3 DUP2 PUSH2 0x1B4 JUMP JUMPDEST DUP5 ADD SWAP2 POP POP SWAP3 SWAP2 POP POP JUMP JUMPDEST PUSH1 0x0 PUSH1 0x20 DUP3 ADD SWAP1 POP DUP2 DUP2 SUB PUSH1 0x0 DUP4 ADD MSTORE PUSH2 0x218 DUP2 DUP5 PUSH2 0x1C5 JUMP JUMPDEST SWAP1 POP SWAP3 SWAP2 POP POP JUMP JUMPDEST PUSH32 0x4D757374206265206F776E657200000000000000000000000000000000000000 PUSH1 0x0 DUP3 ADD MSTORE POP JUMP JUMPDEST PUSH1 0x0 PUSH2 0x256 PUSH1 0xD DUP4 PUSH2 0x179 JUMP JUMPDEST SWAP2 POP PUSH2 0x261 DUP3 PUSH2 0x220 JUMP JUMPDEST PUSH1 0x20 DUP3 ADD SWAP1 POP SWAP2 SWAP1 POP JUMP JUMPDEST PUSH1 0x0 PUSH1 0x20 DUP3 ADD SWAP1 POP DUP2 DUP2 SUB PUSH1 0x0 DUP4 ADD MSTORE PUSH2 0x285 DUP2 PUSH2 0x249 JUMP JUMPDEST SWAP1 POP SWAP2 SWAP1 POP JUMP JUMPDEST PUSH32 0x4E487B7100000000000000000000000000000000000000000000000000000000 PUSH1 0x0 MSTORE PUSH1 0x22 PUSH1 0x4 MSTORE PUSH1 0x24 PUSH1 0x0 REVERT JUMPDEST PUSH1 0x0 PUSH1 0x2 DUP3 DIV SWAP1 POP PUSH1 0x1 DUP3 AND DUP1 PUSH2 0x2D3 JUMPI PUSH1 0x7F DUP3 AND SWAP2 POP JUMPDEST PUSH1 0x20 DUP3 LT DUP2 SUB PUSH2 0x2E6 JUMPI PUSH2 0x2E5 PUSH2 0x28C JUMP JUMPDEST JUMPDEST POP SWAP2 SWAP1 POP JUMP INVALID LOG2 PUSH5 0x6970667358 0x22 SLT KECCAK256 0xBE 0xCF JUMP JUMPI 0xD 0x2D 0xDF 0xB5 SWAP4 0xE7 0x5C 0x49 0xCD 0xC5 PUSH19 0x48F3676D8655BC0FE92E87427FA74B7DE06473 PUSH16 0x6C634300081200330000000000000000 "
				},
				"gasEstimates": {
					"creation": {
						"codeDepositCost": "160400",
						"executionCost": "infinite",
						"totalCost": "infinite"
					},
					"external": {
						"getSecret()": "infinite"
					}
				},
				"methodIdentifiers": {
					"getSecret()": "5b9fdc30"
				}
			},
			"storageLayout": {
				"storage": [
					{
						"astId": 3,
						"contract": "contracts/TestContract.sol:TestContract",
						"label": "owner",
						"offset": 0,
						"slot": "0",
						"type": "t_address"
					},
					{
						"astId": 29,
						"contract": "contracts/TestContract.sol:TestContract",
						"label": "secret",
						"offset": 0,
						"slot": "1",
						"type": "t_string_storage"
					}
				],
				"types": {
					"t_address": {
						"encoding": "inplace",
						"label": "address",
						"numberOfBytes": "20"
					},
					"t_string_storage": {
						"encoding": "bytes",
						"label": "string",
						"numberOfBytes": "32"
					}
				}
			},
			"userdoc": {
				"kind": "user",
				"methods": {},
				"version": 1
			}
		}
	}
}