{
	"contracts/HotelRoom.sol": {
		"HotelRoom": {
			"abi": [
				{
					"inputs": [],
					"stateMutability": "nonpayable",
					"type": "constructor"
				},
				{
					"anonymous": false,
					"inputs": [
						{
							"indexed": false,
							"internalType": "address",
							"name": "_occupant",
							"type": "address"
						},
						{
							"indexed": false,
							"internalType": "uint256",
							"name": "_value",
							"type": "uint256"
						}
					],
					"name": "Occupy",
					"type": "event"
				},
				{
					"inputs": [],
					"name": "bookRoom",
					"outputs": [],
					"stateMutability": "payable",
					"type": "function"
				},
				{
					"inputs": [],
					"name": "owner",
					"outputs": [
						{
							"internalType": "address payable",
							"name": "",
							"type": "address"
						}
					],
					"stateMutability": "view",
					"type": "function"
				}
			],
			"devdoc": {
				"kind": "dev",
				"methods": {},
				"version": 1
			},
			"evm": {
				"assembly": "    /* \"contracts/HotelRoom.sol\":57:974  contract HotelRoom {... */\n  mstore(0x40, 0x80)\n    /* \"contracts/HotelRoom.sol\":235:334  constructor() {... */\n  callvalue\n  dup1\n  iszero\n  tag_1\n  jumpi\n  0x00\n  dup1\n  revert\ntag_1:\n  pop\n    /* \"contracts/HotelRoom.sol\":275:285  msg.sender */\n  caller\n    /* \"contracts/HotelRoom.sol\":259:264  owner */\n  0x00\n  0x01\n    /* \"contracts/HotelRoom.sol\":259:286  owner = payable(msg.sender) */\n  0x0100\n  exp\n  dup2\n  sload\n  dup2\n  0xffffffffffffffffffffffffffffffffffffffff\n  mul\n  not\n  and\n  swap1\n  dup4\n  0xffffffffffffffffffffffffffffffffffffffff\n  and\n  mul\n  or\n  swap1\n  sstore\n  pop\n    /* \"contracts/HotelRoom.sol\":312:327  Statuses.Vacant */\n  0x00\n    /* \"contracts/HotelRoom.sol\":296:309  currentStatus */\n  dup1\n  0x00\n    /* \"contracts/HotelRoom.sol\":296:327  currentStatus = Statuses.Vacant */\n  0x0100\n  exp\n  dup2\n  sload\n  dup2\n  0xff\n  mul\n  not\n  and\n  swap1\n  dup4\n  0x01\n  dup2\n  gt\n  iszero\n  tag_4\n  jumpi\n  tag_5\n  tag_6\n  jump\t// in\ntag_5:\ntag_4:\n  mul\n  or\n  swap1\n  sstore\n  pop\n    /* \"contracts/HotelRoom.sol\":57:974  contract HotelRoom {... */\n  jump(tag_7)\n    /* \"#utility.yul\":7:187   */\ntag_6:\n    /* \"#utility.yul\":55:132   */\n  0x4e487b7100000000000000000000000000000000000000000000000000000000\n    /* \"#utility.yul\":52:53   */\n  0x00\n    /* \"#utility.yul\":45:133   */\n  mstore\n    /* \"#utility.yul\":152:156   */\n  0x21\n    /* \"#utility.yul\":149:150   */\n  0x04\n    /* \"#utility.yul\":142:157   */\n  mstore\n    /* \"#utility.yul\":176:180   */\n  0x24\n    /* \"#utility.yul\":173:174   */\n  0x00\n    /* \"#utility.yul\":166:181   */\n  revert\n    /* \"contracts/HotelRoom.sol\":57:974  contract HotelRoom {... */\ntag_7:\n  dataSize(sub_0)\n  dup1\n  dataOffset(sub_0)\n  0x00\n  codecopy\n  0x00\n  return\nstop\n\nsub_0: assembly {\n        /* \"contracts/HotelRoom.sol\":57:974  contract HotelRoom {... */\n      mstore(0x40, 0x80)\n      jumpi(tag_1, lt(calldatasize, 0x04))\n      shr(0xe0, calldataload(0x00))\n      dup1\n      0x8da5cb5b\n      eq\n      tag_2\n      jumpi\n      dup1\n      0xb55a3910\n      eq\n      tag_3\n      jumpi\n    tag_1:\n      0x00\n      dup1\n      revert\n        /* \"contracts/HotelRoom.sol\":200:228  address payable public owner */\n    tag_2:\n      callvalue\n      dup1\n      iszero\n      tag_4\n      jumpi\n      0x00\n      dup1\n      revert\n    tag_4:\n      pop\n      tag_5\n      tag_6\n      jump\t// in\n    tag_5:\n      mload(0x40)\n      tag_7\n      swap2\n      swap1\n      tag_8\n      jump\t// in\n    tag_7:\n      mload(0x40)\n      dup1\n      swap2\n      sub\n      swap1\n      return\n        /* \"contracts/HotelRoom.sol\":665:972  function bookRoom() payable onlyWhileVacant costs(2 ether) public {... */\n    tag_3:\n      tag_9\n      tag_10\n      jump\t// in\n    tag_9:\n      stop\n        /* \"contracts/HotelRoom.sol\":200:228  address payable public owner */\n    tag_6:\n      0x00\n      0x01\n      swap1\n      sload\n      swap1\n      0x0100\n      exp\n      swap1\n      div\n      0xffffffffffffffffffffffffffffffffffffffff\n      and\n      dup2\n      jump\t// out\n        /* \"contracts/HotelRoom.sol\":665:972  function bookRoom() payable onlyWhileVacant costs(2 ether) public {... */\n    tag_10:\n        /* \"contracts/HotelRoom.sol\":452:467  Statuses.Vacant */\n      0x00\n        /* \"contracts/HotelRoom.sol\":435:467  currentStatus == Statuses.Vacant */\n      0x01\n      dup2\n      gt\n      iszero\n      tag_12\n      jumpi\n      tag_13\n      tag_14\n      jump\t// in\n    tag_13:\n    tag_12:\n        /* \"contracts/HotelRoom.sol\":435:448  currentStatus */\n      0x00\n      dup1\n      sload\n      swap1\n      0x0100\n      exp\n      swap1\n      div\n      0xff\n      and\n        /* \"contracts/HotelRoom.sol\":435:467  currentStatus == Statuses.Vacant */\n      0x01\n      dup2\n      gt\n      iszero\n      tag_15\n      jumpi\n      tag_16\n      tag_14\n      jump\t// in\n    tag_16:\n    tag_15:\n      eq\n        /* \"contracts/HotelRoom.sol\":427:491  require(currentStatus == Statuses.Vacant, \"Currently occupied.\") */\n      tag_17\n      jumpi\n      mload(0x40)\n      0x08c379a000000000000000000000000000000000000000000000000000000000\n      dup2\n      mstore\n      0x04\n      add\n      tag_18\n      swap1\n      tag_19\n      jump\t// in\n    tag_18:\n      mload(0x40)\n      dup1\n      swap2\n      sub\n      swap1\n      revert\n    tag_17:\n        /* \"contracts/HotelRoom.sol\":715:722  2 ether */\n      0x1bc16d674ec80000\n        /* \"contracts/HotelRoom.sol\":575:582  _amount */\n      dup1\n        /* \"contracts/HotelRoom.sol\":562:571  msg.value */\n      callvalue\n        /* \"contracts/HotelRoom.sol\":562:582  msg.value >= _amount */\n      lt\n      iszero\n        /* \"contracts/HotelRoom.sol\":554:604  require(msg.value >= _amount, \"Not enough Ether.\") */\n      tag_21\n      jumpi\n      mload(0x40)\n      0x08c379a000000000000000000000000000000000000000000000000000000000\n      dup2\n      mstore\n      0x04\n      add\n      tag_22\n      swap1\n      tag_23\n      jump\t// in\n    tag_22:\n      mload(0x40)\n      dup1\n      swap2\n      sub\n      swap1\n      revert\n    tag_21:\n        /* \"contracts/HotelRoom.sol\":741:746  owner */\n      0x00\n      0x01\n      swap1\n      sload\n      swap1\n      0x0100\n      exp\n      swap1\n      div\n      0xffffffffffffffffffffffffffffffffffffffff\n      and\n        /* \"contracts/HotelRoom.sol\":741:755  owner.transfer */\n      0xffffffffffffffffffffffffffffffffffffffff\n      and\n        /* \"contracts/HotelRoom.sol\":741:766  owner.transfer(msg.value) */\n      0x08fc\n        /* \"contracts/HotelRoom.sol\":756:765  msg.value */\n      callvalue\n        /* \"contracts/HotelRoom.sol\":741:766  owner.transfer(msg.value) */\n      swap1\n      dup2\n      iszero\n      mul\n      swap1\n      mload(0x40)\n      0x00\n      mload(0x40)\n      dup1\n      dup4\n      sub\n      dup2\n      dup6\n      dup9\n      dup9\n      call\n      swap4\n      pop\n      pop\n      pop\n      pop\n      iszero\n      dup1\n      iszero\n      tag_26\n      jumpi\n      returndatasize\n      0x00\n      dup1\n      returndatacopy\n      revert(0x00, returndatasize)\n    tag_26:\n      pop\n        /* \"contracts/HotelRoom.sol\":792:809  Statuses.Occupied */\n      0x01\n        /* \"contracts/HotelRoom.sol\":776:789  currentStatus */\n      0x00\n      dup1\n        /* \"contracts/HotelRoom.sol\":776:809  currentStatus = Statuses.Occupied */\n      0x0100\n      exp\n      dup2\n      sload\n      dup2\n      0xff\n      mul\n      not\n      and\n      swap1\n      dup4\n      0x01\n      dup2\n      gt\n      iszero\n      tag_27\n      jumpi\n      tag_28\n      tag_14\n      jump\t// in\n    tag_28:\n    tag_27:\n      mul\n      or\n      swap1\n      sstore\n      pop\n        /* \"contracts/HotelRoom.sol\":936:965  Occupy(msg.sender, msg.value) */\n      0xba951166d42eb077151bdecb7cf6027562f04f0143b0c141b1bb0a33eef5d693\n        /* \"contracts/HotelRoom.sol\":943:953  msg.sender */\n      caller\n        /* \"contracts/HotelRoom.sol\":955:964  msg.value */\n      callvalue\n        /* \"contracts/HotelRoom.sol\":936:965  Occupy(msg.sender, msg.value) */\n      mload(0x40)\n      tag_29\n      swap3\n      swap2\n      swap1\n      tag_30\n      jump\t// in\n    tag_29:\n      mload(0x40)\n      dup1\n      swap2\n      sub\n      swap1\n      log1\n        /* \"contracts/HotelRoom.sol\":501:502  _ */\n      pop\n        /* \"contracts/HotelRoom.sol\":665:972  function bookRoom() payable onlyWhileVacant costs(2 ether) public {... */\n      jump\t// out\n        /* \"#utility.yul\":7:133   */\n    tag_31:\n        /* \"#utility.yul\":44:51   */\n      0x00\n        /* \"#utility.yul\":84:126   */\n      0xffffffffffffffffffffffffffffffffffffffff\n        /* \"#utility.yul\":77:82   */\n      dup3\n        /* \"#utility.yul\":73:127   */\n      and\n        /* \"#utility.yul\":62:127   */\n      swap1\n      pop\n        /* \"#utility.yul\":7:133   */\n      swap2\n      swap1\n      pop\n      jump\t// out\n        /* \"#utility.yul\":139:243   */\n    tag_32:\n        /* \"#utility.yul\":184:191   */\n      0x00\n        /* \"#utility.yul\":213:237   */\n      tag_46\n        /* \"#utility.yul\":231:236   */\n      dup3\n        /* \"#utility.yul\":213:237   */\n      tag_31\n      jump\t// in\n    tag_46:\n        /* \"#utility.yul\":202:237   */\n      swap1\n      pop\n        /* \"#utility.yul\":139:243   */\n      swap2\n      swap1\n      pop\n      jump\t// out\n        /* \"#utility.yul\":249:391   */\n    tag_33:\n        /* \"#utility.yul\":352:384   */\n      tag_48\n        /* \"#utility.yul\":378:383   */\n      dup2\n        /* \"#utility.yul\":352:384   */\n      tag_32\n      jump\t// in\n    tag_48:\n        /* \"#utility.yul\":347:350   */\n      dup3\n        /* \"#utility.yul\":340:385   */\n      mstore\n        /* \"#utility.yul\":249:391   */\n      pop\n      pop\n      jump\t// out\n        /* \"#utility.yul\":397:651   */\n    tag_8:\n        /* \"#utility.yul\":506:510   */\n      0x00\n        /* \"#utility.yul\":544:546   */\n      0x20\n        /* \"#utility.yul\":533:542   */\n      dup3\n        /* \"#utility.yul\":529:547   */\n      add\n        /* \"#utility.yul\":521:547   */\n      swap1\n      pop\n        /* \"#utility.yul\":557:644   */\n      tag_50\n        /* \"#utility.yul\":641:642   */\n      0x00\n        /* \"#utility.yul\":630:639   */\n      dup4\n        /* \"#utility.yul\":626:643   */\n      add\n        /* \"#utility.yul\":617:623   */\n      dup5\n        /* \"#utility.yul\":557:644   */\n      tag_33\n      jump\t// in\n    tag_50:\n        /* \"#utility.yul\":397:651   */\n      swap3\n      swap2\n      pop\n      pop\n      jump\t// out\n        /* \"#utility.yul\":657:837   */\n    tag_14:\n        /* \"#utility.yul\":705:782   */\n      0x4e487b7100000000000000000000000000000000000000000000000000000000\n        /* \"#utility.yul\":702:703   */\n      0x00\n        /* \"#utility.yul\":695:783   */\n      mstore\n        /* \"#utility.yul\":802:806   */\n      0x21\n        /* \"#utility.yul\":799:800   */\n      0x04\n        /* \"#utility.yul\":792:807   */\n      mstore\n        /* \"#utility.yul\":826:830   */\n      0x24\n        /* \"#utility.yul\":823:824   */\n      0x00\n        /* \"#utility.yul\":816:831   */\n      revert\n        /* \"#utility.yul\":843:1012   */\n    tag_34:\n        /* \"#utility.yul\":927:938   */\n      0x00\n        /* \"#utility.yul\":961:967   */\n      dup3\n        /* \"#utility.yul\":956:959   */\n      dup3\n        /* \"#utility.yul\":949:968   */\n      mstore\n        /* \"#utility.yul\":1001:1005   */\n      0x20\n        /* \"#utility.yul\":996:999   */\n      dup3\n        /* \"#utility.yul\":992:1006   */\n      add\n        /* \"#utility.yul\":977:1006   */\n      swap1\n      pop\n        /* \"#utility.yul\":843:1012   */\n      swap3\n      swap2\n      pop\n      pop\n      jump\t// out\n        /* \"#utility.yul\":1018:1187   */\n    tag_35:\n        /* \"#utility.yul\":1158:1179   */\n      0x43757272656e746c79206f636375706965642e00000000000000000000000000\n        /* \"#utility.yul\":1154:1155   */\n      0x00\n        /* \"#utility.yul\":1146:1152   */\n      dup3\n        /* \"#utility.yul\":1142:1156   */\n      add\n        /* \"#utility.yul\":1135:1180   */\n      mstore\n        /* \"#utility.yul\":1018:1187   */\n      pop\n      jump\t// out\n        /* \"#utility.yul\":1193:1559   */\n    tag_36:\n        /* \"#utility.yul\":1335:1338   */\n      0x00\n        /* \"#utility.yul\":1356:1423   */\n      tag_55\n        /* \"#utility.yul\":1420:1422   */\n      0x13\n        /* \"#utility.yul\":1415:1418   */\n      dup4\n        /* \"#utility.yul\":1356:1423   */\n      tag_34\n      jump\t// in\n    tag_55:\n        /* \"#utility.yul\":1349:1423   */\n      swap2\n      pop\n        /* \"#utility.yul\":1432:1525   */\n      tag_56\n        /* \"#utility.yul\":1521:1524   */\n      dup3\n        /* \"#utility.yul\":1432:1525   */\n      tag_35\n      jump\t// in\n    tag_56:\n        /* \"#utility.yul\":1550:1552   */\n      0x20\n        /* \"#utility.yul\":1545:1548   */\n      dup3\n        /* \"#utility.yul\":1541:1553   */\n      add\n        /* \"#utility.yul\":1534:1553   */\n      swap1\n      pop\n        /* \"#utility.yul\":1193:1559   */\n      swap2\n      swap1\n      pop\n      jump\t// out\n        /* \"#utility.yul\":1565:1984   */\n    tag_19:\n        /* \"#utility.yul\":1731:1735   */\n      0x00\n        /* \"#utility.yul\":1769:1771   */\n      0x20\n        /* \"#utility.yul\":1758:1767   */\n      dup3\n        /* \"#utility.yul\":1754:1772   */\n      add\n        /* \"#utility.yul\":1746:1772   */\n      swap1\n      pop\n        /* \"#utility.yul\":1818:1827   */\n      dup2\n        /* \"#utility.yul\":1812:1816   */\n      dup2\n        /* \"#utility.yul\":1808:1828   */\n      sub\n        /* \"#utility.yul\":1804:1805   */\n      0x00\n        /* \"#utility.yul\":1793:1802   */\n      dup4\n        /* \"#utility.yul\":1789:1806   */\n      add\n        /* \"#utility.yul\":1782:1829   */\n      mstore\n        /* \"#utility.yul\":1846:1977   */\n      tag_58\n        /* \"#utility.yul\":1972:1976   */\n      dup2\n        /* \"#utility.yul\":1846:1977   */\n      tag_36\n      jump\t// in\n    tag_58:\n        /* \"#utility.yul\":1838:1977   */\n      swap1\n      pop\n        /* \"#utility.yul\":1565:1984   */\n      swap2\n      swap1\n      pop\n      jump\t// out\n        /* \"#utility.yul\":1990:2157   */\n    tag_37:\n        /* \"#utility.yul\":2130:2149   */\n      0x4e6f7420656e6f7567682045746865722e000000000000000000000000000000\n        /* \"#utility.yul\":2126:2127   */\n      0x00\n        /* \"#utility.yul\":2118:2124   */\n      dup3\n        /* \"#utility.yul\":2114:2128   */\n      add\n        /* \"#utility.yul\":2107:2150   */\n      mstore\n        /* \"#utility.yul\":1990:2157   */\n      pop\n      jump\t// out\n        /* \"#utility.yul\":2163:2529   */\n    tag_38:\n        /* \"#utility.yul\":2305:2308   */\n      0x00\n        /* \"#utility.yul\":2326:2393   */\n      tag_61\n        /* \"#utility.yul\":2390:2392   */\n      0x11\n        /* \"#utility.yul\":2385:2388   */\n      dup4\n        /* \"#utility.yul\":2326:2393   */\n      tag_34\n      jump\t// in\n    tag_61:\n        /* \"#utility.yul\":2319:2393   */\n      swap2\n      pop\n        /* \"#utility.yul\":2402:2495   */\n      tag_62\n        /* \"#utility.yul\":2491:2494   */\n      dup3\n        /* \"#utility.yul\":2402:2495   */\n      tag_37\n      jump\t// in\n    tag_62:\n        /* \"#utility.yul\":2520:2522   */\n      0x20\n        /* \"#utility.yul\":2515:2518   */\n      dup3\n        /* \"#utility.yul\":2511:2523   */\n      add\n        /* \"#utility.yul\":2504:2523   */\n      swap1\n      pop\n        /* \"#utility.yul\":2163:2529   */\n      swap2\n      swap1\n      pop\n      jump\t// out\n        /* \"#utility.yul\":2535:2954   */\n    tag_23:\n        /* \"#utility.yul\":2701:2705   */\n      0x00\n        /* \"#utility.yul\":2739:2741   */\n      0x20\n        /* \"#utility.yul\":2728:2737   */\n      dup3\n        /* \"#utility.yul\":2724:2742   */\n      add\n        /* \"#utility.yul\":2716:2742   */\n      swap1\n      pop\n        /* \"#utility.yul\":2788:2797   */\n      dup2\n        /* \"#utility.yul\":2782:2786   */\n      dup2\n        /* \"#utility.yul\":2778:2798   */\n      sub\n        /* \"#utility.yul\":2774:2775   */\n      0x00\n        /* \"#utility.yul\":2763:2772   */\n      dup4\n        /* \"#utility.yul\":2759:2776   */\n      add\n        /* \"#utility.yul\":2752:2799   */\n      mstore\n        /* \"#utility.yul\":2816:2947   */\n      tag_64\n        /* \"#utility.yul\":2942:2946   */\n      dup2\n        /* \"#utility.yul\":2816:2947   */\n      tag_38\n      jump\t// in\n    tag_64:\n        /* \"#utility.yul\":2808:2947   */\n      swap1\n      pop\n        /* \"#utility.yul\":2535:2954   */\n      swap2\n      swap1\n      pop\n      jump\t// out\n        /* \"#utility.yul\":2960:3056   */\n    tag_39:\n        /* \"#utility.yul\":2997:3004   */\n      0x00\n        /* \"#utility.yul\":3026:3050   */\n      tag_66\n        /* \"#utility.yul\":3044:3049   */\n      dup3\n        /* \"#utility.yul\":3026:3050   */\n      tag_31\n      jump\t// in\n    tag_66:\n        /* \"#utility.yul\":3015:3050   */\n      swap1\n      pop\n        /* \"#utility.yul\":2960:3056   */\n      swap2\n      swap1\n      pop\n      jump\t// out\n        /* \"#utility.yul\":3062:3180   */\n    tag_40:\n        /* \"#utility.yul\":3149:3173   */\n      tag_68\n        /* \"#utility.yul\":3167:3172   */\n      dup2\n        /* \"#utility.yul\":3149:3173   */\n      tag_39\n      jump\t// in\n    tag_68:\n        /* \"#utility.yul\":3144:3147   */\n      dup3\n        /* \"#utility.yul\":3137:3174   */\n      mstore\n        /* \"#utility.yul\":3062:3180   */\n      pop\n      pop\n      jump\t// out\n        /* \"#utility.yul\":3186:3263   */\n    tag_41:\n        /* \"#utility.yul\":3223:3230   */\n      0x00\n        /* \"#utility.yul\":3252:3257   */\n      dup2\n        /* \"#utility.yul\":3241:3257   */\n      swap1\n      pop\n        /* \"#utility.yul\":3186:3263   */\n      swap2\n      swap1\n      pop\n      jump\t// out\n        /* \"#utility.yul\":3269:3387   */\n    tag_42:\n        /* \"#utility.yul\":3356:3380   */\n      tag_71\n        /* \"#utility.yul\":3374:3379   */\n      dup2\n        /* \"#utility.yul\":3356:3380   */\n      tag_41\n      jump\t// in\n    tag_71:\n        /* \"#utility.yul\":3351:3354   */\n      dup3\n        /* \"#utility.yul\":3344:3381   */\n      mstore\n        /* \"#utility.yul\":3269:3387   */\n      pop\n      pop\n      jump\t// out\n        /* \"#utility.yul\":3393:3725   */\n    tag_30:\n        /* \"#utility.yul\":3514:3518   */\n      0x00\n        /* \"#utility.yul\":3552:3554   */\n      0x40\n        /* \"#utility.yul\":3541:3550   */\n      dup3\n        /* \"#utility.yul\":3537:3555   */\n      add\n        /* \"#utility.yul\":3529:3555   */\n      swap1\n      pop\n        /* \"#utility.yul\":3565:3636   */\n      tag_73\n        /* \"#utility.yul\":3633:3634   */\n      0x00\n        /* \"#utility.yul\":3622:3631   */\n      dup4\n        /* \"#utility.yul\":3618:3635   */\n      add\n        /* \"#utility.yul\":3609:3615   */\n      dup6\n        /* \"#utility.yul\":3565:3636   */\n      tag_40\n      jump\t// in\n    tag_73:\n        /* \"#utility.yul\":3646:3718   */\n      tag_74\n        /* \"#utility.yul\":3714:3716   */\n      0x20\n        /* \"#utility.yul\":3703:3712   */\n      dup4\n        /* \"#utility.yul\":3699:3717   */\n      add\n        /* \"#utility.yul\":3690:3696   */\n      dup5\n        /* \"#utility.yul\":3646:3718   */\n      tag_42\n      jump\t// in\n    tag_74:\n        /* \"#utility.yul\":3393:3725   */\n      swap4\n      swap3\n      pop\n      pop\n      pop\n      jump\t// out\n\n    auxdata: 0xa264697066735822122044ac44d53c2d4ad9fca5f15e78a2f99cd31da65d30b1945ea872d8676b547f0964736f6c63430008120033\n}\n",
				"bytecode": {
					"linkReferences": {},
					"object": "608060405234801561001057600080fd5b5033600060016101000a81548173ffffffffffffffffffffffffffffffffffffffff021916908373ffffffffffffffffffffffffffffffffffffffff16021790555060008060006101000a81548160ff0219169083600181111561007757610076610081565b5b02179055506100b0565b7f4e487b7100000000000000000000000000000000000000000000000000000000600052602160045260246000fd5b610425806100bf6000396000f3fe6080604052600436106100295760003560e01c80638da5cb5b1461002e578063b55a391014610059575b600080fd5b34801561003a57600080fd5b50610043610063565b6040516100509190610259565b60405180910390f35b610061610089565b005b600060019054906101000a900473ffffffffffffffffffffffffffffffffffffffff1681565b6000600181111561009d5761009c610274565b5b60008054906101000a900460ff1660018111156100bd576100bc610274565b5b146100fd576040517f08c379a00000000000000000000000000000000000000000000000000000000081526004016100f490610300565b60405180910390fd5b671bc16d674ec8000080341015610149576040517f08c379a00000000000000000000000000000000000000000000000000000000081526004016101409061036c565b60405180910390fd5b600060019054906101000a900473ffffffffffffffffffffffffffffffffffffffff1673ffffffffffffffffffffffffffffffffffffffff166108fc349081150290604051600060405180830381858888f193505050501580156101b1573d6000803e3d6000fd5b5060016000806101000a81548160ff021916908360018111156101d7576101d6610274565b5b02179055507fba951166d42eb077151bdecb7cf6027562f04f0143b0c141b1bb0a33eef5d693333460405161020d9291906103c6565b60405180910390a150565b600073ffffffffffffffffffffffffffffffffffffffff82169050919050565b600061024382610218565b9050919050565b61025381610238565b82525050565b600060208201905061026e600083018461024a565b92915050565b7f4e487b7100000000000000000000000000000000000000000000000000000000600052602160045260246000fd5b600082825260208201905092915050565b7f43757272656e746c79206f636375706965642e00000000000000000000000000600082015250565b60006102ea6013836102a3565b91506102f5826102b4565b602082019050919050565b60006020820190508181036000830152610319816102dd565b9050919050565b7f4e6f7420656e6f7567682045746865722e000000000000000000000000000000600082015250565b60006103566011836102a3565b915061036182610320565b602082019050919050565b6000602082019050818103600083015261038581610349565b9050919050565b600061039782610218565b9050919050565b6103a78161038c565b82525050565b6000819050919050565b6103c0816103ad565b82525050565b60006040820190506103db600083018561039e565b6103e860208301846103b7565b939250505056fea264697066735822122044ac44d53c2d4ad9fca5f15e78a2f99cd31da65d30b1945ea872d8676b547f0964736f6c63430008120033",
					"opcodes": "PUSH1 0x80 PUSH1 0x40 MSTORE CALLVALUE DUP1 ISZERO PUSH2 0x10 JUMPI PUSH1 0x0 DUP1 REVERT JUMPDEST POP CALLER PUSH1 0x0 PUSH1 0x1 PUSH2 0x100 EXP DUP2 SLOAD DUP2 PUSH20 0xFFFFFFFFFFFFFFFFFFFFFFFFFFFFFFFFFFFFFFFF MUL NOT AND SWAP1 DUP4 PUSH20 0xFFFFFFFFFFFFFFFFFFFFFFFFFFFFFFFFFFFFFFFF AND MUL OR SWAP1 SSTORE POP PUSH1 0x0 DUP1 PUSH1 0x0 PUSH2 0x100 EXP DUP2 SLOAD DUP2 PUSH1 0xFF MUL NOT AND SWAP1 DUP4 PUSH1 0x1 DUP2 GT ISZERO PUSH2 0x77 JUMPI PUSH2 0x76 PUSH2 0x81 JUMP JUMPDEST JUMPDEST MUL OR SWAP1 SSTORE POP PUSH2 0xB0 JUMP JUMPDEST PUSH32 0x4E487B7100000000000000000000000000000000000000000000000000000000 PUSH1 0x0 MSTORE PUSH1 0x21 PUSH1 0x4 MSTORE PUSH1 0x24 PUSH1 0x0 REVERT JUMPDEST PUSH2 0x425 DUP1 PUSH2 0xBF PUSH1 0x0 CODECOPY PUSH1 0x0 RETURN INVALID PUSH1 0x80 PUSH1 0x40 MSTORE PUSH1 0x4 CALLDATASIZE LT PUSH2 0x29 JUMPI PUSH1 0x0 CALLDATALOAD PUSH1 0xE0 SHR DUP1 PUSH4 0x8DA5CB5B EQ PUSH2 0x2E JUMPI DUP1 PUSH4 0xB55A3910 EQ PUSH2 0x59 JUMPI JUMPDEST PUSH1 0x0 DUP1 REVERT JUMPDEST CALLVALUE DUP1 ISZERO PUSH2 0x3A JUMPI PUSH1 0x0 DUP1 REVERT JUMPDEST POP PUSH2 0x43 PUSH2 0x63 JUMP JUMPDEST PUSH1 0x40 MLOAD PUSH2 0x50 SWAP2 SWAP1 PUSH2 0x259 JUMP JUMPDEST PUSH1 0x40 MLOAD DUP1 SWAP2 SUB SWAP1 RETURN JUMPDEST PUSH2 0x61 PUSH2 0x89 JUMP JUMPDEST STOP JUMPDEST PUSH1 0x0 PUSH1 0x1 SWAP1 SLOAD SWAP1 PUSH2 0x100 EXP SWAP1 DIV PUSH20 0xFFFFFFFFFFFFFFFFFFFFFFFFFFFFFFFFFFFFFFFF AND DUP2 JUMP JUMPDEST PUSH1 0x0 PUSH1 0x1 DUP2 GT ISZERO PUSH2 0x9D JUMPI PUSH2 0x9C PUSH2 0x274 JUMP JUMPDEST JUMPDEST PUSH1 0x0 DUP1 SLOAD SWAP1 PUSH2 0x100 EXP SWAP1 DIV PUSH1 0xFF AND PUSH1 0x1 DUP2 GT ISZERO PUSH2 0xBD JUMPI PUSH2 0xBC PUSH2 0x274 JUMP JUMPDEST JUMPDEST EQ PUSH2 0xFD JUMPI PUSH1 0x40 MLOAD PUSH32 0x8C379A000000000000000000000000000000000000000000000000000000000 DUP2 MSTORE PUSH1 0x4 ADD PUSH2 0xF4 SWAP1 PUSH2 0x300 JUMP JUMPDEST PUSH1 0x40 MLOAD DUP1 SWAP2 SUB SWAP1 REVERT JUMPDEST PUSH8 0x1BC16D674EC80000 DUP1 CALLVALUE LT ISZERO PUSH2 0x149 JUMPI PUSH1 0x40 MLOAD PUSH32 0x8C379A000000000000000000000000000000000000000000000000000000000 DUP2 MSTORE PUSH1 0x4 ADD PUSH2 0x140 SWAP1 PUSH2 0x36C JUMP JUMPDEST PUSH1 0x40 MLOAD DUP1 SWAP2 SUB SWAP1 REVERT JUMPDEST PUSH1 0x0 PUSH1 0x1 SWAP1 SLOAD SWAP1 PUSH2 0x100 EXP SWAP1 DIV PUSH20 0xFFFFFFFFFFFFFFFFFFFFFFFFFFFFFFFFFFFFFFFF AND PUSH20 0xFFFFFFFFFFFFFFFFFFFFFFFFFFFFFFFFFFFFFFFF AND PUSH2 0x8FC CALLVALUE SWAP1 DUP2 ISZERO MUL SWAP1 PUSH1 0x40 MLOAD PUSH1 0x0 PUSH1 0x40 MLOAD DUP1 DUP4 SUB DUP2 DUP6 DUP9 DUP9 CALL SWAP4 POP POP POP POP ISZERO DUP1 ISZERO PUSH2 0x1B1 JUMPI RETURNDATASIZE PUSH1 0x0 DUP1 RETURNDATACOPY RETURNDATASIZE PUSH1 0x0 REVERT JUMPDEST POP PUSH1 0x1 PUSH1 0x0 DUP1 PUSH2 0x100 EXP DUP2 SLOAD DUP2 PUSH1 0xFF MUL NOT AND SWAP1 DUP4 PUSH1 0x1 DUP2 GT ISZERO PUSH2 0x1D7 JUMPI PUSH2 0x1D6 PUSH2 0x274 JUMP JUMPDEST JUMPDEST MUL OR SWAP1 SSTORE POP PUSH32 0xBA951166D42EB077151BDECB7CF6027562F04F0143B0C141B1BB0A33EEF5D693 CALLER CALLVALUE PUSH1 0x40 MLOAD PUSH2 0x20D SWAP3 SWAP2 SWAP1 PUSH2 0x3C6 JUMP JUMPDEST PUSH1 0x40 MLOAD DUP1 SWAP2 SUB SWAP1 LOG1 POP JUMP JUMPDEST PUSH1 0x0 PUSH20 0xFFFFFFFFFFFFFFFFFFFFFFFFFFFFFFFFFFFFFFFF DUP3 AND SWAP1 POP SWAP2 SWAP1 POP JUMP JUMPDEST PUSH1 0x0 PUSH2 0x243 DUP3 PUSH2 0x218 JUMP JUMPDEST SWAP1 POP SWAP2 SWAP1 POP JUMP JUMPDEST PUSH2 0x253 DUP2 PUSH2 0x238 JUMP JUMPDEST DUP3 MSTORE POP POP JUMP JUMPDEST PUSH1 0x0 PUSH1 0x20 DUP3 ADD SWAP1 POP PUSH2 0x26E PUSH1 0x0 DUP4 ADD DUP5 PUSH2 0x24A JUMP JUMPDEST SWAP3 SWAP2 POP POP JUMP JUMPDEST PUSH32 0x4E487B7100000000000000000000000000000000000000000000000000000000 PUSH1 0x0 MSTORE PUSH1 0x21 PUSH1 0x4 MSTORE PUSH1 0x24 PUSH1 0x0 REVERT JUMPDEST PUSH1 0x0 DUP3 DUP3 MSTORE PUSH1 0x20 DUP3 ADD SWAP1 POP SWAP3 SWAP2 POP POP JUMP JUMPDEST PUSH32 0x43757272656E746C79206F636375706965642E00000000000000000000000000 PUSH1 0x0 DUP3 ADD MSTORE POP JUMP JUMPDEST PUSH1 0x0 PUSH2 0x2EA PUSH1 0x13 DUP4 PUSH2 0x2A3 JUMP JUMPDEST SWAP2 POP PUSH2 0x2F5 DUP3 PUSH2 0x2B4 JUMP JUMPDEST PUSH1 0x20 DUP3 ADD SWAP1 POP SWAP2 SWAP1 POP JUMP JUMPDEST PUSH1 0x0 PUSH1 0x20 DUP3 ADD SWAP1 POP DUP2 DUP2 SUB PUSH1 0x0 DUP4 ADD MSTORE PUSH2 0x319 DUP2 PUSH2 0x2DD JUMP JUMPDEST SWAP1 POP SWAP2 SWAP1 POP JUMP JUMPDEST PUSH32 0x4E6F7420656E6F7567682045746865722E000000000000000000000000000000 PUSH1 0x0 DUP3 ADD MSTORE POP JUMP JUMPDEST PUSH1 0x0 PUSH2 0x356 PUSH1 0x11 DUP4 PUSH2 0x2A3 JUMP JUMPDEST SWAP2 POP PUSH2 0x361 DUP3 PUSH2 0x320 JUMP JUMPDEST PUSH1 0x20 DUP3 ADD SWAP1 POP SWAP2 SWAP1 POP JUMP JUMPDEST PUSH1 0x0 PUSH1 0x20 DUP3 ADD SWAP1 POP DUP2 DUP2 SUB PUSH1 0x0 DUP4 ADD MSTORE PUSH2 0x385 DUP2 PUSH2 0x349 JUMP JUMPDEST SWAP1 POP SWAP2 SWAP1 POP JUMP JUMPDEST PUSH1 0x0 PUSH2 0x397 DUP3 PUSH2 0x218 JUMP JUMPDEST SWAP1 POP SWAP2 SWAP1 POP JUMP JUMPDEST PUSH2 0x3A7 DUP2 PUSH2 0x38C JUMP JUMPDEST DUP3 MSTORE POP POP JUMP JUMPDEST PUSH1 0x0 DUP2 SWAP1 POP SWAP2 SWAP1 POP JUMP JUMPDEST PUSH2 0x3C0 DUP2 PUSH2 0x3AD JUMP JUMPDEST DUP3 MSTORE POP POP JUMP JUMPDEST PUSH1 0x0 PUSH1 0x40 DUP3 ADD SWAP1 POP PUSH2 0x3DB PUSH1 0x0 DUP4 ADD DUP6 PUSH2 0x39E JUMP JUMPDEST PUSH2 0x3E8 PUSH1 0x20 DUP4 ADD DUP5 PUSH2 0x3B7 JUMP JUMPDEST SWAP4 SWAP3 POP POP POP JUMP INVALID LOG2 PUSH5 0x6970667358 0x22 SLT KECCAK256 PREVRANDAO 0xAC PREVRANDAO 0xD5 EXTCODECOPY 0x2D 0x4A 0xD9 0xFC 0xA5 CALL 0x5E PUSH25 0xA2F99CD31DA65D30B1945EA872D8676B547F0964736F6C6343 STOP ADDMOD SLT STOP CALLER "
				},
				"gasEstimates": {
					"creation": {
						"codeDepositCost": "212200",
						"executionCost": "48872",
						"totalCost": "261072"
					},
					"external": {
						"bookRoom()": "infinite",
						"owner()": "2542"
					}
				},
				"methodIdentifiers": {
					"bookRoom()": "b55a3910",
					"owner()": "8da5cb5b"
				}
			},
			"storageLayout": {
				"storage": [
					{
						"astId": 7,
						"contract": "contracts/HotelRoom.sol:HotelRoom",
						"label": "currentStatus",
						"offset": 0,
						"slot": "0",
						"type": "t_enum(Statuses)4"
					},
					{
						"astId": 15,
						"contract": "contracts/HotelRoom.sol:HotelRoom",
						"label": "owner",
						"offset": 1,
						"slot": "0",
						"type": "t_address_payable"
					}
				],
				"types": {
					"t_address_payable": {
						"encoding": "inplace",
						"label": "address payable",
						"numberOfBytes": "20"
					},
					"t_enum(Statuses)4": {
						"encoding": "inplace",
						"label": "enum HotelRoom.Statuses",
						"numberOfBytes": "1"
					}
				}
			},
			"userdoc": {
				"kind": "user",
				"methods": {},
				"version": 1
			}
		}
	}
}