{
	"contracts/KayakRental.sol": {
		"KayakRental": {
			"abi": [
				{
					"inputs": [],
					"stateMutability": "nonpayable",
					"type": "constructor"
				},
				{
					"anonymous": false,
					"inputs": [
						{
							"indexed": false,
							"internalType": "address",
							"name": "_renter",
							"type": "address"
						},
						{
							"indexed": false,
							"internalType": "uint256",
							"name": "_value",
							"type": "uint256"
						}
					],
					"name": "RentKayak",
					"type": "event"
				},
				{
					"inputs": [],
					"name": "bookKayak",
					"outputs": [],
					"stateMutability": "payable",
					"type": "function"
				},
				{
					"inputs": [],
					"name": "owner",
					"outputs": [
						{
							"internalType": "address payable",
							"name": "",
							"type": "address"
						}
					],
					"stateMutability": "view",
					"type": "function"
				}
			],
			"devdoc": {
				"kind": "dev",
				"methods": {},
				"version": 1
			},
			"evm": {
				"assembly": "    /* \"contracts/KayakRental.sol\":57:797  contract KayakRental {... */\n  mstore(0x40, 0x80)\n    /* \"contracts/KayakRental.sol\":246:348  constructor() {... */\n  callvalue\n  dup1\n  iszero\n  tag_1\n  jumpi\n  0x00\n  dup1\n  revert\ntag_1:\n  pop\n    /* \"contracts/KayakRental.sol\":286:296  msg.sender */\n  caller\n    /* \"contracts/KayakRental.sol\":270:275  owner */\n  0x00\n  0x01\n    /* \"contracts/KayakRental.sol\":270:297  owner = payable(msg.sender) */\n  0x0100\n  exp\n  dup2\n  sload\n  dup2\n  0xffffffffffffffffffffffffffffffffffffffff\n  mul\n  not\n  and\n  swap1\n  dup4\n  0xffffffffffffffffffffffffffffffffffffffff\n  and\n  mul\n  or\n  swap1\n  sstore\n  pop\n    /* \"contracts/KayakRental.sol\":323:341  Statuses.available */\n  0x00\n    /* \"contracts/KayakRental.sol\":307:320  currentStatus */\n  dup1\n  0x00\n    /* \"contracts/KayakRental.sol\":307:341  currentStatus = Statuses.available */\n  0x0100\n  exp\n  dup2\n  sload\n  dup2\n  0xff\n  mul\n  not\n  and\n  swap1\n  dup4\n  0x01\n  dup2\n  gt\n  iszero\n  tag_4\n  jumpi\n  tag_5\n  tag_6\n  jump\t// in\ntag_5:\ntag_4:\n  mul\n  or\n  swap1\n  sstore\n  pop\n    /* \"contracts/KayakRental.sol\":57:797  contract KayakRental {... */\n  jump(tag_7)\n    /* \"#utility.yul\":7:187   */\ntag_6:\n    /* \"#utility.yul\":55:132   */\n  0x4e487b7100000000000000000000000000000000000000000000000000000000\n    /* \"#utility.yul\":52:53   */\n  0x00\n    /* \"#utility.yul\":45:133   */\n  mstore\n    /* \"#utility.yul\":152:156   */\n  0x21\n    /* \"#utility.yul\":149:150   */\n  0x04\n    /* \"#utility.yul\":142:157   */\n  mstore\n    /* \"#utility.yul\":176:180   */\n  0x24\n    /* \"#utility.yul\":173:174   */\n  0x00\n    /* \"#utility.yul\":166:181   */\n  revert\n    /* \"contracts/KayakRental.sol\":57:797  contract KayakRental {... */\ntag_7:\n  dataSize(sub_0)\n  dup1\n  dataOffset(sub_0)\n  0x00\n  codecopy\n  0x00\n  return\nstop\n\nsub_0: assembly {\n        /* \"contracts/KayakRental.sol\":57:797  contract KayakRental {... */\n      mstore(0x40, 0x80)\n      jumpi(tag_1, lt(calldatasize, 0x04))\n      shr(0xe0, calldataload(0x00))\n      dup1\n      0x8da5cb5b\n      eq\n      tag_2\n      jumpi\n      dup1\n      0xb507767c\n      eq\n      tag_3\n      jumpi\n    tag_1:\n      0x00\n      dup1\n      revert\n        /* \"contracts/KayakRental.sol\":211:239  address payable public owner */\n    tag_2:\n      callvalue\n      dup1\n      iszero\n      tag_4\n      jumpi\n      0x00\n      dup1\n      revert\n    tag_4:\n      pop\n      tag_5\n      tag_6\n      jump\t// in\n    tag_5:\n      mload(0x40)\n      tag_7\n      swap2\n      swap1\n      tag_8\n      jump\t// in\n    tag_7:\n      mload(0x40)\n      dup1\n      swap2\n      sub\n      swap1\n      return\n        /* \"contracts/KayakRental.sol\":596:795  function bookKayak() payable isAvailable costs(1 ether) public {... */\n    tag_3:\n      tag_9\n      tag_10\n      jump\t// in\n    tag_9:\n      stop\n        /* \"contracts/KayakRental.sol\":211:239  address payable public owner */\n    tag_6:\n      0x00\n      0x01\n      swap1\n      sload\n      swap1\n      0x0100\n      exp\n      swap1\n      div\n      0xffffffffffffffffffffffffffffffffffffffff\n      and\n      dup2\n      jump\t// out\n        /* \"contracts/KayakRental.sol\":596:795  function bookKayak() payable isAvailable costs(1 ether) public {... */\n    tag_10:\n        /* \"contracts/KayakRental.sol\":410:428  Statuses.available */\n      0x00\n        /* \"contracts/KayakRental.sol\":393:428  currentStatus == Statuses.available */\n      0x01\n      dup2\n      gt\n      iszero\n      tag_12\n      jumpi\n      tag_13\n      tag_14\n      jump\t// in\n    tag_13:\n    tag_12:\n        /* \"contracts/KayakRental.sol\":393:406  currentStatus */\n      0x00\n      dup1\n      sload\n      swap1\n      0x0100\n      exp\n      swap1\n      div\n      0xff\n      and\n        /* \"contracts/KayakRental.sol\":393:428  currentStatus == Statuses.available */\n      0x01\n      dup2\n      gt\n      iszero\n      tag_15\n      jumpi\n      tag_16\n      tag_14\n      jump\t// in\n    tag_16:\n    tag_15:\n      eq\n        /* \"contracts/KayakRental.sol\":385:453  require(currentStatus == Statuses.available, \"Kayak already in use\") */\n      tag_17\n      jumpi\n      mload(0x40)\n      0x08c379a000000000000000000000000000000000000000000000000000000000\n      dup2\n      mstore\n      0x04\n      add\n      tag_18\n      swap1\n      tag_19\n      jump\t// in\n    tag_18:\n      mload(0x40)\n      dup1\n      swap2\n      sub\n      swap1\n      revert\n    tag_17:\n        /* \"contracts/KayakRental.sol\":643:650  1 ether */\n      0x0de0b6b3a7640000\n        /* \"contracts/KayakRental.sol\":537:544  _amount */\n      dup1\n        /* \"contracts/KayakRental.sol\":524:533  msg.value */\n      callvalue\n        /* \"contracts/KayakRental.sol\":524:544  msg.value >= _amount */\n      lt\n      iszero\n        /* \"contracts/KayakRental.sol\":516:572  require(msg.value >= _amount, \"Not enough eth provided\") */\n      tag_21\n      jumpi\n      mload(0x40)\n      0x08c379a000000000000000000000000000000000000000000000000000000000\n      dup2\n      mstore\n      0x04\n      add\n      tag_22\n      swap1\n      tag_23\n      jump\t// in\n    tag_22:\n      mload(0x40)\n      dup1\n      swap2\n      sub\n      swap1\n      revert\n    tag_21:\n        /* \"contracts/KayakRental.sol\":685:705  Statuses.unavailable */\n      0x01\n        /* \"contracts/KayakRental.sol\":669:682  currentStatus */\n      0x00\n      dup1\n        /* \"contracts/KayakRental.sol\":669:705  currentStatus = Statuses.unavailable */\n      0x0100\n      exp\n      dup2\n      sload\n      dup2\n      0xff\n      mul\n      not\n      and\n      swap1\n      dup4\n      0x01\n      dup2\n      gt\n      iszero\n      tag_25\n      jumpi\n      tag_26\n      tag_14\n      jump\t// in\n    tag_26:\n    tag_25:\n      mul\n      or\n      swap1\n      sstore\n      pop\n        /* \"contracts/KayakRental.sol\":715:720  owner */\n      0x00\n      0x01\n      swap1\n      sload\n      swap1\n      0x0100\n      exp\n      swap1\n      div\n      0xffffffffffffffffffffffffffffffffffffffff\n      and\n        /* \"contracts/KayakRental.sol\":715:729  owner.transfer */\n      0xffffffffffffffffffffffffffffffffffffffff\n      and\n        /* \"contracts/KayakRental.sol\":715:740  owner.transfer(msg.value) */\n      0x08fc\n        /* \"contracts/KayakRental.sol\":730:739  msg.value */\n      callvalue\n        /* \"contracts/KayakRental.sol\":715:740  owner.transfer(msg.value) */\n      swap1\n      dup2\n      iszero\n      mul\n      swap1\n      mload(0x40)\n      0x00\n      mload(0x40)\n      dup1\n      dup4\n      sub\n      dup2\n      dup6\n      dup9\n      dup9\n      call\n      swap4\n      pop\n      pop\n      pop\n      pop\n      iszero\n      dup1\n      iszero\n      tag_28\n      jumpi\n      returndatasize\n      0x00\n      dup1\n      returndatacopy\n      revert(0x00, returndatasize)\n    tag_28:\n      pop\n        /* \"contracts/KayakRental.sol\":756:788  RentKayak(msg.sender, msg.value) */\n      0x2490c7c51567536e53a39ada069323f116c2b41be9270548c7502383669ca2e0\n        /* \"contracts/KayakRental.sol\":766:776  msg.sender */\n      caller\n        /* \"contracts/KayakRental.sol\":778:787  msg.value */\n      callvalue\n        /* \"contracts/KayakRental.sol\":756:788  RentKayak(msg.sender, msg.value) */\n      mload(0x40)\n      tag_29\n      swap3\n      swap2\n      swap1\n      tag_30\n      jump\t// in\n    tag_29:\n      mload(0x40)\n      dup1\n      swap2\n      sub\n      swap1\n      log1\n        /* \"contracts/KayakRental.sol\":463:464  _ */\n      pop\n        /* \"contracts/KayakRental.sol\":596:795  function bookKayak() payable isAvailable costs(1 ether) public {... */\n      jump\t// out\n        /* \"#utility.yul\":7:133   */\n    tag_31:\n        /* \"#utility.yul\":44:51   */\n      0x00\n        /* \"#utility.yul\":84:126   */\n      0xffffffffffffffffffffffffffffffffffffffff\n        /* \"#utility.yul\":77:82   */\n      dup3\n        /* \"#utility.yul\":73:127   */\n      and\n        /* \"#utility.yul\":62:127   */\n      swap1\n      pop\n        /* \"#utility.yul\":7:133   */\n      swap2\n      swap1\n      pop\n      jump\t// out\n        /* \"#utility.yul\":139:243   */\n    tag_32:\n        /* \"#utility.yul\":184:191   */\n      0x00\n        /* \"#utility.yul\":213:237   */\n      tag_46\n        /* \"#utility.yul\":231:236   */\n      dup3\n        /* \"#utility.yul\":213:237   */\n      tag_31\n      jump\t// in\n    tag_46:\n        /* \"#utility.yul\":202:237   */\n      swap1\n      pop\n        /* \"#utility.yul\":139:243   */\n      swap2\n      swap1\n      pop\n      jump\t// out\n        /* \"#utility.yul\":249:391   */\n    tag_33:\n        /* \"#utility.yul\":352:384   */\n      tag_48\n        /* \"#utility.yul\":378:383   */\n      dup2\n        /* \"#utility.yul\":352:384   */\n      tag_32\n      jump\t// in\n    tag_48:\n        /* \"#utility.yul\":347:350   */\n      dup3\n        /* \"#utility.yul\":340:385   */\n      mstore\n        /* \"#utility.yul\":249:391   */\n      pop\n      pop\n      jump\t// out\n        /* \"#utility.yul\":397:651   */\n    tag_8:\n        /* \"#utility.yul\":506:510   */\n      0x00\n        /* \"#utility.yul\":544:546   */\n      0x20\n        /* \"#utility.yul\":533:542   */\n      dup3\n        /* \"#utility.yul\":529:547   */\n      add\n        /* \"#utility.yul\":521:547   */\n      swap1\n      pop\n        /* \"#utility.yul\":557:644   */\n      tag_50\n        /* \"#utility.yul\":641:642   */\n      0x00\n        /* \"#utility.yul\":630:639   */\n      dup4\n        /* \"#utility.yul\":626:643   */\n      add\n        /* \"#utility.yul\":617:623   */\n      dup5\n        /* \"#utility.yul\":557:644   */\n      tag_33\n      jump\t// in\n    tag_50:\n        /* \"#utility.yul\":397:651   */\n      swap3\n      swap2\n      pop\n      pop\n      jump\t// out\n        /* \"#utility.yul\":657:837   */\n    tag_14:\n        /* \"#utility.yul\":705:782   */\n      0x4e487b7100000000000000000000000000000000000000000000000000000000\n        /* \"#utility.yul\":702:703   */\n      0x00\n        /* \"#utility.yul\":695:783   */\n      mstore\n        /* \"#utility.yul\":802:806   */\n      0x21\n        /* \"#utility.yul\":799:800   */\n      0x04\n        /* \"#utility.yul\":792:807   */\n      mstore\n        /* \"#utility.yul\":826:830   */\n      0x24\n        /* \"#utility.yul\":823:824   */\n      0x00\n        /* \"#utility.yul\":816:831   */\n      revert\n        /* \"#utility.yul\":843:1012   */\n    tag_34:\n        /* \"#utility.yul\":927:938   */\n      0x00\n        /* \"#utility.yul\":961:967   */\n      dup3\n        /* \"#utility.yul\":956:959   */\n      dup3\n        /* \"#utility.yul\":949:968   */\n      mstore\n        /* \"#utility.yul\":1001:1005   */\n      0x20\n        /* \"#utility.yul\":996:999   */\n      dup3\n        /* \"#utility.yul\":992:1006   */\n      add\n        /* \"#utility.yul\":977:1006   */\n      swap1\n      pop\n        /* \"#utility.yul\":843:1012   */\n      swap3\n      swap2\n      pop\n      pop\n      jump\t// out\n        /* \"#utility.yul\":1018:1188   */\n    tag_35:\n        /* \"#utility.yul\":1158:1180   */\n      0x4b6179616b20616c726561647920696e20757365000000000000000000000000\n        /* \"#utility.yul\":1154:1155   */\n      0x00\n        /* \"#utility.yul\":1146:1152   */\n      dup3\n        /* \"#utility.yul\":1142:1156   */\n      add\n        /* \"#utility.yul\":1135:1181   */\n      mstore\n        /* \"#utility.yul\":1018:1188   */\n      pop\n      jump\t// out\n        /* \"#utility.yul\":1194:1560   */\n    tag_36:\n        /* \"#utility.yul\":1336:1339   */\n      0x00\n        /* \"#utility.yul\":1357:1424   */\n      tag_55\n        /* \"#utility.yul\":1421:1423   */\n      0x14\n        /* \"#utility.yul\":1416:1419   */\n      dup4\n        /* \"#utility.yul\":1357:1424   */\n      tag_34\n      jump\t// in\n    tag_55:\n        /* \"#utility.yul\":1350:1424   */\n      swap2\n      pop\n        /* \"#utility.yul\":1433:1526   */\n      tag_56\n        /* \"#utility.yul\":1522:1525   */\n      dup3\n        /* \"#utility.yul\":1433:1526   */\n      tag_35\n      jump\t// in\n    tag_56:\n        /* \"#utility.yul\":1551:1553   */\n      0x20\n        /* \"#utility.yul\":1546:1549   */\n      dup3\n        /* \"#utility.yul\":1542:1554   */\n      add\n        /* \"#utility.yul\":1535:1554   */\n      swap1\n      pop\n        /* \"#utility.yul\":1194:1560   */\n      swap2\n      swap1\n      pop\n      jump\t// out\n        /* \"#utility.yul\":1566:1985   */\n    tag_19:\n        /* \"#utility.yul\":1732:1736   */\n      0x00\n        /* \"#utility.yul\":1770:1772   */\n      0x20\n        /* \"#utility.yul\":1759:1768   */\n      dup3\n        /* \"#utility.yul\":1755:1773   */\n      add\n        /* \"#utility.yul\":1747:1773   */\n      swap1\n      pop\n        /* \"#utility.yul\":1819:1828   */\n      dup2\n        /* \"#utility.yul\":1813:1817   */\n      dup2\n        /* \"#utility.yul\":1809:1829   */\n      sub\n        /* \"#utility.yul\":1805:1806   */\n      0x00\n        /* \"#utility.yul\":1794:1803   */\n      dup4\n        /* \"#utility.yul\":1790:1807   */\n      add\n        /* \"#utility.yul\":1783:1830   */\n      mstore\n        /* \"#utility.yul\":1847:1978   */\n      tag_58\n        /* \"#utility.yul\":1973:1977   */\n      dup2\n        /* \"#utility.yul\":1847:1978   */\n      tag_36\n      jump\t// in\n    tag_58:\n        /* \"#utility.yul\":1839:1978   */\n      swap1\n      pop\n        /* \"#utility.yul\":1566:1985   */\n      swap2\n      swap1\n      pop\n      jump\t// out\n        /* \"#utility.yul\":1991:2164   */\n    tag_37:\n        /* \"#utility.yul\":2131:2156   */\n      0x4e6f7420656e6f756768206574682070726f7669646564000000000000000000\n        /* \"#utility.yul\":2127:2128   */\n      0x00\n        /* \"#utility.yul\":2119:2125   */\n      dup3\n        /* \"#utility.yul\":2115:2129   */\n      add\n        /* \"#utility.yul\":2108:2157   */\n      mstore\n        /* \"#utility.yul\":1991:2164   */\n      pop\n      jump\t// out\n        /* \"#utility.yul\":2170:2536   */\n    tag_38:\n        /* \"#utility.yul\":2312:2315   */\n      0x00\n        /* \"#utility.yul\":2333:2400   */\n      tag_61\n        /* \"#utility.yul\":2397:2399   */\n      0x17\n        /* \"#utility.yul\":2392:2395   */\n      dup4\n        /* \"#utility.yul\":2333:2400   */\n      tag_34\n      jump\t// in\n    tag_61:\n        /* \"#utility.yul\":2326:2400   */\n      swap2\n      pop\n        /* \"#utility.yul\":2409:2502   */\n      tag_62\n        /* \"#utility.yul\":2498:2501   */\n      dup3\n        /* \"#utility.yul\":2409:2502   */\n      tag_37\n      jump\t// in\n    tag_62:\n        /* \"#utility.yul\":2527:2529   */\n      0x20\n        /* \"#utility.yul\":2522:2525   */\n      dup3\n        /* \"#utility.yul\":2518:2530   */\n      add\n        /* \"#utility.yul\":2511:2530   */\n      swap1\n      pop\n        /* \"#utility.yul\":2170:2536   */\n      swap2\n      swap1\n      pop\n      jump\t// out\n        /* \"#utility.yul\":2542:2961   */\n    tag_23:\n        /* \"#utility.yul\":2708:2712   */\n      0x00\n        /* \"#utility.yul\":2746:2748   */\n      0x20\n        /* \"#utility.yul\":2735:2744   */\n      dup3\n        /* \"#utility.yul\":2731:2749   */\n      add\n        /* \"#utility.yul\":2723:2749   */\n      swap1\n      pop\n        /* \"#utility.yul\":2795:2804   */\n      dup2\n        /* \"#utility.yul\":2789:2793   */\n      dup2\n        /* \"#utility.yul\":2785:2805   */\n      sub\n        /* \"#utility.yul\":2781:2782   */\n      0x00\n        /* \"#utility.yul\":2770:2779   */\n      dup4\n        /* \"#utility.yul\":2766:2783   */\n      add\n        /* \"#utility.yul\":2759:2806   */\n      mstore\n        /* \"#utility.yul\":2823:2954   */\n      tag_64\n        /* \"#utility.yul\":2949:2953   */\n      dup2\n        /* \"#utility.yul\":2823:2954   */\n      tag_38\n      jump\t// in\n    tag_64:\n        /* \"#utility.yul\":2815:2954   */\n      swap1\n      pop\n        /* \"#utility.yul\":2542:2961   */\n      swap2\n      swap1\n      pop\n      jump\t// out\n        /* \"#utility.yul\":2967:3063   */\n    tag_39:\n        /* \"#utility.yul\":3004:3011   */\n      0x00\n        /* \"#utility.yul\":3033:3057   */\n      tag_66\n        /* \"#utility.yul\":3051:3056   */\n      dup3\n        /* \"#utility.yul\":3033:3057   */\n      tag_31\n      jump\t// in\n    tag_66:\n        /* \"#utility.yul\":3022:3057   */\n      swap1\n      pop\n        /* \"#utility.yul\":2967:3063   */\n      swap2\n      swap1\n      pop\n      jump\t// out\n        /* \"#utility.yul\":3069:3187   */\n    tag_40:\n        /* \"#utility.yul\":3156:3180   */\n      tag_68\n        /* \"#utility.yul\":3174:3179   */\n      dup2\n        /* \"#utility.yul\":3156:3180   */\n      tag_39\n      jump\t// in\n    tag_68:\n        /* \"#utility.yul\":3151:3154   */\n      dup3\n        /* \"#utility.yul\":3144:3181   */\n      mstore\n        /* \"#utility.yul\":3069:3187   */\n      pop\n      pop\n      jump\t// out\n        /* \"#utility.yul\":3193:3270   */\n    tag_41:\n        /* \"#utility.yul\":3230:3237   */\n      0x00\n        /* \"#utility.yul\":3259:3264   */\n      dup2\n        /* \"#utility.yul\":3248:3264   */\n      swap1\n      pop\n        /* \"#utility.yul\":3193:3270   */\n      swap2\n      swap1\n      pop\n      jump\t// out\n        /* \"#utility.yul\":3276:3394   */\n    tag_42:\n        /* \"#utility.yul\":3363:3387   */\n      tag_71\n        /* \"#utility.yul\":3381:3386   */\n      dup2\n        /* \"#utility.yul\":3363:3387   */\n      tag_41\n      jump\t// in\n    tag_71:\n        /* \"#utility.yul\":3358:3361   */\n      dup3\n        /* \"#utility.yul\":3351:3388   */\n      mstore\n        /* \"#utility.yul\":3276:3394   */\n      pop\n      pop\n      jump\t// out\n        /* \"#utility.yul\":3400:3732   */\n    tag_30:\n        /* \"#utility.yul\":3521:3525   */\n      0x00\n        /* \"#utility.yul\":3559:3561   */\n      0x40\n        /* \"#utility.yul\":3548:3557   */\n      dup3\n        /* \"#utility.yul\":3544:3562   */\n      add\n        /* \"#utility.yul\":3536:3562   */\n      swap1\n      pop\n        /* \"#utility.yul\":3572:3643   */\n      tag_73\n        /* \"#utility.yul\":3640:3641   */\n      0x00\n        /* \"#utility.yul\":3629:3638   */\n      dup4\n        /* \"#utility.yul\":3625:3642   */\n      add\n        /* \"#utility.yul\":3616:3622   */\n      dup6\n        /* \"#utility.yul\":3572:3643   */\n      tag_40\n      jump\t// in\n    tag_73:\n        /* \"#utility.yul\":3653:3725   */\n      tag_74\n        /* \"#utility.yul\":3721:3723   */\n      0x20\n        /* \"#utility.yul\":3710:3719   */\n      dup4\n        /* \"#utility.yul\":3706:3724   */\n      add\n        /* \"#utility.yul\":3697:3703   */\n      dup5\n        /* \"#utility.yul\":3653:3725   */\n      tag_42\n      jump\t// in\n    tag_74:\n        /* \"#utility.yul\":3400:3732   */\n      swap4\n      swap3\n      pop\n      pop\n      pop\n      jump\t// out\n\n    auxdata: 0xa26469706673582212201f8bb2506411233c86d611cf781ba8fb57b753cf8c16c41124f9c7f4bb14bb7864736f6c63430008120033\n}\n",
				"bytecode": {
					"linkReferences": {},
					"object": "608060405234801561001057600080fd5b5033600060016101000a81548173ffffffffffffffffffffffffffffffffffffffff021916908373ffffffffffffffffffffffffffffffffffffffff16021790555060008060006101000a81548160ff0219169083600181111561007757610076610081565b5b02179055506100b0565b7f4e487b7100000000000000000000000000000000000000000000000000000000600052602160045260246000fd5b610425806100bf6000396000f3fe6080604052600436106100295760003560e01c80638da5cb5b1461002e578063b507767c14610059575b600080fd5b34801561003a57600080fd5b50610043610063565b6040516100509190610259565b60405180910390f35b610061610089565b005b600060019054906101000a900473ffffffffffffffffffffffffffffffffffffffff1681565b6000600181111561009d5761009c610274565b5b60008054906101000a900460ff1660018111156100bd576100bc610274565b5b146100fd576040517f08c379a00000000000000000000000000000000000000000000000000000000081526004016100f490610300565b60405180910390fd5b670de0b6b3a764000080341015610149576040517f08c379a00000000000000000000000000000000000000000000000000000000081526004016101409061036c565b60405180910390fd5b60016000806101000a81548160ff0219169083600181111561016e5761016d610274565b5b0217905550600060019054906101000a900473ffffffffffffffffffffffffffffffffffffffff1673ffffffffffffffffffffffffffffffffffffffff166108fc349081150290604051600060405180830381858888f193505050501580156101db573d6000803e3d6000fd5b507f2490c7c51567536e53a39ada069323f116c2b41be9270548c7502383669ca2e0333460405161020d9291906103c6565b60405180910390a150565b600073ffffffffffffffffffffffffffffffffffffffff82169050919050565b600061024382610218565b9050919050565b61025381610238565b82525050565b600060208201905061026e600083018461024a565b92915050565b7f4e487b7100000000000000000000000000000000000000000000000000000000600052602160045260246000fd5b600082825260208201905092915050565b7f4b6179616b20616c726561647920696e20757365000000000000000000000000600082015250565b60006102ea6014836102a3565b91506102f5826102b4565b602082019050919050565b60006020820190508181036000830152610319816102dd565b9050919050565b7f4e6f7420656e6f756768206574682070726f7669646564000000000000000000600082015250565b60006103566017836102a3565b915061036182610320565b602082019050919050565b6000602082019050818103600083015261038581610349565b9050919050565b600061039782610218565b9050919050565b6103a78161038c565b82525050565b6000819050919050565b6103c0816103ad565b82525050565b60006040820190506103db600083018561039e565b6103e860208301846103b7565b939250505056fea26469706673582212201f8bb2506411233c86d611cf781ba8fb57b753cf8c16c41124f9c7f4bb14bb7864736f6c63430008120033",
					"opcodes": "PUSH1 0x80 PUSH1 0x40 MSTORE CALLVALUE DUP1 ISZERO PUSH2 0x10 JUMPI PUSH1 0x0 DUP1 REVERT JUMPDEST POP CALLER PUSH1 0x0 PUSH1 0x1 PUSH2 0x100 EXP DUP2 SLOAD DUP2 PUSH20 0xFFFFFFFFFFFFFFFFFFFFFFFFFFFFFFFFFFFFFFFF MUL NOT AND SWAP1 DUP4 PUSH20 0xFFFFFFFFFFFFFFFFFFFFFFFFFFFFFFFFFFFFFFFF AND MUL OR SWAP1 SSTORE POP PUSH1 0x0 DUP1 PUSH1 0x0 PUSH2 0x100 EXP DUP2 SLOAD DUP2 PUSH1 0xFF MUL NOT AND SWAP1 DUP4 PUSH1 0x1 DUP2 GT ISZERO PUSH2 0x77 JUMPI PUSH2 0x76 PUSH2 0x81 JUMP JUMPDEST JUMPDEST MUL OR SWAP1 SSTORE POP PUSH2 0xB0 JUMP JUMPDEST PUSH32 0x4E487B7100000000000000000000000000000000000000000000000000000000 PUSH1 0x0 MSTORE PUSH1 0x21 PUSH1 0x4 MSTORE PUSH1 0x24 PUSH1 0x0 REVERT JUMPDEST PUSH2 0x425 DUP1 PUSH2 0xBF PUSH1 0x0 CODECOPY PUSH1 0x0 RETURN INVALID PUSH1 0x80 PUSH1 0x40 MSTORE PUSH1 0x4 CALLDATASIZE LT PUSH2 0x29 JUMPI PUSH1 0x0 CALLDATALOAD PUSH1 0xE0 SHR DUP1 PUSH4 0x8DA5CB5B EQ PUSH2 0x2E JUMPI DUP1 PUSH4 0xB507767C EQ PUSH2 0x59 JUMPI JUMPDEST PUSH1 0x0 DUP1 REVERT JUMPDEST CALLVALUE DUP1 ISZERO PUSH2 0x3A JUMPI PUSH1 0x0 DUP1 REVERT JUMPDEST POP PUSH2 0x43 PUSH2 0x63 JUMP JUMPDEST PUSH1 0x40 MLOAD PUSH2 0x50 SWAP2 SWAP1 PUSH2 0x259 JUMP JUMPDEST PUSH1 0x40 MLOAD DUP1 SWAP2 SUB SWAP1 RETURN JUMPDEST PUSH2 0x61 PUSH2 0x89 JUMP JUMPDEST STOP JUMPDEST PUSH1 0x0 PUSH1 0x1 SWAP1 SLOAD SWAP1 PUSH2 0x100 EXP SWAP1 DIV PUSH20 0xFFFFFFFFFFFFFFFFFFFFFFFFFFFFFFFFFFFFFFFF AND DUP2 JUMP JUMPDEST PUSH1 0x0 PUSH1 0x1 DUP2 GT ISZERO PUSH2 0x9D JUMPI PUSH2 0x9C PUSH2 0x274 JUMP JUMPDEST JUMPDEST PUSH1 0x0 DUP1 SLOAD SWAP1 PUSH2 0x100 EXP SWAP1 DIV PUSH1 0xFF AND PUSH1 0x1 DUP2 GT ISZERO PUSH2 0xBD JUMPI PUSH2 0xBC PUSH2 0x274 JUMP JUMPDEST JUMPDEST EQ PUSH2 0xFD JUMPI PUSH1 0x40 MLOAD PUSH32 0x8C379A000000000000000000000000000000000000000000000000000000000 DUP2 MSTORE PUSH1 0x4 ADD PUSH2 0xF4 SWAP1 PUSH2 0x300 JUMP JUMPDEST PUSH1 0x40 MLOAD DUP1 SWAP2 SUB SWAP1 REVERT JUMPDEST PUSH8 0xDE0B6B3A7640000 DUP1 CALLVALUE LT ISZERO PUSH2 0x149 JUMPI PUSH1 0x40 MLOAD PUSH32 0x8C379A000000000000000000000000000000000000000000000000000000000 DUP2 MSTORE PUSH1 0x4 ADD PUSH2 0x140 SWAP1 PUSH2 0x36C JUMP JUMPDEST PUSH1 0x40 MLOAD DUP1 SWAP2 SUB SWAP1 REVERT JUMPDEST PUSH1 0x1 PUSH1 0x0 DUP1 PUSH2 0x100 EXP DUP2 SLOAD DUP2 PUSH1 0xFF MUL NOT AND SWAP1 DUP4 PUSH1 0x1 DUP2 GT ISZERO PUSH2 0x16E JUMPI PUSH2 0x16D PUSH2 0x274 JUMP JUMPDEST JUMPDEST MUL OR SWAP1 SSTORE POP PUSH1 0x0 PUSH1 0x1 SWAP1 SLOAD SWAP1 PUSH2 0x100 EXP SWAP1 DIV PUSH20 0xFFFFFFFFFFFFFFFFFFFFFFFFFFFFFFFFFFFFFFFF AND PUSH20 0xFFFFFFFFFFFFFFFFFFFFFFFFFFFFFFFFFFFFFFFF AND PUSH2 0x8FC CALLVALUE SWAP1 DUP2 ISZERO MUL SWAP1 PUSH1 0x40 MLOAD PUSH1 0x0 PUSH1 0x40 MLOAD DUP1 DUP4 SUB DUP2 DUP6 DUP9 DUP9 CALL SWAP4 POP POP POP POP ISZERO DUP1 ISZERO PUSH2 0x1DB JUMPI RETURNDATASIZE PUSH1 0x0 DUP1 RETURNDATACOPY RETURNDATASIZE PUSH1 0x0 REVERT JUMPDEST POP PUSH32 0x2490C7C51567536E53A39ADA069323F116C2B41BE9270548C7502383669CA2E0 CALLER CALLVALUE PUSH1 0x40 MLOAD PUSH2 0x20D SWAP3 SWAP2 SWAP1 PUSH2 0x3C6 JUMP JUMPDEST PUSH1 0x40 MLOAD DUP1 SWAP2 SUB SWAP1 LOG1 POP JUMP JUMPDEST PUSH1 0x0 PUSH20 0xFFFFFFFFFFFFFFFFFFFFFFFFFFFFFFFFFFFFFFFF DUP3 AND SWAP1 POP SWAP2 SWAP1 POP JUMP JUMPDEST PUSH1 0x0 PUSH2 0x243 DUP3 PUSH2 0x218 JUMP JUMPDEST SWAP1 POP SWAP2 SWAP1 POP JUMP JUMPDEST PUSH2 0x253 DUP2 PUSH2 0x238 JUMP JUMPDEST DUP3 MSTORE POP POP JUMP JUMPDEST PUSH1 0x0 PUSH1 0x20 DUP3 ADD SWAP1 POP PUSH2 0x26E PUSH1 0x0 DUP4 ADD DUP5 PUSH2 0x24A JUMP JUMPDEST SWAP3 SWAP2 POP POP JUMP JUMPDEST PUSH32 0x4E487B7100000000000000000000000000000000000000000000000000000000 PUSH1 0x0 MSTORE PUSH1 0x21 PUSH1 0x4 MSTORE PUSH1 0x24 PUSH1 0x0 REVERT JUMPDEST PUSH1 0x0 DUP3 DUP3 MSTORE PUSH1 0x20 DUP3 ADD SWAP1 POP SWAP3 SWAP2 POP POP JUMP JUMPDEST PUSH32 0x4B6179616B20616C726561647920696E20757365000000000000000000000000 PUSH1 0x0 DUP3 ADD MSTORE POP JUMP JUMPDEST PUSH1 0x0 PUSH2 0x2EA PUSH1 0x14 DUP4 PUSH2 0x2A3 JUMP JUMPDEST SWAP2 POP PUSH2 0x2F5 DUP3 PUSH2 0x2B4 JUMP JUMPDEST PUSH1 0x20 DUP3 ADD SWAP1 POP SWAP2 SWAP1 POP JUMP JUMPDEST PUSH1 0x0 PUSH1 0x20 DUP3 ADD SWAP1 POP DUP2 DUP2 SUB PUSH1 0x0 DUP4 ADD MSTORE PUSH2 0x319 DUP2 PUSH2 0x2DD JUMP JUMPDEST SWAP1 POP SWAP2 SWAP1 POP JUMP JUMPDEST PUSH32 0x4E6F7420656E6F756768206574682070726F7669646564000000000000000000 PUSH1 0x0 DUP3 ADD MSTORE POP JUMP JUMPDEST PUSH1 0x0 PUSH2 0x356 PUSH1 0x17 DUP4 PUSH2 0x2A3 JUMP JUMPDEST SWAP2 POP PUSH2 0x361 DUP3 PUSH2 0x320 JUMP JUMPDEST PUSH1 0x20 DUP3 ADD SWAP1 POP SWAP2 SWAP1 POP JUMP JUMPDEST PUSH1 0x0 PUSH1 0x20 DUP3 ADD SWAP1 POP DUP2 DUP2 SUB PUSH1 0x0 DUP4 ADD MSTORE PUSH2 0x385 DUP2 PUSH2 0x349 JUMP JUMPDEST SWAP1 POP SWAP2 SWAP1 POP JUMP JUMPDEST PUSH1 0x0 PUSH2 0x397 DUP3 PUSH2 0x218 JUMP JUMPDEST SWAP1 POP SWAP2 SWAP1 POP JUMP JUMPDEST PUSH2 0x3A7 DUP2 PUSH2 0x38C JUMP JUMPDEST DUP3 MSTORE POP POP JUMP JUMPDEST PUSH1 0x0 DUP2 SWAP1 POP SWAP2 SWAP1 POP JUMP JUMPDEST PUSH2 0x3C0 DUP2 PUSH2 0x3AD JUMP JUMPDEST DUP3 MSTORE POP POP JUMP JUMPDEST PUSH1 0x0 PUSH1 0x40 DUP3 ADD SWAP1 POP PUSH2 0x3DB PUSH1 0x0 DUP4 ADD DUP6 PUSH2 0x39E JUMP JUMPDEST PUSH2 0x3E8 PUSH1 0x20 DUP4 ADD DUP5 PUSH2 0x3B7 JUMP JUMPDEST SWAP4 SWAP3 POP POP POP JUMP INVALID LOG2 PUSH5 0x6970667358 0x22 SLT KECCAK256 0x1F DUP12 0xB2 POP PUSH5 0x11233C86D6 GT 0xCF PUSH25 0x1BA8FB57B753CF8C16C41124F9C7F4BB14BB7864736F6C6343 STOP ADDMOD SLT STOP CALLER "
				},
				"gasEstimates": {
					"creation": {
						"codeDepositCost": "212200",
						"executionCost": "48872",
						"totalCost": "261072"
					},
					"external": {
						"bookKayak()": "infinite",
						"owner()": "2542"
					}
				},
				"methodIdentifiers": {
					"bookKayak()": "b507767c",
					"owner()": "8da5cb5b"
				}
			},
			"storageLayout": {
				"storage": [
					{
						"astId": 13,
						"contract": "contracts/KayakRental.sol:KayakRental",
						"label": "currentStatus",
						"offset": 0,
						"slot": "0",
						"type": "t_enum(Statuses)4"
					},
					{
						"astId": 15,
						"contract": "contracts/KayakRental.sol:KayakRental",
						"label": "owner",
						"offset": 1,
						"slot": "0",
						"type": "t_address_payable"
					}
				],
				"types": {
					"t_address_payable": {
						"encoding": "inplace",
						"label": "address payable",
						"numberOfBytes": "20"
					},
					"t_enum(Statuses)4": {
						"encoding": "inplace",
						"label": "enum KayakRental.Statuses",
						"numberOfBytes": "1"
					}
				}
			},
			"userdoc": {
				"kind": "user",
				"methods": {},
				"version": 1
			}
		}
	}
}