{
	"contracts/Wedding.sol": {
		"EngagementRegistry": {
			"abi": [
				{
					"anonymous": false,
					"inputs": [
						{
							"indexed": false,
							"internalType": "address",
							"name": "spouse1",
							"type": "address"
						},
						{
							"indexed": false,
							"internalType": "address",
							"name": "spouse2",
							"type": "address"
						},
						{
							"indexed": false,
							"internalType": "uint256",
							"name": "weddingDate",
							"type": "uint256"
						}
					],
					"name": "EngagementRegistered",
					"type": "event"
				},
				{
					"anonymous": false,
					"inputs": [
						{
							"indexed": false,
							"internalType": "address",
							"name": "caller",
							"type": "address"
						},
						{
							"indexed": false,
							"internalType": "uint256",
							"name": "revokedDate",
							"type": "uint256"
						}
					],
					"name": "EngagementRevoked",
					"type": "event"
				},
				{
					"anonymous": false,
					"inputs": [
						{
							"indexed": false,
							"internalType": "address",
							"name": "spouse",
							"type": "address"
						}
					],
					"name": "GuestListConfirmed",
					"type": "event"
				},
				{
					"anonymous": false,
					"inputs": [
						{
							"indexed": false,
							"internalType": "address",
							"name": "spouse",
							"type": "address"
						},
						{
							"indexed": false,
							"internalType": "address[]",
							"name": "guests",
							"type": "address[]"
						}
					],
					"name": "GuestListProposed",
					"type": "event"
				},
				{
					"anonymous": false,
					"inputs": [
						{
							"indexed": false,
							"internalType": "address",
							"name": "guest",
							"type": "address"
						},
						{
							"indexed": false,
							"internalType": "address",
							"name": "spouse",
							"type": "address"
						}
					],
					"name": "GuestVotedAgainst",
					"type": "event"
				},
				{
					"anonymous": false,
					"inputs": [
						{
							"indexed": false,
							"internalType": "address",
							"name": "spouse1",
							"type": "address"
						},
						{
							"indexed": false,
							"internalType": "address",
							"name": "spouse2",
							"type": "address"
						}
					],
					"name": "MarriageConfirmed",
					"type": "event"
				},
				{
					"anonymous": false,
					"inputs": [
						{
							"indexed": false,
							"internalType": "address",
							"name": "spouse",
							"type": "address"
						}
					],
					"name": "WeddingInvalidated",
					"type": "event"
				},
				{
					"inputs": [
						{
							"internalType": "address",
							"name": "_spouse",
							"type": "address"
						}
					],
					"name": "checkAndInvalidateWedding",
					"outputs": [],
					"stateMutability": "nonpayable",
					"type": "function"
				},
				{
					"inputs": [],
					"name": "confirmGuestList",
					"outputs": [],
					"stateMutability": "nonpayable",
					"type": "function"
				},
				{
					"inputs": [
						{
							"internalType": "address",
							"name": "",
							"type": "address"
						}
					],
					"name": "engagements",
					"outputs": [
						{
							"internalType": "address",
							"name": "spouse1",
							"type": "address"
						},
						{
							"internalType": "address",
							"name": "spouse2",
							"type": "address"
						},
						{
							"internalType": "uint256",
							"name": "weddingDate",
							"type": "uint256"
						},
						{
							"internalType": "bool",
							"name": "isEngaged",
							"type": "bool"
						},
						{
							"internalType": "bool",
							"name": "isRevoked",
							"type": "bool"
						},
						{
							"internalType": "bool",
							"name": "isMarried",
							"type": "bool"
						},
						{
							"internalType": "bool",
							"name": "spouse1ConfirmedMarriage",
							"type": "bool"
						},
						{
							"internalType": "bool",
							"name": "spouse2ConfirmedMarriage",
							"type": "bool"
						}
					],
					"stateMutability": "view",
					"type": "function"
				},
				{
					"inputs": [
						{
							"internalType": "address",
							"name": "_spouse",
							"type": "address"
						}
					],
					"name": "getEngagementInfo",
					"outputs": [
						{
							"internalType": "address",
							"name": "",
							"type": "address"
						},
						{
							"internalType": "address",
							"name": "",
							"type": "address"
						},
						{
							"internalType": "uint256",
							"name": "",
							"type": "uint256"
						},
						{
							"internalType": "bool",
							"name": "",
							"type": "bool"
						},
						{
							"internalType": "bool",
							"name": "",
							"type": "bool"
						}
					],
					"stateMutability": "view",
					"type": "function"
				},
				{
					"inputs": [
						{
							"internalType": "address",
							"name": "",
							"type": "address"
						}
					],
					"name": "guestLists",
					"outputs": [
						{
							"internalType": "bool",
							"name": "spouse1Confirmed",
							"type": "bool"
						},
						{
							"internalType": "bool",
							"name": "spouse2Confirmed",
							"type": "bool"
						},
						{
							"internalType": "uint256",
							"name": "votesAgainst",
							"type": "uint256"
						}
					],
					"stateMutability": "view",
					"type": "function"
				},
				{
					"inputs": [],
					"name": "marry",
					"outputs": [],
					"stateMutability": "nonpayable",
					"type": "function"
				},
				{
					"inputs": [
						{
							"internalType": "address[]",
							"name": "_guests",
							"type": "address[]"
						}
					],
					"name": "proposeGuestList",
					"outputs": [],
					"stateMutability": "nonpayable",
					"type": "function"
				},
				{
					"inputs": [
						{
							"internalType": "address",
							"name": "_spouse",
							"type": "address"
						},
						{
							"internalType": "uint256",
							"name": "_weddingDate",
							"type": "uint256"
						}
					],
					"name": "registerEngagement",
					"outputs": [],
					"stateMutability": "nonpayable",
					"type": "function"
				},
				{
					"inputs": [],
					"name": "revokeEngagement",
					"outputs": [],
					"stateMutability": "nonpayable",
					"type": "function"
				},
				{
					"inputs": [
						{
							"internalType": "address",
							"name": "_spouse",
							"type": "address"
						}
					],
					"name": "voteAgainstWedding",
					"outputs": [],
					"stateMutability": "nonpayable",
					"type": "function"
				}
			],
			"devdoc": {
				"kind": "dev",
				"methods": {},
				"version": 1
			},
			"evm": {
				"assembly": "    /* \"contracts/Wedding.sol\":57:7945  contract EngagementRegistry {... */\n  mstore(0x40, 0x80)\n  callvalue\n  dup1\n  iszero\n  tag_1\n  jumpi\n  0x00\n  dup1\n  revert\ntag_1:\n  pop\n  dataSize(sub_0)\n  dup1\n  dataOffset(sub_0)\n  0x00\n  codecopy\n  0x00\n  return\nstop\n\nsub_0: assembly {\n        /* \"contracts/Wedding.sol\":57:7945  contract EngagementRegistry {... */\n      mstore(0x40, 0x80)\n      callvalue\n      dup1\n      iszero\n      tag_1\n      jumpi\n      0x00\n      dup1\n      revert\n    tag_1:\n      pop\n      jumpi(tag_2, lt(calldatasize, 0x04))\n      shr(0xe0, calldataload(0x00))\n      dup1\n      0x987e9533\n      gt\n      tag_13\n      jumpi\n      dup1\n      0x987e9533\n      eq\n      tag_8\n      jumpi\n      dup1\n      0xa1905e4e\n      eq\n      tag_9\n      jumpi\n      dup1\n      0xa22690a8\n      eq\n      tag_10\n      jumpi\n      dup1\n      0xb95afe03\n      eq\n      tag_11\n      jumpi\n      dup1\n      0xe83dc185\n      eq\n      tag_12\n      jumpi\n      jump(tag_2)\n    tag_13:\n      dup1\n      0x186be15f\n      eq\n      tag_3\n      jumpi\n      dup1\n      0x2b80fa28\n      eq\n      tag_4\n      jumpi\n      dup1\n      0x6d955eb5\n      eq\n      tag_5\n      jumpi\n      dup1\n      0x85b9a11f\n      eq\n      tag_6\n      jumpi\n      dup1\n      0x90106c5e\n      eq\n      tag_7\n      jumpi\n    tag_2:\n      0x00\n      dup1\n      revert\n        /* \"contracts/Wedding.sol\":7384:7943  function checkAndInvalidateWedding(address _spouse) external ... */\n    tag_3:\n      tag_14\n      0x04\n      dup1\n      calldatasize\n      sub\n      dup2\n      add\n      swap1\n      tag_15\n      swap2\n      swap1\n      tag_16\n      jump\t// in\n    tag_15:\n      tag_17\n      jump\t// in\n    tag_14:\n      stop\n        /* \"contracts/Wedding.sol\":612:659  mapping(address => GuestList) public guestLists */\n    tag_4:\n      tag_18\n      0x04\n      dup1\n      calldatasize\n      sub\n      dup2\n      add\n      swap1\n      tag_19\n      swap2\n      swap1\n      tag_16\n      jump\t// in\n    tag_19:\n      tag_20\n      jump\t// in\n    tag_18:\n      mload(0x40)\n      tag_21\n      swap4\n      swap3\n      swap2\n      swap1\n      tag_22\n      jump\t// in\n    tag_21:\n      mload(0x40)\n      dup1\n      swap2\n      sub\n      swap1\n      return\n        /* \"contracts/Wedding.sol\":4115:4430  function revokeEngagement() external isEngaged(msg.sender) isNotRevoked(msg.sender) {... */\n    tag_5:\n      tag_23\n      tag_24\n      jump\t// in\n    tag_23:\n      stop\n        /* \"contracts/Wedding.sol\":5869:6562  function marry() external ... */\n    tag_6:\n      tag_25\n      tag_26\n      jump\t// in\n    tag_25:\n      stop\n        /* \"contracts/Wedding.sol\":4741:5236  function proposeGuestList(address[] calldata _guests) external isEngaged(msg.sender) isEngagedParty(msg.sender){... */\n    tag_7:\n      tag_27\n      0x04\n      dup1\n      calldatasize\n      sub\n      dup2\n      add\n      swap1\n      tag_28\n      swap2\n      swap1\n      tag_29\n      jump\t// in\n    tag_28:\n      tag_30\n      jump\t// in\n    tag_27:\n      stop\n        /* \"contracts/Wedding.sol\":3444:4109  function registerEngagement(address _spouse, uint256 _weddingDate) external... */\n    tag_8:\n      tag_31\n      0x04\n      dup1\n      calldatasize\n      sub\n      dup2\n      add\n      swap1\n      tag_32\n      swap2\n      swap1\n      tag_33\n      jump\t// in\n    tag_32:\n      tag_34\n      jump\t// in\n    tag_31:\n      stop\n        /* \"contracts/Wedding.sol\":6568:7056  function voteAgainstWedding(address _spouse) external ... */\n    tag_9:\n      tag_35\n      0x04\n      dup1\n      calldatasize\n      sub\n      dup2\n      add\n      swap1\n      tag_36\n      swap2\n      swap1\n      tag_16\n      jump\t// in\n    tag_36:\n      tag_37\n      jump\t// in\n    tag_35:\n      stop\n        /* \"contracts/Wedding.sol\":557:606  mapping(address => Engagement) public engagements */\n    tag_10:\n      tag_38\n      0x04\n      dup1\n      calldatasize\n      sub\n      dup2\n      add\n      swap1\n      tag_39\n      swap2\n      swap1\n      tag_16\n      jump\t// in\n    tag_39:\n      tag_40\n      jump\t// in\n    tag_38:\n      mload(0x40)\n      tag_41\n      swap9\n      swap8\n      swap7\n      swap6\n      swap5\n      swap4\n      swap3\n      swap2\n      swap1\n      tag_42\n      jump\t// in\n    tag_41:\n      mload(0x40)\n      dup1\n      swap2\n      sub\n      swap1\n      return\n        /* \"contracts/Wedding.sol\":4436:4735  function getEngagementInfo(address _spouse) external view returns (address, address, uint256, bool, bool) {... */\n    tag_11:\n      tag_43\n      0x04\n      dup1\n      calldatasize\n      sub\n      dup2\n      add\n      swap1\n      tag_44\n      swap2\n      swap1\n      tag_16\n      jump\t// in\n    tag_44:\n      tag_45\n      jump\t// in\n    tag_43:\n      mload(0x40)\n      tag_46\n      swap6\n      swap5\n      swap4\n      swap3\n      swap2\n      swap1\n      tag_47\n      jump\t// in\n    tag_46:\n      mload(0x40)\n      dup1\n      swap2\n      sub\n      swap1\n      return\n        /* \"contracts/Wedding.sol\":5242:5863  function confirmGuestList() external isEngaged(msg.sender) isEngagedParty(msg.sender){... */\n    tag_12:\n      tag_48\n      tag_49\n      jump\t// in\n    tag_48:\n      stop\n        /* \"contracts/Wedding.sol\":7384:7943  function checkAndInvalidateWedding(address _spouse) external ... */\n    tag_17:\n        /* \"contracts/Wedding.sol\":7464:7471  _spouse */\n      dup1\n        /* \"contracts/Wedding.sol\":1486:1490  true */\n      0x01\n        /* \"contracts/Wedding.sol\":1452:1490  engagements[_spouse].isEngaged == true */\n      iszero\n      iszero\n        /* \"contracts/Wedding.sol\":1452:1463  engagements */\n      0x00\n        /* \"contracts/Wedding.sol\":1452:1472  engagements[_spouse] */\n      dup1\n        /* \"contracts/Wedding.sol\":1464:1471  _spouse */\n      dup4\n        /* \"contracts/Wedding.sol\":1452:1472  engagements[_spouse] */\n      0xffffffffffffffffffffffffffffffffffffffff\n      and\n      0xffffffffffffffffffffffffffffffffffffffff\n      and\n      dup2\n      mstore\n      0x20\n      add\n      swap1\n      dup2\n      mstore\n      0x20\n      add\n      0x00\n      keccak256\n        /* \"contracts/Wedding.sol\":1452:1482  engagements[_spouse].isEngaged */\n      0x03\n      add\n      0x00\n      swap1\n      sload\n      swap1\n      0x0100\n      exp\n      swap1\n      div\n      0xff\n      and\n        /* \"contracts/Wedding.sol\":1452:1490  engagements[_spouse].isEngaged == true */\n      iszero\n      iszero\n      eq\n        /* \"contracts/Wedding.sol\":1444:1515  require(engagements[_spouse].isEngaged == true, \"Address not engaged.\") */\n      tag_51\n      jumpi\n      mload(0x40)\n      0x08c379a000000000000000000000000000000000000000000000000000000000\n      dup2\n      mstore\n      0x04\n      add\n      tag_52\n      swap1\n      tag_53\n      jump\t// in\n    tag_52:\n      mload(0x40)\n      dup1\n      swap2\n      sub\n      swap1\n      revert\n    tag_51:\n        /* \"contracts/Wedding.sol\":7496:7503  _spouse */\n      dup2\n        /* \"contracts/Wedding.sol\":2052:2063  engagements */\n      0x00\n        /* \"contracts/Wedding.sol\":2052:2072  engagements[_spouse] */\n      dup1\n        /* \"contracts/Wedding.sol\":2064:2071  _spouse */\n      dup3\n        /* \"contracts/Wedding.sol\":2052:2072  engagements[_spouse] */\n      0xffffffffffffffffffffffffffffffffffffffff\n      and\n      0xffffffffffffffffffffffffffffffffffffffff\n      and\n      dup2\n      mstore\n      0x20\n      add\n      swap1\n      dup2\n      mstore\n      0x20\n      add\n      0x00\n      keccak256\n        /* \"contracts/Wedding.sol\":2052:2082  engagements[_spouse].isMarried */\n      0x03\n      add\n      0x02\n      swap1\n      sload\n      swap1\n      0x0100\n      exp\n      swap1\n      div\n      0xff\n      and\n        /* \"contracts/Wedding.sol\":2051:2082  !engagements[_spouse].isMarried */\n      iszero\n        /* \"contracts/Wedding.sol\":2043:2102  require(!engagements[_spouse].isMarried, \"Already married\") */\n      tag_55\n      jumpi\n      mload(0x40)\n      0x08c379a000000000000000000000000000000000000000000000000000000000\n      dup2\n      mstore\n      0x04\n      add\n      tag_56\n      swap1\n      tag_57\n      jump\t// in\n    tag_56:\n      mload(0x40)\n      dup1\n      swap2\n      sub\n      swap1\n      revert\n    tag_55:\n        /* \"contracts/Wedding.sol\":7519:7546  GuestList storage guestList */\n      0x00\n        /* \"contracts/Wedding.sol\":7549:7559  guestLists */\n      0x01\n        /* \"contracts/Wedding.sol\":7549:7568  guestLists[_spouse] */\n      0x00\n        /* \"contracts/Wedding.sol\":7560:7567  _spouse */\n      dup6\n        /* \"contracts/Wedding.sol\":7549:7568  guestLists[_spouse] */\n      0xffffffffffffffffffffffffffffffffffffffff\n      and\n      0xffffffffffffffffffffffffffffffffffffffff\n      and\n      dup2\n      mstore\n      0x20\n      add\n      swap1\n      dup2\n      mstore\n      0x20\n      add\n      0x00\n      keccak256\n        /* \"contracts/Wedding.sol\":7519:7568  GuestList storage guestList = guestLists[_spouse] */\n      swap1\n      pop\n        /* \"contracts/Wedding.sol\":7578:7607  Engagement storage engagement */\n      0x00\n        /* \"contracts/Wedding.sol\":7610:7621  engagements */\n      dup1\n        /* \"contracts/Wedding.sol\":7610:7630  engagements[_spouse] */\n      0x00\n        /* \"contracts/Wedding.sol\":7622:7629  _spouse */\n      dup7\n        /* \"contracts/Wedding.sol\":7610:7630  engagements[_spouse] */\n      0xffffffffffffffffffffffffffffffffffffffff\n      and\n      0xffffffffffffffffffffffffffffffffffffffff\n      and\n      dup2\n      mstore\n      0x20\n      add\n      swap1\n      dup2\n      mstore\n      0x20\n      add\n      0x00\n      keccak256\n        /* \"contracts/Wedding.sol\":7578:7630  Engagement storage engagement = engagements[_spouse] */\n      swap1\n      pop\n        /* \"contracts/Wedding.sol\":7641:7668  uint256 confirmedGuestCount */\n      0x00\n        /* \"contracts/Wedding.sol\":7671:7680  guestList */\n      dup3\n        /* \"contracts/Wedding.sol\":7671:7695  guestList.proposedGuests */\n      0x00\n      add\n        /* \"contracts/Wedding.sol\":7671:7702  guestList.proposedGuests.length */\n      dup1\n      sload\n      swap1\n      pop\n        /* \"contracts/Wedding.sol\":7641:7702  uint256 confirmedGuestCount = guestList.proposedGuests.length */\n      swap1\n      pop\n        /* \"contracts/Wedding.sol\":7712:7745  uint256 requiredVotesToInvalidate */\n      0x00\n        /* \"contracts/Wedding.sol\":7770:7771  2 */\n      0x02\n        /* \"contracts/Wedding.sol\":7748:7767  confirmedGuestCount */\n      dup3\n        /* \"contracts/Wedding.sol\":7748:7771  confirmedGuestCount / 2 */\n      tag_59\n      swap2\n      swap1\n      tag_60\n      jump\t// in\n    tag_59:\n        /* \"contracts/Wedding.sol\":7712:7771  uint256 requiredVotesToInvalidate = confirmedGuestCount / 2 */\n      swap1\n      pop\n        /* \"contracts/Wedding.sol\":7812:7837  requiredVotesToInvalidate */\n      dup1\n        /* \"contracts/Wedding.sol\":7786:7795  guestList */\n      dup5\n        /* \"contracts/Wedding.sol\":7786:7808  guestList.votesAgainst */\n      0x03\n      add\n      sload\n        /* \"contracts/Wedding.sol\":7786:7837  guestList.votesAgainst >= requiredVotesToInvalidate */\n      lt\n        /* \"contracts/Wedding.sol\":7782:7937  if (guestList.votesAgainst >= requiredVotesToInvalidate) {... */\n      tag_61\n      jumpi\n        /* \"contracts/Wedding.sol\":7876:7880  true */\n      0x01\n        /* \"contracts/Wedding.sol\":7853:7863  engagement */\n      dup4\n        /* \"contracts/Wedding.sol\":7853:7873  engagement.isRevoked */\n      0x03\n      add\n      0x01\n        /* \"contracts/Wedding.sol\":7853:7880  engagement.isRevoked = true */\n      0x0100\n      exp\n      dup2\n      sload\n      dup2\n      0xff\n      mul\n      not\n      and\n      swap1\n      dup4\n      iszero\n      iszero\n      mul\n      or\n      swap1\n      sstore\n      pop\n        /* \"contracts/Wedding.sol\":7899:7926  WeddingInvalidated(_spouse) */\n      0xca5145a860413368885bd057fa646c0895a34d43c6f7c897fc1954cf51c33045\n        /* \"contracts/Wedding.sol\":7918:7925  _spouse */\n      dup8\n        /* \"contracts/Wedding.sol\":7899:7926  WeddingInvalidated(_spouse) */\n      mload(0x40)\n      tag_62\n      swap2\n      swap1\n      tag_63\n      jump\t// in\n    tag_62:\n      mload(0x40)\n      dup1\n      swap2\n      sub\n      swap1\n      log1\n        /* \"contracts/Wedding.sol\":7782:7937  if (guestList.votesAgainst >= requiredVotesToInvalidate) {... */\n    tag_61:\n        /* \"contracts/Wedding.sol\":7509:7943  {... */\n      pop\n      pop\n      pop\n      pop\n        /* \"contracts/Wedding.sol\":1525:1526  _ */\n      pop\n        /* \"contracts/Wedding.sol\":7384:7943  function checkAndInvalidateWedding(address _spouse) external ... */\n      pop\n      pop\n      jump\t// out\n        /* \"contracts/Wedding.sol\":612:659  mapping(address => GuestList) public guestLists */\n    tag_20:\n      mstore(0x20, 0x01)\n      dup1\n      0x00\n      mstore\n      keccak256(0x00, 0x40)\n      0x00\n      swap2\n      pop\n      swap1\n      pop\n      dup1\n      0x01\n      add\n      0x00\n      swap1\n      sload\n      swap1\n      0x0100\n      exp\n      swap1\n      div\n      0xff\n      and\n      swap1\n      dup1\n      0x01\n      add\n      0x01\n      swap1\n      sload\n      swap1\n      0x0100\n      exp\n      swap1\n      div\n      0xff\n      and\n      swap1\n      dup1\n      0x03\n      add\n      sload\n      swap1\n      pop\n      dup4\n      jump\t// out\n        /* \"contracts/Wedding.sol\":4115:4430  function revokeEngagement() external isEngaged(msg.sender) isNotRevoked(msg.sender) {... */\n    tag_24:\n        /* \"contracts/Wedding.sol\":4162:4172  msg.sender */\n      caller\n        /* \"contracts/Wedding.sol\":1486:1490  true */\n      0x01\n        /* \"contracts/Wedding.sol\":1452:1490  engagements[_spouse].isEngaged == true */\n      iszero\n      iszero\n        /* \"contracts/Wedding.sol\":1452:1463  engagements */\n      0x00\n        /* \"contracts/Wedding.sol\":1452:1472  engagements[_spouse] */\n      dup1\n        /* \"contracts/Wedding.sol\":1464:1471  _spouse */\n      dup4\n        /* \"contracts/Wedding.sol\":1452:1472  engagements[_spouse] */\n      0xffffffffffffffffffffffffffffffffffffffff\n      and\n      0xffffffffffffffffffffffffffffffffffffffff\n      and\n      dup2\n      mstore\n      0x20\n      add\n      swap1\n      dup2\n      mstore\n      0x20\n      add\n      0x00\n      keccak256\n        /* \"contracts/Wedding.sol\":1452:1482  engagements[_spouse].isEngaged */\n      0x03\n      add\n      0x00\n      swap1\n      sload\n      swap1\n      0x0100\n      exp\n      swap1\n      div\n      0xff\n      and\n        /* \"contracts/Wedding.sol\":1452:1490  engagements[_spouse].isEngaged == true */\n      iszero\n      iszero\n      eq\n        /* \"contracts/Wedding.sol\":1444:1515  require(engagements[_spouse].isEngaged == true, \"Address not engaged.\") */\n      tag_65\n      jumpi\n      mload(0x40)\n      0x08c379a000000000000000000000000000000000000000000000000000000000\n      dup2\n      mstore\n      0x04\n      add\n      tag_66\n      swap1\n      tag_53\n      jump\t// in\n    tag_66:\n      mload(0x40)\n      dup1\n      swap2\n      sub\n      swap1\n      revert\n    tag_65:\n        /* \"contracts/Wedding.sol\":4187:4197  msg.sender */\n      caller\n        /* \"contracts/Wedding.sol\":1926:1931  false */\n      0x00\n        /* \"contracts/Wedding.sol\":1892:1931  engagements[_spouse].isRevoked == false */\n      iszero\n      iszero\n        /* \"contracts/Wedding.sol\":1892:1903  engagements */\n      0x00\n        /* \"contracts/Wedding.sol\":1892:1912  engagements[_spouse] */\n      dup1\n        /* \"contracts/Wedding.sol\":1904:1911  _spouse */\n      dup4\n        /* \"contracts/Wedding.sol\":1892:1912  engagements[_spouse] */\n      0xffffffffffffffffffffffffffffffffffffffff\n      and\n      0xffffffffffffffffffffffffffffffffffffffff\n      and\n      dup2\n      mstore\n      0x20\n      add\n      swap1\n      dup2\n      mstore\n      0x20\n      add\n      0x00\n      keccak256\n        /* \"contracts/Wedding.sol\":1892:1922  engagements[_spouse].isRevoked */\n      0x03\n      add\n      0x01\n      swap1\n      sload\n      swap1\n      0x0100\n      exp\n      swap1\n      div\n      0xff\n      and\n        /* \"contracts/Wedding.sol\":1892:1931  engagements[_spouse].isRevoked == false */\n      iszero\n      iszero\n      eq\n        /* \"contracts/Wedding.sol\":1884:1970  require(engagements[_spouse].isRevoked == false, \"The engagement is already revoked.\") */\n      tag_68\n      jumpi\n      mload(0x40)\n      0x08c379a000000000000000000000000000000000000000000000000000000000\n      dup2\n      mstore\n      0x04\n      add\n      tag_69\n      swap1\n      tag_70\n      jump\t// in\n    tag_69:\n      mload(0x40)\n      dup1\n      swap2\n      sub\n      swap1\n      revert\n    tag_68:\n        /* \"contracts/Wedding.sol\":4209:4238  Engagement storage engagement */\n      0x00\n        /* \"contracts/Wedding.sol\":4241:4252  engagements */\n      dup1\n        /* \"contracts/Wedding.sol\":4241:4264  engagements[msg.sender] */\n      0x00\n        /* \"contracts/Wedding.sol\":4253:4263  msg.sender */\n      caller\n        /* \"contracts/Wedding.sol\":4241:4264  engagements[msg.sender] */\n      0xffffffffffffffffffffffffffffffffffffffff\n      and\n      0xffffffffffffffffffffffffffffffffffffffff\n      and\n      dup2\n      mstore\n      0x20\n      add\n      swap1\n      dup2\n      mstore\n      0x20\n      add\n      0x00\n      keccak256\n        /* \"contracts/Wedding.sol\":4209:4264  Engagement storage engagement = engagements[msg.sender] */\n      swap1\n      pop\n        /* \"contracts/Wedding.sol\":4282:4293  engagements */\n      0x00\n        /* \"contracts/Wedding.sol\":4282:4313  engagements[engagement.spouse1] */\n      dup1\n        /* \"contracts/Wedding.sol\":4294:4304  engagement */\n      dup3\n        /* \"contracts/Wedding.sol\":4294:4312  engagement.spouse1 */\n      0x00\n      add\n      0x00\n      swap1\n      sload\n      swap1\n      0x0100\n      exp\n      swap1\n      div\n      0xffffffffffffffffffffffffffffffffffffffff\n      and\n        /* \"contracts/Wedding.sol\":4282:4313  engagements[engagement.spouse1] */\n      0xffffffffffffffffffffffffffffffffffffffff\n      and\n      0xffffffffffffffffffffffffffffffffffffffff\n      and\n      dup2\n      mstore\n      0x20\n      add\n      swap1\n      dup2\n      mstore\n      0x20\n      add\n      0x00\n      keccak256\n      0x00\n        /* \"contracts/Wedding.sol\":4275:4313  delete engagements[engagement.spouse1] */\n      dup1\n      dup3\n      add\n      exp(0x0100, 0x00)\n      dup2\n      sload\n      swap1\n      0xffffffffffffffffffffffffffffffffffffffff\n      mul\n      not\n      and\n      swap1\n      sstore\n      0x01\n      dup3\n      add\n      exp(0x0100, 0x00)\n      dup2\n      sload\n      swap1\n      0xffffffffffffffffffffffffffffffffffffffff\n      mul\n      not\n      and\n      swap1\n      sstore\n      0x02\n      dup3\n      add\n      0x00\n      swap1\n      sstore\n      0x03\n      dup3\n      add\n      exp(0x0100, 0x00)\n      dup2\n      sload\n      swap1\n      0xff\n      mul\n      not\n      and\n      swap1\n      sstore\n      0x03\n      dup3\n      add\n      exp(0x0100, 0x01)\n      dup2\n      sload\n      swap1\n      0xff\n      mul\n      not\n      and\n      swap1\n      sstore\n      0x03\n      dup3\n      add\n      exp(0x0100, 0x02)\n      dup2\n      sload\n      swap1\n      0xff\n      mul\n      not\n      and\n      swap1\n      sstore\n      0x03\n      dup3\n      add\n      exp(0x0100, 0x03)\n      dup2\n      sload\n      swap1\n      0xff\n      mul\n      not\n      and\n      swap1\n      sstore\n      0x03\n      dup3\n      add\n      exp(0x0100, 0x04)\n      dup2\n      sload\n      swap1\n      0xff\n      mul\n      not\n      and\n      swap1\n      sstore\n      pop\n      pop\n        /* \"contracts/Wedding.sol\":4330:4341  engagements */\n      0x00\n        /* \"contracts/Wedding.sol\":4330:4361  engagements[engagement.spouse2] */\n      dup1\n        /* \"contracts/Wedding.sol\":4342:4352  engagement */\n      dup3\n        /* \"contracts/Wedding.sol\":4342:4360  engagement.spouse2 */\n      0x01\n      add\n      0x00\n      swap1\n      sload\n      swap1\n      0x0100\n      exp\n      swap1\n      div\n      0xffffffffffffffffffffffffffffffffffffffff\n      and\n        /* \"contracts/Wedding.sol\":4330:4361  engagements[engagement.spouse2] */\n      0xffffffffffffffffffffffffffffffffffffffff\n      and\n      0xffffffffffffffffffffffffffffffffffffffff\n      and\n      dup2\n      mstore\n      0x20\n      add\n      swap1\n      dup2\n      mstore\n      0x20\n      add\n      0x00\n      keccak256\n      0x00\n        /* \"contracts/Wedding.sol\":4323:4361  delete engagements[engagement.spouse2] */\n      dup1\n      dup3\n      add\n      exp(0x0100, 0x00)\n      dup2\n      sload\n      swap1\n      0xffffffffffffffffffffffffffffffffffffffff\n      mul\n      not\n      and\n      swap1\n      sstore\n      0x01\n      dup3\n      add\n      exp(0x0100, 0x00)\n      dup2\n      sload\n      swap1\n      0xffffffffffffffffffffffffffffffffffffffff\n      mul\n      not\n      and\n      swap1\n      sstore\n      0x02\n      dup3\n      add\n      0x00\n      swap1\n      sstore\n      0x03\n      dup3\n      add\n      exp(0x0100, 0x00)\n      dup2\n      sload\n      swap1\n      0xff\n      mul\n      not\n      and\n      swap1\n      sstore\n      0x03\n      dup3\n      add\n      exp(0x0100, 0x01)\n      dup2\n      sload\n      swap1\n      0xff\n      mul\n      not\n      and\n      swap1\n      sstore\n      0x03\n      dup3\n      add\n      exp(0x0100, 0x02)\n      dup2\n      sload\n      swap1\n      0xff\n      mul\n      not\n      and\n      swap1\n      sstore\n      0x03\n      dup3\n      add\n      exp(0x0100, 0x03)\n      dup2\n      sload\n      swap1\n      0xff\n      mul\n      not\n      and\n      swap1\n      sstore\n      0x03\n      dup3\n      add\n      exp(0x0100, 0x04)\n      dup2\n      sload\n      swap1\n      0xff\n      mul\n      not\n      and\n      swap1\n      sstore\n      pop\n      pop\n        /* \"contracts/Wedding.sol\":4377:4423  EngagementRevoked(msg.sender, block.timestamp) */\n      0x1271c287650062f685bd2f225144d7b6b046826a5a70632c8f873240d04a54c6\n        /* \"contracts/Wedding.sol\":4395:4405  msg.sender */\n      caller\n        /* \"contracts/Wedding.sol\":4407:4422  block.timestamp */\n      timestamp\n        /* \"contracts/Wedding.sol\":4377:4423  EngagementRevoked(msg.sender, block.timestamp) */\n      mload(0x40)\n      tag_72\n      swap3\n      swap2\n      swap1\n      tag_73\n      jump\t// in\n    tag_72:\n      mload(0x40)\n      dup1\n      swap2\n      sub\n      swap1\n      log1\n        /* \"contracts/Wedding.sol\":4199:4430  {... */\n      pop\n        /* \"contracts/Wedding.sol\":1525:1526  _ */\n      pop\n        /* \"contracts/Wedding.sol\":4115:4430  function revokeEngagement() external isEngaged(msg.sender) isNotRevoked(msg.sender) {... */\n      pop\n      jump\t// out\n        /* \"contracts/Wedding.sol\":5869:6562  function marry() external ... */\n    tag_26:\n        /* \"contracts/Wedding.sol\":5914:5924  msg.sender */\n      caller\n        /* \"contracts/Wedding.sol\":1486:1490  true */\n      0x01\n        /* \"contracts/Wedding.sol\":1452:1490  engagements[_spouse].isEngaged == true */\n      iszero\n      iszero\n        /* \"contracts/Wedding.sol\":1452:1463  engagements */\n      0x00\n        /* \"contracts/Wedding.sol\":1452:1472  engagements[_spouse] */\n      dup1\n        /* \"contracts/Wedding.sol\":1464:1471  _spouse */\n      dup4\n        /* \"contracts/Wedding.sol\":1452:1472  engagements[_spouse] */\n      0xffffffffffffffffffffffffffffffffffffffff\n      and\n      0xffffffffffffffffffffffffffffffffffffffff\n      and\n      dup2\n      mstore\n      0x20\n      add\n      swap1\n      dup2\n      mstore\n      0x20\n      add\n      0x00\n      keccak256\n        /* \"contracts/Wedding.sol\":1452:1482  engagements[_spouse].isEngaged */\n      0x03\n      add\n      0x00\n      swap1\n      sload\n      swap1\n      0x0100\n      exp\n      swap1\n      div\n      0xff\n      and\n        /* \"contracts/Wedding.sol\":1452:1490  engagements[_spouse].isEngaged == true */\n      iszero\n      iszero\n      eq\n        /* \"contracts/Wedding.sol\":1444:1515  require(engagements[_spouse].isEngaged == true, \"Address not engaged.\") */\n      tag_75\n      jumpi\n      mload(0x40)\n      0x08c379a000000000000000000000000000000000000000000000000000000000\n      dup2\n      mstore\n      0x04\n      add\n      tag_76\n      swap1\n      tag_53\n      jump\t// in\n    tag_76:\n      mload(0x40)\n      dup1\n      swap2\n      sub\n      swap1\n      revert\n    tag_75:\n        /* \"contracts/Wedding.sol\":5948:5958  msg.sender */\n      caller\n        /* \"contracts/Wedding.sol\":1926:1931  false */\n      0x00\n        /* \"contracts/Wedding.sol\":1892:1931  engagements[_spouse].isRevoked == false */\n      iszero\n      iszero\n        /* \"contracts/Wedding.sol\":1892:1903  engagements */\n      0x00\n        /* \"contracts/Wedding.sol\":1892:1912  engagements[_spouse] */\n      dup1\n        /* \"contracts/Wedding.sol\":1904:1911  _spouse */\n      dup4\n        /* \"contracts/Wedding.sol\":1892:1912  engagements[_spouse] */\n      0xffffffffffffffffffffffffffffffffffffffff\n      and\n      0xffffffffffffffffffffffffffffffffffffffff\n      and\n      dup2\n      mstore\n      0x20\n      add\n      swap1\n      dup2\n      mstore\n      0x20\n      add\n      0x00\n      keccak256\n        /* \"contracts/Wedding.sol\":1892:1922  engagements[_spouse].isRevoked */\n      0x03\n      add\n      0x01\n      swap1\n      sload\n      swap1\n      0x0100\n      exp\n      swap1\n      div\n      0xff\n      and\n        /* \"contracts/Wedding.sol\":1892:1931  engagements[_spouse].isRevoked == false */\n      iszero\n      iszero\n      eq\n        /* \"contracts/Wedding.sol\":1884:1970  require(engagements[_spouse].isRevoked == false, \"The engagement is already revoked.\") */\n      tag_78\n      jumpi\n      mload(0x40)\n      0x08c379a000000000000000000000000000000000000000000000000000000000\n      dup2\n      mstore\n      0x04\n      add\n      tag_79\n      swap1\n      tag_70\n      jump\t// in\n    tag_79:\n      mload(0x40)\n      dup1\n      swap2\n      sub\n      swap1\n      revert\n    tag_78:\n        /* \"contracts/Wedding.sol\":5981:5991  msg.sender */\n      caller\n        /* \"contracts/Wedding.sol\":2052:2063  engagements */\n      0x00\n        /* \"contracts/Wedding.sol\":2052:2072  engagements[_spouse] */\n      dup1\n        /* \"contracts/Wedding.sol\":2064:2071  _spouse */\n      dup3\n        /* \"contracts/Wedding.sol\":2052:2072  engagements[_spouse] */\n      0xffffffffffffffffffffffffffffffffffffffff\n      and\n      0xffffffffffffffffffffffffffffffffffffffff\n      and\n      dup2\n      mstore\n      0x20\n      add\n      swap1\n      dup2\n      mstore\n      0x20\n      add\n      0x00\n      keccak256\n        /* \"contracts/Wedding.sol\":2052:2082  engagements[_spouse].isMarried */\n      0x03\n      add\n      0x02\n      swap1\n      sload\n      swap1\n      0x0100\n      exp\n      swap1\n      div\n      0xff\n      and\n        /* \"contracts/Wedding.sol\":2051:2082  !engagements[_spouse].isMarried */\n      iszero\n        /* \"contracts/Wedding.sol\":2043:2102  require(!engagements[_spouse].isMarried, \"Already married\") */\n      tag_81\n      jumpi\n      mload(0x40)\n      0x08c379a000000000000000000000000000000000000000000000000000000000\n      dup2\n      mstore\n      0x04\n      add\n      tag_82\n      swap1\n      tag_57\n      jump\t// in\n    tag_82:\n      mload(0x40)\n      dup1\n      swap2\n      sub\n      swap1\n      revert\n    tag_81:\n        /* \"contracts/Wedding.sol\":6016:6045  Engagement storage engagement */\n      0x00\n        /* \"contracts/Wedding.sol\":6048:6059  engagements */\n      dup1\n        /* \"contracts/Wedding.sol\":6048:6071  engagements[msg.sender] */\n      0x00\n        /* \"contracts/Wedding.sol\":6060:6070  msg.sender */\n      caller\n        /* \"contracts/Wedding.sol\":6048:6071  engagements[msg.sender] */\n      0xffffffffffffffffffffffffffffffffffffffff\n      and\n      0xffffffffffffffffffffffffffffffffffffffff\n      and\n      dup2\n      mstore\n      0x20\n      add\n      swap1\n      dup2\n      mstore\n      0x20\n      add\n      0x00\n      keccak256\n        /* \"contracts/Wedding.sol\":6016:6071  Engagement storage engagement = engagements[msg.sender] */\n      swap1\n      pop\n        /* \"contracts/Wedding.sol\":6100:6110  engagement */\n      dup1\n        /* \"contracts/Wedding.sol\":6100:6118  engagement.spouse1 */\n      0x00\n      add\n      0x00\n      swap1\n      sload\n      swap1\n      0x0100\n      exp\n      swap1\n      div\n      0xffffffffffffffffffffffffffffffffffffffff\n      and\n        /* \"contracts/Wedding.sol\":6086:6118  msg.sender == engagement.spouse1 */\n      0xffffffffffffffffffffffffffffffffffffffff\n      and\n        /* \"contracts/Wedding.sol\":6086:6096  msg.sender */\n      caller\n        /* \"contracts/Wedding.sol\":6086:6118  msg.sender == engagement.spouse1 */\n      0xffffffffffffffffffffffffffffffffffffffff\n      and\n      sub\n        /* \"contracts/Wedding.sol\":6082:6298  if (msg.sender == engagement.spouse1) {... */\n      tag_84\n      jumpi\n        /* \"contracts/Wedding.sol\":6172:6176  true */\n      0x01\n        /* \"contracts/Wedding.sol\":6134:6144  engagement */\n      dup2\n        /* \"contracts/Wedding.sol\":6134:6169  engagement.spouse1ConfirmedMarriage */\n      0x03\n      add\n      0x03\n        /* \"contracts/Wedding.sol\":6134:6176  engagement.spouse1ConfirmedMarriage = true */\n      0x0100\n      exp\n      dup2\n      sload\n      dup2\n      0xff\n      mul\n      not\n      and\n      swap1\n      dup4\n      iszero\n      iszero\n      mul\n      or\n      swap1\n      sstore\n      pop\n        /* \"contracts/Wedding.sol\":6082:6298  if (msg.sender == engagement.spouse1) {... */\n      jump(tag_85)\n    tag_84:\n        /* \"contracts/Wedding.sol\":6211:6221  engagement */\n      dup1\n        /* \"contracts/Wedding.sol\":6211:6229  engagement.spouse2 */\n      0x01\n      add\n      0x00\n      swap1\n      sload\n      swap1\n      0x0100\n      exp\n      swap1\n      div\n      0xffffffffffffffffffffffffffffffffffffffff\n      and\n        /* \"contracts/Wedding.sol\":6197:6229  msg.sender == engagement.spouse2 */\n      0xffffffffffffffffffffffffffffffffffffffff\n      and\n        /* \"contracts/Wedding.sol\":6197:6207  msg.sender */\n      caller\n        /* \"contracts/Wedding.sol\":6197:6229  msg.sender == engagement.spouse2 */\n      0xffffffffffffffffffffffffffffffffffffffff\n      and\n      sub\n        /* \"contracts/Wedding.sol\":6193:6298  if (msg.sender == engagement.spouse2) {... */\n      tag_86\n      jumpi\n        /* \"contracts/Wedding.sol\":6283:6287  true */\n      0x01\n        /* \"contracts/Wedding.sol\":6245:6255  engagement */\n      dup2\n        /* \"contracts/Wedding.sol\":6245:6280  engagement.spouse2ConfirmedMarriage */\n      0x03\n      add\n      0x04\n        /* \"contracts/Wedding.sol\":6245:6287  engagement.spouse2ConfirmedMarriage = true */\n      0x0100\n      exp\n      dup2\n      sload\n      dup2\n      0xff\n      mul\n      not\n      and\n      swap1\n      dup4\n      iszero\n      iszero\n      mul\n      or\n      swap1\n      sstore\n      pop\n        /* \"contracts/Wedding.sol\":6193:6298  if (msg.sender == engagement.spouse2) {... */\n    tag_86:\n        /* \"contracts/Wedding.sol\":6082:6298  if (msg.sender == engagement.spouse1) {... */\n    tag_85:\n        /* \"contracts/Wedding.sol\":6352:6362  engagement */\n      dup1\n        /* \"contracts/Wedding.sol\":6352:6387  engagement.spouse1ConfirmedMarriage */\n      0x03\n      add\n      0x03\n      swap1\n      sload\n      swap1\n      0x0100\n      exp\n      swap1\n      div\n      0xff\n      and\n        /* \"contracts/Wedding.sol\":6352:6426  engagement.spouse1ConfirmedMarriage && engagement.spouse2ConfirmedMarriage */\n      dup1\n      iszero\n      tag_87\n      jumpi\n      pop\n        /* \"contracts/Wedding.sol\":6391:6401  engagement */\n      dup1\n        /* \"contracts/Wedding.sol\":6391:6426  engagement.spouse2ConfirmedMarriage */\n      0x03\n      add\n      0x04\n      swap1\n      sload\n      swap1\n      0x0100\n      exp\n      swap1\n      div\n      0xff\n      and\n        /* \"contracts/Wedding.sol\":6352:6426  engagement.spouse1ConfirmedMarriage && engagement.spouse2ConfirmedMarriage */\n    tag_87:\n        /* \"contracts/Wedding.sol\":6348:6556  if (engagement.spouse1ConfirmedMarriage && engagement.spouse2ConfirmedMarriage) {... */\n      iszero\n      tag_88\n      jumpi\n        /* \"contracts/Wedding.sol\":6465:6469  true */\n      0x01\n        /* \"contracts/Wedding.sol\":6442:6452  engagement */\n      dup2\n        /* \"contracts/Wedding.sol\":6442:6462  engagement.isMarried */\n      0x03\n      add\n      0x02\n        /* \"contracts/Wedding.sol\":6442:6469  engagement.isMarried = true */\n      0x0100\n      exp\n      dup2\n      sload\n      dup2\n      0xff\n      mul\n      not\n      and\n      swap1\n      dup4\n      iszero\n      iszero\n      mul\n      or\n      swap1\n      sstore\n      pop\n        /* \"contracts/Wedding.sol\":6488:6545  MarriageConfirmed(engagement.spouse1, engagement.spouse2) */\n      0x5c8ec7a25a142b043ee1d70b00b983786a266ced5b4e6b540ddc769276626819\n        /* \"contracts/Wedding.sol\":6506:6516  engagement */\n      dup2\n        /* \"contracts/Wedding.sol\":6506:6524  engagement.spouse1 */\n      0x00\n      add\n      0x00\n      swap1\n      sload\n      swap1\n      0x0100\n      exp\n      swap1\n      div\n      0xffffffffffffffffffffffffffffffffffffffff\n      and\n        /* \"contracts/Wedding.sol\":6526:6536  engagement */\n      dup3\n        /* \"contracts/Wedding.sol\":6526:6544  engagement.spouse2 */\n      0x01\n      add\n      0x00\n      swap1\n      sload\n      swap1\n      0x0100\n      exp\n      swap1\n      div\n      0xffffffffffffffffffffffffffffffffffffffff\n      and\n        /* \"contracts/Wedding.sol\":6488:6545  MarriageConfirmed(engagement.spouse1, engagement.spouse2) */\n      mload(0x40)\n      tag_89\n      swap3\n      swap2\n      swap1\n      tag_90\n      jump\t// in\n    tag_89:\n      mload(0x40)\n      dup1\n      swap2\n      sub\n      swap1\n      log1\n        /* \"contracts/Wedding.sol\":6348:6556  if (engagement.spouse1ConfirmedMarriage && engagement.spouse2ConfirmedMarriage) {... */\n    tag_88:\n        /* \"contracts/Wedding.sol\":6006:6562  {... */\n      pop\n        /* \"contracts/Wedding.sol\":1980:1981  _ */\n      pop\n        /* \"contracts/Wedding.sol\":1525:1526  _ */\n      pop\n        /* \"contracts/Wedding.sol\":5869:6562  function marry() external ... */\n      pop\n      jump\t// out\n        /* \"contracts/Wedding.sol\":4741:5236  function proposeGuestList(address[] calldata _guests) external isEngaged(msg.sender) isEngagedParty(msg.sender){... */\n    tag_30:\n        /* \"contracts/Wedding.sol\":4814:4824  msg.sender */\n      caller\n        /* \"contracts/Wedding.sol\":1486:1490  true */\n      0x01\n        /* \"contracts/Wedding.sol\":1452:1490  engagements[_spouse].isEngaged == true */\n      iszero\n      iszero\n        /* \"contracts/Wedding.sol\":1452:1463  engagements */\n      0x00\n        /* \"contracts/Wedding.sol\":1452:1472  engagements[_spouse] */\n      dup1\n        /* \"contracts/Wedding.sol\":1464:1471  _spouse */\n      dup4\n        /* \"contracts/Wedding.sol\":1452:1472  engagements[_spouse] */\n      0xffffffffffffffffffffffffffffffffffffffff\n      and\n      0xffffffffffffffffffffffffffffffffffffffff\n      and\n      dup2\n      mstore\n      0x20\n      add\n      swap1\n      dup2\n      mstore\n      0x20\n      add\n      0x00\n      keccak256\n        /* \"contracts/Wedding.sol\":1452:1482  engagements[_spouse].isEngaged */\n      0x03\n      add\n      0x00\n      swap1\n      sload\n      swap1\n      0x0100\n      exp\n      swap1\n      div\n      0xff\n      and\n        /* \"contracts/Wedding.sol\":1452:1490  engagements[_spouse].isEngaged == true */\n      iszero\n      iszero\n      eq\n        /* \"contracts/Wedding.sol\":1444:1515  require(engagements[_spouse].isEngaged == true, \"Address not engaged.\") */\n      tag_92\n      jumpi\n      mload(0x40)\n      0x08c379a000000000000000000000000000000000000000000000000000000000\n      dup2\n      mstore\n      0x04\n      add\n      tag_93\n      swap1\n      tag_53\n      jump\t// in\n    tag_93:\n      mload(0x40)\n      dup1\n      swap2\n      sub\n      swap1\n      revert\n    tag_92:\n        /* \"contracts/Wedding.sol\":4841:4851  msg.sender */\n      caller\n        /* \"contracts/Wedding.sol\":1590:1618  Engagement memory engagement */\n      0x00\n        /* \"contracts/Wedding.sol\":1621:1632  engagements */\n      dup1\n        /* \"contracts/Wedding.sol\":1621:1641  engagements[_spouse] */\n      0x00\n        /* \"contracts/Wedding.sol\":1633:1640  _spouse */\n      dup4\n        /* \"contracts/Wedding.sol\":1621:1641  engagements[_spouse] */\n      0xffffffffffffffffffffffffffffffffffffffff\n      and\n      0xffffffffffffffffffffffffffffffffffffffff\n      and\n      dup2\n      mstore\n      0x20\n      add\n      swap1\n      dup2\n      mstore\n      0x20\n      add\n      0x00\n      keccak256\n        /* \"contracts/Wedding.sol\":1590:1641  Engagement memory engagement = engagements[_spouse] */\n      mload(0x40)\n      dup1\n      0x0100\n      add\n      0x40\n      mstore\n      swap1\n      dup2\n      0x00\n      dup3\n      add\n      0x00\n      swap1\n      sload\n      swap1\n      0x0100\n      exp\n      swap1\n      div\n      0xffffffffffffffffffffffffffffffffffffffff\n      and\n      0xffffffffffffffffffffffffffffffffffffffff\n      and\n      0xffffffffffffffffffffffffffffffffffffffff\n      and\n      dup2\n      mstore\n      0x20\n      add\n      0x01\n      dup3\n      add\n      0x00\n      swap1\n      sload\n      swap1\n      0x0100\n      exp\n      swap1\n      div\n      0xffffffffffffffffffffffffffffffffffffffff\n      and\n      0xffffffffffffffffffffffffffffffffffffffff\n      and\n      0xffffffffffffffffffffffffffffffffffffffff\n      and\n      dup2\n      mstore\n      0x20\n      add\n      0x02\n      dup3\n      add\n      sload\n      dup2\n      mstore\n      0x20\n      add\n      0x03\n      dup3\n      add\n      0x00\n      swap1\n      sload\n      swap1\n      0x0100\n      exp\n      swap1\n      div\n      0xff\n      and\n      iszero\n      iszero\n      iszero\n      iszero\n      dup2\n      mstore\n      0x20\n      add\n      0x03\n      dup3\n      add\n      0x01\n      swap1\n      sload\n      swap1\n      0x0100\n      exp\n      swap1\n      div\n      0xff\n      and\n      iszero\n      iszero\n      iszero\n      iszero\n      dup2\n      mstore\n      0x20\n      add\n      0x03\n      dup3\n      add\n      0x02\n      swap1\n      sload\n      swap1\n      0x0100\n      exp\n      swap1\n      div\n      0xff\n      and\n      iszero\n      iszero\n      iszero\n      iszero\n      dup2\n      mstore\n      0x20\n      add\n      0x03\n      dup3\n      add\n      0x03\n      swap1\n      sload\n      swap1\n      0x0100\n      exp\n      swap1\n      div\n      0xff\n      and\n      iszero\n      iszero\n      iszero\n      iszero\n      dup2\n      mstore\n      0x20\n      add\n      0x03\n      dup3\n      add\n      0x04\n      swap1\n      sload\n      swap1\n      0x0100\n      exp\n      swap1\n      div\n      0xff\n      and\n      iszero\n      iszero\n      iszero\n      iszero\n      dup2\n      mstore\n      pop\n      pop\n      swap1\n      pop\n        /* \"contracts/Wedding.sol\":1686:1696  engagement */\n      dup1\n        /* \"contracts/Wedding.sol\":1686:1704  engagement.spouse1 */\n      0x00\n      add\n      mload\n        /* \"contracts/Wedding.sol\":1672:1704  msg.sender == engagement.spouse1 */\n      0xffffffffffffffffffffffffffffffffffffffff\n      and\n        /* \"contracts/Wedding.sol\":1672:1682  msg.sender */\n      caller\n        /* \"contracts/Wedding.sol\":1672:1704  msg.sender == engagement.spouse1 */\n      0xffffffffffffffffffffffffffffffffffffffff\n      and\n      eq\n        /* \"contracts/Wedding.sol\":1672:1740  msg.sender == engagement.spouse1 || msg.sender == engagement.spouse2 */\n      dup1\n      tag_95\n      jumpi\n      pop\n        /* \"contracts/Wedding.sol\":1722:1732  engagement */\n      dup1\n        /* \"contracts/Wedding.sol\":1722:1740  engagement.spouse2 */\n      0x20\n      add\n      mload\n        /* \"contracts/Wedding.sol\":1708:1740  msg.sender == engagement.spouse2 */\n      0xffffffffffffffffffffffffffffffffffffffff\n      and\n        /* \"contracts/Wedding.sol\":1708:1718  msg.sender */\n      caller\n        /* \"contracts/Wedding.sol\":1708:1740  msg.sender == engagement.spouse2 */\n      0xffffffffffffffffffffffffffffffffffffffff\n      and\n      eq\n        /* \"contracts/Wedding.sol\":1672:1740  msg.sender == engagement.spouse1 || msg.sender == engagement.spouse2 */\n    tag_95:\n        /* \"contracts/Wedding.sol\":1651:1807  require(... */\n      tag_96\n      jumpi\n      mload(0x40)\n      0x08c379a000000000000000000000000000000000000000000000000000000000\n      dup2\n      mstore\n      0x04\n      add\n      tag_97\n      swap1\n      tag_98\n      jump\t// in\n    tag_97:\n      mload(0x40)\n      dup1\n      swap2\n      sub\n      swap1\n      revert\n    tag_96:\n        /* \"contracts/Wedding.sol\":4862:4890  Engagement memory engagement */\n      0x00\n        /* \"contracts/Wedding.sol\":4893:4904  engagements */\n      dup1\n        /* \"contracts/Wedding.sol\":4893:4916  engagements[msg.sender] */\n      0x00\n        /* \"contracts/Wedding.sol\":4905:4915  msg.sender */\n      caller\n        /* \"contracts/Wedding.sol\":4893:4916  engagements[msg.sender] */\n      0xffffffffffffffffffffffffffffffffffffffff\n      and\n      0xffffffffffffffffffffffffffffffffffffffff\n      and\n      dup2\n      mstore\n      0x20\n      add\n      swap1\n      dup2\n      mstore\n      0x20\n      add\n      0x00\n      keccak256\n        /* \"contracts/Wedding.sol\":4862:4916  Engagement memory engagement = engagements[msg.sender] */\n      mload(0x40)\n      dup1\n      0x0100\n      add\n      0x40\n      mstore\n      swap1\n      dup2\n      0x00\n      dup3\n      add\n      0x00\n      swap1\n      sload\n      swap1\n      0x0100\n      exp\n      swap1\n      div\n      0xffffffffffffffffffffffffffffffffffffffff\n      and\n      0xffffffffffffffffffffffffffffffffffffffff\n      and\n      0xffffffffffffffffffffffffffffffffffffffff\n      and\n      dup2\n      mstore\n      0x20\n      add\n      0x01\n      dup3\n      add\n      0x00\n      swap1\n      sload\n      swap1\n      0x0100\n      exp\n      swap1\n      div\n      0xffffffffffffffffffffffffffffffffffffffff\n      and\n      0xffffffffffffffffffffffffffffffffffffffff\n      and\n      0xffffffffffffffffffffffffffffffffffffffff\n      and\n      dup2\n      mstore\n      0x20\n      add\n      0x02\n      dup3\n      add\n      sload\n      dup2\n      mstore\n      0x20\n      add\n      0x03\n      dup3\n      add\n      0x00\n      swap1\n      sload\n      swap1\n      0x0100\n      exp\n      swap1\n      div\n      0xff\n      and\n      iszero\n      iszero\n      iszero\n      iszero\n      dup2\n      mstore\n      0x20\n      add\n      0x03\n      dup3\n      add\n      0x01\n      swap1\n      sload\n      swap1\n      0x0100\n      exp\n      swap1\n      div\n      0xff\n      and\n      iszero\n      iszero\n      iszero\n      iszero\n      dup2\n      mstore\n      0x20\n      add\n      0x03\n      dup3\n      add\n      0x02\n      swap1\n      sload\n      swap1\n      0x0100\n      exp\n      swap1\n      div\n      0xff\n      and\n      iszero\n      iszero\n      iszero\n      iszero\n      dup2\n      mstore\n      0x20\n      add\n      0x03\n      dup3\n      add\n      0x03\n      swap1\n      sload\n      swap1\n      0x0100\n      exp\n      swap1\n      div\n      0xff\n      and\n      iszero\n      iszero\n      iszero\n      iszero\n      dup2\n      mstore\n      0x20\n      add\n      0x03\n      dup3\n      add\n      0x04\n      swap1\n      sload\n      swap1\n      0x0100\n      exp\n      swap1\n      div\n      0xff\n      and\n      iszero\n      iszero\n      iszero\n      iszero\n      dup2\n      mstore\n      pop\n      pop\n      swap1\n      pop\n        /* \"contracts/Wedding.sol\":5038:5045  _guests */\n      dup6\n      dup6\n        /* \"contracts/Wedding.sol\":4990:5000  guestLists */\n      0x01\n        /* \"contracts/Wedding.sol\":4990:5020  guestLists[engagement.spouse1] */\n      0x00\n        /* \"contracts/Wedding.sol\":5001:5011  engagement */\n      dup5\n        /* \"contracts/Wedding.sol\":5001:5019  engagement.spouse1 */\n      0x00\n      add\n      mload\n        /* \"contracts/Wedding.sol\":4990:5020  guestLists[engagement.spouse1] */\n      0xffffffffffffffffffffffffffffffffffffffff\n      and\n      0xffffffffffffffffffffffffffffffffffffffff\n      and\n      dup2\n      mstore\n      0x20\n      add\n      swap1\n      dup2\n      mstore\n      0x20\n      add\n      0x00\n      keccak256\n        /* \"contracts/Wedding.sol\":4990:5035  guestLists[engagement.spouse1].proposedGuests */\n      0x00\n      add\n        /* \"contracts/Wedding.sol\":4990:5045  guestLists[engagement.spouse1].proposedGuests = _guests */\n      swap2\n      swap1\n      tag_100\n      swap3\n      swap2\n      swap1\n      tag_101\n      jump\t// in\n    tag_100:\n      pop\n        /* \"contracts/Wedding.sol\":5105:5110  false */\n      0x00\n        /* \"contracts/Wedding.sol\":5055:5065  guestLists */\n      0x01\n        /* \"contracts/Wedding.sol\":5055:5085  guestLists[engagement.spouse1] */\n      0x00\n        /* \"contracts/Wedding.sol\":5066:5076  engagement */\n      dup4\n        /* \"contracts/Wedding.sol\":5066:5084  engagement.spouse1 */\n      0x00\n      add\n      mload\n        /* \"contracts/Wedding.sol\":5055:5085  guestLists[engagement.spouse1] */\n      0xffffffffffffffffffffffffffffffffffffffff\n      and\n      0xffffffffffffffffffffffffffffffffffffffff\n      and\n      dup2\n      mstore\n      0x20\n      add\n      swap1\n      dup2\n      mstore\n      0x20\n      add\n      0x00\n      keccak256\n        /* \"contracts/Wedding.sol\":5055:5102  guestLists[engagement.spouse1].spouse1Confirmed */\n      0x01\n      add\n      0x00\n        /* \"contracts/Wedding.sol\":5055:5110  guestLists[engagement.spouse1].spouse1Confirmed = false */\n      0x0100\n      exp\n      dup2\n      sload\n      dup2\n      0xff\n      mul\n      not\n      and\n      swap1\n      dup4\n      iszero\n      iszero\n      mul\n      or\n      swap1\n      sstore\n      pop\n        /* \"contracts/Wedding.sol\":5170:5175  false */\n      0x00\n        /* \"contracts/Wedding.sol\":5120:5130  guestLists */\n      0x01\n        /* \"contracts/Wedding.sol\":5120:5150  guestLists[engagement.spouse1] */\n      0x00\n        /* \"contracts/Wedding.sol\":5131:5141  engagement */\n      dup4\n        /* \"contracts/Wedding.sol\":5131:5149  engagement.spouse1 */\n      0x00\n      add\n      mload\n        /* \"contracts/Wedding.sol\":5120:5150  guestLists[engagement.spouse1] */\n      0xffffffffffffffffffffffffffffffffffffffff\n      and\n      0xffffffffffffffffffffffffffffffffffffffff\n      and\n      dup2\n      mstore\n      0x20\n      add\n      swap1\n      dup2\n      mstore\n      0x20\n      add\n      0x00\n      keccak256\n        /* \"contracts/Wedding.sol\":5120:5167  guestLists[engagement.spouse1].spouse2Confirmed */\n      0x01\n      add\n      0x01\n        /* \"contracts/Wedding.sol\":5120:5175  guestLists[engagement.spouse1].spouse2Confirmed = false */\n      0x0100\n      exp\n      dup2\n      sload\n      dup2\n      0xff\n      mul\n      not\n      and\n      swap1\n      dup4\n      iszero\n      iszero\n      mul\n      or\n      swap1\n      sstore\n      pop\n        /* \"contracts/Wedding.sol\":5191:5229  GuestListProposed(msg.sender, _guests) */\n      0x402f0cdbbd3e7bdbd2c1fc4d920fa1ee7a733238220198df262284a1259d0be6\n        /* \"contracts/Wedding.sol\":5209:5219  msg.sender */\n      caller\n        /* \"contracts/Wedding.sol\":5221:5228  _guests */\n      dup8\n      dup8\n        /* \"contracts/Wedding.sol\":5191:5229  GuestListProposed(msg.sender, _guests) */\n      mload(0x40)\n      tag_102\n      swap4\n      swap3\n      swap2\n      swap1\n      tag_103\n      jump\t// in\n    tag_102:\n      mload(0x40)\n      dup1\n      swap2\n      sub\n      swap1\n      log1\n        /* \"contracts/Wedding.sol\":4852:5236  {... */\n      pop\n        /* \"contracts/Wedding.sol\":1580:1825  {... */\n      pop\n        /* \"contracts/Wedding.sol\":1525:1526  _ */\n      pop\n        /* \"contracts/Wedding.sol\":4741:5236  function proposeGuestList(address[] calldata _guests) external isEngaged(msg.sender) isEngagedParty(msg.sender){... */\n      pop\n      pop\n      pop\n      jump\t// out\n        /* \"contracts/Wedding.sol\":3444:4109  function registerEngagement(address _spouse, uint256 _weddingDate) external... */\n    tag_34:\n        /* \"contracts/Wedding.sol\":3539:3549  msg.sender */\n      caller\n        /* \"contracts/Wedding.sol\":3551:3558  _spouse */\n      dup3\n        /* \"contracts/Wedding.sol\":1251:1256  false */\n      0x00\n        /* \"contracts/Wedding.sol\":1216:1256  engagements[_spouse1].isEngaged == false */\n      iszero\n      iszero\n        /* \"contracts/Wedding.sol\":1216:1227  engagements */\n      0x00\n        /* \"contracts/Wedding.sol\":1216:1237  engagements[_spouse1] */\n      dup1\n        /* \"contracts/Wedding.sol\":1228:1236  _spouse1 */\n      dup5\n        /* \"contracts/Wedding.sol\":1216:1237  engagements[_spouse1] */\n      0xffffffffffffffffffffffffffffffffffffffff\n      and\n      0xffffffffffffffffffffffffffffffffffffffff\n      and\n      dup2\n      mstore\n      0x20\n      add\n      swap1\n      dup2\n      mstore\n      0x20\n      add\n      0x00\n      keccak256\n        /* \"contracts/Wedding.sol\":1216:1247  engagements[_spouse1].isEngaged */\n      0x03\n      add\n      0x00\n      swap1\n      sload\n      swap1\n      0x0100\n      exp\n      swap1\n      div\n      0xff\n      and\n        /* \"contracts/Wedding.sol\":1216:1256  engagements[_spouse1].isEngaged == false */\n      iszero\n      iszero\n      eq\n        /* \"contracts/Wedding.sol\":1216:1300  engagements[_spouse1].isEngaged == false && engagements[_spouse2].isEngaged == false */\n      dup1\n      iszero\n      tag_105\n      jumpi\n      pop\n        /* \"contracts/Wedding.sol\":1295:1300  false */\n      0x00\n        /* \"contracts/Wedding.sol\":1260:1300  engagements[_spouse2].isEngaged == false */\n      iszero\n      iszero\n        /* \"contracts/Wedding.sol\":1260:1271  engagements */\n      0x00\n        /* \"contracts/Wedding.sol\":1260:1281  engagements[_spouse2] */\n      dup1\n        /* \"contracts/Wedding.sol\":1272:1280  _spouse2 */\n      dup4\n        /* \"contracts/Wedding.sol\":1260:1281  engagements[_spouse2] */\n      0xffffffffffffffffffffffffffffffffffffffff\n      and\n      0xffffffffffffffffffffffffffffffffffffffff\n      and\n      dup2\n      mstore\n      0x20\n      add\n      swap1\n      dup2\n      mstore\n      0x20\n      add\n      0x00\n      keccak256\n        /* \"contracts/Wedding.sol\":1260:1291  engagements[_spouse2].isEngaged */\n      0x03\n      add\n      0x00\n      swap1\n      sload\n      swap1\n      0x0100\n      exp\n      swap1\n      div\n      0xff\n      and\n        /* \"contracts/Wedding.sol\":1260:1300  engagements[_spouse2].isEngaged == false */\n      iszero\n      iszero\n      eq\n        /* \"contracts/Wedding.sol\":1216:1300  engagements[_spouse1].isEngaged == false && engagements[_spouse2].isEngaged == false */\n    tag_105:\n        /* \"contracts/Wedding.sol\":1195:1374  require(... */\n      tag_106\n      jumpi\n      mload(0x40)\n      0x08c379a000000000000000000000000000000000000000000000000000000000\n      dup2\n      mstore\n      0x04\n      add\n      tag_107\n      swap1\n      tag_108\n      jump\t// in\n    tag_107:\n      mload(0x40)\n      dup1\n      swap2\n      sub\n      swap1\n      revert\n    tag_106:\n        /* \"contracts/Wedding.sol\":3579:3591  _weddingDate */\n      dup3\n        /* \"contracts/Wedding.sol\":2184:2199  block.timestamp */\n      timestamp\n        /* \"contracts/Wedding.sol\":2176:2181  _date */\n      dup2\n        /* \"contracts/Wedding.sol\":2176:2199  _date > block.timestamp */\n      gt\n        /* \"contracts/Wedding.sol\":2168:2230  require(_date > block.timestamp, \"Date must be in the future\") */\n      tag_110\n      jumpi\n      mload(0x40)\n      0x08c379a000000000000000000000000000000000000000000000000000000000\n      dup2\n      mstore\n      0x04\n      add\n      tag_111\n      swap1\n      tag_112\n      jump\t// in\n    tag_111:\n      mload(0x40)\n      dup1\n      swap2\n      sub\n      swap1\n      revert\n    tag_110:\n        /* \"contracts/Wedding.sol\":3607:3635  Engagement memory engagement */\n      0x00\n        /* \"contracts/Wedding.sol\":3638:3941  Engagement({... */\n      mload(0x40)\n      dup1\n      0x0100\n      add\n      0x40\n      mstore\n      dup1\n        /* \"contracts/Wedding.sol\":3672:3682  msg.sender */\n      caller\n        /* \"contracts/Wedding.sol\":3638:3941  Engagement({... */\n      0xffffffffffffffffffffffffffffffffffffffff\n      and\n      dup2\n      mstore\n      0x20\n      add\n        /* \"contracts/Wedding.sol\":3705:3712  _spouse */\n      dup8\n        /* \"contracts/Wedding.sol\":3638:3941  Engagement({... */\n      0xffffffffffffffffffffffffffffffffffffffff\n      and\n      dup2\n      mstore\n      0x20\n      add\n        /* \"contracts/Wedding.sol\":3739:3751  _weddingDate */\n      dup7\n        /* \"contracts/Wedding.sol\":3638:3941  Engagement({... */\n      dup2\n      mstore\n      0x20\n      add\n        /* \"contracts/Wedding.sol\":3776:3780  true */\n      0x01\n        /* \"contracts/Wedding.sol\":3638:3941  Engagement({... */\n      iszero\n      iszero\n      dup2\n      mstore\n      0x20\n      add\n        /* \"contracts/Wedding.sol\":3805:3810  false */\n      0x00\n        /* \"contracts/Wedding.sol\":3638:3941  Engagement({... */\n      iszero\n      iszero\n      dup2\n      mstore\n      0x20\n      add\n        /* \"contracts/Wedding.sol\":3835:3840  false */\n      0x00\n        /* \"contracts/Wedding.sol\":3638:3941  Engagement({... */\n      iszero\n      iszero\n      dup2\n      mstore\n      0x20\n      add\n        /* \"contracts/Wedding.sol\":3880:3885  false */\n      0x00\n        /* \"contracts/Wedding.sol\":3638:3941  Engagement({... */\n      iszero\n      iszero\n      dup2\n      mstore\n      0x20\n      add\n        /* \"contracts/Wedding.sol\":3925:3930  false */\n      0x00\n        /* \"contracts/Wedding.sol\":3638:3941  Engagement({... */\n      iszero\n      iszero\n      dup2\n      mstore\n      pop\n        /* \"contracts/Wedding.sol\":3607:3941  Engagement memory engagement = Engagement({... */\n      swap1\n      pop\n        /* \"contracts/Wedding.sol\":3978:3988  engagement */\n      dup1\n        /* \"contracts/Wedding.sol\":3952:3963  engagements */\n      0x00\n        /* \"contracts/Wedding.sol\":3952:3975  engagements[msg.sender] */\n      dup1\n        /* \"contracts/Wedding.sol\":3964:3974  msg.sender */\n      caller\n        /* \"contracts/Wedding.sol\":3952:3975  engagements[msg.sender] */\n      0xffffffffffffffffffffffffffffffffffffffff\n      and\n      0xffffffffffffffffffffffffffffffffffffffff\n      and\n      dup2\n      mstore\n      0x20\n      add\n      swap1\n      dup2\n      mstore\n      0x20\n      add\n      0x00\n      keccak256\n        /* \"contracts/Wedding.sol\":3952:3988  engagements[msg.sender] = engagement */\n      0x00\n      dup3\n      add\n      mload\n      dup2\n      0x00\n      add\n      exp(0x0100, 0x00)\n      dup2\n      sload\n      dup2\n      0xffffffffffffffffffffffffffffffffffffffff\n      mul\n      not\n      and\n      swap1\n      dup4\n      0xffffffffffffffffffffffffffffffffffffffff\n      and\n      mul\n      or\n      swap1\n      sstore\n      pop\n      0x20\n      dup3\n      add\n      mload\n      dup2\n      0x01\n      add\n      exp(0x0100, 0x00)\n      dup2\n      sload\n      dup2\n      0xffffffffffffffffffffffffffffffffffffffff\n      mul\n      not\n      and\n      swap1\n      dup4\n      0xffffffffffffffffffffffffffffffffffffffff\n      and\n      mul\n      or\n      swap1\n      sstore\n      pop\n      0x40\n      dup3\n      add\n      mload\n      dup2\n      0x02\n      add\n      sstore\n      0x60\n      dup3\n      add\n      mload\n      dup2\n      0x03\n      add\n      exp(0x0100, 0x00)\n      dup2\n      sload\n      dup2\n      0xff\n      mul\n      not\n      and\n      swap1\n      dup4\n      iszero\n      iszero\n      mul\n      or\n      swap1\n      sstore\n      pop\n      0x80\n      dup3\n      add\n      mload\n      dup2\n      0x03\n      add\n      exp(0x0100, 0x01)\n      dup2\n      sload\n      dup2\n      0xff\n      mul\n      not\n      and\n      swap1\n      dup4\n      iszero\n      iszero\n      mul\n      or\n      swap1\n      sstore\n      pop\n      0xa0\n      dup3\n      add\n      mload\n      dup2\n      0x03\n      add\n      exp(0x0100, 0x02)\n      dup2\n      sload\n      dup2\n      0xff\n      mul\n      not\n      and\n      swap1\n      dup4\n      iszero\n      iszero\n      mul\n      or\n      swap1\n      sstore\n      pop\n      0xc0\n      dup3\n      add\n      mload\n      dup2\n      0x03\n      add\n      exp(0x0100, 0x03)\n      dup2\n      sload\n      dup2\n      0xff\n      mul\n      not\n      and\n      swap1\n      dup4\n      iszero\n      iszero\n      mul\n      or\n      swap1\n      sstore\n      pop\n      0xe0\n      dup3\n      add\n      mload\n      dup2\n      0x03\n      add\n      exp(0x0100, 0x04)\n      dup2\n      sload\n      dup2\n      0xff\n      mul\n      not\n      and\n      swap1\n      dup4\n      iszero\n      iszero\n      mul\n      or\n      swap1\n      sstore\n      pop\n      swap1\n      pop\n      pop\n        /* \"contracts/Wedding.sol\":4021:4031  engagement */\n      dup1\n        /* \"contracts/Wedding.sol\":3998:4009  engagements */\n      0x00\n        /* \"contracts/Wedding.sol\":3998:4018  engagements[_spouse] */\n      dup1\n        /* \"contracts/Wedding.sol\":4010:4017  _spouse */\n      dup9\n        /* \"contracts/Wedding.sol\":3998:4018  engagements[_spouse] */\n      0xffffffffffffffffffffffffffffffffffffffff\n      and\n      0xffffffffffffffffffffffffffffffffffffffff\n      and\n      dup2\n      mstore\n      0x20\n      add\n      swap1\n      dup2\n      mstore\n      0x20\n      add\n      0x00\n      keccak256\n        /* \"contracts/Wedding.sol\":3998:4031  engagements[_spouse] = engagement */\n      0x00\n      dup3\n      add\n      mload\n      dup2\n      0x00\n      add\n      exp(0x0100, 0x00)\n      dup2\n      sload\n      dup2\n      0xffffffffffffffffffffffffffffffffffffffff\n      mul\n      not\n      and\n      swap1\n      dup4\n      0xffffffffffffffffffffffffffffffffffffffff\n      and\n      mul\n      or\n      swap1\n      sstore\n      pop\n      0x20\n      dup3\n      add\n      mload\n      dup2\n      0x01\n      add\n      exp(0x0100, 0x00)\n      dup2\n      sload\n      dup2\n      0xffffffffffffffffffffffffffffffffffffffff\n      mul\n      not\n      and\n      swap1\n      dup4\n      0xffffffffffffffffffffffffffffffffffffffff\n      and\n      mul\n      or\n      swap1\n      sstore\n      pop\n      0x40\n      dup3\n      add\n      mload\n      dup2\n      0x02\n      add\n      sstore\n      0x60\n      dup3\n      add\n      mload\n      dup2\n      0x03\n      add\n      exp(0x0100, 0x00)\n      dup2\n      sload\n      dup2\n      0xff\n      mul\n      not\n      and\n      swap1\n      dup4\n      iszero\n      iszero\n      mul\n      or\n      swap1\n      sstore\n      pop\n      0x80\n      dup3\n      add\n      mload\n      dup2\n      0x03\n      add\n      exp(0x0100, 0x01)\n      dup2\n      sload\n      dup2\n      0xff\n      mul\n      not\n      and\n      swap1\n      dup4\n      iszero\n      iszero\n      mul\n      or\n      swap1\n      sstore\n      pop\n      0xa0\n      dup3\n      add\n      mload\n      dup2\n      0x03\n      add\n      exp(0x0100, 0x02)\n      dup2\n      sload\n      dup2\n      0xff\n      mul\n      not\n      and\n      swap1\n      dup4\n      iszero\n      iszero\n      mul\n      or\n      swap1\n      sstore\n      pop\n      0xc0\n      dup3\n      add\n      mload\n      dup2\n      0x03\n      add\n      exp(0x0100, 0x03)\n      dup2\n      sload\n      dup2\n      0xff\n      mul\n      not\n      and\n      swap1\n      dup4\n      iszero\n      iszero\n      mul\n      or\n      swap1\n      sstore\n      pop\n      0xe0\n      dup3\n      add\n      mload\n      dup2\n      0x03\n      add\n      exp(0x0100, 0x04)\n      dup2\n      sload\n      dup2\n      0xff\n      mul\n      not\n      and\n      swap1\n      dup4\n      iszero\n      iszero\n      mul\n      or\n      swap1\n      sstore\n      pop\n      swap1\n      pop\n      pop\n        /* \"contracts/Wedding.sol\":4047:4102  EngagementRegistered(msg.sender, _spouse, _weddingDate) */\n      0x7a7f38be04afb87e39b4cb52bec76c69c4d999f605bd21054b71a3f2dc085821\n        /* \"contracts/Wedding.sol\":4068:4078  msg.sender */\n      caller\n        /* \"contracts/Wedding.sol\":4080:4087  _spouse */\n      dup8\n        /* \"contracts/Wedding.sol\":4089:4101  _weddingDate */\n      dup8\n        /* \"contracts/Wedding.sol\":4047:4102  EngagementRegistered(msg.sender, _spouse, _weddingDate) */\n      mload(0x40)\n      tag_114\n      swap4\n      swap3\n      swap2\n      swap1\n      tag_115\n      jump\t// in\n    tag_114:\n      mload(0x40)\n      dup1\n      swap2\n      sub\n      swap1\n      log1\n        /* \"contracts/Wedding.sol\":3597:4109  {... */\n      pop\n        /* \"contracts/Wedding.sol\":1384:1385  _ */\n      pop\n        /* \"contracts/Wedding.sol\":3444:4109  function registerEngagement(address _spouse, uint256 _weddingDate) external... */\n      pop\n      pop\n      pop\n      pop\n      jump\t// out\n        /* \"contracts/Wedding.sol\":6568:7056  function voteAgainstWedding(address _spouse) external ... */\n    tag_37:\n        /* \"contracts/Wedding.sol\":6641:6648  _spouse */\n      dup1\n        /* \"contracts/Wedding.sol\":1486:1490  true */\n      0x01\n        /* \"contracts/Wedding.sol\":1452:1490  engagements[_spouse].isEngaged == true */\n      iszero\n      iszero\n        /* \"contracts/Wedding.sol\":1452:1463  engagements */\n      0x00\n        /* \"contracts/Wedding.sol\":1452:1472  engagements[_spouse] */\n      dup1\n        /* \"contracts/Wedding.sol\":1464:1471  _spouse */\n      dup4\n        /* \"contracts/Wedding.sol\":1452:1472  engagements[_spouse] */\n      0xffffffffffffffffffffffffffffffffffffffff\n      and\n      0xffffffffffffffffffffffffffffffffffffffff\n      and\n      dup2\n      mstore\n      0x20\n      add\n      swap1\n      dup2\n      mstore\n      0x20\n      add\n      0x00\n      keccak256\n        /* \"contracts/Wedding.sol\":1452:1482  engagements[_spouse].isEngaged */\n      0x03\n      add\n      0x00\n      swap1\n      sload\n      swap1\n      0x0100\n      exp\n      swap1\n      div\n      0xff\n      and\n        /* \"contracts/Wedding.sol\":1452:1490  engagements[_spouse].isEngaged == true */\n      iszero\n      iszero\n      eq\n        /* \"contracts/Wedding.sol\":1444:1515  require(engagements[_spouse].isEngaged == true, \"Address not engaged.\") */\n      tag_117\n      jumpi\n      mload(0x40)\n      0x08c379a000000000000000000000000000000000000000000000000000000000\n      dup2\n      mstore\n      0x04\n      add\n      tag_118\n      swap1\n      tag_53\n      jump\t// in\n    tag_118:\n      mload(0x40)\n      dup1\n      swap2\n      sub\n      swap1\n      revert\n    tag_117:\n        /* \"contracts/Wedding.sol\":6665:6672  _spouse */\n      dup2\n        /* \"contracts/Wedding.sol\":2540:2568  Engagement memory engagement */\n      0x00\n        /* \"contracts/Wedding.sol\":2571:2582  engagements */\n      dup1\n        /* \"contracts/Wedding.sol\":2571:2591  engagements[_spouse] */\n      0x00\n        /* \"contracts/Wedding.sol\":2583:2590  _spouse */\n      dup4\n        /* \"contracts/Wedding.sol\":2571:2591  engagements[_spouse] */\n      0xffffffffffffffffffffffffffffffffffffffff\n      and\n      0xffffffffffffffffffffffffffffffffffffffff\n      and\n      dup2\n      mstore\n      0x20\n      add\n      swap1\n      dup2\n      mstore\n      0x20\n      add\n      0x00\n      keccak256\n        /* \"contracts/Wedding.sol\":2540:2591  Engagement memory engagement = engagements[_spouse] */\n      mload(0x40)\n      dup1\n      0x0100\n      add\n      0x40\n      mstore\n      swap1\n      dup2\n      0x00\n      dup3\n      add\n      0x00\n      swap1\n      sload\n      swap1\n      0x0100\n      exp\n      swap1\n      div\n      0xffffffffffffffffffffffffffffffffffffffff\n      and\n      0xffffffffffffffffffffffffffffffffffffffff\n      and\n      0xffffffffffffffffffffffffffffffffffffffff\n      and\n      dup2\n      mstore\n      0x20\n      add\n      0x01\n      dup3\n      add\n      0x00\n      swap1\n      sload\n      swap1\n      0x0100\n      exp\n      swap1\n      div\n      0xffffffffffffffffffffffffffffffffffffffff\n      and\n      0xffffffffffffffffffffffffffffffffffffffff\n      and\n      0xffffffffffffffffffffffffffffffffffffffff\n      and\n      dup2\n      mstore\n      0x20\n      add\n      0x02\n      dup3\n      add\n      sload\n      dup2\n      mstore\n      0x20\n      add\n      0x03\n      dup3\n      add\n      0x00\n      swap1\n      sload\n      swap1\n      0x0100\n      exp\n      swap1\n      div\n      0xff\n      and\n      iszero\n      iszero\n      iszero\n      iszero\n      dup2\n      mstore\n      0x20\n      add\n      0x03\n      dup3\n      add\n      0x01\n      swap1\n      sload\n      swap1\n      0x0100\n      exp\n      swap1\n      div\n      0xff\n      and\n      iszero\n      iszero\n      iszero\n      iszero\n      dup2\n      mstore\n      0x20\n      add\n      0x03\n      dup3\n      add\n      0x02\n      swap1\n      sload\n      swap1\n      0x0100\n      exp\n      swap1\n      div\n      0xff\n      and\n      iszero\n      iszero\n      iszero\n      iszero\n      dup2\n      mstore\n      0x20\n      add\n      0x03\n      dup3\n      add\n      0x03\n      swap1\n      sload\n      swap1\n      0x0100\n      exp\n      swap1\n      div\n      0xff\n      and\n      iszero\n      iszero\n      iszero\n      iszero\n      dup2\n      mstore\n      0x20\n      add\n      0x03\n      dup3\n      add\n      0x04\n      swap1\n      sload\n      swap1\n      0x0100\n      exp\n      swap1\n      div\n      0xff\n      and\n      iszero\n      iszero\n      iszero\n      iszero\n      dup2\n      mstore\n      pop\n      pop\n      swap1\n      pop\n        /* \"contracts/Wedding.sol\":2653:2659  1 days */\n      0x015180\n        /* \"contracts/Wedding.sol\":2628:2638  engagement */\n      dup2\n        /* \"contracts/Wedding.sol\":2628:2650  engagement.weddingDate */\n      0x40\n      add\n      mload\n        /* \"contracts/Wedding.sol\":2628:2659  engagement.weddingDate - 1 days */\n      tag_120\n      swap2\n      swap1\n      tag_121\n      jump\t// in\n    tag_120:\n        /* \"contracts/Wedding.sol\":2609:2624  block.timestamp */\n      timestamp\n        /* \"contracts/Wedding.sol\":2609:2659  block.timestamp >= engagement.weddingDate - 1 days */\n      lt\n      iszero\n        /* \"contracts/Wedding.sol\":2601:2683  require(block.timestamp >= engagement.weddingDate - 1 days, \"Voting not yet open\") */\n      tag_122\n      jumpi\n      mload(0x40)\n      0x08c379a000000000000000000000000000000000000000000000000000000000\n      dup2\n      mstore\n      0x04\n      add\n      tag_123\n      swap1\n      tag_124\n      jump\t// in\n    tag_123:\n      mload(0x40)\n      dup1\n      swap2\n      sub\n      swap1\n      revert\n    tag_122:\n        /* \"contracts/Wedding.sol\":2719:2729  engagement */\n      dup1\n        /* \"contracts/Wedding.sol\":2719:2741  engagement.weddingDate */\n      0x40\n      add\n      mload\n        /* \"contracts/Wedding.sol\":2701:2716  block.timestamp */\n      timestamp\n        /* \"contracts/Wedding.sol\":2701:2741  block.timestamp < engagement.weddingDate */\n      lt\n        /* \"contracts/Wedding.sol\":2693:2759  require(block.timestamp < engagement.weddingDate, \"Voting closed\") */\n      tag_125\n      jumpi\n      mload(0x40)\n      0x08c379a000000000000000000000000000000000000000000000000000000000\n      dup2\n      mstore\n      0x04\n      add\n      tag_126\n      swap1\n      tag_127\n      jump\t// in\n    tag_126:\n      mload(0x40)\n      dup1\n      swap2\n      sub\n      swap1\n      revert\n    tag_125:\n        /* \"contracts/Wedding.sol\":6696:6703  _spouse */\n      dup4\n        /* \"contracts/Wedding.sol\":1926:1931  false */\n      0x00\n        /* \"contracts/Wedding.sol\":1892:1931  engagements[_spouse].isRevoked == false */\n      iszero\n      iszero\n        /* \"contracts/Wedding.sol\":1892:1903  engagements */\n      0x00\n        /* \"contracts/Wedding.sol\":1892:1912  engagements[_spouse] */\n      dup1\n        /* \"contracts/Wedding.sol\":1904:1911  _spouse */\n      dup4\n        /* \"contracts/Wedding.sol\":1892:1912  engagements[_spouse] */\n      0xffffffffffffffffffffffffffffffffffffffff\n      and\n      0xffffffffffffffffffffffffffffffffffffffff\n      and\n      dup2\n      mstore\n      0x20\n      add\n      swap1\n      dup2\n      mstore\n      0x20\n      add\n      0x00\n      keccak256\n        /* \"contracts/Wedding.sol\":1892:1922  engagements[_spouse].isRevoked */\n      0x03\n      add\n      0x01\n      swap1\n      sload\n      swap1\n      0x0100\n      exp\n      swap1\n      div\n      0xff\n      and\n        /* \"contracts/Wedding.sol\":1892:1931  engagements[_spouse].isRevoked == false */\n      iszero\n      iszero\n      eq\n        /* \"contracts/Wedding.sol\":1884:1970  require(engagements[_spouse].isRevoked == false, \"The engagement is already revoked.\") */\n      tag_129\n      jumpi\n      mload(0x40)\n      0x08c379a000000000000000000000000000000000000000000000000000000000\n      dup2\n      mstore\n      0x04\n      add\n      tag_130\n      swap1\n      tag_70\n      jump\t// in\n    tag_130:\n      mload(0x40)\n      dup1\n      swap2\n      sub\n      swap1\n      revert\n    tag_129:\n        /* \"contracts/Wedding.sol\":6734:6741  _spouse */\n      dup5\n        /* \"contracts/Wedding.sol\":2052:2063  engagements */\n      0x00\n        /* \"contracts/Wedding.sol\":2052:2072  engagements[_spouse] */\n      dup1\n        /* \"contracts/Wedding.sol\":2064:2071  _spouse */\n      dup3\n        /* \"contracts/Wedding.sol\":2052:2072  engagements[_spouse] */\n      0xffffffffffffffffffffffffffffffffffffffff\n      and\n      0xffffffffffffffffffffffffffffffffffffffff\n      and\n      dup2\n      mstore\n      0x20\n      add\n      swap1\n      dup2\n      mstore\n      0x20\n      add\n      0x00\n      keccak256\n        /* \"contracts/Wedding.sol\":2052:2082  engagements[_spouse].isMarried */\n      0x03\n      add\n      0x02\n      swap1\n      sload\n      swap1\n      0x0100\n      exp\n      swap1\n      div\n      0xff\n      and\n        /* \"contracts/Wedding.sol\":2051:2082  !engagements[_spouse].isMarried */\n      iszero\n        /* \"contracts/Wedding.sol\":2043:2102  require(!engagements[_spouse].isMarried, \"Already married\") */\n      tag_132\n      jumpi\n      mload(0x40)\n      0x08c379a000000000000000000000000000000000000000000000000000000000\n      dup2\n      mstore\n      0x04\n      add\n      tag_133\n      swap1\n      tag_57\n      jump\t// in\n    tag_133:\n      mload(0x40)\n      dup1\n      swap2\n      sub\n      swap1\n      revert\n    tag_132:\n        /* \"contracts/Wedding.sol\":6768:6775  _spouse */\n      dup6\n        /* \"contracts/Wedding.sol\":2844:2881  isGuestConfirmed(_spouse, msg.sender) */\n      tag_135\n        /* \"contracts/Wedding.sol\":2861:2868  _spouse */\n      dup2\n        /* \"contracts/Wedding.sol\":2870:2880  msg.sender */\n      caller\n        /* \"contracts/Wedding.sol\":2844:2860  isGuestConfirmed */\n      tag_136\n        /* \"contracts/Wedding.sol\":2844:2881  isGuestConfirmed(_spouse, msg.sender) */\n      jump\t// in\n    tag_135:\n        /* \"contracts/Wedding.sol\":2836:2907  require(isGuestConfirmed(_spouse, msg.sender), \"Not a confirmed guest\") */\n      tag_137\n      jumpi\n      mload(0x40)\n      0x08c379a000000000000000000000000000000000000000000000000000000000\n      dup2\n      mstore\n      0x04\n      add\n      tag_138\n      swap1\n      tag_139\n      jump\t// in\n    tag_138:\n      mload(0x40)\n      dup1\n      swap2\n      sub\n      swap1\n      revert\n    tag_137:\n        /* \"contracts/Wedding.sol\":6797:6804  _spouse */\n      dup7\n        /* \"contracts/Wedding.sol\":2988:2998  guestLists */\n      0x01\n        /* \"contracts/Wedding.sol\":2988:3007  guestLists[_spouse] */\n      0x00\n        /* \"contracts/Wedding.sol\":2999:3006  _spouse */\n      dup3\n        /* \"contracts/Wedding.sol\":2988:3007  guestLists[_spouse] */\n      0xffffffffffffffffffffffffffffffffffffffff\n      and\n      0xffffffffffffffffffffffffffffffffffffffff\n      and\n      dup2\n      mstore\n      0x20\n      add\n      swap1\n      dup2\n      mstore\n      0x20\n      add\n      0x00\n      keccak256\n        /* \"contracts/Wedding.sol\":2988:3023  guestLists[_spouse].hasVotedAgainst */\n      0x02\n      add\n        /* \"contracts/Wedding.sol\":2988:3035  guestLists[_spouse].hasVotedAgainst[msg.sender] */\n      0x00\n        /* \"contracts/Wedding.sol\":3024:3034  msg.sender */\n      caller\n        /* \"contracts/Wedding.sol\":2988:3035  guestLists[_spouse].hasVotedAgainst[msg.sender] */\n      0xffffffffffffffffffffffffffffffffffffffff\n      and\n      0xffffffffffffffffffffffffffffffffffffffff\n      and\n      dup2\n      mstore\n      0x20\n      add\n      swap1\n      dup2\n      mstore\n      0x20\n      add\n      0x00\n      keccak256\n      0x00\n      swap1\n      sload\n      swap1\n      0x0100\n      exp\n      swap1\n      div\n      0xff\n      and\n        /* \"contracts/Wedding.sol\":2987:3035  !guestLists[_spouse].hasVotedAgainst[msg.sender] */\n      iszero\n        /* \"contracts/Wedding.sol\":2979:3053  require(!guestLists[_spouse].hasVotedAgainst[msg.sender], \"Already voted\") */\n      tag_141\n      jumpi\n      mload(0x40)\n      0x08c379a000000000000000000000000000000000000000000000000000000000\n      dup2\n      mstore\n      0x04\n      add\n      tag_142\n      swap1\n      tag_143\n      jump\t// in\n    tag_142:\n      mload(0x40)\n      dup1\n      swap2\n      sub\n      swap1\n      revert\n    tag_141:\n        /* \"contracts/Wedding.sol\":6820:6847  GuestList storage guestList */\n      0x00\n        /* \"contracts/Wedding.sol\":6850:6860  guestLists */\n      0x01\n        /* \"contracts/Wedding.sol\":6850:6869  guestLists[_spouse] */\n      0x00\n        /* \"contracts/Wedding.sol\":6861:6868  _spouse */\n      dup11\n        /* \"contracts/Wedding.sol\":6850:6869  guestLists[_spouse] */\n      0xffffffffffffffffffffffffffffffffffffffff\n      and\n      0xffffffffffffffffffffffffffffffffffffffff\n      and\n      dup2\n      mstore\n      0x20\n      add\n      swap1\n      dup2\n      mstore\n      0x20\n      add\n      0x00\n      keccak256\n        /* \"contracts/Wedding.sol\":6820:6869  GuestList storage guestList = guestLists[_spouse] */\n      swap1\n      pop\n        /* \"contracts/Wedding.sol\":6920:6924  true */\n      0x01\n        /* \"contracts/Wedding.sol\":6880:6889  guestList */\n      dup2\n        /* \"contracts/Wedding.sol\":6880:6905  guestList.hasVotedAgainst */\n      0x02\n      add\n        /* \"contracts/Wedding.sol\":6880:6917  guestList.hasVotedAgainst[msg.sender] */\n      0x00\n        /* \"contracts/Wedding.sol\":6906:6916  msg.sender */\n      caller\n        /* \"contracts/Wedding.sol\":6880:6917  guestList.hasVotedAgainst[msg.sender] */\n      0xffffffffffffffffffffffffffffffffffffffff\n      and\n      0xffffffffffffffffffffffffffffffffffffffff\n      and\n      dup2\n      mstore\n      0x20\n      add\n      swap1\n      dup2\n      mstore\n      0x20\n      add\n      0x00\n      keccak256\n      0x00\n        /* \"contracts/Wedding.sol\":6880:6924  guestList.hasVotedAgainst[msg.sender] = true */\n      0x0100\n      exp\n      dup2\n      sload\n      dup2\n      0xff\n      mul\n      not\n      and\n      swap1\n      dup4\n      iszero\n      iszero\n      mul\n      or\n      swap1\n      sstore\n      pop\n        /* \"contracts/Wedding.sol\":6934:6943  guestList */\n      dup1\n        /* \"contracts/Wedding.sol\":6934:6956  guestList.votesAgainst */\n      0x03\n      add\n      0x00\n        /* \"contracts/Wedding.sol\":6934:6958  guestList.votesAgainst++ */\n      dup2\n      sload\n      dup1\n      swap3\n      swap2\n      swap1\n      tag_145\n      swap1\n      tag_146\n      jump\t// in\n    tag_145:\n      swap2\n      swap1\n      pop\n      sstore\n      pop\n        /* \"contracts/Wedding.sol\":7011:7049  GuestVotedAgainst(msg.sender, _spouse) */\n      0xa9862c5f43caca0b960b097a111ce8c3752d27df0e0f1f170b4a06a823e612b1\n        /* \"contracts/Wedding.sol\":7029:7039  msg.sender */\n      caller\n        /* \"contracts/Wedding.sol\":7041:7048  _spouse */\n      dup11\n        /* \"contracts/Wedding.sol\":7011:7049  GuestVotedAgainst(msg.sender, _spouse) */\n      mload(0x40)\n      tag_147\n      swap3\n      swap2\n      swap1\n      tag_90\n      jump\t// in\n    tag_147:\n      mload(0x40)\n      dup1\n      swap2\n      sub\n      swap1\n      log1\n        /* \"contracts/Wedding.sol\":6810:7056  {... */\n      pop\n        /* \"contracts/Wedding.sol\":2917:2918  _ */\n      pop\n        /* \"contracts/Wedding.sol\":2112:2113  _ */\n      pop\n        /* \"contracts/Wedding.sol\":1980:1981  _ */\n      pop\n        /* \"contracts/Wedding.sol\":2769:2770  _ */\n      pop\n        /* \"contracts/Wedding.sol\":2530:2777  {... */\n      pop\n        /* \"contracts/Wedding.sol\":1525:1526  _ */\n      pop\n        /* \"contracts/Wedding.sol\":6568:7056  function voteAgainstWedding(address _spouse) external ... */\n      pop\n      pop\n      jump\t// out\n        /* \"contracts/Wedding.sol\":557:606  mapping(address => Engagement) public engagements */\n    tag_40:\n      mstore(0x20, 0x00)\n      dup1\n      0x00\n      mstore\n      keccak256(0x00, 0x40)\n      0x00\n      swap2\n      pop\n      swap1\n      pop\n      dup1\n      0x00\n      add\n      0x00\n      swap1\n      sload\n      swap1\n      0x0100\n      exp\n      swap1\n      div\n      0xffffffffffffffffffffffffffffffffffffffff\n      and\n      swap1\n      dup1\n      0x01\n      add\n      0x00\n      swap1\n      sload\n      swap1\n      0x0100\n      exp\n      swap1\n      div\n      0xffffffffffffffffffffffffffffffffffffffff\n      and\n      swap1\n      dup1\n      0x02\n      add\n      sload\n      swap1\n      dup1\n      0x03\n      add\n      0x00\n      swap1\n      sload\n      swap1\n      0x0100\n      exp\n      swap1\n      div\n      0xff\n      and\n      swap1\n      dup1\n      0x03\n      add\n      0x01\n      swap1\n      sload\n      swap1\n      0x0100\n      exp\n      swap1\n      div\n      0xff\n      and\n      swap1\n      dup1\n      0x03\n      add\n      0x02\n      swap1\n      sload\n      swap1\n      0x0100\n      exp\n      swap1\n      div\n      0xff\n      and\n      swap1\n      dup1\n      0x03\n      add\n      0x03\n      swap1\n      sload\n      swap1\n      0x0100\n      exp\n      swap1\n      div\n      0xff\n      and\n      swap1\n      dup1\n      0x03\n      add\n      0x04\n      swap1\n      sload\n      swap1\n      0x0100\n      exp\n      swap1\n      div\n      0xff\n      and\n      swap1\n      pop\n      dup9\n      jump\t// out\n        /* \"contracts/Wedding.sol\":4436:4735  function getEngagementInfo(address _spouse) external view returns (address, address, uint256, bool, bool) {... */\n    tag_45:\n        /* \"contracts/Wedding.sol\":4503:4510  address */\n      0x00\n        /* \"contracts/Wedding.sol\":4512:4519  address */\n      dup1\n        /* \"contracts/Wedding.sol\":4521:4528  uint256 */\n      0x00\n        /* \"contracts/Wedding.sol\":4530:4534  bool */\n      dup1\n        /* \"contracts/Wedding.sol\":4536:4540  bool */\n      0x00\n        /* \"contracts/Wedding.sol\":4552:4580  Engagement memory engagement */\n      dup1\n        /* \"contracts/Wedding.sol\":4583:4594  engagements */\n      0x00\n        /* \"contracts/Wedding.sol\":4583:4603  engagements[_spouse] */\n      dup1\n        /* \"contracts/Wedding.sol\":4595:4602  _spouse */\n      dup9\n        /* \"contracts/Wedding.sol\":4583:4603  engagements[_spouse] */\n      0xffffffffffffffffffffffffffffffffffffffff\n      and\n      0xffffffffffffffffffffffffffffffffffffffff\n      and\n      dup2\n      mstore\n      0x20\n      add\n      swap1\n      dup2\n      mstore\n      0x20\n      add\n      0x00\n      keccak256\n        /* \"contracts/Wedding.sol\":4552:4603  Engagement memory engagement = engagements[_spouse] */\n      mload(0x40)\n      dup1\n      0x0100\n      add\n      0x40\n      mstore\n      swap1\n      dup2\n      0x00\n      dup3\n      add\n      0x00\n      swap1\n      sload\n      swap1\n      0x0100\n      exp\n      swap1\n      div\n      0xffffffffffffffffffffffffffffffffffffffff\n      and\n      0xffffffffffffffffffffffffffffffffffffffff\n      and\n      0xffffffffffffffffffffffffffffffffffffffff\n      and\n      dup2\n      mstore\n      0x20\n      add\n      0x01\n      dup3\n      add\n      0x00\n      swap1\n      sload\n      swap1\n      0x0100\n      exp\n      swap1\n      div\n      0xffffffffffffffffffffffffffffffffffffffff\n      and\n      0xffffffffffffffffffffffffffffffffffffffff\n      and\n      0xffffffffffffffffffffffffffffffffffffffff\n      and\n      dup2\n      mstore\n      0x20\n      add\n      0x02\n      dup3\n      add\n      sload\n      dup2\n      mstore\n      0x20\n      add\n      0x03\n      dup3\n      add\n      0x00\n      swap1\n      sload\n      swap1\n      0x0100\n      exp\n      swap1\n      div\n      0xff\n      and\n      iszero\n      iszero\n      iszero\n      iszero\n      dup2\n      mstore\n      0x20\n      add\n      0x03\n      dup3\n      add\n      0x01\n      swap1\n      sload\n      swap1\n      0x0100\n      exp\n      swap1\n      div\n      0xff\n      and\n      iszero\n      iszero\n      iszero\n      iszero\n      dup2\n      mstore\n      0x20\n      add\n      0x03\n      dup3\n      add\n      0x02\n      swap1\n      sload\n      swap1\n      0x0100\n      exp\n      swap1\n      div\n      0xff\n      and\n      iszero\n      iszero\n      iszero\n      iszero\n      dup2\n      mstore\n      0x20\n      add\n      0x03\n      dup3\n      add\n      0x03\n      swap1\n      sload\n      swap1\n      0x0100\n      exp\n      swap1\n      div\n      0xff\n      and\n      iszero\n      iszero\n      iszero\n      iszero\n      dup2\n      mstore\n      0x20\n      add\n      0x03\n      dup3\n      add\n      0x04\n      swap1\n      sload\n      swap1\n      0x0100\n      exp\n      swap1\n      div\n      0xff\n      and\n      iszero\n      iszero\n      iszero\n      iszero\n      dup2\n      mstore\n      pop\n      pop\n      swap1\n      pop\n        /* \"contracts/Wedding.sol\":4621:4631  engagement */\n      dup1\n        /* \"contracts/Wedding.sol\":4621:4639  engagement.spouse1 */\n      0x00\n      add\n      mload\n        /* \"contracts/Wedding.sol\":4641:4651  engagement */\n      dup2\n        /* \"contracts/Wedding.sol\":4641:4659  engagement.spouse2 */\n      0x20\n      add\n      mload\n        /* \"contracts/Wedding.sol\":4661:4671  engagement */\n      dup3\n        /* \"contracts/Wedding.sol\":4661:4683  engagement.weddingDate */\n      0x40\n      add\n      mload\n        /* \"contracts/Wedding.sol\":4685:4695  engagement */\n      dup4\n        /* \"contracts/Wedding.sol\":4685:4705  engagement.isEngaged */\n      0x60\n      add\n      mload\n        /* \"contracts/Wedding.sol\":4707:4717  engagement */\n      dup5\n        /* \"contracts/Wedding.sol\":4707:4727  engagement.isRevoked */\n      0x80\n      add\n      mload\n        /* \"contracts/Wedding.sol\":4613:4728  return (engagement.spouse1, engagement.spouse2, engagement.weddingDate, engagement.isEngaged, engagement.isRevoked) */\n      swap6\n      pop\n      swap6\n      pop\n      swap6\n      pop\n      swap6\n      pop\n      swap6\n      pop\n      pop\n        /* \"contracts/Wedding.sol\":4436:4735  function getEngagementInfo(address _spouse) external view returns (address, address, uint256, bool, bool) {... */\n      swap2\n      swap4\n      swap6\n      swap1\n      swap3\n      swap5\n      pop\n      jump\t// out\n        /* \"contracts/Wedding.sol\":5242:5863  function confirmGuestList() external isEngaged(msg.sender) isEngagedParty(msg.sender){... */\n    tag_49:\n        /* \"contracts/Wedding.sol\":5289:5299  msg.sender */\n      caller\n        /* \"contracts/Wedding.sol\":1486:1490  true */\n      0x01\n        /* \"contracts/Wedding.sol\":1452:1490  engagements[_spouse].isEngaged == true */\n      iszero\n      iszero\n        /* \"contracts/Wedding.sol\":1452:1463  engagements */\n      0x00\n        /* \"contracts/Wedding.sol\":1452:1472  engagements[_spouse] */\n      dup1\n        /* \"contracts/Wedding.sol\":1464:1471  _spouse */\n      dup4\n        /* \"contracts/Wedding.sol\":1452:1472  engagements[_spouse] */\n      0xffffffffffffffffffffffffffffffffffffffff\n      and\n      0xffffffffffffffffffffffffffffffffffffffff\n      and\n      dup2\n      mstore\n      0x20\n      add\n      swap1\n      dup2\n      mstore\n      0x20\n      add\n      0x00\n      keccak256\n        /* \"contracts/Wedding.sol\":1452:1482  engagements[_spouse].isEngaged */\n      0x03\n      add\n      0x00\n      swap1\n      sload\n      swap1\n      0x0100\n      exp\n      swap1\n      div\n      0xff\n      and\n        /* \"contracts/Wedding.sol\":1452:1490  engagements[_spouse].isEngaged == true */\n      iszero\n      iszero\n      eq\n        /* \"contracts/Wedding.sol\":1444:1515  require(engagements[_spouse].isEngaged == true, \"Address not engaged.\") */\n      tag_150\n      jumpi\n      mload(0x40)\n      0x08c379a000000000000000000000000000000000000000000000000000000000\n      dup2\n      mstore\n      0x04\n      add\n      tag_151\n      swap1\n      tag_53\n      jump\t// in\n    tag_151:\n      mload(0x40)\n      dup1\n      swap2\n      sub\n      swap1\n      revert\n    tag_150:\n        /* \"contracts/Wedding.sol\":5316:5326  msg.sender */\n      caller\n        /* \"contracts/Wedding.sol\":1590:1618  Engagement memory engagement */\n      0x00\n        /* \"contracts/Wedding.sol\":1621:1632  engagements */\n      dup1\n        /* \"contracts/Wedding.sol\":1621:1641  engagements[_spouse] */\n      0x00\n        /* \"contracts/Wedding.sol\":1633:1640  _spouse */\n      dup4\n        /* \"contracts/Wedding.sol\":1621:1641  engagements[_spouse] */\n      0xffffffffffffffffffffffffffffffffffffffff\n      and\n      0xffffffffffffffffffffffffffffffffffffffff\n      and\n      dup2\n      mstore\n      0x20\n      add\n      swap1\n      dup2\n      mstore\n      0x20\n      add\n      0x00\n      keccak256\n        /* \"contracts/Wedding.sol\":1590:1641  Engagement memory engagement = engagements[_spouse] */\n      mload(0x40)\n      dup1\n      0x0100\n      add\n      0x40\n      mstore\n      swap1\n      dup2\n      0x00\n      dup3\n      add\n      0x00\n      swap1\n      sload\n      swap1\n      0x0100\n      exp\n      swap1\n      div\n      0xffffffffffffffffffffffffffffffffffffffff\n      and\n      0xffffffffffffffffffffffffffffffffffffffff\n      and\n      0xffffffffffffffffffffffffffffffffffffffff\n      and\n      dup2\n      mstore\n      0x20\n      add\n      0x01\n      dup3\n      add\n      0x00\n      swap1\n      sload\n      swap1\n      0x0100\n      exp\n      swap1\n      div\n      0xffffffffffffffffffffffffffffffffffffffff\n      and\n      0xffffffffffffffffffffffffffffffffffffffff\n      and\n      0xffffffffffffffffffffffffffffffffffffffff\n      and\n      dup2\n      mstore\n      0x20\n      add\n      0x02\n      dup3\n      add\n      sload\n      dup2\n      mstore\n      0x20\n      add\n      0x03\n      dup3\n      add\n      0x00\n      swap1\n      sload\n      swap1\n      0x0100\n      exp\n      swap1\n      div\n      0xff\n      and\n      iszero\n      iszero\n      iszero\n      iszero\n      dup2\n      mstore\n      0x20\n      add\n      0x03\n      dup3\n      add\n      0x01\n      swap1\n      sload\n      swap1\n      0x0100\n      exp\n      swap1\n      div\n      0xff\n      and\n      iszero\n      iszero\n      iszero\n      iszero\n      dup2\n      mstore\n      0x20\n      add\n      0x03\n      dup3\n      add\n      0x02\n      swap1\n      sload\n      swap1\n      0x0100\n      exp\n      swap1\n      div\n      0xff\n      and\n      iszero\n      iszero\n      iszero\n      iszero\n      dup2\n      mstore\n      0x20\n      add\n      0x03\n      dup3\n      add\n      0x03\n      swap1\n      sload\n      swap1\n      0x0100\n      exp\n      swap1\n      div\n      0xff\n      and\n      iszero\n      iszero\n      iszero\n      iszero\n      dup2\n      mstore\n      0x20\n      add\n      0x03\n      dup3\n      add\n      0x04\n      swap1\n      sload\n      swap1\n      0x0100\n      exp\n      swap1\n      div\n      0xff\n      and\n      iszero\n      iszero\n      iszero\n      iszero\n      dup2\n      mstore\n      pop\n      pop\n      swap1\n      pop\n        /* \"contracts/Wedding.sol\":1686:1696  engagement */\n      dup1\n        /* \"contracts/Wedding.sol\":1686:1704  engagement.spouse1 */\n      0x00\n      add\n      mload\n        /* \"contracts/Wedding.sol\":1672:1704  msg.sender == engagement.spouse1 */\n      0xffffffffffffffffffffffffffffffffffffffff\n      and\n        /* \"contracts/Wedding.sol\":1672:1682  msg.sender */\n      caller\n        /* \"contracts/Wedding.sol\":1672:1704  msg.sender == engagement.spouse1 */\n      0xffffffffffffffffffffffffffffffffffffffff\n      and\n      eq\n        /* \"contracts/Wedding.sol\":1672:1740  msg.sender == engagement.spouse1 || msg.sender == engagement.spouse2 */\n      dup1\n      tag_153\n      jumpi\n      pop\n        /* \"contracts/Wedding.sol\":1722:1732  engagement */\n      dup1\n        /* \"contracts/Wedding.sol\":1722:1740  engagement.spouse2 */\n      0x20\n      add\n      mload\n        /* \"contracts/Wedding.sol\":1708:1740  msg.sender == engagement.spouse2 */\n      0xffffffffffffffffffffffffffffffffffffffff\n      and\n        /* \"contracts/Wedding.sol\":1708:1718  msg.sender */\n      caller\n        /* \"contracts/Wedding.sol\":1708:1740  msg.sender == engagement.spouse2 */\n      0xffffffffffffffffffffffffffffffffffffffff\n      and\n      eq\n        /* \"contracts/Wedding.sol\":1672:1740  msg.sender == engagement.spouse1 || msg.sender == engagement.spouse2 */\n    tag_153:\n        /* \"contracts/Wedding.sol\":1651:1807  require(... */\n      tag_154\n      jumpi\n      mload(0x40)\n      0x08c379a000000000000000000000000000000000000000000000000000000000\n      dup2\n      mstore\n      0x04\n      add\n      tag_155\n      swap1\n      tag_98\n      jump\t// in\n    tag_155:\n      mload(0x40)\n      dup1\n      swap2\n      sub\n      swap1\n      revert\n    tag_154:\n        /* \"contracts/Wedding.sol\":5337:5365  Engagement memory engagement */\n      0x00\n        /* \"contracts/Wedding.sol\":5368:5379  engagements */\n      dup1\n        /* \"contracts/Wedding.sol\":5368:5391  engagements[msg.sender] */\n      0x00\n        /* \"contracts/Wedding.sol\":5380:5390  msg.sender */\n      caller\n        /* \"contracts/Wedding.sol\":5368:5391  engagements[msg.sender] */\n      0xffffffffffffffffffffffffffffffffffffffff\n      and\n      0xffffffffffffffffffffffffffffffffffffffff\n      and\n      dup2\n      mstore\n      0x20\n      add\n      swap1\n      dup2\n      mstore\n      0x20\n      add\n      0x00\n      keccak256\n        /* \"contracts/Wedding.sol\":5337:5391  Engagement memory engagement = engagements[msg.sender] */\n      mload(0x40)\n      dup1\n      0x0100\n      add\n      0x40\n      mstore\n      swap1\n      dup2\n      0x00\n      dup3\n      add\n      0x00\n      swap1\n      sload\n      swap1\n      0x0100\n      exp\n      swap1\n      div\n      0xffffffffffffffffffffffffffffffffffffffff\n      and\n      0xffffffffffffffffffffffffffffffffffffffff\n      and\n      0xffffffffffffffffffffffffffffffffffffffff\n      and\n      dup2\n      mstore\n      0x20\n      add\n      0x01\n      dup3\n      add\n      0x00\n      swap1\n      sload\n      swap1\n      0x0100\n      exp\n      swap1\n      div\n      0xffffffffffffffffffffffffffffffffffffffff\n      and\n      0xffffffffffffffffffffffffffffffffffffffff\n      and\n      0xffffffffffffffffffffffffffffffffffffffff\n      and\n      dup2\n      mstore\n      0x20\n      add\n      0x02\n      dup3\n      add\n      sload\n      dup2\n      mstore\n      0x20\n      add\n      0x03\n      dup3\n      add\n      0x00\n      swap1\n      sload\n      swap1\n      0x0100\n      exp\n      swap1\n      div\n      0xff\n      and\n      iszero\n      iszero\n      iszero\n      iszero\n      dup2\n      mstore\n      0x20\n      add\n      0x03\n      dup3\n      add\n      0x01\n      swap1\n      sload\n      swap1\n      0x0100\n      exp\n      swap1\n      div\n      0xff\n      and\n      iszero\n      iszero\n      iszero\n      iszero\n      dup2\n      mstore\n      0x20\n      add\n      0x03\n      dup3\n      add\n      0x02\n      swap1\n      sload\n      swap1\n      0x0100\n      exp\n      swap1\n      div\n      0xff\n      and\n      iszero\n      iszero\n      iszero\n      iszero\n      dup2\n      mstore\n      0x20\n      add\n      0x03\n      dup3\n      add\n      0x03\n      swap1\n      sload\n      swap1\n      0x0100\n      exp\n      swap1\n      div\n      0xff\n      and\n      iszero\n      iszero\n      iszero\n      iszero\n      dup2\n      mstore\n      0x20\n      add\n      0x03\n      dup3\n      add\n      0x04\n      swap1\n      sload\n      swap1\n      0x0100\n      exp\n      swap1\n      div\n      0xff\n      and\n      iszero\n      iszero\n      iszero\n      iszero\n      dup2\n      mstore\n      pop\n      pop\n      swap1\n      pop\n        /* \"contracts/Wedding.sol\":5420:5430  engagement */\n      dup1\n        /* \"contracts/Wedding.sol\":5420:5438  engagement.spouse1 */\n      0x00\n      add\n      mload\n        /* \"contracts/Wedding.sol\":5406:5438  msg.sender == engagement.spouse1 */\n      0xffffffffffffffffffffffffffffffffffffffff\n      and\n        /* \"contracts/Wedding.sol\":5406:5416  msg.sender */\n      caller\n        /* \"contracts/Wedding.sol\":5406:5438  msg.sender == engagement.spouse1 */\n      0xffffffffffffffffffffffffffffffffffffffff\n      and\n      sub\n        /* \"contracts/Wedding.sol\":5402:5604  if (msg.sender == engagement.spouse1) {... */\n      tag_157\n      jumpi\n        /* \"contracts/Wedding.sol\":5504:5508  true */\n      0x01\n        /* \"contracts/Wedding.sol\":5454:5464  guestLists */\n      dup1\n        /* \"contracts/Wedding.sol\":5454:5484  guestLists[engagement.spouse1] */\n      0x00\n        /* \"contracts/Wedding.sol\":5465:5475  engagement */\n      dup4\n        /* \"contracts/Wedding.sol\":5465:5483  engagement.spouse1 */\n      0x00\n      add\n      mload\n        /* \"contracts/Wedding.sol\":5454:5484  guestLists[engagement.spouse1] */\n      0xffffffffffffffffffffffffffffffffffffffff\n      and\n      0xffffffffffffffffffffffffffffffffffffffff\n      and\n      dup2\n      mstore\n      0x20\n      add\n      swap1\n      dup2\n      mstore\n      0x20\n      add\n      0x00\n      keccak256\n        /* \"contracts/Wedding.sol\":5454:5501  guestLists[engagement.spouse1].spouse1Confirmed */\n      0x01\n      add\n      0x00\n        /* \"contracts/Wedding.sol\":5454:5508  guestLists[engagement.spouse1].spouse1Confirmed = true */\n      0x0100\n      exp\n      dup2\n      sload\n      dup2\n      0xff\n      mul\n      not\n      and\n      swap1\n      dup4\n      iszero\n      iszero\n      mul\n      or\n      swap1\n      sstore\n      pop\n        /* \"contracts/Wedding.sol\":5402:5604  if (msg.sender == engagement.spouse1) {... */\n      jump(tag_158)\n    tag_157:\n        /* \"contracts/Wedding.sol\":5589:5593  true */\n      0x01\n        /* \"contracts/Wedding.sol\":5539:5549  guestLists */\n      dup1\n        /* \"contracts/Wedding.sol\":5539:5569  guestLists[engagement.spouse1] */\n      0x00\n        /* \"contracts/Wedding.sol\":5550:5560  engagement */\n      dup4\n        /* \"contracts/Wedding.sol\":5550:5568  engagement.spouse1 */\n      0x00\n      add\n      mload\n        /* \"contracts/Wedding.sol\":5539:5569  guestLists[engagement.spouse1] */\n      0xffffffffffffffffffffffffffffffffffffffff\n      and\n      0xffffffffffffffffffffffffffffffffffffffff\n      and\n      dup2\n      mstore\n      0x20\n      add\n      swap1\n      dup2\n      mstore\n      0x20\n      add\n      0x00\n      keccak256\n        /* \"contracts/Wedding.sol\":5539:5586  guestLists[engagement.spouse1].spouse2Confirmed */\n      0x01\n      add\n      0x01\n        /* \"contracts/Wedding.sol\":5539:5593  guestLists[engagement.spouse1].spouse2Confirmed = true */\n      0x0100\n      exp\n      dup2\n      sload\n      dup2\n      0xff\n      mul\n      not\n      and\n      swap1\n      dup4\n      iszero\n      iszero\n      mul\n      or\n      swap1\n      sstore\n      pop\n        /* \"contracts/Wedding.sol\":5402:5604  if (msg.sender == engagement.spouse1) {... */\n    tag_158:\n        /* \"contracts/Wedding.sol\":5689:5699  guestLists */\n      0x01\n        /* \"contracts/Wedding.sol\":5689:5719  guestLists[engagement.spouse1] */\n      0x00\n        /* \"contracts/Wedding.sol\":5700:5710  engagement */\n      dup3\n        /* \"contracts/Wedding.sol\":5700:5718  engagement.spouse1 */\n      0x00\n      add\n      mload\n        /* \"contracts/Wedding.sol\":5689:5719  guestLists[engagement.spouse1] */\n      0xffffffffffffffffffffffffffffffffffffffff\n      and\n      0xffffffffffffffffffffffffffffffffffffffff\n      and\n      dup2\n      mstore\n      0x20\n      add\n      swap1\n      dup2\n      mstore\n      0x20\n      add\n      0x00\n      keccak256\n        /* \"contracts/Wedding.sol\":5689:5736  guestLists[engagement.spouse1].spouse1Confirmed */\n      0x01\n      add\n      0x00\n      swap1\n      sload\n      swap1\n      0x0100\n      exp\n      swap1\n      div\n      0xff\n      and\n        /* \"contracts/Wedding.sol\":5689:5787  guestLists[engagement.spouse1].spouse1Confirmed && guestLists[engagement.spouse1].spouse2Confirmed */\n      dup1\n      iszero\n      tag_159\n      jumpi\n      pop\n        /* \"contracts/Wedding.sol\":5740:5750  guestLists */\n      0x01\n        /* \"contracts/Wedding.sol\":5740:5770  guestLists[engagement.spouse1] */\n      0x00\n        /* \"contracts/Wedding.sol\":5751:5761  engagement */\n      dup3\n        /* \"contracts/Wedding.sol\":5751:5769  engagement.spouse1 */\n      0x00\n      add\n      mload\n        /* \"contracts/Wedding.sol\":5740:5770  guestLists[engagement.spouse1] */\n      0xffffffffffffffffffffffffffffffffffffffff\n      and\n      0xffffffffffffffffffffffffffffffffffffffff\n      and\n      dup2\n      mstore\n      0x20\n      add\n      swap1\n      dup2\n      mstore\n      0x20\n      add\n      0x00\n      keccak256\n        /* \"contracts/Wedding.sol\":5740:5787  guestLists[engagement.spouse1].spouse2Confirmed */\n      0x01\n      add\n      0x01\n      swap1\n      sload\n      swap1\n      0x0100\n      exp\n      swap1\n      div\n      0xff\n      and\n        /* \"contracts/Wedding.sol\":5689:5787  guestLists[engagement.spouse1].spouse1Confirmed && guestLists[engagement.spouse1].spouse2Confirmed */\n    tag_159:\n        /* \"contracts/Wedding.sol\":5685:5857  if (guestLists[engagement.spouse1].spouse1Confirmed && guestLists[engagement.spouse1].spouse2Confirmed) {... */\n      iszero\n      tag_160\n      jumpi\n        /* \"contracts/Wedding.sol\":5808:5846  GuestListConfirmed(engagement.spouse1) */\n      0xffacc21903a9db21c6031d4c12c9825f13ac6469f9b894f7058a45cf1f9a3e8d\n        /* \"contracts/Wedding.sol\":5827:5837  engagement */\n      dup2\n        /* \"contracts/Wedding.sol\":5827:5845  engagement.spouse1 */\n      0x00\n      add\n      mload\n        /* \"contracts/Wedding.sol\":5808:5846  GuestListConfirmed(engagement.spouse1) */\n      mload(0x40)\n      tag_161\n      swap2\n      swap1\n      tag_63\n      jump\t// in\n    tag_161:\n      mload(0x40)\n      dup1\n      swap2\n      sub\n      swap1\n      log1\n        /* \"contracts/Wedding.sol\":5685:5857  if (guestLists[engagement.spouse1].spouse1Confirmed && guestLists[engagement.spouse1].spouse2Confirmed) {... */\n    tag_160:\n        /* \"contracts/Wedding.sol\":5327:5863  {... */\n      pop\n        /* \"contracts/Wedding.sol\":1580:1825  {... */\n      pop\n        /* \"contracts/Wedding.sol\":1525:1526  _ */\n      pop\n        /* \"contracts/Wedding.sol\":5242:5863  function confirmGuestList() external isEngaged(msg.sender) isEngagedParty(msg.sender){... */\n      pop\n      jump\t// out\n        /* \"contracts/Wedding.sol\":7062:7378  function isGuestConfirmed(address _spouse, address _guest) internal view returns (bool) {... */\n    tag_136:\n        /* \"contracts/Wedding.sol\":7144:7148  bool */\n      0x00\n        /* \"contracts/Wedding.sol\":7165:7171  uint i */\n      dup1\n        /* \"contracts/Wedding.sol\":7174:7175  0 */\n      0x00\n        /* \"contracts/Wedding.sol\":7165:7175  uint i = 0 */\n      swap1\n      pop\n        /* \"contracts/Wedding.sol\":7160:7350  for (uint i = 0; i < guestLists[_spouse].proposedGuests.length; i++) {... */\n    tag_163:\n        /* \"contracts/Wedding.sol\":7181:7191  guestLists */\n      0x01\n        /* \"contracts/Wedding.sol\":7181:7200  guestLists[_spouse] */\n      0x00\n        /* \"contracts/Wedding.sol\":7192:7199  _spouse */\n      dup6\n        /* \"contracts/Wedding.sol\":7181:7200  guestLists[_spouse] */\n      0xffffffffffffffffffffffffffffffffffffffff\n      and\n      0xffffffffffffffffffffffffffffffffffffffff\n      and\n      dup2\n      mstore\n      0x20\n      add\n      swap1\n      dup2\n      mstore\n      0x20\n      add\n      0x00\n      keccak256\n        /* \"contracts/Wedding.sol\":7181:7215  guestLists[_spouse].proposedGuests */\n      0x00\n      add\n        /* \"contracts/Wedding.sol\":7181:7222  guestLists[_spouse].proposedGuests.length */\n      dup1\n      sload\n      swap1\n      pop\n        /* \"contracts/Wedding.sol\":7177:7178  i */\n      dup2\n        /* \"contracts/Wedding.sol\":7177:7222  i < guestLists[_spouse].proposedGuests.length */\n      lt\n        /* \"contracts/Wedding.sol\":7160:7350  for (uint i = 0; i < guestLists[_spouse].proposedGuests.length; i++) {... */\n      iszero\n      tag_164\n      jumpi\n        /* \"contracts/Wedding.sol\":7288:7294  _guest */\n      dup3\n        /* \"contracts/Wedding.sol\":7247:7294  guestLists[_spouse].proposedGuests[i] == _guest */\n      0xffffffffffffffffffffffffffffffffffffffff\n      and\n        /* \"contracts/Wedding.sol\":7247:7257  guestLists */\n      0x01\n        /* \"contracts/Wedding.sol\":7247:7266  guestLists[_spouse] */\n      0x00\n        /* \"contracts/Wedding.sol\":7258:7265  _spouse */\n      dup7\n        /* \"contracts/Wedding.sol\":7247:7266  guestLists[_spouse] */\n      0xffffffffffffffffffffffffffffffffffffffff\n      and\n      0xffffffffffffffffffffffffffffffffffffffff\n      and\n      dup2\n      mstore\n      0x20\n      add\n      swap1\n      dup2\n      mstore\n      0x20\n      add\n      0x00\n      keccak256\n        /* \"contracts/Wedding.sol\":7247:7281  guestLists[_spouse].proposedGuests */\n      0x00\n      add\n        /* \"contracts/Wedding.sol\":7282:7283  i */\n      dup3\n        /* \"contracts/Wedding.sol\":7247:7284  guestLists[_spouse].proposedGuests[i] */\n      dup2\n      sload\n      dup2\n      lt\n      tag_166\n      jumpi\n      tag_167\n      tag_168\n      jump\t// in\n    tag_167:\n    tag_166:\n      swap1\n      0x00\n      mstore\n      keccak256(0x00, 0x20)\n      add\n      0x00\n      swap1\n      sload\n      swap1\n      0x0100\n      exp\n      swap1\n      div\n      0xffffffffffffffffffffffffffffffffffffffff\n      and\n        /* \"contracts/Wedding.sol\":7247:7294  guestLists[_spouse].proposedGuests[i] == _guest */\n      0xffffffffffffffffffffffffffffffffffffffff\n      and\n      sub\n        /* \"contracts/Wedding.sol\":7243:7340  if (guestLists[_spouse].proposedGuests[i] == _guest) {... */\n      tag_170\n      jumpi\n        /* \"contracts/Wedding.sol\":7321:7325  true */\n      0x01\n        /* \"contracts/Wedding.sol\":7314:7325  return true */\n      swap2\n      pop\n      pop\n      jump(tag_162)\n        /* \"contracts/Wedding.sol\":7243:7340  if (guestLists[_spouse].proposedGuests[i] == _guest) {... */\n    tag_170:\n        /* \"contracts/Wedding.sol\":7224:7227  i++ */\n      dup1\n      dup1\n      tag_171\n      swap1\n      tag_146\n      jump\t// in\n    tag_171:\n      swap2\n      pop\n      pop\n        /* \"contracts/Wedding.sol\":7160:7350  for (uint i = 0; i < guestLists[_spouse].proposedGuests.length; i++) {... */\n      jump(tag_163)\n    tag_164:\n      pop\n        /* \"contracts/Wedding.sol\":7366:7371  false */\n      0x00\n        /* \"contracts/Wedding.sol\":7359:7371  return false */\n      swap1\n      pop\n        /* \"contracts/Wedding.sol\":7062:7378  function isGuestConfirmed(address _spouse, address _guest) internal view returns (bool) {... */\n    tag_162:\n      swap3\n      swap2\n      pop\n      pop\n      jump\t// out\n    tag_101:\n      dup3\n      dup1\n      sload\n      dup3\n      dup3\n      sstore\n      swap1\n      0x00\n      mstore\n      keccak256(0x00, 0x20)\n      swap1\n      dup2\n      add\n      swap3\n      dup3\n      iszero\n      tag_172\n      jumpi\n      swap2\n      0x20\n      mul\n      dup3\n      add\n    tag_173:\n      dup3\n      dup2\n      gt\n      iszero\n      tag_174\n      jumpi\n      dup3\n      calldataload\n      0xffffffffffffffffffffffffffffffffffffffff\n      and\n      dup3\n      exp(0x0100, 0x00)\n      dup2\n      sload\n      dup2\n      0xffffffffffffffffffffffffffffffffffffffff\n      mul\n      not\n      and\n      swap1\n      dup4\n      0xffffffffffffffffffffffffffffffffffffffff\n      and\n      mul\n      or\n      swap1\n      sstore\n      pop\n      swap2\n      0x20\n      add\n      swap2\n      swap1\n      0x01\n      add\n      swap1\n      jump(tag_173)\n    tag_174:\n    tag_172:\n      pop\n      swap1\n      pop\n      tag_175\n      swap2\n      swap1\n      tag_176\n      jump\t// in\n    tag_175:\n      pop\n      swap1\n      jump\t// out\n    tag_176:\n    tag_177:\n      dup1\n      dup3\n      gt\n      iszero\n      tag_178\n      jumpi\n      0x00\n      dup2\n      0x00\n      swap1\n      sstore\n      pop\n      0x01\n      add\n      jump(tag_177)\n    tag_178:\n      pop\n      swap1\n      jump\t// out\n        /* \"#utility.yul\":88:205   */\n    tag_180:\n        /* \"#utility.yul\":197:198   */\n      0x00\n        /* \"#utility.yul\":194:195   */\n      dup1\n        /* \"#utility.yul\":187:199   */\n      revert\n        /* \"#utility.yul\":211:328   */\n    tag_181:\n        /* \"#utility.yul\":320:321   */\n      0x00\n        /* \"#utility.yul\":317:318   */\n      dup1\n        /* \"#utility.yul\":310:322   */\n      revert\n        /* \"#utility.yul\":334:460   */\n    tag_182:\n        /* \"#utility.yul\":371:378   */\n      0x00\n        /* \"#utility.yul\":411:453   */\n      0xffffffffffffffffffffffffffffffffffffffff\n        /* \"#utility.yul\":404:409   */\n      dup3\n        /* \"#utility.yul\":400:454   */\n      and\n        /* \"#utility.yul\":389:454   */\n      swap1\n      pop\n        /* \"#utility.yul\":334:460   */\n      swap2\n      swap1\n      pop\n      jump\t// out\n        /* \"#utility.yul\":466:562   */\n    tag_183:\n        /* \"#utility.yul\":503:510   */\n      0x00\n        /* \"#utility.yul\":532:556   */\n      tag_233\n        /* \"#utility.yul\":550:555   */\n      dup3\n        /* \"#utility.yul\":532:556   */\n      tag_182\n      jump\t// in\n    tag_233:\n        /* \"#utility.yul\":521:556   */\n      swap1\n      pop\n        /* \"#utility.yul\":466:562   */\n      swap2\n      swap1\n      pop\n      jump\t// out\n        /* \"#utility.yul\":568:690   */\n    tag_184:\n        /* \"#utility.yul\":641:665   */\n      tag_235\n        /* \"#utility.yul\":659:664   */\n      dup2\n        /* \"#utility.yul\":641:665   */\n      tag_183\n      jump\t// in\n    tag_235:\n        /* \"#utility.yul\":634:639   */\n      dup2\n        /* \"#utility.yul\":631:666   */\n      eq\n        /* \"#utility.yul\":621:684   */\n      tag_236\n      jumpi\n        /* \"#utility.yul\":680:681   */\n      0x00\n        /* \"#utility.yul\":677:678   */\n      dup1\n        /* \"#utility.yul\":670:682   */\n      revert\n        /* \"#utility.yul\":621:684   */\n    tag_236:\n        /* \"#utility.yul\":568:690   */\n      pop\n      jump\t// out\n        /* \"#utility.yul\":696:835   */\n    tag_185:\n        /* \"#utility.yul\":742:747   */\n      0x00\n        /* \"#utility.yul\":780:786   */\n      dup2\n        /* \"#utility.yul\":767:787   */\n      calldataload\n        /* \"#utility.yul\":758:787   */\n      swap1\n      pop\n        /* \"#utility.yul\":796:829   */\n      tag_238\n        /* \"#utility.yul\":823:828   */\n      dup2\n        /* \"#utility.yul\":796:829   */\n      tag_184\n      jump\t// in\n    tag_238:\n        /* \"#utility.yul\":696:835   */\n      swap3\n      swap2\n      pop\n      pop\n      jump\t// out\n        /* \"#utility.yul\":841:1170   */\n    tag_16:\n        /* \"#utility.yul\":900:906   */\n      0x00\n        /* \"#utility.yul\":949:951   */\n      0x20\n        /* \"#utility.yul\":937:946   */\n      dup3\n        /* \"#utility.yul\":928:935   */\n      dup5\n        /* \"#utility.yul\":924:947   */\n      sub\n        /* \"#utility.yul\":920:952   */\n      slt\n        /* \"#utility.yul\":917:1036   */\n      iszero\n      tag_240\n      jumpi\n        /* \"#utility.yul\":955:1034   */\n      tag_241\n      tag_180\n      jump\t// in\n    tag_241:\n        /* \"#utility.yul\":917:1036   */\n    tag_240:\n        /* \"#utility.yul\":1075:1076   */\n      0x00\n        /* \"#utility.yul\":1100:1153   */\n      tag_242\n        /* \"#utility.yul\":1145:1152   */\n      dup5\n        /* \"#utility.yul\":1136:1142   */\n      dup3\n        /* \"#utility.yul\":1125:1134   */\n      dup6\n        /* \"#utility.yul\":1121:1143   */\n      add\n        /* \"#utility.yul\":1100:1153   */\n      tag_185\n      jump\t// in\n    tag_242:\n        /* \"#utility.yul\":1090:1153   */\n      swap2\n      pop\n        /* \"#utility.yul\":1046:1163   */\n      pop\n        /* \"#utility.yul\":841:1170   */\n      swap3\n      swap2\n      pop\n      pop\n      jump\t// out\n        /* \"#utility.yul\":1176:1266   */\n    tag_186:\n        /* \"#utility.yul\":1210:1217   */\n      0x00\n        /* \"#utility.yul\":1253:1258   */\n      dup2\n        /* \"#utility.yul\":1246:1259   */\n      iszero\n        /* \"#utility.yul\":1239:1260   */\n      iszero\n        /* \"#utility.yul\":1228:1260   */\n      swap1\n      pop\n        /* \"#utility.yul\":1176:1266   */\n      swap2\n      swap1\n      pop\n      jump\t// out\n        /* \"#utility.yul\":1272:1381   */\n    tag_187:\n        /* \"#utility.yul\":1353:1374   */\n      tag_245\n        /* \"#utility.yul\":1368:1373   */\n      dup2\n        /* \"#utility.yul\":1353:1374   */\n      tag_186\n      jump\t// in\n    tag_245:\n        /* \"#utility.yul\":1348:1351   */\n      dup3\n        /* \"#utility.yul\":1341:1375   */\n      mstore\n        /* \"#utility.yul\":1272:1381   */\n      pop\n      pop\n      jump\t// out\n        /* \"#utility.yul\":1387:1464   */\n    tag_188:\n        /* \"#utility.yul\":1424:1431   */\n      0x00\n        /* \"#utility.yul\":1453:1458   */\n      dup2\n        /* \"#utility.yul\":1442:1458   */\n      swap1\n      pop\n        /* \"#utility.yul\":1387:1464   */\n      swap2\n      swap1\n      pop\n      jump\t// out\n        /* \"#utility.yul\":1470:1588   */\n    tag_189:\n        /* \"#utility.yul\":1557:1581   */\n      tag_248\n        /* \"#utility.yul\":1575:1580   */\n      dup2\n        /* \"#utility.yul\":1557:1581   */\n      tag_188\n      jump\t// in\n    tag_248:\n        /* \"#utility.yul\":1552:1555   */\n      dup3\n        /* \"#utility.yul\":1545:1582   */\n      mstore\n        /* \"#utility.yul\":1470:1588   */\n      pop\n      pop\n      jump\t// out\n        /* \"#utility.yul\":1594:2012   */\n    tag_22:\n        /* \"#utility.yul\":1731:1735   */\n      0x00\n        /* \"#utility.yul\":1769:1771   */\n      0x60\n        /* \"#utility.yul\":1758:1767   */\n      dup3\n        /* \"#utility.yul\":1754:1772   */\n      add\n        /* \"#utility.yul\":1746:1772   */\n      swap1\n      pop\n        /* \"#utility.yul\":1782:1847   */\n      tag_250\n        /* \"#utility.yul\":1844:1845   */\n      0x00\n        /* \"#utility.yul\":1833:1842   */\n      dup4\n        /* \"#utility.yul\":1829:1846   */\n      add\n        /* \"#utility.yul\":1820:1826   */\n      dup7\n        /* \"#utility.yul\":1782:1847   */\n      tag_187\n      jump\t// in\n    tag_250:\n        /* \"#utility.yul\":1857:1923   */\n      tag_251\n        /* \"#utility.yul\":1919:1921   */\n      0x20\n        /* \"#utility.yul\":1908:1917   */\n      dup4\n        /* \"#utility.yul\":1904:1922   */\n      add\n        /* \"#utility.yul\":1895:1901   */\n      dup6\n        /* \"#utility.yul\":1857:1923   */\n      tag_187\n      jump\t// in\n    tag_251:\n        /* \"#utility.yul\":1933:2005   */\n      tag_252\n        /* \"#utility.yul\":2001:2003   */\n      0x40\n        /* \"#utility.yul\":1990:1999   */\n      dup4\n        /* \"#utility.yul\":1986:2004   */\n      add\n        /* \"#utility.yul\":1977:1983   */\n      dup5\n        /* \"#utility.yul\":1933:2005   */\n      tag_189\n      jump\t// in\n    tag_252:\n        /* \"#utility.yul\":1594:2012   */\n      swap5\n      swap4\n      pop\n      pop\n      pop\n      pop\n      jump\t// out\n        /* \"#utility.yul\":2018:2135   */\n    tag_190:\n        /* \"#utility.yul\":2127:2128   */\n      0x00\n        /* \"#utility.yul\":2124:2125   */\n      dup1\n        /* \"#utility.yul\":2117:2129   */\n      revert\n        /* \"#utility.yul\":2141:2258   */\n    tag_191:\n        /* \"#utility.yul\":2250:2251   */\n      0x00\n        /* \"#utility.yul\":2247:2248   */\n      dup1\n        /* \"#utility.yul\":2240:2252   */\n      revert\n        /* \"#utility.yul\":2264:2381   */\n    tag_192:\n        /* \"#utility.yul\":2373:2374   */\n      0x00\n        /* \"#utility.yul\":2370:2371   */\n      dup1\n        /* \"#utility.yul\":2363:2375   */\n      revert\n        /* \"#utility.yul\":2404:2972   */\n    tag_193:\n        /* \"#utility.yul\":2477:2485   */\n      0x00\n        /* \"#utility.yul\":2487:2493   */\n      dup1\n        /* \"#utility.yul\":2537:2540   */\n      dup4\n        /* \"#utility.yul\":2530:2534   */\n      0x1f\n        /* \"#utility.yul\":2522:2528   */\n      dup5\n        /* \"#utility.yul\":2518:2535   */\n      add\n        /* \"#utility.yul\":2514:2541   */\n      slt\n        /* \"#utility.yul\":2504:2626   */\n      tag_257\n      jumpi\n        /* \"#utility.yul\":2545:2624   */\n      tag_258\n      tag_190\n      jump\t// in\n    tag_258:\n        /* \"#utility.yul\":2504:2626   */\n    tag_257:\n        /* \"#utility.yul\":2658:2664   */\n      dup3\n        /* \"#utility.yul\":2645:2665   */\n      calldataload\n        /* \"#utility.yul\":2635:2665   */\n      swap1\n      pop\n        /* \"#utility.yul\":2688:2706   */\n      0xffffffffffffffff\n        /* \"#utility.yul\":2680:2686   */\n      dup2\n        /* \"#utility.yul\":2677:2707   */\n      gt\n        /* \"#utility.yul\":2674:2791   */\n      iszero\n      tag_259\n      jumpi\n        /* \"#utility.yul\":2710:2789   */\n      tag_260\n      tag_191\n      jump\t// in\n    tag_260:\n        /* \"#utility.yul\":2674:2791   */\n    tag_259:\n        /* \"#utility.yul\":2824:2828   */\n      0x20\n        /* \"#utility.yul\":2816:2822   */\n      dup4\n        /* \"#utility.yul\":2812:2829   */\n      add\n        /* \"#utility.yul\":2800:2829   */\n      swap2\n      pop\n        /* \"#utility.yul\":2878:2881   */\n      dup4\n        /* \"#utility.yul\":2870:2874   */\n      0x20\n        /* \"#utility.yul\":2862:2868   */\n      dup3\n        /* \"#utility.yul\":2858:2875   */\n      mul\n        /* \"#utility.yul\":2848:2856   */\n      dup4\n        /* \"#utility.yul\":2844:2876   */\n      add\n        /* \"#utility.yul\":2841:2882   */\n      gt\n        /* \"#utility.yul\":2838:2966   */\n      iszero\n      tag_261\n      jumpi\n        /* \"#utility.yul\":2885:2964   */\n      tag_262\n      tag_192\n      jump\t// in\n    tag_262:\n        /* \"#utility.yul\":2838:2966   */\n    tag_261:\n        /* \"#utility.yul\":2404:2972   */\n      swap3\n      pop\n      swap3\n      swap1\n      pop\n      jump\t// out\n        /* \"#utility.yul\":2978:3537   */\n    tag_29:\n        /* \"#utility.yul\":3064:3070   */\n      0x00\n        /* \"#utility.yul\":3072:3078   */\n      dup1\n        /* \"#utility.yul\":3121:3123   */\n      0x20\n        /* \"#utility.yul\":3109:3118   */\n      dup4\n        /* \"#utility.yul\":3100:3107   */\n      dup6\n        /* \"#utility.yul\":3096:3119   */\n      sub\n        /* \"#utility.yul\":3092:3124   */\n      slt\n        /* \"#utility.yul\":3089:3208   */\n      iszero\n      tag_264\n      jumpi\n        /* \"#utility.yul\":3127:3206   */\n      tag_265\n      tag_180\n      jump\t// in\n    tag_265:\n        /* \"#utility.yul\":3089:3208   */\n    tag_264:\n        /* \"#utility.yul\":3275:3276   */\n      0x00\n        /* \"#utility.yul\":3264:3273   */\n      dup4\n        /* \"#utility.yul\":3260:3277   */\n      add\n        /* \"#utility.yul\":3247:3278   */\n      calldataload\n        /* \"#utility.yul\":3305:3323   */\n      0xffffffffffffffff\n        /* \"#utility.yul\":3297:3303   */\n      dup2\n        /* \"#utility.yul\":3294:3324   */\n      gt\n        /* \"#utility.yul\":3291:3408   */\n      iszero\n      tag_266\n      jumpi\n        /* \"#utility.yul\":3327:3406   */\n      tag_267\n      tag_181\n      jump\t// in\n    tag_267:\n        /* \"#utility.yul\":3291:3408   */\n    tag_266:\n        /* \"#utility.yul\":3440:3520   */\n      tag_268\n        /* \"#utility.yul\":3512:3519   */\n      dup6\n        /* \"#utility.yul\":3503:3509   */\n      dup3\n        /* \"#utility.yul\":3492:3501   */\n      dup7\n        /* \"#utility.yul\":3488:3510   */\n      add\n        /* \"#utility.yul\":3440:3520   */\n      tag_193\n      jump\t// in\n    tag_268:\n        /* \"#utility.yul\":3422:3520   */\n      swap3\n      pop\n      swap3\n      pop\n        /* \"#utility.yul\":3218:3530   */\n      pop\n        /* \"#utility.yul\":2978:3537   */\n      swap3\n      pop\n      swap3\n      swap1\n      pop\n      jump\t// out\n        /* \"#utility.yul\":3543:3665   */\n    tag_194:\n        /* \"#utility.yul\":3616:3640   */\n      tag_270\n        /* \"#utility.yul\":3634:3639   */\n      dup2\n        /* \"#utility.yul\":3616:3640   */\n      tag_188\n      jump\t// in\n    tag_270:\n        /* \"#utility.yul\":3609:3614   */\n      dup2\n        /* \"#utility.yul\":3606:3641   */\n      eq\n        /* \"#utility.yul\":3596:3659   */\n      tag_271\n      jumpi\n        /* \"#utility.yul\":3655:3656   */\n      0x00\n        /* \"#utility.yul\":3652:3653   */\n      dup1\n        /* \"#utility.yul\":3645:3657   */\n      revert\n        /* \"#utility.yul\":3596:3659   */\n    tag_271:\n        /* \"#utility.yul\":3543:3665   */\n      pop\n      jump\t// out\n        /* \"#utility.yul\":3671:3810   */\n    tag_195:\n        /* \"#utility.yul\":3717:3722   */\n      0x00\n        /* \"#utility.yul\":3755:3761   */\n      dup2\n        /* \"#utility.yul\":3742:3762   */\n      calldataload\n        /* \"#utility.yul\":3733:3762   */\n      swap1\n      pop\n        /* \"#utility.yul\":3771:3804   */\n      tag_273\n        /* \"#utility.yul\":3798:3803   */\n      dup2\n        /* \"#utility.yul\":3771:3804   */\n      tag_194\n      jump\t// in\n    tag_273:\n        /* \"#utility.yul\":3671:3810   */\n      swap3\n      swap2\n      pop\n      pop\n      jump\t// out\n        /* \"#utility.yul\":3816:4290   */\n    tag_33:\n        /* \"#utility.yul\":3884:3890   */\n      0x00\n        /* \"#utility.yul\":3892:3898   */\n      dup1\n        /* \"#utility.yul\":3941:3943   */\n      0x40\n        /* \"#utility.yul\":3929:3938   */\n      dup4\n        /* \"#utility.yul\":3920:3927   */\n      dup6\n        /* \"#utility.yul\":3916:3939   */\n      sub\n        /* \"#utility.yul\":3912:3944   */\n      slt\n        /* \"#utility.yul\":3909:4028   */\n      iszero\n      tag_275\n      jumpi\n        /* \"#utility.yul\":3947:4026   */\n      tag_276\n      tag_180\n      jump\t// in\n    tag_276:\n        /* \"#utility.yul\":3909:4028   */\n    tag_275:\n        /* \"#utility.yul\":4067:4068   */\n      0x00\n        /* \"#utility.yul\":4092:4145   */\n      tag_277\n        /* \"#utility.yul\":4137:4144   */\n      dup6\n        /* \"#utility.yul\":4128:4134   */\n      dup3\n        /* \"#utility.yul\":4117:4126   */\n      dup7\n        /* \"#utility.yul\":4113:4135   */\n      add\n        /* \"#utility.yul\":4092:4145   */\n      tag_185\n      jump\t// in\n    tag_277:\n        /* \"#utility.yul\":4082:4145   */\n      swap3\n      pop\n        /* \"#utility.yul\":4038:4155   */\n      pop\n        /* \"#utility.yul\":4194:4196   */\n      0x20\n        /* \"#utility.yul\":4220:4273   */\n      tag_278\n        /* \"#utility.yul\":4265:4272   */\n      dup6\n        /* \"#utility.yul\":4256:4262   */\n      dup3\n        /* \"#utility.yul\":4245:4254   */\n      dup7\n        /* \"#utility.yul\":4241:4263   */\n      add\n        /* \"#utility.yul\":4220:4273   */\n      tag_195\n      jump\t// in\n    tag_278:\n        /* \"#utility.yul\":4210:4273   */\n      swap2\n      pop\n        /* \"#utility.yul\":4165:4283   */\n      pop\n        /* \"#utility.yul\":3816:4290   */\n      swap3\n      pop\n      swap3\n      swap1\n      pop\n      jump\t// out\n        /* \"#utility.yul\":4296:4414   */\n    tag_196:\n        /* \"#utility.yul\":4383:4407   */\n      tag_280\n        /* \"#utility.yul\":4401:4406   */\n      dup2\n        /* \"#utility.yul\":4383:4407   */\n      tag_183\n      jump\t// in\n    tag_280:\n        /* \"#utility.yul\":4378:4381   */\n      dup3\n        /* \"#utility.yul\":4371:4408   */\n      mstore\n        /* \"#utility.yul\":4296:4414   */\n      pop\n      pop\n      jump\t// out\n        /* \"#utility.yul\":4420:5357   */\n    tag_42:\n        /* \"#utility.yul\":4679:4683   */\n      0x00\n        /* \"#utility.yul\":4717:4720   */\n      0x0100\n        /* \"#utility.yul\":4706:4715   */\n      dup3\n        /* \"#utility.yul\":4702:4721   */\n      add\n        /* \"#utility.yul\":4694:4721   */\n      swap1\n      pop\n        /* \"#utility.yul\":4731:4802   */\n      tag_282\n        /* \"#utility.yul\":4799:4800   */\n      0x00\n        /* \"#utility.yul\":4788:4797   */\n      dup4\n        /* \"#utility.yul\":4784:4801   */\n      add\n        /* \"#utility.yul\":4775:4781   */\n      dup12\n        /* \"#utility.yul\":4731:4802   */\n      tag_196\n      jump\t// in\n    tag_282:\n        /* \"#utility.yul\":4812:4884   */\n      tag_283\n        /* \"#utility.yul\":4880:4882   */\n      0x20\n        /* \"#utility.yul\":4869:4878   */\n      dup4\n        /* \"#utility.yul\":4865:4883   */\n      add\n        /* \"#utility.yul\":4856:4862   */\n      dup11\n        /* \"#utility.yul\":4812:4884   */\n      tag_196\n      jump\t// in\n    tag_283:\n        /* \"#utility.yul\":4894:4966   */\n      tag_284\n        /* \"#utility.yul\":4962:4964   */\n      0x40\n        /* \"#utility.yul\":4951:4960   */\n      dup4\n        /* \"#utility.yul\":4947:4965   */\n      add\n        /* \"#utility.yul\":4938:4944   */\n      dup10\n        /* \"#utility.yul\":4894:4966   */\n      tag_189\n      jump\t// in\n    tag_284:\n        /* \"#utility.yul\":4976:5042   */\n      tag_285\n        /* \"#utility.yul\":5038:5040   */\n      0x60\n        /* \"#utility.yul\":5027:5036   */\n      dup4\n        /* \"#utility.yul\":5023:5041   */\n      add\n        /* \"#utility.yul\":5014:5020   */\n      dup9\n        /* \"#utility.yul\":4976:5042   */\n      tag_187\n      jump\t// in\n    tag_285:\n        /* \"#utility.yul\":5052:5119   */\n      tag_286\n        /* \"#utility.yul\":5114:5117   */\n      0x80\n        /* \"#utility.yul\":5103:5112   */\n      dup4\n        /* \"#utility.yul\":5099:5118   */\n      add\n        /* \"#utility.yul\":5090:5096   */\n      dup8\n        /* \"#utility.yul\":5052:5119   */\n      tag_187\n      jump\t// in\n    tag_286:\n        /* \"#utility.yul\":5129:5196   */\n      tag_287\n        /* \"#utility.yul\":5191:5194   */\n      0xa0\n        /* \"#utility.yul\":5180:5189   */\n      dup4\n        /* \"#utility.yul\":5176:5195   */\n      add\n        /* \"#utility.yul\":5167:5173   */\n      dup7\n        /* \"#utility.yul\":5129:5196   */\n      tag_187\n      jump\t// in\n    tag_287:\n        /* \"#utility.yul\":5206:5273   */\n      tag_288\n        /* \"#utility.yul\":5268:5271   */\n      0xc0\n        /* \"#utility.yul\":5257:5266   */\n      dup4\n        /* \"#utility.yul\":5253:5272   */\n      add\n        /* \"#utility.yul\":5244:5250   */\n      dup6\n        /* \"#utility.yul\":5206:5273   */\n      tag_187\n      jump\t// in\n    tag_288:\n        /* \"#utility.yul\":5283:5350   */\n      tag_289\n        /* \"#utility.yul\":5345:5348   */\n      0xe0\n        /* \"#utility.yul\":5334:5343   */\n      dup4\n        /* \"#utility.yul\":5330:5349   */\n      add\n        /* \"#utility.yul\":5321:5327   */\n      dup5\n        /* \"#utility.yul\":5283:5350   */\n      tag_187\n      jump\t// in\n    tag_289:\n        /* \"#utility.yul\":4420:5357   */\n      swap10\n      swap9\n      pop\n      pop\n      pop\n      pop\n      pop\n      pop\n      pop\n      pop\n      pop\n      jump\t// out\n        /* \"#utility.yul\":5363:6003   */\n    tag_47:\n        /* \"#utility.yul\":5556:5560   */\n      0x00\n        /* \"#utility.yul\":5594:5597   */\n      0xa0\n        /* \"#utility.yul\":5583:5592   */\n      dup3\n        /* \"#utility.yul\":5579:5598   */\n      add\n        /* \"#utility.yul\":5571:5598   */\n      swap1\n      pop\n        /* \"#utility.yul\":5608:5679   */\n      tag_291\n        /* \"#utility.yul\":5676:5677   */\n      0x00\n        /* \"#utility.yul\":5665:5674   */\n      dup4\n        /* \"#utility.yul\":5661:5678   */\n      add\n        /* \"#utility.yul\":5652:5658   */\n      dup9\n        /* \"#utility.yul\":5608:5679   */\n      tag_196\n      jump\t// in\n    tag_291:\n        /* \"#utility.yul\":5689:5761   */\n      tag_292\n        /* \"#utility.yul\":5757:5759   */\n      0x20\n        /* \"#utility.yul\":5746:5755   */\n      dup4\n        /* \"#utility.yul\":5742:5760   */\n      add\n        /* \"#utility.yul\":5733:5739   */\n      dup8\n        /* \"#utility.yul\":5689:5761   */\n      tag_196\n      jump\t// in\n    tag_292:\n        /* \"#utility.yul\":5771:5843   */\n      tag_293\n        /* \"#utility.yul\":5839:5841   */\n      0x40\n        /* \"#utility.yul\":5828:5837   */\n      dup4\n        /* \"#utility.yul\":5824:5842   */\n      add\n        /* \"#utility.yul\":5815:5821   */\n      dup7\n        /* \"#utility.yul\":5771:5843   */\n      tag_189\n      jump\t// in\n    tag_293:\n        /* \"#utility.yul\":5853:5919   */\n      tag_294\n        /* \"#utility.yul\":5915:5917   */\n      0x60\n        /* \"#utility.yul\":5904:5913   */\n      dup4\n        /* \"#utility.yul\":5900:5918   */\n      add\n        /* \"#utility.yul\":5891:5897   */\n      dup6\n        /* \"#utility.yul\":5853:5919   */\n      tag_187\n      jump\t// in\n    tag_294:\n        /* \"#utility.yul\":5929:5996   */\n      tag_295\n        /* \"#utility.yul\":5991:5994   */\n      0x80\n        /* \"#utility.yul\":5980:5989   */\n      dup4\n        /* \"#utility.yul\":5976:5995   */\n      add\n        /* \"#utility.yul\":5967:5973   */\n      dup5\n        /* \"#utility.yul\":5929:5996   */\n      tag_187\n      jump\t// in\n    tag_295:\n        /* \"#utility.yul\":5363:6003   */\n      swap7\n      swap6\n      pop\n      pop\n      pop\n      pop\n      pop\n      pop\n      jump\t// out\n        /* \"#utility.yul\":6009:6178   */\n    tag_197:\n        /* \"#utility.yul\":6093:6104   */\n      0x00\n        /* \"#utility.yul\":6127:6133   */\n      dup3\n        /* \"#utility.yul\":6122:6125   */\n      dup3\n        /* \"#utility.yul\":6115:6134   */\n      mstore\n        /* \"#utility.yul\":6167:6171   */\n      0x20\n        /* \"#utility.yul\":6162:6165   */\n      dup3\n        /* \"#utility.yul\":6158:6172   */\n      add\n        /* \"#utility.yul\":6143:6172   */\n      swap1\n      pop\n        /* \"#utility.yul\":6009:6178   */\n      swap3\n      swap2\n      pop\n      pop\n      jump\t// out\n        /* \"#utility.yul\":6184:6354   */\n    tag_198:\n        /* \"#utility.yul\":6324:6346   */\n      0x41646472657373206e6f7420656e67616765642e000000000000000000000000\n        /* \"#utility.yul\":6320:6321   */\n      0x00\n        /* \"#utility.yul\":6312:6318   */\n      dup3\n        /* \"#utility.yul\":6308:6322   */\n      add\n        /* \"#utility.yul\":6301:6347   */\n      mstore\n        /* \"#utility.yul\":6184:6354   */\n      pop\n      jump\t// out\n        /* \"#utility.yul\":6360:6726   */\n    tag_199:\n        /* \"#utility.yul\":6502:6505   */\n      0x00\n        /* \"#utility.yul\":6523:6590   */\n      tag_299\n        /* \"#utility.yul\":6587:6589   */\n      0x14\n        /* \"#utility.yul\":6582:6585   */\n      dup4\n        /* \"#utility.yul\":6523:6590   */\n      tag_197\n      jump\t// in\n    tag_299:\n        /* \"#utility.yul\":6516:6590   */\n      swap2\n      pop\n        /* \"#utility.yul\":6599:6692   */\n      tag_300\n        /* \"#utility.yul\":6688:6691   */\n      dup3\n        /* \"#utility.yul\":6599:6692   */\n      tag_198\n      jump\t// in\n    tag_300:\n        /* \"#utility.yul\":6717:6719   */\n      0x20\n        /* \"#utility.yul\":6712:6715   */\n      dup3\n        /* \"#utility.yul\":6708:6720   */\n      add\n        /* \"#utility.yul\":6701:6720   */\n      swap1\n      pop\n        /* \"#utility.yul\":6360:6726   */\n      swap2\n      swap1\n      pop\n      jump\t// out\n        /* \"#utility.yul\":6732:7151   */\n    tag_53:\n        /* \"#utility.yul\":6898:6902   */\n      0x00\n        /* \"#utility.yul\":6936:6938   */\n      0x20\n        /* \"#utility.yul\":6925:6934   */\n      dup3\n        /* \"#utility.yul\":6921:6939   */\n      add\n        /* \"#utility.yul\":6913:6939   */\n      swap1\n      pop\n        /* \"#utility.yul\":6985:6994   */\n      dup2\n        /* \"#utility.yul\":6979:6983   */\n      dup2\n        /* \"#utility.yul\":6975:6995   */\n      sub\n        /* \"#utility.yul\":6971:6972   */\n      0x00\n        /* \"#utility.yul\":6960:6969   */\n      dup4\n        /* \"#utility.yul\":6956:6973   */\n      add\n        /* \"#utility.yul\":6949:6996   */\n      mstore\n        /* \"#utility.yul\":7013:7144   */\n      tag_302\n        /* \"#utility.yul\":7139:7143   */\n      dup2\n        /* \"#utility.yul\":7013:7144   */\n      tag_199\n      jump\t// in\n    tag_302:\n        /* \"#utility.yul\":7005:7144   */\n      swap1\n      pop\n        /* \"#utility.yul\":6732:7151   */\n      swap2\n      swap1\n      pop\n      jump\t// out\n        /* \"#utility.yul\":7157:7322   */\n    tag_200:\n        /* \"#utility.yul\":7297:7314   */\n      0x416c7265616479206d6172726965640000000000000000000000000000000000\n        /* \"#utility.yul\":7293:7294   */\n      0x00\n        /* \"#utility.yul\":7285:7291   */\n      dup3\n        /* \"#utility.yul\":7281:7295   */\n      add\n        /* \"#utility.yul\":7274:7315   */\n      mstore\n        /* \"#utility.yul\":7157:7322   */\n      pop\n      jump\t// out\n        /* \"#utility.yul\":7328:7694   */\n    tag_201:\n        /* \"#utility.yul\":7470:7473   */\n      0x00\n        /* \"#utility.yul\":7491:7558   */\n      tag_305\n        /* \"#utility.yul\":7555:7557   */\n      0x0f\n        /* \"#utility.yul\":7550:7553   */\n      dup4\n        /* \"#utility.yul\":7491:7558   */\n      tag_197\n      jump\t// in\n    tag_305:\n        /* \"#utility.yul\":7484:7558   */\n      swap2\n      pop\n        /* \"#utility.yul\":7567:7660   */\n      tag_306\n        /* \"#utility.yul\":7656:7659   */\n      dup3\n        /* \"#utility.yul\":7567:7660   */\n      tag_200\n      jump\t// in\n    tag_306:\n        /* \"#utility.yul\":7685:7687   */\n      0x20\n        /* \"#utility.yul\":7680:7683   */\n      dup3\n        /* \"#utility.yul\":7676:7688   */\n      add\n        /* \"#utility.yul\":7669:7688   */\n      swap1\n      pop\n        /* \"#utility.yul\":7328:7694   */\n      swap2\n      swap1\n      pop\n      jump\t// out\n        /* \"#utility.yul\":7700:8119   */\n    tag_57:\n        /* \"#utility.yul\":7866:7870   */\n      0x00\n        /* \"#utility.yul\":7904:7906   */\n      0x20\n        /* \"#utility.yul\":7893:7902   */\n      dup3\n        /* \"#utility.yul\":7889:7907   */\n      add\n        /* \"#utility.yul\":7881:7907   */\n      swap1\n      pop\n        /* \"#utility.yul\":7953:7962   */\n      dup2\n        /* \"#utility.yul\":7947:7951   */\n      dup2\n        /* \"#utility.yul\":7943:7963   */\n      sub\n        /* \"#utility.yul\":7939:7940   */\n      0x00\n        /* \"#utility.yul\":7928:7937   */\n      dup4\n        /* \"#utility.yul\":7924:7941   */\n      add\n        /* \"#utility.yul\":7917:7964   */\n      mstore\n        /* \"#utility.yul\":7981:8112   */\n      tag_308\n        /* \"#utility.yul\":8107:8111   */\n      dup2\n        /* \"#utility.yul\":7981:8112   */\n      tag_201\n      jump\t// in\n    tag_308:\n        /* \"#utility.yul\":7973:8112   */\n      swap1\n      pop\n        /* \"#utility.yul\":7700:8119   */\n      swap2\n      swap1\n      pop\n      jump\t// out\n        /* \"#utility.yul\":8125:8305   */\n    tag_202:\n        /* \"#utility.yul\":8173:8250   */\n      0x4e487b7100000000000000000000000000000000000000000000000000000000\n        /* \"#utility.yul\":8170:8171   */\n      0x00\n        /* \"#utility.yul\":8163:8251   */\n      mstore\n        /* \"#utility.yul\":8270:8274   */\n      0x12\n        /* \"#utility.yul\":8267:8268   */\n      0x04\n        /* \"#utility.yul\":8260:8275   */\n      mstore\n        /* \"#utility.yul\":8294:8298   */\n      0x24\n        /* \"#utility.yul\":8291:8292   */\n      0x00\n        /* \"#utility.yul\":8284:8299   */\n      revert\n        /* \"#utility.yul\":8311:8491   */\n    tag_203:\n        /* \"#utility.yul\":8359:8436   */\n      0x4e487b7100000000000000000000000000000000000000000000000000000000\n        /* \"#utility.yul\":8356:8357   */\n      0x00\n        /* \"#utility.yul\":8349:8437   */\n      mstore\n        /* \"#utility.yul\":8456:8460   */\n      0x11\n        /* \"#utility.yul\":8453:8454   */\n      0x04\n        /* \"#utility.yul\":8446:8461   */\n      mstore\n        /* \"#utility.yul\":8480:8484   */\n      0x24\n        /* \"#utility.yul\":8477:8478   */\n      0x00\n        /* \"#utility.yul\":8470:8485   */\n      revert\n        /* \"#utility.yul\":8497:8682   */\n    tag_60:\n        /* \"#utility.yul\":8537:8538   */\n      0x00\n        /* \"#utility.yul\":8554:8574   */\n      tag_312\n        /* \"#utility.yul\":8572:8573   */\n      dup3\n        /* \"#utility.yul\":8554:8574   */\n      tag_188\n      jump\t// in\n    tag_312:\n        /* \"#utility.yul\":8549:8574   */\n      swap2\n      pop\n        /* \"#utility.yul\":8588:8608   */\n      tag_313\n        /* \"#utility.yul\":8606:8607   */\n      dup4\n        /* \"#utility.yul\":8588:8608   */\n      tag_188\n      jump\t// in\n    tag_313:\n        /* \"#utility.yul\":8583:8608   */\n      swap3\n      pop\n        /* \"#utility.yul\":8627:8628   */\n      dup3\n        /* \"#utility.yul\":8617:8652   */\n      tag_314\n      jumpi\n        /* \"#utility.yul\":8632:8650   */\n      tag_315\n      tag_202\n      jump\t// in\n    tag_315:\n        /* \"#utility.yul\":8617:8652   */\n    tag_314:\n        /* \"#utility.yul\":8674:8675   */\n      dup3\n        /* \"#utility.yul\":8671:8672   */\n      dup3\n        /* \"#utility.yul\":8667:8676   */\n      div\n        /* \"#utility.yul\":8662:8676   */\n      swap1\n      pop\n        /* \"#utility.yul\":8497:8682   */\n      swap3\n      swap2\n      pop\n      pop\n      jump\t// out\n        /* \"#utility.yul\":8688:8910   */\n    tag_63:\n        /* \"#utility.yul\":8781:8785   */\n      0x00\n        /* \"#utility.yul\":8819:8821   */\n      0x20\n        /* \"#utility.yul\":8808:8817   */\n      dup3\n        /* \"#utility.yul\":8804:8822   */\n      add\n        /* \"#utility.yul\":8796:8822   */\n      swap1\n      pop\n        /* \"#utility.yul\":8832:8903   */\n      tag_317\n        /* \"#utility.yul\":8900:8901   */\n      0x00\n        /* \"#utility.yul\":8889:8898   */\n      dup4\n        /* \"#utility.yul\":8885:8902   */\n      add\n        /* \"#utility.yul\":8876:8882   */\n      dup5\n        /* \"#utility.yul\":8832:8903   */\n      tag_196\n      jump\t// in\n    tag_317:\n        /* \"#utility.yul\":8688:8910   */\n      swap3\n      swap2\n      pop\n      pop\n      jump\t// out\n        /* \"#utility.yul\":8916:9137   */\n    tag_204:\n        /* \"#utility.yul\":9056:9090   */\n      0x54686520656e676167656d656e7420697320616c7265616479207265766f6b65\n        /* \"#utility.yul\":9052:9053   */\n      0x00\n        /* \"#utility.yul\":9044:9050   */\n      dup3\n        /* \"#utility.yul\":9040:9054   */\n      add\n        /* \"#utility.yul\":9033:9091   */\n      mstore\n        /* \"#utility.yul\":9125:9129   */\n      0x642e000000000000000000000000000000000000000000000000000000000000\n        /* \"#utility.yul\":9120:9122   */\n      0x20\n        /* \"#utility.yul\":9112:9118   */\n      dup3\n        /* \"#utility.yul\":9108:9123   */\n      add\n        /* \"#utility.yul\":9101:9130   */\n      mstore\n        /* \"#utility.yul\":8916:9137   */\n      pop\n      jump\t// out\n        /* \"#utility.yul\":9143:9509   */\n    tag_205:\n        /* \"#utility.yul\":9285:9288   */\n      0x00\n        /* \"#utility.yul\":9306:9373   */\n      tag_320\n        /* \"#utility.yul\":9370:9372   */\n      0x22\n        /* \"#utility.yul\":9365:9368   */\n      dup4\n        /* \"#utility.yul\":9306:9373   */\n      tag_197\n      jump\t// in\n    tag_320:\n        /* \"#utility.yul\":9299:9373   */\n      swap2\n      pop\n        /* \"#utility.yul\":9382:9475   */\n      tag_321\n        /* \"#utility.yul\":9471:9474   */\n      dup3\n        /* \"#utility.yul\":9382:9475   */\n      tag_204\n      jump\t// in\n    tag_321:\n        /* \"#utility.yul\":9500:9502   */\n      0x40\n        /* \"#utility.yul\":9495:9498   */\n      dup3\n        /* \"#utility.yul\":9491:9503   */\n      add\n        /* \"#utility.yul\":9484:9503   */\n      swap1\n      pop\n        /* \"#utility.yul\":9143:9509   */\n      swap2\n      swap1\n      pop\n      jump\t// out\n        /* \"#utility.yul\":9515:9934   */\n    tag_70:\n        /* \"#utility.yul\":9681:9685   */\n      0x00\n        /* \"#utility.yul\":9719:9721   */\n      0x20\n        /* \"#utility.yul\":9708:9717   */\n      dup3\n        /* \"#utility.yul\":9704:9722   */\n      add\n        /* \"#utility.yul\":9696:9722   */\n      swap1\n      pop\n        /* \"#utility.yul\":9768:9777   */\n      dup2\n        /* \"#utility.yul\":9762:9766   */\n      dup2\n        /* \"#utility.yul\":9758:9778   */\n      sub\n        /* \"#utility.yul\":9754:9755   */\n      0x00\n        /* \"#utility.yul\":9743:9752   */\n      dup4\n        /* \"#utility.yul\":9739:9756   */\n      add\n        /* \"#utility.yul\":9732:9779   */\n      mstore\n        /* \"#utility.yul\":9796:9927   */\n      tag_323\n        /* \"#utility.yul\":9922:9926   */\n      dup2\n        /* \"#utility.yul\":9796:9927   */\n      tag_205\n      jump\t// in\n    tag_323:\n        /* \"#utility.yul\":9788:9927   */\n      swap1\n      pop\n        /* \"#utility.yul\":9515:9934   */\n      swap2\n      swap1\n      pop\n      jump\t// out\n        /* \"#utility.yul\":9940:10272   */\n    tag_73:\n        /* \"#utility.yul\":10061:10065   */\n      0x00\n        /* \"#utility.yul\":10099:10101   */\n      0x40\n        /* \"#utility.yul\":10088:10097   */\n      dup3\n        /* \"#utility.yul\":10084:10102   */\n      add\n        /* \"#utility.yul\":10076:10102   */\n      swap1\n      pop\n        /* \"#utility.yul\":10112:10183   */\n      tag_325\n        /* \"#utility.yul\":10180:10181   */\n      0x00\n        /* \"#utility.yul\":10169:10178   */\n      dup4\n        /* \"#utility.yul\":10165:10182   */\n      add\n        /* \"#utility.yul\":10156:10162   */\n      dup6\n        /* \"#utility.yul\":10112:10183   */\n      tag_196\n      jump\t// in\n    tag_325:\n        /* \"#utility.yul\":10193:10265   */\n      tag_326\n        /* \"#utility.yul\":10261:10263   */\n      0x20\n        /* \"#utility.yul\":10250:10259   */\n      dup4\n        /* \"#utility.yul\":10246:10264   */\n      add\n        /* \"#utility.yul\":10237:10243   */\n      dup5\n        /* \"#utility.yul\":10193:10265   */\n      tag_189\n      jump\t// in\n    tag_326:\n        /* \"#utility.yul\":9940:10272   */\n      swap4\n      swap3\n      pop\n      pop\n      pop\n      jump\t// out\n        /* \"#utility.yul\":10278:10610   */\n    tag_90:\n        /* \"#utility.yul\":10399:10403   */\n      0x00\n        /* \"#utility.yul\":10437:10439   */\n      0x40\n        /* \"#utility.yul\":10426:10435   */\n      dup3\n        /* \"#utility.yul\":10422:10440   */\n      add\n        /* \"#utility.yul\":10414:10440   */\n      swap1\n      pop\n        /* \"#utility.yul\":10450:10521   */\n      tag_328\n        /* \"#utility.yul\":10518:10519   */\n      0x00\n        /* \"#utility.yul\":10507:10516   */\n      dup4\n        /* \"#utility.yul\":10503:10520   */\n      add\n        /* \"#utility.yul\":10494:10500   */\n      dup6\n        /* \"#utility.yul\":10450:10521   */\n      tag_196\n      jump\t// in\n    tag_328:\n        /* \"#utility.yul\":10531:10603   */\n      tag_329\n        /* \"#utility.yul\":10599:10601   */\n      0x20\n        /* \"#utility.yul\":10588:10597   */\n      dup4\n        /* \"#utility.yul\":10584:10602   */\n      add\n        /* \"#utility.yul\":10575:10581   */\n      dup5\n        /* \"#utility.yul\":10531:10603   */\n      tag_196\n      jump\t// in\n    tag_329:\n        /* \"#utility.yul\":10278:10610   */\n      swap4\n      swap3\n      pop\n      pop\n      pop\n      jump\t// out\n        /* \"#utility.yul\":10616:10844   */\n    tag_206:\n        /* \"#utility.yul\":10756:10790   */\n      0x43616c6c6572206d757374206265206f6e65206f662074686520656e67616765\n        /* \"#utility.yul\":10752:10753   */\n      0x00\n        /* \"#utility.yul\":10744:10750   */\n      dup3\n        /* \"#utility.yul\":10740:10754   */\n      add\n        /* \"#utility.yul\":10733:10791   */\n      mstore\n        /* \"#utility.yul\":10825:10836   */\n      0x6420706172746965730000000000000000000000000000000000000000000000\n        /* \"#utility.yul\":10820:10822   */\n      0x20\n        /* \"#utility.yul\":10812:10818   */\n      dup3\n        /* \"#utility.yul\":10808:10823   */\n      add\n        /* \"#utility.yul\":10801:10837   */\n      mstore\n        /* \"#utility.yul\":10616:10844   */\n      pop\n      jump\t// out\n        /* \"#utility.yul\":10850:11216   */\n    tag_207:\n        /* \"#utility.yul\":10992:10995   */\n      0x00\n        /* \"#utility.yul\":11013:11080   */\n      tag_332\n        /* \"#utility.yul\":11077:11079   */\n      0x29\n        /* \"#utility.yul\":11072:11075   */\n      dup4\n        /* \"#utility.yul\":11013:11080   */\n      tag_197\n      jump\t// in\n    tag_332:\n        /* \"#utility.yul\":11006:11080   */\n      swap2\n      pop\n        /* \"#utility.yul\":11089:11182   */\n      tag_333\n        /* \"#utility.yul\":11178:11181   */\n      dup3\n        /* \"#utility.yul\":11089:11182   */\n      tag_206\n      jump\t// in\n    tag_333:\n        /* \"#utility.yul\":11207:11209   */\n      0x40\n        /* \"#utility.yul\":11202:11205   */\n      dup3\n        /* \"#utility.yul\":11198:11210   */\n      add\n        /* \"#utility.yul\":11191:11210   */\n      swap1\n      pop\n        /* \"#utility.yul\":10850:11216   */\n      swap2\n      swap1\n      pop\n      jump\t// out\n        /* \"#utility.yul\":11222:11641   */\n    tag_98:\n        /* \"#utility.yul\":11388:11392   */\n      0x00\n        /* \"#utility.yul\":11426:11428   */\n      0x20\n        /* \"#utility.yul\":11415:11424   */\n      dup3\n        /* \"#utility.yul\":11411:11429   */\n      add\n        /* \"#utility.yul\":11403:11429   */\n      swap1\n      pop\n        /* \"#utility.yul\":11475:11484   */\n      dup2\n        /* \"#utility.yul\":11469:11473   */\n      dup2\n        /* \"#utility.yul\":11465:11485   */\n      sub\n        /* \"#utility.yul\":11461:11462   */\n      0x00\n        /* \"#utility.yul\":11450:11459   */\n      dup4\n        /* \"#utility.yul\":11446:11463   */\n      add\n        /* \"#utility.yul\":11439:11486   */\n      mstore\n        /* \"#utility.yul\":11503:11634   */\n      tag_335\n        /* \"#utility.yul\":11629:11633   */\n      dup2\n        /* \"#utility.yul\":11503:11634   */\n      tag_207\n      jump\t// in\n    tag_335:\n        /* \"#utility.yul\":11495:11634   */\n      swap1\n      pop\n        /* \"#utility.yul\":11222:11641   */\n      swap2\n      swap1\n      pop\n      jump\t// out\n        /* \"#utility.yul\":11647:11831   */\n    tag_208:\n        /* \"#utility.yul\":11746:11757   */\n      0x00\n        /* \"#utility.yul\":11780:11786   */\n      dup3\n        /* \"#utility.yul\":11775:11778   */\n      dup3\n        /* \"#utility.yul\":11768:11787   */\n      mstore\n        /* \"#utility.yul\":11820:11824   */\n      0x20\n        /* \"#utility.yul\":11815:11818   */\n      dup3\n        /* \"#utility.yul\":11811:11825   */\n      add\n        /* \"#utility.yul\":11796:11825   */\n      swap1\n      pop\n        /* \"#utility.yul\":11647:11831   */\n      swap3\n      swap2\n      pop\n      pop\n      jump\t// out\n        /* \"#utility.yul\":11837:11939   */\n    tag_209:\n        /* \"#utility.yul\":11906:11910   */\n      0x00\n        /* \"#utility.yul\":11929:11932   */\n      dup2\n        /* \"#utility.yul\":11921:11932   */\n      swap1\n      pop\n        /* \"#utility.yul\":11837:11939   */\n      swap2\n      swap1\n      pop\n      jump\t// out\n        /* \"#utility.yul\":11945:12053   */\n    tag_210:\n        /* \"#utility.yul\":12022:12046   */\n      tag_339\n        /* \"#utility.yul\":12040:12045   */\n      dup2\n        /* \"#utility.yul\":12022:12046   */\n      tag_183\n      jump\t// in\n    tag_339:\n        /* \"#utility.yul\":12017:12020   */\n      dup3\n        /* \"#utility.yul\":12010:12047   */\n      mstore\n        /* \"#utility.yul\":11945:12053   */\n      pop\n      pop\n      jump\t// out\n        /* \"#utility.yul\":12059:12238   */\n    tag_211:\n        /* \"#utility.yul\":12128:12138   */\n      0x00\n        /* \"#utility.yul\":12149:12195   */\n      tag_341\n        /* \"#utility.yul\":12191:12194   */\n      dup4\n        /* \"#utility.yul\":12183:12189   */\n      dup4\n        /* \"#utility.yul\":12149:12195   */\n      tag_210\n      jump\t// in\n    tag_341:\n        /* \"#utility.yul\":12227:12231   */\n      0x20\n        /* \"#utility.yul\":12222:12225   */\n      dup4\n        /* \"#utility.yul\":12218:12232   */\n      add\n        /* \"#utility.yul\":12204:12232   */\n      swap1\n      pop\n        /* \"#utility.yul\":12059:12238   */\n      swap3\n      swap2\n      pop\n      pop\n      jump\t// out\n        /* \"#utility.yul\":12244:12366   */\n    tag_212:\n        /* \"#utility.yul\":12296:12301   */\n      0x00\n        /* \"#utility.yul\":12321:12360   */\n      tag_343\n        /* \"#utility.yul\":12356:12358   */\n      0x20\n        /* \"#utility.yul\":12351:12354   */\n      dup5\n        /* \"#utility.yul\":12347:12359   */\n      add\n        /* \"#utility.yul\":12342:12345   */\n      dup5\n        /* \"#utility.yul\":12321:12360   */\n      tag_185\n      jump\t// in\n    tag_343:\n        /* \"#utility.yul\":12312:12360   */\n      swap1\n      pop\n        /* \"#utility.yul\":12244:12366   */\n      swap3\n      swap2\n      pop\n      pop\n      jump\t// out\n        /* \"#utility.yul\":12372:12487   */\n    tag_213:\n        /* \"#utility.yul\":12444:12448   */\n      0x00\n        /* \"#utility.yul\":12476:12480   */\n      0x20\n        /* \"#utility.yul\":12471:12474   */\n      dup3\n        /* \"#utility.yul\":12467:12481   */\n      add\n        /* \"#utility.yul\":12459:12481   */\n      swap1\n      pop\n        /* \"#utility.yul\":12372:12487   */\n      swap2\n      swap1\n      pop\n      jump\t// out\n        /* \"#utility.yul\":12523:13222   */\n    tag_214:\n        /* \"#utility.yul\":12652:12655   */\n      0x00\n        /* \"#utility.yul\":12675:12761   */\n      tag_346\n        /* \"#utility.yul\":12754:12760   */\n      dup4\n        /* \"#utility.yul\":12749:12752   */\n      dup6\n        /* \"#utility.yul\":12675:12761   */\n      tag_208\n      jump\t// in\n    tag_346:\n        /* \"#utility.yul\":12668:12761   */\n      swap4\n      pop\n        /* \"#utility.yul\":12785:12843   */\n      tag_347\n        /* \"#utility.yul\":12837:12842   */\n      dup3\n        /* \"#utility.yul\":12785:12843   */\n      tag_209\n      jump\t// in\n    tag_347:\n        /* \"#utility.yul\":12866:12873   */\n      dup1\n        /* \"#utility.yul\":12897:12898   */\n      0x00\n        /* \"#utility.yul\":12882:13197   */\n    tag_348:\n        /* \"#utility.yul\":12907:12913   */\n      dup6\n        /* \"#utility.yul\":12904:12905   */\n      dup2\n        /* \"#utility.yul\":12901:12914   */\n      lt\n        /* \"#utility.yul\":12882:13197   */\n      iszero\n      tag_350\n      jumpi\n        /* \"#utility.yul\":12977:13019   */\n      tag_351\n        /* \"#utility.yul\":13012:13018   */\n      dup3\n        /* \"#utility.yul\":13003:13010   */\n      dup5\n        /* \"#utility.yul\":12977:13019   */\n      tag_212\n      jump\t// in\n    tag_351:\n        /* \"#utility.yul\":13039:13102   */\n      tag_352\n        /* \"#utility.yul\":13098:13101   */\n      dup9\n        /* \"#utility.yul\":13083:13096   */\n      dup3\n        /* \"#utility.yul\":13039:13102   */\n      tag_211\n      jump\t// in\n    tag_352:\n        /* \"#utility.yul\":13032:13102   */\n      swap8\n      pop\n        /* \"#utility.yul\":13125:13187   */\n      tag_353\n        /* \"#utility.yul\":13180:13186   */\n      dup4\n        /* \"#utility.yul\":13125:13187   */\n      tag_213\n      jump\t// in\n    tag_353:\n        /* \"#utility.yul\":13115:13187   */\n      swap3\n      pop\n        /* \"#utility.yul\":12942:13197   */\n      pop\n        /* \"#utility.yul\":12929:12930   */\n      0x01\n        /* \"#utility.yul\":12926:12927   */\n      dup2\n        /* \"#utility.yul\":12922:12931   */\n      add\n        /* \"#utility.yul\":12917:12931   */\n      swap1\n      pop\n        /* \"#utility.yul\":12882:13197   */\n      jump(tag_348)\n    tag_350:\n        /* \"#utility.yul\":12886:12900   */\n      pop\n        /* \"#utility.yul\":13213:13216   */\n      dup6\n        /* \"#utility.yul\":13206:13216   */\n      swap3\n      pop\n        /* \"#utility.yul\":12657:13222   */\n      pop\n      pop\n        /* \"#utility.yul\":12523:13222   */\n      swap4\n      swap3\n      pop\n      pop\n      pop\n      jump\t// out\n        /* \"#utility.yul\":13228:13731   */\n    tag_103:\n        /* \"#utility.yul\":13409:13413   */\n      0x00\n        /* \"#utility.yul\":13447:13449   */\n      0x40\n        /* \"#utility.yul\":13436:13445   */\n      dup3\n        /* \"#utility.yul\":13432:13450   */\n      add\n        /* \"#utility.yul\":13424:13450   */\n      swap1\n      pop\n        /* \"#utility.yul\":13460:13531   */\n      tag_355\n        /* \"#utility.yul\":13528:13529   */\n      0x00\n        /* \"#utility.yul\":13517:13526   */\n      dup4\n        /* \"#utility.yul\":13513:13530   */\n      add\n        /* \"#utility.yul\":13504:13510   */\n      dup7\n        /* \"#utility.yul\":13460:13531   */\n      tag_196\n      jump\t// in\n    tag_355:\n        /* \"#utility.yul\":13578:13587   */\n      dup2\n        /* \"#utility.yul\":13572:13576   */\n      dup2\n        /* \"#utility.yul\":13568:13588   */\n      sub\n        /* \"#utility.yul\":13563:13565   */\n      0x20\n        /* \"#utility.yul\":13552:13561   */\n      dup4\n        /* \"#utility.yul\":13548:13566   */\n      add\n        /* \"#utility.yul\":13541:13589   */\n      mstore\n        /* \"#utility.yul\":13606:13724   */\n      tag_356\n        /* \"#utility.yul\":13719:13723   */\n      dup2\n        /* \"#utility.yul\":13710:13716   */\n      dup5\n        /* \"#utility.yul\":13702:13708   */\n      dup7\n        /* \"#utility.yul\":13606:13724   */\n      tag_214\n      jump\t// in\n    tag_356:\n        /* \"#utility.yul\":13598:13724   */\n      swap1\n      pop\n        /* \"#utility.yul\":13228:13731   */\n      swap5\n      swap4\n      pop\n      pop\n      pop\n      pop\n      jump\t// out\n        /* \"#utility.yul\":13737:13972   */\n    tag_215:\n        /* \"#utility.yul\":13877:13911   */\n      0x4f6e65206f7220626f7468206f66207468652073706f75736573206172652061\n        /* \"#utility.yul\":13873:13874   */\n      0x00\n        /* \"#utility.yul\":13865:13871   */\n      dup3\n        /* \"#utility.yul\":13861:13875   */\n      add\n        /* \"#utility.yul\":13854:13912   */\n      mstore\n        /* \"#utility.yul\":13946:13964   */\n      0x6c726561647920656e67616765642e2000000000000000000000000000000000\n        /* \"#utility.yul\":13941:13943   */\n      0x20\n        /* \"#utility.yul\":13933:13939   */\n      dup3\n        /* \"#utility.yul\":13929:13944   */\n      add\n        /* \"#utility.yul\":13922:13965   */\n      mstore\n        /* \"#utility.yul\":13737:13972   */\n      pop\n      jump\t// out\n        /* \"#utility.yul\":13978:14344   */\n    tag_216:\n        /* \"#utility.yul\":14120:14123   */\n      0x00\n        /* \"#utility.yul\":14141:14208   */\n      tag_359\n        /* \"#utility.yul\":14205:14207   */\n      0x30\n        /* \"#utility.yul\":14200:14203   */\n      dup4\n        /* \"#utility.yul\":14141:14208   */\n      tag_197\n      jump\t// in\n    tag_359:\n        /* \"#utility.yul\":14134:14208   */\n      swap2\n      pop\n        /* \"#utility.yul\":14217:14310   */\n      tag_360\n        /* \"#utility.yul\":14306:14309   */\n      dup3\n        /* \"#utility.yul\":14217:14310   */\n      tag_215\n      jump\t// in\n    tag_360:\n        /* \"#utility.yul\":14335:14337   */\n      0x40\n        /* \"#utility.yul\":14330:14333   */\n      dup3\n        /* \"#utility.yul\":14326:14338   */\n      add\n        /* \"#utility.yul\":14319:14338   */\n      swap1\n      pop\n        /* \"#utility.yul\":13978:14344   */\n      swap2\n      swap1\n      pop\n      jump\t// out\n        /* \"#utility.yul\":14350:14769   */\n    tag_108:\n        /* \"#utility.yul\":14516:14520   */\n      0x00\n        /* \"#utility.yul\":14554:14556   */\n      0x20\n        /* \"#utility.yul\":14543:14552   */\n      dup3\n        /* \"#utility.yul\":14539:14557   */\n      add\n        /* \"#utility.yul\":14531:14557   */\n      swap1\n      pop\n        /* \"#utility.yul\":14603:14612   */\n      dup2\n        /* \"#utility.yul\":14597:14601   */\n      dup2\n        /* \"#utility.yul\":14593:14613   */\n      sub\n        /* \"#utility.yul\":14589:14590   */\n      0x00\n        /* \"#utility.yul\":14578:14587   */\n      dup4\n        /* \"#utility.yul\":14574:14591   */\n      add\n        /* \"#utility.yul\":14567:14614   */\n      mstore\n        /* \"#utility.yul\":14631:14762   */\n      tag_362\n        /* \"#utility.yul\":14757:14761   */\n      dup2\n        /* \"#utility.yul\":14631:14762   */\n      tag_216\n      jump\t// in\n    tag_362:\n        /* \"#utility.yul\":14623:14762   */\n      swap1\n      pop\n        /* \"#utility.yul\":14350:14769   */\n      swap2\n      swap1\n      pop\n      jump\t// out\n        /* \"#utility.yul\":14775:14951   */\n    tag_217:\n        /* \"#utility.yul\":14915:14943   */\n      0x44617465206d75737420626520696e2074686520667574757265000000000000\n        /* \"#utility.yul\":14911:14912   */\n      0x00\n        /* \"#utility.yul\":14903:14909   */\n      dup3\n        /* \"#utility.yul\":14899:14913   */\n      add\n        /* \"#utility.yul\":14892:14944   */\n      mstore\n        /* \"#utility.yul\":14775:14951   */\n      pop\n      jump\t// out\n        /* \"#utility.yul\":14957:15323   */\n    tag_218:\n        /* \"#utility.yul\":15099:15102   */\n      0x00\n        /* \"#utility.yul\":15120:15187   */\n      tag_365\n        /* \"#utility.yul\":15184:15186   */\n      0x1a\n        /* \"#utility.yul\":15179:15182   */\n      dup4\n        /* \"#utility.yul\":15120:15187   */\n      tag_197\n      jump\t// in\n    tag_365:\n        /* \"#utility.yul\":15113:15187   */\n      swap2\n      pop\n        /* \"#utility.yul\":15196:15289   */\n      tag_366\n        /* \"#utility.yul\":15285:15288   */\n      dup3\n        /* \"#utility.yul\":15196:15289   */\n      tag_217\n      jump\t// in\n    tag_366:\n        /* \"#utility.yul\":15314:15316   */\n      0x20\n        /* \"#utility.yul\":15309:15312   */\n      dup3\n        /* \"#utility.yul\":15305:15317   */\n      add\n        /* \"#utility.yul\":15298:15317   */\n      swap1\n      pop\n        /* \"#utility.yul\":14957:15323   */\n      swap2\n      swap1\n      pop\n      jump\t// out\n        /* \"#utility.yul\":15329:15748   */\n    tag_112:\n        /* \"#utility.yul\":15495:15499   */\n      0x00\n        /* \"#utility.yul\":15533:15535   */\n      0x20\n        /* \"#utility.yul\":15522:15531   */\n      dup3\n        /* \"#utility.yul\":15518:15536   */\n      add\n        /* \"#utility.yul\":15510:15536   */\n      swap1\n      pop\n        /* \"#utility.yul\":15582:15591   */\n      dup2\n        /* \"#utility.yul\":15576:15580   */\n      dup2\n        /* \"#utility.yul\":15572:15592   */\n      sub\n        /* \"#utility.yul\":15568:15569   */\n      0x00\n        /* \"#utility.yul\":15557:15566   */\n      dup4\n        /* \"#utility.yul\":15553:15570   */\n      add\n        /* \"#utility.yul\":15546:15593   */\n      mstore\n        /* \"#utility.yul\":15610:15741   */\n      tag_368\n        /* \"#utility.yul\":15736:15740   */\n      dup2\n        /* \"#utility.yul\":15610:15741   */\n      tag_218\n      jump\t// in\n    tag_368:\n        /* \"#utility.yul\":15602:15741   */\n      swap1\n      pop\n        /* \"#utility.yul\":15329:15748   */\n      swap2\n      swap1\n      pop\n      jump\t// out\n        /* \"#utility.yul\":15754:16196   */\n    tag_115:\n        /* \"#utility.yul\":15903:15907   */\n      0x00\n        /* \"#utility.yul\":15941:15943   */\n      0x60\n        /* \"#utility.yul\":15930:15939   */\n      dup3\n        /* \"#utility.yul\":15926:15944   */\n      add\n        /* \"#utility.yul\":15918:15944   */\n      swap1\n      pop\n        /* \"#utility.yul\":15954:16025   */\n      tag_370\n        /* \"#utility.yul\":16022:16023   */\n      0x00\n        /* \"#utility.yul\":16011:16020   */\n      dup4\n        /* \"#utility.yul\":16007:16024   */\n      add\n        /* \"#utility.yul\":15998:16004   */\n      dup7\n        /* \"#utility.yul\":15954:16025   */\n      tag_196\n      jump\t// in\n    tag_370:\n        /* \"#utility.yul\":16035:16107   */\n      tag_371\n        /* \"#utility.yul\":16103:16105   */\n      0x20\n        /* \"#utility.yul\":16092:16101   */\n      dup4\n        /* \"#utility.yul\":16088:16106   */\n      add\n        /* \"#utility.yul\":16079:16085   */\n      dup6\n        /* \"#utility.yul\":16035:16107   */\n      tag_196\n      jump\t// in\n    tag_371:\n        /* \"#utility.yul\":16117:16189   */\n      tag_372\n        /* \"#utility.yul\":16185:16187   */\n      0x40\n        /* \"#utility.yul\":16174:16183   */\n      dup4\n        /* \"#utility.yul\":16170:16188   */\n      add\n        /* \"#utility.yul\":16161:16167   */\n      dup5\n        /* \"#utility.yul\":16117:16189   */\n      tag_189\n      jump\t// in\n    tag_372:\n        /* \"#utility.yul\":15754:16196   */\n      swap5\n      swap4\n      pop\n      pop\n      pop\n      pop\n      jump\t// out\n        /* \"#utility.yul\":16202:16396   */\n    tag_121:\n        /* \"#utility.yul\":16242:16246   */\n      0x00\n        /* \"#utility.yul\":16262:16282   */\n      tag_374\n        /* \"#utility.yul\":16280:16281   */\n      dup3\n        /* \"#utility.yul\":16262:16282   */\n      tag_188\n      jump\t// in\n    tag_374:\n        /* \"#utility.yul\":16257:16282   */\n      swap2\n      pop\n        /* \"#utility.yul\":16296:16316   */\n      tag_375\n        /* \"#utility.yul\":16314:16315   */\n      dup4\n        /* \"#utility.yul\":16296:16316   */\n      tag_188\n      jump\t// in\n    tag_375:\n        /* \"#utility.yul\":16291:16316   */\n      swap3\n      pop\n        /* \"#utility.yul\":16340:16341   */\n      dup3\n        /* \"#utility.yul\":16337:16338   */\n      dup3\n        /* \"#utility.yul\":16333:16342   */\n      sub\n        /* \"#utility.yul\":16325:16342   */\n      swap1\n      pop\n        /* \"#utility.yul\":16364:16365   */\n      dup2\n        /* \"#utility.yul\":16358:16362   */\n      dup2\n        /* \"#utility.yul\":16355:16366   */\n      gt\n        /* \"#utility.yul\":16352:16389   */\n      iszero\n      tag_376\n      jumpi\n        /* \"#utility.yul\":16369:16387   */\n      tag_377\n      tag_203\n      jump\t// in\n    tag_377:\n        /* \"#utility.yul\":16352:16389   */\n    tag_376:\n        /* \"#utility.yul\":16202:16396   */\n      swap3\n      swap2\n      pop\n      pop\n      jump\t// out\n        /* \"#utility.yul\":16402:16571   */\n    tag_219:\n        /* \"#utility.yul\":16542:16563   */\n      0x566f74696e67206e6f7420796574206f70656e00000000000000000000000000\n        /* \"#utility.yul\":16538:16539   */\n      0x00\n        /* \"#utility.yul\":16530:16536   */\n      dup3\n        /* \"#utility.yul\":16526:16540   */\n      add\n        /* \"#utility.yul\":16519:16564   */\n      mstore\n        /* \"#utility.yul\":16402:16571   */\n      pop\n      jump\t// out\n        /* \"#utility.yul\":16577:16943   */\n    tag_220:\n        /* \"#utility.yul\":16719:16722   */\n      0x00\n        /* \"#utility.yul\":16740:16807   */\n      tag_380\n        /* \"#utility.yul\":16804:16806   */\n      0x13\n        /* \"#utility.yul\":16799:16802   */\n      dup4\n        /* \"#utility.yul\":16740:16807   */\n      tag_197\n      jump\t// in\n    tag_380:\n        /* \"#utility.yul\":16733:16807   */\n      swap2\n      pop\n        /* \"#utility.yul\":16816:16909   */\n      tag_381\n        /* \"#utility.yul\":16905:16908   */\n      dup3\n        /* \"#utility.yul\":16816:16909   */\n      tag_219\n      jump\t// in\n    tag_381:\n        /* \"#utility.yul\":16934:16936   */\n      0x20\n        /* \"#utility.yul\":16929:16932   */\n      dup3\n        /* \"#utility.yul\":16925:16937   */\n      add\n        /* \"#utility.yul\":16918:16937   */\n      swap1\n      pop\n        /* \"#utility.yul\":16577:16943   */\n      swap2\n      swap1\n      pop\n      jump\t// out\n        /* \"#utility.yul\":16949:17368   */\n    tag_124:\n        /* \"#utility.yul\":17115:17119   */\n      0x00\n        /* \"#utility.yul\":17153:17155   */\n      0x20\n        /* \"#utility.yul\":17142:17151   */\n      dup3\n        /* \"#utility.yul\":17138:17156   */\n      add\n        /* \"#utility.yul\":17130:17156   */\n      swap1\n      pop\n        /* \"#utility.yul\":17202:17211   */\n      dup2\n        /* \"#utility.yul\":17196:17200   */\n      dup2\n        /* \"#utility.yul\":17192:17212   */\n      sub\n        /* \"#utility.yul\":17188:17189   */\n      0x00\n        /* \"#utility.yul\":17177:17186   */\n      dup4\n        /* \"#utility.yul\":17173:17190   */\n      add\n        /* \"#utility.yul\":17166:17213   */\n      mstore\n        /* \"#utility.yul\":17230:17361   */\n      tag_383\n        /* \"#utility.yul\":17356:17360   */\n      dup2\n        /* \"#utility.yul\":17230:17361   */\n      tag_220\n      jump\t// in\n    tag_383:\n        /* \"#utility.yul\":17222:17361   */\n      swap1\n      pop\n        /* \"#utility.yul\":16949:17368   */\n      swap2\n      swap1\n      pop\n      jump\t// out\n        /* \"#utility.yul\":17374:17537   */\n    tag_221:\n        /* \"#utility.yul\":17514:17529   */\n      0x566f74696e6720636c6f73656400000000000000000000000000000000000000\n        /* \"#utility.yul\":17510:17511   */\n      0x00\n        /* \"#utility.yul\":17502:17508   */\n      dup3\n        /* \"#utility.yul\":17498:17512   */\n      add\n        /* \"#utility.yul\":17491:17530   */\n      mstore\n        /* \"#utility.yul\":17374:17537   */\n      pop\n      jump\t// out\n        /* \"#utility.yul\":17543:17909   */\n    tag_222:\n        /* \"#utility.yul\":17685:17688   */\n      0x00\n        /* \"#utility.yul\":17706:17773   */\n      tag_386\n        /* \"#utility.yul\":17770:17772   */\n      0x0d\n        /* \"#utility.yul\":17765:17768   */\n      dup4\n        /* \"#utility.yul\":17706:17773   */\n      tag_197\n      jump\t// in\n    tag_386:\n        /* \"#utility.yul\":17699:17773   */\n      swap2\n      pop\n        /* \"#utility.yul\":17782:17875   */\n      tag_387\n        /* \"#utility.yul\":17871:17874   */\n      dup3\n        /* \"#utility.yul\":17782:17875   */\n      tag_221\n      jump\t// in\n    tag_387:\n        /* \"#utility.yul\":17900:17902   */\n      0x20\n        /* \"#utility.yul\":17895:17898   */\n      dup3\n        /* \"#utility.yul\":17891:17903   */\n      add\n        /* \"#utility.yul\":17884:17903   */\n      swap1\n      pop\n        /* \"#utility.yul\":17543:17909   */\n      swap2\n      swap1\n      pop\n      jump\t// out\n        /* \"#utility.yul\":17915:18334   */\n    tag_127:\n        /* \"#utility.yul\":18081:18085   */\n      0x00\n        /* \"#utility.yul\":18119:18121   */\n      0x20\n        /* \"#utility.yul\":18108:18117   */\n      dup3\n        /* \"#utility.yul\":18104:18122   */\n      add\n        /* \"#utility.yul\":18096:18122   */\n      swap1\n      pop\n        /* \"#utility.yul\":18168:18177   */\n      dup2\n        /* \"#utility.yul\":18162:18166   */\n      dup2\n        /* \"#utility.yul\":18158:18178   */\n      sub\n        /* \"#utility.yul\":18154:18155   */\n      0x00\n        /* \"#utility.yul\":18143:18152   */\n      dup4\n        /* \"#utility.yul\":18139:18156   */\n      add\n        /* \"#utility.yul\":18132:18179   */\n      mstore\n        /* \"#utility.yul\":18196:18327   */\n      tag_389\n        /* \"#utility.yul\":18322:18326   */\n      dup2\n        /* \"#utility.yul\":18196:18327   */\n      tag_222\n      jump\t// in\n    tag_389:\n        /* \"#utility.yul\":18188:18327   */\n      swap1\n      pop\n        /* \"#utility.yul\":17915:18334   */\n      swap2\n      swap1\n      pop\n      jump\t// out\n        /* \"#utility.yul\":18340:18511   */\n    tag_223:\n        /* \"#utility.yul\":18480:18503   */\n      0x4e6f74206120636f6e6669726d65642067756573740000000000000000000000\n        /* \"#utility.yul\":18476:18477   */\n      0x00\n        /* \"#utility.yul\":18468:18474   */\n      dup3\n        /* \"#utility.yul\":18464:18478   */\n      add\n        /* \"#utility.yul\":18457:18504   */\n      mstore\n        /* \"#utility.yul\":18340:18511   */\n      pop\n      jump\t// out\n        /* \"#utility.yul\":18517:18883   */\n    tag_224:\n        /* \"#utility.yul\":18659:18662   */\n      0x00\n        /* \"#utility.yul\":18680:18747   */\n      tag_392\n        /* \"#utility.yul\":18744:18746   */\n      0x15\n        /* \"#utility.yul\":18739:18742   */\n      dup4\n        /* \"#utility.yul\":18680:18747   */\n      tag_197\n      jump\t// in\n    tag_392:\n        /* \"#utility.yul\":18673:18747   */\n      swap2\n      pop\n        /* \"#utility.yul\":18756:18849   */\n      tag_393\n        /* \"#utility.yul\":18845:18848   */\n      dup3\n        /* \"#utility.yul\":18756:18849   */\n      tag_223\n      jump\t// in\n    tag_393:\n        /* \"#utility.yul\":18874:18876   */\n      0x20\n        /* \"#utility.yul\":18869:18872   */\n      dup3\n        /* \"#utility.yul\":18865:18877   */\n      add\n        /* \"#utility.yul\":18858:18877   */\n      swap1\n      pop\n        /* \"#utility.yul\":18517:18883   */\n      swap2\n      swap1\n      pop\n      jump\t// out\n        /* \"#utility.yul\":18889:19308   */\n    tag_139:\n        /* \"#utility.yul\":19055:19059   */\n      0x00\n        /* \"#utility.yul\":19093:19095   */\n      0x20\n        /* \"#utility.yul\":19082:19091   */\n      dup3\n        /* \"#utility.yul\":19078:19096   */\n      add\n        /* \"#utility.yul\":19070:19096   */\n      swap1\n      pop\n        /* \"#utility.yul\":19142:19151   */\n      dup2\n        /* \"#utility.yul\":19136:19140   */\n      dup2\n        /* \"#utility.yul\":19132:19152   */\n      sub\n        /* \"#utility.yul\":19128:19129   */\n      0x00\n        /* \"#utility.yul\":19117:19126   */\n      dup4\n        /* \"#utility.yul\":19113:19130   */\n      add\n        /* \"#utility.yul\":19106:19153   */\n      mstore\n        /* \"#utility.yul\":19170:19301   */\n      tag_395\n        /* \"#utility.yul\":19296:19300   */\n      dup2\n        /* \"#utility.yul\":19170:19301   */\n      tag_224\n      jump\t// in\n    tag_395:\n        /* \"#utility.yul\":19162:19301   */\n      swap1\n      pop\n        /* \"#utility.yul\":18889:19308   */\n      swap2\n      swap1\n      pop\n      jump\t// out\n        /* \"#utility.yul\":19314:19477   */\n    tag_225:\n        /* \"#utility.yul\":19454:19469   */\n      0x416c726561647920766f74656400000000000000000000000000000000000000\n        /* \"#utility.yul\":19450:19451   */\n      0x00\n        /* \"#utility.yul\":19442:19448   */\n      dup3\n        /* \"#utility.yul\":19438:19452   */\n      add\n        /* \"#utility.yul\":19431:19470   */\n      mstore\n        /* \"#utility.yul\":19314:19477   */\n      pop\n      jump\t// out\n        /* \"#utility.yul\":19483:19849   */\n    tag_226:\n        /* \"#utility.yul\":19625:19628   */\n      0x00\n        /* \"#utility.yul\":19646:19713   */\n      tag_398\n        /* \"#utility.yul\":19710:19712   */\n      0x0d\n        /* \"#utility.yul\":19705:19708   */\n      dup4\n        /* \"#utility.yul\":19646:19713   */\n      tag_197\n      jump\t// in\n    tag_398:\n        /* \"#utility.yul\":19639:19713   */\n      swap2\n      pop\n        /* \"#utility.yul\":19722:19815   */\n      tag_399\n        /* \"#utility.yul\":19811:19814   */\n      dup3\n        /* \"#utility.yul\":19722:19815   */\n      tag_225\n      jump\t// in\n    tag_399:\n        /* \"#utility.yul\":19840:19842   */\n      0x20\n        /* \"#utility.yul\":19835:19838   */\n      dup3\n        /* \"#utility.yul\":19831:19843   */\n      add\n        /* \"#utility.yul\":19824:19843   */\n      swap1\n      pop\n        /* \"#utility.yul\":19483:19849   */\n      swap2\n      swap1\n      pop\n      jump\t// out\n        /* \"#utility.yul\":19855:20274   */\n    tag_143:\n        /* \"#utility.yul\":20021:20025   */\n      0x00\n        /* \"#utility.yul\":20059:20061   */\n      0x20\n        /* \"#utility.yul\":20048:20057   */\n      dup3\n        /* \"#utility.yul\":20044:20062   */\n      add\n        /* \"#utility.yul\":20036:20062   */\n      swap1\n      pop\n        /* \"#utility.yul\":20108:20117   */\n      dup2\n        /* \"#utility.yul\":20102:20106   */\n      dup2\n        /* \"#utility.yul\":20098:20118   */\n      sub\n        /* \"#utility.yul\":20094:20095   */\n      0x00\n        /* \"#utility.yul\":20083:20092   */\n      dup4\n        /* \"#utility.yul\":20079:20096   */\n      add\n        /* \"#utility.yul\":20072:20119   */\n      mstore\n        /* \"#utility.yul\":20136:20267   */\n      tag_401\n        /* \"#utility.yul\":20262:20266   */\n      dup2\n        /* \"#utility.yul\":20136:20267   */\n      tag_226\n      jump\t// in\n    tag_401:\n        /* \"#utility.yul\":20128:20267   */\n      swap1\n      pop\n        /* \"#utility.yul\":19855:20274   */\n      swap2\n      swap1\n      pop\n      jump\t// out\n        /* \"#utility.yul\":20280:20513   */\n    tag_146:\n        /* \"#utility.yul\":20319:20322   */\n      0x00\n        /* \"#utility.yul\":20342:20366   */\n      tag_403\n        /* \"#utility.yul\":20360:20365   */\n      dup3\n        /* \"#utility.yul\":20342:20366   */\n      tag_188\n      jump\t// in\n    tag_403:\n        /* \"#utility.yul\":20333:20366   */\n      swap2\n      pop\n        /* \"#utility.yul\":20388:20454   */\n      0xffffffffffffffffffffffffffffffffffffffffffffffffffffffffffffffff\n        /* \"#utility.yul\":20381:20386   */\n      dup3\n        /* \"#utility.yul\":20378:20455   */\n      sub\n        /* \"#utility.yul\":20375:20478   */\n      tag_404\n      jumpi\n        /* \"#utility.yul\":20458:20476   */\n      tag_405\n      tag_203\n      jump\t// in\n    tag_405:\n        /* \"#utility.yul\":20375:20478   */\n    tag_404:\n        /* \"#utility.yul\":20505:20506   */\n      0x01\n        /* \"#utility.yul\":20498:20503   */\n      dup3\n        /* \"#utility.yul\":20494:20507   */\n      add\n        /* \"#utility.yul\":20487:20507   */\n      swap1\n      pop\n        /* \"#utility.yul\":20280:20513   */\n      swap2\n      swap1\n      pop\n      jump\t// out\n        /* \"#utility.yul\":20519:20699   */\n    tag_168:\n        /* \"#utility.yul\":20567:20644   */\n      0x4e487b7100000000000000000000000000000000000000000000000000000000\n        /* \"#utility.yul\":20564:20565   */\n      0x00\n        /* \"#utility.yul\":20557:20645   */\n      mstore\n        /* \"#utility.yul\":20664:20668   */\n      0x32\n        /* \"#utility.yul\":20661:20662   */\n      0x04\n        /* \"#utility.yul\":20654:20669   */\n      mstore\n        /* \"#utility.yul\":20688:20692   */\n      0x24\n        /* \"#utility.yul\":20685:20686   */\n      0x00\n        /* \"#utility.yul\":20678:20693   */\n      revert\n\n    auxdata: 0xa2646970667358221220aff39b34ab4694d14e1e804f3b54482ad8113c777efe624dc3af21a7380720de64736f6c63430008150033\n}\n",
				"bytecode": {
					"linkReferences": {},
					"object": "608060405234801561000f575f80fd5b506130c68061001d5f395ff3fe608060405234801561000f575f80fd5b506004361061009c575f3560e01c8063987e953311610064578063987e95331461011e578063a1905e4e1461013a578063a22690a814610156578063b95afe031461018d578063e83dc185146101c15761009c565b8063186be15f146100a05780632b80fa28146100bc5780636d955eb5146100ee57806385b9a11f146100f857806390106c5e14610102575b5f80fd5b6100ba60048036038101906100b591906126c3565b6101cb565b005b6100d660048036038101906100d191906126c3565b6103ee565b6040516100e593929190612720565b60405180910390f35b6100f661042e565b005b6101006107fe565b005b61011c600480360381019061011791906127b6565b610bb0565b005b6101386004803603810190610133919061282b565b611141565b005b610154600480360381019061014f91906126c3565b61160e565b005b610170600480360381019061016b91906126c3565b611be9565b604051610184989796959493929190612878565b60405180910390f35b6101a760048036038101906101a291906126c3565b611caa565b6040516101b89594939291906128f4565b60405180910390f35b6101c9611e5f565b005b80600115155f808373ffffffffffffffffffffffffffffffffffffffff1673ffffffffffffffffffffffffffffffffffffffff1681526020019081526020015f206003015f9054906101000a900460ff1615151461025e576040517f08c379a00000000000000000000000000000000000000000000000000000000081526004016102559061299f565b60405180910390fd5b815f808273ffffffffffffffffffffffffffffffffffffffff1673ffffffffffffffffffffffffffffffffffffffff1681526020019081526020015f2060030160029054906101000a900460ff16156102ec576040517f08c379a00000000000000000000000000000000000000000000000000000000081526004016102e390612a07565b60405180910390fd5b5f60015f8573ffffffffffffffffffffffffffffffffffffffff1673ffffffffffffffffffffffffffffffffffffffff1681526020019081526020015f2090505f805f8673ffffffffffffffffffffffffffffffffffffffff1673ffffffffffffffffffffffffffffffffffffffff1681526020019081526020015f2090505f825f018054905090505f6002826103839190612a7f565b9050808460030154106103e55760018360030160016101000a81548160ff0219169083151502179055507fca5145a860413368885bd057fa646c0895a34d43c6f7c897fc1954cf51c33045876040516103dc9190612aaf565b60405180910390a15b50505050505050565b6001602052805f5260405f205f91509050806001015f9054906101000a900460ff16908060010160019054906101000a900460ff16908060030154905083565b33600115155f808373ffffffffffffffffffffffffffffffffffffffff1673ffffffffffffffffffffffffffffffffffffffff1681526020019081526020015f206003015f9054906101000a900460ff161515146104c1576040517f08c379a00000000000000000000000000000000000000000000000000000000081526004016104b89061299f565b60405180910390fd5b335f15155f808373ffffffffffffffffffffffffffffffffffffffff1673ffffffffffffffffffffffffffffffffffffffff1681526020019081526020015f2060030160019054906101000a900460ff16151514610554576040517f08c379a000000000000000000000000000000000000000000000000000000000815260040161054b90612b38565b60405180910390fd5b5f805f3373ffffffffffffffffffffffffffffffffffffffff1673ffffffffffffffffffffffffffffffffffffffff1681526020019081526020015f2090505f80825f015f9054906101000a900473ffffffffffffffffffffffffffffffffffffffff1673ffffffffffffffffffffffffffffffffffffffff1673ffffffffffffffffffffffffffffffffffffffff1681526020019081526020015f205f8082015f6101000a81549073ffffffffffffffffffffffffffffffffffffffff0219169055600182015f6101000a81549073ffffffffffffffffffffffffffffffffffffffff0219169055600282015f9055600382015f6101000a81549060ff02191690556003820160016101000a81549060ff02191690556003820160026101000a81549060ff02191690556003820160036101000a81549060ff02191690556003820160046101000a81549060ff021916905550505f80826001015f9054906101000a900473ffffffffffffffffffffffffffffffffffffffff1673ffffffffffffffffffffffffffffffffffffffff1673ffffffffffffffffffffffffffffffffffffffff1681526020019081526020015f205f8082015f6101000a81549073ffffffffffffffffffffffffffffffffffffffff0219169055600182015f6101000a81549073ffffffffffffffffffffffffffffffffffffffff0219169055600282015f9055600382015f6101000a81549060ff02191690556003820160016101000a81549060ff02191690556003820160026101000a81549060ff02191690556003820160036101000a81549060ff02191690556003820160046101000a81549060ff021916905550507f1271c287650062f685bd2f225144d7b6b046826a5a70632c8f873240d04a54c633426040516107f1929190612b56565b60405180910390a1505050565b33600115155f808373ffffffffffffffffffffffffffffffffffffffff1673ffffffffffffffffffffffffffffffffffffffff1681526020019081526020015f206003015f9054906101000a900460ff16151514610891576040517f08c379a00000000000000000000000000000000000000000000000000000000081526004016108889061299f565b60405180910390fd5b335f15155f808373ffffffffffffffffffffffffffffffffffffffff1673ffffffffffffffffffffffffffffffffffffffff1681526020019081526020015f2060030160019054906101000a900460ff16151514610924576040517f08c379a000000000000000000000000000000000000000000000000000000000815260040161091b90612b38565b60405180910390fd5b335f808273ffffffffffffffffffffffffffffffffffffffff1673ffffffffffffffffffffffffffffffffffffffff1681526020019081526020015f2060030160029054906101000a900460ff16156109b2576040517f08c379a00000000000000000000000000000000000000000000000000000000081526004016109a990612a07565b60405180910390fd5b5f805f3373ffffffffffffffffffffffffffffffffffffffff1673ffffffffffffffffffffffffffffffffffffffff1681526020019081526020015f209050805f015f9054906101000a900473ffffffffffffffffffffffffffffffffffffffff1673ffffffffffffffffffffffffffffffffffffffff163373ffffffffffffffffffffffffffffffffffffffff1603610a685760018160030160036101000a81548160ff021916908315150217905550610add565b806001015f9054906101000a900473ffffffffffffffffffffffffffffffffffffffff1673ffffffffffffffffffffffffffffffffffffffff163373ffffffffffffffffffffffffffffffffffffffff1603610adc5760018160030160046101000a81548160ff0219169083151502179055505b5b8060030160039054906101000a900460ff168015610b0957508060030160049054906101000a900460ff165b15610baa5760018160030160026101000a81548160ff0219169083151502179055507f5c8ec7a25a142b043ee1d70b00b983786a266ced5b4e6b540ddc769276626819815f015f9054906101000a900473ffffffffffffffffffffffffffffffffffffffff16826001015f9054906101000a900473ffffffffffffffffffffffffffffffffffffffff16604051610ba1929190612b7d565b60405180910390a15b50505050565b33600115155f808373ffffffffffffffffffffffffffffffffffffffff1673ffffffffffffffffffffffffffffffffffffffff1681526020019081526020015f206003015f9054906101000a900460ff16151514610c43576040517f08c379a0000000000000000000000000000000000000000000000000000000008152600401610c3a9061299f565b60405180910390fd5b335f805f8373ffffffffffffffffffffffffffffffffffffffff1673ffffffffffffffffffffffffffffffffffffffff1681526020019081526020015f20604051806101000160405290815f82015f9054906101000a900473ffffffffffffffffffffffffffffffffffffffff1673ffffffffffffffffffffffffffffffffffffffff1673ffffffffffffffffffffffffffffffffffffffff168152602001600182015f9054906101000a900473ffffffffffffffffffffffffffffffffffffffff1673ffffffffffffffffffffffffffffffffffffffff1673ffffffffffffffffffffffffffffffffffffffff16815260200160028201548152602001600382015f9054906101000a900460ff161515151581526020016003820160019054906101000a900460ff161515151581526020016003820160029054906101000a900460ff161515151581526020016003820160039054906101000a900460ff161515151581526020016003820160049054906101000a900460ff1615151515815250509050805f015173ffffffffffffffffffffffffffffffffffffffff163373ffffffffffffffffffffffffffffffffffffffff161480610e345750806020015173ffffffffffffffffffffffffffffffffffffffff163373ffffffffffffffffffffffffffffffffffffffff16145b610e73576040517f08c379a0000000000000000000000000000000000000000000000000000000008152600401610e6a90612c14565b60405180910390fd5b5f805f3373ffffffffffffffffffffffffffffffffffffffff1673ffffffffffffffffffffffffffffffffffffffff1681526020019081526020015f20604051806101000160405290815f82015f9054906101000a900473ffffffffffffffffffffffffffffffffffffffff1673ffffffffffffffffffffffffffffffffffffffff1673ffffffffffffffffffffffffffffffffffffffff168152602001600182015f9054906101000a900473ffffffffffffffffffffffffffffffffffffffff1673ffffffffffffffffffffffffffffffffffffffff1673ffffffffffffffffffffffffffffffffffffffff16815260200160028201548152602001600382015f9054906101000a900460ff161515151581526020016003820160019054906101000a900460ff161515151581526020016003820160029054906101000a900460ff161515151581526020016003820160039054906101000a900460ff161515151581526020016003820160049054906101000a900460ff1615151515815250509050858560015f845f015173ffffffffffffffffffffffffffffffffffffffff1673ffffffffffffffffffffffffffffffffffffffff1681526020019081526020015f205f0191906110489291906125a9565b505f60015f835f015173ffffffffffffffffffffffffffffffffffffffff1673ffffffffffffffffffffffffffffffffffffffff1681526020019081526020015f206001015f6101000a81548160ff0219169083151502179055505f60015f835f015173ffffffffffffffffffffffffffffffffffffffff1673ffffffffffffffffffffffffffffffffffffffff1681526020019081526020015f2060010160016101000a81548160ff0219169083151502179055507f402f0cdbbd3e7bdbd2c1fc4d920fa1ee7a733238220198df262284a1259d0be633878760405161113193929190612cee565b60405180910390a1505050505050565b33825f15155f808473ffffffffffffffffffffffffffffffffffffffff1673ffffffffffffffffffffffffffffffffffffffff1681526020019081526020015f206003015f9054906101000a900460ff1615151480156111ef57505f15155f808373ffffffffffffffffffffffffffffffffffffffff1673ffffffffffffffffffffffffffffffffffffffff1681526020019081526020015f206003015f9054906101000a900460ff161515145b61122e576040517f08c379a000000000000000000000000000000000000000000000000000000000815260040161122590612d8e565b60405180910390fd5b82428111611271576040517f08c379a000000000000000000000000000000000000000000000000000000000815260040161126890612df6565b60405180910390fd5b5f6040518061010001604052803373ffffffffffffffffffffffffffffffffffffffff1681526020018773ffffffffffffffffffffffffffffffffffffffff1681526020018681526020016001151581526020015f151581526020015f151581526020015f151581526020015f15158152509050805f803373ffffffffffffffffffffffffffffffffffffffff1673ffffffffffffffffffffffffffffffffffffffff1681526020019081526020015f205f820151815f015f6101000a81548173ffffffffffffffffffffffffffffffffffffffff021916908373ffffffffffffffffffffffffffffffffffffffff1602179055506020820151816001015f6101000a81548173ffffffffffffffffffffffffffffffffffffffff021916908373ffffffffffffffffffffffffffffffffffffffff160217905550604082015181600201556060820151816003015f6101000a81548160ff02191690831515021790555060808201518160030160016101000a81548160ff02191690831515021790555060a08201518160030160026101000a81548160ff02191690831515021790555060c08201518160030160036101000a81548160ff02191690831515021790555060e08201518160030160046101000a81548160ff021916908315150217905550905050805f808873ffffffffffffffffffffffffffffffffffffffff1673ffffffffffffffffffffffffffffffffffffffff1681526020019081526020015f205f820151815f015f6101000a81548173ffffffffffffffffffffffffffffffffffffffff021916908373ffffffffffffffffffffffffffffffffffffffff1602179055506020820151816001015f6101000a81548173ffffffffffffffffffffffffffffffffffffffff021916908373ffffffffffffffffffffffffffffffffffffffff160217905550604082015181600201556060820151816003015f6101000a81548160ff02191690831515021790555060808201518160030160016101000a81548160ff02191690831515021790555060a08201518160030160026101000a81548160ff02191690831515021790555060c08201518160030160036101000a81548160ff02191690831515021790555060e08201518160030160046101000a81548160ff0219169083151502179055509050507f7a7f38be04afb87e39b4cb52bec76c69c4d999f605bd21054b71a3f2dc0858213387876040516115fe93929190612e14565b60405180910390a1505050505050565b80600115155f808373ffffffffffffffffffffffffffffffffffffffff1673ffffffffffffffffffffffffffffffffffffffff1681526020019081526020015f206003015f9054906101000a900460ff161515146116a1576040517f08c379a00000000000000000000000000000000000000000000000000000000081526004016116989061299f565b60405180910390fd5b815f805f8373ffffffffffffffffffffffffffffffffffffffff1673ffffffffffffffffffffffffffffffffffffffff1681526020019081526020015f20604051806101000160405290815f82015f9054906101000a900473ffffffffffffffffffffffffffffffffffffffff1673ffffffffffffffffffffffffffffffffffffffff1673ffffffffffffffffffffffffffffffffffffffff168152602001600182015f9054906101000a900473ffffffffffffffffffffffffffffffffffffffff1673ffffffffffffffffffffffffffffffffffffffff1673ffffffffffffffffffffffffffffffffffffffff16815260200160028201548152602001600382015f9054906101000a900460ff161515151581526020016003820160019054906101000a900460ff161515151581526020016003820160029054906101000a900460ff161515151581526020016003820160039054906101000a900460ff161515151581526020016003820160049054906101000a900460ff16151515158152505090506201518081604001516118399190612e49565b42101561187b576040517f08c379a000000000000000000000000000000000000000000000000000000000815260040161187290612ec6565b60405180910390fd5b806040015142106118c1576040517f08c379a00000000000000000000000000000000000000000000000000000000081526004016118b890612f2e565b60405180910390fd5b835f15155f808373ffffffffffffffffffffffffffffffffffffffff1673ffffffffffffffffffffffffffffffffffffffff1681526020019081526020015f2060030160019054906101000a900460ff16151514611954576040517f08c379a000000000000000000000000000000000000000000000000000000000815260040161194b90612b38565b60405180910390fd5b845f808273ffffffffffffffffffffffffffffffffffffffff1673ffffffffffffffffffffffffffffffffffffffff1681526020019081526020015f2060030160029054906101000a900460ff16156119e2576040517f08c379a00000000000000000000000000000000000000000000000000000000081526004016119d990612a07565b60405180910390fd5b856119ed8133612486565b611a2c576040517f08c379a0000000000000000000000000000000000000000000000000000000008152600401611a2390612f96565b60405180910390fd5b8660015f8273ffffffffffffffffffffffffffffffffffffffff1673ffffffffffffffffffffffffffffffffffffffff1681526020019081526020015f206002015f3373ffffffffffffffffffffffffffffffffffffffff1673ffffffffffffffffffffffffffffffffffffffff1681526020019081526020015f205f9054906101000a900460ff1615611af5576040517f08c379a0000000000000000000000000000000000000000000000000000000008152600401611aec90612ffe565b60405180910390fd5b5f60015f8a73ffffffffffffffffffffffffffffffffffffffff1673ffffffffffffffffffffffffffffffffffffffff1681526020019081526020015f2090506001816002015f3373ffffffffffffffffffffffffffffffffffffffff1673ffffffffffffffffffffffffffffffffffffffff1681526020019081526020015f205f6101000a81548160ff021916908315150217905550806003015f815480929190611ba09061301c565b91905055507fa9862c5f43caca0b960b097a111ce8c3752d27df0e0f1f170b4a06a823e612b1338a604051611bd6929190612b7d565b60405180910390a1505050505050505050565b5f602052805f5260405f205f91509050805f015f9054906101000a900473ffffffffffffffffffffffffffffffffffffffff1690806001015f9054906101000a900473ffffffffffffffffffffffffffffffffffffffff1690806002015490806003015f9054906101000a900460ff16908060030160019054906101000a900460ff16908060030160029054906101000a900460ff16908060030160039054906101000a900460ff16908060030160049054906101000a900460ff16905088565b5f805f805f805f808873ffffffffffffffffffffffffffffffffffffffff1673ffffffffffffffffffffffffffffffffffffffff1681526020019081526020015f20604051806101000160405290815f82015f9054906101000a900473ffffffffffffffffffffffffffffffffffffffff1673ffffffffffffffffffffffffffffffffffffffff1673ffffffffffffffffffffffffffffffffffffffff168152602001600182015f9054906101000a900473ffffffffffffffffffffffffffffffffffffffff1673ffffffffffffffffffffffffffffffffffffffff1673ffffffffffffffffffffffffffffffffffffffff16815260200160028201548152602001600382015f9054906101000a900460ff161515151581526020016003820160019054906101000a900460ff161515151581526020016003820160029054906101000a900460ff161515151581526020016003820160039054906101000a900460ff161515151581526020016003820160049054906101000a900460ff1615151515815250509050805f01518160200151826040015183606001518460800151955095509550955095505091939590929450565b33600115155f808373ffffffffffffffffffffffffffffffffffffffff1673ffffffffffffffffffffffffffffffffffffffff1681526020019081526020015f206003015f9054906101000a900460ff16151514611ef2576040517f08c379a0000000000000000000000000000000000000000000000000000000008152600401611ee99061299f565b60405180910390fd5b335f805f8373ffffffffffffffffffffffffffffffffffffffff1673ffffffffffffffffffffffffffffffffffffffff1681526020019081526020015f20604051806101000160405290815f82015f9054906101000a900473ffffffffffffffffffffffffffffffffffffffff1673ffffffffffffffffffffffffffffffffffffffff1673ffffffffffffffffffffffffffffffffffffffff168152602001600182015f9054906101000a900473ffffffffffffffffffffffffffffffffffffffff1673ffffffffffffffffffffffffffffffffffffffff1673ffffffffffffffffffffffffffffffffffffffff16815260200160028201548152602001600382015f9054906101000a900460ff161515151581526020016003820160019054906101000a900460ff161515151581526020016003820160029054906101000a900460ff161515151581526020016003820160039054906101000a900460ff161515151581526020016003820160049054906101000a900460ff1615151515815250509050805f015173ffffffffffffffffffffffffffffffffffffffff163373ffffffffffffffffffffffffffffffffffffffff1614806120e35750806020015173ffffffffffffffffffffffffffffffffffffffff163373ffffffffffffffffffffffffffffffffffffffff16145b612122576040517f08c379a000000000000000000000000000000000000000000000000000000000815260040161211990612c14565b60405180910390fd5b5f805f3373ffffffffffffffffffffffffffffffffffffffff1673ffffffffffffffffffffffffffffffffffffffff1681526020019081526020015f20604051806101000160405290815f82015f9054906101000a900473ffffffffffffffffffffffffffffffffffffffff1673ffffffffffffffffffffffffffffffffffffffff1673ffffffffffffffffffffffffffffffffffffffff168152602001600182015f9054906101000a900473ffffffffffffffffffffffffffffffffffffffff1673ffffffffffffffffffffffffffffffffffffffff1673ffffffffffffffffffffffffffffffffffffffff16815260200160028201548152602001600382015f9054906101000a900460ff161515151581526020016003820160019054906101000a900460ff161515151581526020016003820160029054906101000a900460ff161515151581526020016003820160039054906101000a900460ff161515151581526020016003820160049054906101000a900460ff1615151515815250509050805f015173ffffffffffffffffffffffffffffffffffffffff163373ffffffffffffffffffffffffffffffffffffffff160361233b576001805f835f015173ffffffffffffffffffffffffffffffffffffffff1673ffffffffffffffffffffffffffffffffffffffff1681526020019081526020015f206001015f6101000a81548160ff021916908315150217905550612397565b6001805f835f015173ffffffffffffffffffffffffffffffffffffffff1673ffffffffffffffffffffffffffffffffffffffff1681526020019081526020015f2060010160016101000a81548160ff0219169083151502179055505b60015f825f015173ffffffffffffffffffffffffffffffffffffffff1673ffffffffffffffffffffffffffffffffffffffff1681526020019081526020015f206001015f9054906101000a900460ff168015612440575060015f825f015173ffffffffffffffffffffffffffffffffffffffff1673ffffffffffffffffffffffffffffffffffffffff1681526020019081526020015f2060010160019054906101000a900460ff165b15612480577fffacc21903a9db21c6031d4c12c9825f13ac6469f9b894f7058a45cf1f9a3e8d815f01516040516124779190612aaf565b60405180910390a15b50505050565b5f805f90505b60015f8573ffffffffffffffffffffffffffffffffffffffff1673ffffffffffffffffffffffffffffffffffffffff1681526020019081526020015f205f018054905081101561259e578273ffffffffffffffffffffffffffffffffffffffff1660015f8673ffffffffffffffffffffffffffffffffffffffff1673ffffffffffffffffffffffffffffffffffffffff1681526020019081526020015f205f01828154811061253e5761253d613063565b5b905f5260205f20015f9054906101000a900473ffffffffffffffffffffffffffffffffffffffff1673ffffffffffffffffffffffffffffffffffffffff160361258b5760019150506125a3565b80806125969061301c565b91505061248c565b505f90505b92915050565b828054828255905f5260205f20908101928215612635579160200282015b8281111561263457823573ffffffffffffffffffffffffffffffffffffffff16825f6101000a81548173ffffffffffffffffffffffffffffffffffffffff021916908373ffffffffffffffffffffffffffffffffffffffff160217905550916020019190600101906125c7565b5b5090506126429190612646565b5090565b5b8082111561265d575f815f905550600101612647565b5090565b5f80fd5b5f80fd5b5f73ffffffffffffffffffffffffffffffffffffffff82169050919050565b5f61269282612669565b9050919050565b6126a281612688565b81146126ac575f80fd5b50565b5f813590506126bd81612699565b92915050565b5f602082840312156126d8576126d7612661565b5b5f6126e5848285016126af565b91505092915050565b5f8115159050919050565b612702816126ee565b82525050565b5f819050919050565b61271a81612708565b82525050565b5f6060820190506127335f8301866126f9565b61274060208301856126f9565b61274d6040830184612711565b949350505050565b5f80fd5b5f80fd5b5f80fd5b5f8083601f84011261277657612775612755565b5b8235905067ffffffffffffffff81111561279357612792612759565b5b6020830191508360208202830111156127af576127ae61275d565b5b9250929050565b5f80602083850312156127cc576127cb612661565b5b5f83013567ffffffffffffffff8111156127e9576127e8612665565b5b6127f585828601612761565b92509250509250929050565b61280a81612708565b8114612814575f80fd5b50565b5f8135905061282581612801565b92915050565b5f806040838503121561284157612840612661565b5b5f61284e858286016126af565b925050602061285f85828601612817565b9150509250929050565b61287281612688565b82525050565b5f6101008201905061288c5f83018b612869565b612899602083018a612869565b6128a66040830189612711565b6128b360608301886126f9565b6128c060808301876126f9565b6128cd60a08301866126f9565b6128da60c08301856126f9565b6128e760e08301846126f9565b9998505050505050505050565b5f60a0820190506129075f830188612869565b6129146020830187612869565b6129216040830186612711565b61292e60608301856126f9565b61293b60808301846126f9565b9695505050505050565b5f82825260208201905092915050565b7f41646472657373206e6f7420656e67616765642e0000000000000000000000005f82015250565b5f612989601483612945565b915061299482612955565b602082019050919050565b5f6020820190508181035f8301526129b68161297d565b9050919050565b7f416c7265616479206d61727269656400000000000000000000000000000000005f82015250565b5f6129f1600f83612945565b91506129fc826129bd565b602082019050919050565b5f6020820190508181035f830152612a1e816129e5565b9050919050565b7f4e487b71000000000000000000000000000000000000000000000000000000005f52601260045260245ffd5b7f4e487b71000000000000000000000000000000000000000000000000000000005f52601160045260245ffd5b5f612a8982612708565b9150612a9483612708565b925082612aa457612aa3612a25565b5b828204905092915050565b5f602082019050612ac25f830184612869565b92915050565b7f54686520656e676167656d656e7420697320616c7265616479207265766f6b655f8201527f642e000000000000000000000000000000000000000000000000000000000000602082015250565b5f612b22602283612945565b9150612b2d82612ac8565b604082019050919050565b5f6020820190508181035f830152612b4f81612b16565b9050919050565b5f604082019050612b695f830185612869565b612b766020830184612711565b9392505050565b5f604082019050612b905f830185612869565b612b9d6020830184612869565b9392505050565b7f43616c6c6572206d757374206265206f6e65206f662074686520656e676167655f8201527f6420706172746965730000000000000000000000000000000000000000000000602082015250565b5f612bfe602983612945565b9150612c0982612ba4565b604082019050919050565b5f6020820190508181035f830152612c2b81612bf2565b9050919050565b5f82825260208201905092915050565b5f819050919050565b612c5481612688565b82525050565b5f612c658383612c4b565b60208301905092915050565b5f612c7f60208401846126af565b905092915050565b5f602082019050919050565b5f612c9e8385612c32565b9350612ca982612c42565b805f5b85811015612ce157612cbe8284612c71565b612cc88882612c5a565b9750612cd383612c87565b925050600181019050612cac565b5085925050509392505050565b5f604082019050612d015f830186612869565b8181036020830152612d14818486612c93565b9050949350505050565b7f4f6e65206f7220626f7468206f66207468652073706f757365732061726520615f8201527f6c726561647920656e67616765642e2000000000000000000000000000000000602082015250565b5f612d78603083612945565b9150612d8382612d1e565b604082019050919050565b5f6020820190508181035f830152612da581612d6c565b9050919050565b7f44617465206d75737420626520696e20746865206675747572650000000000005f82015250565b5f612de0601a83612945565b9150612deb82612dac565b602082019050919050565b5f6020820190508181035f830152612e0d81612dd4565b9050919050565b5f606082019050612e275f830186612869565b612e346020830185612869565b612e416040830184612711565b949350505050565b5f612e5382612708565b9150612e5e83612708565b9250828203905081811115612e7657612e75612a52565b5b92915050565b7f566f74696e67206e6f7420796574206f70656e000000000000000000000000005f82015250565b5f612eb0601383612945565b9150612ebb82612e7c565b602082019050919050565b5f6020820190508181035f830152612edd81612ea4565b9050919050565b7f566f74696e6720636c6f736564000000000000000000000000000000000000005f82015250565b5f612f18600d83612945565b9150612f2382612ee4565b602082019050919050565b5f6020820190508181035f830152612f4581612f0c565b9050919050565b7f4e6f74206120636f6e6669726d656420677565737400000000000000000000005f82015250565b5f612f80601583612945565b9150612f8b82612f4c565b602082019050919050565b5f6020820190508181035f830152612fad81612f74565b9050919050565b7f416c726561647920766f746564000000000000000000000000000000000000005f82015250565b5f612fe8600d83612945565b9150612ff382612fb4565b602082019050919050565b5f6020820190508181035f83015261301581612fdc565b9050919050565b5f61302682612708565b91507fffffffffffffffffffffffffffffffffffffffffffffffffffffffffffffffff820361305857613057612a52565b5b600182019050919050565b7f4e487b71000000000000000000000000000000000000000000000000000000005f52603260045260245ffdfea2646970667358221220aff39b34ab4694d14e1e804f3b54482ad8113c777efe624dc3af21a7380720de64736f6c63430008150033",
					"opcodes": "PUSH1 0x80 PUSH1 0x40 MSTORE CALLVALUE DUP1 ISZERO PUSH2 0xF JUMPI PUSH0 DUP1 REVERT JUMPDEST POP PUSH2 0x30C6 DUP1 PUSH2 0x1D PUSH0 CODECOPY PUSH0 RETURN INVALID PUSH1 0x80 PUSH1 0x40 MSTORE CALLVALUE DUP1 ISZERO PUSH2 0xF JUMPI PUSH0 DUP1 REVERT JUMPDEST POP PUSH1 0x4 CALLDATASIZE LT PUSH2 0x9C JUMPI PUSH0 CALLDATALOAD PUSH1 0xE0 SHR DUP1 PUSH4 0x987E9533 GT PUSH2 0x64 JUMPI DUP1 PUSH4 0x987E9533 EQ PUSH2 0x11E JUMPI DUP1 PUSH4 0xA1905E4E EQ PUSH2 0x13A JUMPI DUP1 PUSH4 0xA22690A8 EQ PUSH2 0x156 JUMPI DUP1 PUSH4 0xB95AFE03 EQ PUSH2 0x18D JUMPI DUP1 PUSH4 0xE83DC185 EQ PUSH2 0x1C1 JUMPI PUSH2 0x9C JUMP JUMPDEST DUP1 PUSH4 0x186BE15F EQ PUSH2 0xA0 JUMPI DUP1 PUSH4 0x2B80FA28 EQ PUSH2 0xBC JUMPI DUP1 PUSH4 0x6D955EB5 EQ PUSH2 0xEE JUMPI DUP1 PUSH4 0x85B9A11F EQ PUSH2 0xF8 JUMPI DUP1 PUSH4 0x90106C5E EQ PUSH2 0x102 JUMPI JUMPDEST PUSH0 DUP1 REVERT JUMPDEST PUSH2 0xBA PUSH1 0x4 DUP1 CALLDATASIZE SUB DUP2 ADD SWAP1 PUSH2 0xB5 SWAP2 SWAP1 PUSH2 0x26C3 JUMP JUMPDEST PUSH2 0x1CB JUMP JUMPDEST STOP JUMPDEST PUSH2 0xD6 PUSH1 0x4 DUP1 CALLDATASIZE SUB DUP2 ADD SWAP1 PUSH2 0xD1 SWAP2 SWAP1 PUSH2 0x26C3 JUMP JUMPDEST PUSH2 0x3EE JUMP JUMPDEST PUSH1 0x40 MLOAD PUSH2 0xE5 SWAP4 SWAP3 SWAP2 SWAP1 PUSH2 0x2720 JUMP JUMPDEST PUSH1 0x40 MLOAD DUP1 SWAP2 SUB SWAP1 RETURN JUMPDEST PUSH2 0xF6 PUSH2 0x42E JUMP JUMPDEST STOP JUMPDEST PUSH2 0x100 PUSH2 0x7FE JUMP JUMPDEST STOP JUMPDEST PUSH2 0x11C PUSH1 0x4 DUP1 CALLDATASIZE SUB DUP2 ADD SWAP1 PUSH2 0x117 SWAP2 SWAP1 PUSH2 0x27B6 JUMP JUMPDEST PUSH2 0xBB0 JUMP JUMPDEST STOP JUMPDEST PUSH2 0x138 PUSH1 0x4 DUP1 CALLDATASIZE SUB DUP2 ADD SWAP1 PUSH2 0x133 SWAP2 SWAP1 PUSH2 0x282B JUMP JUMPDEST PUSH2 0x1141 JUMP JUMPDEST STOP JUMPDEST PUSH2 0x154 PUSH1 0x4 DUP1 CALLDATASIZE SUB DUP2 ADD SWAP1 PUSH2 0x14F SWAP2 SWAP1 PUSH2 0x26C3 JUMP JUMPDEST PUSH2 0x160E JUMP JUMPDEST STOP JUMPDEST PUSH2 0x170 PUSH1 0x4 DUP1 CALLDATASIZE SUB DUP2 ADD SWAP1 PUSH2 0x16B SWAP2 SWAP1 PUSH2 0x26C3 JUMP JUMPDEST PUSH2 0x1BE9 JUMP JUMPDEST PUSH1 0x40 MLOAD PUSH2 0x184 SWAP9 SWAP8 SWAP7 SWAP6 SWAP5 SWAP4 SWAP3 SWAP2 SWAP1 PUSH2 0x2878 JUMP JUMPDEST PUSH1 0x40 MLOAD DUP1 SWAP2 SUB SWAP1 RETURN JUMPDEST PUSH2 0x1A7 PUSH1 0x4 DUP1 CALLDATASIZE SUB DUP2 ADD SWAP1 PUSH2 0x1A2 SWAP2 SWAP1 PUSH2 0x26C3 JUMP JUMPDEST PUSH2 0x1CAA JUMP JUMPDEST PUSH1 0x40 MLOAD PUSH2 0x1B8 SWAP6 SWAP5 SWAP4 SWAP3 SWAP2 SWAP1 PUSH2 0x28F4 JUMP JUMPDEST PUSH1 0x40 MLOAD DUP1 SWAP2 SUB SWAP1 RETURN JUMPDEST PUSH2 0x1C9 PUSH2 0x1E5F JUMP JUMPDEST STOP JUMPDEST DUP1 PUSH1 0x1 ISZERO ISZERO PUSH0 DUP1 DUP4 PUSH20 0xFFFFFFFFFFFFFFFFFFFFFFFFFFFFFFFFFFFFFFFF AND PUSH20 0xFFFFFFFFFFFFFFFFFFFFFFFFFFFFFFFFFFFFFFFF AND DUP2 MSTORE PUSH1 0x20 ADD SWAP1 DUP2 MSTORE PUSH1 0x20 ADD PUSH0 KECCAK256 PUSH1 0x3 ADD PUSH0 SWAP1 SLOAD SWAP1 PUSH2 0x100 EXP SWAP1 DIV PUSH1 0xFF AND ISZERO ISZERO EQ PUSH2 0x25E JUMPI PUSH1 0x40 MLOAD PUSH32 0x8C379A000000000000000000000000000000000000000000000000000000000 DUP2 MSTORE PUSH1 0x4 ADD PUSH2 0x255 SWAP1 PUSH2 0x299F JUMP JUMPDEST PUSH1 0x40 MLOAD DUP1 SWAP2 SUB SWAP1 REVERT JUMPDEST DUP2 PUSH0 DUP1 DUP3 PUSH20 0xFFFFFFFFFFFFFFFFFFFFFFFFFFFFFFFFFFFFFFFF AND PUSH20 0xFFFFFFFFFFFFFFFFFFFFFFFFFFFFFFFFFFFFFFFF AND DUP2 MSTORE PUSH1 0x20 ADD SWAP1 DUP2 MSTORE PUSH1 0x20 ADD PUSH0 KECCAK256 PUSH1 0x3 ADD PUSH1 0x2 SWAP1 SLOAD SWAP1 PUSH2 0x100 EXP SWAP1 DIV PUSH1 0xFF AND ISZERO PUSH2 0x2EC JUMPI PUSH1 0x40 MLOAD PUSH32 0x8C379A000000000000000000000000000000000000000000000000000000000 DUP2 MSTORE PUSH1 0x4 ADD PUSH2 0x2E3 SWAP1 PUSH2 0x2A07 JUMP JUMPDEST PUSH1 0x40 MLOAD DUP1 SWAP2 SUB SWAP1 REVERT JUMPDEST PUSH0 PUSH1 0x1 PUSH0 DUP6 PUSH20 0xFFFFFFFFFFFFFFFFFFFFFFFFFFFFFFFFFFFFFFFF AND PUSH20 0xFFFFFFFFFFFFFFFFFFFFFFFFFFFFFFFFFFFFFFFF AND DUP2 MSTORE PUSH1 0x20 ADD SWAP1 DUP2 MSTORE PUSH1 0x20 ADD PUSH0 KECCAK256 SWAP1 POP PUSH0 DUP1 PUSH0 DUP7 PUSH20 0xFFFFFFFFFFFFFFFFFFFFFFFFFFFFFFFFFFFFFFFF AND PUSH20 0xFFFFFFFFFFFFFFFFFFFFFFFFFFFFFFFFFFFFFFFF AND DUP2 MSTORE PUSH1 0x20 ADD SWAP1 DUP2 MSTORE PUSH1 0x20 ADD PUSH0 KECCAK256 SWAP1 POP PUSH0 DUP3 PUSH0 ADD DUP1 SLOAD SWAP1 POP SWAP1 POP PUSH0 PUSH1 0x2 DUP3 PUSH2 0x383 SWAP2 SWAP1 PUSH2 0x2A7F JUMP JUMPDEST SWAP1 POP DUP1 DUP5 PUSH1 0x3 ADD SLOAD LT PUSH2 0x3E5 JUMPI PUSH1 0x1 DUP4 PUSH1 0x3 ADD PUSH1 0x1 PUSH2 0x100 EXP DUP2 SLOAD DUP2 PUSH1 0xFF MUL NOT AND SWAP1 DUP4 ISZERO ISZERO MUL OR SWAP1 SSTORE POP PUSH32 0xCA5145A860413368885BD057FA646C0895A34D43C6F7C897FC1954CF51C33045 DUP8 PUSH1 0x40 MLOAD PUSH2 0x3DC SWAP2 SWAP1 PUSH2 0x2AAF JUMP JUMPDEST PUSH1 0x40 MLOAD DUP1 SWAP2 SUB SWAP1 LOG1 JUMPDEST POP POP POP POP POP POP POP JUMP JUMPDEST PUSH1 0x1 PUSH1 0x20 MSTORE DUP1 PUSH0 MSTORE PUSH1 0x40 PUSH0 KECCAK256 PUSH0 SWAP2 POP SWAP1 POP DUP1 PUSH1 0x1 ADD PUSH0 SWAP1 SLOAD SWAP1 PUSH2 0x100 EXP SWAP1 DIV PUSH1 0xFF AND SWAP1 DUP1 PUSH1 0x1 ADD PUSH1 0x1 SWAP1 SLOAD SWAP1 PUSH2 0x100 EXP SWAP1 DIV PUSH1 0xFF AND SWAP1 DUP1 PUSH1 0x3 ADD SLOAD SWAP1 POP DUP4 JUMP JUMPDEST CALLER PUSH1 0x1 ISZERO ISZERO PUSH0 DUP1 DUP4 PUSH20 0xFFFFFFFFFFFFFFFFFFFFFFFFFFFFFFFFFFFFFFFF AND PUSH20 0xFFFFFFFFFFFFFFFFFFFFFFFFFFFFFFFFFFFFFFFF AND DUP2 MSTORE PUSH1 0x20 ADD SWAP1 DUP2 MSTORE PUSH1 0x20 ADD PUSH0 KECCAK256 PUSH1 0x3 ADD PUSH0 SWAP1 SLOAD SWAP1 PUSH2 0x100 EXP SWAP1 DIV PUSH1 0xFF AND ISZERO ISZERO EQ PUSH2 0x4C1 JUMPI PUSH1 0x40 MLOAD PUSH32 0x8C379A000000000000000000000000000000000000000000000000000000000 DUP2 MSTORE PUSH1 0x4 ADD PUSH2 0x4B8 SWAP1 PUSH2 0x299F JUMP JUMPDEST PUSH1 0x40 MLOAD DUP1 SWAP2 SUB SWAP1 REVERT JUMPDEST CALLER PUSH0 ISZERO ISZERO PUSH0 DUP1 DUP4 PUSH20 0xFFFFFFFFFFFFFFFFFFFFFFFFFFFFFFFFFFFFFFFF AND PUSH20 0xFFFFFFFFFFFFFFFFFFFFFFFFFFFFFFFFFFFFFFFF AND DUP2 MSTORE PUSH1 0x20 ADD SWAP1 DUP2 MSTORE PUSH1 0x20 ADD PUSH0 KECCAK256 PUSH1 0x3 ADD PUSH1 0x1 SWAP1 SLOAD SWAP1 PUSH2 0x100 EXP SWAP1 DIV PUSH1 0xFF AND ISZERO ISZERO EQ PUSH2 0x554 JUMPI PUSH1 0x40 MLOAD PUSH32 0x8C379A000000000000000000000000000000000000000000000000000000000 DUP2 MSTORE PUSH1 0x4 ADD PUSH2 0x54B SWAP1 PUSH2 0x2B38 JUMP JUMPDEST PUSH1 0x40 MLOAD DUP1 SWAP2 SUB SWAP1 REVERT JUMPDEST PUSH0 DUP1 PUSH0 CALLER PUSH20 0xFFFFFFFFFFFFFFFFFFFFFFFFFFFFFFFFFFFFFFFF AND PUSH20 0xFFFFFFFFFFFFFFFFFFFFFFFFFFFFFFFFFFFFFFFF AND DUP2 MSTORE PUSH1 0x20 ADD SWAP1 DUP2 MSTORE PUSH1 0x20 ADD PUSH0 KECCAK256 SWAP1 POP PUSH0 DUP1 DUP3 PUSH0 ADD PUSH0 SWAP1 SLOAD SWAP1 PUSH2 0x100 EXP SWAP1 DIV PUSH20 0xFFFFFFFFFFFFFFFFFFFFFFFFFFFFFFFFFFFFFFFF AND PUSH20 0xFFFFFFFFFFFFFFFFFFFFFFFFFFFFFFFFFFFFFFFF AND PUSH20 0xFFFFFFFFFFFFFFFFFFFFFFFFFFFFFFFFFFFFFFFF AND DUP2 MSTORE PUSH1 0x20 ADD SWAP1 DUP2 MSTORE PUSH1 0x20 ADD PUSH0 KECCAK256 PUSH0 DUP1 DUP3 ADD PUSH0 PUSH2 0x100 EXP DUP2 SLOAD SWAP1 PUSH20 0xFFFFFFFFFFFFFFFFFFFFFFFFFFFFFFFFFFFFFFFF MUL NOT AND SWAP1 SSTORE PUSH1 0x1 DUP3 ADD PUSH0 PUSH2 0x100 EXP DUP2 SLOAD SWAP1 PUSH20 0xFFFFFFFFFFFFFFFFFFFFFFFFFFFFFFFFFFFFFFFF MUL NOT AND SWAP1 SSTORE PUSH1 0x2 DUP3 ADD PUSH0 SWAP1 SSTORE PUSH1 0x3 DUP3 ADD PUSH0 PUSH2 0x100 EXP DUP2 SLOAD SWAP1 PUSH1 0xFF MUL NOT AND SWAP1 SSTORE PUSH1 0x3 DUP3 ADD PUSH1 0x1 PUSH2 0x100 EXP DUP2 SLOAD SWAP1 PUSH1 0xFF MUL NOT AND SWAP1 SSTORE PUSH1 0x3 DUP3 ADD PUSH1 0x2 PUSH2 0x100 EXP DUP2 SLOAD SWAP1 PUSH1 0xFF MUL NOT AND SWAP1 SSTORE PUSH1 0x3 DUP3 ADD PUSH1 0x3 PUSH2 0x100 EXP DUP2 SLOAD SWAP1 PUSH1 0xFF MUL NOT AND SWAP1 SSTORE PUSH1 0x3 DUP3 ADD PUSH1 0x4 PUSH2 0x100 EXP DUP2 SLOAD SWAP1 PUSH1 0xFF MUL NOT AND SWAP1 SSTORE POP POP PUSH0 DUP1 DUP3 PUSH1 0x1 ADD PUSH0 SWAP1 SLOAD SWAP1 PUSH2 0x100 EXP SWAP1 DIV PUSH20 0xFFFFFFFFFFFFFFFFFFFFFFFFFFFFFFFFFFFFFFFF AND PUSH20 0xFFFFFFFFFFFFFFFFFFFFFFFFFFFFFFFFFFFFFFFF AND PUSH20 0xFFFFFFFFFFFFFFFFFFFFFFFFFFFFFFFFFFFFFFFF AND DUP2 MSTORE PUSH1 0x20 ADD SWAP1 DUP2 MSTORE PUSH1 0x20 ADD PUSH0 KECCAK256 PUSH0 DUP1 DUP3 ADD PUSH0 PUSH2 0x100 EXP DUP2 SLOAD SWAP1 PUSH20 0xFFFFFFFFFFFFFFFFFFFFFFFFFFFFFFFFFFFFFFFF MUL NOT AND SWAP1 SSTORE PUSH1 0x1 DUP3 ADD PUSH0 PUSH2 0x100 EXP DUP2 SLOAD SWAP1 PUSH20 0xFFFFFFFFFFFFFFFFFFFFFFFFFFFFFFFFFFFFFFFF MUL NOT AND SWAP1 SSTORE PUSH1 0x2 DUP3 ADD PUSH0 SWAP1 SSTORE PUSH1 0x3 DUP3 ADD PUSH0 PUSH2 0x100 EXP DUP2 SLOAD SWAP1 PUSH1 0xFF MUL NOT AND SWAP1 SSTORE PUSH1 0x3 DUP3 ADD PUSH1 0x1 PUSH2 0x100 EXP DUP2 SLOAD SWAP1 PUSH1 0xFF MUL NOT AND SWAP1 SSTORE PUSH1 0x3 DUP3 ADD PUSH1 0x2 PUSH2 0x100 EXP DUP2 SLOAD SWAP1 PUSH1 0xFF MUL NOT AND SWAP1 SSTORE PUSH1 0x3 DUP3 ADD PUSH1 0x3 PUSH2 0x100 EXP DUP2 SLOAD SWAP1 PUSH1 0xFF MUL NOT AND SWAP1 SSTORE PUSH1 0x3 DUP3 ADD PUSH1 0x4 PUSH2 0x100 EXP DUP2 SLOAD SWAP1 PUSH1 0xFF MUL NOT AND SWAP1 SSTORE POP POP PUSH32 0x1271C287650062F685BD2F225144D7B6B046826A5A70632C8F873240D04A54C6 CALLER TIMESTAMP PUSH1 0x40 MLOAD PUSH2 0x7F1 SWAP3 SWAP2 SWAP1 PUSH2 0x2B56 JUMP JUMPDEST PUSH1 0x40 MLOAD DUP1 SWAP2 SUB SWAP1 LOG1 POP POP POP JUMP JUMPDEST CALLER PUSH1 0x1 ISZERO ISZERO PUSH0 DUP1 DUP4 PUSH20 0xFFFFFFFFFFFFFFFFFFFFFFFFFFFFFFFFFFFFFFFF AND PUSH20 0xFFFFFFFFFFFFFFFFFFFFFFFFFFFFFFFFFFFFFFFF AND DUP2 MSTORE PUSH1 0x20 ADD SWAP1 DUP2 MSTORE PUSH1 0x20 ADD PUSH0 KECCAK256 PUSH1 0x3 ADD PUSH0 SWAP1 SLOAD SWAP1 PUSH2 0x100 EXP SWAP1 DIV PUSH1 0xFF AND ISZERO ISZERO EQ PUSH2 0x891 JUMPI PUSH1 0x40 MLOAD PUSH32 0x8C379A000000000000000000000000000000000000000000000000000000000 DUP2 MSTORE PUSH1 0x4 ADD PUSH2 0x888 SWAP1 PUSH2 0x299F JUMP JUMPDEST PUSH1 0x40 MLOAD DUP1 SWAP2 SUB SWAP1 REVERT JUMPDEST CALLER PUSH0 ISZERO ISZERO PUSH0 DUP1 DUP4 PUSH20 0xFFFFFFFFFFFFFFFFFFFFFFFFFFFFFFFFFFFFFFFF AND PUSH20 0xFFFFFFFFFFFFFFFFFFFFFFFFFFFFFFFFFFFFFFFF AND DUP2 MSTORE PUSH1 0x20 ADD SWAP1 DUP2 MSTORE PUSH1 0x20 ADD PUSH0 KECCAK256 PUSH1 0x3 ADD PUSH1 0x1 SWAP1 SLOAD SWAP1 PUSH2 0x100 EXP SWAP1 DIV PUSH1 0xFF AND ISZERO ISZERO EQ PUSH2 0x924 JUMPI PUSH1 0x40 MLOAD PUSH32 0x8C379A000000000000000000000000000000000000000000000000000000000 DUP2 MSTORE PUSH1 0x4 ADD PUSH2 0x91B SWAP1 PUSH2 0x2B38 JUMP JUMPDEST PUSH1 0x40 MLOAD DUP1 SWAP2 SUB SWAP1 REVERT JUMPDEST CALLER PUSH0 DUP1 DUP3 PUSH20 0xFFFFFFFFFFFFFFFFFFFFFFFFFFFFFFFFFFFFFFFF AND PUSH20 0xFFFFFFFFFFFFFFFFFFFFFFFFFFFFFFFFFFFFFFFF AND DUP2 MSTORE PUSH1 0x20 ADD SWAP1 DUP2 MSTORE PUSH1 0x20 ADD PUSH0 KECCAK256 PUSH1 0x3 ADD PUSH1 0x2 SWAP1 SLOAD SWAP1 PUSH2 0x100 EXP SWAP1 DIV PUSH1 0xFF AND ISZERO PUSH2 0x9B2 JUMPI PUSH1 0x40 MLOAD PUSH32 0x8C379A000000000000000000000000000000000000000000000000000000000 DUP2 MSTORE PUSH1 0x4 ADD PUSH2 0x9A9 SWAP1 PUSH2 0x2A07 JUMP JUMPDEST PUSH1 0x40 MLOAD DUP1 SWAP2 SUB SWAP1 REVERT JUMPDEST PUSH0 DUP1 PUSH0 CALLER PUSH20 0xFFFFFFFFFFFFFFFFFFFFFFFFFFFFFFFFFFFFFFFF AND PUSH20 0xFFFFFFFFFFFFFFFFFFFFFFFFFFFFFFFFFFFFFFFF AND DUP2 MSTORE PUSH1 0x20 ADD SWAP1 DUP2 MSTORE PUSH1 0x20 ADD PUSH0 KECCAK256 SWAP1 POP DUP1 PUSH0 ADD PUSH0 SWAP1 SLOAD SWAP1 PUSH2 0x100 EXP SWAP1 DIV PUSH20 0xFFFFFFFFFFFFFFFFFFFFFFFFFFFFFFFFFFFFFFFF AND PUSH20 0xFFFFFFFFFFFFFFFFFFFFFFFFFFFFFFFFFFFFFFFF AND CALLER PUSH20 0xFFFFFFFFFFFFFFFFFFFFFFFFFFFFFFFFFFFFFFFF AND SUB PUSH2 0xA68 JUMPI PUSH1 0x1 DUP2 PUSH1 0x3 ADD PUSH1 0x3 PUSH2 0x100 EXP DUP2 SLOAD DUP2 PUSH1 0xFF MUL NOT AND SWAP1 DUP4 ISZERO ISZERO MUL OR SWAP1 SSTORE POP PUSH2 0xADD JUMP JUMPDEST DUP1 PUSH1 0x1 ADD PUSH0 SWAP1 SLOAD SWAP1 PUSH2 0x100 EXP SWAP1 DIV PUSH20 0xFFFFFFFFFFFFFFFFFFFFFFFFFFFFFFFFFFFFFFFF AND PUSH20 0xFFFFFFFFFFFFFFFFFFFFFFFFFFFFFFFFFFFFFFFF AND CALLER PUSH20 0xFFFFFFFFFFFFFFFFFFFFFFFFFFFFFFFFFFFFFFFF AND SUB PUSH2 0xADC JUMPI PUSH1 0x1 DUP2 PUSH1 0x3 ADD PUSH1 0x4 PUSH2 0x100 EXP DUP2 SLOAD DUP2 PUSH1 0xFF MUL NOT AND SWAP1 DUP4 ISZERO ISZERO MUL OR SWAP1 SSTORE POP JUMPDEST JUMPDEST DUP1 PUSH1 0x3 ADD PUSH1 0x3 SWAP1 SLOAD SWAP1 PUSH2 0x100 EXP SWAP1 DIV PUSH1 0xFF AND DUP1 ISZERO PUSH2 0xB09 JUMPI POP DUP1 PUSH1 0x3 ADD PUSH1 0x4 SWAP1 SLOAD SWAP1 PUSH2 0x100 EXP SWAP1 DIV PUSH1 0xFF AND JUMPDEST ISZERO PUSH2 0xBAA JUMPI PUSH1 0x1 DUP2 PUSH1 0x3 ADD PUSH1 0x2 PUSH2 0x100 EXP DUP2 SLOAD DUP2 PUSH1 0xFF MUL NOT AND SWAP1 DUP4 ISZERO ISZERO MUL OR SWAP1 SSTORE POP PUSH32 0x5C8EC7A25A142B043EE1D70B00B983786A266CED5B4E6B540DDC769276626819 DUP2 PUSH0 ADD PUSH0 SWAP1 SLOAD SWAP1 PUSH2 0x100 EXP SWAP1 DIV PUSH20 0xFFFFFFFFFFFFFFFFFFFFFFFFFFFFFFFFFFFFFFFF AND DUP3 PUSH1 0x1 ADD PUSH0 SWAP1 SLOAD SWAP1 PUSH2 0x100 EXP SWAP1 DIV PUSH20 0xFFFFFFFFFFFFFFFFFFFFFFFFFFFFFFFFFFFFFFFF AND PUSH1 0x40 MLOAD PUSH2 0xBA1 SWAP3 SWAP2 SWAP1 PUSH2 0x2B7D JUMP JUMPDEST PUSH1 0x40 MLOAD DUP1 SWAP2 SUB SWAP1 LOG1 JUMPDEST POP POP POP POP JUMP JUMPDEST CALLER PUSH1 0x1 ISZERO ISZERO PUSH0 DUP1 DUP4 PUSH20 0xFFFFFFFFFFFFFFFFFFFFFFFFFFFFFFFFFFFFFFFF AND PUSH20 0xFFFFFFFFFFFFFFFFFFFFFFFFFFFFFFFFFFFFFFFF AND DUP2 MSTORE PUSH1 0x20 ADD SWAP1 DUP2 MSTORE PUSH1 0x20 ADD PUSH0 KECCAK256 PUSH1 0x3 ADD PUSH0 SWAP1 SLOAD SWAP1 PUSH2 0x100 EXP SWAP1 DIV PUSH1 0xFF AND ISZERO ISZERO EQ PUSH2 0xC43 JUMPI PUSH1 0x40 MLOAD PUSH32 0x8C379A000000000000000000000000000000000000000000000000000000000 DUP2 MSTORE PUSH1 0x4 ADD PUSH2 0xC3A SWAP1 PUSH2 0x299F JUMP JUMPDEST PUSH1 0x40 MLOAD DUP1 SWAP2 SUB SWAP1 REVERT JUMPDEST CALLER PUSH0 DUP1 PUSH0 DUP4 PUSH20 0xFFFFFFFFFFFFFFFFFFFFFFFFFFFFFFFFFFFFFFFF AND PUSH20 0xFFFFFFFFFFFFFFFFFFFFFFFFFFFFFFFFFFFFFFFF AND DUP2 MSTORE PUSH1 0x20 ADD SWAP1 DUP2 MSTORE PUSH1 0x20 ADD PUSH0 KECCAK256 PUSH1 0x40 MLOAD DUP1 PUSH2 0x100 ADD PUSH1 0x40 MSTORE SWAP1 DUP2 PUSH0 DUP3 ADD PUSH0 SWAP1 SLOAD SWAP1 PUSH2 0x100 EXP SWAP1 DIV PUSH20 0xFFFFFFFFFFFFFFFFFFFFFFFFFFFFFFFFFFFFFFFF AND PUSH20 0xFFFFFFFFFFFFFFFFFFFFFFFFFFFFFFFFFFFFFFFF AND PUSH20 0xFFFFFFFFFFFFFFFFFFFFFFFFFFFFFFFFFFFFFFFF AND DUP2 MSTORE PUSH1 0x20 ADD PUSH1 0x1 DUP3 ADD PUSH0 SWAP1 SLOAD SWAP1 PUSH2 0x100 EXP SWAP1 DIV PUSH20 0xFFFFFFFFFFFFFFFFFFFFFFFFFFFFFFFFFFFFFFFF AND PUSH20 0xFFFFFFFFFFFFFFFFFFFFFFFFFFFFFFFFFFFFFFFF AND PUSH20 0xFFFFFFFFFFFFFFFFFFFFFFFFFFFFFFFFFFFFFFFF AND DUP2 MSTORE PUSH1 0x20 ADD PUSH1 0x2 DUP3 ADD SLOAD DUP2 MSTORE PUSH1 0x20 ADD PUSH1 0x3 DUP3 ADD PUSH0 SWAP1 SLOAD SWAP1 PUSH2 0x100 EXP SWAP1 DIV PUSH1 0xFF AND ISZERO ISZERO ISZERO ISZERO DUP2 MSTORE PUSH1 0x20 ADD PUSH1 0x3 DUP3 ADD PUSH1 0x1 SWAP1 SLOAD SWAP1 PUSH2 0x100 EXP SWAP1 DIV PUSH1 0xFF AND ISZERO ISZERO ISZERO ISZERO DUP2 MSTORE PUSH1 0x20 ADD PUSH1 0x3 DUP3 ADD PUSH1 0x2 SWAP1 SLOAD SWAP1 PUSH2 0x100 EXP SWAP1 DIV PUSH1 0xFF AND ISZERO ISZERO ISZERO ISZERO DUP2 MSTORE PUSH1 0x20 ADD PUSH1 0x3 DUP3 ADD PUSH1 0x3 SWAP1 SLOAD SWAP1 PUSH2 0x100 EXP SWAP1 DIV PUSH1 0xFF AND ISZERO ISZERO ISZERO ISZERO DUP2 MSTORE PUSH1 0x20 ADD PUSH1 0x3 DUP3 ADD PUSH1 0x4 SWAP1 SLOAD SWAP1 PUSH2 0x100 EXP SWAP1 DIV PUSH1 0xFF AND ISZERO ISZERO ISZERO ISZERO DUP2 MSTORE POP POP SWAP1 POP DUP1 PUSH0 ADD MLOAD PUSH20 0xFFFFFFFFFFFFFFFFFFFFFFFFFFFFFFFFFFFFFFFF AND CALLER PUSH20 0xFFFFFFFFFFFFFFFFFFFFFFFFFFFFFFFFFFFFFFFF AND EQ DUP1 PUSH2 0xE34 JUMPI POP DUP1 PUSH1 0x20 ADD MLOAD PUSH20 0xFFFFFFFFFFFFFFFFFFFFFFFFFFFFFFFFFFFFFFFF AND CALLER PUSH20 0xFFFFFFFFFFFFFFFFFFFFFFFFFFFFFFFFFFFFFFFF AND EQ JUMPDEST PUSH2 0xE73 JUMPI PUSH1 0x40 MLOAD PUSH32 0x8C379A000000000000000000000000000000000000000000000000000000000 DUP2 MSTORE PUSH1 0x4 ADD PUSH2 0xE6A SWAP1 PUSH2 0x2C14 JUMP JUMPDEST PUSH1 0x40 MLOAD DUP1 SWAP2 SUB SWAP1 REVERT JUMPDEST PUSH0 DUP1 PUSH0 CALLER PUSH20 0xFFFFFFFFFFFFFFFFFFFFFFFFFFFFFFFFFFFFFFFF AND PUSH20 0xFFFFFFFFFFFFFFFFFFFFFFFFFFFFFFFFFFFFFFFF AND DUP2 MSTORE PUSH1 0x20 ADD SWAP1 DUP2 MSTORE PUSH1 0x20 ADD PUSH0 KECCAK256 PUSH1 0x40 MLOAD DUP1 PUSH2 0x100 ADD PUSH1 0x40 MSTORE SWAP1 DUP2 PUSH0 DUP3 ADD PUSH0 SWAP1 SLOAD SWAP1 PUSH2 0x100 EXP SWAP1 DIV PUSH20 0xFFFFFFFFFFFFFFFFFFFFFFFFFFFFFFFFFFFFFFFF AND PUSH20 0xFFFFFFFFFFFFFFFFFFFFFFFFFFFFFFFFFFFFFFFF AND PUSH20 0xFFFFFFFFFFFFFFFFFFFFFFFFFFFFFFFFFFFFFFFF AND DUP2 MSTORE PUSH1 0x20 ADD PUSH1 0x1 DUP3 ADD PUSH0 SWAP1 SLOAD SWAP1 PUSH2 0x100 EXP SWAP1 DIV PUSH20 0xFFFFFFFFFFFFFFFFFFFFFFFFFFFFFFFFFFFFFFFF AND PUSH20 0xFFFFFFFFFFFFFFFFFFFFFFFFFFFFFFFFFFFFFFFF AND PUSH20 0xFFFFFFFFFFFFFFFFFFFFFFFFFFFFFFFFFFFFFFFF AND DUP2 MSTORE PUSH1 0x20 ADD PUSH1 0x2 DUP3 ADD SLOAD DUP2 MSTORE PUSH1 0x20 ADD PUSH1 0x3 DUP3 ADD PUSH0 SWAP1 SLOAD SWAP1 PUSH2 0x100 EXP SWAP1 DIV PUSH1 0xFF AND ISZERO ISZERO ISZERO ISZERO DUP2 MSTORE PUSH1 0x20 ADD PUSH1 0x3 DUP3 ADD PUSH1 0x1 SWAP1 SLOAD SWAP1 PUSH2 0x100 EXP SWAP1 DIV PUSH1 0xFF AND ISZERO ISZERO ISZERO ISZERO DUP2 MSTORE PUSH1 0x20 ADD PUSH1 0x3 DUP3 ADD PUSH1 0x2 SWAP1 SLOAD SWAP1 PUSH2 0x100 EXP SWAP1 DIV PUSH1 0xFF AND ISZERO ISZERO ISZERO ISZERO DUP2 MSTORE PUSH1 0x20 ADD PUSH1 0x3 DUP3 ADD PUSH1 0x3 SWAP1 SLOAD SWAP1 PUSH2 0x100 EXP SWAP1 DIV PUSH1 0xFF AND ISZERO ISZERO ISZERO ISZERO DUP2 MSTORE PUSH1 0x20 ADD PUSH1 0x3 DUP3 ADD PUSH1 0x4 SWAP1 SLOAD SWAP1 PUSH2 0x100 EXP SWAP1 DIV PUSH1 0xFF AND ISZERO ISZERO ISZERO ISZERO DUP2 MSTORE POP POP SWAP1 POP DUP6 DUP6 PUSH1 0x1 PUSH0 DUP5 PUSH0 ADD MLOAD PUSH20 0xFFFFFFFFFFFFFFFFFFFFFFFFFFFFFFFFFFFFFFFF AND PUSH20 0xFFFFFFFFFFFFFFFFFFFFFFFFFFFFFFFFFFFFFFFF AND DUP2 MSTORE PUSH1 0x20 ADD SWAP1 DUP2 MSTORE PUSH1 0x20 ADD PUSH0 KECCAK256 PUSH0 ADD SWAP2 SWAP1 PUSH2 0x1048 SWAP3 SWAP2 SWAP1 PUSH2 0x25A9 JUMP JUMPDEST POP PUSH0 PUSH1 0x1 PUSH0 DUP4 PUSH0 ADD MLOAD PUSH20 0xFFFFFFFFFFFFFFFFFFFFFFFFFFFFFFFFFFFFFFFF AND PUSH20 0xFFFFFFFFFFFFFFFFFFFFFFFFFFFFFFFFFFFFFFFF AND DUP2 MSTORE PUSH1 0x20 ADD SWAP1 DUP2 MSTORE PUSH1 0x20 ADD PUSH0 KECCAK256 PUSH1 0x1 ADD PUSH0 PUSH2 0x100 EXP DUP2 SLOAD DUP2 PUSH1 0xFF MUL NOT AND SWAP1 DUP4 ISZERO ISZERO MUL OR SWAP1 SSTORE POP PUSH0 PUSH1 0x1 PUSH0 DUP4 PUSH0 ADD MLOAD PUSH20 0xFFFFFFFFFFFFFFFFFFFFFFFFFFFFFFFFFFFFFFFF AND PUSH20 0xFFFFFFFFFFFFFFFFFFFFFFFFFFFFFFFFFFFFFFFF AND DUP2 MSTORE PUSH1 0x20 ADD SWAP1 DUP2 MSTORE PUSH1 0x20 ADD PUSH0 KECCAK256 PUSH1 0x1 ADD PUSH1 0x1 PUSH2 0x100 EXP DUP2 SLOAD DUP2 PUSH1 0xFF MUL NOT AND SWAP1 DUP4 ISZERO ISZERO MUL OR SWAP1 SSTORE POP PUSH32 0x402F0CDBBD3E7BDBD2C1FC4D920FA1EE7A733238220198DF262284A1259D0BE6 CALLER DUP8 DUP8 PUSH1 0x40 MLOAD PUSH2 0x1131 SWAP4 SWAP3 SWAP2 SWAP1 PUSH2 0x2CEE JUMP JUMPDEST PUSH1 0x40 MLOAD DUP1 SWAP2 SUB SWAP1 LOG1 POP POP POP POP POP POP JUMP JUMPDEST CALLER DUP3 PUSH0 ISZERO ISZERO PUSH0 DUP1 DUP5 PUSH20 0xFFFFFFFFFFFFFFFFFFFFFFFFFFFFFFFFFFFFFFFF AND PUSH20 0xFFFFFFFFFFFFFFFFFFFFFFFFFFFFFFFFFFFFFFFF AND DUP2 MSTORE PUSH1 0x20 ADD SWAP1 DUP2 MSTORE PUSH1 0x20 ADD PUSH0 KECCAK256 PUSH1 0x3 ADD PUSH0 SWAP1 SLOAD SWAP1 PUSH2 0x100 EXP SWAP1 DIV PUSH1 0xFF AND ISZERO ISZERO EQ DUP1 ISZERO PUSH2 0x11EF JUMPI POP PUSH0 ISZERO ISZERO PUSH0 DUP1 DUP4 PUSH20 0xFFFFFFFFFFFFFFFFFFFFFFFFFFFFFFFFFFFFFFFF AND PUSH20 0xFFFFFFFFFFFFFFFFFFFFFFFFFFFFFFFFFFFFFFFF AND DUP2 MSTORE PUSH1 0x20 ADD SWAP1 DUP2 MSTORE PUSH1 0x20 ADD PUSH0 KECCAK256 PUSH1 0x3 ADD PUSH0 SWAP1 SLOAD SWAP1 PUSH2 0x100 EXP SWAP1 DIV PUSH1 0xFF AND ISZERO ISZERO EQ JUMPDEST PUSH2 0x122E JUMPI PUSH1 0x40 MLOAD PUSH32 0x8C379A000000000000000000000000000000000000000000000000000000000 DUP2 MSTORE PUSH1 0x4 ADD PUSH2 0x1225 SWAP1 PUSH2 0x2D8E JUMP JUMPDEST PUSH1 0x40 MLOAD DUP1 SWAP2 SUB SWAP1 REVERT JUMPDEST DUP3 TIMESTAMP DUP2 GT PUSH2 0x1271 JUMPI PUSH1 0x40 MLOAD PUSH32 0x8C379A000000000000000000000000000000000000000000000000000000000 DUP2 MSTORE PUSH1 0x4 ADD PUSH2 0x1268 SWAP1 PUSH2 0x2DF6 JUMP JUMPDEST PUSH1 0x40 MLOAD DUP1 SWAP2 SUB SWAP1 REVERT JUMPDEST PUSH0 PUSH1 0x40 MLOAD DUP1 PUSH2 0x100 ADD PUSH1 0x40 MSTORE DUP1 CALLER PUSH20 0xFFFFFFFFFFFFFFFFFFFFFFFFFFFFFFFFFFFFFFFF AND DUP2 MSTORE PUSH1 0x20 ADD DUP8 PUSH20 0xFFFFFFFFFFFFFFFFFFFFFFFFFFFFFFFFFFFFFFFF AND DUP2 MSTORE PUSH1 0x20 ADD DUP7 DUP2 MSTORE PUSH1 0x20 ADD PUSH1 0x1 ISZERO ISZERO DUP2 MSTORE PUSH1 0x20 ADD PUSH0 ISZERO ISZERO DUP2 MSTORE PUSH1 0x20 ADD PUSH0 ISZERO ISZERO DUP2 MSTORE PUSH1 0x20 ADD PUSH0 ISZERO ISZERO DUP2 MSTORE PUSH1 0x20 ADD PUSH0 ISZERO ISZERO DUP2 MSTORE POP SWAP1 POP DUP1 PUSH0 DUP1 CALLER PUSH20 0xFFFFFFFFFFFFFFFFFFFFFFFFFFFFFFFFFFFFFFFF AND PUSH20 0xFFFFFFFFFFFFFFFFFFFFFFFFFFFFFFFFFFFFFFFF AND DUP2 MSTORE PUSH1 0x20 ADD SWAP1 DUP2 MSTORE PUSH1 0x20 ADD PUSH0 KECCAK256 PUSH0 DUP3 ADD MLOAD DUP2 PUSH0 ADD PUSH0 PUSH2 0x100 EXP DUP2 SLOAD DUP2 PUSH20 0xFFFFFFFFFFFFFFFFFFFFFFFFFFFFFFFFFFFFFFFF MUL NOT AND SWAP1 DUP4 PUSH20 0xFFFFFFFFFFFFFFFFFFFFFFFFFFFFFFFFFFFFFFFF AND MUL OR SWAP1 SSTORE POP PUSH1 0x20 DUP3 ADD MLOAD DUP2 PUSH1 0x1 ADD PUSH0 PUSH2 0x100 EXP DUP2 SLOAD DUP2 PUSH20 0xFFFFFFFFFFFFFFFFFFFFFFFFFFFFFFFFFFFFFFFF MUL NOT AND SWAP1 DUP4 PUSH20 0xFFFFFFFFFFFFFFFFFFFFFFFFFFFFFFFFFFFFFFFF AND MUL OR SWAP1 SSTORE POP PUSH1 0x40 DUP3 ADD MLOAD DUP2 PUSH1 0x2 ADD SSTORE PUSH1 0x60 DUP3 ADD MLOAD DUP2 PUSH1 0x3 ADD PUSH0 PUSH2 0x100 EXP DUP2 SLOAD DUP2 PUSH1 0xFF MUL NOT AND SWAP1 DUP4 ISZERO ISZERO MUL OR SWAP1 SSTORE POP PUSH1 0x80 DUP3 ADD MLOAD DUP2 PUSH1 0x3 ADD PUSH1 0x1 PUSH2 0x100 EXP DUP2 SLOAD DUP2 PUSH1 0xFF MUL NOT AND SWAP1 DUP4 ISZERO ISZERO MUL OR SWAP1 SSTORE POP PUSH1 0xA0 DUP3 ADD MLOAD DUP2 PUSH1 0x3 ADD PUSH1 0x2 PUSH2 0x100 EXP DUP2 SLOAD DUP2 PUSH1 0xFF MUL NOT AND SWAP1 DUP4 ISZERO ISZERO MUL OR SWAP1 SSTORE POP PUSH1 0xC0 DUP3 ADD MLOAD DUP2 PUSH1 0x3 ADD PUSH1 0x3 PUSH2 0x100 EXP DUP2 SLOAD DUP2 PUSH1 0xFF MUL NOT AND SWAP1 DUP4 ISZERO ISZERO MUL OR SWAP1 SSTORE POP PUSH1 0xE0 DUP3 ADD MLOAD DUP2 PUSH1 0x3 ADD PUSH1 0x4 PUSH2 0x100 EXP DUP2 SLOAD DUP2 PUSH1 0xFF MUL NOT AND SWAP1 DUP4 ISZERO ISZERO MUL OR SWAP1 SSTORE POP SWAP1 POP POP DUP1 PUSH0 DUP1 DUP9 PUSH20 0xFFFFFFFFFFFFFFFFFFFFFFFFFFFFFFFFFFFFFFFF AND PUSH20 0xFFFFFFFFFFFFFFFFFFFFFFFFFFFFFFFFFFFFFFFF AND DUP2 MSTORE PUSH1 0x20 ADD SWAP1 DUP2 MSTORE PUSH1 0x20 ADD PUSH0 KECCAK256 PUSH0 DUP3 ADD MLOAD DUP2 PUSH0 ADD PUSH0 PUSH2 0x100 EXP DUP2 SLOAD DUP2 PUSH20 0xFFFFFFFFFFFFFFFFFFFFFFFFFFFFFFFFFFFFFFFF MUL NOT AND SWAP1 DUP4 PUSH20 0xFFFFFFFFFFFFFFFFFFFFFFFFFFFFFFFFFFFFFFFF AND MUL OR SWAP1 SSTORE POP PUSH1 0x20 DUP3 ADD MLOAD DUP2 PUSH1 0x1 ADD PUSH0 PUSH2 0x100 EXP DUP2 SLOAD DUP2 PUSH20 0xFFFFFFFFFFFFFFFFFFFFFFFFFFFFFFFFFFFFFFFF MUL NOT AND SWAP1 DUP4 PUSH20 0xFFFFFFFFFFFFFFFFFFFFFFFFFFFFFFFFFFFFFFFF AND MUL OR SWAP1 SSTORE POP PUSH1 0x40 DUP3 ADD MLOAD DUP2 PUSH1 0x2 ADD SSTORE PUSH1 0x60 DUP3 ADD MLOAD DUP2 PUSH1 0x3 ADD PUSH0 PUSH2 0x100 EXP DUP2 SLOAD DUP2 PUSH1 0xFF MUL NOT AND SWAP1 DUP4 ISZERO ISZERO MUL OR SWAP1 SSTORE POP PUSH1 0x80 DUP3 ADD MLOAD DUP2 PUSH1 0x3 ADD PUSH1 0x1 PUSH2 0x100 EXP DUP2 SLOAD DUP2 PUSH1 0xFF MUL NOT AND SWAP1 DUP4 ISZERO ISZERO MUL OR SWAP1 SSTORE POP PUSH1 0xA0 DUP3 ADD MLOAD DUP2 PUSH1 0x3 ADD PUSH1 0x2 PUSH2 0x100 EXP DUP2 SLOAD DUP2 PUSH1 0xFF MUL NOT AND SWAP1 DUP4 ISZERO ISZERO MUL OR SWAP1 SSTORE POP PUSH1 0xC0 DUP3 ADD MLOAD DUP2 PUSH1 0x3 ADD PUSH1 0x3 PUSH2 0x100 EXP DUP2 SLOAD DUP2 PUSH1 0xFF MUL NOT AND SWAP1 DUP4 ISZERO ISZERO MUL OR SWAP1 SSTORE POP PUSH1 0xE0 DUP3 ADD MLOAD DUP2 PUSH1 0x3 ADD PUSH1 0x4 PUSH2 0x100 EXP DUP2 SLOAD DUP2 PUSH1 0xFF MUL NOT AND SWAP1 DUP4 ISZERO ISZERO MUL OR SWAP1 SSTORE POP SWAP1 POP POP PUSH32 0x7A7F38BE04AFB87E39B4CB52BEC76C69C4D999F605BD21054B71A3F2DC085821 CALLER DUP8 DUP8 PUSH1 0x40 MLOAD PUSH2 0x15FE SWAP4 SWAP3 SWAP2 SWAP1 PUSH2 0x2E14 JUMP JUMPDEST PUSH1 0x40 MLOAD DUP1 SWAP2 SUB SWAP1 LOG1 POP POP POP POP POP POP JUMP JUMPDEST DUP1 PUSH1 0x1 ISZERO ISZERO PUSH0 DUP1 DUP4 PUSH20 0xFFFFFFFFFFFFFFFFFFFFFFFFFFFFFFFFFFFFFFFF AND PUSH20 0xFFFFFFFFFFFFFFFFFFFFFFFFFFFFFFFFFFFFFFFF AND DUP2 MSTORE PUSH1 0x20 ADD SWAP1 DUP2 MSTORE PUSH1 0x20 ADD PUSH0 KECCAK256 PUSH1 0x3 ADD PUSH0 SWAP1 SLOAD SWAP1 PUSH2 0x100 EXP SWAP1 DIV PUSH1 0xFF AND ISZERO ISZERO EQ PUSH2 0x16A1 JUMPI PUSH1 0x40 MLOAD PUSH32 0x8C379A000000000000000000000000000000000000000000000000000000000 DUP2 MSTORE PUSH1 0x4 ADD PUSH2 0x1698 SWAP1 PUSH2 0x299F JUMP JUMPDEST PUSH1 0x40 MLOAD DUP1 SWAP2 SUB SWAP1 REVERT JUMPDEST DUP2 PUSH0 DUP1 PUSH0 DUP4 PUSH20 0xFFFFFFFFFFFFFFFFFFFFFFFFFFFFFFFFFFFFFFFF AND PUSH20 0xFFFFFFFFFFFFFFFFFFFFFFFFFFFFFFFFFFFFFFFF AND DUP2 MSTORE PUSH1 0x20 ADD SWAP1 DUP2 MSTORE PUSH1 0x20 ADD PUSH0 KECCAK256 PUSH1 0x40 MLOAD DUP1 PUSH2 0x100 ADD PUSH1 0x40 MSTORE SWAP1 DUP2 PUSH0 DUP3 ADD PUSH0 SWAP1 SLOAD SWAP1 PUSH2 0x100 EXP SWAP1 DIV PUSH20 0xFFFFFFFFFFFFFFFFFFFFFFFFFFFFFFFFFFFFFFFF AND PUSH20 0xFFFFFFFFFFFFFFFFFFFFFFFFFFFFFFFFFFFFFFFF AND PUSH20 0xFFFFFFFFFFFFFFFFFFFFFFFFFFFFFFFFFFFFFFFF AND DUP2 MSTORE PUSH1 0x20 ADD PUSH1 0x1 DUP3 ADD PUSH0 SWAP1 SLOAD SWAP1 PUSH2 0x100 EXP SWAP1 DIV PUSH20 0xFFFFFFFFFFFFFFFFFFFFFFFFFFFFFFFFFFFFFFFF AND PUSH20 0xFFFFFFFFFFFFFFFFFFFFFFFFFFFFFFFFFFFFFFFF AND PUSH20 0xFFFFFFFFFFFFFFFFFFFFFFFFFFFFFFFFFFFFFFFF AND DUP2 MSTORE PUSH1 0x20 ADD PUSH1 0x2 DUP3 ADD SLOAD DUP2 MSTORE PUSH1 0x20 ADD PUSH1 0x3 DUP3 ADD PUSH0 SWAP1 SLOAD SWAP1 PUSH2 0x100 EXP SWAP1 DIV PUSH1 0xFF AND ISZERO ISZERO ISZERO ISZERO DUP2 MSTORE PUSH1 0x20 ADD PUSH1 0x3 DUP3 ADD PUSH1 0x1 SWAP1 SLOAD SWAP1 PUSH2 0x100 EXP SWAP1 DIV PUSH1 0xFF AND ISZERO ISZERO ISZERO ISZERO DUP2 MSTORE PUSH1 0x20 ADD PUSH1 0x3 DUP3 ADD PUSH1 0x2 SWAP1 SLOAD SWAP1 PUSH2 0x100 EXP SWAP1 DIV PUSH1 0xFF AND ISZERO ISZERO ISZERO ISZERO DUP2 MSTORE PUSH1 0x20 ADD PUSH1 0x3 DUP3 ADD PUSH1 0x3 SWAP1 SLOAD SWAP1 PUSH2 0x100 EXP SWAP1 DIV PUSH1 0xFF AND ISZERO ISZERO ISZERO ISZERO DUP2 MSTORE PUSH1 0x20 ADD PUSH1 0x3 DUP3 ADD PUSH1 0x4 SWAP1 SLOAD SWAP1 PUSH2 0x100 EXP SWAP1 DIV PUSH1 0xFF AND ISZERO ISZERO ISZERO ISZERO DUP2 MSTORE POP POP SWAP1 POP PUSH3 0x15180 DUP2 PUSH1 0x40 ADD MLOAD PUSH2 0x1839 SWAP2 SWAP1 PUSH2 0x2E49 JUMP JUMPDEST TIMESTAMP LT ISZERO PUSH2 0x187B JUMPI PUSH1 0x40 MLOAD PUSH32 0x8C379A000000000000000000000000000000000000000000000000000000000 DUP2 MSTORE PUSH1 0x4 ADD PUSH2 0x1872 SWAP1 PUSH2 0x2EC6 JUMP JUMPDEST PUSH1 0x40 MLOAD DUP1 SWAP2 SUB SWAP1 REVERT JUMPDEST DUP1 PUSH1 0x40 ADD MLOAD TIMESTAMP LT PUSH2 0x18C1 JUMPI PUSH1 0x40 MLOAD PUSH32 0x8C379A000000000000000000000000000000000000000000000000000000000 DUP2 MSTORE PUSH1 0x4 ADD PUSH2 0x18B8 SWAP1 PUSH2 0x2F2E JUMP JUMPDEST PUSH1 0x40 MLOAD DUP1 SWAP2 SUB SWAP1 REVERT JUMPDEST DUP4 PUSH0 ISZERO ISZERO PUSH0 DUP1 DUP4 PUSH20 0xFFFFFFFFFFFFFFFFFFFFFFFFFFFFFFFFFFFFFFFF AND PUSH20 0xFFFFFFFFFFFFFFFFFFFFFFFFFFFFFFFFFFFFFFFF AND DUP2 MSTORE PUSH1 0x20 ADD SWAP1 DUP2 MSTORE PUSH1 0x20 ADD PUSH0 KECCAK256 PUSH1 0x3 ADD PUSH1 0x1 SWAP1 SLOAD SWAP1 PUSH2 0x100 EXP SWAP1 DIV PUSH1 0xFF AND ISZERO ISZERO EQ PUSH2 0x1954 JUMPI PUSH1 0x40 MLOAD PUSH32 0x8C379A000000000000000000000000000000000000000000000000000000000 DUP2 MSTORE PUSH1 0x4 ADD PUSH2 0x194B SWAP1 PUSH2 0x2B38 JUMP JUMPDEST PUSH1 0x40 MLOAD DUP1 SWAP2 SUB SWAP1 REVERT JUMPDEST DUP5 PUSH0 DUP1 DUP3 PUSH20 0xFFFFFFFFFFFFFFFFFFFFFFFFFFFFFFFFFFFFFFFF AND PUSH20 0xFFFFFFFFFFFFFFFFFFFFFFFFFFFFFFFFFFFFFFFF AND DUP2 MSTORE PUSH1 0x20 ADD SWAP1 DUP2 MSTORE PUSH1 0x20 ADD PUSH0 KECCAK256 PUSH1 0x3 ADD PUSH1 0x2 SWAP1 SLOAD SWAP1 PUSH2 0x100 EXP SWAP1 DIV PUSH1 0xFF AND ISZERO PUSH2 0x19E2 JUMPI PUSH1 0x40 MLOAD PUSH32 0x8C379A000000000000000000000000000000000000000000000000000000000 DUP2 MSTORE PUSH1 0x4 ADD PUSH2 0x19D9 SWAP1 PUSH2 0x2A07 JUMP JUMPDEST PUSH1 0x40 MLOAD DUP1 SWAP2 SUB SWAP1 REVERT JUMPDEST DUP6 PUSH2 0x19ED DUP2 CALLER PUSH2 0x2486 JUMP JUMPDEST PUSH2 0x1A2C JUMPI PUSH1 0x40 MLOAD PUSH32 0x8C379A000000000000000000000000000000000000000000000000000000000 DUP2 MSTORE PUSH1 0x4 ADD PUSH2 0x1A23 SWAP1 PUSH2 0x2F96 JUMP JUMPDEST PUSH1 0x40 MLOAD DUP1 SWAP2 SUB SWAP1 REVERT JUMPDEST DUP7 PUSH1 0x1 PUSH0 DUP3 PUSH20 0xFFFFFFFFFFFFFFFFFFFFFFFFFFFFFFFFFFFFFFFF AND PUSH20 0xFFFFFFFFFFFFFFFFFFFFFFFFFFFFFFFFFFFFFFFF AND DUP2 MSTORE PUSH1 0x20 ADD SWAP1 DUP2 MSTORE PUSH1 0x20 ADD PUSH0 KECCAK256 PUSH1 0x2 ADD PUSH0 CALLER PUSH20 0xFFFFFFFFFFFFFFFFFFFFFFFFFFFFFFFFFFFFFFFF AND PUSH20 0xFFFFFFFFFFFFFFFFFFFFFFFFFFFFFFFFFFFFFFFF AND DUP2 MSTORE PUSH1 0x20 ADD SWAP1 DUP2 MSTORE PUSH1 0x20 ADD PUSH0 KECCAK256 PUSH0 SWAP1 SLOAD SWAP1 PUSH2 0x100 EXP SWAP1 DIV PUSH1 0xFF AND ISZERO PUSH2 0x1AF5 JUMPI PUSH1 0x40 MLOAD PUSH32 0x8C379A000000000000000000000000000000000000000000000000000000000 DUP2 MSTORE PUSH1 0x4 ADD PUSH2 0x1AEC SWAP1 PUSH2 0x2FFE JUMP JUMPDEST PUSH1 0x40 MLOAD DUP1 SWAP2 SUB SWAP1 REVERT JUMPDEST PUSH0 PUSH1 0x1 PUSH0 DUP11 PUSH20 0xFFFFFFFFFFFFFFFFFFFFFFFFFFFFFFFFFFFFFFFF AND PUSH20 0xFFFFFFFFFFFFFFFFFFFFFFFFFFFFFFFFFFFFFFFF AND DUP2 MSTORE PUSH1 0x20 ADD SWAP1 DUP2 MSTORE PUSH1 0x20 ADD PUSH0 KECCAK256 SWAP1 POP PUSH1 0x1 DUP2 PUSH1 0x2 ADD PUSH0 CALLER PUSH20 0xFFFFFFFFFFFFFFFFFFFFFFFFFFFFFFFFFFFFFFFF AND PUSH20 0xFFFFFFFFFFFFFFFFFFFFFFFFFFFFFFFFFFFFFFFF AND DUP2 MSTORE PUSH1 0x20 ADD SWAP1 DUP2 MSTORE PUSH1 0x20 ADD PUSH0 KECCAK256 PUSH0 PUSH2 0x100 EXP DUP2 SLOAD DUP2 PUSH1 0xFF MUL NOT AND SWAP1 DUP4 ISZERO ISZERO MUL OR SWAP1 SSTORE POP DUP1 PUSH1 0x3 ADD PUSH0 DUP2 SLOAD DUP1 SWAP3 SWAP2 SWAP1 PUSH2 0x1BA0 SWAP1 PUSH2 0x301C JUMP JUMPDEST SWAP2 SWAP1 POP SSTORE POP PUSH32 0xA9862C5F43CACA0B960B097A111CE8C3752D27DF0E0F1F170B4A06A823E612B1 CALLER DUP11 PUSH1 0x40 MLOAD PUSH2 0x1BD6 SWAP3 SWAP2 SWAP1 PUSH2 0x2B7D JUMP JUMPDEST PUSH1 0x40 MLOAD DUP1 SWAP2 SUB SWAP1 LOG1 POP POP POP POP POP POP POP POP POP JUMP JUMPDEST PUSH0 PUSH1 0x20 MSTORE DUP1 PUSH0 MSTORE PUSH1 0x40 PUSH0 KECCAK256 PUSH0 SWAP2 POP SWAP1 POP DUP1 PUSH0 ADD PUSH0 SWAP1 SLOAD SWAP1 PUSH2 0x100 EXP SWAP1 DIV PUSH20 0xFFFFFFFFFFFFFFFFFFFFFFFFFFFFFFFFFFFFFFFF AND SWAP1 DUP1 PUSH1 0x1 ADD PUSH0 SWAP1 SLOAD SWAP1 PUSH2 0x100 EXP SWAP1 DIV PUSH20 0xFFFFFFFFFFFFFFFFFFFFFFFFFFFFFFFFFFFFFFFF AND SWAP1 DUP1 PUSH1 0x2 ADD SLOAD SWAP1 DUP1 PUSH1 0x3 ADD PUSH0 SWAP1 SLOAD SWAP1 PUSH2 0x100 EXP SWAP1 DIV PUSH1 0xFF AND SWAP1 DUP1 PUSH1 0x3 ADD PUSH1 0x1 SWAP1 SLOAD SWAP1 PUSH2 0x100 EXP SWAP1 DIV PUSH1 0xFF AND SWAP1 DUP1 PUSH1 0x3 ADD PUSH1 0x2 SWAP1 SLOAD SWAP1 PUSH2 0x100 EXP SWAP1 DIV PUSH1 0xFF AND SWAP1 DUP1 PUSH1 0x3 ADD PUSH1 0x3 SWAP1 SLOAD SWAP1 PUSH2 0x100 EXP SWAP1 DIV PUSH1 0xFF AND SWAP1 DUP1 PUSH1 0x3 ADD PUSH1 0x4 SWAP1 SLOAD SWAP1 PUSH2 0x100 EXP SWAP1 DIV PUSH1 0xFF AND SWAP1 POP DUP9 JUMP JUMPDEST PUSH0 DUP1 PUSH0 DUP1 PUSH0 DUP1 PUSH0 DUP1 DUP9 PUSH20 0xFFFFFFFFFFFFFFFFFFFFFFFFFFFFFFFFFFFFFFFF AND PUSH20 0xFFFFFFFFFFFFFFFFFFFFFFFFFFFFFFFFFFFFFFFF AND DUP2 MSTORE PUSH1 0x20 ADD SWAP1 DUP2 MSTORE PUSH1 0x20 ADD PUSH0 KECCAK256 PUSH1 0x40 MLOAD DUP1 PUSH2 0x100 ADD PUSH1 0x40 MSTORE SWAP1 DUP2 PUSH0 DUP3 ADD PUSH0 SWAP1 SLOAD SWAP1 PUSH2 0x100 EXP SWAP1 DIV PUSH20 0xFFFFFFFFFFFFFFFFFFFFFFFFFFFFFFFFFFFFFFFF AND PUSH20 0xFFFFFFFFFFFFFFFFFFFFFFFFFFFFFFFFFFFFFFFF AND PUSH20 0xFFFFFFFFFFFFFFFFFFFFFFFFFFFFFFFFFFFFFFFF AND DUP2 MSTORE PUSH1 0x20 ADD PUSH1 0x1 DUP3 ADD PUSH0 SWAP1 SLOAD SWAP1 PUSH2 0x100 EXP SWAP1 DIV PUSH20 0xFFFFFFFFFFFFFFFFFFFFFFFFFFFFFFFFFFFFFFFF AND PUSH20 0xFFFFFFFFFFFFFFFFFFFFFFFFFFFFFFFFFFFFFFFF AND PUSH20 0xFFFFFFFFFFFFFFFFFFFFFFFFFFFFFFFFFFFFFFFF AND DUP2 MSTORE PUSH1 0x20 ADD PUSH1 0x2 DUP3 ADD SLOAD DUP2 MSTORE PUSH1 0x20 ADD PUSH1 0x3 DUP3 ADD PUSH0 SWAP1 SLOAD SWAP1 PUSH2 0x100 EXP SWAP1 DIV PUSH1 0xFF AND ISZERO ISZERO ISZERO ISZERO DUP2 MSTORE PUSH1 0x20 ADD PUSH1 0x3 DUP3 ADD PUSH1 0x1 SWAP1 SLOAD SWAP1 PUSH2 0x100 EXP SWAP1 DIV PUSH1 0xFF AND ISZERO ISZERO ISZERO ISZERO DUP2 MSTORE PUSH1 0x20 ADD PUSH1 0x3 DUP3 ADD PUSH1 0x2 SWAP1 SLOAD SWAP1 PUSH2 0x100 EXP SWAP1 DIV PUSH1 0xFF AND ISZERO ISZERO ISZERO ISZERO DUP2 MSTORE PUSH1 0x20 ADD PUSH1 0x3 DUP3 ADD PUSH1 0x3 SWAP1 SLOAD SWAP1 PUSH2 0x100 EXP SWAP1 DIV PUSH1 0xFF AND ISZERO ISZERO ISZERO ISZERO DUP2 MSTORE PUSH1 0x20 ADD PUSH1 0x3 DUP3 ADD PUSH1 0x4 SWAP1 SLOAD SWAP1 PUSH2 0x100 EXP SWAP1 DIV PUSH1 0xFF AND ISZERO ISZERO ISZERO ISZERO DUP2 MSTORE POP POP SWAP1 POP DUP1 PUSH0 ADD MLOAD DUP2 PUSH1 0x20 ADD MLOAD DUP3 PUSH1 0x40 ADD MLOAD DUP4 PUSH1 0x60 ADD MLOAD DUP5 PUSH1 0x80 ADD MLOAD SWAP6 POP SWAP6 POP SWAP6 POP SWAP6 POP SWAP6 POP POP SWAP2 SWAP4 SWAP6 SWAP1 SWAP3 SWAP5 POP JUMP JUMPDEST CALLER PUSH1 0x1 ISZERO ISZERO PUSH0 DUP1 DUP4 PUSH20 0xFFFFFFFFFFFFFFFFFFFFFFFFFFFFFFFFFFFFFFFF AND PUSH20 0xFFFFFFFFFFFFFFFFFFFFFFFFFFFFFFFFFFFFFFFF AND DUP2 MSTORE PUSH1 0x20 ADD SWAP1 DUP2 MSTORE PUSH1 0x20 ADD PUSH0 KECCAK256 PUSH1 0x3 ADD PUSH0 SWAP1 SLOAD SWAP1 PUSH2 0x100 EXP SWAP1 DIV PUSH1 0xFF AND ISZERO ISZERO EQ PUSH2 0x1EF2 JUMPI PUSH1 0x40 MLOAD PUSH32 0x8C379A000000000000000000000000000000000000000000000000000000000 DUP2 MSTORE PUSH1 0x4 ADD PUSH2 0x1EE9 SWAP1 PUSH2 0x299F JUMP JUMPDEST PUSH1 0x40 MLOAD DUP1 SWAP2 SUB SWAP1 REVERT JUMPDEST CALLER PUSH0 DUP1 PUSH0 DUP4 PUSH20 0xFFFFFFFFFFFFFFFFFFFFFFFFFFFFFFFFFFFFFFFF AND PUSH20 0xFFFFFFFFFFFFFFFFFFFFFFFFFFFFFFFFFFFFFFFF AND DUP2 MSTORE PUSH1 0x20 ADD SWAP1 DUP2 MSTORE PUSH1 0x20 ADD PUSH0 KECCAK256 PUSH1 0x40 MLOAD DUP1 PUSH2 0x100 ADD PUSH1 0x40 MSTORE SWAP1 DUP2 PUSH0 DUP3 ADD PUSH0 SWAP1 SLOAD SWAP1 PUSH2 0x100 EXP SWAP1 DIV PUSH20 0xFFFFFFFFFFFFFFFFFFFFFFFFFFFFFFFFFFFFFFFF AND PUSH20 0xFFFFFFFFFFFFFFFFFFFFFFFFFFFFFFFFFFFFFFFF AND PUSH20 0xFFFFFFFFFFFFFFFFFFFFFFFFFFFFFFFFFFFFFFFF AND DUP2 MSTORE PUSH1 0x20 ADD PUSH1 0x1 DUP3 ADD PUSH0 SWAP1 SLOAD SWAP1 PUSH2 0x100 EXP SWAP1 DIV PUSH20 0xFFFFFFFFFFFFFFFFFFFFFFFFFFFFFFFFFFFFFFFF AND PUSH20 0xFFFFFFFFFFFFFFFFFFFFFFFFFFFFFFFFFFFFFFFF AND PUSH20 0xFFFFFFFFFFFFFFFFFFFFFFFFFFFFFFFFFFFFFFFF AND DUP2 MSTORE PUSH1 0x20 ADD PUSH1 0x2 DUP3 ADD SLOAD DUP2 MSTORE PUSH1 0x20 ADD PUSH1 0x3 DUP3 ADD PUSH0 SWAP1 SLOAD SWAP1 PUSH2 0x100 EXP SWAP1 DIV PUSH1 0xFF AND ISZERO ISZERO ISZERO ISZERO DUP2 MSTORE PUSH1 0x20 ADD PUSH1 0x3 DUP3 ADD PUSH1 0x1 SWAP1 SLOAD SWAP1 PUSH2 0x100 EXP SWAP1 DIV PUSH1 0xFF AND ISZERO ISZERO ISZERO ISZERO DUP2 MSTORE PUSH1 0x20 ADD PUSH1 0x3 DUP3 ADD PUSH1 0x2 SWAP1 SLOAD SWAP1 PUSH2 0x100 EXP SWAP1 DIV PUSH1 0xFF AND ISZERO ISZERO ISZERO ISZERO DUP2 MSTORE PUSH1 0x20 ADD PUSH1 0x3 DUP3 ADD PUSH1 0x3 SWAP1 SLOAD SWAP1 PUSH2 0x100 EXP SWAP1 DIV PUSH1 0xFF AND ISZERO ISZERO ISZERO ISZERO DUP2 MSTORE PUSH1 0x20 ADD PUSH1 0x3 DUP3 ADD PUSH1 0x4 SWAP1 SLOAD SWAP1 PUSH2 0x100 EXP SWAP1 DIV PUSH1 0xFF AND ISZERO ISZERO ISZERO ISZERO DUP2 MSTORE POP POP SWAP1 POP DUP1 PUSH0 ADD MLOAD PUSH20 0xFFFFFFFFFFFFFFFFFFFFFFFFFFFFFFFFFFFFFFFF AND CALLER PUSH20 0xFFFFFFFFFFFFFFFFFFFFFFFFFFFFFFFFFFFFFFFF AND EQ DUP1 PUSH2 0x20E3 JUMPI POP DUP1 PUSH1 0x20 ADD MLOAD PUSH20 0xFFFFFFFFFFFFFFFFFFFFFFFFFFFFFFFFFFFFFFFF AND CALLER PUSH20 0xFFFFFFFFFFFFFFFFFFFFFFFFFFFFFFFFFFFFFFFF AND EQ JUMPDEST PUSH2 0x2122 JUMPI PUSH1 0x40 MLOAD PUSH32 0x8C379A000000000000000000000000000000000000000000000000000000000 DUP2 MSTORE PUSH1 0x4 ADD PUSH2 0x2119 SWAP1 PUSH2 0x2C14 JUMP JUMPDEST PUSH1 0x40 MLOAD DUP1 SWAP2 SUB SWAP1 REVERT JUMPDEST PUSH0 DUP1 PUSH0 CALLER PUSH20 0xFFFFFFFFFFFFFFFFFFFFFFFFFFFFFFFFFFFFFFFF AND PUSH20 0xFFFFFFFFFFFFFFFFFFFFFFFFFFFFFFFFFFFFFFFF AND DUP2 MSTORE PUSH1 0x20 ADD SWAP1 DUP2 MSTORE PUSH1 0x20 ADD PUSH0 KECCAK256 PUSH1 0x40 MLOAD DUP1 PUSH2 0x100 ADD PUSH1 0x40 MSTORE SWAP1 DUP2 PUSH0 DUP3 ADD PUSH0 SWAP1 SLOAD SWAP1 PUSH2 0x100 EXP SWAP1 DIV PUSH20 0xFFFFFFFFFFFFFFFFFFFFFFFFFFFFFFFFFFFFFFFF AND PUSH20 0xFFFFFFFFFFFFFFFFFFFFFFFFFFFFFFFFFFFFFFFF AND PUSH20 0xFFFFFFFFFFFFFFFFFFFFFFFFFFFFFFFFFFFFFFFF AND DUP2 MSTORE PUSH1 0x20 ADD PUSH1 0x1 DUP3 ADD PUSH0 SWAP1 SLOAD SWAP1 PUSH2 0x100 EXP SWAP1 DIV PUSH20 0xFFFFFFFFFFFFFFFFFFFFFFFFFFFFFFFFFFFFFFFF AND PUSH20 0xFFFFFFFFFFFFFFFFFFFFFFFFFFFFFFFFFFFFFFFF AND PUSH20 0xFFFFFFFFFFFFFFFFFFFFFFFFFFFFFFFFFFFFFFFF AND DUP2 MSTORE PUSH1 0x20 ADD PUSH1 0x2 DUP3 ADD SLOAD DUP2 MSTORE PUSH1 0x20 ADD PUSH1 0x3 DUP3 ADD PUSH0 SWAP1 SLOAD SWAP1 PUSH2 0x100 EXP SWAP1 DIV PUSH1 0xFF AND ISZERO ISZERO ISZERO ISZERO DUP2 MSTORE PUSH1 0x20 ADD PUSH1 0x3 DUP3 ADD PUSH1 0x1 SWAP1 SLOAD SWAP1 PUSH2 0x100 EXP SWAP1 DIV PUSH1 0xFF AND ISZERO ISZERO ISZERO ISZERO DUP2 MSTORE PUSH1 0x20 ADD PUSH1 0x3 DUP3 ADD PUSH1 0x2 SWAP1 SLOAD SWAP1 PUSH2 0x100 EXP SWAP1 DIV PUSH1 0xFF AND ISZERO ISZERO ISZERO ISZERO DUP2 MSTORE PUSH1 0x20 ADD PUSH1 0x3 DUP3 ADD PUSH1 0x3 SWAP1 SLOAD SWAP1 PUSH2 0x100 EXP SWAP1 DIV PUSH1 0xFF AND ISZERO ISZERO ISZERO ISZERO DUP2 MSTORE PUSH1 0x20 ADD PUSH1 0x3 DUP3 ADD PUSH1 0x4 SWAP1 SLOAD SWAP1 PUSH2 0x100 EXP SWAP1 DIV PUSH1 0xFF AND ISZERO ISZERO ISZERO ISZERO DUP2 MSTORE POP POP SWAP1 POP DUP1 PUSH0 ADD MLOAD PUSH20 0xFFFFFFFFFFFFFFFFFFFFFFFFFFFFFFFFFFFFFFFF AND CALLER PUSH20 0xFFFFFFFFFFFFFFFFFFFFFFFFFFFFFFFFFFFFFFFF AND SUB PUSH2 0x233B JUMPI PUSH1 0x1 DUP1 PUSH0 DUP4 PUSH0 ADD MLOAD PUSH20 0xFFFFFFFFFFFFFFFFFFFFFFFFFFFFFFFFFFFFFFFF AND PUSH20 0xFFFFFFFFFFFFFFFFFFFFFFFFFFFFFFFFFFFFFFFF AND DUP2 MSTORE PUSH1 0x20 ADD SWAP1 DUP2 MSTORE PUSH1 0x20 ADD PUSH0 KECCAK256 PUSH1 0x1 ADD PUSH0 PUSH2 0x100 EXP DUP2 SLOAD DUP2 PUSH1 0xFF MUL NOT AND SWAP1 DUP4 ISZERO ISZERO MUL OR SWAP1 SSTORE POP PUSH2 0x2397 JUMP JUMPDEST PUSH1 0x1 DUP1 PUSH0 DUP4 PUSH0 ADD MLOAD PUSH20 0xFFFFFFFFFFFFFFFFFFFFFFFFFFFFFFFFFFFFFFFF AND PUSH20 0xFFFFFFFFFFFFFFFFFFFFFFFFFFFFFFFFFFFFFFFF AND DUP2 MSTORE PUSH1 0x20 ADD SWAP1 DUP2 MSTORE PUSH1 0x20 ADD PUSH0 KECCAK256 PUSH1 0x1 ADD PUSH1 0x1 PUSH2 0x100 EXP DUP2 SLOAD DUP2 PUSH1 0xFF MUL NOT AND SWAP1 DUP4 ISZERO ISZERO MUL OR SWAP1 SSTORE POP JUMPDEST PUSH1 0x1 PUSH0 DUP3 PUSH0 ADD MLOAD PUSH20 0xFFFFFFFFFFFFFFFFFFFFFFFFFFFFFFFFFFFFFFFF AND PUSH20 0xFFFFFFFFFFFFFFFFFFFFFFFFFFFFFFFFFFFFFFFF AND DUP2 MSTORE PUSH1 0x20 ADD SWAP1 DUP2 MSTORE PUSH1 0x20 ADD PUSH0 KECCAK256 PUSH1 0x1 ADD PUSH0 SWAP1 SLOAD SWAP1 PUSH2 0x100 EXP SWAP1 DIV PUSH1 0xFF AND DUP1 ISZERO PUSH2 0x2440 JUMPI POP PUSH1 0x1 PUSH0 DUP3 PUSH0 ADD MLOAD PUSH20 0xFFFFFFFFFFFFFFFFFFFFFFFFFFFFFFFFFFFFFFFF AND PUSH20 0xFFFFFFFFFFFFFFFFFFFFFFFFFFFFFFFFFFFFFFFF AND DUP2 MSTORE PUSH1 0x20 ADD SWAP1 DUP2 MSTORE PUSH1 0x20 ADD PUSH0 KECCAK256 PUSH1 0x1 ADD PUSH1 0x1 SWAP1 SLOAD SWAP1 PUSH2 0x100 EXP SWAP1 DIV PUSH1 0xFF AND JUMPDEST ISZERO PUSH2 0x2480 JUMPI PUSH32 0xFFACC21903A9DB21C6031D4C12C9825F13AC6469F9B894F7058A45CF1F9A3E8D DUP2 PUSH0 ADD MLOAD PUSH1 0x40 MLOAD PUSH2 0x2477 SWAP2 SWAP1 PUSH2 0x2AAF JUMP JUMPDEST PUSH1 0x40 MLOAD DUP1 SWAP2 SUB SWAP1 LOG1 JUMPDEST POP POP POP POP JUMP JUMPDEST PUSH0 DUP1 PUSH0 SWAP1 POP JUMPDEST PUSH1 0x1 PUSH0 DUP6 PUSH20 0xFFFFFFFFFFFFFFFFFFFFFFFFFFFFFFFFFFFFFFFF AND PUSH20 0xFFFFFFFFFFFFFFFFFFFFFFFFFFFFFFFFFFFFFFFF AND DUP2 MSTORE PUSH1 0x20 ADD SWAP1 DUP2 MSTORE PUSH1 0x20 ADD PUSH0 KECCAK256 PUSH0 ADD DUP1 SLOAD SWAP1 POP DUP2 LT ISZERO PUSH2 0x259E JUMPI DUP3 PUSH20 0xFFFFFFFFFFFFFFFFFFFFFFFFFFFFFFFFFFFFFFFF AND PUSH1 0x1 PUSH0 DUP7 PUSH20 0xFFFFFFFFFFFFFFFFFFFFFFFFFFFFFFFFFFFFFFFF AND PUSH20 0xFFFFFFFFFFFFFFFFFFFFFFFFFFFFFFFFFFFFFFFF AND DUP2 MSTORE PUSH1 0x20 ADD SWAP1 DUP2 MSTORE PUSH1 0x20 ADD PUSH0 KECCAK256 PUSH0 ADD DUP3 DUP2 SLOAD DUP2 LT PUSH2 0x253E JUMPI PUSH2 0x253D PUSH2 0x3063 JUMP JUMPDEST JUMPDEST SWAP1 PUSH0 MSTORE PUSH1 0x20 PUSH0 KECCAK256 ADD PUSH0 SWAP1 SLOAD SWAP1 PUSH2 0x100 EXP SWAP1 DIV PUSH20 0xFFFFFFFFFFFFFFFFFFFFFFFFFFFFFFFFFFFFFFFF AND PUSH20 0xFFFFFFFFFFFFFFFFFFFFFFFFFFFFFFFFFFFFFFFF AND SUB PUSH2 0x258B JUMPI PUSH1 0x1 SWAP2 POP POP PUSH2 0x25A3 JUMP JUMPDEST DUP1 DUP1 PUSH2 0x2596 SWAP1 PUSH2 0x301C JUMP JUMPDEST SWAP2 POP POP PUSH2 0x248C JUMP JUMPDEST POP PUSH0 SWAP1 POP JUMPDEST SWAP3 SWAP2 POP POP JUMP JUMPDEST DUP3 DUP1 SLOAD DUP3 DUP3 SSTORE SWAP1 PUSH0 MSTORE PUSH1 0x20 PUSH0 KECCAK256 SWAP1 DUP2 ADD SWAP3 DUP3 ISZERO PUSH2 0x2635 JUMPI SWAP2 PUSH1 0x20 MUL DUP3 ADD JUMPDEST DUP3 DUP2 GT ISZERO PUSH2 0x2634 JUMPI DUP3 CALLDATALOAD PUSH20 0xFFFFFFFFFFFFFFFFFFFFFFFFFFFFFFFFFFFFFFFF AND DUP3 PUSH0 PUSH2 0x100 EXP DUP2 SLOAD DUP2 PUSH20 0xFFFFFFFFFFFFFFFFFFFFFFFFFFFFFFFFFFFFFFFF MUL NOT AND SWAP1 DUP4 PUSH20 0xFFFFFFFFFFFFFFFFFFFFFFFFFFFFFFFFFFFFFFFF AND MUL OR SWAP1 SSTORE POP SWAP2 PUSH1 0x20 ADD SWAP2 SWAP1 PUSH1 0x1 ADD SWAP1 PUSH2 0x25C7 JUMP JUMPDEST JUMPDEST POP SWAP1 POP PUSH2 0x2642 SWAP2 SWAP1 PUSH2 0x2646 JUMP JUMPDEST POP SWAP1 JUMP JUMPDEST JUMPDEST DUP1 DUP3 GT ISZERO PUSH2 0x265D JUMPI PUSH0 DUP2 PUSH0 SWAP1 SSTORE POP PUSH1 0x1 ADD PUSH2 0x2647 JUMP JUMPDEST POP SWAP1 JUMP JUMPDEST PUSH0 DUP1 REVERT JUMPDEST PUSH0 DUP1 REVERT JUMPDEST PUSH0 PUSH20 0xFFFFFFFFFFFFFFFFFFFFFFFFFFFFFFFFFFFFFFFF DUP3 AND SWAP1 POP SWAP2 SWAP1 POP JUMP JUMPDEST PUSH0 PUSH2 0x2692 DUP3 PUSH2 0x2669 JUMP JUMPDEST SWAP1 POP SWAP2 SWAP1 POP JUMP JUMPDEST PUSH2 0x26A2 DUP2 PUSH2 0x2688 JUMP JUMPDEST DUP2 EQ PUSH2 0x26AC JUMPI PUSH0 DUP1 REVERT JUMPDEST POP JUMP JUMPDEST PUSH0 DUP2 CALLDATALOAD SWAP1 POP PUSH2 0x26BD DUP2 PUSH2 0x2699 JUMP JUMPDEST SWAP3 SWAP2 POP POP JUMP JUMPDEST PUSH0 PUSH1 0x20 DUP3 DUP5 SUB SLT ISZERO PUSH2 0x26D8 JUMPI PUSH2 0x26D7 PUSH2 0x2661 JUMP JUMPDEST JUMPDEST PUSH0 PUSH2 0x26E5 DUP5 DUP3 DUP6 ADD PUSH2 0x26AF JUMP JUMPDEST SWAP2 POP POP SWAP3 SWAP2 POP POP JUMP JUMPDEST PUSH0 DUP2 ISZERO ISZERO SWAP1 POP SWAP2 SWAP1 POP JUMP JUMPDEST PUSH2 0x2702 DUP2 PUSH2 0x26EE JUMP JUMPDEST DUP3 MSTORE POP POP JUMP JUMPDEST PUSH0 DUP2 SWAP1 POP SWAP2 SWAP1 POP JUMP JUMPDEST PUSH2 0x271A DUP2 PUSH2 0x2708 JUMP JUMPDEST DUP3 MSTORE POP POP JUMP JUMPDEST PUSH0 PUSH1 0x60 DUP3 ADD SWAP1 POP PUSH2 0x2733 PUSH0 DUP4 ADD DUP7 PUSH2 0x26F9 JUMP JUMPDEST PUSH2 0x2740 PUSH1 0x20 DUP4 ADD DUP6 PUSH2 0x26F9 JUMP JUMPDEST PUSH2 0x274D PUSH1 0x40 DUP4 ADD DUP5 PUSH2 0x2711 JUMP JUMPDEST SWAP5 SWAP4 POP POP POP POP JUMP JUMPDEST PUSH0 DUP1 REVERT JUMPDEST PUSH0 DUP1 REVERT JUMPDEST PUSH0 DUP1 REVERT JUMPDEST PUSH0 DUP1 DUP4 PUSH1 0x1F DUP5 ADD SLT PUSH2 0x2776 JUMPI PUSH2 0x2775 PUSH2 0x2755 JUMP JUMPDEST JUMPDEST DUP3 CALLDATALOAD SWAP1 POP PUSH8 0xFFFFFFFFFFFFFFFF DUP2 GT ISZERO PUSH2 0x2793 JUMPI PUSH2 0x2792 PUSH2 0x2759 JUMP JUMPDEST JUMPDEST PUSH1 0x20 DUP4 ADD SWAP2 POP DUP4 PUSH1 0x20 DUP3 MUL DUP4 ADD GT ISZERO PUSH2 0x27AF JUMPI PUSH2 0x27AE PUSH2 0x275D JUMP JUMPDEST JUMPDEST SWAP3 POP SWAP3 SWAP1 POP JUMP JUMPDEST PUSH0 DUP1 PUSH1 0x20 DUP4 DUP6 SUB SLT ISZERO PUSH2 0x27CC JUMPI PUSH2 0x27CB PUSH2 0x2661 JUMP JUMPDEST JUMPDEST PUSH0 DUP4 ADD CALLDATALOAD PUSH8 0xFFFFFFFFFFFFFFFF DUP2 GT ISZERO PUSH2 0x27E9 JUMPI PUSH2 0x27E8 PUSH2 0x2665 JUMP JUMPDEST JUMPDEST PUSH2 0x27F5 DUP6 DUP3 DUP7 ADD PUSH2 0x2761 JUMP JUMPDEST SWAP3 POP SWAP3 POP POP SWAP3 POP SWAP3 SWAP1 POP JUMP JUMPDEST PUSH2 0x280A DUP2 PUSH2 0x2708 JUMP JUMPDEST DUP2 EQ PUSH2 0x2814 JUMPI PUSH0 DUP1 REVERT JUMPDEST POP JUMP JUMPDEST PUSH0 DUP2 CALLDATALOAD SWAP1 POP PUSH2 0x2825 DUP2 PUSH2 0x2801 JUMP JUMPDEST SWAP3 SWAP2 POP POP JUMP JUMPDEST PUSH0 DUP1 PUSH1 0x40 DUP4 DUP6 SUB SLT ISZERO PUSH2 0x2841 JUMPI PUSH2 0x2840 PUSH2 0x2661 JUMP JUMPDEST JUMPDEST PUSH0 PUSH2 0x284E DUP6 DUP3 DUP7 ADD PUSH2 0x26AF JUMP JUMPDEST SWAP3 POP POP PUSH1 0x20 PUSH2 0x285F DUP6 DUP3 DUP7 ADD PUSH2 0x2817 JUMP JUMPDEST SWAP2 POP POP SWAP3 POP SWAP3 SWAP1 POP JUMP JUMPDEST PUSH2 0x2872 DUP2 PUSH2 0x2688 JUMP JUMPDEST DUP3 MSTORE POP POP JUMP JUMPDEST PUSH0 PUSH2 0x100 DUP3 ADD SWAP1 POP PUSH2 0x288C PUSH0 DUP4 ADD DUP12 PUSH2 0x2869 JUMP JUMPDEST PUSH2 0x2899 PUSH1 0x20 DUP4 ADD DUP11 PUSH2 0x2869 JUMP JUMPDEST PUSH2 0x28A6 PUSH1 0x40 DUP4 ADD DUP10 PUSH2 0x2711 JUMP JUMPDEST PUSH2 0x28B3 PUSH1 0x60 DUP4 ADD DUP9 PUSH2 0x26F9 JUMP JUMPDEST PUSH2 0x28C0 PUSH1 0x80 DUP4 ADD DUP8 PUSH2 0x26F9 JUMP JUMPDEST PUSH2 0x28CD PUSH1 0xA0 DUP4 ADD DUP7 PUSH2 0x26F9 JUMP JUMPDEST PUSH2 0x28DA PUSH1 0xC0 DUP4 ADD DUP6 PUSH2 0x26F9 JUMP JUMPDEST PUSH2 0x28E7 PUSH1 0xE0 DUP4 ADD DUP5 PUSH2 0x26F9 JUMP JUMPDEST SWAP10 SWAP9 POP POP POP POP POP POP POP POP POP JUMP JUMPDEST PUSH0 PUSH1 0xA0 DUP3 ADD SWAP1 POP PUSH2 0x2907 PUSH0 DUP4 ADD DUP9 PUSH2 0x2869 JUMP JUMPDEST PUSH2 0x2914 PUSH1 0x20 DUP4 ADD DUP8 PUSH2 0x2869 JUMP JUMPDEST PUSH2 0x2921 PUSH1 0x40 DUP4 ADD DUP7 PUSH2 0x2711 JUMP JUMPDEST PUSH2 0x292E PUSH1 0x60 DUP4 ADD DUP6 PUSH2 0x26F9 JUMP JUMPDEST PUSH2 0x293B PUSH1 0x80 DUP4 ADD DUP5 PUSH2 0x26F9 JUMP JUMPDEST SWAP7 SWAP6 POP POP POP POP POP POP JUMP JUMPDEST PUSH0 DUP3 DUP3 MSTORE PUSH1 0x20 DUP3 ADD SWAP1 POP SWAP3 SWAP2 POP POP JUMP JUMPDEST PUSH32 0x41646472657373206E6F7420656E67616765642E000000000000000000000000 PUSH0 DUP3 ADD MSTORE POP JUMP JUMPDEST PUSH0 PUSH2 0x2989 PUSH1 0x14 DUP4 PUSH2 0x2945 JUMP JUMPDEST SWAP2 POP PUSH2 0x2994 DUP3 PUSH2 0x2955 JUMP JUMPDEST PUSH1 0x20 DUP3 ADD SWAP1 POP SWAP2 SWAP1 POP JUMP JUMPDEST PUSH0 PUSH1 0x20 DUP3 ADD SWAP1 POP DUP2 DUP2 SUB PUSH0 DUP4 ADD MSTORE PUSH2 0x29B6 DUP2 PUSH2 0x297D JUMP JUMPDEST SWAP1 POP SWAP2 SWAP1 POP JUMP JUMPDEST PUSH32 0x416C7265616479206D6172726965640000000000000000000000000000000000 PUSH0 DUP3 ADD MSTORE POP JUMP JUMPDEST PUSH0 PUSH2 0x29F1 PUSH1 0xF DUP4 PUSH2 0x2945 JUMP JUMPDEST SWAP2 POP PUSH2 0x29FC DUP3 PUSH2 0x29BD JUMP JUMPDEST PUSH1 0x20 DUP3 ADD SWAP1 POP SWAP2 SWAP1 POP JUMP JUMPDEST PUSH0 PUSH1 0x20 DUP3 ADD SWAP1 POP DUP2 DUP2 SUB PUSH0 DUP4 ADD MSTORE PUSH2 0x2A1E DUP2 PUSH2 0x29E5 JUMP JUMPDEST SWAP1 POP SWAP2 SWAP1 POP JUMP JUMPDEST PUSH32 0x4E487B7100000000000000000000000000000000000000000000000000000000 PUSH0 MSTORE PUSH1 0x12 PUSH1 0x4 MSTORE PUSH1 0x24 PUSH0 REVERT JUMPDEST PUSH32 0x4E487B7100000000000000000000000000000000000000000000000000000000 PUSH0 MSTORE PUSH1 0x11 PUSH1 0x4 MSTORE PUSH1 0x24 PUSH0 REVERT JUMPDEST PUSH0 PUSH2 0x2A89 DUP3 PUSH2 0x2708 JUMP JUMPDEST SWAP2 POP PUSH2 0x2A94 DUP4 PUSH2 0x2708 JUMP JUMPDEST SWAP3 POP DUP3 PUSH2 0x2AA4 JUMPI PUSH2 0x2AA3 PUSH2 0x2A25 JUMP JUMPDEST JUMPDEST DUP3 DUP3 DIV SWAP1 POP SWAP3 SWAP2 POP POP JUMP JUMPDEST PUSH0 PUSH1 0x20 DUP3 ADD SWAP1 POP PUSH2 0x2AC2 PUSH0 DUP4 ADD DUP5 PUSH2 0x2869 JUMP JUMPDEST SWAP3 SWAP2 POP POP JUMP JUMPDEST PUSH32 0x54686520656E676167656D656E7420697320616C7265616479207265766F6B65 PUSH0 DUP3 ADD MSTORE PUSH32 0x642E000000000000000000000000000000000000000000000000000000000000 PUSH1 0x20 DUP3 ADD MSTORE POP JUMP JUMPDEST PUSH0 PUSH2 0x2B22 PUSH1 0x22 DUP4 PUSH2 0x2945 JUMP JUMPDEST SWAP2 POP PUSH2 0x2B2D DUP3 PUSH2 0x2AC8 JUMP JUMPDEST PUSH1 0x40 DUP3 ADD SWAP1 POP SWAP2 SWAP1 POP JUMP JUMPDEST PUSH0 PUSH1 0x20 DUP3 ADD SWAP1 POP DUP2 DUP2 SUB PUSH0 DUP4 ADD MSTORE PUSH2 0x2B4F DUP2 PUSH2 0x2B16 JUMP JUMPDEST SWAP1 POP SWAP2 SWAP1 POP JUMP JUMPDEST PUSH0 PUSH1 0x40 DUP3 ADD SWAP1 POP PUSH2 0x2B69 PUSH0 DUP4 ADD DUP6 PUSH2 0x2869 JUMP JUMPDEST PUSH2 0x2B76 PUSH1 0x20 DUP4 ADD DUP5 PUSH2 0x2711 JUMP JUMPDEST SWAP4 SWAP3 POP POP POP JUMP JUMPDEST PUSH0 PUSH1 0x40 DUP3 ADD SWAP1 POP PUSH2 0x2B90 PUSH0 DUP4 ADD DUP6 PUSH2 0x2869 JUMP JUMPDEST PUSH2 0x2B9D PUSH1 0x20 DUP4 ADD DUP5 PUSH2 0x2869 JUMP JUMPDEST SWAP4 SWAP3 POP POP POP JUMP JUMPDEST PUSH32 0x43616C6C6572206D757374206265206F6E65206F662074686520656E67616765 PUSH0 DUP3 ADD MSTORE PUSH32 0x6420706172746965730000000000000000000000000000000000000000000000 PUSH1 0x20 DUP3 ADD MSTORE POP JUMP JUMPDEST PUSH0 PUSH2 0x2BFE PUSH1 0x29 DUP4 PUSH2 0x2945 JUMP JUMPDEST SWAP2 POP PUSH2 0x2C09 DUP3 PUSH2 0x2BA4 JUMP JUMPDEST PUSH1 0x40 DUP3 ADD SWAP1 POP SWAP2 SWAP1 POP JUMP JUMPDEST PUSH0 PUSH1 0x20 DUP3 ADD SWAP1 POP DUP2 DUP2 SUB PUSH0 DUP4 ADD MSTORE PUSH2 0x2C2B DUP2 PUSH2 0x2BF2 JUMP JUMPDEST SWAP1 POP SWAP2 SWAP1 POP JUMP JUMPDEST PUSH0 DUP3 DUP3 MSTORE PUSH1 0x20 DUP3 ADD SWAP1 POP SWAP3 SWAP2 POP POP JUMP JUMPDEST PUSH0 DUP2 SWAP1 POP SWAP2 SWAP1 POP JUMP JUMPDEST PUSH2 0x2C54 DUP2 PUSH2 0x2688 JUMP JUMPDEST DUP3 MSTORE POP POP JUMP JUMPDEST PUSH0 PUSH2 0x2C65 DUP4 DUP4 PUSH2 0x2C4B JUMP JUMPDEST PUSH1 0x20 DUP4 ADD SWAP1 POP SWAP3 SWAP2 POP POP JUMP JUMPDEST PUSH0 PUSH2 0x2C7F PUSH1 0x20 DUP5 ADD DUP5 PUSH2 0x26AF JUMP JUMPDEST SWAP1 POP SWAP3 SWAP2 POP POP JUMP JUMPDEST PUSH0 PUSH1 0x20 DUP3 ADD SWAP1 POP SWAP2 SWAP1 POP JUMP JUMPDEST PUSH0 PUSH2 0x2C9E DUP4 DUP6 PUSH2 0x2C32 JUMP JUMPDEST SWAP4 POP PUSH2 0x2CA9 DUP3 PUSH2 0x2C42 JUMP JUMPDEST DUP1 PUSH0 JUMPDEST DUP6 DUP2 LT ISZERO PUSH2 0x2CE1 JUMPI PUSH2 0x2CBE DUP3 DUP5 PUSH2 0x2C71 JUMP JUMPDEST PUSH2 0x2CC8 DUP9 DUP3 PUSH2 0x2C5A JUMP JUMPDEST SWAP8 POP PUSH2 0x2CD3 DUP4 PUSH2 0x2C87 JUMP JUMPDEST SWAP3 POP POP PUSH1 0x1 DUP2 ADD SWAP1 POP PUSH2 0x2CAC JUMP JUMPDEST POP DUP6 SWAP3 POP POP POP SWAP4 SWAP3 POP POP POP JUMP JUMPDEST PUSH0 PUSH1 0x40 DUP3 ADD SWAP1 POP PUSH2 0x2D01 PUSH0 DUP4 ADD DUP7 PUSH2 0x2869 JUMP JUMPDEST DUP2 DUP2 SUB PUSH1 0x20 DUP4 ADD MSTORE PUSH2 0x2D14 DUP2 DUP5 DUP7 PUSH2 0x2C93 JUMP JUMPDEST SWAP1 POP SWAP5 SWAP4 POP POP POP POP JUMP JUMPDEST PUSH32 0x4F6E65206F7220626F7468206F66207468652073706F75736573206172652061 PUSH0 DUP3 ADD MSTORE PUSH32 0x6C726561647920656E67616765642E2000000000000000000000000000000000 PUSH1 0x20 DUP3 ADD MSTORE POP JUMP JUMPDEST PUSH0 PUSH2 0x2D78 PUSH1 0x30 DUP4 PUSH2 0x2945 JUMP JUMPDEST SWAP2 POP PUSH2 0x2D83 DUP3 PUSH2 0x2D1E JUMP JUMPDEST PUSH1 0x40 DUP3 ADD SWAP1 POP SWAP2 SWAP1 POP JUMP JUMPDEST PUSH0 PUSH1 0x20 DUP3 ADD SWAP1 POP DUP2 DUP2 SUB PUSH0 DUP4 ADD MSTORE PUSH2 0x2DA5 DUP2 PUSH2 0x2D6C JUMP JUMPDEST SWAP1 POP SWAP2 SWAP1 POP JUMP JUMPDEST PUSH32 0x44617465206D75737420626520696E2074686520667574757265000000000000 PUSH0 DUP3 ADD MSTORE POP JUMP JUMPDEST PUSH0 PUSH2 0x2DE0 PUSH1 0x1A DUP4 PUSH2 0x2945 JUMP JUMPDEST SWAP2 POP PUSH2 0x2DEB DUP3 PUSH2 0x2DAC JUMP JUMPDEST PUSH1 0x20 DUP3 ADD SWAP1 POP SWAP2 SWAP1 POP JUMP JUMPDEST PUSH0 PUSH1 0x20 DUP3 ADD SWAP1 POP DUP2 DUP2 SUB PUSH0 DUP4 ADD MSTORE PUSH2 0x2E0D DUP2 PUSH2 0x2DD4 JUMP JUMPDEST SWAP1 POP SWAP2 SWAP1 POP JUMP JUMPDEST PUSH0 PUSH1 0x60 DUP3 ADD SWAP1 POP PUSH2 0x2E27 PUSH0 DUP4 ADD DUP7 PUSH2 0x2869 JUMP JUMPDEST PUSH2 0x2E34 PUSH1 0x20 DUP4 ADD DUP6 PUSH2 0x2869 JUMP JUMPDEST PUSH2 0x2E41 PUSH1 0x40 DUP4 ADD DUP5 PUSH2 0x2711 JUMP JUMPDEST SWAP5 SWAP4 POP POP POP POP JUMP JUMPDEST PUSH0 PUSH2 0x2E53 DUP3 PUSH2 0x2708 JUMP JUMPDEST SWAP2 POP PUSH2 0x2E5E DUP4 PUSH2 0x2708 JUMP JUMPDEST SWAP3 POP DUP3 DUP3 SUB SWAP1 POP DUP2 DUP2 GT ISZERO PUSH2 0x2E76 JUMPI PUSH2 0x2E75 PUSH2 0x2A52 JUMP JUMPDEST JUMPDEST SWAP3 SWAP2 POP POP JUMP JUMPDEST PUSH32 0x566F74696E67206E6F7420796574206F70656E00000000000000000000000000 PUSH0 DUP3 ADD MSTORE POP JUMP JUMPDEST PUSH0 PUSH2 0x2EB0 PUSH1 0x13 DUP4 PUSH2 0x2945 JUMP JUMPDEST SWAP2 POP PUSH2 0x2EBB DUP3 PUSH2 0x2E7C JUMP JUMPDEST PUSH1 0x20 DUP3 ADD SWAP1 POP SWAP2 SWAP1 POP JUMP JUMPDEST PUSH0 PUSH1 0x20 DUP3 ADD SWAP1 POP DUP2 DUP2 SUB PUSH0 DUP4 ADD MSTORE PUSH2 0x2EDD DUP2 PUSH2 0x2EA4 JUMP JUMPDEST SWAP1 POP SWAP2 SWAP1 POP JUMP JUMPDEST PUSH32 0x566F74696E6720636C6F73656400000000000000000000000000000000000000 PUSH0 DUP3 ADD MSTORE POP JUMP JUMPDEST PUSH0 PUSH2 0x2F18 PUSH1 0xD DUP4 PUSH2 0x2945 JUMP JUMPDEST SWAP2 POP PUSH2 0x2F23 DUP3 PUSH2 0x2EE4 JUMP JUMPDEST PUSH1 0x20 DUP3 ADD SWAP1 POP SWAP2 SWAP1 POP JUMP JUMPDEST PUSH0 PUSH1 0x20 DUP3 ADD SWAP1 POP DUP2 DUP2 SUB PUSH0 DUP4 ADD MSTORE PUSH2 0x2F45 DUP2 PUSH2 0x2F0C JUMP JUMPDEST SWAP1 POP SWAP2 SWAP1 POP JUMP JUMPDEST PUSH32 0x4E6F74206120636F6E6669726D65642067756573740000000000000000000000 PUSH0 DUP3 ADD MSTORE POP JUMP JUMPDEST PUSH0 PUSH2 0x2F80 PUSH1 0x15 DUP4 PUSH2 0x2945 JUMP JUMPDEST SWAP2 POP PUSH2 0x2F8B DUP3 PUSH2 0x2F4C JUMP JUMPDEST PUSH1 0x20 DUP3 ADD SWAP1 POP SWAP2 SWAP1 POP JUMP JUMPDEST PUSH0 PUSH1 0x20 DUP3 ADD SWAP1 POP DUP2 DUP2 SUB PUSH0 DUP4 ADD MSTORE PUSH2 0x2FAD DUP2 PUSH2 0x2F74 JUMP JUMPDEST SWAP1 POP SWAP2 SWAP1 POP JUMP JUMPDEST PUSH32 0x416C726561647920766F74656400000000000000000000000000000000000000 PUSH0 DUP3 ADD MSTORE POP JUMP JUMPDEST PUSH0 PUSH2 0x2FE8 PUSH1 0xD DUP4 PUSH2 0x2945 JUMP JUMPDEST SWAP2 POP PUSH2 0x2FF3 DUP3 PUSH2 0x2FB4 JUMP JUMPDEST PUSH1 0x20 DUP3 ADD SWAP1 POP SWAP2 SWAP1 POP JUMP JUMPDEST PUSH0 PUSH1 0x20 DUP3 ADD SWAP1 POP DUP2 DUP2 SUB PUSH0 DUP4 ADD MSTORE PUSH2 0x3015 DUP2 PUSH2 0x2FDC JUMP JUMPDEST SWAP1 POP SWAP2 SWAP1 POP JUMP JUMPDEST PUSH0 PUSH2 0x3026 DUP3 PUSH2 0x2708 JUMP JUMPDEST SWAP2 POP PUSH32 0xFFFFFFFFFFFFFFFFFFFFFFFFFFFFFFFFFFFFFFFFFFFFFFFFFFFFFFFFFFFFFFFF DUP3 SUB PUSH2 0x3058 JUMPI PUSH2 0x3057 PUSH2 0x2A52 JUMP JUMPDEST JUMPDEST PUSH1 0x1 DUP3 ADD SWAP1 POP SWAP2 SWAP1 POP JUMP JUMPDEST PUSH32 0x4E487B7100000000000000000000000000000000000000000000000000000000 PUSH0 MSTORE PUSH1 0x32 PUSH1 0x4 MSTORE PUSH1 0x24 PUSH0 REVERT INVALID LOG2 PUSH5 0x6970667358 0x22 SLT KECCAK256 0xAF RETURN SWAP12 CALLVALUE 0xAB CHAINID SWAP5 0xD1 0x4E 0x1E DUP1 0x4F EXTCODESIZE SLOAD BASEFEE 0x2A 0xD8 GT EXTCODECOPY PUSH24 0x7EFE624DC3AF21A7380720DE64736F6C6343000815003300 "
				},
				"gasEstimates": {
					"creation": {
						"codeDepositCost": "2497200",
						"executionCost": "2693",
						"totalCost": "2499893"
					},
					"external": {
						"checkAndInvalidateWedding(address)": "infinite",
						"confirmGuestList()": "68166",
						"engagements(address)": "infinite",
						"getEngagementInfo(address)": "infinite",
						"guestLists(address)": "infinite",
						"marry()": "infinite",
						"proposeGuestList(address[])": "infinite",
						"registerEngagement(address,uint256)": "infinite",
						"revokeEngagement()": "360834",
						"voteAgainstWedding(address)": "infinite"
					},
					"internal": {
						"isGuestConfirmed(address,address)": "infinite"
					}
				},
				"methodIdentifiers": {
					"checkAndInvalidateWedding(address)": "186be15f",
					"confirmGuestList()": "e83dc185",
					"engagements(address)": "a22690a8",
					"getEngagementInfo(address)": "b95afe03",
					"guestLists(address)": "2b80fa28",
					"marry()": "85b9a11f",
					"proposeGuestList(address[])": "90106c5e",
					"registerEngagement(address,uint256)": "987e9533",
					"revokeEngagement()": "6d955eb5",
					"voteAgainstWedding(address)": "a1905e4e"
				}
			},
			"storageLayout": {
				"storage": [
					{
						"astId": 37,
						"contract": "contracts/Wedding.sol:EngagementRegistry",
						"label": "engagements",
						"offset": 0,
						"slot": "0",
						"type": "t_mapping(t_address,t_struct(Engagement)18_storage)"
					},
					{
						"astId": 42,
						"contract": "contracts/Wedding.sol:EngagementRegistry",
						"label": "guestLists",
						"offset": 0,
						"slot": "1",
						"type": "t_mapping(t_address,t_struct(GuestList)32_storage)"
					}
				],
				"types": {
					"t_address": {
						"encoding": "inplace",
						"label": "address",
						"numberOfBytes": "20"
					},
					"t_array(t_address)dyn_storage": {
						"base": "t_address",
						"encoding": "dynamic_array",
						"label": "address[]",
						"numberOfBytes": "32"
					},
					"t_bool": {
						"encoding": "inplace",
						"label": "bool",
						"numberOfBytes": "1"
					},
					"t_mapping(t_address,t_bool)": {
						"encoding": "mapping",
						"key": "t_address",
						"label": "mapping(address => bool)",
						"numberOfBytes": "32",
						"value": "t_bool"
					},
					"t_mapping(t_address,t_struct(Engagement)18_storage)": {
						"encoding": "mapping",
						"key": "t_address",
						"label": "mapping(address => struct EngagementRegistry.Engagement)",
						"numberOfBytes": "32",
						"value": "t_struct(Engagement)18_storage"
					},
					"t_mapping(t_address,t_struct(GuestList)32_storage)": {
						"encoding": "mapping",
						"key": "t_address",
						"label": "mapping(address => struct EngagementRegistry.GuestList)",
						"numberOfBytes": "32",
						"value": "t_struct(GuestList)32_storage"
					},
					"t_struct(Engagement)18_storage": {
						"encoding": "inplace",
						"label": "struct EngagementRegistry.Engagement",
						"members": [
							{
								"astId": 3,
								"contract": "contracts/Wedding.sol:EngagementRegistry",
								"label": "spouse1",
								"offset": 0,
								"slot": "0",
								"type": "t_address"
							},
							{
								"astId": 5,
								"contract": "contracts/Wedding.sol:EngagementRegistry",
								"label": "spouse2",
								"offset": 0,
								"slot": "1",
								"type": "t_address"
							},
							{
								"astId": 7,
								"contract": "contracts/Wedding.sol:EngagementRegistry",
								"label": "weddingDate",
								"offset": 0,
								"slot": "2",
								"type": "t_uint256"
							},
							{
								"astId": 9,
								"contract": "contracts/Wedding.sol:EngagementRegistry",
								"label": "isEngaged",
								"offset": 0,
								"slot": "3",
								"type": "t_bool"
							},
							{
								"astId": 11,
								"contract": "contracts/Wedding.sol:EngagementRegistry",
								"label": "isRevoked",
								"offset": 1,
								"slot": "3",
								"type": "t_bool"
							},
							{
								"astId": 13,
								"contract": "contracts/Wedding.sol:EngagementRegistry",
								"label": "isMarried",
								"offset": 2,
								"slot": "3",
								"type": "t_bool"
							},
							{
								"astId": 15,
								"contract": "contracts/Wedding.sol:EngagementRegistry",
								"label": "spouse1ConfirmedMarriage",
								"offset": 3,
								"slot": "3",
								"type": "t_bool"
							},
							{
								"astId": 17,
								"contract": "contracts/Wedding.sol:EngagementRegistry",
								"label": "spouse2ConfirmedMarriage",
								"offset": 4,
								"slot": "3",
								"type": "t_bool"
							}
						],
						"numberOfBytes": "128"
					},
					"t_struct(GuestList)32_storage": {
						"encoding": "inplace",
						"label": "struct EngagementRegistry.GuestList",
						"members": [
							{
								"astId": 21,
								"contract": "contracts/Wedding.sol:EngagementRegistry",
								"label": "proposedGuests",
								"offset": 0,
								"slot": "0",
								"type": "t_array(t_address)dyn_storage"
							},
							{
								"astId": 23,
								"contract": "contracts/Wedding.sol:EngagementRegistry",
								"label": "spouse1Confirmed",
								"offset": 0,
								"slot": "1",
								"type": "t_bool"
							},
							{
								"astId": 25,
								"contract": "contracts/Wedding.sol:EngagementRegistry",
								"label": "spouse2Confirmed",
								"offset": 1,
								"slot": "1",
								"type": "t_bool"
							},
							{
								"astId": 29,
								"contract": "contracts/Wedding.sol:EngagementRegistry",
								"label": "hasVotedAgainst",
								"offset": 0,
								"slot": "2",
								"type": "t_mapping(t_address,t_bool)"
							},
							{
								"astId": 31,
								"contract": "contracts/Wedding.sol:EngagementRegistry",
								"label": "votesAgainst",
								"offset": 0,
								"slot": "3",
								"type": "t_uint256"
							}
						],
						"numberOfBytes": "128"
					},
					"t_uint256": {
						"encoding": "inplace",
						"label": "uint256",
						"numberOfBytes": "32"
					}
				}
			},
			"userdoc": {
				"kind": "user",
				"methods": {},
				"version": 1
			}
		}
	}
}