{
	"contracts/CondAndLoops.sol": {
		"CondAndLoops": {
			"abi": [
				{
					"inputs": [],
					"stateMutability": "nonpayable",
					"type": "constructor"
				},
				{
					"inputs": [],
					"name": "countEvenNumbers",
					"outputs": [
						{
							"internalType": "uint256",
							"name": "",
							"type": "uint256"
						}
					],
					"stateMutability": "view",
					"type": "function"
				},
				{
					"inputs": [
						{
							"internalType": "uint256",
							"name": "_number",
							"type": "uint256"
						}
					],
					"name": "isEvenNumber",
					"outputs": [
						{
							"internalType": "bool",
							"name": "",
							"type": "bool"
						}
					],
					"stateMutability": "pure",
					"type": "function"
				},
				{
					"inputs": [],
					"name": "isOwner",
					"outputs": [
						{
							"internalType": "bool",
							"name": "",
							"type": "bool"
						}
					],
					"stateMutability": "view",
					"type": "function"
				},
				{
					"inputs": [
						{
							"internalType": "uint256",
							"name": "",
							"type": "uint256"
						}
					],
					"name": "numbers",
					"outputs": [
						{
							"internalType": "uint256",
							"name": "",
							"type": "uint256"
						}
					],
					"stateMutability": "view",
					"type": "function"
				},
				{
					"inputs": [],
					"name": "owner",
					"outputs": [
						{
							"internalType": "address",
							"name": "",
							"type": "address"
						}
					],
					"stateMutability": "view",
					"type": "function"
				}
			],
			"devdoc": {
				"kind": "dev",
				"methods": {},
				"version": 1
			},
			"evm": {
				"assembly": "    /* \"contracts/CondAndLoops.sol\":57:861  contract CondAndLoops {... */\n  mstore(0x40, 0x80)\n    /* \"contracts/CondAndLoops.sol\":116:171  uint[] public numbers = [1, 2, 3, 4, 5, 6, 7, 8, 9, 10] */\n  mload(0x40)\n  dup1\n  0x0140\n  add\n  0x40\n  mstore\n  dup1\n    /* \"contracts/CondAndLoops.sol\":141:142  1 */\n  0x01\n    /* \"contracts/CondAndLoops.sol\":116:171  uint[] public numbers = [1, 2, 3, 4, 5, 6, 7, 8, 9, 10] */\n  0xff\n  and\n  dup2\n  mstore\n  0x20\n  add\n    /* \"contracts/CondAndLoops.sol\":144:145  2 */\n  0x02\n    /* \"contracts/CondAndLoops.sol\":116:171  uint[] public numbers = [1, 2, 3, 4, 5, 6, 7, 8, 9, 10] */\n  0xff\n  and\n  dup2\n  mstore\n  0x20\n  add\n    /* \"contracts/CondAndLoops.sol\":147:148  3 */\n  0x03\n    /* \"contracts/CondAndLoops.sol\":116:171  uint[] public numbers = [1, 2, 3, 4, 5, 6, 7, 8, 9, 10] */\n  0xff\n  and\n  dup2\n  mstore\n  0x20\n  add\n    /* \"contracts/CondAndLoops.sol\":150:151  4 */\n  0x04\n    /* \"contracts/CondAndLoops.sol\":116:171  uint[] public numbers = [1, 2, 3, 4, 5, 6, 7, 8, 9, 10] */\n  0xff\n  and\n  dup2\n  mstore\n  0x20\n  add\n    /* \"contracts/CondAndLoops.sol\":153:154  5 */\n  0x05\n    /* \"contracts/CondAndLoops.sol\":116:171  uint[] public numbers = [1, 2, 3, 4, 5, 6, 7, 8, 9, 10] */\n  0xff\n  and\n  dup2\n  mstore\n  0x20\n  add\n    /* \"contracts/CondAndLoops.sol\":156:157  6 */\n  0x06\n    /* \"contracts/CondAndLoops.sol\":116:171  uint[] public numbers = [1, 2, 3, 4, 5, 6, 7, 8, 9, 10] */\n  0xff\n  and\n  dup2\n  mstore\n  0x20\n  add\n    /* \"contracts/CondAndLoops.sol\":159:160  7 */\n  0x07\n    /* \"contracts/CondAndLoops.sol\":116:171  uint[] public numbers = [1, 2, 3, 4, 5, 6, 7, 8, 9, 10] */\n  0xff\n  and\n  dup2\n  mstore\n  0x20\n  add\n    /* \"contracts/CondAndLoops.sol\":162:163  8 */\n  0x08\n    /* \"contracts/CondAndLoops.sol\":116:171  uint[] public numbers = [1, 2, 3, 4, 5, 6, 7, 8, 9, 10] */\n  0xff\n  and\n  dup2\n  mstore\n  0x20\n  add\n    /* \"contracts/CondAndLoops.sol\":165:166  9 */\n  0x09\n    /* \"contracts/CondAndLoops.sol\":116:171  uint[] public numbers = [1, 2, 3, 4, 5, 6, 7, 8, 9, 10] */\n  0xff\n  and\n  dup2\n  mstore\n  0x20\n  add\n    /* \"contracts/CondAndLoops.sol\":168:170  10 */\n  0x0a\n    /* \"contracts/CondAndLoops.sol\":116:171  uint[] public numbers = [1, 2, 3, 4, 5, 6, 7, 8, 9, 10] */\n  0xff\n  and\n  dup2\n  mstore\n  pop\n  0x01\n  swap1\n  0x0a\n  tag_1\n  swap3\n  swap2\n  swap1\n  tag_2\n  jump\t// in\ntag_1:\n  pop\n    /* \"contracts/CondAndLoops.sol\":178:292  constructor() {... */\n  callvalue\n  dup1\n  iszero\n  tag_3\n  jumpi\n  0x00\n  dup1\n  revert\ntag_3:\n  pop\n    /* \"contracts/CondAndLoops.sol\":275:285  msg.sender */\n  caller\n    /* \"contracts/CondAndLoops.sol\":267:272  owner */\n  0x00\n  dup1\n    /* \"contracts/CondAndLoops.sol\":267:285  owner = msg.sender */\n  0x0100\n  exp\n  dup2\n  sload\n  dup2\n  0xffffffffffffffffffffffffffffffffffffffff\n  mul\n  not\n  and\n  swap1\n  dup4\n  0xffffffffffffffffffffffffffffffffffffffff\n  and\n  mul\n  or\n  swap1\n  sstore\n  pop\n    /* \"contracts/CondAndLoops.sol\":57:861  contract CondAndLoops {... */\n  jump(tag_6)\ntag_2:\n  dup3\n  dup1\n  sload\n  dup3\n  dup3\n  sstore\n  swap1\n  0x00\n  mstore\n  keccak256(0x00, 0x20)\n  swap1\n  dup2\n  add\n  swap3\n  dup3\n  iszero\n  tag_7\n  jumpi\n  swap2\n  0x20\n  mul\n  dup3\n  add\ntag_8:\n  dup3\n  dup2\n  gt\n  iszero\n  tag_9\n  jumpi\n  dup3\n  mload\n  dup3\n  swap1\n  0xff\n  and\n  swap1\n  sstore\n  swap2\n  0x20\n  add\n  swap2\n  swap1\n  0x01\n  add\n  swap1\n  jump(tag_8)\ntag_9:\ntag_7:\n  pop\n  swap1\n  pop\n  tag_10\n  swap2\n  swap1\n  tag_11\n  jump\t// in\ntag_10:\n  pop\n  swap1\n  jump\t// out\ntag_11:\ntag_12:\n  dup1\n  dup3\n  gt\n  iszero\n  tag_13\n  jumpi\n  0x00\n  dup2\n  0x00\n  swap1\n  sstore\n  pop\n  0x01\n  add\n  jump(tag_12)\ntag_13:\n  pop\n  swap1\n  jump\t// out\ntag_6:\n  dataSize(sub_0)\n  dup1\n  dataOffset(sub_0)\n  0x00\n  codecopy\n  0x00\n  return\nstop\n\nsub_0: assembly {\n        /* \"contracts/CondAndLoops.sol\":57:861  contract CondAndLoops {... */\n      mstore(0x40, 0x80)\n      callvalue\n      dup1\n      iszero\n      tag_1\n      jumpi\n      0x00\n      dup1\n      revert\n    tag_1:\n      pop\n      jumpi(tag_2, lt(calldatasize, 0x04))\n      shr(0xe0, calldataload(0x00))\n      dup1\n      0x306d3e02\n      eq\n      tag_3\n      jumpi\n      dup1\n      0x8da5cb5b\n      eq\n      tag_4\n      jumpi\n      dup1\n      0x8f32d59b\n      eq\n      tag_5\n      jumpi\n      dup1\n      0xd39fa233\n      eq\n      tag_6\n      jumpi\n      dup1\n      0xe5054c69\n      eq\n      tag_7\n      jumpi\n    tag_2:\n      0x00\n      dup1\n      revert\n        /* \"contracts/CondAndLoops.sol\":423:683  function countEvenNumbers() public view returns(uint) {... */\n    tag_3:\n      tag_8\n      tag_9\n      jump\t// in\n    tag_8:\n      mload(0x40)\n      tag_10\n      swap2\n      swap1\n      tag_11\n      jump\t// in\n    tag_10:\n      mload(0x40)\n      dup1\n      swap2\n      sub\n      swap1\n      return\n        /* \"contracts/CondAndLoops.sol\":90:110  address public owner */\n    tag_4:\n      tag_12\n      tag_13\n      jump\t// in\n    tag_12:\n      mload(0x40)\n      tag_14\n      swap2\n      swap1\n      tag_15\n      jump\t// in\n    tag_14:\n      mload(0x40)\n      dup1\n      swap2\n      sub\n      swap1\n      return\n        /* \"contracts/CondAndLoops.sol\":689:858  function isOwner() public view returns(bool) {... */\n    tag_5:\n      tag_16\n      tag_17\n      jump\t// in\n    tag_16:\n      mload(0x40)\n      tag_18\n      swap2\n      swap1\n      tag_19\n      jump\t// in\n    tag_18:\n      mload(0x40)\n      dup1\n      swap2\n      sub\n      swap1\n      return\n        /* \"contracts/CondAndLoops.sol\":116:171  uint[] public numbers = [1, 2, 3, 4, 5, 6, 7, 8, 9, 10] */\n    tag_6:\n      tag_20\n      0x04\n      dup1\n      calldatasize\n      sub\n      dup2\n      add\n      swap1\n      tag_21\n      swap2\n      swap1\n      tag_22\n      jump\t// in\n    tag_21:\n      tag_23\n      jump\t// in\n    tag_20:\n      mload(0x40)\n      tag_24\n      swap2\n      swap1\n      tag_11\n      jump\t// in\n    tag_24:\n      mload(0x40)\n      dup1\n      swap2\n      sub\n      swap1\n      return\n        /* \"contracts/CondAndLoops.sol\":298:417  function isEvenNumber(uint _number) public pure returns(bool) {... */\n    tag_7:\n      tag_25\n      0x04\n      dup1\n      calldatasize\n      sub\n      dup2\n      add\n      swap1\n      tag_26\n      swap2\n      swap1\n      tag_22\n      jump\t// in\n    tag_26:\n      tag_27\n      jump\t// in\n    tag_25:\n      mload(0x40)\n      tag_28\n      swap2\n      swap1\n      tag_19\n      jump\t// in\n    tag_28:\n      mload(0x40)\n      dup1\n      swap2\n      sub\n      swap1\n      return\n        /* \"contracts/CondAndLoops.sol\":423:683  function countEvenNumbers() public view returns(uint) {... */\n    tag_9:\n        /* \"contracts/CondAndLoops.sol\":471:475  uint */\n      0x00\n        /* \"contracts/CondAndLoops.sol\":487:497  uint count */\n      dup1\n        /* \"contracts/CondAndLoops.sol\":500:501  0 */\n      0x00\n        /* \"contracts/CondAndLoops.sol\":487:501  uint count = 0 */\n      swap1\n      pop\n        /* \"contracts/CondAndLoops.sol\":524:530  uint i */\n      0x00\n        /* \"contracts/CondAndLoops.sol\":520:655  for(uint i = 0; i < numbers.length; i++) {... */\n    tag_30:\n        /* \"contracts/CondAndLoops.sol\":540:547  numbers */\n      0x01\n        /* \"contracts/CondAndLoops.sol\":540:554  numbers.length */\n      dup1\n      sload\n      swap1\n      pop\n        /* \"contracts/CondAndLoops.sol\":536:537  i */\n      dup2\n        /* \"contracts/CondAndLoops.sol\":536:554  i < numbers.length */\n      lt\n        /* \"contracts/CondAndLoops.sol\":520:655  for(uint i = 0; i < numbers.length; i++) {... */\n      iszero\n      tag_31\n      jumpi\n        /* \"contracts/CondAndLoops.sol\":579:603  isEvenNumber(numbers[i]) */\n      tag_33\n        /* \"contracts/CondAndLoops.sol\":592:599  numbers */\n      0x01\n        /* \"contracts/CondAndLoops.sol\":600:601  i */\n      dup3\n        /* \"contracts/CondAndLoops.sol\":592:602  numbers[i] */\n      dup2\n      sload\n      dup2\n      lt\n      tag_34\n      jumpi\n      tag_35\n      tag_36\n      jump\t// in\n    tag_35:\n    tag_34:\n      swap1\n      0x00\n      mstore\n      keccak256(0x00, 0x20)\n      add\n      sload\n        /* \"contracts/CondAndLoops.sol\":579:591  isEvenNumber */\n      tag_27\n        /* \"contracts/CondAndLoops.sol\":579:603  isEvenNumber(numbers[i]) */\n      jump\t// in\n    tag_33:\n        /* \"contracts/CondAndLoops.sol\":575:645  if (isEvenNumber(numbers[i])) {... */\n      iszero\n      tag_38\n      jumpi\n        /* \"contracts/CondAndLoops.sol\":623:630  count++ */\n      dup2\n      dup1\n      tag_39\n      swap1\n      tag_40\n      jump\t// in\n    tag_39:\n      swap3\n      pop\n      pop\n        /* \"contracts/CondAndLoops.sol\":575:645  if (isEvenNumber(numbers[i])) {... */\n    tag_38:\n        /* \"contracts/CondAndLoops.sol\":556:559  i++ */\n      dup1\n      dup1\n      tag_41\n      swap1\n      tag_40\n      jump\t// in\n    tag_41:\n      swap2\n      pop\n      pop\n        /* \"contracts/CondAndLoops.sol\":520:655  for(uint i = 0; i < numbers.length; i++) {... */\n      jump(tag_30)\n    tag_31:\n      pop\n        /* \"contracts/CondAndLoops.sol\":671:676  count */\n      dup1\n        /* \"contracts/CondAndLoops.sol\":664:676  return count */\n      swap2\n      pop\n      pop\n        /* \"contracts/CondAndLoops.sol\":423:683  function countEvenNumbers() public view returns(uint) {... */\n      swap1\n      jump\t// out\n        /* \"contracts/CondAndLoops.sol\":90:110  address public owner */\n    tag_13:\n      0x00\n      dup1\n      sload\n      swap1\n      0x0100\n      exp\n      swap1\n      div\n      0xffffffffffffffffffffffffffffffffffffffff\n      and\n      dup2\n      jump\t// out\n        /* \"contracts/CondAndLoops.sol\":689:858  function isOwner() public view returns(bool) {... */\n    tag_17:\n        /* \"contracts/CondAndLoops.sol\":728:732  bool */\n      0x00\n        /* \"contracts/CondAndLoops.sol\":845:850  owner */\n      dup1\n      0x00\n      swap1\n      sload\n      swap1\n      0x0100\n      exp\n      swap1\n      div\n      0xffffffffffffffffffffffffffffffffffffffff\n      and\n        /* \"contracts/CondAndLoops.sol\":831:850  msg.sender == owner */\n      0xffffffffffffffffffffffffffffffffffffffff\n      and\n        /* \"contracts/CondAndLoops.sol\":831:841  msg.sender */\n      caller\n        /* \"contracts/CondAndLoops.sol\":831:850  msg.sender == owner */\n      0xffffffffffffffffffffffffffffffffffffffff\n      and\n      eq\n        /* \"contracts/CondAndLoops.sol\":824:851  return(msg.sender == owner) */\n      swap1\n      pop\n        /* \"contracts/CondAndLoops.sol\":689:858  function isOwner() public view returns(bool) {... */\n      swap1\n      jump\t// out\n        /* \"contracts/CondAndLoops.sol\":116:171  uint[] public numbers = [1, 2, 3, 4, 5, 6, 7, 8, 9, 10] */\n    tag_23:\n      0x01\n      dup2\n      dup2\n      sload\n      dup2\n      lt\n      tag_43\n      jumpi\n      0x00\n      dup1\n      revert\n    tag_43:\n      swap1\n      0x00\n      mstore\n      keccak256(0x00, 0x20)\n      add\n      0x00\n      swap2\n      pop\n      swap1\n      pop\n      sload\n      dup2\n      jump\t// out\n        /* \"contracts/CondAndLoops.sol\":298:417  function isEvenNumber(uint _number) public pure returns(bool) {... */\n    tag_27:\n        /* \"contracts/CondAndLoops.sol\":354:358  bool */\n      0x00\n        /* \"contracts/CondAndLoops.sol\":393:394  0 */\n      dup1\n        /* \"contracts/CondAndLoops.sol\":388:389  2 */\n      0x02\n        /* \"contracts/CondAndLoops.sol\":378:385  _number */\n      dup4\n        /* \"contracts/CondAndLoops.sol\":378:389  _number % 2 */\n      tag_46\n      swap2\n      swap1\n      tag_47\n      jump\t// in\n    tag_46:\n        /* \"contracts/CondAndLoops.sol\":378:394  _number % 2 == 0 */\n      eq\n        /* \"contracts/CondAndLoops.sol\":378:409  _number % 2 == 0 ? true : false */\n      tag_48\n      jumpi\n        /* \"contracts/CondAndLoops.sol\":404:409  false */\n      0x00\n        /* \"contracts/CondAndLoops.sol\":378:409  _number % 2 == 0 ? true : false */\n      jump(tag_49)\n    tag_48:\n        /* \"contracts/CondAndLoops.sol\":397:401  true */\n      0x01\n        /* \"contracts/CondAndLoops.sol\":378:409  _number % 2 == 0 ? true : false */\n    tag_49:\n        /* \"contracts/CondAndLoops.sol\":370:410  return (_number % 2 == 0 ? true : false) */\n      swap1\n      pop\n        /* \"contracts/CondAndLoops.sol\":298:417  function isEvenNumber(uint _number) public pure returns(bool) {... */\n      swap2\n      swap1\n      pop\n      jump\t// out\n        /* \"#utility.yul\":7:84   */\n    tag_50:\n        /* \"#utility.yul\":44:51   */\n      0x00\n        /* \"#utility.yul\":73:78   */\n      dup2\n        /* \"#utility.yul\":62:78   */\n      swap1\n      pop\n        /* \"#utility.yul\":7:84   */\n      swap2\n      swap1\n      pop\n      jump\t// out\n        /* \"#utility.yul\":90:208   */\n    tag_51:\n        /* \"#utility.yul\":177:201   */\n      tag_67\n        /* \"#utility.yul\":195:200   */\n      dup2\n        /* \"#utility.yul\":177:201   */\n      tag_50\n      jump\t// in\n    tag_67:\n        /* \"#utility.yul\":172:175   */\n      dup3\n        /* \"#utility.yul\":165:202   */\n      mstore\n        /* \"#utility.yul\":90:208   */\n      pop\n      pop\n      jump\t// out\n        /* \"#utility.yul\":214:436   */\n    tag_11:\n        /* \"#utility.yul\":307:311   */\n      0x00\n        /* \"#utility.yul\":345:347   */\n      0x20\n        /* \"#utility.yul\":334:343   */\n      dup3\n        /* \"#utility.yul\":330:348   */\n      add\n        /* \"#utility.yul\":322:348   */\n      swap1\n      pop\n        /* \"#utility.yul\":358:429   */\n      tag_69\n        /* \"#utility.yul\":426:427   */\n      0x00\n        /* \"#utility.yul\":415:424   */\n      dup4\n        /* \"#utility.yul\":411:428   */\n      add\n        /* \"#utility.yul\":402:408   */\n      dup5\n        /* \"#utility.yul\":358:429   */\n      tag_51\n      jump\t// in\n    tag_69:\n        /* \"#utility.yul\":214:436   */\n      swap3\n      swap2\n      pop\n      pop\n      jump\t// out\n        /* \"#utility.yul\":442:568   */\n    tag_52:\n        /* \"#utility.yul\":479:486   */\n      0x00\n        /* \"#utility.yul\":519:561   */\n      0xffffffffffffffffffffffffffffffffffffffff\n        /* \"#utility.yul\":512:517   */\n      dup3\n        /* \"#utility.yul\":508:562   */\n      and\n        /* \"#utility.yul\":497:562   */\n      swap1\n      pop\n        /* \"#utility.yul\":442:568   */\n      swap2\n      swap1\n      pop\n      jump\t// out\n        /* \"#utility.yul\":574:670   */\n    tag_53:\n        /* \"#utility.yul\":611:618   */\n      0x00\n        /* \"#utility.yul\":640:664   */\n      tag_72\n        /* \"#utility.yul\":658:663   */\n      dup3\n        /* \"#utility.yul\":640:664   */\n      tag_52\n      jump\t// in\n    tag_72:\n        /* \"#utility.yul\":629:664   */\n      swap1\n      pop\n        /* \"#utility.yul\":574:670   */\n      swap2\n      swap1\n      pop\n      jump\t// out\n        /* \"#utility.yul\":676:794   */\n    tag_54:\n        /* \"#utility.yul\":763:787   */\n      tag_74\n        /* \"#utility.yul\":781:786   */\n      dup2\n        /* \"#utility.yul\":763:787   */\n      tag_53\n      jump\t// in\n    tag_74:\n        /* \"#utility.yul\":758:761   */\n      dup3\n        /* \"#utility.yul\":751:788   */\n      mstore\n        /* \"#utility.yul\":676:794   */\n      pop\n      pop\n      jump\t// out\n        /* \"#utility.yul\":800:1022   */\n    tag_15:\n        /* \"#utility.yul\":893:897   */\n      0x00\n        /* \"#utility.yul\":931:933   */\n      0x20\n        /* \"#utility.yul\":920:929   */\n      dup3\n        /* \"#utility.yul\":916:934   */\n      add\n        /* \"#utility.yul\":908:934   */\n      swap1\n      pop\n        /* \"#utility.yul\":944:1015   */\n      tag_76\n        /* \"#utility.yul\":1012:1013   */\n      0x00\n        /* \"#utility.yul\":1001:1010   */\n      dup4\n        /* \"#utility.yul\":997:1014   */\n      add\n        /* \"#utility.yul\":988:994   */\n      dup5\n        /* \"#utility.yul\":944:1015   */\n      tag_54\n      jump\t// in\n    tag_76:\n        /* \"#utility.yul\":800:1022   */\n      swap3\n      swap2\n      pop\n      pop\n      jump\t// out\n        /* \"#utility.yul\":1028:1118   */\n    tag_55:\n        /* \"#utility.yul\":1062:1069   */\n      0x00\n        /* \"#utility.yul\":1105:1110   */\n      dup2\n        /* \"#utility.yul\":1098:1111   */\n      iszero\n        /* \"#utility.yul\":1091:1112   */\n      iszero\n        /* \"#utility.yul\":1080:1112   */\n      swap1\n      pop\n        /* \"#utility.yul\":1028:1118   */\n      swap2\n      swap1\n      pop\n      jump\t// out\n        /* \"#utility.yul\":1124:1233   */\n    tag_56:\n        /* \"#utility.yul\":1205:1226   */\n      tag_79\n        /* \"#utility.yul\":1220:1225   */\n      dup2\n        /* \"#utility.yul\":1205:1226   */\n      tag_55\n      jump\t// in\n    tag_79:\n        /* \"#utility.yul\":1200:1203   */\n      dup3\n        /* \"#utility.yul\":1193:1227   */\n      mstore\n        /* \"#utility.yul\":1124:1233   */\n      pop\n      pop\n      jump\t// out\n        /* \"#utility.yul\":1239:1449   */\n    tag_19:\n        /* \"#utility.yul\":1326:1330   */\n      0x00\n        /* \"#utility.yul\":1364:1366   */\n      0x20\n        /* \"#utility.yul\":1353:1362   */\n      dup3\n        /* \"#utility.yul\":1349:1367   */\n      add\n        /* \"#utility.yul\":1341:1367   */\n      swap1\n      pop\n        /* \"#utility.yul\":1377:1442   */\n      tag_81\n        /* \"#utility.yul\":1439:1440   */\n      0x00\n        /* \"#utility.yul\":1428:1437   */\n      dup4\n        /* \"#utility.yul\":1424:1441   */\n      add\n        /* \"#utility.yul\":1415:1421   */\n      dup5\n        /* \"#utility.yul\":1377:1442   */\n      tag_56\n      jump\t// in\n    tag_81:\n        /* \"#utility.yul\":1239:1449   */\n      swap3\n      swap2\n      pop\n      pop\n      jump\t// out\n        /* \"#utility.yul\":1536:1653   */\n    tag_58:\n        /* \"#utility.yul\":1645:1646   */\n      0x00\n        /* \"#utility.yul\":1642:1643   */\n      dup1\n        /* \"#utility.yul\":1635:1647   */\n      revert\n        /* \"#utility.yul\":1782:1904   */\n    tag_60:\n        /* \"#utility.yul\":1855:1879   */\n      tag_86\n        /* \"#utility.yul\":1873:1878   */\n      dup2\n        /* \"#utility.yul\":1855:1879   */\n      tag_50\n      jump\t// in\n    tag_86:\n        /* \"#utility.yul\":1848:1853   */\n      dup2\n        /* \"#utility.yul\":1845:1880   */\n      eq\n        /* \"#utility.yul\":1835:1898   */\n      tag_87\n      jumpi\n        /* \"#utility.yul\":1894:1895   */\n      0x00\n        /* \"#utility.yul\":1891:1892   */\n      dup1\n        /* \"#utility.yul\":1884:1896   */\n      revert\n        /* \"#utility.yul\":1835:1898   */\n    tag_87:\n        /* \"#utility.yul\":1782:1904   */\n      pop\n      jump\t// out\n        /* \"#utility.yul\":1910:2049   */\n    tag_61:\n        /* \"#utility.yul\":1956:1961   */\n      0x00\n        /* \"#utility.yul\":1994:2000   */\n      dup2\n        /* \"#utility.yul\":1981:2001   */\n      calldataload\n        /* \"#utility.yul\":1972:2001   */\n      swap1\n      pop\n        /* \"#utility.yul\":2010:2043   */\n      tag_89\n        /* \"#utility.yul\":2037:2042   */\n      dup2\n        /* \"#utility.yul\":2010:2043   */\n      tag_60\n      jump\t// in\n    tag_89:\n        /* \"#utility.yul\":1910:2049   */\n      swap3\n      swap2\n      pop\n      pop\n      jump\t// out\n        /* \"#utility.yul\":2055:2384   */\n    tag_22:\n        /* \"#utility.yul\":2114:2120   */\n      0x00\n        /* \"#utility.yul\":2163:2165   */\n      0x20\n        /* \"#utility.yul\":2151:2160   */\n      dup3\n        /* \"#utility.yul\":2142:2149   */\n      dup5\n        /* \"#utility.yul\":2138:2161   */\n      sub\n        /* \"#utility.yul\":2134:2166   */\n      slt\n        /* \"#utility.yul\":2131:2250   */\n      iszero\n      tag_91\n      jumpi\n        /* \"#utility.yul\":2169:2248   */\n      tag_92\n      tag_58\n      jump\t// in\n    tag_92:\n        /* \"#utility.yul\":2131:2250   */\n    tag_91:\n        /* \"#utility.yul\":2289:2290   */\n      0x00\n        /* \"#utility.yul\":2314:2367   */\n      tag_93\n        /* \"#utility.yul\":2359:2366   */\n      dup5\n        /* \"#utility.yul\":2350:2356   */\n      dup3\n        /* \"#utility.yul\":2339:2348   */\n      dup6\n        /* \"#utility.yul\":2335:2357   */\n      add\n        /* \"#utility.yul\":2314:2367   */\n      tag_61\n      jump\t// in\n    tag_93:\n        /* \"#utility.yul\":2304:2367   */\n      swap2\n      pop\n        /* \"#utility.yul\":2260:2377   */\n      pop\n        /* \"#utility.yul\":2055:2384   */\n      swap3\n      swap2\n      pop\n      pop\n      jump\t// out\n        /* \"#utility.yul\":2390:2570   */\n    tag_36:\n        /* \"#utility.yul\":2438:2515   */\n      0x4e487b7100000000000000000000000000000000000000000000000000000000\n        /* \"#utility.yul\":2435:2436   */\n      0x00\n        /* \"#utility.yul\":2428:2516   */\n      mstore\n        /* \"#utility.yul\":2535:2539   */\n      0x32\n        /* \"#utility.yul\":2532:2533   */\n      0x04\n        /* \"#utility.yul\":2525:2540   */\n      mstore\n        /* \"#utility.yul\":2559:2563   */\n      0x24\n        /* \"#utility.yul\":2556:2557   */\n      0x00\n        /* \"#utility.yul\":2549:2564   */\n      revert\n        /* \"#utility.yul\":2576:2756   */\n    tag_62:\n        /* \"#utility.yul\":2624:2701   */\n      0x4e487b7100000000000000000000000000000000000000000000000000000000\n        /* \"#utility.yul\":2621:2622   */\n      0x00\n        /* \"#utility.yul\":2614:2702   */\n      mstore\n        /* \"#utility.yul\":2721:2725   */\n      0x11\n        /* \"#utility.yul\":2718:2719   */\n      0x04\n        /* \"#utility.yul\":2711:2726   */\n      mstore\n        /* \"#utility.yul\":2745:2749   */\n      0x24\n        /* \"#utility.yul\":2742:2743   */\n      0x00\n        /* \"#utility.yul\":2735:2750   */\n      revert\n        /* \"#utility.yul\":2762:2995   */\n    tag_40:\n        /* \"#utility.yul\":2801:2804   */\n      0x00\n        /* \"#utility.yul\":2824:2848   */\n      tag_97\n        /* \"#utility.yul\":2842:2847   */\n      dup3\n        /* \"#utility.yul\":2824:2848   */\n      tag_50\n      jump\t// in\n    tag_97:\n        /* \"#utility.yul\":2815:2848   */\n      swap2\n      pop\n        /* \"#utility.yul\":2870:2936   */\n      0xffffffffffffffffffffffffffffffffffffffffffffffffffffffffffffffff\n        /* \"#utility.yul\":2863:2868   */\n      dup3\n        /* \"#utility.yul\":2860:2937   */\n      sub\n        /* \"#utility.yul\":2857:2960   */\n      tag_98\n      jumpi\n        /* \"#utility.yul\":2940:2958   */\n      tag_99\n      tag_62\n      jump\t// in\n    tag_99:\n        /* \"#utility.yul\":2857:2960   */\n    tag_98:\n        /* \"#utility.yul\":2987:2988   */\n      0x01\n        /* \"#utility.yul\":2980:2985   */\n      dup3\n        /* \"#utility.yul\":2976:2989   */\n      add\n        /* \"#utility.yul\":2969:2989   */\n      swap1\n      pop\n        /* \"#utility.yul\":2762:2995   */\n      swap2\n      swap1\n      pop\n      jump\t// out\n        /* \"#utility.yul\":3001:3181   */\n    tag_63:\n        /* \"#utility.yul\":3049:3126   */\n      0x4e487b7100000000000000000000000000000000000000000000000000000000\n        /* \"#utility.yul\":3046:3047   */\n      0x00\n        /* \"#utility.yul\":3039:3127   */\n      mstore\n        /* \"#utility.yul\":3146:3150   */\n      0x12\n        /* \"#utility.yul\":3143:3144   */\n      0x04\n        /* \"#utility.yul\":3136:3151   */\n      mstore\n        /* \"#utility.yul\":3170:3174   */\n      0x24\n        /* \"#utility.yul\":3167:3168   */\n      0x00\n        /* \"#utility.yul\":3160:3175   */\n      revert\n        /* \"#utility.yul\":3187:3363   */\n    tag_47:\n        /* \"#utility.yul\":3219:3220   */\n      0x00\n        /* \"#utility.yul\":3236:3256   */\n      tag_102\n        /* \"#utility.yul\":3254:3255   */\n      dup3\n        /* \"#utility.yul\":3236:3256   */\n      tag_50\n      jump\t// in\n    tag_102:\n        /* \"#utility.yul\":3231:3256   */\n      swap2\n      pop\n        /* \"#utility.yul\":3270:3290   */\n      tag_103\n        /* \"#utility.yul\":3288:3289   */\n      dup4\n        /* \"#utility.yul\":3270:3290   */\n      tag_50\n      jump\t// in\n    tag_103:\n        /* \"#utility.yul\":3265:3290   */\n      swap3\n      pop\n        /* \"#utility.yul\":3309:3310   */\n      dup3\n        /* \"#utility.yul\":3299:3334   */\n      tag_104\n      jumpi\n        /* \"#utility.yul\":3314:3332   */\n      tag_105\n      tag_63\n      jump\t// in\n    tag_105:\n        /* \"#utility.yul\":3299:3334   */\n    tag_104:\n        /* \"#utility.yul\":3355:3356   */\n      dup3\n        /* \"#utility.yul\":3352:3353   */\n      dup3\n        /* \"#utility.yul\":3348:3357   */\n      mod\n        /* \"#utility.yul\":3343:3357   */\n      swap1\n      pop\n        /* \"#utility.yul\":3187:3363   */\n      swap3\n      swap2\n      pop\n      pop\n      jump\t// out\n\n    auxdata: 0xa26469706673582212208460b5cc5333ce275d614998b7d5d713292f639d1312c78c3c15991ee4af3c9b64736f6c63430008120033\n}\n",
				"bytecode": {
					"linkReferences": {},
					"object": "6080604052604051806101400160405280600160ff168152602001600260ff168152602001600360ff168152602001600460ff168152602001600560ff168152602001600660ff168152602001600760ff168152602001600860ff168152602001600960ff168152602001600a60ff16815250600190600a6100829291906100d5565b5034801561008f57600080fd5b50336000806101000a81548173ffffffffffffffffffffffffffffffffffffffff021916908373ffffffffffffffffffffffffffffffffffffffff160217905550610144565b828054828255906000526020600020908101928215610116579160200282015b82811115610115578251829060ff169055916020019190600101906100f5565b5b5090506101239190610127565b5090565b5b80821115610140576000816000905550600101610128565b5090565b6104a8806101536000396000f3fe608060405234801561001057600080fd5b50600436106100575760003560e01c8063306d3e021461005c5780638da5cb5b1461007a5780638f32d59b14610098578063d39fa233146100b6578063e5054c69146100e6575b600080fd5b610064610116565b6040516100719190610261565b60405180910390f35b610082610183565b60405161008f91906102bd565b60405180910390f35b6100a06101a7565b6040516100ad91906102f3565b60405180910390f35b6100d060048036038101906100cb919061033f565b6101fe565b6040516100dd9190610261565b60405180910390f35b61010060048036038101906100fb919061033f565b610222565b60405161010d91906102f3565b60405180910390f35b6000806000905060005b60018054905081101561017b57610154600182815481106101445761014361036c565b5b9060005260206000200154610222565b15610168578180610164906103ca565b9250505b8080610173906103ca565b915050610120565b508091505090565b60008054906101000a900473ffffffffffffffffffffffffffffffffffffffff1681565b60008060009054906101000a900473ffffffffffffffffffffffffffffffffffffffff1673ffffffffffffffffffffffffffffffffffffffff163373ffffffffffffffffffffffffffffffffffffffff1614905090565b6001818154811061020e57600080fd5b906000526020600020016000915090505481565b6000806002836102329190610441565b1461023e576000610241565b60015b9050919050565b6000819050919050565b61025b81610248565b82525050565b60006020820190506102766000830184610252565b92915050565b600073ffffffffffffffffffffffffffffffffffffffff82169050919050565b60006102a78261027c565b9050919050565b6102b78161029c565b82525050565b60006020820190506102d260008301846102ae565b92915050565b60008115159050919050565b6102ed816102d8565b82525050565b600060208201905061030860008301846102e4565b92915050565b600080fd5b61031c81610248565b811461032757600080fd5b50565b60008135905061033981610313565b92915050565b6000602082840312156103555761035461030e565b5b60006103638482850161032a565b91505092915050565b7f4e487b7100000000000000000000000000000000000000000000000000000000600052603260045260246000fd5b7f4e487b7100000000000000000000000000000000000000000000000000000000600052601160045260246000fd5b60006103d582610248565b91507fffffffffffffffffffffffffffffffffffffffffffffffffffffffffffffffff82036104075761040661039b565b5b600182019050919050565b7f4e487b7100000000000000000000000000000000000000000000000000000000600052601260045260246000fd5b600061044c82610248565b915061045783610248565b92508261046757610466610412565b5b82820690509291505056fea26469706673582212208460b5cc5333ce275d614998b7d5d713292f639d1312c78c3c15991ee4af3c9b64736f6c63430008120033",
					"opcodes": "PUSH1 0x80 PUSH1 0x40 MSTORE PUSH1 0x40 MLOAD DUP1 PUSH2 0x140 ADD PUSH1 0x40 MSTORE DUP1 PUSH1 0x1 PUSH1 0xFF AND DUP2 MSTORE PUSH1 0x20 ADD PUSH1 0x2 PUSH1 0xFF AND DUP2 MSTORE PUSH1 0x20 ADD PUSH1 0x3 PUSH1 0xFF AND DUP2 MSTORE PUSH1 0x20 ADD PUSH1 0x4 PUSH1 0xFF AND DUP2 MSTORE PUSH1 0x20 ADD PUSH1 0x5 PUSH1 0xFF AND DUP2 MSTORE PUSH1 0x20 ADD PUSH1 0x6 PUSH1 0xFF AND DUP2 MSTORE PUSH1 0x20 ADD PUSH1 0x7 PUSH1 0xFF AND DUP2 MSTORE PUSH1 0x20 ADD PUSH1 0x8 PUSH1 0xFF AND DUP2 MSTORE PUSH1 0x20 ADD PUSH1 0x9 PUSH1 0xFF AND DUP2 MSTORE PUSH1 0x20 ADD PUSH1 0xA PUSH1 0xFF AND DUP2 MSTORE POP PUSH1 0x1 SWAP1 PUSH1 0xA PUSH2 0x82 SWAP3 SWAP2 SWAP1 PUSH2 0xD5 JUMP JUMPDEST POP CALLVALUE DUP1 ISZERO PUSH2 0x8F JUMPI PUSH1 0x0 DUP1 REVERT JUMPDEST POP CALLER PUSH1 0x0 DUP1 PUSH2 0x100 EXP DUP2 SLOAD DUP2 PUSH20 0xFFFFFFFFFFFFFFFFFFFFFFFFFFFFFFFFFFFFFFFF MUL NOT AND SWAP1 DUP4 PUSH20 0xFFFFFFFFFFFFFFFFFFFFFFFFFFFFFFFFFFFFFFFF AND MUL OR SWAP1 SSTORE POP PUSH2 0x144 JUMP JUMPDEST DUP3 DUP1 SLOAD DUP3 DUP3 SSTORE SWAP1 PUSH1 0x0 MSTORE PUSH1 0x20 PUSH1 0x0 KECCAK256 SWAP1 DUP2 ADD SWAP3 DUP3 ISZERO PUSH2 0x116 JUMPI SWAP2 PUSH1 0x20 MUL DUP3 ADD JUMPDEST DUP3 DUP2 GT ISZERO PUSH2 0x115 JUMPI DUP3 MLOAD DUP3 SWAP1 PUSH1 0xFF AND SWAP1 SSTORE SWAP2 PUSH1 0x20 ADD SWAP2 SWAP1 PUSH1 0x1 ADD SWAP1 PUSH2 0xF5 JUMP JUMPDEST JUMPDEST POP SWAP1 POP PUSH2 0x123 SWAP2 SWAP1 PUSH2 0x127 JUMP JUMPDEST POP SWAP1 JUMP JUMPDEST JUMPDEST DUP1 DUP3 GT ISZERO PUSH2 0x140 JUMPI PUSH1 0x0 DUP2 PUSH1 0x0 SWAP1 SSTORE POP PUSH1 0x1 ADD PUSH2 0x128 JUMP JUMPDEST POP SWAP1 JUMP JUMPDEST PUSH2 0x4A8 DUP1 PUSH2 0x153 PUSH1 0x0 CODECOPY PUSH1 0x0 RETURN INVALID PUSH1 0x80 PUSH1 0x40 MSTORE CALLVALUE DUP1 ISZERO PUSH2 0x10 JUMPI PUSH1 0x0 DUP1 REVERT JUMPDEST POP PUSH1 0x4 CALLDATASIZE LT PUSH2 0x57 JUMPI PUSH1 0x0 CALLDATALOAD PUSH1 0xE0 SHR DUP1 PUSH4 0x306D3E02 EQ PUSH2 0x5C JUMPI DUP1 PUSH4 0x8DA5CB5B EQ PUSH2 0x7A JUMPI DUP1 PUSH4 0x8F32D59B EQ PUSH2 0x98 JUMPI DUP1 PUSH4 0xD39FA233 EQ PUSH2 0xB6 JUMPI DUP1 PUSH4 0xE5054C69 EQ PUSH2 0xE6 JUMPI JUMPDEST PUSH1 0x0 DUP1 REVERT JUMPDEST PUSH2 0x64 PUSH2 0x116 JUMP JUMPDEST PUSH1 0x40 MLOAD PUSH2 0x71 SWAP2 SWAP1 PUSH2 0x261 JUMP JUMPDEST PUSH1 0x40 MLOAD DUP1 SWAP2 SUB SWAP1 RETURN JUMPDEST PUSH2 0x82 PUSH2 0x183 JUMP JUMPDEST PUSH1 0x40 MLOAD PUSH2 0x8F SWAP2 SWAP1 PUSH2 0x2BD JUMP JUMPDEST PUSH1 0x40 MLOAD DUP1 SWAP2 SUB SWAP1 RETURN JUMPDEST PUSH2 0xA0 PUSH2 0x1A7 JUMP JUMPDEST PUSH1 0x40 MLOAD PUSH2 0xAD SWAP2 SWAP1 PUSH2 0x2F3 JUMP JUMPDEST PUSH1 0x40 MLOAD DUP1 SWAP2 SUB SWAP1 RETURN JUMPDEST PUSH2 0xD0 PUSH1 0x4 DUP1 CALLDATASIZE SUB DUP2 ADD SWAP1 PUSH2 0xCB SWAP2 SWAP1 PUSH2 0x33F JUMP JUMPDEST PUSH2 0x1FE JUMP JUMPDEST PUSH1 0x40 MLOAD PUSH2 0xDD SWAP2 SWAP1 PUSH2 0x261 JUMP JUMPDEST PUSH1 0x40 MLOAD DUP1 SWAP2 SUB SWAP1 RETURN JUMPDEST PUSH2 0x100 PUSH1 0x4 DUP1 CALLDATASIZE SUB DUP2 ADD SWAP1 PUSH2 0xFB SWAP2 SWAP1 PUSH2 0x33F JUMP JUMPDEST PUSH2 0x222 JUMP JUMPDEST PUSH1 0x40 MLOAD PUSH2 0x10D SWAP2 SWAP1 PUSH2 0x2F3 JUMP JUMPDEST PUSH1 0x40 MLOAD DUP1 SWAP2 SUB SWAP1 RETURN JUMPDEST PUSH1 0x0 DUP1 PUSH1 0x0 SWAP1 POP PUSH1 0x0 JUMPDEST PUSH1 0x1 DUP1 SLOAD SWAP1 POP DUP2 LT ISZERO PUSH2 0x17B JUMPI PUSH2 0x154 PUSH1 0x1 DUP3 DUP2 SLOAD DUP2 LT PUSH2 0x144 JUMPI PUSH2 0x143 PUSH2 0x36C JUMP JUMPDEST JUMPDEST SWAP1 PUSH1 0x0 MSTORE PUSH1 0x20 PUSH1 0x0 KECCAK256 ADD SLOAD PUSH2 0x222 JUMP JUMPDEST ISZERO PUSH2 0x168 JUMPI DUP2 DUP1 PUSH2 0x164 SWAP1 PUSH2 0x3CA JUMP JUMPDEST SWAP3 POP POP JUMPDEST DUP1 DUP1 PUSH2 0x173 SWAP1 PUSH2 0x3CA JUMP JUMPDEST SWAP2 POP POP PUSH2 0x120 JUMP JUMPDEST POP DUP1 SWAP2 POP POP SWAP1 JUMP JUMPDEST PUSH1 0x0 DUP1 SLOAD SWAP1 PUSH2 0x100 EXP SWAP1 DIV PUSH20 0xFFFFFFFFFFFFFFFFFFFFFFFFFFFFFFFFFFFFFFFF AND DUP2 JUMP JUMPDEST PUSH1 0x0 DUP1 PUSH1 0x0 SWAP1 SLOAD SWAP1 PUSH2 0x100 EXP SWAP1 DIV PUSH20 0xFFFFFFFFFFFFFFFFFFFFFFFFFFFFFFFFFFFFFFFF AND PUSH20 0xFFFFFFFFFFFFFFFFFFFFFFFFFFFFFFFFFFFFFFFF AND CALLER PUSH20 0xFFFFFFFFFFFFFFFFFFFFFFFFFFFFFFFFFFFFFFFF AND EQ SWAP1 POP SWAP1 JUMP JUMPDEST PUSH1 0x1 DUP2 DUP2 SLOAD DUP2 LT PUSH2 0x20E JUMPI PUSH1 0x0 DUP1 REVERT JUMPDEST SWAP1 PUSH1 0x0 MSTORE PUSH1 0x20 PUSH1 0x0 KECCAK256 ADD PUSH1 0x0 SWAP2 POP SWAP1 POP SLOAD DUP2 JUMP JUMPDEST PUSH1 0x0 DUP1 PUSH1 0x2 DUP4 PUSH2 0x232 SWAP2 SWAP1 PUSH2 0x441 JUMP JUMPDEST EQ PUSH2 0x23E JUMPI PUSH1 0x0 PUSH2 0x241 JUMP JUMPDEST PUSH1 0x1 JUMPDEST SWAP1 POP SWAP2 SWAP1 POP JUMP JUMPDEST PUSH1 0x0 DUP2 SWAP1 POP SWAP2 SWAP1 POP JUMP JUMPDEST PUSH2 0x25B DUP2 PUSH2 0x248 JUMP JUMPDEST DUP3 MSTORE POP POP JUMP JUMPDEST PUSH1 0x0 PUSH1 0x20 DUP3 ADD SWAP1 POP PUSH2 0x276 PUSH1 0x0 DUP4 ADD DUP5 PUSH2 0x252 JUMP JUMPDEST SWAP3 SWAP2 POP POP JUMP JUMPDEST PUSH1 0x0 PUSH20 0xFFFFFFFFFFFFFFFFFFFFFFFFFFFFFFFFFFFFFFFF DUP3 AND SWAP1 POP SWAP2 SWAP1 POP JUMP JUMPDEST PUSH1 0x0 PUSH2 0x2A7 DUP3 PUSH2 0x27C JUMP JUMPDEST SWAP1 POP SWAP2 SWAP1 POP JUMP JUMPDEST PUSH2 0x2B7 DUP2 PUSH2 0x29C JUMP JUMPDEST DUP3 MSTORE POP POP JUMP JUMPDEST PUSH1 0x0 PUSH1 0x20 DUP3 ADD SWAP1 POP PUSH2 0x2D2 PUSH1 0x0 DUP4 ADD DUP5 PUSH2 0x2AE JUMP JUMPDEST SWAP3 SWAP2 POP POP JUMP JUMPDEST PUSH1 0x0 DUP2 ISZERO ISZERO SWAP1 POP SWAP2 SWAP1 POP JUMP JUMPDEST PUSH2 0x2ED DUP2 PUSH2 0x2D8 JUMP JUMPDEST DUP3 MSTORE POP POP JUMP JUMPDEST PUSH1 0x0 PUSH1 0x20 DUP3 ADD SWAP1 POP PUSH2 0x308 PUSH1 0x0 DUP4 ADD DUP5 PUSH2 0x2E4 JUMP JUMPDEST SWAP3 SWAP2 POP POP JUMP JUMPDEST PUSH1 0x0 DUP1 REVERT JUMPDEST PUSH2 0x31C DUP2 PUSH2 0x248 JUMP JUMPDEST DUP2 EQ PUSH2 0x327 JUMPI PUSH1 0x0 DUP1 REVERT JUMPDEST POP JUMP JUMPDEST PUSH1 0x0 DUP2 CALLDATALOAD SWAP1 POP PUSH2 0x339 DUP2 PUSH2 0x313 JUMP JUMPDEST SWAP3 SWAP2 POP POP JUMP JUMPDEST PUSH1 0x0 PUSH1 0x20 DUP3 DUP5 SUB SLT ISZERO PUSH2 0x355 JUMPI PUSH2 0x354 PUSH2 0x30E JUMP JUMPDEST JUMPDEST PUSH1 0x0 PUSH2 0x363 DUP5 DUP3 DUP6 ADD PUSH2 0x32A JUMP JUMPDEST SWAP2 POP POP SWAP3 SWAP2 POP POP JUMP JUMPDEST PUSH32 0x4E487B7100000000000000000000000000000000000000000000000000000000 PUSH1 0x0 MSTORE PUSH1 0x32 PUSH1 0x4 MSTORE PUSH1 0x24 PUSH1 0x0 REVERT JUMPDEST PUSH32 0x4E487B7100000000000000000000000000000000000000000000000000000000 PUSH1 0x0 MSTORE PUSH1 0x11 PUSH1 0x4 MSTORE PUSH1 0x24 PUSH1 0x0 REVERT JUMPDEST PUSH1 0x0 PUSH2 0x3D5 DUP3 PUSH2 0x248 JUMP JUMPDEST SWAP2 POP PUSH32 0xFFFFFFFFFFFFFFFFFFFFFFFFFFFFFFFFFFFFFFFFFFFFFFFFFFFFFFFFFFFFFFFF DUP3 SUB PUSH2 0x407 JUMPI PUSH2 0x406 PUSH2 0x39B JUMP JUMPDEST JUMPDEST PUSH1 0x1 DUP3 ADD SWAP1 POP SWAP2 SWAP1 POP JUMP JUMPDEST PUSH32 0x4E487B7100000000000000000000000000000000000000000000000000000000 PUSH1 0x0 MSTORE PUSH1 0x12 PUSH1 0x4 MSTORE PUSH1 0x24 PUSH1 0x0 REVERT JUMPDEST PUSH1 0x0 PUSH2 0x44C DUP3 PUSH2 0x248 JUMP JUMPDEST SWAP2 POP PUSH2 0x457 DUP4 PUSH2 0x248 JUMP JUMPDEST SWAP3 POP DUP3 PUSH2 0x467 JUMPI PUSH2 0x466 PUSH2 0x412 JUMP JUMPDEST JUMPDEST DUP3 DUP3 MOD SWAP1 POP SWAP3 SWAP2 POP POP JUMP INVALID LOG2 PUSH5 0x6970667358 0x22 SLT KECCAK256 DUP5 PUSH1 0xB5 0xCC MSTORE8 CALLER 0xCE 0x27 0x5D PUSH2 0x4998 0xB7 0xD5 0xD7 SGT 0x29 0x2F PUSH4 0x9D1312C7 DUP13 EXTCODECOPY ISZERO SWAP10 0x1E 0xE4 0xAF EXTCODECOPY SWAP12 PUSH5 0x736F6C6343 STOP ADDMOD SLT STOP CALLER "
				},
				"gasEstimates": {
					"creation": {
						"codeDepositCost": "238400",
						"executionCost": "infinite",
						"totalCost": "infinite"
					},
					"external": {
						"countEvenNumbers()": "infinite",
						"isEvenNumber(uint256)": "infinite",
						"isOwner()": "2518",
						"numbers(uint256)": "infinite",
						"owner()": "2511"
					}
				},
				"methodIdentifiers": {
					"countEvenNumbers()": "306d3e02",
					"isEvenNumber(uint256)": "e5054c69",
					"isOwner()": "8f32d59b",
					"numbers(uint256)": "d39fa233",
					"owner()": "8da5cb5b"
				}
			},
			"storageLayout": {
				"storage": [
					{
						"astId": 3,
						"contract": "contracts/CondAndLoops.sol:CondAndLoops",
						"label": "owner",
						"offset": 0,
						"slot": "0",
						"type": "t_address"
					},
					{
						"astId": 17,
						"contract": "contracts/CondAndLoops.sol:CondAndLoops",
						"label": "numbers",
						"offset": 0,
						"slot": "1",
						"type": "t_array(t_uint256)dyn_storage"
					}
				],
				"types": {
					"t_address": {
						"encoding": "inplace",
						"label": "address",
						"numberOfBytes": "20"
					},
					"t_array(t_uint256)dyn_storage": {
						"base": "t_uint256",
						"encoding": "dynamic_array",
						"label": "uint256[]",
						"numberOfBytes": "32"
					},
					"t_uint256": {
						"encoding": "inplace",
						"label": "uint256",
						"numberOfBytes": "32"
					}
				}
			},
			"userdoc": {
				"kind": "user",
				"methods": {},
				"version": 1
			}
		}
	}
}