{
	"contracts/MyContract.sol": {
		"MyContract": {
			"abi": [
				{
					"inputs": [
						{
							"internalType": "string",
							"name": "_value",
							"type": "string"
						}
					],
					"name": "addValue",
					"outputs": [],
					"stateMutability": "nonpayable",
					"type": "function"
				},
				{
					"inputs": [
						{
							"internalType": "uint256",
							"name": "",
							"type": "uint256"
						},
						{
							"internalType": "uint256",
							"name": "",
							"type": "uint256"
						}
					],
					"name": "array2D",
					"outputs": [
						{
							"internalType": "uint256",
							"name": "",
							"type": "uint256"
						}
					],
					"stateMutability": "view",
					"type": "function"
				},
				{
					"inputs": [],
					"name": "myBytes32",
					"outputs": [
						{
							"internalType": "bytes32",
							"name": "",
							"type": "bytes32"
						}
					],
					"stateMutability": "view",
					"type": "function"
				},
				{
					"inputs": [],
					"name": "myInt",
					"outputs": [
						{
							"internalType": "int256",
							"name": "",
							"type": "int256"
						}
					],
					"stateMutability": "view",
					"type": "function"
				},
				{
					"inputs": [],
					"name": "myString",
					"outputs": [
						{
							"internalType": "string",
							"name": "",
							"type": "string"
						}
					],
					"stateMutability": "view",
					"type": "function"
				},
				{
					"inputs": [],
					"name": "myStruct",
					"outputs": [
						{
							"internalType": "uint256",
							"name": "myUint256",
							"type": "uint256"
						},
						{
							"internalType": "string",
							"name": "myString",
							"type": "string"
						}
					],
					"stateMutability": "view",
					"type": "function"
				},
				{
					"inputs": [],
					"name": "myUint",
					"outputs": [
						{
							"internalType": "uint256",
							"name": "",
							"type": "uint256"
						}
					],
					"stateMutability": "view",
					"type": "function"
				},
				{
					"inputs": [],
					"name": "myUint256",
					"outputs": [
						{
							"internalType": "uint256",
							"name": "",
							"type": "uint256"
						}
					],
					"stateMutability": "view",
					"type": "function"
				},
				{
					"inputs": [],
					"name": "myUint8",
					"outputs": [
						{
							"internalType": "uint8",
							"name": "",
							"type": "uint8"
						}
					],
					"stateMutability": "view",
					"type": "function"
				},
				{
					"inputs": [
						{
							"internalType": "uint256",
							"name": "",
							"type": "uint256"
						}
					],
					"name": "stringArray",
					"outputs": [
						{
							"internalType": "string",
							"name": "",
							"type": "string"
						}
					],
					"stateMutability": "view",
					"type": "function"
				},
				{
					"inputs": [
						{
							"internalType": "uint256",
							"name": "",
							"type": "uint256"
						}
					],
					"name": "uintArray",
					"outputs": [
						{
							"internalType": "uint256",
							"name": "",
							"type": "uint256"
						}
					],
					"stateMutability": "view",
					"type": "function"
				},
				{
					"inputs": [],
					"name": "valueCount",
					"outputs": [
						{
							"internalType": "uint256",
							"name": "",
							"type": "uint256"
						}
					],
					"stateMutability": "view",
					"type": "function"
				},
				{
					"inputs": [
						{
							"internalType": "uint256",
							"name": "",
							"type": "uint256"
						}
					],
					"name": "values",
					"outputs": [
						{
							"internalType": "string",
							"name": "",
							"type": "string"
						}
					],
					"stateMutability": "view",
					"type": "function"
				}
			],
			"devdoc": {
				"kind": "dev",
				"methods": {},
				"version": 1
			},
			"evm": {
				"assembly": "    /* \"contracts/MyContract.sol\":57:1651  contract MyContract {... */\n  mstore(0x40, 0x80)\n    /* \"contracts/MyContract.sol\":173:174  1 */\n  0x01\n    /* \"contracts/MyContract.sol\":152:174  uint public myUint = 1 */\n  0x00\n  sstore\n    /* \"contracts/MyContract.sol\":199:200  1 */\n  0x01\n    /* \"contracts/MyContract.sol\":180:200  int public myInt = 1 */\n  dup1\n  sstore\n    /* \"contracts/MyContract.sol\":292:293  1 */\n  0x01\n    /* \"contracts/MyContract.sol\":265:293  uint256 public myUint256 = 1 */\n  0x02\n  sstore\n    /* \"contracts/MyContract.sol\":324:325  1 */\n  0x01\n    /* \"contracts/MyContract.sol\":301:325  uint8 public myUint8 = 1 */\n  0x03\n  exp(0x0100, 0x00)\n  dup2\n  sload\n  dup2\n  0xff\n  mul\n  not\n  and\n  swap1\n  dup4\n  0xff\n  and\n  mul\n  or\n  swap1\n  sstore\n  pop\n    /* \"contracts/MyContract.sol\":347:387  string public myString = \"Hello, World!\" */\n  mload(0x40)\n  dup1\n  0x40\n  add\n  0x40\n  mstore\n  dup1\n  0x0d\n  dup2\n  mstore\n  0x20\n  add\n  0x48656c6c6f2c20576f726c642100000000000000000000000000000000000000\n  dup2\n  mstore\n  pop\n  0x04\n  swap1\n  dup2\n  tag_1\n  swap2\n  swap1\n  tag_2\n  jump\t// in\ntag_1:\n  pop\n    /* \"contracts/MyContract.sol\":464:506  bytes32 public myBytes32 = \"Hello, World!\" */\n  sstore(0x05, 0x48656c6c6f2c20576f726c642100000000000000000000000000000000000000)\n    /* \"contracts/MyContract.sol\":772:799  MyStruct(1, \"Hello world!\") */\n  mload(0x40)\n  dup1\n  0x40\n  add\n  0x40\n  mstore\n  dup1\n    /* \"contracts/MyContract.sol\":781:782  1 */\n  0x01\n    /* \"contracts/MyContract.sol\":772:799  MyStruct(1, \"Hello world!\") */\n  dup2\n  mstore\n  0x20\n  add\n  mload(0x40)\n  dup1\n  0x40\n  add\n  0x40\n  mstore\n  dup1\n  0x0c\n  dup2\n  mstore\n  0x20\n  add\n  0x48656c6c6f20776f726c64210000000000000000000000000000000000000000\n  dup2\n  mstore\n  pop\n  dup2\n  mstore\n  pop\n    /* \"contracts/MyContract.sol\":745:799  MyStruct public myStruct = MyStruct(1, \"Hello world!\") */\n  0x06\n  0x00\n  dup3\n  add\n  mload\n  dup2\n  0x00\n  add\n  sstore\n  0x20\n  dup3\n  add\n  mload\n  dup2\n  0x01\n  add\n  swap1\n  dup2\n  tag_3\n  swap2\n  swap1\n  tag_2\n  jump\t// in\ntag_3:\n  pop\n  pop\n  pop\n    /* \"contracts/MyContract.sol\":821:856  uint[] public uintArray = [1, 2, 3] */\n  mload(0x40)\n  dup1\n  0x60\n  add\n  0x40\n  mstore\n  dup1\n    /* \"contracts/MyContract.sol\":848:849  1 */\n  0x01\n    /* \"contracts/MyContract.sol\":821:856  uint[] public uintArray = [1, 2, 3] */\n  0xff\n  and\n  dup2\n  mstore\n  0x20\n  add\n    /* \"contracts/MyContract.sol\":851:852  2 */\n  0x02\n    /* \"contracts/MyContract.sol\":821:856  uint[] public uintArray = [1, 2, 3] */\n  0xff\n  and\n  dup2\n  mstore\n  0x20\n  add\n    /* \"contracts/MyContract.sol\":854:855  3 */\n  0x03\n    /* \"contracts/MyContract.sol\":821:856  uint[] public uintArray = [1, 2, 3] */\n  0xff\n  and\n  dup2\n  mstore\n  pop\n  0x08\n  swap1\n  0x03\n  tag_4\n  swap3\n  swap2\n  swap1\n  tag_5\n  jump\t// in\ntag_4:\n  pop\n    /* \"contracts/MyContract.sol\":862:921  string[] public stringArray = [\"John\", \"Johnny\", \"Johnson\"] */\n  mload(0x40)\n  dup1\n  0x60\n  add\n  0x40\n  mstore\n  dup1\n  mload(0x40)\n  dup1\n  0x40\n  add\n  0x40\n  mstore\n  dup1\n  0x04\n  dup2\n  mstore\n  0x20\n  add\n  0x4a6f686e00000000000000000000000000000000000000000000000000000000\n  dup2\n  mstore\n  pop\n  dup2\n  mstore\n  0x20\n  add\n  mload(0x40)\n  dup1\n  0x40\n  add\n  0x40\n  mstore\n  dup1\n  0x06\n  dup2\n  mstore\n  0x20\n  add\n  0x4a6f686e6e790000000000000000000000000000000000000000000000000000\n  dup2\n  mstore\n  pop\n  dup2\n  mstore\n  0x20\n  add\n  mload(0x40)\n  dup1\n  0x40\n  add\n  0x40\n  mstore\n  dup1\n  0x07\n  dup2\n  mstore\n  0x20\n  add\n  0x4a6f686e736f6e00000000000000000000000000000000000000000000000000\n  dup2\n  mstore\n  pop\n  dup2\n  mstore\n  pop\n  0x09\n  swap1\n  0x03\n  tag_6\n  swap3\n  swap2\n  swap1\n  tag_7\n  jump\t// in\ntag_6:\n  pop\n    /* \"contracts/MyContract.sol\":970:1021  uint256[][] public array2D = [[1, 2, 3], [4, 5, 6]] */\n  mload(0x40)\n  dup1\n  0x40\n  add\n  0x40\n  mstore\n  dup1\n  mload(0x40)\n  dup1\n  0x60\n  add\n  0x40\n  mstore\n  dup1\n    /* \"contracts/MyContract.sol\":1001:1002  1 */\n  0x01\n    /* \"contracts/MyContract.sol\":970:1021  uint256[][] public array2D = [[1, 2, 3], [4, 5, 6]] */\n  0xff\n  and\n  dup2\n  mstore\n  0x20\n  add\n    /* \"contracts/MyContract.sol\":1004:1005  2 */\n  0x02\n    /* \"contracts/MyContract.sol\":970:1021  uint256[][] public array2D = [[1, 2, 3], [4, 5, 6]] */\n  0xff\n  and\n  dup2\n  mstore\n  0x20\n  add\n    /* \"contracts/MyContract.sol\":1007:1008  3 */\n  0x03\n    /* \"contracts/MyContract.sol\":970:1021  uint256[][] public array2D = [[1, 2, 3], [4, 5, 6]] */\n  0xff\n  and\n  dup2\n  mstore\n  pop\n  dup2\n  mstore\n  0x20\n  add\n  mload(0x40)\n  dup1\n  0x60\n  add\n  0x40\n  mstore\n  dup1\n    /* \"contracts/MyContract.sol\":1012:1013  4 */\n  0x04\n    /* \"contracts/MyContract.sol\":970:1021  uint256[][] public array2D = [[1, 2, 3], [4, 5, 6]] */\n  0xff\n  and\n  dup2\n  mstore\n  0x20\n  add\n    /* \"contracts/MyContract.sol\":1015:1016  5 */\n  0x05\n    /* \"contracts/MyContract.sol\":970:1021  uint256[][] public array2D = [[1, 2, 3], [4, 5, 6]] */\n  0xff\n  and\n  dup2\n  mstore\n  0x20\n  add\n    /* \"contracts/MyContract.sol\":1018:1019  6 */\n  0x06\n    /* \"contracts/MyContract.sol\":970:1021  uint256[][] public array2D = [[1, 2, 3], [4, 5, 6]] */\n  0xff\n  and\n  dup2\n  mstore\n  pop\n  dup2\n  mstore\n  pop\n  0x0b\n  swap1\n  0x02\n  tag_8\n  swap3\n  swap2\n  swap1\n  tag_9\n  jump\t// in\ntag_8:\n  pop\n    /* \"contracts/MyContract.sol\":57:1651  contract MyContract {... */\n  callvalue\n  dup1\n  iszero\n  tag_10\n  jumpi\n  0x00\n  dup1\n  revert\ntag_10:\n  pop\n  jump(tag_11)\ntag_5:\n  dup3\n  dup1\n  sload\n  dup3\n  dup3\n  sstore\n  swap1\n  0x00\n  mstore\n  keccak256(0x00, 0x20)\n  swap1\n  dup2\n  add\n  swap3\n  dup3\n  iszero\n  tag_12\n  jumpi\n  swap2\n  0x20\n  mul\n  dup3\n  add\ntag_13:\n  dup3\n  dup2\n  gt\n  iszero\n  tag_14\n  jumpi\n  dup3\n  mload\n  dup3\n  swap1\n  0xff\n  and\n  swap1\n  sstore\n  swap2\n  0x20\n  add\n  swap2\n  swap1\n  0x01\n  add\n  swap1\n  jump(tag_13)\ntag_14:\ntag_12:\n  pop\n  swap1\n  pop\n  tag_15\n  swap2\n  swap1\n  tag_16\n  jump\t// in\ntag_15:\n  pop\n  swap1\n  jump\t// out\ntag_7:\n  dup3\n  dup1\n  sload\n  dup3\n  dup3\n  sstore\n  swap1\n  0x00\n  mstore\n  keccak256(0x00, 0x20)\n  swap1\n  dup2\n  add\n  swap3\n  dup3\n  iszero\n  tag_17\n  jumpi\n  swap2\n  0x20\n  mul\n  dup3\n  add\ntag_18:\n  dup3\n  dup2\n  gt\n  iszero\n  tag_19\n  jumpi\n  dup3\n  mload\n  dup3\n  swap1\n  dup2\n  tag_20\n  swap2\n  swap1\n  tag_2\n  jump\t// in\ntag_20:\n  pop\n  swap2\n  0x20\n  add\n  swap2\n  swap1\n  0x01\n  add\n  swap1\n  jump(tag_18)\ntag_19:\ntag_17:\n  pop\n  swap1\n  pop\n  tag_21\n  swap2\n  swap1\n  tag_22\n  jump\t// in\ntag_21:\n  pop\n  swap1\n  jump\t// out\ntag_9:\n  dup3\n  dup1\n  sload\n  dup3\n  dup3\n  sstore\n  swap1\n  0x00\n  mstore\n  keccak256(0x00, 0x20)\n  swap1\n  dup2\n  add\n  swap3\n  dup3\n  iszero\n  tag_23\n  jumpi\n  swap2\n  0x20\n  mul\n  dup3\n  add\ntag_24:\n  dup3\n  dup2\n  gt\n  iszero\n  tag_25\n  jumpi\n  dup3\n  mload\n  dup3\n  swap1\n  0x03\n  tag_26\n  swap3\n  swap2\n  swap1\n  tag_5\n  jump\t// in\ntag_26:\n  pop\n  swap2\n  0x20\n  add\n  swap2\n  swap1\n  0x01\n  add\n  swap1\n  jump(tag_24)\ntag_25:\ntag_23:\n  pop\n  swap1\n  pop\n  tag_27\n  swap2\n  swap1\n  tag_28\n  jump\t// in\ntag_27:\n  pop\n  swap1\n  jump\t// out\ntag_16:\ntag_29:\n  dup1\n  dup3\n  gt\n  iszero\n  tag_30\n  jumpi\n  0x00\n  dup2\n  0x00\n  swap1\n  sstore\n  pop\n  0x01\n  add\n  jump(tag_29)\ntag_30:\n  pop\n  swap1\n  jump\t// out\ntag_22:\ntag_31:\n  dup1\n  dup3\n  gt\n  iszero\n  tag_32\n  jumpi\n  0x00\n  dup2\n  dup2\n  tag_33\n  swap2\n  swap1\n  tag_34\n  jump\t// in\ntag_33:\n  pop\n  0x01\n  add\n  jump(tag_31)\ntag_32:\n  pop\n  swap1\n  jump\t// out\ntag_28:\ntag_35:\n  dup1\n  dup3\n  gt\n  iszero\n  tag_36\n  jumpi\n  0x00\n  dup2\n  dup2\n  tag_37\n  swap2\n  swap1\n  tag_38\n  jump\t// in\ntag_37:\n  pop\n  0x01\n  add\n  jump(tag_35)\ntag_36:\n  pop\n  swap1\n  jump\t// out\ntag_34:\n  pop\n  dup1\n  sload\n  tag_39\n  swap1\n  tag_40\n  jump\t// in\ntag_39:\n  0x00\n  dup3\n  sstore\n  dup1\n  0x1f\n  lt\n  tag_42\n  jumpi\n  pop\n  jump(tag_41)\ntag_42:\n  0x1f\n  add\n  0x20\n  swap1\n  div\n  swap1\n  0x00\n  mstore\n  keccak256(0x00, 0x20)\n  swap1\n  dup2\n  add\n  swap1\n  tag_43\n  swap2\n  swap1\n  tag_16\n  jump\t// in\ntag_43:\ntag_41:\n  pop\n  jump\t// out\ntag_38:\n  pop\n  dup1\n  sload\n  0x00\n  dup3\n  sstore\n  swap1\n  0x00\n  mstore\n  keccak256(0x00, 0x20)\n  swap1\n  dup2\n  add\n  swap1\n  tag_45\n  swap2\n  swap1\n  tag_16\n  jump\t// in\ntag_45:\n  pop\n  jump\t// out\n    /* \"#utility.yul\":7:106   */\ntag_46:\n    /* \"#utility.yul\":59:65   */\n  0x00\n    /* \"#utility.yul\":93:98   */\n  dup2\n    /* \"#utility.yul\":87:99   */\n  mload\n    /* \"#utility.yul\":77:99   */\n  swap1\n  pop\n    /* \"#utility.yul\":7:106   */\n  swap2\n  swap1\n  pop\n  jump\t// out\n    /* \"#utility.yul\":112:292   */\ntag_47:\n    /* \"#utility.yul\":160:237   */\n  0x4e487b7100000000000000000000000000000000000000000000000000000000\n    /* \"#utility.yul\":157:158   */\n  0x00\n    /* \"#utility.yul\":150:238   */\n  mstore\n    /* \"#utility.yul\":257:261   */\n  0x41\n    /* \"#utility.yul\":254:255   */\n  0x04\n    /* \"#utility.yul\":247:262   */\n  mstore\n    /* \"#utility.yul\":281:285   */\n  0x24\n    /* \"#utility.yul\":278:279   */\n  0x00\n    /* \"#utility.yul\":271:286   */\n  revert\n    /* \"#utility.yul\":298:478   */\ntag_48:\n    /* \"#utility.yul\":346:423   */\n  0x4e487b7100000000000000000000000000000000000000000000000000000000\n    /* \"#utility.yul\":343:344   */\n  0x00\n    /* \"#utility.yul\":336:424   */\n  mstore\n    /* \"#utility.yul\":443:447   */\n  0x22\n    /* \"#utility.yul\":440:441   */\n  0x04\n    /* \"#utility.yul\":433:448   */\n  mstore\n    /* \"#utility.yul\":467:471   */\n  0x24\n    /* \"#utility.yul\":464:465   */\n  0x00\n    /* \"#utility.yul\":457:472   */\n  revert\n    /* \"#utility.yul\":484:804   */\ntag_40:\n    /* \"#utility.yul\":528:534   */\n  0x00\n    /* \"#utility.yul\":565:566   */\n  0x02\n    /* \"#utility.yul\":559:563   */\n  dup3\n    /* \"#utility.yul\":555:567   */\n  div\n    /* \"#utility.yul\":545:567   */\n  swap1\n  pop\n    /* \"#utility.yul\":612:613   */\n  0x01\n    /* \"#utility.yul\":606:610   */\n  dup3\n    /* \"#utility.yul\":602:614   */\n  and\n    /* \"#utility.yul\":633:651   */\n  dup1\n    /* \"#utility.yul\":623:704   */\n  tag_70\n  jumpi\n    /* \"#utility.yul\":689:693   */\n  0x7f\n    /* \"#utility.yul\":681:687   */\n  dup3\n    /* \"#utility.yul\":677:694   */\n  and\n    /* \"#utility.yul\":667:694   */\n  swap2\n  pop\n    /* \"#utility.yul\":623:704   */\ntag_70:\n    /* \"#utility.yul\":751:753   */\n  0x20\n    /* \"#utility.yul\":743:749   */\n  dup3\n    /* \"#utility.yul\":740:754   */\n  lt\n    /* \"#utility.yul\":720:738   */\n  dup2\n    /* \"#utility.yul\":717:755   */\n  sub\n    /* \"#utility.yul\":714:798   */\n  tag_71\n  jumpi\n    /* \"#utility.yul\":770:788   */\n  tag_72\n  tag_48\n  jump\t// in\ntag_72:\n    /* \"#utility.yul\":714:798   */\ntag_71:\n    /* \"#utility.yul\":535:804   */\n  pop\n    /* \"#utility.yul\":484:804   */\n  swap2\n  swap1\n  pop\n  jump\t// out\n    /* \"#utility.yul\":810:951   */\ntag_49:\n    /* \"#utility.yul\":859:863   */\n  0x00\n    /* \"#utility.yul\":882:885   */\n  dup2\n    /* \"#utility.yul\":874:885   */\n  swap1\n  pop\n    /* \"#utility.yul\":905:908   */\n  dup2\n    /* \"#utility.yul\":902:903   */\n  0x00\n    /* \"#utility.yul\":895:909   */\n  mstore\n    /* \"#utility.yul\":939:943   */\n  0x20\n    /* \"#utility.yul\":936:937   */\n  0x00\n    /* \"#utility.yul\":926:944   */\n  keccak256\n    /* \"#utility.yul\":918:944   */\n  swap1\n  pop\n    /* \"#utility.yul\":810:951   */\n  swap2\n  swap1\n  pop\n  jump\t// out\n    /* \"#utility.yul\":957:1050   */\ntag_50:\n    /* \"#utility.yul\":994:1000   */\n  0x00\n    /* \"#utility.yul\":1041:1043   */\n  0x20\n    /* \"#utility.yul\":1036:1038   */\n  0x1f\n    /* \"#utility.yul\":1029:1034   */\n  dup4\n    /* \"#utility.yul\":1025:1039   */\n  add\n    /* \"#utility.yul\":1021:1044   */\n  div\n    /* \"#utility.yul\":1011:1044   */\n  swap1\n  pop\n    /* \"#utility.yul\":957:1050   */\n  swap2\n  swap1\n  pop\n  jump\t// out\n    /* \"#utility.yul\":1056:1163   */\ntag_51:\n    /* \"#utility.yul\":1100:1108   */\n  0x00\n    /* \"#utility.yul\":1150:1155   */\n  dup3\n    /* \"#utility.yul\":1144:1148   */\n  dup3\n    /* \"#utility.yul\":1140:1156   */\n  shl\n    /* \"#utility.yul\":1119:1156   */\n  swap1\n  pop\n    /* \"#utility.yul\":1056:1163   */\n  swap3\n  swap2\n  pop\n  pop\n  jump\t// out\n    /* \"#utility.yul\":1169:1562   */\ntag_52:\n    /* \"#utility.yul\":1238:1244   */\n  0x00\n    /* \"#utility.yul\":1288:1289   */\n  0x08\n    /* \"#utility.yul\":1276:1286   */\n  dup4\n    /* \"#utility.yul\":1272:1290   */\n  mul\n    /* \"#utility.yul\":1311:1408   */\n  tag_77\n    /* \"#utility.yul\":1341:1407   */\n  0xffffffffffffffffffffffffffffffffffffffffffffffffffffffffffffffff\n    /* \"#utility.yul\":1330:1339   */\n  dup3\n    /* \"#utility.yul\":1311:1408   */\n  tag_51\n  jump\t// in\ntag_77:\n    /* \"#utility.yul\":1429:1468   */\n  tag_78\n    /* \"#utility.yul\":1459:1467   */\n  dup7\n    /* \"#utility.yul\":1448:1457   */\n  dup4\n    /* \"#utility.yul\":1429:1468   */\n  tag_51\n  jump\t// in\ntag_78:\n    /* \"#utility.yul\":1417:1468   */\n  swap6\n  pop\n    /* \"#utility.yul\":1501:1505   */\n  dup1\n    /* \"#utility.yul\":1497:1506   */\n  not\n    /* \"#utility.yul\":1490:1495   */\n  dup5\n    /* \"#utility.yul\":1486:1507   */\n  and\n    /* \"#utility.yul\":1477:1507   */\n  swap4\n  pop\n    /* \"#utility.yul\":1550:1554   */\n  dup1\n    /* \"#utility.yul\":1540:1548   */\n  dup7\n    /* \"#utility.yul\":1536:1555   */\n  and\n    /* \"#utility.yul\":1529:1534   */\n  dup5\n    /* \"#utility.yul\":1526:1556   */\n  or\n    /* \"#utility.yul\":1516:1556   */\n  swap3\n  pop\n    /* \"#utility.yul\":1245:1562   */\n  pop\n  pop\n    /* \"#utility.yul\":1169:1562   */\n  swap4\n  swap3\n  pop\n  pop\n  pop\n  jump\t// out\n    /* \"#utility.yul\":1568:1645   */\ntag_53:\n    /* \"#utility.yul\":1605:1612   */\n  0x00\n    /* \"#utility.yul\":1634:1639   */\n  dup2\n    /* \"#utility.yul\":1623:1639   */\n  swap1\n  pop\n    /* \"#utility.yul\":1568:1645   */\n  swap2\n  swap1\n  pop\n  jump\t// out\n    /* \"#utility.yul\":1651:1711   */\ntag_54:\n    /* \"#utility.yul\":1679:1682   */\n  0x00\n    /* \"#utility.yul\":1700:1705   */\n  dup2\n    /* \"#utility.yul\":1693:1705   */\n  swap1\n  pop\n    /* \"#utility.yul\":1651:1711   */\n  swap2\n  swap1\n  pop\n  jump\t// out\n    /* \"#utility.yul\":1717:1859   */\ntag_55:\n    /* \"#utility.yul\":1767:1776   */\n  0x00\n    /* \"#utility.yul\":1800:1853   */\n  tag_82\n    /* \"#utility.yul\":1818:1852   */\n  tag_83\n    /* \"#utility.yul\":1827:1851   */\n  tag_84\n    /* \"#utility.yul\":1845:1850   */\n  dup5\n    /* \"#utility.yul\":1827:1851   */\n  tag_53\n  jump\t// in\ntag_84:\n    /* \"#utility.yul\":1818:1852   */\n  tag_54\n  jump\t// in\ntag_83:\n    /* \"#utility.yul\":1800:1853   */\n  tag_53\n  jump\t// in\ntag_82:\n    /* \"#utility.yul\":1787:1853   */\n  swap1\n  pop\n    /* \"#utility.yul\":1717:1859   */\n  swap2\n  swap1\n  pop\n  jump\t// out\n    /* \"#utility.yul\":1865:1940   */\ntag_56:\n    /* \"#utility.yul\":1908:1911   */\n  0x00\n    /* \"#utility.yul\":1929:1934   */\n  dup2\n    /* \"#utility.yul\":1922:1934   */\n  swap1\n  pop\n    /* \"#utility.yul\":1865:1940   */\n  swap2\n  swap1\n  pop\n  jump\t// out\n    /* \"#utility.yul\":1946:2215   */\ntag_57:\n    /* \"#utility.yul\":2056:2095   */\n  tag_87\n    /* \"#utility.yul\":2087:2094   */\n  dup4\n    /* \"#utility.yul\":2056:2095   */\n  tag_55\n  jump\t// in\ntag_87:\n    /* \"#utility.yul\":2117:2208   */\n  tag_88\n    /* \"#utility.yul\":2166:2207   */\n  tag_89\n    /* \"#utility.yul\":2190:2206   */\n  dup3\n    /* \"#utility.yul\":2166:2207   */\n  tag_56\n  jump\t// in\ntag_89:\n    /* \"#utility.yul\":2158:2164   */\n  dup5\n    /* \"#utility.yul\":2151:2155   */\n  dup5\n    /* \"#utility.yul\":2145:2156   */\n  sload\n    /* \"#utility.yul\":2117:2208   */\n  tag_52\n  jump\t// in\ntag_88:\n    /* \"#utility.yul\":2111:2115   */\n  dup3\n    /* \"#utility.yul\":2104:2209   */\n  sstore\n    /* \"#utility.yul\":2022:2215   */\n  pop\n    /* \"#utility.yul\":1946:2215   */\n  pop\n  pop\n  pop\n  jump\t// out\n    /* \"#utility.yul\":2221:2294   */\ntag_58:\n    /* \"#utility.yul\":2266:2269   */\n  0x00\n    /* \"#utility.yul\":2221:2294   */\n  swap1\n  jump\t// out\n    /* \"#utility.yul\":2300:2489   */\ntag_59:\n    /* \"#utility.yul\":2377:2409   */\n  tag_92\n  tag_58\n  jump\t// in\ntag_92:\n    /* \"#utility.yul\":2418:2483   */\n  tag_93\n    /* \"#utility.yul\":2476:2482   */\n  dup2\n    /* \"#utility.yul\":2468:2474   */\n  dup5\n    /* \"#utility.yul\":2462:2466   */\n  dup5\n    /* \"#utility.yul\":2418:2483   */\n  tag_57\n  jump\t// in\ntag_93:\n    /* \"#utility.yul\":2353:2489   */\n  pop\n    /* \"#utility.yul\":2300:2489   */\n  pop\n  pop\n  jump\t// out\n    /* \"#utility.yul\":2495:2681   */\ntag_60:\n    /* \"#utility.yul\":2555:2675   */\ntag_95:\n    /* \"#utility.yul\":2572:2575   */\n  dup2\n    /* \"#utility.yul\":2565:2570   */\n  dup2\n    /* \"#utility.yul\":2562:2576   */\n  lt\n    /* \"#utility.yul\":2555:2675   */\n  iszero\n  tag_97\n  jumpi\n    /* \"#utility.yul\":2626:2665   */\n  tag_98\n    /* \"#utility.yul\":2663:2664   */\n  0x00\n    /* \"#utility.yul\":2656:2661   */\n  dup3\n    /* \"#utility.yul\":2626:2665   */\n  tag_59\n  jump\t// in\ntag_98:\n    /* \"#utility.yul\":2599:2600   */\n  0x01\n    /* \"#utility.yul\":2592:2597   */\n  dup2\n    /* \"#utility.yul\":2588:2601   */\n  add\n    /* \"#utility.yul\":2579:2601   */\n  swap1\n  pop\n    /* \"#utility.yul\":2555:2675   */\n  jump(tag_95)\ntag_97:\n    /* \"#utility.yul\":2495:2681   */\n  pop\n  pop\n  jump\t// out\n    /* \"#utility.yul\":2687:3230   */\ntag_61:\n    /* \"#utility.yul\":2788:2790   */\n  0x1f\n    /* \"#utility.yul\":2783:2786   */\n  dup3\n    /* \"#utility.yul\":2780:2791   */\n  gt\n    /* \"#utility.yul\":2777:3223   */\n  iszero\n  tag_100\n  jumpi\n    /* \"#utility.yul\":2822:2860   */\n  tag_101\n    /* \"#utility.yul\":2854:2859   */\n  dup2\n    /* \"#utility.yul\":2822:2860   */\n  tag_49\n  jump\t// in\ntag_101:\n    /* \"#utility.yul\":2906:2935   */\n  tag_102\n    /* \"#utility.yul\":2924:2934   */\n  dup5\n    /* \"#utility.yul\":2906:2935   */\n  tag_50\n  jump\t// in\ntag_102:\n    /* \"#utility.yul\":2896:2904   */\n  dup2\n    /* \"#utility.yul\":2892:2936   */\n  add\n    /* \"#utility.yul\":3089:3091   */\n  0x20\n    /* \"#utility.yul\":3077:3087   */\n  dup6\n    /* \"#utility.yul\":3074:3092   */\n  lt\n    /* \"#utility.yul\":3071:3120   */\n  iszero\n  tag_103\n  jumpi\n    /* \"#utility.yul\":3110:3118   */\n  dup2\n    /* \"#utility.yul\":3095:3118   */\n  swap1\n  pop\n    /* \"#utility.yul\":3071:3120   */\ntag_103:\n    /* \"#utility.yul\":3133:3213   */\n  tag_104\n    /* \"#utility.yul\":3189:3211   */\n  tag_105\n    /* \"#utility.yul\":3207:3210   */\n  dup6\n    /* \"#utility.yul\":3189:3211   */\n  tag_50\n  jump\t// in\ntag_105:\n    /* \"#utility.yul\":3179:3187   */\n  dup4\n    /* \"#utility.yul\":3175:3212   */\n  add\n    /* \"#utility.yul\":3162:3173   */\n  dup3\n    /* \"#utility.yul\":3133:3213   */\n  tag_60\n  jump\t// in\ntag_104:\n    /* \"#utility.yul\":2792:3223   */\n  pop\n  pop\n    /* \"#utility.yul\":2777:3223   */\ntag_100:\n    /* \"#utility.yul\":2687:3230   */\n  pop\n  pop\n  pop\n  jump\t// out\n    /* \"#utility.yul\":3236:3353   */\ntag_62:\n    /* \"#utility.yul\":3290:3298   */\n  0x00\n    /* \"#utility.yul\":3340:3345   */\n  dup3\n    /* \"#utility.yul\":3334:3338   */\n  dup3\n    /* \"#utility.yul\":3330:3346   */\n  shr\n    /* \"#utility.yul\":3309:3346   */\n  swap1\n  pop\n    /* \"#utility.yul\":3236:3353   */\n  swap3\n  swap2\n  pop\n  pop\n  jump\t// out\n    /* \"#utility.yul\":3359:3528   */\ntag_63:\n    /* \"#utility.yul\":3403:3409   */\n  0x00\n    /* \"#utility.yul\":3436:3487   */\n  tag_108\n    /* \"#utility.yul\":3484:3485   */\n  0x00\n    /* \"#utility.yul\":3480:3486   */\n  not\n    /* \"#utility.yul\":3472:3477   */\n  dup5\n    /* \"#utility.yul\":3469:3470   */\n  0x08\n    /* \"#utility.yul\":3465:3478   */\n  mul\n    /* \"#utility.yul\":3436:3487   */\n  tag_62\n  jump\t// in\ntag_108:\n    /* \"#utility.yul\":3432:3488   */\n  not\n    /* \"#utility.yul\":3517:3521   */\n  dup1\n    /* \"#utility.yul\":3511:3515   */\n  dup4\n    /* \"#utility.yul\":3507:3522   */\n  and\n    /* \"#utility.yul\":3497:3522   */\n  swap2\n  pop\n    /* \"#utility.yul\":3410:3528   */\n  pop\n    /* \"#utility.yul\":3359:3528   */\n  swap3\n  swap2\n  pop\n  pop\n  jump\t// out\n    /* \"#utility.yul\":3533:3828   */\ntag_64:\n    /* \"#utility.yul\":3609:3613   */\n  0x00\n    /* \"#utility.yul\":3755:3784   */\n  tag_110\n    /* \"#utility.yul\":3780:3783   */\n  dup4\n    /* \"#utility.yul\":3774:3778   */\n  dup4\n    /* \"#utility.yul\":3755:3784   */\n  tag_63\n  jump\t// in\ntag_110:\n    /* \"#utility.yul\":3747:3784   */\n  swap2\n  pop\n    /* \"#utility.yul\":3817:3820   */\n  dup3\n    /* \"#utility.yul\":3814:3815   */\n  0x02\n    /* \"#utility.yul\":3810:3821   */\n  mul\n    /* \"#utility.yul\":3804:3808   */\n  dup3\n    /* \"#utility.yul\":3801:3822   */\n  or\n    /* \"#utility.yul\":3793:3822   */\n  swap1\n  pop\n    /* \"#utility.yul\":3533:3828   */\n  swap3\n  swap2\n  pop\n  pop\n  jump\t// out\n    /* \"#utility.yul\":3833:5228   */\ntag_2:\n    /* \"#utility.yul\":3950:3987   */\n  tag_112\n    /* \"#utility.yul\":3983:3986   */\n  dup3\n    /* \"#utility.yul\":3950:3987   */\n  tag_46\n  jump\t// in\ntag_112:\n    /* \"#utility.yul\":4052:4070   */\n  0xffffffffffffffff\n    /* \"#utility.yul\":4044:4050   */\n  dup2\n    /* \"#utility.yul\":4041:4071   */\n  gt\n    /* \"#utility.yul\":4038:4094   */\n  iszero\n  tag_113\n  jumpi\n    /* \"#utility.yul\":4074:4092   */\n  tag_114\n  tag_47\n  jump\t// in\ntag_114:\n    /* \"#utility.yul\":4038:4094   */\ntag_113:\n    /* \"#utility.yul\":4118:4156   */\n  tag_115\n    /* \"#utility.yul\":4150:4154   */\n  dup3\n    /* \"#utility.yul\":4144:4155   */\n  sload\n    /* \"#utility.yul\":4118:4156   */\n  tag_40\n  jump\t// in\ntag_115:\n    /* \"#utility.yul\":4203:4270   */\n  tag_116\n    /* \"#utility.yul\":4263:4269   */\n  dup3\n    /* \"#utility.yul\":4255:4261   */\n  dup3\n    /* \"#utility.yul\":4249:4253   */\n  dup6\n    /* \"#utility.yul\":4203:4270   */\n  tag_61\n  jump\t// in\ntag_116:\n    /* \"#utility.yul\":4297:4298   */\n  0x00\n    /* \"#utility.yul\":4321:4325   */\n  0x20\n    /* \"#utility.yul\":4308:4325   */\n  swap1\n  pop\n    /* \"#utility.yul\":4353:4355   */\n  0x1f\n    /* \"#utility.yul\":4345:4351   */\n  dup4\n    /* \"#utility.yul\":4342:4356   */\n  gt\n    /* \"#utility.yul\":4370:4371   */\n  0x01\n    /* \"#utility.yul\":4365:4983   */\n  dup2\n  eq\n  tag_118\n  jumpi\n    /* \"#utility.yul\":5027:5028   */\n  0x00\n    /* \"#utility.yul\":5044:5050   */\n  dup5\n    /* \"#utility.yul\":5041:5118   */\n  iszero\n  tag_119\n  jumpi\n    /* \"#utility.yul\":5093:5102   */\n  dup3\n    /* \"#utility.yul\":5088:5091   */\n  dup8\n    /* \"#utility.yul\":5084:5103   */\n  add\n    /* \"#utility.yul\":5078:5104   */\n  mload\n    /* \"#utility.yul\":5069:5104   */\n  swap1\n  pop\n    /* \"#utility.yul\":5041:5118   */\ntag_119:\n    /* \"#utility.yul\":5144:5211   */\n  tag_120\n    /* \"#utility.yul\":5204:5210   */\n  dup6\n    /* \"#utility.yul\":5197:5202   */\n  dup3\n    /* \"#utility.yul\":5144:5211   */\n  tag_64\n  jump\t// in\ntag_120:\n    /* \"#utility.yul\":5138:5142   */\n  dup7\n    /* \"#utility.yul\":5131:5212   */\n  sstore\n    /* \"#utility.yul\":5000:5222   */\n  pop\n    /* \"#utility.yul\":4335:5222   */\n  jump(tag_117)\n    /* \"#utility.yul\":4365:4983   */\ntag_118:\n    /* \"#utility.yul\":4417:4421   */\n  0x1f\n    /* \"#utility.yul\":4413:4422   */\n  not\n    /* \"#utility.yul\":4405:4411   */\n  dup5\n    /* \"#utility.yul\":4401:4423   */\n  and\n    /* \"#utility.yul\":4451:4488   */\n  tag_121\n    /* \"#utility.yul\":4483:4487   */\n  dup7\n    /* \"#utility.yul\":4451:4488   */\n  tag_49\n  jump\t// in\ntag_121:\n    /* \"#utility.yul\":4510:4511   */\n  0x00\n    /* \"#utility.yul\":4524:4732   */\ntag_122:\n    /* \"#utility.yul\":4538:4545   */\n  dup3\n    /* \"#utility.yul\":4535:4536   */\n  dup2\n    /* \"#utility.yul\":4532:4546   */\n  lt\n    /* \"#utility.yul\":4524:4732   */\n  iszero\n  tag_124\n  jumpi\n    /* \"#utility.yul\":4617:4626   */\n  dup5\n    /* \"#utility.yul\":4612:4615   */\n  dup10\n    /* \"#utility.yul\":4608:4627   */\n  add\n    /* \"#utility.yul\":4602:4628   */\n  mload\n    /* \"#utility.yul\":4594:4600   */\n  dup3\n    /* \"#utility.yul\":4587:4629   */\n  sstore\n    /* \"#utility.yul\":4668:4669   */\n  0x01\n    /* \"#utility.yul\":4660:4666   */\n  dup3\n    /* \"#utility.yul\":4656:4670   */\n  add\n    /* \"#utility.yul\":4646:4670   */\n  swap2\n  pop\n    /* \"#utility.yul\":4715:4717   */\n  0x20\n    /* \"#utility.yul\":4704:4713   */\n  dup6\n    /* \"#utility.yul\":4700:4718   */\n  add\n    /* \"#utility.yul\":4687:4718   */\n  swap5\n  pop\n    /* \"#utility.yul\":4561:4565   */\n  0x20\n    /* \"#utility.yul\":4558:4559   */\n  dup2\n    /* \"#utility.yul\":4554:4566   */\n  add\n    /* \"#utility.yul\":4549:4566   */\n  swap1\n  pop\n    /* \"#utility.yul\":4524:4732   */\n  jump(tag_122)\ntag_124:\n    /* \"#utility.yul\":4760:4766   */\n  dup7\n    /* \"#utility.yul\":4751:4758   */\n  dup4\n    /* \"#utility.yul\":4748:4767   */\n  lt\n    /* \"#utility.yul\":4745:4924   */\n  iszero\n  tag_125\n  jumpi\n    /* \"#utility.yul\":4818:4827   */\n  dup5\n    /* \"#utility.yul\":4813:4816   */\n  dup10\n    /* \"#utility.yul\":4809:4828   */\n  add\n    /* \"#utility.yul\":4803:4829   */\n  mload\n    /* \"#utility.yul\":4861:4909   */\n  tag_126\n    /* \"#utility.yul\":4903:4907   */\n  0x1f\n    /* \"#utility.yul\":4895:4901   */\n  dup10\n    /* \"#utility.yul\":4891:4908   */\n  and\n    /* \"#utility.yul\":4880:4889   */\n  dup3\n    /* \"#utility.yul\":4861:4909   */\n  tag_63\n  jump\t// in\ntag_126:\n    /* \"#utility.yul\":4853:4859   */\n  dup4\n    /* \"#utility.yul\":4846:4910   */\n  sstore\n    /* \"#utility.yul\":4768:4924   */\n  pop\n    /* \"#utility.yul\":4745:4924   */\ntag_125:\n    /* \"#utility.yul\":4970:4971   */\n  0x01\n    /* \"#utility.yul\":4966:4967   */\n  0x02\n    /* \"#utility.yul\":4958:4964   */\n  dup9\n    /* \"#utility.yul\":4954:4968   */\n  mul\n    /* \"#utility.yul\":4950:4972   */\n  add\n    /* \"#utility.yul\":4944:4948   */\n  dup9\n    /* \"#utility.yul\":4937:4973   */\n  sstore\n    /* \"#utility.yul\":4372:4983   */\n  pop\n  pop\n  pop\n    /* \"#utility.yul\":4335:5222   */\ntag_117:\n  pop\n    /* \"#utility.yul\":3925:5228   */\n  pop\n  pop\n  pop\n    /* \"#utility.yul\":3833:5228   */\n  pop\n  pop\n  jump\t// out\n    /* \"contracts/MyContract.sol\":57:1651  contract MyContract {... */\ntag_11:\n  dataSize(sub_0)\n  dup1\n  dataOffset(sub_0)\n  0x00\n  codecopy\n  0x00\n  return\nstop\n\nsub_0: assembly {\n        /* \"contracts/MyContract.sol\":57:1651  contract MyContract {... */\n      mstore(0x40, 0x80)\n      callvalue\n      dup1\n      iszero\n      tag_1\n      jumpi\n      0x00\n      dup1\n      revert\n    tag_1:\n      pop\n      jumpi(tag_2, lt(calldatasize, 0x04))\n      shr(0xe0, calldataload(0x00))\n      dup1\n      0x5e383d21\n      gt\n      tag_16\n      jumpi\n      dup1\n      0x9ae918c7\n      gt\n      tag_17\n      jumpi\n      dup1\n      0x9ae918c7\n      eq\n      tag_12\n      jumpi\n      dup1\n      0xa7dbce1c\n      eq\n      tag_13\n      jumpi\n      dup1\n      0xd3268fc1\n      eq\n      tag_14\n      jumpi\n      dup1\n      0xe2a4b2af\n      eq\n      tag_15\n      jumpi\n      jump(tag_2)\n    tag_17:\n      dup1\n      0x5e383d21\n      eq\n      tag_9\n      jumpi\n      dup1\n      0x6422c4c8\n      eq\n      tag_10\n      jumpi\n      dup1\n      0x8bc9fe6c\n      eq\n      tag_11\n      jumpi\n      jump(tag_2)\n    tag_16:\n      dup1\n      0x06540f7e\n      eq\n      tag_3\n      jumpi\n      dup1\n      0x26eb4dbb\n      eq\n      tag_4\n      jumpi\n      dup1\n      0x2cb777a6\n      eq\n      tag_5\n      jumpi\n      dup1\n      0x3a5fbaaa\n      eq\n      tag_6\n      jumpi\n      dup1\n      0x492bfa18\n      eq\n      tag_7\n      jumpi\n      dup1\n      0x4b3e7e0c\n      eq\n      tag_8\n      jumpi\n    tag_2:\n      0x00\n      dup1\n      revert\n        /* \"contracts/MyContract.sol\":152:174  uint public myUint = 1 */\n    tag_3:\n      tag_18\n      tag_19\n      jump\t// in\n    tag_18:\n      mload(0x40)\n      tag_20\n      swap2\n      swap1\n      tag_21\n      jump\t// in\n    tag_20:\n      mload(0x40)\n      dup1\n      swap2\n      sub\n      swap1\n      return\n        /* \"contracts/MyContract.sol\":1564:1649  function valueCount() public view returns(uint) {... */\n    tag_4:\n      tag_22\n      tag_23\n      jump\t// in\n    tag_22:\n      mload(0x40)\n      tag_24\n      swap2\n      swap1\n      tag_21\n      jump\t// in\n    tag_24:\n      mload(0x40)\n      dup1\n      swap2\n      sub\n      swap1\n      return\n        /* \"contracts/MyContract.sol\":180:200  int public myInt = 1 */\n    tag_5:\n      tag_25\n      tag_26\n      jump\t// in\n    tag_25:\n      mload(0x40)\n      tag_27\n      swap2\n      swap1\n      tag_28\n      jump\t// in\n    tag_27:\n      mload(0x40)\n      dup1\n      swap2\n      sub\n      swap1\n      return\n        /* \"contracts/MyContract.sol\":1475:1558  function addValue(string memory _value) public {... */\n    tag_6:\n      tag_29\n      0x04\n      dup1\n      calldatasize\n      sub\n      dup2\n      add\n      swap1\n      tag_30\n      swap2\n      swap1\n      tag_31\n      jump\t// in\n    tag_30:\n      tag_32\n      jump\t// in\n    tag_29:\n      stop\n        /* \"contracts/MyContract.sol\":347:387  string public myString = \"Hello, World!\" */\n    tag_7:\n      tag_33\n      tag_34\n      jump\t// in\n    tag_33:\n      mload(0x40)\n      tag_35\n      swap2\n      swap1\n      tag_36\n      jump\t// in\n    tag_35:\n      mload(0x40)\n      dup1\n      swap2\n      sub\n      swap1\n      return\n        /* \"contracts/MyContract.sol\":464:506  bytes32 public myBytes32 = \"Hello, World!\" */\n    tag_8:\n      tag_37\n      tag_38\n      jump\t// in\n    tag_37:\n      mload(0x40)\n      tag_39\n      swap2\n      swap1\n      tag_40\n      jump\t// in\n    tag_39:\n      mload(0x40)\n      dup1\n      swap2\n      sub\n      swap1\n      return\n        /* \"contracts/MyContract.sol\":927:949  string[] public values */\n    tag_9:\n      tag_41\n      0x04\n      dup1\n      calldatasize\n      sub\n      dup2\n      add\n      swap1\n      tag_42\n      swap2\n      swap1\n      tag_43\n      jump\t// in\n    tag_42:\n      tag_44\n      jump\t// in\n    tag_41:\n      mload(0x40)\n      tag_45\n      swap2\n      swap1\n      tag_36\n      jump\t// in\n    tag_45:\n      mload(0x40)\n      dup1\n      swap2\n      sub\n      swap1\n      return\n        /* \"contracts/MyContract.sol\":862:921  string[] public stringArray = [\"John\", \"Johnny\", \"Johnson\"] */\n    tag_10:\n      tag_46\n      0x04\n      dup1\n      calldatasize\n      sub\n      dup2\n      add\n      swap1\n      tag_47\n      swap2\n      swap1\n      tag_43\n      jump\t// in\n    tag_47:\n      tag_48\n      jump\t// in\n    tag_46:\n      mload(0x40)\n      tag_49\n      swap2\n      swap1\n      tag_36\n      jump\t// in\n    tag_49:\n      mload(0x40)\n      dup1\n      swap2\n      sub\n      swap1\n      return\n        /* \"contracts/MyContract.sol\":745:799  MyStruct public myStruct = MyStruct(1, \"Hello world!\") */\n    tag_11:\n      tag_50\n      tag_51\n      jump\t// in\n    tag_50:\n      mload(0x40)\n      tag_52\n      swap3\n      swap2\n      swap1\n      tag_53\n      jump\t// in\n    tag_52:\n      mload(0x40)\n      dup1\n      swap2\n      sub\n      swap1\n      return\n        /* \"contracts/MyContract.sol\":821:856  uint[] public uintArray = [1, 2, 3] */\n    tag_12:\n      tag_54\n      0x04\n      dup1\n      calldatasize\n      sub\n      dup2\n      add\n      swap1\n      tag_55\n      swap2\n      swap1\n      tag_43\n      jump\t// in\n    tag_55:\n      tag_56\n      jump\t// in\n    tag_54:\n      mload(0x40)\n      tag_57\n      swap2\n      swap1\n      tag_21\n      jump\t// in\n    tag_57:\n      mload(0x40)\n      dup1\n      swap2\n      sub\n      swap1\n      return\n        /* \"contracts/MyContract.sol\":265:293  uint256 public myUint256 = 1 */\n    tag_13:\n      tag_58\n      tag_59\n      jump\t// in\n    tag_58:\n      mload(0x40)\n      tag_60\n      swap2\n      swap1\n      tag_21\n      jump\t// in\n    tag_60:\n      mload(0x40)\n      dup1\n      swap2\n      sub\n      swap1\n      return\n        /* \"contracts/MyContract.sol\":970:1021  uint256[][] public array2D = [[1, 2, 3], [4, 5, 6]] */\n    tag_14:\n      tag_61\n      0x04\n      dup1\n      calldatasize\n      sub\n      dup2\n      add\n      swap1\n      tag_62\n      swap2\n      swap1\n      tag_63\n      jump\t// in\n    tag_62:\n      tag_64\n      jump\t// in\n    tag_61:\n      mload(0x40)\n      tag_65\n      swap2\n      swap1\n      tag_21\n      jump\t// in\n    tag_65:\n      mload(0x40)\n      dup1\n      swap2\n      sub\n      swap1\n      return\n        /* \"contracts/MyContract.sol\":301:325  uint8 public myUint8 = 1 */\n    tag_15:\n      tag_66\n      tag_67\n      jump\t// in\n    tag_66:\n      mload(0x40)\n      tag_68\n      swap2\n      swap1\n      tag_69\n      jump\t// in\n    tag_68:\n      mload(0x40)\n      dup1\n      swap2\n      sub\n      swap1\n      return\n        /* \"contracts/MyContract.sol\":152:174  uint public myUint = 1 */\n    tag_19:\n      sload(0x00)\n      dup2\n      jump\t// out\n        /* \"contracts/MyContract.sol\":1564:1649  function valueCount() public view returns(uint) {... */\n    tag_23:\n        /* \"contracts/MyContract.sol\":1606:1610  uint */\n      0x00\n        /* \"contracts/MyContract.sol\":1629:1635  values */\n      0x0a\n        /* \"contracts/MyContract.sol\":1629:1642  values.length */\n      dup1\n      sload\n      swap1\n      pop\n        /* \"contracts/MyContract.sol\":1622:1642  return values.length */\n      swap1\n      pop\n        /* \"contracts/MyContract.sol\":1564:1649  function valueCount() public view returns(uint) {... */\n      swap1\n      jump\t// out\n        /* \"contracts/MyContract.sol\":180:200  int public myInt = 1 */\n    tag_26:\n      sload(0x01)\n      dup2\n      jump\t// out\n        /* \"contracts/MyContract.sol\":1475:1558  function addValue(string memory _value) public {... */\n    tag_32:\n        /* \"contracts/MyContract.sol\":1532:1538  values */\n      0x0a\n        /* \"contracts/MyContract.sol\":1544:1550  _value */\n      dup2\n        /* \"contracts/MyContract.sol\":1532:1551  values.push(_value) */\n      swap1\n      dup1\n      0x01\n      dup2\n      sload\n      add\n      dup1\n      dup3\n      sstore\n      dup1\n      swap2\n      pop\n      pop\n      0x01\n      swap1\n      sub\n      swap1\n      0x00\n      mstore\n      keccak256(0x00, 0x20)\n      add\n      0x00\n      swap1\n      swap2\n      swap1\n      swap2\n      swap1\n      swap2\n      pop\n      swap1\n      dup2\n      tag_73\n      swap2\n      swap1\n      tag_74\n      jump\t// in\n    tag_73:\n      pop\n        /* \"contracts/MyContract.sol\":1475:1558  function addValue(string memory _value) public {... */\n      pop\n      jump\t// out\n        /* \"contracts/MyContract.sol\":347:387  string public myString = \"Hello, World!\" */\n    tag_34:\n      0x04\n      dup1\n      sload\n      tag_75\n      swap1\n      tag_76\n      jump\t// in\n    tag_75:\n      dup1\n      0x1f\n      add\n      0x20\n      dup1\n      swap2\n      div\n      mul\n      0x20\n      add\n      mload(0x40)\n      swap1\n      dup2\n      add\n      0x40\n      mstore\n      dup1\n      swap3\n      swap2\n      swap1\n      dup2\n      dup2\n      mstore\n      0x20\n      add\n      dup3\n      dup1\n      sload\n      tag_77\n      swap1\n      tag_76\n      jump\t// in\n    tag_77:\n      dup1\n      iszero\n      tag_78\n      jumpi\n      dup1\n      0x1f\n      lt\n      tag_79\n      jumpi\n      0x0100\n      dup1\n      dup4\n      sload\n      div\n      mul\n      dup4\n      mstore\n      swap2\n      0x20\n      add\n      swap2\n      jump(tag_78)\n    tag_79:\n      dup3\n      add\n      swap2\n      swap1\n      0x00\n      mstore\n      keccak256(0x00, 0x20)\n      swap1\n    tag_80:\n      dup2\n      sload\n      dup2\n      mstore\n      swap1\n      0x01\n      add\n      swap1\n      0x20\n      add\n      dup1\n      dup4\n      gt\n      tag_80\n      jumpi\n      dup3\n      swap1\n      sub\n      0x1f\n      and\n      dup3\n      add\n      swap2\n    tag_78:\n      pop\n      pop\n      pop\n      pop\n      pop\n      dup2\n      jump\t// out\n        /* \"contracts/MyContract.sol\":464:506  bytes32 public myBytes32 = \"Hello, World!\" */\n    tag_38:\n      sload(0x05)\n      dup2\n      jump\t// out\n        /* \"contracts/MyContract.sol\":927:949  string[] public values */\n    tag_44:\n      0x0a\n      dup2\n      dup2\n      sload\n      dup2\n      lt\n      tag_81\n      jumpi\n      0x00\n      dup1\n      revert\n    tag_81:\n      swap1\n      0x00\n      mstore\n      keccak256(0x00, 0x20)\n      add\n      0x00\n      swap2\n      pop\n      swap1\n      pop\n      dup1\n      sload\n      tag_83\n      swap1\n      tag_76\n      jump\t// in\n    tag_83:\n      dup1\n      0x1f\n      add\n      0x20\n      dup1\n      swap2\n      div\n      mul\n      0x20\n      add\n      mload(0x40)\n      swap1\n      dup2\n      add\n      0x40\n      mstore\n      dup1\n      swap3\n      swap2\n      swap1\n      dup2\n      dup2\n      mstore\n      0x20\n      add\n      dup3\n      dup1\n      sload\n      tag_84\n      swap1\n      tag_76\n      jump\t// in\n    tag_84:\n      dup1\n      iszero\n      tag_85\n      jumpi\n      dup1\n      0x1f\n      lt\n      tag_86\n      jumpi\n      0x0100\n      dup1\n      dup4\n      sload\n      div\n      mul\n      dup4\n      mstore\n      swap2\n      0x20\n      add\n      swap2\n      jump(tag_85)\n    tag_86:\n      dup3\n      add\n      swap2\n      swap1\n      0x00\n      mstore\n      keccak256(0x00, 0x20)\n      swap1\n    tag_87:\n      dup2\n      sload\n      dup2\n      mstore\n      swap1\n      0x01\n      add\n      swap1\n      0x20\n      add\n      dup1\n      dup4\n      gt\n      tag_87\n      jumpi\n      dup3\n      swap1\n      sub\n      0x1f\n      and\n      dup3\n      add\n      swap2\n    tag_85:\n      pop\n      pop\n      pop\n      pop\n      pop\n      dup2\n      jump\t// out\n        /* \"contracts/MyContract.sol\":862:921  string[] public stringArray = [\"John\", \"Johnny\", \"Johnson\"] */\n    tag_48:\n      0x09\n      dup2\n      dup2\n      sload\n      dup2\n      lt\n      tag_88\n      jumpi\n      0x00\n      dup1\n      revert\n    tag_88:\n      swap1\n      0x00\n      mstore\n      keccak256(0x00, 0x20)\n      add\n      0x00\n      swap2\n      pop\n      swap1\n      pop\n      dup1\n      sload\n      tag_90\n      swap1\n      tag_76\n      jump\t// in\n    tag_90:\n      dup1\n      0x1f\n      add\n      0x20\n      dup1\n      swap2\n      div\n      mul\n      0x20\n      add\n      mload(0x40)\n      swap1\n      dup2\n      add\n      0x40\n      mstore\n      dup1\n      swap3\n      swap2\n      swap1\n      dup2\n      dup2\n      mstore\n      0x20\n      add\n      dup3\n      dup1\n      sload\n      tag_91\n      swap1\n      tag_76\n      jump\t// in\n    tag_91:\n      dup1\n      iszero\n      tag_92\n      jumpi\n      dup1\n      0x1f\n      lt\n      tag_93\n      jumpi\n      0x0100\n      dup1\n      dup4\n      sload\n      div\n      mul\n      dup4\n      mstore\n      swap2\n      0x20\n      add\n      swap2\n      jump(tag_92)\n    tag_93:\n      dup3\n      add\n      swap2\n      swap1\n      0x00\n      mstore\n      keccak256(0x00, 0x20)\n      swap1\n    tag_94:\n      dup2\n      sload\n      dup2\n      mstore\n      swap1\n      0x01\n      add\n      swap1\n      0x20\n      add\n      dup1\n      dup4\n      gt\n      tag_94\n      jumpi\n      dup3\n      swap1\n      sub\n      0x1f\n      and\n      dup3\n      add\n      swap2\n    tag_92:\n      pop\n      pop\n      pop\n      pop\n      pop\n      dup2\n      jump\t// out\n        /* \"contracts/MyContract.sol\":745:799  MyStruct public myStruct = MyStruct(1, \"Hello world!\") */\n    tag_51:\n      0x06\n      dup1\n      0x00\n      add\n      sload\n      swap1\n      dup1\n      0x01\n      add\n      dup1\n      sload\n      tag_95\n      swap1\n      tag_76\n      jump\t// in\n    tag_95:\n      dup1\n      0x1f\n      add\n      0x20\n      dup1\n      swap2\n      div\n      mul\n      0x20\n      add\n      mload(0x40)\n      swap1\n      dup2\n      add\n      0x40\n      mstore\n      dup1\n      swap3\n      swap2\n      swap1\n      dup2\n      dup2\n      mstore\n      0x20\n      add\n      dup3\n      dup1\n      sload\n      tag_96\n      swap1\n      tag_76\n      jump\t// in\n    tag_96:\n      dup1\n      iszero\n      tag_97\n      jumpi\n      dup1\n      0x1f\n      lt\n      tag_98\n      jumpi\n      0x0100\n      dup1\n      dup4\n      sload\n      div\n      mul\n      dup4\n      mstore\n      swap2\n      0x20\n      add\n      swap2\n      jump(tag_97)\n    tag_98:\n      dup3\n      add\n      swap2\n      swap1\n      0x00\n      mstore\n      keccak256(0x00, 0x20)\n      swap1\n    tag_99:\n      dup2\n      sload\n      dup2\n      mstore\n      swap1\n      0x01\n      add\n      swap1\n      0x20\n      add\n      dup1\n      dup4\n      gt\n      tag_99\n      jumpi\n      dup3\n      swap1\n      sub\n      0x1f\n      and\n      dup3\n      add\n      swap2\n    tag_97:\n      pop\n      pop\n      pop\n      pop\n      pop\n      swap1\n      pop\n      dup3\n      jump\t// out\n        /* \"contracts/MyContract.sol\":821:856  uint[] public uintArray = [1, 2, 3] */\n    tag_56:\n      0x08\n      dup2\n      dup2\n      sload\n      dup2\n      lt\n      tag_100\n      jumpi\n      0x00\n      dup1\n      revert\n    tag_100:\n      swap1\n      0x00\n      mstore\n      keccak256(0x00, 0x20)\n      add\n      0x00\n      swap2\n      pop\n      swap1\n      pop\n      sload\n      dup2\n      jump\t// out\n        /* \"contracts/MyContract.sol\":265:293  uint256 public myUint256 = 1 */\n    tag_59:\n      sload(0x02)\n      dup2\n      jump\t// out\n        /* \"contracts/MyContract.sol\":970:1021  uint256[][] public array2D = [[1, 2, 3], [4, 5, 6]] */\n    tag_64:\n      0x0b\n      dup3\n      dup2\n      sload\n      dup2\n      lt\n      tag_102\n      jumpi\n      0x00\n      dup1\n      revert\n    tag_102:\n      swap1\n      0x00\n      mstore\n      keccak256(0x00, 0x20)\n      add\n      dup2\n      dup2\n      sload\n      dup2\n      lt\n      tag_104\n      jumpi\n      0x00\n      dup1\n      revert\n    tag_104:\n      swap1\n      0x00\n      mstore\n      keccak256(0x00, 0x20)\n      add\n      0x00\n      swap2\n      pop\n      swap2\n      pop\n      pop\n      sload\n      dup2\n      jump\t// out\n        /* \"contracts/MyContract.sol\":301:325  uint8 public myUint8 = 1 */\n    tag_67:\n      0x03\n      0x00\n      swap1\n      sload\n      swap1\n      0x0100\n      exp\n      swap1\n      div\n      0xff\n      and\n      dup2\n      jump\t// out\n        /* \"#utility.yul\":7:84   */\n    tag_106:\n        /* \"#utility.yul\":44:51   */\n      0x00\n        /* \"#utility.yul\":73:78   */\n      dup2\n        /* \"#utility.yul\":62:78   */\n      swap1\n      pop\n        /* \"#utility.yul\":7:84   */\n      swap2\n      swap1\n      pop\n      jump\t// out\n        /* \"#utility.yul\":90:208   */\n    tag_107:\n        /* \"#utility.yul\":177:201   */\n      tag_152\n        /* \"#utility.yul\":195:200   */\n      dup2\n        /* \"#utility.yul\":177:201   */\n      tag_106\n      jump\t// in\n    tag_152:\n        /* \"#utility.yul\":172:175   */\n      dup3\n        /* \"#utility.yul\":165:202   */\n      mstore\n        /* \"#utility.yul\":90:208   */\n      pop\n      pop\n      jump\t// out\n        /* \"#utility.yul\":214:436   */\n    tag_21:\n        /* \"#utility.yul\":307:311   */\n      0x00\n        /* \"#utility.yul\":345:347   */\n      0x20\n        /* \"#utility.yul\":334:343   */\n      dup3\n        /* \"#utility.yul\":330:348   */\n      add\n        /* \"#utility.yul\":322:348   */\n      swap1\n      pop\n        /* \"#utility.yul\":358:429   */\n      tag_154\n        /* \"#utility.yul\":426:427   */\n      0x00\n        /* \"#utility.yul\":415:424   */\n      dup4\n        /* \"#utility.yul\":411:428   */\n      add\n        /* \"#utility.yul\":402:408   */\n      dup5\n        /* \"#utility.yul\":358:429   */\n      tag_107\n      jump\t// in\n    tag_154:\n        /* \"#utility.yul\":214:436   */\n      swap3\n      swap2\n      pop\n      pop\n      jump\t// out\n        /* \"#utility.yul\":442:518   */\n    tag_108:\n        /* \"#utility.yul\":478:485   */\n      0x00\n        /* \"#utility.yul\":507:512   */\n      dup2\n        /* \"#utility.yul\":496:512   */\n      swap1\n      pop\n        /* \"#utility.yul\":442:518   */\n      swap2\n      swap1\n      pop\n      jump\t// out\n        /* \"#utility.yul\":524:639   */\n    tag_109:\n        /* \"#utility.yul\":609:632   */\n      tag_157\n        /* \"#utility.yul\":626:631   */\n      dup2\n        /* \"#utility.yul\":609:632   */\n      tag_108\n      jump\t// in\n    tag_157:\n        /* \"#utility.yul\":604:607   */\n      dup3\n        /* \"#utility.yul\":597:633   */\n      mstore\n        /* \"#utility.yul\":524:639   */\n      pop\n      pop\n      jump\t// out\n        /* \"#utility.yul\":645:863   */\n    tag_28:\n        /* \"#utility.yul\":736:740   */\n      0x00\n        /* \"#utility.yul\":774:776   */\n      0x20\n        /* \"#utility.yul\":763:772   */\n      dup3\n        /* \"#utility.yul\":759:777   */\n      add\n        /* \"#utility.yul\":751:777   */\n      swap1\n      pop\n        /* \"#utility.yul\":787:856   */\n      tag_159\n        /* \"#utility.yul\":853:854   */\n      0x00\n        /* \"#utility.yul\":842:851   */\n      dup4\n        /* \"#utility.yul\":838:855   */\n      add\n        /* \"#utility.yul\":829:835   */\n      dup5\n        /* \"#utility.yul\":787:856   */\n      tag_109\n      jump\t// in\n    tag_159:\n        /* \"#utility.yul\":645:863   */\n      swap3\n      swap2\n      pop\n      pop\n      jump\t// out\n        /* \"#utility.yul\":869:944   */\n    tag_110:\n        /* \"#utility.yul\":902:908   */\n      0x00\n        /* \"#utility.yul\":935:937   */\n      0x40\n        /* \"#utility.yul\":929:938   */\n      mload\n        /* \"#utility.yul\":919:938   */\n      swap1\n      pop\n        /* \"#utility.yul\":869:944   */\n      swap1\n      jump\t// out\n        /* \"#utility.yul\":950:1067   */\n    tag_111:\n        /* \"#utility.yul\":1059:1060   */\n      0x00\n        /* \"#utility.yul\":1056:1057   */\n      dup1\n        /* \"#utility.yul\":1049:1061   */\n      revert\n        /* \"#utility.yul\":1073:1190   */\n    tag_112:\n        /* \"#utility.yul\":1182:1183   */\n      0x00\n        /* \"#utility.yul\":1179:1180   */\n      dup1\n        /* \"#utility.yul\":1172:1184   */\n      revert\n        /* \"#utility.yul\":1196:1313   */\n    tag_113:\n        /* \"#utility.yul\":1305:1306   */\n      0x00\n        /* \"#utility.yul\":1302:1303   */\n      dup1\n        /* \"#utility.yul\":1295:1307   */\n      revert\n        /* \"#utility.yul\":1319:1436   */\n    tag_114:\n        /* \"#utility.yul\":1428:1429   */\n      0x00\n        /* \"#utility.yul\":1425:1426   */\n      dup1\n        /* \"#utility.yul\":1418:1430   */\n      revert\n        /* \"#utility.yul\":1442:1544   */\n    tag_115:\n        /* \"#utility.yul\":1483:1489   */\n      0x00\n        /* \"#utility.yul\":1534:1536   */\n      0x1f\n        /* \"#utility.yul\":1530:1537   */\n      not\n        /* \"#utility.yul\":1525:1527   */\n      0x1f\n        /* \"#utility.yul\":1518:1523   */\n      dup4\n        /* \"#utility.yul\":1514:1528   */\n      add\n        /* \"#utility.yul\":1510:1538   */\n      and\n        /* \"#utility.yul\":1500:1538   */\n      swap1\n      pop\n        /* \"#utility.yul\":1442:1544   */\n      swap2\n      swap1\n      pop\n      jump\t// out\n        /* \"#utility.yul\":1550:1730   */\n    tag_116:\n        /* \"#utility.yul\":1598:1675   */\n      0x4e487b7100000000000000000000000000000000000000000000000000000000\n        /* \"#utility.yul\":1595:1596   */\n      0x00\n        /* \"#utility.yul\":1588:1676   */\n      mstore\n        /* \"#utility.yul\":1695:1699   */\n      0x41\n        /* \"#utility.yul\":1692:1693   */\n      0x04\n        /* \"#utility.yul\":1685:1700   */\n      mstore\n        /* \"#utility.yul\":1719:1723   */\n      0x24\n        /* \"#utility.yul\":1716:1717   */\n      0x00\n        /* \"#utility.yul\":1709:1724   */\n      revert\n        /* \"#utility.yul\":1736:2017   */\n    tag_117:\n        /* \"#utility.yul\":1819:1846   */\n      tag_168\n        /* \"#utility.yul\":1841:1845   */\n      dup3\n        /* \"#utility.yul\":1819:1846   */\n      tag_115\n      jump\t// in\n    tag_168:\n        /* \"#utility.yul\":1811:1817   */\n      dup2\n        /* \"#utility.yul\":1807:1847   */\n      add\n        /* \"#utility.yul\":1949:1955   */\n      dup2\n        /* \"#utility.yul\":1937:1947   */\n      dup2\n        /* \"#utility.yul\":1934:1956   */\n      lt\n        /* \"#utility.yul\":1913:1931   */\n      0xffffffffffffffff\n        /* \"#utility.yul\":1901:1911   */\n      dup3\n        /* \"#utility.yul\":1898:1932   */\n      gt\n        /* \"#utility.yul\":1895:1957   */\n      or\n        /* \"#utility.yul\":1892:1980   */\n      iszero\n      tag_169\n      jumpi\n        /* \"#utility.yul\":1960:1978   */\n      tag_170\n      tag_116\n      jump\t// in\n    tag_170:\n        /* \"#utility.yul\":1892:1980   */\n    tag_169:\n        /* \"#utility.yul\":2000:2010   */\n      dup1\n        /* \"#utility.yul\":1996:1998   */\n      0x40\n        /* \"#utility.yul\":1989:2011   */\n      mstore\n        /* \"#utility.yul\":1779:2017   */\n      pop\n        /* \"#utility.yul\":1736:2017   */\n      pop\n      pop\n      jump\t// out\n        /* \"#utility.yul\":2023:2152   */\n    tag_118:\n        /* \"#utility.yul\":2057:2063   */\n      0x00\n        /* \"#utility.yul\":2084:2104   */\n      tag_172\n      tag_110\n      jump\t// in\n    tag_172:\n        /* \"#utility.yul\":2074:2104   */\n      swap1\n      pop\n        /* \"#utility.yul\":2113:2146   */\n      tag_173\n        /* \"#utility.yul\":2141:2145   */\n      dup3\n        /* \"#utility.yul\":2133:2139   */\n      dup3\n        /* \"#utility.yul\":2113:2146   */\n      tag_117\n      jump\t// in\n    tag_173:\n        /* \"#utility.yul\":2023:2152   */\n      swap2\n      swap1\n      pop\n      jump\t// out\n        /* \"#utility.yul\":2158:2466   */\n    tag_119:\n        /* \"#utility.yul\":2220:2224   */\n      0x00\n        /* \"#utility.yul\":2310:2328   */\n      0xffffffffffffffff\n        /* \"#utility.yul\":2302:2308   */\n      dup3\n        /* \"#utility.yul\":2299:2329   */\n      gt\n        /* \"#utility.yul\":2296:2352   */\n      iszero\n      tag_175\n      jumpi\n        /* \"#utility.yul\":2332:2350   */\n      tag_176\n      tag_116\n      jump\t// in\n    tag_176:\n        /* \"#utility.yul\":2296:2352   */\n    tag_175:\n        /* \"#utility.yul\":2370:2399   */\n      tag_177\n        /* \"#utility.yul\":2392:2398   */\n      dup3\n        /* \"#utility.yul\":2370:2399   */\n      tag_115\n      jump\t// in\n    tag_177:\n        /* \"#utility.yul\":2362:2399   */\n      swap1\n      pop\n        /* \"#utility.yul\":2454:2458   */\n      0x20\n        /* \"#utility.yul\":2448:2452   */\n      dup2\n        /* \"#utility.yul\":2444:2459   */\n      add\n        /* \"#utility.yul\":2436:2459   */\n      swap1\n      pop\n        /* \"#utility.yul\":2158:2466   */\n      swap2\n      swap1\n      pop\n      jump\t// out\n        /* \"#utility.yul\":2472:2618   */\n    tag_120:\n        /* \"#utility.yul\":2569:2575   */\n      dup3\n        /* \"#utility.yul\":2564:2567   */\n      dup2\n        /* \"#utility.yul\":2559:2562   */\n      dup4\n        /* \"#utility.yul\":2546:2576   */\n      calldatacopy\n        /* \"#utility.yul\":2610:2611   */\n      0x00\n        /* \"#utility.yul\":2601:2607   */\n      dup4\n        /* \"#utility.yul\":2596:2599   */\n      dup4\n        /* \"#utility.yul\":2592:2608   */\n      add\n        /* \"#utility.yul\":2585:2612   */\n      mstore\n        /* \"#utility.yul\":2472:2618   */\n      pop\n      pop\n      pop\n      jump\t// out\n        /* \"#utility.yul\":2624:3049   */\n    tag_121:\n        /* \"#utility.yul\":2702:2707   */\n      0x00\n        /* \"#utility.yul\":2727:2793   */\n      tag_180\n        /* \"#utility.yul\":2743:2792   */\n      tag_181\n        /* \"#utility.yul\":2785:2791   */\n      dup5\n        /* \"#utility.yul\":2743:2792   */\n      tag_119\n      jump\t// in\n    tag_181:\n        /* \"#utility.yul\":2727:2793   */\n      tag_118\n      jump\t// in\n    tag_180:\n        /* \"#utility.yul\":2718:2793   */\n      swap1\n      pop\n        /* \"#utility.yul\":2816:2822   */\n      dup3\n        /* \"#utility.yul\":2809:2814   */\n      dup2\n        /* \"#utility.yul\":2802:2823   */\n      mstore\n        /* \"#utility.yul\":2854:2858   */\n      0x20\n        /* \"#utility.yul\":2847:2852   */\n      dup2\n        /* \"#utility.yul\":2843:2859   */\n      add\n        /* \"#utility.yul\":2892:2895   */\n      dup5\n        /* \"#utility.yul\":2883:2889   */\n      dup5\n        /* \"#utility.yul\":2878:2881   */\n      dup5\n        /* \"#utility.yul\":2874:2890   */\n      add\n        /* \"#utility.yul\":2871:2896   */\n      gt\n        /* \"#utility.yul\":2868:2980   */\n      iszero\n      tag_182\n      jumpi\n        /* \"#utility.yul\":2899:2978   */\n      tag_183\n      tag_114\n      jump\t// in\n    tag_183:\n        /* \"#utility.yul\":2868:2980   */\n    tag_182:\n        /* \"#utility.yul\":2989:3043   */\n      tag_184\n        /* \"#utility.yul\":3036:3042   */\n      dup5\n        /* \"#utility.yul\":3031:3034   */\n      dup3\n        /* \"#utility.yul\":3026:3029   */\n      dup6\n        /* \"#utility.yul\":2989:3043   */\n      tag_120\n      jump\t// in\n    tag_184:\n        /* \"#utility.yul\":2708:3049   */\n      pop\n        /* \"#utility.yul\":2624:3049   */\n      swap4\n      swap3\n      pop\n      pop\n      pop\n      jump\t// out\n        /* \"#utility.yul\":3069:3409   */\n    tag_122:\n        /* \"#utility.yul\":3125:3130   */\n      0x00\n        /* \"#utility.yul\":3174:3177   */\n      dup3\n        /* \"#utility.yul\":3167:3171   */\n      0x1f\n        /* \"#utility.yul\":3159:3165   */\n      dup4\n        /* \"#utility.yul\":3155:3172   */\n      add\n        /* \"#utility.yul\":3151:3178   */\n      slt\n        /* \"#utility.yul\":3141:3263   */\n      tag_186\n      jumpi\n        /* \"#utility.yul\":3182:3261   */\n      tag_187\n      tag_113\n      jump\t// in\n    tag_187:\n        /* \"#utility.yul\":3141:3263   */\n    tag_186:\n        /* \"#utility.yul\":3299:3305   */\n      dup2\n        /* \"#utility.yul\":3286:3306   */\n      calldataload\n        /* \"#utility.yul\":3324:3403   */\n      tag_188\n        /* \"#utility.yul\":3399:3402   */\n      dup5\n        /* \"#utility.yul\":3391:3397   */\n      dup3\n        /* \"#utility.yul\":3384:3388   */\n      0x20\n        /* \"#utility.yul\":3376:3382   */\n      dup7\n        /* \"#utility.yul\":3372:3389   */\n      add\n        /* \"#utility.yul\":3324:3403   */\n      tag_121\n      jump\t// in\n    tag_188:\n        /* \"#utility.yul\":3315:3403   */\n      swap2\n      pop\n        /* \"#utility.yul\":3131:3409   */\n      pop\n        /* \"#utility.yul\":3069:3409   */\n      swap3\n      swap2\n      pop\n      pop\n      jump\t// out\n        /* \"#utility.yul\":3415:3924   */\n    tag_31:\n        /* \"#utility.yul\":3484:3490   */\n      0x00\n        /* \"#utility.yul\":3533:3535   */\n      0x20\n        /* \"#utility.yul\":3521:3530   */\n      dup3\n        /* \"#utility.yul\":3512:3519   */\n      dup5\n        /* \"#utility.yul\":3508:3531   */\n      sub\n        /* \"#utility.yul\":3504:3536   */\n      slt\n        /* \"#utility.yul\":3501:3620   */\n      iszero\n      tag_190\n      jumpi\n        /* \"#utility.yul\":3539:3618   */\n      tag_191\n      tag_111\n      jump\t// in\n    tag_191:\n        /* \"#utility.yul\":3501:3620   */\n    tag_190:\n        /* \"#utility.yul\":3687:3688   */\n      0x00\n        /* \"#utility.yul\":3676:3685   */\n      dup3\n        /* \"#utility.yul\":3672:3689   */\n      add\n        /* \"#utility.yul\":3659:3690   */\n      calldataload\n        /* \"#utility.yul\":3717:3735   */\n      0xffffffffffffffff\n        /* \"#utility.yul\":3709:3715   */\n      dup2\n        /* \"#utility.yul\":3706:3736   */\n      gt\n        /* \"#utility.yul\":3703:3820   */\n      iszero\n      tag_192\n      jumpi\n        /* \"#utility.yul\":3739:3818   */\n      tag_193\n      tag_112\n      jump\t// in\n    tag_193:\n        /* \"#utility.yul\":3703:3820   */\n    tag_192:\n        /* \"#utility.yul\":3844:3907   */\n      tag_194\n        /* \"#utility.yul\":3899:3906   */\n      dup5\n        /* \"#utility.yul\":3890:3896   */\n      dup3\n        /* \"#utility.yul\":3879:3888   */\n      dup6\n        /* \"#utility.yul\":3875:3897   */\n      add\n        /* \"#utility.yul\":3844:3907   */\n      tag_122\n      jump\t// in\n    tag_194:\n        /* \"#utility.yul\":3834:3907   */\n      swap2\n      pop\n        /* \"#utility.yul\":3630:3917   */\n      pop\n        /* \"#utility.yul\":3415:3924   */\n      swap3\n      swap2\n      pop\n      pop\n      jump\t// out\n        /* \"#utility.yul\":3930:4029   */\n    tag_123:\n        /* \"#utility.yul\":3982:3988   */\n      0x00\n        /* \"#utility.yul\":4016:4021   */\n      dup2\n        /* \"#utility.yul\":4010:4022   */\n      mload\n        /* \"#utility.yul\":4000:4022   */\n      swap1\n      pop\n        /* \"#utility.yul\":3930:4029   */\n      swap2\n      swap1\n      pop\n      jump\t// out\n        /* \"#utility.yul\":4035:4204   */\n    tag_124:\n        /* \"#utility.yul\":4119:4130   */\n      0x00\n        /* \"#utility.yul\":4153:4159   */\n      dup3\n        /* \"#utility.yul\":4148:4151   */\n      dup3\n        /* \"#utility.yul\":4141:4160   */\n      mstore\n        /* \"#utility.yul\":4193:4197   */\n      0x20\n        /* \"#utility.yul\":4188:4191   */\n      dup3\n        /* \"#utility.yul\":4184:4198   */\n      add\n        /* \"#utility.yul\":4169:4198   */\n      swap1\n      pop\n        /* \"#utility.yul\":4035:4204   */\n      swap3\n      swap2\n      pop\n      pop\n      jump\t// out\n        /* \"#utility.yul\":4210:4456   */\n    tag_125:\n        /* \"#utility.yul\":4291:4292   */\n      0x00\n        /* \"#utility.yul\":4301:4414   */\n    tag_198:\n        /* \"#utility.yul\":4315:4321   */\n      dup4\n        /* \"#utility.yul\":4312:4313   */\n      dup2\n        /* \"#utility.yul\":4309:4322   */\n      lt\n        /* \"#utility.yul\":4301:4414   */\n      iszero\n      tag_200\n      jumpi\n        /* \"#utility.yul\":4400:4401   */\n      dup1\n        /* \"#utility.yul\":4395:4398   */\n      dup3\n        /* \"#utility.yul\":4391:4402   */\n      add\n        /* \"#utility.yul\":4385:4403   */\n      mload\n        /* \"#utility.yul\":4381:4382   */\n      dup2\n        /* \"#utility.yul\":4376:4379   */\n      dup5\n        /* \"#utility.yul\":4372:4383   */\n      add\n        /* \"#utility.yul\":4365:4404   */\n      mstore\n        /* \"#utility.yul\":4337:4339   */\n      0x20\n        /* \"#utility.yul\":4334:4335   */\n      dup2\n        /* \"#utility.yul\":4330:4340   */\n      add\n        /* \"#utility.yul\":4325:4340   */\n      swap1\n      pop\n        /* \"#utility.yul\":4301:4414   */\n      jump(tag_198)\n    tag_200:\n        /* \"#utility.yul\":4448:4449   */\n      0x00\n        /* \"#utility.yul\":4439:4445   */\n      dup5\n        /* \"#utility.yul\":4434:4437   */\n      dup5\n        /* \"#utility.yul\":4430:4446   */\n      add\n        /* \"#utility.yul\":4423:4450   */\n      mstore\n        /* \"#utility.yul\":4272:4456   */\n      pop\n        /* \"#utility.yul\":4210:4456   */\n      pop\n      pop\n      pop\n      jump\t// out\n        /* \"#utility.yul\":4462:4839   */\n    tag_126:\n        /* \"#utility.yul\":4550:4553   */\n      0x00\n        /* \"#utility.yul\":4578:4617   */\n      tag_202\n        /* \"#utility.yul\":4611:4616   */\n      dup3\n        /* \"#utility.yul\":4578:4617   */\n      tag_123\n      jump\t// in\n    tag_202:\n        /* \"#utility.yul\":4633:4704   */\n      tag_203\n        /* \"#utility.yul\":4697:4703   */\n      dup2\n        /* \"#utility.yul\":4692:4695   */\n      dup6\n        /* \"#utility.yul\":4633:4704   */\n      tag_124\n      jump\t// in\n    tag_203:\n        /* \"#utility.yul\":4626:4704   */\n      swap4\n      pop\n        /* \"#utility.yul\":4713:4778   */\n      tag_204\n        /* \"#utility.yul\":4771:4777   */\n      dup2\n        /* \"#utility.yul\":4766:4769   */\n      dup6\n        /* \"#utility.yul\":4759:4763   */\n      0x20\n        /* \"#utility.yul\":4752:4757   */\n      dup7\n        /* \"#utility.yul\":4748:4764   */\n      add\n        /* \"#utility.yul\":4713:4778   */\n      tag_125\n      jump\t// in\n    tag_204:\n        /* \"#utility.yul\":4803:4832   */\n      tag_205\n        /* \"#utility.yul\":4825:4831   */\n      dup2\n        /* \"#utility.yul\":4803:4832   */\n      tag_115\n      jump\t// in\n    tag_205:\n        /* \"#utility.yul\":4798:4801   */\n      dup5\n        /* \"#utility.yul\":4794:4833   */\n      add\n        /* \"#utility.yul\":4787:4833   */\n      swap2\n      pop\n        /* \"#utility.yul\":4554:4839   */\n      pop\n        /* \"#utility.yul\":4462:4839   */\n      swap3\n      swap2\n      pop\n      pop\n      jump\t// out\n        /* \"#utility.yul\":4845:5158   */\n    tag_36:\n        /* \"#utility.yul\":4958:4962   */\n      0x00\n        /* \"#utility.yul\":4996:4998   */\n      0x20\n        /* \"#utility.yul\":4985:4994   */\n      dup3\n        /* \"#utility.yul\":4981:4999   */\n      add\n        /* \"#utility.yul\":4973:4999   */\n      swap1\n      pop\n        /* \"#utility.yul\":5045:5054   */\n      dup2\n        /* \"#utility.yul\":5039:5043   */\n      dup2\n        /* \"#utility.yul\":5035:5055   */\n      sub\n        /* \"#utility.yul\":5031:5032   */\n      0x00\n        /* \"#utility.yul\":5020:5029   */\n      dup4\n        /* \"#utility.yul\":5016:5033   */\n      add\n        /* \"#utility.yul\":5009:5056   */\n      mstore\n        /* \"#utility.yul\":5073:5151   */\n      tag_207\n        /* \"#utility.yul\":5146:5150   */\n      dup2\n        /* \"#utility.yul\":5137:5143   */\n      dup5\n        /* \"#utility.yul\":5073:5151   */\n      tag_126\n      jump\t// in\n    tag_207:\n        /* \"#utility.yul\":5065:5151   */\n      swap1\n      pop\n        /* \"#utility.yul\":4845:5158   */\n      swap3\n      swap2\n      pop\n      pop\n      jump\t// out\n        /* \"#utility.yul\":5164:5241   */\n    tag_127:\n        /* \"#utility.yul\":5201:5208   */\n      0x00\n        /* \"#utility.yul\":5230:5235   */\n      dup2\n        /* \"#utility.yul\":5219:5235   */\n      swap1\n      pop\n        /* \"#utility.yul\":5164:5241   */\n      swap2\n      swap1\n      pop\n      jump\t// out\n        /* \"#utility.yul\":5247:5365   */\n    tag_128:\n        /* \"#utility.yul\":5334:5358   */\n      tag_210\n        /* \"#utility.yul\":5352:5357   */\n      dup2\n        /* \"#utility.yul\":5334:5358   */\n      tag_127\n      jump\t// in\n    tag_210:\n        /* \"#utility.yul\":5329:5332   */\n      dup3\n        /* \"#utility.yul\":5322:5359   */\n      mstore\n        /* \"#utility.yul\":5247:5365   */\n      pop\n      pop\n      jump\t// out\n        /* \"#utility.yul\":5371:5593   */\n    tag_40:\n        /* \"#utility.yul\":5464:5468   */\n      0x00\n        /* \"#utility.yul\":5502:5504   */\n      0x20\n        /* \"#utility.yul\":5491:5500   */\n      dup3\n        /* \"#utility.yul\":5487:5505   */\n      add\n        /* \"#utility.yul\":5479:5505   */\n      swap1\n      pop\n        /* \"#utility.yul\":5515:5586   */\n      tag_212\n        /* \"#utility.yul\":5583:5584   */\n      0x00\n        /* \"#utility.yul\":5572:5581   */\n      dup4\n        /* \"#utility.yul\":5568:5585   */\n      add\n        /* \"#utility.yul\":5559:5565   */\n      dup5\n        /* \"#utility.yul\":5515:5586   */\n      tag_128\n      jump\t// in\n    tag_212:\n        /* \"#utility.yul\":5371:5593   */\n      swap3\n      swap2\n      pop\n      pop\n      jump\t// out\n        /* \"#utility.yul\":5599:5721   */\n    tag_129:\n        /* \"#utility.yul\":5672:5696   */\n      tag_214\n        /* \"#utility.yul\":5690:5695   */\n      dup2\n        /* \"#utility.yul\":5672:5696   */\n      tag_106\n      jump\t// in\n    tag_214:\n        /* \"#utility.yul\":5665:5670   */\n      dup2\n        /* \"#utility.yul\":5662:5697   */\n      eq\n        /* \"#utility.yul\":5652:5715   */\n      tag_215\n      jumpi\n        /* \"#utility.yul\":5711:5712   */\n      0x00\n        /* \"#utility.yul\":5708:5709   */\n      dup1\n        /* \"#utility.yul\":5701:5713   */\n      revert\n        /* \"#utility.yul\":5652:5715   */\n    tag_215:\n        /* \"#utility.yul\":5599:5721   */\n      pop\n      jump\t// out\n        /* \"#utility.yul\":5727:5866   */\n    tag_130:\n        /* \"#utility.yul\":5773:5778   */\n      0x00\n        /* \"#utility.yul\":5811:5817   */\n      dup2\n        /* \"#utility.yul\":5798:5818   */\n      calldataload\n        /* \"#utility.yul\":5789:5818   */\n      swap1\n      pop\n        /* \"#utility.yul\":5827:5860   */\n      tag_217\n        /* \"#utility.yul\":5854:5859   */\n      dup2\n        /* \"#utility.yul\":5827:5860   */\n      tag_129\n      jump\t// in\n    tag_217:\n        /* \"#utility.yul\":5727:5866   */\n      swap3\n      swap2\n      pop\n      pop\n      jump\t// out\n        /* \"#utility.yul\":5872:6201   */\n    tag_43:\n        /* \"#utility.yul\":5931:5937   */\n      0x00\n        /* \"#utility.yul\":5980:5982   */\n      0x20\n        /* \"#utility.yul\":5968:5977   */\n      dup3\n        /* \"#utility.yul\":5959:5966   */\n      dup5\n        /* \"#utility.yul\":5955:5978   */\n      sub\n        /* \"#utility.yul\":5951:5983   */\n      slt\n        /* \"#utility.yul\":5948:6067   */\n      iszero\n      tag_219\n      jumpi\n        /* \"#utility.yul\":5986:6065   */\n      tag_220\n      tag_111\n      jump\t// in\n    tag_220:\n        /* \"#utility.yul\":5948:6067   */\n    tag_219:\n        /* \"#utility.yul\":6106:6107   */\n      0x00\n        /* \"#utility.yul\":6131:6184   */\n      tag_221\n        /* \"#utility.yul\":6176:6183   */\n      dup5\n        /* \"#utility.yul\":6167:6173   */\n      dup3\n        /* \"#utility.yul\":6156:6165   */\n      dup6\n        /* \"#utility.yul\":6152:6174   */\n      add\n        /* \"#utility.yul\":6131:6184   */\n      tag_130\n      jump\t// in\n    tag_221:\n        /* \"#utility.yul\":6121:6184   */\n      swap2\n      pop\n        /* \"#utility.yul\":6077:6194   */\n      pop\n        /* \"#utility.yul\":5872:6201   */\n      swap3\n      swap2\n      pop\n      pop\n      jump\t// out\n        /* \"#utility.yul\":6207:6630   */\n    tag_53:\n        /* \"#utility.yul\":6348:6352   */\n      0x00\n        /* \"#utility.yul\":6386:6388   */\n      0x40\n        /* \"#utility.yul\":6375:6384   */\n      dup3\n        /* \"#utility.yul\":6371:6389   */\n      add\n        /* \"#utility.yul\":6363:6389   */\n      swap1\n      pop\n        /* \"#utility.yul\":6399:6470   */\n      tag_223\n        /* \"#utility.yul\":6467:6468   */\n      0x00\n        /* \"#utility.yul\":6456:6465   */\n      dup4\n        /* \"#utility.yul\":6452:6469   */\n      add\n        /* \"#utility.yul\":6443:6449   */\n      dup6\n        /* \"#utility.yul\":6399:6470   */\n      tag_107\n      jump\t// in\n    tag_223:\n        /* \"#utility.yul\":6517:6526   */\n      dup2\n        /* \"#utility.yul\":6511:6515   */\n      dup2\n        /* \"#utility.yul\":6507:6527   */\n      sub\n        /* \"#utility.yul\":6502:6504   */\n      0x20\n        /* \"#utility.yul\":6491:6500   */\n      dup4\n        /* \"#utility.yul\":6487:6505   */\n      add\n        /* \"#utility.yul\":6480:6528   */\n      mstore\n        /* \"#utility.yul\":6545:6623   */\n      tag_224\n        /* \"#utility.yul\":6618:6622   */\n      dup2\n        /* \"#utility.yul\":6609:6615   */\n      dup5\n        /* \"#utility.yul\":6545:6623   */\n      tag_126\n      jump\t// in\n    tag_224:\n        /* \"#utility.yul\":6537:6623   */\n      swap1\n      pop\n        /* \"#utility.yul\":6207:6630   */\n      swap4\n      swap3\n      pop\n      pop\n      pop\n      jump\t// out\n        /* \"#utility.yul\":6636:7110   */\n    tag_63:\n        /* \"#utility.yul\":6704:6710   */\n      0x00\n        /* \"#utility.yul\":6712:6718   */\n      dup1\n        /* \"#utility.yul\":6761:6763   */\n      0x40\n        /* \"#utility.yul\":6749:6758   */\n      dup4\n        /* \"#utility.yul\":6740:6747   */\n      dup6\n        /* \"#utility.yul\":6736:6759   */\n      sub\n        /* \"#utility.yul\":6732:6764   */\n      slt\n        /* \"#utility.yul\":6729:6848   */\n      iszero\n      tag_226\n      jumpi\n        /* \"#utility.yul\":6767:6846   */\n      tag_227\n      tag_111\n      jump\t// in\n    tag_227:\n        /* \"#utility.yul\":6729:6848   */\n    tag_226:\n        /* \"#utility.yul\":6887:6888   */\n      0x00\n        /* \"#utility.yul\":6912:6965   */\n      tag_228\n        /* \"#utility.yul\":6957:6964   */\n      dup6\n        /* \"#utility.yul\":6948:6954   */\n      dup3\n        /* \"#utility.yul\":6937:6946   */\n      dup7\n        /* \"#utility.yul\":6933:6955   */\n      add\n        /* \"#utility.yul\":6912:6965   */\n      tag_130\n      jump\t// in\n    tag_228:\n        /* \"#utility.yul\":6902:6965   */\n      swap3\n      pop\n        /* \"#utility.yul\":6858:6975   */\n      pop\n        /* \"#utility.yul\":7014:7016   */\n      0x20\n        /* \"#utility.yul\":7040:7093   */\n      tag_229\n        /* \"#utility.yul\":7085:7092   */\n      dup6\n        /* \"#utility.yul\":7076:7082   */\n      dup3\n        /* \"#utility.yul\":7065:7074   */\n      dup7\n        /* \"#utility.yul\":7061:7083   */\n      add\n        /* \"#utility.yul\":7040:7093   */\n      tag_130\n      jump\t// in\n    tag_229:\n        /* \"#utility.yul\":7030:7093   */\n      swap2\n      pop\n        /* \"#utility.yul\":6985:7103   */\n      pop\n        /* \"#utility.yul\":6636:7110   */\n      swap3\n      pop\n      swap3\n      swap1\n      pop\n      jump\t// out\n        /* \"#utility.yul\":7116:7202   */\n    tag_131:\n        /* \"#utility.yul\":7151:7158   */\n      0x00\n        /* \"#utility.yul\":7191:7195   */\n      0xff\n        /* \"#utility.yul\":7184:7189   */\n      dup3\n        /* \"#utility.yul\":7180:7196   */\n      and\n        /* \"#utility.yul\":7169:7196   */\n      swap1\n      pop\n        /* \"#utility.yul\":7116:7202   */\n      swap2\n      swap1\n      pop\n      jump\t// out\n        /* \"#utility.yul\":7208:7320   */\n    tag_132:\n        /* \"#utility.yul\":7291:7313   */\n      tag_232\n        /* \"#utility.yul\":7307:7312   */\n      dup2\n        /* \"#utility.yul\":7291:7313   */\n      tag_131\n      jump\t// in\n    tag_232:\n        /* \"#utility.yul\":7286:7289   */\n      dup3\n        /* \"#utility.yul\":7279:7314   */\n      mstore\n        /* \"#utility.yul\":7208:7320   */\n      pop\n      pop\n      jump\t// out\n        /* \"#utility.yul\":7326:7540   */\n    tag_69:\n        /* \"#utility.yul\":7415:7419   */\n      0x00\n        /* \"#utility.yul\":7453:7455   */\n      0x20\n        /* \"#utility.yul\":7442:7451   */\n      dup3\n        /* \"#utility.yul\":7438:7456   */\n      add\n        /* \"#utility.yul\":7430:7456   */\n      swap1\n      pop\n        /* \"#utility.yul\":7466:7533   */\n      tag_234\n        /* \"#utility.yul\":7530:7531   */\n      0x00\n        /* \"#utility.yul\":7519:7528   */\n      dup4\n        /* \"#utility.yul\":7515:7532   */\n      add\n        /* \"#utility.yul\":7506:7512   */\n      dup5\n        /* \"#utility.yul\":7466:7533   */\n      tag_132\n      jump\t// in\n    tag_234:\n        /* \"#utility.yul\":7326:7540   */\n      swap3\n      swap2\n      pop\n      pop\n      jump\t// out\n        /* \"#utility.yul\":7546:7726   */\n    tag_133:\n        /* \"#utility.yul\":7594:7671   */\n      0x4e487b7100000000000000000000000000000000000000000000000000000000\n        /* \"#utility.yul\":7591:7592   */\n      0x00\n        /* \"#utility.yul\":7584:7672   */\n      mstore\n        /* \"#utility.yul\":7691:7695   */\n      0x22\n        /* \"#utility.yul\":7688:7689   */\n      0x04\n        /* \"#utility.yul\":7681:7696   */\n      mstore\n        /* \"#utility.yul\":7715:7719   */\n      0x24\n        /* \"#utility.yul\":7712:7713   */\n      0x00\n        /* \"#utility.yul\":7705:7720   */\n      revert\n        /* \"#utility.yul\":7732:8052   */\n    tag_76:\n        /* \"#utility.yul\":7776:7782   */\n      0x00\n        /* \"#utility.yul\":7813:7814   */\n      0x02\n        /* \"#utility.yul\":7807:7811   */\n      dup3\n        /* \"#utility.yul\":7803:7815   */\n      div\n        /* \"#utility.yul\":7793:7815   */\n      swap1\n      pop\n        /* \"#utility.yul\":7860:7861   */\n      0x01\n        /* \"#utility.yul\":7854:7858   */\n      dup3\n        /* \"#utility.yul\":7850:7862   */\n      and\n        /* \"#utility.yul\":7881:7899   */\n      dup1\n        /* \"#utility.yul\":7871:7952   */\n      tag_237\n      jumpi\n        /* \"#utility.yul\":7937:7941   */\n      0x7f\n        /* \"#utility.yul\":7929:7935   */\n      dup3\n        /* \"#utility.yul\":7925:7942   */\n      and\n        /* \"#utility.yul\":7915:7942   */\n      swap2\n      pop\n        /* \"#utility.yul\":7871:7952   */\n    tag_237:\n        /* \"#utility.yul\":7999:8001   */\n      0x20\n        /* \"#utility.yul\":7991:7997   */\n      dup3\n        /* \"#utility.yul\":7988:8002   */\n      lt\n        /* \"#utility.yul\":7968:7986   */\n      dup2\n        /* \"#utility.yul\":7965:8003   */\n      sub\n        /* \"#utility.yul\":7962:8046   */\n      tag_238\n      jumpi\n        /* \"#utility.yul\":8018:8036   */\n      tag_239\n      tag_133\n      jump\t// in\n    tag_239:\n        /* \"#utility.yul\":7962:8046   */\n    tag_238:\n        /* \"#utility.yul\":7783:8052   */\n      pop\n        /* \"#utility.yul\":7732:8052   */\n      swap2\n      swap1\n      pop\n      jump\t// out\n        /* \"#utility.yul\":8058:8199   */\n    tag_134:\n        /* \"#utility.yul\":8107:8111   */\n      0x00\n        /* \"#utility.yul\":8130:8133   */\n      dup2\n        /* \"#utility.yul\":8122:8133   */\n      swap1\n      pop\n        /* \"#utility.yul\":8153:8156   */\n      dup2\n        /* \"#utility.yul\":8150:8151   */\n      0x00\n        /* \"#utility.yul\":8143:8157   */\n      mstore\n        /* \"#utility.yul\":8187:8191   */\n      0x20\n        /* \"#utility.yul\":8184:8185   */\n      0x00\n        /* \"#utility.yul\":8174:8192   */\n      keccak256\n        /* \"#utility.yul\":8166:8192   */\n      swap1\n      pop\n        /* \"#utility.yul\":8058:8199   */\n      swap2\n      swap1\n      pop\n      jump\t// out\n        /* \"#utility.yul\":8205:8298   */\n    tag_135:\n        /* \"#utility.yul\":8242:8248   */\n      0x00\n        /* \"#utility.yul\":8289:8291   */\n      0x20\n        /* \"#utility.yul\":8284:8286   */\n      0x1f\n        /* \"#utility.yul\":8277:8282   */\n      dup4\n        /* \"#utility.yul\":8273:8287   */\n      add\n        /* \"#utility.yul\":8269:8292   */\n      div\n        /* \"#utility.yul\":8259:8292   */\n      swap1\n      pop\n        /* \"#utility.yul\":8205:8298   */\n      swap2\n      swap1\n      pop\n      jump\t// out\n        /* \"#utility.yul\":8304:8411   */\n    tag_136:\n        /* \"#utility.yul\":8348:8356   */\n      0x00\n        /* \"#utility.yul\":8398:8403   */\n      dup3\n        /* \"#utility.yul\":8392:8396   */\n      dup3\n        /* \"#utility.yul\":8388:8404   */\n      shl\n        /* \"#utility.yul\":8367:8404   */\n      swap1\n      pop\n        /* \"#utility.yul\":8304:8411   */\n      swap3\n      swap2\n      pop\n      pop\n      jump\t// out\n        /* \"#utility.yul\":8417:8810   */\n    tag_137:\n        /* \"#utility.yul\":8486:8492   */\n      0x00\n        /* \"#utility.yul\":8536:8537   */\n      0x08\n        /* \"#utility.yul\":8524:8534   */\n      dup4\n        /* \"#utility.yul\":8520:8538   */\n      mul\n        /* \"#utility.yul\":8559:8656   */\n      tag_244\n        /* \"#utility.yul\":8589:8655   */\n      0xffffffffffffffffffffffffffffffffffffffffffffffffffffffffffffffff\n        /* \"#utility.yul\":8578:8587   */\n      dup3\n        /* \"#utility.yul\":8559:8656   */\n      tag_136\n      jump\t// in\n    tag_244:\n        /* \"#utility.yul\":8677:8716   */\n      tag_245\n        /* \"#utility.yul\":8707:8715   */\n      dup7\n        /* \"#utility.yul\":8696:8705   */\n      dup4\n        /* \"#utility.yul\":8677:8716   */\n      tag_136\n      jump\t// in\n    tag_245:\n        /* \"#utility.yul\":8665:8716   */\n      swap6\n      pop\n        /* \"#utility.yul\":8749:8753   */\n      dup1\n        /* \"#utility.yul\":8745:8754   */\n      not\n        /* \"#utility.yul\":8738:8743   */\n      dup5\n        /* \"#utility.yul\":8734:8755   */\n      and\n        /* \"#utility.yul\":8725:8755   */\n      swap4\n      pop\n        /* \"#utility.yul\":8798:8802   */\n      dup1\n        /* \"#utility.yul\":8788:8796   */\n      dup7\n        /* \"#utility.yul\":8784:8803   */\n      and\n        /* \"#utility.yul\":8777:8782   */\n      dup5\n        /* \"#utility.yul\":8774:8804   */\n      or\n        /* \"#utility.yul\":8764:8804   */\n      swap3\n      pop\n        /* \"#utility.yul\":8493:8810   */\n      pop\n      pop\n        /* \"#utility.yul\":8417:8810   */\n      swap4\n      swap3\n      pop\n      pop\n      pop\n      jump\t// out\n        /* \"#utility.yul\":8816:8876   */\n    tag_138:\n        /* \"#utility.yul\":8844:8847   */\n      0x00\n        /* \"#utility.yul\":8865:8870   */\n      dup2\n        /* \"#utility.yul\":8858:8870   */\n      swap1\n      pop\n        /* \"#utility.yul\":8816:8876   */\n      swap2\n      swap1\n      pop\n      jump\t// out\n        /* \"#utility.yul\":8882:9024   */\n    tag_139:\n        /* \"#utility.yul\":8932:8941   */\n      0x00\n        /* \"#utility.yul\":8965:9018   */\n      tag_248\n        /* \"#utility.yul\":8983:9017   */\n      tag_249\n        /* \"#utility.yul\":8992:9016   */\n      tag_250\n        /* \"#utility.yul\":9010:9015   */\n      dup5\n        /* \"#utility.yul\":8992:9016   */\n      tag_106\n      jump\t// in\n    tag_250:\n        /* \"#utility.yul\":8983:9017   */\n      tag_138\n      jump\t// in\n    tag_249:\n        /* \"#utility.yul\":8965:9018   */\n      tag_106\n      jump\t// in\n    tag_248:\n        /* \"#utility.yul\":8952:9018   */\n      swap1\n      pop\n        /* \"#utility.yul\":8882:9024   */\n      swap2\n      swap1\n      pop\n      jump\t// out\n        /* \"#utility.yul\":9030:9105   */\n    tag_140:\n        /* \"#utility.yul\":9073:9076   */\n      0x00\n        /* \"#utility.yul\":9094:9099   */\n      dup2\n        /* \"#utility.yul\":9087:9099   */\n      swap1\n      pop\n        /* \"#utility.yul\":9030:9105   */\n      swap2\n      swap1\n      pop\n      jump\t// out\n        /* \"#utility.yul\":9111:9380   */\n    tag_141:\n        /* \"#utility.yul\":9221:9260   */\n      tag_253\n        /* \"#utility.yul\":9252:9259   */\n      dup4\n        /* \"#utility.yul\":9221:9260   */\n      tag_139\n      jump\t// in\n    tag_253:\n        /* \"#utility.yul\":9282:9373   */\n      tag_254\n        /* \"#utility.yul\":9331:9372   */\n      tag_255\n        /* \"#utility.yul\":9355:9371   */\n      dup3\n        /* \"#utility.yul\":9331:9372   */\n      tag_140\n      jump\t// in\n    tag_255:\n        /* \"#utility.yul\":9323:9329   */\n      dup5\n        /* \"#utility.yul\":9316:9320   */\n      dup5\n        /* \"#utility.yul\":9310:9321   */\n      sload\n        /* \"#utility.yul\":9282:9373   */\n      tag_137\n      jump\t// in\n    tag_254:\n        /* \"#utility.yul\":9276:9280   */\n      dup3\n        /* \"#utility.yul\":9269:9374   */\n      sstore\n        /* \"#utility.yul\":9187:9380   */\n      pop\n        /* \"#utility.yul\":9111:9380   */\n      pop\n      pop\n      pop\n      jump\t// out\n        /* \"#utility.yul\":9386:9459   */\n    tag_142:\n        /* \"#utility.yul\":9431:9434   */\n      0x00\n        /* \"#utility.yul\":9386:9459   */\n      swap1\n      jump\t// out\n        /* \"#utility.yul\":9465:9654   */\n    tag_143:\n        /* \"#utility.yul\":9542:9574   */\n      tag_258\n      tag_142\n      jump\t// in\n    tag_258:\n        /* \"#utility.yul\":9583:9648   */\n      tag_259\n        /* \"#utility.yul\":9641:9647   */\n      dup2\n        /* \"#utility.yul\":9633:9639   */\n      dup5\n        /* \"#utility.yul\":9627:9631   */\n      dup5\n        /* \"#utility.yul\":9583:9648   */\n      tag_141\n      jump\t// in\n    tag_259:\n        /* \"#utility.yul\":9518:9654   */\n      pop\n        /* \"#utility.yul\":9465:9654   */\n      pop\n      pop\n      jump\t// out\n        /* \"#utility.yul\":9660:9846   */\n    tag_144:\n        /* \"#utility.yul\":9720:9840   */\n    tag_261:\n        /* \"#utility.yul\":9737:9740   */\n      dup2\n        /* \"#utility.yul\":9730:9735   */\n      dup2\n        /* \"#utility.yul\":9727:9741   */\n      lt\n        /* \"#utility.yul\":9720:9840   */\n      iszero\n      tag_263\n      jumpi\n        /* \"#utility.yul\":9791:9830   */\n      tag_264\n        /* \"#utility.yul\":9828:9829   */\n      0x00\n        /* \"#utility.yul\":9821:9826   */\n      dup3\n        /* \"#utility.yul\":9791:9830   */\n      tag_143\n      jump\t// in\n    tag_264:\n        /* \"#utility.yul\":9764:9765   */\n      0x01\n        /* \"#utility.yul\":9757:9762   */\n      dup2\n        /* \"#utility.yul\":9753:9766   */\n      add\n        /* \"#utility.yul\":9744:9766   */\n      swap1\n      pop\n        /* \"#utility.yul\":9720:9840   */\n      jump(tag_261)\n    tag_263:\n        /* \"#utility.yul\":9660:9846   */\n      pop\n      pop\n      jump\t// out\n        /* \"#utility.yul\":9852:10395   */\n    tag_145:\n        /* \"#utility.yul\":9953:9955   */\n      0x1f\n        /* \"#utility.yul\":9948:9951   */\n      dup3\n        /* \"#utility.yul\":9945:9956   */\n      gt\n        /* \"#utility.yul\":9942:10388   */\n      iszero\n      tag_266\n      jumpi\n        /* \"#utility.yul\":9987:10025   */\n      tag_267\n        /* \"#utility.yul\":10019:10024   */\n      dup2\n        /* \"#utility.yul\":9987:10025   */\n      tag_134\n      jump\t// in\n    tag_267:\n        /* \"#utility.yul\":10071:10100   */\n      tag_268\n        /* \"#utility.yul\":10089:10099   */\n      dup5\n        /* \"#utility.yul\":10071:10100   */\n      tag_135\n      jump\t// in\n    tag_268:\n        /* \"#utility.yul\":10061:10069   */\n      dup2\n        /* \"#utility.yul\":10057:10101   */\n      add\n        /* \"#utility.yul\":10254:10256   */\n      0x20\n        /* \"#utility.yul\":10242:10252   */\n      dup6\n        /* \"#utility.yul\":10239:10257   */\n      lt\n        /* \"#utility.yul\":10236:10285   */\n      iszero\n      tag_269\n      jumpi\n        /* \"#utility.yul\":10275:10283   */\n      dup2\n        /* \"#utility.yul\":10260:10283   */\n      swap1\n      pop\n        /* \"#utility.yul\":10236:10285   */\n    tag_269:\n        /* \"#utility.yul\":10298:10378   */\n      tag_270\n        /* \"#utility.yul\":10354:10376   */\n      tag_271\n        /* \"#utility.yul\":10372:10375   */\n      dup6\n        /* \"#utility.yul\":10354:10376   */\n      tag_135\n      jump\t// in\n    tag_271:\n        /* \"#utility.yul\":10344:10352   */\n      dup4\n        /* \"#utility.yul\":10340:10377   */\n      add\n        /* \"#utility.yul\":10327:10338   */\n      dup3\n        /* \"#utility.yul\":10298:10378   */\n      tag_144\n      jump\t// in\n    tag_270:\n        /* \"#utility.yul\":9957:10388   */\n      pop\n      pop\n        /* \"#utility.yul\":9942:10388   */\n    tag_266:\n        /* \"#utility.yul\":9852:10395   */\n      pop\n      pop\n      pop\n      jump\t// out\n        /* \"#utility.yul\":10401:10518   */\n    tag_146:\n        /* \"#utility.yul\":10455:10463   */\n      0x00\n        /* \"#utility.yul\":10505:10510   */\n      dup3\n        /* \"#utility.yul\":10499:10503   */\n      dup3\n        /* \"#utility.yul\":10495:10511   */\n      shr\n        /* \"#utility.yul\":10474:10511   */\n      swap1\n      pop\n        /* \"#utility.yul\":10401:10518   */\n      swap3\n      swap2\n      pop\n      pop\n      jump\t// out\n        /* \"#utility.yul\":10524:10693   */\n    tag_147:\n        /* \"#utility.yul\":10568:10574   */\n      0x00\n        /* \"#utility.yul\":10601:10652   */\n      tag_274\n        /* \"#utility.yul\":10649:10650   */\n      0x00\n        /* \"#utility.yul\":10645:10651   */\n      not\n        /* \"#utility.yul\":10637:10642   */\n      dup5\n        /* \"#utility.yul\":10634:10635   */\n      0x08\n        /* \"#utility.yul\":10630:10643   */\n      mul\n        /* \"#utility.yul\":10601:10652   */\n      tag_146\n      jump\t// in\n    tag_274:\n        /* \"#utility.yul\":10597:10653   */\n      not\n        /* \"#utility.yul\":10682:10686   */\n      dup1\n        /* \"#utility.yul\":10676:10680   */\n      dup4\n        /* \"#utility.yul\":10672:10687   */\n      and\n        /* \"#utility.yul\":10662:10687   */\n      swap2\n      pop\n        /* \"#utility.yul\":10575:10693   */\n      pop\n        /* \"#utility.yul\":10524:10693   */\n      swap3\n      swap2\n      pop\n      pop\n      jump\t// out\n        /* \"#utility.yul\":10698:10993   */\n    tag_148:\n        /* \"#utility.yul\":10774:10778   */\n      0x00\n        /* \"#utility.yul\":10920:10949   */\n      tag_276\n        /* \"#utility.yul\":10945:10948   */\n      dup4\n        /* \"#utility.yul\":10939:10943   */\n      dup4\n        /* \"#utility.yul\":10920:10949   */\n      tag_147\n      jump\t// in\n    tag_276:\n        /* \"#utility.yul\":10912:10949   */\n      swap2\n      pop\n        /* \"#utility.yul\":10982:10985   */\n      dup3\n        /* \"#utility.yul\":10979:10980   */\n      0x02\n        /* \"#utility.yul\":10975:10986   */\n      mul\n        /* \"#utility.yul\":10969:10973   */\n      dup3\n        /* \"#utility.yul\":10966:10987   */\n      or\n        /* \"#utility.yul\":10958:10987   */\n      swap1\n      pop\n        /* \"#utility.yul\":10698:10993   */\n      swap3\n      swap2\n      pop\n      pop\n      jump\t// out\n        /* \"#utility.yul\":10998:12393   */\n    tag_74:\n        /* \"#utility.yul\":11115:11152   */\n      tag_278\n        /* \"#utility.yul\":11148:11151   */\n      dup3\n        /* \"#utility.yul\":11115:11152   */\n      tag_123\n      jump\t// in\n    tag_278:\n        /* \"#utility.yul\":11217:11235   */\n      0xffffffffffffffff\n        /* \"#utility.yul\":11209:11215   */\n      dup2\n        /* \"#utility.yul\":11206:11236   */\n      gt\n        /* \"#utility.yul\":11203:11259   */\n      iszero\n      tag_279\n      jumpi\n        /* \"#utility.yul\":11239:11257   */\n      tag_280\n      tag_116\n      jump\t// in\n    tag_280:\n        /* \"#utility.yul\":11203:11259   */\n    tag_279:\n        /* \"#utility.yul\":11283:11321   */\n      tag_281\n        /* \"#utility.yul\":11315:11319   */\n      dup3\n        /* \"#utility.yul\":11309:11320   */\n      sload\n        /* \"#utility.yul\":11283:11321   */\n      tag_76\n      jump\t// in\n    tag_281:\n        /* \"#utility.yul\":11368:11435   */\n      tag_282\n        /* \"#utility.yul\":11428:11434   */\n      dup3\n        /* \"#utility.yul\":11420:11426   */\n      dup3\n        /* \"#utility.yul\":11414:11418   */\n      dup6\n        /* \"#utility.yul\":11368:11435   */\n      tag_145\n      jump\t// in\n    tag_282:\n        /* \"#utility.yul\":11462:11463   */\n      0x00\n        /* \"#utility.yul\":11486:11490   */\n      0x20\n        /* \"#utility.yul\":11473:11490   */\n      swap1\n      pop\n        /* \"#utility.yul\":11518:11520   */\n      0x1f\n        /* \"#utility.yul\":11510:11516   */\n      dup4\n        /* \"#utility.yul\":11507:11521   */\n      gt\n        /* \"#utility.yul\":11535:11536   */\n      0x01\n        /* \"#utility.yul\":11530:12148   */\n      dup2\n      eq\n      tag_284\n      jumpi\n        /* \"#utility.yul\":12192:12193   */\n      0x00\n        /* \"#utility.yul\":12209:12215   */\n      dup5\n        /* \"#utility.yul\":12206:12283   */\n      iszero\n      tag_285\n      jumpi\n        /* \"#utility.yul\":12258:12267   */\n      dup3\n        /* \"#utility.yul\":12253:12256   */\n      dup8\n        /* \"#utility.yul\":12249:12268   */\n      add\n        /* \"#utility.yul\":12243:12269   */\n      mload\n        /* \"#utility.yul\":12234:12269   */\n      swap1\n      pop\n        /* \"#utility.yul\":12206:12283   */\n    tag_285:\n        /* \"#utility.yul\":12309:12376   */\n      tag_286\n        /* \"#utility.yul\":12369:12375   */\n      dup6\n        /* \"#utility.yul\":12362:12367   */\n      dup3\n        /* \"#utility.yul\":12309:12376   */\n      tag_148\n      jump\t// in\n    tag_286:\n        /* \"#utility.yul\":12303:12307   */\n      dup7\n        /* \"#utility.yul\":12296:12377   */\n      sstore\n        /* \"#utility.yul\":12165:12387   */\n      pop\n        /* \"#utility.yul\":11500:12387   */\n      jump(tag_283)\n        /* \"#utility.yul\":11530:12148   */\n    tag_284:\n        /* \"#utility.yul\":11582:11586   */\n      0x1f\n        /* \"#utility.yul\":11578:11587   */\n      not\n        /* \"#utility.yul\":11570:11576   */\n      dup5\n        /* \"#utility.yul\":11566:11588   */\n      and\n        /* \"#utility.yul\":11616:11653   */\n      tag_287\n        /* \"#utility.yul\":11648:11652   */\n      dup7\n        /* \"#utility.yul\":11616:11653   */\n      tag_134\n      jump\t// in\n    tag_287:\n        /* \"#utility.yul\":11675:11676   */\n      0x00\n        /* \"#utility.yul\":11689:11897   */\n    tag_288:\n        /* \"#utility.yul\":11703:11710   */\n      dup3\n        /* \"#utility.yul\":11700:11701   */\n      dup2\n        /* \"#utility.yul\":11697:11711   */\n      lt\n        /* \"#utility.yul\":11689:11897   */\n      iszero\n      tag_290\n      jumpi\n        /* \"#utility.yul\":11782:11791   */\n      dup5\n        /* \"#utility.yul\":11777:11780   */\n      dup10\n        /* \"#utility.yul\":11773:11792   */\n      add\n        /* \"#utility.yul\":11767:11793   */\n      mload\n        /* \"#utility.yul\":11759:11765   */\n      dup3\n        /* \"#utility.yul\":11752:11794   */\n      sstore\n        /* \"#utility.yul\":11833:11834   */\n      0x01\n        /* \"#utility.yul\":11825:11831   */\n      dup3\n        /* \"#utility.yul\":11821:11835   */\n      add\n        /* \"#utility.yul\":11811:11835   */\n      swap2\n      pop\n        /* \"#utility.yul\":11880:11882   */\n      0x20\n        /* \"#utility.yul\":11869:11878   */\n      dup6\n        /* \"#utility.yul\":11865:11883   */\n      add\n        /* \"#utility.yul\":11852:11883   */\n      swap5\n      pop\n        /* \"#utility.yul\":11726:11730   */\n      0x20\n        /* \"#utility.yul\":11723:11724   */\n      dup2\n        /* \"#utility.yul\":11719:11731   */\n      add\n        /* \"#utility.yul\":11714:11731   */\n      swap1\n      pop\n        /* \"#utility.yul\":11689:11897   */\n      jump(tag_288)\n    tag_290:\n        /* \"#utility.yul\":11925:11931   */\n      dup7\n        /* \"#utility.yul\":11916:11923   */\n      dup4\n        /* \"#utility.yul\":11913:11932   */\n      lt\n        /* \"#utility.yul\":11910:12089   */\n      iszero\n      tag_291\n      jumpi\n        /* \"#utility.yul\":11983:11992   */\n      dup5\n        /* \"#utility.yul\":11978:11981   */\n      dup10\n        /* \"#utility.yul\":11974:11993   */\n      add\n        /* \"#utility.yul\":11968:11994   */\n      mload\n        /* \"#utility.yul\":12026:12074   */\n      tag_292\n        /* \"#utility.yul\":12068:12072   */\n      0x1f\n        /* \"#utility.yul\":12060:12066   */\n      dup10\n        /* \"#utility.yul\":12056:12073   */\n      and\n        /* \"#utility.yul\":12045:12054   */\n      dup3\n        /* \"#utility.yul\":12026:12074   */\n      tag_147\n      jump\t// in\n    tag_292:\n        /* \"#utility.yul\":12018:12024   */\n      dup4\n        /* \"#utility.yul\":12011:12075   */\n      sstore\n        /* \"#utility.yul\":11933:12089   */\n      pop\n        /* \"#utility.yul\":11910:12089   */\n    tag_291:\n        /* \"#utility.yul\":12135:12136   */\n      0x01\n        /* \"#utility.yul\":12131:12132   */\n      0x02\n        /* \"#utility.yul\":12123:12129   */\n      dup9\n        /* \"#utility.yul\":12119:12133   */\n      mul\n        /* \"#utility.yul\":12115:12137   */\n      add\n        /* \"#utility.yul\":12109:12113   */\n      dup9\n        /* \"#utility.yul\":12102:12138   */\n      sstore\n        /* \"#utility.yul\":11537:12148   */\n      pop\n      pop\n      pop\n        /* \"#utility.yul\":11500:12387   */\n    tag_283:\n      pop\n        /* \"#utility.yul\":11090:12393   */\n      pop\n      pop\n      pop\n        /* \"#utility.yul\":10998:12393   */\n      pop\n      pop\n      jump\t// out\n\n    auxdata: 0xa26469706673582212203cc04c56533e4ef444e34ff68ed08b7c862028fb35033a3de3f38107af2eae3864736f6c63430008120033\n}\n",
				"bytecode": {
					"linkReferences": {},
					"object": "608060405260016000556001805560016002556001600360006101000a81548160ff021916908360ff1602179055506040518060400160405280600d81526020017f48656c6c6f2c20576f726c6421000000000000000000000000000000000000008152506004908162000074919062000704565b507f48656c6c6f2c20576f726c6421000000000000000000000000000000000000006005556040518060400160405280600181526020016040518060400160405280600c81526020017f48656c6c6f20776f726c64210000000000000000000000000000000000000000815250815250600660008201518160000155602082015181600101908162000107919062000704565b5050506040518060600160405280600160ff168152602001600260ff168152602001600360ff1681525060089060036200014392919062000299565b5060405180606001604052806040518060400160405280600481526020017f4a6f686e0000000000000000000000000000000000000000000000000000000081525081526020016040518060400160405280600681526020017f4a6f686e6e79000000000000000000000000000000000000000000000000000081525081526020016040518060400160405280600781526020017f4a6f686e736f6e00000000000000000000000000000000000000000000000000815250815250600990600362000210929190620002f0565b5060405180604001604052806040518060600160405280600160ff168152602001600260ff168152602001600360ff1681525081526020016040518060600160405280600460ff168152602001600560ff168152602001600660ff16815250815250600b9060026200028492919062000350565b503480156200029257600080fd5b50620007eb565b828054828255906000526020600020908101928215620002dd579160200282015b82811115620002dc578251829060ff16905591602001919060010190620002ba565b5b509050620002ec9190620003b2565b5090565b8280548282559060005260206000209081019282156200033d579160200282015b828111156200033c5782518290816200032b919062000704565b509160200191906001019062000311565b5b5090506200034c9190620003d1565b5090565b8280548282559060005260206000209081019282156200039f579160200282015b828111156200039e578251829060036200038d92919062000299565b509160200191906001019062000371565b5b509050620003ae9190620003f9565b5090565b5b80821115620003cd576000816000905550600101620003b3565b5090565b5b80821115620003f55760008181620003eb919062000421565b50600101620003d2565b5090565b5b808211156200041d576000818162000413919062000467565b50600101620003fa565b5090565b5080546200042f90620004f3565b6000825580601f1062000443575062000464565b601f016020900490600052602060002090810190620004639190620003b2565b5b50565b5080546000825590600052602060002090810190620004879190620003b2565b50565b600081519050919050565b7f4e487b7100000000000000000000000000000000000000000000000000000000600052604160045260246000fd5b7f4e487b7100000000000000000000000000000000000000000000000000000000600052602260045260246000fd5b600060028204905060018216806200050c57607f821691505b602082108103620005225762000521620004c4565b5b50919050565b60008190508160005260206000209050919050565b60006020601f8301049050919050565b600082821b905092915050565b6000600883026200058c7fffffffffffffffffffffffffffffffffffffffffffffffffffffffffffffffff826200054d565b6200059886836200054d565b95508019841693508086168417925050509392505050565b6000819050919050565b6000819050919050565b6000620005e5620005df620005d984620005b0565b620005ba565b620005b0565b9050919050565b6000819050919050565b6200060183620005c4565b620006196200061082620005ec565b8484546200055a565b825550505050565b600090565b6200063062000621565b6200063d818484620005f6565b505050565b5b8181101562000665576200065960008262000626565b60018101905062000643565b5050565b601f821115620006b4576200067e8162000528565b62000689846200053d565b8101602085101562000699578190505b620006b1620006a8856200053d565b83018262000642565b50505b505050565b600082821c905092915050565b6000620006d960001984600802620006b9565b1980831691505092915050565b6000620006f48383620006c6565b9150826002028217905092915050565b6200070f826200048a565b67ffffffffffffffff8111156200072b576200072a62000495565b5b620007378254620004f3565b6200074482828562000669565b600060209050601f8311600181146200077c576000841562000767578287015190505b620007738582620006e6565b865550620007e3565b601f1984166200078c8662000528565b60005b82811015620007b6578489015182556001820191506020850194506020810190506200078f565b86831015620007d65784890151620007d2601f891682620006c6565b8355505b6001600288020188555050505b505050505050565b610ce680620007fb6000396000f3fe608060405234801561001057600080fd5b50600436106100cf5760003560e01c80635e383d211161008c5780639ae918c7116100665780639ae918c714610205578063a7dbce1c14610235578063d3268fc114610253578063e2a4b2af14610283576100cf565b80635e383d21146101865780636422c4c8146101b65780638bc9fe6c146101e6576100cf565b806306540f7e146100d457806326eb4dbb146100f25780632cb777a6146101105780633a5fbaaa1461012e578063492bfa181461014a5780634b3e7e0c14610168575b600080fd5b6100dc6102a1565b6040516100e9919061060b565b60405180910390f35b6100fa6102a7565b604051610107919061060b565b60405180910390f35b6101186102b4565b604051610125919061063f565b60405180910390f35b610148600480360381019061014391906107b4565b6102ba565b005b6101526102f2565b60405161015f919061087c565b60405180910390f35b610170610380565b60405161017d91906108b7565b60405180910390f35b6101a0600480360381019061019b91906108fe565b610386565b6040516101ad919061087c565b60405180910390f35b6101d060048036038101906101cb91906108fe565b610432565b6040516101dd919061087c565b60405180910390f35b6101ee6104de565b6040516101fc92919061092b565b60405180910390f35b61021f600480360381019061021a91906108fe565b610578565b60405161022c919061060b565b60405180910390f35b61023d61059c565b60405161024a919061060b565b60405180910390f35b61026d6004803603810190610268919061095b565b6105a2565b60405161027a919061060b565b60405180910390f35b61028b6105df565b60405161029891906109b7565b60405180910390f35b60005481565b6000600a80549050905090565b60015481565b600a819080600181540180825580915050600190039060005260206000200160009091909190915090816102ee9190610bde565b5050565b600480546102ff90610a01565b80601f016020809104026020016040519081016040528092919081815260200182805461032b90610a01565b80156103785780601f1061034d57610100808354040283529160200191610378565b820191906000526020600020905b81548152906001019060200180831161035b57829003601f168201915b505050505081565b60055481565b600a818154811061039657600080fd5b9060005260206000200160009150905080546103b190610a01565b80601f01602080910402602001604051908101604052809291908181526020018280546103dd90610a01565b801561042a5780601f106103ff5761010080835404028352916020019161042a565b820191906000526020600020905b81548152906001019060200180831161040d57829003601f168201915b505050505081565b6009818154811061044257600080fd5b90600052602060002001600091509050805461045d90610a01565b80601f016020809104026020016040519081016040528092919081815260200182805461048990610a01565b80156104d65780601f106104ab576101008083540402835291602001916104d6565b820191906000526020600020905b8154815290600101906020018083116104b957829003601f168201915b505050505081565b60068060000154908060010180546104f590610a01565b80601f016020809104026020016040519081016040528092919081815260200182805461052190610a01565b801561056e5780601f106105435761010080835404028352916020019161056e565b820191906000526020600020905b81548152906001019060200180831161055157829003601f168201915b5050505050905082565b6008818154811061058857600080fd5b906000526020600020016000915090505481565b60025481565b600b82815481106105b257600080fd5b9060005260206000200181815481106105ca57600080fd5b90600052602060002001600091509150505481565b600360009054906101000a900460ff1681565b6000819050919050565b610605816105f2565b82525050565b600060208201905061062060008301846105fc565b92915050565b6000819050919050565b61063981610626565b82525050565b60006020820190506106546000830184610630565b92915050565b6000604051905090565b600080fd5b600080fd5b600080fd5b600080fd5b6000601f19601f8301169050919050565b7f4e487b7100000000000000000000000000000000000000000000000000000000600052604160045260246000fd5b6106c182610678565b810181811067ffffffffffffffff821117156106e0576106df610689565b5b80604052505050565b60006106f361065a565b90506106ff82826106b8565b919050565b600067ffffffffffffffff82111561071f5761071e610689565b5b61072882610678565b9050602081019050919050565b82818337600083830152505050565b600061075761075284610704565b6106e9565b90508281526020810184848401111561077357610772610673565b5b61077e848285610735565b509392505050565b600082601f83011261079b5761079a61066e565b5b81356107ab848260208601610744565b91505092915050565b6000602082840312156107ca576107c9610664565b5b600082013567ffffffffffffffff8111156107e8576107e7610669565b5b6107f484828501610786565b91505092915050565b600081519050919050565b600082825260208201905092915050565b60005b8381101561083757808201518184015260208101905061081c565b60008484015250505050565b600061084e826107fd565b6108588185610808565b9350610868818560208601610819565b61087181610678565b840191505092915050565b600060208201905081810360008301526108968184610843565b905092915050565b6000819050919050565b6108b18161089e565b82525050565b60006020820190506108cc60008301846108a8565b92915050565b6108db816105f2565b81146108e657600080fd5b50565b6000813590506108f8816108d2565b92915050565b60006020828403121561091457610913610664565b5b6000610922848285016108e9565b91505092915050565b600060408201905061094060008301856105fc565b81810360208301526109528184610843565b90509392505050565b6000806040838503121561097257610971610664565b5b6000610980858286016108e9565b9250506020610991858286016108e9565b9150509250929050565b600060ff82169050919050565b6109b18161099b565b82525050565b60006020820190506109cc60008301846109a8565b92915050565b7f4e487b7100000000000000000000000000000000000000000000000000000000600052602260045260246000fd5b60006002820490506001821680610a1957607f821691505b602082108103610a2c57610a2b6109d2565b5b50919050565b60008190508160005260206000209050919050565b60006020601f8301049050919050565b600082821b905092915050565b600060088302610a947fffffffffffffffffffffffffffffffffffffffffffffffffffffffffffffffff82610a57565b610a9e8683610a57565b95508019841693508086168417925050509392505050565b6000819050919050565b6000610adb610ad6610ad1846105f2565b610ab6565b6105f2565b9050919050565b6000819050919050565b610af583610ac0565b610b09610b0182610ae2565b848454610a64565b825550505050565b600090565b610b1e610b11565b610b29818484610aec565b505050565b5b81811015610b4d57610b42600082610b16565b600181019050610b2f565b5050565b601f821115610b9257610b6381610a32565b610b6c84610a47565b81016020851015610b7b578190505b610b8f610b8785610a47565b830182610b2e565b50505b505050565b600082821c905092915050565b6000610bb560001984600802610b97565b1980831691505092915050565b6000610bce8383610ba4565b9150826002028217905092915050565b610be7826107fd565b67ffffffffffffffff811115610c0057610bff610689565b5b610c0a8254610a01565b610c15828285610b51565b600060209050601f831160018114610c485760008415610c36578287015190505b610c408582610bc2565b865550610ca8565b601f198416610c5686610a32565b60005b82811015610c7e57848901518255600182019150602085019450602081019050610c59565b86831015610c9b5784890151610c97601f891682610ba4565b8355505b6001600288020188555050505b50505050505056fea26469706673582212203cc04c56533e4ef444e34ff68ed08b7c862028fb35033a3de3f38107af2eae3864736f6c63430008120033",
					"opcodes": "PUSH1 0x80 PUSH1 0x40 MSTORE PUSH1 0x1 PUSH1 0x0 SSTORE PUSH1 0x1 DUP1 SSTORE PUSH1 0x1 PUSH1 0x2 SSTORE PUSH1 0x1 PUSH1 0x3 PUSH1 0x0 PUSH2 0x100 EXP DUP2 SLOAD DUP2 PUSH1 0xFF MUL NOT AND SWAP1 DUP4 PUSH1 0xFF AND MUL OR SWAP1 SSTORE POP PUSH1 0x40 MLOAD DUP1 PUSH1 0x40 ADD PUSH1 0x40 MSTORE DUP1 PUSH1 0xD DUP2 MSTORE PUSH1 0x20 ADD PUSH32 0x48656C6C6F2C20576F726C642100000000000000000000000000000000000000 DUP2 MSTORE POP PUSH1 0x4 SWAP1 DUP2 PUSH3 0x74 SWAP2 SWAP1 PUSH3 0x704 JUMP JUMPDEST POP PUSH32 0x48656C6C6F2C20576F726C642100000000000000000000000000000000000000 PUSH1 0x5 SSTORE PUSH1 0x40 MLOAD DUP1 PUSH1 0x40 ADD PUSH1 0x40 MSTORE DUP1 PUSH1 0x1 DUP2 MSTORE PUSH1 0x20 ADD PUSH1 0x40 MLOAD DUP1 PUSH1 0x40 ADD PUSH1 0x40 MSTORE DUP1 PUSH1 0xC DUP2 MSTORE PUSH1 0x20 ADD PUSH32 0x48656C6C6F20776F726C64210000000000000000000000000000000000000000 DUP2 MSTORE POP DUP2 MSTORE POP PUSH1 0x6 PUSH1 0x0 DUP3 ADD MLOAD DUP2 PUSH1 0x0 ADD SSTORE PUSH1 0x20 DUP3 ADD MLOAD DUP2 PUSH1 0x1 ADD SWAP1 DUP2 PUSH3 0x107 SWAP2 SWAP1 PUSH3 0x704 JUMP JUMPDEST POP POP POP PUSH1 0x40 MLOAD DUP1 PUSH1 0x60 ADD PUSH1 0x40 MSTORE DUP1 PUSH1 0x1 PUSH1 0xFF AND DUP2 MSTORE PUSH1 0x20 ADD PUSH1 0x2 PUSH1 0xFF AND DUP2 MSTORE PUSH1 0x20 ADD PUSH1 0x3 PUSH1 0xFF AND DUP2 MSTORE POP PUSH1 0x8 SWAP1 PUSH1 0x3 PUSH3 0x143 SWAP3 SWAP2 SWAP1 PUSH3 0x299 JUMP JUMPDEST POP PUSH1 0x40 MLOAD DUP1 PUSH1 0x60 ADD PUSH1 0x40 MSTORE DUP1 PUSH1 0x40 MLOAD DUP1 PUSH1 0x40 ADD PUSH1 0x40 MSTORE DUP1 PUSH1 0x4 DUP2 MSTORE PUSH1 0x20 ADD PUSH32 0x4A6F686E00000000000000000000000000000000000000000000000000000000 DUP2 MSTORE POP DUP2 MSTORE PUSH1 0x20 ADD PUSH1 0x40 MLOAD DUP1 PUSH1 0x40 ADD PUSH1 0x40 MSTORE DUP1 PUSH1 0x6 DUP2 MSTORE PUSH1 0x20 ADD PUSH32 0x4A6F686E6E790000000000000000000000000000000000000000000000000000 DUP2 MSTORE POP DUP2 MSTORE PUSH1 0x20 ADD PUSH1 0x40 MLOAD DUP1 PUSH1 0x40 ADD PUSH1 0x40 MSTORE DUP1 PUSH1 0x7 DUP2 MSTORE PUSH1 0x20 ADD PUSH32 0x4A6F686E736F6E00000000000000000000000000000000000000000000000000 DUP2 MSTORE POP DUP2 MSTORE POP PUSH1 0x9 SWAP1 PUSH1 0x3 PUSH3 0x210 SWAP3 SWAP2 SWAP1 PUSH3 0x2F0 JUMP JUMPDEST POP PUSH1 0x40 MLOAD DUP1 PUSH1 0x40 ADD PUSH1 0x40 MSTORE DUP1 PUSH1 0x40 MLOAD DUP1 PUSH1 0x60 ADD PUSH1 0x40 MSTORE DUP1 PUSH1 0x1 PUSH1 0xFF AND DUP2 MSTORE PUSH1 0x20 ADD PUSH1 0x2 PUSH1 0xFF AND DUP2 MSTORE PUSH1 0x20 ADD PUSH1 0x3 PUSH1 0xFF AND DUP2 MSTORE POP DUP2 MSTORE PUSH1 0x20 ADD PUSH1 0x40 MLOAD DUP1 PUSH1 0x60 ADD PUSH1 0x40 MSTORE DUP1 PUSH1 0x4 PUSH1 0xFF AND DUP2 MSTORE PUSH1 0x20 ADD PUSH1 0x5 PUSH1 0xFF AND DUP2 MSTORE PUSH1 0x20 ADD PUSH1 0x6 PUSH1 0xFF AND DUP2 MSTORE POP DUP2 MSTORE POP PUSH1 0xB SWAP1 PUSH1 0x2 PUSH3 0x284 SWAP3 SWAP2 SWAP1 PUSH3 0x350 JUMP JUMPDEST POP CALLVALUE DUP1 ISZERO PUSH3 0x292 JUMPI PUSH1 0x0 DUP1 REVERT JUMPDEST POP PUSH3 0x7EB JUMP JUMPDEST DUP3 DUP1 SLOAD DUP3 DUP3 SSTORE SWAP1 PUSH1 0x0 MSTORE PUSH1 0x20 PUSH1 0x0 KECCAK256 SWAP1 DUP2 ADD SWAP3 DUP3 ISZERO PUSH3 0x2DD JUMPI SWAP2 PUSH1 0x20 MUL DUP3 ADD JUMPDEST DUP3 DUP2 GT ISZERO PUSH3 0x2DC JUMPI DUP3 MLOAD DUP3 SWAP1 PUSH1 0xFF AND SWAP1 SSTORE SWAP2 PUSH1 0x20 ADD SWAP2 SWAP1 PUSH1 0x1 ADD SWAP1 PUSH3 0x2BA JUMP JUMPDEST JUMPDEST POP SWAP1 POP PUSH3 0x2EC SWAP2 SWAP1 PUSH3 0x3B2 JUMP JUMPDEST POP SWAP1 JUMP JUMPDEST DUP3 DUP1 SLOAD DUP3 DUP3 SSTORE SWAP1 PUSH1 0x0 MSTORE PUSH1 0x20 PUSH1 0x0 KECCAK256 SWAP1 DUP2 ADD SWAP3 DUP3 ISZERO PUSH3 0x33D JUMPI SWAP2 PUSH1 0x20 MUL DUP3 ADD JUMPDEST DUP3 DUP2 GT ISZERO PUSH3 0x33C JUMPI DUP3 MLOAD DUP3 SWAP1 DUP2 PUSH3 0x32B SWAP2 SWAP1 PUSH3 0x704 JUMP JUMPDEST POP SWAP2 PUSH1 0x20 ADD SWAP2 SWAP1 PUSH1 0x1 ADD SWAP1 PUSH3 0x311 JUMP JUMPDEST JUMPDEST POP SWAP1 POP PUSH3 0x34C SWAP2 SWAP1 PUSH3 0x3D1 JUMP JUMPDEST POP SWAP1 JUMP JUMPDEST DUP3 DUP1 SLOAD DUP3 DUP3 SSTORE SWAP1 PUSH1 0x0 MSTORE PUSH1 0x20 PUSH1 0x0 KECCAK256 SWAP1 DUP2 ADD SWAP3 DUP3 ISZERO PUSH3 0x39F JUMPI SWAP2 PUSH1 0x20 MUL DUP3 ADD JUMPDEST DUP3 DUP2 GT ISZERO PUSH3 0x39E JUMPI DUP3 MLOAD DUP3 SWAP1 PUSH1 0x3 PUSH3 0x38D SWAP3 SWAP2 SWAP1 PUSH3 0x299 JUMP JUMPDEST POP SWAP2 PUSH1 0x20 ADD SWAP2 SWAP1 PUSH1 0x1 ADD SWAP1 PUSH3 0x371 JUMP JUMPDEST JUMPDEST POP SWAP1 POP PUSH3 0x3AE SWAP2 SWAP1 PUSH3 0x3F9 JUMP JUMPDEST POP SWAP1 JUMP JUMPDEST JUMPDEST DUP1 DUP3 GT ISZERO PUSH3 0x3CD JUMPI PUSH1 0x0 DUP2 PUSH1 0x0 SWAP1 SSTORE POP PUSH1 0x1 ADD PUSH3 0x3B3 JUMP JUMPDEST POP SWAP1 JUMP JUMPDEST JUMPDEST DUP1 DUP3 GT ISZERO PUSH3 0x3F5 JUMPI PUSH1 0x0 DUP2 DUP2 PUSH3 0x3EB SWAP2 SWAP1 PUSH3 0x421 JUMP JUMPDEST POP PUSH1 0x1 ADD PUSH3 0x3D2 JUMP JUMPDEST POP SWAP1 JUMP JUMPDEST JUMPDEST DUP1 DUP3 GT ISZERO PUSH3 0x41D JUMPI PUSH1 0x0 DUP2 DUP2 PUSH3 0x413 SWAP2 SWAP1 PUSH3 0x467 JUMP JUMPDEST POP PUSH1 0x1 ADD PUSH3 0x3FA JUMP JUMPDEST POP SWAP1 JUMP JUMPDEST POP DUP1 SLOAD PUSH3 0x42F SWAP1 PUSH3 0x4F3 JUMP JUMPDEST PUSH1 0x0 DUP3 SSTORE DUP1 PUSH1 0x1F LT PUSH3 0x443 JUMPI POP PUSH3 0x464 JUMP JUMPDEST PUSH1 0x1F ADD PUSH1 0x20 SWAP1 DIV SWAP1 PUSH1 0x0 MSTORE PUSH1 0x20 PUSH1 0x0 KECCAK256 SWAP1 DUP2 ADD SWAP1 PUSH3 0x463 SWAP2 SWAP1 PUSH3 0x3B2 JUMP JUMPDEST JUMPDEST POP JUMP JUMPDEST POP DUP1 SLOAD PUSH1 0x0 DUP3 SSTORE SWAP1 PUSH1 0x0 MSTORE PUSH1 0x20 PUSH1 0x0 KECCAK256 SWAP1 DUP2 ADD SWAP1 PUSH3 0x487 SWAP2 SWAP1 PUSH3 0x3B2 JUMP JUMPDEST POP JUMP JUMPDEST PUSH1 0x0 DUP2 MLOAD SWAP1 POP SWAP2 SWAP1 POP JUMP JUMPDEST PUSH32 0x4E487B7100000000000000000000000000000000000000000000000000000000 PUSH1 0x0 MSTORE PUSH1 0x41 PUSH1 0x4 MSTORE PUSH1 0x24 PUSH1 0x0 REVERT JUMPDEST PUSH32 0x4E487B7100000000000000000000000000000000000000000000000000000000 PUSH1 0x0 MSTORE PUSH1 0x22 PUSH1 0x4 MSTORE PUSH1 0x24 PUSH1 0x0 REVERT JUMPDEST PUSH1 0x0 PUSH1 0x2 DUP3 DIV SWAP1 POP PUSH1 0x1 DUP3 AND DUP1 PUSH3 0x50C JUMPI PUSH1 0x7F DUP3 AND SWAP2 POP JUMPDEST PUSH1 0x20 DUP3 LT DUP2 SUB PUSH3 0x522 JUMPI PUSH3 0x521 PUSH3 0x4C4 JUMP JUMPDEST JUMPDEST POP SWAP2 SWAP1 POP JUMP JUMPDEST PUSH1 0x0 DUP2 SWAP1 POP DUP2 PUSH1 0x0 MSTORE PUSH1 0x20 PUSH1 0x0 KECCAK256 SWAP1 POP SWAP2 SWAP1 POP JUMP JUMPDEST PUSH1 0x0 PUSH1 0x20 PUSH1 0x1F DUP4 ADD DIV SWAP1 POP SWAP2 SWAP1 POP JUMP JUMPDEST PUSH1 0x0 DUP3 DUP3 SHL SWAP1 POP SWAP3 SWAP2 POP POP JUMP JUMPDEST PUSH1 0x0 PUSH1 0x8 DUP4 MUL PUSH3 0x58C PUSH32 0xFFFFFFFFFFFFFFFFFFFFFFFFFFFFFFFFFFFFFFFFFFFFFFFFFFFFFFFFFFFFFFFF DUP3 PUSH3 0x54D JUMP JUMPDEST PUSH3 0x598 DUP7 DUP4 PUSH3 0x54D JUMP JUMPDEST SWAP6 POP DUP1 NOT DUP5 AND SWAP4 POP DUP1 DUP7 AND DUP5 OR SWAP3 POP POP POP SWAP4 SWAP3 POP POP POP JUMP JUMPDEST PUSH1 0x0 DUP2 SWAP1 POP SWAP2 SWAP1 POP JUMP JUMPDEST PUSH1 0x0 DUP2 SWAP1 POP SWAP2 SWAP1 POP JUMP JUMPDEST PUSH1 0x0 PUSH3 0x5E5 PUSH3 0x5DF PUSH3 0x5D9 DUP5 PUSH3 0x5B0 JUMP JUMPDEST PUSH3 0x5BA JUMP JUMPDEST PUSH3 0x5B0 JUMP JUMPDEST SWAP1 POP SWAP2 SWAP1 POP JUMP JUMPDEST PUSH1 0x0 DUP2 SWAP1 POP SWAP2 SWAP1 POP JUMP JUMPDEST PUSH3 0x601 DUP4 PUSH3 0x5C4 JUMP JUMPDEST PUSH3 0x619 PUSH3 0x610 DUP3 PUSH3 0x5EC JUMP JUMPDEST DUP5 DUP5 SLOAD PUSH3 0x55A JUMP JUMPDEST DUP3 SSTORE POP POP POP POP JUMP JUMPDEST PUSH1 0x0 SWAP1 JUMP JUMPDEST PUSH3 0x630 PUSH3 0x621 JUMP JUMPDEST PUSH3 0x63D DUP2 DUP5 DUP5 PUSH3 0x5F6 JUMP JUMPDEST POP POP POP JUMP JUMPDEST JUMPDEST DUP2 DUP2 LT ISZERO PUSH3 0x665 JUMPI PUSH3 0x659 PUSH1 0x0 DUP3 PUSH3 0x626 JUMP JUMPDEST PUSH1 0x1 DUP2 ADD SWAP1 POP PUSH3 0x643 JUMP JUMPDEST POP POP JUMP JUMPDEST PUSH1 0x1F DUP3 GT ISZERO PUSH3 0x6B4 JUMPI PUSH3 0x67E DUP2 PUSH3 0x528 JUMP JUMPDEST PUSH3 0x689 DUP5 PUSH3 0x53D JUMP JUMPDEST DUP2 ADD PUSH1 0x20 DUP6 LT ISZERO PUSH3 0x699 JUMPI DUP2 SWAP1 POP JUMPDEST PUSH3 0x6B1 PUSH3 0x6A8 DUP6 PUSH3 0x53D JUMP JUMPDEST DUP4 ADD DUP3 PUSH3 0x642 JUMP JUMPDEST POP POP JUMPDEST POP POP POP JUMP JUMPDEST PUSH1 0x0 DUP3 DUP3 SHR SWAP1 POP SWAP3 SWAP2 POP POP JUMP JUMPDEST PUSH1 0x0 PUSH3 0x6D9 PUSH1 0x0 NOT DUP5 PUSH1 0x8 MUL PUSH3 0x6B9 JUMP JUMPDEST NOT DUP1 DUP4 AND SWAP2 POP POP SWAP3 SWAP2 POP POP JUMP JUMPDEST PUSH1 0x0 PUSH3 0x6F4 DUP4 DUP4 PUSH3 0x6C6 JUMP JUMPDEST SWAP2 POP DUP3 PUSH1 0x2 MUL DUP3 OR SWAP1 POP SWAP3 SWAP2 POP POP JUMP JUMPDEST PUSH3 0x70F DUP3 PUSH3 0x48A JUMP JUMPDEST PUSH8 0xFFFFFFFFFFFFFFFF DUP2 GT ISZERO PUSH3 0x72B JUMPI PUSH3 0x72A PUSH3 0x495 JUMP JUMPDEST JUMPDEST PUSH3 0x737 DUP3 SLOAD PUSH3 0x4F3 JUMP JUMPDEST PUSH3 0x744 DUP3 DUP3 DUP6 PUSH3 0x669 JUMP JUMPDEST PUSH1 0x0 PUSH1 0x20 SWAP1 POP PUSH1 0x1F DUP4 GT PUSH1 0x1 DUP2 EQ PUSH3 0x77C JUMPI PUSH1 0x0 DUP5 ISZERO PUSH3 0x767 JUMPI DUP3 DUP8 ADD MLOAD SWAP1 POP JUMPDEST PUSH3 0x773 DUP6 DUP3 PUSH3 0x6E6 JUMP JUMPDEST DUP7 SSTORE POP PUSH3 0x7E3 JUMP JUMPDEST PUSH1 0x1F NOT DUP5 AND PUSH3 0x78C DUP7 PUSH3 0x528 JUMP JUMPDEST PUSH1 0x0 JUMPDEST DUP3 DUP2 LT ISZERO PUSH3 0x7B6 JUMPI DUP5 DUP10 ADD MLOAD DUP3 SSTORE PUSH1 0x1 DUP3 ADD SWAP2 POP PUSH1 0x20 DUP6 ADD SWAP5 POP PUSH1 0x20 DUP2 ADD SWAP1 POP PUSH3 0x78F JUMP JUMPDEST DUP7 DUP4 LT ISZERO PUSH3 0x7D6 JUMPI DUP5 DUP10 ADD MLOAD PUSH3 0x7D2 PUSH1 0x1F DUP10 AND DUP3 PUSH3 0x6C6 JUMP JUMPDEST DUP4 SSTORE POP JUMPDEST PUSH1 0x1 PUSH1 0x2 DUP9 MUL ADD DUP9 SSTORE POP POP POP JUMPDEST POP POP POP POP POP POP JUMP JUMPDEST PUSH2 0xCE6 DUP1 PUSH3 0x7FB PUSH1 0x0 CODECOPY PUSH1 0x0 RETURN INVALID PUSH1 0x80 PUSH1 0x40 MSTORE CALLVALUE DUP1 ISZERO PUSH2 0x10 JUMPI PUSH1 0x0 DUP1 REVERT JUMPDEST POP PUSH1 0x4 CALLDATASIZE LT PUSH2 0xCF JUMPI PUSH1 0x0 CALLDATALOAD PUSH1 0xE0 SHR DUP1 PUSH4 0x5E383D21 GT PUSH2 0x8C JUMPI DUP1 PUSH4 0x9AE918C7 GT PUSH2 0x66 JUMPI DUP1 PUSH4 0x9AE918C7 EQ PUSH2 0x205 JUMPI DUP1 PUSH4 0xA7DBCE1C EQ PUSH2 0x235 JUMPI DUP1 PUSH4 0xD3268FC1 EQ PUSH2 0x253 JUMPI DUP1 PUSH4 0xE2A4B2AF EQ PUSH2 0x283 JUMPI PUSH2 0xCF JUMP JUMPDEST DUP1 PUSH4 0x5E383D21 EQ PUSH2 0x186 JUMPI DUP1 PUSH4 0x6422C4C8 EQ PUSH2 0x1B6 JUMPI DUP1 PUSH4 0x8BC9FE6C EQ PUSH2 0x1E6 JUMPI PUSH2 0xCF JUMP JUMPDEST DUP1 PUSH4 0x6540F7E EQ PUSH2 0xD4 JUMPI DUP1 PUSH4 0x26EB4DBB EQ PUSH2 0xF2 JUMPI DUP1 PUSH4 0x2CB777A6 EQ PUSH2 0x110 JUMPI DUP1 PUSH4 0x3A5FBAAA EQ PUSH2 0x12E JUMPI DUP1 PUSH4 0x492BFA18 EQ PUSH2 0x14A JUMPI DUP1 PUSH4 0x4B3E7E0C EQ PUSH2 0x168 JUMPI JUMPDEST PUSH1 0x0 DUP1 REVERT JUMPDEST PUSH2 0xDC PUSH2 0x2A1 JUMP JUMPDEST PUSH1 0x40 MLOAD PUSH2 0xE9 SWAP2 SWAP1 PUSH2 0x60B JUMP JUMPDEST PUSH1 0x40 MLOAD DUP1 SWAP2 SUB SWAP1 RETURN JUMPDEST PUSH2 0xFA PUSH2 0x2A7 JUMP JUMPDEST PUSH1 0x40 MLOAD PUSH2 0x107 SWAP2 SWAP1 PUSH2 0x60B JUMP JUMPDEST PUSH1 0x40 MLOAD DUP1 SWAP2 SUB SWAP1 RETURN JUMPDEST PUSH2 0x118 PUSH2 0x2B4 JUMP JUMPDEST PUSH1 0x40 MLOAD PUSH2 0x125 SWAP2 SWAP1 PUSH2 0x63F JUMP JUMPDEST PUSH1 0x40 MLOAD DUP1 SWAP2 SUB SWAP1 RETURN JUMPDEST PUSH2 0x148 PUSH1 0x4 DUP1 CALLDATASIZE SUB DUP2 ADD SWAP1 PUSH2 0x143 SWAP2 SWAP1 PUSH2 0x7B4 JUMP JUMPDEST PUSH2 0x2BA JUMP JUMPDEST STOP JUMPDEST PUSH2 0x152 PUSH2 0x2F2 JUMP JUMPDEST PUSH1 0x40 MLOAD PUSH2 0x15F SWAP2 SWAP1 PUSH2 0x87C JUMP JUMPDEST PUSH1 0x40 MLOAD DUP1 SWAP2 SUB SWAP1 RETURN JUMPDEST PUSH2 0x170 PUSH2 0x380 JUMP JUMPDEST PUSH1 0x40 MLOAD PUSH2 0x17D SWAP2 SWAP1 PUSH2 0x8B7 JUMP JUMPDEST PUSH1 0x40 MLOAD DUP1 SWAP2 SUB SWAP1 RETURN JUMPDEST PUSH2 0x1A0 PUSH1 0x4 DUP1 CALLDATASIZE SUB DUP2 ADD SWAP1 PUSH2 0x19B SWAP2 SWAP1 PUSH2 0x8FE JUMP JUMPDEST PUSH2 0x386 JUMP JUMPDEST PUSH1 0x40 MLOAD PUSH2 0x1AD SWAP2 SWAP1 PUSH2 0x87C JUMP JUMPDEST PUSH1 0x40 MLOAD DUP1 SWAP2 SUB SWAP1 RETURN JUMPDEST PUSH2 0x1D0 PUSH1 0x4 DUP1 CALLDATASIZE SUB DUP2 ADD SWAP1 PUSH2 0x1CB SWAP2 SWAP1 PUSH2 0x8FE JUMP JUMPDEST PUSH2 0x432 JUMP JUMPDEST PUSH1 0x40 MLOAD PUSH2 0x1DD SWAP2 SWAP1 PUSH2 0x87C JUMP JUMPDEST PUSH1 0x40 MLOAD DUP1 SWAP2 SUB SWAP1 RETURN JUMPDEST PUSH2 0x1EE PUSH2 0x4DE JUMP JUMPDEST PUSH1 0x40 MLOAD PUSH2 0x1FC SWAP3 SWAP2 SWAP1 PUSH2 0x92B JUMP JUMPDEST PUSH1 0x40 MLOAD DUP1 SWAP2 SUB SWAP1 RETURN JUMPDEST PUSH2 0x21F PUSH1 0x4 DUP1 CALLDATASIZE SUB DUP2 ADD SWAP1 PUSH2 0x21A SWAP2 SWAP1 PUSH2 0x8FE JUMP JUMPDEST PUSH2 0x578 JUMP JUMPDEST PUSH1 0x40 MLOAD PUSH2 0x22C SWAP2 SWAP1 PUSH2 0x60B JUMP JUMPDEST PUSH1 0x40 MLOAD DUP1 SWAP2 SUB SWAP1 RETURN JUMPDEST PUSH2 0x23D PUSH2 0x59C JUMP JUMPDEST PUSH1 0x40 MLOAD PUSH2 0x24A SWAP2 SWAP1 PUSH2 0x60B JUMP JUMPDEST PUSH1 0x40 MLOAD DUP1 SWAP2 SUB SWAP1 RETURN JUMPDEST PUSH2 0x26D PUSH1 0x4 DUP1 CALLDATASIZE SUB DUP2 ADD SWAP1 PUSH2 0x268 SWAP2 SWAP1 PUSH2 0x95B JUMP JUMPDEST PUSH2 0x5A2 JUMP JUMPDEST PUSH1 0x40 MLOAD PUSH2 0x27A SWAP2 SWAP1 PUSH2 0x60B JUMP JUMPDEST PUSH1 0x40 MLOAD DUP1 SWAP2 SUB SWAP1 RETURN JUMPDEST PUSH2 0x28B PUSH2 0x5DF JUMP JUMPDEST PUSH1 0x40 MLOAD PUSH2 0x298 SWAP2 SWAP1 PUSH2 0x9B7 JUMP JUMPDEST PUSH1 0x40 MLOAD DUP1 SWAP2 SUB SWAP1 RETURN JUMPDEST PUSH1 0x0 SLOAD DUP2 JUMP JUMPDEST PUSH1 0x0 PUSH1 0xA DUP1 SLOAD SWAP1 POP SWAP1 POP SWAP1 JUMP JUMPDEST PUSH1 0x1 SLOAD DUP2 JUMP JUMPDEST PUSH1 0xA DUP2 SWAP1 DUP1 PUSH1 0x1 DUP2 SLOAD ADD DUP1 DUP3 SSTORE DUP1 SWAP2 POP POP PUSH1 0x1 SWAP1 SUB SWAP1 PUSH1 0x0 MSTORE PUSH1 0x20 PUSH1 0x0 KECCAK256 ADD PUSH1 0x0 SWAP1 SWAP2 SWAP1 SWAP2 SWAP1 SWAP2 POP SWAP1 DUP2 PUSH2 0x2EE SWAP2 SWAP1 PUSH2 0xBDE JUMP JUMPDEST POP POP JUMP JUMPDEST PUSH1 0x4 DUP1 SLOAD PUSH2 0x2FF SWAP1 PUSH2 0xA01 JUMP JUMPDEST DUP1 PUSH1 0x1F ADD PUSH1 0x20 DUP1 SWAP2 DIV MUL PUSH1 0x20 ADD PUSH1 0x40 MLOAD SWAP1 DUP2 ADD PUSH1 0x40 MSTORE DUP1 SWAP3 SWAP2 SWAP1 DUP2 DUP2 MSTORE PUSH1 0x20 ADD DUP3 DUP1 SLOAD PUSH2 0x32B SWAP1 PUSH2 0xA01 JUMP JUMPDEST DUP1 ISZERO PUSH2 0x378 JUMPI DUP1 PUSH1 0x1F LT PUSH2 0x34D JUMPI PUSH2 0x100 DUP1 DUP4 SLOAD DIV MUL DUP4 MSTORE SWAP2 PUSH1 0x20 ADD SWAP2 PUSH2 0x378 JUMP JUMPDEST DUP3 ADD SWAP2 SWAP1 PUSH1 0x0 MSTORE PUSH1 0x20 PUSH1 0x0 KECCAK256 SWAP1 JUMPDEST DUP2 SLOAD DUP2 MSTORE SWAP1 PUSH1 0x1 ADD SWAP1 PUSH1 0x20 ADD DUP1 DUP4 GT PUSH2 0x35B JUMPI DUP3 SWAP1 SUB PUSH1 0x1F AND DUP3 ADD SWAP2 JUMPDEST POP POP POP POP POP DUP2 JUMP JUMPDEST PUSH1 0x5 SLOAD DUP2 JUMP JUMPDEST PUSH1 0xA DUP2 DUP2 SLOAD DUP2 LT PUSH2 0x396 JUMPI PUSH1 0x0 DUP1 REVERT JUMPDEST SWAP1 PUSH1 0x0 MSTORE PUSH1 0x20 PUSH1 0x0 KECCAK256 ADD PUSH1 0x0 SWAP2 POP SWAP1 POP DUP1 SLOAD PUSH2 0x3B1 SWAP1 PUSH2 0xA01 JUMP JUMPDEST DUP1 PUSH1 0x1F ADD PUSH1 0x20 DUP1 SWAP2 DIV MUL PUSH1 0x20 ADD PUSH1 0x40 MLOAD SWAP1 DUP2 ADD PUSH1 0x40 MSTORE DUP1 SWAP3 SWAP2 SWAP1 DUP2 DUP2 MSTORE PUSH1 0x20 ADD DUP3 DUP1 SLOAD PUSH2 0x3DD SWAP1 PUSH2 0xA01 JUMP JUMPDEST DUP1 ISZERO PUSH2 0x42A JUMPI DUP1 PUSH1 0x1F LT PUSH2 0x3FF JUMPI PUSH2 0x100 DUP1 DUP4 SLOAD DIV MUL DUP4 MSTORE SWAP2 PUSH1 0x20 ADD SWAP2 PUSH2 0x42A JUMP JUMPDEST DUP3 ADD SWAP2 SWAP1 PUSH1 0x0 MSTORE PUSH1 0x20 PUSH1 0x0 KECCAK256 SWAP1 JUMPDEST DUP2 SLOAD DUP2 MSTORE SWAP1 PUSH1 0x1 ADD SWAP1 PUSH1 0x20 ADD DUP1 DUP4 GT PUSH2 0x40D JUMPI DUP3 SWAP1 SUB PUSH1 0x1F AND DUP3 ADD SWAP2 JUMPDEST POP POP POP POP POP DUP2 JUMP JUMPDEST PUSH1 0x9 DUP2 DUP2 SLOAD DUP2 LT PUSH2 0x442 JUMPI PUSH1 0x0 DUP1 REVERT JUMPDEST SWAP1 PUSH1 0x0 MSTORE PUSH1 0x20 PUSH1 0x0 KECCAK256 ADD PUSH1 0x0 SWAP2 POP SWAP1 POP DUP1 SLOAD PUSH2 0x45D SWAP1 PUSH2 0xA01 JUMP JUMPDEST DUP1 PUSH1 0x1F ADD PUSH1 0x20 DUP1 SWAP2 DIV MUL PUSH1 0x20 ADD PUSH1 0x40 MLOAD SWAP1 DUP2 ADD PUSH1 0x40 MSTORE DUP1 SWAP3 SWAP2 SWAP1 DUP2 DUP2 MSTORE PUSH1 0x20 ADD DUP3 DUP1 SLOAD PUSH2 0x489 SWAP1 PUSH2 0xA01 JUMP JUMPDEST DUP1 ISZERO PUSH2 0x4D6 JUMPI DUP1 PUSH1 0x1F LT PUSH2 0x4AB JUMPI PUSH2 0x100 DUP1 DUP4 SLOAD DIV MUL DUP4 MSTORE SWAP2 PUSH1 0x20 ADD SWAP2 PUSH2 0x4D6 JUMP JUMPDEST DUP3 ADD SWAP2 SWAP1 PUSH1 0x0 MSTORE PUSH1 0x20 PUSH1 0x0 KECCAK256 SWAP1 JUMPDEST DUP2 SLOAD DUP2 MSTORE SWAP1 PUSH1 0x1 ADD SWAP1 PUSH1 0x20 ADD DUP1 DUP4 GT PUSH2 0x4B9 JUMPI DUP3 SWAP1 SUB PUSH1 0x1F AND DUP3 ADD SWAP2 JUMPDEST POP POP POP POP POP DUP2 JUMP JUMPDEST PUSH1 0x6 DUP1 PUSH1 0x0 ADD SLOAD SWAP1 DUP1 PUSH1 0x1 ADD DUP1 SLOAD PUSH2 0x4F5 SWAP1 PUSH2 0xA01 JUMP JUMPDEST DUP1 PUSH1 0x1F ADD PUSH1 0x20 DUP1 SWAP2 DIV MUL PUSH1 0x20 ADD PUSH1 0x40 MLOAD SWAP1 DUP2 ADD PUSH1 0x40 MSTORE DUP1 SWAP3 SWAP2 SWAP1 DUP2 DUP2 MSTORE PUSH1 0x20 ADD DUP3 DUP1 SLOAD PUSH2 0x521 SWAP1 PUSH2 0xA01 JUMP JUMPDEST DUP1 ISZERO PUSH2 0x56E JUMPI DUP1 PUSH1 0x1F LT PUSH2 0x543 JUMPI PUSH2 0x100 DUP1 DUP4 SLOAD DIV MUL DUP4 MSTORE SWAP2 PUSH1 0x20 ADD SWAP2 PUSH2 0x56E JUMP JUMPDEST DUP3 ADD SWAP2 SWAP1 PUSH1 0x0 MSTORE PUSH1 0x20 PUSH1 0x0 KECCAK256 SWAP1 JUMPDEST DUP2 SLOAD DUP2 MSTORE SWAP1 PUSH1 0x1 ADD SWAP1 PUSH1 0x20 ADD DUP1 DUP4 GT PUSH2 0x551 JUMPI DUP3 SWAP1 SUB PUSH1 0x1F AND DUP3 ADD SWAP2 JUMPDEST POP POP POP POP POP SWAP1 POP DUP3 JUMP JUMPDEST PUSH1 0x8 DUP2 DUP2 SLOAD DUP2 LT PUSH2 0x588 JUMPI PUSH1 0x0 DUP1 REVERT JUMPDEST SWAP1 PUSH1 0x0 MSTORE PUSH1 0x20 PUSH1 0x0 KECCAK256 ADD PUSH1 0x0 SWAP2 POP SWAP1 POP SLOAD DUP2 JUMP JUMPDEST PUSH1 0x2 SLOAD DUP2 JUMP JUMPDEST PUSH1 0xB DUP3 DUP2 SLOAD DUP2 LT PUSH2 0x5B2 JUMPI PUSH1 0x0 DUP1 REVERT JUMPDEST SWAP1 PUSH1 0x0 MSTORE PUSH1 0x20 PUSH1 0x0 KECCAK256 ADD DUP2 DUP2 SLOAD DUP2 LT PUSH2 0x5CA JUMPI PUSH1 0x0 DUP1 REVERT JUMPDEST SWAP1 PUSH1 0x0 MSTORE PUSH1 0x20 PUSH1 0x0 KECCAK256 ADD PUSH1 0x0 SWAP2 POP SWAP2 POP POP SLOAD DUP2 JUMP JUMPDEST PUSH1 0x3 PUSH1 0x0 SWAP1 SLOAD SWAP1 PUSH2 0x100 EXP SWAP1 DIV PUSH1 0xFF AND DUP2 JUMP JUMPDEST PUSH1 0x0 DUP2 SWAP1 POP SWAP2 SWAP1 POP JUMP JUMPDEST PUSH2 0x605 DUP2 PUSH2 0x5F2 JUMP JUMPDEST DUP3 MSTORE POP POP JUMP JUMPDEST PUSH1 0x0 PUSH1 0x20 DUP3 ADD SWAP1 POP PUSH2 0x620 PUSH1 0x0 DUP4 ADD DUP5 PUSH2 0x5FC JUMP JUMPDEST SWAP3 SWAP2 POP POP JUMP JUMPDEST PUSH1 0x0 DUP2 SWAP1 POP SWAP2 SWAP1 POP JUMP JUMPDEST PUSH2 0x639 DUP2 PUSH2 0x626 JUMP JUMPDEST DUP3 MSTORE POP POP JUMP JUMPDEST PUSH1 0x0 PUSH1 0x20 DUP3 ADD SWAP1 POP PUSH2 0x654 PUSH1 0x0 DUP4 ADD DUP5 PUSH2 0x630 JUMP JUMPDEST SWAP3 SWAP2 POP POP JUMP JUMPDEST PUSH1 0x0 PUSH1 0x40 MLOAD SWAP1 POP SWAP1 JUMP JUMPDEST PUSH1 0x0 DUP1 REVERT JUMPDEST PUSH1 0x0 DUP1 REVERT JUMPDEST PUSH1 0x0 DUP1 REVERT JUMPDEST PUSH1 0x0 DUP1 REVERT JUMPDEST PUSH1 0x0 PUSH1 0x1F NOT PUSH1 0x1F DUP4 ADD AND SWAP1 POP SWAP2 SWAP1 POP JUMP JUMPDEST PUSH32 0x4E487B7100000000000000000000000000000000000000000000000000000000 PUSH1 0x0 MSTORE PUSH1 0x41 PUSH1 0x4 MSTORE PUSH1 0x24 PUSH1 0x0 REVERT JUMPDEST PUSH2 0x6C1 DUP3 PUSH2 0x678 JUMP JUMPDEST DUP2 ADD DUP2 DUP2 LT PUSH8 0xFFFFFFFFFFFFFFFF DUP3 GT OR ISZERO PUSH2 0x6E0 JUMPI PUSH2 0x6DF PUSH2 0x689 JUMP JUMPDEST JUMPDEST DUP1 PUSH1 0x40 MSTORE POP POP POP JUMP JUMPDEST PUSH1 0x0 PUSH2 0x6F3 PUSH2 0x65A JUMP JUMPDEST SWAP1 POP PUSH2 0x6FF DUP3 DUP3 PUSH2 0x6B8 JUMP JUMPDEST SWAP2 SWAP1 POP JUMP JUMPDEST PUSH1 0x0 PUSH8 0xFFFFFFFFFFFFFFFF DUP3 GT ISZERO PUSH2 0x71F JUMPI PUSH2 0x71E PUSH2 0x689 JUMP JUMPDEST JUMPDEST PUSH2 0x728 DUP3 PUSH2 0x678 JUMP JUMPDEST SWAP1 POP PUSH1 0x20 DUP2 ADD SWAP1 POP SWAP2 SWAP1 POP JUMP JUMPDEST DUP3 DUP2 DUP4 CALLDATACOPY PUSH1 0x0 DUP4 DUP4 ADD MSTORE POP POP POP JUMP JUMPDEST PUSH1 0x0 PUSH2 0x757 PUSH2 0x752 DUP5 PUSH2 0x704 JUMP JUMPDEST PUSH2 0x6E9 JUMP JUMPDEST SWAP1 POP DUP3 DUP2 MSTORE PUSH1 0x20 DUP2 ADD DUP5 DUP5 DUP5 ADD GT ISZERO PUSH2 0x773 JUMPI PUSH2 0x772 PUSH2 0x673 JUMP JUMPDEST JUMPDEST PUSH2 0x77E DUP5 DUP3 DUP6 PUSH2 0x735 JUMP JUMPDEST POP SWAP4 SWAP3 POP POP POP JUMP JUMPDEST PUSH1 0x0 DUP3 PUSH1 0x1F DUP4 ADD SLT PUSH2 0x79B JUMPI PUSH2 0x79A PUSH2 0x66E JUMP JUMPDEST JUMPDEST DUP2 CALLDATALOAD PUSH2 0x7AB DUP5 DUP3 PUSH1 0x20 DUP7 ADD PUSH2 0x744 JUMP JUMPDEST SWAP2 POP POP SWAP3 SWAP2 POP POP JUMP JUMPDEST PUSH1 0x0 PUSH1 0x20 DUP3 DUP5 SUB SLT ISZERO PUSH2 0x7CA JUMPI PUSH2 0x7C9 PUSH2 0x664 JUMP JUMPDEST JUMPDEST PUSH1 0x0 DUP3 ADD CALLDATALOAD PUSH8 0xFFFFFFFFFFFFFFFF DUP2 GT ISZERO PUSH2 0x7E8 JUMPI PUSH2 0x7E7 PUSH2 0x669 JUMP JUMPDEST JUMPDEST PUSH2 0x7F4 DUP5 DUP3 DUP6 ADD PUSH2 0x786 JUMP JUMPDEST SWAP2 POP POP SWAP3 SWAP2 POP POP JUMP JUMPDEST PUSH1 0x0 DUP2 MLOAD SWAP1 POP SWAP2 SWAP1 POP JUMP JUMPDEST PUSH1 0x0 DUP3 DUP3 MSTORE PUSH1 0x20 DUP3 ADD SWAP1 POP SWAP3 SWAP2 POP POP JUMP JUMPDEST PUSH1 0x0 JUMPDEST DUP4 DUP2 LT ISZERO PUSH2 0x837 JUMPI DUP1 DUP3 ADD MLOAD DUP2 DUP5 ADD MSTORE PUSH1 0x20 DUP2 ADD SWAP1 POP PUSH2 0x81C JUMP JUMPDEST PUSH1 0x0 DUP5 DUP5 ADD MSTORE POP POP POP POP JUMP JUMPDEST PUSH1 0x0 PUSH2 0x84E DUP3 PUSH2 0x7FD JUMP JUMPDEST PUSH2 0x858 DUP2 DUP6 PUSH2 0x808 JUMP JUMPDEST SWAP4 POP PUSH2 0x868 DUP2 DUP6 PUSH1 0x20 DUP7 ADD PUSH2 0x819 JUMP JUMPDEST PUSH2 0x871 DUP2 PUSH2 0x678 JUMP JUMPDEST DUP5 ADD SWAP2 POP POP SWAP3 SWAP2 POP POP JUMP JUMPDEST PUSH1 0x0 PUSH1 0x20 DUP3 ADD SWAP1 POP DUP2 DUP2 SUB PUSH1 0x0 DUP4 ADD MSTORE PUSH2 0x896 DUP2 DUP5 PUSH2 0x843 JUMP JUMPDEST SWAP1 POP SWAP3 SWAP2 POP POP JUMP JUMPDEST PUSH1 0x0 DUP2 SWAP1 POP SWAP2 SWAP1 POP JUMP JUMPDEST PUSH2 0x8B1 DUP2 PUSH2 0x89E JUMP JUMPDEST DUP3 MSTORE POP POP JUMP JUMPDEST PUSH1 0x0 PUSH1 0x20 DUP3 ADD SWAP1 POP PUSH2 0x8CC PUSH1 0x0 DUP4 ADD DUP5 PUSH2 0x8A8 JUMP JUMPDEST SWAP3 SWAP2 POP POP JUMP JUMPDEST PUSH2 0x8DB DUP2 PUSH2 0x5F2 JUMP JUMPDEST DUP2 EQ PUSH2 0x8E6 JUMPI PUSH1 0x0 DUP1 REVERT JUMPDEST POP JUMP JUMPDEST PUSH1 0x0 DUP2 CALLDATALOAD SWAP1 POP PUSH2 0x8F8 DUP2 PUSH2 0x8D2 JUMP JUMPDEST SWAP3 SWAP2 POP POP JUMP JUMPDEST PUSH1 0x0 PUSH1 0x20 DUP3 DUP5 SUB SLT ISZERO PUSH2 0x914 JUMPI PUSH2 0x913 PUSH2 0x664 JUMP JUMPDEST JUMPDEST PUSH1 0x0 PUSH2 0x922 DUP5 DUP3 DUP6 ADD PUSH2 0x8E9 JUMP JUMPDEST SWAP2 POP POP SWAP3 SWAP2 POP POP JUMP JUMPDEST PUSH1 0x0 PUSH1 0x40 DUP3 ADD SWAP1 POP PUSH2 0x940 PUSH1 0x0 DUP4 ADD DUP6 PUSH2 0x5FC JUMP JUMPDEST DUP2 DUP2 SUB PUSH1 0x20 DUP4 ADD MSTORE PUSH2 0x952 DUP2 DUP5 PUSH2 0x843 JUMP JUMPDEST SWAP1 POP SWAP4 SWAP3 POP POP POP JUMP JUMPDEST PUSH1 0x0 DUP1 PUSH1 0x40 DUP4 DUP6 SUB SLT ISZERO PUSH2 0x972 JUMPI PUSH2 0x971 PUSH2 0x664 JUMP JUMPDEST JUMPDEST PUSH1 0x0 PUSH2 0x980 DUP6 DUP3 DUP7 ADD PUSH2 0x8E9 JUMP JUMPDEST SWAP3 POP POP PUSH1 0x20 PUSH2 0x991 DUP6 DUP3 DUP7 ADD PUSH2 0x8E9 JUMP JUMPDEST SWAP2 POP POP SWAP3 POP SWAP3 SWAP1 POP JUMP JUMPDEST PUSH1 0x0 PUSH1 0xFF DUP3 AND SWAP1 POP SWAP2 SWAP1 POP JUMP JUMPDEST PUSH2 0x9B1 DUP2 PUSH2 0x99B JUMP JUMPDEST DUP3 MSTORE POP POP JUMP JUMPDEST PUSH1 0x0 PUSH1 0x20 DUP3 ADD SWAP1 POP PUSH2 0x9CC PUSH1 0x0 DUP4 ADD DUP5 PUSH2 0x9A8 JUMP JUMPDEST SWAP3 SWAP2 POP POP JUMP JUMPDEST PUSH32 0x4E487B7100000000000000000000000000000000000000000000000000000000 PUSH1 0x0 MSTORE PUSH1 0x22 PUSH1 0x4 MSTORE PUSH1 0x24 PUSH1 0x0 REVERT JUMPDEST PUSH1 0x0 PUSH1 0x2 DUP3 DIV SWAP1 POP PUSH1 0x1 DUP3 AND DUP1 PUSH2 0xA19 JUMPI PUSH1 0x7F DUP3 AND SWAP2 POP JUMPDEST PUSH1 0x20 DUP3 LT DUP2 SUB PUSH2 0xA2C JUMPI PUSH2 0xA2B PUSH2 0x9D2 JUMP JUMPDEST JUMPDEST POP SWAP2 SWAP1 POP JUMP JUMPDEST PUSH1 0x0 DUP2 SWAP1 POP DUP2 PUSH1 0x0 MSTORE PUSH1 0x20 PUSH1 0x0 KECCAK256 SWAP1 POP SWAP2 SWAP1 POP JUMP JUMPDEST PUSH1 0x0 PUSH1 0x20 PUSH1 0x1F DUP4 ADD DIV SWAP1 POP SWAP2 SWAP1 POP JUMP JUMPDEST PUSH1 0x0 DUP3 DUP3 SHL SWAP1 POP SWAP3 SWAP2 POP POP JUMP JUMPDEST PUSH1 0x0 PUSH1 0x8 DUP4 MUL PUSH2 0xA94 PUSH32 0xFFFFFFFFFFFFFFFFFFFFFFFFFFFFFFFFFFFFFFFFFFFFFFFFFFFFFFFFFFFFFFFF DUP3 PUSH2 0xA57 JUMP JUMPDEST PUSH2 0xA9E DUP7 DUP4 PUSH2 0xA57 JUMP JUMPDEST SWAP6 POP DUP1 NOT DUP5 AND SWAP4 POP DUP1 DUP7 AND DUP5 OR SWAP3 POP POP POP SWAP4 SWAP3 POP POP POP JUMP JUMPDEST PUSH1 0x0 DUP2 SWAP1 POP SWAP2 SWAP1 POP JUMP JUMPDEST PUSH1 0x0 PUSH2 0xADB PUSH2 0xAD6 PUSH2 0xAD1 DUP5 PUSH2 0x5F2 JUMP JUMPDEST PUSH2 0xAB6 JUMP JUMPDEST PUSH2 0x5F2 JUMP JUMPDEST SWAP1 POP SWAP2 SWAP1 POP JUMP JUMPDEST PUSH1 0x0 DUP2 SWAP1 POP SWAP2 SWAP1 POP JUMP JUMPDEST PUSH2 0xAF5 DUP4 PUSH2 0xAC0 JUMP JUMPDEST PUSH2 0xB09 PUSH2 0xB01 DUP3 PUSH2 0xAE2 JUMP JUMPDEST DUP5 DUP5 SLOAD PUSH2 0xA64 JUMP JUMPDEST DUP3 SSTORE POP POP POP POP JUMP JUMPDEST PUSH1 0x0 SWAP1 JUMP JUMPDEST PUSH2 0xB1E PUSH2 0xB11 JUMP JUMPDEST PUSH2 0xB29 DUP2 DUP5 DUP5 PUSH2 0xAEC JUMP JUMPDEST POP POP POP JUMP JUMPDEST JUMPDEST DUP2 DUP2 LT ISZERO PUSH2 0xB4D JUMPI PUSH2 0xB42 PUSH1 0x0 DUP3 PUSH2 0xB16 JUMP JUMPDEST PUSH1 0x1 DUP2 ADD SWAP1 POP PUSH2 0xB2F JUMP JUMPDEST POP POP JUMP JUMPDEST PUSH1 0x1F DUP3 GT ISZERO PUSH2 0xB92 JUMPI PUSH2 0xB63 DUP2 PUSH2 0xA32 JUMP JUMPDEST PUSH2 0xB6C DUP5 PUSH2 0xA47 JUMP JUMPDEST DUP2 ADD PUSH1 0x20 DUP6 LT ISZERO PUSH2 0xB7B JUMPI DUP2 SWAP1 POP JUMPDEST PUSH2 0xB8F PUSH2 0xB87 DUP6 PUSH2 0xA47 JUMP JUMPDEST DUP4 ADD DUP3 PUSH2 0xB2E JUMP JUMPDEST POP POP JUMPDEST POP POP POP JUMP JUMPDEST PUSH1 0x0 DUP3 DUP3 SHR SWAP1 POP SWAP3 SWAP2 POP POP JUMP JUMPDEST PUSH1 0x0 PUSH2 0xBB5 PUSH1 0x0 NOT DUP5 PUSH1 0x8 MUL PUSH2 0xB97 JUMP JUMPDEST NOT DUP1 DUP4 AND SWAP2 POP POP SWAP3 SWAP2 POP POP JUMP JUMPDEST PUSH1 0x0 PUSH2 0xBCE DUP4 DUP4 PUSH2 0xBA4 JUMP JUMPDEST SWAP2 POP DUP3 PUSH1 0x2 MUL DUP3 OR SWAP1 POP SWAP3 SWAP2 POP POP JUMP JUMPDEST PUSH2 0xBE7 DUP3 PUSH2 0x7FD JUMP JUMPDEST PUSH8 0xFFFFFFFFFFFFFFFF DUP2 GT ISZERO PUSH2 0xC00 JUMPI PUSH2 0xBFF PUSH2 0x689 JUMP JUMPDEST JUMPDEST PUSH2 0xC0A DUP3 SLOAD PUSH2 0xA01 JUMP JUMPDEST PUSH2 0xC15 DUP3 DUP3 DUP6 PUSH2 0xB51 JUMP JUMPDEST PUSH1 0x0 PUSH1 0x20 SWAP1 POP PUSH1 0x1F DUP4 GT PUSH1 0x1 DUP2 EQ PUSH2 0xC48 JUMPI PUSH1 0x0 DUP5 ISZERO PUSH2 0xC36 JUMPI DUP3 DUP8 ADD MLOAD SWAP1 POP JUMPDEST PUSH2 0xC40 DUP6 DUP3 PUSH2 0xBC2 JUMP JUMPDEST DUP7 SSTORE POP PUSH2 0xCA8 JUMP JUMPDEST PUSH1 0x1F NOT DUP5 AND PUSH2 0xC56 DUP7 PUSH2 0xA32 JUMP JUMPDEST PUSH1 0x0 JUMPDEST DUP3 DUP2 LT ISZERO PUSH2 0xC7E JUMPI DUP5 DUP10 ADD MLOAD DUP3 SSTORE PUSH1 0x1 DUP3 ADD SWAP2 POP PUSH1 0x20 DUP6 ADD SWAP5 POP PUSH1 0x20 DUP2 ADD SWAP1 POP PUSH2 0xC59 JUMP JUMPDEST DUP7 DUP4 LT ISZERO PUSH2 0xC9B JUMPI DUP5 DUP10 ADD MLOAD PUSH2 0xC97 PUSH1 0x1F DUP10 AND DUP3 PUSH2 0xBA4 JUMP JUMPDEST DUP4 SSTORE POP JUMPDEST PUSH1 0x1 PUSH1 0x2 DUP9 MUL ADD DUP9 SSTORE POP POP POP JUMPDEST POP POP POP POP POP POP JUMP INVALID LOG2 PUSH5 0x6970667358 0x22 SLT KECCAK256 EXTCODECOPY 0xC0 0x4C JUMP MSTORE8 RETURNDATACOPY 0x4E DELEGATECALL PREVRANDAO 0xE3 0x4F 0xF6 DUP15 0xD0 DUP12 PUSH29 0x862028FB35033A3DE3F38107AF2EAE3864736F6C634300081200330000 "
				},
				"gasEstimates": {
					"creation": {
						"codeDepositCost": "660400",
						"executionCost": "infinite",
						"totalCost": "infinite"
					},
					"external": {
						"addValue(string)": "infinite",
						"array2D(uint256,uint256)": "infinite",
						"myBytes32()": "2540",
						"myInt()": "2474",
						"myString()": "infinite",
						"myStruct()": "infinite",
						"myUint()": "2430",
						"myUint256()": "2473",
						"myUint8()": "2559",
						"stringArray(uint256)": "infinite",
						"uintArray(uint256)": "infinite",
						"valueCount()": "2468",
						"values(uint256)": "infinite"
					}
				},
				"methodIdentifiers": {
					"addValue(string)": "3a5fbaaa",
					"array2D(uint256,uint256)": "d3268fc1",
					"myBytes32()": "4b3e7e0c",
					"myInt()": "2cb777a6",
					"myString()": "492bfa18",
					"myStruct()": "8bc9fe6c",
					"myUint()": "06540f7e",
					"myUint256()": "a7dbce1c",
					"myUint8()": "e2a4b2af",
					"stringArray(uint256)": "6422c4c8",
					"uintArray(uint256)": "9ae918c7",
					"valueCount()": "26eb4dbb",
					"values(uint256)": "5e383d21"
				}
			},
			"storageLayout": {
				"storage": [
					{
						"astId": 4,
						"contract": "contracts/MyContract.sol:MyContract",
						"label": "myUint",
						"offset": 0,
						"slot": "0",
						"type": "t_uint256"
					},
					{
						"astId": 7,
						"contract": "contracts/MyContract.sol:MyContract",
						"label": "myInt",
						"offset": 0,
						"slot": "1",
						"type": "t_int256"
					},
					{
						"astId": 10,
						"contract": "contracts/MyContract.sol:MyContract",
						"label": "myUint256",
						"offset": 0,
						"slot": "2",
						"type": "t_uint256"
					},
					{
						"astId": 13,
						"contract": "contracts/MyContract.sol:MyContract",
						"label": "myUint8",
						"offset": 0,
						"slot": "3",
						"type": "t_uint8"
					},
					{
						"astId": 16,
						"contract": "contracts/MyContract.sol:MyContract",
						"label": "myString",
						"offset": 0,
						"slot": "4",
						"type": "t_string_storage"
					},
					{
						"astId": 19,
						"contract": "contracts/MyContract.sol:MyContract",
						"label": "myBytes32",
						"offset": 0,
						"slot": "5",
						"type": "t_bytes32"
					},
					{
						"astId": 31,
						"contract": "contracts/MyContract.sol:MyContract",
						"label": "myStruct",
						"offset": 0,
						"slot": "6",
						"type": "t_struct(MyStruct)24_storage"
					},
					{
						"astId": 38,
						"contract": "contracts/MyContract.sol:MyContract",
						"label": "uintArray",
						"offset": 0,
						"slot": "8",
						"type": "t_array(t_uint256)dyn_storage"
					},
					{
						"astId": 45,
						"contract": "contracts/MyContract.sol:MyContract",
						"label": "stringArray",
						"offset": 0,
						"slot": "9",
						"type": "t_array(t_string_storage)dyn_storage"
					},
					{
						"astId": 48,
						"contract": "contracts/MyContract.sol:MyContract",
						"label": "values",
						"offset": 0,
						"slot": "10",
						"type": "t_array(t_string_storage)dyn_storage"
					},
					{
						"astId": 61,
						"contract": "contracts/MyContract.sol:MyContract",
						"label": "array2D",
						"offset": 0,
						"slot": "11",
						"type": "t_array(t_array(t_uint256)dyn_storage)dyn_storage"
					}
				],
				"types": {
					"t_array(t_array(t_uint256)dyn_storage)dyn_storage": {
						"base": "t_array(t_uint256)dyn_storage",
						"encoding": "dynamic_array",
						"label": "uint256[][]",
						"numberOfBytes": "32"
					},
					"t_array(t_string_storage)dyn_storage": {
						"base": "t_string_storage",
						"encoding": "dynamic_array",
						"label": "string[]",
						"numberOfBytes": "32"
					},
					"t_array(t_uint256)dyn_storage": {
						"base": "t_uint256",
						"encoding": "dynamic_array",
						"label": "uint256[]",
						"numberOfBytes": "32"
					},
					"t_bytes32": {
						"encoding": "inplace",
						"label": "bytes32",
						"numberOfBytes": "32"
					},
					"t_int256": {
						"encoding": "inplace",
						"label": "int256",
						"numberOfBytes": "32"
					},
					"t_string_storage": {
						"encoding": "bytes",
						"label": "string",
						"numberOfBytes": "32"
					},
					"t_struct(MyStruct)24_storage": {
						"encoding": "inplace",
						"label": "struct MyContract.MyStruct",
						"members": [
							{
								"astId": 21,
								"contract": "contracts/MyContract.sol:MyContract",
								"label": "myUint256",
								"offset": 0,
								"slot": "0",
								"type": "t_uint256"
							},
							{
								"astId": 23,
								"contract": "contracts/MyContract.sol:MyContract",
								"label": "myString",
								"offset": 0,
								"slot": "1",
								"type": "t_string_storage"
							}
						],
						"numberOfBytes": "64"
					},
					"t_uint256": {
						"encoding": "inplace",
						"label": "uint256",
						"numberOfBytes": "32"
					},
					"t_uint8": {
						"encoding": "inplace",
						"label": "uint8",
						"numberOfBytes": "1"
					}
				}
			},
			"userdoc": {
				"kind": "user",
				"methods": {},
				"version": 1
			}
		}
	}
}