{
	"contracts/Wedding.sol": {
		"EngagementRegistry": {
			"abi": [
				{
					"anonymous": false,
					"inputs": [
						{
							"indexed": false,
							"internalType": "address",
							"name": "spouse1",
							"type": "address"
						},
						{
							"indexed": false,
							"internalType": "address",
							"name": "spouse2",
							"type": "address"
						},
						{
							"indexed": false,
							"internalType": "uint256",
							"name": "weddingDate",
							"type": "uint256"
						}
					],
					"name": "EngagementRegistered",
					"type": "event"
				},
				{
					"anonymous": false,
					"inputs": [
						{
							"indexed": false,
							"internalType": "address",
							"name": "caller",
							"type": "address"
						},
						{
							"indexed": false,
							"internalType": "uint256",
							"name": "revokedDate",
							"type": "uint256"
						}
					],
					"name": "EngagementRevoked",
					"type": "event"
				},
				{
					"anonymous": false,
					"inputs": [
						{
							"indexed": false,
							"internalType": "address",
							"name": "spouse",
							"type": "address"
						}
					],
					"name": "GuestListConfirmed",
					"type": "event"
				},
				{
					"anonymous": false,
					"inputs": [
						{
							"indexed": false,
							"internalType": "address",
							"name": "spouse",
							"type": "address"
						},
						{
							"indexed": false,
							"internalType": "address[]",
							"name": "guests",
							"type": "address[]"
						}
					],
					"name": "GuestListProposed",
					"type": "event"
				},
				{
					"anonymous": false,
					"inputs": [
						{
							"indexed": false,
							"internalType": "address",
							"name": "guest",
							"type": "address"
						},
						{
							"indexed": false,
							"internalType": "address",
							"name": "spouse",
							"type": "address"
						}
					],
					"name": "GuestVotedAgainst",
					"type": "event"
				},
				{
					"anonymous": false,
					"inputs": [
						{
							"indexed": false,
							"internalType": "address",
							"name": "spouse1",
							"type": "address"
						},
						{
							"indexed": false,
							"internalType": "address",
							"name": "spouse2",
							"type": "address"
						}
					],
					"name": "MarriageConfirmed",
					"type": "event"
				},
				{
					"anonymous": false,
					"inputs": [
						{
							"indexed": false,
							"internalType": "address",
							"name": "spouse",
							"type": "address"
						}
					],
					"name": "WeddingInvalidated",
					"type": "event"
				},
				{
					"inputs": [],
					"name": "confirmGuestList",
					"outputs": [],
					"stateMutability": "nonpayable",
					"type": "function"
				},
				{
					"inputs": [
						{
							"internalType": "address",
							"name": "",
							"type": "address"
						}
					],
					"name": "engagements",
					"outputs": [
						{
							"internalType": "address",
							"name": "spouse1",
							"type": "address"
						},
						{
							"internalType": "address",
							"name": "spouse2",
							"type": "address"
						},
						{
							"internalType": "uint256",
							"name": "weddingDate",
							"type": "uint256"
						},
						{
							"internalType": "bool",
							"name": "isEngaged",
							"type": "bool"
						},
						{
							"internalType": "bool",
							"name": "isRevoked",
							"type": "bool"
						},
						{
							"internalType": "bool",
							"name": "isMarried",
							"type": "bool"
						},
						{
							"internalType": "bool",
							"name": "spouse1ConfirmedMarriage",
							"type": "bool"
						},
						{
							"internalType": "bool",
							"name": "spouse2ConfirmedMarriage",
							"type": "bool"
						}
					],
					"stateMutability": "view",
					"type": "function"
				},
				{
					"inputs": [
						{
							"internalType": "address",
							"name": "_spouse",
							"type": "address"
						}
					],
					"name": "getEngagementInfo",
					"outputs": [
						{
							"internalType": "address",
							"name": "",
							"type": "address"
						},
						{
							"internalType": "address",
							"name": "",
							"type": "address"
						},
						{
							"internalType": "uint256",
							"name": "",
							"type": "uint256"
						},
						{
							"internalType": "bool",
							"name": "",
							"type": "bool"
						},
						{
							"internalType": "bool",
							"name": "",
							"type": "bool"
						}
					],
					"stateMutability": "view",
					"type": "function"
				},
				{
					"inputs": [
						{
							"internalType": "address",
							"name": "_spouse",
							"type": "address"
						}
					],
					"name": "getGuestList",
					"outputs": [
						{
							"internalType": "address[]",
							"name": "",
							"type": "address[]"
						}
					],
					"stateMutability": "view",
					"type": "function"
				},
				{
					"inputs": [
						{
							"internalType": "address",
							"name": "",
							"type": "address"
						}
					],
					"name": "guestLists",
					"outputs": [
						{
							"internalType": "bool",
							"name": "spouse1Confirmed",
							"type": "bool"
						},
						{
							"internalType": "bool",
							"name": "spouse2Confirmed",
							"type": "bool"
						},
						{
							"internalType": "uint256",
							"name": "votesAgainst",
							"type": "uint256"
						}
					],
					"stateMutability": "view",
					"type": "function"
				},
				{
					"inputs": [
						{
							"internalType": "address",
							"name": "_spouse",
							"type": "address"
						},
						{
							"internalType": "address",
							"name": "_guest",
							"type": "address"
						}
					],
					"name": "isGuestConfirmed",
					"outputs": [
						{
							"internalType": "bool",
							"name": "",
							"type": "bool"
						}
					],
					"stateMutability": "view",
					"type": "function"
				},
				{
					"inputs": [],
					"name": "marry",
					"outputs": [],
					"stateMutability": "nonpayable",
					"type": "function"
				},
				{
					"inputs": [
						{
							"internalType": "address[]",
							"name": "_guests",
							"type": "address[]"
						}
					],
					"name": "proposeGuestList",
					"outputs": [],
					"stateMutability": "nonpayable",
					"type": "function"
				},
				{
					"inputs": [
						{
							"internalType": "address",
							"name": "_spouse",
							"type": "address"
						},
						{
							"internalType": "uint256",
							"name": "_weddingDate",
							"type": "uint256"
						}
					],
					"name": "registerEngagement",
					"outputs": [],
					"stateMutability": "nonpayable",
					"type": "function"
				},
				{
					"inputs": [],
					"name": "revokeEngagement",
					"outputs": [],
					"stateMutability": "nonpayable",
					"type": "function"
				},
				{
					"inputs": [
						{
							"internalType": "address",
							"name": "_spouse",
							"type": "address"
						}
					],
					"name": "voteAgainstWedding",
					"outputs": [],
					"stateMutability": "nonpayable",
					"type": "function"
				}
			],
			"devdoc": {
				"kind": "dev",
				"methods": {},
				"version": 1
			},
			"evm": {
				"assembly": "    /* \"contracts/Wedding.sol\":57:9480  contract EngagementRegistry {... */\n  mstore(0x40, 0x80)\n  callvalue\n  dup1\n  iszero\n  tag_1\n  jumpi\n  0x00\n  dup1\n  revert\ntag_1:\n  pop\n  dataSize(sub_0)\n  dup1\n  dataOffset(sub_0)\n  0x00\n  codecopy\n  0x00\n  return\nstop\n\nsub_0: assembly {\n        /* \"contracts/Wedding.sol\":57:9480  contract EngagementRegistry {... */\n      mstore(0x40, 0x80)\n      callvalue\n      dup1\n      iszero\n      tag_1\n      jumpi\n      0x00\n      dup1\n      revert\n    tag_1:\n      pop\n      jumpi(tag_2, lt(calldatasize, 0x04))\n      shr(0xe0, calldataload(0x00))\n      dup1\n      0x987e9533\n      gt\n      tag_14\n      jumpi\n      dup1\n      0x987e9533\n      eq\n      tag_8\n      jumpi\n      dup1\n      0x9dcaf479\n      eq\n      tag_9\n      jumpi\n      dup1\n      0xa1905e4e\n      eq\n      tag_10\n      jumpi\n      dup1\n      0xa22690a8\n      eq\n      tag_11\n      jumpi\n      dup1\n      0xb95afe03\n      eq\n      tag_12\n      jumpi\n      dup1\n      0xe83dc185\n      eq\n      tag_13\n      jumpi\n      jump(tag_2)\n    tag_14:\n      dup1\n      0x2b80fa28\n      eq\n      tag_3\n      jumpi\n      dup1\n      0x5dd4e938\n      eq\n      tag_4\n      jumpi\n      dup1\n      0x6d955eb5\n      eq\n      tag_5\n      jumpi\n      dup1\n      0x85b9a11f\n      eq\n      tag_6\n      jumpi\n      dup1\n      0x90106c5e\n      eq\n      tag_7\n      jumpi\n    tag_2:\n      0x00\n      dup1\n      revert\n        /* \"contracts/Wedding.sol\":612:659  mapping(address => GuestList) public guestLists */\n    tag_3:\n      tag_15\n      0x04\n      dup1\n      calldatasize\n      sub\n      dup2\n      add\n      swap1\n      tag_16\n      swap2\n      swap1\n      tag_17\n      jump\t// in\n    tag_16:\n      tag_18\n      jump\t// in\n    tag_15:\n      mload(0x40)\n      tag_19\n      swap4\n      swap3\n      swap2\n      swap1\n      tag_20\n      jump\t// in\n    tag_19:\n      mload(0x40)\n      dup1\n      swap2\n      sub\n      swap1\n      return\n        /* \"contracts/Wedding.sol\":9035:9173  function getGuestList(address _spouse) external view returns (address[] memory) {... */\n    tag_4:\n      tag_21\n      0x04\n      dup1\n      calldatasize\n      sub\n      dup2\n      add\n      swap1\n      tag_22\n      swap2\n      swap1\n      tag_17\n      jump\t// in\n    tag_22:\n      tag_23\n      jump\t// in\n    tag_21:\n      mload(0x40)\n      tag_24\n      swap2\n      swap1\n      tag_25\n      jump\t// in\n    tag_24:\n      mload(0x40)\n      dup1\n      swap2\n      sub\n      swap1\n      return\n        /* \"contracts/Wedding.sol\":6423:6738  function revokeEngagement() external isEngaged(msg.sender) isNotRevoked(msg.sender) {... */\n    tag_5:\n      tag_26\n      tag_27\n      jump\t// in\n    tag_26:\n      stop\n        /* \"contracts/Wedding.sol\":6766:7745  function marry() external ... */\n    tag_6:\n      tag_28\n      tag_29\n      jump\t// in\n    tag_28:\n      stop\n        /* \"contracts/Wedding.sol\":4371:5088  function proposeGuestList(address[] calldata _guests) external isEngaged(msg.sender) isEngagedParty(msg.sender) {... */\n    tag_7:\n      tag_30\n      0x04\n      dup1\n      calldatasize\n      sub\n      dup2\n      add\n      swap1\n      tag_31\n      swap2\n      swap1\n      tag_32\n      jump\t// in\n    tag_31:\n      tag_33\n      jump\t// in\n    tag_30:\n      stop\n        /* \"contracts/Wedding.sol\":3671:4335  function registerEngagement(address _spouse, uint256 _weddingDate) external... */\n    tag_8:\n      tag_34\n      0x04\n      dup1\n      calldatasize\n      sub\n      dup2\n      add\n      swap1\n      tag_35\n      swap2\n      swap1\n      tag_36\n      jump\t// in\n    tag_35:\n      tag_37\n      jump\t// in\n    tag_34:\n      stop\n        /* \"contracts/Wedding.sol\":5907:6383  function isGuestConfirmed(address _spouse, address _guest) public view returns (bool) {... */\n    tag_9:\n      tag_38\n      0x04\n      dup1\n      calldatasize\n      sub\n      dup2\n      add\n      swap1\n      tag_39\n      swap2\n      swap1\n      tag_40\n      jump\t// in\n    tag_39:\n      tag_41\n      jump\t// in\n    tag_38:\n      mload(0x40)\n      tag_42\n      swap2\n      swap1\n      tag_43\n      jump\t// in\n    tag_42:\n      mload(0x40)\n      dup1\n      swap2\n      sub\n      swap1\n      return\n        /* \"contracts/Wedding.sol\":7774:8246  function voteAgainstWedding(address _spouse) external ... */\n    tag_10:\n      tag_44\n      0x04\n      dup1\n      calldatasize\n      sub\n      dup2\n      add\n      swap1\n      tag_45\n      swap2\n      swap1\n      tag_17\n      jump\t// in\n    tag_45:\n      tag_46\n      jump\t// in\n    tag_44:\n      stop\n        /* \"contracts/Wedding.sol\":557:606  mapping(address => Engagement) public engagements */\n    tag_11:\n      tag_47\n      0x04\n      dup1\n      calldatasize\n      sub\n      dup2\n      add\n      swap1\n      tag_48\n      swap2\n      swap1\n      tag_17\n      jump\t// in\n    tag_48:\n      tag_49\n      jump\t// in\n    tag_47:\n      mload(0x40)\n      tag_50\n      swap9\n      swap8\n      swap7\n      swap6\n      swap5\n      swap4\n      swap3\n      swap2\n      swap1\n      tag_51\n      jump\t// in\n    tag_50:\n      mload(0x40)\n      dup1\n      swap2\n      sub\n      swap1\n      return\n        /* \"contracts/Wedding.sol\":9179:9478  function getEngagementInfo(address _spouse) external view returns (address, address, uint256, bool, bool) {... */\n    tag_12:\n      tag_52\n      0x04\n      dup1\n      calldatasize\n      sub\n      dup2\n      add\n      swap1\n      tag_53\n      swap2\n      swap1\n      tag_17\n      jump\t// in\n    tag_53:\n      tag_54\n      jump\t// in\n    tag_52:\n      mload(0x40)\n      tag_55\n      swap6\n      swap5\n      swap4\n      swap3\n      swap2\n      swap1\n      tag_56\n      jump\t// in\n    tag_55:\n      mload(0x40)\n      dup1\n      swap2\n      sub\n      swap1\n      return\n        /* \"contracts/Wedding.sol\":5094:5901  function confirmGuestList() external isEngaged(msg.sender) isEngagedParty(msg.sender) {... */\n    tag_13:\n      tag_57\n      tag_58\n      jump\t// in\n    tag_57:\n      stop\n        /* \"contracts/Wedding.sol\":612:659  mapping(address => GuestList) public guestLists */\n    tag_18:\n      mstore(0x20, 0x01)\n      dup1\n      0x00\n      mstore\n      keccak256(0x00, 0x40)\n      0x00\n      swap2\n      pop\n      swap1\n      pop\n      dup1\n      0x01\n      add\n      0x00\n      swap1\n      sload\n      swap1\n      0x0100\n      exp\n      swap1\n      div\n      0xff\n      and\n      swap1\n      dup1\n      0x01\n      add\n      0x01\n      swap1\n      sload\n      swap1\n      0x0100\n      exp\n      swap1\n      div\n      0xff\n      and\n      swap1\n      dup1\n      0x03\n      add\n      sload\n      swap1\n      pop\n      dup4\n      jump\t// out\n        /* \"contracts/Wedding.sol\":9035:9173  function getGuestList(address _spouse) external view returns (address[] memory) {... */\n    tag_23:\n        /* \"contracts/Wedding.sol\":9097:9113  address[] memory */\n      0x60\n        /* \"contracts/Wedding.sol\":9132:9142  guestLists */\n      0x01\n        /* \"contracts/Wedding.sol\":9132:9151  guestLists[_spouse] */\n      0x00\n        /* \"contracts/Wedding.sol\":9143:9150  _spouse */\n      dup4\n        /* \"contracts/Wedding.sol\":9132:9151  guestLists[_spouse] */\n      0xffffffffffffffffffffffffffffffffffffffff\n      and\n      0xffffffffffffffffffffffffffffffffffffffff\n      and\n      dup2\n      mstore\n      0x20\n      add\n      swap1\n      dup2\n      mstore\n      0x20\n      add\n      0x00\n      keccak256\n        /* \"contracts/Wedding.sol\":9132:9166  guestLists[_spouse].proposedGuests */\n      0x00\n      add\n        /* \"contracts/Wedding.sol\":9125:9166  return guestLists[_spouse].proposedGuests */\n      dup1\n      sload\n      dup1\n      0x20\n      mul\n      0x20\n      add\n      mload(0x40)\n      swap1\n      dup2\n      add\n      0x40\n      mstore\n      dup1\n      swap3\n      swap2\n      swap1\n      dup2\n      dup2\n      mstore\n      0x20\n      add\n      dup3\n      dup1\n      sload\n      dup1\n      iszero\n      tag_60\n      jumpi\n      0x20\n      mul\n      dup3\n      add\n      swap2\n      swap1\n      0x00\n      mstore\n      keccak256(0x00, 0x20)\n      swap1\n    tag_61:\n      dup2\n      0x00\n      swap1\n      sload\n      swap1\n      0x0100\n      exp\n      swap1\n      div\n      0xffffffffffffffffffffffffffffffffffffffff\n      and\n      0xffffffffffffffffffffffffffffffffffffffff\n      and\n      dup2\n      mstore\n      0x20\n      add\n      swap1\n      0x01\n      add\n      swap1\n      dup1\n      dup4\n      gt\n      tag_61\n      jumpi\n    tag_60:\n      pop\n      pop\n      pop\n      pop\n      pop\n      swap1\n      pop\n        /* \"contracts/Wedding.sol\":9035:9173  function getGuestList(address _spouse) external view returns (address[] memory) {... */\n      swap2\n      swap1\n      pop\n      jump\t// out\n        /* \"contracts/Wedding.sol\":6423:6738  function revokeEngagement() external isEngaged(msg.sender) isNotRevoked(msg.sender) {... */\n    tag_27:\n        /* \"contracts/Wedding.sol\":6470:6480  msg.sender */\n      caller\n        /* \"contracts/Wedding.sol\":1486:1490  true */\n      0x01\n        /* \"contracts/Wedding.sol\":1452:1490  engagements[_spouse].isEngaged == true */\n      iszero\n      iszero\n        /* \"contracts/Wedding.sol\":1452:1463  engagements */\n      0x00\n        /* \"contracts/Wedding.sol\":1452:1472  engagements[_spouse] */\n      dup1\n        /* \"contracts/Wedding.sol\":1464:1471  _spouse */\n      dup4\n        /* \"contracts/Wedding.sol\":1452:1472  engagements[_spouse] */\n      0xffffffffffffffffffffffffffffffffffffffff\n      and\n      0xffffffffffffffffffffffffffffffffffffffff\n      and\n      dup2\n      mstore\n      0x20\n      add\n      swap1\n      dup2\n      mstore\n      0x20\n      add\n      0x00\n      keccak256\n        /* \"contracts/Wedding.sol\":1452:1482  engagements[_spouse].isEngaged */\n      0x03\n      add\n      0x00\n      swap1\n      sload\n      swap1\n      0x0100\n      exp\n      swap1\n      div\n      0xff\n      and\n        /* \"contracts/Wedding.sol\":1452:1490  engagements[_spouse].isEngaged == true */\n      iszero\n      iszero\n      eq\n        /* \"contracts/Wedding.sol\":1444:1515  require(engagements[_spouse].isEngaged == true, \"Address not engaged.\") */\n      tag_63\n      jumpi\n      mload(0x40)\n      0x08c379a000000000000000000000000000000000000000000000000000000000\n      dup2\n      mstore\n      0x04\n      add\n      tag_64\n      swap1\n      tag_65\n      jump\t// in\n    tag_64:\n      mload(0x40)\n      dup1\n      swap2\n      sub\n      swap1\n      revert\n    tag_63:\n        /* \"contracts/Wedding.sol\":6495:6505  msg.sender */\n      caller\n        /* \"contracts/Wedding.sol\":2059:2064  false */\n      0x00\n        /* \"contracts/Wedding.sol\":2025:2064  engagements[_spouse].isRevoked == false */\n      iszero\n      iszero\n        /* \"contracts/Wedding.sol\":2025:2036  engagements */\n      0x00\n        /* \"contracts/Wedding.sol\":2025:2045  engagements[_spouse] */\n      dup1\n        /* \"contracts/Wedding.sol\":2037:2044  _spouse */\n      dup4\n        /* \"contracts/Wedding.sol\":2025:2045  engagements[_spouse] */\n      0xffffffffffffffffffffffffffffffffffffffff\n      and\n      0xffffffffffffffffffffffffffffffffffffffff\n      and\n      dup2\n      mstore\n      0x20\n      add\n      swap1\n      dup2\n      mstore\n      0x20\n      add\n      0x00\n      keccak256\n        /* \"contracts/Wedding.sol\":2025:2055  engagements[_spouse].isRevoked */\n      0x03\n      add\n      0x01\n      swap1\n      sload\n      swap1\n      0x0100\n      exp\n      swap1\n      div\n      0xff\n      and\n        /* \"contracts/Wedding.sol\":2025:2064  engagements[_spouse].isRevoked == false */\n      iszero\n      iszero\n      eq\n        /* \"contracts/Wedding.sol\":2017:2103  require(engagements[_spouse].isRevoked == false, \"The engagement is already revoked.\") */\n      tag_67\n      jumpi\n      mload(0x40)\n      0x08c379a000000000000000000000000000000000000000000000000000000000\n      dup2\n      mstore\n      0x04\n      add\n      tag_68\n      swap1\n      tag_69\n      jump\t// in\n    tag_68:\n      mload(0x40)\n      dup1\n      swap2\n      sub\n      swap1\n      revert\n    tag_67:\n        /* \"contracts/Wedding.sol\":6517:6546  Engagement storage engagement */\n      0x00\n        /* \"contracts/Wedding.sol\":6549:6560  engagements */\n      dup1\n        /* \"contracts/Wedding.sol\":6549:6572  engagements[msg.sender] */\n      0x00\n        /* \"contracts/Wedding.sol\":6561:6571  msg.sender */\n      caller\n        /* \"contracts/Wedding.sol\":6549:6572  engagements[msg.sender] */\n      0xffffffffffffffffffffffffffffffffffffffff\n      and\n      0xffffffffffffffffffffffffffffffffffffffff\n      and\n      dup2\n      mstore\n      0x20\n      add\n      swap1\n      dup2\n      mstore\n      0x20\n      add\n      0x00\n      keccak256\n        /* \"contracts/Wedding.sol\":6517:6572  Engagement storage engagement = engagements[msg.sender] */\n      swap1\n      pop\n        /* \"contracts/Wedding.sol\":6590:6601  engagements */\n      0x00\n        /* \"contracts/Wedding.sol\":6590:6621  engagements[engagement.spouse1] */\n      dup1\n        /* \"contracts/Wedding.sol\":6602:6612  engagement */\n      dup3\n        /* \"contracts/Wedding.sol\":6602:6620  engagement.spouse1 */\n      0x00\n      add\n      0x00\n      swap1\n      sload\n      swap1\n      0x0100\n      exp\n      swap1\n      div\n      0xffffffffffffffffffffffffffffffffffffffff\n      and\n        /* \"contracts/Wedding.sol\":6590:6621  engagements[engagement.spouse1] */\n      0xffffffffffffffffffffffffffffffffffffffff\n      and\n      0xffffffffffffffffffffffffffffffffffffffff\n      and\n      dup2\n      mstore\n      0x20\n      add\n      swap1\n      dup2\n      mstore\n      0x20\n      add\n      0x00\n      keccak256\n      0x00\n        /* \"contracts/Wedding.sol\":6583:6621  delete engagements[engagement.spouse1] */\n      dup1\n      dup3\n      add\n      exp(0x0100, 0x00)\n      dup2\n      sload\n      swap1\n      0xffffffffffffffffffffffffffffffffffffffff\n      mul\n      not\n      and\n      swap1\n      sstore\n      0x01\n      dup3\n      add\n      exp(0x0100, 0x00)\n      dup2\n      sload\n      swap1\n      0xffffffffffffffffffffffffffffffffffffffff\n      mul\n      not\n      and\n      swap1\n      sstore\n      0x02\n      dup3\n      add\n      0x00\n      swap1\n      sstore\n      0x03\n      dup3\n      add\n      exp(0x0100, 0x00)\n      dup2\n      sload\n      swap1\n      0xff\n      mul\n      not\n      and\n      swap1\n      sstore\n      0x03\n      dup3\n      add\n      exp(0x0100, 0x01)\n      dup2\n      sload\n      swap1\n      0xff\n      mul\n      not\n      and\n      swap1\n      sstore\n      0x03\n      dup3\n      add\n      exp(0x0100, 0x02)\n      dup2\n      sload\n      swap1\n      0xff\n      mul\n      not\n      and\n      swap1\n      sstore\n      0x03\n      dup3\n      add\n      exp(0x0100, 0x03)\n      dup2\n      sload\n      swap1\n      0xff\n      mul\n      not\n      and\n      swap1\n      sstore\n      0x03\n      dup3\n      add\n      exp(0x0100, 0x04)\n      dup2\n      sload\n      swap1\n      0xff\n      mul\n      not\n      and\n      swap1\n      sstore\n      pop\n      pop\n        /* \"contracts/Wedding.sol\":6638:6649  engagements */\n      0x00\n        /* \"contracts/Wedding.sol\":6638:6669  engagements[engagement.spouse2] */\n      dup1\n        /* \"contracts/Wedding.sol\":6650:6660  engagement */\n      dup3\n        /* \"contracts/Wedding.sol\":6650:6668  engagement.spouse2 */\n      0x01\n      add\n      0x00\n      swap1\n      sload\n      swap1\n      0x0100\n      exp\n      swap1\n      div\n      0xffffffffffffffffffffffffffffffffffffffff\n      and\n        /* \"contracts/Wedding.sol\":6638:6669  engagements[engagement.spouse2] */\n      0xffffffffffffffffffffffffffffffffffffffff\n      and\n      0xffffffffffffffffffffffffffffffffffffffff\n      and\n      dup2\n      mstore\n      0x20\n      add\n      swap1\n      dup2\n      mstore\n      0x20\n      add\n      0x00\n      keccak256\n      0x00\n        /* \"contracts/Wedding.sol\":6631:6669  delete engagements[engagement.spouse2] */\n      dup1\n      dup3\n      add\n      exp(0x0100, 0x00)\n      dup2\n      sload\n      swap1\n      0xffffffffffffffffffffffffffffffffffffffff\n      mul\n      not\n      and\n      swap1\n      sstore\n      0x01\n      dup3\n      add\n      exp(0x0100, 0x00)\n      dup2\n      sload\n      swap1\n      0xffffffffffffffffffffffffffffffffffffffff\n      mul\n      not\n      and\n      swap1\n      sstore\n      0x02\n      dup3\n      add\n      0x00\n      swap1\n      sstore\n      0x03\n      dup3\n      add\n      exp(0x0100, 0x00)\n      dup2\n      sload\n      swap1\n      0xff\n      mul\n      not\n      and\n      swap1\n      sstore\n      0x03\n      dup3\n      add\n      exp(0x0100, 0x01)\n      dup2\n      sload\n      swap1\n      0xff\n      mul\n      not\n      and\n      swap1\n      sstore\n      0x03\n      dup3\n      add\n      exp(0x0100, 0x02)\n      dup2\n      sload\n      swap1\n      0xff\n      mul\n      not\n      and\n      swap1\n      sstore\n      0x03\n      dup3\n      add\n      exp(0x0100, 0x03)\n      dup2\n      sload\n      swap1\n      0xff\n      mul\n      not\n      and\n      swap1\n      sstore\n      0x03\n      dup3\n      add\n      exp(0x0100, 0x04)\n      dup2\n      sload\n      swap1\n      0xff\n      mul\n      not\n      and\n      swap1\n      sstore\n      pop\n      pop\n        /* \"contracts/Wedding.sol\":6685:6731  EngagementRevoked(msg.sender, block.timestamp) */\n      0x1271c287650062f685bd2f225144d7b6b046826a5a70632c8f873240d04a54c6\n        /* \"contracts/Wedding.sol\":6703:6713  msg.sender */\n      caller\n        /* \"contracts/Wedding.sol\":6715:6730  block.timestamp */\n      timestamp\n        /* \"contracts/Wedding.sol\":6685:6731  EngagementRevoked(msg.sender, block.timestamp) */\n      mload(0x40)\n      tag_71\n      swap3\n      swap2\n      swap1\n      tag_72\n      jump\t// in\n    tag_71:\n      mload(0x40)\n      dup1\n      swap2\n      sub\n      swap1\n      log1\n        /* \"contracts/Wedding.sol\":6507:6738  {... */\n      pop\n        /* \"contracts/Wedding.sol\":1525:1526  _ */\n      pop\n        /* \"contracts/Wedding.sol\":6423:6738  function revokeEngagement() external isEngaged(msg.sender) isNotRevoked(msg.sender) {... */\n      pop\n      jump\t// out\n        /* \"contracts/Wedding.sol\":6766:7745  function marry() external ... */\n    tag_29:\n        /* \"contracts/Wedding.sol\":6811:6821  msg.sender */\n      caller\n        /* \"contracts/Wedding.sol\":1486:1490  true */\n      0x01\n        /* \"contracts/Wedding.sol\":1452:1490  engagements[_spouse].isEngaged == true */\n      iszero\n      iszero\n        /* \"contracts/Wedding.sol\":1452:1463  engagements */\n      0x00\n        /* \"contracts/Wedding.sol\":1452:1472  engagements[_spouse] */\n      dup1\n        /* \"contracts/Wedding.sol\":1464:1471  _spouse */\n      dup4\n        /* \"contracts/Wedding.sol\":1452:1472  engagements[_spouse] */\n      0xffffffffffffffffffffffffffffffffffffffff\n      and\n      0xffffffffffffffffffffffffffffffffffffffff\n      and\n      dup2\n      mstore\n      0x20\n      add\n      swap1\n      dup2\n      mstore\n      0x20\n      add\n      0x00\n      keccak256\n        /* \"contracts/Wedding.sol\":1452:1482  engagements[_spouse].isEngaged */\n      0x03\n      add\n      0x00\n      swap1\n      sload\n      swap1\n      0x0100\n      exp\n      swap1\n      div\n      0xff\n      and\n        /* \"contracts/Wedding.sol\":1452:1490  engagements[_spouse].isEngaged == true */\n      iszero\n      iszero\n      eq\n        /* \"contracts/Wedding.sol\":1444:1515  require(engagements[_spouse].isEngaged == true, \"Address not engaged.\") */\n      tag_74\n      jumpi\n      mload(0x40)\n      0x08c379a000000000000000000000000000000000000000000000000000000000\n      dup2\n      mstore\n      0x04\n      add\n      tag_75\n      swap1\n      tag_65\n      jump\t// in\n    tag_75:\n      mload(0x40)\n      dup1\n      swap2\n      sub\n      swap1\n      revert\n    tag_74:\n        /* \"contracts/Wedding.sol\":6845:6855  msg.sender */\n      caller\n        /* \"contracts/Wedding.sol\":2059:2064  false */\n      0x00\n        /* \"contracts/Wedding.sol\":2025:2064  engagements[_spouse].isRevoked == false */\n      iszero\n      iszero\n        /* \"contracts/Wedding.sol\":2025:2036  engagements */\n      0x00\n        /* \"contracts/Wedding.sol\":2025:2045  engagements[_spouse] */\n      dup1\n        /* \"contracts/Wedding.sol\":2037:2044  _spouse */\n      dup4\n        /* \"contracts/Wedding.sol\":2025:2045  engagements[_spouse] */\n      0xffffffffffffffffffffffffffffffffffffffff\n      and\n      0xffffffffffffffffffffffffffffffffffffffff\n      and\n      dup2\n      mstore\n      0x20\n      add\n      swap1\n      dup2\n      mstore\n      0x20\n      add\n      0x00\n      keccak256\n        /* \"contracts/Wedding.sol\":2025:2055  engagements[_spouse].isRevoked */\n      0x03\n      add\n      0x01\n      swap1\n      sload\n      swap1\n      0x0100\n      exp\n      swap1\n      div\n      0xff\n      and\n        /* \"contracts/Wedding.sol\":2025:2064  engagements[_spouse].isRevoked == false */\n      iszero\n      iszero\n      eq\n        /* \"contracts/Wedding.sol\":2017:2103  require(engagements[_spouse].isRevoked == false, \"The engagement is already revoked.\") */\n      tag_77\n      jumpi\n      mload(0x40)\n      0x08c379a000000000000000000000000000000000000000000000000000000000\n      dup2\n      mstore\n      0x04\n      add\n      tag_78\n      swap1\n      tag_69\n      jump\t// in\n    tag_78:\n      mload(0x40)\n      dup1\n      swap2\n      sub\n      swap1\n      revert\n    tag_77:\n        /* \"contracts/Wedding.sol\":6878:6888  msg.sender */\n      caller\n        /* \"contracts/Wedding.sol\":2185:2196  engagements */\n      0x00\n        /* \"contracts/Wedding.sol\":2185:2205  engagements[_spouse] */\n      dup1\n        /* \"contracts/Wedding.sol\":2197:2204  _spouse */\n      dup3\n        /* \"contracts/Wedding.sol\":2185:2205  engagements[_spouse] */\n      0xffffffffffffffffffffffffffffffffffffffff\n      and\n      0xffffffffffffffffffffffffffffffffffffffff\n      and\n      dup2\n      mstore\n      0x20\n      add\n      swap1\n      dup2\n      mstore\n      0x20\n      add\n      0x00\n      keccak256\n        /* \"contracts/Wedding.sol\":2185:2215  engagements[_spouse].isMarried */\n      0x03\n      add\n      0x02\n      swap1\n      sload\n      swap1\n      0x0100\n      exp\n      swap1\n      div\n      0xff\n      and\n        /* \"contracts/Wedding.sol\":2184:2215  !engagements[_spouse].isMarried */\n      iszero\n        /* \"contracts/Wedding.sol\":2176:2235  require(!engagements[_spouse].isMarried, \"Already married\") */\n      tag_80\n      jumpi\n      mload(0x40)\n      0x08c379a000000000000000000000000000000000000000000000000000000000\n      dup2\n      mstore\n      0x04\n      add\n      tag_81\n      swap1\n      tag_82\n      jump\t// in\n    tag_81:\n      mload(0x40)\n      dup1\n      swap2\n      sub\n      swap1\n      revert\n    tag_80:\n        /* \"contracts/Wedding.sol\":6904:6933  Engagement storage engagement */\n      0x00\n        /* \"contracts/Wedding.sol\":6936:6947  engagements */\n      dup1\n        /* \"contracts/Wedding.sol\":6936:6959  engagements[msg.sender] */\n      0x00\n        /* \"contracts/Wedding.sol\":6948:6958  msg.sender */\n      caller\n        /* \"contracts/Wedding.sol\":6936:6959  engagements[msg.sender] */\n      0xffffffffffffffffffffffffffffffffffffffff\n      and\n      0xffffffffffffffffffffffffffffffffffffffff\n      and\n      dup2\n      mstore\n      0x20\n      add\n      swap1\n      dup2\n      mstore\n      0x20\n      add\n      0x00\n      keccak256\n        /* \"contracts/Wedding.sol\":6904:6959  Engagement storage engagement = engagements[msg.sender] */\n      swap1\n      pop\n        /* \"contracts/Wedding.sol\":7033:7043  engagement */\n      dup1\n        /* \"contracts/Wedding.sol\":7033:7051  engagement.spouse1 */\n      0x00\n      add\n      0x00\n      swap1\n      sload\n      swap1\n      0x0100\n      exp\n      swap1\n      div\n      0xffffffffffffffffffffffffffffffffffffffff\n      and\n        /* \"contracts/Wedding.sol\":7019:7051  msg.sender == engagement.spouse1 */\n      0xffffffffffffffffffffffffffffffffffffffff\n      and\n        /* \"contracts/Wedding.sol\":7019:7029  msg.sender */\n      caller\n        /* \"contracts/Wedding.sol\":7019:7051  msg.sender == engagement.spouse1 */\n      0xffffffffffffffffffffffffffffffffffffffff\n      and\n      sub\n        /* \"contracts/Wedding.sol\":7015:7385  if (msg.sender == engagement.spouse1) {... */\n      tag_84\n      jumpi\n        /* \"contracts/Wedding.sol\":7105:7109  true */\n      0x01\n        /* \"contracts/Wedding.sol\":7067:7077  engagement */\n      dup2\n        /* \"contracts/Wedding.sol\":7067:7102  engagement.spouse1ConfirmedMarriage */\n      0x03\n      add\n      0x03\n        /* \"contracts/Wedding.sol\":7067:7109  engagement.spouse1ConfirmedMarriage = true */\n      0x0100\n      exp\n      dup2\n      sload\n      dup2\n      0xff\n      mul\n      not\n      and\n      swap1\n      dup4\n      iszero\n      iszero\n      mul\n      or\n      swap1\n      sstore\n      pop\n        /* \"contracts/Wedding.sol\":7182:7186  true */\n      0x01\n        /* \"contracts/Wedding.sol\":7123:7134  engagements */\n      0x00\n        /* \"contracts/Wedding.sol\":7123:7154  engagements[engagement.spouse2] */\n      dup1\n        /* \"contracts/Wedding.sol\":7135:7145  engagement */\n      dup4\n        /* \"contracts/Wedding.sol\":7135:7153  engagement.spouse2 */\n      0x01\n      add\n      0x00\n      swap1\n      sload\n      swap1\n      0x0100\n      exp\n      swap1\n      div\n      0xffffffffffffffffffffffffffffffffffffffff\n      and\n        /* \"contracts/Wedding.sol\":7123:7154  engagements[engagement.spouse2] */\n      0xffffffffffffffffffffffffffffffffffffffff\n      and\n      0xffffffffffffffffffffffffffffffffffffffff\n      and\n      dup2\n      mstore\n      0x20\n      add\n      swap1\n      dup2\n      mstore\n      0x20\n      add\n      0x00\n      keccak256\n        /* \"contracts/Wedding.sol\":7123:7179  engagements[engagement.spouse2].spouse1ConfirmedMarriage */\n      0x03\n      add\n      0x03\n        /* \"contracts/Wedding.sol\":7123:7186  engagements[engagement.spouse2].spouse1ConfirmedMarriage = true */\n      0x0100\n      exp\n      dup2\n      sload\n      dup2\n      0xff\n      mul\n      not\n      and\n      swap1\n      dup4\n      iszero\n      iszero\n      mul\n      or\n      swap1\n      sstore\n      pop\n        /* \"contracts/Wedding.sol\":7015:7385  if (msg.sender == engagement.spouse1) {... */\n      jump(tag_85)\n    tag_84:\n        /* \"contracts/Wedding.sol\":7221:7231  engagement */\n      dup1\n        /* \"contracts/Wedding.sol\":7221:7239  engagement.spouse2 */\n      0x01\n      add\n      0x00\n      swap1\n      sload\n      swap1\n      0x0100\n      exp\n      swap1\n      div\n      0xffffffffffffffffffffffffffffffffffffffff\n      and\n        /* \"contracts/Wedding.sol\":7207:7239  msg.sender == engagement.spouse2 */\n      0xffffffffffffffffffffffffffffffffffffffff\n      and\n        /* \"contracts/Wedding.sol\":7207:7217  msg.sender */\n      caller\n        /* \"contracts/Wedding.sol\":7207:7239  msg.sender == engagement.spouse2 */\n      0xffffffffffffffffffffffffffffffffffffffff\n      and\n      sub\n        /* \"contracts/Wedding.sol\":7203:7385  if (msg.sender == engagement.spouse2) {... */\n      tag_86\n      jumpi\n        /* \"contracts/Wedding.sol\":7293:7297  true */\n      0x01\n        /* \"contracts/Wedding.sol\":7255:7265  engagement */\n      dup2\n        /* \"contracts/Wedding.sol\":7255:7290  engagement.spouse2ConfirmedMarriage */\n      0x03\n      add\n      0x04\n        /* \"contracts/Wedding.sol\":7255:7297  engagement.spouse2ConfirmedMarriage = true */\n      0x0100\n      exp\n      dup2\n      sload\n      dup2\n      0xff\n      mul\n      not\n      and\n      swap1\n      dup4\n      iszero\n      iszero\n      mul\n      or\n      swap1\n      sstore\n      pop\n        /* \"contracts/Wedding.sol\":7370:7374  true */\n      0x01\n        /* \"contracts/Wedding.sol\":7311:7322  engagements */\n      0x00\n        /* \"contracts/Wedding.sol\":7311:7342  engagements[engagement.spouse1] */\n      dup1\n        /* \"contracts/Wedding.sol\":7323:7333  engagement */\n      dup4\n        /* \"contracts/Wedding.sol\":7323:7341  engagement.spouse1 */\n      0x00\n      add\n      0x00\n      swap1\n      sload\n      swap1\n      0x0100\n      exp\n      swap1\n      div\n      0xffffffffffffffffffffffffffffffffffffffff\n      and\n        /* \"contracts/Wedding.sol\":7311:7342  engagements[engagement.spouse1] */\n      0xffffffffffffffffffffffffffffffffffffffff\n      and\n      0xffffffffffffffffffffffffffffffffffffffff\n      and\n      dup2\n      mstore\n      0x20\n      add\n      swap1\n      dup2\n      mstore\n      0x20\n      add\n      0x00\n      keccak256\n        /* \"contracts/Wedding.sol\":7311:7367  engagements[engagement.spouse1].spouse2ConfirmedMarriage */\n      0x03\n      add\n      0x04\n        /* \"contracts/Wedding.sol\":7311:7374  engagements[engagement.spouse1].spouse2ConfirmedMarriage = true */\n      0x0100\n      exp\n      dup2\n      sload\n      dup2\n      0xff\n      mul\n      not\n      and\n      swap1\n      dup4\n      iszero\n      iszero\n      mul\n      or\n      swap1\n      sstore\n      pop\n        /* \"contracts/Wedding.sol\":7203:7385  if (msg.sender == engagement.spouse2) {... */\n    tag_86:\n        /* \"contracts/Wedding.sol\":7015:7385  if (msg.sender == engagement.spouse1) {... */\n    tag_85:\n        /* \"contracts/Wedding.sol\":7450:7460  engagement */\n      dup1\n        /* \"contracts/Wedding.sol\":7450:7485  engagement.spouse1ConfirmedMarriage */\n      0x03\n      add\n      0x03\n      swap1\n      sload\n      swap1\n      0x0100\n      exp\n      swap1\n      div\n      0xff\n      and\n        /* \"contracts/Wedding.sol\":7450:7524  engagement.spouse1ConfirmedMarriage && engagement.spouse2ConfirmedMarriage */\n      dup1\n      iszero\n      tag_87\n      jumpi\n      pop\n        /* \"contracts/Wedding.sol\":7489:7499  engagement */\n      dup1\n        /* \"contracts/Wedding.sol\":7489:7524  engagement.spouse2ConfirmedMarriage */\n      0x03\n      add\n      0x04\n      swap1\n      sload\n      swap1\n      0x0100\n      exp\n      swap1\n      div\n      0xff\n      and\n        /* \"contracts/Wedding.sol\":7450:7524  engagement.spouse1ConfirmedMarriage && engagement.spouse2ConfirmedMarriage */\n    tag_87:\n        /* \"contracts/Wedding.sol\":7446:7739  if (engagement.spouse1ConfirmedMarriage && engagement.spouse2ConfirmedMarriage) {... */\n      iszero\n      tag_88\n      jumpi\n        /* \"contracts/Wedding.sol\":7584:7588  true */\n      0x01\n        /* \"contracts/Wedding.sol\":7540:7551  engagements */\n      0x00\n        /* \"contracts/Wedding.sol\":7540:7571  engagements[engagement.spouse1] */\n      dup1\n        /* \"contracts/Wedding.sol\":7552:7562  engagement */\n      dup4\n        /* \"contracts/Wedding.sol\":7552:7570  engagement.spouse1 */\n      0x00\n      add\n      0x00\n      swap1\n      sload\n      swap1\n      0x0100\n      exp\n      swap1\n      div\n      0xffffffffffffffffffffffffffffffffffffffff\n      and\n        /* \"contracts/Wedding.sol\":7540:7571  engagements[engagement.spouse1] */\n      0xffffffffffffffffffffffffffffffffffffffff\n      and\n      0xffffffffffffffffffffffffffffffffffffffff\n      and\n      dup2\n      mstore\n      0x20\n      add\n      swap1\n      dup2\n      mstore\n      0x20\n      add\n      0x00\n      keccak256\n        /* \"contracts/Wedding.sol\":7540:7581  engagements[engagement.spouse1].isMarried */\n      0x03\n      add\n      0x02\n        /* \"contracts/Wedding.sol\":7540:7588  engagements[engagement.spouse1].isMarried = true */\n      0x0100\n      exp\n      dup2\n      sload\n      dup2\n      0xff\n      mul\n      not\n      and\n      swap1\n      dup4\n      iszero\n      iszero\n      mul\n      or\n      swap1\n      sstore\n      pop\n        /* \"contracts/Wedding.sol\":7647:7651  true */\n      0x01\n        /* \"contracts/Wedding.sol\":7603:7614  engagements */\n      0x00\n        /* \"contracts/Wedding.sol\":7603:7634  engagements[engagement.spouse2] */\n      dup1\n        /* \"contracts/Wedding.sol\":7615:7625  engagement */\n      dup4\n        /* \"contracts/Wedding.sol\":7615:7633  engagement.spouse2 */\n      0x01\n      add\n      0x00\n      swap1\n      sload\n      swap1\n      0x0100\n      exp\n      swap1\n      div\n      0xffffffffffffffffffffffffffffffffffffffff\n      and\n        /* \"contracts/Wedding.sol\":7603:7634  engagements[engagement.spouse2] */\n      0xffffffffffffffffffffffffffffffffffffffff\n      and\n      0xffffffffffffffffffffffffffffffffffffffff\n      and\n      dup2\n      mstore\n      0x20\n      add\n      swap1\n      dup2\n      mstore\n      0x20\n      add\n      0x00\n      keccak256\n        /* \"contracts/Wedding.sol\":7603:7644  engagements[engagement.spouse2].isMarried */\n      0x03\n      add\n      0x02\n        /* \"contracts/Wedding.sol\":7603:7651  engagements[engagement.spouse2].isMarried = true */\n      0x0100\n      exp\n      dup2\n      sload\n      dup2\n      0xff\n      mul\n      not\n      and\n      swap1\n      dup4\n      iszero\n      iszero\n      mul\n      or\n      swap1\n      sstore\n      pop\n        /* \"contracts/Wedding.sol\":7671:7728  MarriageConfirmed(engagement.spouse1, engagement.spouse2) */\n      0x5c8ec7a25a142b043ee1d70b00b983786a266ced5b4e6b540ddc769276626819\n        /* \"contracts/Wedding.sol\":7689:7699  engagement */\n      dup2\n        /* \"contracts/Wedding.sol\":7689:7707  engagement.spouse1 */\n      0x00\n      add\n      0x00\n      swap1\n      sload\n      swap1\n      0x0100\n      exp\n      swap1\n      div\n      0xffffffffffffffffffffffffffffffffffffffff\n      and\n        /* \"contracts/Wedding.sol\":7709:7719  engagement */\n      dup3\n        /* \"contracts/Wedding.sol\":7709:7727  engagement.spouse2 */\n      0x01\n      add\n      0x00\n      swap1\n      sload\n      swap1\n      0x0100\n      exp\n      swap1\n      div\n      0xffffffffffffffffffffffffffffffffffffffff\n      and\n        /* \"contracts/Wedding.sol\":7671:7728  MarriageConfirmed(engagement.spouse1, engagement.spouse2) */\n      mload(0x40)\n      tag_89\n      swap3\n      swap2\n      swap1\n      tag_90\n      jump\t// in\n    tag_89:\n      mload(0x40)\n      dup1\n      swap2\n      sub\n      swap1\n      log1\n        /* \"contracts/Wedding.sol\":7446:7739  if (engagement.spouse1ConfirmedMarriage && engagement.spouse2ConfirmedMarriage) {... */\n    tag_88:\n        /* \"contracts/Wedding.sol\":6894:7745  {... */\n      pop\n        /* \"contracts/Wedding.sol\":2113:2114  _ */\n      pop\n        /* \"contracts/Wedding.sol\":1525:1526  _ */\n      pop\n        /* \"contracts/Wedding.sol\":6766:7745  function marry() external ... */\n      pop\n      jump\t// out\n        /* \"contracts/Wedding.sol\":4371:5088  function proposeGuestList(address[] calldata _guests) external isEngaged(msg.sender) isEngagedParty(msg.sender) {... */\n    tag_33:\n        /* \"contracts/Wedding.sol\":4444:4454  msg.sender */\n      caller\n        /* \"contracts/Wedding.sol\":1486:1490  true */\n      0x01\n        /* \"contracts/Wedding.sol\":1452:1490  engagements[_spouse].isEngaged == true */\n      iszero\n      iszero\n        /* \"contracts/Wedding.sol\":1452:1463  engagements */\n      0x00\n        /* \"contracts/Wedding.sol\":1452:1472  engagements[_spouse] */\n      dup1\n        /* \"contracts/Wedding.sol\":1464:1471  _spouse */\n      dup4\n        /* \"contracts/Wedding.sol\":1452:1472  engagements[_spouse] */\n      0xffffffffffffffffffffffffffffffffffffffff\n      and\n      0xffffffffffffffffffffffffffffffffffffffff\n      and\n      dup2\n      mstore\n      0x20\n      add\n      swap1\n      dup2\n      mstore\n      0x20\n      add\n      0x00\n      keccak256\n        /* \"contracts/Wedding.sol\":1452:1482  engagements[_spouse].isEngaged */\n      0x03\n      add\n      0x00\n      swap1\n      sload\n      swap1\n      0x0100\n      exp\n      swap1\n      div\n      0xff\n      and\n        /* \"contracts/Wedding.sol\":1452:1490  engagements[_spouse].isEngaged == true */\n      iszero\n      iszero\n      eq\n        /* \"contracts/Wedding.sol\":1444:1515  require(engagements[_spouse].isEngaged == true, \"Address not engaged.\") */\n      tag_92\n      jumpi\n      mload(0x40)\n      0x08c379a000000000000000000000000000000000000000000000000000000000\n      dup2\n      mstore\n      0x04\n      add\n      tag_93\n      swap1\n      tag_65\n      jump\t// in\n    tag_93:\n      mload(0x40)\n      dup1\n      swap2\n      sub\n      swap1\n      revert\n    tag_92:\n        /* \"contracts/Wedding.sol\":4471:4481  msg.sender */\n      caller\n        /* \"contracts/Wedding.sol\":1590:1618  Engagement memory engagement */\n      0x00\n        /* \"contracts/Wedding.sol\":1621:1632  engagements */\n      dup1\n        /* \"contracts/Wedding.sol\":1621:1641  engagements[_spouse] */\n      0x00\n        /* \"contracts/Wedding.sol\":1633:1640  _spouse */\n      dup4\n        /* \"contracts/Wedding.sol\":1621:1641  engagements[_spouse] */\n      0xffffffffffffffffffffffffffffffffffffffff\n      and\n      0xffffffffffffffffffffffffffffffffffffffff\n      and\n      dup2\n      mstore\n      0x20\n      add\n      swap1\n      dup2\n      mstore\n      0x20\n      add\n      0x00\n      keccak256\n        /* \"contracts/Wedding.sol\":1590:1641  Engagement memory engagement = engagements[_spouse] */\n      mload(0x40)\n      dup1\n      0x0100\n      add\n      0x40\n      mstore\n      swap1\n      dup2\n      0x00\n      dup3\n      add\n      0x00\n      swap1\n      sload\n      swap1\n      0x0100\n      exp\n      swap1\n      div\n      0xffffffffffffffffffffffffffffffffffffffff\n      and\n      0xffffffffffffffffffffffffffffffffffffffff\n      and\n      0xffffffffffffffffffffffffffffffffffffffff\n      and\n      dup2\n      mstore\n      0x20\n      add\n      0x01\n      dup3\n      add\n      0x00\n      swap1\n      sload\n      swap1\n      0x0100\n      exp\n      swap1\n      div\n      0xffffffffffffffffffffffffffffffffffffffff\n      and\n      0xffffffffffffffffffffffffffffffffffffffff\n      and\n      0xffffffffffffffffffffffffffffffffffffffff\n      and\n      dup2\n      mstore\n      0x20\n      add\n      0x02\n      dup3\n      add\n      sload\n      dup2\n      mstore\n      0x20\n      add\n      0x03\n      dup3\n      add\n      0x00\n      swap1\n      sload\n      swap1\n      0x0100\n      exp\n      swap1\n      div\n      0xff\n      and\n      iszero\n      iszero\n      iszero\n      iszero\n      dup2\n      mstore\n      0x20\n      add\n      0x03\n      dup3\n      add\n      0x01\n      swap1\n      sload\n      swap1\n      0x0100\n      exp\n      swap1\n      div\n      0xff\n      and\n      iszero\n      iszero\n      iszero\n      iszero\n      dup2\n      mstore\n      0x20\n      add\n      0x03\n      dup3\n      add\n      0x02\n      swap1\n      sload\n      swap1\n      0x0100\n      exp\n      swap1\n      div\n      0xff\n      and\n      iszero\n      iszero\n      iszero\n      iszero\n      dup2\n      mstore\n      0x20\n      add\n      0x03\n      dup3\n      add\n      0x03\n      swap1\n      sload\n      swap1\n      0x0100\n      exp\n      swap1\n      div\n      0xff\n      and\n      iszero\n      iszero\n      iszero\n      iszero\n      dup2\n      mstore\n      0x20\n      add\n      0x03\n      dup3\n      add\n      0x04\n      swap1\n      sload\n      swap1\n      0x0100\n      exp\n      swap1\n      div\n      0xff\n      and\n      iszero\n      iszero\n      iszero\n      iszero\n      dup2\n      mstore\n      pop\n      pop\n      swap1\n      pop\n        /* \"contracts/Wedding.sol\":1686:1696  engagement */\n      dup1\n        /* \"contracts/Wedding.sol\":1686:1704  engagement.spouse1 */\n      0x00\n      add\n      mload\n        /* \"contracts/Wedding.sol\":1672:1704  msg.sender == engagement.spouse1 */\n      0xffffffffffffffffffffffffffffffffffffffff\n      and\n        /* \"contracts/Wedding.sol\":1672:1682  msg.sender */\n      caller\n        /* \"contracts/Wedding.sol\":1672:1704  msg.sender == engagement.spouse1 */\n      0xffffffffffffffffffffffffffffffffffffffff\n      and\n      eq\n        /* \"contracts/Wedding.sol\":1672:1740  msg.sender == engagement.spouse1 || msg.sender == engagement.spouse2 */\n      dup1\n      tag_95\n      jumpi\n      pop\n        /* \"contracts/Wedding.sol\":1722:1732  engagement */\n      dup1\n        /* \"contracts/Wedding.sol\":1722:1740  engagement.spouse2 */\n      0x20\n      add\n      mload\n        /* \"contracts/Wedding.sol\":1708:1740  msg.sender == engagement.spouse2 */\n      0xffffffffffffffffffffffffffffffffffffffff\n      and\n        /* \"contracts/Wedding.sol\":1708:1718  msg.sender */\n      caller\n        /* \"contracts/Wedding.sol\":1708:1740  msg.sender == engagement.spouse2 */\n      0xffffffffffffffffffffffffffffffffffffffff\n      and\n      eq\n        /* \"contracts/Wedding.sol\":1672:1740  msg.sender == engagement.spouse1 || msg.sender == engagement.spouse2 */\n    tag_95:\n        /* \"contracts/Wedding.sol\":1651:1807  require(... */\n      tag_96\n      jumpi\n      mload(0x40)\n      0x08c379a000000000000000000000000000000000000000000000000000000000\n      dup2\n      mstore\n      0x04\n      add\n      tag_97\n      swap1\n      tag_98\n      jump\t// in\n    tag_97:\n      mload(0x40)\n      dup1\n      swap2\n      sub\n      swap1\n      revert\n    tag_96:\n        /* \"contracts/Wedding.sol\":4493:4522  Engagement storage engagement */\n      0x00\n        /* \"contracts/Wedding.sol\":4525:4536  engagements */\n      dup1\n        /* \"contracts/Wedding.sol\":4525:4548  engagements[msg.sender] */\n      0x00\n        /* \"contracts/Wedding.sol\":4537:4547  msg.sender */\n      caller\n        /* \"contracts/Wedding.sol\":4525:4548  engagements[msg.sender] */\n      0xffffffffffffffffffffffffffffffffffffffff\n      and\n      0xffffffffffffffffffffffffffffffffffffffff\n      and\n      dup2\n      mstore\n      0x20\n      add\n      swap1\n      dup2\n      mstore\n      0x20\n      add\n      0x00\n      keccak256\n        /* \"contracts/Wedding.sol\":4493:4548  Engagement storage engagement = engagements[msg.sender] */\n      swap1\n      pop\n        /* \"contracts/Wedding.sol\":4651:4658  _guests */\n      dup6\n      dup6\n        /* \"contracts/Wedding.sol\":4603:4613  guestLists */\n      0x01\n        /* \"contracts/Wedding.sol\":4603:4633  guestLists[engagement.spouse1] */\n      0x00\n        /* \"contracts/Wedding.sol\":4614:4624  engagement */\n      dup5\n        /* \"contracts/Wedding.sol\":4614:4632  engagement.spouse1 */\n      0x00\n      add\n      0x00\n      swap1\n      sload\n      swap1\n      0x0100\n      exp\n      swap1\n      div\n      0xffffffffffffffffffffffffffffffffffffffff\n      and\n        /* \"contracts/Wedding.sol\":4603:4633  guestLists[engagement.spouse1] */\n      0xffffffffffffffffffffffffffffffffffffffff\n      and\n      0xffffffffffffffffffffffffffffffffffffffff\n      and\n      dup2\n      mstore\n      0x20\n      add\n      swap1\n      dup2\n      mstore\n      0x20\n      add\n      0x00\n      keccak256\n        /* \"contracts/Wedding.sol\":4603:4648  guestLists[engagement.spouse1].proposedGuests */\n      0x00\n      add\n        /* \"contracts/Wedding.sol\":4603:4658  guestLists[engagement.spouse1].proposedGuests = _guests */\n      swap2\n      swap1\n      tag_100\n      swap3\n      swap2\n      swap1\n      tag_101\n      jump\t// in\n    tag_100:\n      pop\n        /* \"contracts/Wedding.sol\":4718:4723  false */\n      0x00\n        /* \"contracts/Wedding.sol\":4668:4678  guestLists */\n      0x01\n        /* \"contracts/Wedding.sol\":4668:4698  guestLists[engagement.spouse1] */\n      0x00\n        /* \"contracts/Wedding.sol\":4679:4689  engagement */\n      dup4\n        /* \"contracts/Wedding.sol\":4679:4697  engagement.spouse1 */\n      0x00\n      add\n      0x00\n      swap1\n      sload\n      swap1\n      0x0100\n      exp\n      swap1\n      div\n      0xffffffffffffffffffffffffffffffffffffffff\n      and\n        /* \"contracts/Wedding.sol\":4668:4698  guestLists[engagement.spouse1] */\n      0xffffffffffffffffffffffffffffffffffffffff\n      and\n      0xffffffffffffffffffffffffffffffffffffffff\n      and\n      dup2\n      mstore\n      0x20\n      add\n      swap1\n      dup2\n      mstore\n      0x20\n      add\n      0x00\n      keccak256\n        /* \"contracts/Wedding.sol\":4668:4715  guestLists[engagement.spouse1].spouse1Confirmed */\n      0x01\n      add\n      0x00\n        /* \"contracts/Wedding.sol\":4668:4723  guestLists[engagement.spouse1].spouse1Confirmed = false */\n      0x0100\n      exp\n      dup2\n      sload\n      dup2\n      0xff\n      mul\n      not\n      and\n      swap1\n      dup4\n      iszero\n      iszero\n      mul\n      or\n      swap1\n      sstore\n      pop\n        /* \"contracts/Wedding.sol\":4783:4788  false */\n      0x00\n        /* \"contracts/Wedding.sol\":4733:4743  guestLists */\n      0x01\n        /* \"contracts/Wedding.sol\":4733:4763  guestLists[engagement.spouse1] */\n      0x00\n        /* \"contracts/Wedding.sol\":4744:4754  engagement */\n      dup4\n        /* \"contracts/Wedding.sol\":4744:4762  engagement.spouse1 */\n      0x00\n      add\n      0x00\n      swap1\n      sload\n      swap1\n      0x0100\n      exp\n      swap1\n      div\n      0xffffffffffffffffffffffffffffffffffffffff\n      and\n        /* \"contracts/Wedding.sol\":4733:4763  guestLists[engagement.spouse1] */\n      0xffffffffffffffffffffffffffffffffffffffff\n      and\n      0xffffffffffffffffffffffffffffffffffffffff\n      and\n      dup2\n      mstore\n      0x20\n      add\n      swap1\n      dup2\n      mstore\n      0x20\n      add\n      0x00\n      keccak256\n        /* \"contracts/Wedding.sol\":4733:4780  guestLists[engagement.spouse1].spouse2Confirmed */\n      0x01\n      add\n      0x01\n        /* \"contracts/Wedding.sol\":4733:4788  guestLists[engagement.spouse1].spouse2Confirmed = false */\n      0x0100\n      exp\n      dup2\n      sload\n      dup2\n      0xff\n      mul\n      not\n      and\n      swap1\n      dup4\n      iszero\n      iszero\n      mul\n      or\n      swap1\n      sstore\n      pop\n        /* \"contracts/Wedding.sol\":4890:4897  _guests */\n      dup6\n      dup6\n        /* \"contracts/Wedding.sol\":4842:4852  guestLists */\n      0x01\n        /* \"contracts/Wedding.sol\":4842:4872  guestLists[engagement.spouse2] */\n      0x00\n        /* \"contracts/Wedding.sol\":4853:4863  engagement */\n      dup5\n        /* \"contracts/Wedding.sol\":4853:4871  engagement.spouse2 */\n      0x01\n      add\n      0x00\n      swap1\n      sload\n      swap1\n      0x0100\n      exp\n      swap1\n      div\n      0xffffffffffffffffffffffffffffffffffffffff\n      and\n        /* \"contracts/Wedding.sol\":4842:4872  guestLists[engagement.spouse2] */\n      0xffffffffffffffffffffffffffffffffffffffff\n      and\n      0xffffffffffffffffffffffffffffffffffffffff\n      and\n      dup2\n      mstore\n      0x20\n      add\n      swap1\n      dup2\n      mstore\n      0x20\n      add\n      0x00\n      keccak256\n        /* \"contracts/Wedding.sol\":4842:4887  guestLists[engagement.spouse2].proposedGuests */\n      0x00\n      add\n        /* \"contracts/Wedding.sol\":4842:4897  guestLists[engagement.spouse2].proposedGuests = _guests */\n      swap2\n      swap1\n      tag_102\n      swap3\n      swap2\n      swap1\n      tag_101\n      jump\t// in\n    tag_102:\n      pop\n        /* \"contracts/Wedding.sol\":4957:4962  false */\n      0x00\n        /* \"contracts/Wedding.sol\":4907:4917  guestLists */\n      0x01\n        /* \"contracts/Wedding.sol\":4907:4937  guestLists[engagement.spouse2] */\n      0x00\n        /* \"contracts/Wedding.sol\":4918:4928  engagement */\n      dup4\n        /* \"contracts/Wedding.sol\":4918:4936  engagement.spouse2 */\n      0x01\n      add\n      0x00\n      swap1\n      sload\n      swap1\n      0x0100\n      exp\n      swap1\n      div\n      0xffffffffffffffffffffffffffffffffffffffff\n      and\n        /* \"contracts/Wedding.sol\":4907:4937  guestLists[engagement.spouse2] */\n      0xffffffffffffffffffffffffffffffffffffffff\n      and\n      0xffffffffffffffffffffffffffffffffffffffff\n      and\n      dup2\n      mstore\n      0x20\n      add\n      swap1\n      dup2\n      mstore\n      0x20\n      add\n      0x00\n      keccak256\n        /* \"contracts/Wedding.sol\":4907:4954  guestLists[engagement.spouse2].spouse1Confirmed */\n      0x01\n      add\n      0x00\n        /* \"contracts/Wedding.sol\":4907:4962  guestLists[engagement.spouse2].spouse1Confirmed = false */\n      0x0100\n      exp\n      dup2\n      sload\n      dup2\n      0xff\n      mul\n      not\n      and\n      swap1\n      dup4\n      iszero\n      iszero\n      mul\n      or\n      swap1\n      sstore\n      pop\n        /* \"contracts/Wedding.sol\":5022:5027  false */\n      0x00\n        /* \"contracts/Wedding.sol\":4972:4982  guestLists */\n      0x01\n        /* \"contracts/Wedding.sol\":4972:5002  guestLists[engagement.spouse2] */\n      0x00\n        /* \"contracts/Wedding.sol\":4983:4993  engagement */\n      dup4\n        /* \"contracts/Wedding.sol\":4983:5001  engagement.spouse2 */\n      0x01\n      add\n      0x00\n      swap1\n      sload\n      swap1\n      0x0100\n      exp\n      swap1\n      div\n      0xffffffffffffffffffffffffffffffffffffffff\n      and\n        /* \"contracts/Wedding.sol\":4972:5002  guestLists[engagement.spouse2] */\n      0xffffffffffffffffffffffffffffffffffffffff\n      and\n      0xffffffffffffffffffffffffffffffffffffffff\n      and\n      dup2\n      mstore\n      0x20\n      add\n      swap1\n      dup2\n      mstore\n      0x20\n      add\n      0x00\n      keccak256\n        /* \"contracts/Wedding.sol\":4972:5019  guestLists[engagement.spouse2].spouse2Confirmed */\n      0x01\n      add\n      0x01\n        /* \"contracts/Wedding.sol\":4972:5027  guestLists[engagement.spouse2].spouse2Confirmed = false */\n      0x0100\n      exp\n      dup2\n      sload\n      dup2\n      0xff\n      mul\n      not\n      and\n      swap1\n      dup4\n      iszero\n      iszero\n      mul\n      or\n      swap1\n      sstore\n      pop\n        /* \"contracts/Wedding.sol\":5043:5081  GuestListProposed(msg.sender, _guests) */\n      0x402f0cdbbd3e7bdbd2c1fc4d920fa1ee7a733238220198df262284a1259d0be6\n        /* \"contracts/Wedding.sol\":5061:5071  msg.sender */\n      caller\n        /* \"contracts/Wedding.sol\":5073:5080  _guests */\n      dup8\n      dup8\n        /* \"contracts/Wedding.sol\":5043:5081  GuestListProposed(msg.sender, _guests) */\n      mload(0x40)\n      tag_103\n      swap4\n      swap3\n      swap2\n      swap1\n      tag_104\n      jump\t// in\n    tag_103:\n      mload(0x40)\n      dup1\n      swap2\n      sub\n      swap1\n      log1\n        /* \"contracts/Wedding.sol\":4483:5088  {... */\n      pop\n        /* \"contracts/Wedding.sol\":1580:1825  {... */\n      pop\n        /* \"contracts/Wedding.sol\":1525:1526  _ */\n      pop\n        /* \"contracts/Wedding.sol\":4371:5088  function proposeGuestList(address[] calldata _guests) external isEngaged(msg.sender) isEngagedParty(msg.sender) {... */\n      pop\n      pop\n      pop\n      jump\t// out\n        /* \"contracts/Wedding.sol\":3671:4335  function registerEngagement(address _spouse, uint256 _weddingDate) external... */\n    tag_37:\n        /* \"contracts/Wedding.sol\":3766:3776  msg.sender */\n      caller\n        /* \"contracts/Wedding.sol\":3778:3785  _spouse */\n      dup3\n        /* \"contracts/Wedding.sol\":1251:1256  false */\n      0x00\n        /* \"contracts/Wedding.sol\":1216:1256  engagements[_spouse1].isEngaged == false */\n      iszero\n      iszero\n        /* \"contracts/Wedding.sol\":1216:1227  engagements */\n      0x00\n        /* \"contracts/Wedding.sol\":1216:1237  engagements[_spouse1] */\n      dup1\n        /* \"contracts/Wedding.sol\":1228:1236  _spouse1 */\n      dup5\n        /* \"contracts/Wedding.sol\":1216:1237  engagements[_spouse1] */\n      0xffffffffffffffffffffffffffffffffffffffff\n      and\n      0xffffffffffffffffffffffffffffffffffffffff\n      and\n      dup2\n      mstore\n      0x20\n      add\n      swap1\n      dup2\n      mstore\n      0x20\n      add\n      0x00\n      keccak256\n        /* \"contracts/Wedding.sol\":1216:1247  engagements[_spouse1].isEngaged */\n      0x03\n      add\n      0x00\n      swap1\n      sload\n      swap1\n      0x0100\n      exp\n      swap1\n      div\n      0xff\n      and\n        /* \"contracts/Wedding.sol\":1216:1256  engagements[_spouse1].isEngaged == false */\n      iszero\n      iszero\n      eq\n        /* \"contracts/Wedding.sol\":1216:1300  engagements[_spouse1].isEngaged == false && engagements[_spouse2].isEngaged == false */\n      dup1\n      iszero\n      tag_106\n      jumpi\n      pop\n        /* \"contracts/Wedding.sol\":1295:1300  false */\n      0x00\n        /* \"contracts/Wedding.sol\":1260:1300  engagements[_spouse2].isEngaged == false */\n      iszero\n      iszero\n        /* \"contracts/Wedding.sol\":1260:1271  engagements */\n      0x00\n        /* \"contracts/Wedding.sol\":1260:1281  engagements[_spouse2] */\n      dup1\n        /* \"contracts/Wedding.sol\":1272:1280  _spouse2 */\n      dup4\n        /* \"contracts/Wedding.sol\":1260:1281  engagements[_spouse2] */\n      0xffffffffffffffffffffffffffffffffffffffff\n      and\n      0xffffffffffffffffffffffffffffffffffffffff\n      and\n      dup2\n      mstore\n      0x20\n      add\n      swap1\n      dup2\n      mstore\n      0x20\n      add\n      0x00\n      keccak256\n        /* \"contracts/Wedding.sol\":1260:1291  engagements[_spouse2].isEngaged */\n      0x03\n      add\n      0x00\n      swap1\n      sload\n      swap1\n      0x0100\n      exp\n      swap1\n      div\n      0xff\n      and\n        /* \"contracts/Wedding.sol\":1260:1300  engagements[_spouse2].isEngaged == false */\n      iszero\n      iszero\n      eq\n        /* \"contracts/Wedding.sol\":1216:1300  engagements[_spouse1].isEngaged == false && engagements[_spouse2].isEngaged == false */\n    tag_106:\n        /* \"contracts/Wedding.sol\":1195:1374  require(... */\n      tag_107\n      jumpi\n      mload(0x40)\n      0x08c379a000000000000000000000000000000000000000000000000000000000\n      dup2\n      mstore\n      0x04\n      add\n      tag_108\n      swap1\n      tag_109\n      jump\t// in\n    tag_108:\n      mload(0x40)\n      dup1\n      swap2\n      sub\n      swap1\n      revert\n    tag_107:\n        /* \"contracts/Wedding.sol\":3810:3817  _spouse */\n      dup4\n        /* \"contracts/Wedding.sol\":1904:1911  _spouse */\n      dup1\n        /* \"contracts/Wedding.sol\":1890:1911  msg.sender != _spouse */\n      0xffffffffffffffffffffffffffffffffffffffff\n      and\n        /* \"contracts/Wedding.sol\":1890:1900  msg.sender */\n      caller\n        /* \"contracts/Wedding.sol\":1890:1911  msg.sender != _spouse */\n      0xffffffffffffffffffffffffffffffffffffffff\n      and\n      sub\n        /* \"contracts/Wedding.sol\":1882:1940  require(msg.sender != _spouse, \"Cannot engage to oneself\") */\n      tag_111\n      jumpi\n      mload(0x40)\n      0x08c379a000000000000000000000000000000000000000000000000000000000\n      dup2\n      mstore\n      0x04\n      add\n      tag_112\n      swap1\n      tag_113\n      jump\t// in\n    tag_112:\n      mload(0x40)\n      dup1\n      swap2\n      sub\n      swap1\n      revert\n    tag_111:\n        /* \"contracts/Wedding.sol\":3833:3861  Engagement memory engagement */\n      0x00\n        /* \"contracts/Wedding.sol\":3864:4167  Engagement({... */\n      mload(0x40)\n      dup1\n      0x0100\n      add\n      0x40\n      mstore\n      dup1\n        /* \"contracts/Wedding.sol\":3898:3908  msg.sender */\n      caller\n        /* \"contracts/Wedding.sol\":3864:4167  Engagement({... */\n      0xffffffffffffffffffffffffffffffffffffffff\n      and\n      dup2\n      mstore\n      0x20\n      add\n        /* \"contracts/Wedding.sol\":3931:3938  _spouse */\n      dup8\n        /* \"contracts/Wedding.sol\":3864:4167  Engagement({... */\n      0xffffffffffffffffffffffffffffffffffffffff\n      and\n      dup2\n      mstore\n      0x20\n      add\n        /* \"contracts/Wedding.sol\":3965:3977  _weddingDate */\n      dup7\n        /* \"contracts/Wedding.sol\":3864:4167  Engagement({... */\n      dup2\n      mstore\n      0x20\n      add\n        /* \"contracts/Wedding.sol\":4002:4006  true */\n      0x01\n        /* \"contracts/Wedding.sol\":3864:4167  Engagement({... */\n      iszero\n      iszero\n      dup2\n      mstore\n      0x20\n      add\n        /* \"contracts/Wedding.sol\":4031:4036  false */\n      0x00\n        /* \"contracts/Wedding.sol\":3864:4167  Engagement({... */\n      iszero\n      iszero\n      dup2\n      mstore\n      0x20\n      add\n        /* \"contracts/Wedding.sol\":4061:4066  false */\n      0x00\n        /* \"contracts/Wedding.sol\":3864:4167  Engagement({... */\n      iszero\n      iszero\n      dup2\n      mstore\n      0x20\n      add\n        /* \"contracts/Wedding.sol\":4106:4111  false */\n      0x00\n        /* \"contracts/Wedding.sol\":3864:4167  Engagement({... */\n      iszero\n      iszero\n      dup2\n      mstore\n      0x20\n      add\n        /* \"contracts/Wedding.sol\":4151:4156  false */\n      0x00\n        /* \"contracts/Wedding.sol\":3864:4167  Engagement({... */\n      iszero\n      iszero\n      dup2\n      mstore\n      pop\n        /* \"contracts/Wedding.sol\":3833:4167  Engagement memory engagement = Engagement({... */\n      swap1\n      pop\n        /* \"contracts/Wedding.sol\":4204:4214  engagement */\n      dup1\n        /* \"contracts/Wedding.sol\":4178:4189  engagements */\n      0x00\n        /* \"contracts/Wedding.sol\":4178:4201  engagements[msg.sender] */\n      dup1\n        /* \"contracts/Wedding.sol\":4190:4200  msg.sender */\n      caller\n        /* \"contracts/Wedding.sol\":4178:4201  engagements[msg.sender] */\n      0xffffffffffffffffffffffffffffffffffffffff\n      and\n      0xffffffffffffffffffffffffffffffffffffffff\n      and\n      dup2\n      mstore\n      0x20\n      add\n      swap1\n      dup2\n      mstore\n      0x20\n      add\n      0x00\n      keccak256\n        /* \"contracts/Wedding.sol\":4178:4214  engagements[msg.sender] = engagement */\n      0x00\n      dup3\n      add\n      mload\n      dup2\n      0x00\n      add\n      exp(0x0100, 0x00)\n      dup2\n      sload\n      dup2\n      0xffffffffffffffffffffffffffffffffffffffff\n      mul\n      not\n      and\n      swap1\n      dup4\n      0xffffffffffffffffffffffffffffffffffffffff\n      and\n      mul\n      or\n      swap1\n      sstore\n      pop\n      0x20\n      dup3\n      add\n      mload\n      dup2\n      0x01\n      add\n      exp(0x0100, 0x00)\n      dup2\n      sload\n      dup2\n      0xffffffffffffffffffffffffffffffffffffffff\n      mul\n      not\n      and\n      swap1\n      dup4\n      0xffffffffffffffffffffffffffffffffffffffff\n      and\n      mul\n      or\n      swap1\n      sstore\n      pop\n      0x40\n      dup3\n      add\n      mload\n      dup2\n      0x02\n      add\n      sstore\n      0x60\n      dup3\n      add\n      mload\n      dup2\n      0x03\n      add\n      exp(0x0100, 0x00)\n      dup2\n      sload\n      dup2\n      0xff\n      mul\n      not\n      and\n      swap1\n      dup4\n      iszero\n      iszero\n      mul\n      or\n      swap1\n      sstore\n      pop\n      0x80\n      dup3\n      add\n      mload\n      dup2\n      0x03\n      add\n      exp(0x0100, 0x01)\n      dup2\n      sload\n      dup2\n      0xff\n      mul\n      not\n      and\n      swap1\n      dup4\n      iszero\n      iszero\n      mul\n      or\n      swap1\n      sstore\n      pop\n      0xa0\n      dup3\n      add\n      mload\n      dup2\n      0x03\n      add\n      exp(0x0100, 0x02)\n      dup2\n      sload\n      dup2\n      0xff\n      mul\n      not\n      and\n      swap1\n      dup4\n      iszero\n      iszero\n      mul\n      or\n      swap1\n      sstore\n      pop\n      0xc0\n      dup3\n      add\n      mload\n      dup2\n      0x03\n      add\n      exp(0x0100, 0x03)\n      dup2\n      sload\n      dup2\n      0xff\n      mul\n      not\n      and\n      swap1\n      dup4\n      iszero\n      iszero\n      mul\n      or\n      swap1\n      sstore\n      pop\n      0xe0\n      dup3\n      add\n      mload\n      dup2\n      0x03\n      add\n      exp(0x0100, 0x04)\n      dup2\n      sload\n      dup2\n      0xff\n      mul\n      not\n      and\n      swap1\n      dup4\n      iszero\n      iszero\n      mul\n      or\n      swap1\n      sstore\n      pop\n      swap1\n      pop\n      pop\n        /* \"contracts/Wedding.sol\":4247:4257  engagement */\n      dup1\n        /* \"contracts/Wedding.sol\":4224:4235  engagements */\n      0x00\n        /* \"contracts/Wedding.sol\":4224:4244  engagements[_spouse] */\n      dup1\n        /* \"contracts/Wedding.sol\":4236:4243  _spouse */\n      dup9\n        /* \"contracts/Wedding.sol\":4224:4244  engagements[_spouse] */\n      0xffffffffffffffffffffffffffffffffffffffff\n      and\n      0xffffffffffffffffffffffffffffffffffffffff\n      and\n      dup2\n      mstore\n      0x20\n      add\n      swap1\n      dup2\n      mstore\n      0x20\n      add\n      0x00\n      keccak256\n        /* \"contracts/Wedding.sol\":4224:4257  engagements[_spouse] = engagement */\n      0x00\n      dup3\n      add\n      mload\n      dup2\n      0x00\n      add\n      exp(0x0100, 0x00)\n      dup2\n      sload\n      dup2\n      0xffffffffffffffffffffffffffffffffffffffff\n      mul\n      not\n      and\n      swap1\n      dup4\n      0xffffffffffffffffffffffffffffffffffffffff\n      and\n      mul\n      or\n      swap1\n      sstore\n      pop\n      0x20\n      dup3\n      add\n      mload\n      dup2\n      0x01\n      add\n      exp(0x0100, 0x00)\n      dup2\n      sload\n      dup2\n      0xffffffffffffffffffffffffffffffffffffffff\n      mul\n      not\n      and\n      swap1\n      dup4\n      0xffffffffffffffffffffffffffffffffffffffff\n      and\n      mul\n      or\n      swap1\n      sstore\n      pop\n      0x40\n      dup3\n      add\n      mload\n      dup2\n      0x02\n      add\n      sstore\n      0x60\n      dup3\n      add\n      mload\n      dup2\n      0x03\n      add\n      exp(0x0100, 0x00)\n      dup2\n      sload\n      dup2\n      0xff\n      mul\n      not\n      and\n      swap1\n      dup4\n      iszero\n      iszero\n      mul\n      or\n      swap1\n      sstore\n      pop\n      0x80\n      dup3\n      add\n      mload\n      dup2\n      0x03\n      add\n      exp(0x0100, 0x01)\n      dup2\n      sload\n      dup2\n      0xff\n      mul\n      not\n      and\n      swap1\n      dup4\n      iszero\n      iszero\n      mul\n      or\n      swap1\n      sstore\n      pop\n      0xa0\n      dup3\n      add\n      mload\n      dup2\n      0x03\n      add\n      exp(0x0100, 0x02)\n      dup2\n      sload\n      dup2\n      0xff\n      mul\n      not\n      and\n      swap1\n      dup4\n      iszero\n      iszero\n      mul\n      or\n      swap1\n      sstore\n      pop\n      0xc0\n      dup3\n      add\n      mload\n      dup2\n      0x03\n      add\n      exp(0x0100, 0x03)\n      dup2\n      sload\n      dup2\n      0xff\n      mul\n      not\n      and\n      swap1\n      dup4\n      iszero\n      iszero\n      mul\n      or\n      swap1\n      sstore\n      pop\n      0xe0\n      dup3\n      add\n      mload\n      dup2\n      0x03\n      add\n      exp(0x0100, 0x04)\n      dup2\n      sload\n      dup2\n      0xff\n      mul\n      not\n      and\n      swap1\n      dup4\n      iszero\n      iszero\n      mul\n      or\n      swap1\n      sstore\n      pop\n      swap1\n      pop\n      pop\n        /* \"contracts/Wedding.sol\":4273:4328  EngagementRegistered(msg.sender, _spouse, _weddingDate) */\n      0x7a7f38be04afb87e39b4cb52bec76c69c4d999f605bd21054b71a3f2dc085821\n        /* \"contracts/Wedding.sol\":4294:4304  msg.sender */\n      caller\n        /* \"contracts/Wedding.sol\":4306:4313  _spouse */\n      dup8\n        /* \"contracts/Wedding.sol\":4315:4327  _weddingDate */\n      dup8\n        /* \"contracts/Wedding.sol\":4273:4328  EngagementRegistered(msg.sender, _spouse, _weddingDate) */\n      mload(0x40)\n      tag_115\n      swap4\n      swap3\n      swap2\n      swap1\n      tag_116\n      jump\t// in\n    tag_115:\n      mload(0x40)\n      dup1\n      swap2\n      sub\n      swap1\n      log1\n        /* \"contracts/Wedding.sol\":3823:4335  {... */\n      pop\n        /* \"contracts/Wedding.sol\":1384:1385  _ */\n      pop\n        /* \"contracts/Wedding.sol\":3671:4335  function registerEngagement(address _spouse, uint256 _weddingDate) external... */\n      pop\n      pop\n      pop\n      pop\n      jump\t// out\n        /* \"contracts/Wedding.sol\":5907:6383  function isGuestConfirmed(address _spouse, address _guest) public view returns (bool) {... */\n    tag_41:\n        /* \"contracts/Wedding.sol\":5987:5991  bool */\n      0x00\n        /* \"contracts/Wedding.sol\":6003:6030  GuestList storage guestList */\n      dup1\n        /* \"contracts/Wedding.sol\":6033:6043  guestLists */\n      0x01\n        /* \"contracts/Wedding.sol\":6033:6052  guestLists[_spouse] */\n      0x00\n        /* \"contracts/Wedding.sol\":6044:6051  _spouse */\n      dup6\n        /* \"contracts/Wedding.sol\":6033:6052  guestLists[_spouse] */\n      0xffffffffffffffffffffffffffffffffffffffff\n      and\n      0xffffffffffffffffffffffffffffffffffffffff\n      and\n      dup2\n      mstore\n      0x20\n      add\n      swap1\n      dup2\n      mstore\n      0x20\n      add\n      0x00\n      keccak256\n        /* \"contracts/Wedding.sol\":6003:6052  GuestList storage guestList = guestLists[_spouse] */\n      swap1\n      pop\n        /* \"contracts/Wedding.sol\":6067:6076  guestList */\n      dup1\n        /* \"contracts/Wedding.sol\":6067:6093  guestList.spouse1Confirmed */\n      0x01\n      add\n      0x00\n      swap1\n      sload\n      swap1\n      0x0100\n      exp\n      swap1\n      div\n      0xff\n      and\n        /* \"contracts/Wedding.sol\":6067:6123  guestList.spouse1Confirmed && guestList.spouse2Confirmed */\n      dup1\n      iszero\n      tag_118\n      jumpi\n      pop\n        /* \"contracts/Wedding.sol\":6097:6106  guestList */\n      dup1\n        /* \"contracts/Wedding.sol\":6097:6123  guestList.spouse2Confirmed */\n      0x01\n      add\n      0x01\n      swap1\n      sload\n      swap1\n      0x0100\n      exp\n      swap1\n      div\n      0xff\n      and\n        /* \"contracts/Wedding.sol\":6067:6123  guestList.spouse1Confirmed && guestList.spouse2Confirmed */\n    tag_118:\n        /* \"contracts/Wedding.sol\":6063:6355  if (guestList.spouse1Confirmed && guestList.spouse2Confirmed) {... */\n      iszero\n      tag_119\n      jumpi\n        /* \"contracts/Wedding.sol\":6144:6150  uint i */\n      0x00\n        /* \"contracts/Wedding.sol\":6139:6345  for (uint i = 0; i < guestLists[_spouse].proposedGuests.length; i++) {... */\n    tag_120:\n        /* \"contracts/Wedding.sol\":6160:6170  guestLists */\n      0x01\n        /* \"contracts/Wedding.sol\":6160:6179  guestLists[_spouse] */\n      0x00\n        /* \"contracts/Wedding.sol\":6171:6178  _spouse */\n      dup7\n        /* \"contracts/Wedding.sol\":6160:6179  guestLists[_spouse] */\n      0xffffffffffffffffffffffffffffffffffffffff\n      and\n      0xffffffffffffffffffffffffffffffffffffffff\n      and\n      dup2\n      mstore\n      0x20\n      add\n      swap1\n      dup2\n      mstore\n      0x20\n      add\n      0x00\n      keccak256\n        /* \"contracts/Wedding.sol\":6160:6194  guestLists[_spouse].proposedGuests */\n      0x00\n      add\n        /* \"contracts/Wedding.sol\":6160:6201  guestLists[_spouse].proposedGuests.length */\n      dup1\n      sload\n      swap1\n      pop\n        /* \"contracts/Wedding.sol\":6156:6157  i */\n      dup2\n        /* \"contracts/Wedding.sol\":6156:6201  i < guestLists[_spouse].proposedGuests.length */\n      lt\n        /* \"contracts/Wedding.sol\":6139:6345  for (uint i = 0; i < guestLists[_spouse].proposedGuests.length; i++) {... */\n      iszero\n      tag_121\n      jumpi\n        /* \"contracts/Wedding.sol\":6271:6277  _guest */\n      dup4\n        /* \"contracts/Wedding.sol\":6230:6277  guestLists[_spouse].proposedGuests[i] == _guest */\n      0xffffffffffffffffffffffffffffffffffffffff\n      and\n        /* \"contracts/Wedding.sol\":6230:6240  guestLists */\n      0x01\n        /* \"contracts/Wedding.sol\":6230:6249  guestLists[_spouse] */\n      0x00\n        /* \"contracts/Wedding.sol\":6241:6248  _spouse */\n      dup8\n        /* \"contracts/Wedding.sol\":6230:6249  guestLists[_spouse] */\n      0xffffffffffffffffffffffffffffffffffffffff\n      and\n      0xffffffffffffffffffffffffffffffffffffffff\n      and\n      dup2\n      mstore\n      0x20\n      add\n      swap1\n      dup2\n      mstore\n      0x20\n      add\n      0x00\n      keccak256\n        /* \"contracts/Wedding.sol\":6230:6264  guestLists[_spouse].proposedGuests */\n      0x00\n      add\n        /* \"contracts/Wedding.sol\":6265:6266  i */\n      dup3\n        /* \"contracts/Wedding.sol\":6230:6267  guestLists[_spouse].proposedGuests[i] */\n      dup2\n      sload\n      dup2\n      lt\n      tag_123\n      jumpi\n      tag_124\n      tag_125\n      jump\t// in\n    tag_124:\n    tag_123:\n      swap1\n      0x00\n      mstore\n      keccak256(0x00, 0x20)\n      add\n      0x00\n      swap1\n      sload\n      swap1\n      0x0100\n      exp\n      swap1\n      div\n      0xffffffffffffffffffffffffffffffffffffffff\n      and\n        /* \"contracts/Wedding.sol\":6230:6277  guestLists[_spouse].proposedGuests[i] == _guest */\n      0xffffffffffffffffffffffffffffffffffffffff\n      and\n      sub\n        /* \"contracts/Wedding.sol\":6226:6331  if (guestLists[_spouse].proposedGuests[i] == _guest) {... */\n      tag_127\n      jumpi\n        /* \"contracts/Wedding.sol\":6308:6312  true */\n      0x01\n        /* \"contracts/Wedding.sol\":6301:6312  return true */\n      swap3\n      pop\n      pop\n      pop\n      jump(tag_117)\n        /* \"contracts/Wedding.sol\":6226:6331  if (guestLists[_spouse].proposedGuests[i] == _guest) {... */\n    tag_127:\n        /* \"contracts/Wedding.sol\":6203:6206  i++ */\n      dup1\n      dup1\n      tag_128\n      swap1\n      tag_129\n      jump\t// in\n    tag_128:\n      swap2\n      pop\n      pop\n        /* \"contracts/Wedding.sol\":6139:6345  for (uint i = 0; i < guestLists[_spouse].proposedGuests.length; i++) {... */\n      jump(tag_120)\n    tag_121:\n      pop\n        /* \"contracts/Wedding.sol\":6063:6355  if (guestList.spouse1Confirmed && guestList.spouse2Confirmed) {... */\n    tag_119:\n        /* \"contracts/Wedding.sol\":6371:6376  false */\n      0x00\n        /* \"contracts/Wedding.sol\":6364:6376  return false */\n      swap2\n      pop\n      pop\n        /* \"contracts/Wedding.sol\":5907:6383  function isGuestConfirmed(address _spouse, address _guest) public view returns (bool) {... */\n    tag_117:\n      swap3\n      swap2\n      pop\n      pop\n      jump\t// out\n        /* \"contracts/Wedding.sol\":7774:8246  function voteAgainstWedding(address _spouse) external ... */\n    tag_46:\n        /* \"contracts/Wedding.sol\":7847:7854  _spouse */\n      dup1\n        /* \"contracts/Wedding.sol\":1486:1490  true */\n      0x01\n        /* \"contracts/Wedding.sol\":1452:1490  engagements[_spouse].isEngaged == true */\n      iszero\n      iszero\n        /* \"contracts/Wedding.sol\":1452:1463  engagements */\n      0x00\n        /* \"contracts/Wedding.sol\":1452:1472  engagements[_spouse] */\n      dup1\n        /* \"contracts/Wedding.sol\":1464:1471  _spouse */\n      dup4\n        /* \"contracts/Wedding.sol\":1452:1472  engagements[_spouse] */\n      0xffffffffffffffffffffffffffffffffffffffff\n      and\n      0xffffffffffffffffffffffffffffffffffffffff\n      and\n      dup2\n      mstore\n      0x20\n      add\n      swap1\n      dup2\n      mstore\n      0x20\n      add\n      0x00\n      keccak256\n        /* \"contracts/Wedding.sol\":1452:1482  engagements[_spouse].isEngaged */\n      0x03\n      add\n      0x00\n      swap1\n      sload\n      swap1\n      0x0100\n      exp\n      swap1\n      div\n      0xff\n      and\n        /* \"contracts/Wedding.sol\":1452:1490  engagements[_spouse].isEngaged == true */\n      iszero\n      iszero\n      eq\n        /* \"contracts/Wedding.sol\":1444:1515  require(engagements[_spouse].isEngaged == true, \"Address not engaged.\") */\n      tag_131\n      jumpi\n      mload(0x40)\n      0x08c379a000000000000000000000000000000000000000000000000000000000\n      dup2\n      mstore\n      0x04\n      add\n      tag_132\n      swap1\n      tag_65\n      jump\t// in\n    tag_132:\n      mload(0x40)\n      dup1\n      swap2\n      sub\n      swap1\n      revert\n    tag_131:\n        /* \"contracts/Wedding.sol\":7878:7885  _spouse */\n      dup2\n        /* \"contracts/Wedding.sol\":2059:2064  false */\n      0x00\n        /* \"contracts/Wedding.sol\":2025:2064  engagements[_spouse].isRevoked == false */\n      iszero\n      iszero\n        /* \"contracts/Wedding.sol\":2025:2036  engagements */\n      0x00\n        /* \"contracts/Wedding.sol\":2025:2045  engagements[_spouse] */\n      dup1\n        /* \"contracts/Wedding.sol\":2037:2044  _spouse */\n      dup4\n        /* \"contracts/Wedding.sol\":2025:2045  engagements[_spouse] */\n      0xffffffffffffffffffffffffffffffffffffffff\n      and\n      0xffffffffffffffffffffffffffffffffffffffff\n      and\n      dup2\n      mstore\n      0x20\n      add\n      swap1\n      dup2\n      mstore\n      0x20\n      add\n      0x00\n      keccak256\n        /* \"contracts/Wedding.sol\":2025:2055  engagements[_spouse].isRevoked */\n      0x03\n      add\n      0x01\n      swap1\n      sload\n      swap1\n      0x0100\n      exp\n      swap1\n      div\n      0xff\n      and\n        /* \"contracts/Wedding.sol\":2025:2064  engagements[_spouse].isRevoked == false */\n      iszero\n      iszero\n      eq\n        /* \"contracts/Wedding.sol\":2017:2103  require(engagements[_spouse].isRevoked == false, \"The engagement is already revoked.\") */\n      tag_134\n      jumpi\n      mload(0x40)\n      0x08c379a000000000000000000000000000000000000000000000000000000000\n      dup2\n      mstore\n      0x04\n      add\n      tag_135\n      swap1\n      tag_69\n      jump\t// in\n    tag_135:\n      mload(0x40)\n      dup1\n      swap2\n      sub\n      swap1\n      revert\n    tag_134:\n        /* \"contracts/Wedding.sol\":7916:7923  _spouse */\n      dup3\n        /* \"contracts/Wedding.sol\":2185:2196  engagements */\n      0x00\n        /* \"contracts/Wedding.sol\":2185:2205  engagements[_spouse] */\n      dup1\n        /* \"contracts/Wedding.sol\":2197:2204  _spouse */\n      dup3\n        /* \"contracts/Wedding.sol\":2185:2205  engagements[_spouse] */\n      0xffffffffffffffffffffffffffffffffffffffff\n      and\n      0xffffffffffffffffffffffffffffffffffffffff\n      and\n      dup2\n      mstore\n      0x20\n      add\n      swap1\n      dup2\n      mstore\n      0x20\n      add\n      0x00\n      keccak256\n        /* \"contracts/Wedding.sol\":2185:2215  engagements[_spouse].isMarried */\n      0x03\n      add\n      0x02\n      swap1\n      sload\n      swap1\n      0x0100\n      exp\n      swap1\n      div\n      0xff\n      and\n        /* \"contracts/Wedding.sol\":2184:2215  !engagements[_spouse].isMarried */\n      iszero\n        /* \"contracts/Wedding.sol\":2176:2235  require(!engagements[_spouse].isMarried, \"Already married\") */\n      tag_137\n      jumpi\n      mload(0x40)\n      0x08c379a000000000000000000000000000000000000000000000000000000000\n      dup2\n      mstore\n      0x04\n      add\n      tag_138\n      swap1\n      tag_82\n      jump\t// in\n    tag_138:\n      mload(0x40)\n      dup1\n      swap2\n      sub\n      swap1\n      revert\n    tag_137:\n        /* \"contracts/Wedding.sol\":7950:7957  _spouse */\n      dup4\n        /* \"contracts/Wedding.sol\":2321:2358  isGuestConfirmed(_spouse, msg.sender) */\n      tag_140\n        /* \"contracts/Wedding.sol\":2338:2345  _spouse */\n      dup2\n        /* \"contracts/Wedding.sol\":2347:2357  msg.sender */\n      caller\n        /* \"contracts/Wedding.sol\":2321:2337  isGuestConfirmed */\n      tag_41\n        /* \"contracts/Wedding.sol\":2321:2358  isGuestConfirmed(_spouse, msg.sender) */\n      jump\t// in\n    tag_140:\n        /* \"contracts/Wedding.sol\":2313:2384  require(isGuestConfirmed(_spouse, msg.sender), \"Not a confirmed guest\") */\n      tag_141\n      jumpi\n      mload(0x40)\n      0x08c379a000000000000000000000000000000000000000000000000000000000\n      dup2\n      mstore\n      0x04\n      add\n      tag_142\n      swap1\n      tag_143\n      jump\t// in\n    tag_142:\n      mload(0x40)\n      dup1\n      swap2\n      sub\n      swap1\n      revert\n    tag_141:\n        /* \"contracts/Wedding.sol\":7979:7986  _spouse */\n      dup5\n        /* \"contracts/Wedding.sol\":2535:2545  guestLists */\n      0x01\n        /* \"contracts/Wedding.sol\":2535:2554  guestLists[_spouse] */\n      0x00\n        /* \"contracts/Wedding.sol\":2546:2553  _spouse */\n      dup3\n        /* \"contracts/Wedding.sol\":2535:2554  guestLists[_spouse] */\n      0xffffffffffffffffffffffffffffffffffffffff\n      and\n      0xffffffffffffffffffffffffffffffffffffffff\n      and\n      dup2\n      mstore\n      0x20\n      add\n      swap1\n      dup2\n      mstore\n      0x20\n      add\n      0x00\n      keccak256\n        /* \"contracts/Wedding.sol\":2535:2570  guestLists[_spouse].hasVotedAgainst */\n      0x02\n      add\n        /* \"contracts/Wedding.sol\":2535:2582  guestLists[_spouse].hasVotedAgainst[msg.sender] */\n      0x00\n        /* \"contracts/Wedding.sol\":2571:2581  msg.sender */\n      caller\n        /* \"contracts/Wedding.sol\":2535:2582  guestLists[_spouse].hasVotedAgainst[msg.sender] */\n      0xffffffffffffffffffffffffffffffffffffffff\n      and\n      0xffffffffffffffffffffffffffffffffffffffff\n      and\n      dup2\n      mstore\n      0x20\n      add\n      swap1\n      dup2\n      mstore\n      0x20\n      add\n      0x00\n      keccak256\n      0x00\n      swap1\n      sload\n      swap1\n      0x0100\n      exp\n      swap1\n      div\n      0xff\n      and\n        /* \"contracts/Wedding.sol\":2534:2582  !guestLists[_spouse].hasVotedAgainst[msg.sender] */\n      iszero\n        /* \"contracts/Wedding.sol\":2526:2600  require(!guestLists[_spouse].hasVotedAgainst[msg.sender], \"Already voted\") */\n      tag_145\n      jumpi\n      mload(0x40)\n      0x08c379a000000000000000000000000000000000000000000000000000000000\n      dup2\n      mstore\n      0x04\n      add\n      tag_146\n      swap1\n      tag_147\n      jump\t// in\n    tag_146:\n      mload(0x40)\n      dup1\n      swap2\n      sub\n      swap1\n      revert\n    tag_145:\n        /* \"contracts/Wedding.sol\":8002:8029  GuestList storage guestList */\n      0x00\n        /* \"contracts/Wedding.sol\":8032:8042  guestLists */\n      0x01\n        /* \"contracts/Wedding.sol\":8032:8051  guestLists[_spouse] */\n      0x00\n        /* \"contracts/Wedding.sol\":8043:8050  _spouse */\n      dup9\n        /* \"contracts/Wedding.sol\":8032:8051  guestLists[_spouse] */\n      0xffffffffffffffffffffffffffffffffffffffff\n      and\n      0xffffffffffffffffffffffffffffffffffffffff\n      and\n      dup2\n      mstore\n      0x20\n      add\n      swap1\n      dup2\n      mstore\n      0x20\n      add\n      0x00\n      keccak256\n        /* \"contracts/Wedding.sol\":8002:8051  GuestList storage guestList = guestLists[_spouse] */\n      swap1\n      pop\n        /* \"contracts/Wedding.sol\":8102:8106  true */\n      0x01\n        /* \"contracts/Wedding.sol\":8062:8071  guestList */\n      dup2\n        /* \"contracts/Wedding.sol\":8062:8087  guestList.hasVotedAgainst */\n      0x02\n      add\n        /* \"contracts/Wedding.sol\":8062:8099  guestList.hasVotedAgainst[msg.sender] */\n      0x00\n        /* \"contracts/Wedding.sol\":8088:8098  msg.sender */\n      caller\n        /* \"contracts/Wedding.sol\":8062:8099  guestList.hasVotedAgainst[msg.sender] */\n      0xffffffffffffffffffffffffffffffffffffffff\n      and\n      0xffffffffffffffffffffffffffffffffffffffff\n      and\n      dup2\n      mstore\n      0x20\n      add\n      swap1\n      dup2\n      mstore\n      0x20\n      add\n      0x00\n      keccak256\n      0x00\n        /* \"contracts/Wedding.sol\":8062:8106  guestList.hasVotedAgainst[msg.sender] = true */\n      0x0100\n      exp\n      dup2\n      sload\n      dup2\n      0xff\n      mul\n      not\n      and\n      swap1\n      dup4\n      iszero\n      iszero\n      mul\n      or\n      swap1\n      sstore\n      pop\n        /* \"contracts/Wedding.sol\":8116:8125  guestList */\n      dup1\n        /* \"contracts/Wedding.sol\":8116:8138  guestList.votesAgainst */\n      0x03\n      add\n      0x00\n        /* \"contracts/Wedding.sol\":8116:8140  guestList.votesAgainst++ */\n      dup2\n      sload\n      dup1\n      swap3\n      swap2\n      swap1\n      tag_149\n      swap1\n      tag_129\n      jump\t// in\n    tag_149:\n      swap2\n      swap1\n      pop\n      sstore\n      pop\n        /* \"contracts/Wedding.sol\":8155:8193  GuestVotedAgainst(msg.sender, _spouse) */\n      0xa9862c5f43caca0b960b097a111ce8c3752d27df0e0f1f170b4a06a823e612b1\n        /* \"contracts/Wedding.sol\":8173:8183  msg.sender */\n      caller\n        /* \"contracts/Wedding.sol\":8185:8192  _spouse */\n      dup9\n        /* \"contracts/Wedding.sol\":8155:8193  GuestVotedAgainst(msg.sender, _spouse) */\n      mload(0x40)\n      tag_150\n      swap3\n      swap2\n      swap1\n      tag_90\n      jump\t// in\n    tag_150:\n      mload(0x40)\n      dup1\n      swap2\n      sub\n      swap1\n      log1\n        /* \"contracts/Wedding.sol\":8204:8239  _checkAndInvalidateWedding(_spouse) */\n      tag_151\n        /* \"contracts/Wedding.sol\":8231:8238  _spouse */\n      dup8\n        /* \"contracts/Wedding.sol\":8204:8230  _checkAndInvalidateWedding */\n      tag_152\n        /* \"contracts/Wedding.sol\":8204:8239  _checkAndInvalidateWedding(_spouse) */\n      jump\t// in\n    tag_151:\n        /* \"contracts/Wedding.sol\":7992:8246  {... */\n      pop\n        /* \"contracts/Wedding.sol\":2394:2395  _ */\n      pop\n        /* \"contracts/Wedding.sol\":2245:2246  _ */\n      pop\n        /* \"contracts/Wedding.sol\":2113:2114  _ */\n      pop\n        /* \"contracts/Wedding.sol\":1525:1526  _ */\n      pop\n        /* \"contracts/Wedding.sol\":7774:8246  function voteAgainstWedding(address _spouse) external ... */\n      pop\n      pop\n      jump\t// out\n        /* \"contracts/Wedding.sol\":557:606  mapping(address => Engagement) public engagements */\n    tag_49:\n      mstore(0x20, 0x00)\n      dup1\n      0x00\n      mstore\n      keccak256(0x00, 0x40)\n      0x00\n      swap2\n      pop\n      swap1\n      pop\n      dup1\n      0x00\n      add\n      0x00\n      swap1\n      sload\n      swap1\n      0x0100\n      exp\n      swap1\n      div\n      0xffffffffffffffffffffffffffffffffffffffff\n      and\n      swap1\n      dup1\n      0x01\n      add\n      0x00\n      swap1\n      sload\n      swap1\n      0x0100\n      exp\n      swap1\n      div\n      0xffffffffffffffffffffffffffffffffffffffff\n      and\n      swap1\n      dup1\n      0x02\n      add\n      sload\n      swap1\n      dup1\n      0x03\n      add\n      0x00\n      swap1\n      sload\n      swap1\n      0x0100\n      exp\n      swap1\n      div\n      0xff\n      and\n      swap1\n      dup1\n      0x03\n      add\n      0x01\n      swap1\n      sload\n      swap1\n      0x0100\n      exp\n      swap1\n      div\n      0xff\n      and\n      swap1\n      dup1\n      0x03\n      add\n      0x02\n      swap1\n      sload\n      swap1\n      0x0100\n      exp\n      swap1\n      div\n      0xff\n      and\n      swap1\n      dup1\n      0x03\n      add\n      0x03\n      swap1\n      sload\n      swap1\n      0x0100\n      exp\n      swap1\n      div\n      0xff\n      and\n      swap1\n      dup1\n      0x03\n      add\n      0x04\n      swap1\n      sload\n      swap1\n      0x0100\n      exp\n      swap1\n      div\n      0xff\n      and\n      swap1\n      pop\n      dup9\n      jump\t// out\n        /* \"contracts/Wedding.sol\":9179:9478  function getEngagementInfo(address _spouse) external view returns (address, address, uint256, bool, bool) {... */\n    tag_54:\n        /* \"contracts/Wedding.sol\":9246:9253  address */\n      0x00\n        /* \"contracts/Wedding.sol\":9255:9262  address */\n      dup1\n        /* \"contracts/Wedding.sol\":9264:9271  uint256 */\n      0x00\n        /* \"contracts/Wedding.sol\":9273:9277  bool */\n      dup1\n        /* \"contracts/Wedding.sol\":9279:9283  bool */\n      0x00\n        /* \"contracts/Wedding.sol\":9295:9323  Engagement memory engagement */\n      dup1\n        /* \"contracts/Wedding.sol\":9326:9337  engagements */\n      0x00\n        /* \"contracts/Wedding.sol\":9326:9346  engagements[_spouse] */\n      dup1\n        /* \"contracts/Wedding.sol\":9338:9345  _spouse */\n      dup9\n        /* \"contracts/Wedding.sol\":9326:9346  engagements[_spouse] */\n      0xffffffffffffffffffffffffffffffffffffffff\n      and\n      0xffffffffffffffffffffffffffffffffffffffff\n      and\n      dup2\n      mstore\n      0x20\n      add\n      swap1\n      dup2\n      mstore\n      0x20\n      add\n      0x00\n      keccak256\n        /* \"contracts/Wedding.sol\":9295:9346  Engagement memory engagement = engagements[_spouse] */\n      mload(0x40)\n      dup1\n      0x0100\n      add\n      0x40\n      mstore\n      swap1\n      dup2\n      0x00\n      dup3\n      add\n      0x00\n      swap1\n      sload\n      swap1\n      0x0100\n      exp\n      swap1\n      div\n      0xffffffffffffffffffffffffffffffffffffffff\n      and\n      0xffffffffffffffffffffffffffffffffffffffff\n      and\n      0xffffffffffffffffffffffffffffffffffffffff\n      and\n      dup2\n      mstore\n      0x20\n      add\n      0x01\n      dup3\n      add\n      0x00\n      swap1\n      sload\n      swap1\n      0x0100\n      exp\n      swap1\n      div\n      0xffffffffffffffffffffffffffffffffffffffff\n      and\n      0xffffffffffffffffffffffffffffffffffffffff\n      and\n      0xffffffffffffffffffffffffffffffffffffffff\n      and\n      dup2\n      mstore\n      0x20\n      add\n      0x02\n      dup3\n      add\n      sload\n      dup2\n      mstore\n      0x20\n      add\n      0x03\n      dup3\n      add\n      0x00\n      swap1\n      sload\n      swap1\n      0x0100\n      exp\n      swap1\n      div\n      0xff\n      and\n      iszero\n      iszero\n      iszero\n      iszero\n      dup2\n      mstore\n      0x20\n      add\n      0x03\n      dup3\n      add\n      0x01\n      swap1\n      sload\n      swap1\n      0x0100\n      exp\n      swap1\n      div\n      0xff\n      and\n      iszero\n      iszero\n      iszero\n      iszero\n      dup2\n      mstore\n      0x20\n      add\n      0x03\n      dup3\n      add\n      0x02\n      swap1\n      sload\n      swap1\n      0x0100\n      exp\n      swap1\n      div\n      0xff\n      and\n      iszero\n      iszero\n      iszero\n      iszero\n      dup2\n      mstore\n      0x20\n      add\n      0x03\n      dup3\n      add\n      0x03\n      swap1\n      sload\n      swap1\n      0x0100\n      exp\n      swap1\n      div\n      0xff\n      and\n      iszero\n      iszero\n      iszero\n      iszero\n      dup2\n      mstore\n      0x20\n      add\n      0x03\n      dup3\n      add\n      0x04\n      swap1\n      sload\n      swap1\n      0x0100\n      exp\n      swap1\n      div\n      0xff\n      and\n      iszero\n      iszero\n      iszero\n      iszero\n      dup2\n      mstore\n      pop\n      pop\n      swap1\n      pop\n        /* \"contracts/Wedding.sol\":9364:9374  engagement */\n      dup1\n        /* \"contracts/Wedding.sol\":9364:9382  engagement.spouse1 */\n      0x00\n      add\n      mload\n        /* \"contracts/Wedding.sol\":9384:9394  engagement */\n      dup2\n        /* \"contracts/Wedding.sol\":9384:9402  engagement.spouse2 */\n      0x20\n      add\n      mload\n        /* \"contracts/Wedding.sol\":9404:9414  engagement */\n      dup3\n        /* \"contracts/Wedding.sol\":9404:9426  engagement.weddingDate */\n      0x40\n      add\n      mload\n        /* \"contracts/Wedding.sol\":9428:9438  engagement */\n      dup4\n        /* \"contracts/Wedding.sol\":9428:9448  engagement.isEngaged */\n      0x60\n      add\n      mload\n        /* \"contracts/Wedding.sol\":9450:9460  engagement */\n      dup5\n        /* \"contracts/Wedding.sol\":9450:9470  engagement.isRevoked */\n      0x80\n      add\n      mload\n        /* \"contracts/Wedding.sol\":9356:9471  return (engagement.spouse1, engagement.spouse2, engagement.weddingDate, engagement.isEngaged, engagement.isRevoked) */\n      swap6\n      pop\n      swap6\n      pop\n      swap6\n      pop\n      swap6\n      pop\n      swap6\n      pop\n      pop\n        /* \"contracts/Wedding.sol\":9179:9478  function getEngagementInfo(address _spouse) external view returns (address, address, uint256, bool, bool) {... */\n      swap2\n      swap4\n      swap6\n      swap1\n      swap3\n      swap5\n      pop\n      jump\t// out\n        /* \"contracts/Wedding.sol\":5094:5901  function confirmGuestList() external isEngaged(msg.sender) isEngagedParty(msg.sender) {... */\n    tag_58:\n        /* \"contracts/Wedding.sol\":5141:5151  msg.sender */\n      caller\n        /* \"contracts/Wedding.sol\":1486:1490  true */\n      0x01\n        /* \"contracts/Wedding.sol\":1452:1490  engagements[_spouse].isEngaged == true */\n      iszero\n      iszero\n        /* \"contracts/Wedding.sol\":1452:1463  engagements */\n      0x00\n        /* \"contracts/Wedding.sol\":1452:1472  engagements[_spouse] */\n      dup1\n        /* \"contracts/Wedding.sol\":1464:1471  _spouse */\n      dup4\n        /* \"contracts/Wedding.sol\":1452:1472  engagements[_spouse] */\n      0xffffffffffffffffffffffffffffffffffffffff\n      and\n      0xffffffffffffffffffffffffffffffffffffffff\n      and\n      dup2\n      mstore\n      0x20\n      add\n      swap1\n      dup2\n      mstore\n      0x20\n      add\n      0x00\n      keccak256\n        /* \"contracts/Wedding.sol\":1452:1482  engagements[_spouse].isEngaged */\n      0x03\n      add\n      0x00\n      swap1\n      sload\n      swap1\n      0x0100\n      exp\n      swap1\n      div\n      0xff\n      and\n        /* \"contracts/Wedding.sol\":1452:1490  engagements[_spouse].isEngaged == true */\n      iszero\n      iszero\n      eq\n        /* \"contracts/Wedding.sol\":1444:1515  require(engagements[_spouse].isEngaged == true, \"Address not engaged.\") */\n      tag_155\n      jumpi\n      mload(0x40)\n      0x08c379a000000000000000000000000000000000000000000000000000000000\n      dup2\n      mstore\n      0x04\n      add\n      tag_156\n      swap1\n      tag_65\n      jump\t// in\n    tag_156:\n      mload(0x40)\n      dup1\n      swap2\n      sub\n      swap1\n      revert\n    tag_155:\n        /* \"contracts/Wedding.sol\":5168:5178  msg.sender */\n      caller\n        /* \"contracts/Wedding.sol\":1590:1618  Engagement memory engagement */\n      0x00\n        /* \"contracts/Wedding.sol\":1621:1632  engagements */\n      dup1\n        /* \"contracts/Wedding.sol\":1621:1641  engagements[_spouse] */\n      0x00\n        /* \"contracts/Wedding.sol\":1633:1640  _spouse */\n      dup4\n        /* \"contracts/Wedding.sol\":1621:1641  engagements[_spouse] */\n      0xffffffffffffffffffffffffffffffffffffffff\n      and\n      0xffffffffffffffffffffffffffffffffffffffff\n      and\n      dup2\n      mstore\n      0x20\n      add\n      swap1\n      dup2\n      mstore\n      0x20\n      add\n      0x00\n      keccak256\n        /* \"contracts/Wedding.sol\":1590:1641  Engagement memory engagement = engagements[_spouse] */\n      mload(0x40)\n      dup1\n      0x0100\n      add\n      0x40\n      mstore\n      swap1\n      dup2\n      0x00\n      dup3\n      add\n      0x00\n      swap1\n      sload\n      swap1\n      0x0100\n      exp\n      swap1\n      div\n      0xffffffffffffffffffffffffffffffffffffffff\n      and\n      0xffffffffffffffffffffffffffffffffffffffff\n      and\n      0xffffffffffffffffffffffffffffffffffffffff\n      and\n      dup2\n      mstore\n      0x20\n      add\n      0x01\n      dup3\n      add\n      0x00\n      swap1\n      sload\n      swap1\n      0x0100\n      exp\n      swap1\n      div\n      0xffffffffffffffffffffffffffffffffffffffff\n      and\n      0xffffffffffffffffffffffffffffffffffffffff\n      and\n      0xffffffffffffffffffffffffffffffffffffffff\n      and\n      dup2\n      mstore\n      0x20\n      add\n      0x02\n      dup3\n      add\n      sload\n      dup2\n      mstore\n      0x20\n      add\n      0x03\n      dup3\n      add\n      0x00\n      swap1\n      sload\n      swap1\n      0x0100\n      exp\n      swap1\n      div\n      0xff\n      and\n      iszero\n      iszero\n      iszero\n      iszero\n      dup2\n      mstore\n      0x20\n      add\n      0x03\n      dup3\n      add\n      0x01\n      swap1\n      sload\n      swap1\n      0x0100\n      exp\n      swap1\n      div\n      0xff\n      and\n      iszero\n      iszero\n      iszero\n      iszero\n      dup2\n      mstore\n      0x20\n      add\n      0x03\n      dup3\n      add\n      0x02\n      swap1\n      sload\n      swap1\n      0x0100\n      exp\n      swap1\n      div\n      0xff\n      and\n      iszero\n      iszero\n      iszero\n      iszero\n      dup2\n      mstore\n      0x20\n      add\n      0x03\n      dup3\n      add\n      0x03\n      swap1\n      sload\n      swap1\n      0x0100\n      exp\n      swap1\n      div\n      0xff\n      and\n      iszero\n      iszero\n      iszero\n      iszero\n      dup2\n      mstore\n      0x20\n      add\n      0x03\n      dup3\n      add\n      0x04\n      swap1\n      sload\n      swap1\n      0x0100\n      exp\n      swap1\n      div\n      0xff\n      and\n      iszero\n      iszero\n      iszero\n      iszero\n      dup2\n      mstore\n      pop\n      pop\n      swap1\n      pop\n        /* \"contracts/Wedding.sol\":1686:1696  engagement */\n      dup1\n        /* \"contracts/Wedding.sol\":1686:1704  engagement.spouse1 */\n      0x00\n      add\n      mload\n        /* \"contracts/Wedding.sol\":1672:1704  msg.sender == engagement.spouse1 */\n      0xffffffffffffffffffffffffffffffffffffffff\n      and\n        /* \"contracts/Wedding.sol\":1672:1682  msg.sender */\n      caller\n        /* \"contracts/Wedding.sol\":1672:1704  msg.sender == engagement.spouse1 */\n      0xffffffffffffffffffffffffffffffffffffffff\n      and\n      eq\n        /* \"contracts/Wedding.sol\":1672:1740  msg.sender == engagement.spouse1 || msg.sender == engagement.spouse2 */\n      dup1\n      tag_158\n      jumpi\n      pop\n        /* \"contracts/Wedding.sol\":1722:1732  engagement */\n      dup1\n        /* \"contracts/Wedding.sol\":1722:1740  engagement.spouse2 */\n      0x20\n      add\n      mload\n        /* \"contracts/Wedding.sol\":1708:1740  msg.sender == engagement.spouse2 */\n      0xffffffffffffffffffffffffffffffffffffffff\n      and\n        /* \"contracts/Wedding.sol\":1708:1718  msg.sender */\n      caller\n        /* \"contracts/Wedding.sol\":1708:1740  msg.sender == engagement.spouse2 */\n      0xffffffffffffffffffffffffffffffffffffffff\n      and\n      eq\n        /* \"contracts/Wedding.sol\":1672:1740  msg.sender == engagement.spouse1 || msg.sender == engagement.spouse2 */\n    tag_158:\n        /* \"contracts/Wedding.sol\":1651:1807  require(... */\n      tag_159\n      jumpi\n      mload(0x40)\n      0x08c379a000000000000000000000000000000000000000000000000000000000\n      dup2\n      mstore\n      0x04\n      add\n      tag_160\n      swap1\n      tag_98\n      jump\t// in\n    tag_160:\n      mload(0x40)\n      dup1\n      swap2\n      sub\n      swap1\n      revert\n    tag_159:\n        /* \"contracts/Wedding.sol\":5190:5219  Engagement storage engagement */\n      0x00\n        /* \"contracts/Wedding.sol\":5222:5233  engagements */\n      dup1\n        /* \"contracts/Wedding.sol\":5222:5245  engagements[msg.sender] */\n      0x00\n        /* \"contracts/Wedding.sol\":5234:5244  msg.sender */\n      caller\n        /* \"contracts/Wedding.sol\":5222:5245  engagements[msg.sender] */\n      0xffffffffffffffffffffffffffffffffffffffff\n      and\n      0xffffffffffffffffffffffffffffffffffffffff\n      and\n      dup2\n      mstore\n      0x20\n      add\n      swap1\n      dup2\n      mstore\n      0x20\n      add\n      0x00\n      keccak256\n        /* \"contracts/Wedding.sol\":5190:5245  Engagement storage engagement = engagements[msg.sender] */\n      swap1\n      pop\n        /* \"contracts/Wedding.sol\":5325:5335  engagement */\n      dup1\n        /* \"contracts/Wedding.sol\":5325:5343  engagement.spouse1 */\n      0x00\n      add\n      0x00\n      swap1\n      sload\n      swap1\n      0x0100\n      exp\n      swap1\n      div\n      0xffffffffffffffffffffffffffffffffffffffff\n      and\n        /* \"contracts/Wedding.sol\":5311:5343  msg.sender == engagement.spouse1 */\n      0xffffffffffffffffffffffffffffffffffffffff\n      and\n        /* \"contracts/Wedding.sol\":5311:5321  msg.sender */\n      caller\n        /* \"contracts/Wedding.sol\":5311:5343  msg.sender == engagement.spouse1 */\n      0xffffffffffffffffffffffffffffffffffffffff\n      and\n      sub\n        /* \"contracts/Wedding.sol\":5307:5645  if (msg.sender == engagement.spouse1) {... */\n      tag_162\n      jumpi\n        /* \"contracts/Wedding.sol\":5409:5413  true */\n      0x01\n        /* \"contracts/Wedding.sol\":5359:5369  guestLists */\n      dup1\n        /* \"contracts/Wedding.sol\":5359:5389  guestLists[engagement.spouse1] */\n      0x00\n        /* \"contracts/Wedding.sol\":5370:5380  engagement */\n      dup4\n        /* \"contracts/Wedding.sol\":5370:5388  engagement.spouse1 */\n      0x00\n      add\n      0x00\n      swap1\n      sload\n      swap1\n      0x0100\n      exp\n      swap1\n      div\n      0xffffffffffffffffffffffffffffffffffffffff\n      and\n        /* \"contracts/Wedding.sol\":5359:5389  guestLists[engagement.spouse1] */\n      0xffffffffffffffffffffffffffffffffffffffff\n      and\n      0xffffffffffffffffffffffffffffffffffffffff\n      and\n      dup2\n      mstore\n      0x20\n      add\n      swap1\n      dup2\n      mstore\n      0x20\n      add\n      0x00\n      keccak256\n        /* \"contracts/Wedding.sol\":5359:5406  guestLists[engagement.spouse1].spouse1Confirmed */\n      0x01\n      add\n      0x00\n        /* \"contracts/Wedding.sol\":5359:5413  guestLists[engagement.spouse1].spouse1Confirmed = true */\n      0x0100\n      exp\n      dup2\n      sload\n      dup2\n      0xff\n      mul\n      not\n      and\n      swap1\n      dup4\n      iszero\n      iszero\n      mul\n      or\n      swap1\n      sstore\n      pop\n        /* \"contracts/Wedding.sol\":5477:5481  true */\n      0x01\n        /* \"contracts/Wedding.sol\":5427:5437  guestLists */\n      dup1\n        /* \"contracts/Wedding.sol\":5427:5457  guestLists[engagement.spouse2] */\n      0x00\n        /* \"contracts/Wedding.sol\":5438:5448  engagement */\n      dup4\n        /* \"contracts/Wedding.sol\":5438:5456  engagement.spouse2 */\n      0x01\n      add\n      0x00\n      swap1\n      sload\n      swap1\n      0x0100\n      exp\n      swap1\n      div\n      0xffffffffffffffffffffffffffffffffffffffff\n      and\n        /* \"contracts/Wedding.sol\":5427:5457  guestLists[engagement.spouse2] */\n      0xffffffffffffffffffffffffffffffffffffffff\n      and\n      0xffffffffffffffffffffffffffffffffffffffff\n      and\n      dup2\n      mstore\n      0x20\n      add\n      swap1\n      dup2\n      mstore\n      0x20\n      add\n      0x00\n      keccak256\n        /* \"contracts/Wedding.sol\":5427:5474  guestLists[engagement.spouse2].spouse1Confirmed */\n      0x01\n      add\n      0x00\n        /* \"contracts/Wedding.sol\":5427:5481  guestLists[engagement.spouse2].spouse1Confirmed = true */\n      0x0100\n      exp\n      dup2\n      sload\n      dup2\n      0xff\n      mul\n      not\n      and\n      swap1\n      dup4\n      iszero\n      iszero\n      mul\n      or\n      swap1\n      sstore\n      pop\n        /* \"contracts/Wedding.sol\":5307:5645  if (msg.sender == engagement.spouse1) {... */\n      jump(tag_163)\n    tag_162:\n        /* \"contracts/Wedding.sol\":5562:5566  true */\n      0x01\n        /* \"contracts/Wedding.sol\":5512:5522  guestLists */\n      dup1\n        /* \"contracts/Wedding.sol\":5512:5542  guestLists[engagement.spouse1] */\n      0x00\n        /* \"contracts/Wedding.sol\":5523:5533  engagement */\n      dup4\n        /* \"contracts/Wedding.sol\":5523:5541  engagement.spouse1 */\n      0x00\n      add\n      0x00\n      swap1\n      sload\n      swap1\n      0x0100\n      exp\n      swap1\n      div\n      0xffffffffffffffffffffffffffffffffffffffff\n      and\n        /* \"contracts/Wedding.sol\":5512:5542  guestLists[engagement.spouse1] */\n      0xffffffffffffffffffffffffffffffffffffffff\n      and\n      0xffffffffffffffffffffffffffffffffffffffff\n      and\n      dup2\n      mstore\n      0x20\n      add\n      swap1\n      dup2\n      mstore\n      0x20\n      add\n      0x00\n      keccak256\n        /* \"contracts/Wedding.sol\":5512:5559  guestLists[engagement.spouse1].spouse2Confirmed */\n      0x01\n      add\n      0x01\n        /* \"contracts/Wedding.sol\":5512:5566  guestLists[engagement.spouse1].spouse2Confirmed = true */\n      0x0100\n      exp\n      dup2\n      sload\n      dup2\n      0xff\n      mul\n      not\n      and\n      swap1\n      dup4\n      iszero\n      iszero\n      mul\n      or\n      swap1\n      sstore\n      pop\n        /* \"contracts/Wedding.sol\":5630:5634  true */\n      0x01\n        /* \"contracts/Wedding.sol\":5580:5590  guestLists */\n      dup1\n        /* \"contracts/Wedding.sol\":5580:5610  guestLists[engagement.spouse2] */\n      0x00\n        /* \"contracts/Wedding.sol\":5591:5601  engagement */\n      dup4\n        /* \"contracts/Wedding.sol\":5591:5609  engagement.spouse2 */\n      0x01\n      add\n      0x00\n      swap1\n      sload\n      swap1\n      0x0100\n      exp\n      swap1\n      div\n      0xffffffffffffffffffffffffffffffffffffffff\n      and\n        /* \"contracts/Wedding.sol\":5580:5610  guestLists[engagement.spouse2] */\n      0xffffffffffffffffffffffffffffffffffffffff\n      and\n      0xffffffffffffffffffffffffffffffffffffffff\n      and\n      dup2\n      mstore\n      0x20\n      add\n      swap1\n      dup2\n      mstore\n      0x20\n      add\n      0x00\n      keccak256\n        /* \"contracts/Wedding.sol\":5580:5627  guestLists[engagement.spouse2].spouse2Confirmed */\n      0x01\n      add\n      0x01\n        /* \"contracts/Wedding.sol\":5580:5634  guestLists[engagement.spouse2].spouse2Confirmed = true */\n      0x0100\n      exp\n      dup2\n      sload\n      dup2\n      0xff\n      mul\n      not\n      and\n      swap1\n      dup4\n      iszero\n      iszero\n      mul\n      or\n      swap1\n      sstore\n      pop\n        /* \"contracts/Wedding.sol\":5307:5645  if (msg.sender == engagement.spouse1) {... */\n    tag_163:\n        /* \"contracts/Wedding.sol\":5727:5737  guestLists */\n      0x01\n        /* \"contracts/Wedding.sol\":5727:5757  guestLists[engagement.spouse1] */\n      0x00\n        /* \"contracts/Wedding.sol\":5738:5748  engagement */\n      dup3\n        /* \"contracts/Wedding.sol\":5738:5756  engagement.spouse1 */\n      0x00\n      add\n      0x00\n      swap1\n      sload\n      swap1\n      0x0100\n      exp\n      swap1\n      div\n      0xffffffffffffffffffffffffffffffffffffffff\n      and\n        /* \"contracts/Wedding.sol\":5727:5757  guestLists[engagement.spouse1] */\n      0xffffffffffffffffffffffffffffffffffffffff\n      and\n      0xffffffffffffffffffffffffffffffffffffffff\n      and\n      dup2\n      mstore\n      0x20\n      add\n      swap1\n      dup2\n      mstore\n      0x20\n      add\n      0x00\n      keccak256\n        /* \"contracts/Wedding.sol\":5727:5774  guestLists[engagement.spouse1].spouse1Confirmed */\n      0x01\n      add\n      0x00\n      swap1\n      sload\n      swap1\n      0x0100\n      exp\n      swap1\n      div\n      0xff\n      and\n        /* \"contracts/Wedding.sol\":5727:5825  guestLists[engagement.spouse1].spouse1Confirmed && guestLists[engagement.spouse1].spouse2Confirmed */\n      dup1\n      iszero\n      tag_164\n      jumpi\n      pop\n        /* \"contracts/Wedding.sol\":5778:5788  guestLists */\n      0x01\n        /* \"contracts/Wedding.sol\":5778:5808  guestLists[engagement.spouse1] */\n      0x00\n        /* \"contracts/Wedding.sol\":5789:5799  engagement */\n      dup3\n        /* \"contracts/Wedding.sol\":5789:5807  engagement.spouse1 */\n      0x00\n      add\n      0x00\n      swap1\n      sload\n      swap1\n      0x0100\n      exp\n      swap1\n      div\n      0xffffffffffffffffffffffffffffffffffffffff\n      and\n        /* \"contracts/Wedding.sol\":5778:5808  guestLists[engagement.spouse1] */\n      0xffffffffffffffffffffffffffffffffffffffff\n      and\n      0xffffffffffffffffffffffffffffffffffffffff\n      and\n      dup2\n      mstore\n      0x20\n      add\n      swap1\n      dup2\n      mstore\n      0x20\n      add\n      0x00\n      keccak256\n        /* \"contracts/Wedding.sol\":5778:5825  guestLists[engagement.spouse1].spouse2Confirmed */\n      0x01\n      add\n      0x01\n      swap1\n      sload\n      swap1\n      0x0100\n      exp\n      swap1\n      div\n      0xff\n      and\n        /* \"contracts/Wedding.sol\":5727:5825  guestLists[engagement.spouse1].spouse1Confirmed && guestLists[engagement.spouse1].spouse2Confirmed */\n    tag_164:\n        /* \"contracts/Wedding.sol\":5723:5895  if (guestLists[engagement.spouse1].spouse1Confirmed && guestLists[engagement.spouse1].spouse2Confirmed) {... */\n      iszero\n      tag_165\n      jumpi\n        /* \"contracts/Wedding.sol\":5846:5884  GuestListConfirmed(engagement.spouse1) */\n      0xffacc21903a9db21c6031d4c12c9825f13ac6469f9b894f7058a45cf1f9a3e8d\n        /* \"contracts/Wedding.sol\":5865:5875  engagement */\n      dup2\n        /* \"contracts/Wedding.sol\":5865:5883  engagement.spouse1 */\n      0x00\n      add\n      0x00\n      swap1\n      sload\n      swap1\n      0x0100\n      exp\n      swap1\n      div\n      0xffffffffffffffffffffffffffffffffffffffff\n      and\n        /* \"contracts/Wedding.sol\":5846:5884  GuestListConfirmed(engagement.spouse1) */\n      mload(0x40)\n      tag_166\n      swap2\n      swap1\n      tag_167\n      jump\t// in\n    tag_166:\n      mload(0x40)\n      dup1\n      swap2\n      sub\n      swap1\n      log1\n        /* \"contracts/Wedding.sol\":5723:5895  if (guestLists[engagement.spouse1].spouse1Confirmed && guestLists[engagement.spouse1].spouse2Confirmed) {... */\n    tag_165:\n        /* \"contracts/Wedding.sol\":5180:5901  {... */\n      pop\n        /* \"contracts/Wedding.sol\":1580:1825  {... */\n      pop\n        /* \"contracts/Wedding.sol\":1525:1526  _ */\n      pop\n        /* \"contracts/Wedding.sol\":5094:5901  function confirmGuestList() external isEngaged(msg.sender) isEngagedParty(msg.sender) {... */\n      pop\n      jump\t// out\n        /* \"contracts/Wedding.sol\":8288:9004  function _checkAndInvalidateWedding(address _spouse) internal ... */\n    tag_152:\n        /* \"contracts/Wedding.sol\":8369:8376  _spouse */\n      dup1\n        /* \"contracts/Wedding.sol\":1486:1490  true */\n      0x01\n        /* \"contracts/Wedding.sol\":1452:1490  engagements[_spouse].isEngaged == true */\n      iszero\n      iszero\n        /* \"contracts/Wedding.sol\":1452:1463  engagements */\n      0x00\n        /* \"contracts/Wedding.sol\":1452:1472  engagements[_spouse] */\n      dup1\n        /* \"contracts/Wedding.sol\":1464:1471  _spouse */\n      dup4\n        /* \"contracts/Wedding.sol\":1452:1472  engagements[_spouse] */\n      0xffffffffffffffffffffffffffffffffffffffff\n      and\n      0xffffffffffffffffffffffffffffffffffffffff\n      and\n      dup2\n      mstore\n      0x20\n      add\n      swap1\n      dup2\n      mstore\n      0x20\n      add\n      0x00\n      keccak256\n        /* \"contracts/Wedding.sol\":1452:1482  engagements[_spouse].isEngaged */\n      0x03\n      add\n      0x00\n      swap1\n      sload\n      swap1\n      0x0100\n      exp\n      swap1\n      div\n      0xff\n      and\n        /* \"contracts/Wedding.sol\":1452:1490  engagements[_spouse].isEngaged == true */\n      iszero\n      iszero\n      eq\n        /* \"contracts/Wedding.sol\":1444:1515  require(engagements[_spouse].isEngaged == true, \"Address not engaged.\") */\n      tag_169\n      jumpi\n      mload(0x40)\n      0x08c379a000000000000000000000000000000000000000000000000000000000\n      dup2\n      mstore\n      0x04\n      add\n      tag_170\n      swap1\n      tag_65\n      jump\t// in\n    tag_170:\n      mload(0x40)\n      dup1\n      swap2\n      sub\n      swap1\n      revert\n    tag_169:\n        /* \"contracts/Wedding.sol\":8399:8406  _spouse */\n      dup2\n        /* \"contracts/Wedding.sol\":2185:2196  engagements */\n      0x00\n        /* \"contracts/Wedding.sol\":2185:2205  engagements[_spouse] */\n      dup1\n        /* \"contracts/Wedding.sol\":2197:2204  _spouse */\n      dup3\n        /* \"contracts/Wedding.sol\":2185:2205  engagements[_spouse] */\n      0xffffffffffffffffffffffffffffffffffffffff\n      and\n      0xffffffffffffffffffffffffffffffffffffffff\n      and\n      dup2\n      mstore\n      0x20\n      add\n      swap1\n      dup2\n      mstore\n      0x20\n      add\n      0x00\n      keccak256\n        /* \"contracts/Wedding.sol\":2185:2215  engagements[_spouse].isMarried */\n      0x03\n      add\n      0x02\n      swap1\n      sload\n      swap1\n      0x0100\n      exp\n      swap1\n      div\n      0xff\n      and\n        /* \"contracts/Wedding.sol\":2184:2215  !engagements[_spouse].isMarried */\n      iszero\n        /* \"contracts/Wedding.sol\":2176:2235  require(!engagements[_spouse].isMarried, \"Already married\") */\n      tag_172\n      jumpi\n      mload(0x40)\n      0x08c379a000000000000000000000000000000000000000000000000000000000\n      dup2\n      mstore\n      0x04\n      add\n      tag_173\n      swap1\n      tag_82\n      jump\t// in\n    tag_173:\n      mload(0x40)\n      dup1\n      swap2\n      sub\n      swap1\n      revert\n    tag_172:\n        /* \"contracts/Wedding.sol\":8422:8449  GuestList storage guestList */\n      0x00\n        /* \"contracts/Wedding.sol\":8452:8462  guestLists */\n      0x01\n        /* \"contracts/Wedding.sol\":8452:8471  guestLists[_spouse] */\n      0x00\n        /* \"contracts/Wedding.sol\":8463:8470  _spouse */\n      dup6\n        /* \"contracts/Wedding.sol\":8452:8471  guestLists[_spouse] */\n      0xffffffffffffffffffffffffffffffffffffffff\n      and\n      0xffffffffffffffffffffffffffffffffffffffff\n      and\n      dup2\n      mstore\n      0x20\n      add\n      swap1\n      dup2\n      mstore\n      0x20\n      add\n      0x00\n      keccak256\n        /* \"contracts/Wedding.sol\":8422:8471  GuestList storage guestList = guestLists[_spouse] */\n      swap1\n      pop\n        /* \"contracts/Wedding.sol\":8481:8510  Engagement storage engagement */\n      0x00\n        /* \"contracts/Wedding.sol\":8513:8524  engagements */\n      dup1\n        /* \"contracts/Wedding.sol\":8513:8533  engagements[_spouse] */\n      0x00\n        /* \"contracts/Wedding.sol\":8525:8532  _spouse */\n      dup7\n        /* \"contracts/Wedding.sol\":8513:8533  engagements[_spouse] */\n      0xffffffffffffffffffffffffffffffffffffffff\n      and\n      0xffffffffffffffffffffffffffffffffffffffff\n      and\n      dup2\n      mstore\n      0x20\n      add\n      swap1\n      dup2\n      mstore\n      0x20\n      add\n      0x00\n      keccak256\n        /* \"contracts/Wedding.sol\":8481:8533  Engagement storage engagement = engagements[_spouse] */\n      swap1\n      pop\n        /* \"contracts/Wedding.sol\":8544:8571  uint256 confirmedGuestCount */\n      0x00\n        /* \"contracts/Wedding.sol\":8574:8583  guestList */\n      dup3\n        /* \"contracts/Wedding.sol\":8574:8598  guestList.proposedGuests */\n      0x00\n      add\n        /* \"contracts/Wedding.sol\":8574:8605  guestList.proposedGuests.length */\n      dup1\n      sload\n      swap1\n      pop\n        /* \"contracts/Wedding.sol\":8544:8605  uint256 confirmedGuestCount = guestList.proposedGuests.length */\n      swap1\n      pop\n        /* \"contracts/Wedding.sol\":8615:8648  uint256 requiredVotesToInvalidate */\n      0x00\n        /* \"contracts/Wedding.sol\":8679:8680  2 */\n      0x02\n        /* \"contracts/Wedding.sol\":8674:8675  1 */\n      0x01\n        /* \"contracts/Wedding.sol\":8652:8671  confirmedGuestCount */\n      dup4\n        /* \"contracts/Wedding.sol\":8652:8675  confirmedGuestCount + 1 */\n      tag_175\n      swap2\n      swap1\n      tag_176\n      jump\t// in\n    tag_175:\n        /* \"contracts/Wedding.sol\":8651:8680  (confirmedGuestCount + 1) / 2 */\n      tag_177\n      swap2\n      swap1\n      tag_178\n      jump\t// in\n    tag_177:\n        /* \"contracts/Wedding.sol\":8615:8680  uint256 requiredVotesToInvalidate = (confirmedGuestCount + 1) / 2 */\n      swap1\n      pop\n        /* \"contracts/Wedding.sol\":8721:8746  requiredVotesToInvalidate */\n      dup1\n        /* \"contracts/Wedding.sol\":8695:8704  guestList */\n      dup5\n        /* \"contracts/Wedding.sol\":8695:8717  guestList.votesAgainst */\n      0x03\n      add\n      sload\n        /* \"contracts/Wedding.sol\":8695:8746  guestList.votesAgainst >= requiredVotesToInvalidate */\n      lt\n        /* \"contracts/Wedding.sol\":8691:8998  if (guestList.votesAgainst >= requiredVotesToInvalidate) {... */\n      tag_179\n      jumpi\n        /* \"contracts/Wedding.sol\":8806:8810  true */\n      0x01\n        /* \"contracts/Wedding.sol\":8762:8773  engagements */\n      0x00\n        /* \"contracts/Wedding.sol\":8762:8793  engagements[engagement.spouse1] */\n      dup1\n        /* \"contracts/Wedding.sol\":8774:8784  engagement */\n      dup6\n        /* \"contracts/Wedding.sol\":8774:8792  engagement.spouse1 */\n      0x00\n      add\n      0x00\n      swap1\n      sload\n      swap1\n      0x0100\n      exp\n      swap1\n      div\n      0xffffffffffffffffffffffffffffffffffffffff\n      and\n        /* \"contracts/Wedding.sol\":8762:8793  engagements[engagement.spouse1] */\n      0xffffffffffffffffffffffffffffffffffffffff\n      and\n      0xffffffffffffffffffffffffffffffffffffffff\n      and\n      dup2\n      mstore\n      0x20\n      add\n      swap1\n      dup2\n      mstore\n      0x20\n      add\n      0x00\n      keccak256\n        /* \"contracts/Wedding.sol\":8762:8803  engagements[engagement.spouse1].isRevoked */\n      0x03\n      add\n      0x01\n        /* \"contracts/Wedding.sol\":8762:8810  engagements[engagement.spouse1].isRevoked = true */\n      0x0100\n      exp\n      dup2\n      sload\n      dup2\n      0xff\n      mul\n      not\n      and\n      swap1\n      dup4\n      iszero\n      iszero\n      mul\n      or\n      swap1\n      sstore\n      pop\n        /* \"contracts/Wedding.sol\":8868:8872  true */\n      0x01\n        /* \"contracts/Wedding.sol\":8824:8835  engagements */\n      0x00\n        /* \"contracts/Wedding.sol\":8824:8855  engagements[engagement.spouse2] */\n      dup1\n        /* \"contracts/Wedding.sol\":8836:8846  engagement */\n      dup6\n        /* \"contracts/Wedding.sol\":8836:8854  engagement.spouse2 */\n      0x01\n      add\n      0x00\n      swap1\n      sload\n      swap1\n      0x0100\n      exp\n      swap1\n      div\n      0xffffffffffffffffffffffffffffffffffffffff\n      and\n        /* \"contracts/Wedding.sol\":8824:8855  engagements[engagement.spouse2] */\n      0xffffffffffffffffffffffffffffffffffffffff\n      and\n      0xffffffffffffffffffffffffffffffffffffffff\n      and\n      dup2\n      mstore\n      0x20\n      add\n      swap1\n      dup2\n      mstore\n      0x20\n      add\n      0x00\n      keccak256\n        /* \"contracts/Wedding.sol\":8824:8865  engagements[engagement.spouse2].isRevoked */\n      0x03\n      add\n      0x01\n        /* \"contracts/Wedding.sol\":8824:8872  engagements[engagement.spouse2].isRevoked = true */\n      0x0100\n      exp\n      dup2\n      sload\n      dup2\n      0xff\n      mul\n      not\n      and\n      swap1\n      dup4\n      iszero\n      iszero\n      mul\n      or\n      swap1\n      sstore\n      pop\n        /* \"contracts/Wedding.sol\":8892:8930  WeddingInvalidated(engagement.spouse1) */\n      0xca5145a860413368885bd057fa646c0895a34d43c6f7c897fc1954cf51c33045\n        /* \"contracts/Wedding.sol\":8911:8921  engagement */\n      dup4\n        /* \"contracts/Wedding.sol\":8911:8929  engagement.spouse1 */\n      0x00\n      add\n      0x00\n      swap1\n      sload\n      swap1\n      0x0100\n      exp\n      swap1\n      div\n      0xffffffffffffffffffffffffffffffffffffffff\n      and\n        /* \"contracts/Wedding.sol\":8892:8930  WeddingInvalidated(engagement.spouse1) */\n      mload(0x40)\n      tag_180\n      swap2\n      swap1\n      tag_167\n      jump\t// in\n    tag_180:\n      mload(0x40)\n      dup1\n      swap2\n      sub\n      swap1\n      log1\n        /* \"contracts/Wedding.sol\":8949:8987  WeddingInvalidated(engagement.spouse2) */\n      0xca5145a860413368885bd057fa646c0895a34d43c6f7c897fc1954cf51c33045\n        /* \"contracts/Wedding.sol\":8968:8978  engagement */\n      dup4\n        /* \"contracts/Wedding.sol\":8968:8986  engagement.spouse2 */\n      0x01\n      add\n      0x00\n      swap1\n      sload\n      swap1\n      0x0100\n      exp\n      swap1\n      div\n      0xffffffffffffffffffffffffffffffffffffffff\n      and\n        /* \"contracts/Wedding.sol\":8949:8987  WeddingInvalidated(engagement.spouse2) */\n      mload(0x40)\n      tag_181\n      swap2\n      swap1\n      tag_167\n      jump\t// in\n    tag_181:\n      mload(0x40)\n      dup1\n      swap2\n      sub\n      swap1\n      log1\n        /* \"contracts/Wedding.sol\":8691:8998  if (guestList.votesAgainst >= requiredVotesToInvalidate) {... */\n    tag_179:\n        /* \"contracts/Wedding.sol\":8412:9004  {... */\n      pop\n      pop\n      pop\n      pop\n        /* \"contracts/Wedding.sol\":1525:1526  _ */\n      pop\n        /* \"contracts/Wedding.sol\":8288:9004  function _checkAndInvalidateWedding(address _spouse) internal ... */\n      pop\n      pop\n      jump\t// out\n    tag_101:\n      dup3\n      dup1\n      sload\n      dup3\n      dup3\n      sstore\n      swap1\n      0x00\n      mstore\n      keccak256(0x00, 0x20)\n      swap1\n      dup2\n      add\n      swap3\n      dup3\n      iszero\n      tag_182\n      jumpi\n      swap2\n      0x20\n      mul\n      dup3\n      add\n    tag_183:\n      dup3\n      dup2\n      gt\n      iszero\n      tag_184\n      jumpi\n      dup3\n      calldataload\n      0xffffffffffffffffffffffffffffffffffffffff\n      and\n      dup3\n      exp(0x0100, 0x00)\n      dup2\n      sload\n      dup2\n      0xffffffffffffffffffffffffffffffffffffffff\n      mul\n      not\n      and\n      swap1\n      dup4\n      0xffffffffffffffffffffffffffffffffffffffff\n      and\n      mul\n      or\n      swap1\n      sstore\n      pop\n      swap2\n      0x20\n      add\n      swap2\n      swap1\n      0x01\n      add\n      swap1\n      jump(tag_183)\n    tag_184:\n    tag_182:\n      pop\n      swap1\n      pop\n      tag_185\n      swap2\n      swap1\n      tag_186\n      jump\t// in\n    tag_185:\n      pop\n      swap1\n      jump\t// out\n    tag_186:\n    tag_187:\n      dup1\n      dup3\n      gt\n      iszero\n      tag_188\n      jumpi\n      0x00\n      dup2\n      0x00\n      swap1\n      sstore\n      pop\n      0x01\n      add\n      jump(tag_187)\n    tag_188:\n      pop\n      swap1\n      jump\t// out\n        /* \"#utility.yul\":88:205   */\n    tag_190:\n        /* \"#utility.yul\":197:198   */\n      0x00\n        /* \"#utility.yul\":194:195   */\n      dup1\n        /* \"#utility.yul\":187:199   */\n      revert\n        /* \"#utility.yul\":211:328   */\n    tag_191:\n        /* \"#utility.yul\":320:321   */\n      0x00\n        /* \"#utility.yul\":317:318   */\n      dup1\n        /* \"#utility.yul\":310:322   */\n      revert\n        /* \"#utility.yul\":334:460   */\n    tag_192:\n        /* \"#utility.yul\":371:378   */\n      0x00\n        /* \"#utility.yul\":411:453   */\n      0xffffffffffffffffffffffffffffffffffffffff\n        /* \"#utility.yul\":404:409   */\n      dup3\n        /* \"#utility.yul\":400:454   */\n      and\n        /* \"#utility.yul\":389:454   */\n      swap1\n      pop\n        /* \"#utility.yul\":334:460   */\n      swap2\n      swap1\n      pop\n      jump\t// out\n        /* \"#utility.yul\":466:562   */\n    tag_193:\n        /* \"#utility.yul\":503:510   */\n      0x00\n        /* \"#utility.yul\":532:556   */\n      tag_243\n        /* \"#utility.yul\":550:555   */\n      dup3\n        /* \"#utility.yul\":532:556   */\n      tag_192\n      jump\t// in\n    tag_243:\n        /* \"#utility.yul\":521:556   */\n      swap1\n      pop\n        /* \"#utility.yul\":466:562   */\n      swap2\n      swap1\n      pop\n      jump\t// out\n        /* \"#utility.yul\":568:690   */\n    tag_194:\n        /* \"#utility.yul\":641:665   */\n      tag_245\n        /* \"#utility.yul\":659:664   */\n      dup2\n        /* \"#utility.yul\":641:665   */\n      tag_193\n      jump\t// in\n    tag_245:\n        /* \"#utility.yul\":634:639   */\n      dup2\n        /* \"#utility.yul\":631:666   */\n      eq\n        /* \"#utility.yul\":621:684   */\n      tag_246\n      jumpi\n        /* \"#utility.yul\":680:681   */\n      0x00\n        /* \"#utility.yul\":677:678   */\n      dup1\n        /* \"#utility.yul\":670:682   */\n      revert\n        /* \"#utility.yul\":621:684   */\n    tag_246:\n        /* \"#utility.yul\":568:690   */\n      pop\n      jump\t// out\n        /* \"#utility.yul\":696:835   */\n    tag_195:\n        /* \"#utility.yul\":742:747   */\n      0x00\n        /* \"#utility.yul\":780:786   */\n      dup2\n        /* \"#utility.yul\":767:787   */\n      calldataload\n        /* \"#utility.yul\":758:787   */\n      swap1\n      pop\n        /* \"#utility.yul\":796:829   */\n      tag_248\n        /* \"#utility.yul\":823:828   */\n      dup2\n        /* \"#utility.yul\":796:829   */\n      tag_194\n      jump\t// in\n    tag_248:\n        /* \"#utility.yul\":696:835   */\n      swap3\n      swap2\n      pop\n      pop\n      jump\t// out\n        /* \"#utility.yul\":841:1170   */\n    tag_17:\n        /* \"#utility.yul\":900:906   */\n      0x00\n        /* \"#utility.yul\":949:951   */\n      0x20\n        /* \"#utility.yul\":937:946   */\n      dup3\n        /* \"#utility.yul\":928:935   */\n      dup5\n        /* \"#utility.yul\":924:947   */\n      sub\n        /* \"#utility.yul\":920:952   */\n      slt\n        /* \"#utility.yul\":917:1036   */\n      iszero\n      tag_250\n      jumpi\n        /* \"#utility.yul\":955:1034   */\n      tag_251\n      tag_190\n      jump\t// in\n    tag_251:\n        /* \"#utility.yul\":917:1036   */\n    tag_250:\n        /* \"#utility.yul\":1075:1076   */\n      0x00\n        /* \"#utility.yul\":1100:1153   */\n      tag_252\n        /* \"#utility.yul\":1145:1152   */\n      dup5\n        /* \"#utility.yul\":1136:1142   */\n      dup3\n        /* \"#utility.yul\":1125:1134   */\n      dup6\n        /* \"#utility.yul\":1121:1143   */\n      add\n        /* \"#utility.yul\":1100:1153   */\n      tag_195\n      jump\t// in\n    tag_252:\n        /* \"#utility.yul\":1090:1153   */\n      swap2\n      pop\n        /* \"#utility.yul\":1046:1163   */\n      pop\n        /* \"#utility.yul\":841:1170   */\n      swap3\n      swap2\n      pop\n      pop\n      jump\t// out\n        /* \"#utility.yul\":1176:1266   */\n    tag_196:\n        /* \"#utility.yul\":1210:1217   */\n      0x00\n        /* \"#utility.yul\":1253:1258   */\n      dup2\n        /* \"#utility.yul\":1246:1259   */\n      iszero\n        /* \"#utility.yul\":1239:1260   */\n      iszero\n        /* \"#utility.yul\":1228:1260   */\n      swap1\n      pop\n        /* \"#utility.yul\":1176:1266   */\n      swap2\n      swap1\n      pop\n      jump\t// out\n        /* \"#utility.yul\":1272:1381   */\n    tag_197:\n        /* \"#utility.yul\":1353:1374   */\n      tag_255\n        /* \"#utility.yul\":1368:1373   */\n      dup2\n        /* \"#utility.yul\":1353:1374   */\n      tag_196\n      jump\t// in\n    tag_255:\n        /* \"#utility.yul\":1348:1351   */\n      dup3\n        /* \"#utility.yul\":1341:1375   */\n      mstore\n        /* \"#utility.yul\":1272:1381   */\n      pop\n      pop\n      jump\t// out\n        /* \"#utility.yul\":1387:1464   */\n    tag_198:\n        /* \"#utility.yul\":1424:1431   */\n      0x00\n        /* \"#utility.yul\":1453:1458   */\n      dup2\n        /* \"#utility.yul\":1442:1458   */\n      swap1\n      pop\n        /* \"#utility.yul\":1387:1464   */\n      swap2\n      swap1\n      pop\n      jump\t// out\n        /* \"#utility.yul\":1470:1588   */\n    tag_199:\n        /* \"#utility.yul\":1557:1581   */\n      tag_258\n        /* \"#utility.yul\":1575:1580   */\n      dup2\n        /* \"#utility.yul\":1557:1581   */\n      tag_198\n      jump\t// in\n    tag_258:\n        /* \"#utility.yul\":1552:1555   */\n      dup3\n        /* \"#utility.yul\":1545:1582   */\n      mstore\n        /* \"#utility.yul\":1470:1588   */\n      pop\n      pop\n      jump\t// out\n        /* \"#utility.yul\":1594:2012   */\n    tag_20:\n        /* \"#utility.yul\":1731:1735   */\n      0x00\n        /* \"#utility.yul\":1769:1771   */\n      0x60\n        /* \"#utility.yul\":1758:1767   */\n      dup3\n        /* \"#utility.yul\":1754:1772   */\n      add\n        /* \"#utility.yul\":1746:1772   */\n      swap1\n      pop\n        /* \"#utility.yul\":1782:1847   */\n      tag_260\n        /* \"#utility.yul\":1844:1845   */\n      0x00\n        /* \"#utility.yul\":1833:1842   */\n      dup4\n        /* \"#utility.yul\":1829:1846   */\n      add\n        /* \"#utility.yul\":1820:1826   */\n      dup7\n        /* \"#utility.yul\":1782:1847   */\n      tag_197\n      jump\t// in\n    tag_260:\n        /* \"#utility.yul\":1857:1923   */\n      tag_261\n        /* \"#utility.yul\":1919:1921   */\n      0x20\n        /* \"#utility.yul\":1908:1917   */\n      dup4\n        /* \"#utility.yul\":1904:1922   */\n      add\n        /* \"#utility.yul\":1895:1901   */\n      dup6\n        /* \"#utility.yul\":1857:1923   */\n      tag_197\n      jump\t// in\n    tag_261:\n        /* \"#utility.yul\":1933:2005   */\n      tag_262\n        /* \"#utility.yul\":2001:2003   */\n      0x40\n        /* \"#utility.yul\":1990:1999   */\n      dup4\n        /* \"#utility.yul\":1986:2004   */\n      add\n        /* \"#utility.yul\":1977:1983   */\n      dup5\n        /* \"#utility.yul\":1933:2005   */\n      tag_199\n      jump\t// in\n    tag_262:\n        /* \"#utility.yul\":1594:2012   */\n      swap5\n      swap4\n      pop\n      pop\n      pop\n      pop\n      jump\t// out\n        /* \"#utility.yul\":2018:2132   */\n    tag_200:\n        /* \"#utility.yul\":2085:2091   */\n      0x00\n        /* \"#utility.yul\":2119:2124   */\n      dup2\n        /* \"#utility.yul\":2113:2125   */\n      mload\n        /* \"#utility.yul\":2103:2125   */\n      swap1\n      pop\n        /* \"#utility.yul\":2018:2132   */\n      swap2\n      swap1\n      pop\n      jump\t// out\n        /* \"#utility.yul\":2138:2322   */\n    tag_201:\n        /* \"#utility.yul\":2237:2248   */\n      0x00\n        /* \"#utility.yul\":2271:2277   */\n      dup3\n        /* \"#utility.yul\":2266:2269   */\n      dup3\n        /* \"#utility.yul\":2259:2278   */\n      mstore\n        /* \"#utility.yul\":2311:2315   */\n      0x20\n        /* \"#utility.yul\":2306:2309   */\n      dup3\n        /* \"#utility.yul\":2302:2316   */\n      add\n        /* \"#utility.yul\":2287:2316   */\n      swap1\n      pop\n        /* \"#utility.yul\":2138:2322   */\n      swap3\n      swap2\n      pop\n      pop\n      jump\t// out\n        /* \"#utility.yul\":2328:2460   */\n    tag_202:\n        /* \"#utility.yul\":2395:2399   */\n      0x00\n        /* \"#utility.yul\":2418:2421   */\n      dup2\n        /* \"#utility.yul\":2410:2421   */\n      swap1\n      pop\n        /* \"#utility.yul\":2448:2452   */\n      0x20\n        /* \"#utility.yul\":2443:2446   */\n      dup3\n        /* \"#utility.yul\":2439:2453   */\n      add\n        /* \"#utility.yul\":2431:2453   */\n      swap1\n      pop\n        /* \"#utility.yul\":2328:2460   */\n      swap2\n      swap1\n      pop\n      jump\t// out\n        /* \"#utility.yul\":2466:2574   */\n    tag_203:\n        /* \"#utility.yul\":2543:2567   */\n      tag_267\n        /* \"#utility.yul\":2561:2566   */\n      dup2\n        /* \"#utility.yul\":2543:2567   */\n      tag_193\n      jump\t// in\n    tag_267:\n        /* \"#utility.yul\":2538:2541   */\n      dup3\n        /* \"#utility.yul\":2531:2568   */\n      mstore\n        /* \"#utility.yul\":2466:2574   */\n      pop\n      pop\n      jump\t// out\n        /* \"#utility.yul\":2580:2759   */\n    tag_204:\n        /* \"#utility.yul\":2649:2659   */\n      0x00\n        /* \"#utility.yul\":2670:2716   */\n      tag_269\n        /* \"#utility.yul\":2712:2715   */\n      dup4\n        /* \"#utility.yul\":2704:2710   */\n      dup4\n        /* \"#utility.yul\":2670:2716   */\n      tag_203\n      jump\t// in\n    tag_269:\n        /* \"#utility.yul\":2748:2752   */\n      0x20\n        /* \"#utility.yul\":2743:2746   */\n      dup4\n        /* \"#utility.yul\":2739:2753   */\n      add\n        /* \"#utility.yul\":2725:2753   */\n      swap1\n      pop\n        /* \"#utility.yul\":2580:2759   */\n      swap3\n      swap2\n      pop\n      pop\n      jump\t// out\n        /* \"#utility.yul\":2765:2878   */\n    tag_205:\n        /* \"#utility.yul\":2835:2839   */\n      0x00\n        /* \"#utility.yul\":2867:2871   */\n      0x20\n        /* \"#utility.yul\":2862:2865   */\n      dup3\n        /* \"#utility.yul\":2858:2872   */\n      add\n        /* \"#utility.yul\":2850:2872   */\n      swap1\n      pop\n        /* \"#utility.yul\":2765:2878   */\n      swap2\n      swap1\n      pop\n      jump\t// out\n        /* \"#utility.yul\":2914:3646   */\n    tag_206:\n        /* \"#utility.yul\":3033:3036   */\n      0x00\n        /* \"#utility.yul\":3062:3116   */\n      tag_272\n        /* \"#utility.yul\":3110:3115   */\n      dup3\n        /* \"#utility.yul\":3062:3116   */\n      tag_200\n      jump\t// in\n    tag_272:\n        /* \"#utility.yul\":3132:3218   */\n      tag_273\n        /* \"#utility.yul\":3211:3217   */\n      dup2\n        /* \"#utility.yul\":3206:3209   */\n      dup6\n        /* \"#utility.yul\":3132:3218   */\n      tag_201\n      jump\t// in\n    tag_273:\n        /* \"#utility.yul\":3125:3218   */\n      swap4\n      pop\n        /* \"#utility.yul\":3242:3298   */\n      tag_274\n        /* \"#utility.yul\":3292:3297   */\n      dup4\n        /* \"#utility.yul\":3242:3298   */\n      tag_202\n      jump\t// in\n    tag_274:\n        /* \"#utility.yul\":3321:3328   */\n      dup1\n        /* \"#utility.yul\":3352:3353   */\n      0x00\n        /* \"#utility.yul\":3337:3621   */\n    tag_275:\n        /* \"#utility.yul\":3362:3368   */\n      dup4\n        /* \"#utility.yul\":3359:3360   */\n      dup2\n        /* \"#utility.yul\":3356:3369   */\n      lt\n        /* \"#utility.yul\":3337:3621   */\n      iszero\n      tag_277\n      jumpi\n        /* \"#utility.yul\":3438:3444   */\n      dup2\n        /* \"#utility.yul\":3432:3445   */\n      mload\n        /* \"#utility.yul\":3465:3528   */\n      tag_278\n        /* \"#utility.yul\":3524:3527   */\n      dup9\n        /* \"#utility.yul\":3509:3522   */\n      dup3\n        /* \"#utility.yul\":3465:3528   */\n      tag_204\n      jump\t// in\n    tag_278:\n        /* \"#utility.yul\":3458:3528   */\n      swap8\n      pop\n        /* \"#utility.yul\":3551:3611   */\n      tag_279\n        /* \"#utility.yul\":3604:3610   */\n      dup4\n        /* \"#utility.yul\":3551:3611   */\n      tag_205\n      jump\t// in\n    tag_279:\n        /* \"#utility.yul\":3541:3611   */\n      swap3\n      pop\n        /* \"#utility.yul\":3397:3621   */\n      pop\n        /* \"#utility.yul\":3384:3385   */\n      0x01\n        /* \"#utility.yul\":3381:3382   */\n      dup2\n        /* \"#utility.yul\":3377:3386   */\n      add\n        /* \"#utility.yul\":3372:3386   */\n      swap1\n      pop\n        /* \"#utility.yul\":3337:3621   */\n      jump(tag_275)\n    tag_277:\n        /* \"#utility.yul\":3341:3355   */\n      pop\n        /* \"#utility.yul\":3637:3640   */\n      dup6\n        /* \"#utility.yul\":3630:3640   */\n      swap4\n      pop\n        /* \"#utility.yul\":3038:3646   */\n      pop\n      pop\n      pop\n        /* \"#utility.yul\":2914:3646   */\n      swap3\n      swap2\n      pop\n      pop\n      jump\t// out\n        /* \"#utility.yul\":3652:4025   */\n    tag_25:\n        /* \"#utility.yul\":3795:3799   */\n      0x00\n        /* \"#utility.yul\":3833:3835   */\n      0x20\n        /* \"#utility.yul\":3822:3831   */\n      dup3\n        /* \"#utility.yul\":3818:3836   */\n      add\n        /* \"#utility.yul\":3810:3836   */\n      swap1\n      pop\n        /* \"#utility.yul\":3882:3891   */\n      dup2\n        /* \"#utility.yul\":3876:3880   */\n      dup2\n        /* \"#utility.yul\":3872:3892   */\n      sub\n        /* \"#utility.yul\":3868:3869   */\n      0x00\n        /* \"#utility.yul\":3857:3866   */\n      dup4\n        /* \"#utility.yul\":3853:3870   */\n      add\n        /* \"#utility.yul\":3846:3893   */\n      mstore\n        /* \"#utility.yul\":3910:4018   */\n      tag_281\n        /* \"#utility.yul\":4013:4017   */\n      dup2\n        /* \"#utility.yul\":4004:4010   */\n      dup5\n        /* \"#utility.yul\":3910:4018   */\n      tag_206\n      jump\t// in\n    tag_281:\n        /* \"#utility.yul\":3902:4018   */\n      swap1\n      pop\n        /* \"#utility.yul\":3652:4025   */\n      swap3\n      swap2\n      pop\n      pop\n      jump\t// out\n        /* \"#utility.yul\":4031:4148   */\n    tag_207:\n        /* \"#utility.yul\":4140:4141   */\n      0x00\n        /* \"#utility.yul\":4137:4138   */\n      dup1\n        /* \"#utility.yul\":4130:4142   */\n      revert\n        /* \"#utility.yul\":4154:4271   */\n    tag_208:\n        /* \"#utility.yul\":4263:4264   */\n      0x00\n        /* \"#utility.yul\":4260:4261   */\n      dup1\n        /* \"#utility.yul\":4253:4265   */\n      revert\n        /* \"#utility.yul\":4277:4394   */\n    tag_209:\n        /* \"#utility.yul\":4386:4387   */\n      0x00\n        /* \"#utility.yul\":4383:4384   */\n      dup1\n        /* \"#utility.yul\":4376:4388   */\n      revert\n        /* \"#utility.yul\":4417:4985   */\n    tag_210:\n        /* \"#utility.yul\":4490:4498   */\n      0x00\n        /* \"#utility.yul\":4500:4506   */\n      dup1\n        /* \"#utility.yul\":4550:4553   */\n      dup4\n        /* \"#utility.yul\":4543:4547   */\n      0x1f\n        /* \"#utility.yul\":4535:4541   */\n      dup5\n        /* \"#utility.yul\":4531:4548   */\n      add\n        /* \"#utility.yul\":4527:4554   */\n      slt\n        /* \"#utility.yul\":4517:4639   */\n      tag_286\n      jumpi\n        /* \"#utility.yul\":4558:4637   */\n      tag_287\n      tag_207\n      jump\t// in\n    tag_287:\n        /* \"#utility.yul\":4517:4639   */\n    tag_286:\n        /* \"#utility.yul\":4671:4677   */\n      dup3\n        /* \"#utility.yul\":4658:4678   */\n      calldataload\n        /* \"#utility.yul\":4648:4678   */\n      swap1\n      pop\n        /* \"#utility.yul\":4701:4719   */\n      0xffffffffffffffff\n        /* \"#utility.yul\":4693:4699   */\n      dup2\n        /* \"#utility.yul\":4690:4720   */\n      gt\n        /* \"#utility.yul\":4687:4804   */\n      iszero\n      tag_288\n      jumpi\n        /* \"#utility.yul\":4723:4802   */\n      tag_289\n      tag_208\n      jump\t// in\n    tag_289:\n        /* \"#utility.yul\":4687:4804   */\n    tag_288:\n        /* \"#utility.yul\":4837:4841   */\n      0x20\n        /* \"#utility.yul\":4829:4835   */\n      dup4\n        /* \"#utility.yul\":4825:4842   */\n      add\n        /* \"#utility.yul\":4813:4842   */\n      swap2\n      pop\n        /* \"#utility.yul\":4891:4894   */\n      dup4\n        /* \"#utility.yul\":4883:4887   */\n      0x20\n        /* \"#utility.yul\":4875:4881   */\n      dup3\n        /* \"#utility.yul\":4871:4888   */\n      mul\n        /* \"#utility.yul\":4861:4869   */\n      dup4\n        /* \"#utility.yul\":4857:4889   */\n      add\n        /* \"#utility.yul\":4854:4895   */\n      gt\n        /* \"#utility.yul\":4851:4979   */\n      iszero\n      tag_290\n      jumpi\n        /* \"#utility.yul\":4898:4977   */\n      tag_291\n      tag_209\n      jump\t// in\n    tag_291:\n        /* \"#utility.yul\":4851:4979   */\n    tag_290:\n        /* \"#utility.yul\":4417:4985   */\n      swap3\n      pop\n      swap3\n      swap1\n      pop\n      jump\t// out\n        /* \"#utility.yul\":4991:5550   */\n    tag_32:\n        /* \"#utility.yul\":5077:5083   */\n      0x00\n        /* \"#utility.yul\":5085:5091   */\n      dup1\n        /* \"#utility.yul\":5134:5136   */\n      0x20\n        /* \"#utility.yul\":5122:5131   */\n      dup4\n        /* \"#utility.yul\":5113:5120   */\n      dup6\n        /* \"#utility.yul\":5109:5132   */\n      sub\n        /* \"#utility.yul\":5105:5137   */\n      slt\n        /* \"#utility.yul\":5102:5221   */\n      iszero\n      tag_293\n      jumpi\n        /* \"#utility.yul\":5140:5219   */\n      tag_294\n      tag_190\n      jump\t// in\n    tag_294:\n        /* \"#utility.yul\":5102:5221   */\n    tag_293:\n        /* \"#utility.yul\":5288:5289   */\n      0x00\n        /* \"#utility.yul\":5277:5286   */\n      dup4\n        /* \"#utility.yul\":5273:5290   */\n      add\n        /* \"#utility.yul\":5260:5291   */\n      calldataload\n        /* \"#utility.yul\":5318:5336   */\n      0xffffffffffffffff\n        /* \"#utility.yul\":5310:5316   */\n      dup2\n        /* \"#utility.yul\":5307:5337   */\n      gt\n        /* \"#utility.yul\":5304:5421   */\n      iszero\n      tag_295\n      jumpi\n        /* \"#utility.yul\":5340:5419   */\n      tag_296\n      tag_191\n      jump\t// in\n    tag_296:\n        /* \"#utility.yul\":5304:5421   */\n    tag_295:\n        /* \"#utility.yul\":5453:5533   */\n      tag_297\n        /* \"#utility.yul\":5525:5532   */\n      dup6\n        /* \"#utility.yul\":5516:5522   */\n      dup3\n        /* \"#utility.yul\":5505:5514   */\n      dup7\n        /* \"#utility.yul\":5501:5523   */\n      add\n        /* \"#utility.yul\":5453:5533   */\n      tag_210\n      jump\t// in\n    tag_297:\n        /* \"#utility.yul\":5435:5533   */\n      swap3\n      pop\n      swap3\n      pop\n        /* \"#utility.yul\":5231:5543   */\n      pop\n        /* \"#utility.yul\":4991:5550   */\n      swap3\n      pop\n      swap3\n      swap1\n      pop\n      jump\t// out\n        /* \"#utility.yul\":5556:5678   */\n    tag_211:\n        /* \"#utility.yul\":5629:5653   */\n      tag_299\n        /* \"#utility.yul\":5647:5652   */\n      dup2\n        /* \"#utility.yul\":5629:5653   */\n      tag_198\n      jump\t// in\n    tag_299:\n        /* \"#utility.yul\":5622:5627   */\n      dup2\n        /* \"#utility.yul\":5619:5654   */\n      eq\n        /* \"#utility.yul\":5609:5672   */\n      tag_300\n      jumpi\n        /* \"#utility.yul\":5668:5669   */\n      0x00\n        /* \"#utility.yul\":5665:5666   */\n      dup1\n        /* \"#utility.yul\":5658:5670   */\n      revert\n        /* \"#utility.yul\":5609:5672   */\n    tag_300:\n        /* \"#utility.yul\":5556:5678   */\n      pop\n      jump\t// out\n        /* \"#utility.yul\":5684:5823   */\n    tag_212:\n        /* \"#utility.yul\":5730:5735   */\n      0x00\n        /* \"#utility.yul\":5768:5774   */\n      dup2\n        /* \"#utility.yul\":5755:5775   */\n      calldataload\n        /* \"#utility.yul\":5746:5775   */\n      swap1\n      pop\n        /* \"#utility.yul\":5784:5817   */\n      tag_302\n        /* \"#utility.yul\":5811:5816   */\n      dup2\n        /* \"#utility.yul\":5784:5817   */\n      tag_211\n      jump\t// in\n    tag_302:\n        /* \"#utility.yul\":5684:5823   */\n      swap3\n      swap2\n      pop\n      pop\n      jump\t// out\n        /* \"#utility.yul\":5829:6303   */\n    tag_36:\n        /* \"#utility.yul\":5897:5903   */\n      0x00\n        /* \"#utility.yul\":5905:5911   */\n      dup1\n        /* \"#utility.yul\":5954:5956   */\n      0x40\n        /* \"#utility.yul\":5942:5951   */\n      dup4\n        /* \"#utility.yul\":5933:5940   */\n      dup6\n        /* \"#utility.yul\":5929:5952   */\n      sub\n        /* \"#utility.yul\":5925:5957   */\n      slt\n        /* \"#utility.yul\":5922:6041   */\n      iszero\n      tag_304\n      jumpi\n        /* \"#utility.yul\":5960:6039   */\n      tag_305\n      tag_190\n      jump\t// in\n    tag_305:\n        /* \"#utility.yul\":5922:6041   */\n    tag_304:\n        /* \"#utility.yul\":6080:6081   */\n      0x00\n        /* \"#utility.yul\":6105:6158   */\n      tag_306\n        /* \"#utility.yul\":6150:6157   */\n      dup6\n        /* \"#utility.yul\":6141:6147   */\n      dup3\n        /* \"#utility.yul\":6130:6139   */\n      dup7\n        /* \"#utility.yul\":6126:6148   */\n      add\n        /* \"#utility.yul\":6105:6158   */\n      tag_195\n      jump\t// in\n    tag_306:\n        /* \"#utility.yul\":6095:6158   */\n      swap3\n      pop\n        /* \"#utility.yul\":6051:6168   */\n      pop\n        /* \"#utility.yul\":6207:6209   */\n      0x20\n        /* \"#utility.yul\":6233:6286   */\n      tag_307\n        /* \"#utility.yul\":6278:6285   */\n      dup6\n        /* \"#utility.yul\":6269:6275   */\n      dup3\n        /* \"#utility.yul\":6258:6267   */\n      dup7\n        /* \"#utility.yul\":6254:6276   */\n      add\n        /* \"#utility.yul\":6233:6286   */\n      tag_212\n      jump\t// in\n    tag_307:\n        /* \"#utility.yul\":6223:6286   */\n      swap2\n      pop\n        /* \"#utility.yul\":6178:6296   */\n      pop\n        /* \"#utility.yul\":5829:6303   */\n      swap3\n      pop\n      swap3\n      swap1\n      pop\n      jump\t// out\n        /* \"#utility.yul\":6309:6783   */\n    tag_40:\n        /* \"#utility.yul\":6377:6383   */\n      0x00\n        /* \"#utility.yul\":6385:6391   */\n      dup1\n        /* \"#utility.yul\":6434:6436   */\n      0x40\n        /* \"#utility.yul\":6422:6431   */\n      dup4\n        /* \"#utility.yul\":6413:6420   */\n      dup6\n        /* \"#utility.yul\":6409:6432   */\n      sub\n        /* \"#utility.yul\":6405:6437   */\n      slt\n        /* \"#utility.yul\":6402:6521   */\n      iszero\n      tag_309\n      jumpi\n        /* \"#utility.yul\":6440:6519   */\n      tag_310\n      tag_190\n      jump\t// in\n    tag_310:\n        /* \"#utility.yul\":6402:6521   */\n    tag_309:\n        /* \"#utility.yul\":6560:6561   */\n      0x00\n        /* \"#utility.yul\":6585:6638   */\n      tag_311\n        /* \"#utility.yul\":6630:6637   */\n      dup6\n        /* \"#utility.yul\":6621:6627   */\n      dup3\n        /* \"#utility.yul\":6610:6619   */\n      dup7\n        /* \"#utility.yul\":6606:6628   */\n      add\n        /* \"#utility.yul\":6585:6638   */\n      tag_195\n      jump\t// in\n    tag_311:\n        /* \"#utility.yul\":6575:6638   */\n      swap3\n      pop\n        /* \"#utility.yul\":6531:6648   */\n      pop\n        /* \"#utility.yul\":6687:6689   */\n      0x20\n        /* \"#utility.yul\":6713:6766   */\n      tag_312\n        /* \"#utility.yul\":6758:6765   */\n      dup6\n        /* \"#utility.yul\":6749:6755   */\n      dup3\n        /* \"#utility.yul\":6738:6747   */\n      dup7\n        /* \"#utility.yul\":6734:6756   */\n      add\n        /* \"#utility.yul\":6713:6766   */\n      tag_195\n      jump\t// in\n    tag_312:\n        /* \"#utility.yul\":6703:6766   */\n      swap2\n      pop\n        /* \"#utility.yul\":6658:6776   */\n      pop\n        /* \"#utility.yul\":6309:6783   */\n      swap3\n      pop\n      swap3\n      swap1\n      pop\n      jump\t// out\n        /* \"#utility.yul\":6789:6999   */\n    tag_43:\n        /* \"#utility.yul\":6876:6880   */\n      0x00\n        /* \"#utility.yul\":6914:6916   */\n      0x20\n        /* \"#utility.yul\":6903:6912   */\n      dup3\n        /* \"#utility.yul\":6899:6917   */\n      add\n        /* \"#utility.yul\":6891:6917   */\n      swap1\n      pop\n        /* \"#utility.yul\":6927:6992   */\n      tag_314\n        /* \"#utility.yul\":6989:6990   */\n      0x00\n        /* \"#utility.yul\":6978:6987   */\n      dup4\n        /* \"#utility.yul\":6974:6991   */\n      add\n        /* \"#utility.yul\":6965:6971   */\n      dup5\n        /* \"#utility.yul\":6927:6992   */\n      tag_197\n      jump\t// in\n    tag_314:\n        /* \"#utility.yul\":6789:6999   */\n      swap3\n      swap2\n      pop\n      pop\n      jump\t// out\n        /* \"#utility.yul\":7005:7123   */\n    tag_213:\n        /* \"#utility.yul\":7092:7116   */\n      tag_316\n        /* \"#utility.yul\":7110:7115   */\n      dup2\n        /* \"#utility.yul\":7092:7116   */\n      tag_193\n      jump\t// in\n    tag_316:\n        /* \"#utility.yul\":7087:7090   */\n      dup3\n        /* \"#utility.yul\":7080:7117   */\n      mstore\n        /* \"#utility.yul\":7005:7123   */\n      pop\n      pop\n      jump\t// out\n        /* \"#utility.yul\":7129:8066   */\n    tag_51:\n        /* \"#utility.yul\":7388:7392   */\n      0x00\n        /* \"#utility.yul\":7426:7429   */\n      0x0100\n        /* \"#utility.yul\":7415:7424   */\n      dup3\n        /* \"#utility.yul\":7411:7430   */\n      add\n        /* \"#utility.yul\":7403:7430   */\n      swap1\n      pop\n        /* \"#utility.yul\":7440:7511   */\n      tag_318\n        /* \"#utility.yul\":7508:7509   */\n      0x00\n        /* \"#utility.yul\":7497:7506   */\n      dup4\n        /* \"#utility.yul\":7493:7510   */\n      add\n        /* \"#utility.yul\":7484:7490   */\n      dup12\n        /* \"#utility.yul\":7440:7511   */\n      tag_213\n      jump\t// in\n    tag_318:\n        /* \"#utility.yul\":7521:7593   */\n      tag_319\n        /* \"#utility.yul\":7589:7591   */\n      0x20\n        /* \"#utility.yul\":7578:7587   */\n      dup4\n        /* \"#utility.yul\":7574:7592   */\n      add\n        /* \"#utility.yul\":7565:7571   */\n      dup11\n        /* \"#utility.yul\":7521:7593   */\n      tag_213\n      jump\t// in\n    tag_319:\n        /* \"#utility.yul\":7603:7675   */\n      tag_320\n        /* \"#utility.yul\":7671:7673   */\n      0x40\n        /* \"#utility.yul\":7660:7669   */\n      dup4\n        /* \"#utility.yul\":7656:7674   */\n      add\n        /* \"#utility.yul\":7647:7653   */\n      dup10\n        /* \"#utility.yul\":7603:7675   */\n      tag_199\n      jump\t// in\n    tag_320:\n        /* \"#utility.yul\":7685:7751   */\n      tag_321\n        /* \"#utility.yul\":7747:7749   */\n      0x60\n        /* \"#utility.yul\":7736:7745   */\n      dup4\n        /* \"#utility.yul\":7732:7750   */\n      add\n        /* \"#utility.yul\":7723:7729   */\n      dup9\n        /* \"#utility.yul\":7685:7751   */\n      tag_197\n      jump\t// in\n    tag_321:\n        /* \"#utility.yul\":7761:7828   */\n      tag_322\n        /* \"#utility.yul\":7823:7826   */\n      0x80\n        /* \"#utility.yul\":7812:7821   */\n      dup4\n        /* \"#utility.yul\":7808:7827   */\n      add\n        /* \"#utility.yul\":7799:7805   */\n      dup8\n        /* \"#utility.yul\":7761:7828   */\n      tag_197\n      jump\t// in\n    tag_322:\n        /* \"#utility.yul\":7838:7905   */\n      tag_323\n        /* \"#utility.yul\":7900:7903   */\n      0xa0\n        /* \"#utility.yul\":7889:7898   */\n      dup4\n        /* \"#utility.yul\":7885:7904   */\n      add\n        /* \"#utility.yul\":7876:7882   */\n      dup7\n        /* \"#utility.yul\":7838:7905   */\n      tag_197\n      jump\t// in\n    tag_323:\n        /* \"#utility.yul\":7915:7982   */\n      tag_324\n        /* \"#utility.yul\":7977:7980   */\n      0xc0\n        /* \"#utility.yul\":7966:7975   */\n      dup4\n        /* \"#utility.yul\":7962:7981   */\n      add\n        /* \"#utility.yul\":7953:7959   */\n      dup6\n        /* \"#utility.yul\":7915:7982   */\n      tag_197\n      jump\t// in\n    tag_324:\n        /* \"#utility.yul\":7992:8059   */\n      tag_325\n        /* \"#utility.yul\":8054:8057   */\n      0xe0\n        /* \"#utility.yul\":8043:8052   */\n      dup4\n        /* \"#utility.yul\":8039:8058   */\n      add\n        /* \"#utility.yul\":8030:8036   */\n      dup5\n        /* \"#utility.yul\":7992:8059   */\n      tag_197\n      jump\t// in\n    tag_325:\n        /* \"#utility.yul\":7129:8066   */\n      swap10\n      swap9\n      pop\n      pop\n      pop\n      pop\n      pop\n      pop\n      pop\n      pop\n      pop\n      jump\t// out\n        /* \"#utility.yul\":8072:8712   */\n    tag_56:\n        /* \"#utility.yul\":8265:8269   */\n      0x00\n        /* \"#utility.yul\":8303:8306   */\n      0xa0\n        /* \"#utility.yul\":8292:8301   */\n      dup3\n        /* \"#utility.yul\":8288:8307   */\n      add\n        /* \"#utility.yul\":8280:8307   */\n      swap1\n      pop\n        /* \"#utility.yul\":8317:8388   */\n      tag_327\n        /* \"#utility.yul\":8385:8386   */\n      0x00\n        /* \"#utility.yul\":8374:8383   */\n      dup4\n        /* \"#utility.yul\":8370:8387   */\n      add\n        /* \"#utility.yul\":8361:8367   */\n      dup9\n        /* \"#utility.yul\":8317:8388   */\n      tag_213\n      jump\t// in\n    tag_327:\n        /* \"#utility.yul\":8398:8470   */\n      tag_328\n        /* \"#utility.yul\":8466:8468   */\n      0x20\n        /* \"#utility.yul\":8455:8464   */\n      dup4\n        /* \"#utility.yul\":8451:8469   */\n      add\n        /* \"#utility.yul\":8442:8448   */\n      dup8\n        /* \"#utility.yul\":8398:8470   */\n      tag_213\n      jump\t// in\n    tag_328:\n        /* \"#utility.yul\":8480:8552   */\n      tag_329\n        /* \"#utility.yul\":8548:8550   */\n      0x40\n        /* \"#utility.yul\":8537:8546   */\n      dup4\n        /* \"#utility.yul\":8533:8551   */\n      add\n        /* \"#utility.yul\":8524:8530   */\n      dup7\n        /* \"#utility.yul\":8480:8552   */\n      tag_199\n      jump\t// in\n    tag_329:\n        /* \"#utility.yul\":8562:8628   */\n      tag_330\n        /* \"#utility.yul\":8624:8626   */\n      0x60\n        /* \"#utility.yul\":8613:8622   */\n      dup4\n        /* \"#utility.yul\":8609:8627   */\n      add\n        /* \"#utility.yul\":8600:8606   */\n      dup6\n        /* \"#utility.yul\":8562:8628   */\n      tag_197\n      jump\t// in\n    tag_330:\n        /* \"#utility.yul\":8638:8705   */\n      tag_331\n        /* \"#utility.yul\":8700:8703   */\n      0x80\n        /* \"#utility.yul\":8689:8698   */\n      dup4\n        /* \"#utility.yul\":8685:8704   */\n      add\n        /* \"#utility.yul\":8676:8682   */\n      dup5\n        /* \"#utility.yul\":8638:8705   */\n      tag_197\n      jump\t// in\n    tag_331:\n        /* \"#utility.yul\":8072:8712   */\n      swap7\n      swap6\n      pop\n      pop\n      pop\n      pop\n      pop\n      pop\n      jump\t// out\n        /* \"#utility.yul\":8718:8887   */\n    tag_214:\n        /* \"#utility.yul\":8802:8813   */\n      0x00\n        /* \"#utility.yul\":8836:8842   */\n      dup3\n        /* \"#utility.yul\":8831:8834   */\n      dup3\n        /* \"#utility.yul\":8824:8843   */\n      mstore\n        /* \"#utility.yul\":8876:8880   */\n      0x20\n        /* \"#utility.yul\":8871:8874   */\n      dup3\n        /* \"#utility.yul\":8867:8881   */\n      add\n        /* \"#utility.yul\":8852:8881   */\n      swap1\n      pop\n        /* \"#utility.yul\":8718:8887   */\n      swap3\n      swap2\n      pop\n      pop\n      jump\t// out\n        /* \"#utility.yul\":8893:9063   */\n    tag_215:\n        /* \"#utility.yul\":9033:9055   */\n      0x41646472657373206e6f7420656e67616765642e000000000000000000000000\n        /* \"#utility.yul\":9029:9030   */\n      0x00\n        /* \"#utility.yul\":9021:9027   */\n      dup3\n        /* \"#utility.yul\":9017:9031   */\n      add\n        /* \"#utility.yul\":9010:9056   */\n      mstore\n        /* \"#utility.yul\":8893:9063   */\n      pop\n      jump\t// out\n        /* \"#utility.yul\":9069:9435   */\n    tag_216:\n        /* \"#utility.yul\":9211:9214   */\n      0x00\n        /* \"#utility.yul\":9232:9299   */\n      tag_335\n        /* \"#utility.yul\":9296:9298   */\n      0x14\n        /* \"#utility.yul\":9291:9294   */\n      dup4\n        /* \"#utility.yul\":9232:9299   */\n      tag_214\n      jump\t// in\n    tag_335:\n        /* \"#utility.yul\":9225:9299   */\n      swap2\n      pop\n        /* \"#utility.yul\":9308:9401   */\n      tag_336\n        /* \"#utility.yul\":9397:9400   */\n      dup3\n        /* \"#utility.yul\":9308:9401   */\n      tag_215\n      jump\t// in\n    tag_336:\n        /* \"#utility.yul\":9426:9428   */\n      0x20\n        /* \"#utility.yul\":9421:9424   */\n      dup3\n        /* \"#utility.yul\":9417:9429   */\n      add\n        /* \"#utility.yul\":9410:9429   */\n      swap1\n      pop\n        /* \"#utility.yul\":9069:9435   */\n      swap2\n      swap1\n      pop\n      jump\t// out\n        /* \"#utility.yul\":9441:9860   */\n    tag_65:\n        /* \"#utility.yul\":9607:9611   */\n      0x00\n        /* \"#utility.yul\":9645:9647   */\n      0x20\n        /* \"#utility.yul\":9634:9643   */\n      dup3\n        /* \"#utility.yul\":9630:9648   */\n      add\n        /* \"#utility.yul\":9622:9648   */\n      swap1\n      pop\n        /* \"#utility.yul\":9694:9703   */\n      dup2\n        /* \"#utility.yul\":9688:9692   */\n      dup2\n        /* \"#utility.yul\":9684:9704   */\n      sub\n        /* \"#utility.yul\":9680:9681   */\n      0x00\n        /* \"#utility.yul\":9669:9678   */\n      dup4\n        /* \"#utility.yul\":9665:9682   */\n      add\n        /* \"#utility.yul\":9658:9705   */\n      mstore\n        /* \"#utility.yul\":9722:9853   */\n      tag_338\n        /* \"#utility.yul\":9848:9852   */\n      dup2\n        /* \"#utility.yul\":9722:9853   */\n      tag_216\n      jump\t// in\n    tag_338:\n        /* \"#utility.yul\":9714:9853   */\n      swap1\n      pop\n        /* \"#utility.yul\":9441:9860   */\n      swap2\n      swap1\n      pop\n      jump\t// out\n        /* \"#utility.yul\":9866:10087   */\n    tag_217:\n        /* \"#utility.yul\":10006:10040   */\n      0x54686520656e676167656d656e7420697320616c7265616479207265766f6b65\n        /* \"#utility.yul\":10002:10003   */\n      0x00\n        /* \"#utility.yul\":9994:10000   */\n      dup3\n        /* \"#utility.yul\":9990:10004   */\n      add\n        /* \"#utility.yul\":9983:10041   */\n      mstore\n        /* \"#utility.yul\":10075:10079   */\n      0x642e000000000000000000000000000000000000000000000000000000000000\n        /* \"#utility.yul\":10070:10072   */\n      0x20\n        /* \"#utility.yul\":10062:10068   */\n      dup3\n        /* \"#utility.yul\":10058:10073   */\n      add\n        /* \"#utility.yul\":10051:10080   */\n      mstore\n        /* \"#utility.yul\":9866:10087   */\n      pop\n      jump\t// out\n        /* \"#utility.yul\":10093:10459   */\n    tag_218:\n        /* \"#utility.yul\":10235:10238   */\n      0x00\n        /* \"#utility.yul\":10256:10323   */\n      tag_341\n        /* \"#utility.yul\":10320:10322   */\n      0x22\n        /* \"#utility.yul\":10315:10318   */\n      dup4\n        /* \"#utility.yul\":10256:10323   */\n      tag_214\n      jump\t// in\n    tag_341:\n        /* \"#utility.yul\":10249:10323   */\n      swap2\n      pop\n        /* \"#utility.yul\":10332:10425   */\n      tag_342\n        /* \"#utility.yul\":10421:10424   */\n      dup3\n        /* \"#utility.yul\":10332:10425   */\n      tag_217\n      jump\t// in\n    tag_342:\n        /* \"#utility.yul\":10450:10452   */\n      0x40\n        /* \"#utility.yul\":10445:10448   */\n      dup3\n        /* \"#utility.yul\":10441:10453   */\n      add\n        /* \"#utility.yul\":10434:10453   */\n      swap1\n      pop\n        /* \"#utility.yul\":10093:10459   */\n      swap2\n      swap1\n      pop\n      jump\t// out\n        /* \"#utility.yul\":10465:10884   */\n    tag_69:\n        /* \"#utility.yul\":10631:10635   */\n      0x00\n        /* \"#utility.yul\":10669:10671   */\n      0x20\n        /* \"#utility.yul\":10658:10667   */\n      dup3\n        /* \"#utility.yul\":10654:10672   */\n      add\n        /* \"#utility.yul\":10646:10672   */\n      swap1\n      pop\n        /* \"#utility.yul\":10718:10727   */\n      dup2\n        /* \"#utility.yul\":10712:10716   */\n      dup2\n        /* \"#utility.yul\":10708:10728   */\n      sub\n        /* \"#utility.yul\":10704:10705   */\n      0x00\n        /* \"#utility.yul\":10693:10702   */\n      dup4\n        /* \"#utility.yul\":10689:10706   */\n      add\n        /* \"#utility.yul\":10682:10729   */\n      mstore\n        /* \"#utility.yul\":10746:10877   */\n      tag_344\n        /* \"#utility.yul\":10872:10876   */\n      dup2\n        /* \"#utility.yul\":10746:10877   */\n      tag_218\n      jump\t// in\n    tag_344:\n        /* \"#utility.yul\":10738:10877   */\n      swap1\n      pop\n        /* \"#utility.yul\":10465:10884   */\n      swap2\n      swap1\n      pop\n      jump\t// out\n        /* \"#utility.yul\":10890:11222   */\n    tag_72:\n        /* \"#utility.yul\":11011:11015   */\n      0x00\n        /* \"#utility.yul\":11049:11051   */\n      0x40\n        /* \"#utility.yul\":11038:11047   */\n      dup3\n        /* \"#utility.yul\":11034:11052   */\n      add\n        /* \"#utility.yul\":11026:11052   */\n      swap1\n      pop\n        /* \"#utility.yul\":11062:11133   */\n      tag_346\n        /* \"#utility.yul\":11130:11131   */\n      0x00\n        /* \"#utility.yul\":11119:11128   */\n      dup4\n        /* \"#utility.yul\":11115:11132   */\n      add\n        /* \"#utility.yul\":11106:11112   */\n      dup6\n        /* \"#utility.yul\":11062:11133   */\n      tag_213\n      jump\t// in\n    tag_346:\n        /* \"#utility.yul\":11143:11215   */\n      tag_347\n        /* \"#utility.yul\":11211:11213   */\n      0x20\n        /* \"#utility.yul\":11200:11209   */\n      dup4\n        /* \"#utility.yul\":11196:11214   */\n      add\n        /* \"#utility.yul\":11187:11193   */\n      dup5\n        /* \"#utility.yul\":11143:11215   */\n      tag_199\n      jump\t// in\n    tag_347:\n        /* \"#utility.yul\":10890:11222   */\n      swap4\n      swap3\n      pop\n      pop\n      pop\n      jump\t// out\n        /* \"#utility.yul\":11228:11393   */\n    tag_219:\n        /* \"#utility.yul\":11368:11385   */\n      0x416c7265616479206d6172726965640000000000000000000000000000000000\n        /* \"#utility.yul\":11364:11365   */\n      0x00\n        /* \"#utility.yul\":11356:11362   */\n      dup3\n        /* \"#utility.yul\":11352:11366   */\n      add\n        /* \"#utility.yul\":11345:11386   */\n      mstore\n        /* \"#utility.yul\":11228:11393   */\n      pop\n      jump\t// out\n        /* \"#utility.yul\":11399:11765   */\n    tag_220:\n        /* \"#utility.yul\":11541:11544   */\n      0x00\n        /* \"#utility.yul\":11562:11629   */\n      tag_350\n        /* \"#utility.yul\":11626:11628   */\n      0x0f\n        /* \"#utility.yul\":11621:11624   */\n      dup4\n        /* \"#utility.yul\":11562:11629   */\n      tag_214\n      jump\t// in\n    tag_350:\n        /* \"#utility.yul\":11555:11629   */\n      swap2\n      pop\n        /* \"#utility.yul\":11638:11731   */\n      tag_351\n        /* \"#utility.yul\":11727:11730   */\n      dup3\n        /* \"#utility.yul\":11638:11731   */\n      tag_219\n      jump\t// in\n    tag_351:\n        /* \"#utility.yul\":11756:11758   */\n      0x20\n        /* \"#utility.yul\":11751:11754   */\n      dup3\n        /* \"#utility.yul\":11747:11759   */\n      add\n        /* \"#utility.yul\":11740:11759   */\n      swap1\n      pop\n        /* \"#utility.yul\":11399:11765   */\n      swap2\n      swap1\n      pop\n      jump\t// out\n        /* \"#utility.yul\":11771:12190   */\n    tag_82:\n        /* \"#utility.yul\":11937:11941   */\n      0x00\n        /* \"#utility.yul\":11975:11977   */\n      0x20\n        /* \"#utility.yul\":11964:11973   */\n      dup3\n        /* \"#utility.yul\":11960:11978   */\n      add\n        /* \"#utility.yul\":11952:11978   */\n      swap1\n      pop\n        /* \"#utility.yul\":12024:12033   */\n      dup2\n        /* \"#utility.yul\":12018:12022   */\n      dup2\n        /* \"#utility.yul\":12014:12034   */\n      sub\n        /* \"#utility.yul\":12010:12011   */\n      0x00\n        /* \"#utility.yul\":11999:12008   */\n      dup4\n        /* \"#utility.yul\":11995:12012   */\n      add\n        /* \"#utility.yul\":11988:12035   */\n      mstore\n        /* \"#utility.yul\":12052:12183   */\n      tag_353\n        /* \"#utility.yul\":12178:12182   */\n      dup2\n        /* \"#utility.yul\":12052:12183   */\n      tag_220\n      jump\t// in\n    tag_353:\n        /* \"#utility.yul\":12044:12183   */\n      swap1\n      pop\n        /* \"#utility.yul\":11771:12190   */\n      swap2\n      swap1\n      pop\n      jump\t// out\n        /* \"#utility.yul\":12196:12528   */\n    tag_90:\n        /* \"#utility.yul\":12317:12321   */\n      0x00\n        /* \"#utility.yul\":12355:12357   */\n      0x40\n        /* \"#utility.yul\":12344:12353   */\n      dup3\n        /* \"#utility.yul\":12340:12358   */\n      add\n        /* \"#utility.yul\":12332:12358   */\n      swap1\n      pop\n        /* \"#utility.yul\":12368:12439   */\n      tag_355\n        /* \"#utility.yul\":12436:12437   */\n      0x00\n        /* \"#utility.yul\":12425:12434   */\n      dup4\n        /* \"#utility.yul\":12421:12438   */\n      add\n        /* \"#utility.yul\":12412:12418   */\n      dup6\n        /* \"#utility.yul\":12368:12439   */\n      tag_213\n      jump\t// in\n    tag_355:\n        /* \"#utility.yul\":12449:12521   */\n      tag_356\n        /* \"#utility.yul\":12517:12519   */\n      0x20\n        /* \"#utility.yul\":12506:12515   */\n      dup4\n        /* \"#utility.yul\":12502:12520   */\n      add\n        /* \"#utility.yul\":12493:12499   */\n      dup5\n        /* \"#utility.yul\":12449:12521   */\n      tag_213\n      jump\t// in\n    tag_356:\n        /* \"#utility.yul\":12196:12528   */\n      swap4\n      swap3\n      pop\n      pop\n      pop\n      jump\t// out\n        /* \"#utility.yul\":12534:12762   */\n    tag_221:\n        /* \"#utility.yul\":12674:12708   */\n      0x43616c6c6572206d757374206265206f6e65206f662074686520656e67616765\n        /* \"#utility.yul\":12670:12671   */\n      0x00\n        /* \"#utility.yul\":12662:12668   */\n      dup3\n        /* \"#utility.yul\":12658:12672   */\n      add\n        /* \"#utility.yul\":12651:12709   */\n      mstore\n        /* \"#utility.yul\":12743:12754   */\n      0x6420706172746965730000000000000000000000000000000000000000000000\n        /* \"#utility.yul\":12738:12740   */\n      0x20\n        /* \"#utility.yul\":12730:12736   */\n      dup3\n        /* \"#utility.yul\":12726:12741   */\n      add\n        /* \"#utility.yul\":12719:12755   */\n      mstore\n        /* \"#utility.yul\":12534:12762   */\n      pop\n      jump\t// out\n        /* \"#utility.yul\":12768:13134   */\n    tag_222:\n        /* \"#utility.yul\":12910:12913   */\n      0x00\n        /* \"#utility.yul\":12931:12998   */\n      tag_359\n        /* \"#utility.yul\":12995:12997   */\n      0x29\n        /* \"#utility.yul\":12990:12993   */\n      dup4\n        /* \"#utility.yul\":12931:12998   */\n      tag_214\n      jump\t// in\n    tag_359:\n        /* \"#utility.yul\":12924:12998   */\n      swap2\n      pop\n        /* \"#utility.yul\":13007:13100   */\n      tag_360\n        /* \"#utility.yul\":13096:13099   */\n      dup3\n        /* \"#utility.yul\":13007:13100   */\n      tag_221\n      jump\t// in\n    tag_360:\n        /* \"#utility.yul\":13125:13127   */\n      0x40\n        /* \"#utility.yul\":13120:13123   */\n      dup3\n        /* \"#utility.yul\":13116:13128   */\n      add\n        /* \"#utility.yul\":13109:13128   */\n      swap1\n      pop\n        /* \"#utility.yul\":12768:13134   */\n      swap2\n      swap1\n      pop\n      jump\t// out\n        /* \"#utility.yul\":13140:13559   */\n    tag_98:\n        /* \"#utility.yul\":13306:13310   */\n      0x00\n        /* \"#utility.yul\":13344:13346   */\n      0x20\n        /* \"#utility.yul\":13333:13342   */\n      dup3\n        /* \"#utility.yul\":13329:13347   */\n      add\n        /* \"#utility.yul\":13321:13347   */\n      swap1\n      pop\n        /* \"#utility.yul\":13393:13402   */\n      dup2\n        /* \"#utility.yul\":13387:13391   */\n      dup2\n        /* \"#utility.yul\":13383:13403   */\n      sub\n        /* \"#utility.yul\":13379:13380   */\n      0x00\n        /* \"#utility.yul\":13368:13377   */\n      dup4\n        /* \"#utility.yul\":13364:13381   */\n      add\n        /* \"#utility.yul\":13357:13404   */\n      mstore\n        /* \"#utility.yul\":13421:13552   */\n      tag_362\n        /* \"#utility.yul\":13547:13551   */\n      dup2\n        /* \"#utility.yul\":13421:13552   */\n      tag_222\n      jump\t// in\n    tag_362:\n        /* \"#utility.yul\":13413:13552   */\n      swap1\n      pop\n        /* \"#utility.yul\":13140:13559   */\n      swap2\n      swap1\n      pop\n      jump\t// out\n        /* \"#utility.yul\":13565:13667   */\n    tag_223:\n        /* \"#utility.yul\":13634:13638   */\n      0x00\n        /* \"#utility.yul\":13657:13660   */\n      dup2\n        /* \"#utility.yul\":13649:13660   */\n      swap1\n      pop\n        /* \"#utility.yul\":13565:13667   */\n      swap2\n      swap1\n      pop\n      jump\t// out\n        /* \"#utility.yul\":13673:13795   */\n    tag_224:\n        /* \"#utility.yul\":13725:13730   */\n      0x00\n        /* \"#utility.yul\":13750:13789   */\n      tag_365\n        /* \"#utility.yul\":13785:13787   */\n      0x20\n        /* \"#utility.yul\":13780:13783   */\n      dup5\n        /* \"#utility.yul\":13776:13788   */\n      add\n        /* \"#utility.yul\":13771:13774   */\n      dup5\n        /* \"#utility.yul\":13750:13789   */\n      tag_195\n      jump\t// in\n    tag_365:\n        /* \"#utility.yul\":13741:13789   */\n      swap1\n      pop\n        /* \"#utility.yul\":13673:13795   */\n      swap3\n      swap2\n      pop\n      pop\n      jump\t// out\n        /* \"#utility.yul\":13801:13916   */\n    tag_225:\n        /* \"#utility.yul\":13873:13877   */\n      0x00\n        /* \"#utility.yul\":13905:13909   */\n      0x20\n        /* \"#utility.yul\":13900:13903   */\n      dup3\n        /* \"#utility.yul\":13896:13910   */\n      add\n        /* \"#utility.yul\":13888:13910   */\n      swap1\n      pop\n        /* \"#utility.yul\":13801:13916   */\n      swap2\n      swap1\n      pop\n      jump\t// out\n        /* \"#utility.yul\":13952:14651   */\n    tag_226:\n        /* \"#utility.yul\":14081:14084   */\n      0x00\n        /* \"#utility.yul\":14104:14190   */\n      tag_368\n        /* \"#utility.yul\":14183:14189   */\n      dup4\n        /* \"#utility.yul\":14178:14181   */\n      dup6\n        /* \"#utility.yul\":14104:14190   */\n      tag_201\n      jump\t// in\n    tag_368:\n        /* \"#utility.yul\":14097:14190   */\n      swap4\n      pop\n        /* \"#utility.yul\":14214:14272   */\n      tag_369\n        /* \"#utility.yul\":14266:14271   */\n      dup3\n        /* \"#utility.yul\":14214:14272   */\n      tag_223\n      jump\t// in\n    tag_369:\n        /* \"#utility.yul\":14295:14302   */\n      dup1\n        /* \"#utility.yul\":14326:14327   */\n      0x00\n        /* \"#utility.yul\":14311:14626   */\n    tag_370:\n        /* \"#utility.yul\":14336:14342   */\n      dup6\n        /* \"#utility.yul\":14333:14334   */\n      dup2\n        /* \"#utility.yul\":14330:14343   */\n      lt\n        /* \"#utility.yul\":14311:14626   */\n      iszero\n      tag_372\n      jumpi\n        /* \"#utility.yul\":14406:14448   */\n      tag_373\n        /* \"#utility.yul\":14441:14447   */\n      dup3\n        /* \"#utility.yul\":14432:14439   */\n      dup5\n        /* \"#utility.yul\":14406:14448   */\n      tag_224\n      jump\t// in\n    tag_373:\n        /* \"#utility.yul\":14468:14531   */\n      tag_374\n        /* \"#utility.yul\":14527:14530   */\n      dup9\n        /* \"#utility.yul\":14512:14525   */\n      dup3\n        /* \"#utility.yul\":14468:14531   */\n      tag_204\n      jump\t// in\n    tag_374:\n        /* \"#utility.yul\":14461:14531   */\n      swap8\n      pop\n        /* \"#utility.yul\":14554:14616   */\n      tag_375\n        /* \"#utility.yul\":14609:14615   */\n      dup4\n        /* \"#utility.yul\":14554:14616   */\n      tag_225\n      jump\t// in\n    tag_375:\n        /* \"#utility.yul\":14544:14616   */\n      swap3\n      pop\n        /* \"#utility.yul\":14371:14626   */\n      pop\n        /* \"#utility.yul\":14358:14359   */\n      0x01\n        /* \"#utility.yul\":14355:14356   */\n      dup2\n        /* \"#utility.yul\":14351:14360   */\n      add\n        /* \"#utility.yul\":14346:14360   */\n      swap1\n      pop\n        /* \"#utility.yul\":14311:14626   */\n      jump(tag_370)\n    tag_372:\n        /* \"#utility.yul\":14315:14329   */\n      pop\n        /* \"#utility.yul\":14642:14645   */\n      dup6\n        /* \"#utility.yul\":14635:14645   */\n      swap3\n      pop\n        /* \"#utility.yul\":14086:14651   */\n      pop\n      pop\n        /* \"#utility.yul\":13952:14651   */\n      swap4\n      swap3\n      pop\n      pop\n      pop\n      jump\t// out\n        /* \"#utility.yul\":14657:15160   */\n    tag_104:\n        /* \"#utility.yul\":14838:14842   */\n      0x00\n        /* \"#utility.yul\":14876:14878   */\n      0x40\n        /* \"#utility.yul\":14865:14874   */\n      dup3\n        /* \"#utility.yul\":14861:14879   */\n      add\n        /* \"#utility.yul\":14853:14879   */\n      swap1\n      pop\n        /* \"#utility.yul\":14889:14960   */\n      tag_377\n        /* \"#utility.yul\":14957:14958   */\n      0x00\n        /* \"#utility.yul\":14946:14955   */\n      dup4\n        /* \"#utility.yul\":14942:14959   */\n      add\n        /* \"#utility.yul\":14933:14939   */\n      dup7\n        /* \"#utility.yul\":14889:14960   */\n      tag_213\n      jump\t// in\n    tag_377:\n        /* \"#utility.yul\":15007:15016   */\n      dup2\n        /* \"#utility.yul\":15001:15005   */\n      dup2\n        /* \"#utility.yul\":14997:15017   */\n      sub\n        /* \"#utility.yul\":14992:14994   */\n      0x20\n        /* \"#utility.yul\":14981:14990   */\n      dup4\n        /* \"#utility.yul\":14977:14995   */\n      add\n        /* \"#utility.yul\":14970:15018   */\n      mstore\n        /* \"#utility.yul\":15035:15153   */\n      tag_378\n        /* \"#utility.yul\":15148:15152   */\n      dup2\n        /* \"#utility.yul\":15139:15145   */\n      dup5\n        /* \"#utility.yul\":15131:15137   */\n      dup7\n        /* \"#utility.yul\":15035:15153   */\n      tag_226\n      jump\t// in\n    tag_378:\n        /* \"#utility.yul\":15027:15153   */\n      swap1\n      pop\n        /* \"#utility.yul\":14657:15160   */\n      swap5\n      swap4\n      pop\n      pop\n      pop\n      pop\n      jump\t// out\n        /* \"#utility.yul\":15166:15401   */\n    tag_227:\n        /* \"#utility.yul\":15306:15340   */\n      0x4f6e65206f7220626f7468206f66207468652073706f75736573206172652061\n        /* \"#utility.yul\":15302:15303   */\n      0x00\n        /* \"#utility.yul\":15294:15300   */\n      dup3\n        /* \"#utility.yul\":15290:15304   */\n      add\n        /* \"#utility.yul\":15283:15341   */\n      mstore\n        /* \"#utility.yul\":15375:15393   */\n      0x6c726561647920656e67616765642e2000000000000000000000000000000000\n        /* \"#utility.yul\":15370:15372   */\n      0x20\n        /* \"#utility.yul\":15362:15368   */\n      dup3\n        /* \"#utility.yul\":15358:15373   */\n      add\n        /* \"#utility.yul\":15351:15394   */\n      mstore\n        /* \"#utility.yul\":15166:15401   */\n      pop\n      jump\t// out\n        /* \"#utility.yul\":15407:15773   */\n    tag_228:\n        /* \"#utility.yul\":15549:15552   */\n      0x00\n        /* \"#utility.yul\":15570:15637   */\n      tag_381\n        /* \"#utility.yul\":15634:15636   */\n      0x30\n        /* \"#utility.yul\":15629:15632   */\n      dup4\n        /* \"#utility.yul\":15570:15637   */\n      tag_214\n      jump\t// in\n    tag_381:\n        /* \"#utility.yul\":15563:15637   */\n      swap2\n      pop\n        /* \"#utility.yul\":15646:15739   */\n      tag_382\n        /* \"#utility.yul\":15735:15738   */\n      dup3\n        /* \"#utility.yul\":15646:15739   */\n      tag_227\n      jump\t// in\n    tag_382:\n        /* \"#utility.yul\":15764:15766   */\n      0x40\n        /* \"#utility.yul\":15759:15762   */\n      dup3\n        /* \"#utility.yul\":15755:15767   */\n      add\n        /* \"#utility.yul\":15748:15767   */\n      swap1\n      pop\n        /* \"#utility.yul\":15407:15773   */\n      swap2\n      swap1\n      pop\n      jump\t// out\n        /* \"#utility.yul\":15779:16198   */\n    tag_109:\n        /* \"#utility.yul\":15945:15949   */\n      0x00\n        /* \"#utility.yul\":15983:15985   */\n      0x20\n        /* \"#utility.yul\":15972:15981   */\n      dup3\n        /* \"#utility.yul\":15968:15986   */\n      add\n        /* \"#utility.yul\":15960:15986   */\n      swap1\n      pop\n        /* \"#utility.yul\":16032:16041   */\n      dup2\n        /* \"#utility.yul\":16026:16030   */\n      dup2\n        /* \"#utility.yul\":16022:16042   */\n      sub\n        /* \"#utility.yul\":16018:16019   */\n      0x00\n        /* \"#utility.yul\":16007:16016   */\n      dup4\n        /* \"#utility.yul\":16003:16020   */\n      add\n        /* \"#utility.yul\":15996:16043   */\n      mstore\n        /* \"#utility.yul\":16060:16191   */\n      tag_384\n        /* \"#utility.yul\":16186:16190   */\n      dup2\n        /* \"#utility.yul\":16060:16191   */\n      tag_228\n      jump\t// in\n    tag_384:\n        /* \"#utility.yul\":16052:16191   */\n      swap1\n      pop\n        /* \"#utility.yul\":15779:16198   */\n      swap2\n      swap1\n      pop\n      jump\t// out\n        /* \"#utility.yul\":16204:16378   */\n    tag_229:\n        /* \"#utility.yul\":16344:16370   */\n      0x43616e6e6f7420656e6761676520746f206f6e6573656c660000000000000000\n        /* \"#utility.yul\":16340:16341   */\n      0x00\n        /* \"#utility.yul\":16332:16338   */\n      dup3\n        /* \"#utility.yul\":16328:16342   */\n      add\n        /* \"#utility.yul\":16321:16371   */\n      mstore\n        /* \"#utility.yul\":16204:16378   */\n      pop\n      jump\t// out\n        /* \"#utility.yul\":16384:16750   */\n    tag_230:\n        /* \"#utility.yul\":16526:16529   */\n      0x00\n        /* \"#utility.yul\":16547:16614   */\n      tag_387\n        /* \"#utility.yul\":16611:16613   */\n      0x18\n        /* \"#utility.yul\":16606:16609   */\n      dup4\n        /* \"#utility.yul\":16547:16614   */\n      tag_214\n      jump\t// in\n    tag_387:\n        /* \"#utility.yul\":16540:16614   */\n      swap2\n      pop\n        /* \"#utility.yul\":16623:16716   */\n      tag_388\n        /* \"#utility.yul\":16712:16715   */\n      dup3\n        /* \"#utility.yul\":16623:16716   */\n      tag_229\n      jump\t// in\n    tag_388:\n        /* \"#utility.yul\":16741:16743   */\n      0x20\n        /* \"#utility.yul\":16736:16739   */\n      dup3\n        /* \"#utility.yul\":16732:16744   */\n      add\n        /* \"#utility.yul\":16725:16744   */\n      swap1\n      pop\n        /* \"#utility.yul\":16384:16750   */\n      swap2\n      swap1\n      pop\n      jump\t// out\n        /* \"#utility.yul\":16756:17175   */\n    tag_113:\n        /* \"#utility.yul\":16922:16926   */\n      0x00\n        /* \"#utility.yul\":16960:16962   */\n      0x20\n        /* \"#utility.yul\":16949:16958   */\n      dup3\n        /* \"#utility.yul\":16945:16963   */\n      add\n        /* \"#utility.yul\":16937:16963   */\n      swap1\n      pop\n        /* \"#utility.yul\":17009:17018   */\n      dup2\n        /* \"#utility.yul\":17003:17007   */\n      dup2\n        /* \"#utility.yul\":16999:17019   */\n      sub\n        /* \"#utility.yul\":16995:16996   */\n      0x00\n        /* \"#utility.yul\":16984:16993   */\n      dup4\n        /* \"#utility.yul\":16980:16997   */\n      add\n        /* \"#utility.yul\":16973:17020   */\n      mstore\n        /* \"#utility.yul\":17037:17168   */\n      tag_390\n        /* \"#utility.yul\":17163:17167   */\n      dup2\n        /* \"#utility.yul\":17037:17168   */\n      tag_230\n      jump\t// in\n    tag_390:\n        /* \"#utility.yul\":17029:17168   */\n      swap1\n      pop\n        /* \"#utility.yul\":16756:17175   */\n      swap2\n      swap1\n      pop\n      jump\t// out\n        /* \"#utility.yul\":17181:17623   */\n    tag_116:\n        /* \"#utility.yul\":17330:17334   */\n      0x00\n        /* \"#utility.yul\":17368:17370   */\n      0x60\n        /* \"#utility.yul\":17357:17366   */\n      dup3\n        /* \"#utility.yul\":17353:17371   */\n      add\n        /* \"#utility.yul\":17345:17371   */\n      swap1\n      pop\n        /* \"#utility.yul\":17381:17452   */\n      tag_392\n        /* \"#utility.yul\":17449:17450   */\n      0x00\n        /* \"#utility.yul\":17438:17447   */\n      dup4\n        /* \"#utility.yul\":17434:17451   */\n      add\n        /* \"#utility.yul\":17425:17431   */\n      dup7\n        /* \"#utility.yul\":17381:17452   */\n      tag_213\n      jump\t// in\n    tag_392:\n        /* \"#utility.yul\":17462:17534   */\n      tag_393\n        /* \"#utility.yul\":17530:17532   */\n      0x20\n        /* \"#utility.yul\":17519:17528   */\n      dup4\n        /* \"#utility.yul\":17515:17533   */\n      add\n        /* \"#utility.yul\":17506:17512   */\n      dup6\n        /* \"#utility.yul\":17462:17534   */\n      tag_213\n      jump\t// in\n    tag_393:\n        /* \"#utility.yul\":17544:17616   */\n      tag_394\n        /* \"#utility.yul\":17612:17614   */\n      0x40\n        /* \"#utility.yul\":17601:17610   */\n      dup4\n        /* \"#utility.yul\":17597:17615   */\n      add\n        /* \"#utility.yul\":17588:17594   */\n      dup5\n        /* \"#utility.yul\":17544:17616   */\n      tag_199\n      jump\t// in\n    tag_394:\n        /* \"#utility.yul\":17181:17623   */\n      swap5\n      swap4\n      pop\n      pop\n      pop\n      pop\n      jump\t// out\n        /* \"#utility.yul\":17629:17809   */\n    tag_125:\n        /* \"#utility.yul\":17677:17754   */\n      0x4e487b7100000000000000000000000000000000000000000000000000000000\n        /* \"#utility.yul\":17674:17675   */\n      0x00\n        /* \"#utility.yul\":17667:17755   */\n      mstore\n        /* \"#utility.yul\":17774:17778   */\n      0x32\n        /* \"#utility.yul\":17771:17772   */\n      0x04\n        /* \"#utility.yul\":17764:17779   */\n      mstore\n        /* \"#utility.yul\":17798:17802   */\n      0x24\n        /* \"#utility.yul\":17795:17796   */\n      0x00\n        /* \"#utility.yul\":17788:17803   */\n      revert\n        /* \"#utility.yul\":17815:17995   */\n    tag_231:\n        /* \"#utility.yul\":17863:17940   */\n      0x4e487b7100000000000000000000000000000000000000000000000000000000\n        /* \"#utility.yul\":17860:17861   */\n      0x00\n        /* \"#utility.yul\":17853:17941   */\n      mstore\n        /* \"#utility.yul\":17960:17964   */\n      0x11\n        /* \"#utility.yul\":17957:17958   */\n      0x04\n        /* \"#utility.yul\":17950:17965   */\n      mstore\n        /* \"#utility.yul\":17984:17988   */\n      0x24\n        /* \"#utility.yul\":17981:17982   */\n      0x00\n        /* \"#utility.yul\":17974:17989   */\n      revert\n        /* \"#utility.yul\":18001:18234   */\n    tag_129:\n        /* \"#utility.yul\":18040:18043   */\n      0x00\n        /* \"#utility.yul\":18063:18087   */\n      tag_398\n        /* \"#utility.yul\":18081:18086   */\n      dup3\n        /* \"#utility.yul\":18063:18087   */\n      tag_198\n      jump\t// in\n    tag_398:\n        /* \"#utility.yul\":18054:18087   */\n      swap2\n      pop\n        /* \"#utility.yul\":18109:18175   */\n      0xffffffffffffffffffffffffffffffffffffffffffffffffffffffffffffffff\n        /* \"#utility.yul\":18102:18107   */\n      dup3\n        /* \"#utility.yul\":18099:18176   */\n      sub\n        /* \"#utility.yul\":18096:18199   */\n      tag_399\n      jumpi\n        /* \"#utility.yul\":18179:18197   */\n      tag_400\n      tag_231\n      jump\t// in\n    tag_400:\n        /* \"#utility.yul\":18096:18199   */\n    tag_399:\n        /* \"#utility.yul\":18226:18227   */\n      0x01\n        /* \"#utility.yul\":18219:18224   */\n      dup3\n        /* \"#utility.yul\":18215:18228   */\n      add\n        /* \"#utility.yul\":18208:18228   */\n      swap1\n      pop\n        /* \"#utility.yul\":18001:18234   */\n      swap2\n      swap1\n      pop\n      jump\t// out\n        /* \"#utility.yul\":18240:18411   */\n    tag_232:\n        /* \"#utility.yul\":18380:18403   */\n      0x4e6f74206120636f6e6669726d65642067756573740000000000000000000000\n        /* \"#utility.yul\":18376:18377   */\n      0x00\n        /* \"#utility.yul\":18368:18374   */\n      dup3\n        /* \"#utility.yul\":18364:18378   */\n      add\n        /* \"#utility.yul\":18357:18404   */\n      mstore\n        /* \"#utility.yul\":18240:18411   */\n      pop\n      jump\t// out\n        /* \"#utility.yul\":18417:18783   */\n    tag_233:\n        /* \"#utility.yul\":18559:18562   */\n      0x00\n        /* \"#utility.yul\":18580:18647   */\n      tag_403\n        /* \"#utility.yul\":18644:18646   */\n      0x15\n        /* \"#utility.yul\":18639:18642   */\n      dup4\n        /* \"#utility.yul\":18580:18647   */\n      tag_214\n      jump\t// in\n    tag_403:\n        /* \"#utility.yul\":18573:18647   */\n      swap2\n      pop\n        /* \"#utility.yul\":18656:18749   */\n      tag_404\n        /* \"#utility.yul\":18745:18748   */\n      dup3\n        /* \"#utility.yul\":18656:18749   */\n      tag_232\n      jump\t// in\n    tag_404:\n        /* \"#utility.yul\":18774:18776   */\n      0x20\n        /* \"#utility.yul\":18769:18772   */\n      dup3\n        /* \"#utility.yul\":18765:18777   */\n      add\n        /* \"#utility.yul\":18758:18777   */\n      swap1\n      pop\n        /* \"#utility.yul\":18417:18783   */\n      swap2\n      swap1\n      pop\n      jump\t// out\n        /* \"#utility.yul\":18789:19208   */\n    tag_143:\n        /* \"#utility.yul\":18955:18959   */\n      0x00\n        /* \"#utility.yul\":18993:18995   */\n      0x20\n        /* \"#utility.yul\":18982:18991   */\n      dup3\n        /* \"#utility.yul\":18978:18996   */\n      add\n        /* \"#utility.yul\":18970:18996   */\n      swap1\n      pop\n        /* \"#utility.yul\":19042:19051   */\n      dup2\n        /* \"#utility.yul\":19036:19040   */\n      dup2\n        /* \"#utility.yul\":19032:19052   */\n      sub\n        /* \"#utility.yul\":19028:19029   */\n      0x00\n        /* \"#utility.yul\":19017:19026   */\n      dup4\n        /* \"#utility.yul\":19013:19030   */\n      add\n        /* \"#utility.yul\":19006:19053   */\n      mstore\n        /* \"#utility.yul\":19070:19201   */\n      tag_406\n        /* \"#utility.yul\":19196:19200   */\n      dup2\n        /* \"#utility.yul\":19070:19201   */\n      tag_233\n      jump\t// in\n    tag_406:\n        /* \"#utility.yul\":19062:19201   */\n      swap1\n      pop\n        /* \"#utility.yul\":18789:19208   */\n      swap2\n      swap1\n      pop\n      jump\t// out\n        /* \"#utility.yul\":19214:19377   */\n    tag_234:\n        /* \"#utility.yul\":19354:19369   */\n      0x416c726561647920766f74656400000000000000000000000000000000000000\n        /* \"#utility.yul\":19350:19351   */\n      0x00\n        /* \"#utility.yul\":19342:19348   */\n      dup3\n        /* \"#utility.yul\":19338:19352   */\n      add\n        /* \"#utility.yul\":19331:19370   */\n      mstore\n        /* \"#utility.yul\":19214:19377   */\n      pop\n      jump\t// out\n        /* \"#utility.yul\":19383:19749   */\n    tag_235:\n        /* \"#utility.yul\":19525:19528   */\n      0x00\n        /* \"#utility.yul\":19546:19613   */\n      tag_409\n        /* \"#utility.yul\":19610:19612   */\n      0x0d\n        /* \"#utility.yul\":19605:19608   */\n      dup4\n        /* \"#utility.yul\":19546:19613   */\n      tag_214\n      jump\t// in\n    tag_409:\n        /* \"#utility.yul\":19539:19613   */\n      swap2\n      pop\n        /* \"#utility.yul\":19622:19715   */\n      tag_410\n        /* \"#utility.yul\":19711:19714   */\n      dup3\n        /* \"#utility.yul\":19622:19715   */\n      tag_234\n      jump\t// in\n    tag_410:\n        /* \"#utility.yul\":19740:19742   */\n      0x20\n        /* \"#utility.yul\":19735:19738   */\n      dup3\n        /* \"#utility.yul\":19731:19743   */\n      add\n        /* \"#utility.yul\":19724:19743   */\n      swap1\n      pop\n        /* \"#utility.yul\":19383:19749   */\n      swap2\n      swap1\n      pop\n      jump\t// out\n        /* \"#utility.yul\":19755:20174   */\n    tag_147:\n        /* \"#utility.yul\":19921:19925   */\n      0x00\n        /* \"#utility.yul\":19959:19961   */\n      0x20\n        /* \"#utility.yul\":19948:19957   */\n      dup3\n        /* \"#utility.yul\":19944:19962   */\n      add\n        /* \"#utility.yul\":19936:19962   */\n      swap1\n      pop\n        /* \"#utility.yul\":20008:20017   */\n      dup2\n        /* \"#utility.yul\":20002:20006   */\n      dup2\n        /* \"#utility.yul\":19998:20018   */\n      sub\n        /* \"#utility.yul\":19994:19995   */\n      0x00\n        /* \"#utility.yul\":19983:19992   */\n      dup4\n        /* \"#utility.yul\":19979:19996   */\n      add\n        /* \"#utility.yul\":19972:20019   */\n      mstore\n        /* \"#utility.yul\":20036:20167   */\n      tag_412\n        /* \"#utility.yul\":20162:20166   */\n      dup2\n        /* \"#utility.yul\":20036:20167   */\n      tag_235\n      jump\t// in\n    tag_412:\n        /* \"#utility.yul\":20028:20167   */\n      swap1\n      pop\n        /* \"#utility.yul\":19755:20174   */\n      swap2\n      swap1\n      pop\n      jump\t// out\n        /* \"#utility.yul\":20180:20402   */\n    tag_167:\n        /* \"#utility.yul\":20273:20277   */\n      0x00\n        /* \"#utility.yul\":20311:20313   */\n      0x20\n        /* \"#utility.yul\":20300:20309   */\n      dup3\n        /* \"#utility.yul\":20296:20314   */\n      add\n        /* \"#utility.yul\":20288:20314   */\n      swap1\n      pop\n        /* \"#utility.yul\":20324:20395   */\n      tag_414\n        /* \"#utility.yul\":20392:20393   */\n      0x00\n        /* \"#utility.yul\":20381:20390   */\n      dup4\n        /* \"#utility.yul\":20377:20394   */\n      add\n        /* \"#utility.yul\":20368:20374   */\n      dup5\n        /* \"#utility.yul\":20324:20395   */\n      tag_213\n      jump\t// in\n    tag_414:\n        /* \"#utility.yul\":20180:20402   */\n      swap3\n      swap2\n      pop\n      pop\n      jump\t// out\n        /* \"#utility.yul\":20408:20599   */\n    tag_176:\n        /* \"#utility.yul\":20448:20451   */\n      0x00\n        /* \"#utility.yul\":20467:20487   */\n      tag_416\n        /* \"#utility.yul\":20485:20486   */\n      dup3\n        /* \"#utility.yul\":20467:20487   */\n      tag_198\n      jump\t// in\n    tag_416:\n        /* \"#utility.yul\":20462:20487   */\n      swap2\n      pop\n        /* \"#utility.yul\":20501:20521   */\n      tag_417\n        /* \"#utility.yul\":20519:20520   */\n      dup4\n        /* \"#utility.yul\":20501:20521   */\n      tag_198\n      jump\t// in\n    tag_417:\n        /* \"#utility.yul\":20496:20521   */\n      swap3\n      pop\n        /* \"#utility.yul\":20544:20545   */\n      dup3\n        /* \"#utility.yul\":20541:20542   */\n      dup3\n        /* \"#utility.yul\":20537:20546   */\n      add\n        /* \"#utility.yul\":20530:20546   */\n      swap1\n      pop\n        /* \"#utility.yul\":20565:20568   */\n      dup1\n        /* \"#utility.yul\":20562:20563   */\n      dup3\n        /* \"#utility.yul\":20559:20569   */\n      gt\n        /* \"#utility.yul\":20556:20592   */\n      iszero\n      tag_418\n      jumpi\n        /* \"#utility.yul\":20572:20590   */\n      tag_419\n      tag_231\n      jump\t// in\n    tag_419:\n        /* \"#utility.yul\":20556:20592   */\n    tag_418:\n        /* \"#utility.yul\":20408:20599   */\n      swap3\n      swap2\n      pop\n      pop\n      jump\t// out\n        /* \"#utility.yul\":20605:20785   */\n    tag_236:\n        /* \"#utility.yul\":20653:20730   */\n      0x4e487b7100000000000000000000000000000000000000000000000000000000\n        /* \"#utility.yul\":20650:20651   */\n      0x00\n        /* \"#utility.yul\":20643:20731   */\n      mstore\n        /* \"#utility.yul\":20750:20754   */\n      0x12\n        /* \"#utility.yul\":20747:20748   */\n      0x04\n        /* \"#utility.yul\":20740:20755   */\n      mstore\n        /* \"#utility.yul\":20774:20778   */\n      0x24\n        /* \"#utility.yul\":20771:20772   */\n      0x00\n        /* \"#utility.yul\":20764:20779   */\n      revert\n        /* \"#utility.yul\":20791:20976   */\n    tag_178:\n        /* \"#utility.yul\":20831:20832   */\n      0x00\n        /* \"#utility.yul\":20848:20868   */\n      tag_422\n        /* \"#utility.yul\":20866:20867   */\n      dup3\n        /* \"#utility.yul\":20848:20868   */\n      tag_198\n      jump\t// in\n    tag_422:\n        /* \"#utility.yul\":20843:20868   */\n      swap2\n      pop\n        /* \"#utility.yul\":20882:20902   */\n      tag_423\n        /* \"#utility.yul\":20900:20901   */\n      dup4\n        /* \"#utility.yul\":20882:20902   */\n      tag_198\n      jump\t// in\n    tag_423:\n        /* \"#utility.yul\":20877:20902   */\n      swap3\n      pop\n        /* \"#utility.yul\":20921:20922   */\n      dup3\n        /* \"#utility.yul\":20911:20946   */\n      tag_424\n      jumpi\n        /* \"#utility.yul\":20926:20944   */\n      tag_425\n      tag_236\n      jump\t// in\n    tag_425:\n        /* \"#utility.yul\":20911:20946   */\n    tag_424:\n        /* \"#utility.yul\":20968:20969   */\n      dup3\n        /* \"#utility.yul\":20965:20966   */\n      dup3\n        /* \"#utility.yul\":20961:20970   */\n      div\n        /* \"#utility.yul\":20956:20970   */\n      swap1\n      pop\n        /* \"#utility.yul\":20791:20976   */\n      swap3\n      swap2\n      pop\n      pop\n      jump\t// out\n\n    auxdata: 0xa264697066735822122004a0be2ccf706ab653ca3197d8e96d4e8e3f54da12235121d47aa437eaf9734264736f6c63430008150033\n}\n",
				"bytecode": {
					"linkReferences": {},
					"object": "608060405234801561000f575f80fd5b506134a08061001d5f395ff3fe608060405234801561000f575f80fd5b50600436106100a7575f3560e01c8063987e95331161006f578063987e95331461013d5780639dcaf47914610159578063a1905e4e14610189578063a22690a8146101a5578063b95afe03146101dc578063e83dc18514610210576100a7565b80632b80fa28146100ab5780635dd4e938146100dd5780636d955eb51461010d57806385b9a11f1461011757806390106c5e14610121575b5f80fd5b6100c560048036038101906100c09190612a75565b61021a565b6040516100d493929190612ad2565b60405180910390f35b6100f760048036038101906100f29190612a75565b61025a565b6040516101049190612bbe565b60405180910390f35b610115610324565b005b61011f6106f4565b005b61013b60048036038101906101369190612c3f565b610c73565b005b61015760048036038101906101529190612cb4565b611283565b005b610173600480360381019061016e9190612cf2565b61177c565b6040516101809190612d30565b60405180910390f35b6101a3600480360381019061019e9190612a75565b61190f565b005b6101bf60048036038101906101ba9190612a75565b611cd1565b6040516101d3989796959493929190612d58565b60405180910390f35b6101f660048036038101906101f19190612a75565b611d92565b604051610207959493929190612dd4565b60405180910390f35b610218611f47565b005b6001602052805f5260405f205f91509050806001015f9054906101000a900460ff16908060010160019054906101000a900460ff16908060030154905083565b606060015f8373ffffffffffffffffffffffffffffffffffffffff1673ffffffffffffffffffffffffffffffffffffffff1681526020019081526020015f205f0180548060200260200160405190810160405280929190818152602001828054801561031857602002820191905f5260205f20905b815f9054906101000a900473ffffffffffffffffffffffffffffffffffffffff1673ffffffffffffffffffffffffffffffffffffffff16815260200190600101908083116102cf575b50505050509050919050565b33600115155f808373ffffffffffffffffffffffffffffffffffffffff1673ffffffffffffffffffffffffffffffffffffffff1681526020019081526020015f206003015f9054906101000a900460ff161515146103b7576040517f08c379a00000000000000000000000000000000000000000000000000000000081526004016103ae90612e7f565b60405180910390fd5b335f15155f808373ffffffffffffffffffffffffffffffffffffffff1673ffffffffffffffffffffffffffffffffffffffff1681526020019081526020015f2060030160019054906101000a900460ff1615151461044a576040517f08c379a000000000000000000000000000000000000000000000000000000000815260040161044190612f0d565b60405180910390fd5b5f805f3373ffffffffffffffffffffffffffffffffffffffff1673ffffffffffffffffffffffffffffffffffffffff1681526020019081526020015f2090505f80825f015f9054906101000a900473ffffffffffffffffffffffffffffffffffffffff1673ffffffffffffffffffffffffffffffffffffffff1673ffffffffffffffffffffffffffffffffffffffff1681526020019081526020015f205f8082015f6101000a81549073ffffffffffffffffffffffffffffffffffffffff0219169055600182015f6101000a81549073ffffffffffffffffffffffffffffffffffffffff0219169055600282015f9055600382015f6101000a81549060ff02191690556003820160016101000a81549060ff02191690556003820160026101000a81549060ff02191690556003820160036101000a81549060ff02191690556003820160046101000a81549060ff021916905550505f80826001015f9054906101000a900473ffffffffffffffffffffffffffffffffffffffff1673ffffffffffffffffffffffffffffffffffffffff1673ffffffffffffffffffffffffffffffffffffffff1681526020019081526020015f205f8082015f6101000a81549073ffffffffffffffffffffffffffffffffffffffff0219169055600182015f6101000a81549073ffffffffffffffffffffffffffffffffffffffff0219169055600282015f9055600382015f6101000a81549060ff02191690556003820160016101000a81549060ff02191690556003820160026101000a81549060ff02191690556003820160036101000a81549060ff02191690556003820160046101000a81549060ff021916905550507f1271c287650062f685bd2f225144d7b6b046826a5a70632c8f873240d04a54c633426040516106e7929190612f2b565b60405180910390a1505050565b33600115155f808373ffffffffffffffffffffffffffffffffffffffff1673ffffffffffffffffffffffffffffffffffffffff1681526020019081526020015f206003015f9054906101000a900460ff16151514610787576040517f08c379a000000000000000000000000000000000000000000000000000000000815260040161077e90612e7f565b60405180910390fd5b335f15155f808373ffffffffffffffffffffffffffffffffffffffff1673ffffffffffffffffffffffffffffffffffffffff1681526020019081526020015f2060030160019054906101000a900460ff1615151461081a576040517f08c379a000000000000000000000000000000000000000000000000000000000815260040161081190612f0d565b60405180910390fd5b335f808273ffffffffffffffffffffffffffffffffffffffff1673ffffffffffffffffffffffffffffffffffffffff1681526020019081526020015f2060030160029054906101000a900460ff16156108a8576040517f08c379a000000000000000000000000000000000000000000000000000000000815260040161089f90612f9c565b60405180910390fd5b5f805f3373ffffffffffffffffffffffffffffffffffffffff1673ffffffffffffffffffffffffffffffffffffffff1681526020019081526020015f209050805f015f9054906101000a900473ffffffffffffffffffffffffffffffffffffffff1673ffffffffffffffffffffffffffffffffffffffff163373ffffffffffffffffffffffffffffffffffffffff16036109d95760018160030160036101000a81548160ff02191690831515021790555060015f80836001015f9054906101000a900473ffffffffffffffffffffffffffffffffffffffff1673ffffffffffffffffffffffffffffffffffffffff1673ffffffffffffffffffffffffffffffffffffffff1681526020019081526020015f2060030160036101000a81548160ff021916908315150217905550610ac8565b806001015f9054906101000a900473ffffffffffffffffffffffffffffffffffffffff1673ffffffffffffffffffffffffffffffffffffffff163373ffffffffffffffffffffffffffffffffffffffff1603610ac75760018160030160046101000a81548160ff02191690831515021790555060015f80835f015f9054906101000a900473ffffffffffffffffffffffffffffffffffffffff1673ffffffffffffffffffffffffffffffffffffffff1673ffffffffffffffffffffffffffffffffffffffff1681526020019081526020015f2060030160046101000a81548160ff0219169083151502179055505b5b8060030160039054906101000a900460ff168015610af457508060030160049054906101000a900460ff165b15610c6d5760015f80835f015f9054906101000a900473ffffffffffffffffffffffffffffffffffffffff1673ffffffffffffffffffffffffffffffffffffffff1673ffffffffffffffffffffffffffffffffffffffff1681526020019081526020015f2060030160026101000a81548160ff02191690831515021790555060015f80836001015f9054906101000a900473ffffffffffffffffffffffffffffffffffffffff1673ffffffffffffffffffffffffffffffffffffffff1673ffffffffffffffffffffffffffffffffffffffff1681526020019081526020015f2060030160026101000a81548160ff0219169083151502179055507f5c8ec7a25a142b043ee1d70b00b983786a266ced5b4e6b540ddc769276626819815f015f9054906101000a900473ffffffffffffffffffffffffffffffffffffffff16826001015f9054906101000a900473ffffffffffffffffffffffffffffffffffffffff16604051610c64929190612fba565b60405180910390a15b50505050565b33600115155f808373ffffffffffffffffffffffffffffffffffffffff1673ffffffffffffffffffffffffffffffffffffffff1681526020019081526020015f206003015f9054906101000a900460ff16151514610d06576040517f08c379a0000000000000000000000000000000000000000000000000000000008152600401610cfd90612e7f565b60405180910390fd5b335f805f8373ffffffffffffffffffffffffffffffffffffffff1673ffffffffffffffffffffffffffffffffffffffff1681526020019081526020015f20604051806101000160405290815f82015f9054906101000a900473ffffffffffffffffffffffffffffffffffffffff1673ffffffffffffffffffffffffffffffffffffffff1673ffffffffffffffffffffffffffffffffffffffff168152602001600182015f9054906101000a900473ffffffffffffffffffffffffffffffffffffffff1673ffffffffffffffffffffffffffffffffffffffff1673ffffffffffffffffffffffffffffffffffffffff16815260200160028201548152602001600382015f9054906101000a900460ff161515151581526020016003820160019054906101000a900460ff161515151581526020016003820160029054906101000a900460ff161515151581526020016003820160039054906101000a900460ff161515151581526020016003820160049054906101000a900460ff1615151515815250509050805f015173ffffffffffffffffffffffffffffffffffffffff163373ffffffffffffffffffffffffffffffffffffffff161480610ef75750806020015173ffffffffffffffffffffffffffffffffffffffff163373ffffffffffffffffffffffffffffffffffffffff16145b610f36576040517f08c379a0000000000000000000000000000000000000000000000000000000008152600401610f2d90613051565b60405180910390fd5b5f805f3373ffffffffffffffffffffffffffffffffffffffff1673ffffffffffffffffffffffffffffffffffffffff1681526020019081526020015f209050858560015f845f015f9054906101000a900473ffffffffffffffffffffffffffffffffffffffff1673ffffffffffffffffffffffffffffffffffffffff1673ffffffffffffffffffffffffffffffffffffffff1681526020019081526020015f205f019190610fe592919061295b565b505f60015f835f015f9054906101000a900473ffffffffffffffffffffffffffffffffffffffff1673ffffffffffffffffffffffffffffffffffffffff1673ffffffffffffffffffffffffffffffffffffffff1681526020019081526020015f206001015f6101000a81548160ff0219169083151502179055505f60015f835f015f9054906101000a900473ffffffffffffffffffffffffffffffffffffffff1673ffffffffffffffffffffffffffffffffffffffff1673ffffffffffffffffffffffffffffffffffffffff1681526020019081526020015f2060010160016101000a81548160ff021916908315150217905550858560015f846001015f9054906101000a900473ffffffffffffffffffffffffffffffffffffffff1673ffffffffffffffffffffffffffffffffffffffff1673ffffffffffffffffffffffffffffffffffffffff1681526020019081526020015f205f01919061114a92919061295b565b505f60015f836001015f9054906101000a900473ffffffffffffffffffffffffffffffffffffffff1673ffffffffffffffffffffffffffffffffffffffff1673ffffffffffffffffffffffffffffffffffffffff1681526020019081526020015f206001015f6101000a81548160ff0219169083151502179055505f60015f836001015f9054906101000a900473ffffffffffffffffffffffffffffffffffffffff1673ffffffffffffffffffffffffffffffffffffffff1673ffffffffffffffffffffffffffffffffffffffff1681526020019081526020015f2060010160016101000a81548160ff0219169083151502179055507f402f0cdbbd3e7bdbd2c1fc4d920fa1ee7a733238220198df262284a1259d0be6338787604051611273939291906130f5565b60405180910390a1505050505050565b33825f15155f808473ffffffffffffffffffffffffffffffffffffffff1673ffffffffffffffffffffffffffffffffffffffff1681526020019081526020015f206003015f9054906101000a900460ff16151514801561133157505f15155f808373ffffffffffffffffffffffffffffffffffffffff1673ffffffffffffffffffffffffffffffffffffffff1681526020019081526020015f206003015f9054906101000a900460ff161515145b611370576040517f08c379a000000000000000000000000000000000000000000000000000000000815260040161136790613195565b60405180910390fd5b838073ffffffffffffffffffffffffffffffffffffffff163373ffffffffffffffffffffffffffffffffffffffff16036113df576040517f08c379a00000000000000000000000000000000000000000000000000000000081526004016113d6906131fd565b60405180910390fd5b5f6040518061010001604052803373ffffffffffffffffffffffffffffffffffffffff1681526020018773ffffffffffffffffffffffffffffffffffffffff1681526020018681526020016001151581526020015f151581526020015f151581526020015f151581526020015f15158152509050805f803373ffffffffffffffffffffffffffffffffffffffff1673ffffffffffffffffffffffffffffffffffffffff1681526020019081526020015f205f820151815f015f6101000a81548173ffffffffffffffffffffffffffffffffffffffff021916908373ffffffffffffffffffffffffffffffffffffffff1602179055506020820151816001015f6101000a81548173ffffffffffffffffffffffffffffffffffffffff021916908373ffffffffffffffffffffffffffffffffffffffff160217905550604082015181600201556060820151816003015f6101000a81548160ff02191690831515021790555060808201518160030160016101000a81548160ff02191690831515021790555060a08201518160030160026101000a81548160ff02191690831515021790555060c08201518160030160036101000a81548160ff02191690831515021790555060e08201518160030160046101000a81548160ff021916908315150217905550905050805f808873ffffffffffffffffffffffffffffffffffffffff1673ffffffffffffffffffffffffffffffffffffffff1681526020019081526020015f205f820151815f015f6101000a81548173ffffffffffffffffffffffffffffffffffffffff021916908373ffffffffffffffffffffffffffffffffffffffff1602179055506020820151816001015f6101000a81548173ffffffffffffffffffffffffffffffffffffffff021916908373ffffffffffffffffffffffffffffffffffffffff160217905550604082015181600201556060820151816003015f6101000a81548160ff02191690831515021790555060808201518160030160016101000a81548160ff02191690831515021790555060a08201518160030160026101000a81548160ff02191690831515021790555060c08201518160030160036101000a81548160ff02191690831515021790555060e08201518160030160046101000a81548160ff0219169083151502179055509050507f7a7f38be04afb87e39b4cb52bec76c69c4d999f605bd21054b71a3f2dc08582133878760405161176c9392919061321b565b60405180910390a1505050505050565b5f8060015f8573ffffffffffffffffffffffffffffffffffffffff1673ffffffffffffffffffffffffffffffffffffffff1681526020019081526020015f209050806001015f9054906101000a900460ff1680156117e857508060010160019054906101000a900460ff165b15611904575f5b60015f8673ffffffffffffffffffffffffffffffffffffffff1673ffffffffffffffffffffffffffffffffffffffff1681526020019081526020015f205f0180549050811015611902578373ffffffffffffffffffffffffffffffffffffffff1660015f8773ffffffffffffffffffffffffffffffffffffffff1673ffffffffffffffffffffffffffffffffffffffff1681526020019081526020015f205f0182815481106118a1576118a0613250565b5b905f5260205f20015f9054906101000a900473ffffffffffffffffffffffffffffffffffffffff1673ffffffffffffffffffffffffffffffffffffffff16036118ef57600192505050611909565b80806118fa906132aa565b9150506117ef565b505b5f9150505b92915050565b80600115155f808373ffffffffffffffffffffffffffffffffffffffff1673ffffffffffffffffffffffffffffffffffffffff1681526020019081526020015f206003015f9054906101000a900460ff161515146119a2576040517f08c379a000000000000000000000000000000000000000000000000000000000815260040161199990612e7f565b60405180910390fd5b815f15155f808373ffffffffffffffffffffffffffffffffffffffff1673ffffffffffffffffffffffffffffffffffffffff1681526020019081526020015f2060030160019054906101000a900460ff16151514611a35576040517f08c379a0000000000000000000000000000000000000000000000000000000008152600401611a2c90612f0d565b60405180910390fd5b825f808273ffffffffffffffffffffffffffffffffffffffff1673ffffffffffffffffffffffffffffffffffffffff1681526020019081526020015f2060030160029054906101000a900460ff1615611ac3576040517f08c379a0000000000000000000000000000000000000000000000000000000008152600401611aba90612f9c565b60405180910390fd5b83611ace813361177c565b611b0d576040517f08c379a0000000000000000000000000000000000000000000000000000000008152600401611b049061333b565b60405180910390fd5b8460015f8273ffffffffffffffffffffffffffffffffffffffff1673ffffffffffffffffffffffffffffffffffffffff1681526020019081526020015f206002015f3373ffffffffffffffffffffffffffffffffffffffff1673ffffffffffffffffffffffffffffffffffffffff1681526020019081526020015f205f9054906101000a900460ff1615611bd6576040517f08c379a0000000000000000000000000000000000000000000000000000000008152600401611bcd906133a3565b60405180910390fd5b5f60015f8873ffffffffffffffffffffffffffffffffffffffff1673ffffffffffffffffffffffffffffffffffffffff1681526020019081526020015f2090506001816002015f3373ffffffffffffffffffffffffffffffffffffffff1673ffffffffffffffffffffffffffffffffffffffff1681526020019081526020015f205f6101000a81548160ff021916908315150217905550806003015f815480929190611c81906132aa565b91905055507fa9862c5f43caca0b960b097a111ce8c3752d27df0e0f1f170b4a06a823e612b13388604051611cb7929190612fba565b60405180910390a1611cc8876125d8565b50505050505050565b5f602052805f5260405f205f91509050805f015f9054906101000a900473ffffffffffffffffffffffffffffffffffffffff1690806001015f9054906101000a900473ffffffffffffffffffffffffffffffffffffffff1690806002015490806003015f9054906101000a900460ff16908060030160019054906101000a900460ff16908060030160029054906101000a900460ff16908060030160039054906101000a900460ff16908060030160049054906101000a900460ff16905088565b5f805f805f805f808873ffffffffffffffffffffffffffffffffffffffff1673ffffffffffffffffffffffffffffffffffffffff1681526020019081526020015f20604051806101000160405290815f82015f9054906101000a900473ffffffffffffffffffffffffffffffffffffffff1673ffffffffffffffffffffffffffffffffffffffff1673ffffffffffffffffffffffffffffffffffffffff168152602001600182015f9054906101000a900473ffffffffffffffffffffffffffffffffffffffff1673ffffffffffffffffffffffffffffffffffffffff1673ffffffffffffffffffffffffffffffffffffffff16815260200160028201548152602001600382015f9054906101000a900460ff161515151581526020016003820160019054906101000a900460ff161515151581526020016003820160029054906101000a900460ff161515151581526020016003820160039054906101000a900460ff161515151581526020016003820160049054906101000a900460ff1615151515815250509050805f01518160200151826040015183606001518460800151955095509550955095505091939590929450565b33600115155f808373ffffffffffffffffffffffffffffffffffffffff1673ffffffffffffffffffffffffffffffffffffffff1681526020019081526020015f206003015f9054906101000a900460ff16151514611fda576040517f08c379a0000000000000000000000000000000000000000000000000000000008152600401611fd190612e7f565b60405180910390fd5b335f805f8373ffffffffffffffffffffffffffffffffffffffff1673ffffffffffffffffffffffffffffffffffffffff1681526020019081526020015f20604051806101000160405290815f82015f9054906101000a900473ffffffffffffffffffffffffffffffffffffffff1673ffffffffffffffffffffffffffffffffffffffff1673ffffffffffffffffffffffffffffffffffffffff168152602001600182015f9054906101000a900473ffffffffffffffffffffffffffffffffffffffff1673ffffffffffffffffffffffffffffffffffffffff1673ffffffffffffffffffffffffffffffffffffffff16815260200160028201548152602001600382015f9054906101000a900460ff161515151581526020016003820160019054906101000a900460ff161515151581526020016003820160029054906101000a900460ff161515151581526020016003820160039054906101000a900460ff161515151581526020016003820160049054906101000a900460ff1615151515815250509050805f015173ffffffffffffffffffffffffffffffffffffffff163373ffffffffffffffffffffffffffffffffffffffff1614806121cb5750806020015173ffffffffffffffffffffffffffffffffffffffff163373ffffffffffffffffffffffffffffffffffffffff16145b61220a576040517f08c379a000000000000000000000000000000000000000000000000000000000815260040161220190613051565b60405180910390fd5b5f805f3373ffffffffffffffffffffffffffffffffffffffff1673ffffffffffffffffffffffffffffffffffffffff1681526020019081526020015f209050805f015f9054906101000a900473ffffffffffffffffffffffffffffffffffffffff1673ffffffffffffffffffffffffffffffffffffffff163373ffffffffffffffffffffffffffffffffffffffff1603612396576001805f835f015f9054906101000a900473ffffffffffffffffffffffffffffffffffffffff1673ffffffffffffffffffffffffffffffffffffffff1673ffffffffffffffffffffffffffffffffffffffff1681526020019081526020015f206001015f6101000a81548160ff0219169083151502179055506001805f836001015f9054906101000a900473ffffffffffffffffffffffffffffffffffffffff1673ffffffffffffffffffffffffffffffffffffffff1673ffffffffffffffffffffffffffffffffffffffff1681526020019081526020015f206001015f6101000a81548160ff02191690831515021790555061248c565b6001805f835f015f9054906101000a900473ffffffffffffffffffffffffffffffffffffffff1673ffffffffffffffffffffffffffffffffffffffff1673ffffffffffffffffffffffffffffffffffffffff1681526020019081526020015f2060010160016101000a81548160ff0219169083151502179055506001805f836001015f9054906101000a900473ffffffffffffffffffffffffffffffffffffffff1673ffffffffffffffffffffffffffffffffffffffff1673ffffffffffffffffffffffffffffffffffffffff1681526020019081526020015f2060010160016101000a81548160ff0219169083151502179055505b60015f825f015f9054906101000a900473ffffffffffffffffffffffffffffffffffffffff1673ffffffffffffffffffffffffffffffffffffffff1673ffffffffffffffffffffffffffffffffffffffff1681526020019081526020015f206001015f9054906101000a900460ff168015612573575060015f825f015f9054906101000a900473ffffffffffffffffffffffffffffffffffffffff1673ffffffffffffffffffffffffffffffffffffffff1673ffffffffffffffffffffffffffffffffffffffff1681526020019081526020015f2060010160019054906101000a900460ff165b156125d2577fffacc21903a9db21c6031d4c12c9825f13ac6469f9b894f7058a45cf1f9a3e8d815f015f9054906101000a900473ffffffffffffffffffffffffffffffffffffffff166040516125c991906133c1565b60405180910390a15b50505050565b80600115155f808373ffffffffffffffffffffffffffffffffffffffff1673ffffffffffffffffffffffffffffffffffffffff1681526020019081526020015f206003015f9054906101000a900460ff1615151461266b576040517f08c379a000000000000000000000000000000000000000000000000000000000815260040161266290612e7f565b60405180910390fd5b815f808273ffffffffffffffffffffffffffffffffffffffff1673ffffffffffffffffffffffffffffffffffffffff1681526020019081526020015f2060030160029054906101000a900460ff16156126f9576040517f08c379a00000000000000000000000000000000000000000000000000000000081526004016126f090612f9c565b60405180910390fd5b5f60015f8573ffffffffffffffffffffffffffffffffffffffff1673ffffffffffffffffffffffffffffffffffffffff1681526020019081526020015f2090505f805f8673ffffffffffffffffffffffffffffffffffffffff1673ffffffffffffffffffffffffffffffffffffffff1681526020019081526020015f2090505f825f018054905090505f600260018361279291906133da565b61279c919061343a565b9050808460030154106129525760015f80855f015f9054906101000a900473ffffffffffffffffffffffffffffffffffffffff1673ffffffffffffffffffffffffffffffffffffffff1673ffffffffffffffffffffffffffffffffffffffff1681526020019081526020015f2060030160016101000a81548160ff02191690831515021790555060015f80856001015f9054906101000a900473ffffffffffffffffffffffffffffffffffffffff1673ffffffffffffffffffffffffffffffffffffffff1673ffffffffffffffffffffffffffffffffffffffff1681526020019081526020015f2060030160016101000a81548160ff0219169083151502179055507fca5145a860413368885bd057fa646c0895a34d43c6f7c897fc1954cf51c33045835f015f9054906101000a900473ffffffffffffffffffffffffffffffffffffffff166040516128ef91906133c1565b60405180910390a17fca5145a860413368885bd057fa646c0895a34d43c6f7c897fc1954cf51c33045836001015f9054906101000a900473ffffffffffffffffffffffffffffffffffffffff1660405161294991906133c1565b60405180910390a15b50505050505050565b828054828255905f5260205f209081019282156129e7579160200282015b828111156129e657823573ffffffffffffffffffffffffffffffffffffffff16825f6101000a81548173ffffffffffffffffffffffffffffffffffffffff021916908373ffffffffffffffffffffffffffffffffffffffff16021790555091602001919060010190612979565b5b5090506129f491906129f8565b5090565b5b80821115612a0f575f815f9055506001016129f9565b5090565b5f80fd5b5f80fd5b5f73ffffffffffffffffffffffffffffffffffffffff82169050919050565b5f612a4482612a1b565b9050919050565b612a5481612a3a565b8114612a5e575f80fd5b50565b5f81359050612a6f81612a4b565b92915050565b5f60208284031215612a8a57612a89612a13565b5b5f612a9784828501612a61565b91505092915050565b5f8115159050919050565b612ab481612aa0565b82525050565b5f819050919050565b612acc81612aba565b82525050565b5f606082019050612ae55f830186612aab565b612af26020830185612aab565b612aff6040830184612ac3565b949350505050565b5f81519050919050565b5f82825260208201905092915050565b5f819050602082019050919050565b612b3981612a3a565b82525050565b5f612b4a8383612b30565b60208301905092915050565b5f602082019050919050565b5f612b6c82612b07565b612b768185612b11565b9350612b8183612b21565b805f5b83811015612bb1578151612b988882612b3f565b9750612ba383612b56565b925050600181019050612b84565b5085935050505092915050565b5f6020820190508181035f830152612bd68184612b62565b905092915050565b5f80fd5b5f80fd5b5f80fd5b5f8083601f840112612bff57612bfe612bde565b5b8235905067ffffffffffffffff811115612c1c57612c1b612be2565b5b602083019150836020820283011115612c3857612c37612be6565b5b9250929050565b5f8060208385031215612c5557612c54612a13565b5b5f83013567ffffffffffffffff811115612c7257612c71612a17565b5b612c7e85828601612bea565b92509250509250929050565b612c9381612aba565b8114612c9d575f80fd5b50565b5f81359050612cae81612c8a565b92915050565b5f8060408385031215612cca57612cc9612a13565b5b5f612cd785828601612a61565b9250506020612ce885828601612ca0565b9150509250929050565b5f8060408385031215612d0857612d07612a13565b5b5f612d1585828601612a61565b9250506020612d2685828601612a61565b9150509250929050565b5f602082019050612d435f830184612aab565b92915050565b612d5281612a3a565b82525050565b5f61010082019050612d6c5f83018b612d49565b612d79602083018a612d49565b612d866040830189612ac3565b612d936060830188612aab565b612da06080830187612aab565b612dad60a0830186612aab565b612dba60c0830185612aab565b612dc760e0830184612aab565b9998505050505050505050565b5f60a082019050612de75f830188612d49565b612df46020830187612d49565b612e016040830186612ac3565b612e0e6060830185612aab565b612e1b6080830184612aab565b9695505050505050565b5f82825260208201905092915050565b7f41646472657373206e6f7420656e67616765642e0000000000000000000000005f82015250565b5f612e69601483612e25565b9150612e7482612e35565b602082019050919050565b5f6020820190508181035f830152612e9681612e5d565b9050919050565b7f54686520656e676167656d656e7420697320616c7265616479207265766f6b655f8201527f642e000000000000000000000000000000000000000000000000000000000000602082015250565b5f612ef7602283612e25565b9150612f0282612e9d565b604082019050919050565b5f6020820190508181035f830152612f2481612eeb565b9050919050565b5f604082019050612f3e5f830185612d49565b612f4b6020830184612ac3565b9392505050565b7f416c7265616479206d61727269656400000000000000000000000000000000005f82015250565b5f612f86600f83612e25565b9150612f9182612f52565b602082019050919050565b5f6020820190508181035f830152612fb381612f7a565b9050919050565b5f604082019050612fcd5f830185612d49565b612fda6020830184612d49565b9392505050565b7f43616c6c6572206d757374206265206f6e65206f662074686520656e676167655f8201527f6420706172746965730000000000000000000000000000000000000000000000602082015250565b5f61303b602983612e25565b915061304682612fe1565b604082019050919050565b5f6020820190508181035f8301526130688161302f565b9050919050565b5f819050919050565b5f6130866020840184612a61565b905092915050565b5f602082019050919050565b5f6130a58385612b11565b93506130b08261306f565b805f5b858110156130e8576130c58284613078565b6130cf8882612b3f565b97506130da8361308e565b9250506001810190506130b3565b5085925050509392505050565b5f6040820190506131085f830186612d49565b818103602083015261311b81848661309a565b9050949350505050565b7f4f6e65206f7220626f7468206f66207468652073706f757365732061726520615f8201527f6c726561647920656e67616765642e2000000000000000000000000000000000602082015250565b5f61317f603083612e25565b915061318a82613125565b604082019050919050565b5f6020820190508181035f8301526131ac81613173565b9050919050565b7f43616e6e6f7420656e6761676520746f206f6e6573656c6600000000000000005f82015250565b5f6131e7601883612e25565b91506131f2826131b3565b602082019050919050565b5f6020820190508181035f830152613214816131db565b9050919050565b5f60608201905061322e5f830186612d49565b61323b6020830185612d49565b6132486040830184612ac3565b949350505050565b7f4e487b71000000000000000000000000000000000000000000000000000000005f52603260045260245ffd5b7f4e487b71000000000000000000000000000000000000000000000000000000005f52601160045260245ffd5b5f6132b482612aba565b91507fffffffffffffffffffffffffffffffffffffffffffffffffffffffffffffffff82036132e6576132e561327d565b5b600182019050919050565b7f4e6f74206120636f6e6669726d656420677565737400000000000000000000005f82015250565b5f613325601583612e25565b9150613330826132f1565b602082019050919050565b5f6020820190508181035f83015261335281613319565b9050919050565b7f416c726561647920766f746564000000000000000000000000000000000000005f82015250565b5f61338d600d83612e25565b915061339882613359565b602082019050919050565b5f6020820190508181035f8301526133ba81613381565b9050919050565b5f6020820190506133d45f830184612d49565b92915050565b5f6133e482612aba565b91506133ef83612aba565b92508282019050808211156134075761340661327d565b5b92915050565b7f4e487b71000000000000000000000000000000000000000000000000000000005f52601260045260245ffd5b5f61344482612aba565b915061344f83612aba565b92508261345f5761345e61340d565b5b82820490509291505056fea264697066735822122004a0be2ccf706ab653ca3197d8e96d4e8e3f54da12235121d47aa437eaf9734264736f6c63430008150033",
					"opcodes": "PUSH1 0x80 PUSH1 0x40 MSTORE CALLVALUE DUP1 ISZERO PUSH2 0xF JUMPI PUSH0 DUP1 REVERT JUMPDEST POP PUSH2 0x34A0 DUP1 PUSH2 0x1D PUSH0 CODECOPY PUSH0 RETURN INVALID PUSH1 0x80 PUSH1 0x40 MSTORE CALLVALUE DUP1 ISZERO PUSH2 0xF JUMPI PUSH0 DUP1 REVERT JUMPDEST POP PUSH1 0x4 CALLDATASIZE LT PUSH2 0xA7 JUMPI PUSH0 CALLDATALOAD PUSH1 0xE0 SHR DUP1 PUSH4 0x987E9533 GT PUSH2 0x6F JUMPI DUP1 PUSH4 0x987E9533 EQ PUSH2 0x13D JUMPI DUP1 PUSH4 0x9DCAF479 EQ PUSH2 0x159 JUMPI DUP1 PUSH4 0xA1905E4E EQ PUSH2 0x189 JUMPI DUP1 PUSH4 0xA22690A8 EQ PUSH2 0x1A5 JUMPI DUP1 PUSH4 0xB95AFE03 EQ PUSH2 0x1DC JUMPI DUP1 PUSH4 0xE83DC185 EQ PUSH2 0x210 JUMPI PUSH2 0xA7 JUMP JUMPDEST DUP1 PUSH4 0x2B80FA28 EQ PUSH2 0xAB JUMPI DUP1 PUSH4 0x5DD4E938 EQ PUSH2 0xDD JUMPI DUP1 PUSH4 0x6D955EB5 EQ PUSH2 0x10D JUMPI DUP1 PUSH4 0x85B9A11F EQ PUSH2 0x117 JUMPI DUP1 PUSH4 0x90106C5E EQ PUSH2 0x121 JUMPI JUMPDEST PUSH0 DUP1 REVERT JUMPDEST PUSH2 0xC5 PUSH1 0x4 DUP1 CALLDATASIZE SUB DUP2 ADD SWAP1 PUSH2 0xC0 SWAP2 SWAP1 PUSH2 0x2A75 JUMP JUMPDEST PUSH2 0x21A JUMP JUMPDEST PUSH1 0x40 MLOAD PUSH2 0xD4 SWAP4 SWAP3 SWAP2 SWAP1 PUSH2 0x2AD2 JUMP JUMPDEST PUSH1 0x40 MLOAD DUP1 SWAP2 SUB SWAP1 RETURN JUMPDEST PUSH2 0xF7 PUSH1 0x4 DUP1 CALLDATASIZE SUB DUP2 ADD SWAP1 PUSH2 0xF2 SWAP2 SWAP1 PUSH2 0x2A75 JUMP JUMPDEST PUSH2 0x25A JUMP JUMPDEST PUSH1 0x40 MLOAD PUSH2 0x104 SWAP2 SWAP1 PUSH2 0x2BBE JUMP JUMPDEST PUSH1 0x40 MLOAD DUP1 SWAP2 SUB SWAP1 RETURN JUMPDEST PUSH2 0x115 PUSH2 0x324 JUMP JUMPDEST STOP JUMPDEST PUSH2 0x11F PUSH2 0x6F4 JUMP JUMPDEST STOP JUMPDEST PUSH2 0x13B PUSH1 0x4 DUP1 CALLDATASIZE SUB DUP2 ADD SWAP1 PUSH2 0x136 SWAP2 SWAP1 PUSH2 0x2C3F JUMP JUMPDEST PUSH2 0xC73 JUMP JUMPDEST STOP JUMPDEST PUSH2 0x157 PUSH1 0x4 DUP1 CALLDATASIZE SUB DUP2 ADD SWAP1 PUSH2 0x152 SWAP2 SWAP1 PUSH2 0x2CB4 JUMP JUMPDEST PUSH2 0x1283 JUMP JUMPDEST STOP JUMPDEST PUSH2 0x173 PUSH1 0x4 DUP1 CALLDATASIZE SUB DUP2 ADD SWAP1 PUSH2 0x16E SWAP2 SWAP1 PUSH2 0x2CF2 JUMP JUMPDEST PUSH2 0x177C JUMP JUMPDEST PUSH1 0x40 MLOAD PUSH2 0x180 SWAP2 SWAP1 PUSH2 0x2D30 JUMP JUMPDEST PUSH1 0x40 MLOAD DUP1 SWAP2 SUB SWAP1 RETURN JUMPDEST PUSH2 0x1A3 PUSH1 0x4 DUP1 CALLDATASIZE SUB DUP2 ADD SWAP1 PUSH2 0x19E SWAP2 SWAP1 PUSH2 0x2A75 JUMP JUMPDEST PUSH2 0x190F JUMP JUMPDEST STOP JUMPDEST PUSH2 0x1BF PUSH1 0x4 DUP1 CALLDATASIZE SUB DUP2 ADD SWAP1 PUSH2 0x1BA SWAP2 SWAP1 PUSH2 0x2A75 JUMP JUMPDEST PUSH2 0x1CD1 JUMP JUMPDEST PUSH1 0x40 MLOAD PUSH2 0x1D3 SWAP9 SWAP8 SWAP7 SWAP6 SWAP5 SWAP4 SWAP3 SWAP2 SWAP1 PUSH2 0x2D58 JUMP JUMPDEST PUSH1 0x40 MLOAD DUP1 SWAP2 SUB SWAP1 RETURN JUMPDEST PUSH2 0x1F6 PUSH1 0x4 DUP1 CALLDATASIZE SUB DUP2 ADD SWAP1 PUSH2 0x1F1 SWAP2 SWAP1 PUSH2 0x2A75 JUMP JUMPDEST PUSH2 0x1D92 JUMP JUMPDEST PUSH1 0x40 MLOAD PUSH2 0x207 SWAP6 SWAP5 SWAP4 SWAP3 SWAP2 SWAP1 PUSH2 0x2DD4 JUMP JUMPDEST PUSH1 0x40 MLOAD DUP1 SWAP2 SUB SWAP1 RETURN JUMPDEST PUSH2 0x218 PUSH2 0x1F47 JUMP JUMPDEST STOP JUMPDEST PUSH1 0x1 PUSH1 0x20 MSTORE DUP1 PUSH0 MSTORE PUSH1 0x40 PUSH0 KECCAK256 PUSH0 SWAP2 POP SWAP1 POP DUP1 PUSH1 0x1 ADD PUSH0 SWAP1 SLOAD SWAP1 PUSH2 0x100 EXP SWAP1 DIV PUSH1 0xFF AND SWAP1 DUP1 PUSH1 0x1 ADD PUSH1 0x1 SWAP1 SLOAD SWAP1 PUSH2 0x100 EXP SWAP1 DIV PUSH1 0xFF AND SWAP1 DUP1 PUSH1 0x3 ADD SLOAD SWAP1 POP DUP4 JUMP JUMPDEST PUSH1 0x60 PUSH1 0x1 PUSH0 DUP4 PUSH20 0xFFFFFFFFFFFFFFFFFFFFFFFFFFFFFFFFFFFFFFFF AND PUSH20 0xFFFFFFFFFFFFFFFFFFFFFFFFFFFFFFFFFFFFFFFF AND DUP2 MSTORE PUSH1 0x20 ADD SWAP1 DUP2 MSTORE PUSH1 0x20 ADD PUSH0 KECCAK256 PUSH0 ADD DUP1 SLOAD DUP1 PUSH1 0x20 MUL PUSH1 0x20 ADD PUSH1 0x40 MLOAD SWAP1 DUP2 ADD PUSH1 0x40 MSTORE DUP1 SWAP3 SWAP2 SWAP1 DUP2 DUP2 MSTORE PUSH1 0x20 ADD DUP3 DUP1 SLOAD DUP1 ISZERO PUSH2 0x318 JUMPI PUSH1 0x20 MUL DUP3 ADD SWAP2 SWAP1 PUSH0 MSTORE PUSH1 0x20 PUSH0 KECCAK256 SWAP1 JUMPDEST DUP2 PUSH0 SWAP1 SLOAD SWAP1 PUSH2 0x100 EXP SWAP1 DIV PUSH20 0xFFFFFFFFFFFFFFFFFFFFFFFFFFFFFFFFFFFFFFFF AND PUSH20 0xFFFFFFFFFFFFFFFFFFFFFFFFFFFFFFFFFFFFFFFF AND DUP2 MSTORE PUSH1 0x20 ADD SWAP1 PUSH1 0x1 ADD SWAP1 DUP1 DUP4 GT PUSH2 0x2CF JUMPI JUMPDEST POP POP POP POP POP SWAP1 POP SWAP2 SWAP1 POP JUMP JUMPDEST CALLER PUSH1 0x1 ISZERO ISZERO PUSH0 DUP1 DUP4 PUSH20 0xFFFFFFFFFFFFFFFFFFFFFFFFFFFFFFFFFFFFFFFF AND PUSH20 0xFFFFFFFFFFFFFFFFFFFFFFFFFFFFFFFFFFFFFFFF AND DUP2 MSTORE PUSH1 0x20 ADD SWAP1 DUP2 MSTORE PUSH1 0x20 ADD PUSH0 KECCAK256 PUSH1 0x3 ADD PUSH0 SWAP1 SLOAD SWAP1 PUSH2 0x100 EXP SWAP1 DIV PUSH1 0xFF AND ISZERO ISZERO EQ PUSH2 0x3B7 JUMPI PUSH1 0x40 MLOAD PUSH32 0x8C379A000000000000000000000000000000000000000000000000000000000 DUP2 MSTORE PUSH1 0x4 ADD PUSH2 0x3AE SWAP1 PUSH2 0x2E7F JUMP JUMPDEST PUSH1 0x40 MLOAD DUP1 SWAP2 SUB SWAP1 REVERT JUMPDEST CALLER PUSH0 ISZERO ISZERO PUSH0 DUP1 DUP4 PUSH20 0xFFFFFFFFFFFFFFFFFFFFFFFFFFFFFFFFFFFFFFFF AND PUSH20 0xFFFFFFFFFFFFFFFFFFFFFFFFFFFFFFFFFFFFFFFF AND DUP2 MSTORE PUSH1 0x20 ADD SWAP1 DUP2 MSTORE PUSH1 0x20 ADD PUSH0 KECCAK256 PUSH1 0x3 ADD PUSH1 0x1 SWAP1 SLOAD SWAP1 PUSH2 0x100 EXP SWAP1 DIV PUSH1 0xFF AND ISZERO ISZERO EQ PUSH2 0x44A JUMPI PUSH1 0x40 MLOAD PUSH32 0x8C379A000000000000000000000000000000000000000000000000000000000 DUP2 MSTORE PUSH1 0x4 ADD PUSH2 0x441 SWAP1 PUSH2 0x2F0D JUMP JUMPDEST PUSH1 0x40 MLOAD DUP1 SWAP2 SUB SWAP1 REVERT JUMPDEST PUSH0 DUP1 PUSH0 CALLER PUSH20 0xFFFFFFFFFFFFFFFFFFFFFFFFFFFFFFFFFFFFFFFF AND PUSH20 0xFFFFFFFFFFFFFFFFFFFFFFFFFFFFFFFFFFFFFFFF AND DUP2 MSTORE PUSH1 0x20 ADD SWAP1 DUP2 MSTORE PUSH1 0x20 ADD PUSH0 KECCAK256 SWAP1 POP PUSH0 DUP1 DUP3 PUSH0 ADD PUSH0 SWAP1 SLOAD SWAP1 PUSH2 0x100 EXP SWAP1 DIV PUSH20 0xFFFFFFFFFFFFFFFFFFFFFFFFFFFFFFFFFFFFFFFF AND PUSH20 0xFFFFFFFFFFFFFFFFFFFFFFFFFFFFFFFFFFFFFFFF AND PUSH20 0xFFFFFFFFFFFFFFFFFFFFFFFFFFFFFFFFFFFFFFFF AND DUP2 MSTORE PUSH1 0x20 ADD SWAP1 DUP2 MSTORE PUSH1 0x20 ADD PUSH0 KECCAK256 PUSH0 DUP1 DUP3 ADD PUSH0 PUSH2 0x100 EXP DUP2 SLOAD SWAP1 PUSH20 0xFFFFFFFFFFFFFFFFFFFFFFFFFFFFFFFFFFFFFFFF MUL NOT AND SWAP1 SSTORE PUSH1 0x1 DUP3 ADD PUSH0 PUSH2 0x100 EXP DUP2 SLOAD SWAP1 PUSH20 0xFFFFFFFFFFFFFFFFFFFFFFFFFFFFFFFFFFFFFFFF MUL NOT AND SWAP1 SSTORE PUSH1 0x2 DUP3 ADD PUSH0 SWAP1 SSTORE PUSH1 0x3 DUP3 ADD PUSH0 PUSH2 0x100 EXP DUP2 SLOAD SWAP1 PUSH1 0xFF MUL NOT AND SWAP1 SSTORE PUSH1 0x3 DUP3 ADD PUSH1 0x1 PUSH2 0x100 EXP DUP2 SLOAD SWAP1 PUSH1 0xFF MUL NOT AND SWAP1 SSTORE PUSH1 0x3 DUP3 ADD PUSH1 0x2 PUSH2 0x100 EXP DUP2 SLOAD SWAP1 PUSH1 0xFF MUL NOT AND SWAP1 SSTORE PUSH1 0x3 DUP3 ADD PUSH1 0x3 PUSH2 0x100 EXP DUP2 SLOAD SWAP1 PUSH1 0xFF MUL NOT AND SWAP1 SSTORE PUSH1 0x3 DUP3 ADD PUSH1 0x4 PUSH2 0x100 EXP DUP2 SLOAD SWAP1 PUSH1 0xFF MUL NOT AND SWAP1 SSTORE POP POP PUSH0 DUP1 DUP3 PUSH1 0x1 ADD PUSH0 SWAP1 SLOAD SWAP1 PUSH2 0x100 EXP SWAP1 DIV PUSH20 0xFFFFFFFFFFFFFFFFFFFFFFFFFFFFFFFFFFFFFFFF AND PUSH20 0xFFFFFFFFFFFFFFFFFFFFFFFFFFFFFFFFFFFFFFFF AND PUSH20 0xFFFFFFFFFFFFFFFFFFFFFFFFFFFFFFFFFFFFFFFF AND DUP2 MSTORE PUSH1 0x20 ADD SWAP1 DUP2 MSTORE PUSH1 0x20 ADD PUSH0 KECCAK256 PUSH0 DUP1 DUP3 ADD PUSH0 PUSH2 0x100 EXP DUP2 SLOAD SWAP1 PUSH20 0xFFFFFFFFFFFFFFFFFFFFFFFFFFFFFFFFFFFFFFFF MUL NOT AND SWAP1 SSTORE PUSH1 0x1 DUP3 ADD PUSH0 PUSH2 0x100 EXP DUP2 SLOAD SWAP1 PUSH20 0xFFFFFFFFFFFFFFFFFFFFFFFFFFFFFFFFFFFFFFFF MUL NOT AND SWAP1 SSTORE PUSH1 0x2 DUP3 ADD PUSH0 SWAP1 SSTORE PUSH1 0x3 DUP3 ADD PUSH0 PUSH2 0x100 EXP DUP2 SLOAD SWAP1 PUSH1 0xFF MUL NOT AND SWAP1 SSTORE PUSH1 0x3 DUP3 ADD PUSH1 0x1 PUSH2 0x100 EXP DUP2 SLOAD SWAP1 PUSH1 0xFF MUL NOT AND SWAP1 SSTORE PUSH1 0x3 DUP3 ADD PUSH1 0x2 PUSH2 0x100 EXP DUP2 SLOAD SWAP1 PUSH1 0xFF MUL NOT AND SWAP1 SSTORE PUSH1 0x3 DUP3 ADD PUSH1 0x3 PUSH2 0x100 EXP DUP2 SLOAD SWAP1 PUSH1 0xFF MUL NOT AND SWAP1 SSTORE PUSH1 0x3 DUP3 ADD PUSH1 0x4 PUSH2 0x100 EXP DUP2 SLOAD SWAP1 PUSH1 0xFF MUL NOT AND SWAP1 SSTORE POP POP PUSH32 0x1271C287650062F685BD2F225144D7B6B046826A5A70632C8F873240D04A54C6 CALLER TIMESTAMP PUSH1 0x40 MLOAD PUSH2 0x6E7 SWAP3 SWAP2 SWAP1 PUSH2 0x2F2B JUMP JUMPDEST PUSH1 0x40 MLOAD DUP1 SWAP2 SUB SWAP1 LOG1 POP POP POP JUMP JUMPDEST CALLER PUSH1 0x1 ISZERO ISZERO PUSH0 DUP1 DUP4 PUSH20 0xFFFFFFFFFFFFFFFFFFFFFFFFFFFFFFFFFFFFFFFF AND PUSH20 0xFFFFFFFFFFFFFFFFFFFFFFFFFFFFFFFFFFFFFFFF AND DUP2 MSTORE PUSH1 0x20 ADD SWAP1 DUP2 MSTORE PUSH1 0x20 ADD PUSH0 KECCAK256 PUSH1 0x3 ADD PUSH0 SWAP1 SLOAD SWAP1 PUSH2 0x100 EXP SWAP1 DIV PUSH1 0xFF AND ISZERO ISZERO EQ PUSH2 0x787 JUMPI PUSH1 0x40 MLOAD PUSH32 0x8C379A000000000000000000000000000000000000000000000000000000000 DUP2 MSTORE PUSH1 0x4 ADD PUSH2 0x77E SWAP1 PUSH2 0x2E7F JUMP JUMPDEST PUSH1 0x40 MLOAD DUP1 SWAP2 SUB SWAP1 REVERT JUMPDEST CALLER PUSH0 ISZERO ISZERO PUSH0 DUP1 DUP4 PUSH20 0xFFFFFFFFFFFFFFFFFFFFFFFFFFFFFFFFFFFFFFFF AND PUSH20 0xFFFFFFFFFFFFFFFFFFFFFFFFFFFFFFFFFFFFFFFF AND DUP2 MSTORE PUSH1 0x20 ADD SWAP1 DUP2 MSTORE PUSH1 0x20 ADD PUSH0 KECCAK256 PUSH1 0x3 ADD PUSH1 0x1 SWAP1 SLOAD SWAP1 PUSH2 0x100 EXP SWAP1 DIV PUSH1 0xFF AND ISZERO ISZERO EQ PUSH2 0x81A JUMPI PUSH1 0x40 MLOAD PUSH32 0x8C379A000000000000000000000000000000000000000000000000000000000 DUP2 MSTORE PUSH1 0x4 ADD PUSH2 0x811 SWAP1 PUSH2 0x2F0D JUMP JUMPDEST PUSH1 0x40 MLOAD DUP1 SWAP2 SUB SWAP1 REVERT JUMPDEST CALLER PUSH0 DUP1 DUP3 PUSH20 0xFFFFFFFFFFFFFFFFFFFFFFFFFFFFFFFFFFFFFFFF AND PUSH20 0xFFFFFFFFFFFFFFFFFFFFFFFFFFFFFFFFFFFFFFFF AND DUP2 MSTORE PUSH1 0x20 ADD SWAP1 DUP2 MSTORE PUSH1 0x20 ADD PUSH0 KECCAK256 PUSH1 0x3 ADD PUSH1 0x2 SWAP1 SLOAD SWAP1 PUSH2 0x100 EXP SWAP1 DIV PUSH1 0xFF AND ISZERO PUSH2 0x8A8 JUMPI PUSH1 0x40 MLOAD PUSH32 0x8C379A000000000000000000000000000000000000000000000000000000000 DUP2 MSTORE PUSH1 0x4 ADD PUSH2 0x89F SWAP1 PUSH2 0x2F9C JUMP JUMPDEST PUSH1 0x40 MLOAD DUP1 SWAP2 SUB SWAP1 REVERT JUMPDEST PUSH0 DUP1 PUSH0 CALLER PUSH20 0xFFFFFFFFFFFFFFFFFFFFFFFFFFFFFFFFFFFFFFFF AND PUSH20 0xFFFFFFFFFFFFFFFFFFFFFFFFFFFFFFFFFFFFFFFF AND DUP2 MSTORE PUSH1 0x20 ADD SWAP1 DUP2 MSTORE PUSH1 0x20 ADD PUSH0 KECCAK256 SWAP1 POP DUP1 PUSH0 ADD PUSH0 SWAP1 SLOAD SWAP1 PUSH2 0x100 EXP SWAP1 DIV PUSH20 0xFFFFFFFFFFFFFFFFFFFFFFFFFFFFFFFFFFFFFFFF AND PUSH20 0xFFFFFFFFFFFFFFFFFFFFFFFFFFFFFFFFFFFFFFFF AND CALLER PUSH20 0xFFFFFFFFFFFFFFFFFFFFFFFFFFFFFFFFFFFFFFFF AND SUB PUSH2 0x9D9 JUMPI PUSH1 0x1 DUP2 PUSH1 0x3 ADD PUSH1 0x3 PUSH2 0x100 EXP DUP2 SLOAD DUP2 PUSH1 0xFF MUL NOT AND SWAP1 DUP4 ISZERO ISZERO MUL OR SWAP1 SSTORE POP PUSH1 0x1 PUSH0 DUP1 DUP4 PUSH1 0x1 ADD PUSH0 SWAP1 SLOAD SWAP1 PUSH2 0x100 EXP SWAP1 DIV PUSH20 0xFFFFFFFFFFFFFFFFFFFFFFFFFFFFFFFFFFFFFFFF AND PUSH20 0xFFFFFFFFFFFFFFFFFFFFFFFFFFFFFFFFFFFFFFFF AND PUSH20 0xFFFFFFFFFFFFFFFFFFFFFFFFFFFFFFFFFFFFFFFF AND DUP2 MSTORE PUSH1 0x20 ADD SWAP1 DUP2 MSTORE PUSH1 0x20 ADD PUSH0 KECCAK256 PUSH1 0x3 ADD PUSH1 0x3 PUSH2 0x100 EXP DUP2 SLOAD DUP2 PUSH1 0xFF MUL NOT AND SWAP1 DUP4 ISZERO ISZERO MUL OR SWAP1 SSTORE POP PUSH2 0xAC8 JUMP JUMPDEST DUP1 PUSH1 0x1 ADD PUSH0 SWAP1 SLOAD SWAP1 PUSH2 0x100 EXP SWAP1 DIV PUSH20 0xFFFFFFFFFFFFFFFFFFFFFFFFFFFFFFFFFFFFFFFF AND PUSH20 0xFFFFFFFFFFFFFFFFFFFFFFFFFFFFFFFFFFFFFFFF AND CALLER PUSH20 0xFFFFFFFFFFFFFFFFFFFFFFFFFFFFFFFFFFFFFFFF AND SUB PUSH2 0xAC7 JUMPI PUSH1 0x1 DUP2 PUSH1 0x3 ADD PUSH1 0x4 PUSH2 0x100 EXP DUP2 SLOAD DUP2 PUSH1 0xFF MUL NOT AND SWAP1 DUP4 ISZERO ISZERO MUL OR SWAP1 SSTORE POP PUSH1 0x1 PUSH0 DUP1 DUP4 PUSH0 ADD PUSH0 SWAP1 SLOAD SWAP1 PUSH2 0x100 EXP SWAP1 DIV PUSH20 0xFFFFFFFFFFFFFFFFFFFFFFFFFFFFFFFFFFFFFFFF AND PUSH20 0xFFFFFFFFFFFFFFFFFFFFFFFFFFFFFFFFFFFFFFFF AND PUSH20 0xFFFFFFFFFFFFFFFFFFFFFFFFFFFFFFFFFFFFFFFF AND DUP2 MSTORE PUSH1 0x20 ADD SWAP1 DUP2 MSTORE PUSH1 0x20 ADD PUSH0 KECCAK256 PUSH1 0x3 ADD PUSH1 0x4 PUSH2 0x100 EXP DUP2 SLOAD DUP2 PUSH1 0xFF MUL NOT AND SWAP1 DUP4 ISZERO ISZERO MUL OR SWAP1 SSTORE POP JUMPDEST JUMPDEST DUP1 PUSH1 0x3 ADD PUSH1 0x3 SWAP1 SLOAD SWAP1 PUSH2 0x100 EXP SWAP1 DIV PUSH1 0xFF AND DUP1 ISZERO PUSH2 0xAF4 JUMPI POP DUP1 PUSH1 0x3 ADD PUSH1 0x4 SWAP1 SLOAD SWAP1 PUSH2 0x100 EXP SWAP1 DIV PUSH1 0xFF AND JUMPDEST ISZERO PUSH2 0xC6D JUMPI PUSH1 0x1 PUSH0 DUP1 DUP4 PUSH0 ADD PUSH0 SWAP1 SLOAD SWAP1 PUSH2 0x100 EXP SWAP1 DIV PUSH20 0xFFFFFFFFFFFFFFFFFFFFFFFFFFFFFFFFFFFFFFFF AND PUSH20 0xFFFFFFFFFFFFFFFFFFFFFFFFFFFFFFFFFFFFFFFF AND PUSH20 0xFFFFFFFFFFFFFFFFFFFFFFFFFFFFFFFFFFFFFFFF AND DUP2 MSTORE PUSH1 0x20 ADD SWAP1 DUP2 MSTORE PUSH1 0x20 ADD PUSH0 KECCAK256 PUSH1 0x3 ADD PUSH1 0x2 PUSH2 0x100 EXP DUP2 SLOAD DUP2 PUSH1 0xFF MUL NOT AND SWAP1 DUP4 ISZERO ISZERO MUL OR SWAP1 SSTORE POP PUSH1 0x1 PUSH0 DUP1 DUP4 PUSH1 0x1 ADD PUSH0 SWAP1 SLOAD SWAP1 PUSH2 0x100 EXP SWAP1 DIV PUSH20 0xFFFFFFFFFFFFFFFFFFFFFFFFFFFFFFFFFFFFFFFF AND PUSH20 0xFFFFFFFFFFFFFFFFFFFFFFFFFFFFFFFFFFFFFFFF AND PUSH20 0xFFFFFFFFFFFFFFFFFFFFFFFFFFFFFFFFFFFFFFFF AND DUP2 MSTORE PUSH1 0x20 ADD SWAP1 DUP2 MSTORE PUSH1 0x20 ADD PUSH0 KECCAK256 PUSH1 0x3 ADD PUSH1 0x2 PUSH2 0x100 EXP DUP2 SLOAD DUP2 PUSH1 0xFF MUL NOT AND SWAP1 DUP4 ISZERO ISZERO MUL OR SWAP1 SSTORE POP PUSH32 0x5C8EC7A25A142B043EE1D70B00B983786A266CED5B4E6B540DDC769276626819 DUP2 PUSH0 ADD PUSH0 SWAP1 SLOAD SWAP1 PUSH2 0x100 EXP SWAP1 DIV PUSH20 0xFFFFFFFFFFFFFFFFFFFFFFFFFFFFFFFFFFFFFFFF AND DUP3 PUSH1 0x1 ADD PUSH0 SWAP1 SLOAD SWAP1 PUSH2 0x100 EXP SWAP1 DIV PUSH20 0xFFFFFFFFFFFFFFFFFFFFFFFFFFFFFFFFFFFFFFFF AND PUSH1 0x40 MLOAD PUSH2 0xC64 SWAP3 SWAP2 SWAP1 PUSH2 0x2FBA JUMP JUMPDEST PUSH1 0x40 MLOAD DUP1 SWAP2 SUB SWAP1 LOG1 JUMPDEST POP POP POP POP JUMP JUMPDEST CALLER PUSH1 0x1 ISZERO ISZERO PUSH0 DUP1 DUP4 PUSH20 0xFFFFFFFFFFFFFFFFFFFFFFFFFFFFFFFFFFFFFFFF AND PUSH20 0xFFFFFFFFFFFFFFFFFFFFFFFFFFFFFFFFFFFFFFFF AND DUP2 MSTORE PUSH1 0x20 ADD SWAP1 DUP2 MSTORE PUSH1 0x20 ADD PUSH0 KECCAK256 PUSH1 0x3 ADD PUSH0 SWAP1 SLOAD SWAP1 PUSH2 0x100 EXP SWAP1 DIV PUSH1 0xFF AND ISZERO ISZERO EQ PUSH2 0xD06 JUMPI PUSH1 0x40 MLOAD PUSH32 0x8C379A000000000000000000000000000000000000000000000000000000000 DUP2 MSTORE PUSH1 0x4 ADD PUSH2 0xCFD SWAP1 PUSH2 0x2E7F JUMP JUMPDEST PUSH1 0x40 MLOAD DUP1 SWAP2 SUB SWAP1 REVERT JUMPDEST CALLER PUSH0 DUP1 PUSH0 DUP4 PUSH20 0xFFFFFFFFFFFFFFFFFFFFFFFFFFFFFFFFFFFFFFFF AND PUSH20 0xFFFFFFFFFFFFFFFFFFFFFFFFFFFFFFFFFFFFFFFF AND DUP2 MSTORE PUSH1 0x20 ADD SWAP1 DUP2 MSTORE PUSH1 0x20 ADD PUSH0 KECCAK256 PUSH1 0x40 MLOAD DUP1 PUSH2 0x100 ADD PUSH1 0x40 MSTORE SWAP1 DUP2 PUSH0 DUP3 ADD PUSH0 SWAP1 SLOAD SWAP1 PUSH2 0x100 EXP SWAP1 DIV PUSH20 0xFFFFFFFFFFFFFFFFFFFFFFFFFFFFFFFFFFFFFFFF AND PUSH20 0xFFFFFFFFFFFFFFFFFFFFFFFFFFFFFFFFFFFFFFFF AND PUSH20 0xFFFFFFFFFFFFFFFFFFFFFFFFFFFFFFFFFFFFFFFF AND DUP2 MSTORE PUSH1 0x20 ADD PUSH1 0x1 DUP3 ADD PUSH0 SWAP1 SLOAD SWAP1 PUSH2 0x100 EXP SWAP1 DIV PUSH20 0xFFFFFFFFFFFFFFFFFFFFFFFFFFFFFFFFFFFFFFFF AND PUSH20 0xFFFFFFFFFFFFFFFFFFFFFFFFFFFFFFFFFFFFFFFF AND PUSH20 0xFFFFFFFFFFFFFFFFFFFFFFFFFFFFFFFFFFFFFFFF AND DUP2 MSTORE PUSH1 0x20 ADD PUSH1 0x2 DUP3 ADD SLOAD DUP2 MSTORE PUSH1 0x20 ADD PUSH1 0x3 DUP3 ADD PUSH0 SWAP1 SLOAD SWAP1 PUSH2 0x100 EXP SWAP1 DIV PUSH1 0xFF AND ISZERO ISZERO ISZERO ISZERO DUP2 MSTORE PUSH1 0x20 ADD PUSH1 0x3 DUP3 ADD PUSH1 0x1 SWAP1 SLOAD SWAP1 PUSH2 0x100 EXP SWAP1 DIV PUSH1 0xFF AND ISZERO ISZERO ISZERO ISZERO DUP2 MSTORE PUSH1 0x20 ADD PUSH1 0x3 DUP3 ADD PUSH1 0x2 SWAP1 SLOAD SWAP1 PUSH2 0x100 EXP SWAP1 DIV PUSH1 0xFF AND ISZERO ISZERO ISZERO ISZERO DUP2 MSTORE PUSH1 0x20 ADD PUSH1 0x3 DUP3 ADD PUSH1 0x3 SWAP1 SLOAD SWAP1 PUSH2 0x100 EXP SWAP1 DIV PUSH1 0xFF AND ISZERO ISZERO ISZERO ISZERO DUP2 MSTORE PUSH1 0x20 ADD PUSH1 0x3 DUP3 ADD PUSH1 0x4 SWAP1 SLOAD SWAP1 PUSH2 0x100 EXP SWAP1 DIV PUSH1 0xFF AND ISZERO ISZERO ISZERO ISZERO DUP2 MSTORE POP POP SWAP1 POP DUP1 PUSH0 ADD MLOAD PUSH20 0xFFFFFFFFFFFFFFFFFFFFFFFFFFFFFFFFFFFFFFFF AND CALLER PUSH20 0xFFFFFFFFFFFFFFFFFFFFFFFFFFFFFFFFFFFFFFFF AND EQ DUP1 PUSH2 0xEF7 JUMPI POP DUP1 PUSH1 0x20 ADD MLOAD PUSH20 0xFFFFFFFFFFFFFFFFFFFFFFFFFFFFFFFFFFFFFFFF AND CALLER PUSH20 0xFFFFFFFFFFFFFFFFFFFFFFFFFFFFFFFFFFFFFFFF AND EQ JUMPDEST PUSH2 0xF36 JUMPI PUSH1 0x40 MLOAD PUSH32 0x8C379A000000000000000000000000000000000000000000000000000000000 DUP2 MSTORE PUSH1 0x4 ADD PUSH2 0xF2D SWAP1 PUSH2 0x3051 JUMP JUMPDEST PUSH1 0x40 MLOAD DUP1 SWAP2 SUB SWAP1 REVERT JUMPDEST PUSH0 DUP1 PUSH0 CALLER PUSH20 0xFFFFFFFFFFFFFFFFFFFFFFFFFFFFFFFFFFFFFFFF AND PUSH20 0xFFFFFFFFFFFFFFFFFFFFFFFFFFFFFFFFFFFFFFFF AND DUP2 MSTORE PUSH1 0x20 ADD SWAP1 DUP2 MSTORE PUSH1 0x20 ADD PUSH0 KECCAK256 SWAP1 POP DUP6 DUP6 PUSH1 0x1 PUSH0 DUP5 PUSH0 ADD PUSH0 SWAP1 SLOAD SWAP1 PUSH2 0x100 EXP SWAP1 DIV PUSH20 0xFFFFFFFFFFFFFFFFFFFFFFFFFFFFFFFFFFFFFFFF AND PUSH20 0xFFFFFFFFFFFFFFFFFFFFFFFFFFFFFFFFFFFFFFFF AND PUSH20 0xFFFFFFFFFFFFFFFFFFFFFFFFFFFFFFFFFFFFFFFF AND DUP2 MSTORE PUSH1 0x20 ADD SWAP1 DUP2 MSTORE PUSH1 0x20 ADD PUSH0 KECCAK256 PUSH0 ADD SWAP2 SWAP1 PUSH2 0xFE5 SWAP3 SWAP2 SWAP1 PUSH2 0x295B JUMP JUMPDEST POP PUSH0 PUSH1 0x1 PUSH0 DUP4 PUSH0 ADD PUSH0 SWAP1 SLOAD SWAP1 PUSH2 0x100 EXP SWAP1 DIV PUSH20 0xFFFFFFFFFFFFFFFFFFFFFFFFFFFFFFFFFFFFFFFF AND PUSH20 0xFFFFFFFFFFFFFFFFFFFFFFFFFFFFFFFFFFFFFFFF AND PUSH20 0xFFFFFFFFFFFFFFFFFFFFFFFFFFFFFFFFFFFFFFFF AND DUP2 MSTORE PUSH1 0x20 ADD SWAP1 DUP2 MSTORE PUSH1 0x20 ADD PUSH0 KECCAK256 PUSH1 0x1 ADD PUSH0 PUSH2 0x100 EXP DUP2 SLOAD DUP2 PUSH1 0xFF MUL NOT AND SWAP1 DUP4 ISZERO ISZERO MUL OR SWAP1 SSTORE POP PUSH0 PUSH1 0x1 PUSH0 DUP4 PUSH0 ADD PUSH0 SWAP1 SLOAD SWAP1 PUSH2 0x100 EXP SWAP1 DIV PUSH20 0xFFFFFFFFFFFFFFFFFFFFFFFFFFFFFFFFFFFFFFFF AND PUSH20 0xFFFFFFFFFFFFFFFFFFFFFFFFFFFFFFFFFFFFFFFF AND PUSH20 0xFFFFFFFFFFFFFFFFFFFFFFFFFFFFFFFFFFFFFFFF AND DUP2 MSTORE PUSH1 0x20 ADD SWAP1 DUP2 MSTORE PUSH1 0x20 ADD PUSH0 KECCAK256 PUSH1 0x1 ADD PUSH1 0x1 PUSH2 0x100 EXP DUP2 SLOAD DUP2 PUSH1 0xFF MUL NOT AND SWAP1 DUP4 ISZERO ISZERO MUL OR SWAP1 SSTORE POP DUP6 DUP6 PUSH1 0x1 PUSH0 DUP5 PUSH1 0x1 ADD PUSH0 SWAP1 SLOAD SWAP1 PUSH2 0x100 EXP SWAP1 DIV PUSH20 0xFFFFFFFFFFFFFFFFFFFFFFFFFFFFFFFFFFFFFFFF AND PUSH20 0xFFFFFFFFFFFFFFFFFFFFFFFFFFFFFFFFFFFFFFFF AND PUSH20 0xFFFFFFFFFFFFFFFFFFFFFFFFFFFFFFFFFFFFFFFF AND DUP2 MSTORE PUSH1 0x20 ADD SWAP1 DUP2 MSTORE PUSH1 0x20 ADD PUSH0 KECCAK256 PUSH0 ADD SWAP2 SWAP1 PUSH2 0x114A SWAP3 SWAP2 SWAP1 PUSH2 0x295B JUMP JUMPDEST POP PUSH0 PUSH1 0x1 PUSH0 DUP4 PUSH1 0x1 ADD PUSH0 SWAP1 SLOAD SWAP1 PUSH2 0x100 EXP SWAP1 DIV PUSH20 0xFFFFFFFFFFFFFFFFFFFFFFFFFFFFFFFFFFFFFFFF AND PUSH20 0xFFFFFFFFFFFFFFFFFFFFFFFFFFFFFFFFFFFFFFFF AND PUSH20 0xFFFFFFFFFFFFFFFFFFFFFFFFFFFFFFFFFFFFFFFF AND DUP2 MSTORE PUSH1 0x20 ADD SWAP1 DUP2 MSTORE PUSH1 0x20 ADD PUSH0 KECCAK256 PUSH1 0x1 ADD PUSH0 PUSH2 0x100 EXP DUP2 SLOAD DUP2 PUSH1 0xFF MUL NOT AND SWAP1 DUP4 ISZERO ISZERO MUL OR SWAP1 SSTORE POP PUSH0 PUSH1 0x1 PUSH0 DUP4 PUSH1 0x1 ADD PUSH0 SWAP1 SLOAD SWAP1 PUSH2 0x100 EXP SWAP1 DIV PUSH20 0xFFFFFFFFFFFFFFFFFFFFFFFFFFFFFFFFFFFFFFFF AND PUSH20 0xFFFFFFFFFFFFFFFFFFFFFFFFFFFFFFFFFFFFFFFF AND PUSH20 0xFFFFFFFFFFFFFFFFFFFFFFFFFFFFFFFFFFFFFFFF AND DUP2 MSTORE PUSH1 0x20 ADD SWAP1 DUP2 MSTORE PUSH1 0x20 ADD PUSH0 KECCAK256 PUSH1 0x1 ADD PUSH1 0x1 PUSH2 0x100 EXP DUP2 SLOAD DUP2 PUSH1 0xFF MUL NOT AND SWAP1 DUP4 ISZERO ISZERO MUL OR SWAP1 SSTORE POP PUSH32 0x402F0CDBBD3E7BDBD2C1FC4D920FA1EE7A733238220198DF262284A1259D0BE6 CALLER DUP8 DUP8 PUSH1 0x40 MLOAD PUSH2 0x1273 SWAP4 SWAP3 SWAP2 SWAP1 PUSH2 0x30F5 JUMP JUMPDEST PUSH1 0x40 MLOAD DUP1 SWAP2 SUB SWAP1 LOG1 POP POP POP POP POP POP JUMP JUMPDEST CALLER DUP3 PUSH0 ISZERO ISZERO PUSH0 DUP1 DUP5 PUSH20 0xFFFFFFFFFFFFFFFFFFFFFFFFFFFFFFFFFFFFFFFF AND PUSH20 0xFFFFFFFFFFFFFFFFFFFFFFFFFFFFFFFFFFFFFFFF AND DUP2 MSTORE PUSH1 0x20 ADD SWAP1 DUP2 MSTORE PUSH1 0x20 ADD PUSH0 KECCAK256 PUSH1 0x3 ADD PUSH0 SWAP1 SLOAD SWAP1 PUSH2 0x100 EXP SWAP1 DIV PUSH1 0xFF AND ISZERO ISZERO EQ DUP1 ISZERO PUSH2 0x1331 JUMPI POP PUSH0 ISZERO ISZERO PUSH0 DUP1 DUP4 PUSH20 0xFFFFFFFFFFFFFFFFFFFFFFFFFFFFFFFFFFFFFFFF AND PUSH20 0xFFFFFFFFFFFFFFFFFFFFFFFFFFFFFFFFFFFFFFFF AND DUP2 MSTORE PUSH1 0x20 ADD SWAP1 DUP2 MSTORE PUSH1 0x20 ADD PUSH0 KECCAK256 PUSH1 0x3 ADD PUSH0 SWAP1 SLOAD SWAP1 PUSH2 0x100 EXP SWAP1 DIV PUSH1 0xFF AND ISZERO ISZERO EQ JUMPDEST PUSH2 0x1370 JUMPI PUSH1 0x40 MLOAD PUSH32 0x8C379A000000000000000000000000000000000000000000000000000000000 DUP2 MSTORE PUSH1 0x4 ADD PUSH2 0x1367 SWAP1 PUSH2 0x3195 JUMP JUMPDEST PUSH1 0x40 MLOAD DUP1 SWAP2 SUB SWAP1 REVERT JUMPDEST DUP4 DUP1 PUSH20 0xFFFFFFFFFFFFFFFFFFFFFFFFFFFFFFFFFFFFFFFF AND CALLER PUSH20 0xFFFFFFFFFFFFFFFFFFFFFFFFFFFFFFFFFFFFFFFF AND SUB PUSH2 0x13DF JUMPI PUSH1 0x40 MLOAD PUSH32 0x8C379A000000000000000000000000000000000000000000000000000000000 DUP2 MSTORE PUSH1 0x4 ADD PUSH2 0x13D6 SWAP1 PUSH2 0x31FD JUMP JUMPDEST PUSH1 0x40 MLOAD DUP1 SWAP2 SUB SWAP1 REVERT JUMPDEST PUSH0 PUSH1 0x40 MLOAD DUP1 PUSH2 0x100 ADD PUSH1 0x40 MSTORE DUP1 CALLER PUSH20 0xFFFFFFFFFFFFFFFFFFFFFFFFFFFFFFFFFFFFFFFF AND DUP2 MSTORE PUSH1 0x20 ADD DUP8 PUSH20 0xFFFFFFFFFFFFFFFFFFFFFFFFFFFFFFFFFFFFFFFF AND DUP2 MSTORE PUSH1 0x20 ADD DUP7 DUP2 MSTORE PUSH1 0x20 ADD PUSH1 0x1 ISZERO ISZERO DUP2 MSTORE PUSH1 0x20 ADD PUSH0 ISZERO ISZERO DUP2 MSTORE PUSH1 0x20 ADD PUSH0 ISZERO ISZERO DUP2 MSTORE PUSH1 0x20 ADD PUSH0 ISZERO ISZERO DUP2 MSTORE PUSH1 0x20 ADD PUSH0 ISZERO ISZERO DUP2 MSTORE POP SWAP1 POP DUP1 PUSH0 DUP1 CALLER PUSH20 0xFFFFFFFFFFFFFFFFFFFFFFFFFFFFFFFFFFFFFFFF AND PUSH20 0xFFFFFFFFFFFFFFFFFFFFFFFFFFFFFFFFFFFFFFFF AND DUP2 MSTORE PUSH1 0x20 ADD SWAP1 DUP2 MSTORE PUSH1 0x20 ADD PUSH0 KECCAK256 PUSH0 DUP3 ADD MLOAD DUP2 PUSH0 ADD PUSH0 PUSH2 0x100 EXP DUP2 SLOAD DUP2 PUSH20 0xFFFFFFFFFFFFFFFFFFFFFFFFFFFFFFFFFFFFFFFF MUL NOT AND SWAP1 DUP4 PUSH20 0xFFFFFFFFFFFFFFFFFFFFFFFFFFFFFFFFFFFFFFFF AND MUL OR SWAP1 SSTORE POP PUSH1 0x20 DUP3 ADD MLOAD DUP2 PUSH1 0x1 ADD PUSH0 PUSH2 0x100 EXP DUP2 SLOAD DUP2 PUSH20 0xFFFFFFFFFFFFFFFFFFFFFFFFFFFFFFFFFFFFFFFF MUL NOT AND SWAP1 DUP4 PUSH20 0xFFFFFFFFFFFFFFFFFFFFFFFFFFFFFFFFFFFFFFFF AND MUL OR SWAP1 SSTORE POP PUSH1 0x40 DUP3 ADD MLOAD DUP2 PUSH1 0x2 ADD SSTORE PUSH1 0x60 DUP3 ADD MLOAD DUP2 PUSH1 0x3 ADD PUSH0 PUSH2 0x100 EXP DUP2 SLOAD DUP2 PUSH1 0xFF MUL NOT AND SWAP1 DUP4 ISZERO ISZERO MUL OR SWAP1 SSTORE POP PUSH1 0x80 DUP3 ADD MLOAD DUP2 PUSH1 0x3 ADD PUSH1 0x1 PUSH2 0x100 EXP DUP2 SLOAD DUP2 PUSH1 0xFF MUL NOT AND SWAP1 DUP4 ISZERO ISZERO MUL OR SWAP1 SSTORE POP PUSH1 0xA0 DUP3 ADD MLOAD DUP2 PUSH1 0x3 ADD PUSH1 0x2 PUSH2 0x100 EXP DUP2 SLOAD DUP2 PUSH1 0xFF MUL NOT AND SWAP1 DUP4 ISZERO ISZERO MUL OR SWAP1 SSTORE POP PUSH1 0xC0 DUP3 ADD MLOAD DUP2 PUSH1 0x3 ADD PUSH1 0x3 PUSH2 0x100 EXP DUP2 SLOAD DUP2 PUSH1 0xFF MUL NOT AND SWAP1 DUP4 ISZERO ISZERO MUL OR SWAP1 SSTORE POP PUSH1 0xE0 DUP3 ADD MLOAD DUP2 PUSH1 0x3 ADD PUSH1 0x4 PUSH2 0x100 EXP DUP2 SLOAD DUP2 PUSH1 0xFF MUL NOT AND SWAP1 DUP4 ISZERO ISZERO MUL OR SWAP1 SSTORE POP SWAP1 POP POP DUP1 PUSH0 DUP1 DUP9 PUSH20 0xFFFFFFFFFFFFFFFFFFFFFFFFFFFFFFFFFFFFFFFF AND PUSH20 0xFFFFFFFFFFFFFFFFFFFFFFFFFFFFFFFFFFFFFFFF AND DUP2 MSTORE PUSH1 0x20 ADD SWAP1 DUP2 MSTORE PUSH1 0x20 ADD PUSH0 KECCAK256 PUSH0 DUP3 ADD MLOAD DUP2 PUSH0 ADD PUSH0 PUSH2 0x100 EXP DUP2 SLOAD DUP2 PUSH20 0xFFFFFFFFFFFFFFFFFFFFFFFFFFFFFFFFFFFFFFFF MUL NOT AND SWAP1 DUP4 PUSH20 0xFFFFFFFFFFFFFFFFFFFFFFFFFFFFFFFFFFFFFFFF AND MUL OR SWAP1 SSTORE POP PUSH1 0x20 DUP3 ADD MLOAD DUP2 PUSH1 0x1 ADD PUSH0 PUSH2 0x100 EXP DUP2 SLOAD DUP2 PUSH20 0xFFFFFFFFFFFFFFFFFFFFFFFFFFFFFFFFFFFFFFFF MUL NOT AND SWAP1 DUP4 PUSH20 0xFFFFFFFFFFFFFFFFFFFFFFFFFFFFFFFFFFFFFFFF AND MUL OR SWAP1 SSTORE POP PUSH1 0x40 DUP3 ADD MLOAD DUP2 PUSH1 0x2 ADD SSTORE PUSH1 0x60 DUP3 ADD MLOAD DUP2 PUSH1 0x3 ADD PUSH0 PUSH2 0x100 EXP DUP2 SLOAD DUP2 PUSH1 0xFF MUL NOT AND SWAP1 DUP4 ISZERO ISZERO MUL OR SWAP1 SSTORE POP PUSH1 0x80 DUP3 ADD MLOAD DUP2 PUSH1 0x3 ADD PUSH1 0x1 PUSH2 0x100 EXP DUP2 SLOAD DUP2 PUSH1 0xFF MUL NOT AND SWAP1 DUP4 ISZERO ISZERO MUL OR SWAP1 SSTORE POP PUSH1 0xA0 DUP3 ADD MLOAD DUP2 PUSH1 0x3 ADD PUSH1 0x2 PUSH2 0x100 EXP DUP2 SLOAD DUP2 PUSH1 0xFF MUL NOT AND SWAP1 DUP4 ISZERO ISZERO MUL OR SWAP1 SSTORE POP PUSH1 0xC0 DUP3 ADD MLOAD DUP2 PUSH1 0x3 ADD PUSH1 0x3 PUSH2 0x100 EXP DUP2 SLOAD DUP2 PUSH1 0xFF MUL NOT AND SWAP1 DUP4 ISZERO ISZERO MUL OR SWAP1 SSTORE POP PUSH1 0xE0 DUP3 ADD MLOAD DUP2 PUSH1 0x3 ADD PUSH1 0x4 PUSH2 0x100 EXP DUP2 SLOAD DUP2 PUSH1 0xFF MUL NOT AND SWAP1 DUP4 ISZERO ISZERO MUL OR SWAP1 SSTORE POP SWAP1 POP POP PUSH32 0x7A7F38BE04AFB87E39B4CB52BEC76C69C4D999F605BD21054B71A3F2DC085821 CALLER DUP8 DUP8 PUSH1 0x40 MLOAD PUSH2 0x176C SWAP4 SWAP3 SWAP2 SWAP1 PUSH2 0x321B JUMP JUMPDEST PUSH1 0x40 MLOAD DUP1 SWAP2 SUB SWAP1 LOG1 POP POP POP POP POP POP JUMP JUMPDEST PUSH0 DUP1 PUSH1 0x1 PUSH0 DUP6 PUSH20 0xFFFFFFFFFFFFFFFFFFFFFFFFFFFFFFFFFFFFFFFF AND PUSH20 0xFFFFFFFFFFFFFFFFFFFFFFFFFFFFFFFFFFFFFFFF AND DUP2 MSTORE PUSH1 0x20 ADD SWAP1 DUP2 MSTORE PUSH1 0x20 ADD PUSH0 KECCAK256 SWAP1 POP DUP1 PUSH1 0x1 ADD PUSH0 SWAP1 SLOAD SWAP1 PUSH2 0x100 EXP SWAP1 DIV PUSH1 0xFF AND DUP1 ISZERO PUSH2 0x17E8 JUMPI POP DUP1 PUSH1 0x1 ADD PUSH1 0x1 SWAP1 SLOAD SWAP1 PUSH2 0x100 EXP SWAP1 DIV PUSH1 0xFF AND JUMPDEST ISZERO PUSH2 0x1904 JUMPI PUSH0 JUMPDEST PUSH1 0x1 PUSH0 DUP7 PUSH20 0xFFFFFFFFFFFFFFFFFFFFFFFFFFFFFFFFFFFFFFFF AND PUSH20 0xFFFFFFFFFFFFFFFFFFFFFFFFFFFFFFFFFFFFFFFF AND DUP2 MSTORE PUSH1 0x20 ADD SWAP1 DUP2 MSTORE PUSH1 0x20 ADD PUSH0 KECCAK256 PUSH0 ADD DUP1 SLOAD SWAP1 POP DUP2 LT ISZERO PUSH2 0x1902 JUMPI DUP4 PUSH20 0xFFFFFFFFFFFFFFFFFFFFFFFFFFFFFFFFFFFFFFFF AND PUSH1 0x1 PUSH0 DUP8 PUSH20 0xFFFFFFFFFFFFFFFFFFFFFFFFFFFFFFFFFFFFFFFF AND PUSH20 0xFFFFFFFFFFFFFFFFFFFFFFFFFFFFFFFFFFFFFFFF AND DUP2 MSTORE PUSH1 0x20 ADD SWAP1 DUP2 MSTORE PUSH1 0x20 ADD PUSH0 KECCAK256 PUSH0 ADD DUP3 DUP2 SLOAD DUP2 LT PUSH2 0x18A1 JUMPI PUSH2 0x18A0 PUSH2 0x3250 JUMP JUMPDEST JUMPDEST SWAP1 PUSH0 MSTORE PUSH1 0x20 PUSH0 KECCAK256 ADD PUSH0 SWAP1 SLOAD SWAP1 PUSH2 0x100 EXP SWAP1 DIV PUSH20 0xFFFFFFFFFFFFFFFFFFFFFFFFFFFFFFFFFFFFFFFF AND PUSH20 0xFFFFFFFFFFFFFFFFFFFFFFFFFFFFFFFFFFFFFFFF AND SUB PUSH2 0x18EF JUMPI PUSH1 0x1 SWAP3 POP POP POP PUSH2 0x1909 JUMP JUMPDEST DUP1 DUP1 PUSH2 0x18FA SWAP1 PUSH2 0x32AA JUMP JUMPDEST SWAP2 POP POP PUSH2 0x17EF JUMP JUMPDEST POP JUMPDEST PUSH0 SWAP2 POP POP JUMPDEST SWAP3 SWAP2 POP POP JUMP JUMPDEST DUP1 PUSH1 0x1 ISZERO ISZERO PUSH0 DUP1 DUP4 PUSH20 0xFFFFFFFFFFFFFFFFFFFFFFFFFFFFFFFFFFFFFFFF AND PUSH20 0xFFFFFFFFFFFFFFFFFFFFFFFFFFFFFFFFFFFFFFFF AND DUP2 MSTORE PUSH1 0x20 ADD SWAP1 DUP2 MSTORE PUSH1 0x20 ADD PUSH0 KECCAK256 PUSH1 0x3 ADD PUSH0 SWAP1 SLOAD SWAP1 PUSH2 0x100 EXP SWAP1 DIV PUSH1 0xFF AND ISZERO ISZERO EQ PUSH2 0x19A2 JUMPI PUSH1 0x40 MLOAD PUSH32 0x8C379A000000000000000000000000000000000000000000000000000000000 DUP2 MSTORE PUSH1 0x4 ADD PUSH2 0x1999 SWAP1 PUSH2 0x2E7F JUMP JUMPDEST PUSH1 0x40 MLOAD DUP1 SWAP2 SUB SWAP1 REVERT JUMPDEST DUP2 PUSH0 ISZERO ISZERO PUSH0 DUP1 DUP4 PUSH20 0xFFFFFFFFFFFFFFFFFFFFFFFFFFFFFFFFFFFFFFFF AND PUSH20 0xFFFFFFFFFFFFFFFFFFFFFFFFFFFFFFFFFFFFFFFF AND DUP2 MSTORE PUSH1 0x20 ADD SWAP1 DUP2 MSTORE PUSH1 0x20 ADD PUSH0 KECCAK256 PUSH1 0x3 ADD PUSH1 0x1 SWAP1 SLOAD SWAP1 PUSH2 0x100 EXP SWAP1 DIV PUSH1 0xFF AND ISZERO ISZERO EQ PUSH2 0x1A35 JUMPI PUSH1 0x40 MLOAD PUSH32 0x8C379A000000000000000000000000000000000000000000000000000000000 DUP2 MSTORE PUSH1 0x4 ADD PUSH2 0x1A2C SWAP1 PUSH2 0x2F0D JUMP JUMPDEST PUSH1 0x40 MLOAD DUP1 SWAP2 SUB SWAP1 REVERT JUMPDEST DUP3 PUSH0 DUP1 DUP3 PUSH20 0xFFFFFFFFFFFFFFFFFFFFFFFFFFFFFFFFFFFFFFFF AND PUSH20 0xFFFFFFFFFFFFFFFFFFFFFFFFFFFFFFFFFFFFFFFF AND DUP2 MSTORE PUSH1 0x20 ADD SWAP1 DUP2 MSTORE PUSH1 0x20 ADD PUSH0 KECCAK256 PUSH1 0x3 ADD PUSH1 0x2 SWAP1 SLOAD SWAP1 PUSH2 0x100 EXP SWAP1 DIV PUSH1 0xFF AND ISZERO PUSH2 0x1AC3 JUMPI PUSH1 0x40 MLOAD PUSH32 0x8C379A000000000000000000000000000000000000000000000000000000000 DUP2 MSTORE PUSH1 0x4 ADD PUSH2 0x1ABA SWAP1 PUSH2 0x2F9C JUMP JUMPDEST PUSH1 0x40 MLOAD DUP1 SWAP2 SUB SWAP1 REVERT JUMPDEST DUP4 PUSH2 0x1ACE DUP2 CALLER PUSH2 0x177C JUMP JUMPDEST PUSH2 0x1B0D JUMPI PUSH1 0x40 MLOAD PUSH32 0x8C379A000000000000000000000000000000000000000000000000000000000 DUP2 MSTORE PUSH1 0x4 ADD PUSH2 0x1B04 SWAP1 PUSH2 0x333B JUMP JUMPDEST PUSH1 0x40 MLOAD DUP1 SWAP2 SUB SWAP1 REVERT JUMPDEST DUP5 PUSH1 0x1 PUSH0 DUP3 PUSH20 0xFFFFFFFFFFFFFFFFFFFFFFFFFFFFFFFFFFFFFFFF AND PUSH20 0xFFFFFFFFFFFFFFFFFFFFFFFFFFFFFFFFFFFFFFFF AND DUP2 MSTORE PUSH1 0x20 ADD SWAP1 DUP2 MSTORE PUSH1 0x20 ADD PUSH0 KECCAK256 PUSH1 0x2 ADD PUSH0 CALLER PUSH20 0xFFFFFFFFFFFFFFFFFFFFFFFFFFFFFFFFFFFFFFFF AND PUSH20 0xFFFFFFFFFFFFFFFFFFFFFFFFFFFFFFFFFFFFFFFF AND DUP2 MSTORE PUSH1 0x20 ADD SWAP1 DUP2 MSTORE PUSH1 0x20 ADD PUSH0 KECCAK256 PUSH0 SWAP1 SLOAD SWAP1 PUSH2 0x100 EXP SWAP1 DIV PUSH1 0xFF AND ISZERO PUSH2 0x1BD6 JUMPI PUSH1 0x40 MLOAD PUSH32 0x8C379A000000000000000000000000000000000000000000000000000000000 DUP2 MSTORE PUSH1 0x4 ADD PUSH2 0x1BCD SWAP1 PUSH2 0x33A3 JUMP JUMPDEST PUSH1 0x40 MLOAD DUP1 SWAP2 SUB SWAP1 REVERT JUMPDEST PUSH0 PUSH1 0x1 PUSH0 DUP9 PUSH20 0xFFFFFFFFFFFFFFFFFFFFFFFFFFFFFFFFFFFFFFFF AND PUSH20 0xFFFFFFFFFFFFFFFFFFFFFFFFFFFFFFFFFFFFFFFF AND DUP2 MSTORE PUSH1 0x20 ADD SWAP1 DUP2 MSTORE PUSH1 0x20 ADD PUSH0 KECCAK256 SWAP1 POP PUSH1 0x1 DUP2 PUSH1 0x2 ADD PUSH0 CALLER PUSH20 0xFFFFFFFFFFFFFFFFFFFFFFFFFFFFFFFFFFFFFFFF AND PUSH20 0xFFFFFFFFFFFFFFFFFFFFFFFFFFFFFFFFFFFFFFFF AND DUP2 MSTORE PUSH1 0x20 ADD SWAP1 DUP2 MSTORE PUSH1 0x20 ADD PUSH0 KECCAK256 PUSH0 PUSH2 0x100 EXP DUP2 SLOAD DUP2 PUSH1 0xFF MUL NOT AND SWAP1 DUP4 ISZERO ISZERO MUL OR SWAP1 SSTORE POP DUP1 PUSH1 0x3 ADD PUSH0 DUP2 SLOAD DUP1 SWAP3 SWAP2 SWAP1 PUSH2 0x1C81 SWAP1 PUSH2 0x32AA JUMP JUMPDEST SWAP2 SWAP1 POP SSTORE POP PUSH32 0xA9862C5F43CACA0B960B097A111CE8C3752D27DF0E0F1F170B4A06A823E612B1 CALLER DUP9 PUSH1 0x40 MLOAD PUSH2 0x1CB7 SWAP3 SWAP2 SWAP1 PUSH2 0x2FBA JUMP JUMPDEST PUSH1 0x40 MLOAD DUP1 SWAP2 SUB SWAP1 LOG1 PUSH2 0x1CC8 DUP8 PUSH2 0x25D8 JUMP JUMPDEST POP POP POP POP POP POP POP JUMP JUMPDEST PUSH0 PUSH1 0x20 MSTORE DUP1 PUSH0 MSTORE PUSH1 0x40 PUSH0 KECCAK256 PUSH0 SWAP2 POP SWAP1 POP DUP1 PUSH0 ADD PUSH0 SWAP1 SLOAD SWAP1 PUSH2 0x100 EXP SWAP1 DIV PUSH20 0xFFFFFFFFFFFFFFFFFFFFFFFFFFFFFFFFFFFFFFFF AND SWAP1 DUP1 PUSH1 0x1 ADD PUSH0 SWAP1 SLOAD SWAP1 PUSH2 0x100 EXP SWAP1 DIV PUSH20 0xFFFFFFFFFFFFFFFFFFFFFFFFFFFFFFFFFFFFFFFF AND SWAP1 DUP1 PUSH1 0x2 ADD SLOAD SWAP1 DUP1 PUSH1 0x3 ADD PUSH0 SWAP1 SLOAD SWAP1 PUSH2 0x100 EXP SWAP1 DIV PUSH1 0xFF AND SWAP1 DUP1 PUSH1 0x3 ADD PUSH1 0x1 SWAP1 SLOAD SWAP1 PUSH2 0x100 EXP SWAP1 DIV PUSH1 0xFF AND SWAP1 DUP1 PUSH1 0x3 ADD PUSH1 0x2 SWAP1 SLOAD SWAP1 PUSH2 0x100 EXP SWAP1 DIV PUSH1 0xFF AND SWAP1 DUP1 PUSH1 0x3 ADD PUSH1 0x3 SWAP1 SLOAD SWAP1 PUSH2 0x100 EXP SWAP1 DIV PUSH1 0xFF AND SWAP1 DUP1 PUSH1 0x3 ADD PUSH1 0x4 SWAP1 SLOAD SWAP1 PUSH2 0x100 EXP SWAP1 DIV PUSH1 0xFF AND SWAP1 POP DUP9 JUMP JUMPDEST PUSH0 DUP1 PUSH0 DUP1 PUSH0 DUP1 PUSH0 DUP1 DUP9 PUSH20 0xFFFFFFFFFFFFFFFFFFFFFFFFFFFFFFFFFFFFFFFF AND PUSH20 0xFFFFFFFFFFFFFFFFFFFFFFFFFFFFFFFFFFFFFFFF AND DUP2 MSTORE PUSH1 0x20 ADD SWAP1 DUP2 MSTORE PUSH1 0x20 ADD PUSH0 KECCAK256 PUSH1 0x40 MLOAD DUP1 PUSH2 0x100 ADD PUSH1 0x40 MSTORE SWAP1 DUP2 PUSH0 DUP3 ADD PUSH0 SWAP1 SLOAD SWAP1 PUSH2 0x100 EXP SWAP1 DIV PUSH20 0xFFFFFFFFFFFFFFFFFFFFFFFFFFFFFFFFFFFFFFFF AND PUSH20 0xFFFFFFFFFFFFFFFFFFFFFFFFFFFFFFFFFFFFFFFF AND PUSH20 0xFFFFFFFFFFFFFFFFFFFFFFFFFFFFFFFFFFFFFFFF AND DUP2 MSTORE PUSH1 0x20 ADD PUSH1 0x1 DUP3 ADD PUSH0 SWAP1 SLOAD SWAP1 PUSH2 0x100 EXP SWAP1 DIV PUSH20 0xFFFFFFFFFFFFFFFFFFFFFFFFFFFFFFFFFFFFFFFF AND PUSH20 0xFFFFFFFFFFFFFFFFFFFFFFFFFFFFFFFFFFFFFFFF AND PUSH20 0xFFFFFFFFFFFFFFFFFFFFFFFFFFFFFFFFFFFFFFFF AND DUP2 MSTORE PUSH1 0x20 ADD PUSH1 0x2 DUP3 ADD SLOAD DUP2 MSTORE PUSH1 0x20 ADD PUSH1 0x3 DUP3 ADD PUSH0 SWAP1 SLOAD SWAP1 PUSH2 0x100 EXP SWAP1 DIV PUSH1 0xFF AND ISZERO ISZERO ISZERO ISZERO DUP2 MSTORE PUSH1 0x20 ADD PUSH1 0x3 DUP3 ADD PUSH1 0x1 SWAP1 SLOAD SWAP1 PUSH2 0x100 EXP SWAP1 DIV PUSH1 0xFF AND ISZERO ISZERO ISZERO ISZERO DUP2 MSTORE PUSH1 0x20 ADD PUSH1 0x3 DUP3 ADD PUSH1 0x2 SWAP1 SLOAD SWAP1 PUSH2 0x100 EXP SWAP1 DIV PUSH1 0xFF AND ISZERO ISZERO ISZERO ISZERO DUP2 MSTORE PUSH1 0x20 ADD PUSH1 0x3 DUP3 ADD PUSH1 0x3 SWAP1 SLOAD SWAP1 PUSH2 0x100 EXP SWAP1 DIV PUSH1 0xFF AND ISZERO ISZERO ISZERO ISZERO DUP2 MSTORE PUSH1 0x20 ADD PUSH1 0x3 DUP3 ADD PUSH1 0x4 SWAP1 SLOAD SWAP1 PUSH2 0x100 EXP SWAP1 DIV PUSH1 0xFF AND ISZERO ISZERO ISZERO ISZERO DUP2 MSTORE POP POP SWAP1 POP DUP1 PUSH0 ADD MLOAD DUP2 PUSH1 0x20 ADD MLOAD DUP3 PUSH1 0x40 ADD MLOAD DUP4 PUSH1 0x60 ADD MLOAD DUP5 PUSH1 0x80 ADD MLOAD SWAP6 POP SWAP6 POP SWAP6 POP SWAP6 POP SWAP6 POP POP SWAP2 SWAP4 SWAP6 SWAP1 SWAP3 SWAP5 POP JUMP JUMPDEST CALLER PUSH1 0x1 ISZERO ISZERO PUSH0 DUP1 DUP4 PUSH20 0xFFFFFFFFFFFFFFFFFFFFFFFFFFFFFFFFFFFFFFFF AND PUSH20 0xFFFFFFFFFFFFFFFFFFFFFFFFFFFFFFFFFFFFFFFF AND DUP2 MSTORE PUSH1 0x20 ADD SWAP1 DUP2 MSTORE PUSH1 0x20 ADD PUSH0 KECCAK256 PUSH1 0x3 ADD PUSH0 SWAP1 SLOAD SWAP1 PUSH2 0x100 EXP SWAP1 DIV PUSH1 0xFF AND ISZERO ISZERO EQ PUSH2 0x1FDA JUMPI PUSH1 0x40 MLOAD PUSH32 0x8C379A000000000000000000000000000000000000000000000000000000000 DUP2 MSTORE PUSH1 0x4 ADD PUSH2 0x1FD1 SWAP1 PUSH2 0x2E7F JUMP JUMPDEST PUSH1 0x40 MLOAD DUP1 SWAP2 SUB SWAP1 REVERT JUMPDEST CALLER PUSH0 DUP1 PUSH0 DUP4 PUSH20 0xFFFFFFFFFFFFFFFFFFFFFFFFFFFFFFFFFFFFFFFF AND PUSH20 0xFFFFFFFFFFFFFFFFFFFFFFFFFFFFFFFFFFFFFFFF AND DUP2 MSTORE PUSH1 0x20 ADD SWAP1 DUP2 MSTORE PUSH1 0x20 ADD PUSH0 KECCAK256 PUSH1 0x40 MLOAD DUP1 PUSH2 0x100 ADD PUSH1 0x40 MSTORE SWAP1 DUP2 PUSH0 DUP3 ADD PUSH0 SWAP1 SLOAD SWAP1 PUSH2 0x100 EXP SWAP1 DIV PUSH20 0xFFFFFFFFFFFFFFFFFFFFFFFFFFFFFFFFFFFFFFFF AND PUSH20 0xFFFFFFFFFFFFFFFFFFFFFFFFFFFFFFFFFFFFFFFF AND PUSH20 0xFFFFFFFFFFFFFFFFFFFFFFFFFFFFFFFFFFFFFFFF AND DUP2 MSTORE PUSH1 0x20 ADD PUSH1 0x1 DUP3 ADD PUSH0 SWAP1 SLOAD SWAP1 PUSH2 0x100 EXP SWAP1 DIV PUSH20 0xFFFFFFFFFFFFFFFFFFFFFFFFFFFFFFFFFFFFFFFF AND PUSH20 0xFFFFFFFFFFFFFFFFFFFFFFFFFFFFFFFFFFFFFFFF AND PUSH20 0xFFFFFFFFFFFFFFFFFFFFFFFFFFFFFFFFFFFFFFFF AND DUP2 MSTORE PUSH1 0x20 ADD PUSH1 0x2 DUP3 ADD SLOAD DUP2 MSTORE PUSH1 0x20 ADD PUSH1 0x3 DUP3 ADD PUSH0 SWAP1 SLOAD SWAP1 PUSH2 0x100 EXP SWAP1 DIV PUSH1 0xFF AND ISZERO ISZERO ISZERO ISZERO DUP2 MSTORE PUSH1 0x20 ADD PUSH1 0x3 DUP3 ADD PUSH1 0x1 SWAP1 SLOAD SWAP1 PUSH2 0x100 EXP SWAP1 DIV PUSH1 0xFF AND ISZERO ISZERO ISZERO ISZERO DUP2 MSTORE PUSH1 0x20 ADD PUSH1 0x3 DUP3 ADD PUSH1 0x2 SWAP1 SLOAD SWAP1 PUSH2 0x100 EXP SWAP1 DIV PUSH1 0xFF AND ISZERO ISZERO ISZERO ISZERO DUP2 MSTORE PUSH1 0x20 ADD PUSH1 0x3 DUP3 ADD PUSH1 0x3 SWAP1 SLOAD SWAP1 PUSH2 0x100 EXP SWAP1 DIV PUSH1 0xFF AND ISZERO ISZERO ISZERO ISZERO DUP2 MSTORE PUSH1 0x20 ADD PUSH1 0x3 DUP3 ADD PUSH1 0x4 SWAP1 SLOAD SWAP1 PUSH2 0x100 EXP SWAP1 DIV PUSH1 0xFF AND ISZERO ISZERO ISZERO ISZERO DUP2 MSTORE POP POP SWAP1 POP DUP1 PUSH0 ADD MLOAD PUSH20 0xFFFFFFFFFFFFFFFFFFFFFFFFFFFFFFFFFFFFFFFF AND CALLER PUSH20 0xFFFFFFFFFFFFFFFFFFFFFFFFFFFFFFFFFFFFFFFF AND EQ DUP1 PUSH2 0x21CB JUMPI POP DUP1 PUSH1 0x20 ADD MLOAD PUSH20 0xFFFFFFFFFFFFFFFFFFFFFFFFFFFFFFFFFFFFFFFF AND CALLER PUSH20 0xFFFFFFFFFFFFFFFFFFFFFFFFFFFFFFFFFFFFFFFF AND EQ JUMPDEST PUSH2 0x220A JUMPI PUSH1 0x40 MLOAD PUSH32 0x8C379A000000000000000000000000000000000000000000000000000000000 DUP2 MSTORE PUSH1 0x4 ADD PUSH2 0x2201 SWAP1 PUSH2 0x3051 JUMP JUMPDEST PUSH1 0x40 MLOAD DUP1 SWAP2 SUB SWAP1 REVERT JUMPDEST PUSH0 DUP1 PUSH0 CALLER PUSH20 0xFFFFFFFFFFFFFFFFFFFFFFFFFFFFFFFFFFFFFFFF AND PUSH20 0xFFFFFFFFFFFFFFFFFFFFFFFFFFFFFFFFFFFFFFFF AND DUP2 MSTORE PUSH1 0x20 ADD SWAP1 DUP2 MSTORE PUSH1 0x20 ADD PUSH0 KECCAK256 SWAP1 POP DUP1 PUSH0 ADD PUSH0 SWAP1 SLOAD SWAP1 PUSH2 0x100 EXP SWAP1 DIV PUSH20 0xFFFFFFFFFFFFFFFFFFFFFFFFFFFFFFFFFFFFFFFF AND PUSH20 0xFFFFFFFFFFFFFFFFFFFFFFFFFFFFFFFFFFFFFFFF AND CALLER PUSH20 0xFFFFFFFFFFFFFFFFFFFFFFFFFFFFFFFFFFFFFFFF AND SUB PUSH2 0x2396 JUMPI PUSH1 0x1 DUP1 PUSH0 DUP4 PUSH0 ADD PUSH0 SWAP1 SLOAD SWAP1 PUSH2 0x100 EXP SWAP1 DIV PUSH20 0xFFFFFFFFFFFFFFFFFFFFFFFFFFFFFFFFFFFFFFFF AND PUSH20 0xFFFFFFFFFFFFFFFFFFFFFFFFFFFFFFFFFFFFFFFF AND PUSH20 0xFFFFFFFFFFFFFFFFFFFFFFFFFFFFFFFFFFFFFFFF AND DUP2 MSTORE PUSH1 0x20 ADD SWAP1 DUP2 MSTORE PUSH1 0x20 ADD PUSH0 KECCAK256 PUSH1 0x1 ADD PUSH0 PUSH2 0x100 EXP DUP2 SLOAD DUP2 PUSH1 0xFF MUL NOT AND SWAP1 DUP4 ISZERO ISZERO MUL OR SWAP1 SSTORE POP PUSH1 0x1 DUP1 PUSH0 DUP4 PUSH1 0x1 ADD PUSH0 SWAP1 SLOAD SWAP1 PUSH2 0x100 EXP SWAP1 DIV PUSH20 0xFFFFFFFFFFFFFFFFFFFFFFFFFFFFFFFFFFFFFFFF AND PUSH20 0xFFFFFFFFFFFFFFFFFFFFFFFFFFFFFFFFFFFFFFFF AND PUSH20 0xFFFFFFFFFFFFFFFFFFFFFFFFFFFFFFFFFFFFFFFF AND DUP2 MSTORE PUSH1 0x20 ADD SWAP1 DUP2 MSTORE PUSH1 0x20 ADD PUSH0 KECCAK256 PUSH1 0x1 ADD PUSH0 PUSH2 0x100 EXP DUP2 SLOAD DUP2 PUSH1 0xFF MUL NOT AND SWAP1 DUP4 ISZERO ISZERO MUL OR SWAP1 SSTORE POP PUSH2 0x248C JUMP JUMPDEST PUSH1 0x1 DUP1 PUSH0 DUP4 PUSH0 ADD PUSH0 SWAP1 SLOAD SWAP1 PUSH2 0x100 EXP SWAP1 DIV PUSH20 0xFFFFFFFFFFFFFFFFFFFFFFFFFFFFFFFFFFFFFFFF AND PUSH20 0xFFFFFFFFFFFFFFFFFFFFFFFFFFFFFFFFFFFFFFFF AND PUSH20 0xFFFFFFFFFFFFFFFFFFFFFFFFFFFFFFFFFFFFFFFF AND DUP2 MSTORE PUSH1 0x20 ADD SWAP1 DUP2 MSTORE PUSH1 0x20 ADD PUSH0 KECCAK256 PUSH1 0x1 ADD PUSH1 0x1 PUSH2 0x100 EXP DUP2 SLOAD DUP2 PUSH1 0xFF MUL NOT AND SWAP1 DUP4 ISZERO ISZERO MUL OR SWAP1 SSTORE POP PUSH1 0x1 DUP1 PUSH0 DUP4 PUSH1 0x1 ADD PUSH0 SWAP1 SLOAD SWAP1 PUSH2 0x100 EXP SWAP1 DIV PUSH20 0xFFFFFFFFFFFFFFFFFFFFFFFFFFFFFFFFFFFFFFFF AND PUSH20 0xFFFFFFFFFFFFFFFFFFFFFFFFFFFFFFFFFFFFFFFF AND PUSH20 0xFFFFFFFFFFFFFFFFFFFFFFFFFFFFFFFFFFFFFFFF AND DUP2 MSTORE PUSH1 0x20 ADD SWAP1 DUP2 MSTORE PUSH1 0x20 ADD PUSH0 KECCAK256 PUSH1 0x1 ADD PUSH1 0x1 PUSH2 0x100 EXP DUP2 SLOAD DUP2 PUSH1 0xFF MUL NOT AND SWAP1 DUP4 ISZERO ISZERO MUL OR SWAP1 SSTORE POP JUMPDEST PUSH1 0x1 PUSH0 DUP3 PUSH0 ADD PUSH0 SWAP1 SLOAD SWAP1 PUSH2 0x100 EXP SWAP1 DIV PUSH20 0xFFFFFFFFFFFFFFFFFFFFFFFFFFFFFFFFFFFFFFFF AND PUSH20 0xFFFFFFFFFFFFFFFFFFFFFFFFFFFFFFFFFFFFFFFF AND PUSH20 0xFFFFFFFFFFFFFFFFFFFFFFFFFFFFFFFFFFFFFFFF AND DUP2 MSTORE PUSH1 0x20 ADD SWAP1 DUP2 MSTORE PUSH1 0x20 ADD PUSH0 KECCAK256 PUSH1 0x1 ADD PUSH0 SWAP1 SLOAD SWAP1 PUSH2 0x100 EXP SWAP1 DIV PUSH1 0xFF AND DUP1 ISZERO PUSH2 0x2573 JUMPI POP PUSH1 0x1 PUSH0 DUP3 PUSH0 ADD PUSH0 SWAP1 SLOAD SWAP1 PUSH2 0x100 EXP SWAP1 DIV PUSH20 0xFFFFFFFFFFFFFFFFFFFFFFFFFFFFFFFFFFFFFFFF AND PUSH20 0xFFFFFFFFFFFFFFFFFFFFFFFFFFFFFFFFFFFFFFFF AND PUSH20 0xFFFFFFFFFFFFFFFFFFFFFFFFFFFFFFFFFFFFFFFF AND DUP2 MSTORE PUSH1 0x20 ADD SWAP1 DUP2 MSTORE PUSH1 0x20 ADD PUSH0 KECCAK256 PUSH1 0x1 ADD PUSH1 0x1 SWAP1 SLOAD SWAP1 PUSH2 0x100 EXP SWAP1 DIV PUSH1 0xFF AND JUMPDEST ISZERO PUSH2 0x25D2 JUMPI PUSH32 0xFFACC21903A9DB21C6031D4C12C9825F13AC6469F9B894F7058A45CF1F9A3E8D DUP2 PUSH0 ADD PUSH0 SWAP1 SLOAD SWAP1 PUSH2 0x100 EXP SWAP1 DIV PUSH20 0xFFFFFFFFFFFFFFFFFFFFFFFFFFFFFFFFFFFFFFFF AND PUSH1 0x40 MLOAD PUSH2 0x25C9 SWAP2 SWAP1 PUSH2 0x33C1 JUMP JUMPDEST PUSH1 0x40 MLOAD DUP1 SWAP2 SUB SWAP1 LOG1 JUMPDEST POP POP POP POP JUMP JUMPDEST DUP1 PUSH1 0x1 ISZERO ISZERO PUSH0 DUP1 DUP4 PUSH20 0xFFFFFFFFFFFFFFFFFFFFFFFFFFFFFFFFFFFFFFFF AND PUSH20 0xFFFFFFFFFFFFFFFFFFFFFFFFFFFFFFFFFFFFFFFF AND DUP2 MSTORE PUSH1 0x20 ADD SWAP1 DUP2 MSTORE PUSH1 0x20 ADD PUSH0 KECCAK256 PUSH1 0x3 ADD PUSH0 SWAP1 SLOAD SWAP1 PUSH2 0x100 EXP SWAP1 DIV PUSH1 0xFF AND ISZERO ISZERO EQ PUSH2 0x266B JUMPI PUSH1 0x40 MLOAD PUSH32 0x8C379A000000000000000000000000000000000000000000000000000000000 DUP2 MSTORE PUSH1 0x4 ADD PUSH2 0x2662 SWAP1 PUSH2 0x2E7F JUMP JUMPDEST PUSH1 0x40 MLOAD DUP1 SWAP2 SUB SWAP1 REVERT JUMPDEST DUP2 PUSH0 DUP1 DUP3 PUSH20 0xFFFFFFFFFFFFFFFFFFFFFFFFFFFFFFFFFFFFFFFF AND PUSH20 0xFFFFFFFFFFFFFFFFFFFFFFFFFFFFFFFFFFFFFFFF AND DUP2 MSTORE PUSH1 0x20 ADD SWAP1 DUP2 MSTORE PUSH1 0x20 ADD PUSH0 KECCAK256 PUSH1 0x3 ADD PUSH1 0x2 SWAP1 SLOAD SWAP1 PUSH2 0x100 EXP SWAP1 DIV PUSH1 0xFF AND ISZERO PUSH2 0x26F9 JUMPI PUSH1 0x40 MLOAD PUSH32 0x8C379A000000000000000000000000000000000000000000000000000000000 DUP2 MSTORE PUSH1 0x4 ADD PUSH2 0x26F0 SWAP1 PUSH2 0x2F9C JUMP JUMPDEST PUSH1 0x40 MLOAD DUP1 SWAP2 SUB SWAP1 REVERT JUMPDEST PUSH0 PUSH1 0x1 PUSH0 DUP6 PUSH20 0xFFFFFFFFFFFFFFFFFFFFFFFFFFFFFFFFFFFFFFFF AND PUSH20 0xFFFFFFFFFFFFFFFFFFFFFFFFFFFFFFFFFFFFFFFF AND DUP2 MSTORE PUSH1 0x20 ADD SWAP1 DUP2 MSTORE PUSH1 0x20 ADD PUSH0 KECCAK256 SWAP1 POP PUSH0 DUP1 PUSH0 DUP7 PUSH20 0xFFFFFFFFFFFFFFFFFFFFFFFFFFFFFFFFFFFFFFFF AND PUSH20 0xFFFFFFFFFFFFFFFFFFFFFFFFFFFFFFFFFFFFFFFF AND DUP2 MSTORE PUSH1 0x20 ADD SWAP1 DUP2 MSTORE PUSH1 0x20 ADD PUSH0 KECCAK256 SWAP1 POP PUSH0 DUP3 PUSH0 ADD DUP1 SLOAD SWAP1 POP SWAP1 POP PUSH0 PUSH1 0x2 PUSH1 0x1 DUP4 PUSH2 0x2792 SWAP2 SWAP1 PUSH2 0x33DA JUMP JUMPDEST PUSH2 0x279C SWAP2 SWAP1 PUSH2 0x343A JUMP JUMPDEST SWAP1 POP DUP1 DUP5 PUSH1 0x3 ADD SLOAD LT PUSH2 0x2952 JUMPI PUSH1 0x1 PUSH0 DUP1 DUP6 PUSH0 ADD PUSH0 SWAP1 SLOAD SWAP1 PUSH2 0x100 EXP SWAP1 DIV PUSH20 0xFFFFFFFFFFFFFFFFFFFFFFFFFFFFFFFFFFFFFFFF AND PUSH20 0xFFFFFFFFFFFFFFFFFFFFFFFFFFFFFFFFFFFFFFFF AND PUSH20 0xFFFFFFFFFFFFFFFFFFFFFFFFFFFFFFFFFFFFFFFF AND DUP2 MSTORE PUSH1 0x20 ADD SWAP1 DUP2 MSTORE PUSH1 0x20 ADD PUSH0 KECCAK256 PUSH1 0x3 ADD PUSH1 0x1 PUSH2 0x100 EXP DUP2 SLOAD DUP2 PUSH1 0xFF MUL NOT AND SWAP1 DUP4 ISZERO ISZERO MUL OR SWAP1 SSTORE POP PUSH1 0x1 PUSH0 DUP1 DUP6 PUSH1 0x1 ADD PUSH0 SWAP1 SLOAD SWAP1 PUSH2 0x100 EXP SWAP1 DIV PUSH20 0xFFFFFFFFFFFFFFFFFFFFFFFFFFFFFFFFFFFFFFFF AND PUSH20 0xFFFFFFFFFFFFFFFFFFFFFFFFFFFFFFFFFFFFFFFF AND PUSH20 0xFFFFFFFFFFFFFFFFFFFFFFFFFFFFFFFFFFFFFFFF AND DUP2 MSTORE PUSH1 0x20 ADD SWAP1 DUP2 MSTORE PUSH1 0x20 ADD PUSH0 KECCAK256 PUSH1 0x3 ADD PUSH1 0x1 PUSH2 0x100 EXP DUP2 SLOAD DUP2 PUSH1 0xFF MUL NOT AND SWAP1 DUP4 ISZERO ISZERO MUL OR SWAP1 SSTORE POP PUSH32 0xCA5145A860413368885BD057FA646C0895A34D43C6F7C897FC1954CF51C33045 DUP4 PUSH0 ADD PUSH0 SWAP1 SLOAD SWAP1 PUSH2 0x100 EXP SWAP1 DIV PUSH20 0xFFFFFFFFFFFFFFFFFFFFFFFFFFFFFFFFFFFFFFFF AND PUSH1 0x40 MLOAD PUSH2 0x28EF SWAP2 SWAP1 PUSH2 0x33C1 JUMP JUMPDEST PUSH1 0x40 MLOAD DUP1 SWAP2 SUB SWAP1 LOG1 PUSH32 0xCA5145A860413368885BD057FA646C0895A34D43C6F7C897FC1954CF51C33045 DUP4 PUSH1 0x1 ADD PUSH0 SWAP1 SLOAD SWAP1 PUSH2 0x100 EXP SWAP1 DIV PUSH20 0xFFFFFFFFFFFFFFFFFFFFFFFFFFFFFFFFFFFFFFFF AND PUSH1 0x40 MLOAD PUSH2 0x2949 SWAP2 SWAP1 PUSH2 0x33C1 JUMP JUMPDEST PUSH1 0x40 MLOAD DUP1 SWAP2 SUB SWAP1 LOG1 JUMPDEST POP POP POP POP POP POP POP JUMP JUMPDEST DUP3 DUP1 SLOAD DUP3 DUP3 SSTORE SWAP1 PUSH0 MSTORE PUSH1 0x20 PUSH0 KECCAK256 SWAP1 DUP2 ADD SWAP3 DUP3 ISZERO PUSH2 0x29E7 JUMPI SWAP2 PUSH1 0x20 MUL DUP3 ADD JUMPDEST DUP3 DUP2 GT ISZERO PUSH2 0x29E6 JUMPI DUP3 CALLDATALOAD PUSH20 0xFFFFFFFFFFFFFFFFFFFFFFFFFFFFFFFFFFFFFFFF AND DUP3 PUSH0 PUSH2 0x100 EXP DUP2 SLOAD DUP2 PUSH20 0xFFFFFFFFFFFFFFFFFFFFFFFFFFFFFFFFFFFFFFFF MUL NOT AND SWAP1 DUP4 PUSH20 0xFFFFFFFFFFFFFFFFFFFFFFFFFFFFFFFFFFFFFFFF AND MUL OR SWAP1 SSTORE POP SWAP2 PUSH1 0x20 ADD SWAP2 SWAP1 PUSH1 0x1 ADD SWAP1 PUSH2 0x2979 JUMP JUMPDEST JUMPDEST POP SWAP1 POP PUSH2 0x29F4 SWAP2 SWAP1 PUSH2 0x29F8 JUMP JUMPDEST POP SWAP1 JUMP JUMPDEST JUMPDEST DUP1 DUP3 GT ISZERO PUSH2 0x2A0F JUMPI PUSH0 DUP2 PUSH0 SWAP1 SSTORE POP PUSH1 0x1 ADD PUSH2 0x29F9 JUMP JUMPDEST POP SWAP1 JUMP JUMPDEST PUSH0 DUP1 REVERT JUMPDEST PUSH0 DUP1 REVERT JUMPDEST PUSH0 PUSH20 0xFFFFFFFFFFFFFFFFFFFFFFFFFFFFFFFFFFFFFFFF DUP3 AND SWAP1 POP SWAP2 SWAP1 POP JUMP JUMPDEST PUSH0 PUSH2 0x2A44 DUP3 PUSH2 0x2A1B JUMP JUMPDEST SWAP1 POP SWAP2 SWAP1 POP JUMP JUMPDEST PUSH2 0x2A54 DUP2 PUSH2 0x2A3A JUMP JUMPDEST DUP2 EQ PUSH2 0x2A5E JUMPI PUSH0 DUP1 REVERT JUMPDEST POP JUMP JUMPDEST PUSH0 DUP2 CALLDATALOAD SWAP1 POP PUSH2 0x2A6F DUP2 PUSH2 0x2A4B JUMP JUMPDEST SWAP3 SWAP2 POP POP JUMP JUMPDEST PUSH0 PUSH1 0x20 DUP3 DUP5 SUB SLT ISZERO PUSH2 0x2A8A JUMPI PUSH2 0x2A89 PUSH2 0x2A13 JUMP JUMPDEST JUMPDEST PUSH0 PUSH2 0x2A97 DUP5 DUP3 DUP6 ADD PUSH2 0x2A61 JUMP JUMPDEST SWAP2 POP POP SWAP3 SWAP2 POP POP JUMP JUMPDEST PUSH0 DUP2 ISZERO ISZERO SWAP1 POP SWAP2 SWAP1 POP JUMP JUMPDEST PUSH2 0x2AB4 DUP2 PUSH2 0x2AA0 JUMP JUMPDEST DUP3 MSTORE POP POP JUMP JUMPDEST PUSH0 DUP2 SWAP1 POP SWAP2 SWAP1 POP JUMP JUMPDEST PUSH2 0x2ACC DUP2 PUSH2 0x2ABA JUMP JUMPDEST DUP3 MSTORE POP POP JUMP JUMPDEST PUSH0 PUSH1 0x60 DUP3 ADD SWAP1 POP PUSH2 0x2AE5 PUSH0 DUP4 ADD DUP7 PUSH2 0x2AAB JUMP JUMPDEST PUSH2 0x2AF2 PUSH1 0x20 DUP4 ADD DUP6 PUSH2 0x2AAB JUMP JUMPDEST PUSH2 0x2AFF PUSH1 0x40 DUP4 ADD DUP5 PUSH2 0x2AC3 JUMP JUMPDEST SWAP5 SWAP4 POP POP POP POP JUMP JUMPDEST PUSH0 DUP2 MLOAD SWAP1 POP SWAP2 SWAP1 POP JUMP JUMPDEST PUSH0 DUP3 DUP3 MSTORE PUSH1 0x20 DUP3 ADD SWAP1 POP SWAP3 SWAP2 POP POP JUMP JUMPDEST PUSH0 DUP2 SWAP1 POP PUSH1 0x20 DUP3 ADD SWAP1 POP SWAP2 SWAP1 POP JUMP JUMPDEST PUSH2 0x2B39 DUP2 PUSH2 0x2A3A JUMP JUMPDEST DUP3 MSTORE POP POP JUMP JUMPDEST PUSH0 PUSH2 0x2B4A DUP4 DUP4 PUSH2 0x2B30 JUMP JUMPDEST PUSH1 0x20 DUP4 ADD SWAP1 POP SWAP3 SWAP2 POP POP JUMP JUMPDEST PUSH0 PUSH1 0x20 DUP3 ADD SWAP1 POP SWAP2 SWAP1 POP JUMP JUMPDEST PUSH0 PUSH2 0x2B6C DUP3 PUSH2 0x2B07 JUMP JUMPDEST PUSH2 0x2B76 DUP2 DUP6 PUSH2 0x2B11 JUMP JUMPDEST SWAP4 POP PUSH2 0x2B81 DUP4 PUSH2 0x2B21 JUMP JUMPDEST DUP1 PUSH0 JUMPDEST DUP4 DUP2 LT ISZERO PUSH2 0x2BB1 JUMPI DUP2 MLOAD PUSH2 0x2B98 DUP9 DUP3 PUSH2 0x2B3F JUMP JUMPDEST SWAP8 POP PUSH2 0x2BA3 DUP4 PUSH2 0x2B56 JUMP JUMPDEST SWAP3 POP POP PUSH1 0x1 DUP2 ADD SWAP1 POP PUSH2 0x2B84 JUMP JUMPDEST POP DUP6 SWAP4 POP POP POP POP SWAP3 SWAP2 POP POP JUMP JUMPDEST PUSH0 PUSH1 0x20 DUP3 ADD SWAP1 POP DUP2 DUP2 SUB PUSH0 DUP4 ADD MSTORE PUSH2 0x2BD6 DUP2 DUP5 PUSH2 0x2B62 JUMP JUMPDEST SWAP1 POP SWAP3 SWAP2 POP POP JUMP JUMPDEST PUSH0 DUP1 REVERT JUMPDEST PUSH0 DUP1 REVERT JUMPDEST PUSH0 DUP1 REVERT JUMPDEST PUSH0 DUP1 DUP4 PUSH1 0x1F DUP5 ADD SLT PUSH2 0x2BFF JUMPI PUSH2 0x2BFE PUSH2 0x2BDE JUMP JUMPDEST JUMPDEST DUP3 CALLDATALOAD SWAP1 POP PUSH8 0xFFFFFFFFFFFFFFFF DUP2 GT ISZERO PUSH2 0x2C1C JUMPI PUSH2 0x2C1B PUSH2 0x2BE2 JUMP JUMPDEST JUMPDEST PUSH1 0x20 DUP4 ADD SWAP2 POP DUP4 PUSH1 0x20 DUP3 MUL DUP4 ADD GT ISZERO PUSH2 0x2C38 JUMPI PUSH2 0x2C37 PUSH2 0x2BE6 JUMP JUMPDEST JUMPDEST SWAP3 POP SWAP3 SWAP1 POP JUMP JUMPDEST PUSH0 DUP1 PUSH1 0x20 DUP4 DUP6 SUB SLT ISZERO PUSH2 0x2C55 JUMPI PUSH2 0x2C54 PUSH2 0x2A13 JUMP JUMPDEST JUMPDEST PUSH0 DUP4 ADD CALLDATALOAD PUSH8 0xFFFFFFFFFFFFFFFF DUP2 GT ISZERO PUSH2 0x2C72 JUMPI PUSH2 0x2C71 PUSH2 0x2A17 JUMP JUMPDEST JUMPDEST PUSH2 0x2C7E DUP6 DUP3 DUP7 ADD PUSH2 0x2BEA JUMP JUMPDEST SWAP3 POP SWAP3 POP POP SWAP3 POP SWAP3 SWAP1 POP JUMP JUMPDEST PUSH2 0x2C93 DUP2 PUSH2 0x2ABA JUMP JUMPDEST DUP2 EQ PUSH2 0x2C9D JUMPI PUSH0 DUP1 REVERT JUMPDEST POP JUMP JUMPDEST PUSH0 DUP2 CALLDATALOAD SWAP1 POP PUSH2 0x2CAE DUP2 PUSH2 0x2C8A JUMP JUMPDEST SWAP3 SWAP2 POP POP JUMP JUMPDEST PUSH0 DUP1 PUSH1 0x40 DUP4 DUP6 SUB SLT ISZERO PUSH2 0x2CCA JUMPI PUSH2 0x2CC9 PUSH2 0x2A13 JUMP JUMPDEST JUMPDEST PUSH0 PUSH2 0x2CD7 DUP6 DUP3 DUP7 ADD PUSH2 0x2A61 JUMP JUMPDEST SWAP3 POP POP PUSH1 0x20 PUSH2 0x2CE8 DUP6 DUP3 DUP7 ADD PUSH2 0x2CA0 JUMP JUMPDEST SWAP2 POP POP SWAP3 POP SWAP3 SWAP1 POP JUMP JUMPDEST PUSH0 DUP1 PUSH1 0x40 DUP4 DUP6 SUB SLT ISZERO PUSH2 0x2D08 JUMPI PUSH2 0x2D07 PUSH2 0x2A13 JUMP JUMPDEST JUMPDEST PUSH0 PUSH2 0x2D15 DUP6 DUP3 DUP7 ADD PUSH2 0x2A61 JUMP JUMPDEST SWAP3 POP POP PUSH1 0x20 PUSH2 0x2D26 DUP6 DUP3 DUP7 ADD PUSH2 0x2A61 JUMP JUMPDEST SWAP2 POP POP SWAP3 POP SWAP3 SWAP1 POP JUMP JUMPDEST PUSH0 PUSH1 0x20 DUP3 ADD SWAP1 POP PUSH2 0x2D43 PUSH0 DUP4 ADD DUP5 PUSH2 0x2AAB JUMP JUMPDEST SWAP3 SWAP2 POP POP JUMP JUMPDEST PUSH2 0x2D52 DUP2 PUSH2 0x2A3A JUMP JUMPDEST DUP3 MSTORE POP POP JUMP JUMPDEST PUSH0 PUSH2 0x100 DUP3 ADD SWAP1 POP PUSH2 0x2D6C PUSH0 DUP4 ADD DUP12 PUSH2 0x2D49 JUMP JUMPDEST PUSH2 0x2D79 PUSH1 0x20 DUP4 ADD DUP11 PUSH2 0x2D49 JUMP JUMPDEST PUSH2 0x2D86 PUSH1 0x40 DUP4 ADD DUP10 PUSH2 0x2AC3 JUMP JUMPDEST PUSH2 0x2D93 PUSH1 0x60 DUP4 ADD DUP9 PUSH2 0x2AAB JUMP JUMPDEST PUSH2 0x2DA0 PUSH1 0x80 DUP4 ADD DUP8 PUSH2 0x2AAB JUMP JUMPDEST PUSH2 0x2DAD PUSH1 0xA0 DUP4 ADD DUP7 PUSH2 0x2AAB JUMP JUMPDEST PUSH2 0x2DBA PUSH1 0xC0 DUP4 ADD DUP6 PUSH2 0x2AAB JUMP JUMPDEST PUSH2 0x2DC7 PUSH1 0xE0 DUP4 ADD DUP5 PUSH2 0x2AAB JUMP JUMPDEST SWAP10 SWAP9 POP POP POP POP POP POP POP POP POP JUMP JUMPDEST PUSH0 PUSH1 0xA0 DUP3 ADD SWAP1 POP PUSH2 0x2DE7 PUSH0 DUP4 ADD DUP9 PUSH2 0x2D49 JUMP JUMPDEST PUSH2 0x2DF4 PUSH1 0x20 DUP4 ADD DUP8 PUSH2 0x2D49 JUMP JUMPDEST PUSH2 0x2E01 PUSH1 0x40 DUP4 ADD DUP7 PUSH2 0x2AC3 JUMP JUMPDEST PUSH2 0x2E0E PUSH1 0x60 DUP4 ADD DUP6 PUSH2 0x2AAB JUMP JUMPDEST PUSH2 0x2E1B PUSH1 0x80 DUP4 ADD DUP5 PUSH2 0x2AAB JUMP JUMPDEST SWAP7 SWAP6 POP POP POP POP POP POP JUMP JUMPDEST PUSH0 DUP3 DUP3 MSTORE PUSH1 0x20 DUP3 ADD SWAP1 POP SWAP3 SWAP2 POP POP JUMP JUMPDEST PUSH32 0x41646472657373206E6F7420656E67616765642E000000000000000000000000 PUSH0 DUP3 ADD MSTORE POP JUMP JUMPDEST PUSH0 PUSH2 0x2E69 PUSH1 0x14 DUP4 PUSH2 0x2E25 JUMP JUMPDEST SWAP2 POP PUSH2 0x2E74 DUP3 PUSH2 0x2E35 JUMP JUMPDEST PUSH1 0x20 DUP3 ADD SWAP1 POP SWAP2 SWAP1 POP JUMP JUMPDEST PUSH0 PUSH1 0x20 DUP3 ADD SWAP1 POP DUP2 DUP2 SUB PUSH0 DUP4 ADD MSTORE PUSH2 0x2E96 DUP2 PUSH2 0x2E5D JUMP JUMPDEST SWAP1 POP SWAP2 SWAP1 POP JUMP JUMPDEST PUSH32 0x54686520656E676167656D656E7420697320616C7265616479207265766F6B65 PUSH0 DUP3 ADD MSTORE PUSH32 0x642E000000000000000000000000000000000000000000000000000000000000 PUSH1 0x20 DUP3 ADD MSTORE POP JUMP JUMPDEST PUSH0 PUSH2 0x2EF7 PUSH1 0x22 DUP4 PUSH2 0x2E25 JUMP JUMPDEST SWAP2 POP PUSH2 0x2F02 DUP3 PUSH2 0x2E9D JUMP JUMPDEST PUSH1 0x40 DUP3 ADD SWAP1 POP SWAP2 SWAP1 POP JUMP JUMPDEST PUSH0 PUSH1 0x20 DUP3 ADD SWAP1 POP DUP2 DUP2 SUB PUSH0 DUP4 ADD MSTORE PUSH2 0x2F24 DUP2 PUSH2 0x2EEB JUMP JUMPDEST SWAP1 POP SWAP2 SWAP1 POP JUMP JUMPDEST PUSH0 PUSH1 0x40 DUP3 ADD SWAP1 POP PUSH2 0x2F3E PUSH0 DUP4 ADD DUP6 PUSH2 0x2D49 JUMP JUMPDEST PUSH2 0x2F4B PUSH1 0x20 DUP4 ADD DUP5 PUSH2 0x2AC3 JUMP JUMPDEST SWAP4 SWAP3 POP POP POP JUMP JUMPDEST PUSH32 0x416C7265616479206D6172726965640000000000000000000000000000000000 PUSH0 DUP3 ADD MSTORE POP JUMP JUMPDEST PUSH0 PUSH2 0x2F86 PUSH1 0xF DUP4 PUSH2 0x2E25 JUMP JUMPDEST SWAP2 POP PUSH2 0x2F91 DUP3 PUSH2 0x2F52 JUMP JUMPDEST PUSH1 0x20 DUP3 ADD SWAP1 POP SWAP2 SWAP1 POP JUMP JUMPDEST PUSH0 PUSH1 0x20 DUP3 ADD SWAP1 POP DUP2 DUP2 SUB PUSH0 DUP4 ADD MSTORE PUSH2 0x2FB3 DUP2 PUSH2 0x2F7A JUMP JUMPDEST SWAP1 POP SWAP2 SWAP1 POP JUMP JUMPDEST PUSH0 PUSH1 0x40 DUP3 ADD SWAP1 POP PUSH2 0x2FCD PUSH0 DUP4 ADD DUP6 PUSH2 0x2D49 JUMP JUMPDEST PUSH2 0x2FDA PUSH1 0x20 DUP4 ADD DUP5 PUSH2 0x2D49 JUMP JUMPDEST SWAP4 SWAP3 POP POP POP JUMP JUMPDEST PUSH32 0x43616C6C6572206D757374206265206F6E65206F662074686520656E67616765 PUSH0 DUP3 ADD MSTORE PUSH32 0x6420706172746965730000000000000000000000000000000000000000000000 PUSH1 0x20 DUP3 ADD MSTORE POP JUMP JUMPDEST PUSH0 PUSH2 0x303B PUSH1 0x29 DUP4 PUSH2 0x2E25 JUMP JUMPDEST SWAP2 POP PUSH2 0x3046 DUP3 PUSH2 0x2FE1 JUMP JUMPDEST PUSH1 0x40 DUP3 ADD SWAP1 POP SWAP2 SWAP1 POP JUMP JUMPDEST PUSH0 PUSH1 0x20 DUP3 ADD SWAP1 POP DUP2 DUP2 SUB PUSH0 DUP4 ADD MSTORE PUSH2 0x3068 DUP2 PUSH2 0x302F JUMP JUMPDEST SWAP1 POP SWAP2 SWAP1 POP JUMP JUMPDEST PUSH0 DUP2 SWAP1 POP SWAP2 SWAP1 POP JUMP JUMPDEST PUSH0 PUSH2 0x3086 PUSH1 0x20 DUP5 ADD DUP5 PUSH2 0x2A61 JUMP JUMPDEST SWAP1 POP SWAP3 SWAP2 POP POP JUMP JUMPDEST PUSH0 PUSH1 0x20 DUP3 ADD SWAP1 POP SWAP2 SWAP1 POP JUMP JUMPDEST PUSH0 PUSH2 0x30A5 DUP4 DUP6 PUSH2 0x2B11 JUMP JUMPDEST SWAP4 POP PUSH2 0x30B0 DUP3 PUSH2 0x306F JUMP JUMPDEST DUP1 PUSH0 JUMPDEST DUP6 DUP2 LT ISZERO PUSH2 0x30E8 JUMPI PUSH2 0x30C5 DUP3 DUP5 PUSH2 0x3078 JUMP JUMPDEST PUSH2 0x30CF DUP9 DUP3 PUSH2 0x2B3F JUMP JUMPDEST SWAP8 POP PUSH2 0x30DA DUP4 PUSH2 0x308E JUMP JUMPDEST SWAP3 POP POP PUSH1 0x1 DUP2 ADD SWAP1 POP PUSH2 0x30B3 JUMP JUMPDEST POP DUP6 SWAP3 POP POP POP SWAP4 SWAP3 POP POP POP JUMP JUMPDEST PUSH0 PUSH1 0x40 DUP3 ADD SWAP1 POP PUSH2 0x3108 PUSH0 DUP4 ADD DUP7 PUSH2 0x2D49 JUMP JUMPDEST DUP2 DUP2 SUB PUSH1 0x20 DUP4 ADD MSTORE PUSH2 0x311B DUP2 DUP5 DUP7 PUSH2 0x309A JUMP JUMPDEST SWAP1 POP SWAP5 SWAP4 POP POP POP POP JUMP JUMPDEST PUSH32 0x4F6E65206F7220626F7468206F66207468652073706F75736573206172652061 PUSH0 DUP3 ADD MSTORE PUSH32 0x6C726561647920656E67616765642E2000000000000000000000000000000000 PUSH1 0x20 DUP3 ADD MSTORE POP JUMP JUMPDEST PUSH0 PUSH2 0x317F PUSH1 0x30 DUP4 PUSH2 0x2E25 JUMP JUMPDEST SWAP2 POP PUSH2 0x318A DUP3 PUSH2 0x3125 JUMP JUMPDEST PUSH1 0x40 DUP3 ADD SWAP1 POP SWAP2 SWAP1 POP JUMP JUMPDEST PUSH0 PUSH1 0x20 DUP3 ADD SWAP1 POP DUP2 DUP2 SUB PUSH0 DUP4 ADD MSTORE PUSH2 0x31AC DUP2 PUSH2 0x3173 JUMP JUMPDEST SWAP1 POP SWAP2 SWAP1 POP JUMP JUMPDEST PUSH32 0x43616E6E6F7420656E6761676520746F206F6E6573656C660000000000000000 PUSH0 DUP3 ADD MSTORE POP JUMP JUMPDEST PUSH0 PUSH2 0x31E7 PUSH1 0x18 DUP4 PUSH2 0x2E25 JUMP JUMPDEST SWAP2 POP PUSH2 0x31F2 DUP3 PUSH2 0x31B3 JUMP JUMPDEST PUSH1 0x20 DUP3 ADD SWAP1 POP SWAP2 SWAP1 POP JUMP JUMPDEST PUSH0 PUSH1 0x20 DUP3 ADD SWAP1 POP DUP2 DUP2 SUB PUSH0 DUP4 ADD MSTORE PUSH2 0x3214 DUP2 PUSH2 0x31DB JUMP JUMPDEST SWAP1 POP SWAP2 SWAP1 POP JUMP JUMPDEST PUSH0 PUSH1 0x60 DUP3 ADD SWAP1 POP PUSH2 0x322E PUSH0 DUP4 ADD DUP7 PUSH2 0x2D49 JUMP JUMPDEST PUSH2 0x323B PUSH1 0x20 DUP4 ADD DUP6 PUSH2 0x2D49 JUMP JUMPDEST PUSH2 0x3248 PUSH1 0x40 DUP4 ADD DUP5 PUSH2 0x2AC3 JUMP JUMPDEST SWAP5 SWAP4 POP POP POP POP JUMP JUMPDEST PUSH32 0x4E487B7100000000000000000000000000000000000000000000000000000000 PUSH0 MSTORE PUSH1 0x32 PUSH1 0x4 MSTORE PUSH1 0x24 PUSH0 REVERT JUMPDEST PUSH32 0x4E487B7100000000000000000000000000000000000000000000000000000000 PUSH0 MSTORE PUSH1 0x11 PUSH1 0x4 MSTORE PUSH1 0x24 PUSH0 REVERT JUMPDEST PUSH0 PUSH2 0x32B4 DUP3 PUSH2 0x2ABA JUMP JUMPDEST SWAP2 POP PUSH32 0xFFFFFFFFFFFFFFFFFFFFFFFFFFFFFFFFFFFFFFFFFFFFFFFFFFFFFFFFFFFFFFFF DUP3 SUB PUSH2 0x32E6 JUMPI PUSH2 0x32E5 PUSH2 0x327D JUMP JUMPDEST JUMPDEST PUSH1 0x1 DUP3 ADD SWAP1 POP SWAP2 SWAP1 POP JUMP JUMPDEST PUSH32 0x4E6F74206120636F6E6669726D65642067756573740000000000000000000000 PUSH0 DUP3 ADD MSTORE POP JUMP JUMPDEST PUSH0 PUSH2 0x3325 PUSH1 0x15 DUP4 PUSH2 0x2E25 JUMP JUMPDEST SWAP2 POP PUSH2 0x3330 DUP3 PUSH2 0x32F1 JUMP JUMPDEST PUSH1 0x20 DUP3 ADD SWAP1 POP SWAP2 SWAP1 POP JUMP JUMPDEST PUSH0 PUSH1 0x20 DUP3 ADD SWAP1 POP DUP2 DUP2 SUB PUSH0 DUP4 ADD MSTORE PUSH2 0x3352 DUP2 PUSH2 0x3319 JUMP JUMPDEST SWAP1 POP SWAP2 SWAP1 POP JUMP JUMPDEST PUSH32 0x416C726561647920766F74656400000000000000000000000000000000000000 PUSH0 DUP3 ADD MSTORE POP JUMP JUMPDEST PUSH0 PUSH2 0x338D PUSH1 0xD DUP4 PUSH2 0x2E25 JUMP JUMPDEST SWAP2 POP PUSH2 0x3398 DUP3 PUSH2 0x3359 JUMP JUMPDEST PUSH1 0x20 DUP3 ADD SWAP1 POP SWAP2 SWAP1 POP JUMP JUMPDEST PUSH0 PUSH1 0x20 DUP3 ADD SWAP1 POP DUP2 DUP2 SUB PUSH0 DUP4 ADD MSTORE PUSH2 0x33BA DUP2 PUSH2 0x3381 JUMP JUMPDEST SWAP1 POP SWAP2 SWAP1 POP JUMP JUMPDEST PUSH0 PUSH1 0x20 DUP3 ADD SWAP1 POP PUSH2 0x33D4 PUSH0 DUP4 ADD DUP5 PUSH2 0x2D49 JUMP JUMPDEST SWAP3 SWAP2 POP POP JUMP JUMPDEST PUSH0 PUSH2 0x33E4 DUP3 PUSH2 0x2ABA JUMP JUMPDEST SWAP2 POP PUSH2 0x33EF DUP4 PUSH2 0x2ABA JUMP JUMPDEST SWAP3 POP DUP3 DUP3 ADD SWAP1 POP DUP1 DUP3 GT ISZERO PUSH2 0x3407 JUMPI PUSH2 0x3406 PUSH2 0x327D JUMP JUMPDEST JUMPDEST SWAP3 SWAP2 POP POP JUMP JUMPDEST PUSH32 0x4E487B7100000000000000000000000000000000000000000000000000000000 PUSH0 MSTORE PUSH1 0x12 PUSH1 0x4 MSTORE PUSH1 0x24 PUSH0 REVERT JUMPDEST PUSH0 PUSH2 0x3444 DUP3 PUSH2 0x2ABA JUMP JUMPDEST SWAP2 POP PUSH2 0x344F DUP4 PUSH2 0x2ABA JUMP JUMPDEST SWAP3 POP DUP3 PUSH2 0x345F JUMPI PUSH2 0x345E PUSH2 0x340D JUMP JUMPDEST JUMPDEST DUP3 DUP3 DIV SWAP1 POP SWAP3 SWAP2 POP POP JUMP INVALID LOG2 PUSH5 0x6970667358 0x22 SLT KECCAK256 DIV LOG0 0xBE 0x2C 0xCF PUSH17 0x6AB653CA3197D8E96D4E8E3F54DA122351 0x21 0xD4 PUSH27 0xA437EAF9734264736F6C6343000815003300000000000000000000 "
				},
				"gasEstimates": {
					"creation": {
						"codeDepositCost": "2694400",
						"executionCost": "2921",
						"totalCost": "2697321"
					},
					"external": {
						"confirmGuestList()": "87851",
						"engagements(address)": "infinite",
						"getEngagementInfo(address)": "infinite",
						"getGuestList(address)": "infinite",
						"guestLists(address)": "infinite",
						"isGuestConfirmed(address,address)": "infinite",
						"marry()": "infinite",
						"proposeGuestList(address[])": "infinite",
						"registerEngagement(address,uint256)": "infinite",
						"revokeEngagement()": "360834",
						"voteAgainstWedding(address)": "infinite"
					},
					"internal": {
						"_checkAndInvalidateWedding(address)": "infinite"
					}
				},
				"methodIdentifiers": {
					"confirmGuestList()": "e83dc185",
					"engagements(address)": "a22690a8",
					"getEngagementInfo(address)": "b95afe03",
					"getGuestList(address)": "5dd4e938",
					"guestLists(address)": "2b80fa28",
					"isGuestConfirmed(address,address)": "9dcaf479",
					"marry()": "85b9a11f",
					"proposeGuestList(address[])": "90106c5e",
					"registerEngagement(address,uint256)": "987e9533",
					"revokeEngagement()": "6d955eb5",
					"voteAgainstWedding(address)": "a1905e4e"
				}
			},
			"storageLayout": {
				"storage": [
					{
						"astId": 37,
						"contract": "contracts/Wedding.sol:EngagementRegistry",
						"label": "engagements",
						"offset": 0,
						"slot": "0",
						"type": "t_mapping(t_address,t_struct(Engagement)18_storage)"
					},
					{
						"astId": 42,
						"contract": "contracts/Wedding.sol:EngagementRegistry",
						"label": "guestLists",
						"offset": 0,
						"slot": "1",
						"type": "t_mapping(t_address,t_struct(GuestList)32_storage)"
					}
				],
				"types": {
					"t_address": {
						"encoding": "inplace",
						"label": "address",
						"numberOfBytes": "20"
					},
					"t_array(t_address)dyn_storage": {
						"base": "t_address",
						"encoding": "dynamic_array",
						"label": "address[]",
						"numberOfBytes": "32"
					},
					"t_bool": {
						"encoding": "inplace",
						"label": "bool",
						"numberOfBytes": "1"
					},
					"t_mapping(t_address,t_bool)": {
						"encoding": "mapping",
						"key": "t_address",
						"label": "mapping(address => bool)",
						"numberOfBytes": "32",
						"value": "t_bool"
					},
					"t_mapping(t_address,t_struct(Engagement)18_storage)": {
						"encoding": "mapping",
						"key": "t_address",
						"label": "mapping(address => struct EngagementRegistry.Engagement)",
						"numberOfBytes": "32",
						"value": "t_struct(Engagement)18_storage"
					},
					"t_mapping(t_address,t_struct(GuestList)32_storage)": {
						"encoding": "mapping",
						"key": "t_address",
						"label": "mapping(address => struct EngagementRegistry.GuestList)",
						"numberOfBytes": "32",
						"value": "t_struct(GuestList)32_storage"
					},
					"t_struct(Engagement)18_storage": {
						"encoding": "inplace",
						"label": "struct EngagementRegistry.Engagement",
						"members": [
							{
								"astId": 3,
								"contract": "contracts/Wedding.sol:EngagementRegistry",
								"label": "spouse1",
								"offset": 0,
								"slot": "0",
								"type": "t_address"
							},
							{
								"astId": 5,
								"contract": "contracts/Wedding.sol:EngagementRegistry",
								"label": "spouse2",
								"offset": 0,
								"slot": "1",
								"type": "t_address"
							},
							{
								"astId": 7,
								"contract": "contracts/Wedding.sol:EngagementRegistry",
								"label": "weddingDate",
								"offset": 0,
								"slot": "2",
								"type": "t_uint256"
							},
							{
								"astId": 9,
								"contract": "contracts/Wedding.sol:EngagementRegistry",
								"label": "isEngaged",
								"offset": 0,
								"slot": "3",
								"type": "t_bool"
							},
							{
								"astId": 11,
								"contract": "contracts/Wedding.sol:EngagementRegistry",
								"label": "isRevoked",
								"offset": 1,
								"slot": "3",
								"type": "t_bool"
							},
							{
								"astId": 13,
								"contract": "contracts/Wedding.sol:EngagementRegistry",
								"label": "isMarried",
								"offset": 2,
								"slot": "3",
								"type": "t_bool"
							},
							{
								"astId": 15,
								"contract": "contracts/Wedding.sol:EngagementRegistry",
								"label": "spouse1ConfirmedMarriage",
								"offset": 3,
								"slot": "3",
								"type": "t_bool"
							},
							{
								"astId": 17,
								"contract": "contracts/Wedding.sol:EngagementRegistry",
								"label": "spouse2ConfirmedMarriage",
								"offset": 4,
								"slot": "3",
								"type": "t_bool"
							}
						],
						"numberOfBytes": "128"
					},
					"t_struct(GuestList)32_storage": {
						"encoding": "inplace",
						"label": "struct EngagementRegistry.GuestList",
						"members": [
							{
								"astId": 21,
								"contract": "contracts/Wedding.sol:EngagementRegistry",
								"label": "proposedGuests",
								"offset": 0,
								"slot": "0",
								"type": "t_array(t_address)dyn_storage"
							},
							{
								"astId": 23,
								"contract": "contracts/Wedding.sol:EngagementRegistry",
								"label": "spouse1Confirmed",
								"offset": 0,
								"slot": "1",
								"type": "t_bool"
							},
							{
								"astId": 25,
								"contract": "contracts/Wedding.sol:EngagementRegistry",
								"label": "spouse2Confirmed",
								"offset": 1,
								"slot": "1",
								"type": "t_bool"
							},
							{
								"astId": 29,
								"contract": "contracts/Wedding.sol:EngagementRegistry",
								"label": "hasVotedAgainst",
								"offset": 0,
								"slot": "2",
								"type": "t_mapping(t_address,t_bool)"
							},
							{
								"astId": 31,
								"contract": "contracts/Wedding.sol:EngagementRegistry",
								"label": "votesAgainst",
								"offset": 0,
								"slot": "3",
								"type": "t_uint256"
							}
						],
						"numberOfBytes": "128"
					},
					"t_uint256": {
						"encoding": "inplace",
						"label": "uint256",
						"numberOfBytes": "32"
					}
				}
			},
			"userdoc": {
				"kind": "user",
				"methods": {},
				"version": 1
			}
		}
	}
}