{
	"contracts/MyContract.sol": {
		"MyContract": {
			"abi": [
				{
					"inputs": [],
					"stateMutability": "nonpayable",
					"type": "constructor"
				},
				{
					"inputs": [
						{
							"internalType": "uint256",
							"name": "_id",
							"type": "uint256"
						},
						{
							"internalType": "string",
							"name": "_title",
							"type": "string"
						},
						{
							"internalType": "string",
							"name": "_author",
							"type": "string"
						}
					],
					"name": "addBook",
					"outputs": [],
					"stateMutability": "nonpayable",
					"type": "function"
				},
				{
					"inputs": [
						{
							"internalType": "uint256",
							"name": "_id",
							"type": "uint256"
						},
						{
							"internalType": "string",
							"name": "_name",
							"type": "string"
						},
						{
							"internalType": "string",
							"name": "_origin",
							"type": "string"
						}
					],
					"name": "addFruit",
					"outputs": [],
					"stateMutability": "nonpayable",
					"type": "function"
				},
				{
					"inputs": [
						{
							"internalType": "uint256",
							"name": "_id",
							"type": "uint256"
						},
						{
							"internalType": "uint256",
							"name": "_percent",
							"type": "uint256"
						},
						{
							"internalType": "string",
							"name": "_category",
							"type": "string"
						},
						{
							"internalType": "string",
							"name": "_brand",
							"type": "string"
						},
						{
							"internalType": "string",
							"name": "_name",
							"type": "string"
						}
					],
					"name": "addLiquor",
					"outputs": [],
					"stateMutability": "nonpayable",
					"type": "function"
				},
				{
					"inputs": [
						{
							"internalType": "uint256",
							"name": "_id",
							"type": "uint256"
						},
						{
							"internalType": "uint256",
							"name": "_percent",
							"type": "uint256"
						},
						{
							"internalType": "string",
							"name": "_category",
							"type": "string"
						},
						{
							"internalType": "string",
							"name": "_brand",
							"type": "string"
						},
						{
							"internalType": "string",
							"name": "_name",
							"type": "string"
						}
					],
					"name": "addMyLiquor",
					"outputs": [],
					"stateMutability": "nonpayable",
					"type": "function"
				},
				{
					"inputs": [
						{
							"internalType": "string",
							"name": "_value",
							"type": "string"
						}
					],
					"name": "addValue",
					"outputs": [],
					"stateMutability": "nonpayable",
					"type": "function"
				},
				{
					"inputs": [
						{
							"internalType": "uint256",
							"name": "",
							"type": "uint256"
						},
						{
							"internalType": "uint256",
							"name": "",
							"type": "uint256"
						}
					],
					"name": "array2D",
					"outputs": [
						{
							"internalType": "uint256",
							"name": "",
							"type": "uint256"
						}
					],
					"stateMutability": "view",
					"type": "function"
				},
				{
					"inputs": [
						{
							"internalType": "uint256",
							"name": "",
							"type": "uint256"
						}
					],
					"name": "books",
					"outputs": [
						{
							"internalType": "string",
							"name": "title",
							"type": "string"
						},
						{
							"internalType": "string",
							"name": "author",
							"type": "string"
						}
					],
					"stateMutability": "view",
					"type": "function"
				},
				{
					"inputs": [
						{
							"internalType": "uint256",
							"name": "",
							"type": "uint256"
						}
					],
					"name": "fruits",
					"outputs": [
						{
							"internalType": "string",
							"name": "name",
							"type": "string"
						},
						{
							"internalType": "string",
							"name": "origin",
							"type": "string"
						}
					],
					"stateMutability": "view",
					"type": "function"
				},
				{
					"inputs": [
						{
							"internalType": "uint256",
							"name": "",
							"type": "uint256"
						}
					],
					"name": "liquors",
					"outputs": [
						{
							"internalType": "uint256",
							"name": "percent",
							"type": "uint256"
						},
						{
							"internalType": "string",
							"name": "category",
							"type": "string"
						},
						{
							"internalType": "string",
							"name": "brand",
							"type": "string"
						},
						{
							"internalType": "string",
							"name": "name",
							"type": "string"
						}
					],
					"stateMutability": "view",
					"type": "function"
				},
				{
					"inputs": [],
					"name": "myBytes32",
					"outputs": [
						{
							"internalType": "bytes32",
							"name": "",
							"type": "bytes32"
						}
					],
					"stateMutability": "view",
					"type": "function"
				},
				{
					"inputs": [],
					"name": "myInt",
					"outputs": [
						{
							"internalType": "int256",
							"name": "",
							"type": "int256"
						}
					],
					"stateMutability": "view",
					"type": "function"
				},
				{
					"inputs": [
						{
							"internalType": "address",
							"name": "",
							"type": "address"
						},
						{
							"internalType": "uint256",
							"name": "",
							"type": "uint256"
						}
					],
					"name": "myLiquors",
					"outputs": [
						{
							"internalType": "uint256",
							"name": "percent",
							"type": "uint256"
						},
						{
							"internalType": "string",
							"name": "category",
							"type": "string"
						},
						{
							"internalType": "string",
							"name": "brand",
							"type": "string"
						},
						{
							"internalType": "string",
							"name": "name",
							"type": "string"
						}
					],
					"stateMutability": "view",
					"type": "function"
				},
				{
					"inputs": [],
					"name": "myString",
					"outputs": [
						{
							"internalType": "string",
							"name": "",
							"type": "string"
						}
					],
					"stateMutability": "view",
					"type": "function"
				},
				{
					"inputs": [],
					"name": "myStruct",
					"outputs": [
						{
							"internalType": "uint256",
							"name": "myUint256",
							"type": "uint256"
						},
						{
							"internalType": "string",
							"name": "myString",
							"type": "string"
						}
					],
					"stateMutability": "view",
					"type": "function"
				},
				{
					"inputs": [],
					"name": "myUint",
					"outputs": [
						{
							"internalType": "uint256",
							"name": "",
							"type": "uint256"
						}
					],
					"stateMutability": "view",
					"type": "function"
				},
				{
					"inputs": [],
					"name": "myUint256",
					"outputs": [
						{
							"internalType": "uint256",
							"name": "",
							"type": "uint256"
						}
					],
					"stateMutability": "view",
					"type": "function"
				},
				{
					"inputs": [],
					"name": "myUint8",
					"outputs": [
						{
							"internalType": "uint8",
							"name": "",
							"type": "uint8"
						}
					],
					"stateMutability": "view",
					"type": "function"
				},
				{
					"inputs": [
						{
							"internalType": "uint256",
							"name": "",
							"type": "uint256"
						}
					],
					"name": "stringArray",
					"outputs": [
						{
							"internalType": "string",
							"name": "",
							"type": "string"
						}
					],
					"stateMutability": "view",
					"type": "function"
				},
				{
					"inputs": [
						{
							"internalType": "uint256",
							"name": "",
							"type": "uint256"
						}
					],
					"name": "uintArray",
					"outputs": [
						{
							"internalType": "uint256",
							"name": "",
							"type": "uint256"
						}
					],
					"stateMutability": "view",
					"type": "function"
				},
				{
					"inputs": [],
					"name": "valueCount",
					"outputs": [
						{
							"internalType": "uint256",
							"name": "",
							"type": "uint256"
						}
					],
					"stateMutability": "view",
					"type": "function"
				},
				{
					"inputs": [
						{
							"internalType": "uint256",
							"name": "",
							"type": "uint256"
						}
					],
					"name": "values",
					"outputs": [
						{
							"internalType": "string",
							"name": "",
							"type": "string"
						}
					],
					"stateMutability": "view",
					"type": "function"
				}
			],
			"devdoc": {
				"kind": "dev",
				"methods": {},
				"version": 1
			},
			"evm": {
				"assembly": "    /* \"contracts/MyContract.sol\":57:3443  contract MyContract {... */\n  mstore(0x40, 0x80)\n    /* \"contracts/MyContract.sol\":173:174  1 */\n  0x01\n    /* \"contracts/MyContract.sol\":152:174  uint public myUint = 1 */\n  0x00\n  sstore\n    /* \"contracts/MyContract.sol\":199:200  1 */\n  0x01\n    /* \"contracts/MyContract.sol\":180:200  int public myInt = 1 */\n  dup1\n  sstore\n    /* \"contracts/MyContract.sol\":292:293  1 */\n  0x01\n    /* \"contracts/MyContract.sol\":265:293  uint256 public myUint256 = 1 */\n  0x02\n  sstore\n    /* \"contracts/MyContract.sol\":324:325  1 */\n  0x01\n    /* \"contracts/MyContract.sol\":301:325  uint8 public myUint8 = 1 */\n  0x03\n  exp(0x0100, 0x00)\n  dup2\n  sload\n  dup2\n  0xff\n  mul\n  not\n  and\n  swap1\n  dup4\n  0xff\n  and\n  mul\n  or\n  swap1\n  sstore\n  pop\n    /* \"contracts/MyContract.sol\":347:387  string public myString = \"Hello, World!\" */\n  mload(0x40)\n  dup1\n  0x40\n  add\n  0x40\n  mstore\n  dup1\n  0x0d\n  dup2\n  mstore\n  0x20\n  add\n  0x48656c6c6f2c20576f726c642100000000000000000000000000000000000000\n  dup2\n  mstore\n  pop\n  0x04\n  swap1\n  dup2\n  tag_1\n  swap2\n  swap1\n  tag_2\n  jump\t// in\ntag_1:\n  pop\n    /* \"contracts/MyContract.sol\":464:506  bytes32 public myBytes32 = \"Hello, World!\" */\n  sstore(0x05, 0x48656c6c6f2c20576f726c642100000000000000000000000000000000000000)\n    /* \"contracts/MyContract.sol\":772:799  MyStruct(1, \"Hello world!\") */\n  mload(0x40)\n  dup1\n  0x40\n  add\n  0x40\n  mstore\n  dup1\n    /* \"contracts/MyContract.sol\":781:782  1 */\n  0x01\n    /* \"contracts/MyContract.sol\":772:799  MyStruct(1, \"Hello world!\") */\n  dup2\n  mstore\n  0x20\n  add\n  mload(0x40)\n  dup1\n  0x40\n  add\n  0x40\n  mstore\n  dup1\n  0x0c\n  dup2\n  mstore\n  0x20\n  add\n  0x48656c6c6f20776f726c64210000000000000000000000000000000000000000\n  dup2\n  mstore\n  pop\n  dup2\n  mstore\n  pop\n    /* \"contracts/MyContract.sol\":745:799  MyStruct public myStruct = MyStruct(1, \"Hello world!\") */\n  0x06\n  0x00\n  dup3\n  add\n  mload\n  dup2\n  0x00\n  add\n  sstore\n  0x20\n  dup3\n  add\n  mload\n  dup2\n  0x01\n  add\n  swap1\n  dup2\n  tag_3\n  swap2\n  swap1\n  tag_2\n  jump\t// in\ntag_3:\n  pop\n  pop\n  pop\n    /* \"contracts/MyContract.sol\":821:856  uint[] public uintArray = [1, 2, 3] */\n  mload(0x40)\n  dup1\n  0x60\n  add\n  0x40\n  mstore\n  dup1\n    /* \"contracts/MyContract.sol\":848:849  1 */\n  0x01\n    /* \"contracts/MyContract.sol\":821:856  uint[] public uintArray = [1, 2, 3] */\n  0xff\n  and\n  dup2\n  mstore\n  0x20\n  add\n    /* \"contracts/MyContract.sol\":851:852  2 */\n  0x02\n    /* \"contracts/MyContract.sol\":821:856  uint[] public uintArray = [1, 2, 3] */\n  0xff\n  and\n  dup2\n  mstore\n  0x20\n  add\n    /* \"contracts/MyContract.sol\":854:855  3 */\n  0x03\n    /* \"contracts/MyContract.sol\":821:856  uint[] public uintArray = [1, 2, 3] */\n  0xff\n  and\n  dup2\n  mstore\n  pop\n  0x08\n  swap1\n  0x03\n  tag_4\n  swap3\n  swap2\n  swap1\n  tag_5\n  jump\t// in\ntag_4:\n  pop\n    /* \"contracts/MyContract.sol\":862:921  string[] public stringArray = [\"John\", \"Johnny\", \"Johnson\"] */\n  mload(0x40)\n  dup1\n  0x60\n  add\n  0x40\n  mstore\n  dup1\n  mload(0x40)\n  dup1\n  0x40\n  add\n  0x40\n  mstore\n  dup1\n  0x04\n  dup2\n  mstore\n  0x20\n  add\n  0x4a6f686e00000000000000000000000000000000000000000000000000000000\n  dup2\n  mstore\n  pop\n  dup2\n  mstore\n  0x20\n  add\n  mload(0x40)\n  dup1\n  0x40\n  add\n  0x40\n  mstore\n  dup1\n  0x06\n  dup2\n  mstore\n  0x20\n  add\n  0x4a6f686e6e790000000000000000000000000000000000000000000000000000\n  dup2\n  mstore\n  pop\n  dup2\n  mstore\n  0x20\n  add\n  mload(0x40)\n  dup1\n  0x40\n  add\n  0x40\n  mstore\n  dup1\n  0x07\n  dup2\n  mstore\n  0x20\n  add\n  0x4a6f686e736f6e00000000000000000000000000000000000000000000000000\n  dup2\n  mstore\n  pop\n  dup2\n  mstore\n  pop\n  0x09\n  swap1\n  0x03\n  tag_6\n  swap3\n  swap2\n  swap1\n  tag_7\n  jump\t// in\ntag_6:\n  pop\n    /* \"contracts/MyContract.sol\":970:1021  uint256[][] public array2D = [[1, 2, 3], [4, 5, 6]] */\n  mload(0x40)\n  dup1\n  0x40\n  add\n  0x40\n  mstore\n  dup1\n  mload(0x40)\n  dup1\n  0x60\n  add\n  0x40\n  mstore\n  dup1\n    /* \"contracts/MyContract.sol\":1001:1002  1 */\n  0x01\n    /* \"contracts/MyContract.sol\":970:1021  uint256[][] public array2D = [[1, 2, 3], [4, 5, 6]] */\n  0xff\n  and\n  dup2\n  mstore\n  0x20\n  add\n    /* \"contracts/MyContract.sol\":1004:1005  2 */\n  0x02\n    /* \"contracts/MyContract.sol\":970:1021  uint256[][] public array2D = [[1, 2, 3], [4, 5, 6]] */\n  0xff\n  and\n  dup2\n  mstore\n  0x20\n  add\n    /* \"contracts/MyContract.sol\":1007:1008  3 */\n  0x03\n    /* \"contracts/MyContract.sol\":970:1021  uint256[][] public array2D = [[1, 2, 3], [4, 5, 6]] */\n  0xff\n  and\n  dup2\n  mstore\n  pop\n  dup2\n  mstore\n  0x20\n  add\n  mload(0x40)\n  dup1\n  0x60\n  add\n  0x40\n  mstore\n  dup1\n    /* \"contracts/MyContract.sol\":1012:1013  4 */\n  0x04\n    /* \"contracts/MyContract.sol\":970:1021  uint256[][] public array2D = [[1, 2, 3], [4, 5, 6]] */\n  0xff\n  and\n  dup2\n  mstore\n  0x20\n  add\n    /* \"contracts/MyContract.sol\":1015:1016  5 */\n  0x05\n    /* \"contracts/MyContract.sol\":970:1021  uint256[][] public array2D = [[1, 2, 3], [4, 5, 6]] */\n  0xff\n  and\n  dup2\n  mstore\n  0x20\n  add\n    /* \"contracts/MyContract.sol\":1018:1019  6 */\n  0x06\n    /* \"contracts/MyContract.sol\":970:1021  uint256[][] public array2D = [[1, 2, 3], [4, 5, 6]] */\n  0xff\n  and\n  dup2\n  mstore\n  pop\n  dup2\n  mstore\n  pop\n  0x0b\n  swap1\n  0x02\n  tag_8\n  swap3\n  swap2\n  swap1\n  tag_9\n  jump\t// in\ntag_8:\n  pop\n    /* \"contracts/MyContract.sol\":1740:1851  constructor() {... */\n  callvalue\n  dup1\n  iszero\n  tag_10\n  jumpi\n  0x00\n  dup1\n  revert\ntag_10:\n  pop\n    /* \"contracts/MyContract.sol\":1764:1781  names[1] = \"John\" */\n  mload(0x40)\n  dup1\n  0x40\n  add\n  0x40\n  mstore\n  dup1\n  0x04\n  dup2\n  mstore\n  0x20\n  add\n  0x4a6f686e00000000000000000000000000000000000000000000000000000000\n  dup2\n  mstore\n  pop\n    /* \"contracts/MyContract.sol\":1764:1769  names */\n  0x0c\n    /* \"contracts/MyContract.sol\":1764:1772  names[1] */\n  0x00\n    /* \"contracts/MyContract.sol\":1770:1771  1 */\n  0x01\n    /* \"contracts/MyContract.sol\":1764:1772  names[1] */\n  dup2\n  mstore\n  0x20\n  add\n  swap1\n  dup2\n  mstore\n  0x20\n  add\n  0x00\n  keccak256\n    /* \"contracts/MyContract.sol\":1764:1781  names[1] = \"John\" */\n  swap1\n  dup2\n  tag_13\n  swap2\n  swap1\n  tag_2\n  jump\t// in\ntag_13:\n  pop\n    /* \"contracts/MyContract.sol\":1791:1816  names[2] = \"Johan Petter\" */\n  mload(0x40)\n  dup1\n  0x40\n  add\n  0x40\n  mstore\n  dup1\n  0x0c\n  dup2\n  mstore\n  0x20\n  add\n  0x4a6f68616e205065747465720000000000000000000000000000000000000000\n  dup2\n  mstore\n  pop\n    /* \"contracts/MyContract.sol\":1791:1796  names */\n  0x0c\n    /* \"contracts/MyContract.sol\":1791:1799  names[2] */\n  0x00\n    /* \"contracts/MyContract.sol\":1797:1798  2 */\n  0x02\n    /* \"contracts/MyContract.sol\":1791:1799  names[2] */\n  dup2\n  mstore\n  0x20\n  add\n  swap1\n  dup2\n  mstore\n  0x20\n  add\n  0x00\n  keccak256\n    /* \"contracts/MyContract.sol\":1791:1816  names[2] = \"Johan Petter\" */\n  swap1\n  dup2\n  tag_14\n  swap2\n  swap1\n  tag_2\n  jump\t// in\ntag_14:\n  pop\n    /* \"contracts/MyContract.sol\":1826:1844  names[3] = \"Jorny\" */\n  mload(0x40)\n  dup1\n  0x40\n  add\n  0x40\n  mstore\n  dup1\n  0x05\n  dup2\n  mstore\n  0x20\n  add\n  0x4a6f726e79000000000000000000000000000000000000000000000000000000\n  dup2\n  mstore\n  pop\n    /* \"contracts/MyContract.sol\":1826:1831  names */\n  0x0c\n    /* \"contracts/MyContract.sol\":1826:1834  names[3] */\n  0x00\n    /* \"contracts/MyContract.sol\":1832:1833  3 */\n  0x03\n    /* \"contracts/MyContract.sol\":1826:1834  names[3] */\n  dup2\n  mstore\n  0x20\n  add\n  swap1\n  dup2\n  mstore\n  0x20\n  add\n  0x00\n  keccak256\n    /* \"contracts/MyContract.sol\":1826:1844  names[3] = \"Jorny\" */\n  swap1\n  dup2\n  tag_15\n  swap2\n  swap1\n  tag_2\n  jump\t// in\ntag_15:\n  pop\n    /* \"contracts/MyContract.sol\":57:3443  contract MyContract {... */\n  jump(tag_16)\ntag_5:\n  dup3\n  dup1\n  sload\n  dup3\n  dup3\n  sstore\n  swap1\n  0x00\n  mstore\n  keccak256(0x00, 0x20)\n  swap1\n  dup2\n  add\n  swap3\n  dup3\n  iszero\n  tag_17\n  jumpi\n  swap2\n  0x20\n  mul\n  dup3\n  add\ntag_18:\n  dup3\n  dup2\n  gt\n  iszero\n  tag_19\n  jumpi\n  dup3\n  mload\n  dup3\n  swap1\n  0xff\n  and\n  swap1\n  sstore\n  swap2\n  0x20\n  add\n  swap2\n  swap1\n  0x01\n  add\n  swap1\n  jump(tag_18)\ntag_19:\ntag_17:\n  pop\n  swap1\n  pop\n  tag_20\n  swap2\n  swap1\n  tag_21\n  jump\t// in\ntag_20:\n  pop\n  swap1\n  jump\t// out\ntag_7:\n  dup3\n  dup1\n  sload\n  dup3\n  dup3\n  sstore\n  swap1\n  0x00\n  mstore\n  keccak256(0x00, 0x20)\n  swap1\n  dup2\n  add\n  swap3\n  dup3\n  iszero\n  tag_22\n  jumpi\n  swap2\n  0x20\n  mul\n  dup3\n  add\ntag_23:\n  dup3\n  dup2\n  gt\n  iszero\n  tag_24\n  jumpi\n  dup3\n  mload\n  dup3\n  swap1\n  dup2\n  tag_25\n  swap2\n  swap1\n  tag_2\n  jump\t// in\ntag_25:\n  pop\n  swap2\n  0x20\n  add\n  swap2\n  swap1\n  0x01\n  add\n  swap1\n  jump(tag_23)\ntag_24:\ntag_22:\n  pop\n  swap1\n  pop\n  tag_26\n  swap2\n  swap1\n  tag_27\n  jump\t// in\ntag_26:\n  pop\n  swap1\n  jump\t// out\ntag_9:\n  dup3\n  dup1\n  sload\n  dup3\n  dup3\n  sstore\n  swap1\n  0x00\n  mstore\n  keccak256(0x00, 0x20)\n  swap1\n  dup2\n  add\n  swap3\n  dup3\n  iszero\n  tag_28\n  jumpi\n  swap2\n  0x20\n  mul\n  dup3\n  add\ntag_29:\n  dup3\n  dup2\n  gt\n  iszero\n  tag_30\n  jumpi\n  dup3\n  mload\n  dup3\n  swap1\n  0x03\n  tag_31\n  swap3\n  swap2\n  swap1\n  tag_5\n  jump\t// in\ntag_31:\n  pop\n  swap2\n  0x20\n  add\n  swap2\n  swap1\n  0x01\n  add\n  swap1\n  jump(tag_29)\ntag_30:\ntag_28:\n  pop\n  swap1\n  pop\n  tag_32\n  swap2\n  swap1\n  tag_33\n  jump\t// in\ntag_32:\n  pop\n  swap1\n  jump\t// out\ntag_21:\ntag_34:\n  dup1\n  dup3\n  gt\n  iszero\n  tag_35\n  jumpi\n  0x00\n  dup2\n  0x00\n  swap1\n  sstore\n  pop\n  0x01\n  add\n  jump(tag_34)\ntag_35:\n  pop\n  swap1\n  jump\t// out\ntag_27:\ntag_36:\n  dup1\n  dup3\n  gt\n  iszero\n  tag_37\n  jumpi\n  0x00\n  dup2\n  dup2\n  tag_38\n  swap2\n  swap1\n  tag_39\n  jump\t// in\ntag_38:\n  pop\n  0x01\n  add\n  jump(tag_36)\ntag_37:\n  pop\n  swap1\n  jump\t// out\ntag_33:\ntag_40:\n  dup1\n  dup3\n  gt\n  iszero\n  tag_41\n  jumpi\n  0x00\n  dup2\n  dup2\n  tag_42\n  swap2\n  swap1\n  tag_43\n  jump\t// in\ntag_42:\n  pop\n  0x01\n  add\n  jump(tag_40)\ntag_41:\n  pop\n  swap1\n  jump\t// out\ntag_39:\n  pop\n  dup1\n  sload\n  tag_44\n  swap1\n  tag_45\n  jump\t// in\ntag_44:\n  0x00\n  dup3\n  sstore\n  dup1\n  0x1f\n  lt\n  tag_47\n  jumpi\n  pop\n  jump(tag_46)\ntag_47:\n  0x1f\n  add\n  0x20\n  swap1\n  div\n  swap1\n  0x00\n  mstore\n  keccak256(0x00, 0x20)\n  swap1\n  dup2\n  add\n  swap1\n  tag_48\n  swap2\n  swap1\n  tag_21\n  jump\t// in\ntag_48:\ntag_46:\n  pop\n  jump\t// out\ntag_43:\n  pop\n  dup1\n  sload\n  0x00\n  dup3\n  sstore\n  swap1\n  0x00\n  mstore\n  keccak256(0x00, 0x20)\n  swap1\n  dup2\n  add\n  swap1\n  tag_50\n  swap2\n  swap1\n  tag_21\n  jump\t// in\ntag_50:\n  pop\n  jump\t// out\n    /* \"#utility.yul\":7:106   */\ntag_51:\n    /* \"#utility.yul\":59:65   */\n  0x00\n    /* \"#utility.yul\":93:98   */\n  dup2\n    /* \"#utility.yul\":87:99   */\n  mload\n    /* \"#utility.yul\":77:99   */\n  swap1\n  pop\n    /* \"#utility.yul\":7:106   */\n  swap2\n  swap1\n  pop\n  jump\t// out\n    /* \"#utility.yul\":112:292   */\ntag_52:\n    /* \"#utility.yul\":160:237   */\n  0x4e487b7100000000000000000000000000000000000000000000000000000000\n    /* \"#utility.yul\":157:158   */\n  0x00\n    /* \"#utility.yul\":150:238   */\n  mstore\n    /* \"#utility.yul\":257:261   */\n  0x41\n    /* \"#utility.yul\":254:255   */\n  0x04\n    /* \"#utility.yul\":247:262   */\n  mstore\n    /* \"#utility.yul\":281:285   */\n  0x24\n    /* \"#utility.yul\":278:279   */\n  0x00\n    /* \"#utility.yul\":271:286   */\n  revert\n    /* \"#utility.yul\":298:478   */\ntag_53:\n    /* \"#utility.yul\":346:423   */\n  0x4e487b7100000000000000000000000000000000000000000000000000000000\n    /* \"#utility.yul\":343:344   */\n  0x00\n    /* \"#utility.yul\":336:424   */\n  mstore\n    /* \"#utility.yul\":443:447   */\n  0x22\n    /* \"#utility.yul\":440:441   */\n  0x04\n    /* \"#utility.yul\":433:448   */\n  mstore\n    /* \"#utility.yul\":467:471   */\n  0x24\n    /* \"#utility.yul\":464:465   */\n  0x00\n    /* \"#utility.yul\":457:472   */\n  revert\n    /* \"#utility.yul\":484:804   */\ntag_45:\n    /* \"#utility.yul\":528:534   */\n  0x00\n    /* \"#utility.yul\":565:566   */\n  0x02\n    /* \"#utility.yul\":559:563   */\n  dup3\n    /* \"#utility.yul\":555:567   */\n  div\n    /* \"#utility.yul\":545:567   */\n  swap1\n  pop\n    /* \"#utility.yul\":612:613   */\n  0x01\n    /* \"#utility.yul\":606:610   */\n  dup3\n    /* \"#utility.yul\":602:614   */\n  and\n    /* \"#utility.yul\":633:651   */\n  dup1\n    /* \"#utility.yul\":623:704   */\n  tag_75\n  jumpi\n    /* \"#utility.yul\":689:693   */\n  0x7f\n    /* \"#utility.yul\":681:687   */\n  dup3\n    /* \"#utility.yul\":677:694   */\n  and\n    /* \"#utility.yul\":667:694   */\n  swap2\n  pop\n    /* \"#utility.yul\":623:704   */\ntag_75:\n    /* \"#utility.yul\":751:753   */\n  0x20\n    /* \"#utility.yul\":743:749   */\n  dup3\n    /* \"#utility.yul\":740:754   */\n  lt\n    /* \"#utility.yul\":720:738   */\n  dup2\n    /* \"#utility.yul\":717:755   */\n  sub\n    /* \"#utility.yul\":714:798   */\n  tag_76\n  jumpi\n    /* \"#utility.yul\":770:788   */\n  tag_77\n  tag_53\n  jump\t// in\ntag_77:\n    /* \"#utility.yul\":714:798   */\ntag_76:\n    /* \"#utility.yul\":535:804   */\n  pop\n    /* \"#utility.yul\":484:804   */\n  swap2\n  swap1\n  pop\n  jump\t// out\n    /* \"#utility.yul\":810:951   */\ntag_54:\n    /* \"#utility.yul\":859:863   */\n  0x00\n    /* \"#utility.yul\":882:885   */\n  dup2\n    /* \"#utility.yul\":874:885   */\n  swap1\n  pop\n    /* \"#utility.yul\":905:908   */\n  dup2\n    /* \"#utility.yul\":902:903   */\n  0x00\n    /* \"#utility.yul\":895:909   */\n  mstore\n    /* \"#utility.yul\":939:943   */\n  0x20\n    /* \"#utility.yul\":936:937   */\n  0x00\n    /* \"#utility.yul\":926:944   */\n  keccak256\n    /* \"#utility.yul\":918:944   */\n  swap1\n  pop\n    /* \"#utility.yul\":810:951   */\n  swap2\n  swap1\n  pop\n  jump\t// out\n    /* \"#utility.yul\":957:1050   */\ntag_55:\n    /* \"#utility.yul\":994:1000   */\n  0x00\n    /* \"#utility.yul\":1041:1043   */\n  0x20\n    /* \"#utility.yul\":1036:1038   */\n  0x1f\n    /* \"#utility.yul\":1029:1034   */\n  dup4\n    /* \"#utility.yul\":1025:1039   */\n  add\n    /* \"#utility.yul\":1021:1044   */\n  div\n    /* \"#utility.yul\":1011:1044   */\n  swap1\n  pop\n    /* \"#utility.yul\":957:1050   */\n  swap2\n  swap1\n  pop\n  jump\t// out\n    /* \"#utility.yul\":1056:1163   */\ntag_56:\n    /* \"#utility.yul\":1100:1108   */\n  0x00\n    /* \"#utility.yul\":1150:1155   */\n  dup3\n    /* \"#utility.yul\":1144:1148   */\n  dup3\n    /* \"#utility.yul\":1140:1156   */\n  shl\n    /* \"#utility.yul\":1119:1156   */\n  swap1\n  pop\n    /* \"#utility.yul\":1056:1163   */\n  swap3\n  swap2\n  pop\n  pop\n  jump\t// out\n    /* \"#utility.yul\":1169:1562   */\ntag_57:\n    /* \"#utility.yul\":1238:1244   */\n  0x00\n    /* \"#utility.yul\":1288:1289   */\n  0x08\n    /* \"#utility.yul\":1276:1286   */\n  dup4\n    /* \"#utility.yul\":1272:1290   */\n  mul\n    /* \"#utility.yul\":1311:1408   */\n  tag_82\n    /* \"#utility.yul\":1341:1407   */\n  0xffffffffffffffffffffffffffffffffffffffffffffffffffffffffffffffff\n    /* \"#utility.yul\":1330:1339   */\n  dup3\n    /* \"#utility.yul\":1311:1408   */\n  tag_56\n  jump\t// in\ntag_82:\n    /* \"#utility.yul\":1429:1468   */\n  tag_83\n    /* \"#utility.yul\":1459:1467   */\n  dup7\n    /* \"#utility.yul\":1448:1457   */\n  dup4\n    /* \"#utility.yul\":1429:1468   */\n  tag_56\n  jump\t// in\ntag_83:\n    /* \"#utility.yul\":1417:1468   */\n  swap6\n  pop\n    /* \"#utility.yul\":1501:1505   */\n  dup1\n    /* \"#utility.yul\":1497:1506   */\n  not\n    /* \"#utility.yul\":1490:1495   */\n  dup5\n    /* \"#utility.yul\":1486:1507   */\n  and\n    /* \"#utility.yul\":1477:1507   */\n  swap4\n  pop\n    /* \"#utility.yul\":1550:1554   */\n  dup1\n    /* \"#utility.yul\":1540:1548   */\n  dup7\n    /* \"#utility.yul\":1536:1555   */\n  and\n    /* \"#utility.yul\":1529:1534   */\n  dup5\n    /* \"#utility.yul\":1526:1556   */\n  or\n    /* \"#utility.yul\":1516:1556   */\n  swap3\n  pop\n    /* \"#utility.yul\":1245:1562   */\n  pop\n  pop\n    /* \"#utility.yul\":1169:1562   */\n  swap4\n  swap3\n  pop\n  pop\n  pop\n  jump\t// out\n    /* \"#utility.yul\":1568:1645   */\ntag_58:\n    /* \"#utility.yul\":1605:1612   */\n  0x00\n    /* \"#utility.yul\":1634:1639   */\n  dup2\n    /* \"#utility.yul\":1623:1639   */\n  swap1\n  pop\n    /* \"#utility.yul\":1568:1645   */\n  swap2\n  swap1\n  pop\n  jump\t// out\n    /* \"#utility.yul\":1651:1711   */\ntag_59:\n    /* \"#utility.yul\":1679:1682   */\n  0x00\n    /* \"#utility.yul\":1700:1705   */\n  dup2\n    /* \"#utility.yul\":1693:1705   */\n  swap1\n  pop\n    /* \"#utility.yul\":1651:1711   */\n  swap2\n  swap1\n  pop\n  jump\t// out\n    /* \"#utility.yul\":1717:1859   */\ntag_60:\n    /* \"#utility.yul\":1767:1776   */\n  0x00\n    /* \"#utility.yul\":1800:1853   */\n  tag_87\n    /* \"#utility.yul\":1818:1852   */\n  tag_88\n    /* \"#utility.yul\":1827:1851   */\n  tag_89\n    /* \"#utility.yul\":1845:1850   */\n  dup5\n    /* \"#utility.yul\":1827:1851   */\n  tag_58\n  jump\t// in\ntag_89:\n    /* \"#utility.yul\":1818:1852   */\n  tag_59\n  jump\t// in\ntag_88:\n    /* \"#utility.yul\":1800:1853   */\n  tag_58\n  jump\t// in\ntag_87:\n    /* \"#utility.yul\":1787:1853   */\n  swap1\n  pop\n    /* \"#utility.yul\":1717:1859   */\n  swap2\n  swap1\n  pop\n  jump\t// out\n    /* \"#utility.yul\":1865:1940   */\ntag_61:\n    /* \"#utility.yul\":1908:1911   */\n  0x00\n    /* \"#utility.yul\":1929:1934   */\n  dup2\n    /* \"#utility.yul\":1922:1934   */\n  swap1\n  pop\n    /* \"#utility.yul\":1865:1940   */\n  swap2\n  swap1\n  pop\n  jump\t// out\n    /* \"#utility.yul\":1946:2215   */\ntag_62:\n    /* \"#utility.yul\":2056:2095   */\n  tag_92\n    /* \"#utility.yul\":2087:2094   */\n  dup4\n    /* \"#utility.yul\":2056:2095   */\n  tag_60\n  jump\t// in\ntag_92:\n    /* \"#utility.yul\":2117:2208   */\n  tag_93\n    /* \"#utility.yul\":2166:2207   */\n  tag_94\n    /* \"#utility.yul\":2190:2206   */\n  dup3\n    /* \"#utility.yul\":2166:2207   */\n  tag_61\n  jump\t// in\ntag_94:\n    /* \"#utility.yul\":2158:2164   */\n  dup5\n    /* \"#utility.yul\":2151:2155   */\n  dup5\n    /* \"#utility.yul\":2145:2156   */\n  sload\n    /* \"#utility.yul\":2117:2208   */\n  tag_57\n  jump\t// in\ntag_93:\n    /* \"#utility.yul\":2111:2115   */\n  dup3\n    /* \"#utility.yul\":2104:2209   */\n  sstore\n    /* \"#utility.yul\":2022:2215   */\n  pop\n    /* \"#utility.yul\":1946:2215   */\n  pop\n  pop\n  pop\n  jump\t// out\n    /* \"#utility.yul\":2221:2294   */\ntag_63:\n    /* \"#utility.yul\":2266:2269   */\n  0x00\n    /* \"#utility.yul\":2221:2294   */\n  swap1\n  jump\t// out\n    /* \"#utility.yul\":2300:2489   */\ntag_64:\n    /* \"#utility.yul\":2377:2409   */\n  tag_97\n  tag_63\n  jump\t// in\ntag_97:\n    /* \"#utility.yul\":2418:2483   */\n  tag_98\n    /* \"#utility.yul\":2476:2482   */\n  dup2\n    /* \"#utility.yul\":2468:2474   */\n  dup5\n    /* \"#utility.yul\":2462:2466   */\n  dup5\n    /* \"#utility.yul\":2418:2483   */\n  tag_62\n  jump\t// in\ntag_98:\n    /* \"#utility.yul\":2353:2489   */\n  pop\n    /* \"#utility.yul\":2300:2489   */\n  pop\n  pop\n  jump\t// out\n    /* \"#utility.yul\":2495:2681   */\ntag_65:\n    /* \"#utility.yul\":2555:2675   */\ntag_100:\n    /* \"#utility.yul\":2572:2575   */\n  dup2\n    /* \"#utility.yul\":2565:2570   */\n  dup2\n    /* \"#utility.yul\":2562:2576   */\n  lt\n    /* \"#utility.yul\":2555:2675   */\n  iszero\n  tag_102\n  jumpi\n    /* \"#utility.yul\":2626:2665   */\n  tag_103\n    /* \"#utility.yul\":2663:2664   */\n  0x00\n    /* \"#utility.yul\":2656:2661   */\n  dup3\n    /* \"#utility.yul\":2626:2665   */\n  tag_64\n  jump\t// in\ntag_103:\n    /* \"#utility.yul\":2599:2600   */\n  0x01\n    /* \"#utility.yul\":2592:2597   */\n  dup2\n    /* \"#utility.yul\":2588:2601   */\n  add\n    /* \"#utility.yul\":2579:2601   */\n  swap1\n  pop\n    /* \"#utility.yul\":2555:2675   */\n  jump(tag_100)\ntag_102:\n    /* \"#utility.yul\":2495:2681   */\n  pop\n  pop\n  jump\t// out\n    /* \"#utility.yul\":2687:3230   */\ntag_66:\n    /* \"#utility.yul\":2788:2790   */\n  0x1f\n    /* \"#utility.yul\":2783:2786   */\n  dup3\n    /* \"#utility.yul\":2780:2791   */\n  gt\n    /* \"#utility.yul\":2777:3223   */\n  iszero\n  tag_105\n  jumpi\n    /* \"#utility.yul\":2822:2860   */\n  tag_106\n    /* \"#utility.yul\":2854:2859   */\n  dup2\n    /* \"#utility.yul\":2822:2860   */\n  tag_54\n  jump\t// in\ntag_106:\n    /* \"#utility.yul\":2906:2935   */\n  tag_107\n    /* \"#utility.yul\":2924:2934   */\n  dup5\n    /* \"#utility.yul\":2906:2935   */\n  tag_55\n  jump\t// in\ntag_107:\n    /* \"#utility.yul\":2896:2904   */\n  dup2\n    /* \"#utility.yul\":2892:2936   */\n  add\n    /* \"#utility.yul\":3089:3091   */\n  0x20\n    /* \"#utility.yul\":3077:3087   */\n  dup6\n    /* \"#utility.yul\":3074:3092   */\n  lt\n    /* \"#utility.yul\":3071:3120   */\n  iszero\n  tag_108\n  jumpi\n    /* \"#utility.yul\":3110:3118   */\n  dup2\n    /* \"#utility.yul\":3095:3118   */\n  swap1\n  pop\n    /* \"#utility.yul\":3071:3120   */\ntag_108:\n    /* \"#utility.yul\":3133:3213   */\n  tag_109\n    /* \"#utility.yul\":3189:3211   */\n  tag_110\n    /* \"#utility.yul\":3207:3210   */\n  dup6\n    /* \"#utility.yul\":3189:3211   */\n  tag_55\n  jump\t// in\ntag_110:\n    /* \"#utility.yul\":3179:3187   */\n  dup4\n    /* \"#utility.yul\":3175:3212   */\n  add\n    /* \"#utility.yul\":3162:3173   */\n  dup3\n    /* \"#utility.yul\":3133:3213   */\n  tag_65\n  jump\t// in\ntag_109:\n    /* \"#utility.yul\":2792:3223   */\n  pop\n  pop\n    /* \"#utility.yul\":2777:3223   */\ntag_105:\n    /* \"#utility.yul\":2687:3230   */\n  pop\n  pop\n  pop\n  jump\t// out\n    /* \"#utility.yul\":3236:3353   */\ntag_67:\n    /* \"#utility.yul\":3290:3298   */\n  0x00\n    /* \"#utility.yul\":3340:3345   */\n  dup3\n    /* \"#utility.yul\":3334:3338   */\n  dup3\n    /* \"#utility.yul\":3330:3346   */\n  shr\n    /* \"#utility.yul\":3309:3346   */\n  swap1\n  pop\n    /* \"#utility.yul\":3236:3353   */\n  swap3\n  swap2\n  pop\n  pop\n  jump\t// out\n    /* \"#utility.yul\":3359:3528   */\ntag_68:\n    /* \"#utility.yul\":3403:3409   */\n  0x00\n    /* \"#utility.yul\":3436:3487   */\n  tag_113\n    /* \"#utility.yul\":3484:3485   */\n  0x00\n    /* \"#utility.yul\":3480:3486   */\n  not\n    /* \"#utility.yul\":3472:3477   */\n  dup5\n    /* \"#utility.yul\":3469:3470   */\n  0x08\n    /* \"#utility.yul\":3465:3478   */\n  mul\n    /* \"#utility.yul\":3436:3487   */\n  tag_67\n  jump\t// in\ntag_113:\n    /* \"#utility.yul\":3432:3488   */\n  not\n    /* \"#utility.yul\":3517:3521   */\n  dup1\n    /* \"#utility.yul\":3511:3515   */\n  dup4\n    /* \"#utility.yul\":3507:3522   */\n  and\n    /* \"#utility.yul\":3497:3522   */\n  swap2\n  pop\n    /* \"#utility.yul\":3410:3528   */\n  pop\n    /* \"#utility.yul\":3359:3528   */\n  swap3\n  swap2\n  pop\n  pop\n  jump\t// out\n    /* \"#utility.yul\":3533:3828   */\ntag_69:\n    /* \"#utility.yul\":3609:3613   */\n  0x00\n    /* \"#utility.yul\":3755:3784   */\n  tag_115\n    /* \"#utility.yul\":3780:3783   */\n  dup4\n    /* \"#utility.yul\":3774:3778   */\n  dup4\n    /* \"#utility.yul\":3755:3784   */\n  tag_68\n  jump\t// in\ntag_115:\n    /* \"#utility.yul\":3747:3784   */\n  swap2\n  pop\n    /* \"#utility.yul\":3817:3820   */\n  dup3\n    /* \"#utility.yul\":3814:3815   */\n  0x02\n    /* \"#utility.yul\":3810:3821   */\n  mul\n    /* \"#utility.yul\":3804:3808   */\n  dup3\n    /* \"#utility.yul\":3801:3822   */\n  or\n    /* \"#utility.yul\":3793:3822   */\n  swap1\n  pop\n    /* \"#utility.yul\":3533:3828   */\n  swap3\n  swap2\n  pop\n  pop\n  jump\t// out\n    /* \"#utility.yul\":3833:5228   */\ntag_2:\n    /* \"#utility.yul\":3950:3987   */\n  tag_117\n    /* \"#utility.yul\":3983:3986   */\n  dup3\n    /* \"#utility.yul\":3950:3987   */\n  tag_51\n  jump\t// in\ntag_117:\n    /* \"#utility.yul\":4052:4070   */\n  0xffffffffffffffff\n    /* \"#utility.yul\":4044:4050   */\n  dup2\n    /* \"#utility.yul\":4041:4071   */\n  gt\n    /* \"#utility.yul\":4038:4094   */\n  iszero\n  tag_118\n  jumpi\n    /* \"#utility.yul\":4074:4092   */\n  tag_119\n  tag_52\n  jump\t// in\ntag_119:\n    /* \"#utility.yul\":4038:4094   */\ntag_118:\n    /* \"#utility.yul\":4118:4156   */\n  tag_120\n    /* \"#utility.yul\":4150:4154   */\n  dup3\n    /* \"#utility.yul\":4144:4155   */\n  sload\n    /* \"#utility.yul\":4118:4156   */\n  tag_45\n  jump\t// in\ntag_120:\n    /* \"#utility.yul\":4203:4270   */\n  tag_121\n    /* \"#utility.yul\":4263:4269   */\n  dup3\n    /* \"#utility.yul\":4255:4261   */\n  dup3\n    /* \"#utility.yul\":4249:4253   */\n  dup6\n    /* \"#utility.yul\":4203:4270   */\n  tag_66\n  jump\t// in\ntag_121:\n    /* \"#utility.yul\":4297:4298   */\n  0x00\n    /* \"#utility.yul\":4321:4325   */\n  0x20\n    /* \"#utility.yul\":4308:4325   */\n  swap1\n  pop\n    /* \"#utility.yul\":4353:4355   */\n  0x1f\n    /* \"#utility.yul\":4345:4351   */\n  dup4\n    /* \"#utility.yul\":4342:4356   */\n  gt\n    /* \"#utility.yul\":4370:4371   */\n  0x01\n    /* \"#utility.yul\":4365:4983   */\n  dup2\n  eq\n  tag_123\n  jumpi\n    /* \"#utility.yul\":5027:5028   */\n  0x00\n    /* \"#utility.yul\":5044:5050   */\n  dup5\n    /* \"#utility.yul\":5041:5118   */\n  iszero\n  tag_124\n  jumpi\n    /* \"#utility.yul\":5093:5102   */\n  dup3\n    /* \"#utility.yul\":5088:5091   */\n  dup8\n    /* \"#utility.yul\":5084:5103   */\n  add\n    /* \"#utility.yul\":5078:5104   */\n  mload\n    /* \"#utility.yul\":5069:5104   */\n  swap1\n  pop\n    /* \"#utility.yul\":5041:5118   */\ntag_124:\n    /* \"#utility.yul\":5144:5211   */\n  tag_125\n    /* \"#utility.yul\":5204:5210   */\n  dup6\n    /* \"#utility.yul\":5197:5202   */\n  dup3\n    /* \"#utility.yul\":5144:5211   */\n  tag_69\n  jump\t// in\ntag_125:\n    /* \"#utility.yul\":5138:5142   */\n  dup7\n    /* \"#utility.yul\":5131:5212   */\n  sstore\n    /* \"#utility.yul\":5000:5222   */\n  pop\n    /* \"#utility.yul\":4335:5222   */\n  jump(tag_122)\n    /* \"#utility.yul\":4365:4983   */\ntag_123:\n    /* \"#utility.yul\":4417:4421   */\n  0x1f\n    /* \"#utility.yul\":4413:4422   */\n  not\n    /* \"#utility.yul\":4405:4411   */\n  dup5\n    /* \"#utility.yul\":4401:4423   */\n  and\n    /* \"#utility.yul\":4451:4488   */\n  tag_126\n    /* \"#utility.yul\":4483:4487   */\n  dup7\n    /* \"#utility.yul\":4451:4488   */\n  tag_54\n  jump\t// in\ntag_126:\n    /* \"#utility.yul\":4510:4511   */\n  0x00\n    /* \"#utility.yul\":4524:4732   */\ntag_127:\n    /* \"#utility.yul\":4538:4545   */\n  dup3\n    /* \"#utility.yul\":4535:4536   */\n  dup2\n    /* \"#utility.yul\":4532:4546   */\n  lt\n    /* \"#utility.yul\":4524:4732   */\n  iszero\n  tag_129\n  jumpi\n    /* \"#utility.yul\":4617:4626   */\n  dup5\n    /* \"#utility.yul\":4612:4615   */\n  dup10\n    /* \"#utility.yul\":4608:4627   */\n  add\n    /* \"#utility.yul\":4602:4628   */\n  mload\n    /* \"#utility.yul\":4594:4600   */\n  dup3\n    /* \"#utility.yul\":4587:4629   */\n  sstore\n    /* \"#utility.yul\":4668:4669   */\n  0x01\n    /* \"#utility.yul\":4660:4666   */\n  dup3\n    /* \"#utility.yul\":4656:4670   */\n  add\n    /* \"#utility.yul\":4646:4670   */\n  swap2\n  pop\n    /* \"#utility.yul\":4715:4717   */\n  0x20\n    /* \"#utility.yul\":4704:4713   */\n  dup6\n    /* \"#utility.yul\":4700:4718   */\n  add\n    /* \"#utility.yul\":4687:4718   */\n  swap5\n  pop\n    /* \"#utility.yul\":4561:4565   */\n  0x20\n    /* \"#utility.yul\":4558:4559   */\n  dup2\n    /* \"#utility.yul\":4554:4566   */\n  add\n    /* \"#utility.yul\":4549:4566   */\n  swap1\n  pop\n    /* \"#utility.yul\":4524:4732   */\n  jump(tag_127)\ntag_129:\n    /* \"#utility.yul\":4760:4766   */\n  dup7\n    /* \"#utility.yul\":4751:4758   */\n  dup4\n    /* \"#utility.yul\":4748:4767   */\n  lt\n    /* \"#utility.yul\":4745:4924   */\n  iszero\n  tag_130\n  jumpi\n    /* \"#utility.yul\":4818:4827   */\n  dup5\n    /* \"#utility.yul\":4813:4816   */\n  dup10\n    /* \"#utility.yul\":4809:4828   */\n  add\n    /* \"#utility.yul\":4803:4829   */\n  mload\n    /* \"#utility.yul\":4861:4909   */\n  tag_131\n    /* \"#utility.yul\":4903:4907   */\n  0x1f\n    /* \"#utility.yul\":4895:4901   */\n  dup10\n    /* \"#utility.yul\":4891:4908   */\n  and\n    /* \"#utility.yul\":4880:4889   */\n  dup3\n    /* \"#utility.yul\":4861:4909   */\n  tag_68\n  jump\t// in\ntag_131:\n    /* \"#utility.yul\":4853:4859   */\n  dup4\n    /* \"#utility.yul\":4846:4910   */\n  sstore\n    /* \"#utility.yul\":4768:4924   */\n  pop\n    /* \"#utility.yul\":4745:4924   */\ntag_130:\n    /* \"#utility.yul\":4970:4971   */\n  0x01\n    /* \"#utility.yul\":4966:4967   */\n  0x02\n    /* \"#utility.yul\":4958:4964   */\n  dup9\n    /* \"#utility.yul\":4954:4968   */\n  mul\n    /* \"#utility.yul\":4950:4972   */\n  add\n    /* \"#utility.yul\":4944:4948   */\n  dup9\n    /* \"#utility.yul\":4937:4973   */\n  sstore\n    /* \"#utility.yul\":4372:4983   */\n  pop\n  pop\n  pop\n    /* \"#utility.yul\":4335:5222   */\ntag_122:\n  pop\n    /* \"#utility.yul\":3925:5228   */\n  pop\n  pop\n  pop\n    /* \"#utility.yul\":3833:5228   */\n  pop\n  pop\n  jump\t// out\n    /* \"contracts/MyContract.sol\":57:3443  contract MyContract {... */\ntag_16:\n  dataSize(sub_0)\n  dup1\n  dataOffset(sub_0)\n  0x00\n  codecopy\n  0x00\n  return\nstop\n\nsub_0: assembly {\n        /* \"contracts/MyContract.sol\":57:3443  contract MyContract {... */\n      mstore(0x40, 0x80)\n      callvalue\n      dup1\n      iszero\n      tag_1\n      jumpi\n      0x00\n      dup1\n      revert\n    tag_1:\n      pop\n      jumpi(tag_2, lt(calldatasize, 0x04))\n      shr(0xe0, calldataload(0x00))\n      dup1\n      0x68744046\n      gt\n      tag_24\n      jumpi\n      dup1\n      0xa7dbce1c\n      gt\n      tag_25\n      jumpi\n      dup1\n      0xa7dbce1c\n      eq\n      tag_18\n      jumpi\n      dup1\n      0xac2447f1\n      eq\n      tag_19\n      jumpi\n      dup1\n      0xc4172162\n      eq\n      tag_20\n      jumpi\n      dup1\n      0xd3268fc1\n      eq\n      tag_21\n      jumpi\n      dup1\n      0xdb6e35b2\n      eq\n      tag_22\n      jumpi\n      dup1\n      0xe2a4b2af\n      eq\n      tag_23\n      jumpi\n      jump(tag_2)\n    tag_25:\n      dup1\n      0x68744046\n      eq\n      tag_13\n      jumpi\n      dup1\n      0x7c73709a\n      eq\n      tag_14\n      jumpi\n      dup1\n      0x8bc9fe6c\n      eq\n      tag_15\n      jumpi\n      dup1\n      0x9aa36590\n      eq\n      tag_16\n      jumpi\n      dup1\n      0x9ae918c7\n      eq\n      tag_17\n      jumpi\n      jump(tag_2)\n    tag_24:\n      dup1\n      0x3a5fbaaa\n      gt\n      tag_26\n      jumpi\n      dup1\n      0x3a5fbaaa\n      eq\n      tag_8\n      jumpi\n      dup1\n      0x492bfa18\n      eq\n      tag_9\n      jumpi\n      dup1\n      0x4b3e7e0c\n      eq\n      tag_10\n      jumpi\n      dup1\n      0x5e383d21\n      eq\n      tag_11\n      jumpi\n      dup1\n      0x6422c4c8\n      eq\n      tag_12\n      jumpi\n      jump(tag_2)\n    tag_26:\n      dup1\n      0x028414f2\n      eq\n      tag_3\n      jumpi\n      dup1\n      0x06540f7e\n      eq\n      tag_4\n      jumpi\n      dup1\n      0x2036d295\n      eq\n      tag_5\n      jumpi\n      dup1\n      0x26eb4dbb\n      eq\n      tag_6\n      jumpi\n      dup1\n      0x2cb777a6\n      eq\n      tag_7\n      jumpi\n    tag_2:\n      0x00\n      dup1\n      revert\n        /* \"contracts/MyContract.sol\":1990:2150  function addBook(... */\n    tag_3:\n      tag_27\n      0x04\n      dup1\n      calldatasize\n      sub\n      dup2\n      add\n      swap1\n      tag_28\n      swap2\n      swap1\n      tag_29\n      jump\t// in\n    tag_28:\n      tag_30\n      jump\t// in\n    tag_27:\n      stop\n        /* \"contracts/MyContract.sol\":152:174  uint public myUint = 1 */\n    tag_4:\n      tag_31\n      tag_32\n      jump\t// in\n    tag_31:\n      mload(0x40)\n      tag_33\n      swap2\n      swap1\n      tag_34\n      jump\t// in\n    tag_33:\n      mload(0x40)\n      dup1\n      swap2\n      sub\n      swap1\n      return\n        /* \"contracts/MyContract.sol\":2292:2453  function addFruit(... */\n    tag_5:\n      tag_35\n      0x04\n      dup1\n      calldatasize\n      sub\n      dup2\n      add\n      swap1\n      tag_36\n      swap2\n      swap1\n      tag_29\n      jump\t// in\n    tag_36:\n      tag_37\n      jump\t// in\n    tag_35:\n      stop\n        /* \"contracts/MyContract.sol\":1564:1649  function valueCount() public view returns(uint) {... */\n    tag_6:\n      tag_38\n      tag_39\n      jump\t// in\n    tag_38:\n      mload(0x40)\n      tag_40\n      swap2\n      swap1\n      tag_34\n      jump\t// in\n    tag_40:\n      mload(0x40)\n      dup1\n      swap2\n      sub\n      swap1\n      return\n        /* \"contracts/MyContract.sol\":180:200  int public myInt = 1 */\n    tag_7:\n      tag_41\n      tag_42\n      jump\t// in\n    tag_41:\n      mload(0x40)\n      tag_43\n      swap2\n      swap1\n      tag_44\n      jump\t// in\n    tag_43:\n      mload(0x40)\n      dup1\n      swap2\n      sub\n      swap1\n      return\n        /* \"contracts/MyContract.sol\":1475:1558  function addValue(string memory _value) public {... */\n    tag_8:\n      tag_45\n      0x04\n      dup1\n      calldatasize\n      sub\n      dup2\n      add\n      swap1\n      tag_46\n      swap2\n      swap1\n      tag_47\n      jump\t// in\n    tag_46:\n      tag_48\n      jump\t// in\n    tag_45:\n      stop\n        /* \"contracts/MyContract.sol\":347:387  string public myString = \"Hello, World!\" */\n    tag_9:\n      tag_49\n      tag_50\n      jump\t// in\n    tag_49:\n      mload(0x40)\n      tag_51\n      swap2\n      swap1\n      tag_52\n      jump\t// in\n    tag_51:\n      mload(0x40)\n      dup1\n      swap2\n      sub\n      swap1\n      return\n        /* \"contracts/MyContract.sol\":464:506  bytes32 public myBytes32 = \"Hello, World!\" */\n    tag_10:\n      tag_53\n      tag_54\n      jump\t// in\n    tag_53:\n      mload(0x40)\n      tag_55\n      swap2\n      swap1\n      tag_56\n      jump\t// in\n    tag_55:\n      mload(0x40)\n      dup1\n      swap2\n      sub\n      swap1\n      return\n        /* \"contracts/MyContract.sol\":927:949  string[] public values */\n    tag_11:\n      tag_57\n      0x04\n      dup1\n      calldatasize\n      sub\n      dup2\n      add\n      swap1\n      tag_58\n      swap2\n      swap1\n      tag_59\n      jump\t// in\n    tag_58:\n      tag_60\n      jump\t// in\n    tag_57:\n      mload(0x40)\n      tag_61\n      swap2\n      swap1\n      tag_52\n      jump\t// in\n    tag_61:\n      mload(0x40)\n      dup1\n      swap2\n      sub\n      swap1\n      return\n        /* \"contracts/MyContract.sol\":862:921  string[] public stringArray = [\"John\", \"Johnny\", \"Johnson\"] */\n    tag_12:\n      tag_62\n      0x04\n      dup1\n      calldatasize\n      sub\n      dup2\n      add\n      swap1\n      tag_63\n      swap2\n      swap1\n      tag_59\n      jump\t// in\n    tag_63:\n      tag_64\n      jump\t// in\n    tag_62:\n      mload(0x40)\n      tag_65\n      swap2\n      swap1\n      tag_52\n      jump\t// in\n    tag_65:\n      mload(0x40)\n      dup1\n      swap2\n      sub\n      swap1\n      return\n        /* \"contracts/MyContract.sol\":1875:1909  mapping(uint => Book) public books */\n    tag_13:\n      tag_66\n      0x04\n      dup1\n      calldatasize\n      sub\n      dup2\n      add\n      swap1\n      tag_67\n      swap2\n      swap1\n      tag_59\n      jump\t// in\n    tag_67:\n      tag_68\n      jump\t// in\n    tag_66:\n      mload(0x40)\n      tag_69\n      swap3\n      swap2\n      swap1\n      tag_70\n      jump\t// in\n    tag_69:\n      mload(0x40)\n      dup1\n      swap2\n      sub\n      swap1\n      return\n        /* \"contracts/MyContract.sol\":3020:3080  mapping(address => mapping(uint => Liquor)) public myLiquors */\n    tag_14:\n      tag_71\n      0x04\n      dup1\n      calldatasize\n      sub\n      dup2\n      add\n      swap1\n      tag_72\n      swap2\n      swap1\n      tag_73\n      jump\t// in\n    tag_72:\n      tag_74\n      jump\t// in\n    tag_71:\n      mload(0x40)\n      tag_75\n      swap5\n      swap4\n      swap3\n      swap2\n      swap1\n      tag_76\n      jump\t// in\n    tag_75:\n      mload(0x40)\n      dup1\n      swap2\n      sub\n      swap1\n      return\n        /* \"contracts/MyContract.sol\":745:799  MyStruct public myStruct = MyStruct(1, \"Hello world!\") */\n    tag_15:\n      tag_77\n      tag_78\n      jump\t// in\n    tag_77:\n      mload(0x40)\n      tag_79\n      swap3\n      swap2\n      swap1\n      tag_80\n      jump\t// in\n    tag_79:\n      mload(0x40)\n      dup1\n      swap2\n      sub\n      swap1\n      return\n        /* \"contracts/MyContract.sol\":2639:2878  function addLiquor(... */\n    tag_16:\n      tag_81\n      0x04\n      dup1\n      calldatasize\n      sub\n      dup2\n      add\n      swap1\n      tag_82\n      swap2\n      swap1\n      tag_83\n      jump\t// in\n    tag_82:\n      tag_84\n      jump\t// in\n    tag_81:\n      stop\n        /* \"contracts/MyContract.sol\":821:856  uint[] public uintArray = [1, 2, 3] */\n    tag_17:\n      tag_85\n      0x04\n      dup1\n      calldatasize\n      sub\n      dup2\n      add\n      swap1\n      tag_86\n      swap2\n      swap1\n      tag_59\n      jump\t// in\n    tag_86:\n      tag_87\n      jump\t// in\n    tag_85:\n      mload(0x40)\n      tag_88\n      swap2\n      swap1\n      tag_34\n      jump\t// in\n    tag_88:\n      mload(0x40)\n      dup1\n      swap2\n      sub\n      swap1\n      return\n        /* \"contracts/MyContract.sol\":265:293  uint256 public myUint256 = 1 */\n    tag_18:\n      tag_89\n      tag_90\n      jump\t// in\n    tag_89:\n      mload(0x40)\n      tag_91\n      swap2\n      swap1\n      tag_34\n      jump\t// in\n    tag_91:\n      mload(0x40)\n      dup1\n      swap2\n      sub\n      swap1\n      return\n        /* \"contracts/MyContract.sol\":2594:2632  mapping(uint => Liquor) public liquors */\n    tag_19:\n      tag_92\n      0x04\n      dup1\n      calldatasize\n      sub\n      dup2\n      add\n      swap1\n      tag_93\n      swap2\n      swap1\n      tag_59\n      jump\t// in\n    tag_93:\n      tag_94\n      jump\t// in\n    tag_92:\n      mload(0x40)\n      tag_95\n      swap5\n      swap4\n      swap3\n      swap2\n      swap1\n      tag_76\n      jump\t// in\n    tag_95:\n      mload(0x40)\n      dup1\n      swap2\n      sub\n      swap1\n      return\n        /* \"contracts/MyContract.sol\":2175:2211  mapping(uint => Fruit) public fruits */\n    tag_20:\n      tag_96\n      0x04\n      dup1\n      calldatasize\n      sub\n      dup2\n      add\n      swap1\n      tag_97\n      swap2\n      swap1\n      tag_59\n      jump\t// in\n    tag_97:\n      tag_98\n      jump\t// in\n    tag_96:\n      mload(0x40)\n      tag_99\n      swap3\n      swap2\n      swap1\n      tag_70\n      jump\t// in\n    tag_99:\n      mload(0x40)\n      dup1\n      swap2\n      sub\n      swap1\n      return\n        /* \"contracts/MyContract.sol\":970:1021  uint256[][] public array2D = [[1, 2, 3], [4, 5, 6]] */\n    tag_21:\n      tag_100\n      0x04\n      dup1\n      calldatasize\n      sub\n      dup2\n      add\n      swap1\n      tag_101\n      swap2\n      swap1\n      tag_102\n      jump\t// in\n    tag_101:\n      tag_103\n      jump\t// in\n    tag_100:\n      mload(0x40)\n      tag_104\n      swap2\n      swap1\n      tag_34\n      jump\t// in\n    tag_104:\n      mload(0x40)\n      dup1\n      swap2\n      sub\n      swap1\n      return\n        /* \"contracts/MyContract.sol\":3091:3440  function addMyLiquor(... */\n    tag_22:\n      tag_105\n      0x04\n      dup1\n      calldatasize\n      sub\n      dup2\n      add\n      swap1\n      tag_106\n      swap2\n      swap1\n      tag_83\n      jump\t// in\n    tag_106:\n      tag_107\n      jump\t// in\n    tag_105:\n      stop\n        /* \"contracts/MyContract.sol\":301:325  uint8 public myUint8 = 1 */\n    tag_23:\n      tag_108\n      tag_109\n      jump\t// in\n    tag_108:\n      mload(0x40)\n      tag_110\n      swap2\n      swap1\n      tag_111\n      jump\t// in\n    tag_110:\n      mload(0x40)\n      dup1\n      swap2\n      sub\n      swap1\n      return\n        /* \"contracts/MyContract.sol\":1990:2150  function addBook(... */\n    tag_30:\n        /* \"contracts/MyContract.sol\":2122:2143  Book(_title, _author) */\n      mload(0x40)\n      dup1\n      0x40\n      add\n      0x40\n      mstore\n      dup1\n        /* \"contracts/MyContract.sol\":2127:2133  _title */\n      dup4\n        /* \"contracts/MyContract.sol\":2122:2143  Book(_title, _author) */\n      dup2\n      mstore\n      0x20\n      add\n        /* \"contracts/MyContract.sol\":2135:2142  _author */\n      dup3\n        /* \"contracts/MyContract.sol\":2122:2143  Book(_title, _author) */\n      dup2\n      mstore\n      pop\n        /* \"contracts/MyContract.sol\":2109:2114  books */\n      0x0d\n        /* \"contracts/MyContract.sol\":2109:2119  books[_id] */\n      0x00\n        /* \"contracts/MyContract.sol\":2115:2118  _id */\n      dup6\n        /* \"contracts/MyContract.sol\":2109:2119  books[_id] */\n      dup2\n      mstore\n      0x20\n      add\n      swap1\n      dup2\n      mstore\n      0x20\n      add\n      0x00\n      keccak256\n        /* \"contracts/MyContract.sol\":2109:2143  books[_id] = Book(_title, _author) */\n      0x00\n      dup3\n      add\n      mload\n      dup2\n      0x00\n      add\n      swap1\n      dup2\n      tag_113\n      swap2\n      swap1\n      tag_114\n      jump\t// in\n    tag_113:\n      pop\n      0x20\n      dup3\n      add\n      mload\n      dup2\n      0x01\n      add\n      swap1\n      dup2\n      tag_115\n      swap2\n      swap1\n      tag_114\n      jump\t// in\n    tag_115:\n      pop\n      swap1\n      pop\n      pop\n        /* \"contracts/MyContract.sol\":1990:2150  function addBook(... */\n      pop\n      pop\n      pop\n      jump\t// out\n        /* \"contracts/MyContract.sol\":152:174  uint public myUint = 1 */\n    tag_32:\n      sload(0x00)\n      dup2\n      jump\t// out\n        /* \"contracts/MyContract.sol\":2292:2453  function addFruit(... */\n    tag_37:\n        /* \"contracts/MyContract.sol\":2425:2446  Fruit(_name, _origin) */\n      mload(0x40)\n      dup1\n      0x40\n      add\n      0x40\n      mstore\n      dup1\n        /* \"contracts/MyContract.sol\":2431:2436  _name */\n      dup4\n        /* \"contracts/MyContract.sol\":2425:2446  Fruit(_name, _origin) */\n      dup2\n      mstore\n      0x20\n      add\n        /* \"contracts/MyContract.sol\":2438:2445  _origin */\n      dup3\n        /* \"contracts/MyContract.sol\":2425:2446  Fruit(_name, _origin) */\n      dup2\n      mstore\n      pop\n        /* \"contracts/MyContract.sol\":2411:2417  fruits */\n      0x0e\n        /* \"contracts/MyContract.sol\":2411:2422  fruits[_id] */\n      0x00\n        /* \"contracts/MyContract.sol\":2418:2421  _id */\n      dup6\n        /* \"contracts/MyContract.sol\":2411:2422  fruits[_id] */\n      dup2\n      mstore\n      0x20\n      add\n      swap1\n      dup2\n      mstore\n      0x20\n      add\n      0x00\n      keccak256\n        /* \"contracts/MyContract.sol\":2411:2446  fruits[_id] = Fruit(_name, _origin) */\n      0x00\n      dup3\n      add\n      mload\n      dup2\n      0x00\n      add\n      swap1\n      dup2\n      tag_117\n      swap2\n      swap1\n      tag_114\n      jump\t// in\n    tag_117:\n      pop\n      0x20\n      dup3\n      add\n      mload\n      dup2\n      0x01\n      add\n      swap1\n      dup2\n      tag_118\n      swap2\n      swap1\n      tag_114\n      jump\t// in\n    tag_118:\n      pop\n      swap1\n      pop\n      pop\n        /* \"contracts/MyContract.sol\":2292:2453  function addFruit(... */\n      pop\n      pop\n      pop\n      jump\t// out\n        /* \"contracts/MyContract.sol\":1564:1649  function valueCount() public view returns(uint) {... */\n    tag_39:\n        /* \"contracts/MyContract.sol\":1606:1610  uint */\n      0x00\n        /* \"contracts/MyContract.sol\":1629:1635  values */\n      0x0a\n        /* \"contracts/MyContract.sol\":1629:1642  values.length */\n      dup1\n      sload\n      swap1\n      pop\n        /* \"contracts/MyContract.sol\":1622:1642  return values.length */\n      swap1\n      pop\n        /* \"contracts/MyContract.sol\":1564:1649  function valueCount() public view returns(uint) {... */\n      swap1\n      jump\t// out\n        /* \"contracts/MyContract.sol\":180:200  int public myInt = 1 */\n    tag_42:\n      sload(0x01)\n      dup2\n      jump\t// out\n        /* \"contracts/MyContract.sol\":1475:1558  function addValue(string memory _value) public {... */\n    tag_48:\n        /* \"contracts/MyContract.sol\":1532:1538  values */\n      0x0a\n        /* \"contracts/MyContract.sol\":1544:1550  _value */\n      dup2\n        /* \"contracts/MyContract.sol\":1532:1551  values.push(_value) */\n      swap1\n      dup1\n      0x01\n      dup2\n      sload\n      add\n      dup1\n      dup3\n      sstore\n      dup1\n      swap2\n      pop\n      pop\n      0x01\n      swap1\n      sub\n      swap1\n      0x00\n      mstore\n      keccak256(0x00, 0x20)\n      add\n      0x00\n      swap1\n      swap2\n      swap1\n      swap2\n      swap1\n      swap2\n      pop\n      swap1\n      dup2\n      tag_122\n      swap2\n      swap1\n      tag_114\n      jump\t// in\n    tag_122:\n      pop\n        /* \"contracts/MyContract.sol\":1475:1558  function addValue(string memory _value) public {... */\n      pop\n      jump\t// out\n        /* \"contracts/MyContract.sol\":347:387  string public myString = \"Hello, World!\" */\n    tag_50:\n      0x04\n      dup1\n      sload\n      tag_123\n      swap1\n      tag_124\n      jump\t// in\n    tag_123:\n      dup1\n      0x1f\n      add\n      0x20\n      dup1\n      swap2\n      div\n      mul\n      0x20\n      add\n      mload(0x40)\n      swap1\n      dup2\n      add\n      0x40\n      mstore\n      dup1\n      swap3\n      swap2\n      swap1\n      dup2\n      dup2\n      mstore\n      0x20\n      add\n      dup3\n      dup1\n      sload\n      tag_125\n      swap1\n      tag_124\n      jump\t// in\n    tag_125:\n      dup1\n      iszero\n      tag_126\n      jumpi\n      dup1\n      0x1f\n      lt\n      tag_127\n      jumpi\n      0x0100\n      dup1\n      dup4\n      sload\n      div\n      mul\n      dup4\n      mstore\n      swap2\n      0x20\n      add\n      swap2\n      jump(tag_126)\n    tag_127:\n      dup3\n      add\n      swap2\n      swap1\n      0x00\n      mstore\n      keccak256(0x00, 0x20)\n      swap1\n    tag_128:\n      dup2\n      sload\n      dup2\n      mstore\n      swap1\n      0x01\n      add\n      swap1\n      0x20\n      add\n      dup1\n      dup4\n      gt\n      tag_128\n      jumpi\n      dup3\n      swap1\n      sub\n      0x1f\n      and\n      dup3\n      add\n      swap2\n    tag_126:\n      pop\n      pop\n      pop\n      pop\n      pop\n      dup2\n      jump\t// out\n        /* \"contracts/MyContract.sol\":464:506  bytes32 public myBytes32 = \"Hello, World!\" */\n    tag_54:\n      sload(0x05)\n      dup2\n      jump\t// out\n        /* \"contracts/MyContract.sol\":927:949  string[] public values */\n    tag_60:\n      0x0a\n      dup2\n      dup2\n      sload\n      dup2\n      lt\n      tag_129\n      jumpi\n      0x00\n      dup1\n      revert\n    tag_129:\n      swap1\n      0x00\n      mstore\n      keccak256(0x00, 0x20)\n      add\n      0x00\n      swap2\n      pop\n      swap1\n      pop\n      dup1\n      sload\n      tag_131\n      swap1\n      tag_124\n      jump\t// in\n    tag_131:\n      dup1\n      0x1f\n      add\n      0x20\n      dup1\n      swap2\n      div\n      mul\n      0x20\n      add\n      mload(0x40)\n      swap1\n      dup2\n      add\n      0x40\n      mstore\n      dup1\n      swap3\n      swap2\n      swap1\n      dup2\n      dup2\n      mstore\n      0x20\n      add\n      dup3\n      dup1\n      sload\n      tag_132\n      swap1\n      tag_124\n      jump\t// in\n    tag_132:\n      dup1\n      iszero\n      tag_133\n      jumpi\n      dup1\n      0x1f\n      lt\n      tag_134\n      jumpi\n      0x0100\n      dup1\n      dup4\n      sload\n      div\n      mul\n      dup4\n      mstore\n      swap2\n      0x20\n      add\n      swap2\n      jump(tag_133)\n    tag_134:\n      dup3\n      add\n      swap2\n      swap1\n      0x00\n      mstore\n      keccak256(0x00, 0x20)\n      swap1\n    tag_135:\n      dup2\n      sload\n      dup2\n      mstore\n      swap1\n      0x01\n      add\n      swap1\n      0x20\n      add\n      dup1\n      dup4\n      gt\n      tag_135\n      jumpi\n      dup3\n      swap1\n      sub\n      0x1f\n      and\n      dup3\n      add\n      swap2\n    tag_133:\n      pop\n      pop\n      pop\n      pop\n      pop\n      dup2\n      jump\t// out\n        /* \"contracts/MyContract.sol\":862:921  string[] public stringArray = [\"John\", \"Johnny\", \"Johnson\"] */\n    tag_64:\n      0x09\n      dup2\n      dup2\n      sload\n      dup2\n      lt\n      tag_136\n      jumpi\n      0x00\n      dup1\n      revert\n    tag_136:\n      swap1\n      0x00\n      mstore\n      keccak256(0x00, 0x20)\n      add\n      0x00\n      swap2\n      pop\n      swap1\n      pop\n      dup1\n      sload\n      tag_138\n      swap1\n      tag_124\n      jump\t// in\n    tag_138:\n      dup1\n      0x1f\n      add\n      0x20\n      dup1\n      swap2\n      div\n      mul\n      0x20\n      add\n      mload(0x40)\n      swap1\n      dup2\n      add\n      0x40\n      mstore\n      dup1\n      swap3\n      swap2\n      swap1\n      dup2\n      dup2\n      mstore\n      0x20\n      add\n      dup3\n      dup1\n      sload\n      tag_139\n      swap1\n      tag_124\n      jump\t// in\n    tag_139:\n      dup1\n      iszero\n      tag_140\n      jumpi\n      dup1\n      0x1f\n      lt\n      tag_141\n      jumpi\n      0x0100\n      dup1\n      dup4\n      sload\n      div\n      mul\n      dup4\n      mstore\n      swap2\n      0x20\n      add\n      swap2\n      jump(tag_140)\n    tag_141:\n      dup3\n      add\n      swap2\n      swap1\n      0x00\n      mstore\n      keccak256(0x00, 0x20)\n      swap1\n    tag_142:\n      dup2\n      sload\n      dup2\n      mstore\n      swap1\n      0x01\n      add\n      swap1\n      0x20\n      add\n      dup1\n      dup4\n      gt\n      tag_142\n      jumpi\n      dup3\n      swap1\n      sub\n      0x1f\n      and\n      dup3\n      add\n      swap2\n    tag_140:\n      pop\n      pop\n      pop\n      pop\n      pop\n      dup2\n      jump\t// out\n        /* \"contracts/MyContract.sol\":1875:1909  mapping(uint => Book) public books */\n    tag_68:\n      mstore(0x20, 0x0d)\n      dup1\n      0x00\n      mstore\n      keccak256(0x00, 0x40)\n      0x00\n      swap2\n      pop\n      swap1\n      pop\n      dup1\n      0x00\n      add\n      dup1\n      sload\n      tag_143\n      swap1\n      tag_124\n      jump\t// in\n    tag_143:\n      dup1\n      0x1f\n      add\n      0x20\n      dup1\n      swap2\n      div\n      mul\n      0x20\n      add\n      mload(0x40)\n      swap1\n      dup2\n      add\n      0x40\n      mstore\n      dup1\n      swap3\n      swap2\n      swap1\n      dup2\n      dup2\n      mstore\n      0x20\n      add\n      dup3\n      dup1\n      sload\n      tag_144\n      swap1\n      tag_124\n      jump\t// in\n    tag_144:\n      dup1\n      iszero\n      tag_145\n      jumpi\n      dup1\n      0x1f\n      lt\n      tag_146\n      jumpi\n      0x0100\n      dup1\n      dup4\n      sload\n      div\n      mul\n      dup4\n      mstore\n      swap2\n      0x20\n      add\n      swap2\n      jump(tag_145)\n    tag_146:\n      dup3\n      add\n      swap2\n      swap1\n      0x00\n      mstore\n      keccak256(0x00, 0x20)\n      swap1\n    tag_147:\n      dup2\n      sload\n      dup2\n      mstore\n      swap1\n      0x01\n      add\n      swap1\n      0x20\n      add\n      dup1\n      dup4\n      gt\n      tag_147\n      jumpi\n      dup3\n      swap1\n      sub\n      0x1f\n      and\n      dup3\n      add\n      swap2\n    tag_145:\n      pop\n      pop\n      pop\n      pop\n      pop\n      swap1\n      dup1\n      0x01\n      add\n      dup1\n      sload\n      tag_148\n      swap1\n      tag_124\n      jump\t// in\n    tag_148:\n      dup1\n      0x1f\n      add\n      0x20\n      dup1\n      swap2\n      div\n      mul\n      0x20\n      add\n      mload(0x40)\n      swap1\n      dup2\n      add\n      0x40\n      mstore\n      dup1\n      swap3\n      swap2\n      swap1\n      dup2\n      dup2\n      mstore\n      0x20\n      add\n      dup3\n      dup1\n      sload\n      tag_149\n      swap1\n      tag_124\n      jump\t// in\n    tag_149:\n      dup1\n      iszero\n      tag_150\n      jumpi\n      dup1\n      0x1f\n      lt\n      tag_151\n      jumpi\n      0x0100\n      dup1\n      dup4\n      sload\n      div\n      mul\n      dup4\n      mstore\n      swap2\n      0x20\n      add\n      swap2\n      jump(tag_150)\n    tag_151:\n      dup3\n      add\n      swap2\n      swap1\n      0x00\n      mstore\n      keccak256(0x00, 0x20)\n      swap1\n    tag_152:\n      dup2\n      sload\n      dup2\n      mstore\n      swap1\n      0x01\n      add\n      swap1\n      0x20\n      add\n      dup1\n      dup4\n      gt\n      tag_152\n      jumpi\n      dup3\n      swap1\n      sub\n      0x1f\n      and\n      dup3\n      add\n      swap2\n    tag_150:\n      pop\n      pop\n      pop\n      pop\n      pop\n      swap1\n      pop\n      dup3\n      jump\t// out\n        /* \"contracts/MyContract.sol\":3020:3080  mapping(address => mapping(uint => Liquor)) public myLiquors */\n    tag_74:\n      mstore(0x20, 0x10)\n      dup2\n      0x00\n      mstore\n      mstore(0x20, keccak256(0x00, 0x40))\n      dup1\n      0x00\n      mstore\n      keccak256(0x00, 0x40)\n      0x00\n      swap2\n      pop\n      swap2\n      pop\n      pop\n      dup1\n      0x00\n      add\n      sload\n      swap1\n      dup1\n      0x01\n      add\n      dup1\n      sload\n      tag_153\n      swap1\n      tag_124\n      jump\t// in\n    tag_153:\n      dup1\n      0x1f\n      add\n      0x20\n      dup1\n      swap2\n      div\n      mul\n      0x20\n      add\n      mload(0x40)\n      swap1\n      dup2\n      add\n      0x40\n      mstore\n      dup1\n      swap3\n      swap2\n      swap1\n      dup2\n      dup2\n      mstore\n      0x20\n      add\n      dup3\n      dup1\n      sload\n      tag_154\n      swap1\n      tag_124\n      jump\t// in\n    tag_154:\n      dup1\n      iszero\n      tag_155\n      jumpi\n      dup1\n      0x1f\n      lt\n      tag_156\n      jumpi\n      0x0100\n      dup1\n      dup4\n      sload\n      div\n      mul\n      dup4\n      mstore\n      swap2\n      0x20\n      add\n      swap2\n      jump(tag_155)\n    tag_156:\n      dup3\n      add\n      swap2\n      swap1\n      0x00\n      mstore\n      keccak256(0x00, 0x20)\n      swap1\n    tag_157:\n      dup2\n      sload\n      dup2\n      mstore\n      swap1\n      0x01\n      add\n      swap1\n      0x20\n      add\n      dup1\n      dup4\n      gt\n      tag_157\n      jumpi\n      dup3\n      swap1\n      sub\n      0x1f\n      and\n      dup3\n      add\n      swap2\n    tag_155:\n      pop\n      pop\n      pop\n      pop\n      pop\n      swap1\n      dup1\n      0x02\n      add\n      dup1\n      sload\n      tag_158\n      swap1\n      tag_124\n      jump\t// in\n    tag_158:\n      dup1\n      0x1f\n      add\n      0x20\n      dup1\n      swap2\n      div\n      mul\n      0x20\n      add\n      mload(0x40)\n      swap1\n      dup2\n      add\n      0x40\n      mstore\n      dup1\n      swap3\n      swap2\n      swap1\n      dup2\n      dup2\n      mstore\n      0x20\n      add\n      dup3\n      dup1\n      sload\n      tag_159\n      swap1\n      tag_124\n      jump\t// in\n    tag_159:\n      dup1\n      iszero\n      tag_160\n      jumpi\n      dup1\n      0x1f\n      lt\n      tag_161\n      jumpi\n      0x0100\n      dup1\n      dup4\n      sload\n      div\n      mul\n      dup4\n      mstore\n      swap2\n      0x20\n      add\n      swap2\n      jump(tag_160)\n    tag_161:\n      dup3\n      add\n      swap2\n      swap1\n      0x00\n      mstore\n      keccak256(0x00, 0x20)\n      swap1\n    tag_162:\n      dup2\n      sload\n      dup2\n      mstore\n      swap1\n      0x01\n      add\n      swap1\n      0x20\n      add\n      dup1\n      dup4\n      gt\n      tag_162\n      jumpi\n      dup3\n      swap1\n      sub\n      0x1f\n      and\n      dup3\n      add\n      swap2\n    tag_160:\n      pop\n      pop\n      pop\n      pop\n      pop\n      swap1\n      dup1\n      0x03\n      add\n      dup1\n      sload\n      tag_163\n      swap1\n      tag_124\n      jump\t// in\n    tag_163:\n      dup1\n      0x1f\n      add\n      0x20\n      dup1\n      swap2\n      div\n      mul\n      0x20\n      add\n      mload(0x40)\n      swap1\n      dup2\n      add\n      0x40\n      mstore\n      dup1\n      swap3\n      swap2\n      swap1\n      dup2\n      dup2\n      mstore\n      0x20\n      add\n      dup3\n      dup1\n      sload\n      tag_164\n      swap1\n      tag_124\n      jump\t// in\n    tag_164:\n      dup1\n      iszero\n      tag_165\n      jumpi\n      dup1\n      0x1f\n      lt\n      tag_166\n      jumpi\n      0x0100\n      dup1\n      dup4\n      sload\n      div\n      mul\n      dup4\n      mstore\n      swap2\n      0x20\n      add\n      swap2\n      jump(tag_165)\n    tag_166:\n      dup3\n      add\n      swap2\n      swap1\n      0x00\n      mstore\n      keccak256(0x00, 0x20)\n      swap1\n    tag_167:\n      dup2\n      sload\n      dup2\n      mstore\n      swap1\n      0x01\n      add\n      swap1\n      0x20\n      add\n      dup1\n      dup4\n      gt\n      tag_167\n      jumpi\n      dup3\n      swap1\n      sub\n      0x1f\n      and\n      dup3\n      add\n      swap2\n    tag_165:\n      pop\n      pop\n      pop\n      pop\n      pop\n      swap1\n      pop\n      dup5\n      jump\t// out\n        /* \"contracts/MyContract.sol\":745:799  MyStruct public myStruct = MyStruct(1, \"Hello world!\") */\n    tag_78:\n      0x06\n      dup1\n      0x00\n      add\n      sload\n      swap1\n      dup1\n      0x01\n      add\n      dup1\n      sload\n      tag_168\n      swap1\n      tag_124\n      jump\t// in\n    tag_168:\n      dup1\n      0x1f\n      add\n      0x20\n      dup1\n      swap2\n      div\n      mul\n      0x20\n      add\n      mload(0x40)\n      swap1\n      dup2\n      add\n      0x40\n      mstore\n      dup1\n      swap3\n      swap2\n      swap1\n      dup2\n      dup2\n      mstore\n      0x20\n      add\n      dup3\n      dup1\n      sload\n      tag_169\n      swap1\n      tag_124\n      jump\t// in\n    tag_169:\n      dup1\n      iszero\n      tag_170\n      jumpi\n      dup1\n      0x1f\n      lt\n      tag_171\n      jumpi\n      0x0100\n      dup1\n      dup4\n      sload\n      div\n      mul\n      dup4\n      mstore\n      swap2\n      0x20\n      add\n      swap2\n      jump(tag_170)\n    tag_171:\n      dup3\n      add\n      swap2\n      swap1\n      0x00\n      mstore\n      keccak256(0x00, 0x20)\n      swap1\n    tag_172:\n      dup2\n      sload\n      dup2\n      mstore\n      swap1\n      0x01\n      add\n      swap1\n      0x20\n      add\n      dup1\n      dup4\n      gt\n      tag_172\n      jumpi\n      dup3\n      swap1\n      sub\n      0x1f\n      and\n      dup3\n      add\n      swap2\n    tag_170:\n      pop\n      pop\n      pop\n      pop\n      pop\n      swap1\n      pop\n      dup3\n      jump\t// out\n        /* \"contracts/MyContract.sol\":2639:2878  function addLiquor(... */\n    tag_84:\n        /* \"contracts/MyContract.sol\":2829:2871  Liquor(_percent, _category, _brand, _name) */\n      mload(0x40)\n      dup1\n      0x80\n      add\n      0x40\n      mstore\n      dup1\n        /* \"contracts/MyContract.sol\":2836:2844  _percent */\n      dup6\n        /* \"contracts/MyContract.sol\":2829:2871  Liquor(_percent, _category, _brand, _name) */\n      dup2\n      mstore\n      0x20\n      add\n        /* \"contracts/MyContract.sol\":2846:2855  _category */\n      dup5\n        /* \"contracts/MyContract.sol\":2829:2871  Liquor(_percent, _category, _brand, _name) */\n      dup2\n      mstore\n      0x20\n      add\n        /* \"contracts/MyContract.sol\":2857:2863  _brand */\n      dup4\n        /* \"contracts/MyContract.sol\":2829:2871  Liquor(_percent, _category, _brand, _name) */\n      dup2\n      mstore\n      0x20\n      add\n        /* \"contracts/MyContract.sol\":2865:2870  _name */\n      dup3\n        /* \"contracts/MyContract.sol\":2829:2871  Liquor(_percent, _category, _brand, _name) */\n      dup2\n      mstore\n      pop\n        /* \"contracts/MyContract.sol\":2814:2821  liquors */\n      0x0f\n        /* \"contracts/MyContract.sol\":2814:2826  liquors[_id] */\n      0x00\n        /* \"contracts/MyContract.sol\":2822:2825  _id */\n      dup8\n        /* \"contracts/MyContract.sol\":2814:2826  liquors[_id] */\n      dup2\n      mstore\n      0x20\n      add\n      swap1\n      dup2\n      mstore\n      0x20\n      add\n      0x00\n      keccak256\n        /* \"contracts/MyContract.sol\":2814:2871  liquors[_id] = Liquor(_percent, _category, _brand, _name) */\n      0x00\n      dup3\n      add\n      mload\n      dup2\n      0x00\n      add\n      sstore\n      0x20\n      dup3\n      add\n      mload\n      dup2\n      0x01\n      add\n      swap1\n      dup2\n      tag_174\n      swap2\n      swap1\n      tag_114\n      jump\t// in\n    tag_174:\n      pop\n      0x40\n      dup3\n      add\n      mload\n      dup2\n      0x02\n      add\n      swap1\n      dup2\n      tag_175\n      swap2\n      swap1\n      tag_114\n      jump\t// in\n    tag_175:\n      pop\n      0x60\n      dup3\n      add\n      mload\n      dup2\n      0x03\n      add\n      swap1\n      dup2\n      tag_176\n      swap2\n      swap1\n      tag_114\n      jump\t// in\n    tag_176:\n      pop\n      swap1\n      pop\n      pop\n        /* \"contracts/MyContract.sol\":2639:2878  function addLiquor(... */\n      pop\n      pop\n      pop\n      pop\n      pop\n      jump\t// out\n        /* \"contracts/MyContract.sol\":821:856  uint[] public uintArray = [1, 2, 3] */\n    tag_87:\n      0x08\n      dup2\n      dup2\n      sload\n      dup2\n      lt\n      tag_177\n      jumpi\n      0x00\n      dup1\n      revert\n    tag_177:\n      swap1\n      0x00\n      mstore\n      keccak256(0x00, 0x20)\n      add\n      0x00\n      swap2\n      pop\n      swap1\n      pop\n      sload\n      dup2\n      jump\t// out\n        /* \"contracts/MyContract.sol\":265:293  uint256 public myUint256 = 1 */\n    tag_90:\n      sload(0x02)\n      dup2\n      jump\t// out\n        /* \"contracts/MyContract.sol\":2594:2632  mapping(uint => Liquor) public liquors */\n    tag_94:\n      mstore(0x20, 0x0f)\n      dup1\n      0x00\n      mstore\n      keccak256(0x00, 0x40)\n      0x00\n      swap2\n      pop\n      swap1\n      pop\n      dup1\n      0x00\n      add\n      sload\n      swap1\n      dup1\n      0x01\n      add\n      dup1\n      sload\n      tag_179\n      swap1\n      tag_124\n      jump\t// in\n    tag_179:\n      dup1\n      0x1f\n      add\n      0x20\n      dup1\n      swap2\n      div\n      mul\n      0x20\n      add\n      mload(0x40)\n      swap1\n      dup2\n      add\n      0x40\n      mstore\n      dup1\n      swap3\n      swap2\n      swap1\n      dup2\n      dup2\n      mstore\n      0x20\n      add\n      dup3\n      dup1\n      sload\n      tag_180\n      swap1\n      tag_124\n      jump\t// in\n    tag_180:\n      dup1\n      iszero\n      tag_181\n      jumpi\n      dup1\n      0x1f\n      lt\n      tag_182\n      jumpi\n      0x0100\n      dup1\n      dup4\n      sload\n      div\n      mul\n      dup4\n      mstore\n      swap2\n      0x20\n      add\n      swap2\n      jump(tag_181)\n    tag_182:\n      dup3\n      add\n      swap2\n      swap1\n      0x00\n      mstore\n      keccak256(0x00, 0x20)\n      swap1\n    tag_183:\n      dup2\n      sload\n      dup2\n      mstore\n      swap1\n      0x01\n      add\n      swap1\n      0x20\n      add\n      dup1\n      dup4\n      gt\n      tag_183\n      jumpi\n      dup3\n      swap1\n      sub\n      0x1f\n      and\n      dup3\n      add\n      swap2\n    tag_181:\n      pop\n      pop\n      pop\n      pop\n      pop\n      swap1\n      dup1\n      0x02\n      add\n      dup1\n      sload\n      tag_184\n      swap1\n      tag_124\n      jump\t// in\n    tag_184:\n      dup1\n      0x1f\n      add\n      0x20\n      dup1\n      swap2\n      div\n      mul\n      0x20\n      add\n      mload(0x40)\n      swap1\n      dup2\n      add\n      0x40\n      mstore\n      dup1\n      swap3\n      swap2\n      swap1\n      dup2\n      dup2\n      mstore\n      0x20\n      add\n      dup3\n      dup1\n      sload\n      tag_185\n      swap1\n      tag_124\n      jump\t// in\n    tag_185:\n      dup1\n      iszero\n      tag_186\n      jumpi\n      dup1\n      0x1f\n      lt\n      tag_187\n      jumpi\n      0x0100\n      dup1\n      dup4\n      sload\n      div\n      mul\n      dup4\n      mstore\n      swap2\n      0x20\n      add\n      swap2\n      jump(tag_186)\n    tag_187:\n      dup3\n      add\n      swap2\n      swap1\n      0x00\n      mstore\n      keccak256(0x00, 0x20)\n      swap1\n    tag_188:\n      dup2\n      sload\n      dup2\n      mstore\n      swap1\n      0x01\n      add\n      swap1\n      0x20\n      add\n      dup1\n      dup4\n      gt\n      tag_188\n      jumpi\n      dup3\n      swap1\n      sub\n      0x1f\n      and\n      dup3\n      add\n      swap2\n    tag_186:\n      pop\n      pop\n      pop\n      pop\n      pop\n      swap1\n      dup1\n      0x03\n      add\n      dup1\n      sload\n      tag_189\n      swap1\n      tag_124\n      jump\t// in\n    tag_189:\n      dup1\n      0x1f\n      add\n      0x20\n      dup1\n      swap2\n      div\n      mul\n      0x20\n      add\n      mload(0x40)\n      swap1\n      dup2\n      add\n      0x40\n      mstore\n      dup1\n      swap3\n      swap2\n      swap1\n      dup2\n      dup2\n      mstore\n      0x20\n      add\n      dup3\n      dup1\n      sload\n      tag_190\n      swap1\n      tag_124\n      jump\t// in\n    tag_190:\n      dup1\n      iszero\n      tag_191\n      jumpi\n      dup1\n      0x1f\n      lt\n      tag_192\n      jumpi\n      0x0100\n      dup1\n      dup4\n      sload\n      div\n      mul\n      dup4\n      mstore\n      swap2\n      0x20\n      add\n      swap2\n      jump(tag_191)\n    tag_192:\n      dup3\n      add\n      swap2\n      swap1\n      0x00\n      mstore\n      keccak256(0x00, 0x20)\n      swap1\n    tag_193:\n      dup2\n      sload\n      dup2\n      mstore\n      swap1\n      0x01\n      add\n      swap1\n      0x20\n      add\n      dup1\n      dup4\n      gt\n      tag_193\n      jumpi\n      dup3\n      swap1\n      sub\n      0x1f\n      and\n      dup3\n      add\n      swap2\n    tag_191:\n      pop\n      pop\n      pop\n      pop\n      pop\n      swap1\n      pop\n      dup5\n      jump\t// out\n        /* \"contracts/MyContract.sol\":2175:2211  mapping(uint => Fruit) public fruits */\n    tag_98:\n      mstore(0x20, 0x0e)\n      dup1\n      0x00\n      mstore\n      keccak256(0x00, 0x40)\n      0x00\n      swap2\n      pop\n      swap1\n      pop\n      dup1\n      0x00\n      add\n      dup1\n      sload\n      tag_194\n      swap1\n      tag_124\n      jump\t// in\n    tag_194:\n      dup1\n      0x1f\n      add\n      0x20\n      dup1\n      swap2\n      div\n      mul\n      0x20\n      add\n      mload(0x40)\n      swap1\n      dup2\n      add\n      0x40\n      mstore\n      dup1\n      swap3\n      swap2\n      swap1\n      dup2\n      dup2\n      mstore\n      0x20\n      add\n      dup3\n      dup1\n      sload\n      tag_195\n      swap1\n      tag_124\n      jump\t// in\n    tag_195:\n      dup1\n      iszero\n      tag_196\n      jumpi\n      dup1\n      0x1f\n      lt\n      tag_197\n      jumpi\n      0x0100\n      dup1\n      dup4\n      sload\n      div\n      mul\n      dup4\n      mstore\n      swap2\n      0x20\n      add\n      swap2\n      jump(tag_196)\n    tag_197:\n      dup3\n      add\n      swap2\n      swap1\n      0x00\n      mstore\n      keccak256(0x00, 0x20)\n      swap1\n    tag_198:\n      dup2\n      sload\n      dup2\n      mstore\n      swap1\n      0x01\n      add\n      swap1\n      0x20\n      add\n      dup1\n      dup4\n      gt\n      tag_198\n      jumpi\n      dup3\n      swap1\n      sub\n      0x1f\n      and\n      dup3\n      add\n      swap2\n    tag_196:\n      pop\n      pop\n      pop\n      pop\n      pop\n      swap1\n      dup1\n      0x01\n      add\n      dup1\n      sload\n      tag_199\n      swap1\n      tag_124\n      jump\t// in\n    tag_199:\n      dup1\n      0x1f\n      add\n      0x20\n      dup1\n      swap2\n      div\n      mul\n      0x20\n      add\n      mload(0x40)\n      swap1\n      dup2\n      add\n      0x40\n      mstore\n      dup1\n      swap3\n      swap2\n      swap1\n      dup2\n      dup2\n      mstore\n      0x20\n      add\n      dup3\n      dup1\n      sload\n      tag_200\n      swap1\n      tag_124\n      jump\t// in\n    tag_200:\n      dup1\n      iszero\n      tag_201\n      jumpi\n      dup1\n      0x1f\n      lt\n      tag_202\n      jumpi\n      0x0100\n      dup1\n      dup4\n      sload\n      div\n      mul\n      dup4\n      mstore\n      swap2\n      0x20\n      add\n      swap2\n      jump(tag_201)\n    tag_202:\n      dup3\n      add\n      swap2\n      swap1\n      0x00\n      mstore\n      keccak256(0x00, 0x20)\n      swap1\n    tag_203:\n      dup2\n      sload\n      dup2\n      mstore\n      swap1\n      0x01\n      add\n      swap1\n      0x20\n      add\n      dup1\n      dup4\n      gt\n      tag_203\n      jumpi\n      dup3\n      swap1\n      sub\n      0x1f\n      and\n      dup3\n      add\n      swap2\n    tag_201:\n      pop\n      pop\n      pop\n      pop\n      pop\n      swap1\n      pop\n      dup3\n      jump\t// out\n        /* \"contracts/MyContract.sol\":970:1021  uint256[][] public array2D = [[1, 2, 3], [4, 5, 6]] */\n    tag_103:\n      0x0b\n      dup3\n      dup2\n      sload\n      dup2\n      lt\n      tag_204\n      jumpi\n      0x00\n      dup1\n      revert\n    tag_204:\n      swap1\n      0x00\n      mstore\n      keccak256(0x00, 0x20)\n      add\n      dup2\n      dup2\n      sload\n      dup2\n      lt\n      tag_206\n      jumpi\n      0x00\n      dup1\n      revert\n    tag_206:\n      swap1\n      0x00\n      mstore\n      keccak256(0x00, 0x20)\n      add\n      0x00\n      swap2\n      pop\n      swap2\n      pop\n      pop\n      sload\n      dup2\n      jump\t// out\n        /* \"contracts/MyContract.sol\":3091:3440  function addMyLiquor(... */\n    tag_107:\n        /* \"contracts/MyContract.sol\":3391:3433  Liquor(_percent, _category, _brand, _name) */\n      mload(0x40)\n      dup1\n      0x80\n      add\n      0x40\n      mstore\n      dup1\n        /* \"contracts/MyContract.sol\":3398:3406  _percent */\n      dup6\n        /* \"contracts/MyContract.sol\":3391:3433  Liquor(_percent, _category, _brand, _name) */\n      dup2\n      mstore\n      0x20\n      add\n        /* \"contracts/MyContract.sol\":3408:3417  _category */\n      dup5\n        /* \"contracts/MyContract.sol\":3391:3433  Liquor(_percent, _category, _brand, _name) */\n      dup2\n      mstore\n      0x20\n      add\n        /* \"contracts/MyContract.sol\":3419:3425  _brand */\n      dup4\n        /* \"contracts/MyContract.sol\":3391:3433  Liquor(_percent, _category, _brand, _name) */\n      dup2\n      mstore\n      0x20\n      add\n        /* \"contracts/MyContract.sol\":3427:3432  _name */\n      dup3\n        /* \"contracts/MyContract.sol\":3391:3433  Liquor(_percent, _category, _brand, _name) */\n      dup2\n      mstore\n      pop\n        /* \"contracts/MyContract.sol\":3362:3371  myLiquors */\n      0x10\n        /* \"contracts/MyContract.sol\":3362:3383  myLiquors[msg.sender] */\n      0x00\n        /* \"contracts/MyContract.sol\":3372:3382  msg.sender */\n      caller\n        /* \"contracts/MyContract.sol\":3362:3383  myLiquors[msg.sender] */\n      0xffffffffffffffffffffffffffffffffffffffff\n      and\n      0xffffffffffffffffffffffffffffffffffffffff\n      and\n      dup2\n      mstore\n      0x20\n      add\n      swap1\n      dup2\n      mstore\n      0x20\n      add\n      0x00\n      keccak256\n        /* \"contracts/MyContract.sol\":3362:3388  myLiquors[msg.sender][_id] */\n      0x00\n        /* \"contracts/MyContract.sol\":3384:3387  _id */\n      dup8\n        /* \"contracts/MyContract.sol\":3362:3388  myLiquors[msg.sender][_id] */\n      dup2\n      mstore\n      0x20\n      add\n      swap1\n      dup2\n      mstore\n      0x20\n      add\n      0x00\n      keccak256\n        /* \"contracts/MyContract.sol\":3362:3433  myLiquors[msg.sender][_id] = Liquor(_percent, _category, _brand, _name) */\n      0x00\n      dup3\n      add\n      mload\n      dup2\n      0x00\n      add\n      sstore\n      0x20\n      dup3\n      add\n      mload\n      dup2\n      0x01\n      add\n      swap1\n      dup2\n      tag_209\n      swap2\n      swap1\n      tag_114\n      jump\t// in\n    tag_209:\n      pop\n      0x40\n      dup3\n      add\n      mload\n      dup2\n      0x02\n      add\n      swap1\n      dup2\n      tag_210\n      swap2\n      swap1\n      tag_114\n      jump\t// in\n    tag_210:\n      pop\n      0x60\n      dup3\n      add\n      mload\n      dup2\n      0x03\n      add\n      swap1\n      dup2\n      tag_211\n      swap2\n      swap1\n      tag_114\n      jump\t// in\n    tag_211:\n      pop\n      swap1\n      pop\n      pop\n        /* \"contracts/MyContract.sol\":3091:3440  function addMyLiquor(... */\n      pop\n      pop\n      pop\n      pop\n      pop\n      jump\t// out\n        /* \"contracts/MyContract.sol\":301:325  uint8 public myUint8 = 1 */\n    tag_109:\n      0x03\n      0x00\n      swap1\n      sload\n      swap1\n      0x0100\n      exp\n      swap1\n      div\n      0xff\n      and\n      dup2\n      jump\t// out\n        /* \"#utility.yul\":7:82   */\n    tag_212:\n        /* \"#utility.yul\":40:46   */\n      0x00\n        /* \"#utility.yul\":73:75   */\n      0x40\n        /* \"#utility.yul\":67:76   */\n      mload\n        /* \"#utility.yul\":57:76   */\n      swap1\n      pop\n        /* \"#utility.yul\":7:82   */\n      swap1\n      jump\t// out\n        /* \"#utility.yul\":88:205   */\n    tag_213:\n        /* \"#utility.yul\":197:198   */\n      0x00\n        /* \"#utility.yul\":194:195   */\n      dup1\n        /* \"#utility.yul\":187:199   */\n      revert\n        /* \"#utility.yul\":211:328   */\n    tag_214:\n        /* \"#utility.yul\":320:321   */\n      0x00\n        /* \"#utility.yul\":317:318   */\n      dup1\n        /* \"#utility.yul\":310:322   */\n      revert\n        /* \"#utility.yul\":334:411   */\n    tag_215:\n        /* \"#utility.yul\":371:378   */\n      0x00\n        /* \"#utility.yul\":400:405   */\n      dup2\n        /* \"#utility.yul\":389:405   */\n      swap1\n      pop\n        /* \"#utility.yul\":334:411   */\n      swap2\n      swap1\n      pop\n      jump\t// out\n        /* \"#utility.yul\":417:539   */\n    tag_216:\n        /* \"#utility.yul\":490:514   */\n      tag_265\n        /* \"#utility.yul\":508:513   */\n      dup2\n        /* \"#utility.yul\":490:514   */\n      tag_215\n      jump\t// in\n    tag_265:\n        /* \"#utility.yul\":483:488   */\n      dup2\n        /* \"#utility.yul\":480:515   */\n      eq\n        /* \"#utility.yul\":470:533   */\n      tag_266\n      jumpi\n        /* \"#utility.yul\":529:530   */\n      0x00\n        /* \"#utility.yul\":526:527   */\n      dup1\n        /* \"#utility.yul\":519:531   */\n      revert\n        /* \"#utility.yul\":470:533   */\n    tag_266:\n        /* \"#utility.yul\":417:539   */\n      pop\n      jump\t// out\n        /* \"#utility.yul\":545:684   */\n    tag_217:\n        /* \"#utility.yul\":591:596   */\n      0x00\n        /* \"#utility.yul\":629:635   */\n      dup2\n        /* \"#utility.yul\":616:636   */\n      calldataload\n        /* \"#utility.yul\":607:636   */\n      swap1\n      pop\n        /* \"#utility.yul\":645:678   */\n      tag_268\n        /* \"#utility.yul\":672:677   */\n      dup2\n        /* \"#utility.yul\":645:678   */\n      tag_216\n      jump\t// in\n    tag_268:\n        /* \"#utility.yul\":545:684   */\n      swap3\n      swap2\n      pop\n      pop\n      jump\t// out\n        /* \"#utility.yul\":690:807   */\n    tag_218:\n        /* \"#utility.yul\":799:800   */\n      0x00\n        /* \"#utility.yul\":796:797   */\n      dup1\n        /* \"#utility.yul\":789:801   */\n      revert\n        /* \"#utility.yul\":813:930   */\n    tag_219:\n        /* \"#utility.yul\":922:923   */\n      0x00\n        /* \"#utility.yul\":919:920   */\n      dup1\n        /* \"#utility.yul\":912:924   */\n      revert\n        /* \"#utility.yul\":936:1038   */\n    tag_220:\n        /* \"#utility.yul\":977:983   */\n      0x00\n        /* \"#utility.yul\":1028:1030   */\n      0x1f\n        /* \"#utility.yul\":1024:1031   */\n      not\n        /* \"#utility.yul\":1019:1021   */\n      0x1f\n        /* \"#utility.yul\":1012:1017   */\n      dup4\n        /* \"#utility.yul\":1008:1022   */\n      add\n        /* \"#utility.yul\":1004:1032   */\n      and\n        /* \"#utility.yul\":994:1032   */\n      swap1\n      pop\n        /* \"#utility.yul\":936:1038   */\n      swap2\n      swap1\n      pop\n      jump\t// out\n        /* \"#utility.yul\":1044:1224   */\n    tag_221:\n        /* \"#utility.yul\":1092:1169   */\n      0x4e487b7100000000000000000000000000000000000000000000000000000000\n        /* \"#utility.yul\":1089:1090   */\n      0x00\n        /* \"#utility.yul\":1082:1170   */\n      mstore\n        /* \"#utility.yul\":1189:1193   */\n      0x41\n        /* \"#utility.yul\":1186:1187   */\n      0x04\n        /* \"#utility.yul\":1179:1194   */\n      mstore\n        /* \"#utility.yul\":1213:1217   */\n      0x24\n        /* \"#utility.yul\":1210:1211   */\n      0x00\n        /* \"#utility.yul\":1203:1218   */\n      revert\n        /* \"#utility.yul\":1230:1511   */\n    tag_222:\n        /* \"#utility.yul\":1313:1340   */\n      tag_274\n        /* \"#utility.yul\":1335:1339   */\n      dup3\n        /* \"#utility.yul\":1313:1340   */\n      tag_220\n      jump\t// in\n    tag_274:\n        /* \"#utility.yul\":1305:1311   */\n      dup2\n        /* \"#utility.yul\":1301:1341   */\n      add\n        /* \"#utility.yul\":1443:1449   */\n      dup2\n        /* \"#utility.yul\":1431:1441   */\n      dup2\n        /* \"#utility.yul\":1428:1450   */\n      lt\n        /* \"#utility.yul\":1407:1425   */\n      0xffffffffffffffff\n        /* \"#utility.yul\":1395:1405   */\n      dup3\n        /* \"#utility.yul\":1392:1426   */\n      gt\n        /* \"#utility.yul\":1389:1451   */\n      or\n        /* \"#utility.yul\":1386:1474   */\n      iszero\n      tag_275\n      jumpi\n        /* \"#utility.yul\":1454:1472   */\n      tag_276\n      tag_221\n      jump\t// in\n    tag_276:\n        /* \"#utility.yul\":1386:1474   */\n    tag_275:\n        /* \"#utility.yul\":1494:1504   */\n      dup1\n        /* \"#utility.yul\":1490:1492   */\n      0x40\n        /* \"#utility.yul\":1483:1505   */\n      mstore\n        /* \"#utility.yul\":1273:1511   */\n      pop\n        /* \"#utility.yul\":1230:1511   */\n      pop\n      pop\n      jump\t// out\n        /* \"#utility.yul\":1517:1646   */\n    tag_223:\n        /* \"#utility.yul\":1551:1557   */\n      0x00\n        /* \"#utility.yul\":1578:1598   */\n      tag_278\n      tag_212\n      jump\t// in\n    tag_278:\n        /* \"#utility.yul\":1568:1598   */\n      swap1\n      pop\n        /* \"#utility.yul\":1607:1640   */\n      tag_279\n        /* \"#utility.yul\":1635:1639   */\n      dup3\n        /* \"#utility.yul\":1627:1633   */\n      dup3\n        /* \"#utility.yul\":1607:1640   */\n      tag_222\n      jump\t// in\n    tag_279:\n        /* \"#utility.yul\":1517:1646   */\n      swap2\n      swap1\n      pop\n      jump\t// out\n        /* \"#utility.yul\":1652:1960   */\n    tag_224:\n        /* \"#utility.yul\":1714:1718   */\n      0x00\n        /* \"#utility.yul\":1804:1822   */\n      0xffffffffffffffff\n        /* \"#utility.yul\":1796:1802   */\n      dup3\n        /* \"#utility.yul\":1793:1823   */\n      gt\n        /* \"#utility.yul\":1790:1846   */\n      iszero\n      tag_281\n      jumpi\n        /* \"#utility.yul\":1826:1844   */\n      tag_282\n      tag_221\n      jump\t// in\n    tag_282:\n        /* \"#utility.yul\":1790:1846   */\n    tag_281:\n        /* \"#utility.yul\":1864:1893   */\n      tag_283\n        /* \"#utility.yul\":1886:1892   */\n      dup3\n        /* \"#utility.yul\":1864:1893   */\n      tag_220\n      jump\t// in\n    tag_283:\n        /* \"#utility.yul\":1856:1893   */\n      swap1\n      pop\n        /* \"#utility.yul\":1948:1952   */\n      0x20\n        /* \"#utility.yul\":1942:1946   */\n      dup2\n        /* \"#utility.yul\":1938:1953   */\n      add\n        /* \"#utility.yul\":1930:1953   */\n      swap1\n      pop\n        /* \"#utility.yul\":1652:1960   */\n      swap2\n      swap1\n      pop\n      jump\t// out\n        /* \"#utility.yul\":1966:2112   */\n    tag_225:\n        /* \"#utility.yul\":2063:2069   */\n      dup3\n        /* \"#utility.yul\":2058:2061   */\n      dup2\n        /* \"#utility.yul\":2053:2056   */\n      dup4\n        /* \"#utility.yul\":2040:2070   */\n      calldatacopy\n        /* \"#utility.yul\":2104:2105   */\n      0x00\n        /* \"#utility.yul\":2095:2101   */\n      dup4\n        /* \"#utility.yul\":2090:2093   */\n      dup4\n        /* \"#utility.yul\":2086:2102   */\n      add\n        /* \"#utility.yul\":2079:2106   */\n      mstore\n        /* \"#utility.yul\":1966:2112   */\n      pop\n      pop\n      pop\n      jump\t// out\n        /* \"#utility.yul\":2118:2543   */\n    tag_226:\n        /* \"#utility.yul\":2196:2201   */\n      0x00\n        /* \"#utility.yul\":2221:2287   */\n      tag_286\n        /* \"#utility.yul\":2237:2286   */\n      tag_287\n        /* \"#utility.yul\":2279:2285   */\n      dup5\n        /* \"#utility.yul\":2237:2286   */\n      tag_224\n      jump\t// in\n    tag_287:\n        /* \"#utility.yul\":2221:2287   */\n      tag_223\n      jump\t// in\n    tag_286:\n        /* \"#utility.yul\":2212:2287   */\n      swap1\n      pop\n        /* \"#utility.yul\":2310:2316   */\n      dup3\n        /* \"#utility.yul\":2303:2308   */\n      dup2\n        /* \"#utility.yul\":2296:2317   */\n      mstore\n        /* \"#utility.yul\":2348:2352   */\n      0x20\n        /* \"#utility.yul\":2341:2346   */\n      dup2\n        /* \"#utility.yul\":2337:2353   */\n      add\n        /* \"#utility.yul\":2386:2389   */\n      dup5\n        /* \"#utility.yul\":2377:2383   */\n      dup5\n        /* \"#utility.yul\":2372:2375   */\n      dup5\n        /* \"#utility.yul\":2368:2384   */\n      add\n        /* \"#utility.yul\":2365:2390   */\n      gt\n        /* \"#utility.yul\":2362:2474   */\n      iszero\n      tag_288\n      jumpi\n        /* \"#utility.yul\":2393:2472   */\n      tag_289\n      tag_219\n      jump\t// in\n    tag_289:\n        /* \"#utility.yul\":2362:2474   */\n    tag_288:\n        /* \"#utility.yul\":2483:2537   */\n      tag_290\n        /* \"#utility.yul\":2530:2536   */\n      dup5\n        /* \"#utility.yul\":2525:2528   */\n      dup3\n        /* \"#utility.yul\":2520:2523   */\n      dup6\n        /* \"#utility.yul\":2483:2537   */\n      tag_225\n      jump\t// in\n    tag_290:\n        /* \"#utility.yul\":2202:2543   */\n      pop\n        /* \"#utility.yul\":2118:2543   */\n      swap4\n      swap3\n      pop\n      pop\n      pop\n      jump\t// out\n        /* \"#utility.yul\":2563:2903   */\n    tag_227:\n        /* \"#utility.yul\":2619:2624   */\n      0x00\n        /* \"#utility.yul\":2668:2671   */\n      dup3\n        /* \"#utility.yul\":2661:2665   */\n      0x1f\n        /* \"#utility.yul\":2653:2659   */\n      dup4\n        /* \"#utility.yul\":2649:2666   */\n      add\n        /* \"#utility.yul\":2645:2672   */\n      slt\n        /* \"#utility.yul\":2635:2757   */\n      tag_292\n      jumpi\n        /* \"#utility.yul\":2676:2755   */\n      tag_293\n      tag_218\n      jump\t// in\n    tag_293:\n        /* \"#utility.yul\":2635:2757   */\n    tag_292:\n        /* \"#utility.yul\":2793:2799   */\n      dup2\n        /* \"#utility.yul\":2780:2800   */\n      calldataload\n        /* \"#utility.yul\":2818:2897   */\n      tag_294\n        /* \"#utility.yul\":2893:2896   */\n      dup5\n        /* \"#utility.yul\":2885:2891   */\n      dup3\n        /* \"#utility.yul\":2878:2882   */\n      0x20\n        /* \"#utility.yul\":2870:2876   */\n      dup7\n        /* \"#utility.yul\":2866:2883   */\n      add\n        /* \"#utility.yul\":2818:2897   */\n      tag_226\n      jump\t// in\n    tag_294:\n        /* \"#utility.yul\":2809:2897   */\n      swap2\n      pop\n        /* \"#utility.yul\":2625:2903   */\n      pop\n        /* \"#utility.yul\":2563:2903   */\n      swap3\n      swap2\n      pop\n      pop\n      jump\t// out\n        /* \"#utility.yul\":2909:3888   */\n    tag_29:\n        /* \"#utility.yul\":3006:3012   */\n      0x00\n        /* \"#utility.yul\":3014:3020   */\n      dup1\n        /* \"#utility.yul\":3022:3028   */\n      0x00\n        /* \"#utility.yul\":3071:3073   */\n      0x60\n        /* \"#utility.yul\":3059:3068   */\n      dup5\n        /* \"#utility.yul\":3050:3057   */\n      dup7\n        /* \"#utility.yul\":3046:3069   */\n      sub\n        /* \"#utility.yul\":3042:3074   */\n      slt\n        /* \"#utility.yul\":3039:3158   */\n      iszero\n      tag_296\n      jumpi\n        /* \"#utility.yul\":3077:3156   */\n      tag_297\n      tag_213\n      jump\t// in\n    tag_297:\n        /* \"#utility.yul\":3039:3158   */\n    tag_296:\n        /* \"#utility.yul\":3197:3198   */\n      0x00\n        /* \"#utility.yul\":3222:3275   */\n      tag_298\n        /* \"#utility.yul\":3267:3274   */\n      dup7\n        /* \"#utility.yul\":3258:3264   */\n      dup3\n        /* \"#utility.yul\":3247:3256   */\n      dup8\n        /* \"#utility.yul\":3243:3265   */\n      add\n        /* \"#utility.yul\":3222:3275   */\n      tag_217\n      jump\t// in\n    tag_298:\n        /* \"#utility.yul\":3212:3275   */\n      swap4\n      pop\n        /* \"#utility.yul\":3168:3285   */\n      pop\n        /* \"#utility.yul\":3352:3354   */\n      0x20\n        /* \"#utility.yul\":3341:3350   */\n      dup5\n        /* \"#utility.yul\":3337:3355   */\n      add\n        /* \"#utility.yul\":3324:3356   */\n      calldataload\n        /* \"#utility.yul\":3383:3401   */\n      0xffffffffffffffff\n        /* \"#utility.yul\":3375:3381   */\n      dup2\n        /* \"#utility.yul\":3372:3402   */\n      gt\n        /* \"#utility.yul\":3369:3486   */\n      iszero\n      tag_299\n      jumpi\n        /* \"#utility.yul\":3405:3484   */\n      tag_300\n      tag_214\n      jump\t// in\n    tag_300:\n        /* \"#utility.yul\":3369:3486   */\n    tag_299:\n        /* \"#utility.yul\":3510:3573   */\n      tag_301\n        /* \"#utility.yul\":3565:3572   */\n      dup7\n        /* \"#utility.yul\":3556:3562   */\n      dup3\n        /* \"#utility.yul\":3545:3554   */\n      dup8\n        /* \"#utility.yul\":3541:3563   */\n      add\n        /* \"#utility.yul\":3510:3573   */\n      tag_227\n      jump\t// in\n    tag_301:\n        /* \"#utility.yul\":3500:3573   */\n      swap3\n      pop\n        /* \"#utility.yul\":3295:3583   */\n      pop\n        /* \"#utility.yul\":3650:3652   */\n      0x40\n        /* \"#utility.yul\":3639:3648   */\n      dup5\n        /* \"#utility.yul\":3635:3653   */\n      add\n        /* \"#utility.yul\":3622:3654   */\n      calldataload\n        /* \"#utility.yul\":3681:3699   */\n      0xffffffffffffffff\n        /* \"#utility.yul\":3673:3679   */\n      dup2\n        /* \"#utility.yul\":3670:3700   */\n      gt\n        /* \"#utility.yul\":3667:3784   */\n      iszero\n      tag_302\n      jumpi\n        /* \"#utility.yul\":3703:3782   */\n      tag_303\n      tag_214\n      jump\t// in\n    tag_303:\n        /* \"#utility.yul\":3667:3784   */\n    tag_302:\n        /* \"#utility.yul\":3808:3871   */\n      tag_304\n        /* \"#utility.yul\":3863:3870   */\n      dup7\n        /* \"#utility.yul\":3854:3860   */\n      dup3\n        /* \"#utility.yul\":3843:3852   */\n      dup8\n        /* \"#utility.yul\":3839:3861   */\n      add\n        /* \"#utility.yul\":3808:3871   */\n      tag_227\n      jump\t// in\n    tag_304:\n        /* \"#utility.yul\":3798:3871   */\n      swap2\n      pop\n        /* \"#utility.yul\":3593:3881   */\n      pop\n        /* \"#utility.yul\":2909:3888   */\n      swap3\n      pop\n      swap3\n      pop\n      swap3\n      jump\t// out\n        /* \"#utility.yul\":3894:4012   */\n    tag_228:\n        /* \"#utility.yul\":3981:4005   */\n      tag_306\n        /* \"#utility.yul\":3999:4004   */\n      dup2\n        /* \"#utility.yul\":3981:4005   */\n      tag_215\n      jump\t// in\n    tag_306:\n        /* \"#utility.yul\":3976:3979   */\n      dup3\n        /* \"#utility.yul\":3969:4006   */\n      mstore\n        /* \"#utility.yul\":3894:4012   */\n      pop\n      pop\n      jump\t// out\n        /* \"#utility.yul\":4018:4240   */\n    tag_34:\n        /* \"#utility.yul\":4111:4115   */\n      0x00\n        /* \"#utility.yul\":4149:4151   */\n      0x20\n        /* \"#utility.yul\":4138:4147   */\n      dup3\n        /* \"#utility.yul\":4134:4152   */\n      add\n        /* \"#utility.yul\":4126:4152   */\n      swap1\n      pop\n        /* \"#utility.yul\":4162:4233   */\n      tag_308\n        /* \"#utility.yul\":4230:4231   */\n      0x00\n        /* \"#utility.yul\":4219:4228   */\n      dup4\n        /* \"#utility.yul\":4215:4232   */\n      add\n        /* \"#utility.yul\":4206:4212   */\n      dup5\n        /* \"#utility.yul\":4162:4233   */\n      tag_228\n      jump\t// in\n    tag_308:\n        /* \"#utility.yul\":4018:4240   */\n      swap3\n      swap2\n      pop\n      pop\n      jump\t// out\n        /* \"#utility.yul\":4246:4322   */\n    tag_229:\n        /* \"#utility.yul\":4282:4289   */\n      0x00\n        /* \"#utility.yul\":4311:4316   */\n      dup2\n        /* \"#utility.yul\":4300:4316   */\n      swap1\n      pop\n        /* \"#utility.yul\":4246:4322   */\n      swap2\n      swap1\n      pop\n      jump\t// out\n        /* \"#utility.yul\":4328:4443   */\n    tag_230:\n        /* \"#utility.yul\":4413:4436   */\n      tag_311\n        /* \"#utility.yul\":4430:4435   */\n      dup2\n        /* \"#utility.yul\":4413:4436   */\n      tag_229\n      jump\t// in\n    tag_311:\n        /* \"#utility.yul\":4408:4411   */\n      dup3\n        /* \"#utility.yul\":4401:4437   */\n      mstore\n        /* \"#utility.yul\":4328:4443   */\n      pop\n      pop\n      jump\t// out\n        /* \"#utility.yul\":4449:4667   */\n    tag_44:\n        /* \"#utility.yul\":4540:4544   */\n      0x00\n        /* \"#utility.yul\":4578:4580   */\n      0x20\n        /* \"#utility.yul\":4567:4576   */\n      dup3\n        /* \"#utility.yul\":4563:4581   */\n      add\n        /* \"#utility.yul\":4555:4581   */\n      swap1\n      pop\n        /* \"#utility.yul\":4591:4660   */\n      tag_313\n        /* \"#utility.yul\":4657:4658   */\n      0x00\n        /* \"#utility.yul\":4646:4655   */\n      dup4\n        /* \"#utility.yul\":4642:4659   */\n      add\n        /* \"#utility.yul\":4633:4639   */\n      dup5\n        /* \"#utility.yul\":4591:4660   */\n      tag_230\n      jump\t// in\n    tag_313:\n        /* \"#utility.yul\":4449:4667   */\n      swap3\n      swap2\n      pop\n      pop\n      jump\t// out\n        /* \"#utility.yul\":4673:5182   */\n    tag_47:\n        /* \"#utility.yul\":4742:4748   */\n      0x00\n        /* \"#utility.yul\":4791:4793   */\n      0x20\n        /* \"#utility.yul\":4779:4788   */\n      dup3\n        /* \"#utility.yul\":4770:4777   */\n      dup5\n        /* \"#utility.yul\":4766:4789   */\n      sub\n        /* \"#utility.yul\":4762:4794   */\n      slt\n        /* \"#utility.yul\":4759:4878   */\n      iszero\n      tag_315\n      jumpi\n        /* \"#utility.yul\":4797:4876   */\n      tag_316\n      tag_213\n      jump\t// in\n    tag_316:\n        /* \"#utility.yul\":4759:4878   */\n    tag_315:\n        /* \"#utility.yul\":4945:4946   */\n      0x00\n        /* \"#utility.yul\":4934:4943   */\n      dup3\n        /* \"#utility.yul\":4930:4947   */\n      add\n        /* \"#utility.yul\":4917:4948   */\n      calldataload\n        /* \"#utility.yul\":4975:4993   */\n      0xffffffffffffffff\n        /* \"#utility.yul\":4967:4973   */\n      dup2\n        /* \"#utility.yul\":4964:4994   */\n      gt\n        /* \"#utility.yul\":4961:5078   */\n      iszero\n      tag_317\n      jumpi\n        /* \"#utility.yul\":4997:5076   */\n      tag_318\n      tag_214\n      jump\t// in\n    tag_318:\n        /* \"#utility.yul\":4961:5078   */\n    tag_317:\n        /* \"#utility.yul\":5102:5165   */\n      tag_319\n        /* \"#utility.yul\":5157:5164   */\n      dup5\n        /* \"#utility.yul\":5148:5154   */\n      dup3\n        /* \"#utility.yul\":5137:5146   */\n      dup6\n        /* \"#utility.yul\":5133:5155   */\n      add\n        /* \"#utility.yul\":5102:5165   */\n      tag_227\n      jump\t// in\n    tag_319:\n        /* \"#utility.yul\":5092:5165   */\n      swap2\n      pop\n        /* \"#utility.yul\":4888:5175   */\n      pop\n        /* \"#utility.yul\":4673:5182   */\n      swap3\n      swap2\n      pop\n      pop\n      jump\t// out\n        /* \"#utility.yul\":5188:5287   */\n    tag_231:\n        /* \"#utility.yul\":5240:5246   */\n      0x00\n        /* \"#utility.yul\":5274:5279   */\n      dup2\n        /* \"#utility.yul\":5268:5280   */\n      mload\n        /* \"#utility.yul\":5258:5280   */\n      swap1\n      pop\n        /* \"#utility.yul\":5188:5287   */\n      swap2\n      swap1\n      pop\n      jump\t// out\n        /* \"#utility.yul\":5293:5462   */\n    tag_232:\n        /* \"#utility.yul\":5377:5388   */\n      0x00\n        /* \"#utility.yul\":5411:5417   */\n      dup3\n        /* \"#utility.yul\":5406:5409   */\n      dup3\n        /* \"#utility.yul\":5399:5418   */\n      mstore\n        /* \"#utility.yul\":5451:5455   */\n      0x20\n        /* \"#utility.yul\":5446:5449   */\n      dup3\n        /* \"#utility.yul\":5442:5456   */\n      add\n        /* \"#utility.yul\":5427:5456   */\n      swap1\n      pop\n        /* \"#utility.yul\":5293:5462   */\n      swap3\n      swap2\n      pop\n      pop\n      jump\t// out\n        /* \"#utility.yul\":5468:5714   */\n    tag_233:\n        /* \"#utility.yul\":5549:5550   */\n      0x00\n        /* \"#utility.yul\":5559:5672   */\n    tag_323:\n        /* \"#utility.yul\":5573:5579   */\n      dup4\n        /* \"#utility.yul\":5570:5571   */\n      dup2\n        /* \"#utility.yul\":5567:5580   */\n      lt\n        /* \"#utility.yul\":5559:5672   */\n      iszero\n      tag_325\n      jumpi\n        /* \"#utility.yul\":5658:5659   */\n      dup1\n        /* \"#utility.yul\":5653:5656   */\n      dup3\n        /* \"#utility.yul\":5649:5660   */\n      add\n        /* \"#utility.yul\":5643:5661   */\n      mload\n        /* \"#utility.yul\":5639:5640   */\n      dup2\n        /* \"#utility.yul\":5634:5637   */\n      dup5\n        /* \"#utility.yul\":5630:5641   */\n      add\n        /* \"#utility.yul\":5623:5662   */\n      mstore\n        /* \"#utility.yul\":5595:5597   */\n      0x20\n        /* \"#utility.yul\":5592:5593   */\n      dup2\n        /* \"#utility.yul\":5588:5598   */\n      add\n        /* \"#utility.yul\":5583:5598   */\n      swap1\n      pop\n        /* \"#utility.yul\":5559:5672   */\n      jump(tag_323)\n    tag_325:\n        /* \"#utility.yul\":5706:5707   */\n      0x00\n        /* \"#utility.yul\":5697:5703   */\n      dup5\n        /* \"#utility.yul\":5692:5695   */\n      dup5\n        /* \"#utility.yul\":5688:5704   */\n      add\n        /* \"#utility.yul\":5681:5708   */\n      mstore\n        /* \"#utility.yul\":5530:5714   */\n      pop\n        /* \"#utility.yul\":5468:5714   */\n      pop\n      pop\n      pop\n      jump\t// out\n        /* \"#utility.yul\":5720:6097   */\n    tag_234:\n        /* \"#utility.yul\":5808:5811   */\n      0x00\n        /* \"#utility.yul\":5836:5875   */\n      tag_327\n        /* \"#utility.yul\":5869:5874   */\n      dup3\n        /* \"#utility.yul\":5836:5875   */\n      tag_231\n      jump\t// in\n    tag_327:\n        /* \"#utility.yul\":5891:5962   */\n      tag_328\n        /* \"#utility.yul\":5955:5961   */\n      dup2\n        /* \"#utility.yul\":5950:5953   */\n      dup6\n        /* \"#utility.yul\":5891:5962   */\n      tag_232\n      jump\t// in\n    tag_328:\n        /* \"#utility.yul\":5884:5962   */\n      swap4\n      pop\n        /* \"#utility.yul\":5971:6036   */\n      tag_329\n        /* \"#utility.yul\":6029:6035   */\n      dup2\n        /* \"#utility.yul\":6024:6027   */\n      dup6\n        /* \"#utility.yul\":6017:6021   */\n      0x20\n        /* \"#utility.yul\":6010:6015   */\n      dup7\n        /* \"#utility.yul\":6006:6022   */\n      add\n        /* \"#utility.yul\":5971:6036   */\n      tag_233\n      jump\t// in\n    tag_329:\n        /* \"#utility.yul\":6061:6090   */\n      tag_330\n        /* \"#utility.yul\":6083:6089   */\n      dup2\n        /* \"#utility.yul\":6061:6090   */\n      tag_220\n      jump\t// in\n    tag_330:\n        /* \"#utility.yul\":6056:6059   */\n      dup5\n        /* \"#utility.yul\":6052:6091   */\n      add\n        /* \"#utility.yul\":6045:6091   */\n      swap2\n      pop\n        /* \"#utility.yul\":5812:6097   */\n      pop\n        /* \"#utility.yul\":5720:6097   */\n      swap3\n      swap2\n      pop\n      pop\n      jump\t// out\n        /* \"#utility.yul\":6103:6416   */\n    tag_52:\n        /* \"#utility.yul\":6216:6220   */\n      0x00\n        /* \"#utility.yul\":6254:6256   */\n      0x20\n        /* \"#utility.yul\":6243:6252   */\n      dup3\n        /* \"#utility.yul\":6239:6257   */\n      add\n        /* \"#utility.yul\":6231:6257   */\n      swap1\n      pop\n        /* \"#utility.yul\":6303:6312   */\n      dup2\n        /* \"#utility.yul\":6297:6301   */\n      dup2\n        /* \"#utility.yul\":6293:6313   */\n      sub\n        /* \"#utility.yul\":6289:6290   */\n      0x00\n        /* \"#utility.yul\":6278:6287   */\n      dup4\n        /* \"#utility.yul\":6274:6291   */\n      add\n        /* \"#utility.yul\":6267:6314   */\n      mstore\n        /* \"#utility.yul\":6331:6409   */\n      tag_332\n        /* \"#utility.yul\":6404:6408   */\n      dup2\n        /* \"#utility.yul\":6395:6401   */\n      dup5\n        /* \"#utility.yul\":6331:6409   */\n      tag_234\n      jump\t// in\n    tag_332:\n        /* \"#utility.yul\":6323:6409   */\n      swap1\n      pop\n        /* \"#utility.yul\":6103:6416   */\n      swap3\n      swap2\n      pop\n      pop\n      jump\t// out\n        /* \"#utility.yul\":6422:6499   */\n    tag_235:\n        /* \"#utility.yul\":6459:6466   */\n      0x00\n        /* \"#utility.yul\":6488:6493   */\n      dup2\n        /* \"#utility.yul\":6477:6493   */\n      swap1\n      pop\n        /* \"#utility.yul\":6422:6499   */\n      swap2\n      swap1\n      pop\n      jump\t// out\n        /* \"#utility.yul\":6505:6623   */\n    tag_236:\n        /* \"#utility.yul\":6592:6616   */\n      tag_335\n        /* \"#utility.yul\":6610:6615   */\n      dup2\n        /* \"#utility.yul\":6592:6616   */\n      tag_235\n      jump\t// in\n    tag_335:\n        /* \"#utility.yul\":6587:6590   */\n      dup3\n        /* \"#utility.yul\":6580:6617   */\n      mstore\n        /* \"#utility.yul\":6505:6623   */\n      pop\n      pop\n      jump\t// out\n        /* \"#utility.yul\":6629:6851   */\n    tag_56:\n        /* \"#utility.yul\":6722:6726   */\n      0x00\n        /* \"#utility.yul\":6760:6762   */\n      0x20\n        /* \"#utility.yul\":6749:6758   */\n      dup3\n        /* \"#utility.yul\":6745:6763   */\n      add\n        /* \"#utility.yul\":6737:6763   */\n      swap1\n      pop\n        /* \"#utility.yul\":6773:6844   */\n      tag_337\n        /* \"#utility.yul\":6841:6842   */\n      0x00\n        /* \"#utility.yul\":6830:6839   */\n      dup4\n        /* \"#utility.yul\":6826:6843   */\n      add\n        /* \"#utility.yul\":6817:6823   */\n      dup5\n        /* \"#utility.yul\":6773:6844   */\n      tag_236\n      jump\t// in\n    tag_337:\n        /* \"#utility.yul\":6629:6851   */\n      swap3\n      swap2\n      pop\n      pop\n      jump\t// out\n        /* \"#utility.yul\":6857:7186   */\n    tag_59:\n        /* \"#utility.yul\":6916:6922   */\n      0x00\n        /* \"#utility.yul\":6965:6967   */\n      0x20\n        /* \"#utility.yul\":6953:6962   */\n      dup3\n        /* \"#utility.yul\":6944:6951   */\n      dup5\n        /* \"#utility.yul\":6940:6963   */\n      sub\n        /* \"#utility.yul\":6936:6968   */\n      slt\n        /* \"#utility.yul\":6933:7052   */\n      iszero\n      tag_339\n      jumpi\n        /* \"#utility.yul\":6971:7050   */\n      tag_340\n      tag_213\n      jump\t// in\n    tag_340:\n        /* \"#utility.yul\":6933:7052   */\n    tag_339:\n        /* \"#utility.yul\":7091:7092   */\n      0x00\n        /* \"#utility.yul\":7116:7169   */\n      tag_341\n        /* \"#utility.yul\":7161:7168   */\n      dup5\n        /* \"#utility.yul\":7152:7158   */\n      dup3\n        /* \"#utility.yul\":7141:7150   */\n      dup6\n        /* \"#utility.yul\":7137:7159   */\n      add\n        /* \"#utility.yul\":7116:7169   */\n      tag_217\n      jump\t// in\n    tag_341:\n        /* \"#utility.yul\":7106:7169   */\n      swap2\n      pop\n        /* \"#utility.yul\":7062:7179   */\n      pop\n        /* \"#utility.yul\":6857:7186   */\n      swap3\n      swap2\n      pop\n      pop\n      jump\t// out\n        /* \"#utility.yul\":7192:7706   */\n    tag_70:\n        /* \"#utility.yul\":7353:7357   */\n      0x00\n        /* \"#utility.yul\":7391:7393   */\n      0x40\n        /* \"#utility.yul\":7380:7389   */\n      dup3\n        /* \"#utility.yul\":7376:7394   */\n      add\n        /* \"#utility.yul\":7368:7394   */\n      swap1\n      pop\n        /* \"#utility.yul\":7440:7449   */\n      dup2\n        /* \"#utility.yul\":7434:7438   */\n      dup2\n        /* \"#utility.yul\":7430:7450   */\n      sub\n        /* \"#utility.yul\":7426:7427   */\n      0x00\n        /* \"#utility.yul\":7415:7424   */\n      dup4\n        /* \"#utility.yul\":7411:7428   */\n      add\n        /* \"#utility.yul\":7404:7451   */\n      mstore\n        /* \"#utility.yul\":7468:7546   */\n      tag_343\n        /* \"#utility.yul\":7541:7545   */\n      dup2\n        /* \"#utility.yul\":7532:7538   */\n      dup6\n        /* \"#utility.yul\":7468:7546   */\n      tag_234\n      jump\t// in\n    tag_343:\n        /* \"#utility.yul\":7460:7546   */\n      swap1\n      pop\n        /* \"#utility.yul\":7593:7602   */\n      dup2\n        /* \"#utility.yul\":7587:7591   */\n      dup2\n        /* \"#utility.yul\":7583:7603   */\n      sub\n        /* \"#utility.yul\":7578:7580   */\n      0x20\n        /* \"#utility.yul\":7567:7576   */\n      dup4\n        /* \"#utility.yul\":7563:7581   */\n      add\n        /* \"#utility.yul\":7556:7604   */\n      mstore\n        /* \"#utility.yul\":7621:7699   */\n      tag_344\n        /* \"#utility.yul\":7694:7698   */\n      dup2\n        /* \"#utility.yul\":7685:7691   */\n      dup5\n        /* \"#utility.yul\":7621:7699   */\n      tag_234\n      jump\t// in\n    tag_344:\n        /* \"#utility.yul\":7613:7699   */\n      swap1\n      pop\n        /* \"#utility.yul\":7192:7706   */\n      swap4\n      swap3\n      pop\n      pop\n      pop\n      jump\t// out\n        /* \"#utility.yul\":7712:7838   */\n    tag_237:\n        /* \"#utility.yul\":7749:7756   */\n      0x00\n        /* \"#utility.yul\":7789:7831   */\n      0xffffffffffffffffffffffffffffffffffffffff\n        /* \"#utility.yul\":7782:7787   */\n      dup3\n        /* \"#utility.yul\":7778:7832   */\n      and\n        /* \"#utility.yul\":7767:7832   */\n      swap1\n      pop\n        /* \"#utility.yul\":7712:7838   */\n      swap2\n      swap1\n      pop\n      jump\t// out\n        /* \"#utility.yul\":7844:7940   */\n    tag_238:\n        /* \"#utility.yul\":7881:7888   */\n      0x00\n        /* \"#utility.yul\":7910:7934   */\n      tag_347\n        /* \"#utility.yul\":7928:7933   */\n      dup3\n        /* \"#utility.yul\":7910:7934   */\n      tag_237\n      jump\t// in\n    tag_347:\n        /* \"#utility.yul\":7899:7934   */\n      swap1\n      pop\n        /* \"#utility.yul\":7844:7940   */\n      swap2\n      swap1\n      pop\n      jump\t// out\n        /* \"#utility.yul\":7946:8068   */\n    tag_239:\n        /* \"#utility.yul\":8019:8043   */\n      tag_349\n        /* \"#utility.yul\":8037:8042   */\n      dup2\n        /* \"#utility.yul\":8019:8043   */\n      tag_238\n      jump\t// in\n    tag_349:\n        /* \"#utility.yul\":8012:8017   */\n      dup2\n        /* \"#utility.yul\":8009:8044   */\n      eq\n        /* \"#utility.yul\":7999:8062   */\n      tag_350\n      jumpi\n        /* \"#utility.yul\":8058:8059   */\n      0x00\n        /* \"#utility.yul\":8055:8056   */\n      dup1\n        /* \"#utility.yul\":8048:8060   */\n      revert\n        /* \"#utility.yul\":7999:8062   */\n    tag_350:\n        /* \"#utility.yul\":7946:8068   */\n      pop\n      jump\t// out\n        /* \"#utility.yul\":8074:8213   */\n    tag_240:\n        /* \"#utility.yul\":8120:8125   */\n      0x00\n        /* \"#utility.yul\":8158:8164   */\n      dup2\n        /* \"#utility.yul\":8145:8165   */\n      calldataload\n        /* \"#utility.yul\":8136:8165   */\n      swap1\n      pop\n        /* \"#utility.yul\":8174:8207   */\n      tag_352\n        /* \"#utility.yul\":8201:8206   */\n      dup2\n        /* \"#utility.yul\":8174:8207   */\n      tag_239\n      jump\t// in\n    tag_352:\n        /* \"#utility.yul\":8074:8213   */\n      swap3\n      swap2\n      pop\n      pop\n      jump\t// out\n        /* \"#utility.yul\":8219:8693   */\n    tag_73:\n        /* \"#utility.yul\":8287:8293   */\n      0x00\n        /* \"#utility.yul\":8295:8301   */\n      dup1\n        /* \"#utility.yul\":8344:8346   */\n      0x40\n        /* \"#utility.yul\":8332:8341   */\n      dup4\n        /* \"#utility.yul\":8323:8330   */\n      dup6\n        /* \"#utility.yul\":8319:8342   */\n      sub\n        /* \"#utility.yul\":8315:8347   */\n      slt\n        /* \"#utility.yul\":8312:8431   */\n      iszero\n      tag_354\n      jumpi\n        /* \"#utility.yul\":8350:8429   */\n      tag_355\n      tag_213\n      jump\t// in\n    tag_355:\n        /* \"#utility.yul\":8312:8431   */\n    tag_354:\n        /* \"#utility.yul\":8470:8471   */\n      0x00\n        /* \"#utility.yul\":8495:8548   */\n      tag_356\n        /* \"#utility.yul\":8540:8547   */\n      dup6\n        /* \"#utility.yul\":8531:8537   */\n      dup3\n        /* \"#utility.yul\":8520:8529   */\n      dup7\n        /* \"#utility.yul\":8516:8538   */\n      add\n        /* \"#utility.yul\":8495:8548   */\n      tag_240\n      jump\t// in\n    tag_356:\n        /* \"#utility.yul\":8485:8548   */\n      swap3\n      pop\n        /* \"#utility.yul\":8441:8558   */\n      pop\n        /* \"#utility.yul\":8597:8599   */\n      0x20\n        /* \"#utility.yul\":8623:8676   */\n      tag_357\n        /* \"#utility.yul\":8668:8675   */\n      dup6\n        /* \"#utility.yul\":8659:8665   */\n      dup3\n        /* \"#utility.yul\":8648:8657   */\n      dup7\n        /* \"#utility.yul\":8644:8666   */\n      add\n        /* \"#utility.yul\":8623:8676   */\n      tag_217\n      jump\t// in\n    tag_357:\n        /* \"#utility.yul\":8613:8676   */\n      swap2\n      pop\n        /* \"#utility.yul\":8568:8686   */\n      pop\n        /* \"#utility.yul\":8219:8693   */\n      swap3\n      pop\n      swap3\n      swap1\n      pop\n      jump\t// out\n        /* \"#utility.yul\":8699:9525   */\n    tag_76:\n        /* \"#utility.yul\":8936:8940   */\n      0x00\n        /* \"#utility.yul\":8974:8977   */\n      0x80\n        /* \"#utility.yul\":8963:8972   */\n      dup3\n        /* \"#utility.yul\":8959:8978   */\n      add\n        /* \"#utility.yul\":8951:8978   */\n      swap1\n      pop\n        /* \"#utility.yul\":8988:9059   */\n      tag_359\n        /* \"#utility.yul\":9056:9057   */\n      0x00\n        /* \"#utility.yul\":9045:9054   */\n      dup4\n        /* \"#utility.yul\":9041:9058   */\n      add\n        /* \"#utility.yul\":9032:9038   */\n      dup8\n        /* \"#utility.yul\":8988:9059   */\n      tag_228\n      jump\t// in\n    tag_359:\n        /* \"#utility.yul\":9106:9115   */\n      dup2\n        /* \"#utility.yul\":9100:9104   */\n      dup2\n        /* \"#utility.yul\":9096:9116   */\n      sub\n        /* \"#utility.yul\":9091:9093   */\n      0x20\n        /* \"#utility.yul\":9080:9089   */\n      dup4\n        /* \"#utility.yul\":9076:9094   */\n      add\n        /* \"#utility.yul\":9069:9117   */\n      mstore\n        /* \"#utility.yul\":9134:9212   */\n      tag_360\n        /* \"#utility.yul\":9207:9211   */\n      dup2\n        /* \"#utility.yul\":9198:9204   */\n      dup7\n        /* \"#utility.yul\":9134:9212   */\n      tag_234\n      jump\t// in\n    tag_360:\n        /* \"#utility.yul\":9126:9212   */\n      swap1\n      pop\n        /* \"#utility.yul\":9259:9268   */\n      dup2\n        /* \"#utility.yul\":9253:9257   */\n      dup2\n        /* \"#utility.yul\":9249:9269   */\n      sub\n        /* \"#utility.yul\":9244:9246   */\n      0x40\n        /* \"#utility.yul\":9233:9242   */\n      dup4\n        /* \"#utility.yul\":9229:9247   */\n      add\n        /* \"#utility.yul\":9222:9270   */\n      mstore\n        /* \"#utility.yul\":9287:9365   */\n      tag_361\n        /* \"#utility.yul\":9360:9364   */\n      dup2\n        /* \"#utility.yul\":9351:9357   */\n      dup6\n        /* \"#utility.yul\":9287:9365   */\n      tag_234\n      jump\t// in\n    tag_361:\n        /* \"#utility.yul\":9279:9365   */\n      swap1\n      pop\n        /* \"#utility.yul\":9412:9421   */\n      dup2\n        /* \"#utility.yul\":9406:9410   */\n      dup2\n        /* \"#utility.yul\":9402:9422   */\n      sub\n        /* \"#utility.yul\":9397:9399   */\n      0x60\n        /* \"#utility.yul\":9386:9395   */\n      dup4\n        /* \"#utility.yul\":9382:9400   */\n      add\n        /* \"#utility.yul\":9375:9423   */\n      mstore\n        /* \"#utility.yul\":9440:9518   */\n      tag_362\n        /* \"#utility.yul\":9513:9517   */\n      dup2\n        /* \"#utility.yul\":9504:9510   */\n      dup5\n        /* \"#utility.yul\":9440:9518   */\n      tag_234\n      jump\t// in\n    tag_362:\n        /* \"#utility.yul\":9432:9518   */\n      swap1\n      pop\n        /* \"#utility.yul\":8699:9525   */\n      swap6\n      swap5\n      pop\n      pop\n      pop\n      pop\n      pop\n      jump\t// out\n        /* \"#utility.yul\":9531:9954   */\n    tag_80:\n        /* \"#utility.yul\":9672:9676   */\n      0x00\n        /* \"#utility.yul\":9710:9712   */\n      0x40\n        /* \"#utility.yul\":9699:9708   */\n      dup3\n        /* \"#utility.yul\":9695:9713   */\n      add\n        /* \"#utility.yul\":9687:9713   */\n      swap1\n      pop\n        /* \"#utility.yul\":9723:9794   */\n      tag_364\n        /* \"#utility.yul\":9791:9792   */\n      0x00\n        /* \"#utility.yul\":9780:9789   */\n      dup4\n        /* \"#utility.yul\":9776:9793   */\n      add\n        /* \"#utility.yul\":9767:9773   */\n      dup6\n        /* \"#utility.yul\":9723:9794   */\n      tag_228\n      jump\t// in\n    tag_364:\n        /* \"#utility.yul\":9841:9850   */\n      dup2\n        /* \"#utility.yul\":9835:9839   */\n      dup2\n        /* \"#utility.yul\":9831:9851   */\n      sub\n        /* \"#utility.yul\":9826:9828   */\n      0x20\n        /* \"#utility.yul\":9815:9824   */\n      dup4\n        /* \"#utility.yul\":9811:9829   */\n      add\n        /* \"#utility.yul\":9804:9852   */\n      mstore\n        /* \"#utility.yul\":9869:9947   */\n      tag_365\n        /* \"#utility.yul\":9942:9946   */\n      dup2\n        /* \"#utility.yul\":9933:9939   */\n      dup5\n        /* \"#utility.yul\":9869:9947   */\n      tag_234\n      jump\t// in\n    tag_365:\n        /* \"#utility.yul\":9861:9947   */\n      swap1\n      pop\n        /* \"#utility.yul\":9531:9954   */\n      swap4\n      swap3\n      pop\n      pop\n      pop\n      jump\t// out\n        /* \"#utility.yul\":9960:11411   */\n    tag_83:\n        /* \"#utility.yul\":10085:10091   */\n      0x00\n        /* \"#utility.yul\":10093:10099   */\n      dup1\n        /* \"#utility.yul\":10101:10107   */\n      0x00\n        /* \"#utility.yul\":10109:10115   */\n      dup1\n        /* \"#utility.yul\":10117:10123   */\n      0x00\n        /* \"#utility.yul\":10166:10169   */\n      0xa0\n        /* \"#utility.yul\":10154:10163   */\n      dup7\n        /* \"#utility.yul\":10145:10152   */\n      dup9\n        /* \"#utility.yul\":10141:10164   */\n      sub\n        /* \"#utility.yul\":10137:10170   */\n      slt\n        /* \"#utility.yul\":10134:10254   */\n      iszero\n      tag_367\n      jumpi\n        /* \"#utility.yul\":10173:10252   */\n      tag_368\n      tag_213\n      jump\t// in\n    tag_368:\n        /* \"#utility.yul\":10134:10254   */\n    tag_367:\n        /* \"#utility.yul\":10293:10294   */\n      0x00\n        /* \"#utility.yul\":10318:10371   */\n      tag_369\n        /* \"#utility.yul\":10363:10370   */\n      dup9\n        /* \"#utility.yul\":10354:10360   */\n      dup3\n        /* \"#utility.yul\":10343:10352   */\n      dup10\n        /* \"#utility.yul\":10339:10361   */\n      add\n        /* \"#utility.yul\":10318:10371   */\n      tag_217\n      jump\t// in\n    tag_369:\n        /* \"#utility.yul\":10308:10371   */\n      swap6\n      pop\n        /* \"#utility.yul\":10264:10381   */\n      pop\n        /* \"#utility.yul\":10420:10422   */\n      0x20\n        /* \"#utility.yul\":10446:10499   */\n      tag_370\n        /* \"#utility.yul\":10491:10498   */\n      dup9\n        /* \"#utility.yul\":10482:10488   */\n      dup3\n        /* \"#utility.yul\":10471:10480   */\n      dup10\n        /* \"#utility.yul\":10467:10489   */\n      add\n        /* \"#utility.yul\":10446:10499   */\n      tag_217\n      jump\t// in\n    tag_370:\n        /* \"#utility.yul\":10436:10499   */\n      swap5\n      pop\n        /* \"#utility.yul\":10391:10509   */\n      pop\n        /* \"#utility.yul\":10576:10578   */\n      0x40\n        /* \"#utility.yul\":10565:10574   */\n      dup7\n        /* \"#utility.yul\":10561:10579   */\n      add\n        /* \"#utility.yul\":10548:10580   */\n      calldataload\n        /* \"#utility.yul\":10607:10625   */\n      0xffffffffffffffff\n        /* \"#utility.yul\":10599:10605   */\n      dup2\n        /* \"#utility.yul\":10596:10626   */\n      gt\n        /* \"#utility.yul\":10593:10710   */\n      iszero\n      tag_371\n      jumpi\n        /* \"#utility.yul\":10629:10708   */\n      tag_372\n      tag_214\n      jump\t// in\n    tag_372:\n        /* \"#utility.yul\":10593:10710   */\n    tag_371:\n        /* \"#utility.yul\":10734:10797   */\n      tag_373\n        /* \"#utility.yul\":10789:10796   */\n      dup9\n        /* \"#utility.yul\":10780:10786   */\n      dup3\n        /* \"#utility.yul\":10769:10778   */\n      dup10\n        /* \"#utility.yul\":10765:10787   */\n      add\n        /* \"#utility.yul\":10734:10797   */\n      tag_227\n      jump\t// in\n    tag_373:\n        /* \"#utility.yul\":10724:10797   */\n      swap4\n      pop\n        /* \"#utility.yul\":10519:10807   */\n      pop\n        /* \"#utility.yul\":10874:10876   */\n      0x60\n        /* \"#utility.yul\":10863:10872   */\n      dup7\n        /* \"#utility.yul\":10859:10877   */\n      add\n        /* \"#utility.yul\":10846:10878   */\n      calldataload\n        /* \"#utility.yul\":10905:10923   */\n      0xffffffffffffffff\n        /* \"#utility.yul\":10897:10903   */\n      dup2\n        /* \"#utility.yul\":10894:10924   */\n      gt\n        /* \"#utility.yul\":10891:11008   */\n      iszero\n      tag_374\n      jumpi\n        /* \"#utility.yul\":10927:11006   */\n      tag_375\n      tag_214\n      jump\t// in\n    tag_375:\n        /* \"#utility.yul\":10891:11008   */\n    tag_374:\n        /* \"#utility.yul\":11032:11095   */\n      tag_376\n        /* \"#utility.yul\":11087:11094   */\n      dup9\n        /* \"#utility.yul\":11078:11084   */\n      dup3\n        /* \"#utility.yul\":11067:11076   */\n      dup10\n        /* \"#utility.yul\":11063:11085   */\n      add\n        /* \"#utility.yul\":11032:11095   */\n      tag_227\n      jump\t// in\n    tag_376:\n        /* \"#utility.yul\":11022:11095   */\n      swap3\n      pop\n        /* \"#utility.yul\":10817:11105   */\n      pop\n        /* \"#utility.yul\":11172:11175   */\n      0x80\n        /* \"#utility.yul\":11161:11170   */\n      dup7\n        /* \"#utility.yul\":11157:11176   */\n      add\n        /* \"#utility.yul\":11144:11177   */\n      calldataload\n        /* \"#utility.yul\":11204:11222   */\n      0xffffffffffffffff\n        /* \"#utility.yul\":11196:11202   */\n      dup2\n        /* \"#utility.yul\":11193:11223   */\n      gt\n        /* \"#utility.yul\":11190:11307   */\n      iszero\n      tag_377\n      jumpi\n        /* \"#utility.yul\":11226:11305   */\n      tag_378\n      tag_214\n      jump\t// in\n    tag_378:\n        /* \"#utility.yul\":11190:11307   */\n    tag_377:\n        /* \"#utility.yul\":11331:11394   */\n      tag_379\n        /* \"#utility.yul\":11386:11393   */\n      dup9\n        /* \"#utility.yul\":11377:11383   */\n      dup3\n        /* \"#utility.yul\":11366:11375   */\n      dup10\n        /* \"#utility.yul\":11362:11384   */\n      add\n        /* \"#utility.yul\":11331:11394   */\n      tag_227\n      jump\t// in\n    tag_379:\n        /* \"#utility.yul\":11321:11394   */\n      swap2\n      pop\n        /* \"#utility.yul\":11115:11404   */\n      pop\n        /* \"#utility.yul\":9960:11411   */\n      swap3\n      swap6\n      pop\n      swap3\n      swap6\n      swap1\n      swap4\n      pop\n      jump\t// out\n        /* \"#utility.yul\":11417:11891   */\n    tag_102:\n        /* \"#utility.yul\":11485:11491   */\n      0x00\n        /* \"#utility.yul\":11493:11499   */\n      dup1\n        /* \"#utility.yul\":11542:11544   */\n      0x40\n        /* \"#utility.yul\":11530:11539   */\n      dup4\n        /* \"#utility.yul\":11521:11528   */\n      dup6\n        /* \"#utility.yul\":11517:11540   */\n      sub\n        /* \"#utility.yul\":11513:11545   */\n      slt\n        /* \"#utility.yul\":11510:11629   */\n      iszero\n      tag_381\n      jumpi\n        /* \"#utility.yul\":11548:11627   */\n      tag_382\n      tag_213\n      jump\t// in\n    tag_382:\n        /* \"#utility.yul\":11510:11629   */\n    tag_381:\n        /* \"#utility.yul\":11668:11669   */\n      0x00\n        /* \"#utility.yul\":11693:11746   */\n      tag_383\n        /* \"#utility.yul\":11738:11745   */\n      dup6\n        /* \"#utility.yul\":11729:11735   */\n      dup3\n        /* \"#utility.yul\":11718:11727   */\n      dup7\n        /* \"#utility.yul\":11714:11736   */\n      add\n        /* \"#utility.yul\":11693:11746   */\n      tag_217\n      jump\t// in\n    tag_383:\n        /* \"#utility.yul\":11683:11746   */\n      swap3\n      pop\n        /* \"#utility.yul\":11639:11756   */\n      pop\n        /* \"#utility.yul\":11795:11797   */\n      0x20\n        /* \"#utility.yul\":11821:11874   */\n      tag_384\n        /* \"#utility.yul\":11866:11873   */\n      dup6\n        /* \"#utility.yul\":11857:11863   */\n      dup3\n        /* \"#utility.yul\":11846:11855   */\n      dup7\n        /* \"#utility.yul\":11842:11864   */\n      add\n        /* \"#utility.yul\":11821:11874   */\n      tag_217\n      jump\t// in\n    tag_384:\n        /* \"#utility.yul\":11811:11874   */\n      swap2\n      pop\n        /* \"#utility.yul\":11766:11884   */\n      pop\n        /* \"#utility.yul\":11417:11891   */\n      swap3\n      pop\n      swap3\n      swap1\n      pop\n      jump\t// out\n        /* \"#utility.yul\":11897:11983   */\n    tag_241:\n        /* \"#utility.yul\":11932:11939   */\n      0x00\n        /* \"#utility.yul\":11972:11976   */\n      0xff\n        /* \"#utility.yul\":11965:11970   */\n      dup3\n        /* \"#utility.yul\":11961:11977   */\n      and\n        /* \"#utility.yul\":11950:11977   */\n      swap1\n      pop\n        /* \"#utility.yul\":11897:11983   */\n      swap2\n      swap1\n      pop\n      jump\t// out\n        /* \"#utility.yul\":11989:12101   */\n    tag_242:\n        /* \"#utility.yul\":12072:12094   */\n      tag_387\n        /* \"#utility.yul\":12088:12093   */\n      dup2\n        /* \"#utility.yul\":12072:12094   */\n      tag_241\n      jump\t// in\n    tag_387:\n        /* \"#utility.yul\":12067:12070   */\n      dup3\n        /* \"#utility.yul\":12060:12095   */\n      mstore\n        /* \"#utility.yul\":11989:12101   */\n      pop\n      pop\n      jump\t// out\n        /* \"#utility.yul\":12107:12321   */\n    tag_111:\n        /* \"#utility.yul\":12196:12200   */\n      0x00\n        /* \"#utility.yul\":12234:12236   */\n      0x20\n        /* \"#utility.yul\":12223:12232   */\n      dup3\n        /* \"#utility.yul\":12219:12237   */\n      add\n        /* \"#utility.yul\":12211:12237   */\n      swap1\n      pop\n        /* \"#utility.yul\":12247:12314   */\n      tag_389\n        /* \"#utility.yul\":12311:12312   */\n      0x00\n        /* \"#utility.yul\":12300:12309   */\n      dup4\n        /* \"#utility.yul\":12296:12313   */\n      add\n        /* \"#utility.yul\":12287:12293   */\n      dup5\n        /* \"#utility.yul\":12247:12314   */\n      tag_242\n      jump\t// in\n    tag_389:\n        /* \"#utility.yul\":12107:12321   */\n      swap3\n      swap2\n      pop\n      pop\n      jump\t// out\n        /* \"#utility.yul\":12327:12507   */\n    tag_243:\n        /* \"#utility.yul\":12375:12452   */\n      0x4e487b7100000000000000000000000000000000000000000000000000000000\n        /* \"#utility.yul\":12372:12373   */\n      0x00\n        /* \"#utility.yul\":12365:12453   */\n      mstore\n        /* \"#utility.yul\":12472:12476   */\n      0x22\n        /* \"#utility.yul\":12469:12470   */\n      0x04\n        /* \"#utility.yul\":12462:12477   */\n      mstore\n        /* \"#utility.yul\":12496:12500   */\n      0x24\n        /* \"#utility.yul\":12493:12494   */\n      0x00\n        /* \"#utility.yul\":12486:12501   */\n      revert\n        /* \"#utility.yul\":12513:12833   */\n    tag_124:\n        /* \"#utility.yul\":12557:12563   */\n      0x00\n        /* \"#utility.yul\":12594:12595   */\n      0x02\n        /* \"#utility.yul\":12588:12592   */\n      dup3\n        /* \"#utility.yul\":12584:12596   */\n      div\n        /* \"#utility.yul\":12574:12596   */\n      swap1\n      pop\n        /* \"#utility.yul\":12641:12642   */\n      0x01\n        /* \"#utility.yul\":12635:12639   */\n      dup3\n        /* \"#utility.yul\":12631:12643   */\n      and\n        /* \"#utility.yul\":12662:12680   */\n      dup1\n        /* \"#utility.yul\":12652:12733   */\n      tag_392\n      jumpi\n        /* \"#utility.yul\":12718:12722   */\n      0x7f\n        /* \"#utility.yul\":12710:12716   */\n      dup3\n        /* \"#utility.yul\":12706:12723   */\n      and\n        /* \"#utility.yul\":12696:12723   */\n      swap2\n      pop\n        /* \"#utility.yul\":12652:12733   */\n    tag_392:\n        /* \"#utility.yul\":12780:12782   */\n      0x20\n        /* \"#utility.yul\":12772:12778   */\n      dup3\n        /* \"#utility.yul\":12769:12783   */\n      lt\n        /* \"#utility.yul\":12749:12767   */\n      dup2\n        /* \"#utility.yul\":12746:12784   */\n      sub\n        /* \"#utility.yul\":12743:12827   */\n      tag_393\n      jumpi\n        /* \"#utility.yul\":12799:12817   */\n      tag_394\n      tag_243\n      jump\t// in\n    tag_394:\n        /* \"#utility.yul\":12743:12827   */\n    tag_393:\n        /* \"#utility.yul\":12564:12833   */\n      pop\n        /* \"#utility.yul\":12513:12833   */\n      swap2\n      swap1\n      pop\n      jump\t// out\n        /* \"#utility.yul\":12839:12980   */\n    tag_244:\n        /* \"#utility.yul\":12888:12892   */\n      0x00\n        /* \"#utility.yul\":12911:12914   */\n      dup2\n        /* \"#utility.yul\":12903:12914   */\n      swap1\n      pop\n        /* \"#utility.yul\":12934:12937   */\n      dup2\n        /* \"#utility.yul\":12931:12932   */\n      0x00\n        /* \"#utility.yul\":12924:12938   */\n      mstore\n        /* \"#utility.yul\":12968:12972   */\n      0x20\n        /* \"#utility.yul\":12965:12966   */\n      0x00\n        /* \"#utility.yul\":12955:12973   */\n      keccak256\n        /* \"#utility.yul\":12947:12973   */\n      swap1\n      pop\n        /* \"#utility.yul\":12839:12980   */\n      swap2\n      swap1\n      pop\n      jump\t// out\n        /* \"#utility.yul\":12986:13079   */\n    tag_245:\n        /* \"#utility.yul\":13023:13029   */\n      0x00\n        /* \"#utility.yul\":13070:13072   */\n      0x20\n        /* \"#utility.yul\":13065:13067   */\n      0x1f\n        /* \"#utility.yul\":13058:13063   */\n      dup4\n        /* \"#utility.yul\":13054:13068   */\n      add\n        /* \"#utility.yul\":13050:13073   */\n      div\n        /* \"#utility.yul\":13040:13073   */\n      swap1\n      pop\n        /* \"#utility.yul\":12986:13079   */\n      swap2\n      swap1\n      pop\n      jump\t// out\n        /* \"#utility.yul\":13085:13192   */\n    tag_246:\n        /* \"#utility.yul\":13129:13137   */\n      0x00\n        /* \"#utility.yul\":13179:13184   */\n      dup3\n        /* \"#utility.yul\":13173:13177   */\n      dup3\n        /* \"#utility.yul\":13169:13185   */\n      shl\n        /* \"#utility.yul\":13148:13185   */\n      swap1\n      pop\n        /* \"#utility.yul\":13085:13192   */\n      swap3\n      swap2\n      pop\n      pop\n      jump\t// out\n        /* \"#utility.yul\":13198:13591   */\n    tag_247:\n        /* \"#utility.yul\":13267:13273   */\n      0x00\n        /* \"#utility.yul\":13317:13318   */\n      0x08\n        /* \"#utility.yul\":13305:13315   */\n      dup4\n        /* \"#utility.yul\":13301:13319   */\n      mul\n        /* \"#utility.yul\":13340:13437   */\n      tag_399\n        /* \"#utility.yul\":13370:13436   */\n      0xffffffffffffffffffffffffffffffffffffffffffffffffffffffffffffffff\n        /* \"#utility.yul\":13359:13368   */\n      dup3\n        /* \"#utility.yul\":13340:13437   */\n      tag_246\n      jump\t// in\n    tag_399:\n        /* \"#utility.yul\":13458:13497   */\n      tag_400\n        /* \"#utility.yul\":13488:13496   */\n      dup7\n        /* \"#utility.yul\":13477:13486   */\n      dup4\n        /* \"#utility.yul\":13458:13497   */\n      tag_246\n      jump\t// in\n    tag_400:\n        /* \"#utility.yul\":13446:13497   */\n      swap6\n      pop\n        /* \"#utility.yul\":13530:13534   */\n      dup1\n        /* \"#utility.yul\":13526:13535   */\n      not\n        /* \"#utility.yul\":13519:13524   */\n      dup5\n        /* \"#utility.yul\":13515:13536   */\n      and\n        /* \"#utility.yul\":13506:13536   */\n      swap4\n      pop\n        /* \"#utility.yul\":13579:13583   */\n      dup1\n        /* \"#utility.yul\":13569:13577   */\n      dup7\n        /* \"#utility.yul\":13565:13584   */\n      and\n        /* \"#utility.yul\":13558:13563   */\n      dup5\n        /* \"#utility.yul\":13555:13585   */\n      or\n        /* \"#utility.yul\":13545:13585   */\n      swap3\n      pop\n        /* \"#utility.yul\":13274:13591   */\n      pop\n      pop\n        /* \"#utility.yul\":13198:13591   */\n      swap4\n      swap3\n      pop\n      pop\n      pop\n      jump\t// out\n        /* \"#utility.yul\":13597:13657   */\n    tag_248:\n        /* \"#utility.yul\":13625:13628   */\n      0x00\n        /* \"#utility.yul\":13646:13651   */\n      dup2\n        /* \"#utility.yul\":13639:13651   */\n      swap1\n      pop\n        /* \"#utility.yul\":13597:13657   */\n      swap2\n      swap1\n      pop\n      jump\t// out\n        /* \"#utility.yul\":13663:13805   */\n    tag_249:\n        /* \"#utility.yul\":13713:13722   */\n      0x00\n        /* \"#utility.yul\":13746:13799   */\n      tag_403\n        /* \"#utility.yul\":13764:13798   */\n      tag_404\n        /* \"#utility.yul\":13773:13797   */\n      tag_405\n        /* \"#utility.yul\":13791:13796   */\n      dup5\n        /* \"#utility.yul\":13773:13797   */\n      tag_215\n      jump\t// in\n    tag_405:\n        /* \"#utility.yul\":13764:13798   */\n      tag_248\n      jump\t// in\n    tag_404:\n        /* \"#utility.yul\":13746:13799   */\n      tag_215\n      jump\t// in\n    tag_403:\n        /* \"#utility.yul\":13733:13799   */\n      swap1\n      pop\n        /* \"#utility.yul\":13663:13805   */\n      swap2\n      swap1\n      pop\n      jump\t// out\n        /* \"#utility.yul\":13811:13886   */\n    tag_250:\n        /* \"#utility.yul\":13854:13857   */\n      0x00\n        /* \"#utility.yul\":13875:13880   */\n      dup2\n        /* \"#utility.yul\":13868:13880   */\n      swap1\n      pop\n        /* \"#utility.yul\":13811:13886   */\n      swap2\n      swap1\n      pop\n      jump\t// out\n        /* \"#utility.yul\":13892:14161   */\n    tag_251:\n        /* \"#utility.yul\":14002:14041   */\n      tag_408\n        /* \"#utility.yul\":14033:14040   */\n      dup4\n        /* \"#utility.yul\":14002:14041   */\n      tag_249\n      jump\t// in\n    tag_408:\n        /* \"#utility.yul\":14063:14154   */\n      tag_409\n        /* \"#utility.yul\":14112:14153   */\n      tag_410\n        /* \"#utility.yul\":14136:14152   */\n      dup3\n        /* \"#utility.yul\":14112:14153   */\n      tag_250\n      jump\t// in\n    tag_410:\n        /* \"#utility.yul\":14104:14110   */\n      dup5\n        /* \"#utility.yul\":14097:14101   */\n      dup5\n        /* \"#utility.yul\":14091:14102   */\n      sload\n        /* \"#utility.yul\":14063:14154   */\n      tag_247\n      jump\t// in\n    tag_409:\n        /* \"#utility.yul\":14057:14061   */\n      dup3\n        /* \"#utility.yul\":14050:14155   */\n      sstore\n        /* \"#utility.yul\":13968:14161   */\n      pop\n        /* \"#utility.yul\":13892:14161   */\n      pop\n      pop\n      pop\n      jump\t// out\n        /* \"#utility.yul\":14167:14240   */\n    tag_252:\n        /* \"#utility.yul\":14212:14215   */\n      0x00\n        /* \"#utility.yul\":14167:14240   */\n      swap1\n      jump\t// out\n        /* \"#utility.yul\":14246:14435   */\n    tag_253:\n        /* \"#utility.yul\":14323:14355   */\n      tag_413\n      tag_252\n      jump\t// in\n    tag_413:\n        /* \"#utility.yul\":14364:14429   */\n      tag_414\n        /* \"#utility.yul\":14422:14428   */\n      dup2\n        /* \"#utility.yul\":14414:14420   */\n      dup5\n        /* \"#utility.yul\":14408:14412   */\n      dup5\n        /* \"#utility.yul\":14364:14429   */\n      tag_251\n      jump\t// in\n    tag_414:\n        /* \"#utility.yul\":14299:14435   */\n      pop\n        /* \"#utility.yul\":14246:14435   */\n      pop\n      pop\n      jump\t// out\n        /* \"#utility.yul\":14441:14627   */\n    tag_254:\n        /* \"#utility.yul\":14501:14621   */\n    tag_416:\n        /* \"#utility.yul\":14518:14521   */\n      dup2\n        /* \"#utility.yul\":14511:14516   */\n      dup2\n        /* \"#utility.yul\":14508:14522   */\n      lt\n        /* \"#utility.yul\":14501:14621   */\n      iszero\n      tag_418\n      jumpi\n        /* \"#utility.yul\":14572:14611   */\n      tag_419\n        /* \"#utility.yul\":14609:14610   */\n      0x00\n        /* \"#utility.yul\":14602:14607   */\n      dup3\n        /* \"#utility.yul\":14572:14611   */\n      tag_253\n      jump\t// in\n    tag_419:\n        /* \"#utility.yul\":14545:14546   */\n      0x01\n        /* \"#utility.yul\":14538:14543   */\n      dup2\n        /* \"#utility.yul\":14534:14547   */\n      add\n        /* \"#utility.yul\":14525:14547   */\n      swap1\n      pop\n        /* \"#utility.yul\":14501:14621   */\n      jump(tag_416)\n    tag_418:\n        /* \"#utility.yul\":14441:14627   */\n      pop\n      pop\n      jump\t// out\n        /* \"#utility.yul\":14633:15176   */\n    tag_255:\n        /* \"#utility.yul\":14734:14736   */\n      0x1f\n        /* \"#utility.yul\":14729:14732   */\n      dup3\n        /* \"#utility.yul\":14726:14737   */\n      gt\n        /* \"#utility.yul\":14723:15169   */\n      iszero\n      tag_421\n      jumpi\n        /* \"#utility.yul\":14768:14806   */\n      tag_422\n        /* \"#utility.yul\":14800:14805   */\n      dup2\n        /* \"#utility.yul\":14768:14806   */\n      tag_244\n      jump\t// in\n    tag_422:\n        /* \"#utility.yul\":14852:14881   */\n      tag_423\n        /* \"#utility.yul\":14870:14880   */\n      dup5\n        /* \"#utility.yul\":14852:14881   */\n      tag_245\n      jump\t// in\n    tag_423:\n        /* \"#utility.yul\":14842:14850   */\n      dup2\n        /* \"#utility.yul\":14838:14882   */\n      add\n        /* \"#utility.yul\":15035:15037   */\n      0x20\n        /* \"#utility.yul\":15023:15033   */\n      dup6\n        /* \"#utility.yul\":15020:15038   */\n      lt\n        /* \"#utility.yul\":15017:15066   */\n      iszero\n      tag_424\n      jumpi\n        /* \"#utility.yul\":15056:15064   */\n      dup2\n        /* \"#utility.yul\":15041:15064   */\n      swap1\n      pop\n        /* \"#utility.yul\":15017:15066   */\n    tag_424:\n        /* \"#utility.yul\":15079:15159   */\n      tag_425\n        /* \"#utility.yul\":15135:15157   */\n      tag_426\n        /* \"#utility.yul\":15153:15156   */\n      dup6\n        /* \"#utility.yul\":15135:15157   */\n      tag_245\n      jump\t// in\n    tag_426:\n        /* \"#utility.yul\":15125:15133   */\n      dup4\n        /* \"#utility.yul\":15121:15158   */\n      add\n        /* \"#utility.yul\":15108:15119   */\n      dup3\n        /* \"#utility.yul\":15079:15159   */\n      tag_254\n      jump\t// in\n    tag_425:\n        /* \"#utility.yul\":14738:15169   */\n      pop\n      pop\n        /* \"#utility.yul\":14723:15169   */\n    tag_421:\n        /* \"#utility.yul\":14633:15176   */\n      pop\n      pop\n      pop\n      jump\t// out\n        /* \"#utility.yul\":15182:15299   */\n    tag_256:\n        /* \"#utility.yul\":15236:15244   */\n      0x00\n        /* \"#utility.yul\":15286:15291   */\n      dup3\n        /* \"#utility.yul\":15280:15284   */\n      dup3\n        /* \"#utility.yul\":15276:15292   */\n      shr\n        /* \"#utility.yul\":15255:15292   */\n      swap1\n      pop\n        /* \"#utility.yul\":15182:15299   */\n      swap3\n      swap2\n      pop\n      pop\n      jump\t// out\n        /* \"#utility.yul\":15305:15474   */\n    tag_257:\n        /* \"#utility.yul\":15349:15355   */\n      0x00\n        /* \"#utility.yul\":15382:15433   */\n      tag_429\n        /* \"#utility.yul\":15430:15431   */\n      0x00\n        /* \"#utility.yul\":15426:15432   */\n      not\n        /* \"#utility.yul\":15418:15423   */\n      dup5\n        /* \"#utility.yul\":15415:15416   */\n      0x08\n        /* \"#utility.yul\":15411:15424   */\n      mul\n        /* \"#utility.yul\":15382:15433   */\n      tag_256\n      jump\t// in\n    tag_429:\n        /* \"#utility.yul\":15378:15434   */\n      not\n        /* \"#utility.yul\":15463:15467   */\n      dup1\n        /* \"#utility.yul\":15457:15461   */\n      dup4\n        /* \"#utility.yul\":15453:15468   */\n      and\n        /* \"#utility.yul\":15443:15468   */\n      swap2\n      pop\n        /* \"#utility.yul\":15356:15474   */\n      pop\n        /* \"#utility.yul\":15305:15474   */\n      swap3\n      swap2\n      pop\n      pop\n      jump\t// out\n        /* \"#utility.yul\":15479:15774   */\n    tag_258:\n        /* \"#utility.yul\":15555:15559   */\n      0x00\n        /* \"#utility.yul\":15701:15730   */\n      tag_431\n        /* \"#utility.yul\":15726:15729   */\n      dup4\n        /* \"#utility.yul\":15720:15724   */\n      dup4\n        /* \"#utility.yul\":15701:15730   */\n      tag_257\n      jump\t// in\n    tag_431:\n        /* \"#utility.yul\":15693:15730   */\n      swap2\n      pop\n        /* \"#utility.yul\":15763:15766   */\n      dup3\n        /* \"#utility.yul\":15760:15761   */\n      0x02\n        /* \"#utility.yul\":15756:15767   */\n      mul\n        /* \"#utility.yul\":15750:15754   */\n      dup3\n        /* \"#utility.yul\":15747:15768   */\n      or\n        /* \"#utility.yul\":15739:15768   */\n      swap1\n      pop\n        /* \"#utility.yul\":15479:15774   */\n      swap3\n      swap2\n      pop\n      pop\n      jump\t// out\n        /* \"#utility.yul\":15779:17174   */\n    tag_114:\n        /* \"#utility.yul\":15896:15933   */\n      tag_433\n        /* \"#utility.yul\":15929:15932   */\n      dup3\n        /* \"#utility.yul\":15896:15933   */\n      tag_231\n      jump\t// in\n    tag_433:\n        /* \"#utility.yul\":15998:16016   */\n      0xffffffffffffffff\n        /* \"#utility.yul\":15990:15996   */\n      dup2\n        /* \"#utility.yul\":15987:16017   */\n      gt\n        /* \"#utility.yul\":15984:16040   */\n      iszero\n      tag_434\n      jumpi\n        /* \"#utility.yul\":16020:16038   */\n      tag_435\n      tag_221\n      jump\t// in\n    tag_435:\n        /* \"#utility.yul\":15984:16040   */\n    tag_434:\n        /* \"#utility.yul\":16064:16102   */\n      tag_436\n        /* \"#utility.yul\":16096:16100   */\n      dup3\n        /* \"#utility.yul\":16090:16101   */\n      sload\n        /* \"#utility.yul\":16064:16102   */\n      tag_124\n      jump\t// in\n    tag_436:\n        /* \"#utility.yul\":16149:16216   */\n      tag_437\n        /* \"#utility.yul\":16209:16215   */\n      dup3\n        /* \"#utility.yul\":16201:16207   */\n      dup3\n        /* \"#utility.yul\":16195:16199   */\n      dup6\n        /* \"#utility.yul\":16149:16216   */\n      tag_255\n      jump\t// in\n    tag_437:\n        /* \"#utility.yul\":16243:16244   */\n      0x00\n        /* \"#utility.yul\":16267:16271   */\n      0x20\n        /* \"#utility.yul\":16254:16271   */\n      swap1\n      pop\n        /* \"#utility.yul\":16299:16301   */\n      0x1f\n        /* \"#utility.yul\":16291:16297   */\n      dup4\n        /* \"#utility.yul\":16288:16302   */\n      gt\n        /* \"#utility.yul\":16316:16317   */\n      0x01\n        /* \"#utility.yul\":16311:16929   */\n      dup2\n      eq\n      tag_439\n      jumpi\n        /* \"#utility.yul\":16973:16974   */\n      0x00\n        /* \"#utility.yul\":16990:16996   */\n      dup5\n        /* \"#utility.yul\":16987:17064   */\n      iszero\n      tag_440\n      jumpi\n        /* \"#utility.yul\":17039:17048   */\n      dup3\n        /* \"#utility.yul\":17034:17037   */\n      dup8\n        /* \"#utility.yul\":17030:17049   */\n      add\n        /* \"#utility.yul\":17024:17050   */\n      mload\n        /* \"#utility.yul\":17015:17050   */\n      swap1\n      pop\n        /* \"#utility.yul\":16987:17064   */\n    tag_440:\n        /* \"#utility.yul\":17090:17157   */\n      tag_441\n        /* \"#utility.yul\":17150:17156   */\n      dup6\n        /* \"#utility.yul\":17143:17148   */\n      dup3\n        /* \"#utility.yul\":17090:17157   */\n      tag_258\n      jump\t// in\n    tag_441:\n        /* \"#utility.yul\":17084:17088   */\n      dup7\n        /* \"#utility.yul\":17077:17158   */\n      sstore\n        /* \"#utility.yul\":16946:17168   */\n      pop\n        /* \"#utility.yul\":16281:17168   */\n      jump(tag_438)\n        /* \"#utility.yul\":16311:16929   */\n    tag_439:\n        /* \"#utility.yul\":16363:16367   */\n      0x1f\n        /* \"#utility.yul\":16359:16368   */\n      not\n        /* \"#utility.yul\":16351:16357   */\n      dup5\n        /* \"#utility.yul\":16347:16369   */\n      and\n        /* \"#utility.yul\":16397:16434   */\n      tag_442\n        /* \"#utility.yul\":16429:16433   */\n      dup7\n        /* \"#utility.yul\":16397:16434   */\n      tag_244\n      jump\t// in\n    tag_442:\n        /* \"#utility.yul\":16456:16457   */\n      0x00\n        /* \"#utility.yul\":16470:16678   */\n    tag_443:\n        /* \"#utility.yul\":16484:16491   */\n      dup3\n        /* \"#utility.yul\":16481:16482   */\n      dup2\n        /* \"#utility.yul\":16478:16492   */\n      lt\n        /* \"#utility.yul\":16470:16678   */\n      iszero\n      tag_445\n      jumpi\n        /* \"#utility.yul\":16563:16572   */\n      dup5\n        /* \"#utility.yul\":16558:16561   */\n      dup10\n        /* \"#utility.yul\":16554:16573   */\n      add\n        /* \"#utility.yul\":16548:16574   */\n      mload\n        /* \"#utility.yul\":16540:16546   */\n      dup3\n        /* \"#utility.yul\":16533:16575   */\n      sstore\n        /* \"#utility.yul\":16614:16615   */\n      0x01\n        /* \"#utility.yul\":16606:16612   */\n      dup3\n        /* \"#utility.yul\":16602:16616   */\n      add\n        /* \"#utility.yul\":16592:16616   */\n      swap2\n      pop\n        /* \"#utility.yul\":16661:16663   */\n      0x20\n        /* \"#utility.yul\":16650:16659   */\n      dup6\n        /* \"#utility.yul\":16646:16664   */\n      add\n        /* \"#utility.yul\":16633:16664   */\n      swap5\n      pop\n        /* \"#utility.yul\":16507:16511   */\n      0x20\n        /* \"#utility.yul\":16504:16505   */\n      dup2\n        /* \"#utility.yul\":16500:16512   */\n      add\n        /* \"#utility.yul\":16495:16512   */\n      swap1\n      pop\n        /* \"#utility.yul\":16470:16678   */\n      jump(tag_443)\n    tag_445:\n        /* \"#utility.yul\":16706:16712   */\n      dup7\n        /* \"#utility.yul\":16697:16704   */\n      dup4\n        /* \"#utility.yul\":16694:16713   */\n      lt\n        /* \"#utility.yul\":16691:16870   */\n      iszero\n      tag_446\n      jumpi\n        /* \"#utility.yul\":16764:16773   */\n      dup5\n        /* \"#utility.yul\":16759:16762   */\n      dup10\n        /* \"#utility.yul\":16755:16774   */\n      add\n        /* \"#utility.yul\":16749:16775   */\n      mload\n        /* \"#utility.yul\":16807:16855   */\n      tag_447\n        /* \"#utility.yul\":16849:16853   */\n      0x1f\n        /* \"#utility.yul\":16841:16847   */\n      dup10\n        /* \"#utility.yul\":16837:16854   */\n      and\n        /* \"#utility.yul\":16826:16835   */\n      dup3\n        /* \"#utility.yul\":16807:16855   */\n      tag_257\n      jump\t// in\n    tag_447:\n        /* \"#utility.yul\":16799:16805   */\n      dup4\n        /* \"#utility.yul\":16792:16856   */\n      sstore\n        /* \"#utility.yul\":16714:16870   */\n      pop\n        /* \"#utility.yul\":16691:16870   */\n    tag_446:\n        /* \"#utility.yul\":16916:16917   */\n      0x01\n        /* \"#utility.yul\":16912:16913   */\n      0x02\n        /* \"#utility.yul\":16904:16910   */\n      dup9\n        /* \"#utility.yul\":16900:16914   */\n      mul\n        /* \"#utility.yul\":16896:16918   */\n      add\n        /* \"#utility.yul\":16890:16894   */\n      dup9\n        /* \"#utility.yul\":16883:16919   */\n      sstore\n        /* \"#utility.yul\":16318:16929   */\n      pop\n      pop\n      pop\n        /* \"#utility.yul\":16281:17168   */\n    tag_438:\n      pop\n        /* \"#utility.yul\":15871:17174   */\n      pop\n      pop\n      pop\n        /* \"#utility.yul\":15779:17174   */\n      pop\n      pop\n      jump\t// out\n\n    auxdata: 0xa2646970667358221220aa936feb8b862ba5f655713127e6771959372ca11d89b93971dcf537168159a464736f6c63430008120033\n}\n",
				"bytecode": {
					"linkReferences": {},
					"object": "608060405260016000556001805560016002556001600360006101000a81548160ff021916908360ff1602179055506040518060400160405280600d81526020017f48656c6c6f2c20576f726c642100000000000000000000000000000000000000815250600490816200007491906200080f565b507f48656c6c6f2c20576f726c6421000000000000000000000000000000000000006005556040518060400160405280600181526020016040518060400160405280600c81526020017f48656c6c6f20776f726c6421000000000000000000000000000000000000000081525081525060066000820151816000015560208201518160010190816200010791906200080f565b5050506040518060600160405280600160ff168152602001600260ff168152602001600360ff16815250600890600362000143929190620003a4565b5060405180606001604052806040518060400160405280600481526020017f4a6f686e0000000000000000000000000000000000000000000000000000000081525081526020016040518060400160405280600681526020017f4a6f686e6e79000000000000000000000000000000000000000000000000000081525081526020016040518060400160405280600781526020017f4a6f686e736f6e00000000000000000000000000000000000000000000000000815250815250600990600362000210929190620003fb565b5060405180604001604052806040518060600160405280600160ff168152602001600260ff168152602001600360ff1681525081526020016040518060600160405280600460ff168152602001600560ff168152602001600660ff16815250815250600b906002620002849291906200045b565b503480156200029257600080fd5b506040518060400160405280600481526020017f4a6f686e00000000000000000000000000000000000000000000000000000000815250600c6000600181526020019081526020016000209081620002eb91906200080f565b506040518060400160405280600c81526020017f4a6f68616e205065747465720000000000000000000000000000000000000000815250600c60006002815260200190815260200160002090816200034491906200080f565b506040518060400160405280600581526020017f4a6f726e79000000000000000000000000000000000000000000000000000000815250600c60006003815260200190815260200160002090816200039d91906200080f565b50620008f6565b828054828255906000526020600020908101928215620003e8579160200282015b82811115620003e7578251829060ff16905591602001919060010190620003c5565b5b509050620003f79190620004bd565b5090565b82805482825590600052602060002090810192821562000448579160200282015b82811115620004475782518290816200043691906200080f565b50916020019190600101906200041c565b5b509050620004579190620004dc565b5090565b828054828255906000526020600020908101928215620004aa579160200282015b82811115620004a95782518290600362000498929190620003a4565b50916020019190600101906200047c565b5b509050620004b9919062000504565b5090565b5b80821115620004d8576000816000905550600101620004be565b5090565b5b80821115620005005760008181620004f691906200052c565b50600101620004dd565b5090565b5b808211156200052857600081816200051e919062000572565b5060010162000505565b5090565b5080546200053a90620005fe565b6000825580601f106200054e57506200056f565b601f0160209004906000526020600020908101906200056e9190620004bd565b5b50565b5080546000825590600052602060002090810190620005929190620004bd565b50565b600081519050919050565b7f4e487b7100000000000000000000000000000000000000000000000000000000600052604160045260246000fd5b7f4e487b7100000000000000000000000000000000000000000000000000000000600052602260045260246000fd5b600060028204905060018216806200061757607f821691505b6020821081036200062d576200062c620005cf565b5b50919050565b60008190508160005260206000209050919050565b60006020601f8301049050919050565b600082821b905092915050565b600060088302620006977fffffffffffffffffffffffffffffffffffffffffffffffffffffffffffffffff8262000658565b620006a3868362000658565b95508019841693508086168417925050509392505050565b6000819050919050565b6000819050919050565b6000620006f0620006ea620006e484620006bb565b620006c5565b620006bb565b9050919050565b6000819050919050565b6200070c83620006cf565b620007246200071b82620006f7565b84845462000665565b825550505050565b600090565b6200073b6200072c565b6200074881848462000701565b505050565b5b8181101562000770576200076460008262000731565b6001810190506200074e565b5050565b601f821115620007bf57620007898162000633565b620007948462000648565b81016020851015620007a4578190505b620007bc620007b38562000648565b8301826200074d565b50505b505050565b600082821c905092915050565b6000620007e460001984600802620007c4565b1980831691505092915050565b6000620007ff8383620007d1565b9150826002028217905092915050565b6200081a8262000595565b67ffffffffffffffff811115620008365762000835620005a0565b5b620008428254620005fe565b6200084f82828562000774565b600060209050601f83116001811462000887576000841562000872578287015190505b6200087e8582620007f1565b865550620008ee565b601f198416620008978662000633565b60005b82811015620008c1578489015182556001820191506020850194506020810190506200089a565b86831015620008e15784890151620008dd601f891682620007d1565b8355505b6001600288020188555050505b505050505050565b61191d80620009066000396000f3fe608060405234801561001057600080fd5b50600436106101375760003560e01c806368744046116100b8578063a7dbce1c1161007c578063a7dbce1c14610355578063ac2447f114610373578063c4172162146103a6578063d3268fc1146103d7578063db6e35b214610407578063e2a4b2af1461042357610137565b806368744046146102865780637c73709a146102b75780638bc9fe6c146102ea5780639aa36590146103095780639ae918c71461032557610137565b80633a5fbaaa116100ff5780633a5fbaaa146101ce578063492bfa18146101ea5780634b3e7e0c146102085780635e383d21146102265780636422c4c81461025657610137565b8063028414f21461013c57806306540f7e146101585780632036d2951461017657806326eb4dbb146101925780632cb777a6146101b0575b600080fd5b61015660048036038101906101519190611130565b610441565b005b61016061049d565b60405161016d91906111ca565b60405180910390f35b610190600480360381019061018b9190611130565b6104a3565b005b61019a6104ff565b6040516101a791906111ca565b60405180910390f35b6101b861050c565b6040516101c591906111fe565b60405180910390f35b6101e860048036038101906101e39190611219565b610512565b005b6101f261054a565b6040516101ff91906112e1565b60405180910390f35b6102106105d8565b60405161021d919061131c565b60405180910390f35b610240600480360381019061023b9190611337565b6105de565b60405161024d91906112e1565b60405180910390f35b610270600480360381019061026b9190611337565b61068a565b60405161027d91906112e1565b60405180910390f35b6102a0600480360381019061029b9190611337565b610736565b6040516102ae929190611364565b60405180910390f35b6102d160048036038101906102cc91906113f9565b61086a565b6040516102e19493929190611439565b60405180910390f35b6102f2610a3f565b604051610300929190611493565b60405180910390f35b610323600480360381019061031e91906114c3565b610ad9565b005b61033f600480360381019061033a9190611337565b610b63565b60405161034c91906111ca565b60405180910390f35b61035d610b87565b60405161036a91906111ca565b60405180910390f35b61038d60048036038101906103889190611337565b610b8d565b60405161039d9493929190611439565b60405180910390f35b6103c060048036038101906103bb9190611337565b610d55565b6040516103ce929190611364565b60405180910390f35b6103f160048036038101906103ec9190611592565b610e89565b6040516103fe91906111ca565b60405180910390f35b610421600480360381019061041c91906114c3565b610ec6565b005b61042b610f8d565b60405161043891906115ee565b60405180910390f35b604051806040016040528083815260200182815250600d6000858152602001908152602001600020600082015181600001908161047e9190611815565b5060208201518160010190816104949190611815565b50905050505050565b60005481565b604051806040016040528083815260200182815250600e600085815260200190815260200160002060008201518160000190816104e09190611815565b5060208201518160010190816104f69190611815565b50905050505050565b6000600a80549050905090565b60015481565b600a819080600181540180825580915050600190039060005260206000200160009091909190915090816105469190611815565b5050565b6004805461055790611638565b80601f016020809104026020016040519081016040528092919081815260200182805461058390611638565b80156105d05780601f106105a5576101008083540402835291602001916105d0565b820191906000526020600020905b8154815290600101906020018083116105b357829003601f168201915b505050505081565b60055481565b600a81815481106105ee57600080fd5b90600052602060002001600091509050805461060990611638565b80601f016020809104026020016040519081016040528092919081815260200182805461063590611638565b80156106825780601f1061065757610100808354040283529160200191610682565b820191906000526020600020905b81548152906001019060200180831161066557829003601f168201915b505050505081565b6009818154811061069a57600080fd5b9060005260206000200160009150905080546106b590611638565b80601f01602080910402602001604051908101604052809291908181526020018280546106e190611638565b801561072e5780601f106107035761010080835404028352916020019161072e565b820191906000526020600020905b81548152906001019060200180831161071157829003601f168201915b505050505081565b600d60205280600052604060002060009150905080600001805461075990611638565b80601f016020809104026020016040519081016040528092919081815260200182805461078590611638565b80156107d25780601f106107a7576101008083540402835291602001916107d2565b820191906000526020600020905b8154815290600101906020018083116107b557829003601f168201915b5050505050908060010180546107e790611638565b80601f016020809104026020016040519081016040528092919081815260200182805461081390611638565b80156108605780601f1061083557610100808354040283529160200191610860565b820191906000526020600020905b81548152906001019060200180831161084357829003601f168201915b5050505050905082565b6010602052816000526040600020602052806000526040600020600091509150508060000154908060010180546108a090611638565b80601f01602080910402602001604051908101604052809291908181526020018280546108cc90611638565b80156109195780601f106108ee57610100808354040283529160200191610919565b820191906000526020600020905b8154815290600101906020018083116108fc57829003601f168201915b50505050509080600201805461092e90611638565b80601f016020809104026020016040519081016040528092919081815260200182805461095a90611638565b80156109a75780601f1061097c576101008083540402835291602001916109a7565b820191906000526020600020905b81548152906001019060200180831161098a57829003601f168201915b5050505050908060030180546109bc90611638565b80601f01602080910402602001604051908101604052809291908181526020018280546109e890611638565b8015610a355780601f10610a0a57610100808354040283529160200191610a35565b820191906000526020600020905b815481529060010190602001808311610a1857829003601f168201915b5050505050905084565b6006806000015490806001018054610a5690611638565b80601f0160208091040260200160405190810160405280929190818152602001828054610a8290611638565b8015610acf5780601f10610aa457610100808354040283529160200191610acf565b820191906000526020600020905b815481529060010190602001808311610ab257829003601f168201915b5050505050905082565b604051806080016040528085815260200184815260200183815260200182815250600f6000878152602001908152602001600020600082015181600001556020820151816001019081610b2c9190611815565b506040820151816002019081610b429190611815565b506060820151816003019081610b589190611815565b509050505050505050565b60088181548110610b7357600080fd5b906000526020600020016000915090505481565b60025481565b600f602052806000526040600020600091509050806000015490806001018054610bb690611638565b80601f0160208091040260200160405190810160405280929190818152602001828054610be290611638565b8015610c2f5780601f10610c0457610100808354040283529160200191610c2f565b820191906000526020600020905b815481529060010190602001808311610c1257829003601f168201915b505050505090806002018054610c4490611638565b80601f0160208091040260200160405190810160405280929190818152602001828054610c7090611638565b8015610cbd5780601f10610c9257610100808354040283529160200191610cbd565b820191906000526020600020905b815481529060010190602001808311610ca057829003601f168201915b505050505090806003018054610cd290611638565b80601f0160208091040260200160405190810160405280929190818152602001828054610cfe90611638565b8015610d4b5780601f10610d2057610100808354040283529160200191610d4b565b820191906000526020600020905b815481529060010190602001808311610d2e57829003601f168201915b5050505050905084565b600e602052806000526040600020600091509050806000018054610d7890611638565b80601f0160208091040260200160405190810160405280929190818152602001828054610da490611638565b8015610df15780601f10610dc657610100808354040283529160200191610df1565b820191906000526020600020905b815481529060010190602001808311610dd457829003601f168201915b505050505090806001018054610e0690611638565b80601f0160208091040260200160405190810160405280929190818152602001828054610e3290611638565b8015610e7f5780601f10610e5457610100808354040283529160200191610e7f565b820191906000526020600020905b815481529060010190602001808311610e6257829003601f168201915b5050505050905082565b600b8281548110610e9957600080fd5b906000526020600020018181548110610eb157600080fd5b90600052602060002001600091509150505481565b604051806080016040528085815260200184815260200183815260200182815250601060003373ffffffffffffffffffffffffffffffffffffffff1673ffffffffffffffffffffffffffffffffffffffff1681526020019081526020016000206000878152602001908152602001600020600082015181600001556020820151816001019081610f569190611815565b506040820151816002019081610f6c9190611815565b506060820151816003019081610f829190611815565b509050505050505050565b600360009054906101000a900460ff1681565b6000604051905090565b600080fd5b600080fd5b6000819050919050565b610fc781610fb4565b8114610fd257600080fd5b50565b600081359050610fe481610fbe565b92915050565b600080fd5b600080fd5b6000601f19601f8301169050919050565b7f4e487b7100000000000000000000000000000000000000000000000000000000600052604160045260246000fd5b61103d82610ff4565b810181811067ffffffffffffffff8211171561105c5761105b611005565b5b80604052505050565b600061106f610fa0565b905061107b8282611034565b919050565b600067ffffffffffffffff82111561109b5761109a611005565b5b6110a482610ff4565b9050602081019050919050565b82818337600083830152505050565b60006110d36110ce84611080565b611065565b9050828152602081018484840111156110ef576110ee610fef565b5b6110fa8482856110b1565b509392505050565b600082601f83011261111757611116610fea565b5b81356111278482602086016110c0565b91505092915050565b60008060006060848603121561114957611148610faa565b5b600061115786828701610fd5565b935050602084013567ffffffffffffffff81111561117857611177610faf565b5b61118486828701611102565b925050604084013567ffffffffffffffff8111156111a5576111a4610faf565b5b6111b186828701611102565b9150509250925092565b6111c481610fb4565b82525050565b60006020820190506111df60008301846111bb565b92915050565b6000819050919050565b6111f8816111e5565b82525050565b600060208201905061121360008301846111ef565b92915050565b60006020828403121561122f5761122e610faa565b5b600082013567ffffffffffffffff81111561124d5761124c610faf565b5b61125984828501611102565b91505092915050565b600081519050919050565b600082825260208201905092915050565b60005b8381101561129c578082015181840152602081019050611281565b60008484015250505050565b60006112b382611262565b6112bd818561126d565b93506112cd81856020860161127e565b6112d681610ff4565b840191505092915050565b600060208201905081810360008301526112fb81846112a8565b905092915050565b6000819050919050565b61131681611303565b82525050565b6000602082019050611331600083018461130d565b92915050565b60006020828403121561134d5761134c610faa565b5b600061135b84828501610fd5565b91505092915050565b6000604082019050818103600083015261137e81856112a8565b9050818103602083015261139281846112a8565b90509392505050565b600073ffffffffffffffffffffffffffffffffffffffff82169050919050565b60006113c68261139b565b9050919050565b6113d6816113bb565b81146113e157600080fd5b50565b6000813590506113f3816113cd565b92915050565b600080604083850312156114105761140f610faa565b5b600061141e858286016113e4565b925050602061142f85828601610fd5565b9150509250929050565b600060808201905061144e60008301876111bb565b818103602083015261146081866112a8565b9050818103604083015261147481856112a8565b9050818103606083015261148881846112a8565b905095945050505050565b60006040820190506114a860008301856111bb565b81810360208301526114ba81846112a8565b90509392505050565b600080600080600060a086880312156114df576114de610faa565b5b60006114ed88828901610fd5565b95505060206114fe88828901610fd5565b945050604086013567ffffffffffffffff81111561151f5761151e610faf565b5b61152b88828901611102565b935050606086013567ffffffffffffffff81111561154c5761154b610faf565b5b61155888828901611102565b925050608086013567ffffffffffffffff81111561157957611578610faf565b5b61158588828901611102565b9150509295509295909350565b600080604083850312156115a9576115a8610faa565b5b60006115b785828601610fd5565b92505060206115c885828601610fd5565b9150509250929050565b600060ff82169050919050565b6115e8816115d2565b82525050565b600060208201905061160360008301846115df565b92915050565b7f4e487b7100000000000000000000000000000000000000000000000000000000600052602260045260246000fd5b6000600282049050600182168061165057607f821691505b60208210810361166357611662611609565b5b50919050565b60008190508160005260206000209050919050565b60006020601f8301049050919050565b600082821b905092915050565b6000600883026116cb7fffffffffffffffffffffffffffffffffffffffffffffffffffffffffffffffff8261168e565b6116d5868361168e565b95508019841693508086168417925050509392505050565b6000819050919050565b600061171261170d61170884610fb4565b6116ed565b610fb4565b9050919050565b6000819050919050565b61172c836116f7565b61174061173882611719565b84845461169b565b825550505050565b600090565b611755611748565b611760818484611723565b505050565b5b818110156117845761177960008261174d565b600181019050611766565b5050565b601f8211156117c95761179a81611669565b6117a38461167e565b810160208510156117b2578190505b6117c66117be8561167e565b830182611765565b50505b505050565b600082821c905092915050565b60006117ec600019846008026117ce565b1980831691505092915050565b600061180583836117db565b9150826002028217905092915050565b61181e82611262565b67ffffffffffffffff81111561183757611836611005565b5b6118418254611638565b61184c828285611788565b600060209050601f83116001811461187f576000841561186d578287015190505b61187785826117f9565b8655506118df565b601f19841661188d86611669565b60005b828110156118b557848901518255600182019150602085019450602081019050611890565b868310156118d257848901516118ce601f8916826117db565b8355505b6001600288020188555050505b50505050505056fea2646970667358221220aa936feb8b862ba5f655713127e6771959372ca11d89b93971dcf537168159a464736f6c63430008120033",
					"opcodes": "PUSH1 0x80 PUSH1 0x40 MSTORE PUSH1 0x1 PUSH1 0x0 SSTORE PUSH1 0x1 DUP1 SSTORE PUSH1 0x1 PUSH1 0x2 SSTORE PUSH1 0x1 PUSH1 0x3 PUSH1 0x0 PUSH2 0x100 EXP DUP2 SLOAD DUP2 PUSH1 0xFF MUL NOT AND SWAP1 DUP4 PUSH1 0xFF AND MUL OR SWAP1 SSTORE POP PUSH1 0x40 MLOAD DUP1 PUSH1 0x40 ADD PUSH1 0x40 MSTORE DUP1 PUSH1 0xD DUP2 MSTORE PUSH1 0x20 ADD PUSH32 0x48656C6C6F2C20576F726C642100000000000000000000000000000000000000 DUP2 MSTORE POP PUSH1 0x4 SWAP1 DUP2 PUSH3 0x74 SWAP2 SWAP1 PUSH3 0x80F JUMP JUMPDEST POP PUSH32 0x48656C6C6F2C20576F726C642100000000000000000000000000000000000000 PUSH1 0x5 SSTORE PUSH1 0x40 MLOAD DUP1 PUSH1 0x40 ADD PUSH1 0x40 MSTORE DUP1 PUSH1 0x1 DUP2 MSTORE PUSH1 0x20 ADD PUSH1 0x40 MLOAD DUP1 PUSH1 0x40 ADD PUSH1 0x40 MSTORE DUP1 PUSH1 0xC DUP2 MSTORE PUSH1 0x20 ADD PUSH32 0x48656C6C6F20776F726C64210000000000000000000000000000000000000000 DUP2 MSTORE POP DUP2 MSTORE POP PUSH1 0x6 PUSH1 0x0 DUP3 ADD MLOAD DUP2 PUSH1 0x0 ADD SSTORE PUSH1 0x20 DUP3 ADD MLOAD DUP2 PUSH1 0x1 ADD SWAP1 DUP2 PUSH3 0x107 SWAP2 SWAP1 PUSH3 0x80F JUMP JUMPDEST POP POP POP PUSH1 0x40 MLOAD DUP1 PUSH1 0x60 ADD PUSH1 0x40 MSTORE DUP1 PUSH1 0x1 PUSH1 0xFF AND DUP2 MSTORE PUSH1 0x20 ADD PUSH1 0x2 PUSH1 0xFF AND DUP2 MSTORE PUSH1 0x20 ADD PUSH1 0x3 PUSH1 0xFF AND DUP2 MSTORE POP PUSH1 0x8 SWAP1 PUSH1 0x3 PUSH3 0x143 SWAP3 SWAP2 SWAP1 PUSH3 0x3A4 JUMP JUMPDEST POP PUSH1 0x40 MLOAD DUP1 PUSH1 0x60 ADD PUSH1 0x40 MSTORE DUP1 PUSH1 0x40 MLOAD DUP1 PUSH1 0x40 ADD PUSH1 0x40 MSTORE DUP1 PUSH1 0x4 DUP2 MSTORE PUSH1 0x20 ADD PUSH32 0x4A6F686E00000000000000000000000000000000000000000000000000000000 DUP2 MSTORE POP DUP2 MSTORE PUSH1 0x20 ADD PUSH1 0x40 MLOAD DUP1 PUSH1 0x40 ADD PUSH1 0x40 MSTORE DUP1 PUSH1 0x6 DUP2 MSTORE PUSH1 0x20 ADD PUSH32 0x4A6F686E6E790000000000000000000000000000000000000000000000000000 DUP2 MSTORE POP DUP2 MSTORE PUSH1 0x20 ADD PUSH1 0x40 MLOAD DUP1 PUSH1 0x40 ADD PUSH1 0x40 MSTORE DUP1 PUSH1 0x7 DUP2 MSTORE PUSH1 0x20 ADD PUSH32 0x4A6F686E736F6E00000000000000000000000000000000000000000000000000 DUP2 MSTORE POP DUP2 MSTORE POP PUSH1 0x9 SWAP1 PUSH1 0x3 PUSH3 0x210 SWAP3 SWAP2 SWAP1 PUSH3 0x3FB JUMP JUMPDEST POP PUSH1 0x40 MLOAD DUP1 PUSH1 0x40 ADD PUSH1 0x40 MSTORE DUP1 PUSH1 0x40 MLOAD DUP1 PUSH1 0x60 ADD PUSH1 0x40 MSTORE DUP1 PUSH1 0x1 PUSH1 0xFF AND DUP2 MSTORE PUSH1 0x20 ADD PUSH1 0x2 PUSH1 0xFF AND DUP2 MSTORE PUSH1 0x20 ADD PUSH1 0x3 PUSH1 0xFF AND DUP2 MSTORE POP DUP2 MSTORE PUSH1 0x20 ADD PUSH1 0x40 MLOAD DUP1 PUSH1 0x60 ADD PUSH1 0x40 MSTORE DUP1 PUSH1 0x4 PUSH1 0xFF AND DUP2 MSTORE PUSH1 0x20 ADD PUSH1 0x5 PUSH1 0xFF AND DUP2 MSTORE PUSH1 0x20 ADD PUSH1 0x6 PUSH1 0xFF AND DUP2 MSTORE POP DUP2 MSTORE POP PUSH1 0xB SWAP1 PUSH1 0x2 PUSH3 0x284 SWAP3 SWAP2 SWAP1 PUSH3 0x45B JUMP JUMPDEST POP CALLVALUE DUP1 ISZERO PUSH3 0x292 JUMPI PUSH1 0x0 DUP1 REVERT JUMPDEST POP PUSH1 0x40 MLOAD DUP1 PUSH1 0x40 ADD PUSH1 0x40 MSTORE DUP1 PUSH1 0x4 DUP2 MSTORE PUSH1 0x20 ADD PUSH32 0x4A6F686E00000000000000000000000000000000000000000000000000000000 DUP2 MSTORE POP PUSH1 0xC PUSH1 0x0 PUSH1 0x1 DUP2 MSTORE PUSH1 0x20 ADD SWAP1 DUP2 MSTORE PUSH1 0x20 ADD PUSH1 0x0 KECCAK256 SWAP1 DUP2 PUSH3 0x2EB SWAP2 SWAP1 PUSH3 0x80F JUMP JUMPDEST POP PUSH1 0x40 MLOAD DUP1 PUSH1 0x40 ADD PUSH1 0x40 MSTORE DUP1 PUSH1 0xC DUP2 MSTORE PUSH1 0x20 ADD PUSH32 0x4A6F68616E205065747465720000000000000000000000000000000000000000 DUP2 MSTORE POP PUSH1 0xC PUSH1 0x0 PUSH1 0x2 DUP2 MSTORE PUSH1 0x20 ADD SWAP1 DUP2 MSTORE PUSH1 0x20 ADD PUSH1 0x0 KECCAK256 SWAP1 DUP2 PUSH3 0x344 SWAP2 SWAP1 PUSH3 0x80F JUMP JUMPDEST POP PUSH1 0x40 MLOAD DUP1 PUSH1 0x40 ADD PUSH1 0x40 MSTORE DUP1 PUSH1 0x5 DUP2 MSTORE PUSH1 0x20 ADD PUSH32 0x4A6F726E79000000000000000000000000000000000000000000000000000000 DUP2 MSTORE POP PUSH1 0xC PUSH1 0x0 PUSH1 0x3 DUP2 MSTORE PUSH1 0x20 ADD SWAP1 DUP2 MSTORE PUSH1 0x20 ADD PUSH1 0x0 KECCAK256 SWAP1 DUP2 PUSH3 0x39D SWAP2 SWAP1 PUSH3 0x80F JUMP JUMPDEST POP PUSH3 0x8F6 JUMP JUMPDEST DUP3 DUP1 SLOAD DUP3 DUP3 SSTORE SWAP1 PUSH1 0x0 MSTORE PUSH1 0x20 PUSH1 0x0 KECCAK256 SWAP1 DUP2 ADD SWAP3 DUP3 ISZERO PUSH3 0x3E8 JUMPI SWAP2 PUSH1 0x20 MUL DUP3 ADD JUMPDEST DUP3 DUP2 GT ISZERO PUSH3 0x3E7 JUMPI DUP3 MLOAD DUP3 SWAP1 PUSH1 0xFF AND SWAP1 SSTORE SWAP2 PUSH1 0x20 ADD SWAP2 SWAP1 PUSH1 0x1 ADD SWAP1 PUSH3 0x3C5 JUMP JUMPDEST JUMPDEST POP SWAP1 POP PUSH3 0x3F7 SWAP2 SWAP1 PUSH3 0x4BD JUMP JUMPDEST POP SWAP1 JUMP JUMPDEST DUP3 DUP1 SLOAD DUP3 DUP3 SSTORE SWAP1 PUSH1 0x0 MSTORE PUSH1 0x20 PUSH1 0x0 KECCAK256 SWAP1 DUP2 ADD SWAP3 DUP3 ISZERO PUSH3 0x448 JUMPI SWAP2 PUSH1 0x20 MUL DUP3 ADD JUMPDEST DUP3 DUP2 GT ISZERO PUSH3 0x447 JUMPI DUP3 MLOAD DUP3 SWAP1 DUP2 PUSH3 0x436 SWAP2 SWAP1 PUSH3 0x80F JUMP JUMPDEST POP SWAP2 PUSH1 0x20 ADD SWAP2 SWAP1 PUSH1 0x1 ADD SWAP1 PUSH3 0x41C JUMP JUMPDEST JUMPDEST POP SWAP1 POP PUSH3 0x457 SWAP2 SWAP1 PUSH3 0x4DC JUMP JUMPDEST POP SWAP1 JUMP JUMPDEST DUP3 DUP1 SLOAD DUP3 DUP3 SSTORE SWAP1 PUSH1 0x0 MSTORE PUSH1 0x20 PUSH1 0x0 KECCAK256 SWAP1 DUP2 ADD SWAP3 DUP3 ISZERO PUSH3 0x4AA JUMPI SWAP2 PUSH1 0x20 MUL DUP3 ADD JUMPDEST DUP3 DUP2 GT ISZERO PUSH3 0x4A9 JUMPI DUP3 MLOAD DUP3 SWAP1 PUSH1 0x3 PUSH3 0x498 SWAP3 SWAP2 SWAP1 PUSH3 0x3A4 JUMP JUMPDEST POP SWAP2 PUSH1 0x20 ADD SWAP2 SWAP1 PUSH1 0x1 ADD SWAP1 PUSH3 0x47C JUMP JUMPDEST JUMPDEST POP SWAP1 POP PUSH3 0x4B9 SWAP2 SWAP1 PUSH3 0x504 JUMP JUMPDEST POP SWAP1 JUMP JUMPDEST JUMPDEST DUP1 DUP3 GT ISZERO PUSH3 0x4D8 JUMPI PUSH1 0x0 DUP2 PUSH1 0x0 SWAP1 SSTORE POP PUSH1 0x1 ADD PUSH3 0x4BE JUMP JUMPDEST POP SWAP1 JUMP JUMPDEST JUMPDEST DUP1 DUP3 GT ISZERO PUSH3 0x500 JUMPI PUSH1 0x0 DUP2 DUP2 PUSH3 0x4F6 SWAP2 SWAP1 PUSH3 0x52C JUMP JUMPDEST POP PUSH1 0x1 ADD PUSH3 0x4DD JUMP JUMPDEST POP SWAP1 JUMP JUMPDEST JUMPDEST DUP1 DUP3 GT ISZERO PUSH3 0x528 JUMPI PUSH1 0x0 DUP2 DUP2 PUSH3 0x51E SWAP2 SWAP1 PUSH3 0x572 JUMP JUMPDEST POP PUSH1 0x1 ADD PUSH3 0x505 JUMP JUMPDEST POP SWAP1 JUMP JUMPDEST POP DUP1 SLOAD PUSH3 0x53A SWAP1 PUSH3 0x5FE JUMP JUMPDEST PUSH1 0x0 DUP3 SSTORE DUP1 PUSH1 0x1F LT PUSH3 0x54E JUMPI POP PUSH3 0x56F JUMP JUMPDEST PUSH1 0x1F ADD PUSH1 0x20 SWAP1 DIV SWAP1 PUSH1 0x0 MSTORE PUSH1 0x20 PUSH1 0x0 KECCAK256 SWAP1 DUP2 ADD SWAP1 PUSH3 0x56E SWAP2 SWAP1 PUSH3 0x4BD JUMP JUMPDEST JUMPDEST POP JUMP JUMPDEST POP DUP1 SLOAD PUSH1 0x0 DUP3 SSTORE SWAP1 PUSH1 0x0 MSTORE PUSH1 0x20 PUSH1 0x0 KECCAK256 SWAP1 DUP2 ADD SWAP1 PUSH3 0x592 SWAP2 SWAP1 PUSH3 0x4BD JUMP JUMPDEST POP JUMP JUMPDEST PUSH1 0x0 DUP2 MLOAD SWAP1 POP SWAP2 SWAP1 POP JUMP JUMPDEST PUSH32 0x4E487B7100000000000000000000000000000000000000000000000000000000 PUSH1 0x0 MSTORE PUSH1 0x41 PUSH1 0x4 MSTORE PUSH1 0x24 PUSH1 0x0 REVERT JUMPDEST PUSH32 0x4E487B7100000000000000000000000000000000000000000000000000000000 PUSH1 0x0 MSTORE PUSH1 0x22 PUSH1 0x4 MSTORE PUSH1 0x24 PUSH1 0x0 REVERT JUMPDEST PUSH1 0x0 PUSH1 0x2 DUP3 DIV SWAP1 POP PUSH1 0x1 DUP3 AND DUP1 PUSH3 0x617 JUMPI PUSH1 0x7F DUP3 AND SWAP2 POP JUMPDEST PUSH1 0x20 DUP3 LT DUP2 SUB PUSH3 0x62D JUMPI PUSH3 0x62C PUSH3 0x5CF JUMP JUMPDEST JUMPDEST POP SWAP2 SWAP1 POP JUMP JUMPDEST PUSH1 0x0 DUP2 SWAP1 POP DUP2 PUSH1 0x0 MSTORE PUSH1 0x20 PUSH1 0x0 KECCAK256 SWAP1 POP SWAP2 SWAP1 POP JUMP JUMPDEST PUSH1 0x0 PUSH1 0x20 PUSH1 0x1F DUP4 ADD DIV SWAP1 POP SWAP2 SWAP1 POP JUMP JUMPDEST PUSH1 0x0 DUP3 DUP3 SHL SWAP1 POP SWAP3 SWAP2 POP POP JUMP JUMPDEST PUSH1 0x0 PUSH1 0x8 DUP4 MUL PUSH3 0x697 PUSH32 0xFFFFFFFFFFFFFFFFFFFFFFFFFFFFFFFFFFFFFFFFFFFFFFFFFFFFFFFFFFFFFFFF DUP3 PUSH3 0x658 JUMP JUMPDEST PUSH3 0x6A3 DUP7 DUP4 PUSH3 0x658 JUMP JUMPDEST SWAP6 POP DUP1 NOT DUP5 AND SWAP4 POP DUP1 DUP7 AND DUP5 OR SWAP3 POP POP POP SWAP4 SWAP3 POP POP POP JUMP JUMPDEST PUSH1 0x0 DUP2 SWAP1 POP SWAP2 SWAP1 POP JUMP JUMPDEST PUSH1 0x0 DUP2 SWAP1 POP SWAP2 SWAP1 POP JUMP JUMPDEST PUSH1 0x0 PUSH3 0x6F0 PUSH3 0x6EA PUSH3 0x6E4 DUP5 PUSH3 0x6BB JUMP JUMPDEST PUSH3 0x6C5 JUMP JUMPDEST PUSH3 0x6BB JUMP JUMPDEST SWAP1 POP SWAP2 SWAP1 POP JUMP JUMPDEST PUSH1 0x0 DUP2 SWAP1 POP SWAP2 SWAP1 POP JUMP JUMPDEST PUSH3 0x70C DUP4 PUSH3 0x6CF JUMP JUMPDEST PUSH3 0x724 PUSH3 0x71B DUP3 PUSH3 0x6F7 JUMP JUMPDEST DUP5 DUP5 SLOAD PUSH3 0x665 JUMP JUMPDEST DUP3 SSTORE POP POP POP POP JUMP JUMPDEST PUSH1 0x0 SWAP1 JUMP JUMPDEST PUSH3 0x73B PUSH3 0x72C JUMP JUMPDEST PUSH3 0x748 DUP2 DUP5 DUP5 PUSH3 0x701 JUMP JUMPDEST POP POP POP JUMP JUMPDEST JUMPDEST DUP2 DUP2 LT ISZERO PUSH3 0x770 JUMPI PUSH3 0x764 PUSH1 0x0 DUP3 PUSH3 0x731 JUMP JUMPDEST PUSH1 0x1 DUP2 ADD SWAP1 POP PUSH3 0x74E JUMP JUMPDEST POP POP JUMP JUMPDEST PUSH1 0x1F DUP3 GT ISZERO PUSH3 0x7BF JUMPI PUSH3 0x789 DUP2 PUSH3 0x633 JUMP JUMPDEST PUSH3 0x794 DUP5 PUSH3 0x648 JUMP JUMPDEST DUP2 ADD PUSH1 0x20 DUP6 LT ISZERO PUSH3 0x7A4 JUMPI DUP2 SWAP1 POP JUMPDEST PUSH3 0x7BC PUSH3 0x7B3 DUP6 PUSH3 0x648 JUMP JUMPDEST DUP4 ADD DUP3 PUSH3 0x74D JUMP JUMPDEST POP POP JUMPDEST POP POP POP JUMP JUMPDEST PUSH1 0x0 DUP3 DUP3 SHR SWAP1 POP SWAP3 SWAP2 POP POP JUMP JUMPDEST PUSH1 0x0 PUSH3 0x7E4 PUSH1 0x0 NOT DUP5 PUSH1 0x8 MUL PUSH3 0x7C4 JUMP JUMPDEST NOT DUP1 DUP4 AND SWAP2 POP POP SWAP3 SWAP2 POP POP JUMP JUMPDEST PUSH1 0x0 PUSH3 0x7FF DUP4 DUP4 PUSH3 0x7D1 JUMP JUMPDEST SWAP2 POP DUP3 PUSH1 0x2 MUL DUP3 OR SWAP1 POP SWAP3 SWAP2 POP POP JUMP JUMPDEST PUSH3 0x81A DUP3 PUSH3 0x595 JUMP JUMPDEST PUSH8 0xFFFFFFFFFFFFFFFF DUP2 GT ISZERO PUSH3 0x836 JUMPI PUSH3 0x835 PUSH3 0x5A0 JUMP JUMPDEST JUMPDEST PUSH3 0x842 DUP3 SLOAD PUSH3 0x5FE JUMP JUMPDEST PUSH3 0x84F DUP3 DUP3 DUP6 PUSH3 0x774 JUMP JUMPDEST PUSH1 0x0 PUSH1 0x20 SWAP1 POP PUSH1 0x1F DUP4 GT PUSH1 0x1 DUP2 EQ PUSH3 0x887 JUMPI PUSH1 0x0 DUP5 ISZERO PUSH3 0x872 JUMPI DUP3 DUP8 ADD MLOAD SWAP1 POP JUMPDEST PUSH3 0x87E DUP6 DUP3 PUSH3 0x7F1 JUMP JUMPDEST DUP7 SSTORE POP PUSH3 0x8EE JUMP JUMPDEST PUSH1 0x1F NOT DUP5 AND PUSH3 0x897 DUP7 PUSH3 0x633 JUMP JUMPDEST PUSH1 0x0 JUMPDEST DUP3 DUP2 LT ISZERO PUSH3 0x8C1 JUMPI DUP5 DUP10 ADD MLOAD DUP3 SSTORE PUSH1 0x1 DUP3 ADD SWAP2 POP PUSH1 0x20 DUP6 ADD SWAP5 POP PUSH1 0x20 DUP2 ADD SWAP1 POP PUSH3 0x89A JUMP JUMPDEST DUP7 DUP4 LT ISZERO PUSH3 0x8E1 JUMPI DUP5 DUP10 ADD MLOAD PUSH3 0x8DD PUSH1 0x1F DUP10 AND DUP3 PUSH3 0x7D1 JUMP JUMPDEST DUP4 SSTORE POP JUMPDEST PUSH1 0x1 PUSH1 0x2 DUP9 MUL ADD DUP9 SSTORE POP POP POP JUMPDEST POP POP POP POP POP POP JUMP JUMPDEST PUSH2 0x191D DUP1 PUSH3 0x906 PUSH1 0x0 CODECOPY PUSH1 0x0 RETURN INVALID PUSH1 0x80 PUSH1 0x40 MSTORE CALLVALUE DUP1 ISZERO PUSH2 0x10 JUMPI PUSH1 0x0 DUP1 REVERT JUMPDEST POP PUSH1 0x4 CALLDATASIZE LT PUSH2 0x137 JUMPI PUSH1 0x0 CALLDATALOAD PUSH1 0xE0 SHR DUP1 PUSH4 0x68744046 GT PUSH2 0xB8 JUMPI DUP1 PUSH4 0xA7DBCE1C GT PUSH2 0x7C JUMPI DUP1 PUSH4 0xA7DBCE1C EQ PUSH2 0x355 JUMPI DUP1 PUSH4 0xAC2447F1 EQ PUSH2 0x373 JUMPI DUP1 PUSH4 0xC4172162 EQ PUSH2 0x3A6 JUMPI DUP1 PUSH4 0xD3268FC1 EQ PUSH2 0x3D7 JUMPI DUP1 PUSH4 0xDB6E35B2 EQ PUSH2 0x407 JUMPI DUP1 PUSH4 0xE2A4B2AF EQ PUSH2 0x423 JUMPI PUSH2 0x137 JUMP JUMPDEST DUP1 PUSH4 0x68744046 EQ PUSH2 0x286 JUMPI DUP1 PUSH4 0x7C73709A EQ PUSH2 0x2B7 JUMPI DUP1 PUSH4 0x8BC9FE6C EQ PUSH2 0x2EA JUMPI DUP1 PUSH4 0x9AA36590 EQ PUSH2 0x309 JUMPI DUP1 PUSH4 0x9AE918C7 EQ PUSH2 0x325 JUMPI PUSH2 0x137 JUMP JUMPDEST DUP1 PUSH4 0x3A5FBAAA GT PUSH2 0xFF JUMPI DUP1 PUSH4 0x3A5FBAAA EQ PUSH2 0x1CE JUMPI DUP1 PUSH4 0x492BFA18 EQ PUSH2 0x1EA JUMPI DUP1 PUSH4 0x4B3E7E0C EQ PUSH2 0x208 JUMPI DUP1 PUSH4 0x5E383D21 EQ PUSH2 0x226 JUMPI DUP1 PUSH4 0x6422C4C8 EQ PUSH2 0x256 JUMPI PUSH2 0x137 JUMP JUMPDEST DUP1 PUSH4 0x28414F2 EQ PUSH2 0x13C JUMPI DUP1 PUSH4 0x6540F7E EQ PUSH2 0x158 JUMPI DUP1 PUSH4 0x2036D295 EQ PUSH2 0x176 JUMPI DUP1 PUSH4 0x26EB4DBB EQ PUSH2 0x192 JUMPI DUP1 PUSH4 0x2CB777A6 EQ PUSH2 0x1B0 JUMPI JUMPDEST PUSH1 0x0 DUP1 REVERT JUMPDEST PUSH2 0x156 PUSH1 0x4 DUP1 CALLDATASIZE SUB DUP2 ADD SWAP1 PUSH2 0x151 SWAP2 SWAP1 PUSH2 0x1130 JUMP JUMPDEST PUSH2 0x441 JUMP JUMPDEST STOP JUMPDEST PUSH2 0x160 PUSH2 0x49D JUMP JUMPDEST PUSH1 0x40 MLOAD PUSH2 0x16D SWAP2 SWAP1 PUSH2 0x11CA JUMP JUMPDEST PUSH1 0x40 MLOAD DUP1 SWAP2 SUB SWAP1 RETURN JUMPDEST PUSH2 0x190 PUSH1 0x4 DUP1 CALLDATASIZE SUB DUP2 ADD SWAP1 PUSH2 0x18B SWAP2 SWAP1 PUSH2 0x1130 JUMP JUMPDEST PUSH2 0x4A3 JUMP JUMPDEST STOP JUMPDEST PUSH2 0x19A PUSH2 0x4FF JUMP JUMPDEST PUSH1 0x40 MLOAD PUSH2 0x1A7 SWAP2 SWAP1 PUSH2 0x11CA JUMP JUMPDEST PUSH1 0x40 MLOAD DUP1 SWAP2 SUB SWAP1 RETURN JUMPDEST PUSH2 0x1B8 PUSH2 0x50C JUMP JUMPDEST PUSH1 0x40 MLOAD PUSH2 0x1C5 SWAP2 SWAP1 PUSH2 0x11FE JUMP JUMPDEST PUSH1 0x40 MLOAD DUP1 SWAP2 SUB SWAP1 RETURN JUMPDEST PUSH2 0x1E8 PUSH1 0x4 DUP1 CALLDATASIZE SUB DUP2 ADD SWAP1 PUSH2 0x1E3 SWAP2 SWAP1 PUSH2 0x1219 JUMP JUMPDEST PUSH2 0x512 JUMP JUMPDEST STOP JUMPDEST PUSH2 0x1F2 PUSH2 0x54A JUMP JUMPDEST PUSH1 0x40 MLOAD PUSH2 0x1FF SWAP2 SWAP1 PUSH2 0x12E1 JUMP JUMPDEST PUSH1 0x40 MLOAD DUP1 SWAP2 SUB SWAP1 RETURN JUMPDEST PUSH2 0x210 PUSH2 0x5D8 JUMP JUMPDEST PUSH1 0x40 MLOAD PUSH2 0x21D SWAP2 SWAP1 PUSH2 0x131C JUMP JUMPDEST PUSH1 0x40 MLOAD DUP1 SWAP2 SUB SWAP1 RETURN JUMPDEST PUSH2 0x240 PUSH1 0x4 DUP1 CALLDATASIZE SUB DUP2 ADD SWAP1 PUSH2 0x23B SWAP2 SWAP1 PUSH2 0x1337 JUMP JUMPDEST PUSH2 0x5DE JUMP JUMPDEST PUSH1 0x40 MLOAD PUSH2 0x24D SWAP2 SWAP1 PUSH2 0x12E1 JUMP JUMPDEST PUSH1 0x40 MLOAD DUP1 SWAP2 SUB SWAP1 RETURN JUMPDEST PUSH2 0x270 PUSH1 0x4 DUP1 CALLDATASIZE SUB DUP2 ADD SWAP1 PUSH2 0x26B SWAP2 SWAP1 PUSH2 0x1337 JUMP JUMPDEST PUSH2 0x68A JUMP JUMPDEST PUSH1 0x40 MLOAD PUSH2 0x27D SWAP2 SWAP1 PUSH2 0x12E1 JUMP JUMPDEST PUSH1 0x40 MLOAD DUP1 SWAP2 SUB SWAP1 RETURN JUMPDEST PUSH2 0x2A0 PUSH1 0x4 DUP1 CALLDATASIZE SUB DUP2 ADD SWAP1 PUSH2 0x29B SWAP2 SWAP1 PUSH2 0x1337 JUMP JUMPDEST PUSH2 0x736 JUMP JUMPDEST PUSH1 0x40 MLOAD PUSH2 0x2AE SWAP3 SWAP2 SWAP1 PUSH2 0x1364 JUMP JUMPDEST PUSH1 0x40 MLOAD DUP1 SWAP2 SUB SWAP1 RETURN JUMPDEST PUSH2 0x2D1 PUSH1 0x4 DUP1 CALLDATASIZE SUB DUP2 ADD SWAP1 PUSH2 0x2CC SWAP2 SWAP1 PUSH2 0x13F9 JUMP JUMPDEST PUSH2 0x86A JUMP JUMPDEST PUSH1 0x40 MLOAD PUSH2 0x2E1 SWAP5 SWAP4 SWAP3 SWAP2 SWAP1 PUSH2 0x1439 JUMP JUMPDEST PUSH1 0x40 MLOAD DUP1 SWAP2 SUB SWAP1 RETURN JUMPDEST PUSH2 0x2F2 PUSH2 0xA3F JUMP JUMPDEST PUSH1 0x40 MLOAD PUSH2 0x300 SWAP3 SWAP2 SWAP1 PUSH2 0x1493 JUMP JUMPDEST PUSH1 0x40 MLOAD DUP1 SWAP2 SUB SWAP1 RETURN JUMPDEST PUSH2 0x323 PUSH1 0x4 DUP1 CALLDATASIZE SUB DUP2 ADD SWAP1 PUSH2 0x31E SWAP2 SWAP1 PUSH2 0x14C3 JUMP JUMPDEST PUSH2 0xAD9 JUMP JUMPDEST STOP JUMPDEST PUSH2 0x33F PUSH1 0x4 DUP1 CALLDATASIZE SUB DUP2 ADD SWAP1 PUSH2 0x33A SWAP2 SWAP1 PUSH2 0x1337 JUMP JUMPDEST PUSH2 0xB63 JUMP JUMPDEST PUSH1 0x40 MLOAD PUSH2 0x34C SWAP2 SWAP1 PUSH2 0x11CA JUMP JUMPDEST PUSH1 0x40 MLOAD DUP1 SWAP2 SUB SWAP1 RETURN JUMPDEST PUSH2 0x35D PUSH2 0xB87 JUMP JUMPDEST PUSH1 0x40 MLOAD PUSH2 0x36A SWAP2 SWAP1 PUSH2 0x11CA JUMP JUMPDEST PUSH1 0x40 MLOAD DUP1 SWAP2 SUB SWAP1 RETURN JUMPDEST PUSH2 0x38D PUSH1 0x4 DUP1 CALLDATASIZE SUB DUP2 ADD SWAP1 PUSH2 0x388 SWAP2 SWAP1 PUSH2 0x1337 JUMP JUMPDEST PUSH2 0xB8D JUMP JUMPDEST PUSH1 0x40 MLOAD PUSH2 0x39D SWAP5 SWAP4 SWAP3 SWAP2 SWAP1 PUSH2 0x1439 JUMP JUMPDEST PUSH1 0x40 MLOAD DUP1 SWAP2 SUB SWAP1 RETURN JUMPDEST PUSH2 0x3C0 PUSH1 0x4 DUP1 CALLDATASIZE SUB DUP2 ADD SWAP1 PUSH2 0x3BB SWAP2 SWAP1 PUSH2 0x1337 JUMP JUMPDEST PUSH2 0xD55 JUMP JUMPDEST PUSH1 0x40 MLOAD PUSH2 0x3CE SWAP3 SWAP2 SWAP1 PUSH2 0x1364 JUMP JUMPDEST PUSH1 0x40 MLOAD DUP1 SWAP2 SUB SWAP1 RETURN JUMPDEST PUSH2 0x3F1 PUSH1 0x4 DUP1 CALLDATASIZE SUB DUP2 ADD SWAP1 PUSH2 0x3EC SWAP2 SWAP1 PUSH2 0x1592 JUMP JUMPDEST PUSH2 0xE89 JUMP JUMPDEST PUSH1 0x40 MLOAD PUSH2 0x3FE SWAP2 SWAP1 PUSH2 0x11CA JUMP JUMPDEST PUSH1 0x40 MLOAD DUP1 SWAP2 SUB SWAP1 RETURN JUMPDEST PUSH2 0x421 PUSH1 0x4 DUP1 CALLDATASIZE SUB DUP2 ADD SWAP1 PUSH2 0x41C SWAP2 SWAP1 PUSH2 0x14C3 JUMP JUMPDEST PUSH2 0xEC6 JUMP JUMPDEST STOP JUMPDEST PUSH2 0x42B PUSH2 0xF8D JUMP JUMPDEST PUSH1 0x40 MLOAD PUSH2 0x438 SWAP2 SWAP1 PUSH2 0x15EE JUMP JUMPDEST PUSH1 0x40 MLOAD DUP1 SWAP2 SUB SWAP1 RETURN JUMPDEST PUSH1 0x40 MLOAD DUP1 PUSH1 0x40 ADD PUSH1 0x40 MSTORE DUP1 DUP4 DUP2 MSTORE PUSH1 0x20 ADD DUP3 DUP2 MSTORE POP PUSH1 0xD PUSH1 0x0 DUP6 DUP2 MSTORE PUSH1 0x20 ADD SWAP1 DUP2 MSTORE PUSH1 0x20 ADD PUSH1 0x0 KECCAK256 PUSH1 0x0 DUP3 ADD MLOAD DUP2 PUSH1 0x0 ADD SWAP1 DUP2 PUSH2 0x47E SWAP2 SWAP1 PUSH2 0x1815 JUMP JUMPDEST POP PUSH1 0x20 DUP3 ADD MLOAD DUP2 PUSH1 0x1 ADD SWAP1 DUP2 PUSH2 0x494 SWAP2 SWAP1 PUSH2 0x1815 JUMP JUMPDEST POP SWAP1 POP POP POP POP POP JUMP JUMPDEST PUSH1 0x0 SLOAD DUP2 JUMP JUMPDEST PUSH1 0x40 MLOAD DUP1 PUSH1 0x40 ADD PUSH1 0x40 MSTORE DUP1 DUP4 DUP2 MSTORE PUSH1 0x20 ADD DUP3 DUP2 MSTORE POP PUSH1 0xE PUSH1 0x0 DUP6 DUP2 MSTORE PUSH1 0x20 ADD SWAP1 DUP2 MSTORE PUSH1 0x20 ADD PUSH1 0x0 KECCAK256 PUSH1 0x0 DUP3 ADD MLOAD DUP2 PUSH1 0x0 ADD SWAP1 DUP2 PUSH2 0x4E0 SWAP2 SWAP1 PUSH2 0x1815 JUMP JUMPDEST POP PUSH1 0x20 DUP3 ADD MLOAD DUP2 PUSH1 0x1 ADD SWAP1 DUP2 PUSH2 0x4F6 SWAP2 SWAP1 PUSH2 0x1815 JUMP JUMPDEST POP SWAP1 POP POP POP POP POP JUMP JUMPDEST PUSH1 0x0 PUSH1 0xA DUP1 SLOAD SWAP1 POP SWAP1 POP SWAP1 JUMP JUMPDEST PUSH1 0x1 SLOAD DUP2 JUMP JUMPDEST PUSH1 0xA DUP2 SWAP1 DUP1 PUSH1 0x1 DUP2 SLOAD ADD DUP1 DUP3 SSTORE DUP1 SWAP2 POP POP PUSH1 0x1 SWAP1 SUB SWAP1 PUSH1 0x0 MSTORE PUSH1 0x20 PUSH1 0x0 KECCAK256 ADD PUSH1 0x0 SWAP1 SWAP2 SWAP1 SWAP2 SWAP1 SWAP2 POP SWAP1 DUP2 PUSH2 0x546 SWAP2 SWAP1 PUSH2 0x1815 JUMP JUMPDEST POP POP JUMP JUMPDEST PUSH1 0x4 DUP1 SLOAD PUSH2 0x557 SWAP1 PUSH2 0x1638 JUMP JUMPDEST DUP1 PUSH1 0x1F ADD PUSH1 0x20 DUP1 SWAP2 DIV MUL PUSH1 0x20 ADD PUSH1 0x40 MLOAD SWAP1 DUP2 ADD PUSH1 0x40 MSTORE DUP1 SWAP3 SWAP2 SWAP1 DUP2 DUP2 MSTORE PUSH1 0x20 ADD DUP3 DUP1 SLOAD PUSH2 0x583 SWAP1 PUSH2 0x1638 JUMP JUMPDEST DUP1 ISZERO PUSH2 0x5D0 JUMPI DUP1 PUSH1 0x1F LT PUSH2 0x5A5 JUMPI PUSH2 0x100 DUP1 DUP4 SLOAD DIV MUL DUP4 MSTORE SWAP2 PUSH1 0x20 ADD SWAP2 PUSH2 0x5D0 JUMP JUMPDEST DUP3 ADD SWAP2 SWAP1 PUSH1 0x0 MSTORE PUSH1 0x20 PUSH1 0x0 KECCAK256 SWAP1 JUMPDEST DUP2 SLOAD DUP2 MSTORE SWAP1 PUSH1 0x1 ADD SWAP1 PUSH1 0x20 ADD DUP1 DUP4 GT PUSH2 0x5B3 JUMPI DUP3 SWAP1 SUB PUSH1 0x1F AND DUP3 ADD SWAP2 JUMPDEST POP POP POP POP POP DUP2 JUMP JUMPDEST PUSH1 0x5 SLOAD DUP2 JUMP JUMPDEST PUSH1 0xA DUP2 DUP2 SLOAD DUP2 LT PUSH2 0x5EE JUMPI PUSH1 0x0 DUP1 REVERT JUMPDEST SWAP1 PUSH1 0x0 MSTORE PUSH1 0x20 PUSH1 0x0 KECCAK256 ADD PUSH1 0x0 SWAP2 POP SWAP1 POP DUP1 SLOAD PUSH2 0x609 SWAP1 PUSH2 0x1638 JUMP JUMPDEST DUP1 PUSH1 0x1F ADD PUSH1 0x20 DUP1 SWAP2 DIV MUL PUSH1 0x20 ADD PUSH1 0x40 MLOAD SWAP1 DUP2 ADD PUSH1 0x40 MSTORE DUP1 SWAP3 SWAP2 SWAP1 DUP2 DUP2 MSTORE PUSH1 0x20 ADD DUP3 DUP1 SLOAD PUSH2 0x635 SWAP1 PUSH2 0x1638 JUMP JUMPDEST DUP1 ISZERO PUSH2 0x682 JUMPI DUP1 PUSH1 0x1F LT PUSH2 0x657 JUMPI PUSH2 0x100 DUP1 DUP4 SLOAD DIV MUL DUP4 MSTORE SWAP2 PUSH1 0x20 ADD SWAP2 PUSH2 0x682 JUMP JUMPDEST DUP3 ADD SWAP2 SWAP1 PUSH1 0x0 MSTORE PUSH1 0x20 PUSH1 0x0 KECCAK256 SWAP1 JUMPDEST DUP2 SLOAD DUP2 MSTORE SWAP1 PUSH1 0x1 ADD SWAP1 PUSH1 0x20 ADD DUP1 DUP4 GT PUSH2 0x665 JUMPI DUP3 SWAP1 SUB PUSH1 0x1F AND DUP3 ADD SWAP2 JUMPDEST POP POP POP POP POP DUP2 JUMP JUMPDEST PUSH1 0x9 DUP2 DUP2 SLOAD DUP2 LT PUSH2 0x69A JUMPI PUSH1 0x0 DUP1 REVERT JUMPDEST SWAP1 PUSH1 0x0 MSTORE PUSH1 0x20 PUSH1 0x0 KECCAK256 ADD PUSH1 0x0 SWAP2 POP SWAP1 POP DUP1 SLOAD PUSH2 0x6B5 SWAP1 PUSH2 0x1638 JUMP JUMPDEST DUP1 PUSH1 0x1F ADD PUSH1 0x20 DUP1 SWAP2 DIV MUL PUSH1 0x20 ADD PUSH1 0x40 MLOAD SWAP1 DUP2 ADD PUSH1 0x40 MSTORE DUP1 SWAP3 SWAP2 SWAP1 DUP2 DUP2 MSTORE PUSH1 0x20 ADD DUP3 DUP1 SLOAD PUSH2 0x6E1 SWAP1 PUSH2 0x1638 JUMP JUMPDEST DUP1 ISZERO PUSH2 0x72E JUMPI DUP1 PUSH1 0x1F LT PUSH2 0x703 JUMPI PUSH2 0x100 DUP1 DUP4 SLOAD DIV MUL DUP4 MSTORE SWAP2 PUSH1 0x20 ADD SWAP2 PUSH2 0x72E JUMP JUMPDEST DUP3 ADD SWAP2 SWAP1 PUSH1 0x0 MSTORE PUSH1 0x20 PUSH1 0x0 KECCAK256 SWAP1 JUMPDEST DUP2 SLOAD DUP2 MSTORE SWAP1 PUSH1 0x1 ADD SWAP1 PUSH1 0x20 ADD DUP1 DUP4 GT PUSH2 0x711 JUMPI DUP3 SWAP1 SUB PUSH1 0x1F AND DUP3 ADD SWAP2 JUMPDEST POP POP POP POP POP DUP2 JUMP JUMPDEST PUSH1 0xD PUSH1 0x20 MSTORE DUP1 PUSH1 0x0 MSTORE PUSH1 0x40 PUSH1 0x0 KECCAK256 PUSH1 0x0 SWAP2 POP SWAP1 POP DUP1 PUSH1 0x0 ADD DUP1 SLOAD PUSH2 0x759 SWAP1 PUSH2 0x1638 JUMP JUMPDEST DUP1 PUSH1 0x1F ADD PUSH1 0x20 DUP1 SWAP2 DIV MUL PUSH1 0x20 ADD PUSH1 0x40 MLOAD SWAP1 DUP2 ADD PUSH1 0x40 MSTORE DUP1 SWAP3 SWAP2 SWAP1 DUP2 DUP2 MSTORE PUSH1 0x20 ADD DUP3 DUP1 SLOAD PUSH2 0x785 SWAP1 PUSH2 0x1638 JUMP JUMPDEST DUP1 ISZERO PUSH2 0x7D2 JUMPI DUP1 PUSH1 0x1F LT PUSH2 0x7A7 JUMPI PUSH2 0x100 DUP1 DUP4 SLOAD DIV MUL DUP4 MSTORE SWAP2 PUSH1 0x20 ADD SWAP2 PUSH2 0x7D2 JUMP JUMPDEST DUP3 ADD SWAP2 SWAP1 PUSH1 0x0 MSTORE PUSH1 0x20 PUSH1 0x0 KECCAK256 SWAP1 JUMPDEST DUP2 SLOAD DUP2 MSTORE SWAP1 PUSH1 0x1 ADD SWAP1 PUSH1 0x20 ADD DUP1 DUP4 GT PUSH2 0x7B5 JUMPI DUP3 SWAP1 SUB PUSH1 0x1F AND DUP3 ADD SWAP2 JUMPDEST POP POP POP POP POP SWAP1 DUP1 PUSH1 0x1 ADD DUP1 SLOAD PUSH2 0x7E7 SWAP1 PUSH2 0x1638 JUMP JUMPDEST DUP1 PUSH1 0x1F ADD PUSH1 0x20 DUP1 SWAP2 DIV MUL PUSH1 0x20 ADD PUSH1 0x40 MLOAD SWAP1 DUP2 ADD PUSH1 0x40 MSTORE DUP1 SWAP3 SWAP2 SWAP1 DUP2 DUP2 MSTORE PUSH1 0x20 ADD DUP3 DUP1 SLOAD PUSH2 0x813 SWAP1 PUSH2 0x1638 JUMP JUMPDEST DUP1 ISZERO PUSH2 0x860 JUMPI DUP1 PUSH1 0x1F LT PUSH2 0x835 JUMPI PUSH2 0x100 DUP1 DUP4 SLOAD DIV MUL DUP4 MSTORE SWAP2 PUSH1 0x20 ADD SWAP2 PUSH2 0x860 JUMP JUMPDEST DUP3 ADD SWAP2 SWAP1 PUSH1 0x0 MSTORE PUSH1 0x20 PUSH1 0x0 KECCAK256 SWAP1 JUMPDEST DUP2 SLOAD DUP2 MSTORE SWAP1 PUSH1 0x1 ADD SWAP1 PUSH1 0x20 ADD DUP1 DUP4 GT PUSH2 0x843 JUMPI DUP3 SWAP1 SUB PUSH1 0x1F AND DUP3 ADD SWAP2 JUMPDEST POP POP POP POP POP SWAP1 POP DUP3 JUMP JUMPDEST PUSH1 0x10 PUSH1 0x20 MSTORE DUP2 PUSH1 0x0 MSTORE PUSH1 0x40 PUSH1 0x0 KECCAK256 PUSH1 0x20 MSTORE DUP1 PUSH1 0x0 MSTORE PUSH1 0x40 PUSH1 0x0 KECCAK256 PUSH1 0x0 SWAP2 POP SWAP2 POP POP DUP1 PUSH1 0x0 ADD SLOAD SWAP1 DUP1 PUSH1 0x1 ADD DUP1 SLOAD PUSH2 0x8A0 SWAP1 PUSH2 0x1638 JUMP JUMPDEST DUP1 PUSH1 0x1F ADD PUSH1 0x20 DUP1 SWAP2 DIV MUL PUSH1 0x20 ADD PUSH1 0x40 MLOAD SWAP1 DUP2 ADD PUSH1 0x40 MSTORE DUP1 SWAP3 SWAP2 SWAP1 DUP2 DUP2 MSTORE PUSH1 0x20 ADD DUP3 DUP1 SLOAD PUSH2 0x8CC SWAP1 PUSH2 0x1638 JUMP JUMPDEST DUP1 ISZERO PUSH2 0x919 JUMPI DUP1 PUSH1 0x1F LT PUSH2 0x8EE JUMPI PUSH2 0x100 DUP1 DUP4 SLOAD DIV MUL DUP4 MSTORE SWAP2 PUSH1 0x20 ADD SWAP2 PUSH2 0x919 JUMP JUMPDEST DUP3 ADD SWAP2 SWAP1 PUSH1 0x0 MSTORE PUSH1 0x20 PUSH1 0x0 KECCAK256 SWAP1 JUMPDEST DUP2 SLOAD DUP2 MSTORE SWAP1 PUSH1 0x1 ADD SWAP1 PUSH1 0x20 ADD DUP1 DUP4 GT PUSH2 0x8FC JUMPI DUP3 SWAP1 SUB PUSH1 0x1F AND DUP3 ADD SWAP2 JUMPDEST POP POP POP POP POP SWAP1 DUP1 PUSH1 0x2 ADD DUP1 SLOAD PUSH2 0x92E SWAP1 PUSH2 0x1638 JUMP JUMPDEST DUP1 PUSH1 0x1F ADD PUSH1 0x20 DUP1 SWAP2 DIV MUL PUSH1 0x20 ADD PUSH1 0x40 MLOAD SWAP1 DUP2 ADD PUSH1 0x40 MSTORE DUP1 SWAP3 SWAP2 SWAP1 DUP2 DUP2 MSTORE PUSH1 0x20 ADD DUP3 DUP1 SLOAD PUSH2 0x95A SWAP1 PUSH2 0x1638 JUMP JUMPDEST DUP1 ISZERO PUSH2 0x9A7 JUMPI DUP1 PUSH1 0x1F LT PUSH2 0x97C JUMPI PUSH2 0x100 DUP1 DUP4 SLOAD DIV MUL DUP4 MSTORE SWAP2 PUSH1 0x20 ADD SWAP2 PUSH2 0x9A7 JUMP JUMPDEST DUP3 ADD SWAP2 SWAP1 PUSH1 0x0 MSTORE PUSH1 0x20 PUSH1 0x0 KECCAK256 SWAP1 JUMPDEST DUP2 SLOAD DUP2 MSTORE SWAP1 PUSH1 0x1 ADD SWAP1 PUSH1 0x20 ADD DUP1 DUP4 GT PUSH2 0x98A JUMPI DUP3 SWAP1 SUB PUSH1 0x1F AND DUP3 ADD SWAP2 JUMPDEST POP POP POP POP POP SWAP1 DUP1 PUSH1 0x3 ADD DUP1 SLOAD PUSH2 0x9BC SWAP1 PUSH2 0x1638 JUMP JUMPDEST DUP1 PUSH1 0x1F ADD PUSH1 0x20 DUP1 SWAP2 DIV MUL PUSH1 0x20 ADD PUSH1 0x40 MLOAD SWAP1 DUP2 ADD PUSH1 0x40 MSTORE DUP1 SWAP3 SWAP2 SWAP1 DUP2 DUP2 MSTORE PUSH1 0x20 ADD DUP3 DUP1 SLOAD PUSH2 0x9E8 SWAP1 PUSH2 0x1638 JUMP JUMPDEST DUP1 ISZERO PUSH2 0xA35 JUMPI DUP1 PUSH1 0x1F LT PUSH2 0xA0A JUMPI PUSH2 0x100 DUP1 DUP4 SLOAD DIV MUL DUP4 MSTORE SWAP2 PUSH1 0x20 ADD SWAP2 PUSH2 0xA35 JUMP JUMPDEST DUP3 ADD SWAP2 SWAP1 PUSH1 0x0 MSTORE PUSH1 0x20 PUSH1 0x0 KECCAK256 SWAP1 JUMPDEST DUP2 SLOAD DUP2 MSTORE SWAP1 PUSH1 0x1 ADD SWAP1 PUSH1 0x20 ADD DUP1 DUP4 GT PUSH2 0xA18 JUMPI DUP3 SWAP1 SUB PUSH1 0x1F AND DUP3 ADD SWAP2 JUMPDEST POP POP POP POP POP SWAP1 POP DUP5 JUMP JUMPDEST PUSH1 0x6 DUP1 PUSH1 0x0 ADD SLOAD SWAP1 DUP1 PUSH1 0x1 ADD DUP1 SLOAD PUSH2 0xA56 SWAP1 PUSH2 0x1638 JUMP JUMPDEST DUP1 PUSH1 0x1F ADD PUSH1 0x20 DUP1 SWAP2 DIV MUL PUSH1 0x20 ADD PUSH1 0x40 MLOAD SWAP1 DUP2 ADD PUSH1 0x40 MSTORE DUP1 SWAP3 SWAP2 SWAP1 DUP2 DUP2 MSTORE PUSH1 0x20 ADD DUP3 DUP1 SLOAD PUSH2 0xA82 SWAP1 PUSH2 0x1638 JUMP JUMPDEST DUP1 ISZERO PUSH2 0xACF JUMPI DUP1 PUSH1 0x1F LT PUSH2 0xAA4 JUMPI PUSH2 0x100 DUP1 DUP4 SLOAD DIV MUL DUP4 MSTORE SWAP2 PUSH1 0x20 ADD SWAP2 PUSH2 0xACF JUMP JUMPDEST DUP3 ADD SWAP2 SWAP1 PUSH1 0x0 MSTORE PUSH1 0x20 PUSH1 0x0 KECCAK256 SWAP1 JUMPDEST DUP2 SLOAD DUP2 MSTORE SWAP1 PUSH1 0x1 ADD SWAP1 PUSH1 0x20 ADD DUP1 DUP4 GT PUSH2 0xAB2 JUMPI DUP3 SWAP1 SUB PUSH1 0x1F AND DUP3 ADD SWAP2 JUMPDEST POP POP POP POP POP SWAP1 POP DUP3 JUMP JUMPDEST PUSH1 0x40 MLOAD DUP1 PUSH1 0x80 ADD PUSH1 0x40 MSTORE DUP1 DUP6 DUP2 MSTORE PUSH1 0x20 ADD DUP5 DUP2 MSTORE PUSH1 0x20 ADD DUP4 DUP2 MSTORE PUSH1 0x20 ADD DUP3 DUP2 MSTORE POP PUSH1 0xF PUSH1 0x0 DUP8 DUP2 MSTORE PUSH1 0x20 ADD SWAP1 DUP2 MSTORE PUSH1 0x20 ADD PUSH1 0x0 KECCAK256 PUSH1 0x0 DUP3 ADD MLOAD DUP2 PUSH1 0x0 ADD SSTORE PUSH1 0x20 DUP3 ADD MLOAD DUP2 PUSH1 0x1 ADD SWAP1 DUP2 PUSH2 0xB2C SWAP2 SWAP1 PUSH2 0x1815 JUMP JUMPDEST POP PUSH1 0x40 DUP3 ADD MLOAD DUP2 PUSH1 0x2 ADD SWAP1 DUP2 PUSH2 0xB42 SWAP2 SWAP1 PUSH2 0x1815 JUMP JUMPDEST POP PUSH1 0x60 DUP3 ADD MLOAD DUP2 PUSH1 0x3 ADD SWAP1 DUP2 PUSH2 0xB58 SWAP2 SWAP1 PUSH2 0x1815 JUMP JUMPDEST POP SWAP1 POP POP POP POP POP POP POP JUMP JUMPDEST PUSH1 0x8 DUP2 DUP2 SLOAD DUP2 LT PUSH2 0xB73 JUMPI PUSH1 0x0 DUP1 REVERT JUMPDEST SWAP1 PUSH1 0x0 MSTORE PUSH1 0x20 PUSH1 0x0 KECCAK256 ADD PUSH1 0x0 SWAP2 POP SWAP1 POP SLOAD DUP2 JUMP JUMPDEST PUSH1 0x2 SLOAD DUP2 JUMP JUMPDEST PUSH1 0xF PUSH1 0x20 MSTORE DUP1 PUSH1 0x0 MSTORE PUSH1 0x40 PUSH1 0x0 KECCAK256 PUSH1 0x0 SWAP2 POP SWAP1 POP DUP1 PUSH1 0x0 ADD SLOAD SWAP1 DUP1 PUSH1 0x1 ADD DUP1 SLOAD PUSH2 0xBB6 SWAP1 PUSH2 0x1638 JUMP JUMPDEST DUP1 PUSH1 0x1F ADD PUSH1 0x20 DUP1 SWAP2 DIV MUL PUSH1 0x20 ADD PUSH1 0x40 MLOAD SWAP1 DUP2 ADD PUSH1 0x40 MSTORE DUP1 SWAP3 SWAP2 SWAP1 DUP2 DUP2 MSTORE PUSH1 0x20 ADD DUP3 DUP1 SLOAD PUSH2 0xBE2 SWAP1 PUSH2 0x1638 JUMP JUMPDEST DUP1 ISZERO PUSH2 0xC2F JUMPI DUP1 PUSH1 0x1F LT PUSH2 0xC04 JUMPI PUSH2 0x100 DUP1 DUP4 SLOAD DIV MUL DUP4 MSTORE SWAP2 PUSH1 0x20 ADD SWAP2 PUSH2 0xC2F JUMP JUMPDEST DUP3 ADD SWAP2 SWAP1 PUSH1 0x0 MSTORE PUSH1 0x20 PUSH1 0x0 KECCAK256 SWAP1 JUMPDEST DUP2 SLOAD DUP2 MSTORE SWAP1 PUSH1 0x1 ADD SWAP1 PUSH1 0x20 ADD DUP1 DUP4 GT PUSH2 0xC12 JUMPI DUP3 SWAP1 SUB PUSH1 0x1F AND DUP3 ADD SWAP2 JUMPDEST POP POP POP POP POP SWAP1 DUP1 PUSH1 0x2 ADD DUP1 SLOAD PUSH2 0xC44 SWAP1 PUSH2 0x1638 JUMP JUMPDEST DUP1 PUSH1 0x1F ADD PUSH1 0x20 DUP1 SWAP2 DIV MUL PUSH1 0x20 ADD PUSH1 0x40 MLOAD SWAP1 DUP2 ADD PUSH1 0x40 MSTORE DUP1 SWAP3 SWAP2 SWAP1 DUP2 DUP2 MSTORE PUSH1 0x20 ADD DUP3 DUP1 SLOAD PUSH2 0xC70 SWAP1 PUSH2 0x1638 JUMP JUMPDEST DUP1 ISZERO PUSH2 0xCBD JUMPI DUP1 PUSH1 0x1F LT PUSH2 0xC92 JUMPI PUSH2 0x100 DUP1 DUP4 SLOAD DIV MUL DUP4 MSTORE SWAP2 PUSH1 0x20 ADD SWAP2 PUSH2 0xCBD JUMP JUMPDEST DUP3 ADD SWAP2 SWAP1 PUSH1 0x0 MSTORE PUSH1 0x20 PUSH1 0x0 KECCAK256 SWAP1 JUMPDEST DUP2 SLOAD DUP2 MSTORE SWAP1 PUSH1 0x1 ADD SWAP1 PUSH1 0x20 ADD DUP1 DUP4 GT PUSH2 0xCA0 JUMPI DUP3 SWAP1 SUB PUSH1 0x1F AND DUP3 ADD SWAP2 JUMPDEST POP POP POP POP POP SWAP1 DUP1 PUSH1 0x3 ADD DUP1 SLOAD PUSH2 0xCD2 SWAP1 PUSH2 0x1638 JUMP JUMPDEST DUP1 PUSH1 0x1F ADD PUSH1 0x20 DUP1 SWAP2 DIV MUL PUSH1 0x20 ADD PUSH1 0x40 MLOAD SWAP1 DUP2 ADD PUSH1 0x40 MSTORE DUP1 SWAP3 SWAP2 SWAP1 DUP2 DUP2 MSTORE PUSH1 0x20 ADD DUP3 DUP1 SLOAD PUSH2 0xCFE SWAP1 PUSH2 0x1638 JUMP JUMPDEST DUP1 ISZERO PUSH2 0xD4B JUMPI DUP1 PUSH1 0x1F LT PUSH2 0xD20 JUMPI PUSH2 0x100 DUP1 DUP4 SLOAD DIV MUL DUP4 MSTORE SWAP2 PUSH1 0x20 ADD SWAP2 PUSH2 0xD4B JUMP JUMPDEST DUP3 ADD SWAP2 SWAP1 PUSH1 0x0 MSTORE PUSH1 0x20 PUSH1 0x0 KECCAK256 SWAP1 JUMPDEST DUP2 SLOAD DUP2 MSTORE SWAP1 PUSH1 0x1 ADD SWAP1 PUSH1 0x20 ADD DUP1 DUP4 GT PUSH2 0xD2E JUMPI DUP3 SWAP1 SUB PUSH1 0x1F AND DUP3 ADD SWAP2 JUMPDEST POP POP POP POP POP SWAP1 POP DUP5 JUMP JUMPDEST PUSH1 0xE PUSH1 0x20 MSTORE DUP1 PUSH1 0x0 MSTORE PUSH1 0x40 PUSH1 0x0 KECCAK256 PUSH1 0x0 SWAP2 POP SWAP1 POP DUP1 PUSH1 0x0 ADD DUP1 SLOAD PUSH2 0xD78 SWAP1 PUSH2 0x1638 JUMP JUMPDEST DUP1 PUSH1 0x1F ADD PUSH1 0x20 DUP1 SWAP2 DIV MUL PUSH1 0x20 ADD PUSH1 0x40 MLOAD SWAP1 DUP2 ADD PUSH1 0x40 MSTORE DUP1 SWAP3 SWAP2 SWAP1 DUP2 DUP2 MSTORE PUSH1 0x20 ADD DUP3 DUP1 SLOAD PUSH2 0xDA4 SWAP1 PUSH2 0x1638 JUMP JUMPDEST DUP1 ISZERO PUSH2 0xDF1 JUMPI DUP1 PUSH1 0x1F LT PUSH2 0xDC6 JUMPI PUSH2 0x100 DUP1 DUP4 SLOAD DIV MUL DUP4 MSTORE SWAP2 PUSH1 0x20 ADD SWAP2 PUSH2 0xDF1 JUMP JUMPDEST DUP3 ADD SWAP2 SWAP1 PUSH1 0x0 MSTORE PUSH1 0x20 PUSH1 0x0 KECCAK256 SWAP1 JUMPDEST DUP2 SLOAD DUP2 MSTORE SWAP1 PUSH1 0x1 ADD SWAP1 PUSH1 0x20 ADD DUP1 DUP4 GT PUSH2 0xDD4 JUMPI DUP3 SWAP1 SUB PUSH1 0x1F AND DUP3 ADD SWAP2 JUMPDEST POP POP POP POP POP SWAP1 DUP1 PUSH1 0x1 ADD DUP1 SLOAD PUSH2 0xE06 SWAP1 PUSH2 0x1638 JUMP JUMPDEST DUP1 PUSH1 0x1F ADD PUSH1 0x20 DUP1 SWAP2 DIV MUL PUSH1 0x20 ADD PUSH1 0x40 MLOAD SWAP1 DUP2 ADD PUSH1 0x40 MSTORE DUP1 SWAP3 SWAP2 SWAP1 DUP2 DUP2 MSTORE PUSH1 0x20 ADD DUP3 DUP1 SLOAD PUSH2 0xE32 SWAP1 PUSH2 0x1638 JUMP JUMPDEST DUP1 ISZERO PUSH2 0xE7F JUMPI DUP1 PUSH1 0x1F LT PUSH2 0xE54 JUMPI PUSH2 0x100 DUP1 DUP4 SLOAD DIV MUL DUP4 MSTORE SWAP2 PUSH1 0x20 ADD SWAP2 PUSH2 0xE7F JUMP JUMPDEST DUP3 ADD SWAP2 SWAP1 PUSH1 0x0 MSTORE PUSH1 0x20 PUSH1 0x0 KECCAK256 SWAP1 JUMPDEST DUP2 SLOAD DUP2 MSTORE SWAP1 PUSH1 0x1 ADD SWAP1 PUSH1 0x20 ADD DUP1 DUP4 GT PUSH2 0xE62 JUMPI DUP3 SWAP1 SUB PUSH1 0x1F AND DUP3 ADD SWAP2 JUMPDEST POP POP POP POP POP SWAP1 POP DUP3 JUMP JUMPDEST PUSH1 0xB DUP3 DUP2 SLOAD DUP2 LT PUSH2 0xE99 JUMPI PUSH1 0x0 DUP1 REVERT JUMPDEST SWAP1 PUSH1 0x0 MSTORE PUSH1 0x20 PUSH1 0x0 KECCAK256 ADD DUP2 DUP2 SLOAD DUP2 LT PUSH2 0xEB1 JUMPI PUSH1 0x0 DUP1 REVERT JUMPDEST SWAP1 PUSH1 0x0 MSTORE PUSH1 0x20 PUSH1 0x0 KECCAK256 ADD PUSH1 0x0 SWAP2 POP SWAP2 POP POP SLOAD DUP2 JUMP JUMPDEST PUSH1 0x40 MLOAD DUP1 PUSH1 0x80 ADD PUSH1 0x40 MSTORE DUP1 DUP6 DUP2 MSTORE PUSH1 0x20 ADD DUP5 DUP2 MSTORE PUSH1 0x20 ADD DUP4 DUP2 MSTORE PUSH1 0x20 ADD DUP3 DUP2 MSTORE POP PUSH1 0x10 PUSH1 0x0 CALLER PUSH20 0xFFFFFFFFFFFFFFFFFFFFFFFFFFFFFFFFFFFFFFFF AND PUSH20 0xFFFFFFFFFFFFFFFFFFFFFFFFFFFFFFFFFFFFFFFF AND DUP2 MSTORE PUSH1 0x20 ADD SWAP1 DUP2 MSTORE PUSH1 0x20 ADD PUSH1 0x0 KECCAK256 PUSH1 0x0 DUP8 DUP2 MSTORE PUSH1 0x20 ADD SWAP1 DUP2 MSTORE PUSH1 0x20 ADD PUSH1 0x0 KECCAK256 PUSH1 0x0 DUP3 ADD MLOAD DUP2 PUSH1 0x0 ADD SSTORE PUSH1 0x20 DUP3 ADD MLOAD DUP2 PUSH1 0x1 ADD SWAP1 DUP2 PUSH2 0xF56 SWAP2 SWAP1 PUSH2 0x1815 JUMP JUMPDEST POP PUSH1 0x40 DUP3 ADD MLOAD DUP2 PUSH1 0x2 ADD SWAP1 DUP2 PUSH2 0xF6C SWAP2 SWAP1 PUSH2 0x1815 JUMP JUMPDEST POP PUSH1 0x60 DUP3 ADD MLOAD DUP2 PUSH1 0x3 ADD SWAP1 DUP2 PUSH2 0xF82 SWAP2 SWAP1 PUSH2 0x1815 JUMP JUMPDEST POP SWAP1 POP POP POP POP POP POP POP JUMP JUMPDEST PUSH1 0x3 PUSH1 0x0 SWAP1 SLOAD SWAP1 PUSH2 0x100 EXP SWAP1 DIV PUSH1 0xFF AND DUP2 JUMP JUMPDEST PUSH1 0x0 PUSH1 0x40 MLOAD SWAP1 POP SWAP1 JUMP JUMPDEST PUSH1 0x0 DUP1 REVERT JUMPDEST PUSH1 0x0 DUP1 REVERT JUMPDEST PUSH1 0x0 DUP2 SWAP1 POP SWAP2 SWAP1 POP JUMP JUMPDEST PUSH2 0xFC7 DUP2 PUSH2 0xFB4 JUMP JUMPDEST DUP2 EQ PUSH2 0xFD2 JUMPI PUSH1 0x0 DUP1 REVERT JUMPDEST POP JUMP JUMPDEST PUSH1 0x0 DUP2 CALLDATALOAD SWAP1 POP PUSH2 0xFE4 DUP2 PUSH2 0xFBE JUMP JUMPDEST SWAP3 SWAP2 POP POP JUMP JUMPDEST PUSH1 0x0 DUP1 REVERT JUMPDEST PUSH1 0x0 DUP1 REVERT JUMPDEST PUSH1 0x0 PUSH1 0x1F NOT PUSH1 0x1F DUP4 ADD AND SWAP1 POP SWAP2 SWAP1 POP JUMP JUMPDEST PUSH32 0x4E487B7100000000000000000000000000000000000000000000000000000000 PUSH1 0x0 MSTORE PUSH1 0x41 PUSH1 0x4 MSTORE PUSH1 0x24 PUSH1 0x0 REVERT JUMPDEST PUSH2 0x103D DUP3 PUSH2 0xFF4 JUMP JUMPDEST DUP2 ADD DUP2 DUP2 LT PUSH8 0xFFFFFFFFFFFFFFFF DUP3 GT OR ISZERO PUSH2 0x105C JUMPI PUSH2 0x105B PUSH2 0x1005 JUMP JUMPDEST JUMPDEST DUP1 PUSH1 0x40 MSTORE POP POP POP JUMP JUMPDEST PUSH1 0x0 PUSH2 0x106F PUSH2 0xFA0 JUMP JUMPDEST SWAP1 POP PUSH2 0x107B DUP3 DUP3 PUSH2 0x1034 JUMP JUMPDEST SWAP2 SWAP1 POP JUMP JUMPDEST PUSH1 0x0 PUSH8 0xFFFFFFFFFFFFFFFF DUP3 GT ISZERO PUSH2 0x109B JUMPI PUSH2 0x109A PUSH2 0x1005 JUMP JUMPDEST JUMPDEST PUSH2 0x10A4 DUP3 PUSH2 0xFF4 JUMP JUMPDEST SWAP1 POP PUSH1 0x20 DUP2 ADD SWAP1 POP SWAP2 SWAP1 POP JUMP JUMPDEST DUP3 DUP2 DUP4 CALLDATACOPY PUSH1 0x0 DUP4 DUP4 ADD MSTORE POP POP POP JUMP JUMPDEST PUSH1 0x0 PUSH2 0x10D3 PUSH2 0x10CE DUP5 PUSH2 0x1080 JUMP JUMPDEST PUSH2 0x1065 JUMP JUMPDEST SWAP1 POP DUP3 DUP2 MSTORE PUSH1 0x20 DUP2 ADD DUP5 DUP5 DUP5 ADD GT ISZERO PUSH2 0x10EF JUMPI PUSH2 0x10EE PUSH2 0xFEF JUMP JUMPDEST JUMPDEST PUSH2 0x10FA DUP5 DUP3 DUP6 PUSH2 0x10B1 JUMP JUMPDEST POP SWAP4 SWAP3 POP POP POP JUMP JUMPDEST PUSH1 0x0 DUP3 PUSH1 0x1F DUP4 ADD SLT PUSH2 0x1117 JUMPI PUSH2 0x1116 PUSH2 0xFEA JUMP JUMPDEST JUMPDEST DUP2 CALLDATALOAD PUSH2 0x1127 DUP5 DUP3 PUSH1 0x20 DUP7 ADD PUSH2 0x10C0 JUMP JUMPDEST SWAP2 POP POP SWAP3 SWAP2 POP POP JUMP JUMPDEST PUSH1 0x0 DUP1 PUSH1 0x0 PUSH1 0x60 DUP5 DUP7 SUB SLT ISZERO PUSH2 0x1149 JUMPI PUSH2 0x1148 PUSH2 0xFAA JUMP JUMPDEST JUMPDEST PUSH1 0x0 PUSH2 0x1157 DUP7 DUP3 DUP8 ADD PUSH2 0xFD5 JUMP JUMPDEST SWAP4 POP POP PUSH1 0x20 DUP5 ADD CALLDATALOAD PUSH8 0xFFFFFFFFFFFFFFFF DUP2 GT ISZERO PUSH2 0x1178 JUMPI PUSH2 0x1177 PUSH2 0xFAF JUMP JUMPDEST JUMPDEST PUSH2 0x1184 DUP7 DUP3 DUP8 ADD PUSH2 0x1102 JUMP JUMPDEST SWAP3 POP POP PUSH1 0x40 DUP5 ADD CALLDATALOAD PUSH8 0xFFFFFFFFFFFFFFFF DUP2 GT ISZERO PUSH2 0x11A5 JUMPI PUSH2 0x11A4 PUSH2 0xFAF JUMP JUMPDEST JUMPDEST PUSH2 0x11B1 DUP7 DUP3 DUP8 ADD PUSH2 0x1102 JUMP JUMPDEST SWAP2 POP POP SWAP3 POP SWAP3 POP SWAP3 JUMP JUMPDEST PUSH2 0x11C4 DUP2 PUSH2 0xFB4 JUMP JUMPDEST DUP3 MSTORE POP POP JUMP JUMPDEST PUSH1 0x0 PUSH1 0x20 DUP3 ADD SWAP1 POP PUSH2 0x11DF PUSH1 0x0 DUP4 ADD DUP5 PUSH2 0x11BB JUMP JUMPDEST SWAP3 SWAP2 POP POP JUMP JUMPDEST PUSH1 0x0 DUP2 SWAP1 POP SWAP2 SWAP1 POP JUMP JUMPDEST PUSH2 0x11F8 DUP2 PUSH2 0x11E5 JUMP JUMPDEST DUP3 MSTORE POP POP JUMP JUMPDEST PUSH1 0x0 PUSH1 0x20 DUP3 ADD SWAP1 POP PUSH2 0x1213 PUSH1 0x0 DUP4 ADD DUP5 PUSH2 0x11EF JUMP JUMPDEST SWAP3 SWAP2 POP POP JUMP JUMPDEST PUSH1 0x0 PUSH1 0x20 DUP3 DUP5 SUB SLT ISZERO PUSH2 0x122F JUMPI PUSH2 0x122E PUSH2 0xFAA JUMP JUMPDEST JUMPDEST PUSH1 0x0 DUP3 ADD CALLDATALOAD PUSH8 0xFFFFFFFFFFFFFFFF DUP2 GT ISZERO PUSH2 0x124D JUMPI PUSH2 0x124C PUSH2 0xFAF JUMP JUMPDEST JUMPDEST PUSH2 0x1259 DUP5 DUP3 DUP6 ADD PUSH2 0x1102 JUMP JUMPDEST SWAP2 POP POP SWAP3 SWAP2 POP POP JUMP JUMPDEST PUSH1 0x0 DUP2 MLOAD SWAP1 POP SWAP2 SWAP1 POP JUMP JUMPDEST PUSH1 0x0 DUP3 DUP3 MSTORE PUSH1 0x20 DUP3 ADD SWAP1 POP SWAP3 SWAP2 POP POP JUMP JUMPDEST PUSH1 0x0 JUMPDEST DUP4 DUP2 LT ISZERO PUSH2 0x129C JUMPI DUP1 DUP3 ADD MLOAD DUP2 DUP5 ADD MSTORE PUSH1 0x20 DUP2 ADD SWAP1 POP PUSH2 0x1281 JUMP JUMPDEST PUSH1 0x0 DUP5 DUP5 ADD MSTORE POP POP POP POP JUMP JUMPDEST PUSH1 0x0 PUSH2 0x12B3 DUP3 PUSH2 0x1262 JUMP JUMPDEST PUSH2 0x12BD DUP2 DUP6 PUSH2 0x126D JUMP JUMPDEST SWAP4 POP PUSH2 0x12CD DUP2 DUP6 PUSH1 0x20 DUP7 ADD PUSH2 0x127E JUMP JUMPDEST PUSH2 0x12D6 DUP2 PUSH2 0xFF4 JUMP JUMPDEST DUP5 ADD SWAP2 POP POP SWAP3 SWAP2 POP POP JUMP JUMPDEST PUSH1 0x0 PUSH1 0x20 DUP3 ADD SWAP1 POP DUP2 DUP2 SUB PUSH1 0x0 DUP4 ADD MSTORE PUSH2 0x12FB DUP2 DUP5 PUSH2 0x12A8 JUMP JUMPDEST SWAP1 POP SWAP3 SWAP2 POP POP JUMP JUMPDEST PUSH1 0x0 DUP2 SWAP1 POP SWAP2 SWAP1 POP JUMP JUMPDEST PUSH2 0x1316 DUP2 PUSH2 0x1303 JUMP JUMPDEST DUP3 MSTORE POP POP JUMP JUMPDEST PUSH1 0x0 PUSH1 0x20 DUP3 ADD SWAP1 POP PUSH2 0x1331 PUSH1 0x0 DUP4 ADD DUP5 PUSH2 0x130D JUMP JUMPDEST SWAP3 SWAP2 POP POP JUMP JUMPDEST PUSH1 0x0 PUSH1 0x20 DUP3 DUP5 SUB SLT ISZERO PUSH2 0x134D JUMPI PUSH2 0x134C PUSH2 0xFAA JUMP JUMPDEST JUMPDEST PUSH1 0x0 PUSH2 0x135B DUP5 DUP3 DUP6 ADD PUSH2 0xFD5 JUMP JUMPDEST SWAP2 POP POP SWAP3 SWAP2 POP POP JUMP JUMPDEST PUSH1 0x0 PUSH1 0x40 DUP3 ADD SWAP1 POP DUP2 DUP2 SUB PUSH1 0x0 DUP4 ADD MSTORE PUSH2 0x137E DUP2 DUP6 PUSH2 0x12A8 JUMP JUMPDEST SWAP1 POP DUP2 DUP2 SUB PUSH1 0x20 DUP4 ADD MSTORE PUSH2 0x1392 DUP2 DUP5 PUSH2 0x12A8 JUMP JUMPDEST SWAP1 POP SWAP4 SWAP3 POP POP POP JUMP JUMPDEST PUSH1 0x0 PUSH20 0xFFFFFFFFFFFFFFFFFFFFFFFFFFFFFFFFFFFFFFFF DUP3 AND SWAP1 POP SWAP2 SWAP1 POP JUMP JUMPDEST PUSH1 0x0 PUSH2 0x13C6 DUP3 PUSH2 0x139B JUMP JUMPDEST SWAP1 POP SWAP2 SWAP1 POP JUMP JUMPDEST PUSH2 0x13D6 DUP2 PUSH2 0x13BB JUMP JUMPDEST DUP2 EQ PUSH2 0x13E1 JUMPI PUSH1 0x0 DUP1 REVERT JUMPDEST POP JUMP JUMPDEST PUSH1 0x0 DUP2 CALLDATALOAD SWAP1 POP PUSH2 0x13F3 DUP2 PUSH2 0x13CD JUMP JUMPDEST SWAP3 SWAP2 POP POP JUMP JUMPDEST PUSH1 0x0 DUP1 PUSH1 0x40 DUP4 DUP6 SUB SLT ISZERO PUSH2 0x1410 JUMPI PUSH2 0x140F PUSH2 0xFAA JUMP JUMPDEST JUMPDEST PUSH1 0x0 PUSH2 0x141E DUP6 DUP3 DUP7 ADD PUSH2 0x13E4 JUMP JUMPDEST SWAP3 POP POP PUSH1 0x20 PUSH2 0x142F DUP6 DUP3 DUP7 ADD PUSH2 0xFD5 JUMP JUMPDEST SWAP2 POP POP SWAP3 POP SWAP3 SWAP1 POP JUMP JUMPDEST PUSH1 0x0 PUSH1 0x80 DUP3 ADD SWAP1 POP PUSH2 0x144E PUSH1 0x0 DUP4 ADD DUP8 PUSH2 0x11BB JUMP JUMPDEST DUP2 DUP2 SUB PUSH1 0x20 DUP4 ADD MSTORE PUSH2 0x1460 DUP2 DUP7 PUSH2 0x12A8 JUMP JUMPDEST SWAP1 POP DUP2 DUP2 SUB PUSH1 0x40 DUP4 ADD MSTORE PUSH2 0x1474 DUP2 DUP6 PUSH2 0x12A8 JUMP JUMPDEST SWAP1 POP DUP2 DUP2 SUB PUSH1 0x60 DUP4 ADD MSTORE PUSH2 0x1488 DUP2 DUP5 PUSH2 0x12A8 JUMP JUMPDEST SWAP1 POP SWAP6 SWAP5 POP POP POP POP POP JUMP JUMPDEST PUSH1 0x0 PUSH1 0x40 DUP3 ADD SWAP1 POP PUSH2 0x14A8 PUSH1 0x0 DUP4 ADD DUP6 PUSH2 0x11BB JUMP JUMPDEST DUP2 DUP2 SUB PUSH1 0x20 DUP4 ADD MSTORE PUSH2 0x14BA DUP2 DUP5 PUSH2 0x12A8 JUMP JUMPDEST SWAP1 POP SWAP4 SWAP3 POP POP POP JUMP JUMPDEST PUSH1 0x0 DUP1 PUSH1 0x0 DUP1 PUSH1 0x0 PUSH1 0xA0 DUP7 DUP9 SUB SLT ISZERO PUSH2 0x14DF JUMPI PUSH2 0x14DE PUSH2 0xFAA JUMP JUMPDEST JUMPDEST PUSH1 0x0 PUSH2 0x14ED DUP9 DUP3 DUP10 ADD PUSH2 0xFD5 JUMP JUMPDEST SWAP6 POP POP PUSH1 0x20 PUSH2 0x14FE DUP9 DUP3 DUP10 ADD PUSH2 0xFD5 JUMP JUMPDEST SWAP5 POP POP PUSH1 0x40 DUP7 ADD CALLDATALOAD PUSH8 0xFFFFFFFFFFFFFFFF DUP2 GT ISZERO PUSH2 0x151F JUMPI PUSH2 0x151E PUSH2 0xFAF JUMP JUMPDEST JUMPDEST PUSH2 0x152B DUP9 DUP3 DUP10 ADD PUSH2 0x1102 JUMP JUMPDEST SWAP4 POP POP PUSH1 0x60 DUP7 ADD CALLDATALOAD PUSH8 0xFFFFFFFFFFFFFFFF DUP2 GT ISZERO PUSH2 0x154C JUMPI PUSH2 0x154B PUSH2 0xFAF JUMP JUMPDEST JUMPDEST PUSH2 0x1558 DUP9 DUP3 DUP10 ADD PUSH2 0x1102 JUMP JUMPDEST SWAP3 POP POP PUSH1 0x80 DUP7 ADD CALLDATALOAD PUSH8 0xFFFFFFFFFFFFFFFF DUP2 GT ISZERO PUSH2 0x1579 JUMPI PUSH2 0x1578 PUSH2 0xFAF JUMP JUMPDEST JUMPDEST PUSH2 0x1585 DUP9 DUP3 DUP10 ADD PUSH2 0x1102 JUMP JUMPDEST SWAP2 POP POP SWAP3 SWAP6 POP SWAP3 SWAP6 SWAP1 SWAP4 POP JUMP JUMPDEST PUSH1 0x0 DUP1 PUSH1 0x40 DUP4 DUP6 SUB SLT ISZERO PUSH2 0x15A9 JUMPI PUSH2 0x15A8 PUSH2 0xFAA JUMP JUMPDEST JUMPDEST PUSH1 0x0 PUSH2 0x15B7 DUP6 DUP3 DUP7 ADD PUSH2 0xFD5 JUMP JUMPDEST SWAP3 POP POP PUSH1 0x20 PUSH2 0x15C8 DUP6 DUP3 DUP7 ADD PUSH2 0xFD5 JUMP JUMPDEST SWAP2 POP POP SWAP3 POP SWAP3 SWAP1 POP JUMP JUMPDEST PUSH1 0x0 PUSH1 0xFF DUP3 AND SWAP1 POP SWAP2 SWAP1 POP JUMP JUMPDEST PUSH2 0x15E8 DUP2 PUSH2 0x15D2 JUMP JUMPDEST DUP3 MSTORE POP POP JUMP JUMPDEST PUSH1 0x0 PUSH1 0x20 DUP3 ADD SWAP1 POP PUSH2 0x1603 PUSH1 0x0 DUP4 ADD DUP5 PUSH2 0x15DF JUMP JUMPDEST SWAP3 SWAP2 POP POP JUMP JUMPDEST PUSH32 0x4E487B7100000000000000000000000000000000000000000000000000000000 PUSH1 0x0 MSTORE PUSH1 0x22 PUSH1 0x4 MSTORE PUSH1 0x24 PUSH1 0x0 REVERT JUMPDEST PUSH1 0x0 PUSH1 0x2 DUP3 DIV SWAP1 POP PUSH1 0x1 DUP3 AND DUP1 PUSH2 0x1650 JUMPI PUSH1 0x7F DUP3 AND SWAP2 POP JUMPDEST PUSH1 0x20 DUP3 LT DUP2 SUB PUSH2 0x1663 JUMPI PUSH2 0x1662 PUSH2 0x1609 JUMP JUMPDEST JUMPDEST POP SWAP2 SWAP1 POP JUMP JUMPDEST PUSH1 0x0 DUP2 SWAP1 POP DUP2 PUSH1 0x0 MSTORE PUSH1 0x20 PUSH1 0x0 KECCAK256 SWAP1 POP SWAP2 SWAP1 POP JUMP JUMPDEST PUSH1 0x0 PUSH1 0x20 PUSH1 0x1F DUP4 ADD DIV SWAP1 POP SWAP2 SWAP1 POP JUMP JUMPDEST PUSH1 0x0 DUP3 DUP3 SHL SWAP1 POP SWAP3 SWAP2 POP POP JUMP JUMPDEST PUSH1 0x0 PUSH1 0x8 DUP4 MUL PUSH2 0x16CB PUSH32 0xFFFFFFFFFFFFFFFFFFFFFFFFFFFFFFFFFFFFFFFFFFFFFFFFFFFFFFFFFFFFFFFF DUP3 PUSH2 0x168E JUMP JUMPDEST PUSH2 0x16D5 DUP7 DUP4 PUSH2 0x168E JUMP JUMPDEST SWAP6 POP DUP1 NOT DUP5 AND SWAP4 POP DUP1 DUP7 AND DUP5 OR SWAP3 POP POP POP SWAP4 SWAP3 POP POP POP JUMP JUMPDEST PUSH1 0x0 DUP2 SWAP1 POP SWAP2 SWAP1 POP JUMP JUMPDEST PUSH1 0x0 PUSH2 0x1712 PUSH2 0x170D PUSH2 0x1708 DUP5 PUSH2 0xFB4 JUMP JUMPDEST PUSH2 0x16ED JUMP JUMPDEST PUSH2 0xFB4 JUMP JUMPDEST SWAP1 POP SWAP2 SWAP1 POP JUMP JUMPDEST PUSH1 0x0 DUP2 SWAP1 POP SWAP2 SWAP1 POP JUMP JUMPDEST PUSH2 0x172C DUP4 PUSH2 0x16F7 JUMP JUMPDEST PUSH2 0x1740 PUSH2 0x1738 DUP3 PUSH2 0x1719 JUMP JUMPDEST DUP5 DUP5 SLOAD PUSH2 0x169B JUMP JUMPDEST DUP3 SSTORE POP POP POP POP JUMP JUMPDEST PUSH1 0x0 SWAP1 JUMP JUMPDEST PUSH2 0x1755 PUSH2 0x1748 JUMP JUMPDEST PUSH2 0x1760 DUP2 DUP5 DUP5 PUSH2 0x1723 JUMP JUMPDEST POP POP POP JUMP JUMPDEST JUMPDEST DUP2 DUP2 LT ISZERO PUSH2 0x1784 JUMPI PUSH2 0x1779 PUSH1 0x0 DUP3 PUSH2 0x174D JUMP JUMPDEST PUSH1 0x1 DUP2 ADD SWAP1 POP PUSH2 0x1766 JUMP JUMPDEST POP POP JUMP JUMPDEST PUSH1 0x1F DUP3 GT ISZERO PUSH2 0x17C9 JUMPI PUSH2 0x179A DUP2 PUSH2 0x1669 JUMP JUMPDEST PUSH2 0x17A3 DUP5 PUSH2 0x167E JUMP JUMPDEST DUP2 ADD PUSH1 0x20 DUP6 LT ISZERO PUSH2 0x17B2 JUMPI DUP2 SWAP1 POP JUMPDEST PUSH2 0x17C6 PUSH2 0x17BE DUP6 PUSH2 0x167E JUMP JUMPDEST DUP4 ADD DUP3 PUSH2 0x1765 JUMP JUMPDEST POP POP JUMPDEST POP POP POP JUMP JUMPDEST PUSH1 0x0 DUP3 DUP3 SHR SWAP1 POP SWAP3 SWAP2 POP POP JUMP JUMPDEST PUSH1 0x0 PUSH2 0x17EC PUSH1 0x0 NOT DUP5 PUSH1 0x8 MUL PUSH2 0x17CE JUMP JUMPDEST NOT DUP1 DUP4 AND SWAP2 POP POP SWAP3 SWAP2 POP POP JUMP JUMPDEST PUSH1 0x0 PUSH2 0x1805 DUP4 DUP4 PUSH2 0x17DB JUMP JUMPDEST SWAP2 POP DUP3 PUSH1 0x2 MUL DUP3 OR SWAP1 POP SWAP3 SWAP2 POP POP JUMP JUMPDEST PUSH2 0x181E DUP3 PUSH2 0x1262 JUMP JUMPDEST PUSH8 0xFFFFFFFFFFFFFFFF DUP2 GT ISZERO PUSH2 0x1837 JUMPI PUSH2 0x1836 PUSH2 0x1005 JUMP JUMPDEST JUMPDEST PUSH2 0x1841 DUP3 SLOAD PUSH2 0x1638 JUMP JUMPDEST PUSH2 0x184C DUP3 DUP3 DUP6 PUSH2 0x1788 JUMP JUMPDEST PUSH1 0x0 PUSH1 0x20 SWAP1 POP PUSH1 0x1F DUP4 GT PUSH1 0x1 DUP2 EQ PUSH2 0x187F JUMPI PUSH1 0x0 DUP5 ISZERO PUSH2 0x186D JUMPI DUP3 DUP8 ADD MLOAD SWAP1 POP JUMPDEST PUSH2 0x1877 DUP6 DUP3 PUSH2 0x17F9 JUMP JUMPDEST DUP7 SSTORE POP PUSH2 0x18DF JUMP JUMPDEST PUSH1 0x1F NOT DUP5 AND PUSH2 0x188D DUP7 PUSH2 0x1669 JUMP JUMPDEST PUSH1 0x0 JUMPDEST DUP3 DUP2 LT ISZERO PUSH2 0x18B5 JUMPI DUP5 DUP10 ADD MLOAD DUP3 SSTORE PUSH1 0x1 DUP3 ADD SWAP2 POP PUSH1 0x20 DUP6 ADD SWAP5 POP PUSH1 0x20 DUP2 ADD SWAP1 POP PUSH2 0x1890 JUMP JUMPDEST DUP7 DUP4 LT ISZERO PUSH2 0x18D2 JUMPI DUP5 DUP10 ADD MLOAD PUSH2 0x18CE PUSH1 0x1F DUP10 AND DUP3 PUSH2 0x17DB JUMP JUMPDEST DUP4 SSTORE POP JUMPDEST PUSH1 0x1 PUSH1 0x2 DUP9 MUL ADD DUP9 SSTORE POP POP POP JUMPDEST POP POP POP POP POP POP JUMP INVALID LOG2 PUSH5 0x6970667358 0x22 SLT KECCAK256 0xAA SWAP4 PUSH16 0xEB8B862BA5F655713127E6771959372C LOG1 SAR DUP10 0xB9 CODECOPY PUSH18 0xDCF537168159A464736F6C63430008120033 "
				},
				"gasEstimates": {
					"creation": {
						"codeDepositCost": "1285800",
						"executionCost": "infinite",
						"totalCost": "infinite"
					},
					"external": {
						"addBook(uint256,string,string)": "infinite",
						"addFruit(uint256,string,string)": "infinite",
						"addLiquor(uint256,uint256,string,string,string)": "infinite",
						"addMyLiquor(uint256,uint256,string,string,string)": "infinite",
						"addValue(string)": "infinite",
						"array2D(uint256,uint256)": "infinite",
						"books(uint256)": "infinite",
						"fruits(uint256)": "infinite",
						"liquors(uint256)": "infinite",
						"myBytes32()": "2496",
						"myInt()": "2541",
						"myLiquors(address,uint256)": "infinite",
						"myString()": "infinite",
						"myStruct()": "infinite",
						"myUint()": "2475",
						"myUint256()": "2451",
						"myUint8()": "2603",
						"stringArray(uint256)": "infinite",
						"uintArray(uint256)": "infinite",
						"valueCount()": "2535",
						"values(uint256)": "infinite"
					}
				},
				"methodIdentifiers": {
					"addBook(uint256,string,string)": "028414f2",
					"addFruit(uint256,string,string)": "2036d295",
					"addLiquor(uint256,uint256,string,string,string)": "9aa36590",
					"addMyLiquor(uint256,uint256,string,string,string)": "db6e35b2",
					"addValue(string)": "3a5fbaaa",
					"array2D(uint256,uint256)": "d3268fc1",
					"books(uint256)": "68744046",
					"fruits(uint256)": "c4172162",
					"liquors(uint256)": "ac2447f1",
					"myBytes32()": "4b3e7e0c",
					"myInt()": "2cb777a6",
					"myLiquors(address,uint256)": "7c73709a",
					"myString()": "492bfa18",
					"myStruct()": "8bc9fe6c",
					"myUint()": "06540f7e",
					"myUint256()": "a7dbce1c",
					"myUint8()": "e2a4b2af",
					"stringArray(uint256)": "6422c4c8",
					"uintArray(uint256)": "9ae918c7",
					"valueCount()": "26eb4dbb",
					"values(uint256)": "5e383d21"
				}
			},
			"storageLayout": {
				"storage": [
					{
						"astId": 4,
						"contract": "contracts/MyContract.sol:MyContract",
						"label": "myUint",
						"offset": 0,
						"slot": "0",
						"type": "t_uint256"
					},
					{
						"astId": 7,
						"contract": "contracts/MyContract.sol:MyContract",
						"label": "myInt",
						"offset": 0,
						"slot": "1",
						"type": "t_int256"
					},
					{
						"astId": 10,
						"contract": "contracts/MyContract.sol:MyContract",
						"label": "myUint256",
						"offset": 0,
						"slot": "2",
						"type": "t_uint256"
					},
					{
						"astId": 13,
						"contract": "contracts/MyContract.sol:MyContract",
						"label": "myUint8",
						"offset": 0,
						"slot": "3",
						"type": "t_uint8"
					},
					{
						"astId": 16,
						"contract": "contracts/MyContract.sol:MyContract",
						"label": "myString",
						"offset": 0,
						"slot": "4",
						"type": "t_string_storage"
					},
					{
						"astId": 19,
						"contract": "contracts/MyContract.sol:MyContract",
						"label": "myBytes32",
						"offset": 0,
						"slot": "5",
						"type": "t_bytes32"
					},
					{
						"astId": 31,
						"contract": "contracts/MyContract.sol:MyContract",
						"label": "myStruct",
						"offset": 0,
						"slot": "6",
						"type": "t_struct(MyStruct)24_storage"
					},
					{
						"astId": 38,
						"contract": "contracts/MyContract.sol:MyContract",
						"label": "uintArray",
						"offset": 0,
						"slot": "8",
						"type": "t_array(t_uint256)dyn_storage"
					},
					{
						"astId": 45,
						"contract": "contracts/MyContract.sol:MyContract",
						"label": "stringArray",
						"offset": 0,
						"slot": "9",
						"type": "t_array(t_string_storage)dyn_storage"
					},
					{
						"astId": 48,
						"contract": "contracts/MyContract.sol:MyContract",
						"label": "values",
						"offset": 0,
						"slot": "10",
						"type": "t_array(t_string_storage)dyn_storage"
					},
					{
						"astId": 61,
						"contract": "contracts/MyContract.sol:MyContract",
						"label": "array2D",
						"offset": 0,
						"slot": "11",
						"type": "t_array(t_array(t_uint256)dyn_storage)dyn_storage"
					},
					{
						"astId": 86,
						"contract": "contracts/MyContract.sol:MyContract",
						"label": "names",
						"offset": 0,
						"slot": "12",
						"type": "t_mapping(t_uint256,t_string_storage)"
					},
					{
						"astId": 113,
						"contract": "contracts/MyContract.sol:MyContract",
						"label": "books",
						"offset": 0,
						"slot": "13",
						"type": "t_mapping(t_uint256,t_struct(Book)118_storage)"
					},
					{
						"astId": 142,
						"contract": "contracts/MyContract.sol:MyContract",
						"label": "fruits",
						"offset": 0,
						"slot": "14",
						"type": "t_mapping(t_uint256,t_struct(Fruit)147_storage)"
					},
					{
						"astId": 180,
						"contract": "contracts/MyContract.sol:MyContract",
						"label": "liquors",
						"offset": 0,
						"slot": "15",
						"type": "t_mapping(t_uint256,t_struct(Liquor)175_storage)"
					},
					{
						"astId": 212,
						"contract": "contracts/MyContract.sol:MyContract",
						"label": "myLiquors",
						"offset": 0,
						"slot": "16",
						"type": "t_mapping(t_address,t_mapping(t_uint256,t_struct(Liquor)175_storage))"
					}
				],
				"types": {
					"t_address": {
						"encoding": "inplace",
						"label": "address",
						"numberOfBytes": "20"
					},
					"t_array(t_array(t_uint256)dyn_storage)dyn_storage": {
						"base": "t_array(t_uint256)dyn_storage",
						"encoding": "dynamic_array",
						"label": "uint256[][]",
						"numberOfBytes": "32"
					},
					"t_array(t_string_storage)dyn_storage": {
						"base": "t_string_storage",
						"encoding": "dynamic_array",
						"label": "string[]",
						"numberOfBytes": "32"
					},
					"t_array(t_uint256)dyn_storage": {
						"base": "t_uint256",
						"encoding": "dynamic_array",
						"label": "uint256[]",
						"numberOfBytes": "32"
					},
					"t_bytes32": {
						"encoding": "inplace",
						"label": "bytes32",
						"numberOfBytes": "32"
					},
					"t_int256": {
						"encoding": "inplace",
						"label": "int256",
						"numberOfBytes": "32"
					},
					"t_mapping(t_address,t_mapping(t_uint256,t_struct(Liquor)175_storage))": {
						"encoding": "mapping",
						"key": "t_address",
						"label": "mapping(address => mapping(uint256 => struct MyContract.Liquor))",
						"numberOfBytes": "32",
						"value": "t_mapping(t_uint256,t_struct(Liquor)175_storage)"
					},
					"t_mapping(t_uint256,t_string_storage)": {
						"encoding": "mapping",
						"key": "t_uint256",
						"label": "mapping(uint256 => string)",
						"numberOfBytes": "32",
						"value": "t_string_storage"
					},
					"t_mapping(t_uint256,t_struct(Book)118_storage)": {
						"encoding": "mapping",
						"key": "t_uint256",
						"label": "mapping(uint256 => struct MyContract.Book)",
						"numberOfBytes": "32",
						"value": "t_struct(Book)118_storage"
					},
					"t_mapping(t_uint256,t_struct(Fruit)147_storage)": {
						"encoding": "mapping",
						"key": "t_uint256",
						"label": "mapping(uint256 => struct MyContract.Fruit)",
						"numberOfBytes": "32",
						"value": "t_struct(Fruit)147_storage"
					},
					"t_mapping(t_uint256,t_struct(Liquor)175_storage)": {
						"encoding": "mapping",
						"key": "t_uint256",
						"label": "mapping(uint256 => struct MyContract.Liquor)",
						"numberOfBytes": "32",
						"value": "t_struct(Liquor)175_storage"
					},
					"t_string_storage": {
						"encoding": "bytes",
						"label": "string",
						"numberOfBytes": "32"
					},
					"t_struct(Book)118_storage": {
						"encoding": "inplace",
						"label": "struct MyContract.Book",
						"members": [
							{
								"astId": 115,
								"contract": "contracts/MyContract.sol:MyContract",
								"label": "title",
								"offset": 0,
								"slot": "0",
								"type": "t_string_storage"
							},
							{
								"astId": 117,
								"contract": "contracts/MyContract.sol:MyContract",
								"label": "author",
								"offset": 0,
								"slot": "1",
								"type": "t_string_storage"
							}
						],
						"numberOfBytes": "64"
					},
					"t_struct(Fruit)147_storage": {
						"encoding": "inplace",
						"label": "struct MyContract.Fruit",
						"members": [
							{
								"astId": 144,
								"contract": "contracts/MyContract.sol:MyContract",
								"label": "name",
								"offset": 0,
								"slot": "0",
								"type": "t_string_storage"
							},
							{
								"astId": 146,
								"contract": "contracts/MyContract.sol:MyContract",
								"label": "origin",
								"offset": 0,
								"slot": "1",
								"type": "t_string_storage"
							}
						],
						"numberOfBytes": "64"
					},
					"t_struct(Liquor)175_storage": {
						"encoding": "inplace",
						"label": "struct MyContract.Liquor",
						"members": [
							{
								"astId": 168,
								"contract": "contracts/MyContract.sol:MyContract",
								"label": "percent",
								"offset": 0,
								"slot": "0",
								"type": "t_uint256"
							},
							{
								"astId": 170,
								"contract": "contracts/MyContract.sol:MyContract",
								"label": "category",
								"offset": 0,
								"slot": "1",
								"type": "t_string_storage"
							},
							{
								"astId": 172,
								"contract": "contracts/MyContract.sol:MyContract",
								"label": "brand",
								"offset": 0,
								"slot": "2",
								"type": "t_string_storage"
							},
							{
								"astId": 174,
								"contract": "contracts/MyContract.sol:MyContract",
								"label": "name",
								"offset": 0,
								"slot": "3",
								"type": "t_string_storage"
							}
						],
						"numberOfBytes": "128"
					},
					"t_struct(MyStruct)24_storage": {
						"encoding": "inplace",
						"label": "struct MyContract.MyStruct",
						"members": [
							{
								"astId": 21,
								"contract": "contracts/MyContract.sol:MyContract",
								"label": "myUint256",
								"offset": 0,
								"slot": "0",
								"type": "t_uint256"
							},
							{
								"astId": 23,
								"contract": "contracts/MyContract.sol:MyContract",
								"label": "myString",
								"offset": 0,
								"slot": "1",
								"type": "t_string_storage"
							}
						],
						"numberOfBytes": "64"
					},
					"t_uint256": {
						"encoding": "inplace",
						"label": "uint256",
						"numberOfBytes": "32"
					},
					"t_uint8": {
						"encoding": "inplace",
						"label": "uint8",
						"numberOfBytes": "1"
					}
				}
			},
			"userdoc": {
				"kind": "user",
				"methods": {},
				"version": 1
			}
		}
	}
}