{
	"data": {
		"bytecode": {
			"linkReferences": {},
			"object": "608060405234801561001057600080fd5b50336000806101000a81548173ffffffffffffffffffffffffffffffffffffffff021916908373ffffffffffffffffffffffffffffffffffffffff16021790555060046001819055506000600260006101000a81548160ff0219169083600181111561007f5761007e610089565b5b02179055506100b8565b7f4e487b7100000000000000000000000000000000000000000000000000000000600052602160045260246000fd5b6105ae806100c76000396000f3fe60806040526004361061003f5760003560e01c80638da5cb5b14610044578063c204233a1461006f578063ef8a92351461009a578063f89bdb62146100c5575b600080fd5b34801561005057600080fd5b506100596100cf565b6040516100669190610301565b60405180910390f35b34801561007b57600080fd5b506100846100f3565b6040516100919190610335565b60405180910390f35b3480156100a657600080fd5b506100af6100f9565b6040516100bc91906103c7565b60405180910390f35b6100cd61010c565b005b60008054906101000a900473ffffffffffffffffffffffffffffffffffffffff1681565b60015481565b600260009054906101000a900460ff1681565b670de0b6b3a764000080341015610158576040517f08c379a000000000000000000000000000000000000000000000000000000000815260040161014f9061043f565b60405180910390fd5b6000600181111561016c5761016b610350565b5b600260009054906101000a900460ff16600181111561018e5761018d610350565b5b146101ce576040517f08c379a00000000000000000000000000000000000000000000000000000000081526004016101c5906104ab565b60405180910390fd5b60008054906101000a900473ffffffffffffffffffffffffffffffffffffffff1673ffffffffffffffffffffffffffffffffffffffff166108fc349081150290604051600060405180830381858888f19350505050158015610234573d6000803e3d6000fd5b507f80fb67a38b6d81ac91f2eb07e40335a182169cfdb3572cb2d198ee48d660119034336040516102669291906104ec565b60405180910390a160018060008282546102809190610544565b925050819055506000600154036102bd576001600260006101000a81548160ff021916908360018111156102b7576102b6610350565b5b02179055505b50565b600073ffffffffffffffffffffffffffffffffffffffff82169050919050565b60006102eb826102c0565b9050919050565b6102fb816102e0565b82525050565b600060208201905061031660008301846102f2565b92915050565b6000819050919050565b61032f8161031c565b82525050565b600060208201905061034a6000830184610326565b92915050565b7f4e487b7100000000000000000000000000000000000000000000000000000000600052602160045260246000fd5b600281106103905761038f610350565b5b50565b60008190506103a18261037f565b919050565b60006103b182610393565b9050919050565b6103c1816103a6565b82525050565b60006020820190506103dc60008301846103b8565b92915050565b600082825260208201905092915050565b7f4e6f7420656e6f7567682065746865722070726f766964656400000000000000600082015250565b60006104296019836103e2565b9150610434826103f3565b602082019050919050565b600060208201905081810360008301526104588161041c565b9050919050565b7f4e6f20736561747320617265206c65667420746f20626f6f6b00000000000000600082015250565b60006104956019836103e2565b91506104a08261045f565b602082019050919050565b600060208201905081810360008301526104c481610488565b9050919050565b60006104d6826102c0565b9050919050565b6104e6816104cb565b82525050565b60006040820190506105016000830185610326565b61050e60208301846104dd565b9392505050565b7f4e487b7100000000000000000000000000000000000000000000000000000000600052601160045260246000fd5b600061054f8261031c565b915061055a8361031c565b925082820390508181111561057257610571610515565b5b9291505056fea2646970667358221220c35fd1ecf30143a03cdd784824e4372532622ef8c0eafaf175d6b9a633135a9064736f6c63430008120033",
			"opcodes": "PUSH1 0x80 PUSH1 0x40 MSTORE CALLVALUE DUP1 ISZERO PUSH2 0x10 JUMPI PUSH1 0x0 DUP1 REVERT JUMPDEST POP CALLER PUSH1 0x0 DUP1 PUSH2 0x100 EXP DUP2 SLOAD DUP2 PUSH20 0xFFFFFFFFFFFFFFFFFFFFFFFFFFFFFFFFFFFFFFFF MUL NOT AND SWAP1 DUP4 PUSH20 0xFFFFFFFFFFFFFFFFFFFFFFFFFFFFFFFFFFFFFFFF AND MUL OR SWAP1 SSTORE POP PUSH1 0x4 PUSH1 0x1 DUP2 SWAP1 SSTORE POP PUSH1 0x0 PUSH1 0x2 PUSH1 0x0 PUSH2 0x100 EXP DUP2 SLOAD DUP2 PUSH1 0xFF MUL NOT AND SWAP1 DUP4 PUSH1 0x1 DUP2 GT ISZERO PUSH2 0x7F JUMPI PUSH2 0x7E PUSH2 0x89 JUMP JUMPDEST JUMPDEST MUL OR SWAP1 SSTORE POP PUSH2 0xB8 JUMP JUMPDEST PUSH32 0x4E487B7100000000000000000000000000000000000000000000000000000000 PUSH1 0x0 MSTORE PUSH1 0x21 PUSH1 0x4 MSTORE PUSH1 0x24 PUSH1 0x0 REVERT JUMPDEST PUSH2 0x5AE DUP1 PUSH2 0xC7 PUSH1 0x0 CODECOPY PUSH1 0x0 RETURN INVALID PUSH1 0x80 PUSH1 0x40 MSTORE PUSH1 0x4 CALLDATASIZE LT PUSH2 0x3F JUMPI PUSH1 0x0 CALLDATALOAD PUSH1 0xE0 SHR DUP1 PUSH4 0x8DA5CB5B EQ PUSH2 0x44 JUMPI DUP1 PUSH4 0xC204233A EQ PUSH2 0x6F JUMPI DUP1 PUSH4 0xEF8A9235 EQ PUSH2 0x9A JUMPI DUP1 PUSH4 0xF89BDB62 EQ PUSH2 0xC5 JUMPI JUMPDEST PUSH1 0x0 DUP1 REVERT JUMPDEST CALLVALUE DUP1 ISZERO PUSH2 0x50 JUMPI PUSH1 0x0 DUP1 REVERT JUMPDEST POP PUSH2 0x59 PUSH2 0xCF JUMP JUMPDEST PUSH1 0x40 MLOAD PUSH2 0x66 SWAP2 SWAP1 PUSH2 0x301 JUMP JUMPDEST PUSH1 0x40 MLOAD DUP1 SWAP2 SUB SWAP1 RETURN JUMPDEST CALLVALUE DUP1 ISZERO PUSH2 0x7B JUMPI PUSH1 0x0 DUP1 REVERT JUMPDEST POP PUSH2 0x84 PUSH2 0xF3 JUMP JUMPDEST PUSH1 0x40 MLOAD PUSH2 0x91 SWAP2 SWAP1 PUSH2 0x335 JUMP JUMPDEST PUSH1 0x40 MLOAD DUP1 SWAP2 SUB SWAP1 RETURN JUMPDEST CALLVALUE DUP1 ISZERO PUSH2 0xA6 JUMPI PUSH1 0x0 DUP1 REVERT JUMPDEST POP PUSH2 0xAF PUSH2 0xF9 JUMP JUMPDEST PUSH1 0x40 MLOAD PUSH2 0xBC SWAP2 SWAP1 PUSH2 0x3C7 JUMP JUMPDEST PUSH1 0x40 MLOAD DUP1 SWAP2 SUB SWAP1 RETURN JUMPDEST PUSH2 0xCD PUSH2 0x10C JUMP JUMPDEST STOP JUMPDEST PUSH1 0x0 DUP1 SLOAD SWAP1 PUSH2 0x100 EXP SWAP1 DIV PUSH20 0xFFFFFFFFFFFFFFFFFFFFFFFFFFFFFFFFFFFFFFFF AND DUP2 JUMP JUMPDEST PUSH1 0x1 SLOAD DUP2 JUMP JUMPDEST PUSH1 0x2 PUSH1 0x0 SWAP1 SLOAD SWAP1 PUSH2 0x100 EXP SWAP1 DIV PUSH1 0xFF AND DUP2 JUMP JUMPDEST PUSH8 0xDE0B6B3A7640000 DUP1 CALLVALUE LT ISZERO PUSH2 0x158 JUMPI PUSH1 0x40 MLOAD PUSH32 0x8C379A000000000000000000000000000000000000000000000000000000000 DUP2 MSTORE PUSH1 0x4 ADD PUSH2 0x14F SWAP1 PUSH2 0x43F JUMP JUMPDEST PUSH1 0x40 MLOAD DUP1 SWAP2 SUB SWAP1 REVERT JUMPDEST PUSH1 0x0 PUSH1 0x1 DUP2 GT ISZERO PUSH2 0x16C JUMPI PUSH2 0x16B PUSH2 0x350 JUMP JUMPDEST JUMPDEST PUSH1 0x2 PUSH1 0x0 SWAP1 SLOAD SWAP1 PUSH2 0x100 EXP SWAP1 DIV PUSH1 0xFF AND PUSH1 0x1 DUP2 GT ISZERO PUSH2 0x18E JUMPI PUSH2 0x18D PUSH2 0x350 JUMP JUMPDEST JUMPDEST EQ PUSH2 0x1CE JUMPI PUSH1 0x40 MLOAD PUSH32 0x8C379A000000000000000000000000000000000000000000000000000000000 DUP2 MSTORE PUSH1 0x4 ADD PUSH2 0x1C5 SWAP1 PUSH2 0x4AB JUMP JUMPDEST PUSH1 0x40 MLOAD DUP1 SWAP2 SUB SWAP1 REVERT JUMPDEST PUSH1 0x0 DUP1 SLOAD SWAP1 PUSH2 0x100 EXP SWAP1 DIV PUSH20 0xFFFFFFFFFFFFFFFFFFFFFFFFFFFFFFFFFFFFFFFF AND PUSH20 0xFFFFFFFFFFFFFFFFFFFFFFFFFFFFFFFFFFFFFFFF AND PUSH2 0x8FC CALLVALUE SWAP1 DUP2 ISZERO MUL SWAP1 PUSH1 0x40 MLOAD PUSH1 0x0 PUSH1 0x40 MLOAD DUP1 DUP4 SUB DUP2 DUP6 DUP9 DUP9 CALL SWAP4 POP POP POP POP ISZERO DUP1 ISZERO PUSH2 0x234 JUMPI RETURNDATASIZE PUSH1 0x0 DUP1 RETURNDATACOPY RETURNDATASIZE PUSH1 0x0 REVERT JUMPDEST POP PUSH32 0x80FB67A38B6D81AC91F2EB07E40335A182169CFDB3572CB2D198EE48D6601190 CALLVALUE CALLER PUSH1 0x40 MLOAD PUSH2 0x266 SWAP3 SWAP2 SWAP1 PUSH2 0x4EC JUMP JUMPDEST PUSH1 0x40 MLOAD DUP1 SWAP2 SUB SWAP1 LOG1 PUSH1 0x1 DUP1 PUSH1 0x0 DUP3 DUP3 SLOAD PUSH2 0x280 SWAP2 SWAP1 PUSH2 0x544 JUMP JUMPDEST SWAP3 POP POP DUP2 SWAP1 SSTORE POP PUSH1 0x0 PUSH1 0x1 SLOAD SUB PUSH2 0x2BD JUMPI PUSH1 0x1 PUSH1 0x2 PUSH1 0x0 PUSH2 0x100 EXP DUP2 SLOAD DUP2 PUSH1 0xFF MUL NOT AND SWAP1 DUP4 PUSH1 0x1 DUP2 GT ISZERO PUSH2 0x2B7 JUMPI PUSH2 0x2B6 PUSH2 0x350 JUMP JUMPDEST JUMPDEST MUL OR SWAP1 SSTORE POP JUMPDEST POP JUMP JUMPDEST PUSH1 0x0 PUSH20 0xFFFFFFFFFFFFFFFFFFFFFFFFFFFFFFFFFFFFFFFF DUP3 AND SWAP1 POP SWAP2 SWAP1 POP JUMP JUMPDEST PUSH1 0x0 PUSH2 0x2EB DUP3 PUSH2 0x2C0 JUMP JUMPDEST SWAP1 POP SWAP2 SWAP1 POP JUMP JUMPDEST PUSH2 0x2FB DUP2 PUSH2 0x2E0 JUMP JUMPDEST DUP3 MSTORE POP POP JUMP JUMPDEST PUSH1 0x0 PUSH1 0x20 DUP3 ADD SWAP1 POP PUSH2 0x316 PUSH1 0x0 DUP4 ADD DUP5 PUSH2 0x2F2 JUMP JUMPDEST SWAP3 SWAP2 POP POP JUMP JUMPDEST PUSH1 0x0 DUP2 SWAP1 POP SWAP2 SWAP1 POP JUMP JUMPDEST PUSH2 0x32F DUP2 PUSH2 0x31C JUMP JUMPDEST DUP3 MSTORE POP POP JUMP JUMPDEST PUSH1 0x0 PUSH1 0x20 DUP3 ADD SWAP1 POP PUSH2 0x34A PUSH1 0x0 DUP4 ADD DUP5 PUSH2 0x326 JUMP JUMPDEST SWAP3 SWAP2 POP POP JUMP JUMPDEST PUSH32 0x4E487B7100000000000000000000000000000000000000000000000000000000 PUSH1 0x0 MSTORE PUSH1 0x21 PUSH1 0x4 MSTORE PUSH1 0x24 PUSH1 0x0 REVERT JUMPDEST PUSH1 0x2 DUP2 LT PUSH2 0x390 JUMPI PUSH2 0x38F PUSH2 0x350 JUMP JUMPDEST JUMPDEST POP JUMP JUMPDEST PUSH1 0x0 DUP2 SWAP1 POP PUSH2 0x3A1 DUP3 PUSH2 0x37F JUMP JUMPDEST SWAP2 SWAP1 POP JUMP JUMPDEST PUSH1 0x0 PUSH2 0x3B1 DUP3 PUSH2 0x393 JUMP JUMPDEST SWAP1 POP SWAP2 SWAP1 POP JUMP JUMPDEST PUSH2 0x3C1 DUP2 PUSH2 0x3A6 JUMP JUMPDEST DUP3 MSTORE POP POP JUMP JUMPDEST PUSH1 0x0 PUSH1 0x20 DUP3 ADD SWAP1 POP PUSH2 0x3DC PUSH1 0x0 DUP4 ADD DUP5 PUSH2 0x3B8 JUMP JUMPDEST SWAP3 SWAP2 POP POP JUMP JUMPDEST PUSH1 0x0 DUP3 DUP3 MSTORE PUSH1 0x20 DUP3 ADD SWAP1 POP SWAP3 SWAP2 POP POP JUMP JUMPDEST PUSH32 0x4E6F7420656E6F7567682065746865722070726F766964656400000000000000 PUSH1 0x0 DUP3 ADD MSTORE POP JUMP JUMPDEST PUSH1 0x0 PUSH2 0x429 PUSH1 0x19 DUP4 PUSH2 0x3E2 JUMP JUMPDEST SWAP2 POP PUSH2 0x434 DUP3 PUSH2 0x3F3 JUMP JUMPDEST PUSH1 0x20 DUP3 ADD SWAP1 POP SWAP2 SWAP1 POP JUMP JUMPDEST PUSH1 0x0 PUSH1 0x20 DUP3 ADD SWAP1 POP DUP2 DUP2 SUB PUSH1 0x0 DUP4 ADD MSTORE PUSH2 0x458 DUP2 PUSH2 0x41C JUMP JUMPDEST SWAP1 POP SWAP2 SWAP1 POP JUMP JUMPDEST PUSH32 0x4E6F20736561747320617265206C65667420746F20626F6F6B00000000000000 PUSH1 0x0 DUP3 ADD MSTORE POP JUMP JUMPDEST PUSH1 0x0 PUSH2 0x495 PUSH1 0x19 DUP4 PUSH2 0x3E2 JUMP JUMPDEST SWAP2 POP PUSH2 0x4A0 DUP3 PUSH2 0x45F JUMP JUMPDEST PUSH1 0x20 DUP3 ADD SWAP1 POP SWAP2 SWAP1 POP JUMP JUMPDEST PUSH1 0x0 PUSH1 0x20 DUP3 ADD SWAP1 POP DUP2 DUP2 SUB PUSH1 0x0 DUP4 ADD MSTORE PUSH2 0x4C4 DUP2 PUSH2 0x488 JUMP JUMPDEST SWAP1 POP SWAP2 SWAP1 POP JUMP JUMPDEST PUSH1 0x0 PUSH2 0x4D6 DUP3 PUSH2 0x2C0 JUMP JUMPDEST SWAP1 POP SWAP2 SWAP1 POP JUMP JUMPDEST PUSH2 0x4E6 DUP2 PUSH2 0x4CB JUMP JUMPDEST DUP3 MSTORE POP POP JUMP JUMPDEST PUSH1 0x0 PUSH1 0x40 DUP3 ADD SWAP1 POP PUSH2 0x501 PUSH1 0x0 DUP4 ADD DUP6 PUSH2 0x326 JUMP JUMPDEST PUSH2 0x50E PUSH1 0x20 DUP4 ADD DUP5 PUSH2 0x4DD JUMP JUMPDEST SWAP4 SWAP3 POP POP POP JUMP JUMPDEST PUSH32 0x4E487B7100000000000000000000000000000000000000000000000000000000 PUSH1 0x0 MSTORE PUSH1 0x11 PUSH1 0x4 MSTORE PUSH1 0x24 PUSH1 0x0 REVERT JUMPDEST PUSH1 0x0 PUSH2 0x54F DUP3 PUSH2 0x31C JUMP JUMPDEST SWAP2 POP PUSH2 0x55A DUP4 PUSH2 0x31C JUMP JUMPDEST SWAP3 POP DUP3 DUP3 SUB SWAP1 POP DUP2 DUP2 GT ISZERO PUSH2 0x572 JUMPI PUSH2 0x571 PUSH2 0x515 JUMP JUMPDEST JUMPDEST SWAP3 SWAP2 POP POP JUMP INVALID LOG2 PUSH5 0x6970667358 0x22 SLT KECCAK256 0xC3 0x5F 0xD1 0xEC RETURN ADD NUMBER LOG0 EXTCODECOPY 0xDD PUSH25 0x4824E4372532622EF8C0EAFAF175D6B9A633135A9064736F6C PUSH4 0x43000812 STOP CALLER "
		},
		"gasEstimates": {
			"creation": {
				"codeDepositCost": "290800",
				"executionCost": "71010",
				"totalCost": "361810"
			},
			"external": {
				"currentStatus()": "2582",
				"owner()": "2489",
				"payForSeat()": "infinite",
				"seatsLeft()": "2429"
			}
		},
		"methodIdentifiers": {
			"currentStatus()": "ef8a9235",
			"owner()": "8da5cb5b",
			"payForSeat()": "f89bdb62",
			"seatsLeft()": "c204233a"
		}
	},
	"abi": [
		{
			"inputs": [],
			"stateMutability": "nonpayable",
			"type": "constructor"
		},
		{
			"anonymous": false,
			"inputs": [
				{
					"indexed": false,
					"internalType": "uint256",
					"name": "_value",
					"type": "uint256"
				},
				{
					"indexed": false,
					"internalType": "address",
					"name": "_renter",
					"type": "address"
				}
			],
			"name": "bookSeat",
			"type": "event"
		},
		{
			"inputs": [],
			"name": "currentStatus",
			"outputs": [
				{
					"internalType": "enum CarSharing.Statuses",
					"name": "",
					"type": "uint8"
				}
			],
			"stateMutability": "view",
			"type": "function"
		},
		{
			"inputs": [],
			"name": "owner",
			"outputs": [
				{
					"internalType": "address payable",
					"name": "",
					"type": "address"
				}
			],
			"stateMutability": "view",
			"type": "function"
		},
		{
			"inputs": [],
			"name": "payForSeat",
			"outputs": [],
			"stateMutability": "payable",
			"type": "function"
		},
		{
			"inputs": [],
			"name": "seatsLeft",
			"outputs": [
				{
					"internalType": "uint256",
					"name": "",
					"type": "uint256"
				}
			],
			"stateMutability": "view",
			"type": "function"
		}
	]
}