{
	"data": {
		"bytecode": {
			"linkReferences": {},
			"object": "608060405234801562000010575f80fd5b5060405180604001604052806012815260200171456e676167656d656e74526567697374727960701b8152506040518060400160405280600381526020016222a72960e91b815250815f908162000068919062000146565b50600162000077828262000146565b5050600a80546001600160a01b031916731ae0ea34a72d944a8c7603ffb3ec30a6669e454c179055506200020e565b634e487b7160e01b5f52604160045260245ffd5b600181811c90821680620000cf57607f821691505b602082108103620000ee57634e487b7160e01b5f52602260045260245ffd5b50919050565b601f82111562000141575f81815260208120601f850160051c810160208610156200011c5750805b601f850160051c820191505b818110156200013d5782815560010162000128565b5050505b505050565b81516001600160401b03811115620001625762000162620000a6565b6200017a81620001738454620000ba565b84620000f4565b602080601f831160018114620001b0575f8415620001985750858301515b5f19600386901b1c1916600185901b1785556200013d565b5f85815260208120601f198616915b82811015620001e057888601518255948401946001909101908401620001bf565b5085821015620001fe57878501515f19600388901b60f8161c191681555b5050505050600190811b01905550565b613906806200021c5f395ff3fe608060405234801561000f575f80fd5b5060043610610195575f3560e01c80638c434709116100e0578063a22cb4651161008f578063a22cb46514610436578063a498e80214610449578063b88d4fde146104ae578063bfd44472146104c1578063c87b56dd146104c9578063e83dc185146104dc578063e985e9c5146104e4578063ed9f8d1c146104f7575f80fd5b80638c4347091461030357806390106c5e1461030b57806393b16b451461031e57806395d89b4114610331578063987e953314610339578063a1905e4e1461034c578063a22690a81461035f575f80fd5b80632b80fa28116101475780632b80fa28146102365780632f745c591461028957806342842e0e1461029c5780634f6ccce7146102af5780635d00927e146102c25780636352211e146102d55780636d955eb5146102e857806370a08231146102f0575f80fd5b806301ffc9a71461019957806306fdde03146101c1578063081812fc146101d6578063095ea7b3146101f657806318160ddd1461020b57806323b872dd1461021d57806329cb924d14610230575b5f80fd5b6101ac6101a736600461324c565b6104ff565b60405190151581526020015b60405180910390f35b6101c9610529565b6040516101b891906132b4565b6101e96101e43660046132c6565b6105b8565b6040516101b891906132dd565b61020961020436600461330c565b6105df565b005b6008545b6040519081526020016101b8565b61020961022b366004613334565b6105ee565b4261020f565b61026c61024436600461336d565b600d6020525f90815260409020600181015460039091015460ff808316926101009004169083565b6040805193151584529115156020840152908201526060016101b8565b61020f61029736600461330c565b610653565b6102096102aa366004613334565b6106a8565b61020f6102bd3660046132c6565b6106c7565b600a546101e9906001600160a01b031681565b6101e96102e33660046132c6565b610717565b610209610721565b61020f6102fe36600461336d565b6109e0565b610209610a25565b610209610319366004613386565b610d66565b61020961032c3660046132c6565b610f7b565b6101c9610fc3565b61020961034736600461330c565b610fd2565b61020961035a36600461336d565b611788565b61042161036d36600461336d565b600c60209081525f91825260409182902082516060808201855282546001600160a01b03808216845260ff600160a01b8084048216151586890152600160a81b9384900482161515868a0152885194850189526001870154928316855282048116151596840196909652048416151594810194909452600282015460038301546004840154600590940154929594919381831693610100830484169362010000840481169363010000009004811692911689565b6040516101b89998979695949392919061341b565b610209610444366004613477565b611b43565b61048761045736600461336d565b600b6020525f90815260409020546001600160a01b0381169060ff600160a01b8204811691600160a81b90041683565b604080516001600160a01b03909416845291151560208401521515908201526060016101b8565b6102096104bc3660046134c4565b611b4e565b610209611b6b565b6101c96104d73660046132c6565b611c0c565b610209611c7d565b6101ac6104f2366004613599565b611e91565b610209611ebe565b5f6001600160e01b0319821663780e9d6360e01b1480610523575061052382612300565b92915050565b60605f8054610537906135ca565b80601f0160208091040260200160405190810160405280929190818152602001828054610563906135ca565b80156105ae5780601f10610585576101008083540402835291602001916105ae565b820191905f5260205f20905b81548152906001019060200180831161059157829003601f168201915b5050505050905090565b5f6105c28261234f565b505f828152600460205260409020546001600160a01b0316610523565b6105ea828233612387565b5050565b60405162461bcd60e51b815260206004820152602f60248201527f57656464696e67206365727469666963617465207472616e736665722061726560448201526e081b9bdd08185d5d1a1bdc9a5e9959608a1b60648201526084015b60405180910390fd5b5f61065d836109e0565b821061068057828260405163295f44f760e21b815260040161064a929190613602565b506001600160a01b03919091165f908152600660209081526040808320938352929052205490565b6106c283838360405180602001604052805f815250611b4e565b505050565b5f6106d160085490565b82106106f4575f8260405163295f44f760e21b815260040161064a929190613602565b600882815481106107075761070761361b565b905f5260205f2001549050919050565b5f6105238261234f565b33600c5f61072e83612394565b6001600160a01b0316815260208101919091526040015f206003015460ff161561076a5760405162461bcd60e51b815260040161064a9061362f565b335f600c5f61077884612394565b6001600160a01b03908116825260208083019390935260409182015f90812083516101808101855281548085166101208301908152600160a01b80830460ff9081161515610140860152600160a81b9384900481161515610160860152918452875160608082018a526001870154808a16835292830484161515828c01529390910482161515818901528389015260028401548388015260038401548082161515928401929092526101008083048216151560808501526201000083048216151560a08501526301000000909204811660c0840152600484015460e084015260059093015490921615159181019190915280515183168252600b9094529190912054919250163314806108ab5750602081810151516001600160a01b039081165f908152600b9092526040909120541633145b6108c75760405162461bcd60e51b815260040161064a90613671565b335f818152600c6020908152604080832080546001600160a01b03908116855282852080546001600160b01b03199081168255600182810180548316905560028084018990556003808501805463ffffffff1990811690915560048087018c90556005968701805460ff19908116909155858a0180548a168e528b8e2080548916815596870180549098169097559385018c905591840180549091169055820189905592018054909216909155825482168652600b909452828520805460ff60a01b1990811690915593541684529281902080549092169091555190917f1271c287650062f685bd2f225144d7b6b046826a5a70632c8f873240d04a54c6916109d291904290613602565b60405180910390a150505050565b5f6001600160a01b038216610a0a575f6040516322718ad960e21b815260040161064a91906132dd565b506001600160a01b03165f9081526003602052604090205490565b335f600c5f610a3384612394565b6001600160a01b03908116825260208083019390935260409182015f90812083516101808101855281548085166101208301908152600160a01b80830460ff9081161515610140860152600160a81b9384900481161515610160860152918452875160608082018a526001870154808a16835292830484161515828c01529390910482161515818901528389015260028401548388015260038401548082161515928401929092526101008083048216151560808501526201000083048216151560a08501526301000000909204811660c0840152600484015460e084015260059093015490921615159181019190915280515183168252600b909452919091205491925016331480610b665750602081810151516001600160a01b039081165f908152600b9092526040909120541633145b610b825760405162461bcd60e51b815260040161064a90613671565b33600c5f610b8f83612394565b6001600160a01b0316815260208101919091526040015f206003015460ff1615610bcb5760405162461bcd60e51b815260040161064a9061362f565b335f818152600b6020526040902054600160a81b900460ff1615610c015760405162461bcd60e51b815260040161064a906136ba565b335f610c0c82612394565b6001600160a01b0381165f908152600d6020526040902060018101549192509060ff168015610c4457506001810154610100900460ff165b610cab5760405162461bcd60e51b815260206004820152603260248201527f4775657374206c697374206d75737420626520636f6e6669726d656420627920604482015271189bdd1a081cdc1bdd5cd95cc8199a5c9cdd60721b606482015260840161064a565b5f600c5f610cb833612394565b6001600160a01b03908116825260208201929092526040015f208054909250163303610cf45760038101805461ff001916610100179055610d1c565b60018101546001600160a01b03163303610d1c5760038101805462ff00001916620100001790555b610d2533612486565b7f046d8abd270fce195a0de9f22fc55ed1b5c6b4a38b0723362f84126d24e6817133604051610d5491906132dd565b60405180910390a15050505050505050565b335f600c5f610d7484612394565b6001600160a01b03908116825260208083019390935260409182015f90812083516101808101855281548085166101208301908152600160a01b80830460ff9081161515610140860152600160a81b9384900481161515610160860152918452875160608082018a526001870154808a16835292830484161515828c01529390910482161515818901528389015260028401548388015260038401548082161515928401929092526101008083048216151560808501526201000083048216151560a08501526301000000909204811660c0840152600484015460e084015260059093015490921615159181019190915280515183168252600b909452919091205491925016331480610ea75750602081810151516001600160a01b039081165f908152600b9092526040909120541633145b610ec35760405162461bcd60e51b815260040161064a90613671565b335f818152600b6020526040902054600160a81b900460ff1615610ef95760405162461bcd60e51b815260040161064a906136ba565b5f610f0333612394565b6001600160a01b0381165f908152600d60205260409020909150610f288188886131c2565b5060018101805461ffff191690556040517f402f0cdbbd3e7bdbd2c1fc4d920fa1ee7a733238220198df262284a1259d0be690610f6a9033908a908a906136e3565b60405180910390a150505050505050565b335f908152600c60205260409020600301546001630100000090910460ff1611610fb75760405162461bcd60e51b815260040161064a9061373c565b610fc081612622565b50565b606060018054610537906135ca565b816001600160a01b03811633036110265760405162461bcd60e51b815260206004820152601860248201527721b0b73737ba1032b733b0b3b2903a379037b732b9b2b63360411b604482015260640161064a565b335f908152600b60205260409020548390600160a01b900460ff1615801561106d57506001600160a01b0381165f908152600b6020526040902054600160a01b900460ff16155b6110d15760405162461bcd60e51b815260206004820152602f60248201527f4f6e65206f7220626f7468206f66207468652073706f7573657320617265206160448201526e363932b0b23c9032b733b0b3b2b21760891b606482015260840161064a565b6040518060600160405280336001600160a01b031681526020016001151581526020015f1515815250600b5f336001600160a01b03166001600160a01b031681526020019081526020015f205f820151815f015f6101000a8154816001600160a01b0302191690836001600160a01b031602179055506020820151815f0160146101000a81548160ff0219169083151502179055506040820151815f0160156101000a81548160ff0219169083151502179055509050506040518060600160405280856001600160a01b031681526020016001151581526020015f1515815250600b5f866001600160a01b03166001600160a01b031681526020019081526020015f205f820151815f015f6101000a8154816001600160a01b0302191690836001600160a01b031602179055506020820151815f0160146101000a81548160ff0219169083151502179055506040820151815f0160156101000a81548160ff0219169083151502179055509050505f604051806101200160405280600b5f336001600160a01b03166001600160a01b031681526020019081526020015f206040518060600160405290815f82015f9054906101000a90046001600160a01b03166001600160a01b03166001600160a01b031681526020015f820160149054906101000a900460ff161515151581526020015f820160159054906101000a900460ff1615151515815250508152602001600b5f886001600160a01b03166001600160a01b031681526020019081526020015f206040518060600160405290815f82015f9054906101000a90046001600160a01b03166001600160a01b03166001600160a01b031681526020015f820160149054906101000a900460ff161515151581526020015f820160159054906101000a900460ff16151515158152505081526020018581526020015f151581526020015f151581526020015f151581526020015f60ff1681526020015f81526020015f1515815250905080600c5f336001600160a01b03166001600160a01b031681526020019081526020015f205f820151815f015f820151815f015f6101000a8154816001600160a01b0302191690836001600160a01b031602179055506020820151815f0160146101000a81548160ff0219169083151502179055506040820151815f0160156101000a81548160ff02191690831515021790555050506020820151816001015f820151815f015f6101000a8154816001600160a01b0302191690836001600160a01b031602179055506020820151815f0160146101000a81548160ff0219169083151502179055506040820151815f0160156101000a81548160ff0219169083151502179055505050604082015181600201556060820151816003015f6101000a81548160ff02191690831515021790555060808201518160030160016101000a81548160ff02191690831515021790555060a08201518160030160026101000a81548160ff02191690831515021790555060c08201518160030160036101000a81548160ff021916908360ff16021790555060e08201518160040155610100820151816005015f6101000a81548160ff02191690831515021790555090505080600c5f876001600160a01b03166001600160a01b031681526020019081526020015f205f820151815f015f820151815f015f6101000a8154816001600160a01b0302191690836001600160a01b031602179055506020820151815f0160146101000a81548160ff0219169083151502179055506040820151815f0160156101000a81548160ff02191690831515021790555050506020820151816001015f820151815f015f6101000a8154816001600160a01b0302191690836001600160a01b031602179055506020820151815f0160146101000a81548160ff0219169083151502179055506040820151815f0160156101000a81548160ff0219169083151502179055505050604082015181600201556060820151816003015f6101000a81548160ff02191690831515021790555060808201518160030160016101000a81548160ff02191690831515021790555060a08201518160030160026101000a81548160ff02191690831515021790555060c08201518160030160036101000a81548160ff021916908360ff16021790555060e08201518160040155610100820151816005015f6101000a81548160ff0219169083151502179055509050507f7a7f38be04afb87e39b4cb52bec76c69c4d999f605bd21054b71a3f2dc085821338686604051611779939291906001600160a01b039384168152919092166020820152604081019190915260600190565b60405180910390a15050505050565b80600c5f61179583612394565b6001600160a01b0316815260208101919091526040015f206003015460ff16156117d15760405162461bcd60e51b815260040161064a9061362f565b6001600160a01b0382165f908152600b60205260409020548290600160a81b900460ff16156118125760405162461bcd60e51b815260040161064a906136ba565b6001600160a01b0383165f908152600b60205260409020548390600160a01b900460ff16151560011461187e5760405162461bcd60e51b815260206004820152601460248201527320b2323932b9b9903737ba1032b733b0b3b2b21760611b604482015260640161064a565b83611889813361265a565b6118cd5760405162461bcd60e51b8152602060048201526015602482015274139bdd08184818dbdb999a5c9b59590819dd595cdd605a1b604482015260640161064a565b6001600160a01b0385165f908152600d60209081526040808320338452600201909152902054859060ff16156119355760405162461bcd60e51b815260206004820152600d60248201526c105b1c9958591e481d9bdd1959609a1b604482015260640161064a565b855f600c5f61194384612394565b6001600160a01b03908116825260208083019390935260409182015f208251610180810184528154808416610120830190815260ff600160a01b80840482161515610140860152600160a81b93849004821615156101608601529184528651606081810189526001870154978816825292870482161515818a01529290950485161515828701529582015260028201549381019390935260038101548083161515948401949094526101008085048316151560808501526201000085048316151560a08501526301000000909404821660c0840152600481015460e08401526005015416158015928201839052909250611a4c575060e0810151611a4890603c613778565b4211155b611a985760405162461bcd60e51b815260206004820152601b60248201527f566f74696e6720706572696f64206973206e6f74206163746976650000000000604482015260640161064a565b5f611aa289612394565b6001600160a01b0381165f908152600d60209081526040808320338452600281019092528220805460ff19166001179055600381018054939450909291611ae88361378b565b9091555050604080513381526001600160a01b038c1660208201527fa9862c5f43caca0b960b097a111ce8c3752d27df0e0f1f170b4a06a823e612b1910160405180910390a1611b378a612714565b50505050505050505050565b6105ea33838361285f565b611b598484846105ee565b611b65848484846128f4565b50505050565b335f818152600c60205260409020805490916001600160a01b039091161480611b9e5750600a546001600160a01b031633145b80611bb5575060018101546001600160a01b031633145b611bd15760405162461bcd60e51b815260040161064a9061373c565b6003818101805460019290611bf19084906301000000900460ff166137a3565b92506101000a81548160ff021916908360ff16021790555050565b6060611c178261234f565b505f611c2d60408051602081019091525f815290565b90505f815111611c4b5760405180602001604052805f815250611c76565b80611c5584612a08565b604051602001611c669291906137bc565b6040516020818303038152906040525b9392505050565b335f600c5f611c8b84612394565b6001600160a01b03908116825260208083019390935260409182015f90812083516101808101855281548085166101208301908152600160a01b80830460ff9081161515610140860152600160a81b9384900481161515610160860152918452875160608082018a526001870154808a16835292830484161515828c01529390910482161515818901528389015260028401548388015260038401548082161515928401929092526101008083048216151560808501526201000083048216151560a08501526301000000909204811660c0840152600484015460e084015260059093015490921615159181019190915280515183168252600b909452919091205491925016331480611dbe5750602081810151516001600160a01b039081165f908152600b9092526040909120541633145b611dda5760405162461bcd60e51b815260040161064a90613671565b5f611de433612394565b6001600160a01b038082165f908152600d6020908152604080832033808552600c90935292205493945090929091169003611e2e576001818101805460ff19169091179055611e40565b60018101805461ff0019166101001790555b600181015460ff168015611e5d57506001810154610100900460ff165b15611b65577fffacc21903a9db21c6031d4c12c9825f13ac6469f9b894f7058a45cf1f9a3e8d336040516109d291906132dd565b6001600160a01b039182165f90815260056020908152604080832093909416825291909152205460ff1690565b335f600c5f611ecc84612394565b6001600160a01b03908116825260208083019390935260409182015f90812083516101808101855281548085166101208301908152600160a01b80830460ff9081161515610140860152600160a81b9384900481161515610160860152918452875160608082018a526001870154808a16835292830484161515828c01529390910482161515818901528389015260028401548388015260038401548082161515928401929092526101008083048216151560808501526201000083048216151560a08501526301000000909204811660c0840152600484015460e084015260059093015490921615159181019190915280515183168252600b909452919091205491925016331480611fff5750602081810151516001600160a01b039081165f908152600b9092526040909120541633145b61201b5760405162461bcd60e51b815260040161064a90613671565b335f818152600b6020526040902054600160a81b900460ff16156120515760405162461bcd60e51b815260040161064a906136ba565b335f600c5f61205f84612394565b6001600160a01b03908116825260208083019390935260409182015f208251610180810184528154808416610120830190815260ff600160a01b80840482161515610140860152600160a81b93849004821615156101608601529184528651606081810189526001870154978816825292870482161515818a0152929095048516151582870152958201526002820154938101939093526003810154808316158015958501959095526101008082048416151560808601526201000082048416151560a08601526301000000909104831660c0850152600482015460e0850152600590910154909116151590820152915061219c5760405162461bcd60e51b815260206004820152601e60248201527f4d61727269616765207265766f6b65642064756520746f20766f74696e670000604482015260640161064a565b610100810151156122015760405162461bcd60e51b815260206004820152602960248201527f4775657374732063616e207374696c6c20766f746520616761696e7374207468604482015268652077656464696e6760b81b606482015260840161064a565b5f600c5f61220e33612394565b6001600160a01b03908116825260208201929092526040015f208054909250163303612274576003810154610100900460ff161561225e5760405162461bcd60e51b815260040161064a906137ea565b60038101805461ff0019166101001790556122c7565b60018101546001600160a01b031633036122c757600381015462010000900460ff16156122b35760405162461bcd60e51b815260040161064a906137ea565b60038101805462ff00001916620100001790555b6003810154610100900460ff1680156122ea5750600381015462010000900460ff165b156122f8576122f881612a98565b505050505050565b5f6001600160e01b031982166380ac58cd60e01b148061233057506001600160e01b03198216635b5e139f60e01b145b8061052357506301ffc9a760e01b6001600160e01b0319831614610523565b5f818152600260205260408120546001600160a01b03168061052357604051637e27328960e01b81526004810184905260240161064a565b6106c28383836001612b62565b6001600160a01b039081165f908152600c602090815260409182902082516101808101845281548086166101208301908152600160a01b80830460ff9081161515610140860152600160a81b93849004811615156101608601529184528651606080820189526001870154998a16825291890483161515818801529290970481161515828701529382015260028201549381019390935260038101548083161515948401949094526101008085048316151560808501526201000085048316151560a08501526301000000909404821660c0840152600481015460e08401526005015416151591810191909152515190565b805f600c5f61249484612394565b6001600160a01b03908116825260208083019390935260409182015f90812083516101808101855281548085166101208301908152600160a01b80830460ff9081161515610140860152600160a81b9384900481161515610160860152918452875160608082018a526001870154808a16835292830484161515828c01529390910482161515818901528389015260028401548388015260038401548082161515928401929092526101008083048216151560808501526201000083048216151560a08501526301000000909204811660c0840152600484015460e084015260059093015490921615159181019190915280515183168252600b9094529190912054919250163314806125c75750602081810151516001600160a01b039081165f908152600b9092526040909120541633145b6125e35760405162461bcd60e51b815260040161064a90613671565b5f600c5f6125f086612394565b6001600160a01b0316815260208101919091526040015f20426004820155600501805460ff1916600117905550505050565b5f61262e5f835f612c5d565b90506001600160a01b0381166105ea57604051637e27328960e01b81526004810183905260240161064a565b5f8061266584612394565b6001600160a01b0381165f908152600d6020526040902060018101549192509060ff16801561269d57506001810154610100900460ff165b1561270a575f5b815460ff8216101561270857846001600160a01b0316825f018260ff16815481106126d1576126d161361b565b5f918252602090912001546001600160a01b0316036126f65760019350505050610523565b8061270081613815565b9150506126a4565b505b505f949350505050565b5f61271e82612394565b6001600160a01b0381165f908152600d60205260408120919250600c8161274486612394565b6001600160a01b0316815260208101919091526040015f9081208354909250906002612771836001613778565b61277b9190613833565b9050808460030154106122f85760038301805460ff1916600190811790915583546001600160a01b039081165f908152600b6020526040808220805460ff60a01b199081169091559387015483168252908190208054909316909255845491517fca5145a860413368885bd057fa646c0895a34d43c6f7c897fc1954cf51c33045926128089216906132dd565b60405180910390a160018301546040517fca5145a860413368885bd057fa646c0895a34d43c6f7c897fc1954cf51c330459161284f916001600160a01b03909116906132dd565b60405180910390a1505050505050565b6001600160a01b0382166128885781604051630b61174360e31b815260040161064a91906132dd565b6001600160a01b038381165f81815260056020908152604080832094871680845294825291829020805460ff191686151590811790915591519182527f17307eab39ab6107e8899845ad3d59bd9653f200f220920489ca2b5937696c31910160405180910390a3505050565b6001600160a01b0383163b15611b6557604051630a85bd0160e11b81526001600160a01b0384169063150b7a0290612936903390889087908790600401613852565b6020604051808303815f875af1925050508015612970575060408051601f3d908101601f1916820190925261296d9181019061388e565b60015b6129ce573d80801561299d576040519150601f19603f3d011682016040523d82523d5f602084013e6129a2565b606091505b5080515f036129c65783604051633250574960e11b815260040161064a91906132dd565b805181602001fd5b6001600160e01b03198116630a85bd0160e11b14612a015783604051633250574960e11b815260040161064a91906132dd565b5050505050565b60605f612a1483612d30565b60010190505f8167ffffffffffffffff811115612a3357612a336134b0565b6040519080825280601f01601f191660200182016040528015612a5d576020820181803683370190505b5090508181016020015b5f19016f181899199a1a9b1b9c1cb0b131b232b360811b600a86061a8153600a8504945084612a6757509392505050565b80546001600160a01b039081165f908152600b602090815260408083208054600160a81b60ff60a81b1991821681179092556001870180548716865294839020805490911690911790558454925481519385168452909316908201527f5c8ec7a25a142b043ee1d70b00b983786a266ced5b4e6b540ddc769276626819910160405180910390a18054612b47906001600160a01b0316612b3760085490565b612b42906001613778565b612e07565b6001810154610fc0906001600160a01b0316612b3760085490565b8080612b7657506001600160a01b03821615155b15612c2e575f612b858461234f565b90506001600160a01b03831615801590612bb15750826001600160a01b0316816001600160a01b031614155b8015612bc45750612bc28184611e91565b155b15612be4578260405163a9fbf51f60e01b815260040161064a91906132dd565b8115612c2c5783856001600160a01b0316826001600160a01b03167f8c5be1e5ebec7d5bd14f71427d1e84f3dd0314c0f7b2291e5b200ac8c7c3b92560405160405180910390a45b505b50505f90815260046020526040902080546001600160a01b0319166001600160a01b0392909216919091179055565b5f80612c6a858585612e20565b90506001600160a01b038116612cc657612cc184600880545f838152600960205260408120829055600182018355919091527ff3f7a9fe364faab93b216da50a3214154f22a0a2b415b23a84c8169e8b636ee30155565b612ce9565b846001600160a01b0316816001600160a01b031614612ce957612ce98185612f12565b6001600160a01b038516612d0557612d0084612f9f565b612d28565b846001600160a01b0316816001600160a01b031614612d2857612d288585613046565b949350505050565b5f8072184f03e93ff9f4daa797ed6e38ed64bf6a1f0160401b8310612d6e5772184f03e93ff9f4daa797ed6e38ed64bf6a1f0160401b830492506040015b6d04ee2d6d415b85acef81000000008310612d9a576d04ee2d6d415b85acef8100000000830492506020015b662386f26fc100008310612db857662386f26fc10000830492506010015b6305f5e1008310612dd0576305f5e100830492506008015b6127108310612de457612710830492506004015b60648310612df6576064830492506002015b600a83106105235760010192915050565b6105ea828260405180602001604052805f815250613094565b5f828152600260205260408120546001600160a01b0390811690831615612e4c57612e4c8184866130aa565b6001600160a01b03811615612e8657612e675f855f80612b62565b6001600160a01b0381165f90815260036020526040902080545f190190555b6001600160a01b03851615612eb4576001600160a01b0385165f908152600360205260409020805460010190555b5f8481526002602052604080822080546001600160a01b0319166001600160a01b0389811691821790925591518793918516917fddf252ad1be2c89b69c2b068fc378daa952ba7f163c4a11628f55a4df523b3ef91a4949350505050565b5f612f1c836109e0565b5f83815260076020526040902054909150808214612f6d576001600160a01b0384165f9081526006602090815260408083208584528252808320548484528184208190558352600790915290208190555b505f9182526007602090815260408084208490556001600160a01b039094168352600681528383209183525290812055565b6008545f90612fb0906001906138a9565b5f8381526009602052604081205460088054939450909284908110612fd757612fd761361b565b905f5260205f20015490508060088381548110612ff657612ff661361b565b5f91825260208083209091019290925582815260099091526040808220849055858252812055600880548061302d5761302d6138bc565b600190038181905f5260205f20015f9055905550505050565b5f6001613052846109e0565b61305c91906138a9565b6001600160a01b039093165f908152600660209081526040808320868452825280832085905593825260079052919091209190915550565b61309e8383613100565b6106c25f8484846128f4565b6130b5838383613161565b6106c2576001600160a01b0383166130e357604051637e27328960e01b81526004810182905260240161064a565b818160405163177e802f60e01b815260040161064a929190613602565b6001600160a01b038216613129575f604051633250574960e11b815260040161064a91906132dd565b5f61313583835f612c5d565b90506001600160a01b038116156106c2575f6040516339e3563760e11b815260040161064a91906132dd565b5f6001600160a01b03831615801590612d285750826001600160a01b0316846001600160a01b0316148061319a575061319a8484611e91565b80612d285750505f908152600460205260409020546001600160a01b03908116911614919050565b828054828255905f5260205f20908101928215613213579160200282015b828111156132135781546001600160a01b0319166001600160a01b038435161782556020909201916001909101906131e0565b5061321f929150613223565b5090565b5b8082111561321f575f8155600101613224565b6001600160e01b031981168114610fc0575f80fd5b5f6020828403121561325c575f80fd5b8135611c7681613237565b5f5b83811015613281578181015183820152602001613269565b50505f910152565b5f81518084526132a0816020860160208601613267565b601f01601f19169290920160200192915050565b602081525f611c766020830184613289565b5f602082840312156132d6575f80fd5b5035919050565b6001600160a01b0391909116815260200190565b80356001600160a01b0381168114613307575f80fd5b919050565b5f806040838503121561331d575f80fd5b613326836132f1565b946020939093013593505050565b5f805f60608486031215613346575f80fd5b61334f846132f1565b925061335d602085016132f1565b9150604084013590509250925092565b5f6020828403121561337d575f80fd5b611c76826132f1565b5f8060208385031215613397575f80fd5b823567ffffffffffffffff808211156133ae575f80fd5b818501915085601f8301126133c1575f80fd5b8135818111156133cf575f80fd5b8660208260051b85010111156133e3575f80fd5b60209290920196919550909350505050565b80516001600160a01b031682526020808201511515908301526040908101511515910152565b6101a0810161342a828c6133f5565b613437606083018b6133f5565b60c082019890985295151560e087015293151561010086015291151561012085015260ff1661014084015261016083015215156101809091015292915050565b5f8060408385031215613488575f80fd5b613491836132f1565b9150602083013580151581146134a5575f80fd5b809150509250929050565b634e487b7160e01b5f52604160045260245ffd5b5f805f80608085870312156134d7575f80fd5b6134e0856132f1565b93506134ee602086016132f1565b925060408501359150606085013567ffffffffffffffff80821115613511575f80fd5b818701915087601f830112613524575f80fd5b813581811115613536576135366134b0565b604051601f8201601f19908116603f0116810190838211818310171561355e5761355e6134b0565b816040528281528a6020848701011115613576575f80fd5b826020860160208301375f60208483010152809550505050505092959194509250565b5f80604083850312156135aa575f80fd5b6135b3836132f1565b91506135c1602084016132f1565b90509250929050565b600181811c908216806135de57607f821691505b6020821081036135fc57634e487b7160e01b5f52602260045260245ffd5b50919050565b6001600160a01b03929092168252602082015260400190565b634e487b7160e01b5f52603260045260245ffd5b60208082526022908201527f54686520656e676167656d656e7420697320616c7265616479207265766f6b65604082015261321760f11b606082015260800190565b60208082526029908201527f43616c6c6572206d757374206265206f6e65206f662074686520656e6761676560408201526864207061727469657360b81b606082015260800190565b6020808252600f908201526e105b1c9958591e481b585c9c9a5959608a1b604082015260600190565b6001600160a01b038481168252604060208084018290529083018490525f91859160608501845b8781101561372f578361371c866132f1565b168252938201939082019060010161370a565b5098975050505050505050565b6020808252600e908201526d139bdd08185d5d1a1bdc9a5e995960921b604082015260600190565b634e487b7160e01b5f52601160045260245ffd5b8082018082111561052357610523613764565b5f6001820161379c5761379c613764565b5060010190565b60ff818116838216019081111561052357610523613764565b5f83516137cd818460208801613267565b8351908301906137e1818360208801613267565b01949350505050565b602080825260119082015270105b1c9958591e4818dbdb999a5c9b5959607a1b604082015260600190565b5f60ff821660ff810361382a5761382a613764565b60010192915050565b5f8261384d57634e487b7160e01b5f52601260045260245ffd5b500490565b6001600160a01b03858116825284166020820152604081018390526080606082018190525f9061388490830184613289565b9695505050505050565b5f6020828403121561389e575f80fd5b8151611c7681613237565b8181038181111561052357610523613764565b634e487b7160e01b5f52603160045260245ffdfea264697066735822122068909237ce31975b8b7755508681d37db42d4aa05691c08c62e7da2de789d5de64736f6c63430008150033",
			"opcodes": "PUSH1 0x80 PUSH1 0x40 MSTORE CALLVALUE DUP1 ISZERO PUSH3 0x10 JUMPI PUSH0 DUP1 REVERT JUMPDEST POP PUSH1 0x40 MLOAD DUP1 PUSH1 0x40 ADD PUSH1 0x40 MSTORE DUP1 PUSH1 0x12 DUP2 MSTORE PUSH1 0x20 ADD PUSH18 0x456E676167656D656E745265676973747279 PUSH1 0x70 SHL DUP2 MSTORE POP PUSH1 0x40 MLOAD DUP1 PUSH1 0x40 ADD PUSH1 0x40 MSTORE DUP1 PUSH1 0x3 DUP2 MSTORE PUSH1 0x20 ADD PUSH3 0x22A729 PUSH1 0xE9 SHL DUP2 MSTORE POP DUP2 PUSH0 SWAP1 DUP2 PUSH3 0x68 SWAP2 SWAP1 PUSH3 0x146 JUMP JUMPDEST POP PUSH1 0x1 PUSH3 0x77 DUP3 DUP3 PUSH3 0x146 JUMP JUMPDEST POP POP PUSH1 0xA DUP1 SLOAD PUSH1 0x1 PUSH1 0x1 PUSH1 0xA0 SHL SUB NOT AND PUSH20 0x1AE0EA34A72D944A8C7603FFB3EC30A6669E454C OR SWAP1 SSTORE POP PUSH3 0x20E JUMP JUMPDEST PUSH4 0x4E487B71 PUSH1 0xE0 SHL PUSH0 MSTORE PUSH1 0x41 PUSH1 0x4 MSTORE PUSH1 0x24 PUSH0 REVERT JUMPDEST PUSH1 0x1 DUP2 DUP2 SHR SWAP1 DUP3 AND DUP1 PUSH3 0xCF JUMPI PUSH1 0x7F DUP3 AND SWAP2 POP JUMPDEST PUSH1 0x20 DUP3 LT DUP2 SUB PUSH3 0xEE JUMPI PUSH4 0x4E487B71 PUSH1 0xE0 SHL PUSH0 MSTORE PUSH1 0x22 PUSH1 0x4 MSTORE PUSH1 0x24 PUSH0 REVERT JUMPDEST POP SWAP2 SWAP1 POP JUMP JUMPDEST PUSH1 0x1F DUP3 GT ISZERO PUSH3 0x141 JUMPI PUSH0 DUP2 DUP2 MSTORE PUSH1 0x20 DUP2 KECCAK256 PUSH1 0x1F DUP6 ADD PUSH1 0x5 SHR DUP2 ADD PUSH1 0x20 DUP7 LT ISZERO PUSH3 0x11C JUMPI POP DUP1 JUMPDEST PUSH1 0x1F DUP6 ADD PUSH1 0x5 SHR DUP3 ADD SWAP2 POP JUMPDEST DUP2 DUP2 LT ISZERO PUSH3 0x13D JUMPI DUP3 DUP2 SSTORE PUSH1 0x1 ADD PUSH3 0x128 JUMP JUMPDEST POP POP POP JUMPDEST POP POP POP JUMP JUMPDEST DUP2 MLOAD PUSH1 0x1 PUSH1 0x1 PUSH1 0x40 SHL SUB DUP2 GT ISZERO PUSH3 0x162 JUMPI PUSH3 0x162 PUSH3 0xA6 JUMP JUMPDEST PUSH3 0x17A DUP2 PUSH3 0x173 DUP5 SLOAD PUSH3 0xBA JUMP JUMPDEST DUP5 PUSH3 0xF4 JUMP JUMPDEST PUSH1 0x20 DUP1 PUSH1 0x1F DUP4 GT PUSH1 0x1 DUP2 EQ PUSH3 0x1B0 JUMPI PUSH0 DUP5 ISZERO PUSH3 0x198 JUMPI POP DUP6 DUP4 ADD MLOAD JUMPDEST PUSH0 NOT PUSH1 0x3 DUP7 SWAP1 SHL SHR NOT AND PUSH1 0x1 DUP6 SWAP1 SHL OR DUP6 SSTORE PUSH3 0x13D JUMP JUMPDEST PUSH0 DUP6 DUP2 MSTORE PUSH1 0x20 DUP2 KECCAK256 PUSH1 0x1F NOT DUP7 AND SWAP2 JUMPDEST DUP3 DUP2 LT ISZERO PUSH3 0x1E0 JUMPI DUP9 DUP7 ADD MLOAD DUP3 SSTORE SWAP5 DUP5 ADD SWAP5 PUSH1 0x1 SWAP1 SWAP2 ADD SWAP1 DUP5 ADD PUSH3 0x1BF JUMP JUMPDEST POP DUP6 DUP3 LT ISZERO PUSH3 0x1FE JUMPI DUP8 DUP6 ADD MLOAD PUSH0 NOT PUSH1 0x3 DUP9 SWAP1 SHL PUSH1 0xF8 AND SHR NOT AND DUP2 SSTORE JUMPDEST POP POP POP POP POP PUSH1 0x1 SWAP1 DUP2 SHL ADD SWAP1 SSTORE POP JUMP JUMPDEST PUSH2 0x3906 DUP1 PUSH3 0x21C PUSH0 CODECOPY PUSH0 RETURN INVALID PUSH1 0x80 PUSH1 0x40 MSTORE CALLVALUE DUP1 ISZERO PUSH2 0xF JUMPI PUSH0 DUP1 REVERT JUMPDEST POP PUSH1 0x4 CALLDATASIZE LT PUSH2 0x195 JUMPI PUSH0 CALLDATALOAD PUSH1 0xE0 SHR DUP1 PUSH4 0x8C434709 GT PUSH2 0xE0 JUMPI DUP1 PUSH4 0xA22CB465 GT PUSH2 0x8F JUMPI DUP1 PUSH4 0xA22CB465 EQ PUSH2 0x436 JUMPI DUP1 PUSH4 0xA498E802 EQ PUSH2 0x449 JUMPI DUP1 PUSH4 0xB88D4FDE EQ PUSH2 0x4AE JUMPI DUP1 PUSH4 0xBFD44472 EQ PUSH2 0x4C1 JUMPI DUP1 PUSH4 0xC87B56DD EQ PUSH2 0x4C9 JUMPI DUP1 PUSH4 0xE83DC185 EQ PUSH2 0x4DC JUMPI DUP1 PUSH4 0xE985E9C5 EQ PUSH2 0x4E4 JUMPI DUP1 PUSH4 0xED9F8D1C EQ PUSH2 0x4F7 JUMPI PUSH0 DUP1 REVERT JUMPDEST DUP1 PUSH4 0x8C434709 EQ PUSH2 0x303 JUMPI DUP1 PUSH4 0x90106C5E EQ PUSH2 0x30B JUMPI DUP1 PUSH4 0x93B16B45 EQ PUSH2 0x31E JUMPI DUP1 PUSH4 0x95D89B41 EQ PUSH2 0x331 JUMPI DUP1 PUSH4 0x987E9533 EQ PUSH2 0x339 JUMPI DUP1 PUSH4 0xA1905E4E EQ PUSH2 0x34C JUMPI DUP1 PUSH4 0xA22690A8 EQ PUSH2 0x35F JUMPI PUSH0 DUP1 REVERT JUMPDEST DUP1 PUSH4 0x2B80FA28 GT PUSH2 0x147 JUMPI DUP1 PUSH4 0x2B80FA28 EQ PUSH2 0x236 JUMPI DUP1 PUSH4 0x2F745C59 EQ PUSH2 0x289 JUMPI DUP1 PUSH4 0x42842E0E EQ PUSH2 0x29C JUMPI DUP1 PUSH4 0x4F6CCCE7 EQ PUSH2 0x2AF JUMPI DUP1 PUSH4 0x5D00927E EQ PUSH2 0x2C2 JUMPI DUP1 PUSH4 0x6352211E EQ PUSH2 0x2D5 JUMPI DUP1 PUSH4 0x6D955EB5 EQ PUSH2 0x2E8 JUMPI DUP1 PUSH4 0x70A08231 EQ PUSH2 0x2F0 JUMPI PUSH0 DUP1 REVERT JUMPDEST DUP1 PUSH4 0x1FFC9A7 EQ PUSH2 0x199 JUMPI DUP1 PUSH4 0x6FDDE03 EQ PUSH2 0x1C1 JUMPI DUP1 PUSH4 0x81812FC EQ PUSH2 0x1D6 JUMPI DUP1 PUSH4 0x95EA7B3 EQ PUSH2 0x1F6 JUMPI DUP1 PUSH4 0x18160DDD EQ PUSH2 0x20B JUMPI DUP1 PUSH4 0x23B872DD EQ PUSH2 0x21D JUMPI DUP1 PUSH4 0x29CB924D EQ PUSH2 0x230 JUMPI JUMPDEST PUSH0 DUP1 REVERT JUMPDEST PUSH2 0x1AC PUSH2 0x1A7 CALLDATASIZE PUSH1 0x4 PUSH2 0x324C JUMP JUMPDEST PUSH2 0x4FF JUMP JUMPDEST PUSH1 0x40 MLOAD SWAP1 ISZERO ISZERO DUP2 MSTORE PUSH1 0x20 ADD JUMPDEST PUSH1 0x40 MLOAD DUP1 SWAP2 SUB SWAP1 RETURN JUMPDEST PUSH2 0x1C9 PUSH2 0x529 JUMP JUMPDEST PUSH1 0x40 MLOAD PUSH2 0x1B8 SWAP2 SWAP1 PUSH2 0x32B4 JUMP JUMPDEST PUSH2 0x1E9 PUSH2 0x1E4 CALLDATASIZE PUSH1 0x4 PUSH2 0x32C6 JUMP JUMPDEST PUSH2 0x5B8 JUMP JUMPDEST PUSH1 0x40 MLOAD PUSH2 0x1B8 SWAP2 SWAP1 PUSH2 0x32DD JUMP JUMPDEST PUSH2 0x209 PUSH2 0x204 CALLDATASIZE PUSH1 0x4 PUSH2 0x330C JUMP JUMPDEST PUSH2 0x5DF JUMP JUMPDEST STOP JUMPDEST PUSH1 0x8 SLOAD JUMPDEST PUSH1 0x40 MLOAD SWAP1 DUP2 MSTORE PUSH1 0x20 ADD PUSH2 0x1B8 JUMP JUMPDEST PUSH2 0x209 PUSH2 0x22B CALLDATASIZE PUSH1 0x4 PUSH2 0x3334 JUMP JUMPDEST PUSH2 0x5EE JUMP JUMPDEST TIMESTAMP PUSH2 0x20F JUMP JUMPDEST PUSH2 0x26C PUSH2 0x244 CALLDATASIZE PUSH1 0x4 PUSH2 0x336D JUMP JUMPDEST PUSH1 0xD PUSH1 0x20 MSTORE PUSH0 SWAP1 DUP2 MSTORE PUSH1 0x40 SWAP1 KECCAK256 PUSH1 0x1 DUP2 ADD SLOAD PUSH1 0x3 SWAP1 SWAP2 ADD SLOAD PUSH1 0xFF DUP1 DUP4 AND SWAP3 PUSH2 0x100 SWAP1 DIV AND SWAP1 DUP4 JUMP JUMPDEST PUSH1 0x40 DUP1 MLOAD SWAP4 ISZERO ISZERO DUP5 MSTORE SWAP2 ISZERO ISZERO PUSH1 0x20 DUP5 ADD MSTORE SWAP1 DUP3 ADD MSTORE PUSH1 0x60 ADD PUSH2 0x1B8 JUMP JUMPDEST PUSH2 0x20F PUSH2 0x297 CALLDATASIZE PUSH1 0x4 PUSH2 0x330C JUMP JUMPDEST PUSH2 0x653 JUMP JUMPDEST PUSH2 0x209 PUSH2 0x2AA CALLDATASIZE PUSH1 0x4 PUSH2 0x3334 JUMP JUMPDEST PUSH2 0x6A8 JUMP JUMPDEST PUSH2 0x20F PUSH2 0x2BD CALLDATASIZE PUSH1 0x4 PUSH2 0x32C6 JUMP JUMPDEST PUSH2 0x6C7 JUMP JUMPDEST PUSH1 0xA SLOAD PUSH2 0x1E9 SWAP1 PUSH1 0x1 PUSH1 0x1 PUSH1 0xA0 SHL SUB AND DUP2 JUMP JUMPDEST PUSH2 0x1E9 PUSH2 0x2E3 CALLDATASIZE PUSH1 0x4 PUSH2 0x32C6 JUMP JUMPDEST PUSH2 0x717 JUMP JUMPDEST PUSH2 0x209 PUSH2 0x721 JUMP JUMPDEST PUSH2 0x20F PUSH2 0x2FE CALLDATASIZE PUSH1 0x4 PUSH2 0x336D JUMP JUMPDEST PUSH2 0x9E0 JUMP JUMPDEST PUSH2 0x209 PUSH2 0xA25 JUMP JUMPDEST PUSH2 0x209 PUSH2 0x319 CALLDATASIZE PUSH1 0x4 PUSH2 0x3386 JUMP JUMPDEST PUSH2 0xD66 JUMP JUMPDEST PUSH2 0x209 PUSH2 0x32C CALLDATASIZE PUSH1 0x4 PUSH2 0x32C6 JUMP JUMPDEST PUSH2 0xF7B JUMP JUMPDEST PUSH2 0x1C9 PUSH2 0xFC3 JUMP JUMPDEST PUSH2 0x209 PUSH2 0x347 CALLDATASIZE PUSH1 0x4 PUSH2 0x330C JUMP JUMPDEST PUSH2 0xFD2 JUMP JUMPDEST PUSH2 0x209 PUSH2 0x35A CALLDATASIZE PUSH1 0x4 PUSH2 0x336D JUMP JUMPDEST PUSH2 0x1788 JUMP JUMPDEST PUSH2 0x421 PUSH2 0x36D CALLDATASIZE PUSH1 0x4 PUSH2 0x336D JUMP JUMPDEST PUSH1 0xC PUSH1 0x20 SWAP1 DUP2 MSTORE PUSH0 SWAP2 DUP3 MSTORE PUSH1 0x40 SWAP2 DUP3 SWAP1 KECCAK256 DUP3 MLOAD PUSH1 0x60 DUP1 DUP3 ADD DUP6 MSTORE DUP3 SLOAD PUSH1 0x1 PUSH1 0x1 PUSH1 0xA0 SHL SUB DUP1 DUP3 AND DUP5 MSTORE PUSH1 0xFF PUSH1 0x1 PUSH1 0xA0 SHL DUP1 DUP5 DIV DUP3 AND ISZERO ISZERO DUP7 DUP10 ADD MSTORE PUSH1 0x1 PUSH1 0xA8 SHL SWAP4 DUP5 SWAP1 DIV DUP3 AND ISZERO ISZERO DUP7 DUP11 ADD MSTORE DUP9 MLOAD SWAP5 DUP6 ADD DUP10 MSTORE PUSH1 0x1 DUP8 ADD SLOAD SWAP3 DUP4 AND DUP6 MSTORE DUP3 DIV DUP2 AND ISZERO ISZERO SWAP7 DUP5 ADD SWAP7 SWAP1 SWAP7 MSTORE DIV DUP5 AND ISZERO ISZERO SWAP5 DUP2 ADD SWAP5 SWAP1 SWAP5 MSTORE PUSH1 0x2 DUP3 ADD SLOAD PUSH1 0x3 DUP4 ADD SLOAD PUSH1 0x4 DUP5 ADD SLOAD PUSH1 0x5 SWAP1 SWAP5 ADD SLOAD SWAP3 SWAP6 SWAP5 SWAP2 SWAP4 DUP2 DUP4 AND SWAP4 PUSH2 0x100 DUP4 DIV DUP5 AND SWAP4 PUSH3 0x10000 DUP5 DIV DUP2 AND SWAP4 PUSH4 0x1000000 SWAP1 DIV DUP2 AND SWAP3 SWAP2 AND DUP10 JUMP JUMPDEST PUSH1 0x40 MLOAD PUSH2 0x1B8 SWAP10 SWAP9 SWAP8 SWAP7 SWAP6 SWAP5 SWAP4 SWAP3 SWAP2 SWAP1 PUSH2 0x341B JUMP JUMPDEST PUSH2 0x209 PUSH2 0x444 CALLDATASIZE PUSH1 0x4 PUSH2 0x3477 JUMP JUMPDEST PUSH2 0x1B43 JUMP JUMPDEST PUSH2 0x487 PUSH2 0x457 CALLDATASIZE PUSH1 0x4 PUSH2 0x336D JUMP JUMPDEST PUSH1 0xB PUSH1 0x20 MSTORE PUSH0 SWAP1 DUP2 MSTORE PUSH1 0x40 SWAP1 KECCAK256 SLOAD PUSH1 0x1 PUSH1 0x1 PUSH1 0xA0 SHL SUB DUP2 AND SWAP1 PUSH1 0xFF PUSH1 0x1 PUSH1 0xA0 SHL DUP3 DIV DUP2 AND SWAP2 PUSH1 0x1 PUSH1 0xA8 SHL SWAP1 DIV AND DUP4 JUMP JUMPDEST PUSH1 0x40 DUP1 MLOAD PUSH1 0x1 PUSH1 0x1 PUSH1 0xA0 SHL SUB SWAP1 SWAP5 AND DUP5 MSTORE SWAP2 ISZERO ISZERO PUSH1 0x20 DUP5 ADD MSTORE ISZERO ISZERO SWAP1 DUP3 ADD MSTORE PUSH1 0x60 ADD PUSH2 0x1B8 JUMP JUMPDEST PUSH2 0x209 PUSH2 0x4BC CALLDATASIZE PUSH1 0x4 PUSH2 0x34C4 JUMP JUMPDEST PUSH2 0x1B4E JUMP JUMPDEST PUSH2 0x209 PUSH2 0x1B6B JUMP JUMPDEST PUSH2 0x1C9 PUSH2 0x4D7 CALLDATASIZE PUSH1 0x4 PUSH2 0x32C6 JUMP JUMPDEST PUSH2 0x1C0C JUMP JUMPDEST PUSH2 0x209 PUSH2 0x1C7D JUMP JUMPDEST PUSH2 0x1AC PUSH2 0x4F2 CALLDATASIZE PUSH1 0x4 PUSH2 0x3599 JUMP JUMPDEST PUSH2 0x1E91 JUMP JUMPDEST PUSH2 0x209 PUSH2 0x1EBE JUMP JUMPDEST PUSH0 PUSH1 0x1 PUSH1 0x1 PUSH1 0xE0 SHL SUB NOT DUP3 AND PUSH4 0x780E9D63 PUSH1 0xE0 SHL EQ DUP1 PUSH2 0x523 JUMPI POP PUSH2 0x523 DUP3 PUSH2 0x2300 JUMP JUMPDEST SWAP3 SWAP2 POP POP JUMP JUMPDEST PUSH1 0x60 PUSH0 DUP1 SLOAD PUSH2 0x537 SWAP1 PUSH2 0x35CA JUMP JUMPDEST DUP1 PUSH1 0x1F ADD PUSH1 0x20 DUP1 SWAP2 DIV MUL PUSH1 0x20 ADD PUSH1 0x40 MLOAD SWAP1 DUP2 ADD PUSH1 0x40 MSTORE DUP1 SWAP3 SWAP2 SWAP1 DUP2 DUP2 MSTORE PUSH1 0x20 ADD DUP3 DUP1 SLOAD PUSH2 0x563 SWAP1 PUSH2 0x35CA JUMP JUMPDEST DUP1 ISZERO PUSH2 0x5AE JUMPI DUP1 PUSH1 0x1F LT PUSH2 0x585 JUMPI PUSH2 0x100 DUP1 DUP4 SLOAD DIV MUL DUP4 MSTORE SWAP2 PUSH1 0x20 ADD SWAP2 PUSH2 0x5AE JUMP JUMPDEST DUP3 ADD SWAP2 SWAP1 PUSH0 MSTORE PUSH1 0x20 PUSH0 KECCAK256 SWAP1 JUMPDEST DUP2 SLOAD DUP2 MSTORE SWAP1 PUSH1 0x1 ADD SWAP1 PUSH1 0x20 ADD DUP1 DUP4 GT PUSH2 0x591 JUMPI DUP3 SWAP1 SUB PUSH1 0x1F AND DUP3 ADD SWAP2 JUMPDEST POP POP POP POP POP SWAP1 POP SWAP1 JUMP JUMPDEST PUSH0 PUSH2 0x5C2 DUP3 PUSH2 0x234F JUMP JUMPDEST POP PUSH0 DUP3 DUP2 MSTORE PUSH1 0x4 PUSH1 0x20 MSTORE PUSH1 0x40 SWAP1 KECCAK256 SLOAD PUSH1 0x1 PUSH1 0x1 PUSH1 0xA0 SHL SUB AND PUSH2 0x523 JUMP JUMPDEST PUSH2 0x5EA DUP3 DUP3 CALLER PUSH2 0x2387 JUMP JUMPDEST POP POP JUMP JUMPDEST PUSH1 0x40 MLOAD PUSH3 0x461BCD PUSH1 0xE5 SHL DUP2 MSTORE PUSH1 0x20 PUSH1 0x4 DUP3 ADD MSTORE PUSH1 0x2F PUSH1 0x24 DUP3 ADD MSTORE PUSH32 0x57656464696E67206365727469666963617465207472616E7366657220617265 PUSH1 0x44 DUP3 ADD MSTORE PUSH15 0x81B9BDD08185D5D1A1BDC9A5E9959 PUSH1 0x8A SHL PUSH1 0x64 DUP3 ADD MSTORE PUSH1 0x84 ADD JUMPDEST PUSH1 0x40 MLOAD DUP1 SWAP2 SUB SWAP1 REVERT JUMPDEST PUSH0 PUSH2 0x65D DUP4 PUSH2 0x9E0 JUMP JUMPDEST DUP3 LT PUSH2 0x680 JUMPI DUP3 DUP3 PUSH1 0x40 MLOAD PUSH4 0x295F44F7 PUSH1 0xE2 SHL DUP2 MSTORE PUSH1 0x4 ADD PUSH2 0x64A SWAP3 SWAP2 SWAP1 PUSH2 0x3602 JUMP JUMPDEST POP PUSH1 0x1 PUSH1 0x1 PUSH1 0xA0 SHL SUB SWAP2 SWAP1 SWAP2 AND PUSH0 SWAP1 DUP2 MSTORE PUSH1 0x6 PUSH1 0x20 SWAP1 DUP2 MSTORE PUSH1 0x40 DUP1 DUP4 KECCAK256 SWAP4 DUP4 MSTORE SWAP3 SWAP1 MSTORE KECCAK256 SLOAD SWAP1 JUMP JUMPDEST PUSH2 0x6C2 DUP4 DUP4 DUP4 PUSH1 0x40 MLOAD DUP1 PUSH1 0x20 ADD PUSH1 0x40 MSTORE DUP1 PUSH0 DUP2 MSTORE POP PUSH2 0x1B4E JUMP JUMPDEST POP POP POP JUMP JUMPDEST PUSH0 PUSH2 0x6D1 PUSH1 0x8 SLOAD SWAP1 JUMP JUMPDEST DUP3 LT PUSH2 0x6F4 JUMPI PUSH0 DUP3 PUSH1 0x40 MLOAD PUSH4 0x295F44F7 PUSH1 0xE2 SHL DUP2 MSTORE PUSH1 0x4 ADD PUSH2 0x64A SWAP3 SWAP2 SWAP1 PUSH2 0x3602 JUMP JUMPDEST PUSH1 0x8 DUP3 DUP2 SLOAD DUP2 LT PUSH2 0x707 JUMPI PUSH2 0x707 PUSH2 0x361B JUMP JUMPDEST SWAP1 PUSH0 MSTORE PUSH1 0x20 PUSH0 KECCAK256 ADD SLOAD SWAP1 POP SWAP2 SWAP1 POP JUMP JUMPDEST PUSH0 PUSH2 0x523 DUP3 PUSH2 0x234F JUMP JUMPDEST CALLER PUSH1 0xC PUSH0 PUSH2 0x72E DUP4 PUSH2 0x2394 JUMP JUMPDEST PUSH1 0x1 PUSH1 0x1 PUSH1 0xA0 SHL SUB AND DUP2 MSTORE PUSH1 0x20 DUP2 ADD SWAP2 SWAP1 SWAP2 MSTORE PUSH1 0x40 ADD PUSH0 KECCAK256 PUSH1 0x3 ADD SLOAD PUSH1 0xFF AND ISZERO PUSH2 0x76A JUMPI PUSH1 0x40 MLOAD PUSH3 0x461BCD PUSH1 0xE5 SHL DUP2 MSTORE PUSH1 0x4 ADD PUSH2 0x64A SWAP1 PUSH2 0x362F JUMP JUMPDEST CALLER PUSH0 PUSH1 0xC PUSH0 PUSH2 0x778 DUP5 PUSH2 0x2394 JUMP JUMPDEST PUSH1 0x1 PUSH1 0x1 PUSH1 0xA0 SHL SUB SWAP1 DUP2 AND DUP3 MSTORE PUSH1 0x20 DUP1 DUP4 ADD SWAP4 SWAP1 SWAP4 MSTORE PUSH1 0x40 SWAP2 DUP3 ADD PUSH0 SWAP1 DUP2 KECCAK256 DUP4 MLOAD PUSH2 0x180 DUP2 ADD DUP6 MSTORE DUP2 SLOAD DUP1 DUP6 AND PUSH2 0x120 DUP4 ADD SWAP1 DUP2 MSTORE PUSH1 0x1 PUSH1 0xA0 SHL DUP1 DUP4 DIV PUSH1 0xFF SWAP1 DUP2 AND ISZERO ISZERO PUSH2 0x140 DUP7 ADD MSTORE PUSH1 0x1 PUSH1 0xA8 SHL SWAP4 DUP5 SWAP1 DIV DUP2 AND ISZERO ISZERO PUSH2 0x160 DUP7 ADD MSTORE SWAP2 DUP5 MSTORE DUP8 MLOAD PUSH1 0x60 DUP1 DUP3 ADD DUP11 MSTORE PUSH1 0x1 DUP8 ADD SLOAD DUP1 DUP11 AND DUP4 MSTORE SWAP3 DUP4 DIV DUP5 AND ISZERO ISZERO DUP3 DUP13 ADD MSTORE SWAP4 SWAP1 SWAP2 DIV DUP3 AND ISZERO ISZERO DUP2 DUP10 ADD MSTORE DUP4 DUP10 ADD MSTORE PUSH1 0x2 DUP5 ADD SLOAD DUP4 DUP9 ADD MSTORE PUSH1 0x3 DUP5 ADD SLOAD DUP1 DUP3 AND ISZERO ISZERO SWAP3 DUP5 ADD SWAP3 SWAP1 SWAP3 MSTORE PUSH2 0x100 DUP1 DUP4 DIV DUP3 AND ISZERO ISZERO PUSH1 0x80 DUP6 ADD MSTORE PUSH3 0x10000 DUP4 DIV DUP3 AND ISZERO ISZERO PUSH1 0xA0 DUP6 ADD MSTORE PUSH4 0x1000000 SWAP1 SWAP3 DIV DUP2 AND PUSH1 0xC0 DUP5 ADD MSTORE PUSH1 0x4 DUP5 ADD SLOAD PUSH1 0xE0 DUP5 ADD MSTORE PUSH1 0x5 SWAP1 SWAP4 ADD SLOAD SWAP1 SWAP3 AND ISZERO ISZERO SWAP2 DUP2 ADD SWAP2 SWAP1 SWAP2 MSTORE DUP1 MLOAD MLOAD DUP4 AND DUP3 MSTORE PUSH1 0xB SWAP1 SWAP5 MSTORE SWAP2 SWAP1 SWAP2 KECCAK256 SLOAD SWAP2 SWAP3 POP AND CALLER EQ DUP1 PUSH2 0x8AB JUMPI POP PUSH1 0x20 DUP2 DUP2 ADD MLOAD MLOAD PUSH1 0x1 PUSH1 0x1 PUSH1 0xA0 SHL SUB SWAP1 DUP2 AND PUSH0 SWAP1 DUP2 MSTORE PUSH1 0xB SWAP1 SWAP3 MSTORE PUSH1 0x40 SWAP1 SWAP2 KECCAK256 SLOAD AND CALLER EQ JUMPDEST PUSH2 0x8C7 JUMPI PUSH1 0x40 MLOAD PUSH3 0x461BCD PUSH1 0xE5 SHL DUP2 MSTORE PUSH1 0x4 ADD PUSH2 0x64A SWAP1 PUSH2 0x3671 JUMP JUMPDEST CALLER PUSH0 DUP2 DUP2 MSTORE PUSH1 0xC PUSH1 0x20 SWAP1 DUP2 MSTORE PUSH1 0x40 DUP1 DUP4 KECCAK256 DUP1 SLOAD PUSH1 0x1 PUSH1 0x1 PUSH1 0xA0 SHL SUB SWAP1 DUP2 AND DUP6 MSTORE DUP3 DUP6 KECCAK256 DUP1 SLOAD PUSH1 0x1 PUSH1 0x1 PUSH1 0xB0 SHL SUB NOT SWAP1 DUP2 AND DUP3 SSTORE PUSH1 0x1 DUP3 DUP2 ADD DUP1 SLOAD DUP4 AND SWAP1 SSTORE PUSH1 0x2 DUP1 DUP5 ADD DUP10 SWAP1 SSTORE PUSH1 0x3 DUP1 DUP6 ADD DUP1 SLOAD PUSH4 0xFFFFFFFF NOT SWAP1 DUP2 AND SWAP1 SWAP2 SSTORE PUSH1 0x4 DUP1 DUP8 ADD DUP13 SWAP1 SSTORE PUSH1 0x5 SWAP7 DUP8 ADD DUP1 SLOAD PUSH1 0xFF NOT SWAP1 DUP2 AND SWAP1 SWAP2 SSTORE DUP6 DUP11 ADD DUP1 SLOAD DUP11 AND DUP15 MSTORE DUP12 DUP15 KECCAK256 DUP1 SLOAD DUP10 AND DUP2 SSTORE SWAP7 DUP8 ADD DUP1 SLOAD SWAP1 SWAP9 AND SWAP1 SWAP8 SSTORE SWAP4 DUP6 ADD DUP13 SWAP1 SSTORE SWAP2 DUP5 ADD DUP1 SLOAD SWAP1 SWAP2 AND SWAP1 SSTORE DUP3 ADD DUP10 SWAP1 SSTORE SWAP3 ADD DUP1 SLOAD SWAP1 SWAP3 AND SWAP1 SWAP2 SSTORE DUP3 SLOAD DUP3 AND DUP7 MSTORE PUSH1 0xB SWAP1 SWAP5 MSTORE DUP3 DUP6 KECCAK256 DUP1 SLOAD PUSH1 0xFF PUSH1 0xA0 SHL NOT SWAP1 DUP2 AND SWAP1 SWAP2 SSTORE SWAP4 SLOAD AND DUP5 MSTORE SWAP3 DUP2 SWAP1 KECCAK256 DUP1 SLOAD SWAP1 SWAP3 AND SWAP1 SWAP2 SSTORE MLOAD SWAP1 SWAP2 PUSH32 0x1271C287650062F685BD2F225144D7B6B046826A5A70632C8F873240D04A54C6 SWAP2 PUSH2 0x9D2 SWAP2 SWAP1 TIMESTAMP SWAP1 PUSH2 0x3602 JUMP JUMPDEST PUSH1 0x40 MLOAD DUP1 SWAP2 SUB SWAP1 LOG1 POP POP POP POP JUMP JUMPDEST PUSH0 PUSH1 0x1 PUSH1 0x1 PUSH1 0xA0 SHL SUB DUP3 AND PUSH2 0xA0A JUMPI PUSH0 PUSH1 0x40 MLOAD PUSH4 0x22718AD9 PUSH1 0xE2 SHL DUP2 MSTORE PUSH1 0x4 ADD PUSH2 0x64A SWAP2 SWAP1 PUSH2 0x32DD JUMP JUMPDEST POP PUSH1 0x1 PUSH1 0x1 PUSH1 0xA0 SHL SUB AND PUSH0 SWAP1 DUP2 MSTORE PUSH1 0x3 PUSH1 0x20 MSTORE PUSH1 0x40 SWAP1 KECCAK256 SLOAD SWAP1 JUMP JUMPDEST CALLER PUSH0 PUSH1 0xC PUSH0 PUSH2 0xA33 DUP5 PUSH2 0x2394 JUMP JUMPDEST PUSH1 0x1 PUSH1 0x1 PUSH1 0xA0 SHL SUB SWAP1 DUP2 AND DUP3 MSTORE PUSH1 0x20 DUP1 DUP4 ADD SWAP4 SWAP1 SWAP4 MSTORE PUSH1 0x40 SWAP2 DUP3 ADD PUSH0 SWAP1 DUP2 KECCAK256 DUP4 MLOAD PUSH2 0x180 DUP2 ADD DUP6 MSTORE DUP2 SLOAD DUP1 DUP6 AND PUSH2 0x120 DUP4 ADD SWAP1 DUP2 MSTORE PUSH1 0x1 PUSH1 0xA0 SHL DUP1 DUP4 DIV PUSH1 0xFF SWAP1 DUP2 AND ISZERO ISZERO PUSH2 0x140 DUP7 ADD MSTORE PUSH1 0x1 PUSH1 0xA8 SHL SWAP4 DUP5 SWAP1 DIV DUP2 AND ISZERO ISZERO PUSH2 0x160 DUP7 ADD MSTORE SWAP2 DUP5 MSTORE DUP8 MLOAD PUSH1 0x60 DUP1 DUP3 ADD DUP11 MSTORE PUSH1 0x1 DUP8 ADD SLOAD DUP1 DUP11 AND DUP4 MSTORE SWAP3 DUP4 DIV DUP5 AND ISZERO ISZERO DUP3 DUP13 ADD MSTORE SWAP4 SWAP1 SWAP2 DIV DUP3 AND ISZERO ISZERO DUP2 DUP10 ADD MSTORE DUP4 DUP10 ADD MSTORE PUSH1 0x2 DUP5 ADD SLOAD DUP4 DUP9 ADD MSTORE PUSH1 0x3 DUP5 ADD SLOAD DUP1 DUP3 AND ISZERO ISZERO SWAP3 DUP5 ADD SWAP3 SWAP1 SWAP3 MSTORE PUSH2 0x100 DUP1 DUP4 DIV DUP3 AND ISZERO ISZERO PUSH1 0x80 DUP6 ADD MSTORE PUSH3 0x10000 DUP4 DIV DUP3 AND ISZERO ISZERO PUSH1 0xA0 DUP6 ADD MSTORE PUSH4 0x1000000 SWAP1 SWAP3 DIV DUP2 AND PUSH1 0xC0 DUP5 ADD MSTORE PUSH1 0x4 DUP5 ADD SLOAD PUSH1 0xE0 DUP5 ADD MSTORE PUSH1 0x5 SWAP1 SWAP4 ADD SLOAD SWAP1 SWAP3 AND ISZERO ISZERO SWAP2 DUP2 ADD SWAP2 SWAP1 SWAP2 MSTORE DUP1 MLOAD MLOAD DUP4 AND DUP3 MSTORE PUSH1 0xB SWAP1 SWAP5 MSTORE SWAP2 SWAP1 SWAP2 KECCAK256 SLOAD SWAP2 SWAP3 POP AND CALLER EQ DUP1 PUSH2 0xB66 JUMPI POP PUSH1 0x20 DUP2 DUP2 ADD MLOAD MLOAD PUSH1 0x1 PUSH1 0x1 PUSH1 0xA0 SHL SUB SWAP1 DUP2 AND PUSH0 SWAP1 DUP2 MSTORE PUSH1 0xB SWAP1 SWAP3 MSTORE PUSH1 0x40 SWAP1 SWAP2 KECCAK256 SLOAD AND CALLER EQ JUMPDEST PUSH2 0xB82 JUMPI PUSH1 0x40 MLOAD PUSH3 0x461BCD PUSH1 0xE5 SHL DUP2 MSTORE PUSH1 0x4 ADD PUSH2 0x64A SWAP1 PUSH2 0x3671 JUMP JUMPDEST CALLER PUSH1 0xC PUSH0 PUSH2 0xB8F DUP4 PUSH2 0x2394 JUMP JUMPDEST PUSH1 0x1 PUSH1 0x1 PUSH1 0xA0 SHL SUB AND DUP2 MSTORE PUSH1 0x20 DUP2 ADD SWAP2 SWAP1 SWAP2 MSTORE PUSH1 0x40 ADD PUSH0 KECCAK256 PUSH1 0x3 ADD SLOAD PUSH1 0xFF AND ISZERO PUSH2 0xBCB JUMPI PUSH1 0x40 MLOAD PUSH3 0x461BCD PUSH1 0xE5 SHL DUP2 MSTORE PUSH1 0x4 ADD PUSH2 0x64A SWAP1 PUSH2 0x362F JUMP JUMPDEST CALLER PUSH0 DUP2 DUP2 MSTORE PUSH1 0xB PUSH1 0x20 MSTORE PUSH1 0x40 SWAP1 KECCAK256 SLOAD PUSH1 0x1 PUSH1 0xA8 SHL SWAP1 DIV PUSH1 0xFF AND ISZERO PUSH2 0xC01 JUMPI PUSH1 0x40 MLOAD PUSH3 0x461BCD PUSH1 0xE5 SHL DUP2 MSTORE PUSH1 0x4 ADD PUSH2 0x64A SWAP1 PUSH2 0x36BA JUMP JUMPDEST CALLER PUSH0 PUSH2 0xC0C DUP3 PUSH2 0x2394 JUMP JUMPDEST PUSH1 0x1 PUSH1 0x1 PUSH1 0xA0 SHL SUB DUP2 AND PUSH0 SWAP1 DUP2 MSTORE PUSH1 0xD PUSH1 0x20 MSTORE PUSH1 0x40 SWAP1 KECCAK256 PUSH1 0x1 DUP2 ADD SLOAD SWAP2 SWAP3 POP SWAP1 PUSH1 0xFF AND DUP1 ISZERO PUSH2 0xC44 JUMPI POP PUSH1 0x1 DUP2 ADD SLOAD PUSH2 0x100 SWAP1 DIV PUSH1 0xFF AND JUMPDEST PUSH2 0xCAB JUMPI PUSH1 0x40 MLOAD PUSH3 0x461BCD PUSH1 0xE5 SHL DUP2 MSTORE PUSH1 0x20 PUSH1 0x4 DUP3 ADD MSTORE PUSH1 0x32 PUSH1 0x24 DUP3 ADD MSTORE PUSH32 0x4775657374206C697374206D75737420626520636F6E6669726D656420627920 PUSH1 0x44 DUP3 ADD MSTORE PUSH18 0x189BDD1A081CDC1BDD5CD95CC8199A5C9CDD PUSH1 0x72 SHL PUSH1 0x64 DUP3 ADD MSTORE PUSH1 0x84 ADD PUSH2 0x64A JUMP JUMPDEST PUSH0 PUSH1 0xC PUSH0 PUSH2 0xCB8 CALLER PUSH2 0x2394 JUMP JUMPDEST PUSH1 0x1 PUSH1 0x1 PUSH1 0xA0 SHL SUB SWAP1 DUP2 AND DUP3 MSTORE PUSH1 0x20 DUP3 ADD SWAP3 SWAP1 SWAP3 MSTORE PUSH1 0x40 ADD PUSH0 KECCAK256 DUP1 SLOAD SWAP1 SWAP3 POP AND CALLER SUB PUSH2 0xCF4 JUMPI PUSH1 0x3 DUP2 ADD DUP1 SLOAD PUSH2 0xFF00 NOT AND PUSH2 0x100 OR SWAP1 SSTORE PUSH2 0xD1C JUMP JUMPDEST PUSH1 0x1 DUP2 ADD SLOAD PUSH1 0x1 PUSH1 0x1 PUSH1 0xA0 SHL SUB AND CALLER SUB PUSH2 0xD1C JUMPI PUSH1 0x3 DUP2 ADD DUP1 SLOAD PUSH3 0xFF0000 NOT AND PUSH3 0x10000 OR SWAP1 SSTORE JUMPDEST PUSH2 0xD25 CALLER PUSH2 0x2486 JUMP JUMPDEST PUSH32 0x46D8ABD270FCE195A0DE9F22FC55ED1B5C6B4A38B0723362F84126D24E68171 CALLER PUSH1 0x40 MLOAD PUSH2 0xD54 SWAP2 SWAP1 PUSH2 0x32DD JUMP JUMPDEST PUSH1 0x40 MLOAD DUP1 SWAP2 SUB SWAP1 LOG1 POP POP POP POP POP POP POP POP JUMP JUMPDEST CALLER PUSH0 PUSH1 0xC PUSH0 PUSH2 0xD74 DUP5 PUSH2 0x2394 JUMP JUMPDEST PUSH1 0x1 PUSH1 0x1 PUSH1 0xA0 SHL SUB SWAP1 DUP2 AND DUP3 MSTORE PUSH1 0x20 DUP1 DUP4 ADD SWAP4 SWAP1 SWAP4 MSTORE PUSH1 0x40 SWAP2 DUP3 ADD PUSH0 SWAP1 DUP2 KECCAK256 DUP4 MLOAD PUSH2 0x180 DUP2 ADD DUP6 MSTORE DUP2 SLOAD DUP1 DUP6 AND PUSH2 0x120 DUP4 ADD SWAP1 DUP2 MSTORE PUSH1 0x1 PUSH1 0xA0 SHL DUP1 DUP4 DIV PUSH1 0xFF SWAP1 DUP2 AND ISZERO ISZERO PUSH2 0x140 DUP7 ADD MSTORE PUSH1 0x1 PUSH1 0xA8 SHL SWAP4 DUP5 SWAP1 DIV DUP2 AND ISZERO ISZERO PUSH2 0x160 DUP7 ADD MSTORE SWAP2 DUP5 MSTORE DUP8 MLOAD PUSH1 0x60 DUP1 DUP3 ADD DUP11 MSTORE PUSH1 0x1 DUP8 ADD SLOAD DUP1 DUP11 AND DUP4 MSTORE SWAP3 DUP4 DIV DUP5 AND ISZERO ISZERO DUP3 DUP13 ADD MSTORE SWAP4 SWAP1 SWAP2 DIV DUP3 AND ISZERO ISZERO DUP2 DUP10 ADD MSTORE DUP4 DUP10 ADD MSTORE PUSH1 0x2 DUP5 ADD SLOAD DUP4 DUP9 ADD MSTORE PUSH1 0x3 DUP5 ADD SLOAD DUP1 DUP3 AND ISZERO ISZERO SWAP3 DUP5 ADD SWAP3 SWAP1 SWAP3 MSTORE PUSH2 0x100 DUP1 DUP4 DIV DUP3 AND ISZERO ISZERO PUSH1 0x80 DUP6 ADD MSTORE PUSH3 0x10000 DUP4 DIV DUP3 AND ISZERO ISZERO PUSH1 0xA0 DUP6 ADD MSTORE PUSH4 0x1000000 SWAP1 SWAP3 DIV DUP2 AND PUSH1 0xC0 DUP5 ADD MSTORE PUSH1 0x4 DUP5 ADD SLOAD PUSH1 0xE0 DUP5 ADD MSTORE PUSH1 0x5 SWAP1 SWAP4 ADD SLOAD SWAP1 SWAP3 AND ISZERO ISZERO SWAP2 DUP2 ADD SWAP2 SWAP1 SWAP2 MSTORE DUP1 MLOAD MLOAD DUP4 AND DUP3 MSTORE PUSH1 0xB SWAP1 SWAP5 MSTORE SWAP2 SWAP1 SWAP2 KECCAK256 SLOAD SWAP2 SWAP3 POP AND CALLER EQ DUP1 PUSH2 0xEA7 JUMPI POP PUSH1 0x20 DUP2 DUP2 ADD MLOAD MLOAD PUSH1 0x1 PUSH1 0x1 PUSH1 0xA0 SHL SUB SWAP1 DUP2 AND PUSH0 SWAP1 DUP2 MSTORE PUSH1 0xB SWAP1 SWAP3 MSTORE PUSH1 0x40 SWAP1 SWAP2 KECCAK256 SLOAD AND CALLER EQ JUMPDEST PUSH2 0xEC3 JUMPI PUSH1 0x40 MLOAD PUSH3 0x461BCD PUSH1 0xE5 SHL DUP2 MSTORE PUSH1 0x4 ADD PUSH2 0x64A SWAP1 PUSH2 0x3671 JUMP JUMPDEST CALLER PUSH0 DUP2 DUP2 MSTORE PUSH1 0xB PUSH1 0x20 MSTORE PUSH1 0x40 SWAP1 KECCAK256 SLOAD PUSH1 0x1 PUSH1 0xA8 SHL SWAP1 DIV PUSH1 0xFF AND ISZERO PUSH2 0xEF9 JUMPI PUSH1 0x40 MLOAD PUSH3 0x461BCD PUSH1 0xE5 SHL DUP2 MSTORE PUSH1 0x4 ADD PUSH2 0x64A SWAP1 PUSH2 0x36BA JUMP JUMPDEST PUSH0 PUSH2 0xF03 CALLER PUSH2 0x2394 JUMP JUMPDEST PUSH1 0x1 PUSH1 0x1 PUSH1 0xA0 SHL SUB DUP2 AND PUSH0 SWAP1 DUP2 MSTORE PUSH1 0xD PUSH1 0x20 MSTORE PUSH1 0x40 SWAP1 KECCAK256 SWAP1 SWAP2 POP PUSH2 0xF28 DUP2 DUP9 DUP9 PUSH2 0x31C2 JUMP JUMPDEST POP PUSH1 0x1 DUP2 ADD DUP1 SLOAD PUSH2 0xFFFF NOT AND SWAP1 SSTORE PUSH1 0x40 MLOAD PUSH32 0x402F0CDBBD3E7BDBD2C1FC4D920FA1EE7A733238220198DF262284A1259D0BE6 SWAP1 PUSH2 0xF6A SWAP1 CALLER SWAP1 DUP11 SWAP1 DUP11 SWAP1 PUSH2 0x36E3 JUMP JUMPDEST PUSH1 0x40 MLOAD DUP1 SWAP2 SUB SWAP1 LOG1 POP POP POP POP POP POP POP JUMP JUMPDEST CALLER PUSH0 SWAP1 DUP2 MSTORE PUSH1 0xC PUSH1 0x20 MSTORE PUSH1 0x40 SWAP1 KECCAK256 PUSH1 0x3 ADD SLOAD PUSH1 0x1 PUSH4 0x1000000 SWAP1 SWAP2 DIV PUSH1 0xFF AND GT PUSH2 0xFB7 JUMPI PUSH1 0x40 MLOAD PUSH3 0x461BCD PUSH1 0xE5 SHL DUP2 MSTORE PUSH1 0x4 ADD PUSH2 0x64A SWAP1 PUSH2 0x373C JUMP JUMPDEST PUSH2 0xFC0 DUP2 PUSH2 0x2622 JUMP JUMPDEST POP JUMP JUMPDEST PUSH1 0x60 PUSH1 0x1 DUP1 SLOAD PUSH2 0x537 SWAP1 PUSH2 0x35CA JUMP JUMPDEST DUP2 PUSH1 0x1 PUSH1 0x1 PUSH1 0xA0 SHL SUB DUP2 AND CALLER SUB PUSH2 0x1026 JUMPI PUSH1 0x40 MLOAD PUSH3 0x461BCD PUSH1 0xE5 SHL DUP2 MSTORE PUSH1 0x20 PUSH1 0x4 DUP3 ADD MSTORE PUSH1 0x18 PUSH1 0x24 DUP3 ADD MSTORE PUSH24 0x21B0B73737BA1032B733B0B3B2903A379037B732B9B2B633 PUSH1 0x41 SHL PUSH1 0x44 DUP3 ADD MSTORE PUSH1 0x64 ADD PUSH2 0x64A JUMP JUMPDEST CALLER PUSH0 SWAP1 DUP2 MSTORE PUSH1 0xB PUSH1 0x20 MSTORE PUSH1 0x40 SWAP1 KECCAK256 SLOAD DUP4 SWAP1 PUSH1 0x1 PUSH1 0xA0 SHL SWAP1 DIV PUSH1 0xFF AND ISZERO DUP1 ISZERO PUSH2 0x106D JUMPI POP PUSH1 0x1 PUSH1 0x1 PUSH1 0xA0 SHL SUB DUP2 AND PUSH0 SWAP1 DUP2 MSTORE PUSH1 0xB PUSH1 0x20 MSTORE PUSH1 0x40 SWAP1 KECCAK256 SLOAD PUSH1 0x1 PUSH1 0xA0 SHL SWAP1 DIV PUSH1 0xFF AND ISZERO JUMPDEST PUSH2 0x10D1 JUMPI PUSH1 0x40 MLOAD PUSH3 0x461BCD PUSH1 0xE5 SHL DUP2 MSTORE PUSH1 0x20 PUSH1 0x4 DUP3 ADD MSTORE PUSH1 0x2F PUSH1 0x24 DUP3 ADD MSTORE PUSH32 0x4F6E65206F7220626F7468206F66207468652073706F75736573206172652061 PUSH1 0x44 DUP3 ADD MSTORE PUSH15 0x363932B0B23C9032B733B0B3B2B217 PUSH1 0x89 SHL PUSH1 0x64 DUP3 ADD MSTORE PUSH1 0x84 ADD PUSH2 0x64A JUMP JUMPDEST PUSH1 0x40 MLOAD DUP1 PUSH1 0x60 ADD PUSH1 0x40 MSTORE DUP1 CALLER PUSH1 0x1 PUSH1 0x1 PUSH1 0xA0 SHL SUB AND DUP2 MSTORE PUSH1 0x20 ADD PUSH1 0x1 ISZERO ISZERO DUP2 MSTORE PUSH1 0x20 ADD PUSH0 ISZERO ISZERO DUP2 MSTORE POP PUSH1 0xB PUSH0 CALLER PUSH1 0x1 PUSH1 0x1 PUSH1 0xA0 SHL SUB AND PUSH1 0x1 PUSH1 0x1 PUSH1 0xA0 SHL SUB AND DUP2 MSTORE PUSH1 0x20 ADD SWAP1 DUP2 MSTORE PUSH1 0x20 ADD PUSH0 KECCAK256 PUSH0 DUP3 ADD MLOAD DUP2 PUSH0 ADD PUSH0 PUSH2 0x100 EXP DUP2 SLOAD DUP2 PUSH1 0x1 PUSH1 0x1 PUSH1 0xA0 SHL SUB MUL NOT AND SWAP1 DUP4 PUSH1 0x1 PUSH1 0x1 PUSH1 0xA0 SHL SUB AND MUL OR SWAP1 SSTORE POP PUSH1 0x20 DUP3 ADD MLOAD DUP2 PUSH0 ADD PUSH1 0x14 PUSH2 0x100 EXP DUP2 SLOAD DUP2 PUSH1 0xFF MUL NOT AND SWAP1 DUP4 ISZERO ISZERO MUL OR SWAP1 SSTORE POP PUSH1 0x40 DUP3 ADD MLOAD DUP2 PUSH0 ADD PUSH1 0x15 PUSH2 0x100 EXP DUP2 SLOAD DUP2 PUSH1 0xFF MUL NOT AND SWAP1 DUP4 ISZERO ISZERO MUL OR SWAP1 SSTORE POP SWAP1 POP POP PUSH1 0x40 MLOAD DUP1 PUSH1 0x60 ADD PUSH1 0x40 MSTORE DUP1 DUP6 PUSH1 0x1 PUSH1 0x1 PUSH1 0xA0 SHL SUB AND DUP2 MSTORE PUSH1 0x20 ADD PUSH1 0x1 ISZERO ISZERO DUP2 MSTORE PUSH1 0x20 ADD PUSH0 ISZERO ISZERO DUP2 MSTORE POP PUSH1 0xB PUSH0 DUP7 PUSH1 0x1 PUSH1 0x1 PUSH1 0xA0 SHL SUB AND PUSH1 0x1 PUSH1 0x1 PUSH1 0xA0 SHL SUB AND DUP2 MSTORE PUSH1 0x20 ADD SWAP1 DUP2 MSTORE PUSH1 0x20 ADD PUSH0 KECCAK256 PUSH0 DUP3 ADD MLOAD DUP2 PUSH0 ADD PUSH0 PUSH2 0x100 EXP DUP2 SLOAD DUP2 PUSH1 0x1 PUSH1 0x1 PUSH1 0xA0 SHL SUB MUL NOT AND SWAP1 DUP4 PUSH1 0x1 PUSH1 0x1 PUSH1 0xA0 SHL SUB AND MUL OR SWAP1 SSTORE POP PUSH1 0x20 DUP3 ADD MLOAD DUP2 PUSH0 ADD PUSH1 0x14 PUSH2 0x100 EXP DUP2 SLOAD DUP2 PUSH1 0xFF MUL NOT AND SWAP1 DUP4 ISZERO ISZERO MUL OR SWAP1 SSTORE POP PUSH1 0x40 DUP3 ADD MLOAD DUP2 PUSH0 ADD PUSH1 0x15 PUSH2 0x100 EXP DUP2 SLOAD DUP2 PUSH1 0xFF MUL NOT AND SWAP1 DUP4 ISZERO ISZERO MUL OR SWAP1 SSTORE POP SWAP1 POP POP PUSH0 PUSH1 0x40 MLOAD DUP1 PUSH2 0x120 ADD PUSH1 0x40 MSTORE DUP1 PUSH1 0xB PUSH0 CALLER PUSH1 0x1 PUSH1 0x1 PUSH1 0xA0 SHL SUB AND PUSH1 0x1 PUSH1 0x1 PUSH1 0xA0 SHL SUB AND DUP2 MSTORE PUSH1 0x20 ADD SWAP1 DUP2 MSTORE PUSH1 0x20 ADD PUSH0 KECCAK256 PUSH1 0x40 MLOAD DUP1 PUSH1 0x60 ADD PUSH1 0x40 MSTORE SWAP1 DUP2 PUSH0 DUP3 ADD PUSH0 SWAP1 SLOAD SWAP1 PUSH2 0x100 EXP SWAP1 DIV PUSH1 0x1 PUSH1 0x1 PUSH1 0xA0 SHL SUB AND PUSH1 0x1 PUSH1 0x1 PUSH1 0xA0 SHL SUB AND PUSH1 0x1 PUSH1 0x1 PUSH1 0xA0 SHL SUB AND DUP2 MSTORE PUSH1 0x20 ADD PUSH0 DUP3 ADD PUSH1 0x14 SWAP1 SLOAD SWAP1 PUSH2 0x100 EXP SWAP1 DIV PUSH1 0xFF AND ISZERO ISZERO ISZERO ISZERO DUP2 MSTORE PUSH1 0x20 ADD PUSH0 DUP3 ADD PUSH1 0x15 SWAP1 SLOAD SWAP1 PUSH2 0x100 EXP SWAP1 DIV PUSH1 0xFF AND ISZERO ISZERO ISZERO ISZERO DUP2 MSTORE POP POP DUP2 MSTORE PUSH1 0x20 ADD PUSH1 0xB PUSH0 DUP9 PUSH1 0x1 PUSH1 0x1 PUSH1 0xA0 SHL SUB AND PUSH1 0x1 PUSH1 0x1 PUSH1 0xA0 SHL SUB AND DUP2 MSTORE PUSH1 0x20 ADD SWAP1 DUP2 MSTORE PUSH1 0x20 ADD PUSH0 KECCAK256 PUSH1 0x40 MLOAD DUP1 PUSH1 0x60 ADD PUSH1 0x40 MSTORE SWAP1 DUP2 PUSH0 DUP3 ADD PUSH0 SWAP1 SLOAD SWAP1 PUSH2 0x100 EXP SWAP1 DIV PUSH1 0x1 PUSH1 0x1 PUSH1 0xA0 SHL SUB AND PUSH1 0x1 PUSH1 0x1 PUSH1 0xA0 SHL SUB AND PUSH1 0x1 PUSH1 0x1 PUSH1 0xA0 SHL SUB AND DUP2 MSTORE PUSH1 0x20 ADD PUSH0 DUP3 ADD PUSH1 0x14 SWAP1 SLOAD SWAP1 PUSH2 0x100 EXP SWAP1 DIV PUSH1 0xFF AND ISZERO ISZERO ISZERO ISZERO DUP2 MSTORE PUSH1 0x20 ADD PUSH0 DUP3 ADD PUSH1 0x15 SWAP1 SLOAD SWAP1 PUSH2 0x100 EXP SWAP1 DIV PUSH1 0xFF AND ISZERO ISZERO ISZERO ISZERO DUP2 MSTORE POP POP DUP2 MSTORE PUSH1 0x20 ADD DUP6 DUP2 MSTORE PUSH1 0x20 ADD PUSH0 ISZERO ISZERO DUP2 MSTORE PUSH1 0x20 ADD PUSH0 ISZERO ISZERO DUP2 MSTORE PUSH1 0x20 ADD PUSH0 ISZERO ISZERO DUP2 MSTORE PUSH1 0x20 ADD PUSH0 PUSH1 0xFF AND DUP2 MSTORE PUSH1 0x20 ADD PUSH0 DUP2 MSTORE PUSH1 0x20 ADD PUSH0 ISZERO ISZERO DUP2 MSTORE POP SWAP1 POP DUP1 PUSH1 0xC PUSH0 CALLER PUSH1 0x1 PUSH1 0x1 PUSH1 0xA0 SHL SUB AND PUSH1 0x1 PUSH1 0x1 PUSH1 0xA0 SHL SUB AND DUP2 MSTORE PUSH1 0x20 ADD SWAP1 DUP2 MSTORE PUSH1 0x20 ADD PUSH0 KECCAK256 PUSH0 DUP3 ADD MLOAD DUP2 PUSH0 ADD PUSH0 DUP3 ADD MLOAD DUP2 PUSH0 ADD PUSH0 PUSH2 0x100 EXP DUP2 SLOAD DUP2 PUSH1 0x1 PUSH1 0x1 PUSH1 0xA0 SHL SUB MUL NOT AND SWAP1 DUP4 PUSH1 0x1 PUSH1 0x1 PUSH1 0xA0 SHL SUB AND MUL OR SWAP1 SSTORE POP PUSH1 0x20 DUP3 ADD MLOAD DUP2 PUSH0 ADD PUSH1 0x14 PUSH2 0x100 EXP DUP2 SLOAD DUP2 PUSH1 0xFF MUL NOT AND SWAP1 DUP4 ISZERO ISZERO MUL OR SWAP1 SSTORE POP PUSH1 0x40 DUP3 ADD MLOAD DUP2 PUSH0 ADD PUSH1 0x15 PUSH2 0x100 EXP DUP2 SLOAD DUP2 PUSH1 0xFF MUL NOT AND SWAP1 DUP4 ISZERO ISZERO MUL OR SWAP1 SSTORE POP POP POP PUSH1 0x20 DUP3 ADD MLOAD DUP2 PUSH1 0x1 ADD PUSH0 DUP3 ADD MLOAD DUP2 PUSH0 ADD PUSH0 PUSH2 0x100 EXP DUP2 SLOAD DUP2 PUSH1 0x1 PUSH1 0x1 PUSH1 0xA0 SHL SUB MUL NOT AND SWAP1 DUP4 PUSH1 0x1 PUSH1 0x1 PUSH1 0xA0 SHL SUB AND MUL OR SWAP1 SSTORE POP PUSH1 0x20 DUP3 ADD MLOAD DUP2 PUSH0 ADD PUSH1 0x14 PUSH2 0x100 EXP DUP2 SLOAD DUP2 PUSH1 0xFF MUL NOT AND SWAP1 DUP4 ISZERO ISZERO MUL OR SWAP1 SSTORE POP PUSH1 0x40 DUP3 ADD MLOAD DUP2 PUSH0 ADD PUSH1 0x15 PUSH2 0x100 EXP DUP2 SLOAD DUP2 PUSH1 0xFF MUL NOT AND SWAP1 DUP4 ISZERO ISZERO MUL OR SWAP1 SSTORE POP POP POP PUSH1 0x40 DUP3 ADD MLOAD DUP2 PUSH1 0x2 ADD SSTORE PUSH1 0x60 DUP3 ADD MLOAD DUP2 PUSH1 0x3 ADD PUSH0 PUSH2 0x100 EXP DUP2 SLOAD DUP2 PUSH1 0xFF MUL NOT AND SWAP1 DUP4 ISZERO ISZERO MUL OR SWAP1 SSTORE POP PUSH1 0x80 DUP3 ADD MLOAD DUP2 PUSH1 0x3 ADD PUSH1 0x1 PUSH2 0x100 EXP DUP2 SLOAD DUP2 PUSH1 0xFF MUL NOT AND SWAP1 DUP4 ISZERO ISZERO MUL OR SWAP1 SSTORE POP PUSH1 0xA0 DUP3 ADD MLOAD DUP2 PUSH1 0x3 ADD PUSH1 0x2 PUSH2 0x100 EXP DUP2 SLOAD DUP2 PUSH1 0xFF MUL NOT AND SWAP1 DUP4 ISZERO ISZERO MUL OR SWAP1 SSTORE POP PUSH1 0xC0 DUP3 ADD MLOAD DUP2 PUSH1 0x3 ADD PUSH1 0x3 PUSH2 0x100 EXP DUP2 SLOAD DUP2 PUSH1 0xFF MUL NOT AND SWAP1 DUP4 PUSH1 0xFF AND MUL OR SWAP1 SSTORE POP PUSH1 0xE0 DUP3 ADD MLOAD DUP2 PUSH1 0x4 ADD SSTORE PUSH2 0x100 DUP3 ADD MLOAD DUP2 PUSH1 0x5 ADD PUSH0 PUSH2 0x100 EXP DUP2 SLOAD DUP2 PUSH1 0xFF MUL NOT AND SWAP1 DUP4 ISZERO ISZERO MUL OR SWAP1 SSTORE POP SWAP1 POP POP DUP1 PUSH1 0xC PUSH0 DUP8 PUSH1 0x1 PUSH1 0x1 PUSH1 0xA0 SHL SUB AND PUSH1 0x1 PUSH1 0x1 PUSH1 0xA0 SHL SUB AND DUP2 MSTORE PUSH1 0x20 ADD SWAP1 DUP2 MSTORE PUSH1 0x20 ADD PUSH0 KECCAK256 PUSH0 DUP3 ADD MLOAD DUP2 PUSH0 ADD PUSH0 DUP3 ADD MLOAD DUP2 PUSH0 ADD PUSH0 PUSH2 0x100 EXP DUP2 SLOAD DUP2 PUSH1 0x1 PUSH1 0x1 PUSH1 0xA0 SHL SUB MUL NOT AND SWAP1 DUP4 PUSH1 0x1 PUSH1 0x1 PUSH1 0xA0 SHL SUB AND MUL OR SWAP1 SSTORE POP PUSH1 0x20 DUP3 ADD MLOAD DUP2 PUSH0 ADD PUSH1 0x14 PUSH2 0x100 EXP DUP2 SLOAD DUP2 PUSH1 0xFF MUL NOT AND SWAP1 DUP4 ISZERO ISZERO MUL OR SWAP1 SSTORE POP PUSH1 0x40 DUP3 ADD MLOAD DUP2 PUSH0 ADD PUSH1 0x15 PUSH2 0x100 EXP DUP2 SLOAD DUP2 PUSH1 0xFF MUL NOT AND SWAP1 DUP4 ISZERO ISZERO MUL OR SWAP1 SSTORE POP POP POP PUSH1 0x20 DUP3 ADD MLOAD DUP2 PUSH1 0x1 ADD PUSH0 DUP3 ADD MLOAD DUP2 PUSH0 ADD PUSH0 PUSH2 0x100 EXP DUP2 SLOAD DUP2 PUSH1 0x1 PUSH1 0x1 PUSH1 0xA0 SHL SUB MUL NOT AND SWAP1 DUP4 PUSH1 0x1 PUSH1 0x1 PUSH1 0xA0 SHL SUB AND MUL OR SWAP1 SSTORE POP PUSH1 0x20 DUP3 ADD MLOAD DUP2 PUSH0 ADD PUSH1 0x14 PUSH2 0x100 EXP DUP2 SLOAD DUP2 PUSH1 0xFF MUL NOT AND SWAP1 DUP4 ISZERO ISZERO MUL OR SWAP1 SSTORE POP PUSH1 0x40 DUP3 ADD MLOAD DUP2 PUSH0 ADD PUSH1 0x15 PUSH2 0x100 EXP DUP2 SLOAD DUP2 PUSH1 0xFF MUL NOT AND SWAP1 DUP4 ISZERO ISZERO MUL OR SWAP1 SSTORE POP POP POP PUSH1 0x40 DUP3 ADD MLOAD DUP2 PUSH1 0x2 ADD SSTORE PUSH1 0x60 DUP3 ADD MLOAD DUP2 PUSH1 0x3 ADD PUSH0 PUSH2 0x100 EXP DUP2 SLOAD DUP2 PUSH1 0xFF MUL NOT AND SWAP1 DUP4 ISZERO ISZERO MUL OR SWAP1 SSTORE POP PUSH1 0x80 DUP3 ADD MLOAD DUP2 PUSH1 0x3 ADD PUSH1 0x1 PUSH2 0x100 EXP DUP2 SLOAD DUP2 PUSH1 0xFF MUL NOT AND SWAP1 DUP4 ISZERO ISZERO MUL OR SWAP1 SSTORE POP PUSH1 0xA0 DUP3 ADD MLOAD DUP2 PUSH1 0x3 ADD PUSH1 0x2 PUSH2 0x100 EXP DUP2 SLOAD DUP2 PUSH1 0xFF MUL NOT AND SWAP1 DUP4 ISZERO ISZERO MUL OR SWAP1 SSTORE POP PUSH1 0xC0 DUP3 ADD MLOAD DUP2 PUSH1 0x3 ADD PUSH1 0x3 PUSH2 0x100 EXP DUP2 SLOAD DUP2 PUSH1 0xFF MUL NOT AND SWAP1 DUP4 PUSH1 0xFF AND MUL OR SWAP1 SSTORE POP PUSH1 0xE0 DUP3 ADD MLOAD DUP2 PUSH1 0x4 ADD SSTORE PUSH2 0x100 DUP3 ADD MLOAD DUP2 PUSH1 0x5 ADD PUSH0 PUSH2 0x100 EXP DUP2 SLOAD DUP2 PUSH1 0xFF MUL NOT AND SWAP1 DUP4 ISZERO ISZERO MUL OR SWAP1 SSTORE POP SWAP1 POP POP PUSH32 0x7A7F38BE04AFB87E39B4CB52BEC76C69C4D999F605BD21054B71A3F2DC085821 CALLER DUP7 DUP7 PUSH1 0x40 MLOAD PUSH2 0x1779 SWAP4 SWAP3 SWAP2 SWAP1 PUSH1 0x1 PUSH1 0x1 PUSH1 0xA0 SHL SUB SWAP4 DUP5 AND DUP2 MSTORE SWAP2 SWAP1 SWAP3 AND PUSH1 0x20 DUP3 ADD MSTORE PUSH1 0x40 DUP2 ADD SWAP2 SWAP1 SWAP2 MSTORE PUSH1 0x60 ADD SWAP1 JUMP JUMPDEST PUSH1 0x40 MLOAD DUP1 SWAP2 SUB SWAP1 LOG1 POP POP POP POP POP JUMP JUMPDEST DUP1 PUSH1 0xC PUSH0 PUSH2 0x1795 DUP4 PUSH2 0x2394 JUMP JUMPDEST PUSH1 0x1 PUSH1 0x1 PUSH1 0xA0 SHL SUB AND DUP2 MSTORE PUSH1 0x20 DUP2 ADD SWAP2 SWAP1 SWAP2 MSTORE PUSH1 0x40 ADD PUSH0 KECCAK256 PUSH1 0x3 ADD SLOAD PUSH1 0xFF AND ISZERO PUSH2 0x17D1 JUMPI PUSH1 0x40 MLOAD PUSH3 0x461BCD PUSH1 0xE5 SHL DUP2 MSTORE PUSH1 0x4 ADD PUSH2 0x64A SWAP1 PUSH2 0x362F JUMP JUMPDEST PUSH1 0x1 PUSH1 0x1 PUSH1 0xA0 SHL SUB DUP3 AND PUSH0 SWAP1 DUP2 MSTORE PUSH1 0xB PUSH1 0x20 MSTORE PUSH1 0x40 SWAP1 KECCAK256 SLOAD DUP3 SWAP1 PUSH1 0x1 PUSH1 0xA8 SHL SWAP1 DIV PUSH1 0xFF AND ISZERO PUSH2 0x1812 JUMPI PUSH1 0x40 MLOAD PUSH3 0x461BCD PUSH1 0xE5 SHL DUP2 MSTORE PUSH1 0x4 ADD PUSH2 0x64A SWAP1 PUSH2 0x36BA JUMP JUMPDEST PUSH1 0x1 PUSH1 0x1 PUSH1 0xA0 SHL SUB DUP4 AND PUSH0 SWAP1 DUP2 MSTORE PUSH1 0xB PUSH1 0x20 MSTORE PUSH1 0x40 SWAP1 KECCAK256 SLOAD DUP4 SWAP1 PUSH1 0x1 PUSH1 0xA0 SHL SWAP1 DIV PUSH1 0xFF AND ISZERO ISZERO PUSH1 0x1 EQ PUSH2 0x187E JUMPI PUSH1 0x40 MLOAD PUSH3 0x461BCD PUSH1 0xE5 SHL DUP2 MSTORE PUSH1 0x20 PUSH1 0x4 DUP3 ADD MSTORE PUSH1 0x14 PUSH1 0x24 DUP3 ADD MSTORE PUSH20 0x20B2323932B9B9903737BA1032B733B0B3B2B217 PUSH1 0x61 SHL PUSH1 0x44 DUP3 ADD MSTORE PUSH1 0x64 ADD PUSH2 0x64A JUMP JUMPDEST DUP4 PUSH2 0x1889 DUP2 CALLER PUSH2 0x265A JUMP JUMPDEST PUSH2 0x18CD JUMPI PUSH1 0x40 MLOAD PUSH3 0x461BCD PUSH1 0xE5 SHL DUP2 MSTORE PUSH1 0x20 PUSH1 0x4 DUP3 ADD MSTORE PUSH1 0x15 PUSH1 0x24 DUP3 ADD MSTORE PUSH21 0x139BDD08184818DBDB999A5C9B59590819DD595CDD PUSH1 0x5A SHL PUSH1 0x44 DUP3 ADD MSTORE PUSH1 0x64 ADD PUSH2 0x64A JUMP JUMPDEST PUSH1 0x1 PUSH1 0x1 PUSH1 0xA0 SHL SUB DUP6 AND PUSH0 SWAP1 DUP2 MSTORE PUSH1 0xD PUSH1 0x20 SWAP1 DUP2 MSTORE PUSH1 0x40 DUP1 DUP4 KECCAK256 CALLER DUP5 MSTORE PUSH1 0x2 ADD SWAP1 SWAP2 MSTORE SWAP1 KECCAK256 SLOAD DUP6 SWAP1 PUSH1 0xFF AND ISZERO PUSH2 0x1935 JUMPI PUSH1 0x40 MLOAD PUSH3 0x461BCD PUSH1 0xE5 SHL DUP2 MSTORE PUSH1 0x20 PUSH1 0x4 DUP3 ADD MSTORE PUSH1 0xD PUSH1 0x24 DUP3 ADD MSTORE PUSH13 0x105B1C9958591E481D9BDD1959 PUSH1 0x9A SHL PUSH1 0x44 DUP3 ADD MSTORE PUSH1 0x64 ADD PUSH2 0x64A JUMP JUMPDEST DUP6 PUSH0 PUSH1 0xC PUSH0 PUSH2 0x1943 DUP5 PUSH2 0x2394 JUMP JUMPDEST PUSH1 0x1 PUSH1 0x1 PUSH1 0xA0 SHL SUB SWAP1 DUP2 AND DUP3 MSTORE PUSH1 0x20 DUP1 DUP4 ADD SWAP4 SWAP1 SWAP4 MSTORE PUSH1 0x40 SWAP2 DUP3 ADD PUSH0 KECCAK256 DUP3 MLOAD PUSH2 0x180 DUP2 ADD DUP5 MSTORE DUP2 SLOAD DUP1 DUP5 AND PUSH2 0x120 DUP4 ADD SWAP1 DUP2 MSTORE PUSH1 0xFF PUSH1 0x1 PUSH1 0xA0 SHL DUP1 DUP5 DIV DUP3 AND ISZERO ISZERO PUSH2 0x140 DUP7 ADD MSTORE PUSH1 0x1 PUSH1 0xA8 SHL SWAP4 DUP5 SWAP1 DIV DUP3 AND ISZERO ISZERO PUSH2 0x160 DUP7 ADD MSTORE SWAP2 DUP5 MSTORE DUP7 MLOAD PUSH1 0x60 DUP2 DUP2 ADD DUP10 MSTORE PUSH1 0x1 DUP8 ADD SLOAD SWAP8 DUP9 AND DUP3 MSTORE SWAP3 DUP8 DIV DUP3 AND ISZERO ISZERO DUP2 DUP11 ADD MSTORE SWAP3 SWAP1 SWAP6 DIV DUP6 AND ISZERO ISZERO DUP3 DUP8 ADD MSTORE SWAP6 DUP3 ADD MSTORE PUSH1 0x2 DUP3 ADD SLOAD SWAP4 DUP2 ADD SWAP4 SWAP1 SWAP4 MSTORE PUSH1 0x3 DUP2 ADD SLOAD DUP1 DUP4 AND ISZERO ISZERO SWAP5 DUP5 ADD SWAP5 SWAP1 SWAP5 MSTORE PUSH2 0x100 DUP1 DUP6 DIV DUP4 AND ISZERO ISZERO PUSH1 0x80 DUP6 ADD MSTORE PUSH3 0x10000 DUP6 DIV DUP4 AND ISZERO ISZERO PUSH1 0xA0 DUP6 ADD MSTORE PUSH4 0x1000000 SWAP1 SWAP5 DIV DUP3 AND PUSH1 0xC0 DUP5 ADD MSTORE PUSH1 0x4 DUP2 ADD SLOAD PUSH1 0xE0 DUP5 ADD MSTORE PUSH1 0x5 ADD SLOAD AND ISZERO DUP1 ISZERO SWAP3 DUP3 ADD DUP4 SWAP1 MSTORE SWAP1 SWAP3 POP PUSH2 0x1A4C JUMPI POP PUSH1 0xE0 DUP2 ADD MLOAD PUSH2 0x1A48 SWAP1 PUSH1 0x3C PUSH2 0x3778 JUMP JUMPDEST TIMESTAMP GT ISZERO JUMPDEST PUSH2 0x1A98 JUMPI PUSH1 0x40 MLOAD PUSH3 0x461BCD PUSH1 0xE5 SHL DUP2 MSTORE PUSH1 0x20 PUSH1 0x4 DUP3 ADD MSTORE PUSH1 0x1B PUSH1 0x24 DUP3 ADD MSTORE PUSH32 0x566F74696E6720706572696F64206973206E6F74206163746976650000000000 PUSH1 0x44 DUP3 ADD MSTORE PUSH1 0x64 ADD PUSH2 0x64A JUMP JUMPDEST PUSH0 PUSH2 0x1AA2 DUP10 PUSH2 0x2394 JUMP JUMPDEST PUSH1 0x1 PUSH1 0x1 PUSH1 0xA0 SHL SUB DUP2 AND PUSH0 SWAP1 DUP2 MSTORE PUSH1 0xD PUSH1 0x20 SWAP1 DUP2 MSTORE PUSH1 0x40 DUP1 DUP4 KECCAK256 CALLER DUP5 MSTORE PUSH1 0x2 DUP2 ADD SWAP1 SWAP3 MSTORE DUP3 KECCAK256 DUP1 SLOAD PUSH1 0xFF NOT AND PUSH1 0x1 OR SWAP1 SSTORE PUSH1 0x3 DUP2 ADD DUP1 SLOAD SWAP4 SWAP5 POP SWAP1 SWAP3 SWAP2 PUSH2 0x1AE8 DUP4 PUSH2 0x378B JUMP JUMPDEST SWAP1 SWAP2 SSTORE POP POP PUSH1 0x40 DUP1 MLOAD CALLER DUP2 MSTORE PUSH1 0x1 PUSH1 0x1 PUSH1 0xA0 SHL SUB DUP13 AND PUSH1 0x20 DUP3 ADD MSTORE PUSH32 0xA9862C5F43CACA0B960B097A111CE8C3752D27DF0E0F1F170B4A06A823E612B1 SWAP2 ADD PUSH1 0x40 MLOAD DUP1 SWAP2 SUB SWAP1 LOG1 PUSH2 0x1B37 DUP11 PUSH2 0x2714 JUMP JUMPDEST POP POP POP POP POP POP POP POP POP POP JUMP JUMPDEST PUSH2 0x5EA CALLER DUP4 DUP4 PUSH2 0x285F JUMP JUMPDEST PUSH2 0x1B59 DUP5 DUP5 DUP5 PUSH2 0x5EE JUMP JUMPDEST PUSH2 0x1B65 DUP5 DUP5 DUP5 DUP5 PUSH2 0x28F4 JUMP JUMPDEST POP POP POP POP JUMP JUMPDEST CALLER PUSH0 DUP2 DUP2 MSTORE PUSH1 0xC PUSH1 0x20 MSTORE PUSH1 0x40 SWAP1 KECCAK256 DUP1 SLOAD SWAP1 SWAP2 PUSH1 0x1 PUSH1 0x1 PUSH1 0xA0 SHL SUB SWAP1 SWAP2 AND EQ DUP1 PUSH2 0x1B9E JUMPI POP PUSH1 0xA SLOAD PUSH1 0x1 PUSH1 0x1 PUSH1 0xA0 SHL SUB AND CALLER EQ JUMPDEST DUP1 PUSH2 0x1BB5 JUMPI POP PUSH1 0x1 DUP2 ADD SLOAD PUSH1 0x1 PUSH1 0x1 PUSH1 0xA0 SHL SUB AND CALLER EQ JUMPDEST PUSH2 0x1BD1 JUMPI PUSH1 0x40 MLOAD PUSH3 0x461BCD PUSH1 0xE5 SHL DUP2 MSTORE PUSH1 0x4 ADD PUSH2 0x64A SWAP1 PUSH2 0x373C JUMP JUMPDEST PUSH1 0x3 DUP2 DUP2 ADD DUP1 SLOAD PUSH1 0x1 SWAP3 SWAP1 PUSH2 0x1BF1 SWAP1 DUP5 SWAP1 PUSH4 0x1000000 SWAP1 DIV PUSH1 0xFF AND PUSH2 0x37A3 JUMP JUMPDEST SWAP3 POP PUSH2 0x100 EXP DUP2 SLOAD DUP2 PUSH1 0xFF MUL NOT AND SWAP1 DUP4 PUSH1 0xFF AND MUL OR SWAP1 SSTORE POP POP JUMP JUMPDEST PUSH1 0x60 PUSH2 0x1C17 DUP3 PUSH2 0x234F JUMP JUMPDEST POP PUSH0 PUSH2 0x1C2D PUSH1 0x40 DUP1 MLOAD PUSH1 0x20 DUP2 ADD SWAP1 SWAP2 MSTORE PUSH0 DUP2 MSTORE SWAP1 JUMP JUMPDEST SWAP1 POP PUSH0 DUP2 MLOAD GT PUSH2 0x1C4B JUMPI PUSH1 0x40 MLOAD DUP1 PUSH1 0x20 ADD PUSH1 0x40 MSTORE DUP1 PUSH0 DUP2 MSTORE POP PUSH2 0x1C76 JUMP JUMPDEST DUP1 PUSH2 0x1C55 DUP5 PUSH2 0x2A08 JUMP JUMPDEST PUSH1 0x40 MLOAD PUSH1 0x20 ADD PUSH2 0x1C66 SWAP3 SWAP2 SWAP1 PUSH2 0x37BC JUMP JUMPDEST PUSH1 0x40 MLOAD PUSH1 0x20 DUP2 DUP4 SUB SUB DUP2 MSTORE SWAP1 PUSH1 0x40 MSTORE JUMPDEST SWAP4 SWAP3 POP POP POP JUMP JUMPDEST CALLER PUSH0 PUSH1 0xC PUSH0 PUSH2 0x1C8B DUP5 PUSH2 0x2394 JUMP JUMPDEST PUSH1 0x1 PUSH1 0x1 PUSH1 0xA0 SHL SUB SWAP1 DUP2 AND DUP3 MSTORE PUSH1 0x20 DUP1 DUP4 ADD SWAP4 SWAP1 SWAP4 MSTORE PUSH1 0x40 SWAP2 DUP3 ADD PUSH0 SWAP1 DUP2 KECCAK256 DUP4 MLOAD PUSH2 0x180 DUP2 ADD DUP6 MSTORE DUP2 SLOAD DUP1 DUP6 AND PUSH2 0x120 DUP4 ADD SWAP1 DUP2 MSTORE PUSH1 0x1 PUSH1 0xA0 SHL DUP1 DUP4 DIV PUSH1 0xFF SWAP1 DUP2 AND ISZERO ISZERO PUSH2 0x140 DUP7 ADD MSTORE PUSH1 0x1 PUSH1 0xA8 SHL SWAP4 DUP5 SWAP1 DIV DUP2 AND ISZERO ISZERO PUSH2 0x160 DUP7 ADD MSTORE SWAP2 DUP5 MSTORE DUP8 MLOAD PUSH1 0x60 DUP1 DUP3 ADD DUP11 MSTORE PUSH1 0x1 DUP8 ADD SLOAD DUP1 DUP11 AND DUP4 MSTORE SWAP3 DUP4 DIV DUP5 AND ISZERO ISZERO DUP3 DUP13 ADD MSTORE SWAP4 SWAP1 SWAP2 DIV DUP3 AND ISZERO ISZERO DUP2 DUP10 ADD MSTORE DUP4 DUP10 ADD MSTORE PUSH1 0x2 DUP5 ADD SLOAD DUP4 DUP9 ADD MSTORE PUSH1 0x3 DUP5 ADD SLOAD DUP1 DUP3 AND ISZERO ISZERO SWAP3 DUP5 ADD SWAP3 SWAP1 SWAP3 MSTORE PUSH2 0x100 DUP1 DUP4 DIV DUP3 AND ISZERO ISZERO PUSH1 0x80 DUP6 ADD MSTORE PUSH3 0x10000 DUP4 DIV DUP3 AND ISZERO ISZERO PUSH1 0xA0 DUP6 ADD MSTORE PUSH4 0x1000000 SWAP1 SWAP3 DIV DUP2 AND PUSH1 0xC0 DUP5 ADD MSTORE PUSH1 0x4 DUP5 ADD SLOAD PUSH1 0xE0 DUP5 ADD MSTORE PUSH1 0x5 SWAP1 SWAP4 ADD SLOAD SWAP1 SWAP3 AND ISZERO ISZERO SWAP2 DUP2 ADD SWAP2 SWAP1 SWAP2 MSTORE DUP1 MLOAD MLOAD DUP4 AND DUP3 MSTORE PUSH1 0xB SWAP1 SWAP5 MSTORE SWAP2 SWAP1 SWAP2 KECCAK256 SLOAD SWAP2 SWAP3 POP AND CALLER EQ DUP1 PUSH2 0x1DBE JUMPI POP PUSH1 0x20 DUP2 DUP2 ADD MLOAD MLOAD PUSH1 0x1 PUSH1 0x1 PUSH1 0xA0 SHL SUB SWAP1 DUP2 AND PUSH0 SWAP1 DUP2 MSTORE PUSH1 0xB SWAP1 SWAP3 MSTORE PUSH1 0x40 SWAP1 SWAP2 KECCAK256 SLOAD AND CALLER EQ JUMPDEST PUSH2 0x1DDA JUMPI PUSH1 0x40 MLOAD PUSH3 0x461BCD PUSH1 0xE5 SHL DUP2 MSTORE PUSH1 0x4 ADD PUSH2 0x64A SWAP1 PUSH2 0x3671 JUMP JUMPDEST PUSH0 PUSH2 0x1DE4 CALLER PUSH2 0x2394 JUMP JUMPDEST PUSH1 0x1 PUSH1 0x1 PUSH1 0xA0 SHL SUB DUP1 DUP3 AND PUSH0 SWAP1 DUP2 MSTORE PUSH1 0xD PUSH1 0x20 SWAP1 DUP2 MSTORE PUSH1 0x40 DUP1 DUP4 KECCAK256 CALLER DUP1 DUP6 MSTORE PUSH1 0xC SWAP1 SWAP4 MSTORE SWAP3 KECCAK256 SLOAD SWAP4 SWAP5 POP SWAP1 SWAP3 SWAP1 SWAP2 AND SWAP1 SUB PUSH2 0x1E2E JUMPI PUSH1 0x1 DUP2 DUP2 ADD DUP1 SLOAD PUSH1 0xFF NOT AND SWAP1 SWAP2 OR SWAP1 SSTORE PUSH2 0x1E40 JUMP JUMPDEST PUSH1 0x1 DUP2 ADD DUP1 SLOAD PUSH2 0xFF00 NOT AND PUSH2 0x100 OR SWAP1 SSTORE JUMPDEST PUSH1 0x1 DUP2 ADD SLOAD PUSH1 0xFF AND DUP1 ISZERO PUSH2 0x1E5D JUMPI POP PUSH1 0x1 DUP2 ADD SLOAD PUSH2 0x100 SWAP1 DIV PUSH1 0xFF AND JUMPDEST ISZERO PUSH2 0x1B65 JUMPI PUSH32 0xFFACC21903A9DB21C6031D4C12C9825F13AC6469F9B894F7058A45CF1F9A3E8D CALLER PUSH1 0x40 MLOAD PUSH2 0x9D2 SWAP2 SWAP1 PUSH2 0x32DD JUMP JUMPDEST PUSH1 0x1 PUSH1 0x1 PUSH1 0xA0 SHL SUB SWAP2 DUP3 AND PUSH0 SWAP1 DUP2 MSTORE PUSH1 0x5 PUSH1 0x20 SWAP1 DUP2 MSTORE PUSH1 0x40 DUP1 DUP4 KECCAK256 SWAP4 SWAP1 SWAP5 AND DUP3 MSTORE SWAP2 SWAP1 SWAP2 MSTORE KECCAK256 SLOAD PUSH1 0xFF AND SWAP1 JUMP JUMPDEST CALLER PUSH0 PUSH1 0xC PUSH0 PUSH2 0x1ECC DUP5 PUSH2 0x2394 JUMP JUMPDEST PUSH1 0x1 PUSH1 0x1 PUSH1 0xA0 SHL SUB SWAP1 DUP2 AND DUP3 MSTORE PUSH1 0x20 DUP1 DUP4 ADD SWAP4 SWAP1 SWAP4 MSTORE PUSH1 0x40 SWAP2 DUP3 ADD PUSH0 SWAP1 DUP2 KECCAK256 DUP4 MLOAD PUSH2 0x180 DUP2 ADD DUP6 MSTORE DUP2 SLOAD DUP1 DUP6 AND PUSH2 0x120 DUP4 ADD SWAP1 DUP2 MSTORE PUSH1 0x1 PUSH1 0xA0 SHL DUP1 DUP4 DIV PUSH1 0xFF SWAP1 DUP2 AND ISZERO ISZERO PUSH2 0x140 DUP7 ADD MSTORE PUSH1 0x1 PUSH1 0xA8 SHL SWAP4 DUP5 SWAP1 DIV DUP2 AND ISZERO ISZERO PUSH2 0x160 DUP7 ADD MSTORE SWAP2 DUP5 MSTORE DUP8 MLOAD PUSH1 0x60 DUP1 DUP3 ADD DUP11 MSTORE PUSH1 0x1 DUP8 ADD SLOAD DUP1 DUP11 AND DUP4 MSTORE SWAP3 DUP4 DIV DUP5 AND ISZERO ISZERO DUP3 DUP13 ADD MSTORE SWAP4 SWAP1 SWAP2 DIV DUP3 AND ISZERO ISZERO DUP2 DUP10 ADD MSTORE DUP4 DUP10 ADD MSTORE PUSH1 0x2 DUP5 ADD SLOAD DUP4 DUP9 ADD MSTORE PUSH1 0x3 DUP5 ADD SLOAD DUP1 DUP3 AND ISZERO ISZERO SWAP3 DUP5 ADD SWAP3 SWAP1 SWAP3 MSTORE PUSH2 0x100 DUP1 DUP4 DIV DUP3 AND ISZERO ISZERO PUSH1 0x80 DUP6 ADD MSTORE PUSH3 0x10000 DUP4 DIV DUP3 AND ISZERO ISZERO PUSH1 0xA0 DUP6 ADD MSTORE PUSH4 0x1000000 SWAP1 SWAP3 DIV DUP2 AND PUSH1 0xC0 DUP5 ADD MSTORE PUSH1 0x4 DUP5 ADD SLOAD PUSH1 0xE0 DUP5 ADD MSTORE PUSH1 0x5 SWAP1 SWAP4 ADD SLOAD SWAP1 SWAP3 AND ISZERO ISZERO SWAP2 DUP2 ADD SWAP2 SWAP1 SWAP2 MSTORE DUP1 MLOAD MLOAD DUP4 AND DUP3 MSTORE PUSH1 0xB SWAP1 SWAP5 MSTORE SWAP2 SWAP1 SWAP2 KECCAK256 SLOAD SWAP2 SWAP3 POP AND CALLER EQ DUP1 PUSH2 0x1FFF JUMPI POP PUSH1 0x20 DUP2 DUP2 ADD MLOAD MLOAD PUSH1 0x1 PUSH1 0x1 PUSH1 0xA0 SHL SUB SWAP1 DUP2 AND PUSH0 SWAP1 DUP2 MSTORE PUSH1 0xB SWAP1 SWAP3 MSTORE PUSH1 0x40 SWAP1 SWAP2 KECCAK256 SLOAD AND CALLER EQ JUMPDEST PUSH2 0x201B JUMPI PUSH1 0x40 MLOAD PUSH3 0x461BCD PUSH1 0xE5 SHL DUP2 MSTORE PUSH1 0x4 ADD PUSH2 0x64A SWAP1 PUSH2 0x3671 JUMP JUMPDEST CALLER PUSH0 DUP2 DUP2 MSTORE PUSH1 0xB PUSH1 0x20 MSTORE PUSH1 0x40 SWAP1 KECCAK256 SLOAD PUSH1 0x1 PUSH1 0xA8 SHL SWAP1 DIV PUSH1 0xFF AND ISZERO PUSH2 0x2051 JUMPI PUSH1 0x40 MLOAD PUSH3 0x461BCD PUSH1 0xE5 SHL DUP2 MSTORE PUSH1 0x4 ADD PUSH2 0x64A SWAP1 PUSH2 0x36BA JUMP JUMPDEST CALLER PUSH0 PUSH1 0xC PUSH0 PUSH2 0x205F DUP5 PUSH2 0x2394 JUMP JUMPDEST PUSH1 0x1 PUSH1 0x1 PUSH1 0xA0 SHL SUB SWAP1 DUP2 AND DUP3 MSTORE PUSH1 0x20 DUP1 DUP4 ADD SWAP4 SWAP1 SWAP4 MSTORE PUSH1 0x40 SWAP2 DUP3 ADD PUSH0 KECCAK256 DUP3 MLOAD PUSH2 0x180 DUP2 ADD DUP5 MSTORE DUP2 SLOAD DUP1 DUP5 AND PUSH2 0x120 DUP4 ADD SWAP1 DUP2 MSTORE PUSH1 0xFF PUSH1 0x1 PUSH1 0xA0 SHL DUP1 DUP5 DIV DUP3 AND ISZERO ISZERO PUSH2 0x140 DUP7 ADD MSTORE PUSH1 0x1 PUSH1 0xA8 SHL SWAP4 DUP5 SWAP1 DIV DUP3 AND ISZERO ISZERO PUSH2 0x160 DUP7 ADD MSTORE SWAP2 DUP5 MSTORE DUP7 MLOAD PUSH1 0x60 DUP2 DUP2 ADD DUP10 MSTORE PUSH1 0x1 DUP8 ADD SLOAD SWAP8 DUP9 AND DUP3 MSTORE SWAP3 DUP8 DIV DUP3 AND ISZERO ISZERO DUP2 DUP11 ADD MSTORE SWAP3 SWAP1 SWAP6 DIV DUP6 AND ISZERO ISZERO DUP3 DUP8 ADD MSTORE SWAP6 DUP3 ADD MSTORE PUSH1 0x2 DUP3 ADD SLOAD SWAP4 DUP2 ADD SWAP4 SWAP1 SWAP4 MSTORE PUSH1 0x3 DUP2 ADD SLOAD DUP1 DUP4 AND ISZERO DUP1 ISZERO SWAP6 DUP6 ADD SWAP6 SWAP1 SWAP6 MSTORE PUSH2 0x100 DUP1 DUP3 DIV DUP5 AND ISZERO ISZERO PUSH1 0x80 DUP7 ADD MSTORE PUSH3 0x10000 DUP3 DIV DUP5 AND ISZERO ISZERO PUSH1 0xA0 DUP7 ADD MSTORE PUSH4 0x1000000 SWAP1 SWAP2 DIV DUP4 AND PUSH1 0xC0 DUP6 ADD MSTORE PUSH1 0x4 DUP3 ADD SLOAD PUSH1 0xE0 DUP6 ADD MSTORE PUSH1 0x5 SWAP1 SWAP2 ADD SLOAD SWAP1 SWAP2 AND ISZERO ISZERO SWAP1 DUP3 ADD MSTORE SWAP2 POP PUSH2 0x219C JUMPI PUSH1 0x40 MLOAD PUSH3 0x461BCD PUSH1 0xE5 SHL DUP2 MSTORE PUSH1 0x20 PUSH1 0x4 DUP3 ADD MSTORE PUSH1 0x1E PUSH1 0x24 DUP3 ADD MSTORE PUSH32 0x4D61727269616765207265766F6B65642064756520746F20766F74696E670000 PUSH1 0x44 DUP3 ADD MSTORE PUSH1 0x64 ADD PUSH2 0x64A JUMP JUMPDEST PUSH2 0x100 DUP2 ADD MLOAD ISZERO PUSH2 0x2201 JUMPI PUSH1 0x40 MLOAD PUSH3 0x461BCD PUSH1 0xE5 SHL DUP2 MSTORE PUSH1 0x20 PUSH1 0x4 DUP3 ADD MSTORE PUSH1 0x29 PUSH1 0x24 DUP3 ADD MSTORE PUSH32 0x4775657374732063616E207374696C6C20766F746520616761696E7374207468 PUSH1 0x44 DUP3 ADD MSTORE PUSH9 0x652077656464696E67 PUSH1 0xB8 SHL PUSH1 0x64 DUP3 ADD MSTORE PUSH1 0x84 ADD PUSH2 0x64A JUMP JUMPDEST PUSH0 PUSH1 0xC PUSH0 PUSH2 0x220E CALLER PUSH2 0x2394 JUMP JUMPDEST PUSH1 0x1 PUSH1 0x1 PUSH1 0xA0 SHL SUB SWAP1 DUP2 AND DUP3 MSTORE PUSH1 0x20 DUP3 ADD SWAP3 SWAP1 SWAP3 MSTORE PUSH1 0x40 ADD PUSH0 KECCAK256 DUP1 SLOAD SWAP1 SWAP3 POP AND CALLER SUB PUSH2 0x2274 JUMPI PUSH1 0x3 DUP2 ADD SLOAD PUSH2 0x100 SWAP1 DIV PUSH1 0xFF AND ISZERO PUSH2 0x225E JUMPI PUSH1 0x40 MLOAD PUSH3 0x461BCD PUSH1 0xE5 SHL DUP2 MSTORE PUSH1 0x4 ADD PUSH2 0x64A SWAP1 PUSH2 0x37EA JUMP JUMPDEST PUSH1 0x3 DUP2 ADD DUP1 SLOAD PUSH2 0xFF00 NOT AND PUSH2 0x100 OR SWAP1 SSTORE PUSH2 0x22C7 JUMP JUMPDEST PUSH1 0x1 DUP2 ADD SLOAD PUSH1 0x1 PUSH1 0x1 PUSH1 0xA0 SHL SUB AND CALLER SUB PUSH2 0x22C7 JUMPI PUSH1 0x3 DUP2 ADD SLOAD PUSH3 0x10000 SWAP1 DIV PUSH1 0xFF AND ISZERO PUSH2 0x22B3 JUMPI PUSH1 0x40 MLOAD PUSH3 0x461BCD PUSH1 0xE5 SHL DUP2 MSTORE PUSH1 0x4 ADD PUSH2 0x64A SWAP1 PUSH2 0x37EA JUMP JUMPDEST PUSH1 0x3 DUP2 ADD DUP1 SLOAD PUSH3 0xFF0000 NOT AND PUSH3 0x10000 OR SWAP1 SSTORE JUMPDEST PUSH1 0x3 DUP2 ADD SLOAD PUSH2 0x100 SWAP1 DIV PUSH1 0xFF AND DUP1 ISZERO PUSH2 0x22EA JUMPI POP PUSH1 0x3 DUP2 ADD SLOAD PUSH3 0x10000 SWAP1 DIV PUSH1 0xFF AND JUMPDEST ISZERO PUSH2 0x22F8 JUMPI PUSH2 0x22F8 DUP2 PUSH2 0x2A98 JUMP JUMPDEST POP POP POP POP POP POP JUMP JUMPDEST PUSH0 PUSH1 0x1 PUSH1 0x1 PUSH1 0xE0 SHL SUB NOT DUP3 AND PUSH4 0x80AC58CD PUSH1 0xE0 SHL EQ DUP1 PUSH2 0x2330 JUMPI POP PUSH1 0x1 PUSH1 0x1 PUSH1 0xE0 SHL SUB NOT DUP3 AND PUSH4 0x5B5E139F PUSH1 0xE0 SHL EQ JUMPDEST DUP1 PUSH2 0x523 JUMPI POP PUSH4 0x1FFC9A7 PUSH1 0xE0 SHL PUSH1 0x1 PUSH1 0x1 PUSH1 0xE0 SHL SUB NOT DUP4 AND EQ PUSH2 0x523 JUMP JUMPDEST PUSH0 DUP2 DUP2 MSTORE PUSH1 0x2 PUSH1 0x20 MSTORE PUSH1 0x40 DUP2 KECCAK256 SLOAD PUSH1 0x1 PUSH1 0x1 PUSH1 0xA0 SHL SUB AND DUP1 PUSH2 0x523 JUMPI PUSH1 0x40 MLOAD PUSH4 0x7E273289 PUSH1 0xE0 SHL DUP2 MSTORE PUSH1 0x4 DUP2 ADD DUP5 SWAP1 MSTORE PUSH1 0x24 ADD PUSH2 0x64A JUMP JUMPDEST PUSH2 0x6C2 DUP4 DUP4 DUP4 PUSH1 0x1 PUSH2 0x2B62 JUMP JUMPDEST PUSH1 0x1 PUSH1 0x1 PUSH1 0xA0 SHL SUB SWAP1 DUP2 AND PUSH0 SWAP1 DUP2 MSTORE PUSH1 0xC PUSH1 0x20 SWAP1 DUP2 MSTORE PUSH1 0x40 SWAP2 DUP3 SWAP1 KECCAK256 DUP3 MLOAD PUSH2 0x180 DUP2 ADD DUP5 MSTORE DUP2 SLOAD DUP1 DUP7 AND PUSH2 0x120 DUP4 ADD SWAP1 DUP2 MSTORE PUSH1 0x1 PUSH1 0xA0 SHL DUP1 DUP4 DIV PUSH1 0xFF SWAP1 DUP2 AND ISZERO ISZERO PUSH2 0x140 DUP7 ADD MSTORE PUSH1 0x1 PUSH1 0xA8 SHL SWAP4 DUP5 SWAP1 DIV DUP2 AND ISZERO ISZERO PUSH2 0x160 DUP7 ADD MSTORE SWAP2 DUP5 MSTORE DUP7 MLOAD PUSH1 0x60 DUP1 DUP3 ADD DUP10 MSTORE PUSH1 0x1 DUP8 ADD SLOAD SWAP10 DUP11 AND DUP3 MSTORE SWAP2 DUP10 DIV DUP4 AND ISZERO ISZERO DUP2 DUP9 ADD MSTORE SWAP3 SWAP1 SWAP8 DIV DUP2 AND ISZERO ISZERO DUP3 DUP8 ADD MSTORE SWAP4 DUP3 ADD MSTORE PUSH1 0x2 DUP3 ADD SLOAD SWAP4 DUP2 ADD SWAP4 SWAP1 SWAP4 MSTORE PUSH1 0x3 DUP2 ADD SLOAD DUP1 DUP4 AND ISZERO ISZERO SWAP5 DUP5 ADD SWAP5 SWAP1 SWAP5 MSTORE PUSH2 0x100 DUP1 DUP6 DIV DUP4 AND ISZERO ISZERO PUSH1 0x80 DUP6 ADD MSTORE PUSH3 0x10000 DUP6 DIV DUP4 AND ISZERO ISZERO PUSH1 0xA0 DUP6 ADD MSTORE PUSH4 0x1000000 SWAP1 SWAP5 DIV DUP3 AND PUSH1 0xC0 DUP5 ADD MSTORE PUSH1 0x4 DUP2 ADD SLOAD PUSH1 0xE0 DUP5 ADD MSTORE PUSH1 0x5 ADD SLOAD AND ISZERO ISZERO SWAP2 DUP2 ADD SWAP2 SWAP1 SWAP2 MSTORE MLOAD MLOAD SWAP1 JUMP JUMPDEST DUP1 PUSH0 PUSH1 0xC PUSH0 PUSH2 0x2494 DUP5 PUSH2 0x2394 JUMP JUMPDEST PUSH1 0x1 PUSH1 0x1 PUSH1 0xA0 SHL SUB SWAP1 DUP2 AND DUP3 MSTORE PUSH1 0x20 DUP1 DUP4 ADD SWAP4 SWAP1 SWAP4 MSTORE PUSH1 0x40 SWAP2 DUP3 ADD PUSH0 SWAP1 DUP2 KECCAK256 DUP4 MLOAD PUSH2 0x180 DUP2 ADD DUP6 MSTORE DUP2 SLOAD DUP1 DUP6 AND PUSH2 0x120 DUP4 ADD SWAP1 DUP2 MSTORE PUSH1 0x1 PUSH1 0xA0 SHL DUP1 DUP4 DIV PUSH1 0xFF SWAP1 DUP2 AND ISZERO ISZERO PUSH2 0x140 DUP7 ADD MSTORE PUSH1 0x1 PUSH1 0xA8 SHL SWAP4 DUP5 SWAP1 DIV DUP2 AND ISZERO ISZERO PUSH2 0x160 DUP7 ADD MSTORE SWAP2 DUP5 MSTORE DUP8 MLOAD PUSH1 0x60 DUP1 DUP3 ADD DUP11 MSTORE PUSH1 0x1 DUP8 ADD SLOAD DUP1 DUP11 AND DUP4 MSTORE SWAP3 DUP4 DIV DUP5 AND ISZERO ISZERO DUP3 DUP13 ADD MSTORE SWAP4 SWAP1 SWAP2 DIV DUP3 AND ISZERO ISZERO DUP2 DUP10 ADD MSTORE DUP4 DUP10 ADD MSTORE PUSH1 0x2 DUP5 ADD SLOAD DUP4 DUP9 ADD MSTORE PUSH1 0x3 DUP5 ADD SLOAD DUP1 DUP3 AND ISZERO ISZERO SWAP3 DUP5 ADD SWAP3 SWAP1 SWAP3 MSTORE PUSH2 0x100 DUP1 DUP4 DIV DUP3 AND ISZERO ISZERO PUSH1 0x80 DUP6 ADD MSTORE PUSH3 0x10000 DUP4 DIV DUP3 AND ISZERO ISZERO PUSH1 0xA0 DUP6 ADD MSTORE PUSH4 0x1000000 SWAP1 SWAP3 DIV DUP2 AND PUSH1 0xC0 DUP5 ADD MSTORE PUSH1 0x4 DUP5 ADD SLOAD PUSH1 0xE0 DUP5 ADD MSTORE PUSH1 0x5 SWAP1 SWAP4 ADD SLOAD SWAP1 SWAP3 AND ISZERO ISZERO SWAP2 DUP2 ADD SWAP2 SWAP1 SWAP2 MSTORE DUP1 MLOAD MLOAD DUP4 AND DUP3 MSTORE PUSH1 0xB SWAP1 SWAP5 MSTORE SWAP2 SWAP1 SWAP2 KECCAK256 SLOAD SWAP2 SWAP3 POP AND CALLER EQ DUP1 PUSH2 0x25C7 JUMPI POP PUSH1 0x20 DUP2 DUP2 ADD MLOAD MLOAD PUSH1 0x1 PUSH1 0x1 PUSH1 0xA0 SHL SUB SWAP1 DUP2 AND PUSH0 SWAP1 DUP2 MSTORE PUSH1 0xB SWAP1 SWAP3 MSTORE PUSH1 0x40 SWAP1 SWAP2 KECCAK256 SLOAD AND CALLER EQ JUMPDEST PUSH2 0x25E3 JUMPI PUSH1 0x40 MLOAD PUSH3 0x461BCD PUSH1 0xE5 SHL DUP2 MSTORE PUSH1 0x4 ADD PUSH2 0x64A SWAP1 PUSH2 0x3671 JUMP JUMPDEST PUSH0 PUSH1 0xC PUSH0 PUSH2 0x25F0 DUP7 PUSH2 0x2394 JUMP JUMPDEST PUSH1 0x1 PUSH1 0x1 PUSH1 0xA0 SHL SUB AND DUP2 MSTORE PUSH1 0x20 DUP2 ADD SWAP2 SWAP1 SWAP2 MSTORE PUSH1 0x40 ADD PUSH0 KECCAK256 TIMESTAMP PUSH1 0x4 DUP3 ADD SSTORE PUSH1 0x5 ADD DUP1 SLOAD PUSH1 0xFF NOT AND PUSH1 0x1 OR SWAP1 SSTORE POP POP POP POP JUMP JUMPDEST PUSH0 PUSH2 0x262E PUSH0 DUP4 PUSH0 PUSH2 0x2C5D JUMP JUMPDEST SWAP1 POP PUSH1 0x1 PUSH1 0x1 PUSH1 0xA0 SHL SUB DUP2 AND PUSH2 0x5EA JUMPI PUSH1 0x40 MLOAD PUSH4 0x7E273289 PUSH1 0xE0 SHL DUP2 MSTORE PUSH1 0x4 DUP2 ADD DUP4 SWAP1 MSTORE PUSH1 0x24 ADD PUSH2 0x64A JUMP JUMPDEST PUSH0 DUP1 PUSH2 0x2665 DUP5 PUSH2 0x2394 JUMP JUMPDEST PUSH1 0x1 PUSH1 0x1 PUSH1 0xA0 SHL SUB DUP2 AND PUSH0 SWAP1 DUP2 MSTORE PUSH1 0xD PUSH1 0x20 MSTORE PUSH1 0x40 SWAP1 KECCAK256 PUSH1 0x1 DUP2 ADD SLOAD SWAP2 SWAP3 POP SWAP1 PUSH1 0xFF AND DUP1 ISZERO PUSH2 0x269D JUMPI POP PUSH1 0x1 DUP2 ADD SLOAD PUSH2 0x100 SWAP1 DIV PUSH1 0xFF AND JUMPDEST ISZERO PUSH2 0x270A JUMPI PUSH0 JUMPDEST DUP2 SLOAD PUSH1 0xFF DUP3 AND LT ISZERO PUSH2 0x2708 JUMPI DUP5 PUSH1 0x1 PUSH1 0x1 PUSH1 0xA0 SHL SUB AND DUP3 PUSH0 ADD DUP3 PUSH1 0xFF AND DUP2 SLOAD DUP2 LT PUSH2 0x26D1 JUMPI PUSH2 0x26D1 PUSH2 0x361B JUMP JUMPDEST PUSH0 SWAP2 DUP3 MSTORE PUSH1 0x20 SWAP1 SWAP2 KECCAK256 ADD SLOAD PUSH1 0x1 PUSH1 0x1 PUSH1 0xA0 SHL SUB AND SUB PUSH2 0x26F6 JUMPI PUSH1 0x1 SWAP4 POP POP POP POP PUSH2 0x523 JUMP JUMPDEST DUP1 PUSH2 0x2700 DUP2 PUSH2 0x3815 JUMP JUMPDEST SWAP2 POP POP PUSH2 0x26A4 JUMP JUMPDEST POP JUMPDEST POP PUSH0 SWAP5 SWAP4 POP POP POP POP JUMP JUMPDEST PUSH0 PUSH2 0x271E DUP3 PUSH2 0x2394 JUMP JUMPDEST PUSH1 0x1 PUSH1 0x1 PUSH1 0xA0 SHL SUB DUP2 AND PUSH0 SWAP1 DUP2 MSTORE PUSH1 0xD PUSH1 0x20 MSTORE PUSH1 0x40 DUP2 KECCAK256 SWAP2 SWAP3 POP PUSH1 0xC DUP2 PUSH2 0x2744 DUP7 PUSH2 0x2394 JUMP JUMPDEST PUSH1 0x1 PUSH1 0x1 PUSH1 0xA0 SHL SUB AND DUP2 MSTORE PUSH1 0x20 DUP2 ADD SWAP2 SWAP1 SWAP2 MSTORE PUSH1 0x40 ADD PUSH0 SWAP1 DUP2 KECCAK256 DUP4 SLOAD SWAP1 SWAP3 POP SWAP1 PUSH1 0x2 PUSH2 0x2771 DUP4 PUSH1 0x1 PUSH2 0x3778 JUMP JUMPDEST PUSH2 0x277B SWAP2 SWAP1 PUSH2 0x3833 JUMP JUMPDEST SWAP1 POP DUP1 DUP5 PUSH1 0x3 ADD SLOAD LT PUSH2 0x22F8 JUMPI PUSH1 0x3 DUP4 ADD DUP1 SLOAD PUSH1 0xFF NOT AND PUSH1 0x1 SWAP1 DUP2 OR SWAP1 SWAP2 SSTORE DUP4 SLOAD PUSH1 0x1 PUSH1 0x1 PUSH1 0xA0 SHL SUB SWAP1 DUP2 AND PUSH0 SWAP1 DUP2 MSTORE PUSH1 0xB PUSH1 0x20 MSTORE PUSH1 0x40 DUP1 DUP3 KECCAK256 DUP1 SLOAD PUSH1 0xFF PUSH1 0xA0 SHL NOT SWAP1 DUP2 AND SWAP1 SWAP2 SSTORE SWAP4 DUP8 ADD SLOAD DUP4 AND DUP3 MSTORE SWAP1 DUP2 SWAP1 KECCAK256 DUP1 SLOAD SWAP1 SWAP4 AND SWAP1 SWAP3 SSTORE DUP5 SLOAD SWAP2 MLOAD PUSH32 0xCA5145A860413368885BD057FA646C0895A34D43C6F7C897FC1954CF51C33045 SWAP3 PUSH2 0x2808 SWAP3 AND SWAP1 PUSH2 0x32DD JUMP JUMPDEST PUSH1 0x40 MLOAD DUP1 SWAP2 SUB SWAP1 LOG1 PUSH1 0x1 DUP4 ADD SLOAD PUSH1 0x40 MLOAD PUSH32 0xCA5145A860413368885BD057FA646C0895A34D43C6F7C897FC1954CF51C33045 SWAP2 PUSH2 0x284F SWAP2 PUSH1 0x1 PUSH1 0x1 PUSH1 0xA0 SHL SUB SWAP1 SWAP2 AND SWAP1 PUSH2 0x32DD JUMP JUMPDEST PUSH1 0x40 MLOAD DUP1 SWAP2 SUB SWAP1 LOG1 POP POP POP POP POP POP JUMP JUMPDEST PUSH1 0x1 PUSH1 0x1 PUSH1 0xA0 SHL SUB DUP3 AND PUSH2 0x2888 JUMPI DUP2 PUSH1 0x40 MLOAD PUSH4 0xB611743 PUSH1 0xE3 SHL DUP2 MSTORE PUSH1 0x4 ADD PUSH2 0x64A SWAP2 SWAP1 PUSH2 0x32DD JUMP JUMPDEST PUSH1 0x1 PUSH1 0x1 PUSH1 0xA0 SHL SUB DUP4 DUP2 AND PUSH0 DUP2 DUP2 MSTORE PUSH1 0x5 PUSH1 0x20 SWAP1 DUP2 MSTORE PUSH1 0x40 DUP1 DUP4 KECCAK256 SWAP5 DUP8 AND DUP1 DUP5 MSTORE SWAP5 DUP3 MSTORE SWAP2 DUP3 SWAP1 KECCAK256 DUP1 SLOAD PUSH1 0xFF NOT AND DUP7 ISZERO ISZERO SWAP1 DUP2 OR SWAP1 SWAP2 SSTORE SWAP2 MLOAD SWAP2 DUP3 MSTORE PUSH32 0x17307EAB39AB6107E8899845AD3D59BD9653F200F220920489CA2B5937696C31 SWAP2 ADD PUSH1 0x40 MLOAD DUP1 SWAP2 SUB SWAP1 LOG3 POP POP POP JUMP JUMPDEST PUSH1 0x1 PUSH1 0x1 PUSH1 0xA0 SHL SUB DUP4 AND EXTCODESIZE ISZERO PUSH2 0x1B65 JUMPI PUSH1 0x40 MLOAD PUSH4 0xA85BD01 PUSH1 0xE1 SHL DUP2 MSTORE PUSH1 0x1 PUSH1 0x1 PUSH1 0xA0 SHL SUB DUP5 AND SWAP1 PUSH4 0x150B7A02 SWAP1 PUSH2 0x2936 SWAP1 CALLER SWAP1 DUP9 SWAP1 DUP8 SWAP1 DUP8 SWAP1 PUSH1 0x4 ADD PUSH2 0x3852 JUMP JUMPDEST PUSH1 0x20 PUSH1 0x40 MLOAD DUP1 DUP4 SUB DUP2 PUSH0 DUP8 GAS CALL SWAP3 POP POP POP DUP1 ISZERO PUSH2 0x2970 JUMPI POP PUSH1 0x40 DUP1 MLOAD PUSH1 0x1F RETURNDATASIZE SWAP1 DUP2 ADD PUSH1 0x1F NOT AND DUP3 ADD SWAP1 SWAP3 MSTORE PUSH2 0x296D SWAP2 DUP2 ADD SWAP1 PUSH2 0x388E JUMP JUMPDEST PUSH1 0x1 JUMPDEST PUSH2 0x29CE JUMPI RETURNDATASIZE DUP1 DUP1 ISZERO PUSH2 0x299D JUMPI PUSH1 0x40 MLOAD SWAP2 POP PUSH1 0x1F NOT PUSH1 0x3F RETURNDATASIZE ADD AND DUP3 ADD PUSH1 0x40 MSTORE RETURNDATASIZE DUP3 MSTORE RETURNDATASIZE PUSH0 PUSH1 0x20 DUP5 ADD RETURNDATACOPY PUSH2 0x29A2 JUMP JUMPDEST PUSH1 0x60 SWAP2 POP JUMPDEST POP DUP1 MLOAD PUSH0 SUB PUSH2 0x29C6 JUMPI DUP4 PUSH1 0x40 MLOAD PUSH4 0x32505749 PUSH1 0xE1 SHL DUP2 MSTORE PUSH1 0x4 ADD PUSH2 0x64A SWAP2 SWAP1 PUSH2 0x32DD JUMP JUMPDEST DUP1 MLOAD DUP2 PUSH1 0x20 ADD REVERT JUMPDEST PUSH1 0x1 PUSH1 0x1 PUSH1 0xE0 SHL SUB NOT DUP2 AND PUSH4 0xA85BD01 PUSH1 0xE1 SHL EQ PUSH2 0x2A01 JUMPI DUP4 PUSH1 0x40 MLOAD PUSH4 0x32505749 PUSH1 0xE1 SHL DUP2 MSTORE PUSH1 0x4 ADD PUSH2 0x64A SWAP2 SWAP1 PUSH2 0x32DD JUMP JUMPDEST POP POP POP POP POP JUMP JUMPDEST PUSH1 0x60 PUSH0 PUSH2 0x2A14 DUP4 PUSH2 0x2D30 JUMP JUMPDEST PUSH1 0x1 ADD SWAP1 POP PUSH0 DUP2 PUSH8 0xFFFFFFFFFFFFFFFF DUP2 GT ISZERO PUSH2 0x2A33 JUMPI PUSH2 0x2A33 PUSH2 0x34B0 JUMP JUMPDEST PUSH1 0x40 MLOAD SWAP1 DUP1 DUP3 MSTORE DUP1 PUSH1 0x1F ADD PUSH1 0x1F NOT AND PUSH1 0x20 ADD DUP3 ADD PUSH1 0x40 MSTORE DUP1 ISZERO PUSH2 0x2A5D JUMPI PUSH1 0x20 DUP3 ADD DUP2 DUP1 CALLDATASIZE DUP4 CALLDATACOPY ADD SWAP1 POP JUMPDEST POP SWAP1 POP DUP2 DUP2 ADD PUSH1 0x20 ADD JUMPDEST PUSH0 NOT ADD PUSH16 0x181899199A1A9B1B9C1CB0B131B232B3 PUSH1 0x81 SHL PUSH1 0xA DUP7 MOD BYTE DUP2 MSTORE8 PUSH1 0xA DUP6 DIV SWAP5 POP DUP5 PUSH2 0x2A67 JUMPI POP SWAP4 SWAP3 POP POP POP JUMP JUMPDEST DUP1 SLOAD PUSH1 0x1 PUSH1 0x1 PUSH1 0xA0 SHL SUB SWAP1 DUP2 AND PUSH0 SWAP1 DUP2 MSTORE PUSH1 0xB PUSH1 0x20 SWAP1 DUP2 MSTORE PUSH1 0x40 DUP1 DUP4 KECCAK256 DUP1 SLOAD PUSH1 0x1 PUSH1 0xA8 SHL PUSH1 0xFF PUSH1 0xA8 SHL NOT SWAP2 DUP3 AND DUP2 OR SWAP1 SWAP3 SSTORE PUSH1 0x1 DUP8 ADD DUP1 SLOAD DUP8 AND DUP7 MSTORE SWAP5 DUP4 SWAP1 KECCAK256 DUP1 SLOAD SWAP1 SWAP2 AND SWAP1 SWAP2 OR SWAP1 SSTORE DUP5 SLOAD SWAP3 SLOAD DUP2 MLOAD SWAP4 DUP6 AND DUP5 MSTORE SWAP1 SWAP4 AND SWAP1 DUP3 ADD MSTORE PUSH32 0x5C8EC7A25A142B043EE1D70B00B983786A266CED5B4E6B540DDC769276626819 SWAP2 ADD PUSH1 0x40 MLOAD DUP1 SWAP2 SUB SWAP1 LOG1 DUP1 SLOAD PUSH2 0x2B47 SWAP1 PUSH1 0x1 PUSH1 0x1 PUSH1 0xA0 SHL SUB AND PUSH2 0x2B37 PUSH1 0x8 SLOAD SWAP1 JUMP JUMPDEST PUSH2 0x2B42 SWAP1 PUSH1 0x1 PUSH2 0x3778 JUMP JUMPDEST PUSH2 0x2E07 JUMP JUMPDEST PUSH1 0x1 DUP2 ADD SLOAD PUSH2 0xFC0 SWAP1 PUSH1 0x1 PUSH1 0x1 PUSH1 0xA0 SHL SUB AND PUSH2 0x2B37 PUSH1 0x8 SLOAD SWAP1 JUMP JUMPDEST DUP1 DUP1 PUSH2 0x2B76 JUMPI POP PUSH1 0x1 PUSH1 0x1 PUSH1 0xA0 SHL SUB DUP3 AND ISZERO ISZERO JUMPDEST ISZERO PUSH2 0x2C2E JUMPI PUSH0 PUSH2 0x2B85 DUP5 PUSH2 0x234F JUMP JUMPDEST SWAP1 POP PUSH1 0x1 PUSH1 0x1 PUSH1 0xA0 SHL SUB DUP4 AND ISZERO DUP1 ISZERO SWAP1 PUSH2 0x2BB1 JUMPI POP DUP3 PUSH1 0x1 PUSH1 0x1 PUSH1 0xA0 SHL SUB AND DUP2 PUSH1 0x1 PUSH1 0x1 PUSH1 0xA0 SHL SUB AND EQ ISZERO JUMPDEST DUP1 ISZERO PUSH2 0x2BC4 JUMPI POP PUSH2 0x2BC2 DUP2 DUP5 PUSH2 0x1E91 JUMP JUMPDEST ISZERO JUMPDEST ISZERO PUSH2 0x2BE4 JUMPI DUP3 PUSH1 0x40 MLOAD PUSH4 0xA9FBF51F PUSH1 0xE0 SHL DUP2 MSTORE PUSH1 0x4 ADD PUSH2 0x64A SWAP2 SWAP1 PUSH2 0x32DD JUMP JUMPDEST DUP2 ISZERO PUSH2 0x2C2C JUMPI DUP4 DUP6 PUSH1 0x1 PUSH1 0x1 PUSH1 0xA0 SHL SUB AND DUP3 PUSH1 0x1 PUSH1 0x1 PUSH1 0xA0 SHL SUB AND PUSH32 0x8C5BE1E5EBEC7D5BD14F71427D1E84F3DD0314C0F7B2291E5B200AC8C7C3B925 PUSH1 0x40 MLOAD PUSH1 0x40 MLOAD DUP1 SWAP2 SUB SWAP1 LOG4 JUMPDEST POP JUMPDEST POP POP PUSH0 SWAP1 DUP2 MSTORE PUSH1 0x4 PUSH1 0x20 MSTORE PUSH1 0x40 SWAP1 KECCAK256 DUP1 SLOAD PUSH1 0x1 PUSH1 0x1 PUSH1 0xA0 SHL SUB NOT AND PUSH1 0x1 PUSH1 0x1 PUSH1 0xA0 SHL SUB SWAP3 SWAP1 SWAP3 AND SWAP2 SWAP1 SWAP2 OR SWAP1 SSTORE JUMP JUMPDEST PUSH0 DUP1 PUSH2 0x2C6A DUP6 DUP6 DUP6 PUSH2 0x2E20 JUMP JUMPDEST SWAP1 POP PUSH1 0x1 PUSH1 0x1 PUSH1 0xA0 SHL SUB DUP2 AND PUSH2 0x2CC6 JUMPI PUSH2 0x2CC1 DUP5 PUSH1 0x8 DUP1 SLOAD PUSH0 DUP4 DUP2 MSTORE PUSH1 0x9 PUSH1 0x20 MSTORE PUSH1 0x40 DUP2 KECCAK256 DUP3 SWAP1 SSTORE PUSH1 0x1 DUP3 ADD DUP4 SSTORE SWAP2 SWAP1 SWAP2 MSTORE PUSH32 0xF3F7A9FE364FAAB93B216DA50A3214154F22A0A2B415B23A84C8169E8B636EE3 ADD SSTORE JUMP JUMPDEST PUSH2 0x2CE9 JUMP JUMPDEST DUP5 PUSH1 0x1 PUSH1 0x1 PUSH1 0xA0 SHL SUB AND DUP2 PUSH1 0x1 PUSH1 0x1 PUSH1 0xA0 SHL SUB AND EQ PUSH2 0x2CE9 JUMPI PUSH2 0x2CE9 DUP2 DUP6 PUSH2 0x2F12 JUMP JUMPDEST PUSH1 0x1 PUSH1 0x1 PUSH1 0xA0 SHL SUB DUP6 AND PUSH2 0x2D05 JUMPI PUSH2 0x2D00 DUP5 PUSH2 0x2F9F JUMP JUMPDEST PUSH2 0x2D28 JUMP JUMPDEST DUP5 PUSH1 0x1 PUSH1 0x1 PUSH1 0xA0 SHL SUB AND DUP2 PUSH1 0x1 PUSH1 0x1 PUSH1 0xA0 SHL SUB AND EQ PUSH2 0x2D28 JUMPI PUSH2 0x2D28 DUP6 DUP6 PUSH2 0x3046 JUMP JUMPDEST SWAP5 SWAP4 POP POP POP POP JUMP JUMPDEST PUSH0 DUP1 PUSH19 0x184F03E93FF9F4DAA797ED6E38ED64BF6A1F01 PUSH1 0x40 SHL DUP4 LT PUSH2 0x2D6E JUMPI PUSH19 0x184F03E93FF9F4DAA797ED6E38ED64BF6A1F01 PUSH1 0x40 SHL DUP4 DIV SWAP3 POP PUSH1 0x40 ADD JUMPDEST PUSH14 0x4EE2D6D415B85ACEF8100000000 DUP4 LT PUSH2 0x2D9A JUMPI PUSH14 0x4EE2D6D415B85ACEF8100000000 DUP4 DIV SWAP3 POP PUSH1 0x20 ADD JUMPDEST PUSH7 0x2386F26FC10000 DUP4 LT PUSH2 0x2DB8 JUMPI PUSH7 0x2386F26FC10000 DUP4 DIV SWAP3 POP PUSH1 0x10 ADD JUMPDEST PUSH4 0x5F5E100 DUP4 LT PUSH2 0x2DD0 JUMPI PUSH4 0x5F5E100 DUP4 DIV SWAP3 POP PUSH1 0x8 ADD JUMPDEST PUSH2 0x2710 DUP4 LT PUSH2 0x2DE4 JUMPI PUSH2 0x2710 DUP4 DIV SWAP3 POP PUSH1 0x4 ADD JUMPDEST PUSH1 0x64 DUP4 LT PUSH2 0x2DF6 JUMPI PUSH1 0x64 DUP4 DIV SWAP3 POP PUSH1 0x2 ADD JUMPDEST PUSH1 0xA DUP4 LT PUSH2 0x523 JUMPI PUSH1 0x1 ADD SWAP3 SWAP2 POP POP JUMP JUMPDEST PUSH2 0x5EA DUP3 DUP3 PUSH1 0x40 MLOAD DUP1 PUSH1 0x20 ADD PUSH1 0x40 MSTORE DUP1 PUSH0 DUP2 MSTORE POP PUSH2 0x3094 JUMP JUMPDEST PUSH0 DUP3 DUP2 MSTORE PUSH1 0x2 PUSH1 0x20 MSTORE PUSH1 0x40 DUP2 KECCAK256 SLOAD PUSH1 0x1 PUSH1 0x1 PUSH1 0xA0 SHL SUB SWAP1 DUP2 AND SWAP1 DUP4 AND ISZERO PUSH2 0x2E4C JUMPI PUSH2 0x2E4C DUP2 DUP5 DUP7 PUSH2 0x30AA JUMP JUMPDEST PUSH1 0x1 PUSH1 0x1 PUSH1 0xA0 SHL SUB DUP2 AND ISZERO PUSH2 0x2E86 JUMPI PUSH2 0x2E67 PUSH0 DUP6 PUSH0 DUP1 PUSH2 0x2B62 JUMP JUMPDEST PUSH1 0x1 PUSH1 0x1 PUSH1 0xA0 SHL SUB DUP2 AND PUSH0 SWAP1 DUP2 MSTORE PUSH1 0x3 PUSH1 0x20 MSTORE PUSH1 0x40 SWAP1 KECCAK256 DUP1 SLOAD PUSH0 NOT ADD SWAP1 SSTORE JUMPDEST PUSH1 0x1 PUSH1 0x1 PUSH1 0xA0 SHL SUB DUP6 AND ISZERO PUSH2 0x2EB4 JUMPI PUSH1 0x1 PUSH1 0x1 PUSH1 0xA0 SHL SUB DUP6 AND PUSH0 SWAP1 DUP2 MSTORE PUSH1 0x3 PUSH1 0x20 MSTORE PUSH1 0x40 SWAP1 KECCAK256 DUP1 SLOAD PUSH1 0x1 ADD SWAP1 SSTORE JUMPDEST PUSH0 DUP5 DUP2 MSTORE PUSH1 0x2 PUSH1 0x20 MSTORE PUSH1 0x40 DUP1 DUP3 KECCAK256 DUP1 SLOAD PUSH1 0x1 PUSH1 0x1 PUSH1 0xA0 SHL SUB NOT AND PUSH1 0x1 PUSH1 0x1 PUSH1 0xA0 SHL SUB DUP10 DUP2 AND SWAP2 DUP3 OR SWAP1 SWAP3 SSTORE SWAP2 MLOAD DUP8 SWAP4 SWAP2 DUP6 AND SWAP2 PUSH32 0xDDF252AD1BE2C89B69C2B068FC378DAA952BA7F163C4A11628F55A4DF523B3EF SWAP2 LOG4 SWAP5 SWAP4 POP POP POP POP JUMP JUMPDEST PUSH0 PUSH2 0x2F1C DUP4 PUSH2 0x9E0 JUMP JUMPDEST PUSH0 DUP4 DUP2 MSTORE PUSH1 0x7 PUSH1 0x20 MSTORE PUSH1 0x40 SWAP1 KECCAK256 SLOAD SWAP1 SWAP2 POP DUP1 DUP3 EQ PUSH2 0x2F6D JUMPI PUSH1 0x1 PUSH1 0x1 PUSH1 0xA0 SHL SUB DUP5 AND PUSH0 SWAP1 DUP2 MSTORE PUSH1 0x6 PUSH1 0x20 SWAP1 DUP2 MSTORE PUSH1 0x40 DUP1 DUP4 KECCAK256 DUP6 DUP5 MSTORE DUP3 MSTORE DUP1 DUP4 KECCAK256 SLOAD DUP5 DUP5 MSTORE DUP2 DUP5 KECCAK256 DUP2 SWAP1 SSTORE DUP4 MSTORE PUSH1 0x7 SWAP1 SWAP2 MSTORE SWAP1 KECCAK256 DUP2 SWAP1 SSTORE JUMPDEST POP PUSH0 SWAP2 DUP3 MSTORE PUSH1 0x7 PUSH1 0x20 SWAP1 DUP2 MSTORE PUSH1 0x40 DUP1 DUP5 KECCAK256 DUP5 SWAP1 SSTORE PUSH1 0x1 PUSH1 0x1 PUSH1 0xA0 SHL SUB SWAP1 SWAP5 AND DUP4 MSTORE PUSH1 0x6 DUP2 MSTORE DUP4 DUP4 KECCAK256 SWAP2 DUP4 MSTORE MSTORE SWAP1 DUP2 KECCAK256 SSTORE JUMP JUMPDEST PUSH1 0x8 SLOAD PUSH0 SWAP1 PUSH2 0x2FB0 SWAP1 PUSH1 0x1 SWAP1 PUSH2 0x38A9 JUMP JUMPDEST PUSH0 DUP4 DUP2 MSTORE PUSH1 0x9 PUSH1 0x20 MSTORE PUSH1 0x40 DUP2 KECCAK256 SLOAD PUSH1 0x8 DUP1 SLOAD SWAP4 SWAP5 POP SWAP1 SWAP3 DUP5 SWAP1 DUP2 LT PUSH2 0x2FD7 JUMPI PUSH2 0x2FD7 PUSH2 0x361B JUMP JUMPDEST SWAP1 PUSH0 MSTORE PUSH1 0x20 PUSH0 KECCAK256 ADD SLOAD SWAP1 POP DUP1 PUSH1 0x8 DUP4 DUP2 SLOAD DUP2 LT PUSH2 0x2FF6 JUMPI PUSH2 0x2FF6 PUSH2 0x361B JUMP JUMPDEST PUSH0 SWAP2 DUP3 MSTORE PUSH1 0x20 DUP1 DUP4 KECCAK256 SWAP1 SWAP2 ADD SWAP3 SWAP1 SWAP3 SSTORE DUP3 DUP2 MSTORE PUSH1 0x9 SWAP1 SWAP2 MSTORE PUSH1 0x40 DUP1 DUP3 KECCAK256 DUP5 SWAP1 SSTORE DUP6 DUP3 MSTORE DUP2 KECCAK256 SSTORE PUSH1 0x8 DUP1 SLOAD DUP1 PUSH2 0x302D JUMPI PUSH2 0x302D PUSH2 0x38BC JUMP JUMPDEST PUSH1 0x1 SWAP1 SUB DUP2 DUP2 SWAP1 PUSH0 MSTORE PUSH1 0x20 PUSH0 KECCAK256 ADD PUSH0 SWAP1 SSTORE SWAP1 SSTORE POP POP POP POP JUMP JUMPDEST PUSH0 PUSH1 0x1 PUSH2 0x3052 DUP5 PUSH2 0x9E0 JUMP JUMPDEST PUSH2 0x305C SWAP2 SWAP1 PUSH2 0x38A9 JUMP JUMPDEST PUSH1 0x1 PUSH1 0x1 PUSH1 0xA0 SHL SUB SWAP1 SWAP4 AND PUSH0 SWAP1 DUP2 MSTORE PUSH1 0x6 PUSH1 0x20 SWAP1 DUP2 MSTORE PUSH1 0x40 DUP1 DUP4 KECCAK256 DUP7 DUP5 MSTORE DUP3 MSTORE DUP1 DUP4 KECCAK256 DUP6 SWAP1 SSTORE SWAP4 DUP3 MSTORE PUSH1 0x7 SWAP1 MSTORE SWAP2 SWAP1 SWAP2 KECCAK256 SWAP2 SWAP1 SWAP2 SSTORE POP JUMP JUMPDEST PUSH2 0x309E DUP4 DUP4 PUSH2 0x3100 JUMP JUMPDEST PUSH2 0x6C2 PUSH0 DUP5 DUP5 DUP5 PUSH2 0x28F4 JUMP JUMPDEST PUSH2 0x30B5 DUP4 DUP4 DUP4 PUSH2 0x3161 JUMP JUMPDEST PUSH2 0x6C2 JUMPI PUSH1 0x1 PUSH1 0x1 PUSH1 0xA0 SHL SUB DUP4 AND PUSH2 0x30E3 JUMPI PUSH1 0x40 MLOAD PUSH4 0x7E273289 PUSH1 0xE0 SHL DUP2 MSTORE PUSH1 0x4 DUP2 ADD DUP3 SWAP1 MSTORE PUSH1 0x24 ADD PUSH2 0x64A JUMP JUMPDEST DUP2 DUP2 PUSH1 0x40 MLOAD PUSH4 0x177E802F PUSH1 0xE0 SHL DUP2 MSTORE PUSH1 0x4 ADD PUSH2 0x64A SWAP3 SWAP2 SWAP1 PUSH2 0x3602 JUMP JUMPDEST PUSH1 0x1 PUSH1 0x1 PUSH1 0xA0 SHL SUB DUP3 AND PUSH2 0x3129 JUMPI PUSH0 PUSH1 0x40 MLOAD PUSH4 0x32505749 PUSH1 0xE1 SHL DUP2 MSTORE PUSH1 0x4 ADD PUSH2 0x64A SWAP2 SWAP1 PUSH2 0x32DD JUMP JUMPDEST PUSH0 PUSH2 0x3135 DUP4 DUP4 PUSH0 PUSH2 0x2C5D JUMP JUMPDEST SWAP1 POP PUSH1 0x1 PUSH1 0x1 PUSH1 0xA0 SHL SUB DUP2 AND ISZERO PUSH2 0x6C2 JUMPI PUSH0 PUSH1 0x40 MLOAD PUSH4 0x39E35637 PUSH1 0xE1 SHL DUP2 MSTORE PUSH1 0x4 ADD PUSH2 0x64A SWAP2 SWAP1 PUSH2 0x32DD JUMP JUMPDEST PUSH0 PUSH1 0x1 PUSH1 0x1 PUSH1 0xA0 SHL SUB DUP4 AND ISZERO DUP1 ISZERO SWAP1 PUSH2 0x2D28 JUMPI POP DUP3 PUSH1 0x1 PUSH1 0x1 PUSH1 0xA0 SHL SUB AND DUP5 PUSH1 0x1 PUSH1 0x1 PUSH1 0xA0 SHL SUB AND EQ DUP1 PUSH2 0x319A JUMPI POP PUSH2 0x319A DUP5 DUP5 PUSH2 0x1E91 JUMP JUMPDEST DUP1 PUSH2 0x2D28 JUMPI POP POP PUSH0 SWAP1 DUP2 MSTORE PUSH1 0x4 PUSH1 0x20 MSTORE PUSH1 0x40 SWAP1 KECCAK256 SLOAD PUSH1 0x1 PUSH1 0x1 PUSH1 0xA0 SHL SUB SWAP1 DUP2 AND SWAP2 AND EQ SWAP2 SWAP1 POP JUMP JUMPDEST DUP3 DUP1 SLOAD DUP3 DUP3 SSTORE SWAP1 PUSH0 MSTORE PUSH1 0x20 PUSH0 KECCAK256 SWAP1 DUP2 ADD SWAP3 DUP3 ISZERO PUSH2 0x3213 JUMPI SWAP2 PUSH1 0x20 MUL DUP3 ADD JUMPDEST DUP3 DUP2 GT ISZERO PUSH2 0x3213 JUMPI DUP2 SLOAD PUSH1 0x1 PUSH1 0x1 PUSH1 0xA0 SHL SUB NOT AND PUSH1 0x1 PUSH1 0x1 PUSH1 0xA0 SHL SUB DUP5 CALLDATALOAD AND OR DUP3 SSTORE PUSH1 0x20 SWAP1 SWAP3 ADD SWAP2 PUSH1 0x1 SWAP1 SWAP2 ADD SWAP1 PUSH2 0x31E0 JUMP JUMPDEST POP PUSH2 0x321F SWAP3 SWAP2 POP PUSH2 0x3223 JUMP JUMPDEST POP SWAP1 JUMP JUMPDEST JUMPDEST DUP1 DUP3 GT ISZERO PUSH2 0x321F JUMPI PUSH0 DUP2 SSTORE PUSH1 0x1 ADD PUSH2 0x3224 JUMP JUMPDEST PUSH1 0x1 PUSH1 0x1 PUSH1 0xE0 SHL SUB NOT DUP2 AND DUP2 EQ PUSH2 0xFC0 JUMPI PUSH0 DUP1 REVERT JUMPDEST PUSH0 PUSH1 0x20 DUP3 DUP5 SUB SLT ISZERO PUSH2 0x325C JUMPI PUSH0 DUP1 REVERT JUMPDEST DUP2 CALLDATALOAD PUSH2 0x1C76 DUP2 PUSH2 0x3237 JUMP JUMPDEST PUSH0 JUMPDEST DUP4 DUP2 LT ISZERO PUSH2 0x3281 JUMPI DUP2 DUP2 ADD MLOAD DUP4 DUP3 ADD MSTORE PUSH1 0x20 ADD PUSH2 0x3269 JUMP JUMPDEST POP POP PUSH0 SWAP2 ADD MSTORE JUMP JUMPDEST PUSH0 DUP2 MLOAD DUP1 DUP5 MSTORE PUSH2 0x32A0 DUP2 PUSH1 0x20 DUP7 ADD PUSH1 0x20 DUP7 ADD PUSH2 0x3267 JUMP JUMPDEST PUSH1 0x1F ADD PUSH1 0x1F NOT AND SWAP3 SWAP1 SWAP3 ADD PUSH1 0x20 ADD SWAP3 SWAP2 POP POP JUMP JUMPDEST PUSH1 0x20 DUP2 MSTORE PUSH0 PUSH2 0x1C76 PUSH1 0x20 DUP4 ADD DUP5 PUSH2 0x3289 JUMP JUMPDEST PUSH0 PUSH1 0x20 DUP3 DUP5 SUB SLT ISZERO PUSH2 0x32D6 JUMPI PUSH0 DUP1 REVERT JUMPDEST POP CALLDATALOAD SWAP2 SWAP1 POP JUMP JUMPDEST PUSH1 0x1 PUSH1 0x1 PUSH1 0xA0 SHL SUB SWAP2 SWAP1 SWAP2 AND DUP2 MSTORE PUSH1 0x20 ADD SWAP1 JUMP JUMPDEST DUP1 CALLDATALOAD PUSH1 0x1 PUSH1 0x1 PUSH1 0xA0 SHL SUB DUP2 AND DUP2 EQ PUSH2 0x3307 JUMPI PUSH0 DUP1 REVERT JUMPDEST SWAP2 SWAP1 POP JUMP JUMPDEST PUSH0 DUP1 PUSH1 0x40 DUP4 DUP6 SUB SLT ISZERO PUSH2 0x331D JUMPI PUSH0 DUP1 REVERT JUMPDEST PUSH2 0x3326 DUP4 PUSH2 0x32F1 JUMP JUMPDEST SWAP5 PUSH1 0x20 SWAP4 SWAP1 SWAP4 ADD CALLDATALOAD SWAP4 POP POP POP JUMP JUMPDEST PUSH0 DUP1 PUSH0 PUSH1 0x60 DUP5 DUP7 SUB SLT ISZERO PUSH2 0x3346 JUMPI PUSH0 DUP1 REVERT JUMPDEST PUSH2 0x334F DUP5 PUSH2 0x32F1 JUMP JUMPDEST SWAP3 POP PUSH2 0x335D PUSH1 0x20 DUP6 ADD PUSH2 0x32F1 JUMP JUMPDEST SWAP2 POP PUSH1 0x40 DUP5 ADD CALLDATALOAD SWAP1 POP SWAP3 POP SWAP3 POP SWAP3 JUMP JUMPDEST PUSH0 PUSH1 0x20 DUP3 DUP5 SUB SLT ISZERO PUSH2 0x337D JUMPI PUSH0 DUP1 REVERT JUMPDEST PUSH2 0x1C76 DUP3 PUSH2 0x32F1 JUMP JUMPDEST PUSH0 DUP1 PUSH1 0x20 DUP4 DUP6 SUB SLT ISZERO PUSH2 0x3397 JUMPI PUSH0 DUP1 REVERT JUMPDEST DUP3 CALLDATALOAD PUSH8 0xFFFFFFFFFFFFFFFF DUP1 DUP3 GT ISZERO PUSH2 0x33AE JUMPI PUSH0 DUP1 REVERT JUMPDEST DUP2 DUP6 ADD SWAP2 POP DUP6 PUSH1 0x1F DUP4 ADD SLT PUSH2 0x33C1 JUMPI PUSH0 DUP1 REVERT JUMPDEST DUP2 CALLDATALOAD DUP2 DUP2 GT ISZERO PUSH2 0x33CF JUMPI PUSH0 DUP1 REVERT JUMPDEST DUP7 PUSH1 0x20 DUP3 PUSH1 0x5 SHL DUP6 ADD ADD GT ISZERO PUSH2 0x33E3 JUMPI PUSH0 DUP1 REVERT JUMPDEST PUSH1 0x20 SWAP3 SWAP1 SWAP3 ADD SWAP7 SWAP2 SWAP6 POP SWAP1 SWAP4 POP POP POP POP JUMP JUMPDEST DUP1 MLOAD PUSH1 0x1 PUSH1 0x1 PUSH1 0xA0 SHL SUB AND DUP3 MSTORE PUSH1 0x20 DUP1 DUP3 ADD MLOAD ISZERO ISZERO SWAP1 DUP4 ADD MSTORE PUSH1 0x40 SWAP1 DUP2 ADD MLOAD ISZERO ISZERO SWAP2 ADD MSTORE JUMP JUMPDEST PUSH2 0x1A0 DUP2 ADD PUSH2 0x342A DUP3 DUP13 PUSH2 0x33F5 JUMP JUMPDEST PUSH2 0x3437 PUSH1 0x60 DUP4 ADD DUP12 PUSH2 0x33F5 JUMP JUMPDEST PUSH1 0xC0 DUP3 ADD SWAP9 SWAP1 SWAP9 MSTORE SWAP6 ISZERO ISZERO PUSH1 0xE0 DUP8 ADD MSTORE SWAP4 ISZERO ISZERO PUSH2 0x100 DUP7 ADD MSTORE SWAP2 ISZERO ISZERO PUSH2 0x120 DUP6 ADD MSTORE PUSH1 0xFF AND PUSH2 0x140 DUP5 ADD MSTORE PUSH2 0x160 DUP4 ADD MSTORE ISZERO ISZERO PUSH2 0x180 SWAP1 SWAP2 ADD MSTORE SWAP3 SWAP2 POP POP JUMP JUMPDEST PUSH0 DUP1 PUSH1 0x40 DUP4 DUP6 SUB SLT ISZERO PUSH2 0x3488 JUMPI PUSH0 DUP1 REVERT JUMPDEST PUSH2 0x3491 DUP4 PUSH2 0x32F1 JUMP JUMPDEST SWAP2 POP PUSH1 0x20 DUP4 ADD CALLDATALOAD DUP1 ISZERO ISZERO DUP2 EQ PUSH2 0x34A5 JUMPI PUSH0 DUP1 REVERT JUMPDEST DUP1 SWAP2 POP POP SWAP3 POP SWAP3 SWAP1 POP JUMP JUMPDEST PUSH4 0x4E487B71 PUSH1 0xE0 SHL PUSH0 MSTORE PUSH1 0x41 PUSH1 0x4 MSTORE PUSH1 0x24 PUSH0 REVERT JUMPDEST PUSH0 DUP1 PUSH0 DUP1 PUSH1 0x80 DUP6 DUP8 SUB SLT ISZERO PUSH2 0x34D7 JUMPI PUSH0 DUP1 REVERT JUMPDEST PUSH2 0x34E0 DUP6 PUSH2 0x32F1 JUMP JUMPDEST SWAP4 POP PUSH2 0x34EE PUSH1 0x20 DUP7 ADD PUSH2 0x32F1 JUMP JUMPDEST SWAP3 POP PUSH1 0x40 DUP6 ADD CALLDATALOAD SWAP2 POP PUSH1 0x60 DUP6 ADD CALLDATALOAD PUSH8 0xFFFFFFFFFFFFFFFF DUP1 DUP3 GT ISZERO PUSH2 0x3511 JUMPI PUSH0 DUP1 REVERT JUMPDEST DUP2 DUP8 ADD SWAP2 POP DUP8 PUSH1 0x1F DUP4 ADD SLT PUSH2 0x3524 JUMPI PUSH0 DUP1 REVERT JUMPDEST DUP2 CALLDATALOAD DUP2 DUP2 GT ISZERO PUSH2 0x3536 JUMPI PUSH2 0x3536 PUSH2 0x34B0 JUMP JUMPDEST PUSH1 0x40 MLOAD PUSH1 0x1F DUP3 ADD PUSH1 0x1F NOT SWAP1 DUP2 AND PUSH1 0x3F ADD AND DUP2 ADD SWAP1 DUP4 DUP3 GT DUP2 DUP4 LT OR ISZERO PUSH2 0x355E JUMPI PUSH2 0x355E PUSH2 0x34B0 JUMP JUMPDEST DUP2 PUSH1 0x40 MSTORE DUP3 DUP2 MSTORE DUP11 PUSH1 0x20 DUP5 DUP8 ADD ADD GT ISZERO PUSH2 0x3576 JUMPI PUSH0 DUP1 REVERT JUMPDEST DUP3 PUSH1 0x20 DUP7 ADD PUSH1 0x20 DUP4 ADD CALLDATACOPY PUSH0 PUSH1 0x20 DUP5 DUP4 ADD ADD MSTORE DUP1 SWAP6 POP POP POP POP POP POP SWAP3 SWAP6 SWAP2 SWAP5 POP SWAP3 POP JUMP JUMPDEST PUSH0 DUP1 PUSH1 0x40 DUP4 DUP6 SUB SLT ISZERO PUSH2 0x35AA JUMPI PUSH0 DUP1 REVERT JUMPDEST PUSH2 0x35B3 DUP4 PUSH2 0x32F1 JUMP JUMPDEST SWAP2 POP PUSH2 0x35C1 PUSH1 0x20 DUP5 ADD PUSH2 0x32F1 JUMP JUMPDEST SWAP1 POP SWAP3 POP SWAP3 SWAP1 POP JUMP JUMPDEST PUSH1 0x1 DUP2 DUP2 SHR SWAP1 DUP3 AND DUP1 PUSH2 0x35DE JUMPI PUSH1 0x7F DUP3 AND SWAP2 POP JUMPDEST PUSH1 0x20 DUP3 LT DUP2 SUB PUSH2 0x35FC JUMPI PUSH4 0x4E487B71 PUSH1 0xE0 SHL PUSH0 MSTORE PUSH1 0x22 PUSH1 0x4 MSTORE PUSH1 0x24 PUSH0 REVERT JUMPDEST POP SWAP2 SWAP1 POP JUMP JUMPDEST PUSH1 0x1 PUSH1 0x1 PUSH1 0xA0 SHL SUB SWAP3 SWAP1 SWAP3 AND DUP3 MSTORE PUSH1 0x20 DUP3 ADD MSTORE PUSH1 0x40 ADD SWAP1 JUMP JUMPDEST PUSH4 0x4E487B71 PUSH1 0xE0 SHL PUSH0 MSTORE PUSH1 0x32 PUSH1 0x4 MSTORE PUSH1 0x24 PUSH0 REVERT JUMPDEST PUSH1 0x20 DUP1 DUP3 MSTORE PUSH1 0x22 SWAP1 DUP3 ADD MSTORE PUSH32 0x54686520656E676167656D656E7420697320616C7265616479207265766F6B65 PUSH1 0x40 DUP3 ADD MSTORE PUSH2 0x3217 PUSH1 0xF1 SHL PUSH1 0x60 DUP3 ADD MSTORE PUSH1 0x80 ADD SWAP1 JUMP JUMPDEST PUSH1 0x20 DUP1 DUP3 MSTORE PUSH1 0x29 SWAP1 DUP3 ADD MSTORE PUSH32 0x43616C6C6572206D757374206265206F6E65206F662074686520656E67616765 PUSH1 0x40 DUP3 ADD MSTORE PUSH9 0x642070617274696573 PUSH1 0xB8 SHL PUSH1 0x60 DUP3 ADD MSTORE PUSH1 0x80 ADD SWAP1 JUMP JUMPDEST PUSH1 0x20 DUP1 DUP3 MSTORE PUSH1 0xF SWAP1 DUP3 ADD MSTORE PUSH15 0x105B1C9958591E481B585C9C9A5959 PUSH1 0x8A SHL PUSH1 0x40 DUP3 ADD MSTORE PUSH1 0x60 ADD SWAP1 JUMP JUMPDEST PUSH1 0x1 PUSH1 0x1 PUSH1 0xA0 SHL SUB DUP5 DUP2 AND DUP3 MSTORE PUSH1 0x40 PUSH1 0x20 DUP1 DUP5 ADD DUP3 SWAP1 MSTORE SWAP1 DUP4 ADD DUP5 SWAP1 MSTORE PUSH0 SWAP2 DUP6 SWAP2 PUSH1 0x60 DUP6 ADD DUP5 JUMPDEST DUP8 DUP2 LT ISZERO PUSH2 0x372F JUMPI DUP4 PUSH2 0x371C DUP7 PUSH2 0x32F1 JUMP JUMPDEST AND DUP3 MSTORE SWAP4 DUP3 ADD SWAP4 SWAP1 DUP3 ADD SWAP1 PUSH1 0x1 ADD PUSH2 0x370A JUMP JUMPDEST POP SWAP9 SWAP8 POP POP POP POP POP POP POP POP JUMP JUMPDEST PUSH1 0x20 DUP1 DUP3 MSTORE PUSH1 0xE SWAP1 DUP3 ADD MSTORE PUSH14 0x139BDD08185D5D1A1BDC9A5E9959 PUSH1 0x92 SHL PUSH1 0x40 DUP3 ADD MSTORE PUSH1 0x60 ADD SWAP1 JUMP JUMPDEST PUSH4 0x4E487B71 PUSH1 0xE0 SHL PUSH0 MSTORE PUSH1 0x11 PUSH1 0x4 MSTORE PUSH1 0x24 PUSH0 REVERT JUMPDEST DUP1 DUP3 ADD DUP1 DUP3 GT ISZERO PUSH2 0x523 JUMPI PUSH2 0x523 PUSH2 0x3764 JUMP JUMPDEST PUSH0 PUSH1 0x1 DUP3 ADD PUSH2 0x379C JUMPI PUSH2 0x379C PUSH2 0x3764 JUMP JUMPDEST POP PUSH1 0x1 ADD SWAP1 JUMP JUMPDEST PUSH1 0xFF DUP2 DUP2 AND DUP4 DUP3 AND ADD SWAP1 DUP2 GT ISZERO PUSH2 0x523 JUMPI PUSH2 0x523 PUSH2 0x3764 JUMP JUMPDEST PUSH0 DUP4 MLOAD PUSH2 0x37CD DUP2 DUP5 PUSH1 0x20 DUP9 ADD PUSH2 0x3267 JUMP JUMPDEST DUP4 MLOAD SWAP1 DUP4 ADD SWAP1 PUSH2 0x37E1 DUP2 DUP4 PUSH1 0x20 DUP9 ADD PUSH2 0x3267 JUMP JUMPDEST ADD SWAP5 SWAP4 POP POP POP POP JUMP JUMPDEST PUSH1 0x20 DUP1 DUP3 MSTORE PUSH1 0x11 SWAP1 DUP3 ADD MSTORE PUSH17 0x105B1C9958591E4818DBDB999A5C9B5959 PUSH1 0x7A SHL PUSH1 0x40 DUP3 ADD MSTORE PUSH1 0x60 ADD SWAP1 JUMP JUMPDEST PUSH0 PUSH1 0xFF DUP3 AND PUSH1 0xFF DUP2 SUB PUSH2 0x382A JUMPI PUSH2 0x382A PUSH2 0x3764 JUMP JUMPDEST PUSH1 0x1 ADD SWAP3 SWAP2 POP POP JUMP JUMPDEST PUSH0 DUP3 PUSH2 0x384D JUMPI PUSH4 0x4E487B71 PUSH1 0xE0 SHL PUSH0 MSTORE PUSH1 0x12 PUSH1 0x4 MSTORE PUSH1 0x24 PUSH0 REVERT JUMPDEST POP DIV SWAP1 JUMP JUMPDEST PUSH1 0x1 PUSH1 0x1 PUSH1 0xA0 SHL SUB DUP6 DUP2 AND DUP3 MSTORE DUP5 AND PUSH1 0x20 DUP3 ADD MSTORE PUSH1 0x40 DUP2 ADD DUP4 SWAP1 MSTORE PUSH1 0x80 PUSH1 0x60 DUP3 ADD DUP2 SWAP1 MSTORE PUSH0 SWAP1 PUSH2 0x3884 SWAP1 DUP4 ADD DUP5 PUSH2 0x3289 JUMP JUMPDEST SWAP7 SWAP6 POP POP POP POP POP POP JUMP JUMPDEST PUSH0 PUSH1 0x20 DUP3 DUP5 SUB SLT ISZERO PUSH2 0x389E JUMPI PUSH0 DUP1 REVERT JUMPDEST DUP2 MLOAD PUSH2 0x1C76 DUP2 PUSH2 0x3237 JUMP JUMPDEST DUP2 DUP2 SUB DUP2 DUP2 GT ISZERO PUSH2 0x523 JUMPI PUSH2 0x523 PUSH2 0x3764 JUMP JUMPDEST PUSH4 0x4E487B71 PUSH1 0xE0 SHL PUSH0 MSTORE PUSH1 0x31 PUSH1 0x4 MSTORE PUSH1 0x24 PUSH0 REVERT INVALID LOG2 PUSH5 0x6970667358 0x22 SLT KECCAK256 PUSH9 0x909237CE31975B8B77 SSTORE POP DUP7 DUP2 0xD3 PUSH30 0xB42D4AA05691C08C62E7DA2DE789D5DE64736F6C63430008150033000000 "
		},
		"gasEstimates": {
			"creation": {
				"codeDepositCost": "2919600",
				"executionCost": "infinite",
				"totalCost": "infinite"
			},
			"external": {
				"approve(address,uint256)": "31531",
				"authorisedAccount()": "2471",
				"balanceOf(address)": "2762",
				"burnCertificate(uint256)": "238157",
				"confirmGuestList()": "infinite",
				"confirmMarriage()": "infinite",
				"engagements(address)": "infinite",
				"getApproved(uint256)": "infinite",
				"getCurrentTime()": "346",
				"guestLists(address)": "4740",
				"isApprovedForAll(address,address)": "infinite",
				"name()": "infinite",
				"ownerOf(uint256)": "infinite",
				"proposeGuestList(address[])": "infinite",
				"proposeMarriage()": "infinite",
				"registerEngagement(address,uint256)": "756377",
				"revokeEngagement()": "infinite",
				"safeTransferFrom(address,address,uint256)": "infinite",
				"safeTransferFrom(address,address,uint256,bytes)": "infinite",
				"setApprovalForAll(address,bool)": "26678",
				"spouses(address)": "2702",
				"supportsInterface(bytes4)": "infinite",
				"symbol()": "infinite",
				"tokenByIndex(uint256)": "6799",
				"tokenOfOwnerByIndex(address,uint256)": "4969",
				"tokenURI(uint256)": "infinite",
				"totalSupply()": "2392",
				"transferFrom(address,address,uint256)": "infinite",
				"voteAgainstWedding(address)": "infinite",
				"voteBurn()": "33296"
			},
			"internal": {
				"_checkAndInvalidateWedding(address)": "infinite",
				"finalizeMarriage(struct EngagementRegistry.Engagement storage pointer)": "infinite",
				"getGuestListKey(address)": "infinite",
				"getPrimarySpouseAddress(address)": "infinite",
				"isGuestConfirmed(address,address)": "infinite",
				"startVotingPeriod(address)": "infinite"
			}
		},
		"methodIdentifiers": {
			"approve(address,uint256)": "095ea7b3",
			"authorisedAccount()": "5d00927e",
			"balanceOf(address)": "70a08231",
			"burnCertificate(uint256)": "93b16b45",
			"confirmGuestList()": "e83dc185",
			"confirmMarriage()": "ed9f8d1c",
			"engagements(address)": "a22690a8",
			"getApproved(uint256)": "081812fc",
			"getCurrentTime()": "29cb924d",
			"guestLists(address)": "2b80fa28",
			"isApprovedForAll(address,address)": "e985e9c5",
			"name()": "06fdde03",
			"ownerOf(uint256)": "6352211e",
			"proposeGuestList(address[])": "90106c5e",
			"proposeMarriage()": "8c434709",
			"registerEngagement(address,uint256)": "987e9533",
			"revokeEngagement()": "6d955eb5",
			"safeTransferFrom(address,address,uint256)": "42842e0e",
			"safeTransferFrom(address,address,uint256,bytes)": "b88d4fde",
			"setApprovalForAll(address,bool)": "a22cb465",
			"spouses(address)": "a498e802",
			"supportsInterface(bytes4)": "01ffc9a7",
			"symbol()": "95d89b41",
			"tokenByIndex(uint256)": "4f6ccce7",
			"tokenOfOwnerByIndex(address,uint256)": "2f745c59",
			"tokenURI(uint256)": "c87b56dd",
			"totalSupply()": "18160ddd",
			"transferFrom(address,address,uint256)": "23b872dd",
			"voteAgainstWedding(address)": "a1905e4e",
			"voteBurn()": "bfd44472"
		}
	},
	"abi": [
		{
			"inputs": [],
			"stateMutability": "nonpayable",
			"type": "constructor"
		},
		{
			"inputs": [],
			"name": "ERC721EnumerableForbiddenBatchMint",
			"type": "error"
		},
		{
			"inputs": [
				{
					"internalType": "address",
					"name": "sender",
					"type": "address"
				},
				{
					"internalType": "uint256",
					"name": "tokenId",
					"type": "uint256"
				},
				{
					"internalType": "address",
					"name": "owner",
					"type": "address"
				}
			],
			"name": "ERC721IncorrectOwner",
			"type": "error"
		},
		{
			"inputs": [
				{
					"internalType": "address",
					"name": "operator",
					"type": "address"
				},
				{
					"internalType": "uint256",
					"name": "tokenId",
					"type": "uint256"
				}
			],
			"name": "ERC721InsufficientApproval",
			"type": "error"
		},
		{
			"inputs": [
				{
					"internalType": "address",
					"name": "approver",
					"type": "address"
				}
			],
			"name": "ERC721InvalidApprover",
			"type": "error"
		},
		{
			"inputs": [
				{
					"internalType": "address",
					"name": "operator",
					"type": "address"
				}
			],
			"name": "ERC721InvalidOperator",
			"type": "error"
		},
		{
			"inputs": [
				{
					"internalType": "address",
					"name": "owner",
					"type": "address"
				}
			],
			"name": "ERC721InvalidOwner",
			"type": "error"
		},
		{
			"inputs": [
				{
					"internalType": "address",
					"name": "receiver",
					"type": "address"
				}
			],
			"name": "ERC721InvalidReceiver",
			"type": "error"
		},
		{
			"inputs": [
				{
					"internalType": "address",
					"name": "sender",
					"type": "address"
				}
			],
			"name": "ERC721InvalidSender",
			"type": "error"
		},
		{
			"inputs": [
				{
					"internalType": "uint256",
					"name": "tokenId",
					"type": "uint256"
				}
			],
			"name": "ERC721NonexistentToken",
			"type": "error"
		},
		{
			"inputs": [
				{
					"internalType": "address",
					"name": "owner",
					"type": "address"
				},
				{
					"internalType": "uint256",
					"name": "index",
					"type": "uint256"
				}
			],
			"name": "ERC721OutOfBoundsIndex",
			"type": "error"
		},
		{
			"anonymous": false,
			"inputs": [
				{
					"indexed": true,
					"internalType": "address",
					"name": "owner",
					"type": "address"
				},
				{
					"indexed": true,
					"internalType": "address",
					"name": "approved",
					"type": "address"
				},
				{
					"indexed": true,
					"internalType": "uint256",
					"name": "tokenId",
					"type": "uint256"
				}
			],
			"name": "Approval",
			"type": "event"
		},
		{
			"anonymous": false,
			"inputs": [
				{
					"indexed": true,
					"internalType": "address",
					"name": "owner",
					"type": "address"
				},
				{
					"indexed": true,
					"internalType": "address",
					"name": "operator",
					"type": "address"
				},
				{
					"indexed": false,
					"internalType": "bool",
					"name": "approved",
					"type": "bool"
				}
			],
			"name": "ApprovalForAll",
			"type": "event"
		},
		{
			"anonymous": false,
			"inputs": [
				{
					"indexed": false,
					"internalType": "address",
					"name": "spouse1",
					"type": "address"
				},
				{
					"indexed": false,
					"internalType": "address",
					"name": "spouse2",
					"type": "address"
				},
				{
					"indexed": false,
					"internalType": "uint256",
					"name": "weddingDate",
					"type": "uint256"
				}
			],
			"name": "EngagementRegistered",
			"type": "event"
		},
		{
			"anonymous": false,
			"inputs": [
				{
					"indexed": false,
					"internalType": "address",
					"name": "caller",
					"type": "address"
				},
				{
					"indexed": false,
					"internalType": "uint256",
					"name": "revokedDate",
					"type": "uint256"
				}
			],
			"name": "EngagementRevoked",
			"type": "event"
		},
		{
			"anonymous": false,
			"inputs": [
				{
					"indexed": false,
					"internalType": "address",
					"name": "spouse",
					"type": "address"
				}
			],
			"name": "GuestListConfirmed",
			"type": "event"
		},
		{
			"anonymous": false,
			"inputs": [
				{
					"indexed": false,
					"internalType": "address",
					"name": "spouse",
					"type": "address"
				},
				{
					"indexed": false,
					"internalType": "address[]",
					"name": "guests",
					"type": "address[]"
				}
			],
			"name": "GuestListProposed",
			"type": "event"
		},
		{
			"anonymous": false,
			"inputs": [
				{
					"indexed": false,
					"internalType": "address",
					"name": "guest",
					"type": "address"
				},
				{
					"indexed": false,
					"internalType": "address",
					"name": "spouse",
					"type": "address"
				}
			],
			"name": "GuestVotedAgainst",
			"type": "event"
		},
		{
			"anonymous": false,
			"inputs": [
				{
					"indexed": false,
					"internalType": "address",
					"name": "spouse1",
					"type": "address"
				},
				{
					"indexed": false,
					"internalType": "address",
					"name": "spouse2",
					"type": "address"
				}
			],
			"name": "MarriageConfirmed",
			"type": "event"
		},
		{
			"anonymous": false,
			"inputs": [
				{
					"indexed": false,
					"internalType": "address",
					"name": "proposer",
					"type": "address"
				}
			],
			"name": "MarriageProposed",
			"type": "event"
		},
		{
			"anonymous": false,
			"inputs": [
				{
					"indexed": true,
					"internalType": "address",
					"name": "from",
					"type": "address"
				},
				{
					"indexed": true,
					"internalType": "address",
					"name": "to",
					"type": "address"
				},
				{
					"indexed": true,
					"internalType": "uint256",
					"name": "tokenId",
					"type": "uint256"
				}
			],
			"name": "Transfer",
			"type": "event"
		},
		{
			"anonymous": false,
			"inputs": [
				{
					"indexed": false,
					"internalType": "address",
					"name": "spouse",
					"type": "address"
				}
			],
			"name": "WeddingInvalidated",
			"type": "event"
		},
		{
			"anonymous": false,
			"inputs": [
				{
					"indexed": false,
					"internalType": "uint256",
					"name": "token",
					"type": "uint256"
				}
			],
			"name": "token",
			"type": "event"
		},
		{
			"inputs": [
				{
					"internalType": "address",
					"name": "to",
					"type": "address"
				},
				{
					"internalType": "uint256",
					"name": "tokenId",
					"type": "uint256"
				}
			],
			"name": "approve",
			"outputs": [],
			"stateMutability": "nonpayable",
			"type": "function"
		},
		{
			"inputs": [],
			"name": "authorisedAccount",
			"outputs": [
				{
					"internalType": "address",
					"name": "",
					"type": "address"
				}
			],
			"stateMutability": "view",
			"type": "function"
		},
		{
			"inputs": [
				{
					"internalType": "address",
					"name": "owner",
					"type": "address"
				}
			],
			"name": "balanceOf",
			"outputs": [
				{
					"internalType": "uint256",
					"name": "",
					"type": "uint256"
				}
			],
			"stateMutability": "view",
			"type": "function"
		},
		{
			"inputs": [
				{
					"internalType": "uint256",
					"name": "tokenId",
					"type": "uint256"
				}
			],
			"name": "burnCertificate",
			"outputs": [],
			"stateMutability": "nonpayable",
			"type": "function"
		},
		{
			"inputs": [],
			"name": "confirmGuestList",
			"outputs": [],
			"stateMutability": "nonpayable",
			"type": "function"
		},
		{
			"inputs": [],
			"name": "confirmMarriage",
			"outputs": [],
			"stateMutability": "nonpayable",
			"type": "function"
		},
		{
			"inputs": [
				{
					"internalType": "address",
					"name": "",
					"type": "address"
				}
			],
			"name": "engagements",
			"outputs": [
				{
					"components": [
						{
							"internalType": "address",
							"name": "spouseAddress",
							"type": "address"
						},
						{
							"internalType": "bool",
							"name": "isEngaged",
							"type": "bool"
						},
						{
							"internalType": "bool",
							"name": "isMarried",
							"type": "bool"
						}
					],
					"internalType": "struct EngagementRegistry.Spouse",
					"name": "spouse1",
					"type": "tuple"
				},
				{
					"components": [
						{
							"internalType": "address",
							"name": "spouseAddress",
							"type": "address"
						},
						{
							"internalType": "bool",
							"name": "isEngaged",
							"type": "bool"
						},
						{
							"internalType": "bool",
							"name": "isMarried",
							"type": "bool"
						}
					],
					"internalType": "struct EngagementRegistry.Spouse",
					"name": "spouse2",
					"type": "tuple"
				},
				{
					"internalType": "uint256",
					"name": "weddingDate",
					"type": "uint256"
				},
				{
					"internalType": "bool",
					"name": "isRevoked",
					"type": "bool"
				},
				{
					"internalType": "bool",
					"name": "spouse1ConfirmedMarriage",
					"type": "bool"
				},
				{
					"internalType": "bool",
					"name": "spouse2ConfirmedMarriage",
					"type": "bool"
				},
				{
					"internalType": "uint8",
					"name": "burnCertificate",
					"type": "uint8"
				},
				{
					"internalType": "uint256",
					"name": "votingPeriodStart",
					"type": "uint256"
				},
				{
					"internalType": "bool",
					"name": "isVotingPeriod",
					"type": "bool"
				}
			],
			"stateMutability": "view",
			"type": "function"
		},
		{
			"inputs": [
				{
					"internalType": "uint256",
					"name": "tokenId",
					"type": "uint256"
				}
			],
			"name": "getApproved",
			"outputs": [
				{
					"internalType": "address",
					"name": "",
					"type": "address"
				}
			],
			"stateMutability": "view",
			"type": "function"
		},
		{
			"inputs": [],
			"name": "getCurrentTime",
			"outputs": [
				{
					"internalType": "uint256",
					"name": "",
					"type": "uint256"
				}
			],
			"stateMutability": "view",
			"type": "function"
		},
		{
			"inputs": [
				{
					"internalType": "address",
					"name": "",
					"type": "address"
				}
			],
			"name": "guestLists",
			"outputs": [
				{
					"internalType": "bool",
					"name": "spouse1Confirmed",
					"type": "bool"
				},
				{
					"internalType": "bool",
					"name": "spouse2Confirmed",
					"type": "bool"
				},
				{
					"internalType": "uint256",
					"name": "votesAgainst",
					"type": "uint256"
				}
			],
			"stateMutability": "view",
			"type": "function"
		},
		{
			"inputs": [
				{
					"internalType": "address",
					"name": "owner",
					"type": "address"
				},
				{
					"internalType": "address",
					"name": "operator",
					"type": "address"
				}
			],
			"name": "isApprovedForAll",
			"outputs": [
				{
					"internalType": "bool",
					"name": "",
					"type": "bool"
				}
			],
			"stateMutability": "view",
			"type": "function"
		},
		{
			"inputs": [],
			"name": "name",
			"outputs": [
				{
					"internalType": "string",
					"name": "",
					"type": "string"
				}
			],
			"stateMutability": "view",
			"type": "function"
		},
		{
			"inputs": [
				{
					"internalType": "uint256",
					"name": "tokenId",
					"type": "uint256"
				}
			],
			"name": "ownerOf",
			"outputs": [
				{
					"internalType": "address",
					"name": "",
					"type": "address"
				}
			],
			"stateMutability": "view",
			"type": "function"
		},
		{
			"inputs": [
				{
					"internalType": "address[]",
					"name": "_guests",
					"type": "address[]"
				}
			],
			"name": "proposeGuestList",
			"outputs": [],
			"stateMutability": "nonpayable",
			"type": "function"
		},
		{
			"inputs": [],
			"name": "proposeMarriage",
			"outputs": [],
			"stateMutability": "nonpayable",
			"type": "function"
		},
		{
			"inputs": [
				{
					"internalType": "address",
					"name": "_proposeeAddress",
					"type": "address"
				},
				{
					"internalType": "uint256",
					"name": "_weddingDate",
					"type": "uint256"
				}
			],
			"name": "registerEngagement",
			"outputs": [],
			"stateMutability": "nonpayable",
			"type": "function"
		},
		{
			"inputs": [],
			"name": "revokeEngagement",
			"outputs": [],
			"stateMutability": "nonpayable",
			"type": "function"
		},
		{
			"inputs": [
				{
					"internalType": "address",
					"name": "from",
					"type": "address"
				},
				{
					"internalType": "address",
					"name": "to",
					"type": "address"
				},
				{
					"internalType": "uint256",
					"name": "tokenId",
					"type": "uint256"
				}
			],
			"name": "safeTransferFrom",
			"outputs": [],
			"stateMutability": "nonpayable",
			"type": "function"
		},
		{
			"inputs": [
				{
					"internalType": "address",
					"name": "from",
					"type": "address"
				},
				{
					"internalType": "address",
					"name": "to",
					"type": "address"
				},
				{
					"internalType": "uint256",
					"name": "tokenId",
					"type": "uint256"
				},
				{
					"internalType": "bytes",
					"name": "data",
					"type": "bytes"
				}
			],
			"name": "safeTransferFrom",
			"outputs": [],
			"stateMutability": "nonpayable",
			"type": "function"
		},
		{
			"inputs": [
				{
					"internalType": "address",
					"name": "operator",
					"type": "address"
				},
				{
					"internalType": "bool",
					"name": "approved",
					"type": "bool"
				}
			],
			"name": "setApprovalForAll",
			"outputs": [],
			"stateMutability": "nonpayable",
			"type": "function"
		},
		{
			"inputs": [
				{
					"internalType": "address",
					"name": "",
					"type": "address"
				}
			],
			"name": "spouses",
			"outputs": [
				{
					"internalType": "address",
					"name": "spouseAddress",
					"type": "address"
				},
				{
					"internalType": "bool",
					"name": "isEngaged",
					"type": "bool"
				},
				{
					"internalType": "bool",
					"name": "isMarried",
					"type": "bool"
				}
			],
			"stateMutability": "view",
			"type": "function"
		},
		{
			"inputs": [
				{
					"internalType": "bytes4",
					"name": "interfaceId",
					"type": "bytes4"
				}
			],
			"name": "supportsInterface",
			"outputs": [
				{
					"internalType": "bool",
					"name": "",
					"type": "bool"
				}
			],
			"stateMutability": "view",
			"type": "function"
		},
		{
			"inputs": [],
			"name": "symbol",
			"outputs": [
				{
					"internalType": "string",
					"name": "",
					"type": "string"
				}
			],
			"stateMutability": "view",
			"type": "function"
		},
		{
			"inputs": [
				{
					"internalType": "uint256",
					"name": "index",
					"type": "uint256"
				}
			],
			"name": "tokenByIndex",
			"outputs": [
				{
					"internalType": "uint256",
					"name": "",
					"type": "uint256"
				}
			],
			"stateMutability": "view",
			"type": "function"
		},
		{
			"inputs": [
				{
					"internalType": "address",
					"name": "owner",
					"type": "address"
				},
				{
					"internalType": "uint256",
					"name": "index",
					"type": "uint256"
				}
			],
			"name": "tokenOfOwnerByIndex",
			"outputs": [
				{
					"internalType": "uint256",
					"name": "",
					"type": "uint256"
				}
			],
			"stateMutability": "view",
			"type": "function"
		},
		{
			"inputs": [
				{
					"internalType": "uint256",
					"name": "tokenId",
					"type": "uint256"
				}
			],
			"name": "tokenURI",
			"outputs": [
				{
					"internalType": "string",
					"name": "",
					"type": "string"
				}
			],
			"stateMutability": "view",
			"type": "function"
		},
		{
			"inputs": [],
			"name": "totalSupply",
			"outputs": [
				{
					"internalType": "uint256",
					"name": "",
					"type": "uint256"
				}
			],
			"stateMutability": "view",
			"type": "function"
		},
		{
			"inputs": [
				{
					"internalType": "address",
					"name": "from",
					"type": "address"
				},
				{
					"internalType": "address",
					"name": "to",
					"type": "address"
				},
				{
					"internalType": "uint256",
					"name": "tokenId",
					"type": "uint256"
				}
			],
			"name": "transferFrom",
			"outputs": [],
			"stateMutability": "nonpayable",
			"type": "function"
		},
		{
			"inputs": [
				{
					"internalType": "address",
					"name": "_spouse",
					"type": "address"
				}
			],
			"name": "voteAgainstWedding",
			"outputs": [],
			"stateMutability": "nonpayable",
			"type": "function"
		},
		{
			"inputs": [],
			"name": "voteBurn",
			"outputs": [],
			"stateMutability": "nonpayable",
			"type": "function"
		}
	]
}