{
	"data": {
		"bytecode": {
			"linkReferences": {},
			"object": "608060405234801562000010575f80fd5b5060405180604001604052806012815260200171456e676167656d656e74526567697374727960701b8152506040518060400160405280600381526020016222a72960e91b815250815f908162000068919062000146565b50600162000077828262000146565b5050600a80546001600160a01b031916731ae0ea34a72d944a8c7603ffb3ec30a6669e454c179055506200020e565b634e487b7160e01b5f52604160045260245ffd5b600181811c90821680620000cf57607f821691505b602082108103620000ee57634e487b7160e01b5f52602260045260245ffd5b50919050565b601f82111562000141575f81815260208120601f850160051c810160208610156200011c5750805b601f850160051c820191505b818110156200013d5782815560010162000128565b5050505b505050565b81516001600160401b03811115620001625762000162620000a6565b6200017a81620001738454620000ba565b84620000f4565b602080601f831160018114620001b0575f8415620001985750858301515b5f19600386901b1c1916600185901b1785556200013d565b5f85815260208120601f198616915b82811015620001e057888601518255948401946001909101908401620001bf565b5085821015620001fe57878501515f19600388901b60f8161c191681555b5050505050600190811b01905550565b61397a806200021c5f395ff3fe608060405234801561000f575f80fd5b50600436106101b6575f3560e01c80638c434709116100f6578063a22cb4651161009a578063a22cb46514610478578063a498e8021461048b578063b88d4fde146104f0578063b95afe0314610503578063bfd444721461054d578063c87b56dd14610555578063e83dc18514610568578063e985e9c514610570578063ed9f8d1c14610583575f80fd5b80638c4347091461034457806390106c5e1461034c57806393b16b451461035f57806395d89b4114610372578063987e95331461037a5780639dcaf4791461038d578063a1905e4e146103a0578063a22690a8146103b3575f80fd5b80632f745c591161015d5780632f745c59146102aa57806342842e0e146102bd5780634f6ccce7146102d05780635d00927e146102e35780635dd4e938146102f65780636352211e146103165780636d955eb51461032957806370a0823114610331575f80fd5b806301ffc9a7146101ba57806306fdde03146101e2578063081812fc146101f7578063095ea7b31461021757806318160ddd1461022c57806323b872dd1461023e57806329cb924d146102515780632b80fa2814610257575b5f80fd5b6101cd6101c8366004613283565b61058b565b60405190151581526020015b60405180910390f35b6101ea6105b5565b6040516101d991906132eb565b61020a6102053660046132fd565b610644565b6040516101d99190613314565b61022a610225366004613343565b61066b565b005b6008545b6040519081526020016101d9565b61022a61024c36600461336b565b61067a565b42610230565b61028d6102653660046133a4565b600d6020525f90815260409020600181015460039091015460ff808316926101009004169083565b6040805193151584529115156020840152908201526060016101d9565b6102306102b8366004613343565b6106df565b61022a6102cb36600461336b565b610734565b6102306102de3660046132fd565b610753565b600a5461020a906001600160a01b031681565b6103096103043660046133a4565b6107a3565b6040516101d991906133bd565b61020a6103243660046132fd565b610825565b61022a61082f565b61023061033f3660046133a4565b610a7d565b61022a610ac2565b61022a61035a366004613409565b610d03565b61022a61036d3660046132fd565b610ee5565b6101ea610f2d565b61022a610388366004613343565b610f3c565b6101cd61039b366004613478565b611680565b61022a6103ae3660046133a4565b61186b565b6104656103c13660046133a4565b600c60209081525f91825260409182902082516060808201855282546001600160a01b03808216845260ff600160a01b8084048216151586890152600160a81b9384900482161515868a01528851948501895260018701549283168552820481161515968401969096520484161515948101949094526002820154600390920154909392818116916101008104821691620100008204811691630100000090041687565b6040516101d997969594939291906134cf565b61022a61048636600461351c565b611b68565b6104c96104993660046133a4565b600b6020525f90815260409020546001600160a01b0381169060ff600160a01b8204811691600160a81b90041683565b604080516001600160a01b03909416845291151560208401521515908201526060016101d9565b61022a6104fe366004613569565b611b73565b6105166105113660046133a4565b611b90565b604080516001600160a01b03968716815295909416602086015292840191909152151560608301521515608082015260a0016101d9565b61022a611ca1565b6101ea6105633660046132fd565b611d42565b61022a611db3565b6101cd61057e366004613478565b611f94565b61022a611fc1565b5f6001600160e01b0319821663780e9d6360e01b14806105af57506105af82612251565b92915050565b60605f80546105c39061363e565b80601f01602080910402602001604051908101604052809291908181526020018280546105ef9061363e565b801561063a5780601f106106115761010080835404028352916020019161063a565b820191905f5260205f20905b81548152906001019060200180831161061d57829003601f168201915b5050505050905090565b5f61064e826122a0565b505f828152600460205260409020546001600160a01b03166105af565b6106768282336122d8565b5050565b60405162461bcd60e51b815260206004820152602f60248201527f57656464696e67206365727469666963617465207472616e736665722061726560448201526e081b9bdd08185d5d1a1bdc9a5e9959608a1b60648201526084015b60405180910390fd5b5f6106e983610a7d565b821061070c57828260405163295f44f760e21b81526004016106d6929190613676565b506001600160a01b03919091165f908152600660209081526040808320938352929052205490565b61074e83838360405180602001604052805f815250611b73565b505050565b5f61075d60085490565b8210610780575f8260405163295f44f760e21b81526004016106d6929190613676565b600882815481106107935761079361368f565b905f5260205f2001549050919050565b60605f6107af836122e5565b6001600160a01b0381165f908152600d6020908152604091829020805483518184028101840190945280845293945091929083018282801561081857602002820191905f5260205f20905b81546001600160a01b031681526001909101906020018083116107fa575b5050505050915050919050565b5f6105af826122a0565b335f818152600c6020908152604080832081516101408101835281546001600160a01b0381811660e0840190815260ff600160a01b8085048216151561010080880191909152600160a81b9586900483161515610120880152928652875160608181018a526001890154808716835292830484161515828c01529590910482161515818901528589015260028601548588015260039095015480861615159385019390935282048416151560808401526201000082048416151560a0840152630100000090910490921660c082015280515182168552600b90935292205490911682148061093d5750602081810151516001600160a01b039081165f908152600b9092526040909120541633145b6109595760405162461bcd60e51b81526004016106d6906136a3565b335f818152600c602052604090206003015460ff161561098b5760405162461bcd60e51b81526004016106d6906136ec565b335f818152600c6020908152604080832080546001600160a01b03908116855282852080546001600160b01b03199081168255600182810180548316905560028084018990556003938401805463ffffffff19908116909155828701805487168b52888b20805486168155938401805490951690945590820189905592018054909216909155825482168652600b909452828520805460ff60a01b1990811690915593541684529281902080549092169091555190917f1271c287650062f685bd2f225144d7b6b046826a5a70632c8f873240d04a54c691610a6f91904290613676565b60405180910390a150505050565b5f6001600160a01b038216610aa7575f6040516322718ad960e21b81526004016106d69190613314565b506001600160a01b03165f9081526003602052604090205490565b335f818152600c6020908152604080832081516101408101835281546001600160a01b0381811660e0840190815260ff600160a01b8085048216151561010080880191909152600160a81b9586900483161515610120880152928652875160608181018a526001890154808716835292830484161515828c01529590910482161515818901528589015260028601548588015260039095015480861615159385019390935282048416151560808401526201000082048416151560a0840152630100000090910490921660c082015280515182168552600b909352922054909116821480610bd05750602081810151516001600160a01b039081165f908152600b9092526040909120541633145b610bec5760405162461bcd60e51b81526004016106d6906136a3565b335f818152600c602052604090206003015460ff1615610c1e5760405162461bcd60e51b81526004016106d6906136ec565b335f818152600b6020526040902054600160a81b900460ff1615610c545760405162461bcd60e51b81526004016106d69061372e565b5f600c5f610c61336124f4565b6001600160a01b03908116825260208201929092526040015f208054909250163303610c9d5760038101805461ff001916610100179055610cc5565b60018101546001600160a01b03163303610cc55760038101805462ff00001916620100001790555b7f046d8abd270fce195a0de9f22fc55ed1b5c6b4a38b0723362f84126d24e6817133604051610cf49190613314565b60405180910390a15050505050565b335f818152600c6020908152604080832081516101408101835281546001600160a01b0381811660e0840190815260ff600160a01b8085048216151561010080880191909152600160a81b9586900483161515610120880152928652875160608181018a526001890154808716835292830484161515828c01529590910482161515818901528589015260028601548588015260039095015480861615159385019390935282048416151560808401526201000082048416151560a0840152630100000090910490921660c082015280515182168552600b909352922054909116821480610e115750602081810151516001600160a01b039081165f908152600b9092526040909120541633145b610e2d5760405162461bcd60e51b81526004016106d6906136a3565b335f818152600b6020526040902054600160a81b900460ff1615610e635760405162461bcd60e51b81526004016106d69061372e565b5f610e6d336122e5565b6001600160a01b0381165f908152600d60205260409020909150610e928188886131f9565b5060018101805461ffff191690556040517f402f0cdbbd3e7bdbd2c1fc4d920fa1ee7a733238220198df262284a1259d0be690610ed49033908a908a90613757565b60405180910390a150505050505050565b335f908152600c60205260409020600301546001630100000090910460ff1611610f215760405162461bcd60e51b81526004016106d6906137b0565b610f2a816125d2565b50565b6060600180546105c39061363e565b816001600160a01b0381163303610f905760405162461bcd60e51b815260206004820152601860248201527721b0b73737ba1032b733b0b3b2903a379037b732b9b2b63360411b60448201526064016106d6565b335f908152600b60205260409020548390600160a01b900460ff16158015610fd757506001600160a01b0381165f908152600b6020526040902054600160a01b900460ff16155b61103b5760405162461bcd60e51b815260206004820152602f60248201527f4f6e65206f7220626f7468206f66207468652073706f7573657320617265206160448201526e363932b0b23c9032b733b0b3b2b21760891b60648201526084016106d6565b6040518060600160405280336001600160a01b031681526020016001151581526020015f1515815250600b5f336001600160a01b03166001600160a01b031681526020019081526020015f205f820151815f015f6101000a8154816001600160a01b0302191690836001600160a01b031602179055506020820151815f0160146101000a81548160ff0219169083151502179055506040820151815f0160156101000a81548160ff0219169083151502179055509050506040518060600160405280856001600160a01b031681526020016001151581526020015f1515815250600b5f866001600160a01b03166001600160a01b031681526020019081526020015f205f820151815f015f6101000a8154816001600160a01b0302191690836001600160a01b031602179055506020820151815f0160146101000a81548160ff0219169083151502179055506040820151815f0160156101000a81548160ff0219169083151502179055509050505f6040518060e00160405280600b5f336001600160a01b03166001600160a01b031681526020019081526020015f206040518060600160405290815f82015f9054906101000a90046001600160a01b03166001600160a01b03166001600160a01b031681526020015f820160149054906101000a900460ff161515151581526020015f820160159054906101000a900460ff1615151515815250508152602001600b5f886001600160a01b03166001600160a01b031681526020019081526020015f206040518060600160405290815f82015f9054906101000a90046001600160a01b03166001600160a01b03166001600160a01b031681526020015f820160149054906101000a900460ff161515151581526020015f820160159054906101000a900460ff16151515158152505081526020018581526020015f151581526020015f151581526020015f151581526020015f60ff16815250905080600c5f336001600160a01b03166001600160a01b031681526020019081526020015f205f820151815f015f820151815f015f6101000a8154816001600160a01b0302191690836001600160a01b031602179055506020820151815f0160146101000a81548160ff0219169083151502179055506040820151815f0160156101000a81548160ff02191690831515021790555050506020820151816001015f820151815f015f6101000a8154816001600160a01b0302191690836001600160a01b031602179055506020820151815f0160146101000a81548160ff0219169083151502179055506040820151815f0160156101000a81548160ff0219169083151502179055505050604082015181600201556060820151816003015f6101000a81548160ff02191690831515021790555060808201518160030160016101000a81548160ff02191690831515021790555060a08201518160030160026101000a81548160ff02191690831515021790555060c08201518160030160036101000a81548160ff021916908360ff16021790555090505080600c5f876001600160a01b03166001600160a01b031681526020019081526020015f205f820151815f015f820151815f015f6101000a8154816001600160a01b0302191690836001600160a01b031602179055506020820151815f0160146101000a81548160ff0219169083151502179055506040820151815f0160156101000a81548160ff02191690831515021790555050506020820151816001015f820151815f015f6101000a8154816001600160a01b0302191690836001600160a01b031602179055506020820151815f0160146101000a81548160ff0219169083151502179055506040820151815f0160156101000a81548160ff0219169083151502179055505050604082015181600201556060820151816003015f6101000a81548160ff02191690831515021790555060808201518160030160016101000a81548160ff02191690831515021790555060a08201518160030160026101000a81548160ff02191690831515021790555060c08201518160030160036101000a81548160ff021916908360ff1602179055509050507f7a7f38be04afb87e39b4cb52bec76c69c4d999f605bd21054b71a3f2dc085821338686604051610cf4939291906001600160a01b039384168152919092166020820152604081019190915260600190565b6001600160a01b038083165f908152600c60209081526040808320815161014081018352815480871660e0830190815260ff600160a01b8084048216151561010080870191909152600160a81b94859004831615156101208701529285528651606081810189526001880154808d16835292830484161515828b01529490910482161515818801528488015260028501548487015260039094015480851615159284019290925281048316151560808301526201000081048316151560a08301526301000000900490911660c082015280515185168452600b9092528220549192859233911614806117925750602081810151516001600160a01b039081165f908152600b9092526040909120541633145b6117ae5760405162461bcd60e51b81526004016106d6906136a3565b5f6117b8866122e5565b6001600160a01b0381165f908152600d6020526040902060018101549192509060ff1680156117f057506001810154610100900460ff165b1561185d575f5b815460ff8216101561185b57866001600160a01b0316825f018260ff16815481106118245761182461368f565b5f918252602090912001546001600160a01b0316036118495760019550505050611863565b80611853816137ec565b9150506117f7565b505b5f945050505b505092915050565b6001600160a01b038082165f908152600c60209081526040808320815161014081018352815480871660e0830190815260ff600160a01b8084048216151561010080870191909152600160a81b94859004831615156101208701529285528651606081810189526001880154808d16835292830484161515828b01529490910482161515818801528488015260028501548487015260039094015480851615159284019290925281048316151560808301526201000081048316151560a08301526301000000900490911660c082015280515185168452600b909252909120548392339116148061197c5750602081810151516001600160a01b039081165f908152600b9092526040909120541633145b6119985760405162461bcd60e51b81526004016106d6906136a3565b6001600160a01b0383165f908152600c6020526040902060030154839060ff16156119d55760405162461bcd60e51b81526004016106d6906136ec565b6001600160a01b0384165f908152600b60205260409020548490600160a81b900460ff1615611a165760405162461bcd60e51b81526004016106d69061372e565b84611a218133611680565b611a655760405162461bcd60e51b8152602060048201526015602482015274139bdd08184818dbdb999a5c9b59590819dd595cdd605a1b60448201526064016106d6565b6001600160a01b0386165f908152600d60209081526040808320338452600201909152902054869060ff1615611acd5760405162461bcd60e51b815260206004820152600d60248201526c105b1c9958591e481d9bdd1959609a1b60448201526064016106d6565b6001600160a01b0387165f908152600d60209081526040808320338452600281019092528220805460ff191660011790556003810180549192611b0f8361380a565b9091555050604080513381526001600160a01b038a1660208201527fa9862c5f43caca0b960b097a111ce8c3752d27df0e0f1f170b4a06a823e612b1910160405180910390a1611b5e8861260a565b5050505050505050565b61067633838361289d565b611b7e84848461067a565b611b8a84848484612932565b50505050565b6001600160a01b038082165f908152600c60209081526040808320815161014081018352815480871660e0830190815260ff600160a01b8084048216151561010080870191909152600160a81b948590048316151561012087015292855286516060818101895260018801549b8c168252918b0483161515818a0152939099048116151583870152838701839052600285015495840186905260039094015480851615159884018990529081048416151560808401526201000081048416151560a08401526301000000900490921660c0820152805180519251940151949586958695869586959391929091908015611c8e57508460200151602001515b939b929a50909850965090945092505050565b335f818152600c60205260409020805490916001600160a01b039091161480611cd45750600a546001600160a01b031633145b80611ceb575060018101546001600160a01b031633145b611d075760405162461bcd60e51b81526004016106d6906137b0565b6003818101805460019290611d279084906301000000900460ff16613822565b92506101000a81548160ff021916908360ff16021790555050565b6060611d4d826122a0565b505f611d6360408051602081019091525f815290565b90505f815111611d815760405180602001604052805f815250611dac565b80611d8b84612a3f565b604051602001611d9c92919061383b565b6040516020818303038152906040525b9392505050565b335f818152600c6020908152604080832081516101408101835281546001600160a01b0381811660e0840190815260ff600160a01b8085048216151561010080880191909152600160a81b9586900483161515610120880152928652875160608181018a526001890154808716835292830484161515828c01529590910482161515818901528589015260028601548588015260039095015480861615159385019390935282048416151560808401526201000082048416151560a0840152630100000090910490921660c082015280515182168552600b909352922054909116821480611ec15750602081810151516001600160a01b039081165f908152600b9092526040909120541633145b611edd5760405162461bcd60e51b81526004016106d6906136a3565b5f611ee7336122e5565b6001600160a01b038082165f908152600d6020908152604080832033808552600c90935292205493945090929091169003611f31576001818101805460ff19169091179055611f43565b60018101805461ff0019166101001790555b600181015460ff168015611f6057506001810154610100900460ff165b15611b8a577fffacc21903a9db21c6031d4c12c9825f13ac6469f9b894f7058a45cf1f9a3e8d33604051610a6f9190613314565b6001600160a01b039182165f90815260056020908152604080832093909416825291909152205460ff1690565b335f818152600c6020908152604080832081516101408101835281546001600160a01b0381811660e0840190815260ff600160a01b8085048216151561010080880191909152600160a81b9586900483161515610120880152928652875160608181018a526001890154808716835292830484161515828c01529590910482161515818901528589015260028601548588015260039095015480861615159385019390935282048416151560808401526201000082048416151560a0840152630100000090910490921660c082015280515182168552600b9093529220549091168214806120cf5750602081810151516001600160a01b039081165f908152600b9092526040909120541633145b6120eb5760405162461bcd60e51b81526004016106d6906136a3565b335f818152600c602052604090206003015460ff161561211d5760405162461bcd60e51b81526004016106d6906136ec565b335f818152600b6020526040902054600160a81b900460ff16156121535760405162461bcd60e51b81526004016106d69061372e565b5f600c5f612160336124f4565b6001600160a01b03908116825260208201929092526040015f2080549092501633036121c6576003810154610100900460ff16156121b05760405162461bcd60e51b81526004016106d690613869565b60038101805461ff001916610100179055612219565b60018101546001600160a01b0316330361221957600381015462010000900460ff16156122055760405162461bcd60e51b81526004016106d690613869565b60038101805462ff00001916620100001790555b6003810154610100900460ff16801561223c5750600381015462010000900460ff165b1561224a5761224a81612acf565b5050505050565b5f6001600160e01b031982166380ac58cd60e01b148061228157506001600160e01b03198216635b5e139f60e01b145b806105af57506301ffc9a760e01b6001600160e01b03198316146105af565b5f818152600260205260408120546001600160a01b0316806105af57604051637e27328960e01b8152600481018490526024016106d6565b61074e8383836001612b99565b6001600160a01b038082165f908152600c60209081526040808320815161014081018352815480871660e0830190815260ff600160a01b8084048216151561010080870191909152600160a81b94859004831615156101208701529285528651606081810189526001880154808d16835292830484161515828b01529490910482161515818801528488015260028501548487015260039094015480851615159284019290925281048316151560808301526201000081048316151560a08301526301000000900490911660c082015280515185168452600b9092528220549192849233911614806123f75750602081810151516001600160a01b039081165f908152600b9092526040909120541633145b6124135760405162461bcd60e51b81526004016106d6906136a3565b5050506001600160a01b039081165f908152600c6020908152604091829020825161014081018452815480861660e08301908152600160a01b80830460ff908116151561010080870191909152600160a81b9485900482161515610120870152928552875160608082018a5260018801549a8b168252928a048216151581890152939098048816151583880152948301919091526002830154948201949094526003909101548085161515928201929092529181048316151560808301526201000081048316151560a08301526301000000900490911660c0820152515190565b6001600160a01b039081165f908152600c6020908152604091829020825161014081018452815480861660e0830190815260ff600160a01b8084048216151561010080870191909152600160a81b9485900483161515610120870152928552875160608181018a5260018801549a8b168252918a048316151581890152939098048116151583880152948301919091526002830154948201949094526003909101548083161515948201949094529183048116151560808301526201000083048116151560a0830152630100000090920490911660c0820152515190565b5f6125de5f835f612c94565b90506001600160a01b03811661067657604051637e27328960e01b8152600481018390526024016106d6565b6001600160a01b038082165f908152600c60209081526040808320815161014081018352815480871660e0830190815260ff600160a01b8084048216151561010080870191909152600160a81b94859004831615156101208701529285528651606081810189526001880154808d16835292830484161515828b01529490910482161515818801528488015260028501548487015260039094015480851615159284019290925281048316151560808301526201000081048316151560a08301526301000000900490911660c082015280515185168452600b909252909120548392339116148061271b5750602081810151516001600160a01b039081165f908152600b9092526040909120541633145b6127375760405162461bcd60e51b81526004016106d6906136a3565b6001600160a01b0383165f908152600b60205260409020548390600160a81b900460ff16156127785760405162461bcd60e51b81526004016106d69061372e565b6001600160a01b0384165f908152600d60209081526040808320600c90925282208154919290919060026127ad836001613894565b6127b791906138a7565b905080846003015410611b5e5760038301805460ff1916600190811790915583546001600160a01b039081165f908152600b6020526040808220805460ff60a01b199081169091559387015483168252908190208054909316909255845491517fca5145a860413368885bd057fa646c0895a34d43c6f7c897fc1954cf51c3304592612844921690613314565b60405180910390a160018301546040517fca5145a860413368885bd057fa646c0895a34d43c6f7c897fc1954cf51c330459161288b916001600160a01b0390911690613314565b60405180910390a15050505050505050565b6001600160a01b0382166128c65781604051630b61174360e31b81526004016106d69190613314565b6001600160a01b038381165f81815260056020908152604080832094871680845294825291829020805460ff191686151590811790915591519182527f17307eab39ab6107e8899845ad3d59bd9653f200f220920489ca2b5937696c31910160405180910390a3505050565b6001600160a01b0383163b15611b8a57604051630a85bd0160e11b81526001600160a01b0384169063150b7a02906129749033908890879087906004016138c6565b6020604051808303815f875af19250505080156129ae575060408051601f3d908101601f191682019092526129ab91810190613902565b60015b612a0c573d8080156129db576040519150601f19603f3d011682016040523d82523d5f602084013e6129e0565b606091505b5080515f03612a045783604051633250574960e11b81526004016106d69190613314565b805181602001fd5b6001600160e01b03198116630a85bd0160e11b1461224a5783604051633250574960e11b81526004016106d69190613314565b60605f612a4b83612d67565b60010190505f8167ffffffffffffffff811115612a6a57612a6a613555565b6040519080825280601f01601f191660200182016040528015612a94576020820181803683370190505b5090508181016020015b5f19016f181899199a1a9b1b9c1cb0b131b232b360811b600a86061a8153600a8504945084612a9e57509392505050565b80546001600160a01b039081165f908152600b602090815260408083208054600160a81b60ff60a81b1991821681179092556001870180548716865294839020805490911690911790558454925481519385168452909316908201527f5c8ec7a25a142b043ee1d70b00b983786a266ced5b4e6b540ddc769276626819910160405180910390a18054612b7e906001600160a01b0316612b6e60085490565b612b79906001613894565b612e3e565b6001810154610f2a906001600160a01b0316612b6e60085490565b8080612bad57506001600160a01b03821615155b15612c65575f612bbc846122a0565b90506001600160a01b03831615801590612be85750826001600160a01b0316816001600160a01b031614155b8015612bfb5750612bf98184611f94565b155b15612c1b578260405163a9fbf51f60e01b81526004016106d69190613314565b8115612c635783856001600160a01b0316826001600160a01b03167f8c5be1e5ebec7d5bd14f71427d1e84f3dd0314c0f7b2291e5b200ac8c7c3b92560405160405180910390a45b505b50505f90815260046020526040902080546001600160a01b0319166001600160a01b0392909216919091179055565b5f80612ca1858585612e57565b90506001600160a01b038116612cfd57612cf884600880545f838152600960205260408120829055600182018355919091527ff3f7a9fe364faab93b216da50a3214154f22a0a2b415b23a84c8169e8b636ee30155565b612d20565b846001600160a01b0316816001600160a01b031614612d2057612d208185612f49565b6001600160a01b038516612d3c57612d3784612fd6565b612d5f565b846001600160a01b0316816001600160a01b031614612d5f57612d5f858561307d565b949350505050565b5f8072184f03e93ff9f4daa797ed6e38ed64bf6a1f0160401b8310612da55772184f03e93ff9f4daa797ed6e38ed64bf6a1f0160401b830492506040015b6d04ee2d6d415b85acef81000000008310612dd1576d04ee2d6d415b85acef8100000000830492506020015b662386f26fc100008310612def57662386f26fc10000830492506010015b6305f5e1008310612e07576305f5e100830492506008015b6127108310612e1b57612710830492506004015b60648310612e2d576064830492506002015b600a83106105af5760010192915050565b610676828260405180602001604052805f8152506130cb565b5f828152600260205260408120546001600160a01b0390811690831615612e8357612e838184866130e1565b6001600160a01b03811615612ebd57612e9e5f855f80612b99565b6001600160a01b0381165f90815260036020526040902080545f190190555b6001600160a01b03851615612eeb576001600160a01b0385165f908152600360205260409020805460010190555b5f8481526002602052604080822080546001600160a01b0319166001600160a01b0389811691821790925591518793918516917fddf252ad1be2c89b69c2b068fc378daa952ba7f163c4a11628f55a4df523b3ef91a4949350505050565b5f612f5383610a7d565b5f83815260076020526040902054909150808214612fa4576001600160a01b0384165f9081526006602090815260408083208584528252808320548484528184208190558352600790915290208190555b505f9182526007602090815260408084208490556001600160a01b039094168352600681528383209183525290812055565b6008545f90612fe79060019061391d565b5f838152600960205260408120546008805493945090928490811061300e5761300e61368f565b905f5260205f2001549050806008838154811061302d5761302d61368f565b5f91825260208083209091019290925582815260099091526040808220849055858252812055600880548061306457613064613930565b600190038181905f5260205f20015f9055905550505050565b5f600161308984610a7d565b613093919061391d565b6001600160a01b039093165f908152600660209081526040808320868452825280832085905593825260079052919091209190915550565b6130d58383613137565b61074e5f848484612932565b6130ec838383613198565b61074e576001600160a01b03831661311a57604051637e27328960e01b8152600481018290526024016106d6565b818160405163177e802f60e01b81526004016106d6929190613676565b6001600160a01b038216613160575f604051633250574960e11b81526004016106d69190613314565b5f61316c83835f612c94565b90506001600160a01b0381161561074e575f6040516339e3563760e11b81526004016106d69190613314565b5f6001600160a01b03831615801590612d5f5750826001600160a01b0316846001600160a01b031614806131d157506131d18484611f94565b80612d5f5750505f908152600460205260409020546001600160a01b03908116911614919050565b828054828255905f5260205f2090810192821561324a579160200282015b8281111561324a5781546001600160a01b0319166001600160a01b03843516178255602090920191600190910190613217565b5061325692915061325a565b5090565b5b80821115613256575f815560010161325b565b6001600160e01b031981168114610f2a575f80fd5b5f60208284031215613293575f80fd5b8135611dac8161326e565b5f5b838110156132b85781810151838201526020016132a0565b50505f910152565b5f81518084526132d781602086016020860161329e565b601f01601f19169290920160200192915050565b602081525f611dac60208301846132c0565b5f6020828403121561330d575f80fd5b5035919050565b6001600160a01b0391909116815260200190565b80356001600160a01b038116811461333e575f80fd5b919050565b5f8060408385031215613354575f80fd5b61335d83613328565b946020939093013593505050565b5f805f6060848603121561337d575f80fd5b61338684613328565b925061339460208501613328565b9150604084013590509250925092565b5f602082840312156133b4575f80fd5b611dac82613328565b602080825282518282018190525f9190848201906040850190845b818110156133fd5783516001600160a01b0316835292840192918401916001016133d8565b50909695505050505050565b5f806020838503121561341a575f80fd5b823567ffffffffffffffff80821115613431575f80fd5b818501915085601f830112613444575f80fd5b813581811115613452575f80fd5b8660208260051b8501011115613466575f80fd5b60209290920196919550909350505050565b5f8060408385031215613489575f80fd5b61349283613328565b91506134a060208401613328565b90509250929050565b80516001600160a01b031682526020808201511515908301526040908101511515910152565b61016081016134de828a6134a9565b6134eb60608301896134a9565b60c082019690965293151560e0850152911515610100840152151561012083015260ff166101409091015292915050565b5f806040838503121561352d575f80fd5b61353683613328565b91506020830135801515811461354a575f80fd5b809150509250929050565b634e487b7160e01b5f52604160045260245ffd5b5f805f806080858703121561357c575f80fd5b61358585613328565b935061359360208601613328565b925060408501359150606085013567ffffffffffffffff808211156135b6575f80fd5b818701915087601f8301126135c9575f80fd5b8135818111156135db576135db613555565b604051601f8201601f19908116603f0116810190838211818310171561360357613603613555565b816040528281528a602084870101111561361b575f80fd5b826020860160208301375f60208483010152809550505050505092959194509250565b600181811c9082168061365257607f821691505b60208210810361367057634e487b7160e01b5f52602260045260245ffd5b50919050565b6001600160a01b03929092168252602082015260400190565b634e487b7160e01b5f52603260045260245ffd5b60208082526029908201527f43616c6c6572206d757374206265206f6e65206f662074686520656e6761676560408201526864207061727469657360b81b606082015260800190565b60208082526022908201527f54686520656e676167656d656e7420697320616c7265616479207265766f6b65604082015261321760f11b606082015260800190565b6020808252600f908201526e105b1c9958591e481b585c9c9a5959608a1b604082015260600190565b6001600160a01b038481168252604060208084018290529083018490525f91859160608501845b878110156137a3578361379086613328565b168252938201939082019060010161377e565b5098975050505050505050565b6020808252600e908201526d139bdd08185d5d1a1bdc9a5e995960921b604082015260600190565b634e487b7160e01b5f52601160045260245ffd5b5f60ff821660ff8103613801576138016137d8565b60010192915050565b5f6001820161381b5761381b6137d8565b5060010190565b60ff81811683821601908111156105af576105af6137d8565b5f835161384c81846020880161329e565b83519083019061386081836020880161329e565b01949350505050565b602080825260119082015270105b1c9958591e4818dbdb999a5c9b5959607a1b604082015260600190565b808201808211156105af576105af6137d8565b5f826138c157634e487b7160e01b5f52601260045260245ffd5b500490565b6001600160a01b03858116825284166020820152604081018390526080606082018190525f906138f8908301846132c0565b9695505050505050565b5f60208284031215613912575f80fd5b8151611dac8161326e565b818103818111156105af576105af6137d8565b634e487b7160e01b5f52603160045260245ffdfea26469706673582212207fb5520b451fa9d2791405435ec173ce99d955410626bb3f31e4e13b31315c9b64736f6c63430008150033",
			"opcodes": "PUSH1 0x80 PUSH1 0x40 MSTORE CALLVALUE DUP1 ISZERO PUSH3 0x10 JUMPI PUSH0 DUP1 REVERT JUMPDEST POP PUSH1 0x40 MLOAD DUP1 PUSH1 0x40 ADD PUSH1 0x40 MSTORE DUP1 PUSH1 0x12 DUP2 MSTORE PUSH1 0x20 ADD PUSH18 0x456E676167656D656E745265676973747279 PUSH1 0x70 SHL DUP2 MSTORE POP PUSH1 0x40 MLOAD DUP1 PUSH1 0x40 ADD PUSH1 0x40 MSTORE DUP1 PUSH1 0x3 DUP2 MSTORE PUSH1 0x20 ADD PUSH3 0x22A729 PUSH1 0xE9 SHL DUP2 MSTORE POP DUP2 PUSH0 SWAP1 DUP2 PUSH3 0x68 SWAP2 SWAP1 PUSH3 0x146 JUMP JUMPDEST POP PUSH1 0x1 PUSH3 0x77 DUP3 DUP3 PUSH3 0x146 JUMP JUMPDEST POP POP PUSH1 0xA DUP1 SLOAD PUSH1 0x1 PUSH1 0x1 PUSH1 0xA0 SHL SUB NOT AND PUSH20 0x1AE0EA34A72D944A8C7603FFB3EC30A6669E454C OR SWAP1 SSTORE POP PUSH3 0x20E JUMP JUMPDEST PUSH4 0x4E487B71 PUSH1 0xE0 SHL PUSH0 MSTORE PUSH1 0x41 PUSH1 0x4 MSTORE PUSH1 0x24 PUSH0 REVERT JUMPDEST PUSH1 0x1 DUP2 DUP2 SHR SWAP1 DUP3 AND DUP1 PUSH3 0xCF JUMPI PUSH1 0x7F DUP3 AND SWAP2 POP JUMPDEST PUSH1 0x20 DUP3 LT DUP2 SUB PUSH3 0xEE JUMPI PUSH4 0x4E487B71 PUSH1 0xE0 SHL PUSH0 MSTORE PUSH1 0x22 PUSH1 0x4 MSTORE PUSH1 0x24 PUSH0 REVERT JUMPDEST POP SWAP2 SWAP1 POP JUMP JUMPDEST PUSH1 0x1F DUP3 GT ISZERO PUSH3 0x141 JUMPI PUSH0 DUP2 DUP2 MSTORE PUSH1 0x20 DUP2 KECCAK256 PUSH1 0x1F DUP6 ADD PUSH1 0x5 SHR DUP2 ADD PUSH1 0x20 DUP7 LT ISZERO PUSH3 0x11C JUMPI POP DUP1 JUMPDEST PUSH1 0x1F DUP6 ADD PUSH1 0x5 SHR DUP3 ADD SWAP2 POP JUMPDEST DUP2 DUP2 LT ISZERO PUSH3 0x13D JUMPI DUP3 DUP2 SSTORE PUSH1 0x1 ADD PUSH3 0x128 JUMP JUMPDEST POP POP POP JUMPDEST POP POP POP JUMP JUMPDEST DUP2 MLOAD PUSH1 0x1 PUSH1 0x1 PUSH1 0x40 SHL SUB DUP2 GT ISZERO PUSH3 0x162 JUMPI PUSH3 0x162 PUSH3 0xA6 JUMP JUMPDEST PUSH3 0x17A DUP2 PUSH3 0x173 DUP5 SLOAD PUSH3 0xBA JUMP JUMPDEST DUP5 PUSH3 0xF4 JUMP JUMPDEST PUSH1 0x20 DUP1 PUSH1 0x1F DUP4 GT PUSH1 0x1 DUP2 EQ PUSH3 0x1B0 JUMPI PUSH0 DUP5 ISZERO PUSH3 0x198 JUMPI POP DUP6 DUP4 ADD MLOAD JUMPDEST PUSH0 NOT PUSH1 0x3 DUP7 SWAP1 SHL SHR NOT AND PUSH1 0x1 DUP6 SWAP1 SHL OR DUP6 SSTORE PUSH3 0x13D JUMP JUMPDEST PUSH0 DUP6 DUP2 MSTORE PUSH1 0x20 DUP2 KECCAK256 PUSH1 0x1F NOT DUP7 AND SWAP2 JUMPDEST DUP3 DUP2 LT ISZERO PUSH3 0x1E0 JUMPI DUP9 DUP7 ADD MLOAD DUP3 SSTORE SWAP5 DUP5 ADD SWAP5 PUSH1 0x1 SWAP1 SWAP2 ADD SWAP1 DUP5 ADD PUSH3 0x1BF JUMP JUMPDEST POP DUP6 DUP3 LT ISZERO PUSH3 0x1FE JUMPI DUP8 DUP6 ADD MLOAD PUSH0 NOT PUSH1 0x3 DUP9 SWAP1 SHL PUSH1 0xF8 AND SHR NOT AND DUP2 SSTORE JUMPDEST POP POP POP POP POP PUSH1 0x1 SWAP1 DUP2 SHL ADD SWAP1 SSTORE POP JUMP JUMPDEST PUSH2 0x397A DUP1 PUSH3 0x21C PUSH0 CODECOPY PUSH0 RETURN INVALID PUSH1 0x80 PUSH1 0x40 MSTORE CALLVALUE DUP1 ISZERO PUSH2 0xF JUMPI PUSH0 DUP1 REVERT JUMPDEST POP PUSH1 0x4 CALLDATASIZE LT PUSH2 0x1B6 JUMPI PUSH0 CALLDATALOAD PUSH1 0xE0 SHR DUP1 PUSH4 0x8C434709 GT PUSH2 0xF6 JUMPI DUP1 PUSH4 0xA22CB465 GT PUSH2 0x9A JUMPI DUP1 PUSH4 0xA22CB465 EQ PUSH2 0x478 JUMPI DUP1 PUSH4 0xA498E802 EQ PUSH2 0x48B JUMPI DUP1 PUSH4 0xB88D4FDE EQ PUSH2 0x4F0 JUMPI DUP1 PUSH4 0xB95AFE03 EQ PUSH2 0x503 JUMPI DUP1 PUSH4 0xBFD44472 EQ PUSH2 0x54D JUMPI DUP1 PUSH4 0xC87B56DD EQ PUSH2 0x555 JUMPI DUP1 PUSH4 0xE83DC185 EQ PUSH2 0x568 JUMPI DUP1 PUSH4 0xE985E9C5 EQ PUSH2 0x570 JUMPI DUP1 PUSH4 0xED9F8D1C EQ PUSH2 0x583 JUMPI PUSH0 DUP1 REVERT JUMPDEST DUP1 PUSH4 0x8C434709 EQ PUSH2 0x344 JUMPI DUP1 PUSH4 0x90106C5E EQ PUSH2 0x34C JUMPI DUP1 PUSH4 0x93B16B45 EQ PUSH2 0x35F JUMPI DUP1 PUSH4 0x95D89B41 EQ PUSH2 0x372 JUMPI DUP1 PUSH4 0x987E9533 EQ PUSH2 0x37A JUMPI DUP1 PUSH4 0x9DCAF479 EQ PUSH2 0x38D JUMPI DUP1 PUSH4 0xA1905E4E EQ PUSH2 0x3A0 JUMPI DUP1 PUSH4 0xA22690A8 EQ PUSH2 0x3B3 JUMPI PUSH0 DUP1 REVERT JUMPDEST DUP1 PUSH4 0x2F745C59 GT PUSH2 0x15D JUMPI DUP1 PUSH4 0x2F745C59 EQ PUSH2 0x2AA JUMPI DUP1 PUSH4 0x42842E0E EQ PUSH2 0x2BD JUMPI DUP1 PUSH4 0x4F6CCCE7 EQ PUSH2 0x2D0 JUMPI DUP1 PUSH4 0x5D00927E EQ PUSH2 0x2E3 JUMPI DUP1 PUSH4 0x5DD4E938 EQ PUSH2 0x2F6 JUMPI DUP1 PUSH4 0x6352211E EQ PUSH2 0x316 JUMPI DUP1 PUSH4 0x6D955EB5 EQ PUSH2 0x329 JUMPI DUP1 PUSH4 0x70A08231 EQ PUSH2 0x331 JUMPI PUSH0 DUP1 REVERT JUMPDEST DUP1 PUSH4 0x1FFC9A7 EQ PUSH2 0x1BA JUMPI DUP1 PUSH4 0x6FDDE03 EQ PUSH2 0x1E2 JUMPI DUP1 PUSH4 0x81812FC EQ PUSH2 0x1F7 JUMPI DUP1 PUSH4 0x95EA7B3 EQ PUSH2 0x217 JUMPI DUP1 PUSH4 0x18160DDD EQ PUSH2 0x22C JUMPI DUP1 PUSH4 0x23B872DD EQ PUSH2 0x23E JUMPI DUP1 PUSH4 0x29CB924D EQ PUSH2 0x251 JUMPI DUP1 PUSH4 0x2B80FA28 EQ PUSH2 0x257 JUMPI JUMPDEST PUSH0 DUP1 REVERT JUMPDEST PUSH2 0x1CD PUSH2 0x1C8 CALLDATASIZE PUSH1 0x4 PUSH2 0x3283 JUMP JUMPDEST PUSH2 0x58B JUMP JUMPDEST PUSH1 0x40 MLOAD SWAP1 ISZERO ISZERO DUP2 MSTORE PUSH1 0x20 ADD JUMPDEST PUSH1 0x40 MLOAD DUP1 SWAP2 SUB SWAP1 RETURN JUMPDEST PUSH2 0x1EA PUSH2 0x5B5 JUMP JUMPDEST PUSH1 0x40 MLOAD PUSH2 0x1D9 SWAP2 SWAP1 PUSH2 0x32EB JUMP JUMPDEST PUSH2 0x20A PUSH2 0x205 CALLDATASIZE PUSH1 0x4 PUSH2 0x32FD JUMP JUMPDEST PUSH2 0x644 JUMP JUMPDEST PUSH1 0x40 MLOAD PUSH2 0x1D9 SWAP2 SWAP1 PUSH2 0x3314 JUMP JUMPDEST PUSH2 0x22A PUSH2 0x225 CALLDATASIZE PUSH1 0x4 PUSH2 0x3343 JUMP JUMPDEST PUSH2 0x66B JUMP JUMPDEST STOP JUMPDEST PUSH1 0x8 SLOAD JUMPDEST PUSH1 0x40 MLOAD SWAP1 DUP2 MSTORE PUSH1 0x20 ADD PUSH2 0x1D9 JUMP JUMPDEST PUSH2 0x22A PUSH2 0x24C CALLDATASIZE PUSH1 0x4 PUSH2 0x336B JUMP JUMPDEST PUSH2 0x67A JUMP JUMPDEST TIMESTAMP PUSH2 0x230 JUMP JUMPDEST PUSH2 0x28D PUSH2 0x265 CALLDATASIZE PUSH1 0x4 PUSH2 0x33A4 JUMP JUMPDEST PUSH1 0xD PUSH1 0x20 MSTORE PUSH0 SWAP1 DUP2 MSTORE PUSH1 0x40 SWAP1 KECCAK256 PUSH1 0x1 DUP2 ADD SLOAD PUSH1 0x3 SWAP1 SWAP2 ADD SLOAD PUSH1 0xFF DUP1 DUP4 AND SWAP3 PUSH2 0x100 SWAP1 DIV AND SWAP1 DUP4 JUMP JUMPDEST PUSH1 0x40 DUP1 MLOAD SWAP4 ISZERO ISZERO DUP5 MSTORE SWAP2 ISZERO ISZERO PUSH1 0x20 DUP5 ADD MSTORE SWAP1 DUP3 ADD MSTORE PUSH1 0x60 ADD PUSH2 0x1D9 JUMP JUMPDEST PUSH2 0x230 PUSH2 0x2B8 CALLDATASIZE PUSH1 0x4 PUSH2 0x3343 JUMP JUMPDEST PUSH2 0x6DF JUMP JUMPDEST PUSH2 0x22A PUSH2 0x2CB CALLDATASIZE PUSH1 0x4 PUSH2 0x336B JUMP JUMPDEST PUSH2 0x734 JUMP JUMPDEST PUSH2 0x230 PUSH2 0x2DE CALLDATASIZE PUSH1 0x4 PUSH2 0x32FD JUMP JUMPDEST PUSH2 0x753 JUMP JUMPDEST PUSH1 0xA SLOAD PUSH2 0x20A SWAP1 PUSH1 0x1 PUSH1 0x1 PUSH1 0xA0 SHL SUB AND DUP2 JUMP JUMPDEST PUSH2 0x309 PUSH2 0x304 CALLDATASIZE PUSH1 0x4 PUSH2 0x33A4 JUMP JUMPDEST PUSH2 0x7A3 JUMP JUMPDEST PUSH1 0x40 MLOAD PUSH2 0x1D9 SWAP2 SWAP1 PUSH2 0x33BD JUMP JUMPDEST PUSH2 0x20A PUSH2 0x324 CALLDATASIZE PUSH1 0x4 PUSH2 0x32FD JUMP JUMPDEST PUSH2 0x825 JUMP JUMPDEST PUSH2 0x22A PUSH2 0x82F JUMP JUMPDEST PUSH2 0x230 PUSH2 0x33F CALLDATASIZE PUSH1 0x4 PUSH2 0x33A4 JUMP JUMPDEST PUSH2 0xA7D JUMP JUMPDEST PUSH2 0x22A PUSH2 0xAC2 JUMP JUMPDEST PUSH2 0x22A PUSH2 0x35A CALLDATASIZE PUSH1 0x4 PUSH2 0x3409 JUMP JUMPDEST PUSH2 0xD03 JUMP JUMPDEST PUSH2 0x22A PUSH2 0x36D CALLDATASIZE PUSH1 0x4 PUSH2 0x32FD JUMP JUMPDEST PUSH2 0xEE5 JUMP JUMPDEST PUSH2 0x1EA PUSH2 0xF2D JUMP JUMPDEST PUSH2 0x22A PUSH2 0x388 CALLDATASIZE PUSH1 0x4 PUSH2 0x3343 JUMP JUMPDEST PUSH2 0xF3C JUMP JUMPDEST PUSH2 0x1CD PUSH2 0x39B CALLDATASIZE PUSH1 0x4 PUSH2 0x3478 JUMP JUMPDEST PUSH2 0x1680 JUMP JUMPDEST PUSH2 0x22A PUSH2 0x3AE CALLDATASIZE PUSH1 0x4 PUSH2 0x33A4 JUMP JUMPDEST PUSH2 0x186B JUMP JUMPDEST PUSH2 0x465 PUSH2 0x3C1 CALLDATASIZE PUSH1 0x4 PUSH2 0x33A4 JUMP JUMPDEST PUSH1 0xC PUSH1 0x20 SWAP1 DUP2 MSTORE PUSH0 SWAP2 DUP3 MSTORE PUSH1 0x40 SWAP2 DUP3 SWAP1 KECCAK256 DUP3 MLOAD PUSH1 0x60 DUP1 DUP3 ADD DUP6 MSTORE DUP3 SLOAD PUSH1 0x1 PUSH1 0x1 PUSH1 0xA0 SHL SUB DUP1 DUP3 AND DUP5 MSTORE PUSH1 0xFF PUSH1 0x1 PUSH1 0xA0 SHL DUP1 DUP5 DIV DUP3 AND ISZERO ISZERO DUP7 DUP10 ADD MSTORE PUSH1 0x1 PUSH1 0xA8 SHL SWAP4 DUP5 SWAP1 DIV DUP3 AND ISZERO ISZERO DUP7 DUP11 ADD MSTORE DUP9 MLOAD SWAP5 DUP6 ADD DUP10 MSTORE PUSH1 0x1 DUP8 ADD SLOAD SWAP3 DUP4 AND DUP6 MSTORE DUP3 DIV DUP2 AND ISZERO ISZERO SWAP7 DUP5 ADD SWAP7 SWAP1 SWAP7 MSTORE DIV DUP5 AND ISZERO ISZERO SWAP5 DUP2 ADD SWAP5 SWAP1 SWAP5 MSTORE PUSH1 0x2 DUP3 ADD SLOAD PUSH1 0x3 SWAP1 SWAP3 ADD SLOAD SWAP1 SWAP4 SWAP3 DUP2 DUP2 AND SWAP2 PUSH2 0x100 DUP2 DIV DUP3 AND SWAP2 PUSH3 0x10000 DUP3 DIV DUP2 AND SWAP2 PUSH4 0x1000000 SWAP1 DIV AND DUP8 JUMP JUMPDEST PUSH1 0x40 MLOAD PUSH2 0x1D9 SWAP8 SWAP7 SWAP6 SWAP5 SWAP4 SWAP3 SWAP2 SWAP1 PUSH2 0x34CF JUMP JUMPDEST PUSH2 0x22A PUSH2 0x486 CALLDATASIZE PUSH1 0x4 PUSH2 0x351C JUMP JUMPDEST PUSH2 0x1B68 JUMP JUMPDEST PUSH2 0x4C9 PUSH2 0x499 CALLDATASIZE PUSH1 0x4 PUSH2 0x33A4 JUMP JUMPDEST PUSH1 0xB PUSH1 0x20 MSTORE PUSH0 SWAP1 DUP2 MSTORE PUSH1 0x40 SWAP1 KECCAK256 SLOAD PUSH1 0x1 PUSH1 0x1 PUSH1 0xA0 SHL SUB DUP2 AND SWAP1 PUSH1 0xFF PUSH1 0x1 PUSH1 0xA0 SHL DUP3 DIV DUP2 AND SWAP2 PUSH1 0x1 PUSH1 0xA8 SHL SWAP1 DIV AND DUP4 JUMP JUMPDEST PUSH1 0x40 DUP1 MLOAD PUSH1 0x1 PUSH1 0x1 PUSH1 0xA0 SHL SUB SWAP1 SWAP5 AND DUP5 MSTORE SWAP2 ISZERO ISZERO PUSH1 0x20 DUP5 ADD MSTORE ISZERO ISZERO SWAP1 DUP3 ADD MSTORE PUSH1 0x60 ADD PUSH2 0x1D9 JUMP JUMPDEST PUSH2 0x22A PUSH2 0x4FE CALLDATASIZE PUSH1 0x4 PUSH2 0x3569 JUMP JUMPDEST PUSH2 0x1B73 JUMP JUMPDEST PUSH2 0x516 PUSH2 0x511 CALLDATASIZE PUSH1 0x4 PUSH2 0x33A4 JUMP JUMPDEST PUSH2 0x1B90 JUMP JUMPDEST PUSH1 0x40 DUP1 MLOAD PUSH1 0x1 PUSH1 0x1 PUSH1 0xA0 SHL SUB SWAP7 DUP8 AND DUP2 MSTORE SWAP6 SWAP1 SWAP5 AND PUSH1 0x20 DUP7 ADD MSTORE SWAP3 DUP5 ADD SWAP2 SWAP1 SWAP2 MSTORE ISZERO ISZERO PUSH1 0x60 DUP4 ADD MSTORE ISZERO ISZERO PUSH1 0x80 DUP3 ADD MSTORE PUSH1 0xA0 ADD PUSH2 0x1D9 JUMP JUMPDEST PUSH2 0x22A PUSH2 0x1CA1 JUMP JUMPDEST PUSH2 0x1EA PUSH2 0x563 CALLDATASIZE PUSH1 0x4 PUSH2 0x32FD JUMP JUMPDEST PUSH2 0x1D42 JUMP JUMPDEST PUSH2 0x22A PUSH2 0x1DB3 JUMP JUMPDEST PUSH2 0x1CD PUSH2 0x57E CALLDATASIZE PUSH1 0x4 PUSH2 0x3478 JUMP JUMPDEST PUSH2 0x1F94 JUMP JUMPDEST PUSH2 0x22A PUSH2 0x1FC1 JUMP JUMPDEST PUSH0 PUSH1 0x1 PUSH1 0x1 PUSH1 0xE0 SHL SUB NOT DUP3 AND PUSH4 0x780E9D63 PUSH1 0xE0 SHL EQ DUP1 PUSH2 0x5AF JUMPI POP PUSH2 0x5AF DUP3 PUSH2 0x2251 JUMP JUMPDEST SWAP3 SWAP2 POP POP JUMP JUMPDEST PUSH1 0x60 PUSH0 DUP1 SLOAD PUSH2 0x5C3 SWAP1 PUSH2 0x363E JUMP JUMPDEST DUP1 PUSH1 0x1F ADD PUSH1 0x20 DUP1 SWAP2 DIV MUL PUSH1 0x20 ADD PUSH1 0x40 MLOAD SWAP1 DUP2 ADD PUSH1 0x40 MSTORE DUP1 SWAP3 SWAP2 SWAP1 DUP2 DUP2 MSTORE PUSH1 0x20 ADD DUP3 DUP1 SLOAD PUSH2 0x5EF SWAP1 PUSH2 0x363E JUMP JUMPDEST DUP1 ISZERO PUSH2 0x63A JUMPI DUP1 PUSH1 0x1F LT PUSH2 0x611 JUMPI PUSH2 0x100 DUP1 DUP4 SLOAD DIV MUL DUP4 MSTORE SWAP2 PUSH1 0x20 ADD SWAP2 PUSH2 0x63A JUMP JUMPDEST DUP3 ADD SWAP2 SWAP1 PUSH0 MSTORE PUSH1 0x20 PUSH0 KECCAK256 SWAP1 JUMPDEST DUP2 SLOAD DUP2 MSTORE SWAP1 PUSH1 0x1 ADD SWAP1 PUSH1 0x20 ADD DUP1 DUP4 GT PUSH2 0x61D JUMPI DUP3 SWAP1 SUB PUSH1 0x1F AND DUP3 ADD SWAP2 JUMPDEST POP POP POP POP POP SWAP1 POP SWAP1 JUMP JUMPDEST PUSH0 PUSH2 0x64E DUP3 PUSH2 0x22A0 JUMP JUMPDEST POP PUSH0 DUP3 DUP2 MSTORE PUSH1 0x4 PUSH1 0x20 MSTORE PUSH1 0x40 SWAP1 KECCAK256 SLOAD PUSH1 0x1 PUSH1 0x1 PUSH1 0xA0 SHL SUB AND PUSH2 0x5AF JUMP JUMPDEST PUSH2 0x676 DUP3 DUP3 CALLER PUSH2 0x22D8 JUMP JUMPDEST POP POP JUMP JUMPDEST PUSH1 0x40 MLOAD PUSH3 0x461BCD PUSH1 0xE5 SHL DUP2 MSTORE PUSH1 0x20 PUSH1 0x4 DUP3 ADD MSTORE PUSH1 0x2F PUSH1 0x24 DUP3 ADD MSTORE PUSH32 0x57656464696E67206365727469666963617465207472616E7366657220617265 PUSH1 0x44 DUP3 ADD MSTORE PUSH15 0x81B9BDD08185D5D1A1BDC9A5E9959 PUSH1 0x8A SHL PUSH1 0x64 DUP3 ADD MSTORE PUSH1 0x84 ADD JUMPDEST PUSH1 0x40 MLOAD DUP1 SWAP2 SUB SWAP1 REVERT JUMPDEST PUSH0 PUSH2 0x6E9 DUP4 PUSH2 0xA7D JUMP JUMPDEST DUP3 LT PUSH2 0x70C JUMPI DUP3 DUP3 PUSH1 0x40 MLOAD PUSH4 0x295F44F7 PUSH1 0xE2 SHL DUP2 MSTORE PUSH1 0x4 ADD PUSH2 0x6D6 SWAP3 SWAP2 SWAP1 PUSH2 0x3676 JUMP JUMPDEST POP PUSH1 0x1 PUSH1 0x1 PUSH1 0xA0 SHL SUB SWAP2 SWAP1 SWAP2 AND PUSH0 SWAP1 DUP2 MSTORE PUSH1 0x6 PUSH1 0x20 SWAP1 DUP2 MSTORE PUSH1 0x40 DUP1 DUP4 KECCAK256 SWAP4 DUP4 MSTORE SWAP3 SWAP1 MSTORE KECCAK256 SLOAD SWAP1 JUMP JUMPDEST PUSH2 0x74E DUP4 DUP4 DUP4 PUSH1 0x40 MLOAD DUP1 PUSH1 0x20 ADD PUSH1 0x40 MSTORE DUP1 PUSH0 DUP2 MSTORE POP PUSH2 0x1B73 JUMP JUMPDEST POP POP POP JUMP JUMPDEST PUSH0 PUSH2 0x75D PUSH1 0x8 SLOAD SWAP1 JUMP JUMPDEST DUP3 LT PUSH2 0x780 JUMPI PUSH0 DUP3 PUSH1 0x40 MLOAD PUSH4 0x295F44F7 PUSH1 0xE2 SHL DUP2 MSTORE PUSH1 0x4 ADD PUSH2 0x6D6 SWAP3 SWAP2 SWAP1 PUSH2 0x3676 JUMP JUMPDEST PUSH1 0x8 DUP3 DUP2 SLOAD DUP2 LT PUSH2 0x793 JUMPI PUSH2 0x793 PUSH2 0x368F JUMP JUMPDEST SWAP1 PUSH0 MSTORE PUSH1 0x20 PUSH0 KECCAK256 ADD SLOAD SWAP1 POP SWAP2 SWAP1 POP JUMP JUMPDEST PUSH1 0x60 PUSH0 PUSH2 0x7AF DUP4 PUSH2 0x22E5 JUMP JUMPDEST PUSH1 0x1 PUSH1 0x1 PUSH1 0xA0 SHL SUB DUP2 AND PUSH0 SWAP1 DUP2 MSTORE PUSH1 0xD PUSH1 0x20 SWAP1 DUP2 MSTORE PUSH1 0x40 SWAP2 DUP3 SWAP1 KECCAK256 DUP1 SLOAD DUP4 MLOAD DUP2 DUP5 MUL DUP2 ADD DUP5 ADD SWAP1 SWAP5 MSTORE DUP1 DUP5 MSTORE SWAP4 SWAP5 POP SWAP2 SWAP3 SWAP1 DUP4 ADD DUP3 DUP3 DUP1 ISZERO PUSH2 0x818 JUMPI PUSH1 0x20 MUL DUP3 ADD SWAP2 SWAP1 PUSH0 MSTORE PUSH1 0x20 PUSH0 KECCAK256 SWAP1 JUMPDEST DUP2 SLOAD PUSH1 0x1 PUSH1 0x1 PUSH1 0xA0 SHL SUB AND DUP2 MSTORE PUSH1 0x1 SWAP1 SWAP2 ADD SWAP1 PUSH1 0x20 ADD DUP1 DUP4 GT PUSH2 0x7FA JUMPI JUMPDEST POP POP POP POP POP SWAP2 POP POP SWAP2 SWAP1 POP JUMP JUMPDEST PUSH0 PUSH2 0x5AF DUP3 PUSH2 0x22A0 JUMP JUMPDEST CALLER PUSH0 DUP2 DUP2 MSTORE PUSH1 0xC PUSH1 0x20 SWAP1 DUP2 MSTORE PUSH1 0x40 DUP1 DUP4 KECCAK256 DUP2 MLOAD PUSH2 0x140 DUP2 ADD DUP4 MSTORE DUP2 SLOAD PUSH1 0x1 PUSH1 0x1 PUSH1 0xA0 SHL SUB DUP2 DUP2 AND PUSH1 0xE0 DUP5 ADD SWAP1 DUP2 MSTORE PUSH1 0xFF PUSH1 0x1 PUSH1 0xA0 SHL DUP1 DUP6 DIV DUP3 AND ISZERO ISZERO PUSH2 0x100 DUP1 DUP9 ADD SWAP2 SWAP1 SWAP2 MSTORE PUSH1 0x1 PUSH1 0xA8 SHL SWAP6 DUP7 SWAP1 DIV DUP4 AND ISZERO ISZERO PUSH2 0x120 DUP9 ADD MSTORE SWAP3 DUP7 MSTORE DUP8 MLOAD PUSH1 0x60 DUP2 DUP2 ADD DUP11 MSTORE PUSH1 0x1 DUP10 ADD SLOAD DUP1 DUP8 AND DUP4 MSTORE SWAP3 DUP4 DIV DUP5 AND ISZERO ISZERO DUP3 DUP13 ADD MSTORE SWAP6 SWAP1 SWAP2 DIV DUP3 AND ISZERO ISZERO DUP2 DUP10 ADD MSTORE DUP6 DUP10 ADD MSTORE PUSH1 0x2 DUP7 ADD SLOAD DUP6 DUP9 ADD MSTORE PUSH1 0x3 SWAP1 SWAP6 ADD SLOAD DUP1 DUP7 AND ISZERO ISZERO SWAP4 DUP6 ADD SWAP4 SWAP1 SWAP4 MSTORE DUP3 DIV DUP5 AND ISZERO ISZERO PUSH1 0x80 DUP5 ADD MSTORE PUSH3 0x10000 DUP3 DIV DUP5 AND ISZERO ISZERO PUSH1 0xA0 DUP5 ADD MSTORE PUSH4 0x1000000 SWAP1 SWAP2 DIV SWAP1 SWAP3 AND PUSH1 0xC0 DUP3 ADD MSTORE DUP1 MLOAD MLOAD DUP3 AND DUP6 MSTORE PUSH1 0xB SWAP1 SWAP4 MSTORE SWAP3 KECCAK256 SLOAD SWAP1 SWAP2 AND DUP3 EQ DUP1 PUSH2 0x93D JUMPI POP PUSH1 0x20 DUP2 DUP2 ADD MLOAD MLOAD PUSH1 0x1 PUSH1 0x1 PUSH1 0xA0 SHL SUB SWAP1 DUP2 AND PUSH0 SWAP1 DUP2 MSTORE PUSH1 0xB SWAP1 SWAP3 MSTORE PUSH1 0x40 SWAP1 SWAP2 KECCAK256 SLOAD AND CALLER EQ JUMPDEST PUSH2 0x959 JUMPI PUSH1 0x40 MLOAD PUSH3 0x461BCD PUSH1 0xE5 SHL DUP2 MSTORE PUSH1 0x4 ADD PUSH2 0x6D6 SWAP1 PUSH2 0x36A3 JUMP JUMPDEST CALLER PUSH0 DUP2 DUP2 MSTORE PUSH1 0xC PUSH1 0x20 MSTORE PUSH1 0x40 SWAP1 KECCAK256 PUSH1 0x3 ADD SLOAD PUSH1 0xFF AND ISZERO PUSH2 0x98B JUMPI PUSH1 0x40 MLOAD PUSH3 0x461BCD PUSH1 0xE5 SHL DUP2 MSTORE PUSH1 0x4 ADD PUSH2 0x6D6 SWAP1 PUSH2 0x36EC JUMP JUMPDEST CALLER PUSH0 DUP2 DUP2 MSTORE PUSH1 0xC PUSH1 0x20 SWAP1 DUP2 MSTORE PUSH1 0x40 DUP1 DUP4 KECCAK256 DUP1 SLOAD PUSH1 0x1 PUSH1 0x1 PUSH1 0xA0 SHL SUB SWAP1 DUP2 AND DUP6 MSTORE DUP3 DUP6 KECCAK256 DUP1 SLOAD PUSH1 0x1 PUSH1 0x1 PUSH1 0xB0 SHL SUB NOT SWAP1 DUP2 AND DUP3 SSTORE PUSH1 0x1 DUP3 DUP2 ADD DUP1 SLOAD DUP4 AND SWAP1 SSTORE PUSH1 0x2 DUP1 DUP5 ADD DUP10 SWAP1 SSTORE PUSH1 0x3 SWAP4 DUP5 ADD DUP1 SLOAD PUSH4 0xFFFFFFFF NOT SWAP1 DUP2 AND SWAP1 SWAP2 SSTORE DUP3 DUP8 ADD DUP1 SLOAD DUP8 AND DUP12 MSTORE DUP9 DUP12 KECCAK256 DUP1 SLOAD DUP7 AND DUP2 SSTORE SWAP4 DUP5 ADD DUP1 SLOAD SWAP1 SWAP6 AND SWAP1 SWAP5 SSTORE SWAP1 DUP3 ADD DUP10 SWAP1 SSTORE SWAP3 ADD DUP1 SLOAD SWAP1 SWAP3 AND SWAP1 SWAP2 SSTORE DUP3 SLOAD DUP3 AND DUP7 MSTORE PUSH1 0xB SWAP1 SWAP5 MSTORE DUP3 DUP6 KECCAK256 DUP1 SLOAD PUSH1 0xFF PUSH1 0xA0 SHL NOT SWAP1 DUP2 AND SWAP1 SWAP2 SSTORE SWAP4 SLOAD AND DUP5 MSTORE SWAP3 DUP2 SWAP1 KECCAK256 DUP1 SLOAD SWAP1 SWAP3 AND SWAP1 SWAP2 SSTORE MLOAD SWAP1 SWAP2 PUSH32 0x1271C287650062F685BD2F225144D7B6B046826A5A70632C8F873240D04A54C6 SWAP2 PUSH2 0xA6F SWAP2 SWAP1 TIMESTAMP SWAP1 PUSH2 0x3676 JUMP JUMPDEST PUSH1 0x40 MLOAD DUP1 SWAP2 SUB SWAP1 LOG1 POP POP POP POP JUMP JUMPDEST PUSH0 PUSH1 0x1 PUSH1 0x1 PUSH1 0xA0 SHL SUB DUP3 AND PUSH2 0xAA7 JUMPI PUSH0 PUSH1 0x40 MLOAD PUSH4 0x22718AD9 PUSH1 0xE2 SHL DUP2 MSTORE PUSH1 0x4 ADD PUSH2 0x6D6 SWAP2 SWAP1 PUSH2 0x3314 JUMP JUMPDEST POP PUSH1 0x1 PUSH1 0x1 PUSH1 0xA0 SHL SUB AND PUSH0 SWAP1 DUP2 MSTORE PUSH1 0x3 PUSH1 0x20 MSTORE PUSH1 0x40 SWAP1 KECCAK256 SLOAD SWAP1 JUMP JUMPDEST CALLER PUSH0 DUP2 DUP2 MSTORE PUSH1 0xC PUSH1 0x20 SWAP1 DUP2 MSTORE PUSH1 0x40 DUP1 DUP4 KECCAK256 DUP2 MLOAD PUSH2 0x140 DUP2 ADD DUP4 MSTORE DUP2 SLOAD PUSH1 0x1 PUSH1 0x1 PUSH1 0xA0 SHL SUB DUP2 DUP2 AND PUSH1 0xE0 DUP5 ADD SWAP1 DUP2 MSTORE PUSH1 0xFF PUSH1 0x1 PUSH1 0xA0 SHL DUP1 DUP6 DIV DUP3 AND ISZERO ISZERO PUSH2 0x100 DUP1 DUP9 ADD SWAP2 SWAP1 SWAP2 MSTORE PUSH1 0x1 PUSH1 0xA8 SHL SWAP6 DUP7 SWAP1 DIV DUP4 AND ISZERO ISZERO PUSH2 0x120 DUP9 ADD MSTORE SWAP3 DUP7 MSTORE DUP8 MLOAD PUSH1 0x60 DUP2 DUP2 ADD DUP11 MSTORE PUSH1 0x1 DUP10 ADD SLOAD DUP1 DUP8 AND DUP4 MSTORE SWAP3 DUP4 DIV DUP5 AND ISZERO ISZERO DUP3 DUP13 ADD MSTORE SWAP6 SWAP1 SWAP2 DIV DUP3 AND ISZERO ISZERO DUP2 DUP10 ADD MSTORE DUP6 DUP10 ADD MSTORE PUSH1 0x2 DUP7 ADD SLOAD DUP6 DUP9 ADD MSTORE PUSH1 0x3 SWAP1 SWAP6 ADD SLOAD DUP1 DUP7 AND ISZERO ISZERO SWAP4 DUP6 ADD SWAP4 SWAP1 SWAP4 MSTORE DUP3 DIV DUP5 AND ISZERO ISZERO PUSH1 0x80 DUP5 ADD MSTORE PUSH3 0x10000 DUP3 DIV DUP5 AND ISZERO ISZERO PUSH1 0xA0 DUP5 ADD MSTORE PUSH4 0x1000000 SWAP1 SWAP2 DIV SWAP1 SWAP3 AND PUSH1 0xC0 DUP3 ADD MSTORE DUP1 MLOAD MLOAD DUP3 AND DUP6 MSTORE PUSH1 0xB SWAP1 SWAP4 MSTORE SWAP3 KECCAK256 SLOAD SWAP1 SWAP2 AND DUP3 EQ DUP1 PUSH2 0xBD0 JUMPI POP PUSH1 0x20 DUP2 DUP2 ADD MLOAD MLOAD PUSH1 0x1 PUSH1 0x1 PUSH1 0xA0 SHL SUB SWAP1 DUP2 AND PUSH0 SWAP1 DUP2 MSTORE PUSH1 0xB SWAP1 SWAP3 MSTORE PUSH1 0x40 SWAP1 SWAP2 KECCAK256 SLOAD AND CALLER EQ JUMPDEST PUSH2 0xBEC JUMPI PUSH1 0x40 MLOAD PUSH3 0x461BCD PUSH1 0xE5 SHL DUP2 MSTORE PUSH1 0x4 ADD PUSH2 0x6D6 SWAP1 PUSH2 0x36A3 JUMP JUMPDEST CALLER PUSH0 DUP2 DUP2 MSTORE PUSH1 0xC PUSH1 0x20 MSTORE PUSH1 0x40 SWAP1 KECCAK256 PUSH1 0x3 ADD SLOAD PUSH1 0xFF AND ISZERO PUSH2 0xC1E JUMPI PUSH1 0x40 MLOAD PUSH3 0x461BCD PUSH1 0xE5 SHL DUP2 MSTORE PUSH1 0x4 ADD PUSH2 0x6D6 SWAP1 PUSH2 0x36EC JUMP JUMPDEST CALLER PUSH0 DUP2 DUP2 MSTORE PUSH1 0xB PUSH1 0x20 MSTORE PUSH1 0x40 SWAP1 KECCAK256 SLOAD PUSH1 0x1 PUSH1 0xA8 SHL SWAP1 DIV PUSH1 0xFF AND ISZERO PUSH2 0xC54 JUMPI PUSH1 0x40 MLOAD PUSH3 0x461BCD PUSH1 0xE5 SHL DUP2 MSTORE PUSH1 0x4 ADD PUSH2 0x6D6 SWAP1 PUSH2 0x372E JUMP JUMPDEST PUSH0 PUSH1 0xC PUSH0 PUSH2 0xC61 CALLER PUSH2 0x24F4 JUMP JUMPDEST PUSH1 0x1 PUSH1 0x1 PUSH1 0xA0 SHL SUB SWAP1 DUP2 AND DUP3 MSTORE PUSH1 0x20 DUP3 ADD SWAP3 SWAP1 SWAP3 MSTORE PUSH1 0x40 ADD PUSH0 KECCAK256 DUP1 SLOAD SWAP1 SWAP3 POP AND CALLER SUB PUSH2 0xC9D JUMPI PUSH1 0x3 DUP2 ADD DUP1 SLOAD PUSH2 0xFF00 NOT AND PUSH2 0x100 OR SWAP1 SSTORE PUSH2 0xCC5 JUMP JUMPDEST PUSH1 0x1 DUP2 ADD SLOAD PUSH1 0x1 PUSH1 0x1 PUSH1 0xA0 SHL SUB AND CALLER SUB PUSH2 0xCC5 JUMPI PUSH1 0x3 DUP2 ADD DUP1 SLOAD PUSH3 0xFF0000 NOT AND PUSH3 0x10000 OR SWAP1 SSTORE JUMPDEST PUSH32 0x46D8ABD270FCE195A0DE9F22FC55ED1B5C6B4A38B0723362F84126D24E68171 CALLER PUSH1 0x40 MLOAD PUSH2 0xCF4 SWAP2 SWAP1 PUSH2 0x3314 JUMP JUMPDEST PUSH1 0x40 MLOAD DUP1 SWAP2 SUB SWAP1 LOG1 POP POP POP POP POP JUMP JUMPDEST CALLER PUSH0 DUP2 DUP2 MSTORE PUSH1 0xC PUSH1 0x20 SWAP1 DUP2 MSTORE PUSH1 0x40 DUP1 DUP4 KECCAK256 DUP2 MLOAD PUSH2 0x140 DUP2 ADD DUP4 MSTORE DUP2 SLOAD PUSH1 0x1 PUSH1 0x1 PUSH1 0xA0 SHL SUB DUP2 DUP2 AND PUSH1 0xE0 DUP5 ADD SWAP1 DUP2 MSTORE PUSH1 0xFF PUSH1 0x1 PUSH1 0xA0 SHL DUP1 DUP6 DIV DUP3 AND ISZERO ISZERO PUSH2 0x100 DUP1 DUP9 ADD SWAP2 SWAP1 SWAP2 MSTORE PUSH1 0x1 PUSH1 0xA8 SHL SWAP6 DUP7 SWAP1 DIV DUP4 AND ISZERO ISZERO PUSH2 0x120 DUP9 ADD MSTORE SWAP3 DUP7 MSTORE DUP8 MLOAD PUSH1 0x60 DUP2 DUP2 ADD DUP11 MSTORE PUSH1 0x1 DUP10 ADD SLOAD DUP1 DUP8 AND DUP4 MSTORE SWAP3 DUP4 DIV DUP5 AND ISZERO ISZERO DUP3 DUP13 ADD MSTORE SWAP6 SWAP1 SWAP2 DIV DUP3 AND ISZERO ISZERO DUP2 DUP10 ADD MSTORE DUP6 DUP10 ADD MSTORE PUSH1 0x2 DUP7 ADD SLOAD DUP6 DUP9 ADD MSTORE PUSH1 0x3 SWAP1 SWAP6 ADD SLOAD DUP1 DUP7 AND ISZERO ISZERO SWAP4 DUP6 ADD SWAP4 SWAP1 SWAP4 MSTORE DUP3 DIV DUP5 AND ISZERO ISZERO PUSH1 0x80 DUP5 ADD MSTORE PUSH3 0x10000 DUP3 DIV DUP5 AND ISZERO ISZERO PUSH1 0xA0 DUP5 ADD MSTORE PUSH4 0x1000000 SWAP1 SWAP2 DIV SWAP1 SWAP3 AND PUSH1 0xC0 DUP3 ADD MSTORE DUP1 MLOAD MLOAD DUP3 AND DUP6 MSTORE PUSH1 0xB SWAP1 SWAP4 MSTORE SWAP3 KECCAK256 SLOAD SWAP1 SWAP2 AND DUP3 EQ DUP1 PUSH2 0xE11 JUMPI POP PUSH1 0x20 DUP2 DUP2 ADD MLOAD MLOAD PUSH1 0x1 PUSH1 0x1 PUSH1 0xA0 SHL SUB SWAP1 DUP2 AND PUSH0 SWAP1 DUP2 MSTORE PUSH1 0xB SWAP1 SWAP3 MSTORE PUSH1 0x40 SWAP1 SWAP2 KECCAK256 SLOAD AND CALLER EQ JUMPDEST PUSH2 0xE2D JUMPI PUSH1 0x40 MLOAD PUSH3 0x461BCD PUSH1 0xE5 SHL DUP2 MSTORE PUSH1 0x4 ADD PUSH2 0x6D6 SWAP1 PUSH2 0x36A3 JUMP JUMPDEST CALLER PUSH0 DUP2 DUP2 MSTORE PUSH1 0xB PUSH1 0x20 MSTORE PUSH1 0x40 SWAP1 KECCAK256 SLOAD PUSH1 0x1 PUSH1 0xA8 SHL SWAP1 DIV PUSH1 0xFF AND ISZERO PUSH2 0xE63 JUMPI PUSH1 0x40 MLOAD PUSH3 0x461BCD PUSH1 0xE5 SHL DUP2 MSTORE PUSH1 0x4 ADD PUSH2 0x6D6 SWAP1 PUSH2 0x372E JUMP JUMPDEST PUSH0 PUSH2 0xE6D CALLER PUSH2 0x22E5 JUMP JUMPDEST PUSH1 0x1 PUSH1 0x1 PUSH1 0xA0 SHL SUB DUP2 AND PUSH0 SWAP1 DUP2 MSTORE PUSH1 0xD PUSH1 0x20 MSTORE PUSH1 0x40 SWAP1 KECCAK256 SWAP1 SWAP2 POP PUSH2 0xE92 DUP2 DUP9 DUP9 PUSH2 0x31F9 JUMP JUMPDEST POP PUSH1 0x1 DUP2 ADD DUP1 SLOAD PUSH2 0xFFFF NOT AND SWAP1 SSTORE PUSH1 0x40 MLOAD PUSH32 0x402F0CDBBD3E7BDBD2C1FC4D920FA1EE7A733238220198DF262284A1259D0BE6 SWAP1 PUSH2 0xED4 SWAP1 CALLER SWAP1 DUP11 SWAP1 DUP11 SWAP1 PUSH2 0x3757 JUMP JUMPDEST PUSH1 0x40 MLOAD DUP1 SWAP2 SUB SWAP1 LOG1 POP POP POP POP POP POP POP JUMP JUMPDEST CALLER PUSH0 SWAP1 DUP2 MSTORE PUSH1 0xC PUSH1 0x20 MSTORE PUSH1 0x40 SWAP1 KECCAK256 PUSH1 0x3 ADD SLOAD PUSH1 0x1 PUSH4 0x1000000 SWAP1 SWAP2 DIV PUSH1 0xFF AND GT PUSH2 0xF21 JUMPI PUSH1 0x40 MLOAD PUSH3 0x461BCD PUSH1 0xE5 SHL DUP2 MSTORE PUSH1 0x4 ADD PUSH2 0x6D6 SWAP1 PUSH2 0x37B0 JUMP JUMPDEST PUSH2 0xF2A DUP2 PUSH2 0x25D2 JUMP JUMPDEST POP JUMP JUMPDEST PUSH1 0x60 PUSH1 0x1 DUP1 SLOAD PUSH2 0x5C3 SWAP1 PUSH2 0x363E JUMP JUMPDEST DUP2 PUSH1 0x1 PUSH1 0x1 PUSH1 0xA0 SHL SUB DUP2 AND CALLER SUB PUSH2 0xF90 JUMPI PUSH1 0x40 MLOAD PUSH3 0x461BCD PUSH1 0xE5 SHL DUP2 MSTORE PUSH1 0x20 PUSH1 0x4 DUP3 ADD MSTORE PUSH1 0x18 PUSH1 0x24 DUP3 ADD MSTORE PUSH24 0x21B0B73737BA1032B733B0B3B2903A379037B732B9B2B633 PUSH1 0x41 SHL PUSH1 0x44 DUP3 ADD MSTORE PUSH1 0x64 ADD PUSH2 0x6D6 JUMP JUMPDEST CALLER PUSH0 SWAP1 DUP2 MSTORE PUSH1 0xB PUSH1 0x20 MSTORE PUSH1 0x40 SWAP1 KECCAK256 SLOAD DUP4 SWAP1 PUSH1 0x1 PUSH1 0xA0 SHL SWAP1 DIV PUSH1 0xFF AND ISZERO DUP1 ISZERO PUSH2 0xFD7 JUMPI POP PUSH1 0x1 PUSH1 0x1 PUSH1 0xA0 SHL SUB DUP2 AND PUSH0 SWAP1 DUP2 MSTORE PUSH1 0xB PUSH1 0x20 MSTORE PUSH1 0x40 SWAP1 KECCAK256 SLOAD PUSH1 0x1 PUSH1 0xA0 SHL SWAP1 DIV PUSH1 0xFF AND ISZERO JUMPDEST PUSH2 0x103B JUMPI PUSH1 0x40 MLOAD PUSH3 0x461BCD PUSH1 0xE5 SHL DUP2 MSTORE PUSH1 0x20 PUSH1 0x4 DUP3 ADD MSTORE PUSH1 0x2F PUSH1 0x24 DUP3 ADD MSTORE PUSH32 0x4F6E65206F7220626F7468206F66207468652073706F75736573206172652061 PUSH1 0x44 DUP3 ADD MSTORE PUSH15 0x363932B0B23C9032B733B0B3B2B217 PUSH1 0x89 SHL PUSH1 0x64 DUP3 ADD MSTORE PUSH1 0x84 ADD PUSH2 0x6D6 JUMP JUMPDEST PUSH1 0x40 MLOAD DUP1 PUSH1 0x60 ADD PUSH1 0x40 MSTORE DUP1 CALLER PUSH1 0x1 PUSH1 0x1 PUSH1 0xA0 SHL SUB AND DUP2 MSTORE PUSH1 0x20 ADD PUSH1 0x1 ISZERO ISZERO DUP2 MSTORE PUSH1 0x20 ADD PUSH0 ISZERO ISZERO DUP2 MSTORE POP PUSH1 0xB PUSH0 CALLER PUSH1 0x1 PUSH1 0x1 PUSH1 0xA0 SHL SUB AND PUSH1 0x1 PUSH1 0x1 PUSH1 0xA0 SHL SUB AND DUP2 MSTORE PUSH1 0x20 ADD SWAP1 DUP2 MSTORE PUSH1 0x20 ADD PUSH0 KECCAK256 PUSH0 DUP3 ADD MLOAD DUP2 PUSH0 ADD PUSH0 PUSH2 0x100 EXP DUP2 SLOAD DUP2 PUSH1 0x1 PUSH1 0x1 PUSH1 0xA0 SHL SUB MUL NOT AND SWAP1 DUP4 PUSH1 0x1 PUSH1 0x1 PUSH1 0xA0 SHL SUB AND MUL OR SWAP1 SSTORE POP PUSH1 0x20 DUP3 ADD MLOAD DUP2 PUSH0 ADD PUSH1 0x14 PUSH2 0x100 EXP DUP2 SLOAD DUP2 PUSH1 0xFF MUL NOT AND SWAP1 DUP4 ISZERO ISZERO MUL OR SWAP1 SSTORE POP PUSH1 0x40 DUP3 ADD MLOAD DUP2 PUSH0 ADD PUSH1 0x15 PUSH2 0x100 EXP DUP2 SLOAD DUP2 PUSH1 0xFF MUL NOT AND SWAP1 DUP4 ISZERO ISZERO MUL OR SWAP1 SSTORE POP SWAP1 POP POP PUSH1 0x40 MLOAD DUP1 PUSH1 0x60 ADD PUSH1 0x40 MSTORE DUP1 DUP6 PUSH1 0x1 PUSH1 0x1 PUSH1 0xA0 SHL SUB AND DUP2 MSTORE PUSH1 0x20 ADD PUSH1 0x1 ISZERO ISZERO DUP2 MSTORE PUSH1 0x20 ADD PUSH0 ISZERO ISZERO DUP2 MSTORE POP PUSH1 0xB PUSH0 DUP7 PUSH1 0x1 PUSH1 0x1 PUSH1 0xA0 SHL SUB AND PUSH1 0x1 PUSH1 0x1 PUSH1 0xA0 SHL SUB AND DUP2 MSTORE PUSH1 0x20 ADD SWAP1 DUP2 MSTORE PUSH1 0x20 ADD PUSH0 KECCAK256 PUSH0 DUP3 ADD MLOAD DUP2 PUSH0 ADD PUSH0 PUSH2 0x100 EXP DUP2 SLOAD DUP2 PUSH1 0x1 PUSH1 0x1 PUSH1 0xA0 SHL SUB MUL NOT AND SWAP1 DUP4 PUSH1 0x1 PUSH1 0x1 PUSH1 0xA0 SHL SUB AND MUL OR SWAP1 SSTORE POP PUSH1 0x20 DUP3 ADD MLOAD DUP2 PUSH0 ADD PUSH1 0x14 PUSH2 0x100 EXP DUP2 SLOAD DUP2 PUSH1 0xFF MUL NOT AND SWAP1 DUP4 ISZERO ISZERO MUL OR SWAP1 SSTORE POP PUSH1 0x40 DUP3 ADD MLOAD DUP2 PUSH0 ADD PUSH1 0x15 PUSH2 0x100 EXP DUP2 SLOAD DUP2 PUSH1 0xFF MUL NOT AND SWAP1 DUP4 ISZERO ISZERO MUL OR SWAP1 SSTORE POP SWAP1 POP POP PUSH0 PUSH1 0x40 MLOAD DUP1 PUSH1 0xE0 ADD PUSH1 0x40 MSTORE DUP1 PUSH1 0xB PUSH0 CALLER PUSH1 0x1 PUSH1 0x1 PUSH1 0xA0 SHL SUB AND PUSH1 0x1 PUSH1 0x1 PUSH1 0xA0 SHL SUB AND DUP2 MSTORE PUSH1 0x20 ADD SWAP1 DUP2 MSTORE PUSH1 0x20 ADD PUSH0 KECCAK256 PUSH1 0x40 MLOAD DUP1 PUSH1 0x60 ADD PUSH1 0x40 MSTORE SWAP1 DUP2 PUSH0 DUP3 ADD PUSH0 SWAP1 SLOAD SWAP1 PUSH2 0x100 EXP SWAP1 DIV PUSH1 0x1 PUSH1 0x1 PUSH1 0xA0 SHL SUB AND PUSH1 0x1 PUSH1 0x1 PUSH1 0xA0 SHL SUB AND PUSH1 0x1 PUSH1 0x1 PUSH1 0xA0 SHL SUB AND DUP2 MSTORE PUSH1 0x20 ADD PUSH0 DUP3 ADD PUSH1 0x14 SWAP1 SLOAD SWAP1 PUSH2 0x100 EXP SWAP1 DIV PUSH1 0xFF AND ISZERO ISZERO ISZERO ISZERO DUP2 MSTORE PUSH1 0x20 ADD PUSH0 DUP3 ADD PUSH1 0x15 SWAP1 SLOAD SWAP1 PUSH2 0x100 EXP SWAP1 DIV PUSH1 0xFF AND ISZERO ISZERO ISZERO ISZERO DUP2 MSTORE POP POP DUP2 MSTORE PUSH1 0x20 ADD PUSH1 0xB PUSH0 DUP9 PUSH1 0x1 PUSH1 0x1 PUSH1 0xA0 SHL SUB AND PUSH1 0x1 PUSH1 0x1 PUSH1 0xA0 SHL SUB AND DUP2 MSTORE PUSH1 0x20 ADD SWAP1 DUP2 MSTORE PUSH1 0x20 ADD PUSH0 KECCAK256 PUSH1 0x40 MLOAD DUP1 PUSH1 0x60 ADD PUSH1 0x40 MSTORE SWAP1 DUP2 PUSH0 DUP3 ADD PUSH0 SWAP1 SLOAD SWAP1 PUSH2 0x100 EXP SWAP1 DIV PUSH1 0x1 PUSH1 0x1 PUSH1 0xA0 SHL SUB AND PUSH1 0x1 PUSH1 0x1 PUSH1 0xA0 SHL SUB AND PUSH1 0x1 PUSH1 0x1 PUSH1 0xA0 SHL SUB AND DUP2 MSTORE PUSH1 0x20 ADD PUSH0 DUP3 ADD PUSH1 0x14 SWAP1 SLOAD SWAP1 PUSH2 0x100 EXP SWAP1 DIV PUSH1 0xFF AND ISZERO ISZERO ISZERO ISZERO DUP2 MSTORE PUSH1 0x20 ADD PUSH0 DUP3 ADD PUSH1 0x15 SWAP1 SLOAD SWAP1 PUSH2 0x100 EXP SWAP1 DIV PUSH1 0xFF AND ISZERO ISZERO ISZERO ISZERO DUP2 MSTORE POP POP DUP2 MSTORE PUSH1 0x20 ADD DUP6 DUP2 MSTORE PUSH1 0x20 ADD PUSH0 ISZERO ISZERO DUP2 MSTORE PUSH1 0x20 ADD PUSH0 ISZERO ISZERO DUP2 MSTORE PUSH1 0x20 ADD PUSH0 ISZERO ISZERO DUP2 MSTORE PUSH1 0x20 ADD PUSH0 PUSH1 0xFF AND DUP2 MSTORE POP SWAP1 POP DUP1 PUSH1 0xC PUSH0 CALLER PUSH1 0x1 PUSH1 0x1 PUSH1 0xA0 SHL SUB AND PUSH1 0x1 PUSH1 0x1 PUSH1 0xA0 SHL SUB AND DUP2 MSTORE PUSH1 0x20 ADD SWAP1 DUP2 MSTORE PUSH1 0x20 ADD PUSH0 KECCAK256 PUSH0 DUP3 ADD MLOAD DUP2 PUSH0 ADD PUSH0 DUP3 ADD MLOAD DUP2 PUSH0 ADD PUSH0 PUSH2 0x100 EXP DUP2 SLOAD DUP2 PUSH1 0x1 PUSH1 0x1 PUSH1 0xA0 SHL SUB MUL NOT AND SWAP1 DUP4 PUSH1 0x1 PUSH1 0x1 PUSH1 0xA0 SHL SUB AND MUL OR SWAP1 SSTORE POP PUSH1 0x20 DUP3 ADD MLOAD DUP2 PUSH0 ADD PUSH1 0x14 PUSH2 0x100 EXP DUP2 SLOAD DUP2 PUSH1 0xFF MUL NOT AND SWAP1 DUP4 ISZERO ISZERO MUL OR SWAP1 SSTORE POP PUSH1 0x40 DUP3 ADD MLOAD DUP2 PUSH0 ADD PUSH1 0x15 PUSH2 0x100 EXP DUP2 SLOAD DUP2 PUSH1 0xFF MUL NOT AND SWAP1 DUP4 ISZERO ISZERO MUL OR SWAP1 SSTORE POP POP POP PUSH1 0x20 DUP3 ADD MLOAD DUP2 PUSH1 0x1 ADD PUSH0 DUP3 ADD MLOAD DUP2 PUSH0 ADD PUSH0 PUSH2 0x100 EXP DUP2 SLOAD DUP2 PUSH1 0x1 PUSH1 0x1 PUSH1 0xA0 SHL SUB MUL NOT AND SWAP1 DUP4 PUSH1 0x1 PUSH1 0x1 PUSH1 0xA0 SHL SUB AND MUL OR SWAP1 SSTORE POP PUSH1 0x20 DUP3 ADD MLOAD DUP2 PUSH0 ADD PUSH1 0x14 PUSH2 0x100 EXP DUP2 SLOAD DUP2 PUSH1 0xFF MUL NOT AND SWAP1 DUP4 ISZERO ISZERO MUL OR SWAP1 SSTORE POP PUSH1 0x40 DUP3 ADD MLOAD DUP2 PUSH0 ADD PUSH1 0x15 PUSH2 0x100 EXP DUP2 SLOAD DUP2 PUSH1 0xFF MUL NOT AND SWAP1 DUP4 ISZERO ISZERO MUL OR SWAP1 SSTORE POP POP POP PUSH1 0x40 DUP3 ADD MLOAD DUP2 PUSH1 0x2 ADD SSTORE PUSH1 0x60 DUP3 ADD MLOAD DUP2 PUSH1 0x3 ADD PUSH0 PUSH2 0x100 EXP DUP2 SLOAD DUP2 PUSH1 0xFF MUL NOT AND SWAP1 DUP4 ISZERO ISZERO MUL OR SWAP1 SSTORE POP PUSH1 0x80 DUP3 ADD MLOAD DUP2 PUSH1 0x3 ADD PUSH1 0x1 PUSH2 0x100 EXP DUP2 SLOAD DUP2 PUSH1 0xFF MUL NOT AND SWAP1 DUP4 ISZERO ISZERO MUL OR SWAP1 SSTORE POP PUSH1 0xA0 DUP3 ADD MLOAD DUP2 PUSH1 0x3 ADD PUSH1 0x2 PUSH2 0x100 EXP DUP2 SLOAD DUP2 PUSH1 0xFF MUL NOT AND SWAP1 DUP4 ISZERO ISZERO MUL OR SWAP1 SSTORE POP PUSH1 0xC0 DUP3 ADD MLOAD DUP2 PUSH1 0x3 ADD PUSH1 0x3 PUSH2 0x100 EXP DUP2 SLOAD DUP2 PUSH1 0xFF MUL NOT AND SWAP1 DUP4 PUSH1 0xFF AND MUL OR SWAP1 SSTORE POP SWAP1 POP POP DUP1 PUSH1 0xC PUSH0 DUP8 PUSH1 0x1 PUSH1 0x1 PUSH1 0xA0 SHL SUB AND PUSH1 0x1 PUSH1 0x1 PUSH1 0xA0 SHL SUB AND DUP2 MSTORE PUSH1 0x20 ADD SWAP1 DUP2 MSTORE PUSH1 0x20 ADD PUSH0 KECCAK256 PUSH0 DUP3 ADD MLOAD DUP2 PUSH0 ADD PUSH0 DUP3 ADD MLOAD DUP2 PUSH0 ADD PUSH0 PUSH2 0x100 EXP DUP2 SLOAD DUP2 PUSH1 0x1 PUSH1 0x1 PUSH1 0xA0 SHL SUB MUL NOT AND SWAP1 DUP4 PUSH1 0x1 PUSH1 0x1 PUSH1 0xA0 SHL SUB AND MUL OR SWAP1 SSTORE POP PUSH1 0x20 DUP3 ADD MLOAD DUP2 PUSH0 ADD PUSH1 0x14 PUSH2 0x100 EXP DUP2 SLOAD DUP2 PUSH1 0xFF MUL NOT AND SWAP1 DUP4 ISZERO ISZERO MUL OR SWAP1 SSTORE POP PUSH1 0x40 DUP3 ADD MLOAD DUP2 PUSH0 ADD PUSH1 0x15 PUSH2 0x100 EXP DUP2 SLOAD DUP2 PUSH1 0xFF MUL NOT AND SWAP1 DUP4 ISZERO ISZERO MUL OR SWAP1 SSTORE POP POP POP PUSH1 0x20 DUP3 ADD MLOAD DUP2 PUSH1 0x1 ADD PUSH0 DUP3 ADD MLOAD DUP2 PUSH0 ADD PUSH0 PUSH2 0x100 EXP DUP2 SLOAD DUP2 PUSH1 0x1 PUSH1 0x1 PUSH1 0xA0 SHL SUB MUL NOT AND SWAP1 DUP4 PUSH1 0x1 PUSH1 0x1 PUSH1 0xA0 SHL SUB AND MUL OR SWAP1 SSTORE POP PUSH1 0x20 DUP3 ADD MLOAD DUP2 PUSH0 ADD PUSH1 0x14 PUSH2 0x100 EXP DUP2 SLOAD DUP2 PUSH1 0xFF MUL NOT AND SWAP1 DUP4 ISZERO ISZERO MUL OR SWAP1 SSTORE POP PUSH1 0x40 DUP3 ADD MLOAD DUP2 PUSH0 ADD PUSH1 0x15 PUSH2 0x100 EXP DUP2 SLOAD DUP2 PUSH1 0xFF MUL NOT AND SWAP1 DUP4 ISZERO ISZERO MUL OR SWAP1 SSTORE POP POP POP PUSH1 0x40 DUP3 ADD MLOAD DUP2 PUSH1 0x2 ADD SSTORE PUSH1 0x60 DUP3 ADD MLOAD DUP2 PUSH1 0x3 ADD PUSH0 PUSH2 0x100 EXP DUP2 SLOAD DUP2 PUSH1 0xFF MUL NOT AND SWAP1 DUP4 ISZERO ISZERO MUL OR SWAP1 SSTORE POP PUSH1 0x80 DUP3 ADD MLOAD DUP2 PUSH1 0x3 ADD PUSH1 0x1 PUSH2 0x100 EXP DUP2 SLOAD DUP2 PUSH1 0xFF MUL NOT AND SWAP1 DUP4 ISZERO ISZERO MUL OR SWAP1 SSTORE POP PUSH1 0xA0 DUP3 ADD MLOAD DUP2 PUSH1 0x3 ADD PUSH1 0x2 PUSH2 0x100 EXP DUP2 SLOAD DUP2 PUSH1 0xFF MUL NOT AND SWAP1 DUP4 ISZERO ISZERO MUL OR SWAP1 SSTORE POP PUSH1 0xC0 DUP3 ADD MLOAD DUP2 PUSH1 0x3 ADD PUSH1 0x3 PUSH2 0x100 EXP DUP2 SLOAD DUP2 PUSH1 0xFF MUL NOT AND SWAP1 DUP4 PUSH1 0xFF AND MUL OR SWAP1 SSTORE POP SWAP1 POP POP PUSH32 0x7A7F38BE04AFB87E39B4CB52BEC76C69C4D999F605BD21054B71A3F2DC085821 CALLER DUP7 DUP7 PUSH1 0x40 MLOAD PUSH2 0xCF4 SWAP4 SWAP3 SWAP2 SWAP1 PUSH1 0x1 PUSH1 0x1 PUSH1 0xA0 SHL SUB SWAP4 DUP5 AND DUP2 MSTORE SWAP2 SWAP1 SWAP3 AND PUSH1 0x20 DUP3 ADD MSTORE PUSH1 0x40 DUP2 ADD SWAP2 SWAP1 SWAP2 MSTORE PUSH1 0x60 ADD SWAP1 JUMP JUMPDEST PUSH1 0x1 PUSH1 0x1 PUSH1 0xA0 SHL SUB DUP1 DUP4 AND PUSH0 SWAP1 DUP2 MSTORE PUSH1 0xC PUSH1 0x20 SWAP1 DUP2 MSTORE PUSH1 0x40 DUP1 DUP4 KECCAK256 DUP2 MLOAD PUSH2 0x140 DUP2 ADD DUP4 MSTORE DUP2 SLOAD DUP1 DUP8 AND PUSH1 0xE0 DUP4 ADD SWAP1 DUP2 MSTORE PUSH1 0xFF PUSH1 0x1 PUSH1 0xA0 SHL DUP1 DUP5 DIV DUP3 AND ISZERO ISZERO PUSH2 0x100 DUP1 DUP8 ADD SWAP2 SWAP1 SWAP2 MSTORE PUSH1 0x1 PUSH1 0xA8 SHL SWAP5 DUP6 SWAP1 DIV DUP4 AND ISZERO ISZERO PUSH2 0x120 DUP8 ADD MSTORE SWAP3 DUP6 MSTORE DUP7 MLOAD PUSH1 0x60 DUP2 DUP2 ADD DUP10 MSTORE PUSH1 0x1 DUP9 ADD SLOAD DUP1 DUP14 AND DUP4 MSTORE SWAP3 DUP4 DIV DUP5 AND ISZERO ISZERO DUP3 DUP12 ADD MSTORE SWAP5 SWAP1 SWAP2 DIV DUP3 AND ISZERO ISZERO DUP2 DUP9 ADD MSTORE DUP5 DUP9 ADD MSTORE PUSH1 0x2 DUP6 ADD SLOAD DUP5 DUP8 ADD MSTORE PUSH1 0x3 SWAP1 SWAP5 ADD SLOAD DUP1 DUP6 AND ISZERO ISZERO SWAP3 DUP5 ADD SWAP3 SWAP1 SWAP3 MSTORE DUP2 DIV DUP4 AND ISZERO ISZERO PUSH1 0x80 DUP4 ADD MSTORE PUSH3 0x10000 DUP2 DIV DUP4 AND ISZERO ISZERO PUSH1 0xA0 DUP4 ADD MSTORE PUSH4 0x1000000 SWAP1 DIV SWAP1 SWAP2 AND PUSH1 0xC0 DUP3 ADD MSTORE DUP1 MLOAD MLOAD DUP6 AND DUP5 MSTORE PUSH1 0xB SWAP1 SWAP3 MSTORE DUP3 KECCAK256 SLOAD SWAP2 SWAP3 DUP6 SWAP3 CALLER SWAP2 AND EQ DUP1 PUSH2 0x1792 JUMPI POP PUSH1 0x20 DUP2 DUP2 ADD MLOAD MLOAD PUSH1 0x1 PUSH1 0x1 PUSH1 0xA0 SHL SUB SWAP1 DUP2 AND PUSH0 SWAP1 DUP2 MSTORE PUSH1 0xB SWAP1 SWAP3 MSTORE PUSH1 0x40 SWAP1 SWAP2 KECCAK256 SLOAD AND CALLER EQ JUMPDEST PUSH2 0x17AE JUMPI PUSH1 0x40 MLOAD PUSH3 0x461BCD PUSH1 0xE5 SHL DUP2 MSTORE PUSH1 0x4 ADD PUSH2 0x6D6 SWAP1 PUSH2 0x36A3 JUMP JUMPDEST PUSH0 PUSH2 0x17B8 DUP7 PUSH2 0x22E5 JUMP JUMPDEST PUSH1 0x1 PUSH1 0x1 PUSH1 0xA0 SHL SUB DUP2 AND PUSH0 SWAP1 DUP2 MSTORE PUSH1 0xD PUSH1 0x20 MSTORE PUSH1 0x40 SWAP1 KECCAK256 PUSH1 0x1 DUP2 ADD SLOAD SWAP2 SWAP3 POP SWAP1 PUSH1 0xFF AND DUP1 ISZERO PUSH2 0x17F0 JUMPI POP PUSH1 0x1 DUP2 ADD SLOAD PUSH2 0x100 SWAP1 DIV PUSH1 0xFF AND JUMPDEST ISZERO PUSH2 0x185D JUMPI PUSH0 JUMPDEST DUP2 SLOAD PUSH1 0xFF DUP3 AND LT ISZERO PUSH2 0x185B JUMPI DUP7 PUSH1 0x1 PUSH1 0x1 PUSH1 0xA0 SHL SUB AND DUP3 PUSH0 ADD DUP3 PUSH1 0xFF AND DUP2 SLOAD DUP2 LT PUSH2 0x1824 JUMPI PUSH2 0x1824 PUSH2 0x368F JUMP JUMPDEST PUSH0 SWAP2 DUP3 MSTORE PUSH1 0x20 SWAP1 SWAP2 KECCAK256 ADD SLOAD PUSH1 0x1 PUSH1 0x1 PUSH1 0xA0 SHL SUB AND SUB PUSH2 0x1849 JUMPI PUSH1 0x1 SWAP6 POP POP POP POP PUSH2 0x1863 JUMP JUMPDEST DUP1 PUSH2 0x1853 DUP2 PUSH2 0x37EC JUMP JUMPDEST SWAP2 POP POP PUSH2 0x17F7 JUMP JUMPDEST POP JUMPDEST PUSH0 SWAP5 POP POP POP JUMPDEST POP POP SWAP3 SWAP2 POP POP JUMP JUMPDEST PUSH1 0x1 PUSH1 0x1 PUSH1 0xA0 SHL SUB DUP1 DUP3 AND PUSH0 SWAP1 DUP2 MSTORE PUSH1 0xC PUSH1 0x20 SWAP1 DUP2 MSTORE PUSH1 0x40 DUP1 DUP4 KECCAK256 DUP2 MLOAD PUSH2 0x140 DUP2 ADD DUP4 MSTORE DUP2 SLOAD DUP1 DUP8 AND PUSH1 0xE0 DUP4 ADD SWAP1 DUP2 MSTORE PUSH1 0xFF PUSH1 0x1 PUSH1 0xA0 SHL DUP1 DUP5 DIV DUP3 AND ISZERO ISZERO PUSH2 0x100 DUP1 DUP8 ADD SWAP2 SWAP1 SWAP2 MSTORE PUSH1 0x1 PUSH1 0xA8 SHL SWAP5 DUP6 SWAP1 DIV DUP4 AND ISZERO ISZERO PUSH2 0x120 DUP8 ADD MSTORE SWAP3 DUP6 MSTORE DUP7 MLOAD PUSH1 0x60 DUP2 DUP2 ADD DUP10 MSTORE PUSH1 0x1 DUP9 ADD SLOAD DUP1 DUP14 AND DUP4 MSTORE SWAP3 DUP4 DIV DUP5 AND ISZERO ISZERO DUP3 DUP12 ADD MSTORE SWAP5 SWAP1 SWAP2 DIV DUP3 AND ISZERO ISZERO DUP2 DUP9 ADD MSTORE DUP5 DUP9 ADD MSTORE PUSH1 0x2 DUP6 ADD SLOAD DUP5 DUP8 ADD MSTORE PUSH1 0x3 SWAP1 SWAP5 ADD SLOAD DUP1 DUP6 AND ISZERO ISZERO SWAP3 DUP5 ADD SWAP3 SWAP1 SWAP3 MSTORE DUP2 DIV DUP4 AND ISZERO ISZERO PUSH1 0x80 DUP4 ADD MSTORE PUSH3 0x10000 DUP2 DIV DUP4 AND ISZERO ISZERO PUSH1 0xA0 DUP4 ADD MSTORE PUSH4 0x1000000 SWAP1 DIV SWAP1 SWAP2 AND PUSH1 0xC0 DUP3 ADD MSTORE DUP1 MLOAD MLOAD DUP6 AND DUP5 MSTORE PUSH1 0xB SWAP1 SWAP3 MSTORE SWAP1 SWAP2 KECCAK256 SLOAD DUP4 SWAP3 CALLER SWAP2 AND EQ DUP1 PUSH2 0x197C JUMPI POP PUSH1 0x20 DUP2 DUP2 ADD MLOAD MLOAD PUSH1 0x1 PUSH1 0x1 PUSH1 0xA0 SHL SUB SWAP1 DUP2 AND PUSH0 SWAP1 DUP2 MSTORE PUSH1 0xB SWAP1 SWAP3 MSTORE PUSH1 0x40 SWAP1 SWAP2 KECCAK256 SLOAD AND CALLER EQ JUMPDEST PUSH2 0x1998 JUMPI PUSH1 0x40 MLOAD PUSH3 0x461BCD PUSH1 0xE5 SHL DUP2 MSTORE PUSH1 0x4 ADD PUSH2 0x6D6 SWAP1 PUSH2 0x36A3 JUMP JUMPDEST PUSH1 0x1 PUSH1 0x1 PUSH1 0xA0 SHL SUB DUP4 AND PUSH0 SWAP1 DUP2 MSTORE PUSH1 0xC PUSH1 0x20 MSTORE PUSH1 0x40 SWAP1 KECCAK256 PUSH1 0x3 ADD SLOAD DUP4 SWAP1 PUSH1 0xFF AND ISZERO PUSH2 0x19D5 JUMPI PUSH1 0x40 MLOAD PUSH3 0x461BCD PUSH1 0xE5 SHL DUP2 MSTORE PUSH1 0x4 ADD PUSH2 0x6D6 SWAP1 PUSH2 0x36EC JUMP JUMPDEST PUSH1 0x1 PUSH1 0x1 PUSH1 0xA0 SHL SUB DUP5 AND PUSH0 SWAP1 DUP2 MSTORE PUSH1 0xB PUSH1 0x20 MSTORE PUSH1 0x40 SWAP1 KECCAK256 SLOAD DUP5 SWAP1 PUSH1 0x1 PUSH1 0xA8 SHL SWAP1 DIV PUSH1 0xFF AND ISZERO PUSH2 0x1A16 JUMPI PUSH1 0x40 MLOAD PUSH3 0x461BCD PUSH1 0xE5 SHL DUP2 MSTORE PUSH1 0x4 ADD PUSH2 0x6D6 SWAP1 PUSH2 0x372E JUMP JUMPDEST DUP5 PUSH2 0x1A21 DUP2 CALLER PUSH2 0x1680 JUMP JUMPDEST PUSH2 0x1A65 JUMPI PUSH1 0x40 MLOAD PUSH3 0x461BCD PUSH1 0xE5 SHL DUP2 MSTORE PUSH1 0x20 PUSH1 0x4 DUP3 ADD MSTORE PUSH1 0x15 PUSH1 0x24 DUP3 ADD MSTORE PUSH21 0x139BDD08184818DBDB999A5C9B59590819DD595CDD PUSH1 0x5A SHL PUSH1 0x44 DUP3 ADD MSTORE PUSH1 0x64 ADD PUSH2 0x6D6 JUMP JUMPDEST PUSH1 0x1 PUSH1 0x1 PUSH1 0xA0 SHL SUB DUP7 AND PUSH0 SWAP1 DUP2 MSTORE PUSH1 0xD PUSH1 0x20 SWAP1 DUP2 MSTORE PUSH1 0x40 DUP1 DUP4 KECCAK256 CALLER DUP5 MSTORE PUSH1 0x2 ADD SWAP1 SWAP2 MSTORE SWAP1 KECCAK256 SLOAD DUP7 SWAP1 PUSH1 0xFF AND ISZERO PUSH2 0x1ACD JUMPI PUSH1 0x40 MLOAD PUSH3 0x461BCD PUSH1 0xE5 SHL DUP2 MSTORE PUSH1 0x20 PUSH1 0x4 DUP3 ADD MSTORE PUSH1 0xD PUSH1 0x24 DUP3 ADD MSTORE PUSH13 0x105B1C9958591E481D9BDD1959 PUSH1 0x9A SHL PUSH1 0x44 DUP3 ADD MSTORE PUSH1 0x64 ADD PUSH2 0x6D6 JUMP JUMPDEST PUSH1 0x1 PUSH1 0x1 PUSH1 0xA0 SHL SUB DUP8 AND PUSH0 SWAP1 DUP2 MSTORE PUSH1 0xD PUSH1 0x20 SWAP1 DUP2 MSTORE PUSH1 0x40 DUP1 DUP4 KECCAK256 CALLER DUP5 MSTORE PUSH1 0x2 DUP2 ADD SWAP1 SWAP3 MSTORE DUP3 KECCAK256 DUP1 SLOAD PUSH1 0xFF NOT AND PUSH1 0x1 OR SWAP1 SSTORE PUSH1 0x3 DUP2 ADD DUP1 SLOAD SWAP2 SWAP3 PUSH2 0x1B0F DUP4 PUSH2 0x380A JUMP JUMPDEST SWAP1 SWAP2 SSTORE POP POP PUSH1 0x40 DUP1 MLOAD CALLER DUP2 MSTORE PUSH1 0x1 PUSH1 0x1 PUSH1 0xA0 SHL SUB DUP11 AND PUSH1 0x20 DUP3 ADD MSTORE PUSH32 0xA9862C5F43CACA0B960B097A111CE8C3752D27DF0E0F1F170B4A06A823E612B1 SWAP2 ADD PUSH1 0x40 MLOAD DUP1 SWAP2 SUB SWAP1 LOG1 PUSH2 0x1B5E DUP9 PUSH2 0x260A JUMP JUMPDEST POP POP POP POP POP POP POP POP JUMP JUMPDEST PUSH2 0x676 CALLER DUP4 DUP4 PUSH2 0x289D JUMP JUMPDEST PUSH2 0x1B7E DUP5 DUP5 DUP5 PUSH2 0x67A JUMP JUMPDEST PUSH2 0x1B8A DUP5 DUP5 DUP5 DUP5 PUSH2 0x2932 JUMP JUMPDEST POP POP POP POP JUMP JUMPDEST PUSH1 0x1 PUSH1 0x1 PUSH1 0xA0 SHL SUB DUP1 DUP3 AND PUSH0 SWAP1 DUP2 MSTORE PUSH1 0xC PUSH1 0x20 SWAP1 DUP2 MSTORE PUSH1 0x40 DUP1 DUP4 KECCAK256 DUP2 MLOAD PUSH2 0x140 DUP2 ADD DUP4 MSTORE DUP2 SLOAD DUP1 DUP8 AND PUSH1 0xE0 DUP4 ADD SWAP1 DUP2 MSTORE PUSH1 0xFF PUSH1 0x1 PUSH1 0xA0 SHL DUP1 DUP5 DIV DUP3 AND ISZERO ISZERO PUSH2 0x100 DUP1 DUP8 ADD SWAP2 SWAP1 SWAP2 MSTORE PUSH1 0x1 PUSH1 0xA8 SHL SWAP5 DUP6 SWAP1 DIV DUP4 AND ISZERO ISZERO PUSH2 0x120 DUP8 ADD MSTORE SWAP3 DUP6 MSTORE DUP7 MLOAD PUSH1 0x60 DUP2 DUP2 ADD DUP10 MSTORE PUSH1 0x1 DUP9 ADD SLOAD SWAP12 DUP13 AND DUP3 MSTORE SWAP2 DUP12 DIV DUP4 AND ISZERO ISZERO DUP2 DUP11 ADD MSTORE SWAP4 SWAP1 SWAP10 DIV DUP2 AND ISZERO ISZERO DUP4 DUP8 ADD MSTORE DUP4 DUP8 ADD DUP4 SWAP1 MSTORE PUSH1 0x2 DUP6 ADD SLOAD SWAP6 DUP5 ADD DUP7 SWAP1 MSTORE PUSH1 0x3 SWAP1 SWAP5 ADD SLOAD DUP1 DUP6 AND ISZERO ISZERO SWAP9 DUP5 ADD DUP10 SWAP1 MSTORE SWAP1 DUP2 DIV DUP5 AND ISZERO ISZERO PUSH1 0x80 DUP5 ADD MSTORE PUSH3 0x10000 DUP2 DIV DUP5 AND ISZERO ISZERO PUSH1 0xA0 DUP5 ADD MSTORE PUSH4 0x1000000 SWAP1 DIV SWAP1 SWAP3 AND PUSH1 0xC0 DUP3 ADD MSTORE DUP1 MLOAD DUP1 MLOAD SWAP3 MLOAD SWAP5 ADD MLOAD SWAP5 SWAP6 DUP7 SWAP6 DUP7 SWAP6 DUP7 SWAP6 DUP7 SWAP6 SWAP4 SWAP2 SWAP3 SWAP1 SWAP2 SWAP1 DUP1 ISZERO PUSH2 0x1C8E JUMPI POP DUP5 PUSH1 0x20 ADD MLOAD PUSH1 0x20 ADD MLOAD JUMPDEST SWAP4 SWAP12 SWAP3 SWAP11 POP SWAP1 SWAP9 POP SWAP7 POP SWAP1 SWAP5 POP SWAP3 POP POP POP JUMP JUMPDEST CALLER PUSH0 DUP2 DUP2 MSTORE PUSH1 0xC PUSH1 0x20 MSTORE PUSH1 0x40 SWAP1 KECCAK256 DUP1 SLOAD SWAP1 SWAP2 PUSH1 0x1 PUSH1 0x1 PUSH1 0xA0 SHL SUB SWAP1 SWAP2 AND EQ DUP1 PUSH2 0x1CD4 JUMPI POP PUSH1 0xA SLOAD PUSH1 0x1 PUSH1 0x1 PUSH1 0xA0 SHL SUB AND CALLER EQ JUMPDEST DUP1 PUSH2 0x1CEB JUMPI POP PUSH1 0x1 DUP2 ADD SLOAD PUSH1 0x1 PUSH1 0x1 PUSH1 0xA0 SHL SUB AND CALLER EQ JUMPDEST PUSH2 0x1D07 JUMPI PUSH1 0x40 MLOAD PUSH3 0x461BCD PUSH1 0xE5 SHL DUP2 MSTORE PUSH1 0x4 ADD PUSH2 0x6D6 SWAP1 PUSH2 0x37B0 JUMP JUMPDEST PUSH1 0x3 DUP2 DUP2 ADD DUP1 SLOAD PUSH1 0x1 SWAP3 SWAP1 PUSH2 0x1D27 SWAP1 DUP5 SWAP1 PUSH4 0x1000000 SWAP1 DIV PUSH1 0xFF AND PUSH2 0x3822 JUMP JUMPDEST SWAP3 POP PUSH2 0x100 EXP DUP2 SLOAD DUP2 PUSH1 0xFF MUL NOT AND SWAP1 DUP4 PUSH1 0xFF AND MUL OR SWAP1 SSTORE POP POP JUMP JUMPDEST PUSH1 0x60 PUSH2 0x1D4D DUP3 PUSH2 0x22A0 JUMP JUMPDEST POP PUSH0 PUSH2 0x1D63 PUSH1 0x40 DUP1 MLOAD PUSH1 0x20 DUP2 ADD SWAP1 SWAP2 MSTORE PUSH0 DUP2 MSTORE SWAP1 JUMP JUMPDEST SWAP1 POP PUSH0 DUP2 MLOAD GT PUSH2 0x1D81 JUMPI PUSH1 0x40 MLOAD DUP1 PUSH1 0x20 ADD PUSH1 0x40 MSTORE DUP1 PUSH0 DUP2 MSTORE POP PUSH2 0x1DAC JUMP JUMPDEST DUP1 PUSH2 0x1D8B DUP5 PUSH2 0x2A3F JUMP JUMPDEST PUSH1 0x40 MLOAD PUSH1 0x20 ADD PUSH2 0x1D9C SWAP3 SWAP2 SWAP1 PUSH2 0x383B JUMP JUMPDEST PUSH1 0x40 MLOAD PUSH1 0x20 DUP2 DUP4 SUB SUB DUP2 MSTORE SWAP1 PUSH1 0x40 MSTORE JUMPDEST SWAP4 SWAP3 POP POP POP JUMP JUMPDEST CALLER PUSH0 DUP2 DUP2 MSTORE PUSH1 0xC PUSH1 0x20 SWAP1 DUP2 MSTORE PUSH1 0x40 DUP1 DUP4 KECCAK256 DUP2 MLOAD PUSH2 0x140 DUP2 ADD DUP4 MSTORE DUP2 SLOAD PUSH1 0x1 PUSH1 0x1 PUSH1 0xA0 SHL SUB DUP2 DUP2 AND PUSH1 0xE0 DUP5 ADD SWAP1 DUP2 MSTORE PUSH1 0xFF PUSH1 0x1 PUSH1 0xA0 SHL DUP1 DUP6 DIV DUP3 AND ISZERO ISZERO PUSH2 0x100 DUP1 DUP9 ADD SWAP2 SWAP1 SWAP2 MSTORE PUSH1 0x1 PUSH1 0xA8 SHL SWAP6 DUP7 SWAP1 DIV DUP4 AND ISZERO ISZERO PUSH2 0x120 DUP9 ADD MSTORE SWAP3 DUP7 MSTORE DUP8 MLOAD PUSH1 0x60 DUP2 DUP2 ADD DUP11 MSTORE PUSH1 0x1 DUP10 ADD SLOAD DUP1 DUP8 AND DUP4 MSTORE SWAP3 DUP4 DIV DUP5 AND ISZERO ISZERO DUP3 DUP13 ADD MSTORE SWAP6 SWAP1 SWAP2 DIV DUP3 AND ISZERO ISZERO DUP2 DUP10 ADD MSTORE DUP6 DUP10 ADD MSTORE PUSH1 0x2 DUP7 ADD SLOAD DUP6 DUP9 ADD MSTORE PUSH1 0x3 SWAP1 SWAP6 ADD SLOAD DUP1 DUP7 AND ISZERO ISZERO SWAP4 DUP6 ADD SWAP4 SWAP1 SWAP4 MSTORE DUP3 DIV DUP5 AND ISZERO ISZERO PUSH1 0x80 DUP5 ADD MSTORE PUSH3 0x10000 DUP3 DIV DUP5 AND ISZERO ISZERO PUSH1 0xA0 DUP5 ADD MSTORE PUSH4 0x1000000 SWAP1 SWAP2 DIV SWAP1 SWAP3 AND PUSH1 0xC0 DUP3 ADD MSTORE DUP1 MLOAD MLOAD DUP3 AND DUP6 MSTORE PUSH1 0xB SWAP1 SWAP4 MSTORE SWAP3 KECCAK256 SLOAD SWAP1 SWAP2 AND DUP3 EQ DUP1 PUSH2 0x1EC1 JUMPI POP PUSH1 0x20 DUP2 DUP2 ADD MLOAD MLOAD PUSH1 0x1 PUSH1 0x1 PUSH1 0xA0 SHL SUB SWAP1 DUP2 AND PUSH0 SWAP1 DUP2 MSTORE PUSH1 0xB SWAP1 SWAP3 MSTORE PUSH1 0x40 SWAP1 SWAP2 KECCAK256 SLOAD AND CALLER EQ JUMPDEST PUSH2 0x1EDD JUMPI PUSH1 0x40 MLOAD PUSH3 0x461BCD PUSH1 0xE5 SHL DUP2 MSTORE PUSH1 0x4 ADD PUSH2 0x6D6 SWAP1 PUSH2 0x36A3 JUMP JUMPDEST PUSH0 PUSH2 0x1EE7 CALLER PUSH2 0x22E5 JUMP JUMPDEST PUSH1 0x1 PUSH1 0x1 PUSH1 0xA0 SHL SUB DUP1 DUP3 AND PUSH0 SWAP1 DUP2 MSTORE PUSH1 0xD PUSH1 0x20 SWAP1 DUP2 MSTORE PUSH1 0x40 DUP1 DUP4 KECCAK256 CALLER DUP1 DUP6 MSTORE PUSH1 0xC SWAP1 SWAP4 MSTORE SWAP3 KECCAK256 SLOAD SWAP4 SWAP5 POP SWAP1 SWAP3 SWAP1 SWAP2 AND SWAP1 SUB PUSH2 0x1F31 JUMPI PUSH1 0x1 DUP2 DUP2 ADD DUP1 SLOAD PUSH1 0xFF NOT AND SWAP1 SWAP2 OR SWAP1 SSTORE PUSH2 0x1F43 JUMP JUMPDEST PUSH1 0x1 DUP2 ADD DUP1 SLOAD PUSH2 0xFF00 NOT AND PUSH2 0x100 OR SWAP1 SSTORE JUMPDEST PUSH1 0x1 DUP2 ADD SLOAD PUSH1 0xFF AND DUP1 ISZERO PUSH2 0x1F60 JUMPI POP PUSH1 0x1 DUP2 ADD SLOAD PUSH2 0x100 SWAP1 DIV PUSH1 0xFF AND JUMPDEST ISZERO PUSH2 0x1B8A JUMPI PUSH32 0xFFACC21903A9DB21C6031D4C12C9825F13AC6469F9B894F7058A45CF1F9A3E8D CALLER PUSH1 0x40 MLOAD PUSH2 0xA6F SWAP2 SWAP1 PUSH2 0x3314 JUMP JUMPDEST PUSH1 0x1 PUSH1 0x1 PUSH1 0xA0 SHL SUB SWAP2 DUP3 AND PUSH0 SWAP1 DUP2 MSTORE PUSH1 0x5 PUSH1 0x20 SWAP1 DUP2 MSTORE PUSH1 0x40 DUP1 DUP4 KECCAK256 SWAP4 SWAP1 SWAP5 AND DUP3 MSTORE SWAP2 SWAP1 SWAP2 MSTORE KECCAK256 SLOAD PUSH1 0xFF AND SWAP1 JUMP JUMPDEST CALLER PUSH0 DUP2 DUP2 MSTORE PUSH1 0xC PUSH1 0x20 SWAP1 DUP2 MSTORE PUSH1 0x40 DUP1 DUP4 KECCAK256 DUP2 MLOAD PUSH2 0x140 DUP2 ADD DUP4 MSTORE DUP2 SLOAD PUSH1 0x1 PUSH1 0x1 PUSH1 0xA0 SHL SUB DUP2 DUP2 AND PUSH1 0xE0 DUP5 ADD SWAP1 DUP2 MSTORE PUSH1 0xFF PUSH1 0x1 PUSH1 0xA0 SHL DUP1 DUP6 DIV DUP3 AND ISZERO ISZERO PUSH2 0x100 DUP1 DUP9 ADD SWAP2 SWAP1 SWAP2 MSTORE PUSH1 0x1 PUSH1 0xA8 SHL SWAP6 DUP7 SWAP1 DIV DUP4 AND ISZERO ISZERO PUSH2 0x120 DUP9 ADD MSTORE SWAP3 DUP7 MSTORE DUP8 MLOAD PUSH1 0x60 DUP2 DUP2 ADD DUP11 MSTORE PUSH1 0x1 DUP10 ADD SLOAD DUP1 DUP8 AND DUP4 MSTORE SWAP3 DUP4 DIV DUP5 AND ISZERO ISZERO DUP3 DUP13 ADD MSTORE SWAP6 SWAP1 SWAP2 DIV DUP3 AND ISZERO ISZERO DUP2 DUP10 ADD MSTORE DUP6 DUP10 ADD MSTORE PUSH1 0x2 DUP7 ADD SLOAD DUP6 DUP9 ADD MSTORE PUSH1 0x3 SWAP1 SWAP6 ADD SLOAD DUP1 DUP7 AND ISZERO ISZERO SWAP4 DUP6 ADD SWAP4 SWAP1 SWAP4 MSTORE DUP3 DIV DUP5 AND ISZERO ISZERO PUSH1 0x80 DUP5 ADD MSTORE PUSH3 0x10000 DUP3 DIV DUP5 AND ISZERO ISZERO PUSH1 0xA0 DUP5 ADD MSTORE PUSH4 0x1000000 SWAP1 SWAP2 DIV SWAP1 SWAP3 AND PUSH1 0xC0 DUP3 ADD MSTORE DUP1 MLOAD MLOAD DUP3 AND DUP6 MSTORE PUSH1 0xB SWAP1 SWAP4 MSTORE SWAP3 KECCAK256 SLOAD SWAP1 SWAP2 AND DUP3 EQ DUP1 PUSH2 0x20CF JUMPI POP PUSH1 0x20 DUP2 DUP2 ADD MLOAD MLOAD PUSH1 0x1 PUSH1 0x1 PUSH1 0xA0 SHL SUB SWAP1 DUP2 AND PUSH0 SWAP1 DUP2 MSTORE PUSH1 0xB SWAP1 SWAP3 MSTORE PUSH1 0x40 SWAP1 SWAP2 KECCAK256 SLOAD AND CALLER EQ JUMPDEST PUSH2 0x20EB JUMPI PUSH1 0x40 MLOAD PUSH3 0x461BCD PUSH1 0xE5 SHL DUP2 MSTORE PUSH1 0x4 ADD PUSH2 0x6D6 SWAP1 PUSH2 0x36A3 JUMP JUMPDEST CALLER PUSH0 DUP2 DUP2 MSTORE PUSH1 0xC PUSH1 0x20 MSTORE PUSH1 0x40 SWAP1 KECCAK256 PUSH1 0x3 ADD SLOAD PUSH1 0xFF AND ISZERO PUSH2 0x211D JUMPI PUSH1 0x40 MLOAD PUSH3 0x461BCD PUSH1 0xE5 SHL DUP2 MSTORE PUSH1 0x4 ADD PUSH2 0x6D6 SWAP1 PUSH2 0x36EC JUMP JUMPDEST CALLER PUSH0 DUP2 DUP2 MSTORE PUSH1 0xB PUSH1 0x20 MSTORE PUSH1 0x40 SWAP1 KECCAK256 SLOAD PUSH1 0x1 PUSH1 0xA8 SHL SWAP1 DIV PUSH1 0xFF AND ISZERO PUSH2 0x2153 JUMPI PUSH1 0x40 MLOAD PUSH3 0x461BCD PUSH1 0xE5 SHL DUP2 MSTORE PUSH1 0x4 ADD PUSH2 0x6D6 SWAP1 PUSH2 0x372E JUMP JUMPDEST PUSH0 PUSH1 0xC PUSH0 PUSH2 0x2160 CALLER PUSH2 0x24F4 JUMP JUMPDEST PUSH1 0x1 PUSH1 0x1 PUSH1 0xA0 SHL SUB SWAP1 DUP2 AND DUP3 MSTORE PUSH1 0x20 DUP3 ADD SWAP3 SWAP1 SWAP3 MSTORE PUSH1 0x40 ADD PUSH0 KECCAK256 DUP1 SLOAD SWAP1 SWAP3 POP AND CALLER SUB PUSH2 0x21C6 JUMPI PUSH1 0x3 DUP2 ADD SLOAD PUSH2 0x100 SWAP1 DIV PUSH1 0xFF AND ISZERO PUSH2 0x21B0 JUMPI PUSH1 0x40 MLOAD PUSH3 0x461BCD PUSH1 0xE5 SHL DUP2 MSTORE PUSH1 0x4 ADD PUSH2 0x6D6 SWAP1 PUSH2 0x3869 JUMP JUMPDEST PUSH1 0x3 DUP2 ADD DUP1 SLOAD PUSH2 0xFF00 NOT AND PUSH2 0x100 OR SWAP1 SSTORE PUSH2 0x2219 JUMP JUMPDEST PUSH1 0x1 DUP2 ADD SLOAD PUSH1 0x1 PUSH1 0x1 PUSH1 0xA0 SHL SUB AND CALLER SUB PUSH2 0x2219 JUMPI PUSH1 0x3 DUP2 ADD SLOAD PUSH3 0x10000 SWAP1 DIV PUSH1 0xFF AND ISZERO PUSH2 0x2205 JUMPI PUSH1 0x40 MLOAD PUSH3 0x461BCD PUSH1 0xE5 SHL DUP2 MSTORE PUSH1 0x4 ADD PUSH2 0x6D6 SWAP1 PUSH2 0x3869 JUMP JUMPDEST PUSH1 0x3 DUP2 ADD DUP1 SLOAD PUSH3 0xFF0000 NOT AND PUSH3 0x10000 OR SWAP1 SSTORE JUMPDEST PUSH1 0x3 DUP2 ADD SLOAD PUSH2 0x100 SWAP1 DIV PUSH1 0xFF AND DUP1 ISZERO PUSH2 0x223C JUMPI POP PUSH1 0x3 DUP2 ADD SLOAD PUSH3 0x10000 SWAP1 DIV PUSH1 0xFF AND JUMPDEST ISZERO PUSH2 0x224A JUMPI PUSH2 0x224A DUP2 PUSH2 0x2ACF JUMP JUMPDEST POP POP POP POP POP JUMP JUMPDEST PUSH0 PUSH1 0x1 PUSH1 0x1 PUSH1 0xE0 SHL SUB NOT DUP3 AND PUSH4 0x80AC58CD PUSH1 0xE0 SHL EQ DUP1 PUSH2 0x2281 JUMPI POP PUSH1 0x1 PUSH1 0x1 PUSH1 0xE0 SHL SUB NOT DUP3 AND PUSH4 0x5B5E139F PUSH1 0xE0 SHL EQ JUMPDEST DUP1 PUSH2 0x5AF JUMPI POP PUSH4 0x1FFC9A7 PUSH1 0xE0 SHL PUSH1 0x1 PUSH1 0x1 PUSH1 0xE0 SHL SUB NOT DUP4 AND EQ PUSH2 0x5AF JUMP JUMPDEST PUSH0 DUP2 DUP2 MSTORE PUSH1 0x2 PUSH1 0x20 MSTORE PUSH1 0x40 DUP2 KECCAK256 SLOAD PUSH1 0x1 PUSH1 0x1 PUSH1 0xA0 SHL SUB AND DUP1 PUSH2 0x5AF JUMPI PUSH1 0x40 MLOAD PUSH4 0x7E273289 PUSH1 0xE0 SHL DUP2 MSTORE PUSH1 0x4 DUP2 ADD DUP5 SWAP1 MSTORE PUSH1 0x24 ADD PUSH2 0x6D6 JUMP JUMPDEST PUSH2 0x74E DUP4 DUP4 DUP4 PUSH1 0x1 PUSH2 0x2B99 JUMP JUMPDEST PUSH1 0x1 PUSH1 0x1 PUSH1 0xA0 SHL SUB DUP1 DUP3 AND PUSH0 SWAP1 DUP2 MSTORE PUSH1 0xC PUSH1 0x20 SWAP1 DUP2 MSTORE PUSH1 0x40 DUP1 DUP4 KECCAK256 DUP2 MLOAD PUSH2 0x140 DUP2 ADD DUP4 MSTORE DUP2 SLOAD DUP1 DUP8 AND PUSH1 0xE0 DUP4 ADD SWAP1 DUP2 MSTORE PUSH1 0xFF PUSH1 0x1 PUSH1 0xA0 SHL DUP1 DUP5 DIV DUP3 AND ISZERO ISZERO PUSH2 0x100 DUP1 DUP8 ADD SWAP2 SWAP1 SWAP2 MSTORE PUSH1 0x1 PUSH1 0xA8 SHL SWAP5 DUP6 SWAP1 DIV DUP4 AND ISZERO ISZERO PUSH2 0x120 DUP8 ADD MSTORE SWAP3 DUP6 MSTORE DUP7 MLOAD PUSH1 0x60 DUP2 DUP2 ADD DUP10 MSTORE PUSH1 0x1 DUP9 ADD SLOAD DUP1 DUP14 AND DUP4 MSTORE SWAP3 DUP4 DIV DUP5 AND ISZERO ISZERO DUP3 DUP12 ADD MSTORE SWAP5 SWAP1 SWAP2 DIV DUP3 AND ISZERO ISZERO DUP2 DUP9 ADD MSTORE DUP5 DUP9 ADD MSTORE PUSH1 0x2 DUP6 ADD SLOAD DUP5 DUP8 ADD MSTORE PUSH1 0x3 SWAP1 SWAP5 ADD SLOAD DUP1 DUP6 AND ISZERO ISZERO SWAP3 DUP5 ADD SWAP3 SWAP1 SWAP3 MSTORE DUP2 DIV DUP4 AND ISZERO ISZERO PUSH1 0x80 DUP4 ADD MSTORE PUSH3 0x10000 DUP2 DIV DUP4 AND ISZERO ISZERO PUSH1 0xA0 DUP4 ADD MSTORE PUSH4 0x1000000 SWAP1 DIV SWAP1 SWAP2 AND PUSH1 0xC0 DUP3 ADD MSTORE DUP1 MLOAD MLOAD DUP6 AND DUP5 MSTORE PUSH1 0xB SWAP1 SWAP3 MSTORE DUP3 KECCAK256 SLOAD SWAP2 SWAP3 DUP5 SWAP3 CALLER SWAP2 AND EQ DUP1 PUSH2 0x23F7 JUMPI POP PUSH1 0x20 DUP2 DUP2 ADD MLOAD MLOAD PUSH1 0x1 PUSH1 0x1 PUSH1 0xA0 SHL SUB SWAP1 DUP2 AND PUSH0 SWAP1 DUP2 MSTORE PUSH1 0xB SWAP1 SWAP3 MSTORE PUSH1 0x40 SWAP1 SWAP2 KECCAK256 SLOAD AND CALLER EQ JUMPDEST PUSH2 0x2413 JUMPI PUSH1 0x40 MLOAD PUSH3 0x461BCD PUSH1 0xE5 SHL DUP2 MSTORE PUSH1 0x4 ADD PUSH2 0x6D6 SWAP1 PUSH2 0x36A3 JUMP JUMPDEST POP POP POP PUSH1 0x1 PUSH1 0x1 PUSH1 0xA0 SHL SUB SWAP1 DUP2 AND PUSH0 SWAP1 DUP2 MSTORE PUSH1 0xC PUSH1 0x20 SWAP1 DUP2 MSTORE PUSH1 0x40 SWAP2 DUP3 SWAP1 KECCAK256 DUP3 MLOAD PUSH2 0x140 DUP2 ADD DUP5 MSTORE DUP2 SLOAD DUP1 DUP7 AND PUSH1 0xE0 DUP4 ADD SWAP1 DUP2 MSTORE PUSH1 0x1 PUSH1 0xA0 SHL DUP1 DUP4 DIV PUSH1 0xFF SWAP1 DUP2 AND ISZERO ISZERO PUSH2 0x100 DUP1 DUP8 ADD SWAP2 SWAP1 SWAP2 MSTORE PUSH1 0x1 PUSH1 0xA8 SHL SWAP5 DUP6 SWAP1 DIV DUP3 AND ISZERO ISZERO PUSH2 0x120 DUP8 ADD MSTORE SWAP3 DUP6 MSTORE DUP8 MLOAD PUSH1 0x60 DUP1 DUP3 ADD DUP11 MSTORE PUSH1 0x1 DUP9 ADD SLOAD SWAP11 DUP12 AND DUP3 MSTORE SWAP3 DUP11 DIV DUP3 AND ISZERO ISZERO DUP2 DUP10 ADD MSTORE SWAP4 SWAP1 SWAP9 DIV DUP9 AND ISZERO ISZERO DUP4 DUP9 ADD MSTORE SWAP5 DUP4 ADD SWAP2 SWAP1 SWAP2 MSTORE PUSH1 0x2 DUP4 ADD SLOAD SWAP5 DUP3 ADD SWAP5 SWAP1 SWAP5 MSTORE PUSH1 0x3 SWAP1 SWAP2 ADD SLOAD DUP1 DUP6 AND ISZERO ISZERO SWAP3 DUP3 ADD SWAP3 SWAP1 SWAP3 MSTORE SWAP2 DUP2 DIV DUP4 AND ISZERO ISZERO PUSH1 0x80 DUP4 ADD MSTORE PUSH3 0x10000 DUP2 DIV DUP4 AND ISZERO ISZERO PUSH1 0xA0 DUP4 ADD MSTORE PUSH4 0x1000000 SWAP1 DIV SWAP1 SWAP2 AND PUSH1 0xC0 DUP3 ADD MSTORE MLOAD MLOAD SWAP1 JUMP JUMPDEST PUSH1 0x1 PUSH1 0x1 PUSH1 0xA0 SHL SUB SWAP1 DUP2 AND PUSH0 SWAP1 DUP2 MSTORE PUSH1 0xC PUSH1 0x20 SWAP1 DUP2 MSTORE PUSH1 0x40 SWAP2 DUP3 SWAP1 KECCAK256 DUP3 MLOAD PUSH2 0x140 DUP2 ADD DUP5 MSTORE DUP2 SLOAD DUP1 DUP7 AND PUSH1 0xE0 DUP4 ADD SWAP1 DUP2 MSTORE PUSH1 0xFF PUSH1 0x1 PUSH1 0xA0 SHL DUP1 DUP5 DIV DUP3 AND ISZERO ISZERO PUSH2 0x100 DUP1 DUP8 ADD SWAP2 SWAP1 SWAP2 MSTORE PUSH1 0x1 PUSH1 0xA8 SHL SWAP5 DUP6 SWAP1 DIV DUP4 AND ISZERO ISZERO PUSH2 0x120 DUP8 ADD MSTORE SWAP3 DUP6 MSTORE DUP8 MLOAD PUSH1 0x60 DUP2 DUP2 ADD DUP11 MSTORE PUSH1 0x1 DUP9 ADD SLOAD SWAP11 DUP12 AND DUP3 MSTORE SWAP2 DUP11 DIV DUP4 AND ISZERO ISZERO DUP2 DUP10 ADD MSTORE SWAP4 SWAP1 SWAP9 DIV DUP2 AND ISZERO ISZERO DUP4 DUP9 ADD MSTORE SWAP5 DUP4 ADD SWAP2 SWAP1 SWAP2 MSTORE PUSH1 0x2 DUP4 ADD SLOAD SWAP5 DUP3 ADD SWAP5 SWAP1 SWAP5 MSTORE PUSH1 0x3 SWAP1 SWAP2 ADD SLOAD DUP1 DUP4 AND ISZERO ISZERO SWAP5 DUP3 ADD SWAP5 SWAP1 SWAP5 MSTORE SWAP2 DUP4 DIV DUP2 AND ISZERO ISZERO PUSH1 0x80 DUP4 ADD MSTORE PUSH3 0x10000 DUP4 DIV DUP2 AND ISZERO ISZERO PUSH1 0xA0 DUP4 ADD MSTORE PUSH4 0x1000000 SWAP1 SWAP3 DIV SWAP1 SWAP2 AND PUSH1 0xC0 DUP3 ADD MSTORE MLOAD MLOAD SWAP1 JUMP JUMPDEST PUSH0 PUSH2 0x25DE PUSH0 DUP4 PUSH0 PUSH2 0x2C94 JUMP JUMPDEST SWAP1 POP PUSH1 0x1 PUSH1 0x1 PUSH1 0xA0 SHL SUB DUP2 AND PUSH2 0x676 JUMPI PUSH1 0x40 MLOAD PUSH4 0x7E273289 PUSH1 0xE0 SHL DUP2 MSTORE PUSH1 0x4 DUP2 ADD DUP4 SWAP1 MSTORE PUSH1 0x24 ADD PUSH2 0x6D6 JUMP JUMPDEST PUSH1 0x1 PUSH1 0x1 PUSH1 0xA0 SHL SUB DUP1 DUP3 AND PUSH0 SWAP1 DUP2 MSTORE PUSH1 0xC PUSH1 0x20 SWAP1 DUP2 MSTORE PUSH1 0x40 DUP1 DUP4 KECCAK256 DUP2 MLOAD PUSH2 0x140 DUP2 ADD DUP4 MSTORE DUP2 SLOAD DUP1 DUP8 AND PUSH1 0xE0 DUP4 ADD SWAP1 DUP2 MSTORE PUSH1 0xFF PUSH1 0x1 PUSH1 0xA0 SHL DUP1 DUP5 DIV DUP3 AND ISZERO ISZERO PUSH2 0x100 DUP1 DUP8 ADD SWAP2 SWAP1 SWAP2 MSTORE PUSH1 0x1 PUSH1 0xA8 SHL SWAP5 DUP6 SWAP1 DIV DUP4 AND ISZERO ISZERO PUSH2 0x120 DUP8 ADD MSTORE SWAP3 DUP6 MSTORE DUP7 MLOAD PUSH1 0x60 DUP2 DUP2 ADD DUP10 MSTORE PUSH1 0x1 DUP9 ADD SLOAD DUP1 DUP14 AND DUP4 MSTORE SWAP3 DUP4 DIV DUP5 AND ISZERO ISZERO DUP3 DUP12 ADD MSTORE SWAP5 SWAP1 SWAP2 DIV DUP3 AND ISZERO ISZERO DUP2 DUP9 ADD MSTORE DUP5 DUP9 ADD MSTORE PUSH1 0x2 DUP6 ADD SLOAD DUP5 DUP8 ADD MSTORE PUSH1 0x3 SWAP1 SWAP5 ADD SLOAD DUP1 DUP6 AND ISZERO ISZERO SWAP3 DUP5 ADD SWAP3 SWAP1 SWAP3 MSTORE DUP2 DIV DUP4 AND ISZERO ISZERO PUSH1 0x80 DUP4 ADD MSTORE PUSH3 0x10000 DUP2 DIV DUP4 AND ISZERO ISZERO PUSH1 0xA0 DUP4 ADD MSTORE PUSH4 0x1000000 SWAP1 DIV SWAP1 SWAP2 AND PUSH1 0xC0 DUP3 ADD MSTORE DUP1 MLOAD MLOAD DUP6 AND DUP5 MSTORE PUSH1 0xB SWAP1 SWAP3 MSTORE SWAP1 SWAP2 KECCAK256 SLOAD DUP4 SWAP3 CALLER SWAP2 AND EQ DUP1 PUSH2 0x271B JUMPI POP PUSH1 0x20 DUP2 DUP2 ADD MLOAD MLOAD PUSH1 0x1 PUSH1 0x1 PUSH1 0xA0 SHL SUB SWAP1 DUP2 AND PUSH0 SWAP1 DUP2 MSTORE PUSH1 0xB SWAP1 SWAP3 MSTORE PUSH1 0x40 SWAP1 SWAP2 KECCAK256 SLOAD AND CALLER EQ JUMPDEST PUSH2 0x2737 JUMPI PUSH1 0x40 MLOAD PUSH3 0x461BCD PUSH1 0xE5 SHL DUP2 MSTORE PUSH1 0x4 ADD PUSH2 0x6D6 SWAP1 PUSH2 0x36A3 JUMP JUMPDEST PUSH1 0x1 PUSH1 0x1 PUSH1 0xA0 SHL SUB DUP4 AND PUSH0 SWAP1 DUP2 MSTORE PUSH1 0xB PUSH1 0x20 MSTORE PUSH1 0x40 SWAP1 KECCAK256 SLOAD DUP4 SWAP1 PUSH1 0x1 PUSH1 0xA8 SHL SWAP1 DIV PUSH1 0xFF AND ISZERO PUSH2 0x2778 JUMPI PUSH1 0x40 MLOAD PUSH3 0x461BCD PUSH1 0xE5 SHL DUP2 MSTORE PUSH1 0x4 ADD PUSH2 0x6D6 SWAP1 PUSH2 0x372E JUMP JUMPDEST PUSH1 0x1 PUSH1 0x1 PUSH1 0xA0 SHL SUB DUP5 AND PUSH0 SWAP1 DUP2 MSTORE PUSH1 0xD PUSH1 0x20 SWAP1 DUP2 MSTORE PUSH1 0x40 DUP1 DUP4 KECCAK256 PUSH1 0xC SWAP1 SWAP3 MSTORE DUP3 KECCAK256 DUP2 SLOAD SWAP2 SWAP3 SWAP1 SWAP2 SWAP1 PUSH1 0x2 PUSH2 0x27AD DUP4 PUSH1 0x1 PUSH2 0x3894 JUMP JUMPDEST PUSH2 0x27B7 SWAP2 SWAP1 PUSH2 0x38A7 JUMP JUMPDEST SWAP1 POP DUP1 DUP5 PUSH1 0x3 ADD SLOAD LT PUSH2 0x1B5E JUMPI PUSH1 0x3 DUP4 ADD DUP1 SLOAD PUSH1 0xFF NOT AND PUSH1 0x1 SWAP1 DUP2 OR SWAP1 SWAP2 SSTORE DUP4 SLOAD PUSH1 0x1 PUSH1 0x1 PUSH1 0xA0 SHL SUB SWAP1 DUP2 AND PUSH0 SWAP1 DUP2 MSTORE PUSH1 0xB PUSH1 0x20 MSTORE PUSH1 0x40 DUP1 DUP3 KECCAK256 DUP1 SLOAD PUSH1 0xFF PUSH1 0xA0 SHL NOT SWAP1 DUP2 AND SWAP1 SWAP2 SSTORE SWAP4 DUP8 ADD SLOAD DUP4 AND DUP3 MSTORE SWAP1 DUP2 SWAP1 KECCAK256 DUP1 SLOAD SWAP1 SWAP4 AND SWAP1 SWAP3 SSTORE DUP5 SLOAD SWAP2 MLOAD PUSH32 0xCA5145A860413368885BD057FA646C0895A34D43C6F7C897FC1954CF51C33045 SWAP3 PUSH2 0x2844 SWAP3 AND SWAP1 PUSH2 0x3314 JUMP JUMPDEST PUSH1 0x40 MLOAD DUP1 SWAP2 SUB SWAP1 LOG1 PUSH1 0x1 DUP4 ADD SLOAD PUSH1 0x40 MLOAD PUSH32 0xCA5145A860413368885BD057FA646C0895A34D43C6F7C897FC1954CF51C33045 SWAP2 PUSH2 0x288B SWAP2 PUSH1 0x1 PUSH1 0x1 PUSH1 0xA0 SHL SUB SWAP1 SWAP2 AND SWAP1 PUSH2 0x3314 JUMP JUMPDEST PUSH1 0x40 MLOAD DUP1 SWAP2 SUB SWAP1 LOG1 POP POP POP POP POP POP POP POP JUMP JUMPDEST PUSH1 0x1 PUSH1 0x1 PUSH1 0xA0 SHL SUB DUP3 AND PUSH2 0x28C6 JUMPI DUP2 PUSH1 0x40 MLOAD PUSH4 0xB611743 PUSH1 0xE3 SHL DUP2 MSTORE PUSH1 0x4 ADD PUSH2 0x6D6 SWAP2 SWAP1 PUSH2 0x3314 JUMP JUMPDEST PUSH1 0x1 PUSH1 0x1 PUSH1 0xA0 SHL SUB DUP4 DUP2 AND PUSH0 DUP2 DUP2 MSTORE PUSH1 0x5 PUSH1 0x20 SWAP1 DUP2 MSTORE PUSH1 0x40 DUP1 DUP4 KECCAK256 SWAP5 DUP8 AND DUP1 DUP5 MSTORE SWAP5 DUP3 MSTORE SWAP2 DUP3 SWAP1 KECCAK256 DUP1 SLOAD PUSH1 0xFF NOT AND DUP7 ISZERO ISZERO SWAP1 DUP2 OR SWAP1 SWAP2 SSTORE SWAP2 MLOAD SWAP2 DUP3 MSTORE PUSH32 0x17307EAB39AB6107E8899845AD3D59BD9653F200F220920489CA2B5937696C31 SWAP2 ADD PUSH1 0x40 MLOAD DUP1 SWAP2 SUB SWAP1 LOG3 POP POP POP JUMP JUMPDEST PUSH1 0x1 PUSH1 0x1 PUSH1 0xA0 SHL SUB DUP4 AND EXTCODESIZE ISZERO PUSH2 0x1B8A JUMPI PUSH1 0x40 MLOAD PUSH4 0xA85BD01 PUSH1 0xE1 SHL DUP2 MSTORE PUSH1 0x1 PUSH1 0x1 PUSH1 0xA0 SHL SUB DUP5 AND SWAP1 PUSH4 0x150B7A02 SWAP1 PUSH2 0x2974 SWAP1 CALLER SWAP1 DUP9 SWAP1 DUP8 SWAP1 DUP8 SWAP1 PUSH1 0x4 ADD PUSH2 0x38C6 JUMP JUMPDEST PUSH1 0x20 PUSH1 0x40 MLOAD DUP1 DUP4 SUB DUP2 PUSH0 DUP8 GAS CALL SWAP3 POP POP POP DUP1 ISZERO PUSH2 0x29AE JUMPI POP PUSH1 0x40 DUP1 MLOAD PUSH1 0x1F RETURNDATASIZE SWAP1 DUP2 ADD PUSH1 0x1F NOT AND DUP3 ADD SWAP1 SWAP3 MSTORE PUSH2 0x29AB SWAP2 DUP2 ADD SWAP1 PUSH2 0x3902 JUMP JUMPDEST PUSH1 0x1 JUMPDEST PUSH2 0x2A0C JUMPI RETURNDATASIZE DUP1 DUP1 ISZERO PUSH2 0x29DB JUMPI PUSH1 0x40 MLOAD SWAP2 POP PUSH1 0x1F NOT PUSH1 0x3F RETURNDATASIZE ADD AND DUP3 ADD PUSH1 0x40 MSTORE RETURNDATASIZE DUP3 MSTORE RETURNDATASIZE PUSH0 PUSH1 0x20 DUP5 ADD RETURNDATACOPY PUSH2 0x29E0 JUMP JUMPDEST PUSH1 0x60 SWAP2 POP JUMPDEST POP DUP1 MLOAD PUSH0 SUB PUSH2 0x2A04 JUMPI DUP4 PUSH1 0x40 MLOAD PUSH4 0x32505749 PUSH1 0xE1 SHL DUP2 MSTORE PUSH1 0x4 ADD PUSH2 0x6D6 SWAP2 SWAP1 PUSH2 0x3314 JUMP JUMPDEST DUP1 MLOAD DUP2 PUSH1 0x20 ADD REVERT JUMPDEST PUSH1 0x1 PUSH1 0x1 PUSH1 0xE0 SHL SUB NOT DUP2 AND PUSH4 0xA85BD01 PUSH1 0xE1 SHL EQ PUSH2 0x224A JUMPI DUP4 PUSH1 0x40 MLOAD PUSH4 0x32505749 PUSH1 0xE1 SHL DUP2 MSTORE PUSH1 0x4 ADD PUSH2 0x6D6 SWAP2 SWAP1 PUSH2 0x3314 JUMP JUMPDEST PUSH1 0x60 PUSH0 PUSH2 0x2A4B DUP4 PUSH2 0x2D67 JUMP JUMPDEST PUSH1 0x1 ADD SWAP1 POP PUSH0 DUP2 PUSH8 0xFFFFFFFFFFFFFFFF DUP2 GT ISZERO PUSH2 0x2A6A JUMPI PUSH2 0x2A6A PUSH2 0x3555 JUMP JUMPDEST PUSH1 0x40 MLOAD SWAP1 DUP1 DUP3 MSTORE DUP1 PUSH1 0x1F ADD PUSH1 0x1F NOT AND PUSH1 0x20 ADD DUP3 ADD PUSH1 0x40 MSTORE DUP1 ISZERO PUSH2 0x2A94 JUMPI PUSH1 0x20 DUP3 ADD DUP2 DUP1 CALLDATASIZE DUP4 CALLDATACOPY ADD SWAP1 POP JUMPDEST POP SWAP1 POP DUP2 DUP2 ADD PUSH1 0x20 ADD JUMPDEST PUSH0 NOT ADD PUSH16 0x181899199A1A9B1B9C1CB0B131B232B3 PUSH1 0x81 SHL PUSH1 0xA DUP7 MOD BYTE DUP2 MSTORE8 PUSH1 0xA DUP6 DIV SWAP5 POP DUP5 PUSH2 0x2A9E JUMPI POP SWAP4 SWAP3 POP POP POP JUMP JUMPDEST DUP1 SLOAD PUSH1 0x1 PUSH1 0x1 PUSH1 0xA0 SHL SUB SWAP1 DUP2 AND PUSH0 SWAP1 DUP2 MSTORE PUSH1 0xB PUSH1 0x20 SWAP1 DUP2 MSTORE PUSH1 0x40 DUP1 DUP4 KECCAK256 DUP1 SLOAD PUSH1 0x1 PUSH1 0xA8 SHL PUSH1 0xFF PUSH1 0xA8 SHL NOT SWAP2 DUP3 AND DUP2 OR SWAP1 SWAP3 SSTORE PUSH1 0x1 DUP8 ADD DUP1 SLOAD DUP8 AND DUP7 MSTORE SWAP5 DUP4 SWAP1 KECCAK256 DUP1 SLOAD SWAP1 SWAP2 AND SWAP1 SWAP2 OR SWAP1 SSTORE DUP5 SLOAD SWAP3 SLOAD DUP2 MLOAD SWAP4 DUP6 AND DUP5 MSTORE SWAP1 SWAP4 AND SWAP1 DUP3 ADD MSTORE PUSH32 0x5C8EC7A25A142B043EE1D70B00B983786A266CED5B4E6B540DDC769276626819 SWAP2 ADD PUSH1 0x40 MLOAD DUP1 SWAP2 SUB SWAP1 LOG1 DUP1 SLOAD PUSH2 0x2B7E SWAP1 PUSH1 0x1 PUSH1 0x1 PUSH1 0xA0 SHL SUB AND PUSH2 0x2B6E PUSH1 0x8 SLOAD SWAP1 JUMP JUMPDEST PUSH2 0x2B79 SWAP1 PUSH1 0x1 PUSH2 0x3894 JUMP JUMPDEST PUSH2 0x2E3E JUMP JUMPDEST PUSH1 0x1 DUP2 ADD SLOAD PUSH2 0xF2A SWAP1 PUSH1 0x1 PUSH1 0x1 PUSH1 0xA0 SHL SUB AND PUSH2 0x2B6E PUSH1 0x8 SLOAD SWAP1 JUMP JUMPDEST DUP1 DUP1 PUSH2 0x2BAD JUMPI POP PUSH1 0x1 PUSH1 0x1 PUSH1 0xA0 SHL SUB DUP3 AND ISZERO ISZERO JUMPDEST ISZERO PUSH2 0x2C65 JUMPI PUSH0 PUSH2 0x2BBC DUP5 PUSH2 0x22A0 JUMP JUMPDEST SWAP1 POP PUSH1 0x1 PUSH1 0x1 PUSH1 0xA0 SHL SUB DUP4 AND ISZERO DUP1 ISZERO SWAP1 PUSH2 0x2BE8 JUMPI POP DUP3 PUSH1 0x1 PUSH1 0x1 PUSH1 0xA0 SHL SUB AND DUP2 PUSH1 0x1 PUSH1 0x1 PUSH1 0xA0 SHL SUB AND EQ ISZERO JUMPDEST DUP1 ISZERO PUSH2 0x2BFB JUMPI POP PUSH2 0x2BF9 DUP2 DUP5 PUSH2 0x1F94 JUMP JUMPDEST ISZERO JUMPDEST ISZERO PUSH2 0x2C1B JUMPI DUP3 PUSH1 0x40 MLOAD PUSH4 0xA9FBF51F PUSH1 0xE0 SHL DUP2 MSTORE PUSH1 0x4 ADD PUSH2 0x6D6 SWAP2 SWAP1 PUSH2 0x3314 JUMP JUMPDEST DUP2 ISZERO PUSH2 0x2C63 JUMPI DUP4 DUP6 PUSH1 0x1 PUSH1 0x1 PUSH1 0xA0 SHL SUB AND DUP3 PUSH1 0x1 PUSH1 0x1 PUSH1 0xA0 SHL SUB AND PUSH32 0x8C5BE1E5EBEC7D5BD14F71427D1E84F3DD0314C0F7B2291E5B200AC8C7C3B925 PUSH1 0x40 MLOAD PUSH1 0x40 MLOAD DUP1 SWAP2 SUB SWAP1 LOG4 JUMPDEST POP JUMPDEST POP POP PUSH0 SWAP1 DUP2 MSTORE PUSH1 0x4 PUSH1 0x20 MSTORE PUSH1 0x40 SWAP1 KECCAK256 DUP1 SLOAD PUSH1 0x1 PUSH1 0x1 PUSH1 0xA0 SHL SUB NOT AND PUSH1 0x1 PUSH1 0x1 PUSH1 0xA0 SHL SUB SWAP3 SWAP1 SWAP3 AND SWAP2 SWAP1 SWAP2 OR SWAP1 SSTORE JUMP JUMPDEST PUSH0 DUP1 PUSH2 0x2CA1 DUP6 DUP6 DUP6 PUSH2 0x2E57 JUMP JUMPDEST SWAP1 POP PUSH1 0x1 PUSH1 0x1 PUSH1 0xA0 SHL SUB DUP2 AND PUSH2 0x2CFD JUMPI PUSH2 0x2CF8 DUP5 PUSH1 0x8 DUP1 SLOAD PUSH0 DUP4 DUP2 MSTORE PUSH1 0x9 PUSH1 0x20 MSTORE PUSH1 0x40 DUP2 KECCAK256 DUP3 SWAP1 SSTORE PUSH1 0x1 DUP3 ADD DUP4 SSTORE SWAP2 SWAP1 SWAP2 MSTORE PUSH32 0xF3F7A9FE364FAAB93B216DA50A3214154F22A0A2B415B23A84C8169E8B636EE3 ADD SSTORE JUMP JUMPDEST PUSH2 0x2D20 JUMP JUMPDEST DUP5 PUSH1 0x1 PUSH1 0x1 PUSH1 0xA0 SHL SUB AND DUP2 PUSH1 0x1 PUSH1 0x1 PUSH1 0xA0 SHL SUB AND EQ PUSH2 0x2D20 JUMPI PUSH2 0x2D20 DUP2 DUP6 PUSH2 0x2F49 JUMP JUMPDEST PUSH1 0x1 PUSH1 0x1 PUSH1 0xA0 SHL SUB DUP6 AND PUSH2 0x2D3C JUMPI PUSH2 0x2D37 DUP5 PUSH2 0x2FD6 JUMP JUMPDEST PUSH2 0x2D5F JUMP JUMPDEST DUP5 PUSH1 0x1 PUSH1 0x1 PUSH1 0xA0 SHL SUB AND DUP2 PUSH1 0x1 PUSH1 0x1 PUSH1 0xA0 SHL SUB AND EQ PUSH2 0x2D5F JUMPI PUSH2 0x2D5F DUP6 DUP6 PUSH2 0x307D JUMP JUMPDEST SWAP5 SWAP4 POP POP POP POP JUMP JUMPDEST PUSH0 DUP1 PUSH19 0x184F03E93FF9F4DAA797ED6E38ED64BF6A1F01 PUSH1 0x40 SHL DUP4 LT PUSH2 0x2DA5 JUMPI PUSH19 0x184F03E93FF9F4DAA797ED6E38ED64BF6A1F01 PUSH1 0x40 SHL DUP4 DIV SWAP3 POP PUSH1 0x40 ADD JUMPDEST PUSH14 0x4EE2D6D415B85ACEF8100000000 DUP4 LT PUSH2 0x2DD1 JUMPI PUSH14 0x4EE2D6D415B85ACEF8100000000 DUP4 DIV SWAP3 POP PUSH1 0x20 ADD JUMPDEST PUSH7 0x2386F26FC10000 DUP4 LT PUSH2 0x2DEF JUMPI PUSH7 0x2386F26FC10000 DUP4 DIV SWAP3 POP PUSH1 0x10 ADD JUMPDEST PUSH4 0x5F5E100 DUP4 LT PUSH2 0x2E07 JUMPI PUSH4 0x5F5E100 DUP4 DIV SWAP3 POP PUSH1 0x8 ADD JUMPDEST PUSH2 0x2710 DUP4 LT PUSH2 0x2E1B JUMPI PUSH2 0x2710 DUP4 DIV SWAP3 POP PUSH1 0x4 ADD JUMPDEST PUSH1 0x64 DUP4 LT PUSH2 0x2E2D JUMPI PUSH1 0x64 DUP4 DIV SWAP3 POP PUSH1 0x2 ADD JUMPDEST PUSH1 0xA DUP4 LT PUSH2 0x5AF JUMPI PUSH1 0x1 ADD SWAP3 SWAP2 POP POP JUMP JUMPDEST PUSH2 0x676 DUP3 DUP3 PUSH1 0x40 MLOAD DUP1 PUSH1 0x20 ADD PUSH1 0x40 MSTORE DUP1 PUSH0 DUP2 MSTORE POP PUSH2 0x30CB JUMP JUMPDEST PUSH0 DUP3 DUP2 MSTORE PUSH1 0x2 PUSH1 0x20 MSTORE PUSH1 0x40 DUP2 KECCAK256 SLOAD PUSH1 0x1 PUSH1 0x1 PUSH1 0xA0 SHL SUB SWAP1 DUP2 AND SWAP1 DUP4 AND ISZERO PUSH2 0x2E83 JUMPI PUSH2 0x2E83 DUP2 DUP5 DUP7 PUSH2 0x30E1 JUMP JUMPDEST PUSH1 0x1 PUSH1 0x1 PUSH1 0xA0 SHL SUB DUP2 AND ISZERO PUSH2 0x2EBD JUMPI PUSH2 0x2E9E PUSH0 DUP6 PUSH0 DUP1 PUSH2 0x2B99 JUMP JUMPDEST PUSH1 0x1 PUSH1 0x1 PUSH1 0xA0 SHL SUB DUP2 AND PUSH0 SWAP1 DUP2 MSTORE PUSH1 0x3 PUSH1 0x20 MSTORE PUSH1 0x40 SWAP1 KECCAK256 DUP1 SLOAD PUSH0 NOT ADD SWAP1 SSTORE JUMPDEST PUSH1 0x1 PUSH1 0x1 PUSH1 0xA0 SHL SUB DUP6 AND ISZERO PUSH2 0x2EEB JUMPI PUSH1 0x1 PUSH1 0x1 PUSH1 0xA0 SHL SUB DUP6 AND PUSH0 SWAP1 DUP2 MSTORE PUSH1 0x3 PUSH1 0x20 MSTORE PUSH1 0x40 SWAP1 KECCAK256 DUP1 SLOAD PUSH1 0x1 ADD SWAP1 SSTORE JUMPDEST PUSH0 DUP5 DUP2 MSTORE PUSH1 0x2 PUSH1 0x20 MSTORE PUSH1 0x40 DUP1 DUP3 KECCAK256 DUP1 SLOAD PUSH1 0x1 PUSH1 0x1 PUSH1 0xA0 SHL SUB NOT AND PUSH1 0x1 PUSH1 0x1 PUSH1 0xA0 SHL SUB DUP10 DUP2 AND SWAP2 DUP3 OR SWAP1 SWAP3 SSTORE SWAP2 MLOAD DUP8 SWAP4 SWAP2 DUP6 AND SWAP2 PUSH32 0xDDF252AD1BE2C89B69C2B068FC378DAA952BA7F163C4A11628F55A4DF523B3EF SWAP2 LOG4 SWAP5 SWAP4 POP POP POP POP JUMP JUMPDEST PUSH0 PUSH2 0x2F53 DUP4 PUSH2 0xA7D JUMP JUMPDEST PUSH0 DUP4 DUP2 MSTORE PUSH1 0x7 PUSH1 0x20 MSTORE PUSH1 0x40 SWAP1 KECCAK256 SLOAD SWAP1 SWAP2 POP DUP1 DUP3 EQ PUSH2 0x2FA4 JUMPI PUSH1 0x1 PUSH1 0x1 PUSH1 0xA0 SHL SUB DUP5 AND PUSH0 SWAP1 DUP2 MSTORE PUSH1 0x6 PUSH1 0x20 SWAP1 DUP2 MSTORE PUSH1 0x40 DUP1 DUP4 KECCAK256 DUP6 DUP5 MSTORE DUP3 MSTORE DUP1 DUP4 KECCAK256 SLOAD DUP5 DUP5 MSTORE DUP2 DUP5 KECCAK256 DUP2 SWAP1 SSTORE DUP4 MSTORE PUSH1 0x7 SWAP1 SWAP2 MSTORE SWAP1 KECCAK256 DUP2 SWAP1 SSTORE JUMPDEST POP PUSH0 SWAP2 DUP3 MSTORE PUSH1 0x7 PUSH1 0x20 SWAP1 DUP2 MSTORE PUSH1 0x40 DUP1 DUP5 KECCAK256 DUP5 SWAP1 SSTORE PUSH1 0x1 PUSH1 0x1 PUSH1 0xA0 SHL SUB SWAP1 SWAP5 AND DUP4 MSTORE PUSH1 0x6 DUP2 MSTORE DUP4 DUP4 KECCAK256 SWAP2 DUP4 MSTORE MSTORE SWAP1 DUP2 KECCAK256 SSTORE JUMP JUMPDEST PUSH1 0x8 SLOAD PUSH0 SWAP1 PUSH2 0x2FE7 SWAP1 PUSH1 0x1 SWAP1 PUSH2 0x391D JUMP JUMPDEST PUSH0 DUP4 DUP2 MSTORE PUSH1 0x9 PUSH1 0x20 MSTORE PUSH1 0x40 DUP2 KECCAK256 SLOAD PUSH1 0x8 DUP1 SLOAD SWAP4 SWAP5 POP SWAP1 SWAP3 DUP5 SWAP1 DUP2 LT PUSH2 0x300E JUMPI PUSH2 0x300E PUSH2 0x368F JUMP JUMPDEST SWAP1 PUSH0 MSTORE PUSH1 0x20 PUSH0 KECCAK256 ADD SLOAD SWAP1 POP DUP1 PUSH1 0x8 DUP4 DUP2 SLOAD DUP2 LT PUSH2 0x302D JUMPI PUSH2 0x302D PUSH2 0x368F JUMP JUMPDEST PUSH0 SWAP2 DUP3 MSTORE PUSH1 0x20 DUP1 DUP4 KECCAK256 SWAP1 SWAP2 ADD SWAP3 SWAP1 SWAP3 SSTORE DUP3 DUP2 MSTORE PUSH1 0x9 SWAP1 SWAP2 MSTORE PUSH1 0x40 DUP1 DUP3 KECCAK256 DUP5 SWAP1 SSTORE DUP6 DUP3 MSTORE DUP2 KECCAK256 SSTORE PUSH1 0x8 DUP1 SLOAD DUP1 PUSH2 0x3064 JUMPI PUSH2 0x3064 PUSH2 0x3930 JUMP JUMPDEST PUSH1 0x1 SWAP1 SUB DUP2 DUP2 SWAP1 PUSH0 MSTORE PUSH1 0x20 PUSH0 KECCAK256 ADD PUSH0 SWAP1 SSTORE SWAP1 SSTORE POP POP POP POP JUMP JUMPDEST PUSH0 PUSH1 0x1 PUSH2 0x3089 DUP5 PUSH2 0xA7D JUMP JUMPDEST PUSH2 0x3093 SWAP2 SWAP1 PUSH2 0x391D JUMP JUMPDEST PUSH1 0x1 PUSH1 0x1 PUSH1 0xA0 SHL SUB SWAP1 SWAP4 AND PUSH0 SWAP1 DUP2 MSTORE PUSH1 0x6 PUSH1 0x20 SWAP1 DUP2 MSTORE PUSH1 0x40 DUP1 DUP4 KECCAK256 DUP7 DUP5 MSTORE DUP3 MSTORE DUP1 DUP4 KECCAK256 DUP6 SWAP1 SSTORE SWAP4 DUP3 MSTORE PUSH1 0x7 SWAP1 MSTORE SWAP2 SWAP1 SWAP2 KECCAK256 SWAP2 SWAP1 SWAP2 SSTORE POP JUMP JUMPDEST PUSH2 0x30D5 DUP4 DUP4 PUSH2 0x3137 JUMP JUMPDEST PUSH2 0x74E PUSH0 DUP5 DUP5 DUP5 PUSH2 0x2932 JUMP JUMPDEST PUSH2 0x30EC DUP4 DUP4 DUP4 PUSH2 0x3198 JUMP JUMPDEST PUSH2 0x74E JUMPI PUSH1 0x1 PUSH1 0x1 PUSH1 0xA0 SHL SUB DUP4 AND PUSH2 0x311A JUMPI PUSH1 0x40 MLOAD PUSH4 0x7E273289 PUSH1 0xE0 SHL DUP2 MSTORE PUSH1 0x4 DUP2 ADD DUP3 SWAP1 MSTORE PUSH1 0x24 ADD PUSH2 0x6D6 JUMP JUMPDEST DUP2 DUP2 PUSH1 0x40 MLOAD PUSH4 0x177E802F PUSH1 0xE0 SHL DUP2 MSTORE PUSH1 0x4 ADD PUSH2 0x6D6 SWAP3 SWAP2 SWAP1 PUSH2 0x3676 JUMP JUMPDEST PUSH1 0x1 PUSH1 0x1 PUSH1 0xA0 SHL SUB DUP3 AND PUSH2 0x3160 JUMPI PUSH0 PUSH1 0x40 MLOAD PUSH4 0x32505749 PUSH1 0xE1 SHL DUP2 MSTORE PUSH1 0x4 ADD PUSH2 0x6D6 SWAP2 SWAP1 PUSH2 0x3314 JUMP JUMPDEST PUSH0 PUSH2 0x316C DUP4 DUP4 PUSH0 PUSH2 0x2C94 JUMP JUMPDEST SWAP1 POP PUSH1 0x1 PUSH1 0x1 PUSH1 0xA0 SHL SUB DUP2 AND ISZERO PUSH2 0x74E JUMPI PUSH0 PUSH1 0x40 MLOAD PUSH4 0x39E35637 PUSH1 0xE1 SHL DUP2 MSTORE PUSH1 0x4 ADD PUSH2 0x6D6 SWAP2 SWAP1 PUSH2 0x3314 JUMP JUMPDEST PUSH0 PUSH1 0x1 PUSH1 0x1 PUSH1 0xA0 SHL SUB DUP4 AND ISZERO DUP1 ISZERO SWAP1 PUSH2 0x2D5F JUMPI POP DUP3 PUSH1 0x1 PUSH1 0x1 PUSH1 0xA0 SHL SUB AND DUP5 PUSH1 0x1 PUSH1 0x1 PUSH1 0xA0 SHL SUB AND EQ DUP1 PUSH2 0x31D1 JUMPI POP PUSH2 0x31D1 DUP5 DUP5 PUSH2 0x1F94 JUMP JUMPDEST DUP1 PUSH2 0x2D5F JUMPI POP POP PUSH0 SWAP1 DUP2 MSTORE PUSH1 0x4 PUSH1 0x20 MSTORE PUSH1 0x40 SWAP1 KECCAK256 SLOAD PUSH1 0x1 PUSH1 0x1 PUSH1 0xA0 SHL SUB SWAP1 DUP2 AND SWAP2 AND EQ SWAP2 SWAP1 POP JUMP JUMPDEST DUP3 DUP1 SLOAD DUP3 DUP3 SSTORE SWAP1 PUSH0 MSTORE PUSH1 0x20 PUSH0 KECCAK256 SWAP1 DUP2 ADD SWAP3 DUP3 ISZERO PUSH2 0x324A JUMPI SWAP2 PUSH1 0x20 MUL DUP3 ADD JUMPDEST DUP3 DUP2 GT ISZERO PUSH2 0x324A JUMPI DUP2 SLOAD PUSH1 0x1 PUSH1 0x1 PUSH1 0xA0 SHL SUB NOT AND PUSH1 0x1 PUSH1 0x1 PUSH1 0xA0 SHL SUB DUP5 CALLDATALOAD AND OR DUP3 SSTORE PUSH1 0x20 SWAP1 SWAP3 ADD SWAP2 PUSH1 0x1 SWAP1 SWAP2 ADD SWAP1 PUSH2 0x3217 JUMP JUMPDEST POP PUSH2 0x3256 SWAP3 SWAP2 POP PUSH2 0x325A JUMP JUMPDEST POP SWAP1 JUMP JUMPDEST JUMPDEST DUP1 DUP3 GT ISZERO PUSH2 0x3256 JUMPI PUSH0 DUP2 SSTORE PUSH1 0x1 ADD PUSH2 0x325B JUMP JUMPDEST PUSH1 0x1 PUSH1 0x1 PUSH1 0xE0 SHL SUB NOT DUP2 AND DUP2 EQ PUSH2 0xF2A JUMPI PUSH0 DUP1 REVERT JUMPDEST PUSH0 PUSH1 0x20 DUP3 DUP5 SUB SLT ISZERO PUSH2 0x3293 JUMPI PUSH0 DUP1 REVERT JUMPDEST DUP2 CALLDATALOAD PUSH2 0x1DAC DUP2 PUSH2 0x326E JUMP JUMPDEST PUSH0 JUMPDEST DUP4 DUP2 LT ISZERO PUSH2 0x32B8 JUMPI DUP2 DUP2 ADD MLOAD DUP4 DUP3 ADD MSTORE PUSH1 0x20 ADD PUSH2 0x32A0 JUMP JUMPDEST POP POP PUSH0 SWAP2 ADD MSTORE JUMP JUMPDEST PUSH0 DUP2 MLOAD DUP1 DUP5 MSTORE PUSH2 0x32D7 DUP2 PUSH1 0x20 DUP7 ADD PUSH1 0x20 DUP7 ADD PUSH2 0x329E JUMP JUMPDEST PUSH1 0x1F ADD PUSH1 0x1F NOT AND SWAP3 SWAP1 SWAP3 ADD PUSH1 0x20 ADD SWAP3 SWAP2 POP POP JUMP JUMPDEST PUSH1 0x20 DUP2 MSTORE PUSH0 PUSH2 0x1DAC PUSH1 0x20 DUP4 ADD DUP5 PUSH2 0x32C0 JUMP JUMPDEST PUSH0 PUSH1 0x20 DUP3 DUP5 SUB SLT ISZERO PUSH2 0x330D JUMPI PUSH0 DUP1 REVERT JUMPDEST POP CALLDATALOAD SWAP2 SWAP1 POP JUMP JUMPDEST PUSH1 0x1 PUSH1 0x1 PUSH1 0xA0 SHL SUB SWAP2 SWAP1 SWAP2 AND DUP2 MSTORE PUSH1 0x20 ADD SWAP1 JUMP JUMPDEST DUP1 CALLDATALOAD PUSH1 0x1 PUSH1 0x1 PUSH1 0xA0 SHL SUB DUP2 AND DUP2 EQ PUSH2 0x333E JUMPI PUSH0 DUP1 REVERT JUMPDEST SWAP2 SWAP1 POP JUMP JUMPDEST PUSH0 DUP1 PUSH1 0x40 DUP4 DUP6 SUB SLT ISZERO PUSH2 0x3354 JUMPI PUSH0 DUP1 REVERT JUMPDEST PUSH2 0x335D DUP4 PUSH2 0x3328 JUMP JUMPDEST SWAP5 PUSH1 0x20 SWAP4 SWAP1 SWAP4 ADD CALLDATALOAD SWAP4 POP POP POP JUMP JUMPDEST PUSH0 DUP1 PUSH0 PUSH1 0x60 DUP5 DUP7 SUB SLT ISZERO PUSH2 0x337D JUMPI PUSH0 DUP1 REVERT JUMPDEST PUSH2 0x3386 DUP5 PUSH2 0x3328 JUMP JUMPDEST SWAP3 POP PUSH2 0x3394 PUSH1 0x20 DUP6 ADD PUSH2 0x3328 JUMP JUMPDEST SWAP2 POP PUSH1 0x40 DUP5 ADD CALLDATALOAD SWAP1 POP SWAP3 POP SWAP3 POP SWAP3 JUMP JUMPDEST PUSH0 PUSH1 0x20 DUP3 DUP5 SUB SLT ISZERO PUSH2 0x33B4 JUMPI PUSH0 DUP1 REVERT JUMPDEST PUSH2 0x1DAC DUP3 PUSH2 0x3328 JUMP JUMPDEST PUSH1 0x20 DUP1 DUP3 MSTORE DUP3 MLOAD DUP3 DUP3 ADD DUP2 SWAP1 MSTORE PUSH0 SWAP2 SWAP1 DUP5 DUP3 ADD SWAP1 PUSH1 0x40 DUP6 ADD SWAP1 DUP5 JUMPDEST DUP2 DUP2 LT ISZERO PUSH2 0x33FD JUMPI DUP4 MLOAD PUSH1 0x1 PUSH1 0x1 PUSH1 0xA0 SHL SUB AND DUP4 MSTORE SWAP3 DUP5 ADD SWAP3 SWAP2 DUP5 ADD SWAP2 PUSH1 0x1 ADD PUSH2 0x33D8 JUMP JUMPDEST POP SWAP1 SWAP7 SWAP6 POP POP POP POP POP POP JUMP JUMPDEST PUSH0 DUP1 PUSH1 0x20 DUP4 DUP6 SUB SLT ISZERO PUSH2 0x341A JUMPI PUSH0 DUP1 REVERT JUMPDEST DUP3 CALLDATALOAD PUSH8 0xFFFFFFFFFFFFFFFF DUP1 DUP3 GT ISZERO PUSH2 0x3431 JUMPI PUSH0 DUP1 REVERT JUMPDEST DUP2 DUP6 ADD SWAP2 POP DUP6 PUSH1 0x1F DUP4 ADD SLT PUSH2 0x3444 JUMPI PUSH0 DUP1 REVERT JUMPDEST DUP2 CALLDATALOAD DUP2 DUP2 GT ISZERO PUSH2 0x3452 JUMPI PUSH0 DUP1 REVERT JUMPDEST DUP7 PUSH1 0x20 DUP3 PUSH1 0x5 SHL DUP6 ADD ADD GT ISZERO PUSH2 0x3466 JUMPI PUSH0 DUP1 REVERT JUMPDEST PUSH1 0x20 SWAP3 SWAP1 SWAP3 ADD SWAP7 SWAP2 SWAP6 POP SWAP1 SWAP4 POP POP POP POP JUMP JUMPDEST PUSH0 DUP1 PUSH1 0x40 DUP4 DUP6 SUB SLT ISZERO PUSH2 0x3489 JUMPI PUSH0 DUP1 REVERT JUMPDEST PUSH2 0x3492 DUP4 PUSH2 0x3328 JUMP JUMPDEST SWAP2 POP PUSH2 0x34A0 PUSH1 0x20 DUP5 ADD PUSH2 0x3328 JUMP JUMPDEST SWAP1 POP SWAP3 POP SWAP3 SWAP1 POP JUMP JUMPDEST DUP1 MLOAD PUSH1 0x1 PUSH1 0x1 PUSH1 0xA0 SHL SUB AND DUP3 MSTORE PUSH1 0x20 DUP1 DUP3 ADD MLOAD ISZERO ISZERO SWAP1 DUP4 ADD MSTORE PUSH1 0x40 SWAP1 DUP2 ADD MLOAD ISZERO ISZERO SWAP2 ADD MSTORE JUMP JUMPDEST PUSH2 0x160 DUP2 ADD PUSH2 0x34DE DUP3 DUP11 PUSH2 0x34A9 JUMP JUMPDEST PUSH2 0x34EB PUSH1 0x60 DUP4 ADD DUP10 PUSH2 0x34A9 JUMP JUMPDEST PUSH1 0xC0 DUP3 ADD SWAP7 SWAP1 SWAP7 MSTORE SWAP4 ISZERO ISZERO PUSH1 0xE0 DUP6 ADD MSTORE SWAP2 ISZERO ISZERO PUSH2 0x100 DUP5 ADD MSTORE ISZERO ISZERO PUSH2 0x120 DUP4 ADD MSTORE PUSH1 0xFF AND PUSH2 0x140 SWAP1 SWAP2 ADD MSTORE SWAP3 SWAP2 POP POP JUMP JUMPDEST PUSH0 DUP1 PUSH1 0x40 DUP4 DUP6 SUB SLT ISZERO PUSH2 0x352D JUMPI PUSH0 DUP1 REVERT JUMPDEST PUSH2 0x3536 DUP4 PUSH2 0x3328 JUMP JUMPDEST SWAP2 POP PUSH1 0x20 DUP4 ADD CALLDATALOAD DUP1 ISZERO ISZERO DUP2 EQ PUSH2 0x354A JUMPI PUSH0 DUP1 REVERT JUMPDEST DUP1 SWAP2 POP POP SWAP3 POP SWAP3 SWAP1 POP JUMP JUMPDEST PUSH4 0x4E487B71 PUSH1 0xE0 SHL PUSH0 MSTORE PUSH1 0x41 PUSH1 0x4 MSTORE PUSH1 0x24 PUSH0 REVERT JUMPDEST PUSH0 DUP1 PUSH0 DUP1 PUSH1 0x80 DUP6 DUP8 SUB SLT ISZERO PUSH2 0x357C JUMPI PUSH0 DUP1 REVERT JUMPDEST PUSH2 0x3585 DUP6 PUSH2 0x3328 JUMP JUMPDEST SWAP4 POP PUSH2 0x3593 PUSH1 0x20 DUP7 ADD PUSH2 0x3328 JUMP JUMPDEST SWAP3 POP PUSH1 0x40 DUP6 ADD CALLDATALOAD SWAP2 POP PUSH1 0x60 DUP6 ADD CALLDATALOAD PUSH8 0xFFFFFFFFFFFFFFFF DUP1 DUP3 GT ISZERO PUSH2 0x35B6 JUMPI PUSH0 DUP1 REVERT JUMPDEST DUP2 DUP8 ADD SWAP2 POP DUP8 PUSH1 0x1F DUP4 ADD SLT PUSH2 0x35C9 JUMPI PUSH0 DUP1 REVERT JUMPDEST DUP2 CALLDATALOAD DUP2 DUP2 GT ISZERO PUSH2 0x35DB JUMPI PUSH2 0x35DB PUSH2 0x3555 JUMP JUMPDEST PUSH1 0x40 MLOAD PUSH1 0x1F DUP3 ADD PUSH1 0x1F NOT SWAP1 DUP2 AND PUSH1 0x3F ADD AND DUP2 ADD SWAP1 DUP4 DUP3 GT DUP2 DUP4 LT OR ISZERO PUSH2 0x3603 JUMPI PUSH2 0x3603 PUSH2 0x3555 JUMP JUMPDEST DUP2 PUSH1 0x40 MSTORE DUP3 DUP2 MSTORE DUP11 PUSH1 0x20 DUP5 DUP8 ADD ADD GT ISZERO PUSH2 0x361B JUMPI PUSH0 DUP1 REVERT JUMPDEST DUP3 PUSH1 0x20 DUP7 ADD PUSH1 0x20 DUP4 ADD CALLDATACOPY PUSH0 PUSH1 0x20 DUP5 DUP4 ADD ADD MSTORE DUP1 SWAP6 POP POP POP POP POP POP SWAP3 SWAP6 SWAP2 SWAP5 POP SWAP3 POP JUMP JUMPDEST PUSH1 0x1 DUP2 DUP2 SHR SWAP1 DUP3 AND DUP1 PUSH2 0x3652 JUMPI PUSH1 0x7F DUP3 AND SWAP2 POP JUMPDEST PUSH1 0x20 DUP3 LT DUP2 SUB PUSH2 0x3670 JUMPI PUSH4 0x4E487B71 PUSH1 0xE0 SHL PUSH0 MSTORE PUSH1 0x22 PUSH1 0x4 MSTORE PUSH1 0x24 PUSH0 REVERT JUMPDEST POP SWAP2 SWAP1 POP JUMP JUMPDEST PUSH1 0x1 PUSH1 0x1 PUSH1 0xA0 SHL SUB SWAP3 SWAP1 SWAP3 AND DUP3 MSTORE PUSH1 0x20 DUP3 ADD MSTORE PUSH1 0x40 ADD SWAP1 JUMP JUMPDEST PUSH4 0x4E487B71 PUSH1 0xE0 SHL PUSH0 MSTORE PUSH1 0x32 PUSH1 0x4 MSTORE PUSH1 0x24 PUSH0 REVERT JUMPDEST PUSH1 0x20 DUP1 DUP3 MSTORE PUSH1 0x29 SWAP1 DUP3 ADD MSTORE PUSH32 0x43616C6C6572206D757374206265206F6E65206F662074686520656E67616765 PUSH1 0x40 DUP3 ADD MSTORE PUSH9 0x642070617274696573 PUSH1 0xB8 SHL PUSH1 0x60 DUP3 ADD MSTORE PUSH1 0x80 ADD SWAP1 JUMP JUMPDEST PUSH1 0x20 DUP1 DUP3 MSTORE PUSH1 0x22 SWAP1 DUP3 ADD MSTORE PUSH32 0x54686520656E676167656D656E7420697320616C7265616479207265766F6B65 PUSH1 0x40 DUP3 ADD MSTORE PUSH2 0x3217 PUSH1 0xF1 SHL PUSH1 0x60 DUP3 ADD MSTORE PUSH1 0x80 ADD SWAP1 JUMP JUMPDEST PUSH1 0x20 DUP1 DUP3 MSTORE PUSH1 0xF SWAP1 DUP3 ADD MSTORE PUSH15 0x105B1C9958591E481B585C9C9A5959 PUSH1 0x8A SHL PUSH1 0x40 DUP3 ADD MSTORE PUSH1 0x60 ADD SWAP1 JUMP JUMPDEST PUSH1 0x1 PUSH1 0x1 PUSH1 0xA0 SHL SUB DUP5 DUP2 AND DUP3 MSTORE PUSH1 0x40 PUSH1 0x20 DUP1 DUP5 ADD DUP3 SWAP1 MSTORE SWAP1 DUP4 ADD DUP5 SWAP1 MSTORE PUSH0 SWAP2 DUP6 SWAP2 PUSH1 0x60 DUP6 ADD DUP5 JUMPDEST DUP8 DUP2 LT ISZERO PUSH2 0x37A3 JUMPI DUP4 PUSH2 0x3790 DUP7 PUSH2 0x3328 JUMP JUMPDEST AND DUP3 MSTORE SWAP4 DUP3 ADD SWAP4 SWAP1 DUP3 ADD SWAP1 PUSH1 0x1 ADD PUSH2 0x377E JUMP JUMPDEST POP SWAP9 SWAP8 POP POP POP POP POP POP POP POP JUMP JUMPDEST PUSH1 0x20 DUP1 DUP3 MSTORE PUSH1 0xE SWAP1 DUP3 ADD MSTORE PUSH14 0x139BDD08185D5D1A1BDC9A5E9959 PUSH1 0x92 SHL PUSH1 0x40 DUP3 ADD MSTORE PUSH1 0x60 ADD SWAP1 JUMP JUMPDEST PUSH4 0x4E487B71 PUSH1 0xE0 SHL PUSH0 MSTORE PUSH1 0x11 PUSH1 0x4 MSTORE PUSH1 0x24 PUSH0 REVERT JUMPDEST PUSH0 PUSH1 0xFF DUP3 AND PUSH1 0xFF DUP2 SUB PUSH2 0x3801 JUMPI PUSH2 0x3801 PUSH2 0x37D8 JUMP JUMPDEST PUSH1 0x1 ADD SWAP3 SWAP2 POP POP JUMP JUMPDEST PUSH0 PUSH1 0x1 DUP3 ADD PUSH2 0x381B JUMPI PUSH2 0x381B PUSH2 0x37D8 JUMP JUMPDEST POP PUSH1 0x1 ADD SWAP1 JUMP JUMPDEST PUSH1 0xFF DUP2 DUP2 AND DUP4 DUP3 AND ADD SWAP1 DUP2 GT ISZERO PUSH2 0x5AF JUMPI PUSH2 0x5AF PUSH2 0x37D8 JUMP JUMPDEST PUSH0 DUP4 MLOAD PUSH2 0x384C DUP2 DUP5 PUSH1 0x20 DUP9 ADD PUSH2 0x329E JUMP JUMPDEST DUP4 MLOAD SWAP1 DUP4 ADD SWAP1 PUSH2 0x3860 DUP2 DUP4 PUSH1 0x20 DUP9 ADD PUSH2 0x329E JUMP JUMPDEST ADD SWAP5 SWAP4 POP POP POP POP JUMP JUMPDEST PUSH1 0x20 DUP1 DUP3 MSTORE PUSH1 0x11 SWAP1 DUP3 ADD MSTORE PUSH17 0x105B1C9958591E4818DBDB999A5C9B5959 PUSH1 0x7A SHL PUSH1 0x40 DUP3 ADD MSTORE PUSH1 0x60 ADD SWAP1 JUMP JUMPDEST DUP1 DUP3 ADD DUP1 DUP3 GT ISZERO PUSH2 0x5AF JUMPI PUSH2 0x5AF PUSH2 0x37D8 JUMP JUMPDEST PUSH0 DUP3 PUSH2 0x38C1 JUMPI PUSH4 0x4E487B71 PUSH1 0xE0 SHL PUSH0 MSTORE PUSH1 0x12 PUSH1 0x4 MSTORE PUSH1 0x24 PUSH0 REVERT JUMPDEST POP DIV SWAP1 JUMP JUMPDEST PUSH1 0x1 PUSH1 0x1 PUSH1 0xA0 SHL SUB DUP6 DUP2 AND DUP3 MSTORE DUP5 AND PUSH1 0x20 DUP3 ADD MSTORE PUSH1 0x40 DUP2 ADD DUP4 SWAP1 MSTORE PUSH1 0x80 PUSH1 0x60 DUP3 ADD DUP2 SWAP1 MSTORE PUSH0 SWAP1 PUSH2 0x38F8 SWAP1 DUP4 ADD DUP5 PUSH2 0x32C0 JUMP JUMPDEST SWAP7 SWAP6 POP POP POP POP POP POP JUMP JUMPDEST PUSH0 PUSH1 0x20 DUP3 DUP5 SUB SLT ISZERO PUSH2 0x3912 JUMPI PUSH0 DUP1 REVERT JUMPDEST DUP2 MLOAD PUSH2 0x1DAC DUP2 PUSH2 0x326E JUMP JUMPDEST DUP2 DUP2 SUB DUP2 DUP2 GT ISZERO PUSH2 0x5AF JUMPI PUSH2 0x5AF PUSH2 0x37D8 JUMP JUMPDEST PUSH4 0x4E487B71 PUSH1 0xE0 SHL PUSH0 MSTORE PUSH1 0x31 PUSH1 0x4 MSTORE PUSH1 0x24 PUSH0 REVERT INVALID LOG2 PUSH5 0x6970667358 0x22 SLT KECCAK256 PUSH32 0xB5520B451FA9D2791405435EC173CE99D955410626BB3F31E4E13B31315C9B64 PUSH20 0x6F6C634300081500330000000000000000000000 "
		},
		"gasEstimates": {
			"creation": {
				"codeDepositCost": "2942800",
				"executionCost": "infinite",
				"totalCost": "infinite"
			},
			"external": {
				"approve(address,uint256)": "31531",
				"authorisedAccount()": "2449",
				"balanceOf(address)": "2762",
				"burnCertificate(uint256)": "238157",
				"confirmGuestList()": "68254",
				"confirmMarriage()": "infinite",
				"engagements(address)": "infinite",
				"getApproved(uint256)": "infinite",
				"getCurrentTime()": "346",
				"getEngagementInfo(address)": "9743",
				"getGuestList(address)": "infinite",
				"guestLists(address)": "4895",
				"isApprovedForAll(address,address)": "infinite",
				"isGuestConfirmed(address,address)": "infinite",
				"name()": "infinite",
				"ownerOf(uint256)": "infinite",
				"proposeGuestList(address[])": "infinite",
				"proposeMarriage()": "56838",
				"registerEngagement(address,uint256)": "697733",
				"revokeEngagement()": "229958",
				"safeTransferFrom(address,address,uint256)": "infinite",
				"safeTransferFrom(address,address,uint256,bytes)": "infinite",
				"setApprovalForAll(address,bool)": "26678",
				"spouses(address)": "2702",
				"supportsInterface(bytes4)": "infinite",
				"symbol()": "infinite",
				"tokenByIndex(uint256)": "6777",
				"tokenOfOwnerByIndex(address,uint256)": "4947",
				"tokenURI(uint256)": "infinite",
				"totalSupply()": "2392",
				"transferFrom(address,address,uint256)": "infinite",
				"voteAgainstWedding(address)": "infinite",
				"voteBurn()": "33318"
			},
			"internal": {
				"_checkAndInvalidateWedding(address)": "infinite",
				"finalizeMarriage(struct EngagementRegistry.Engagement storage pointer)": "infinite",
				"getGuestListKey(address)": "infinite",
				"getPrimarySpouseAddress(address)": "infinite"
			}
		},
		"methodIdentifiers": {
			"approve(address,uint256)": "095ea7b3",
			"authorisedAccount()": "5d00927e",
			"balanceOf(address)": "70a08231",
			"burnCertificate(uint256)": "93b16b45",
			"confirmGuestList()": "e83dc185",
			"confirmMarriage()": "ed9f8d1c",
			"engagements(address)": "a22690a8",
			"getApproved(uint256)": "081812fc",
			"getCurrentTime()": "29cb924d",
			"getEngagementInfo(address)": "b95afe03",
			"getGuestList(address)": "5dd4e938",
			"guestLists(address)": "2b80fa28",
			"isApprovedForAll(address,address)": "e985e9c5",
			"isGuestConfirmed(address,address)": "9dcaf479",
			"name()": "06fdde03",
			"ownerOf(uint256)": "6352211e",
			"proposeGuestList(address[])": "90106c5e",
			"proposeMarriage()": "8c434709",
			"registerEngagement(address,uint256)": "987e9533",
			"revokeEngagement()": "6d955eb5",
			"safeTransferFrom(address,address,uint256)": "42842e0e",
			"safeTransferFrom(address,address,uint256,bytes)": "b88d4fde",
			"setApprovalForAll(address,bool)": "a22cb465",
			"spouses(address)": "a498e802",
			"supportsInterface(bytes4)": "01ffc9a7",
			"symbol()": "95d89b41",
			"tokenByIndex(uint256)": "4f6ccce7",
			"tokenOfOwnerByIndex(address,uint256)": "2f745c59",
			"tokenURI(uint256)": "c87b56dd",
			"totalSupply()": "18160ddd",
			"transferFrom(address,address,uint256)": "23b872dd",
			"voteAgainstWedding(address)": "a1905e4e",
			"voteBurn()": "bfd44472"
		}
	},
	"abi": [
		{
			"inputs": [],
			"stateMutability": "nonpayable",
			"type": "constructor"
		},
		{
			"inputs": [],
			"name": "ERC721EnumerableForbiddenBatchMint",
			"type": "error"
		},
		{
			"inputs": [
				{
					"internalType": "address",
					"name": "sender",
					"type": "address"
				},
				{
					"internalType": "uint256",
					"name": "tokenId",
					"type": "uint256"
				},
				{
					"internalType": "address",
					"name": "owner",
					"type": "address"
				}
			],
			"name": "ERC721IncorrectOwner",
			"type": "error"
		},
		{
			"inputs": [
				{
					"internalType": "address",
					"name": "operator",
					"type": "address"
				},
				{
					"internalType": "uint256",
					"name": "tokenId",
					"type": "uint256"
				}
			],
			"name": "ERC721InsufficientApproval",
			"type": "error"
		},
		{
			"inputs": [
				{
					"internalType": "address",
					"name": "approver",
					"type": "address"
				}
			],
			"name": "ERC721InvalidApprover",
			"type": "error"
		},
		{
			"inputs": [
				{
					"internalType": "address",
					"name": "operator",
					"type": "address"
				}
			],
			"name": "ERC721InvalidOperator",
			"type": "error"
		},
		{
			"inputs": [
				{
					"internalType": "address",
					"name": "owner",
					"type": "address"
				}
			],
			"name": "ERC721InvalidOwner",
			"type": "error"
		},
		{
			"inputs": [
				{
					"internalType": "address",
					"name": "receiver",
					"type": "address"
				}
			],
			"name": "ERC721InvalidReceiver",
			"type": "error"
		},
		{
			"inputs": [
				{
					"internalType": "address",
					"name": "sender",
					"type": "address"
				}
			],
			"name": "ERC721InvalidSender",
			"type": "error"
		},
		{
			"inputs": [
				{
					"internalType": "uint256",
					"name": "tokenId",
					"type": "uint256"
				}
			],
			"name": "ERC721NonexistentToken",
			"type": "error"
		},
		{
			"inputs": [
				{
					"internalType": "address",
					"name": "owner",
					"type": "address"
				},
				{
					"internalType": "uint256",
					"name": "index",
					"type": "uint256"
				}
			],
			"name": "ERC721OutOfBoundsIndex",
			"type": "error"
		},
		{
			"anonymous": false,
			"inputs": [
				{
					"indexed": true,
					"internalType": "address",
					"name": "owner",
					"type": "address"
				},
				{
					"indexed": true,
					"internalType": "address",
					"name": "approved",
					"type": "address"
				},
				{
					"indexed": true,
					"internalType": "uint256",
					"name": "tokenId",
					"type": "uint256"
				}
			],
			"name": "Approval",
			"type": "event"
		},
		{
			"anonymous": false,
			"inputs": [
				{
					"indexed": true,
					"internalType": "address",
					"name": "owner",
					"type": "address"
				},
				{
					"indexed": true,
					"internalType": "address",
					"name": "operator",
					"type": "address"
				},
				{
					"indexed": false,
					"internalType": "bool",
					"name": "approved",
					"type": "bool"
				}
			],
			"name": "ApprovalForAll",
			"type": "event"
		},
		{
			"anonymous": false,
			"inputs": [
				{
					"indexed": false,
					"internalType": "address",
					"name": "spouse1",
					"type": "address"
				},
				{
					"indexed": false,
					"internalType": "address",
					"name": "spouse2",
					"type": "address"
				},
				{
					"indexed": false,
					"internalType": "uint256",
					"name": "weddingDate",
					"type": "uint256"
				}
			],
			"name": "EngagementRegistered",
			"type": "event"
		},
		{
			"anonymous": false,
			"inputs": [
				{
					"indexed": false,
					"internalType": "address",
					"name": "caller",
					"type": "address"
				},
				{
					"indexed": false,
					"internalType": "uint256",
					"name": "revokedDate",
					"type": "uint256"
				}
			],
			"name": "EngagementRevoked",
			"type": "event"
		},
		{
			"anonymous": false,
			"inputs": [
				{
					"indexed": false,
					"internalType": "address",
					"name": "spouse",
					"type": "address"
				}
			],
			"name": "GuestListConfirmed",
			"type": "event"
		},
		{
			"anonymous": false,
			"inputs": [
				{
					"indexed": false,
					"internalType": "address",
					"name": "spouse",
					"type": "address"
				},
				{
					"indexed": false,
					"internalType": "address[]",
					"name": "guests",
					"type": "address[]"
				}
			],
			"name": "GuestListProposed",
			"type": "event"
		},
		{
			"anonymous": false,
			"inputs": [
				{
					"indexed": false,
					"internalType": "address",
					"name": "guest",
					"type": "address"
				},
				{
					"indexed": false,
					"internalType": "address",
					"name": "spouse",
					"type": "address"
				}
			],
			"name": "GuestVotedAgainst",
			"type": "event"
		},
		{
			"anonymous": false,
			"inputs": [
				{
					"indexed": false,
					"internalType": "address",
					"name": "spouse1",
					"type": "address"
				},
				{
					"indexed": false,
					"internalType": "address",
					"name": "spouse2",
					"type": "address"
				}
			],
			"name": "MarriageConfirmed",
			"type": "event"
		},
		{
			"anonymous": false,
			"inputs": [
				{
					"indexed": false,
					"internalType": "address",
					"name": "proposer",
					"type": "address"
				}
			],
			"name": "MarriageProposed",
			"type": "event"
		},
		{
			"anonymous": false,
			"inputs": [
				{
					"indexed": true,
					"internalType": "address",
					"name": "from",
					"type": "address"
				},
				{
					"indexed": true,
					"internalType": "address",
					"name": "to",
					"type": "address"
				},
				{
					"indexed": true,
					"internalType": "uint256",
					"name": "tokenId",
					"type": "uint256"
				}
			],
			"name": "Transfer",
			"type": "event"
		},
		{
			"anonymous": false,
			"inputs": [
				{
					"indexed": false,
					"internalType": "address",
					"name": "spouse",
					"type": "address"
				}
			],
			"name": "WeddingInvalidated",
			"type": "event"
		},
		{
			"anonymous": false,
			"inputs": [
				{
					"indexed": false,
					"internalType": "uint256",
					"name": "token",
					"type": "uint256"
				}
			],
			"name": "token",
			"type": "event"
		},
		{
			"inputs": [
				{
					"internalType": "address",
					"name": "to",
					"type": "address"
				},
				{
					"internalType": "uint256",
					"name": "tokenId",
					"type": "uint256"
				}
			],
			"name": "approve",
			"outputs": [],
			"stateMutability": "nonpayable",
			"type": "function"
		},
		{
			"inputs": [],
			"name": "authorisedAccount",
			"outputs": [
				{
					"internalType": "address",
					"name": "",
					"type": "address"
				}
			],
			"stateMutability": "view",
			"type": "function"
		},
		{
			"inputs": [
				{
					"internalType": "address",
					"name": "owner",
					"type": "address"
				}
			],
			"name": "balanceOf",
			"outputs": [
				{
					"internalType": "uint256",
					"name": "",
					"type": "uint256"
				}
			],
			"stateMutability": "view",
			"type": "function"
		},
		{
			"inputs": [
				{
					"internalType": "uint256",
					"name": "tokenId",
					"type": "uint256"
				}
			],
			"name": "burnCertificate",
			"outputs": [],
			"stateMutability": "nonpayable",
			"type": "function"
		},
		{
			"inputs": [],
			"name": "confirmGuestList",
			"outputs": [],
			"stateMutability": "nonpayable",
			"type": "function"
		},
		{
			"inputs": [],
			"name": "confirmMarriage",
			"outputs": [],
			"stateMutability": "nonpayable",
			"type": "function"
		},
		{
			"inputs": [
				{
					"internalType": "address",
					"name": "",
					"type": "address"
				}
			],
			"name": "engagements",
			"outputs": [
				{
					"components": [
						{
							"internalType": "address",
							"name": "spouseAddress",
							"type": "address"
						},
						{
							"internalType": "bool",
							"name": "isEngaged",
							"type": "bool"
						},
						{
							"internalType": "bool",
							"name": "isMarried",
							"type": "bool"
						}
					],
					"internalType": "struct EngagementRegistry.Spouse",
					"name": "spouse1",
					"type": "tuple"
				},
				{
					"components": [
						{
							"internalType": "address",
							"name": "spouseAddress",
							"type": "address"
						},
						{
							"internalType": "bool",
							"name": "isEngaged",
							"type": "bool"
						},
						{
							"internalType": "bool",
							"name": "isMarried",
							"type": "bool"
						}
					],
					"internalType": "struct EngagementRegistry.Spouse",
					"name": "spouse2",
					"type": "tuple"
				},
				{
					"internalType": "uint256",
					"name": "weddingDate",
					"type": "uint256"
				},
				{
					"internalType": "bool",
					"name": "isRevoked",
					"type": "bool"
				},
				{
					"internalType": "bool",
					"name": "spouse1ConfirmedMarriage",
					"type": "bool"
				},
				{
					"internalType": "bool",
					"name": "spouse2ConfirmedMarriage",
					"type": "bool"
				},
				{
					"internalType": "uint8",
					"name": "burnCertificate",
					"type": "uint8"
				}
			],
			"stateMutability": "view",
			"type": "function"
		},
		{
			"inputs": [
				{
					"internalType": "uint256",
					"name": "tokenId",
					"type": "uint256"
				}
			],
			"name": "getApproved",
			"outputs": [
				{
					"internalType": "address",
					"name": "",
					"type": "address"
				}
			],
			"stateMutability": "view",
			"type": "function"
		},
		{
			"inputs": [],
			"name": "getCurrentTime",
			"outputs": [
				{
					"internalType": "uint256",
					"name": "",
					"type": "uint256"
				}
			],
			"stateMutability": "view",
			"type": "function"
		},
		{
			"inputs": [
				{
					"internalType": "address",
					"name": "_spouse",
					"type": "address"
				}
			],
			"name": "getEngagementInfo",
			"outputs": [
				{
					"internalType": "address",
					"name": "",
					"type": "address"
				},
				{
					"internalType": "address",
					"name": "",
					"type": "address"
				},
				{
					"internalType": "uint256",
					"name": "",
					"type": "uint256"
				},
				{
					"internalType": "bool",
					"name": "",
					"type": "bool"
				},
				{
					"internalType": "bool",
					"name": "",
					"type": "bool"
				}
			],
			"stateMutability": "view",
			"type": "function"
		},
		{
			"inputs": [
				{
					"internalType": "address",
					"name": "_spouse",
					"type": "address"
				}
			],
			"name": "getGuestList",
			"outputs": [
				{
					"internalType": "address[]",
					"name": "",
					"type": "address[]"
				}
			],
			"stateMutability": "view",
			"type": "function"
		},
		{
			"inputs": [
				{
					"internalType": "address",
					"name": "",
					"type": "address"
				}
			],
			"name": "guestLists",
			"outputs": [
				{
					"internalType": "bool",
					"name": "spouse1Confirmed",
					"type": "bool"
				},
				{
					"internalType": "bool",
					"name": "spouse2Confirmed",
					"type": "bool"
				},
				{
					"internalType": "uint256",
					"name": "votesAgainst",
					"type": "uint256"
				}
			],
			"stateMutability": "view",
			"type": "function"
		},
		{
			"inputs": [
				{
					"internalType": "address",
					"name": "owner",
					"type": "address"
				},
				{
					"internalType": "address",
					"name": "operator",
					"type": "address"
				}
			],
			"name": "isApprovedForAll",
			"outputs": [
				{
					"internalType": "bool",
					"name": "",
					"type": "bool"
				}
			],
			"stateMutability": "view",
			"type": "function"
		},
		{
			"inputs": [
				{
					"internalType": "address",
					"name": "_spouse",
					"type": "address"
				},
				{
					"internalType": "address",
					"name": "_guest",
					"type": "address"
				}
			],
			"name": "isGuestConfirmed",
			"outputs": [
				{
					"internalType": "bool",
					"name": "",
					"type": "bool"
				}
			],
			"stateMutability": "view",
			"type": "function"
		},
		{
			"inputs": [],
			"name": "name",
			"outputs": [
				{
					"internalType": "string",
					"name": "",
					"type": "string"
				}
			],
			"stateMutability": "view",
			"type": "function"
		},
		{
			"inputs": [
				{
					"internalType": "uint256",
					"name": "tokenId",
					"type": "uint256"
				}
			],
			"name": "ownerOf",
			"outputs": [
				{
					"internalType": "address",
					"name": "",
					"type": "address"
				}
			],
			"stateMutability": "view",
			"type": "function"
		},
		{
			"inputs": [
				{
					"internalType": "address[]",
					"name": "_guests",
					"type": "address[]"
				}
			],
			"name": "proposeGuestList",
			"outputs": [],
			"stateMutability": "nonpayable",
			"type": "function"
		},
		{
			"inputs": [],
			"name": "proposeMarriage",
			"outputs": [],
			"stateMutability": "nonpayable",
			"type": "function"
		},
		{
			"inputs": [
				{
					"internalType": "address",
					"name": "_proposeeAddress",
					"type": "address"
				},
				{
					"internalType": "uint256",
					"name": "_weddingDate",
					"type": "uint256"
				}
			],
			"name": "registerEngagement",
			"outputs": [],
			"stateMutability": "nonpayable",
			"type": "function"
		},
		{
			"inputs": [],
			"name": "revokeEngagement",
			"outputs": [],
			"stateMutability": "nonpayable",
			"type": "function"
		},
		{
			"inputs": [
				{
					"internalType": "address",
					"name": "from",
					"type": "address"
				},
				{
					"internalType": "address",
					"name": "to",
					"type": "address"
				},
				{
					"internalType": "uint256",
					"name": "tokenId",
					"type": "uint256"
				}
			],
			"name": "safeTransferFrom",
			"outputs": [],
			"stateMutability": "nonpayable",
			"type": "function"
		},
		{
			"inputs": [
				{
					"internalType": "address",
					"name": "from",
					"type": "address"
				},
				{
					"internalType": "address",
					"name": "to",
					"type": "address"
				},
				{
					"internalType": "uint256",
					"name": "tokenId",
					"type": "uint256"
				},
				{
					"internalType": "bytes",
					"name": "data",
					"type": "bytes"
				}
			],
			"name": "safeTransferFrom",
			"outputs": [],
			"stateMutability": "nonpayable",
			"type": "function"
		},
		{
			"inputs": [
				{
					"internalType": "address",
					"name": "operator",
					"type": "address"
				},
				{
					"internalType": "bool",
					"name": "approved",
					"type": "bool"
				}
			],
			"name": "setApprovalForAll",
			"outputs": [],
			"stateMutability": "nonpayable",
			"type": "function"
		},
		{
			"inputs": [
				{
					"internalType": "address",
					"name": "",
					"type": "address"
				}
			],
			"name": "spouses",
			"outputs": [
				{
					"internalType": "address",
					"name": "spouseAddress",
					"type": "address"
				},
				{
					"internalType": "bool",
					"name": "isEngaged",
					"type": "bool"
				},
				{
					"internalType": "bool",
					"name": "isMarried",
					"type": "bool"
				}
			],
			"stateMutability": "view",
			"type": "function"
		},
		{
			"inputs": [
				{
					"internalType": "bytes4",
					"name": "interfaceId",
					"type": "bytes4"
				}
			],
			"name": "supportsInterface",
			"outputs": [
				{
					"internalType": "bool",
					"name": "",
					"type": "bool"
				}
			],
			"stateMutability": "view",
			"type": "function"
		},
		{
			"inputs": [],
			"name": "symbol",
			"outputs": [
				{
					"internalType": "string",
					"name": "",
					"type": "string"
				}
			],
			"stateMutability": "view",
			"type": "function"
		},
		{
			"inputs": [
				{
					"internalType": "uint256",
					"name": "index",
					"type": "uint256"
				}
			],
			"name": "tokenByIndex",
			"outputs": [
				{
					"internalType": "uint256",
					"name": "",
					"type": "uint256"
				}
			],
			"stateMutability": "view",
			"type": "function"
		},
		{
			"inputs": [
				{
					"internalType": "address",
					"name": "owner",
					"type": "address"
				},
				{
					"internalType": "uint256",
					"name": "index",
					"type": "uint256"
				}
			],
			"name": "tokenOfOwnerByIndex",
			"outputs": [
				{
					"internalType": "uint256",
					"name": "",
					"type": "uint256"
				}
			],
			"stateMutability": "view",
			"type": "function"
		},
		{
			"inputs": [
				{
					"internalType": "uint256",
					"name": "tokenId",
					"type": "uint256"
				}
			],
			"name": "tokenURI",
			"outputs": [
				{
					"internalType": "string",
					"name": "",
					"type": "string"
				}
			],
			"stateMutability": "view",
			"type": "function"
		},
		{
			"inputs": [],
			"name": "totalSupply",
			"outputs": [
				{
					"internalType": "uint256",
					"name": "",
					"type": "uint256"
				}
			],
			"stateMutability": "view",
			"type": "function"
		},
		{
			"inputs": [
				{
					"internalType": "address",
					"name": "from",
					"type": "address"
				},
				{
					"internalType": "address",
					"name": "to",
					"type": "address"
				},
				{
					"internalType": "uint256",
					"name": "tokenId",
					"type": "uint256"
				}
			],
			"name": "transferFrom",
			"outputs": [],
			"stateMutability": "nonpayable",
			"type": "function"
		},
		{
			"inputs": [
				{
					"internalType": "address",
					"name": "_spouse",
					"type": "address"
				}
			],
			"name": "voteAgainstWedding",
			"outputs": [],
			"stateMutability": "nonpayable",
			"type": "function"
		},
		{
			"inputs": [],
			"name": "voteBurn",
			"outputs": [],
			"stateMutability": "nonpayable",
			"type": "function"
		}
	]
}