{
	"data": {
		"bytecode": {
			"linkReferences": {},
			"object": "608060405234801562000010575f80fd5b5060405180604001604052806012815260200171456e676167656d656e74526567697374727960701b8152506040518060400160405280600381526020016222a72960e91b815250815f908162000068919062000146565b50600162000077828262000146565b5050600a80546001600160a01b031916731ae0ea34a72d944a8c7603ffb3ec30a6669e454c179055506200020e565b634e487b7160e01b5f52604160045260245ffd5b600181811c90821680620000cf57607f821691505b602082108103620000ee57634e487b7160e01b5f52602260045260245ffd5b50919050565b601f82111562000141575f81815260208120601f850160051c810160208610156200011c5750805b601f850160051c820191505b818110156200013d5782815560010162000128565b5050505b505050565b81516001600160401b03811115620001625762000162620000a6565b6200017a81620001738454620000ba565b84620000f4565b602080601f831160018114620001b0575f8415620001985750858301515b5f19600386901b1c1916600185901b1785556200013d565b5f85815260208120601f198616915b82811015620001e057888601518255948401946001909101908401620001bf565b5085821015620001fe57878501515f19600388901b60f8161c191681555b5050505050600190811b01905550565b613bed806200021c5f395ff3fe608060405234801561000f575f80fd5b50600436106101a0575f3560e01c806370a08231116100eb578063a22cb4651161008f578063a22cb465146103bd578063a498e802146103d0578063b88d4fde146103f4578063b95afe0314610407578063bfd4447214610451578063c87b56dd14610459578063e83dc1851461046c578063e985e9c514610474575f80fd5b806370a082311461032857806385b9a11f1461033b57806390106c5e1461034357806393b16b451461035657806395d89b41146103695780639dcaf47914610371578063a1905e4e14610384578063a22690a814610397575f80fd5b80632b80fa28116101525780632b80fa281461024e5780632f745c59146102a157806342842e0e146102b45780634f6ccce7146102c75780635d00927e146102da5780635dd4e938146102ed5780636352211e1461030d5780636d955eb514610320575f80fd5b806301ffc9a7146101a457806306fdde03146101cc578063081812fc146101e1578063095ea7b3146102015780630e12f1501461021657806318160ddd1461022957806323b872dd1461023b575b5f80fd5b6101b76101b23660046131ee565b610487565b60405190151581526020015b60405180910390f35b6101d46104b1565b6040516101c39190613256565b6101f46101ef366004613268565b610540565b6040516101c3919061327f565b61021461020f3660046132ae565b610567565b005b61021461022436600461337a565b610576565b6008545b6040519081526020016101c3565b610214610249366004613403565b610cd7565b61028461025c36600461343c565b600d6020525f90815260409020600181015460039091015460ff808316926101009004169083565b6040805193151584529115156020840152908201526060016101c3565b61022d6102af3660046132ae565b610d37565b6102146102c2366004613403565b610d8c565b61022d6102d5366004613268565b610dab565b600a546101f4906001600160a01b031681565b6103006102fb36600461343c565b610dfb565b6040516101c39190613455565b6101f461031b366004613268565b610e7d565b610214610e87565b61022d61033636600461343c565b6110a3565b6102146110e8565b6102146103513660046134a1565b6112e2565b610214610364366004613268565b611628565b6101d4611670565b6101b761037f36600461350f565b61167f565b61021461039236600461343c565b61177c565b6103aa6103a536600461343c565b61198d565b6040516101c39796959493929190613594565b6102146103cb3660046135e8565b611b8a565b6103e36103de36600461343c565b611b95565b6040516101c3959493929190613621565b610214610402366004613660565b611c59565b61041a61041536600461343c565b611c70565b604080516001600160a01b03968716815295909416602086015292840191909152151560608301521515608082015260a0016101c3565b610214611eef565b6101d4610467366004613268565b611f91565b610214612002565b6101b761048236600461350f565b61238d565b5f6001600160e01b0319821663780e9d6360e01b14806104ab57506104ab826123ba565b92915050565b60605f80546104bf906136d6565b80601f01602080910402602001604051908101604052809291908181526020018280546104eb906136d6565b80156105365780601f1061050d57610100808354040283529160200191610536565b820191905f5260205f20905b81548152906001019060200180831161051957829003601f168201915b5050505050905090565b5f61054a82612409565b505f828152600460205260409020546001600160a01b03166104ab565b610572828233612441565b5050565b836001600160a01b03811633036105cf5760405162461bcd60e51b815260206004820152601860248201527721b0b73737ba1032b733b0b3b2903a379037b732b9b2b63360411b60448201526064015b60405180910390fd5b335f908152600b6020526040902060030154859060ff1615801561060e57506001600160a01b0381165f908152600b602052604090206003015460ff16155b6106725760405162461bcd60e51b815260206004820152602f60248201527f4f6e65206f7220626f7468206f66207468652073706f7573657320617265206160448201526e363932b0b23c9032b733b0b3b2b21760891b60648201526084016105c6565b6040805160a0810182523380825260208083018b81528385018d81526001606086018190525f60808701819052948552600b90935294909220835181546001600160a01b0319166001600160a01b03909116178155915190820155915190919060028201906106e19082613769565b506060828101516003909201805460809485015115156101000261ff00199415159490941661ffff1990911617929092179091556040805160a0810182526001600160a01b03808b1680835260208084018b81528486018d815260019786018890525f988601899052928852600b909152939095208251815492166001600160a01b03199092169190911781559151928201929092559151909190600282019061078b9082613769565b506060820151600391909101805460809093015161ffff1990931691151561ff00191691909117610100921515830217905560408051335f908152600b602052829020610180820190925281546001600160a01b031660e082019081526001830154938201939093526002820180549193849390929091610120850191610811906136d6565b80601f016020809104026020016040519081016040528092919081815260200182805461083d906136d6565b80156108885780601f1061085f57610100808354040283529160200191610888565b820191905f5260205f20905b81548152906001019060200180831161086b57829003601f168201915b50505091835250506003919091015460ff80821615156020808501919091526101009092041615156040928301529183526001600160a01b03808b165f908152600b8452829020825160a08101845281549092168252600181015482850152600281018054959094019491939092840191610902906136d6565b80601f016020809104026020016040519081016040528092919081815260200182805461092e906136d6565b80156109795780601f1061095057610100808354040283529160200191610979565b820191905f5260205f20905b81548152906001019060200180831161095c57829003601f168201915b50505091835250506003919091015460ff80821615156020808501919091526101009092041615156040928301529183528282018790525f838201819052606084018190526080840181905260a0909301839052338352600c8252918290208351805182546001600160a01b0319166001600160a01b039091161782559182015160018201559181015182906002820190610a149082613769565b5060608201516003909101805460809093015115156101000261ff00199215159290921661ffff199093169290921717905560208281015180516004840180546001600160a01b039092166001600160a01b031990921691909117815591810151600584015560408101519091906006840190610a919082613769565b5060608281015160039092018054608094850151151561010090810261ff0019951515861661ffff199384161717909255604087810151600888015592870151600990960180549588015160a089015160c09099015160ff1663010000000263ff0000001999151562010000029990991663ffff000019911515909402971515909516959091169490941794909417919091169290921792909217909155335f908152600c6020528181206001600160a01b03898116835292909120815481546001600160a01b031916931692909217825560018181015490830155908181600281810190610b829084018261381f565b506003918201805491909201805460ff928316151560ff19821681178355935461010090819004909316151590920261ff001990931661ffff19909216919091179190911790556004828101805491830180546001600160a01b0319166001600160a01b039093169290921782556005808501549084015590600680840190610c0d9086018261381f565b506003918201805491909201805460ff928316151560ff198083168217845594546101009081900485161515810261ff001992831661ffff199485161717909355600887810154908701556009968701805497909601805497851615159588168617815586548490048516151590930294169516949094179190911780845582546201000090819004831615150262ff000019821681178555925463010000009081900490921690910263ff0000001990921663ffff000019909116171790555050505050505050565b60405162461bcd60e51b815260206004820152602f60248201527f57656464696e67206365727469666963617465207472616e736665722061726560448201526e081b9bdd08185d5d1a1bdc9a5e9959608a1b60648201526084016105c6565b5f610d41836110a3565b8210610d6457828260405163295f44f760e21b81526004016105c69291906138e6565b506001600160a01b03919091165f908152600660209081526040808320938352929052205490565b610da683838360405180602001604052805f815250611c59565b505050565b5f610db560085490565b8210610dd8575f8260405163295f44f760e21b81526004016105c69291906138e6565b60088281548110610deb57610deb6138ff565b905f5260205f2001549050919050565b60605f610e078361244e565b6001600160a01b0381165f908152600d60209081526040918290208054835181840281018401909452808452939450919290830182828015610e7057602002820191905f5260205f20905b81546001600160a01b03168152600190910190602001808311610e52575b5050505050915050919050565b5f6104ab82612409565b335f818152600b602052604090206003015460ff161515600114610ebd5760405162461bcd60e51b81526004016105c690613913565b335f818152600c602052604090206009015460ff1615610eef5760405162461bcd60e51b81526004016105c690613941565b335f908152600c602052604080822080546001600160a01b0316835290822080546001600160a01b03191681556001810183905590918181610f34600283018261312d565b50600301805461ffff191690556004820180546001600160a01b03191681555f60058401819055610f68600685018261312d565b50600301805461ffff19169055505f600882018190556009909101805463ffffffff1916905560048201546001600160a01b03168152600c6020526040812080546001600160a01b031916815560018101829055908181610fcc600283018261312d565b50600301805461ffff191690556004820180546001600160a01b03191681555f60058401819055611000600685018261312d565b506003908101805461ffff191690555f600884018190556009909301805463ffffffff1916905583546001600160a01b039081168452600b60205260408085208301805460ff1990811690915560048701549092168552938490209091018054909116905550517f1271c287650062f685bd2f225144d7b6b046826a5a70632c8f873240d04a54c69061109690339042906138e6565b60405180910390a1505050565b5f6001600160a01b0382166110cd575f6040516322718ad960e21b81526004016105c6919061327f565b506001600160a01b03165f9081526003602052604090205490565b335f818152600b602052604090206003015460ff16151560011461111e5760405162461bcd60e51b81526004016105c690613913565b335f818152600c602052604090206009015460ff16156111505760405162461bcd60e51b81526004016105c690613941565b335f818152600b6020526040902060030154610100900460ff16156111875760405162461bcd60e51b81526004016105c690613983565b335f818152600c60205260409020805490916001600160a01b0390911690036111c05760098101805461ff0019166101001790556111e8565b60048101546001600160a01b031633036111e85760098101805462ff00001916620100001790555b6009810154610100900460ff16801561120b5750600981015462010000900460ff165b156112dc5780546001600160a01b039081165f908152600b602090815260408083206003908101805461010061ff00199182168117909255600488018054881687529584902090920180549092161790558454925481519385168452909316908201527f5c8ec7a25a142b043ee1d70b00b983786a266ced5b4e6b540ddc769276626819910160405180910390a180546112c1906001600160a01b03166112b160085490565b6112bc9060016139c0565b6126cd565b60048101546112dc906001600160a01b03166112b160085490565b50505050565b335f818152600b602052604090206003015460ff1615156001146113185760405162461bcd60e51b81526004016105c690613913565b335f818152600c60205260408082208151610180810190925280546001600160a01b031660e083019081526001820154610100840152600282018054849291849161012085019190611369906136d6565b80601f0160208091040260200160405190810160405280929190818152602001828054611395906136d6565b80156113e05780601f106113b7576101008083540402835291602001916113e0565b820191905f5260205f20905b8154815290600101906020018083116113c357829003601f168201915b50505091835250506003919091015460ff8082161515602080850191909152610100909204161515604092830152918352805160a0810182526004850180546001600160a01b0316825260058601548285015260068601805495909401949193909284019161144e906136d6565b80601f016020809104026020016040519081016040528092919081815260200182805461147a906136d6565b80156114c55780601f1061149c576101008083540402835291602001916114c5565b820191905f5260205f20905b8154815290600101906020018083116114a857829003601f168201915b50505091835250506003919091015460ff808216151560208085019190915261010092839004821615156040948501529385526008860154858501526009909501548086161515858401529081048516151560608501526201000081048516151560808501526301000000900490931660a0909201919091528251516001600160a01b039081165f908152600b909252919020549192501633148061158a5750602081810151516001600160a01b039081165f908152600b9092526040909120541633145b6115a65760405162461bcd60e51b81526004016105c6906139d3565b5f6115b03361244e565b6001600160a01b0381165f908152600d602052604090209091506115d5818888613164565b5060018101805461ffff191690556040517f402f0cdbbd3e7bdbd2c1fc4d920fa1ee7a733238220198df262284a1259d0be6906116179033908a908a90613a1c565b60405180910390a150505050505050565b335f908152600c60205260409020600901546001630100000090910460ff16116116645760405162461bcd60e51b81526004016105c690613a75565b61166d816126e6565b50565b6060600180546104bf906136d6565b6001600160a01b0382165f908152600b6020526040812060030154839060ff1615156001146116c05760405162461bcd60e51b81526004016105c690613913565b5f6116ca8561244e565b6001600160a01b0381165f908152600d6020526040902060018101549192509060ff16801561170257506001810154610100900460ff165b1561176f575f5b815460ff8216101561176d57856001600160a01b0316825f018260ff1681548110611736576117366138ff565b5f918252602090912001546001600160a01b03160361175b5760019450505050611775565b8061176581613a9d565b915050611709565b505b5f935050505b5092915050565b6001600160a01b0381165f908152600b6020526040902060030154819060ff1615156001146117bd5760405162461bcd60e51b81526004016105c690613913565b6001600160a01b0382165f908152600c6020526040902060090154829060ff16156117fa5760405162461bcd60e51b81526004016105c690613941565b6001600160a01b0383165f908152600b60205260409020600301548390610100900460ff161561183c5760405162461bcd60e51b81526004016105c690613983565b83611847813361167f565b61188b5760405162461bcd60e51b8152602060048201526015602482015274139bdd08184818dbdb999a5c9b59590819dd595cdd605a1b60448201526064016105c6565b6001600160a01b0385165f908152600d60209081526040808320338452600201909152902054859060ff16156118f35760405162461bcd60e51b815260206004820152600d60248201526c105b1c9958591e481d9bdd1959609a1b60448201526064016105c6565b6001600160a01b0386165f908152600d60209081526040808320338452600281019092528220805460ff19166001179055600381018054919261193583613abb565b9091555050604080513381526001600160a01b03891660208201527fa9862c5f43caca0b960b097a111ce8c3752d27df0e0f1f170b4a06a823e612b1910160405180910390a16119848761271e565b50505050505050565b600c60209081525f918252604091829020825160a08101845281546001600160a01b031681526001820154928101929092526002810180549193849290840191906119d7906136d6565b80601f0160208091040260200160405190810160405280929190818152602001828054611a03906136d6565b8015611a4e5780601f10611a2557610100808354040283529160200191611a4e565b820191905f5260205f20905b815481529060010190602001808311611a3157829003601f168201915b50505091835250506003919091015460ff8082161515602080850191909152610100909204161515604092830152815160a0810183526004850180546001600160a01b031682526005860154928201929092526006850180549495949193840191611ab8906136d6565b80601f0160208091040260200160405190810160405280929190818152602001828054611ae4906136d6565b8015611b2f5780601f10611b0657610100808354040283529160200191611b2f565b820191905f5260205f20905b815481529060010190602001808311611b1257829003601f168201915b50505091835250506003919091015460ff808216151560208401526101009182900481161515604090930192909252600884015460099094015492939280831692918104821691620100008204811691630100000090041687565b6105723383836128b5565b600b6020525f90815260409020805460018201546002830180546001600160a01b03909316939192611bc6906136d6565b80601f0160208091040260200160405190810160405280929190818152602001828054611bf2906136d6565b8015611c3d5780601f10611c1457610100808354040283529160200191611c3d565b820191905f5260205f20905b815481529060010190602001808311611c2057829003601f168201915b5050506003909301549192505060ff8082169161010090041685565b611c64848484610cd7565b6112dc8484848461294a565b6001600160a01b038082165f908152600c602052604080822081516101808101909252805490931660e0820190815260018401546101008301526002840180549394859485948594859485949293849291849161012085019190611cd3906136d6565b80601f0160208091040260200160405190810160405280929190818152602001828054611cff906136d6565b8015611d4a5780601f10611d2157610100808354040283529160200191611d4a565b820191905f5260205f20905b815481529060010190602001808311611d2d57829003601f168201915b50505091835250506003919091015460ff8082161515602080850191909152610100909204161515604092830152918352805160a0810182526004850180546001600160a01b03168252600586015482850152600686018054959094019491939092840191611db8906136d6565b80601f0160208091040260200160405190810160405280929190818152602001828054611de4906136d6565b8015611e2f5780601f10611e0657610100808354040283529160200191611e2f565b820191905f5260205f20905b815481529060010190602001808311611e1257829003601f168201915b50505091835250506003919091015460ff8082161515602080850191909152610100928390048216151560409485015293855260088601548585015260099095015480861615158584015290810485161515606080860191909152620100008204861615156080860152630100000090910490941660a0909301929092528351805191850151519285015185850151919094015194955090939192918015611edc57508460200151606001515b939b929a50909850965090945092505050565b335f818152600c60205260409020805490916001600160a01b039091161480611f225750600a546001600160a01b031633145b80611f39575060048101546001600160a01b031633145b611f555760405162461bcd60e51b81526004016105c690613a75565b60018160090160038282829054906101000a900460ff16611f769190613ad3565b92506101000a81548160ff021916908360ff16021790555050565b6060611f9c82612409565b505f611fb260408051602081019091525f815290565b90505f815111611fd05760405180602001604052805f815250611ffb565b80611fda84612a57565b604051602001611feb929190613aec565b6040516020818303038152906040525b9392505050565b335f818152600b602052604090206003015460ff1615156001146120385760405162461bcd60e51b81526004016105c690613913565b335f818152600c60205260408082208151610180810190925280546001600160a01b031660e083019081526001820154610100840152600282018054849291849161012085019190612089906136d6565b80601f01602080910402602001604051908101604052809291908181526020018280546120b5906136d6565b80156121005780601f106120d757610100808354040283529160200191612100565b820191905f5260205f20905b8154815290600101906020018083116120e357829003601f168201915b50505091835250506003919091015460ff8082161515602080850191909152610100909204161515604092830152918352805160a0810182526004850180546001600160a01b0316825260058601548285015260068601805495909401949193909284019161216e906136d6565b80601f016020809104026020016040519081016040528092919081815260200182805461219a906136d6565b80156121e55780601f106121bc576101008083540402835291602001916121e5565b820191905f5260205f20905b8154815290600101906020018083116121c857829003601f168201915b50505091835250506003919091015460ff808216151560208085019190915261010092839004821615156040948501529385526008860154858501526009909501548086161515858401529081048516151560608501526201000081048516151560808501526301000000900490931660a0909201919091528251516001600160a01b039081165f908152600b90925291902054919250163314806122aa5750602081810151516001600160a01b039081165f908152600b9092526040909120541633145b6122c65760405162461bcd60e51b81526004016105c6906139d3565b5f6122d03361244e565b6001600160a01b038082165f908152600d6020908152604080832033808552600c9093529220549394509092909116900361231a576001818101805460ff1916909117905561232c565b60018101805461ff0019166101001790555b600181015460ff16801561234957506001810154610100900460ff165b15612386577fffacc21903a9db21c6031d4c12c9825f13ac6469f9b894f7058a45cf1f9a3e8d3360405161237d919061327f565b60405180910390a15b5050505050565b6001600160a01b039182165f90815260056020908152604080832093909416825291909152205460ff1690565b5f6001600160e01b031982166380ac58cd60e01b14806123ea57506001600160e01b03198216635b5e139f60e01b145b806104ab57506301ffc9a760e01b6001600160e01b03198316146104ab565b5f818152600260205260408120546001600160a01b0316806104ab57604051637e27328960e01b8152600481018490526024016105c6565b610da68383836001612ae6565b6001600160a01b0381165f908152600b6020526040812060030154829060ff16151560011461248f5760405162461bcd60e51b81526004016105c690613913565b6001600160a01b038084165f908152600c602052604080822081516101808101909252805490931660e082019081526001840154610100830152600284018054939492938492918491610120850191906124e8906136d6565b80601f0160208091040260200160405190810160405280929190818152602001828054612514906136d6565b801561255f5780601f106125365761010080835404028352916020019161255f565b820191905f5260205f20905b81548152906001019060200180831161254257829003601f168201915b50505091835250506003919091015460ff8082161515602080850191909152610100909204161515604092830152918352805160a0810182526004850180546001600160a01b031682526005860154828501526006860180549590940194919390928401916125cd906136d6565b80601f01602080910402602001604051908101604052809291908181526020018280546125f9906136d6565b80156126445780601f1061261b57610100808354040283529160200191612644565b820191905f5260205f20905b81548152906001019060200180831161262757829003601f168201915b50505091835250506003919091015460ff80821615156020808501919091526101009283900482161515604094850152938552600886015493850193909352600990940154808316151591840191909152928304811615156060830152620100008304811615156080830152630100000090920490911660a09091015251519250505b50919050565b610572828260405180602001604052805f815250612be1565b5f6126f25f835f612bf7565b90506001600160a01b03811661057257604051637e27328960e01b8152600481018390526024016105c6565b6001600160a01b0381165f908152600b6020526040902060030154819060ff16151560011461275f5760405162461bcd60e51b81526004016105c690613913565b6001600160a01b0382165f908152600b60205260409020600301548290610100900460ff16156127a15760405162461bcd60e51b81526004016105c690613983565b6001600160a01b0383165f908152600d60209081526040808320600c90925282208154919290919060026127d68360016139c0565b6127e09190613b1a565b9050808460030154106119845760098301805460ff1990811660011790915583546001600160a01b039081165f908152600b60205260408082206003908101805486169055600488015484168352918190209091018054909316909255845491517fca5145a860413368885bd057fa646c0895a34d43c6f7c897fc1954cf51c330459261286e92169061327f565b60405180910390a160048301546040517fca5145a860413368885bd057fa646c0895a34d43c6f7c897fc1954cf51c3304591611617916001600160a01b039091169061327f565b6001600160a01b0382166128de5781604051630b61174360e31b81526004016105c6919061327f565b6001600160a01b038381165f81815260056020908152604080832094871680845294825291829020805460ff191686151590811790915591519182527f17307eab39ab6107e8899845ad3d59bd9653f200f220920489ca2b5937696c31910160405180910390a3505050565b6001600160a01b0383163b156112dc57604051630a85bd0160e11b81526001600160a01b0384169063150b7a029061298c903390889087908790600401613b39565b6020604051808303815f875af19250505080156129c6575060408051601f3d908101601f191682019092526129c391810190613b75565b60015b612a24573d8080156129f3576040519150601f19603f3d011682016040523d82523d5f602084013e6129f8565b606091505b5080515f03612a1c5783604051633250574960e11b81526004016105c6919061327f565b805181602001fd5b6001600160e01b03198116630a85bd0160e11b146123865783604051633250574960e11b81526004016105c6919061327f565b60605f612a6383612cca565b60010190505f816001600160401b03811115612a8157612a816132d6565b6040519080825280601f01601f191660200182016040528015612aab576020820181803683370190505b5090508181016020015b5f19016f181899199a1a9b1b9c1cb0b131b232b360811b600a86061a8153600a8504945084612ab557509392505050565b8080612afa57506001600160a01b03821615155b15612bb2575f612b0984612409565b90506001600160a01b03831615801590612b355750826001600160a01b0316816001600160a01b031614155b8015612b485750612b46818461238d565b155b15612b68578260405163a9fbf51f60e01b81526004016105c6919061327f565b8115612bb05783856001600160a01b0316826001600160a01b03167f8c5be1e5ebec7d5bd14f71427d1e84f3dd0314c0f7b2291e5b200ac8c7c3b92560405160405180910390a45b505b50505f90815260046020526040902080546001600160a01b0319166001600160a01b0392909216919091179055565b612beb8383612da1565b610da65f84848461294a565b5f80612c04858585612e02565b90506001600160a01b038116612c6057612c5b84600880545f838152600960205260408120829055600182018355919091527ff3f7a9fe364faab93b216da50a3214154f22a0a2b415b23a84c8169e8b636ee30155565b612c83565b846001600160a01b0316816001600160a01b031614612c8357612c838185612ef4565b6001600160a01b038516612c9f57612c9a84612f81565b612cc2565b846001600160a01b0316816001600160a01b031614612cc257612cc28585613028565b949350505050565b5f8072184f03e93ff9f4daa797ed6e38ed64bf6a1f0160401b8310612d085772184f03e93ff9f4daa797ed6e38ed64bf6a1f0160401b830492506040015b6d04ee2d6d415b85acef81000000008310612d34576d04ee2d6d415b85acef8100000000830492506020015b662386f26fc100008310612d5257662386f26fc10000830492506010015b6305f5e1008310612d6a576305f5e100830492506008015b6127108310612d7e57612710830492506004015b60648310612d90576064830492506002015b600a83106104ab5760010192915050565b6001600160a01b038216612dca575f604051633250574960e11b81526004016105c6919061327f565b5f612dd683835f612bf7565b90506001600160a01b03811615610da6575f6040516339e3563760e11b81526004016105c6919061327f565b5f828152600260205260408120546001600160a01b0390811690831615612e2e57612e2e818486613076565b6001600160a01b03811615612e6857612e495f855f80612ae6565b6001600160a01b0381165f90815260036020526040902080545f190190555b6001600160a01b03851615612e96576001600160a01b0385165f908152600360205260409020805460010190555b5f8481526002602052604080822080546001600160a01b0319166001600160a01b0389811691821790925591518793918516917fddf252ad1be2c89b69c2b068fc378daa952ba7f163c4a11628f55a4df523b3ef91a4949350505050565b5f612efe836110a3565b5f83815260076020526040902054909150808214612f4f576001600160a01b0384165f9081526006602090815260408083208584528252808320548484528184208190558352600790915290208190555b505f9182526007602090815260408084208490556001600160a01b039094168352600681528383209183525290812055565b6008545f90612f9290600190613b90565b5f8381526009602052604081205460088054939450909284908110612fb957612fb96138ff565b905f5260205f20015490508060088381548110612fd857612fd86138ff565b5f91825260208083209091019290925582815260099091526040808220849055858252812055600880548061300f5761300f613ba3565b600190038181905f5260205f20015f9055905550505050565b5f6001613034846110a3565b61303e9190613b90565b6001600160a01b039093165f908152600660209081526040808320868452825280832085905593825260079052919091209190915550565b6130818383836130cc565b610da6576001600160a01b0383166130af57604051637e27328960e01b8152600481018290526024016105c6565b818160405163177e802f60e01b81526004016105c69291906138e6565b5f6001600160a01b03831615801590612cc25750826001600160a01b0316846001600160a01b031614806131055750613105848461238d565b80612cc25750505f908152600460205260409020546001600160a01b03908116911614919050565b508054613139906136d6565b5f825580601f10613148575050565b601f0160209004905f5260205f209081019061166d91906131c5565b828054828255905f5260205f209081019282156131b5579160200282015b828111156131b55781546001600160a01b0319166001600160a01b03843516178255602090920191600190910190613182565b506131c19291506131c5565b5090565b5b808211156131c1575f81556001016131c6565b6001600160e01b03198116811461166d575f80fd5b5f602082840312156131fe575f80fd5b8135611ffb816131d9565b5f5b8381101561322357818101518382015260200161320b565b50505f910152565b5f8151808452613242816020860160208601613209565b601f01601f19169290920160200192915050565b602081525f611ffb602083018461322b565b5f60208284031215613278575f80fd5b5035919050565b6001600160a01b0391909116815260200190565b80356001600160a01b03811681146132a9575f80fd5b919050565b5f80604083850312156132bf575f80fd5b6132c883613293565b946020939093013593505050565b634e487b7160e01b5f52604160045260245ffd5b5f6001600160401b0380841115613303576133036132d6565b604051601f8501601f19908116603f0116810190828211818310171561332b5761332b6132d6565b81604052809350858152868686011115613343575f80fd5b858560208301375f602087830101525050509392505050565b5f82601f83011261336b575f80fd5b611ffb838335602085016132ea565b5f805f805f8060c0878903121561338f575f80fd5b86356001600160401b03808211156133a5575f80fd5b6133b18a838b0161335c565b9750602089013596506133c660408a01613293565b955060608901359150808211156133db575f80fd5b506133e889828a0161335c565b9350506080870135915060a087013590509295509295509295565b5f805f60608486031215613415575f80fd5b61341e84613293565b925061342c60208501613293565b9150604084013590509250925092565b5f6020828403121561344c575f80fd5b611ffb82613293565b602080825282518282018190525f9190848201906040850190845b818110156134955783516001600160a01b031683529284019291840191600101613470565b50909695505050505050565b5f80602083850312156134b2575f80fd5b82356001600160401b03808211156134c8575f80fd5b818501915085601f8301126134db575f80fd5b8135818111156134e9575f80fd5b8660208260051b85010111156134fd575f80fd5b60209290920196919550909350505050565b5f8060408385031215613520575f80fd5b61352983613293565b915061353760208401613293565b90509250929050565b60018060a01b038151168252602081015160208301525f604082015160a0604085015261357060a085018261322b565b90506060830151151560608501526080830151151560808501528091505092915050565b60e081525f6135a660e083018a613540565b82810360208401526135b8818a613540565b6040840198909852505093151560608501529115156080840152151560a083015260ff1660c09091015292915050565b5f80604083850312156135f9575f80fd5b61360283613293565b915060208301358015158114613616575f80fd5b809150509250929050565b60018060a01b038616815284602082015260a060408201525f61364760a083018661322b565b9315156060830152509015156080909101529392505050565b5f805f8060808587031215613673575f80fd5b61367c85613293565b935061368a60208601613293565b92506040850135915060608501356001600160401b038111156136ab575f80fd5b8501601f810187136136bb575f80fd5b6136ca878235602084016132ea565b91505092959194509250565b600181811c908216806136ea57607f821691505b6020821081036126c757634e487b7160e01b5f52602260045260245ffd5b601f821115610da6575f81815260208120601f850160051c8101602086101561372e5750805b601f850160051c820191505b8181101561374d5782815560010161373a565b505050505050565b5f19600383901b1c191660019190911b1790565b81516001600160401b03811115613782576137826132d6565b6137968161379084546136d6565b84613708565b602080601f8311600181146137c4575f84156137b25750858301515b6137bc8582613755565b86555061374d565b5f85815260208120601f198616915b828110156137f2578886015182559484019460019091019084016137d3565b508582101561380f57878501515f19600388901b60f8161c191681555b5050505050600190811b01905550565b81810361382a575050565b61383482546136d6565b6001600160401b0381111561384b5761384b6132d6565b6138598161379084546136d6565b5f601f821160018114613885575f83156138735750848201545b61387d8482613755565b855550612386565b5f85815260209020601f198416905f86815260209020845b838110156138bd578286015482556001958601959091019060200161389d565b508583101561380f579301545f1960f8600387901b161c19169092555050600190811b01905550565b6001600160a01b03929092168252602082015260400190565b634e487b7160e01b5f52603260045260245ffd5b60208082526014908201527320b2323932b9b9903737ba1032b733b0b3b2b21760611b604082015260600190565b60208082526022908201527f54686520656e676167656d656e7420697320616c7265616479207265766f6b65604082015261321760f11b606082015260800190565b6020808252600f908201526e105b1c9958591e481b585c9c9a5959608a1b604082015260600190565b634e487b7160e01b5f52601160045260245ffd5b808201808211156104ab576104ab6139ac565b60208082526029908201527f43616c6c6572206d757374206265206f6e65206f662074686520656e6761676560408201526864207061727469657360b81b606082015260800190565b6001600160a01b038481168252604060208084018290529083018490525f91859160608501845b87811015613a685783613a5586613293565b1682529382019390820190600101613a43565b5098975050505050505050565b6020808252600e908201526d139bdd08185d5d1a1bdc9a5e995960921b604082015260600190565b5f60ff821660ff8103613ab257613ab26139ac565b60010192915050565b5f60018201613acc57613acc6139ac565b5060010190565b60ff81811683821601908111156104ab576104ab6139ac565b5f8351613afd818460208801613209565b835190830190613b11818360208801613209565b01949350505050565b5f82613b3457634e487b7160e01b5f52601260045260245ffd5b500490565b6001600160a01b03858116825284166020820152604081018390526080606082018190525f90613b6b9083018461322b565b9695505050505050565b5f60208284031215613b85575f80fd5b8151611ffb816131d9565b818103818111156104ab576104ab6139ac565b634e487b7160e01b5f52603160045260245ffdfea2646970667358221220d7e04336ed70f210a1135ccd4341d2e7d3af51e758804a38723eba38176759e064736f6c63430008150033",
			"opcodes": "PUSH1 0x80 PUSH1 0x40 MSTORE CALLVALUE DUP1 ISZERO PUSH3 0x10 JUMPI PUSH0 DUP1 REVERT JUMPDEST POP PUSH1 0x40 MLOAD DUP1 PUSH1 0x40 ADD PUSH1 0x40 MSTORE DUP1 PUSH1 0x12 DUP2 MSTORE PUSH1 0x20 ADD PUSH18 0x456E676167656D656E745265676973747279 PUSH1 0x70 SHL DUP2 MSTORE POP PUSH1 0x40 MLOAD DUP1 PUSH1 0x40 ADD PUSH1 0x40 MSTORE DUP1 PUSH1 0x3 DUP2 MSTORE PUSH1 0x20 ADD PUSH3 0x22A729 PUSH1 0xE9 SHL DUP2 MSTORE POP DUP2 PUSH0 SWAP1 DUP2 PUSH3 0x68 SWAP2 SWAP1 PUSH3 0x146 JUMP JUMPDEST POP PUSH1 0x1 PUSH3 0x77 DUP3 DUP3 PUSH3 0x146 JUMP JUMPDEST POP POP PUSH1 0xA DUP1 SLOAD PUSH1 0x1 PUSH1 0x1 PUSH1 0xA0 SHL SUB NOT AND PUSH20 0x1AE0EA34A72D944A8C7603FFB3EC30A6669E454C OR SWAP1 SSTORE POP PUSH3 0x20E JUMP JUMPDEST PUSH4 0x4E487B71 PUSH1 0xE0 SHL PUSH0 MSTORE PUSH1 0x41 PUSH1 0x4 MSTORE PUSH1 0x24 PUSH0 REVERT JUMPDEST PUSH1 0x1 DUP2 DUP2 SHR SWAP1 DUP3 AND DUP1 PUSH3 0xCF JUMPI PUSH1 0x7F DUP3 AND SWAP2 POP JUMPDEST PUSH1 0x20 DUP3 LT DUP2 SUB PUSH3 0xEE JUMPI PUSH4 0x4E487B71 PUSH1 0xE0 SHL PUSH0 MSTORE PUSH1 0x22 PUSH1 0x4 MSTORE PUSH1 0x24 PUSH0 REVERT JUMPDEST POP SWAP2 SWAP1 POP JUMP JUMPDEST PUSH1 0x1F DUP3 GT ISZERO PUSH3 0x141 JUMPI PUSH0 DUP2 DUP2 MSTORE PUSH1 0x20 DUP2 KECCAK256 PUSH1 0x1F DUP6 ADD PUSH1 0x5 SHR DUP2 ADD PUSH1 0x20 DUP7 LT ISZERO PUSH3 0x11C JUMPI POP DUP1 JUMPDEST PUSH1 0x1F DUP6 ADD PUSH1 0x5 SHR DUP3 ADD SWAP2 POP JUMPDEST DUP2 DUP2 LT ISZERO PUSH3 0x13D JUMPI DUP3 DUP2 SSTORE PUSH1 0x1 ADD PUSH3 0x128 JUMP JUMPDEST POP POP POP JUMPDEST POP POP POP JUMP JUMPDEST DUP2 MLOAD PUSH1 0x1 PUSH1 0x1 PUSH1 0x40 SHL SUB DUP2 GT ISZERO PUSH3 0x162 JUMPI PUSH3 0x162 PUSH3 0xA6 JUMP JUMPDEST PUSH3 0x17A DUP2 PUSH3 0x173 DUP5 SLOAD PUSH3 0xBA JUMP JUMPDEST DUP5 PUSH3 0xF4 JUMP JUMPDEST PUSH1 0x20 DUP1 PUSH1 0x1F DUP4 GT PUSH1 0x1 DUP2 EQ PUSH3 0x1B0 JUMPI PUSH0 DUP5 ISZERO PUSH3 0x198 JUMPI POP DUP6 DUP4 ADD MLOAD JUMPDEST PUSH0 NOT PUSH1 0x3 DUP7 SWAP1 SHL SHR NOT AND PUSH1 0x1 DUP6 SWAP1 SHL OR DUP6 SSTORE PUSH3 0x13D JUMP JUMPDEST PUSH0 DUP6 DUP2 MSTORE PUSH1 0x20 DUP2 KECCAK256 PUSH1 0x1F NOT DUP7 AND SWAP2 JUMPDEST DUP3 DUP2 LT ISZERO PUSH3 0x1E0 JUMPI DUP9 DUP7 ADD MLOAD DUP3 SSTORE SWAP5 DUP5 ADD SWAP5 PUSH1 0x1 SWAP1 SWAP2 ADD SWAP1 DUP5 ADD PUSH3 0x1BF JUMP JUMPDEST POP DUP6 DUP3 LT ISZERO PUSH3 0x1FE JUMPI DUP8 DUP6 ADD MLOAD PUSH0 NOT PUSH1 0x3 DUP9 SWAP1 SHL PUSH1 0xF8 AND SHR NOT AND DUP2 SSTORE JUMPDEST POP POP POP POP POP PUSH1 0x1 SWAP1 DUP2 SHL ADD SWAP1 SSTORE POP JUMP JUMPDEST PUSH2 0x3BED DUP1 PUSH3 0x21C PUSH0 CODECOPY PUSH0 RETURN INVALID PUSH1 0x80 PUSH1 0x40 MSTORE CALLVALUE DUP1 ISZERO PUSH2 0xF JUMPI PUSH0 DUP1 REVERT JUMPDEST POP PUSH1 0x4 CALLDATASIZE LT PUSH2 0x1A0 JUMPI PUSH0 CALLDATALOAD PUSH1 0xE0 SHR DUP1 PUSH4 0x70A08231 GT PUSH2 0xEB JUMPI DUP1 PUSH4 0xA22CB465 GT PUSH2 0x8F JUMPI DUP1 PUSH4 0xA22CB465 EQ PUSH2 0x3BD JUMPI DUP1 PUSH4 0xA498E802 EQ PUSH2 0x3D0 JUMPI DUP1 PUSH4 0xB88D4FDE EQ PUSH2 0x3F4 JUMPI DUP1 PUSH4 0xB95AFE03 EQ PUSH2 0x407 JUMPI DUP1 PUSH4 0xBFD44472 EQ PUSH2 0x451 JUMPI DUP1 PUSH4 0xC87B56DD EQ PUSH2 0x459 JUMPI DUP1 PUSH4 0xE83DC185 EQ PUSH2 0x46C JUMPI DUP1 PUSH4 0xE985E9C5 EQ PUSH2 0x474 JUMPI PUSH0 DUP1 REVERT JUMPDEST DUP1 PUSH4 0x70A08231 EQ PUSH2 0x328 JUMPI DUP1 PUSH4 0x85B9A11F EQ PUSH2 0x33B JUMPI DUP1 PUSH4 0x90106C5E EQ PUSH2 0x343 JUMPI DUP1 PUSH4 0x93B16B45 EQ PUSH2 0x356 JUMPI DUP1 PUSH4 0x95D89B41 EQ PUSH2 0x369 JUMPI DUP1 PUSH4 0x9DCAF479 EQ PUSH2 0x371 JUMPI DUP1 PUSH4 0xA1905E4E EQ PUSH2 0x384 JUMPI DUP1 PUSH4 0xA22690A8 EQ PUSH2 0x397 JUMPI PUSH0 DUP1 REVERT JUMPDEST DUP1 PUSH4 0x2B80FA28 GT PUSH2 0x152 JUMPI DUP1 PUSH4 0x2B80FA28 EQ PUSH2 0x24E JUMPI DUP1 PUSH4 0x2F745C59 EQ PUSH2 0x2A1 JUMPI DUP1 PUSH4 0x42842E0E EQ PUSH2 0x2B4 JUMPI DUP1 PUSH4 0x4F6CCCE7 EQ PUSH2 0x2C7 JUMPI DUP1 PUSH4 0x5D00927E EQ PUSH2 0x2DA JUMPI DUP1 PUSH4 0x5DD4E938 EQ PUSH2 0x2ED JUMPI DUP1 PUSH4 0x6352211E EQ PUSH2 0x30D JUMPI DUP1 PUSH4 0x6D955EB5 EQ PUSH2 0x320 JUMPI PUSH0 DUP1 REVERT JUMPDEST DUP1 PUSH4 0x1FFC9A7 EQ PUSH2 0x1A4 JUMPI DUP1 PUSH4 0x6FDDE03 EQ PUSH2 0x1CC JUMPI DUP1 PUSH4 0x81812FC EQ PUSH2 0x1E1 JUMPI DUP1 PUSH4 0x95EA7B3 EQ PUSH2 0x201 JUMPI DUP1 PUSH4 0xE12F150 EQ PUSH2 0x216 JUMPI DUP1 PUSH4 0x18160DDD EQ PUSH2 0x229 JUMPI DUP1 PUSH4 0x23B872DD EQ PUSH2 0x23B JUMPI JUMPDEST PUSH0 DUP1 REVERT JUMPDEST PUSH2 0x1B7 PUSH2 0x1B2 CALLDATASIZE PUSH1 0x4 PUSH2 0x31EE JUMP JUMPDEST PUSH2 0x487 JUMP JUMPDEST PUSH1 0x40 MLOAD SWAP1 ISZERO ISZERO DUP2 MSTORE PUSH1 0x20 ADD JUMPDEST PUSH1 0x40 MLOAD DUP1 SWAP2 SUB SWAP1 RETURN JUMPDEST PUSH2 0x1D4 PUSH2 0x4B1 JUMP JUMPDEST PUSH1 0x40 MLOAD PUSH2 0x1C3 SWAP2 SWAP1 PUSH2 0x3256 JUMP JUMPDEST PUSH2 0x1F4 PUSH2 0x1EF CALLDATASIZE PUSH1 0x4 PUSH2 0x3268 JUMP JUMPDEST PUSH2 0x540 JUMP JUMPDEST PUSH1 0x40 MLOAD PUSH2 0x1C3 SWAP2 SWAP1 PUSH2 0x327F JUMP JUMPDEST PUSH2 0x214 PUSH2 0x20F CALLDATASIZE PUSH1 0x4 PUSH2 0x32AE JUMP JUMPDEST PUSH2 0x567 JUMP JUMPDEST STOP JUMPDEST PUSH2 0x214 PUSH2 0x224 CALLDATASIZE PUSH1 0x4 PUSH2 0x337A JUMP JUMPDEST PUSH2 0x576 JUMP JUMPDEST PUSH1 0x8 SLOAD JUMPDEST PUSH1 0x40 MLOAD SWAP1 DUP2 MSTORE PUSH1 0x20 ADD PUSH2 0x1C3 JUMP JUMPDEST PUSH2 0x214 PUSH2 0x249 CALLDATASIZE PUSH1 0x4 PUSH2 0x3403 JUMP JUMPDEST PUSH2 0xCD7 JUMP JUMPDEST PUSH2 0x284 PUSH2 0x25C CALLDATASIZE PUSH1 0x4 PUSH2 0x343C JUMP JUMPDEST PUSH1 0xD PUSH1 0x20 MSTORE PUSH0 SWAP1 DUP2 MSTORE PUSH1 0x40 SWAP1 KECCAK256 PUSH1 0x1 DUP2 ADD SLOAD PUSH1 0x3 SWAP1 SWAP2 ADD SLOAD PUSH1 0xFF DUP1 DUP4 AND SWAP3 PUSH2 0x100 SWAP1 DIV AND SWAP1 DUP4 JUMP JUMPDEST PUSH1 0x40 DUP1 MLOAD SWAP4 ISZERO ISZERO DUP5 MSTORE SWAP2 ISZERO ISZERO PUSH1 0x20 DUP5 ADD MSTORE SWAP1 DUP3 ADD MSTORE PUSH1 0x60 ADD PUSH2 0x1C3 JUMP JUMPDEST PUSH2 0x22D PUSH2 0x2AF CALLDATASIZE PUSH1 0x4 PUSH2 0x32AE JUMP JUMPDEST PUSH2 0xD37 JUMP JUMPDEST PUSH2 0x214 PUSH2 0x2C2 CALLDATASIZE PUSH1 0x4 PUSH2 0x3403 JUMP JUMPDEST PUSH2 0xD8C JUMP JUMPDEST PUSH2 0x22D PUSH2 0x2D5 CALLDATASIZE PUSH1 0x4 PUSH2 0x3268 JUMP JUMPDEST PUSH2 0xDAB JUMP JUMPDEST PUSH1 0xA SLOAD PUSH2 0x1F4 SWAP1 PUSH1 0x1 PUSH1 0x1 PUSH1 0xA0 SHL SUB AND DUP2 JUMP JUMPDEST PUSH2 0x300 PUSH2 0x2FB CALLDATASIZE PUSH1 0x4 PUSH2 0x343C JUMP JUMPDEST PUSH2 0xDFB JUMP JUMPDEST PUSH1 0x40 MLOAD PUSH2 0x1C3 SWAP2 SWAP1 PUSH2 0x3455 JUMP JUMPDEST PUSH2 0x1F4 PUSH2 0x31B CALLDATASIZE PUSH1 0x4 PUSH2 0x3268 JUMP JUMPDEST PUSH2 0xE7D JUMP JUMPDEST PUSH2 0x214 PUSH2 0xE87 JUMP JUMPDEST PUSH2 0x22D PUSH2 0x336 CALLDATASIZE PUSH1 0x4 PUSH2 0x343C JUMP JUMPDEST PUSH2 0x10A3 JUMP JUMPDEST PUSH2 0x214 PUSH2 0x10E8 JUMP JUMPDEST PUSH2 0x214 PUSH2 0x351 CALLDATASIZE PUSH1 0x4 PUSH2 0x34A1 JUMP JUMPDEST PUSH2 0x12E2 JUMP JUMPDEST PUSH2 0x214 PUSH2 0x364 CALLDATASIZE PUSH1 0x4 PUSH2 0x3268 JUMP JUMPDEST PUSH2 0x1628 JUMP JUMPDEST PUSH2 0x1D4 PUSH2 0x1670 JUMP JUMPDEST PUSH2 0x1B7 PUSH2 0x37F CALLDATASIZE PUSH1 0x4 PUSH2 0x350F JUMP JUMPDEST PUSH2 0x167F JUMP JUMPDEST PUSH2 0x214 PUSH2 0x392 CALLDATASIZE PUSH1 0x4 PUSH2 0x343C JUMP JUMPDEST PUSH2 0x177C JUMP JUMPDEST PUSH2 0x3AA PUSH2 0x3A5 CALLDATASIZE PUSH1 0x4 PUSH2 0x343C JUMP JUMPDEST PUSH2 0x198D JUMP JUMPDEST PUSH1 0x40 MLOAD PUSH2 0x1C3 SWAP8 SWAP7 SWAP6 SWAP5 SWAP4 SWAP3 SWAP2 SWAP1 PUSH2 0x3594 JUMP JUMPDEST PUSH2 0x214 PUSH2 0x3CB CALLDATASIZE PUSH1 0x4 PUSH2 0x35E8 JUMP JUMPDEST PUSH2 0x1B8A JUMP JUMPDEST PUSH2 0x3E3 PUSH2 0x3DE CALLDATASIZE PUSH1 0x4 PUSH2 0x343C JUMP JUMPDEST PUSH2 0x1B95 JUMP JUMPDEST PUSH1 0x40 MLOAD PUSH2 0x1C3 SWAP6 SWAP5 SWAP4 SWAP3 SWAP2 SWAP1 PUSH2 0x3621 JUMP JUMPDEST PUSH2 0x214 PUSH2 0x402 CALLDATASIZE PUSH1 0x4 PUSH2 0x3660 JUMP JUMPDEST PUSH2 0x1C59 JUMP JUMPDEST PUSH2 0x41A PUSH2 0x415 CALLDATASIZE PUSH1 0x4 PUSH2 0x343C JUMP JUMPDEST PUSH2 0x1C70 JUMP JUMPDEST PUSH1 0x40 DUP1 MLOAD PUSH1 0x1 PUSH1 0x1 PUSH1 0xA0 SHL SUB SWAP7 DUP8 AND DUP2 MSTORE SWAP6 SWAP1 SWAP5 AND PUSH1 0x20 DUP7 ADD MSTORE SWAP3 DUP5 ADD SWAP2 SWAP1 SWAP2 MSTORE ISZERO ISZERO PUSH1 0x60 DUP4 ADD MSTORE ISZERO ISZERO PUSH1 0x80 DUP3 ADD MSTORE PUSH1 0xA0 ADD PUSH2 0x1C3 JUMP JUMPDEST PUSH2 0x214 PUSH2 0x1EEF JUMP JUMPDEST PUSH2 0x1D4 PUSH2 0x467 CALLDATASIZE PUSH1 0x4 PUSH2 0x3268 JUMP JUMPDEST PUSH2 0x1F91 JUMP JUMPDEST PUSH2 0x214 PUSH2 0x2002 JUMP JUMPDEST PUSH2 0x1B7 PUSH2 0x482 CALLDATASIZE PUSH1 0x4 PUSH2 0x350F JUMP JUMPDEST PUSH2 0x238D JUMP JUMPDEST PUSH0 PUSH1 0x1 PUSH1 0x1 PUSH1 0xE0 SHL SUB NOT DUP3 AND PUSH4 0x780E9D63 PUSH1 0xE0 SHL EQ DUP1 PUSH2 0x4AB JUMPI POP PUSH2 0x4AB DUP3 PUSH2 0x23BA JUMP JUMPDEST SWAP3 SWAP2 POP POP JUMP JUMPDEST PUSH1 0x60 PUSH0 DUP1 SLOAD PUSH2 0x4BF SWAP1 PUSH2 0x36D6 JUMP JUMPDEST DUP1 PUSH1 0x1F ADD PUSH1 0x20 DUP1 SWAP2 DIV MUL PUSH1 0x20 ADD PUSH1 0x40 MLOAD SWAP1 DUP2 ADD PUSH1 0x40 MSTORE DUP1 SWAP3 SWAP2 SWAP1 DUP2 DUP2 MSTORE PUSH1 0x20 ADD DUP3 DUP1 SLOAD PUSH2 0x4EB SWAP1 PUSH2 0x36D6 JUMP JUMPDEST DUP1 ISZERO PUSH2 0x536 JUMPI DUP1 PUSH1 0x1F LT PUSH2 0x50D JUMPI PUSH2 0x100 DUP1 DUP4 SLOAD DIV MUL DUP4 MSTORE SWAP2 PUSH1 0x20 ADD SWAP2 PUSH2 0x536 JUMP JUMPDEST DUP3 ADD SWAP2 SWAP1 PUSH0 MSTORE PUSH1 0x20 PUSH0 KECCAK256 SWAP1 JUMPDEST DUP2 SLOAD DUP2 MSTORE SWAP1 PUSH1 0x1 ADD SWAP1 PUSH1 0x20 ADD DUP1 DUP4 GT PUSH2 0x519 JUMPI DUP3 SWAP1 SUB PUSH1 0x1F AND DUP3 ADD SWAP2 JUMPDEST POP POP POP POP POP SWAP1 POP SWAP1 JUMP JUMPDEST PUSH0 PUSH2 0x54A DUP3 PUSH2 0x2409 JUMP JUMPDEST POP PUSH0 DUP3 DUP2 MSTORE PUSH1 0x4 PUSH1 0x20 MSTORE PUSH1 0x40 SWAP1 KECCAK256 SLOAD PUSH1 0x1 PUSH1 0x1 PUSH1 0xA0 SHL SUB AND PUSH2 0x4AB JUMP JUMPDEST PUSH2 0x572 DUP3 DUP3 CALLER PUSH2 0x2441 JUMP JUMPDEST POP POP JUMP JUMPDEST DUP4 PUSH1 0x1 PUSH1 0x1 PUSH1 0xA0 SHL SUB DUP2 AND CALLER SUB PUSH2 0x5CF JUMPI PUSH1 0x40 MLOAD PUSH3 0x461BCD PUSH1 0xE5 SHL DUP2 MSTORE PUSH1 0x20 PUSH1 0x4 DUP3 ADD MSTORE PUSH1 0x18 PUSH1 0x24 DUP3 ADD MSTORE PUSH24 0x21B0B73737BA1032B733B0B3B2903A379037B732B9B2B633 PUSH1 0x41 SHL PUSH1 0x44 DUP3 ADD MSTORE PUSH1 0x64 ADD JUMPDEST PUSH1 0x40 MLOAD DUP1 SWAP2 SUB SWAP1 REVERT JUMPDEST CALLER PUSH0 SWAP1 DUP2 MSTORE PUSH1 0xB PUSH1 0x20 MSTORE PUSH1 0x40 SWAP1 KECCAK256 PUSH1 0x3 ADD SLOAD DUP6 SWAP1 PUSH1 0xFF AND ISZERO DUP1 ISZERO PUSH2 0x60E JUMPI POP PUSH1 0x1 PUSH1 0x1 PUSH1 0xA0 SHL SUB DUP2 AND PUSH0 SWAP1 DUP2 MSTORE PUSH1 0xB PUSH1 0x20 MSTORE PUSH1 0x40 SWAP1 KECCAK256 PUSH1 0x3 ADD SLOAD PUSH1 0xFF AND ISZERO JUMPDEST PUSH2 0x672 JUMPI PUSH1 0x40 MLOAD PUSH3 0x461BCD PUSH1 0xE5 SHL DUP2 MSTORE PUSH1 0x20 PUSH1 0x4 DUP3 ADD MSTORE PUSH1 0x2F PUSH1 0x24 DUP3 ADD MSTORE PUSH32 0x4F6E65206F7220626F7468206F66207468652073706F75736573206172652061 PUSH1 0x44 DUP3 ADD MSTORE PUSH15 0x363932B0B23C9032B733B0B3B2B217 PUSH1 0x89 SHL PUSH1 0x64 DUP3 ADD MSTORE PUSH1 0x84 ADD PUSH2 0x5C6 JUMP JUMPDEST PUSH1 0x40 DUP1 MLOAD PUSH1 0xA0 DUP2 ADD DUP3 MSTORE CALLER DUP1 DUP3 MSTORE PUSH1 0x20 DUP1 DUP4 ADD DUP12 DUP2 MSTORE DUP4 DUP6 ADD DUP14 DUP2 MSTORE PUSH1 0x1 PUSH1 0x60 DUP7 ADD DUP2 SWAP1 MSTORE PUSH0 PUSH1 0x80 DUP8 ADD DUP2 SWAP1 MSTORE SWAP5 DUP6 MSTORE PUSH1 0xB SWAP1 SWAP4 MSTORE SWAP5 SWAP1 SWAP3 KECCAK256 DUP4 MLOAD DUP2 SLOAD PUSH1 0x1 PUSH1 0x1 PUSH1 0xA0 SHL SUB NOT AND PUSH1 0x1 PUSH1 0x1 PUSH1 0xA0 SHL SUB SWAP1 SWAP2 AND OR DUP2 SSTORE SWAP2 MLOAD SWAP1 DUP3 ADD SSTORE SWAP2 MLOAD SWAP1 SWAP2 SWAP1 PUSH1 0x2 DUP3 ADD SWAP1 PUSH2 0x6E1 SWAP1 DUP3 PUSH2 0x3769 JUMP JUMPDEST POP PUSH1 0x60 DUP3 DUP2 ADD MLOAD PUSH1 0x3 SWAP1 SWAP3 ADD DUP1 SLOAD PUSH1 0x80 SWAP5 DUP6 ADD MLOAD ISZERO ISZERO PUSH2 0x100 MUL PUSH2 0xFF00 NOT SWAP5 ISZERO ISZERO SWAP5 SWAP1 SWAP5 AND PUSH2 0xFFFF NOT SWAP1 SWAP2 AND OR SWAP3 SWAP1 SWAP3 OR SWAP1 SWAP2 SSTORE PUSH1 0x40 DUP1 MLOAD PUSH1 0xA0 DUP2 ADD DUP3 MSTORE PUSH1 0x1 PUSH1 0x1 PUSH1 0xA0 SHL SUB DUP1 DUP12 AND DUP1 DUP4 MSTORE PUSH1 0x20 DUP1 DUP5 ADD DUP12 DUP2 MSTORE DUP5 DUP7 ADD DUP14 DUP2 MSTORE PUSH1 0x1 SWAP8 DUP7 ADD DUP9 SWAP1 MSTORE PUSH0 SWAP9 DUP7 ADD DUP10 SWAP1 MSTORE SWAP3 DUP9 MSTORE PUSH1 0xB SWAP1 SWAP2 MSTORE SWAP4 SWAP1 SWAP6 KECCAK256 DUP3 MLOAD DUP2 SLOAD SWAP3 AND PUSH1 0x1 PUSH1 0x1 PUSH1 0xA0 SHL SUB NOT SWAP1 SWAP3 AND SWAP2 SWAP1 SWAP2 OR DUP2 SSTORE SWAP2 MLOAD SWAP3 DUP3 ADD SWAP3 SWAP1 SWAP3 SSTORE SWAP2 MLOAD SWAP1 SWAP2 SWAP1 PUSH1 0x2 DUP3 ADD SWAP1 PUSH2 0x78B SWAP1 DUP3 PUSH2 0x3769 JUMP JUMPDEST POP PUSH1 0x60 DUP3 ADD MLOAD PUSH1 0x3 SWAP2 SWAP1 SWAP2 ADD DUP1 SLOAD PUSH1 0x80 SWAP1 SWAP4 ADD MLOAD PUSH2 0xFFFF NOT SWAP1 SWAP4 AND SWAP2 ISZERO ISZERO PUSH2 0xFF00 NOT AND SWAP2 SWAP1 SWAP2 OR PUSH2 0x100 SWAP3 ISZERO ISZERO DUP4 MUL OR SWAP1 SSTORE PUSH1 0x40 DUP1 MLOAD CALLER PUSH0 SWAP1 DUP2 MSTORE PUSH1 0xB PUSH1 0x20 MSTORE DUP3 SWAP1 KECCAK256 PUSH2 0x180 DUP3 ADD SWAP1 SWAP3 MSTORE DUP2 SLOAD PUSH1 0x1 PUSH1 0x1 PUSH1 0xA0 SHL SUB AND PUSH1 0xE0 DUP3 ADD SWAP1 DUP2 MSTORE PUSH1 0x1 DUP4 ADD SLOAD SWAP4 DUP3 ADD SWAP4 SWAP1 SWAP4 MSTORE PUSH1 0x2 DUP3 ADD DUP1 SLOAD SWAP2 SWAP4 DUP5 SWAP4 SWAP1 SWAP3 SWAP1 SWAP2 PUSH2 0x120 DUP6 ADD SWAP2 PUSH2 0x811 SWAP1 PUSH2 0x36D6 JUMP JUMPDEST DUP1 PUSH1 0x1F ADD PUSH1 0x20 DUP1 SWAP2 DIV MUL PUSH1 0x20 ADD PUSH1 0x40 MLOAD SWAP1 DUP2 ADD PUSH1 0x40 MSTORE DUP1 SWAP3 SWAP2 SWAP1 DUP2 DUP2 MSTORE PUSH1 0x20 ADD DUP3 DUP1 SLOAD PUSH2 0x83D SWAP1 PUSH2 0x36D6 JUMP JUMPDEST DUP1 ISZERO PUSH2 0x888 JUMPI DUP1 PUSH1 0x1F LT PUSH2 0x85F JUMPI PUSH2 0x100 DUP1 DUP4 SLOAD DIV MUL DUP4 MSTORE SWAP2 PUSH1 0x20 ADD SWAP2 PUSH2 0x888 JUMP JUMPDEST DUP3 ADD SWAP2 SWAP1 PUSH0 MSTORE PUSH1 0x20 PUSH0 KECCAK256 SWAP1 JUMPDEST DUP2 SLOAD DUP2 MSTORE SWAP1 PUSH1 0x1 ADD SWAP1 PUSH1 0x20 ADD DUP1 DUP4 GT PUSH2 0x86B JUMPI DUP3 SWAP1 SUB PUSH1 0x1F AND DUP3 ADD SWAP2 JUMPDEST POP POP POP SWAP2 DUP4 MSTORE POP POP PUSH1 0x3 SWAP2 SWAP1 SWAP2 ADD SLOAD PUSH1 0xFF DUP1 DUP3 AND ISZERO ISZERO PUSH1 0x20 DUP1 DUP6 ADD SWAP2 SWAP1 SWAP2 MSTORE PUSH2 0x100 SWAP1 SWAP3 DIV AND ISZERO ISZERO PUSH1 0x40 SWAP3 DUP4 ADD MSTORE SWAP2 DUP4 MSTORE PUSH1 0x1 PUSH1 0x1 PUSH1 0xA0 SHL SUB DUP1 DUP12 AND PUSH0 SWAP1 DUP2 MSTORE PUSH1 0xB DUP5 MSTORE DUP3 SWAP1 KECCAK256 DUP3 MLOAD PUSH1 0xA0 DUP2 ADD DUP5 MSTORE DUP2 SLOAD SWAP1 SWAP3 AND DUP3 MSTORE PUSH1 0x1 DUP2 ADD SLOAD DUP3 DUP6 ADD MSTORE PUSH1 0x2 DUP2 ADD DUP1 SLOAD SWAP6 SWAP1 SWAP5 ADD SWAP5 SWAP2 SWAP4 SWAP1 SWAP3 DUP5 ADD SWAP2 PUSH2 0x902 SWAP1 PUSH2 0x36D6 JUMP JUMPDEST DUP1 PUSH1 0x1F ADD PUSH1 0x20 DUP1 SWAP2 DIV MUL PUSH1 0x20 ADD PUSH1 0x40 MLOAD SWAP1 DUP2 ADD PUSH1 0x40 MSTORE DUP1 SWAP3 SWAP2 SWAP1 DUP2 DUP2 MSTORE PUSH1 0x20 ADD DUP3 DUP1 SLOAD PUSH2 0x92E SWAP1 PUSH2 0x36D6 JUMP JUMPDEST DUP1 ISZERO PUSH2 0x979 JUMPI DUP1 PUSH1 0x1F LT PUSH2 0x950 JUMPI PUSH2 0x100 DUP1 DUP4 SLOAD DIV MUL DUP4 MSTORE SWAP2 PUSH1 0x20 ADD SWAP2 PUSH2 0x979 JUMP JUMPDEST DUP3 ADD SWAP2 SWAP1 PUSH0 MSTORE PUSH1 0x20 PUSH0 KECCAK256 SWAP1 JUMPDEST DUP2 SLOAD DUP2 MSTORE SWAP1 PUSH1 0x1 ADD SWAP1 PUSH1 0x20 ADD DUP1 DUP4 GT PUSH2 0x95C JUMPI DUP3 SWAP1 SUB PUSH1 0x1F AND DUP3 ADD SWAP2 JUMPDEST POP POP POP SWAP2 DUP4 MSTORE POP POP PUSH1 0x3 SWAP2 SWAP1 SWAP2 ADD SLOAD PUSH1 0xFF DUP1 DUP3 AND ISZERO ISZERO PUSH1 0x20 DUP1 DUP6 ADD SWAP2 SWAP1 SWAP2 MSTORE PUSH2 0x100 SWAP1 SWAP3 DIV AND ISZERO ISZERO PUSH1 0x40 SWAP3 DUP4 ADD MSTORE SWAP2 DUP4 MSTORE DUP3 DUP3 ADD DUP8 SWAP1 MSTORE PUSH0 DUP4 DUP3 ADD DUP2 SWAP1 MSTORE PUSH1 0x60 DUP5 ADD DUP2 SWAP1 MSTORE PUSH1 0x80 DUP5 ADD DUP2 SWAP1 MSTORE PUSH1 0xA0 SWAP1 SWAP4 ADD DUP4 SWAP1 MSTORE CALLER DUP4 MSTORE PUSH1 0xC DUP3 MSTORE SWAP2 DUP3 SWAP1 KECCAK256 DUP4 MLOAD DUP1 MLOAD DUP3 SLOAD PUSH1 0x1 PUSH1 0x1 PUSH1 0xA0 SHL SUB NOT AND PUSH1 0x1 PUSH1 0x1 PUSH1 0xA0 SHL SUB SWAP1 SWAP2 AND OR DUP3 SSTORE SWAP2 DUP3 ADD MLOAD PUSH1 0x1 DUP3 ADD SSTORE SWAP2 DUP2 ADD MLOAD DUP3 SWAP1 PUSH1 0x2 DUP3 ADD SWAP1 PUSH2 0xA14 SWAP1 DUP3 PUSH2 0x3769 JUMP JUMPDEST POP PUSH1 0x60 DUP3 ADD MLOAD PUSH1 0x3 SWAP1 SWAP2 ADD DUP1 SLOAD PUSH1 0x80 SWAP1 SWAP4 ADD MLOAD ISZERO ISZERO PUSH2 0x100 MUL PUSH2 0xFF00 NOT SWAP3 ISZERO ISZERO SWAP3 SWAP1 SWAP3 AND PUSH2 0xFFFF NOT SWAP1 SWAP4 AND SWAP3 SWAP1 SWAP3 OR OR SWAP1 SSTORE PUSH1 0x20 DUP3 DUP2 ADD MLOAD DUP1 MLOAD PUSH1 0x4 DUP5 ADD DUP1 SLOAD PUSH1 0x1 PUSH1 0x1 PUSH1 0xA0 SHL SUB SWAP1 SWAP3 AND PUSH1 0x1 PUSH1 0x1 PUSH1 0xA0 SHL SUB NOT SWAP1 SWAP3 AND SWAP2 SWAP1 SWAP2 OR DUP2 SSTORE SWAP2 DUP2 ADD MLOAD PUSH1 0x5 DUP5 ADD SSTORE PUSH1 0x40 DUP2 ADD MLOAD SWAP1 SWAP2 SWAP1 PUSH1 0x6 DUP5 ADD SWAP1 PUSH2 0xA91 SWAP1 DUP3 PUSH2 0x3769 JUMP JUMPDEST POP PUSH1 0x60 DUP3 DUP2 ADD MLOAD PUSH1 0x3 SWAP1 SWAP3 ADD DUP1 SLOAD PUSH1 0x80 SWAP5 DUP6 ADD MLOAD ISZERO ISZERO PUSH2 0x100 SWAP1 DUP2 MUL PUSH2 0xFF00 NOT SWAP6 ISZERO ISZERO DUP7 AND PUSH2 0xFFFF NOT SWAP4 DUP5 AND OR OR SWAP1 SWAP3 SSTORE PUSH1 0x40 DUP8 DUP2 ADD MLOAD PUSH1 0x8 DUP9 ADD SSTORE SWAP3 DUP8 ADD MLOAD PUSH1 0x9 SWAP1 SWAP7 ADD DUP1 SLOAD SWAP6 DUP9 ADD MLOAD PUSH1 0xA0 DUP10 ADD MLOAD PUSH1 0xC0 SWAP1 SWAP10 ADD MLOAD PUSH1 0xFF AND PUSH4 0x1000000 MUL PUSH4 0xFF000000 NOT SWAP10 ISZERO ISZERO PUSH3 0x10000 MUL SWAP10 SWAP1 SWAP10 AND PUSH4 0xFFFF0000 NOT SWAP2 ISZERO ISZERO SWAP1 SWAP5 MUL SWAP8 ISZERO ISZERO SWAP1 SWAP6 AND SWAP6 SWAP1 SWAP2 AND SWAP5 SWAP1 SWAP5 OR SWAP5 SWAP1 SWAP5 OR SWAP2 SWAP1 SWAP2 AND SWAP3 SWAP1 SWAP3 OR SWAP3 SWAP1 SWAP3 OR SWAP1 SWAP2 SSTORE CALLER PUSH0 SWAP1 DUP2 MSTORE PUSH1 0xC PUSH1 0x20 MSTORE DUP2 DUP2 KECCAK256 PUSH1 0x1 PUSH1 0x1 PUSH1 0xA0 SHL SUB DUP10 DUP2 AND DUP4 MSTORE SWAP3 SWAP1 SWAP2 KECCAK256 DUP2 SLOAD DUP2 SLOAD PUSH1 0x1 PUSH1 0x1 PUSH1 0xA0 SHL SUB NOT AND SWAP4 AND SWAP3 SWAP1 SWAP3 OR DUP3 SSTORE PUSH1 0x1 DUP2 DUP2 ADD SLOAD SWAP1 DUP4 ADD SSTORE SWAP1 DUP2 DUP2 PUSH1 0x2 DUP2 DUP2 ADD SWAP1 PUSH2 0xB82 SWAP1 DUP5 ADD DUP3 PUSH2 0x381F JUMP JUMPDEST POP PUSH1 0x3 SWAP2 DUP3 ADD DUP1 SLOAD SWAP2 SWAP1 SWAP3 ADD DUP1 SLOAD PUSH1 0xFF SWAP3 DUP4 AND ISZERO ISZERO PUSH1 0xFF NOT DUP3 AND DUP2 OR DUP4 SSTORE SWAP4 SLOAD PUSH2 0x100 SWAP1 DUP2 SWAP1 DIV SWAP1 SWAP4 AND ISZERO ISZERO SWAP1 SWAP3 MUL PUSH2 0xFF00 NOT SWAP1 SWAP4 AND PUSH2 0xFFFF NOT SWAP1 SWAP3 AND SWAP2 SWAP1 SWAP2 OR SWAP2 SWAP1 SWAP2 OR SWAP1 SSTORE PUSH1 0x4 DUP3 DUP2 ADD DUP1 SLOAD SWAP2 DUP4 ADD DUP1 SLOAD PUSH1 0x1 PUSH1 0x1 PUSH1 0xA0 SHL SUB NOT AND PUSH1 0x1 PUSH1 0x1 PUSH1 0xA0 SHL SUB SWAP1 SWAP4 AND SWAP3 SWAP1 SWAP3 OR DUP3 SSTORE PUSH1 0x5 DUP1 DUP6 ADD SLOAD SWAP1 DUP5 ADD SSTORE SWAP1 PUSH1 0x6 DUP1 DUP5 ADD SWAP1 PUSH2 0xC0D SWAP1 DUP7 ADD DUP3 PUSH2 0x381F JUMP JUMPDEST POP PUSH1 0x3 SWAP2 DUP3 ADD DUP1 SLOAD SWAP2 SWAP1 SWAP3 ADD DUP1 SLOAD PUSH1 0xFF SWAP3 DUP4 AND ISZERO ISZERO PUSH1 0xFF NOT DUP1 DUP4 AND DUP3 OR DUP5 SSTORE SWAP5 SLOAD PUSH2 0x100 SWAP1 DUP2 SWAP1 DIV DUP6 AND ISZERO ISZERO DUP2 MUL PUSH2 0xFF00 NOT SWAP3 DUP4 AND PUSH2 0xFFFF NOT SWAP5 DUP6 AND OR OR SWAP1 SWAP4 SSTORE PUSH1 0x8 DUP8 DUP2 ADD SLOAD SWAP1 DUP8 ADD SSTORE PUSH1 0x9 SWAP7 DUP8 ADD DUP1 SLOAD SWAP8 SWAP1 SWAP7 ADD DUP1 SLOAD SWAP8 DUP6 AND ISZERO ISZERO SWAP6 DUP9 AND DUP7 OR DUP2 SSTORE DUP7 SLOAD DUP5 SWAP1 DIV DUP6 AND ISZERO ISZERO SWAP1 SWAP4 MUL SWAP5 AND SWAP6 AND SWAP5 SWAP1 SWAP5 OR SWAP2 SWAP1 SWAP2 OR DUP1 DUP5 SSTORE DUP3 SLOAD PUSH3 0x10000 SWAP1 DUP2 SWAP1 DIV DUP4 AND ISZERO ISZERO MUL PUSH3 0xFF0000 NOT DUP3 AND DUP2 OR DUP6 SSTORE SWAP3 SLOAD PUSH4 0x1000000 SWAP1 DUP2 SWAP1 DIV SWAP1 SWAP3 AND SWAP1 SWAP2 MUL PUSH4 0xFF000000 NOT SWAP1 SWAP3 AND PUSH4 0xFFFF0000 NOT SWAP1 SWAP2 AND OR OR SWAP1 SSTORE POP POP POP POP POP POP POP POP JUMP JUMPDEST PUSH1 0x40 MLOAD PUSH3 0x461BCD PUSH1 0xE5 SHL DUP2 MSTORE PUSH1 0x20 PUSH1 0x4 DUP3 ADD MSTORE PUSH1 0x2F PUSH1 0x24 DUP3 ADD MSTORE PUSH32 0x57656464696E67206365727469666963617465207472616E7366657220617265 PUSH1 0x44 DUP3 ADD MSTORE PUSH15 0x81B9BDD08185D5D1A1BDC9A5E9959 PUSH1 0x8A SHL PUSH1 0x64 DUP3 ADD MSTORE PUSH1 0x84 ADD PUSH2 0x5C6 JUMP JUMPDEST PUSH0 PUSH2 0xD41 DUP4 PUSH2 0x10A3 JUMP JUMPDEST DUP3 LT PUSH2 0xD64 JUMPI DUP3 DUP3 PUSH1 0x40 MLOAD PUSH4 0x295F44F7 PUSH1 0xE2 SHL DUP2 MSTORE PUSH1 0x4 ADD PUSH2 0x5C6 SWAP3 SWAP2 SWAP1 PUSH2 0x38E6 JUMP JUMPDEST POP PUSH1 0x1 PUSH1 0x1 PUSH1 0xA0 SHL SUB SWAP2 SWAP1 SWAP2 AND PUSH0 SWAP1 DUP2 MSTORE PUSH1 0x6 PUSH1 0x20 SWAP1 DUP2 MSTORE PUSH1 0x40 DUP1 DUP4 KECCAK256 SWAP4 DUP4 MSTORE SWAP3 SWAP1 MSTORE KECCAK256 SLOAD SWAP1 JUMP JUMPDEST PUSH2 0xDA6 DUP4 DUP4 DUP4 PUSH1 0x40 MLOAD DUP1 PUSH1 0x20 ADD PUSH1 0x40 MSTORE DUP1 PUSH0 DUP2 MSTORE POP PUSH2 0x1C59 JUMP JUMPDEST POP POP POP JUMP JUMPDEST PUSH0 PUSH2 0xDB5 PUSH1 0x8 SLOAD SWAP1 JUMP JUMPDEST DUP3 LT PUSH2 0xDD8 JUMPI PUSH0 DUP3 PUSH1 0x40 MLOAD PUSH4 0x295F44F7 PUSH1 0xE2 SHL DUP2 MSTORE PUSH1 0x4 ADD PUSH2 0x5C6 SWAP3 SWAP2 SWAP1 PUSH2 0x38E6 JUMP JUMPDEST PUSH1 0x8 DUP3 DUP2 SLOAD DUP2 LT PUSH2 0xDEB JUMPI PUSH2 0xDEB PUSH2 0x38FF JUMP JUMPDEST SWAP1 PUSH0 MSTORE PUSH1 0x20 PUSH0 KECCAK256 ADD SLOAD SWAP1 POP SWAP2 SWAP1 POP JUMP JUMPDEST PUSH1 0x60 PUSH0 PUSH2 0xE07 DUP4 PUSH2 0x244E JUMP JUMPDEST PUSH1 0x1 PUSH1 0x1 PUSH1 0xA0 SHL SUB DUP2 AND PUSH0 SWAP1 DUP2 MSTORE PUSH1 0xD PUSH1 0x20 SWAP1 DUP2 MSTORE PUSH1 0x40 SWAP2 DUP3 SWAP1 KECCAK256 DUP1 SLOAD DUP4 MLOAD DUP2 DUP5 MUL DUP2 ADD DUP5 ADD SWAP1 SWAP5 MSTORE DUP1 DUP5 MSTORE SWAP4 SWAP5 POP SWAP2 SWAP3 SWAP1 DUP4 ADD DUP3 DUP3 DUP1 ISZERO PUSH2 0xE70 JUMPI PUSH1 0x20 MUL DUP3 ADD SWAP2 SWAP1 PUSH0 MSTORE PUSH1 0x20 PUSH0 KECCAK256 SWAP1 JUMPDEST DUP2 SLOAD PUSH1 0x1 PUSH1 0x1 PUSH1 0xA0 SHL SUB AND DUP2 MSTORE PUSH1 0x1 SWAP1 SWAP2 ADD SWAP1 PUSH1 0x20 ADD DUP1 DUP4 GT PUSH2 0xE52 JUMPI JUMPDEST POP POP POP POP POP SWAP2 POP POP SWAP2 SWAP1 POP JUMP JUMPDEST PUSH0 PUSH2 0x4AB DUP3 PUSH2 0x2409 JUMP JUMPDEST CALLER PUSH0 DUP2 DUP2 MSTORE PUSH1 0xB PUSH1 0x20 MSTORE PUSH1 0x40 SWAP1 KECCAK256 PUSH1 0x3 ADD SLOAD PUSH1 0xFF AND ISZERO ISZERO PUSH1 0x1 EQ PUSH2 0xEBD JUMPI PUSH1 0x40 MLOAD PUSH3 0x461BCD PUSH1 0xE5 SHL DUP2 MSTORE PUSH1 0x4 ADD PUSH2 0x5C6 SWAP1 PUSH2 0x3913 JUMP JUMPDEST CALLER PUSH0 DUP2 DUP2 MSTORE PUSH1 0xC PUSH1 0x20 MSTORE PUSH1 0x40 SWAP1 KECCAK256 PUSH1 0x9 ADD SLOAD PUSH1 0xFF AND ISZERO PUSH2 0xEEF JUMPI PUSH1 0x40 MLOAD PUSH3 0x461BCD PUSH1 0xE5 SHL DUP2 MSTORE PUSH1 0x4 ADD PUSH2 0x5C6 SWAP1 PUSH2 0x3941 JUMP JUMPDEST CALLER PUSH0 SWAP1 DUP2 MSTORE PUSH1 0xC PUSH1 0x20 MSTORE PUSH1 0x40 DUP1 DUP3 KECCAK256 DUP1 SLOAD PUSH1 0x1 PUSH1 0x1 PUSH1 0xA0 SHL SUB AND DUP4 MSTORE SWAP1 DUP3 KECCAK256 DUP1 SLOAD PUSH1 0x1 PUSH1 0x1 PUSH1 0xA0 SHL SUB NOT AND DUP2 SSTORE PUSH1 0x1 DUP2 ADD DUP4 SWAP1 SSTORE SWAP1 SWAP2 DUP2 DUP2 PUSH2 0xF34 PUSH1 0x2 DUP4 ADD DUP3 PUSH2 0x312D JUMP JUMPDEST POP PUSH1 0x3 ADD DUP1 SLOAD PUSH2 0xFFFF NOT AND SWAP1 SSTORE PUSH1 0x4 DUP3 ADD DUP1 SLOAD PUSH1 0x1 PUSH1 0x1 PUSH1 0xA0 SHL SUB NOT AND DUP2 SSTORE PUSH0 PUSH1 0x5 DUP5 ADD DUP2 SWAP1 SSTORE PUSH2 0xF68 PUSH1 0x6 DUP6 ADD DUP3 PUSH2 0x312D JUMP JUMPDEST POP PUSH1 0x3 ADD DUP1 SLOAD PUSH2 0xFFFF NOT AND SWAP1 SSTORE POP PUSH0 PUSH1 0x8 DUP3 ADD DUP2 SWAP1 SSTORE PUSH1 0x9 SWAP1 SWAP2 ADD DUP1 SLOAD PUSH4 0xFFFFFFFF NOT AND SWAP1 SSTORE PUSH1 0x4 DUP3 ADD SLOAD PUSH1 0x1 PUSH1 0x1 PUSH1 0xA0 SHL SUB AND DUP2 MSTORE PUSH1 0xC PUSH1 0x20 MSTORE PUSH1 0x40 DUP2 KECCAK256 DUP1 SLOAD PUSH1 0x1 PUSH1 0x1 PUSH1 0xA0 SHL SUB NOT AND DUP2 SSTORE PUSH1 0x1 DUP2 ADD DUP3 SWAP1 SSTORE SWAP1 DUP2 DUP2 PUSH2 0xFCC PUSH1 0x2 DUP4 ADD DUP3 PUSH2 0x312D JUMP JUMPDEST POP PUSH1 0x3 ADD DUP1 SLOAD PUSH2 0xFFFF NOT AND SWAP1 SSTORE PUSH1 0x4 DUP3 ADD DUP1 SLOAD PUSH1 0x1 PUSH1 0x1 PUSH1 0xA0 SHL SUB NOT AND DUP2 SSTORE PUSH0 PUSH1 0x5 DUP5 ADD DUP2 SWAP1 SSTORE PUSH2 0x1000 PUSH1 0x6 DUP6 ADD DUP3 PUSH2 0x312D JUMP JUMPDEST POP PUSH1 0x3 SWAP1 DUP2 ADD DUP1 SLOAD PUSH2 0xFFFF NOT AND SWAP1 SSTORE PUSH0 PUSH1 0x8 DUP5 ADD DUP2 SWAP1 SSTORE PUSH1 0x9 SWAP1 SWAP4 ADD DUP1 SLOAD PUSH4 0xFFFFFFFF NOT AND SWAP1 SSTORE DUP4 SLOAD PUSH1 0x1 PUSH1 0x1 PUSH1 0xA0 SHL SUB SWAP1 DUP2 AND DUP5 MSTORE PUSH1 0xB PUSH1 0x20 MSTORE PUSH1 0x40 DUP1 DUP6 KECCAK256 DUP4 ADD DUP1 SLOAD PUSH1 0xFF NOT SWAP1 DUP2 AND SWAP1 SWAP2 SSTORE PUSH1 0x4 DUP8 ADD SLOAD SWAP1 SWAP3 AND DUP6 MSTORE SWAP4 DUP5 SWAP1 KECCAK256 SWAP1 SWAP2 ADD DUP1 SLOAD SWAP1 SWAP2 AND SWAP1 SSTORE POP MLOAD PUSH32 0x1271C287650062F685BD2F225144D7B6B046826A5A70632C8F873240D04A54C6 SWAP1 PUSH2 0x1096 SWAP1 CALLER SWAP1 TIMESTAMP SWAP1 PUSH2 0x38E6 JUMP JUMPDEST PUSH1 0x40 MLOAD DUP1 SWAP2 SUB SWAP1 LOG1 POP POP POP JUMP JUMPDEST PUSH0 PUSH1 0x1 PUSH1 0x1 PUSH1 0xA0 SHL SUB DUP3 AND PUSH2 0x10CD JUMPI PUSH0 PUSH1 0x40 MLOAD PUSH4 0x22718AD9 PUSH1 0xE2 SHL DUP2 MSTORE PUSH1 0x4 ADD PUSH2 0x5C6 SWAP2 SWAP1 PUSH2 0x327F JUMP JUMPDEST POP PUSH1 0x1 PUSH1 0x1 PUSH1 0xA0 SHL SUB AND PUSH0 SWAP1 DUP2 MSTORE PUSH1 0x3 PUSH1 0x20 MSTORE PUSH1 0x40 SWAP1 KECCAK256 SLOAD SWAP1 JUMP JUMPDEST CALLER PUSH0 DUP2 DUP2 MSTORE PUSH1 0xB PUSH1 0x20 MSTORE PUSH1 0x40 SWAP1 KECCAK256 PUSH1 0x3 ADD SLOAD PUSH1 0xFF AND ISZERO ISZERO PUSH1 0x1 EQ PUSH2 0x111E JUMPI PUSH1 0x40 MLOAD PUSH3 0x461BCD PUSH1 0xE5 SHL DUP2 MSTORE PUSH1 0x4 ADD PUSH2 0x5C6 SWAP1 PUSH2 0x3913 JUMP JUMPDEST CALLER PUSH0 DUP2 DUP2 MSTORE PUSH1 0xC PUSH1 0x20 MSTORE PUSH1 0x40 SWAP1 KECCAK256 PUSH1 0x9 ADD SLOAD PUSH1 0xFF AND ISZERO PUSH2 0x1150 JUMPI PUSH1 0x40 MLOAD PUSH3 0x461BCD PUSH1 0xE5 SHL DUP2 MSTORE PUSH1 0x4 ADD PUSH2 0x5C6 SWAP1 PUSH2 0x3941 JUMP JUMPDEST CALLER PUSH0 DUP2 DUP2 MSTORE PUSH1 0xB PUSH1 0x20 MSTORE PUSH1 0x40 SWAP1 KECCAK256 PUSH1 0x3 ADD SLOAD PUSH2 0x100 SWAP1 DIV PUSH1 0xFF AND ISZERO PUSH2 0x1187 JUMPI PUSH1 0x40 MLOAD PUSH3 0x461BCD PUSH1 0xE5 SHL DUP2 MSTORE PUSH1 0x4 ADD PUSH2 0x5C6 SWAP1 PUSH2 0x3983 JUMP JUMPDEST CALLER PUSH0 DUP2 DUP2 MSTORE PUSH1 0xC PUSH1 0x20 MSTORE PUSH1 0x40 SWAP1 KECCAK256 DUP1 SLOAD SWAP1 SWAP2 PUSH1 0x1 PUSH1 0x1 PUSH1 0xA0 SHL SUB SWAP1 SWAP2 AND SWAP1 SUB PUSH2 0x11C0 JUMPI PUSH1 0x9 DUP2 ADD DUP1 SLOAD PUSH2 0xFF00 NOT AND PUSH2 0x100 OR SWAP1 SSTORE PUSH2 0x11E8 JUMP JUMPDEST PUSH1 0x4 DUP2 ADD SLOAD PUSH1 0x1 PUSH1 0x1 PUSH1 0xA0 SHL SUB AND CALLER SUB PUSH2 0x11E8 JUMPI PUSH1 0x9 DUP2 ADD DUP1 SLOAD PUSH3 0xFF0000 NOT AND PUSH3 0x10000 OR SWAP1 SSTORE JUMPDEST PUSH1 0x9 DUP2 ADD SLOAD PUSH2 0x100 SWAP1 DIV PUSH1 0xFF AND DUP1 ISZERO PUSH2 0x120B JUMPI POP PUSH1 0x9 DUP2 ADD SLOAD PUSH3 0x10000 SWAP1 DIV PUSH1 0xFF AND JUMPDEST ISZERO PUSH2 0x12DC JUMPI DUP1 SLOAD PUSH1 0x1 PUSH1 0x1 PUSH1 0xA0 SHL SUB SWAP1 DUP2 AND PUSH0 SWAP1 DUP2 MSTORE PUSH1 0xB PUSH1 0x20 SWAP1 DUP2 MSTORE PUSH1 0x40 DUP1 DUP4 KECCAK256 PUSH1 0x3 SWAP1 DUP2 ADD DUP1 SLOAD PUSH2 0x100 PUSH2 0xFF00 NOT SWAP2 DUP3 AND DUP2 OR SWAP1 SWAP3 SSTORE PUSH1 0x4 DUP9 ADD DUP1 SLOAD DUP9 AND DUP8 MSTORE SWAP6 DUP5 SWAP1 KECCAK256 SWAP1 SWAP3 ADD DUP1 SLOAD SWAP1 SWAP3 AND OR SWAP1 SSTORE DUP5 SLOAD SWAP3 SLOAD DUP2 MLOAD SWAP4 DUP6 AND DUP5 MSTORE SWAP1 SWAP4 AND SWAP1 DUP3 ADD MSTORE PUSH32 0x5C8EC7A25A142B043EE1D70B00B983786A266CED5B4E6B540DDC769276626819 SWAP2 ADD PUSH1 0x40 MLOAD DUP1 SWAP2 SUB SWAP1 LOG1 DUP1 SLOAD PUSH2 0x12C1 SWAP1 PUSH1 0x1 PUSH1 0x1 PUSH1 0xA0 SHL SUB AND PUSH2 0x12B1 PUSH1 0x8 SLOAD SWAP1 JUMP JUMPDEST PUSH2 0x12BC SWAP1 PUSH1 0x1 PUSH2 0x39C0 JUMP JUMPDEST PUSH2 0x26CD JUMP JUMPDEST PUSH1 0x4 DUP2 ADD SLOAD PUSH2 0x12DC SWAP1 PUSH1 0x1 PUSH1 0x1 PUSH1 0xA0 SHL SUB AND PUSH2 0x12B1 PUSH1 0x8 SLOAD SWAP1 JUMP JUMPDEST POP POP POP POP JUMP JUMPDEST CALLER PUSH0 DUP2 DUP2 MSTORE PUSH1 0xB PUSH1 0x20 MSTORE PUSH1 0x40 SWAP1 KECCAK256 PUSH1 0x3 ADD SLOAD PUSH1 0xFF AND ISZERO ISZERO PUSH1 0x1 EQ PUSH2 0x1318 JUMPI PUSH1 0x40 MLOAD PUSH3 0x461BCD PUSH1 0xE5 SHL DUP2 MSTORE PUSH1 0x4 ADD PUSH2 0x5C6 SWAP1 PUSH2 0x3913 JUMP JUMPDEST CALLER PUSH0 DUP2 DUP2 MSTORE PUSH1 0xC PUSH1 0x20 MSTORE PUSH1 0x40 DUP1 DUP3 KECCAK256 DUP2 MLOAD PUSH2 0x180 DUP2 ADD SWAP1 SWAP3 MSTORE DUP1 SLOAD PUSH1 0x1 PUSH1 0x1 PUSH1 0xA0 SHL SUB AND PUSH1 0xE0 DUP4 ADD SWAP1 DUP2 MSTORE PUSH1 0x1 DUP3 ADD SLOAD PUSH2 0x100 DUP5 ADD MSTORE PUSH1 0x2 DUP3 ADD DUP1 SLOAD DUP5 SWAP3 SWAP2 DUP5 SWAP2 PUSH2 0x120 DUP6 ADD SWAP2 SWAP1 PUSH2 0x1369 SWAP1 PUSH2 0x36D6 JUMP JUMPDEST DUP1 PUSH1 0x1F ADD PUSH1 0x20 DUP1 SWAP2 DIV MUL PUSH1 0x20 ADD PUSH1 0x40 MLOAD SWAP1 DUP2 ADD PUSH1 0x40 MSTORE DUP1 SWAP3 SWAP2 SWAP1 DUP2 DUP2 MSTORE PUSH1 0x20 ADD DUP3 DUP1 SLOAD PUSH2 0x1395 SWAP1 PUSH2 0x36D6 JUMP JUMPDEST DUP1 ISZERO PUSH2 0x13E0 JUMPI DUP1 PUSH1 0x1F LT PUSH2 0x13B7 JUMPI PUSH2 0x100 DUP1 DUP4 SLOAD DIV MUL DUP4 MSTORE SWAP2 PUSH1 0x20 ADD SWAP2 PUSH2 0x13E0 JUMP JUMPDEST DUP3 ADD SWAP2 SWAP1 PUSH0 MSTORE PUSH1 0x20 PUSH0 KECCAK256 SWAP1 JUMPDEST DUP2 SLOAD DUP2 MSTORE SWAP1 PUSH1 0x1 ADD SWAP1 PUSH1 0x20 ADD DUP1 DUP4 GT PUSH2 0x13C3 JUMPI DUP3 SWAP1 SUB PUSH1 0x1F AND DUP3 ADD SWAP2 JUMPDEST POP POP POP SWAP2 DUP4 MSTORE POP POP PUSH1 0x3 SWAP2 SWAP1 SWAP2 ADD SLOAD PUSH1 0xFF DUP1 DUP3 AND ISZERO ISZERO PUSH1 0x20 DUP1 DUP6 ADD SWAP2 SWAP1 SWAP2 MSTORE PUSH2 0x100 SWAP1 SWAP3 DIV AND ISZERO ISZERO PUSH1 0x40 SWAP3 DUP4 ADD MSTORE SWAP2 DUP4 MSTORE DUP1 MLOAD PUSH1 0xA0 DUP2 ADD DUP3 MSTORE PUSH1 0x4 DUP6 ADD DUP1 SLOAD PUSH1 0x1 PUSH1 0x1 PUSH1 0xA0 SHL SUB AND DUP3 MSTORE PUSH1 0x5 DUP7 ADD SLOAD DUP3 DUP6 ADD MSTORE PUSH1 0x6 DUP7 ADD DUP1 SLOAD SWAP6 SWAP1 SWAP5 ADD SWAP5 SWAP2 SWAP4 SWAP1 SWAP3 DUP5 ADD SWAP2 PUSH2 0x144E SWAP1 PUSH2 0x36D6 JUMP JUMPDEST DUP1 PUSH1 0x1F ADD PUSH1 0x20 DUP1 SWAP2 DIV MUL PUSH1 0x20 ADD PUSH1 0x40 MLOAD SWAP1 DUP2 ADD PUSH1 0x40 MSTORE DUP1 SWAP3 SWAP2 SWAP1 DUP2 DUP2 MSTORE PUSH1 0x20 ADD DUP3 DUP1 SLOAD PUSH2 0x147A SWAP1 PUSH2 0x36D6 JUMP JUMPDEST DUP1 ISZERO PUSH2 0x14C5 JUMPI DUP1 PUSH1 0x1F LT PUSH2 0x149C JUMPI PUSH2 0x100 DUP1 DUP4 SLOAD DIV MUL DUP4 MSTORE SWAP2 PUSH1 0x20 ADD SWAP2 PUSH2 0x14C5 JUMP JUMPDEST DUP3 ADD SWAP2 SWAP1 PUSH0 MSTORE PUSH1 0x20 PUSH0 KECCAK256 SWAP1 JUMPDEST DUP2 SLOAD DUP2 MSTORE SWAP1 PUSH1 0x1 ADD SWAP1 PUSH1 0x20 ADD DUP1 DUP4 GT PUSH2 0x14A8 JUMPI DUP3 SWAP1 SUB PUSH1 0x1F AND DUP3 ADD SWAP2 JUMPDEST POP POP POP SWAP2 DUP4 MSTORE POP POP PUSH1 0x3 SWAP2 SWAP1 SWAP2 ADD SLOAD PUSH1 0xFF DUP1 DUP3 AND ISZERO ISZERO PUSH1 0x20 DUP1 DUP6 ADD SWAP2 SWAP1 SWAP2 MSTORE PUSH2 0x100 SWAP3 DUP4 SWAP1 DIV DUP3 AND ISZERO ISZERO PUSH1 0x40 SWAP5 DUP6 ADD MSTORE SWAP4 DUP6 MSTORE PUSH1 0x8 DUP7 ADD SLOAD DUP6 DUP6 ADD MSTORE PUSH1 0x9 SWAP1 SWAP6 ADD SLOAD DUP1 DUP7 AND ISZERO ISZERO DUP6 DUP5 ADD MSTORE SWAP1 DUP2 DIV DUP6 AND ISZERO ISZERO PUSH1 0x60 DUP6 ADD MSTORE PUSH3 0x10000 DUP2 DIV DUP6 AND ISZERO ISZERO PUSH1 0x80 DUP6 ADD MSTORE PUSH4 0x1000000 SWAP1 DIV SWAP1 SWAP4 AND PUSH1 0xA0 SWAP1 SWAP3 ADD SWAP2 SWAP1 SWAP2 MSTORE DUP3 MLOAD MLOAD PUSH1 0x1 PUSH1 0x1 PUSH1 0xA0 SHL SUB SWAP1 DUP2 AND PUSH0 SWAP1 DUP2 MSTORE PUSH1 0xB SWAP1 SWAP3 MSTORE SWAP2 SWAP1 KECCAK256 SLOAD SWAP2 SWAP3 POP AND CALLER EQ DUP1 PUSH2 0x158A JUMPI POP PUSH1 0x20 DUP2 DUP2 ADD MLOAD MLOAD PUSH1 0x1 PUSH1 0x1 PUSH1 0xA0 SHL SUB SWAP1 DUP2 AND PUSH0 SWAP1 DUP2 MSTORE PUSH1 0xB SWAP1 SWAP3 MSTORE PUSH1 0x40 SWAP1 SWAP2 KECCAK256 SLOAD AND CALLER EQ JUMPDEST PUSH2 0x15A6 JUMPI PUSH1 0x40 MLOAD PUSH3 0x461BCD PUSH1 0xE5 SHL DUP2 MSTORE PUSH1 0x4 ADD PUSH2 0x5C6 SWAP1 PUSH2 0x39D3 JUMP JUMPDEST PUSH0 PUSH2 0x15B0 CALLER PUSH2 0x244E JUMP JUMPDEST PUSH1 0x1 PUSH1 0x1 PUSH1 0xA0 SHL SUB DUP2 AND PUSH0 SWAP1 DUP2 MSTORE PUSH1 0xD PUSH1 0x20 MSTORE PUSH1 0x40 SWAP1 KECCAK256 SWAP1 SWAP2 POP PUSH2 0x15D5 DUP2 DUP9 DUP9 PUSH2 0x3164 JUMP JUMPDEST POP PUSH1 0x1 DUP2 ADD DUP1 SLOAD PUSH2 0xFFFF NOT AND SWAP1 SSTORE PUSH1 0x40 MLOAD PUSH32 0x402F0CDBBD3E7BDBD2C1FC4D920FA1EE7A733238220198DF262284A1259D0BE6 SWAP1 PUSH2 0x1617 SWAP1 CALLER SWAP1 DUP11 SWAP1 DUP11 SWAP1 PUSH2 0x3A1C JUMP JUMPDEST PUSH1 0x40 MLOAD DUP1 SWAP2 SUB SWAP1 LOG1 POP POP POP POP POP POP POP JUMP JUMPDEST CALLER PUSH0 SWAP1 DUP2 MSTORE PUSH1 0xC PUSH1 0x20 MSTORE PUSH1 0x40 SWAP1 KECCAK256 PUSH1 0x9 ADD SLOAD PUSH1 0x1 PUSH4 0x1000000 SWAP1 SWAP2 DIV PUSH1 0xFF AND GT PUSH2 0x1664 JUMPI PUSH1 0x40 MLOAD PUSH3 0x461BCD PUSH1 0xE5 SHL DUP2 MSTORE PUSH1 0x4 ADD PUSH2 0x5C6 SWAP1 PUSH2 0x3A75 JUMP JUMPDEST PUSH2 0x166D DUP2 PUSH2 0x26E6 JUMP JUMPDEST POP JUMP JUMPDEST PUSH1 0x60 PUSH1 0x1 DUP1 SLOAD PUSH2 0x4BF SWAP1 PUSH2 0x36D6 JUMP JUMPDEST PUSH1 0x1 PUSH1 0x1 PUSH1 0xA0 SHL SUB DUP3 AND PUSH0 SWAP1 DUP2 MSTORE PUSH1 0xB PUSH1 0x20 MSTORE PUSH1 0x40 DUP2 KECCAK256 PUSH1 0x3 ADD SLOAD DUP4 SWAP1 PUSH1 0xFF AND ISZERO ISZERO PUSH1 0x1 EQ PUSH2 0x16C0 JUMPI PUSH1 0x40 MLOAD PUSH3 0x461BCD PUSH1 0xE5 SHL DUP2 MSTORE PUSH1 0x4 ADD PUSH2 0x5C6 SWAP1 PUSH2 0x3913 JUMP JUMPDEST PUSH0 PUSH2 0x16CA DUP6 PUSH2 0x244E JUMP JUMPDEST PUSH1 0x1 PUSH1 0x1 PUSH1 0xA0 SHL SUB DUP2 AND PUSH0 SWAP1 DUP2 MSTORE PUSH1 0xD PUSH1 0x20 MSTORE PUSH1 0x40 SWAP1 KECCAK256 PUSH1 0x1 DUP2 ADD SLOAD SWAP2 SWAP3 POP SWAP1 PUSH1 0xFF AND DUP1 ISZERO PUSH2 0x1702 JUMPI POP PUSH1 0x1 DUP2 ADD SLOAD PUSH2 0x100 SWAP1 DIV PUSH1 0xFF AND JUMPDEST ISZERO PUSH2 0x176F JUMPI PUSH0 JUMPDEST DUP2 SLOAD PUSH1 0xFF DUP3 AND LT ISZERO PUSH2 0x176D JUMPI DUP6 PUSH1 0x1 PUSH1 0x1 PUSH1 0xA0 SHL SUB AND DUP3 PUSH0 ADD DUP3 PUSH1 0xFF AND DUP2 SLOAD DUP2 LT PUSH2 0x1736 JUMPI PUSH2 0x1736 PUSH2 0x38FF JUMP JUMPDEST PUSH0 SWAP2 DUP3 MSTORE PUSH1 0x20 SWAP1 SWAP2 KECCAK256 ADD SLOAD PUSH1 0x1 PUSH1 0x1 PUSH1 0xA0 SHL SUB AND SUB PUSH2 0x175B JUMPI PUSH1 0x1 SWAP5 POP POP POP POP PUSH2 0x1775 JUMP JUMPDEST DUP1 PUSH2 0x1765 DUP2 PUSH2 0x3A9D JUMP JUMPDEST SWAP2 POP POP PUSH2 0x1709 JUMP JUMPDEST POP JUMPDEST PUSH0 SWAP4 POP POP POP JUMPDEST POP SWAP3 SWAP2 POP POP JUMP JUMPDEST PUSH1 0x1 PUSH1 0x1 PUSH1 0xA0 SHL SUB DUP2 AND PUSH0 SWAP1 DUP2 MSTORE PUSH1 0xB PUSH1 0x20 MSTORE PUSH1 0x40 SWAP1 KECCAK256 PUSH1 0x3 ADD SLOAD DUP2 SWAP1 PUSH1 0xFF AND ISZERO ISZERO PUSH1 0x1 EQ PUSH2 0x17BD JUMPI PUSH1 0x40 MLOAD PUSH3 0x461BCD PUSH1 0xE5 SHL DUP2 MSTORE PUSH1 0x4 ADD PUSH2 0x5C6 SWAP1 PUSH2 0x3913 JUMP JUMPDEST PUSH1 0x1 PUSH1 0x1 PUSH1 0xA0 SHL SUB DUP3 AND PUSH0 SWAP1 DUP2 MSTORE PUSH1 0xC PUSH1 0x20 MSTORE PUSH1 0x40 SWAP1 KECCAK256 PUSH1 0x9 ADD SLOAD DUP3 SWAP1 PUSH1 0xFF AND ISZERO PUSH2 0x17FA JUMPI PUSH1 0x40 MLOAD PUSH3 0x461BCD PUSH1 0xE5 SHL DUP2 MSTORE PUSH1 0x4 ADD PUSH2 0x5C6 SWAP1 PUSH2 0x3941 JUMP JUMPDEST PUSH1 0x1 PUSH1 0x1 PUSH1 0xA0 SHL SUB DUP4 AND PUSH0 SWAP1 DUP2 MSTORE PUSH1 0xB PUSH1 0x20 MSTORE PUSH1 0x40 SWAP1 KECCAK256 PUSH1 0x3 ADD SLOAD DUP4 SWAP1 PUSH2 0x100 SWAP1 DIV PUSH1 0xFF AND ISZERO PUSH2 0x183C JUMPI PUSH1 0x40 MLOAD PUSH3 0x461BCD PUSH1 0xE5 SHL DUP2 MSTORE PUSH1 0x4 ADD PUSH2 0x5C6 SWAP1 PUSH2 0x3983 JUMP JUMPDEST DUP4 PUSH2 0x1847 DUP2 CALLER PUSH2 0x167F JUMP JUMPDEST PUSH2 0x188B JUMPI PUSH1 0x40 MLOAD PUSH3 0x461BCD PUSH1 0xE5 SHL DUP2 MSTORE PUSH1 0x20 PUSH1 0x4 DUP3 ADD MSTORE PUSH1 0x15 PUSH1 0x24 DUP3 ADD MSTORE PUSH21 0x139BDD08184818DBDB999A5C9B59590819DD595CDD PUSH1 0x5A SHL PUSH1 0x44 DUP3 ADD MSTORE PUSH1 0x64 ADD PUSH2 0x5C6 JUMP JUMPDEST PUSH1 0x1 PUSH1 0x1 PUSH1 0xA0 SHL SUB DUP6 AND PUSH0 SWAP1 DUP2 MSTORE PUSH1 0xD PUSH1 0x20 SWAP1 DUP2 MSTORE PUSH1 0x40 DUP1 DUP4 KECCAK256 CALLER DUP5 MSTORE PUSH1 0x2 ADD SWAP1 SWAP2 MSTORE SWAP1 KECCAK256 SLOAD DUP6 SWAP1 PUSH1 0xFF AND ISZERO PUSH2 0x18F3 JUMPI PUSH1 0x40 MLOAD PUSH3 0x461BCD PUSH1 0xE5 SHL DUP2 MSTORE PUSH1 0x20 PUSH1 0x4 DUP3 ADD MSTORE PUSH1 0xD PUSH1 0x24 DUP3 ADD MSTORE PUSH13 0x105B1C9958591E481D9BDD1959 PUSH1 0x9A SHL PUSH1 0x44 DUP3 ADD MSTORE PUSH1 0x64 ADD PUSH2 0x5C6 JUMP JUMPDEST PUSH1 0x1 PUSH1 0x1 PUSH1 0xA0 SHL SUB DUP7 AND PUSH0 SWAP1 DUP2 MSTORE PUSH1 0xD PUSH1 0x20 SWAP1 DUP2 MSTORE PUSH1 0x40 DUP1 DUP4 KECCAK256 CALLER DUP5 MSTORE PUSH1 0x2 DUP2 ADD SWAP1 SWAP3 MSTORE DUP3 KECCAK256 DUP1 SLOAD PUSH1 0xFF NOT AND PUSH1 0x1 OR SWAP1 SSTORE PUSH1 0x3 DUP2 ADD DUP1 SLOAD SWAP2 SWAP3 PUSH2 0x1935 DUP4 PUSH2 0x3ABB JUMP JUMPDEST SWAP1 SWAP2 SSTORE POP POP PUSH1 0x40 DUP1 MLOAD CALLER DUP2 MSTORE PUSH1 0x1 PUSH1 0x1 PUSH1 0xA0 SHL SUB DUP10 AND PUSH1 0x20 DUP3 ADD MSTORE PUSH32 0xA9862C5F43CACA0B960B097A111CE8C3752D27DF0E0F1F170B4A06A823E612B1 SWAP2 ADD PUSH1 0x40 MLOAD DUP1 SWAP2 SUB SWAP1 LOG1 PUSH2 0x1984 DUP8 PUSH2 0x271E JUMP JUMPDEST POP POP POP POP POP POP POP JUMP JUMPDEST PUSH1 0xC PUSH1 0x20 SWAP1 DUP2 MSTORE PUSH0 SWAP2 DUP3 MSTORE PUSH1 0x40 SWAP2 DUP3 SWAP1 KECCAK256 DUP3 MLOAD PUSH1 0xA0 DUP2 ADD DUP5 MSTORE DUP2 SLOAD PUSH1 0x1 PUSH1 0x1 PUSH1 0xA0 SHL SUB AND DUP2 MSTORE PUSH1 0x1 DUP3 ADD SLOAD SWAP3 DUP2 ADD SWAP3 SWAP1 SWAP3 MSTORE PUSH1 0x2 DUP2 ADD DUP1 SLOAD SWAP2 SWAP4 DUP5 SWAP3 SWAP1 DUP5 ADD SWAP2 SWAP1 PUSH2 0x19D7 SWAP1 PUSH2 0x36D6 JUMP JUMPDEST DUP1 PUSH1 0x1F ADD PUSH1 0x20 DUP1 SWAP2 DIV MUL PUSH1 0x20 ADD PUSH1 0x40 MLOAD SWAP1 DUP2 ADD PUSH1 0x40 MSTORE DUP1 SWAP3 SWAP2 SWAP1 DUP2 DUP2 MSTORE PUSH1 0x20 ADD DUP3 DUP1 SLOAD PUSH2 0x1A03 SWAP1 PUSH2 0x36D6 JUMP JUMPDEST DUP1 ISZERO PUSH2 0x1A4E JUMPI DUP1 PUSH1 0x1F LT PUSH2 0x1A25 JUMPI PUSH2 0x100 DUP1 DUP4 SLOAD DIV MUL DUP4 MSTORE SWAP2 PUSH1 0x20 ADD SWAP2 PUSH2 0x1A4E JUMP JUMPDEST DUP3 ADD SWAP2 SWAP1 PUSH0 MSTORE PUSH1 0x20 PUSH0 KECCAK256 SWAP1 JUMPDEST DUP2 SLOAD DUP2 MSTORE SWAP1 PUSH1 0x1 ADD SWAP1 PUSH1 0x20 ADD DUP1 DUP4 GT PUSH2 0x1A31 JUMPI DUP3 SWAP1 SUB PUSH1 0x1F AND DUP3 ADD SWAP2 JUMPDEST POP POP POP SWAP2 DUP4 MSTORE POP POP PUSH1 0x3 SWAP2 SWAP1 SWAP2 ADD SLOAD PUSH1 0xFF DUP1 DUP3 AND ISZERO ISZERO PUSH1 0x20 DUP1 DUP6 ADD SWAP2 SWAP1 SWAP2 MSTORE PUSH2 0x100 SWAP1 SWAP3 DIV AND ISZERO ISZERO PUSH1 0x40 SWAP3 DUP4 ADD MSTORE DUP2 MLOAD PUSH1 0xA0 DUP2 ADD DUP4 MSTORE PUSH1 0x4 DUP6 ADD DUP1 SLOAD PUSH1 0x1 PUSH1 0x1 PUSH1 0xA0 SHL SUB AND DUP3 MSTORE PUSH1 0x5 DUP7 ADD SLOAD SWAP3 DUP3 ADD SWAP3 SWAP1 SWAP3 MSTORE PUSH1 0x6 DUP6 ADD DUP1 SLOAD SWAP5 SWAP6 SWAP5 SWAP2 SWAP4 DUP5 ADD SWAP2 PUSH2 0x1AB8 SWAP1 PUSH2 0x36D6 JUMP JUMPDEST DUP1 PUSH1 0x1F ADD PUSH1 0x20 DUP1 SWAP2 DIV MUL PUSH1 0x20 ADD PUSH1 0x40 MLOAD SWAP1 DUP2 ADD PUSH1 0x40 MSTORE DUP1 SWAP3 SWAP2 SWAP1 DUP2 DUP2 MSTORE PUSH1 0x20 ADD DUP3 DUP1 SLOAD PUSH2 0x1AE4 SWAP1 PUSH2 0x36D6 JUMP JUMPDEST DUP1 ISZERO PUSH2 0x1B2F JUMPI DUP1 PUSH1 0x1F LT PUSH2 0x1B06 JUMPI PUSH2 0x100 DUP1 DUP4 SLOAD DIV MUL DUP4 MSTORE SWAP2 PUSH1 0x20 ADD SWAP2 PUSH2 0x1B2F JUMP JUMPDEST DUP3 ADD SWAP2 SWAP1 PUSH0 MSTORE PUSH1 0x20 PUSH0 KECCAK256 SWAP1 JUMPDEST DUP2 SLOAD DUP2 MSTORE SWAP1 PUSH1 0x1 ADD SWAP1 PUSH1 0x20 ADD DUP1 DUP4 GT PUSH2 0x1B12 JUMPI DUP3 SWAP1 SUB PUSH1 0x1F AND DUP3 ADD SWAP2 JUMPDEST POP POP POP SWAP2 DUP4 MSTORE POP POP PUSH1 0x3 SWAP2 SWAP1 SWAP2 ADD SLOAD PUSH1 0xFF DUP1 DUP3 AND ISZERO ISZERO PUSH1 0x20 DUP5 ADD MSTORE PUSH2 0x100 SWAP2 DUP3 SWAP1 DIV DUP2 AND ISZERO ISZERO PUSH1 0x40 SWAP1 SWAP4 ADD SWAP3 SWAP1 SWAP3 MSTORE PUSH1 0x8 DUP5 ADD SLOAD PUSH1 0x9 SWAP1 SWAP5 ADD SLOAD SWAP3 SWAP4 SWAP3 DUP1 DUP4 AND SWAP3 SWAP2 DUP2 DIV DUP3 AND SWAP2 PUSH3 0x10000 DUP3 DIV DUP2 AND SWAP2 PUSH4 0x1000000 SWAP1 DIV AND DUP8 JUMP JUMPDEST PUSH2 0x572 CALLER DUP4 DUP4 PUSH2 0x28B5 JUMP JUMPDEST PUSH1 0xB PUSH1 0x20 MSTORE PUSH0 SWAP1 DUP2 MSTORE PUSH1 0x40 SWAP1 KECCAK256 DUP1 SLOAD PUSH1 0x1 DUP3 ADD SLOAD PUSH1 0x2 DUP4 ADD DUP1 SLOAD PUSH1 0x1 PUSH1 0x1 PUSH1 0xA0 SHL SUB SWAP1 SWAP4 AND SWAP4 SWAP2 SWAP3 PUSH2 0x1BC6 SWAP1 PUSH2 0x36D6 JUMP JUMPDEST DUP1 PUSH1 0x1F ADD PUSH1 0x20 DUP1 SWAP2 DIV MUL PUSH1 0x20 ADD PUSH1 0x40 MLOAD SWAP1 DUP2 ADD PUSH1 0x40 MSTORE DUP1 SWAP3 SWAP2 SWAP1 DUP2 DUP2 MSTORE PUSH1 0x20 ADD DUP3 DUP1 SLOAD PUSH2 0x1BF2 SWAP1 PUSH2 0x36D6 JUMP JUMPDEST DUP1 ISZERO PUSH2 0x1C3D JUMPI DUP1 PUSH1 0x1F LT PUSH2 0x1C14 JUMPI PUSH2 0x100 DUP1 DUP4 SLOAD DIV MUL DUP4 MSTORE SWAP2 PUSH1 0x20 ADD SWAP2 PUSH2 0x1C3D JUMP JUMPDEST DUP3 ADD SWAP2 SWAP1 PUSH0 MSTORE PUSH1 0x20 PUSH0 KECCAK256 SWAP1 JUMPDEST DUP2 SLOAD DUP2 MSTORE SWAP1 PUSH1 0x1 ADD SWAP1 PUSH1 0x20 ADD DUP1 DUP4 GT PUSH2 0x1C20 JUMPI DUP3 SWAP1 SUB PUSH1 0x1F AND DUP3 ADD SWAP2 JUMPDEST POP POP POP PUSH1 0x3 SWAP1 SWAP4 ADD SLOAD SWAP2 SWAP3 POP POP PUSH1 0xFF DUP1 DUP3 AND SWAP2 PUSH2 0x100 SWAP1 DIV AND DUP6 JUMP JUMPDEST PUSH2 0x1C64 DUP5 DUP5 DUP5 PUSH2 0xCD7 JUMP JUMPDEST PUSH2 0x12DC DUP5 DUP5 DUP5 DUP5 PUSH2 0x294A JUMP JUMPDEST PUSH1 0x1 PUSH1 0x1 PUSH1 0xA0 SHL SUB DUP1 DUP3 AND PUSH0 SWAP1 DUP2 MSTORE PUSH1 0xC PUSH1 0x20 MSTORE PUSH1 0x40 DUP1 DUP3 KECCAK256 DUP2 MLOAD PUSH2 0x180 DUP2 ADD SWAP1 SWAP3 MSTORE DUP1 SLOAD SWAP1 SWAP4 AND PUSH1 0xE0 DUP3 ADD SWAP1 DUP2 MSTORE PUSH1 0x1 DUP5 ADD SLOAD PUSH2 0x100 DUP4 ADD MSTORE PUSH1 0x2 DUP5 ADD DUP1 SLOAD SWAP4 SWAP5 DUP6 SWAP5 DUP6 SWAP5 DUP6 SWAP5 DUP6 SWAP5 DUP6 SWAP5 SWAP3 SWAP4 DUP5 SWAP3 SWAP2 DUP5 SWAP2 PUSH2 0x120 DUP6 ADD SWAP2 SWAP1 PUSH2 0x1CD3 SWAP1 PUSH2 0x36D6 JUMP JUMPDEST DUP1 PUSH1 0x1F ADD PUSH1 0x20 DUP1 SWAP2 DIV MUL PUSH1 0x20 ADD PUSH1 0x40 MLOAD SWAP1 DUP2 ADD PUSH1 0x40 MSTORE DUP1 SWAP3 SWAP2 SWAP1 DUP2 DUP2 MSTORE PUSH1 0x20 ADD DUP3 DUP1 SLOAD PUSH2 0x1CFF SWAP1 PUSH2 0x36D6 JUMP JUMPDEST DUP1 ISZERO PUSH2 0x1D4A JUMPI DUP1 PUSH1 0x1F LT PUSH2 0x1D21 JUMPI PUSH2 0x100 DUP1 DUP4 SLOAD DIV MUL DUP4 MSTORE SWAP2 PUSH1 0x20 ADD SWAP2 PUSH2 0x1D4A JUMP JUMPDEST DUP3 ADD SWAP2 SWAP1 PUSH0 MSTORE PUSH1 0x20 PUSH0 KECCAK256 SWAP1 JUMPDEST DUP2 SLOAD DUP2 MSTORE SWAP1 PUSH1 0x1 ADD SWAP1 PUSH1 0x20 ADD DUP1 DUP4 GT PUSH2 0x1D2D JUMPI DUP3 SWAP1 SUB PUSH1 0x1F AND DUP3 ADD SWAP2 JUMPDEST POP POP POP SWAP2 DUP4 MSTORE POP POP PUSH1 0x3 SWAP2 SWAP1 SWAP2 ADD SLOAD PUSH1 0xFF DUP1 DUP3 AND ISZERO ISZERO PUSH1 0x20 DUP1 DUP6 ADD SWAP2 SWAP1 SWAP2 MSTORE PUSH2 0x100 SWAP1 SWAP3 DIV AND ISZERO ISZERO PUSH1 0x40 SWAP3 DUP4 ADD MSTORE SWAP2 DUP4 MSTORE DUP1 MLOAD PUSH1 0xA0 DUP2 ADD DUP3 MSTORE PUSH1 0x4 DUP6 ADD DUP1 SLOAD PUSH1 0x1 PUSH1 0x1 PUSH1 0xA0 SHL SUB AND DUP3 MSTORE PUSH1 0x5 DUP7 ADD SLOAD DUP3 DUP6 ADD MSTORE PUSH1 0x6 DUP7 ADD DUP1 SLOAD SWAP6 SWAP1 SWAP5 ADD SWAP5 SWAP2 SWAP4 SWAP1 SWAP3 DUP5 ADD SWAP2 PUSH2 0x1DB8 SWAP1 PUSH2 0x36D6 JUMP JUMPDEST DUP1 PUSH1 0x1F ADD PUSH1 0x20 DUP1 SWAP2 DIV MUL PUSH1 0x20 ADD PUSH1 0x40 MLOAD SWAP1 DUP2 ADD PUSH1 0x40 MSTORE DUP1 SWAP3 SWAP2 SWAP1 DUP2 DUP2 MSTORE PUSH1 0x20 ADD DUP3 DUP1 SLOAD PUSH2 0x1DE4 SWAP1 PUSH2 0x36D6 JUMP JUMPDEST DUP1 ISZERO PUSH2 0x1E2F JUMPI DUP1 PUSH1 0x1F LT PUSH2 0x1E06 JUMPI PUSH2 0x100 DUP1 DUP4 SLOAD DIV MUL DUP4 MSTORE SWAP2 PUSH1 0x20 ADD SWAP2 PUSH2 0x1E2F JUMP JUMPDEST DUP3 ADD SWAP2 SWAP1 PUSH0 MSTORE PUSH1 0x20 PUSH0 KECCAK256 SWAP1 JUMPDEST DUP2 SLOAD DUP2 MSTORE SWAP1 PUSH1 0x1 ADD SWAP1 PUSH1 0x20 ADD DUP1 DUP4 GT PUSH2 0x1E12 JUMPI DUP3 SWAP1 SUB PUSH1 0x1F AND DUP3 ADD SWAP2 JUMPDEST POP POP POP SWAP2 DUP4 MSTORE POP POP PUSH1 0x3 SWAP2 SWAP1 SWAP2 ADD SLOAD PUSH1 0xFF DUP1 DUP3 AND ISZERO ISZERO PUSH1 0x20 DUP1 DUP6 ADD SWAP2 SWAP1 SWAP2 MSTORE PUSH2 0x100 SWAP3 DUP4 SWAP1 DIV DUP3 AND ISZERO ISZERO PUSH1 0x40 SWAP5 DUP6 ADD MSTORE SWAP4 DUP6 MSTORE PUSH1 0x8 DUP7 ADD SLOAD DUP6 DUP6 ADD MSTORE PUSH1 0x9 SWAP1 SWAP6 ADD SLOAD DUP1 DUP7 AND ISZERO ISZERO DUP6 DUP5 ADD MSTORE SWAP1 DUP2 DIV DUP6 AND ISZERO ISZERO PUSH1 0x60 DUP1 DUP7 ADD SWAP2 SWAP1 SWAP2 MSTORE PUSH3 0x10000 DUP3 DIV DUP7 AND ISZERO ISZERO PUSH1 0x80 DUP7 ADD MSTORE PUSH4 0x1000000 SWAP1 SWAP2 DIV SWAP1 SWAP5 AND PUSH1 0xA0 SWAP1 SWAP4 ADD SWAP3 SWAP1 SWAP3 MSTORE DUP4 MLOAD DUP1 MLOAD SWAP2 DUP6 ADD MLOAD MLOAD SWAP3 DUP6 ADD MLOAD DUP6 DUP6 ADD MLOAD SWAP2 SWAP1 SWAP5 ADD MLOAD SWAP5 SWAP6 POP SWAP1 SWAP4 SWAP2 SWAP3 SWAP2 DUP1 ISZERO PUSH2 0x1EDC JUMPI POP DUP5 PUSH1 0x20 ADD MLOAD PUSH1 0x60 ADD MLOAD JUMPDEST SWAP4 SWAP12 SWAP3 SWAP11 POP SWAP1 SWAP9 POP SWAP7 POP SWAP1 SWAP5 POP SWAP3 POP POP POP JUMP JUMPDEST CALLER PUSH0 DUP2 DUP2 MSTORE PUSH1 0xC PUSH1 0x20 MSTORE PUSH1 0x40 SWAP1 KECCAK256 DUP1 SLOAD SWAP1 SWAP2 PUSH1 0x1 PUSH1 0x1 PUSH1 0xA0 SHL SUB SWAP1 SWAP2 AND EQ DUP1 PUSH2 0x1F22 JUMPI POP PUSH1 0xA SLOAD PUSH1 0x1 PUSH1 0x1 PUSH1 0xA0 SHL SUB AND CALLER EQ JUMPDEST DUP1 PUSH2 0x1F39 JUMPI POP PUSH1 0x4 DUP2 ADD SLOAD PUSH1 0x1 PUSH1 0x1 PUSH1 0xA0 SHL SUB AND CALLER EQ JUMPDEST PUSH2 0x1F55 JUMPI PUSH1 0x40 MLOAD PUSH3 0x461BCD PUSH1 0xE5 SHL DUP2 MSTORE PUSH1 0x4 ADD PUSH2 0x5C6 SWAP1 PUSH2 0x3A75 JUMP JUMPDEST PUSH1 0x1 DUP2 PUSH1 0x9 ADD PUSH1 0x3 DUP3 DUP3 DUP3 SWAP1 SLOAD SWAP1 PUSH2 0x100 EXP SWAP1 DIV PUSH1 0xFF AND PUSH2 0x1F76 SWAP2 SWAP1 PUSH2 0x3AD3 JUMP JUMPDEST SWAP3 POP PUSH2 0x100 EXP DUP2 SLOAD DUP2 PUSH1 0xFF MUL NOT AND SWAP1 DUP4 PUSH1 0xFF AND MUL OR SWAP1 SSTORE POP POP JUMP JUMPDEST PUSH1 0x60 PUSH2 0x1F9C DUP3 PUSH2 0x2409 JUMP JUMPDEST POP PUSH0 PUSH2 0x1FB2 PUSH1 0x40 DUP1 MLOAD PUSH1 0x20 DUP2 ADD SWAP1 SWAP2 MSTORE PUSH0 DUP2 MSTORE SWAP1 JUMP JUMPDEST SWAP1 POP PUSH0 DUP2 MLOAD GT PUSH2 0x1FD0 JUMPI PUSH1 0x40 MLOAD DUP1 PUSH1 0x20 ADD PUSH1 0x40 MSTORE DUP1 PUSH0 DUP2 MSTORE POP PUSH2 0x1FFB JUMP JUMPDEST DUP1 PUSH2 0x1FDA DUP5 PUSH2 0x2A57 JUMP JUMPDEST PUSH1 0x40 MLOAD PUSH1 0x20 ADD PUSH2 0x1FEB SWAP3 SWAP2 SWAP1 PUSH2 0x3AEC JUMP JUMPDEST PUSH1 0x40 MLOAD PUSH1 0x20 DUP2 DUP4 SUB SUB DUP2 MSTORE SWAP1 PUSH1 0x40 MSTORE JUMPDEST SWAP4 SWAP3 POP POP POP JUMP JUMPDEST CALLER PUSH0 DUP2 DUP2 MSTORE PUSH1 0xB PUSH1 0x20 MSTORE PUSH1 0x40 SWAP1 KECCAK256 PUSH1 0x3 ADD SLOAD PUSH1 0xFF AND ISZERO ISZERO PUSH1 0x1 EQ PUSH2 0x2038 JUMPI PUSH1 0x40 MLOAD PUSH3 0x461BCD PUSH1 0xE5 SHL DUP2 MSTORE PUSH1 0x4 ADD PUSH2 0x5C6 SWAP1 PUSH2 0x3913 JUMP JUMPDEST CALLER PUSH0 DUP2 DUP2 MSTORE PUSH1 0xC PUSH1 0x20 MSTORE PUSH1 0x40 DUP1 DUP3 KECCAK256 DUP2 MLOAD PUSH2 0x180 DUP2 ADD SWAP1 SWAP3 MSTORE DUP1 SLOAD PUSH1 0x1 PUSH1 0x1 PUSH1 0xA0 SHL SUB AND PUSH1 0xE0 DUP4 ADD SWAP1 DUP2 MSTORE PUSH1 0x1 DUP3 ADD SLOAD PUSH2 0x100 DUP5 ADD MSTORE PUSH1 0x2 DUP3 ADD DUP1 SLOAD DUP5 SWAP3 SWAP2 DUP5 SWAP2 PUSH2 0x120 DUP6 ADD SWAP2 SWAP1 PUSH2 0x2089 SWAP1 PUSH2 0x36D6 JUMP JUMPDEST DUP1 PUSH1 0x1F ADD PUSH1 0x20 DUP1 SWAP2 DIV MUL PUSH1 0x20 ADD PUSH1 0x40 MLOAD SWAP1 DUP2 ADD PUSH1 0x40 MSTORE DUP1 SWAP3 SWAP2 SWAP1 DUP2 DUP2 MSTORE PUSH1 0x20 ADD DUP3 DUP1 SLOAD PUSH2 0x20B5 SWAP1 PUSH2 0x36D6 JUMP JUMPDEST DUP1 ISZERO PUSH2 0x2100 JUMPI DUP1 PUSH1 0x1F LT PUSH2 0x20D7 JUMPI PUSH2 0x100 DUP1 DUP4 SLOAD DIV MUL DUP4 MSTORE SWAP2 PUSH1 0x20 ADD SWAP2 PUSH2 0x2100 JUMP JUMPDEST DUP3 ADD SWAP2 SWAP1 PUSH0 MSTORE PUSH1 0x20 PUSH0 KECCAK256 SWAP1 JUMPDEST DUP2 SLOAD DUP2 MSTORE SWAP1 PUSH1 0x1 ADD SWAP1 PUSH1 0x20 ADD DUP1 DUP4 GT PUSH2 0x20E3 JUMPI DUP3 SWAP1 SUB PUSH1 0x1F AND DUP3 ADD SWAP2 JUMPDEST POP POP POP SWAP2 DUP4 MSTORE POP POP PUSH1 0x3 SWAP2 SWAP1 SWAP2 ADD SLOAD PUSH1 0xFF DUP1 DUP3 AND ISZERO ISZERO PUSH1 0x20 DUP1 DUP6 ADD SWAP2 SWAP1 SWAP2 MSTORE PUSH2 0x100 SWAP1 SWAP3 DIV AND ISZERO ISZERO PUSH1 0x40 SWAP3 DUP4 ADD MSTORE SWAP2 DUP4 MSTORE DUP1 MLOAD PUSH1 0xA0 DUP2 ADD DUP3 MSTORE PUSH1 0x4 DUP6 ADD DUP1 SLOAD PUSH1 0x1 PUSH1 0x1 PUSH1 0xA0 SHL SUB AND DUP3 MSTORE PUSH1 0x5 DUP7 ADD SLOAD DUP3 DUP6 ADD MSTORE PUSH1 0x6 DUP7 ADD DUP1 SLOAD SWAP6 SWAP1 SWAP5 ADD SWAP5 SWAP2 SWAP4 SWAP1 SWAP3 DUP5 ADD SWAP2 PUSH2 0x216E SWAP1 PUSH2 0x36D6 JUMP JUMPDEST DUP1 PUSH1 0x1F ADD PUSH1 0x20 DUP1 SWAP2 DIV MUL PUSH1 0x20 ADD PUSH1 0x40 MLOAD SWAP1 DUP2 ADD PUSH1 0x40 MSTORE DUP1 SWAP3 SWAP2 SWAP1 DUP2 DUP2 MSTORE PUSH1 0x20 ADD DUP3 DUP1 SLOAD PUSH2 0x219A SWAP1 PUSH2 0x36D6 JUMP JUMPDEST DUP1 ISZERO PUSH2 0x21E5 JUMPI DUP1 PUSH1 0x1F LT PUSH2 0x21BC JUMPI PUSH2 0x100 DUP1 DUP4 SLOAD DIV MUL DUP4 MSTORE SWAP2 PUSH1 0x20 ADD SWAP2 PUSH2 0x21E5 JUMP JUMPDEST DUP3 ADD SWAP2 SWAP1 PUSH0 MSTORE PUSH1 0x20 PUSH0 KECCAK256 SWAP1 JUMPDEST DUP2 SLOAD DUP2 MSTORE SWAP1 PUSH1 0x1 ADD SWAP1 PUSH1 0x20 ADD DUP1 DUP4 GT PUSH2 0x21C8 JUMPI DUP3 SWAP1 SUB PUSH1 0x1F AND DUP3 ADD SWAP2 JUMPDEST POP POP POP SWAP2 DUP4 MSTORE POP POP PUSH1 0x3 SWAP2 SWAP1 SWAP2 ADD SLOAD PUSH1 0xFF DUP1 DUP3 AND ISZERO ISZERO PUSH1 0x20 DUP1 DUP6 ADD SWAP2 SWAP1 SWAP2 MSTORE PUSH2 0x100 SWAP3 DUP4 SWAP1 DIV DUP3 AND ISZERO ISZERO PUSH1 0x40 SWAP5 DUP6 ADD MSTORE SWAP4 DUP6 MSTORE PUSH1 0x8 DUP7 ADD SLOAD DUP6 DUP6 ADD MSTORE PUSH1 0x9 SWAP1 SWAP6 ADD SLOAD DUP1 DUP7 AND ISZERO ISZERO DUP6 DUP5 ADD MSTORE SWAP1 DUP2 DIV DUP6 AND ISZERO ISZERO PUSH1 0x60 DUP6 ADD MSTORE PUSH3 0x10000 DUP2 DIV DUP6 AND ISZERO ISZERO PUSH1 0x80 DUP6 ADD MSTORE PUSH4 0x1000000 SWAP1 DIV SWAP1 SWAP4 AND PUSH1 0xA0 SWAP1 SWAP3 ADD SWAP2 SWAP1 SWAP2 MSTORE DUP3 MLOAD MLOAD PUSH1 0x1 PUSH1 0x1 PUSH1 0xA0 SHL SUB SWAP1 DUP2 AND PUSH0 SWAP1 DUP2 MSTORE PUSH1 0xB SWAP1 SWAP3 MSTORE SWAP2 SWAP1 KECCAK256 SLOAD SWAP2 SWAP3 POP AND CALLER EQ DUP1 PUSH2 0x22AA JUMPI POP PUSH1 0x20 DUP2 DUP2 ADD MLOAD MLOAD PUSH1 0x1 PUSH1 0x1 PUSH1 0xA0 SHL SUB SWAP1 DUP2 AND PUSH0 SWAP1 DUP2 MSTORE PUSH1 0xB SWAP1 SWAP3 MSTORE PUSH1 0x40 SWAP1 SWAP2 KECCAK256 SLOAD AND CALLER EQ JUMPDEST PUSH2 0x22C6 JUMPI PUSH1 0x40 MLOAD PUSH3 0x461BCD PUSH1 0xE5 SHL DUP2 MSTORE PUSH1 0x4 ADD PUSH2 0x5C6 SWAP1 PUSH2 0x39D3 JUMP JUMPDEST PUSH0 PUSH2 0x22D0 CALLER PUSH2 0x244E JUMP JUMPDEST PUSH1 0x1 PUSH1 0x1 PUSH1 0xA0 SHL SUB DUP1 DUP3 AND PUSH0 SWAP1 DUP2 MSTORE PUSH1 0xD PUSH1 0x20 SWAP1 DUP2 MSTORE PUSH1 0x40 DUP1 DUP4 KECCAK256 CALLER DUP1 DUP6 MSTORE PUSH1 0xC SWAP1 SWAP4 MSTORE SWAP3 KECCAK256 SLOAD SWAP4 SWAP5 POP SWAP1 SWAP3 SWAP1 SWAP2 AND SWAP1 SUB PUSH2 0x231A JUMPI PUSH1 0x1 DUP2 DUP2 ADD DUP1 SLOAD PUSH1 0xFF NOT AND SWAP1 SWAP2 OR SWAP1 SSTORE PUSH2 0x232C JUMP JUMPDEST PUSH1 0x1 DUP2 ADD DUP1 SLOAD PUSH2 0xFF00 NOT AND PUSH2 0x100 OR SWAP1 SSTORE JUMPDEST PUSH1 0x1 DUP2 ADD SLOAD PUSH1 0xFF AND DUP1 ISZERO PUSH2 0x2349 JUMPI POP PUSH1 0x1 DUP2 ADD SLOAD PUSH2 0x100 SWAP1 DIV PUSH1 0xFF AND JUMPDEST ISZERO PUSH2 0x2386 JUMPI PUSH32 0xFFACC21903A9DB21C6031D4C12C9825F13AC6469F9B894F7058A45CF1F9A3E8D CALLER PUSH1 0x40 MLOAD PUSH2 0x237D SWAP2 SWAP1 PUSH2 0x327F JUMP JUMPDEST PUSH1 0x40 MLOAD DUP1 SWAP2 SUB SWAP1 LOG1 JUMPDEST POP POP POP POP POP JUMP JUMPDEST PUSH1 0x1 PUSH1 0x1 PUSH1 0xA0 SHL SUB SWAP2 DUP3 AND PUSH0 SWAP1 DUP2 MSTORE PUSH1 0x5 PUSH1 0x20 SWAP1 DUP2 MSTORE PUSH1 0x40 DUP1 DUP4 KECCAK256 SWAP4 SWAP1 SWAP5 AND DUP3 MSTORE SWAP2 SWAP1 SWAP2 MSTORE KECCAK256 SLOAD PUSH1 0xFF AND SWAP1 JUMP JUMPDEST PUSH0 PUSH1 0x1 PUSH1 0x1 PUSH1 0xE0 SHL SUB NOT DUP3 AND PUSH4 0x80AC58CD PUSH1 0xE0 SHL EQ DUP1 PUSH2 0x23EA JUMPI POP PUSH1 0x1 PUSH1 0x1 PUSH1 0xE0 SHL SUB NOT DUP3 AND PUSH4 0x5B5E139F PUSH1 0xE0 SHL EQ JUMPDEST DUP1 PUSH2 0x4AB JUMPI POP PUSH4 0x1FFC9A7 PUSH1 0xE0 SHL PUSH1 0x1 PUSH1 0x1 PUSH1 0xE0 SHL SUB NOT DUP4 AND EQ PUSH2 0x4AB JUMP JUMPDEST PUSH0 DUP2 DUP2 MSTORE PUSH1 0x2 PUSH1 0x20 MSTORE PUSH1 0x40 DUP2 KECCAK256 SLOAD PUSH1 0x1 PUSH1 0x1 PUSH1 0xA0 SHL SUB AND DUP1 PUSH2 0x4AB JUMPI PUSH1 0x40 MLOAD PUSH4 0x7E273289 PUSH1 0xE0 SHL DUP2 MSTORE PUSH1 0x4 DUP2 ADD DUP5 SWAP1 MSTORE PUSH1 0x24 ADD PUSH2 0x5C6 JUMP JUMPDEST PUSH2 0xDA6 DUP4 DUP4 DUP4 PUSH1 0x1 PUSH2 0x2AE6 JUMP JUMPDEST PUSH1 0x1 PUSH1 0x1 PUSH1 0xA0 SHL SUB DUP2 AND PUSH0 SWAP1 DUP2 MSTORE PUSH1 0xB PUSH1 0x20 MSTORE PUSH1 0x40 DUP2 KECCAK256 PUSH1 0x3 ADD SLOAD DUP3 SWAP1 PUSH1 0xFF AND ISZERO ISZERO PUSH1 0x1 EQ PUSH2 0x248F JUMPI PUSH1 0x40 MLOAD PUSH3 0x461BCD PUSH1 0xE5 SHL DUP2 MSTORE PUSH1 0x4 ADD PUSH2 0x5C6 SWAP1 PUSH2 0x3913 JUMP JUMPDEST PUSH1 0x1 PUSH1 0x1 PUSH1 0xA0 SHL SUB DUP1 DUP5 AND PUSH0 SWAP1 DUP2 MSTORE PUSH1 0xC PUSH1 0x20 MSTORE PUSH1 0x40 DUP1 DUP3 KECCAK256 DUP2 MLOAD PUSH2 0x180 DUP2 ADD SWAP1 SWAP3 MSTORE DUP1 SLOAD SWAP1 SWAP4 AND PUSH1 0xE0 DUP3 ADD SWAP1 DUP2 MSTORE PUSH1 0x1 DUP5 ADD SLOAD PUSH2 0x100 DUP4 ADD MSTORE PUSH1 0x2 DUP5 ADD DUP1 SLOAD SWAP4 SWAP5 SWAP3 SWAP4 DUP5 SWAP3 SWAP2 DUP5 SWAP2 PUSH2 0x120 DUP6 ADD SWAP2 SWAP1 PUSH2 0x24E8 SWAP1 PUSH2 0x36D6 JUMP JUMPDEST DUP1 PUSH1 0x1F ADD PUSH1 0x20 DUP1 SWAP2 DIV MUL PUSH1 0x20 ADD PUSH1 0x40 MLOAD SWAP1 DUP2 ADD PUSH1 0x40 MSTORE DUP1 SWAP3 SWAP2 SWAP1 DUP2 DUP2 MSTORE PUSH1 0x20 ADD DUP3 DUP1 SLOAD PUSH2 0x2514 SWAP1 PUSH2 0x36D6 JUMP JUMPDEST DUP1 ISZERO PUSH2 0x255F JUMPI DUP1 PUSH1 0x1F LT PUSH2 0x2536 JUMPI PUSH2 0x100 DUP1 DUP4 SLOAD DIV MUL DUP4 MSTORE SWAP2 PUSH1 0x20 ADD SWAP2 PUSH2 0x255F JUMP JUMPDEST DUP3 ADD SWAP2 SWAP1 PUSH0 MSTORE PUSH1 0x20 PUSH0 KECCAK256 SWAP1 JUMPDEST DUP2 SLOAD DUP2 MSTORE SWAP1 PUSH1 0x1 ADD SWAP1 PUSH1 0x20 ADD DUP1 DUP4 GT PUSH2 0x2542 JUMPI DUP3 SWAP1 SUB PUSH1 0x1F AND DUP3 ADD SWAP2 JUMPDEST POP POP POP SWAP2 DUP4 MSTORE POP POP PUSH1 0x3 SWAP2 SWAP1 SWAP2 ADD SLOAD PUSH1 0xFF DUP1 DUP3 AND ISZERO ISZERO PUSH1 0x20 DUP1 DUP6 ADD SWAP2 SWAP1 SWAP2 MSTORE PUSH2 0x100 SWAP1 SWAP3 DIV AND ISZERO ISZERO PUSH1 0x40 SWAP3 DUP4 ADD MSTORE SWAP2 DUP4 MSTORE DUP1 MLOAD PUSH1 0xA0 DUP2 ADD DUP3 MSTORE PUSH1 0x4 DUP6 ADD DUP1 SLOAD PUSH1 0x1 PUSH1 0x1 PUSH1 0xA0 SHL SUB AND DUP3 MSTORE PUSH1 0x5 DUP7 ADD SLOAD DUP3 DUP6 ADD MSTORE PUSH1 0x6 DUP7 ADD DUP1 SLOAD SWAP6 SWAP1 SWAP5 ADD SWAP5 SWAP2 SWAP4 SWAP1 SWAP3 DUP5 ADD SWAP2 PUSH2 0x25CD SWAP1 PUSH2 0x36D6 JUMP JUMPDEST DUP1 PUSH1 0x1F ADD PUSH1 0x20 DUP1 SWAP2 DIV MUL PUSH1 0x20 ADD PUSH1 0x40 MLOAD SWAP1 DUP2 ADD PUSH1 0x40 MSTORE DUP1 SWAP3 SWAP2 SWAP1 DUP2 DUP2 MSTORE PUSH1 0x20 ADD DUP3 DUP1 SLOAD PUSH2 0x25F9 SWAP1 PUSH2 0x36D6 JUMP JUMPDEST DUP1 ISZERO PUSH2 0x2644 JUMPI DUP1 PUSH1 0x1F LT PUSH2 0x261B JUMPI PUSH2 0x100 DUP1 DUP4 SLOAD DIV MUL DUP4 MSTORE SWAP2 PUSH1 0x20 ADD SWAP2 PUSH2 0x2644 JUMP JUMPDEST DUP3 ADD SWAP2 SWAP1 PUSH0 MSTORE PUSH1 0x20 PUSH0 KECCAK256 SWAP1 JUMPDEST DUP2 SLOAD DUP2 MSTORE SWAP1 PUSH1 0x1 ADD SWAP1 PUSH1 0x20 ADD DUP1 DUP4 GT PUSH2 0x2627 JUMPI DUP3 SWAP1 SUB PUSH1 0x1F AND DUP3 ADD SWAP2 JUMPDEST POP POP POP SWAP2 DUP4 MSTORE POP POP PUSH1 0x3 SWAP2 SWAP1 SWAP2 ADD SLOAD PUSH1 0xFF DUP1 DUP3 AND ISZERO ISZERO PUSH1 0x20 DUP1 DUP6 ADD SWAP2 SWAP1 SWAP2 MSTORE PUSH2 0x100 SWAP3 DUP4 SWAP1 DIV DUP3 AND ISZERO ISZERO PUSH1 0x40 SWAP5 DUP6 ADD MSTORE SWAP4 DUP6 MSTORE PUSH1 0x8 DUP7 ADD SLOAD SWAP4 DUP6 ADD SWAP4 SWAP1 SWAP4 MSTORE PUSH1 0x9 SWAP1 SWAP5 ADD SLOAD DUP1 DUP4 AND ISZERO ISZERO SWAP2 DUP5 ADD SWAP2 SWAP1 SWAP2 MSTORE SWAP3 DUP4 DIV DUP2 AND ISZERO ISZERO PUSH1 0x60 DUP4 ADD MSTORE PUSH3 0x10000 DUP4 DIV DUP2 AND ISZERO ISZERO PUSH1 0x80 DUP4 ADD MSTORE PUSH4 0x1000000 SWAP1 SWAP3 DIV SWAP1 SWAP2 AND PUSH1 0xA0 SWAP1 SWAP2 ADD MSTORE MLOAD MLOAD SWAP3 POP POP JUMPDEST POP SWAP2 SWAP1 POP JUMP JUMPDEST PUSH2 0x572 DUP3 DUP3 PUSH1 0x40 MLOAD DUP1 PUSH1 0x20 ADD PUSH1 0x40 MSTORE DUP1 PUSH0 DUP2 MSTORE POP PUSH2 0x2BE1 JUMP JUMPDEST PUSH0 PUSH2 0x26F2 PUSH0 DUP4 PUSH0 PUSH2 0x2BF7 JUMP JUMPDEST SWAP1 POP PUSH1 0x1 PUSH1 0x1 PUSH1 0xA0 SHL SUB DUP2 AND PUSH2 0x572 JUMPI PUSH1 0x40 MLOAD PUSH4 0x7E273289 PUSH1 0xE0 SHL DUP2 MSTORE PUSH1 0x4 DUP2 ADD DUP4 SWAP1 MSTORE PUSH1 0x24 ADD PUSH2 0x5C6 JUMP JUMPDEST PUSH1 0x1 PUSH1 0x1 PUSH1 0xA0 SHL SUB DUP2 AND PUSH0 SWAP1 DUP2 MSTORE PUSH1 0xB PUSH1 0x20 MSTORE PUSH1 0x40 SWAP1 KECCAK256 PUSH1 0x3 ADD SLOAD DUP2 SWAP1 PUSH1 0xFF AND ISZERO ISZERO PUSH1 0x1 EQ PUSH2 0x275F JUMPI PUSH1 0x40 MLOAD PUSH3 0x461BCD PUSH1 0xE5 SHL DUP2 MSTORE PUSH1 0x4 ADD PUSH2 0x5C6 SWAP1 PUSH2 0x3913 JUMP JUMPDEST PUSH1 0x1 PUSH1 0x1 PUSH1 0xA0 SHL SUB DUP3 AND PUSH0 SWAP1 DUP2 MSTORE PUSH1 0xB PUSH1 0x20 MSTORE PUSH1 0x40 SWAP1 KECCAK256 PUSH1 0x3 ADD SLOAD DUP3 SWAP1 PUSH2 0x100 SWAP1 DIV PUSH1 0xFF AND ISZERO PUSH2 0x27A1 JUMPI PUSH1 0x40 MLOAD PUSH3 0x461BCD PUSH1 0xE5 SHL DUP2 MSTORE PUSH1 0x4 ADD PUSH2 0x5C6 SWAP1 PUSH2 0x3983 JUMP JUMPDEST PUSH1 0x1 PUSH1 0x1 PUSH1 0xA0 SHL SUB DUP4 AND PUSH0 SWAP1 DUP2 MSTORE PUSH1 0xD PUSH1 0x20 SWAP1 DUP2 MSTORE PUSH1 0x40 DUP1 DUP4 KECCAK256 PUSH1 0xC SWAP1 SWAP3 MSTORE DUP3 KECCAK256 DUP2 SLOAD SWAP2 SWAP3 SWAP1 SWAP2 SWAP1 PUSH1 0x2 PUSH2 0x27D6 DUP4 PUSH1 0x1 PUSH2 0x39C0 JUMP JUMPDEST PUSH2 0x27E0 SWAP2 SWAP1 PUSH2 0x3B1A JUMP JUMPDEST SWAP1 POP DUP1 DUP5 PUSH1 0x3 ADD SLOAD LT PUSH2 0x1984 JUMPI PUSH1 0x9 DUP4 ADD DUP1 SLOAD PUSH1 0xFF NOT SWAP1 DUP2 AND PUSH1 0x1 OR SWAP1 SWAP2 SSTORE DUP4 SLOAD PUSH1 0x1 PUSH1 0x1 PUSH1 0xA0 SHL SUB SWAP1 DUP2 AND PUSH0 SWAP1 DUP2 MSTORE PUSH1 0xB PUSH1 0x20 MSTORE PUSH1 0x40 DUP1 DUP3 KECCAK256 PUSH1 0x3 SWAP1 DUP2 ADD DUP1 SLOAD DUP7 AND SWAP1 SSTORE PUSH1 0x4 DUP9 ADD SLOAD DUP5 AND DUP4 MSTORE SWAP2 DUP2 SWAP1 KECCAK256 SWAP1 SWAP2 ADD DUP1 SLOAD SWAP1 SWAP4 AND SWAP1 SWAP3 SSTORE DUP5 SLOAD SWAP2 MLOAD PUSH32 0xCA5145A860413368885BD057FA646C0895A34D43C6F7C897FC1954CF51C33045 SWAP3 PUSH2 0x286E SWAP3 AND SWAP1 PUSH2 0x327F JUMP JUMPDEST PUSH1 0x40 MLOAD DUP1 SWAP2 SUB SWAP1 LOG1 PUSH1 0x4 DUP4 ADD SLOAD PUSH1 0x40 MLOAD PUSH32 0xCA5145A860413368885BD057FA646C0895A34D43C6F7C897FC1954CF51C33045 SWAP2 PUSH2 0x1617 SWAP2 PUSH1 0x1 PUSH1 0x1 PUSH1 0xA0 SHL SUB SWAP1 SWAP2 AND SWAP1 PUSH2 0x327F JUMP JUMPDEST PUSH1 0x1 PUSH1 0x1 PUSH1 0xA0 SHL SUB DUP3 AND PUSH2 0x28DE JUMPI DUP2 PUSH1 0x40 MLOAD PUSH4 0xB611743 PUSH1 0xE3 SHL DUP2 MSTORE PUSH1 0x4 ADD PUSH2 0x5C6 SWAP2 SWAP1 PUSH2 0x327F JUMP JUMPDEST PUSH1 0x1 PUSH1 0x1 PUSH1 0xA0 SHL SUB DUP4 DUP2 AND PUSH0 DUP2 DUP2 MSTORE PUSH1 0x5 PUSH1 0x20 SWAP1 DUP2 MSTORE PUSH1 0x40 DUP1 DUP4 KECCAK256 SWAP5 DUP8 AND DUP1 DUP5 MSTORE SWAP5 DUP3 MSTORE SWAP2 DUP3 SWAP1 KECCAK256 DUP1 SLOAD PUSH1 0xFF NOT AND DUP7 ISZERO ISZERO SWAP1 DUP2 OR SWAP1 SWAP2 SSTORE SWAP2 MLOAD SWAP2 DUP3 MSTORE PUSH32 0x17307EAB39AB6107E8899845AD3D59BD9653F200F220920489CA2B5937696C31 SWAP2 ADD PUSH1 0x40 MLOAD DUP1 SWAP2 SUB SWAP1 LOG3 POP POP POP JUMP JUMPDEST PUSH1 0x1 PUSH1 0x1 PUSH1 0xA0 SHL SUB DUP4 AND EXTCODESIZE ISZERO PUSH2 0x12DC JUMPI PUSH1 0x40 MLOAD PUSH4 0xA85BD01 PUSH1 0xE1 SHL DUP2 MSTORE PUSH1 0x1 PUSH1 0x1 PUSH1 0xA0 SHL SUB DUP5 AND SWAP1 PUSH4 0x150B7A02 SWAP1 PUSH2 0x298C SWAP1 CALLER SWAP1 DUP9 SWAP1 DUP8 SWAP1 DUP8 SWAP1 PUSH1 0x4 ADD PUSH2 0x3B39 JUMP JUMPDEST PUSH1 0x20 PUSH1 0x40 MLOAD DUP1 DUP4 SUB DUP2 PUSH0 DUP8 GAS CALL SWAP3 POP POP POP DUP1 ISZERO PUSH2 0x29C6 JUMPI POP PUSH1 0x40 DUP1 MLOAD PUSH1 0x1F RETURNDATASIZE SWAP1 DUP2 ADD PUSH1 0x1F NOT AND DUP3 ADD SWAP1 SWAP3 MSTORE PUSH2 0x29C3 SWAP2 DUP2 ADD SWAP1 PUSH2 0x3B75 JUMP JUMPDEST PUSH1 0x1 JUMPDEST PUSH2 0x2A24 JUMPI RETURNDATASIZE DUP1 DUP1 ISZERO PUSH2 0x29F3 JUMPI PUSH1 0x40 MLOAD SWAP2 POP PUSH1 0x1F NOT PUSH1 0x3F RETURNDATASIZE ADD AND DUP3 ADD PUSH1 0x40 MSTORE RETURNDATASIZE DUP3 MSTORE RETURNDATASIZE PUSH0 PUSH1 0x20 DUP5 ADD RETURNDATACOPY PUSH2 0x29F8 JUMP JUMPDEST PUSH1 0x60 SWAP2 POP JUMPDEST POP DUP1 MLOAD PUSH0 SUB PUSH2 0x2A1C JUMPI DUP4 PUSH1 0x40 MLOAD PUSH4 0x32505749 PUSH1 0xE1 SHL DUP2 MSTORE PUSH1 0x4 ADD PUSH2 0x5C6 SWAP2 SWAP1 PUSH2 0x327F JUMP JUMPDEST DUP1 MLOAD DUP2 PUSH1 0x20 ADD REVERT JUMPDEST PUSH1 0x1 PUSH1 0x1 PUSH1 0xE0 SHL SUB NOT DUP2 AND PUSH4 0xA85BD01 PUSH1 0xE1 SHL EQ PUSH2 0x2386 JUMPI DUP4 PUSH1 0x40 MLOAD PUSH4 0x32505749 PUSH1 0xE1 SHL DUP2 MSTORE PUSH1 0x4 ADD PUSH2 0x5C6 SWAP2 SWAP1 PUSH2 0x327F JUMP JUMPDEST PUSH1 0x60 PUSH0 PUSH2 0x2A63 DUP4 PUSH2 0x2CCA JUMP JUMPDEST PUSH1 0x1 ADD SWAP1 POP PUSH0 DUP2 PUSH1 0x1 PUSH1 0x1 PUSH1 0x40 SHL SUB DUP2 GT ISZERO PUSH2 0x2A81 JUMPI PUSH2 0x2A81 PUSH2 0x32D6 JUMP JUMPDEST PUSH1 0x40 MLOAD SWAP1 DUP1 DUP3 MSTORE DUP1 PUSH1 0x1F ADD PUSH1 0x1F NOT AND PUSH1 0x20 ADD DUP3 ADD PUSH1 0x40 MSTORE DUP1 ISZERO PUSH2 0x2AAB JUMPI PUSH1 0x20 DUP3 ADD DUP2 DUP1 CALLDATASIZE DUP4 CALLDATACOPY ADD SWAP1 POP JUMPDEST POP SWAP1 POP DUP2 DUP2 ADD PUSH1 0x20 ADD JUMPDEST PUSH0 NOT ADD PUSH16 0x181899199A1A9B1B9C1CB0B131B232B3 PUSH1 0x81 SHL PUSH1 0xA DUP7 MOD BYTE DUP2 MSTORE8 PUSH1 0xA DUP6 DIV SWAP5 POP DUP5 PUSH2 0x2AB5 JUMPI POP SWAP4 SWAP3 POP POP POP JUMP JUMPDEST DUP1 DUP1 PUSH2 0x2AFA JUMPI POP PUSH1 0x1 PUSH1 0x1 PUSH1 0xA0 SHL SUB DUP3 AND ISZERO ISZERO JUMPDEST ISZERO PUSH2 0x2BB2 JUMPI PUSH0 PUSH2 0x2B09 DUP5 PUSH2 0x2409 JUMP JUMPDEST SWAP1 POP PUSH1 0x1 PUSH1 0x1 PUSH1 0xA0 SHL SUB DUP4 AND ISZERO DUP1 ISZERO SWAP1 PUSH2 0x2B35 JUMPI POP DUP3 PUSH1 0x1 PUSH1 0x1 PUSH1 0xA0 SHL SUB AND DUP2 PUSH1 0x1 PUSH1 0x1 PUSH1 0xA0 SHL SUB AND EQ ISZERO JUMPDEST DUP1 ISZERO PUSH2 0x2B48 JUMPI POP PUSH2 0x2B46 DUP2 DUP5 PUSH2 0x238D JUMP JUMPDEST ISZERO JUMPDEST ISZERO PUSH2 0x2B68 JUMPI DUP3 PUSH1 0x40 MLOAD PUSH4 0xA9FBF51F PUSH1 0xE0 SHL DUP2 MSTORE PUSH1 0x4 ADD PUSH2 0x5C6 SWAP2 SWAP1 PUSH2 0x327F JUMP JUMPDEST DUP2 ISZERO PUSH2 0x2BB0 JUMPI DUP4 DUP6 PUSH1 0x1 PUSH1 0x1 PUSH1 0xA0 SHL SUB AND DUP3 PUSH1 0x1 PUSH1 0x1 PUSH1 0xA0 SHL SUB AND PUSH32 0x8C5BE1E5EBEC7D5BD14F71427D1E84F3DD0314C0F7B2291E5B200AC8C7C3B925 PUSH1 0x40 MLOAD PUSH1 0x40 MLOAD DUP1 SWAP2 SUB SWAP1 LOG4 JUMPDEST POP JUMPDEST POP POP PUSH0 SWAP1 DUP2 MSTORE PUSH1 0x4 PUSH1 0x20 MSTORE PUSH1 0x40 SWAP1 KECCAK256 DUP1 SLOAD PUSH1 0x1 PUSH1 0x1 PUSH1 0xA0 SHL SUB NOT AND PUSH1 0x1 PUSH1 0x1 PUSH1 0xA0 SHL SUB SWAP3 SWAP1 SWAP3 AND SWAP2 SWAP1 SWAP2 OR SWAP1 SSTORE JUMP JUMPDEST PUSH2 0x2BEB DUP4 DUP4 PUSH2 0x2DA1 JUMP JUMPDEST PUSH2 0xDA6 PUSH0 DUP5 DUP5 DUP5 PUSH2 0x294A JUMP JUMPDEST PUSH0 DUP1 PUSH2 0x2C04 DUP6 DUP6 DUP6 PUSH2 0x2E02 JUMP JUMPDEST SWAP1 POP PUSH1 0x1 PUSH1 0x1 PUSH1 0xA0 SHL SUB DUP2 AND PUSH2 0x2C60 JUMPI PUSH2 0x2C5B DUP5 PUSH1 0x8 DUP1 SLOAD PUSH0 DUP4 DUP2 MSTORE PUSH1 0x9 PUSH1 0x20 MSTORE PUSH1 0x40 DUP2 KECCAK256 DUP3 SWAP1 SSTORE PUSH1 0x1 DUP3 ADD DUP4 SSTORE SWAP2 SWAP1 SWAP2 MSTORE PUSH32 0xF3F7A9FE364FAAB93B216DA50A3214154F22A0A2B415B23A84C8169E8B636EE3 ADD SSTORE JUMP JUMPDEST PUSH2 0x2C83 JUMP JUMPDEST DUP5 PUSH1 0x1 PUSH1 0x1 PUSH1 0xA0 SHL SUB AND DUP2 PUSH1 0x1 PUSH1 0x1 PUSH1 0xA0 SHL SUB AND EQ PUSH2 0x2C83 JUMPI PUSH2 0x2C83 DUP2 DUP6 PUSH2 0x2EF4 JUMP JUMPDEST PUSH1 0x1 PUSH1 0x1 PUSH1 0xA0 SHL SUB DUP6 AND PUSH2 0x2C9F JUMPI PUSH2 0x2C9A DUP5 PUSH2 0x2F81 JUMP JUMPDEST PUSH2 0x2CC2 JUMP JUMPDEST DUP5 PUSH1 0x1 PUSH1 0x1 PUSH1 0xA0 SHL SUB AND DUP2 PUSH1 0x1 PUSH1 0x1 PUSH1 0xA0 SHL SUB AND EQ PUSH2 0x2CC2 JUMPI PUSH2 0x2CC2 DUP6 DUP6 PUSH2 0x3028 JUMP JUMPDEST SWAP5 SWAP4 POP POP POP POP JUMP JUMPDEST PUSH0 DUP1 PUSH19 0x184F03E93FF9F4DAA797ED6E38ED64BF6A1F01 PUSH1 0x40 SHL DUP4 LT PUSH2 0x2D08 JUMPI PUSH19 0x184F03E93FF9F4DAA797ED6E38ED64BF6A1F01 PUSH1 0x40 SHL DUP4 DIV SWAP3 POP PUSH1 0x40 ADD JUMPDEST PUSH14 0x4EE2D6D415B85ACEF8100000000 DUP4 LT PUSH2 0x2D34 JUMPI PUSH14 0x4EE2D6D415B85ACEF8100000000 DUP4 DIV SWAP3 POP PUSH1 0x20 ADD JUMPDEST PUSH7 0x2386F26FC10000 DUP4 LT PUSH2 0x2D52 JUMPI PUSH7 0x2386F26FC10000 DUP4 DIV SWAP3 POP PUSH1 0x10 ADD JUMPDEST PUSH4 0x5F5E100 DUP4 LT PUSH2 0x2D6A JUMPI PUSH4 0x5F5E100 DUP4 DIV SWAP3 POP PUSH1 0x8 ADD JUMPDEST PUSH2 0x2710 DUP4 LT PUSH2 0x2D7E JUMPI PUSH2 0x2710 DUP4 DIV SWAP3 POP PUSH1 0x4 ADD JUMPDEST PUSH1 0x64 DUP4 LT PUSH2 0x2D90 JUMPI PUSH1 0x64 DUP4 DIV SWAP3 POP PUSH1 0x2 ADD JUMPDEST PUSH1 0xA DUP4 LT PUSH2 0x4AB JUMPI PUSH1 0x1 ADD SWAP3 SWAP2 POP POP JUMP JUMPDEST PUSH1 0x1 PUSH1 0x1 PUSH1 0xA0 SHL SUB DUP3 AND PUSH2 0x2DCA JUMPI PUSH0 PUSH1 0x40 MLOAD PUSH4 0x32505749 PUSH1 0xE1 SHL DUP2 MSTORE PUSH1 0x4 ADD PUSH2 0x5C6 SWAP2 SWAP1 PUSH2 0x327F JUMP JUMPDEST PUSH0 PUSH2 0x2DD6 DUP4 DUP4 PUSH0 PUSH2 0x2BF7 JUMP JUMPDEST SWAP1 POP PUSH1 0x1 PUSH1 0x1 PUSH1 0xA0 SHL SUB DUP2 AND ISZERO PUSH2 0xDA6 JUMPI PUSH0 PUSH1 0x40 MLOAD PUSH4 0x39E35637 PUSH1 0xE1 SHL DUP2 MSTORE PUSH1 0x4 ADD PUSH2 0x5C6 SWAP2 SWAP1 PUSH2 0x327F JUMP JUMPDEST PUSH0 DUP3 DUP2 MSTORE PUSH1 0x2 PUSH1 0x20 MSTORE PUSH1 0x40 DUP2 KECCAK256 SLOAD PUSH1 0x1 PUSH1 0x1 PUSH1 0xA0 SHL SUB SWAP1 DUP2 AND SWAP1 DUP4 AND ISZERO PUSH2 0x2E2E JUMPI PUSH2 0x2E2E DUP2 DUP5 DUP7 PUSH2 0x3076 JUMP JUMPDEST PUSH1 0x1 PUSH1 0x1 PUSH1 0xA0 SHL SUB DUP2 AND ISZERO PUSH2 0x2E68 JUMPI PUSH2 0x2E49 PUSH0 DUP6 PUSH0 DUP1 PUSH2 0x2AE6 JUMP JUMPDEST PUSH1 0x1 PUSH1 0x1 PUSH1 0xA0 SHL SUB DUP2 AND PUSH0 SWAP1 DUP2 MSTORE PUSH1 0x3 PUSH1 0x20 MSTORE PUSH1 0x40 SWAP1 KECCAK256 DUP1 SLOAD PUSH0 NOT ADD SWAP1 SSTORE JUMPDEST PUSH1 0x1 PUSH1 0x1 PUSH1 0xA0 SHL SUB DUP6 AND ISZERO PUSH2 0x2E96 JUMPI PUSH1 0x1 PUSH1 0x1 PUSH1 0xA0 SHL SUB DUP6 AND PUSH0 SWAP1 DUP2 MSTORE PUSH1 0x3 PUSH1 0x20 MSTORE PUSH1 0x40 SWAP1 KECCAK256 DUP1 SLOAD PUSH1 0x1 ADD SWAP1 SSTORE JUMPDEST PUSH0 DUP5 DUP2 MSTORE PUSH1 0x2 PUSH1 0x20 MSTORE PUSH1 0x40 DUP1 DUP3 KECCAK256 DUP1 SLOAD PUSH1 0x1 PUSH1 0x1 PUSH1 0xA0 SHL SUB NOT AND PUSH1 0x1 PUSH1 0x1 PUSH1 0xA0 SHL SUB DUP10 DUP2 AND SWAP2 DUP3 OR SWAP1 SWAP3 SSTORE SWAP2 MLOAD DUP8 SWAP4 SWAP2 DUP6 AND SWAP2 PUSH32 0xDDF252AD1BE2C89B69C2B068FC378DAA952BA7F163C4A11628F55A4DF523B3EF SWAP2 LOG4 SWAP5 SWAP4 POP POP POP POP JUMP JUMPDEST PUSH0 PUSH2 0x2EFE DUP4 PUSH2 0x10A3 JUMP JUMPDEST PUSH0 DUP4 DUP2 MSTORE PUSH1 0x7 PUSH1 0x20 MSTORE PUSH1 0x40 SWAP1 KECCAK256 SLOAD SWAP1 SWAP2 POP DUP1 DUP3 EQ PUSH2 0x2F4F JUMPI PUSH1 0x1 PUSH1 0x1 PUSH1 0xA0 SHL SUB DUP5 AND PUSH0 SWAP1 DUP2 MSTORE PUSH1 0x6 PUSH1 0x20 SWAP1 DUP2 MSTORE PUSH1 0x40 DUP1 DUP4 KECCAK256 DUP6 DUP5 MSTORE DUP3 MSTORE DUP1 DUP4 KECCAK256 SLOAD DUP5 DUP5 MSTORE DUP2 DUP5 KECCAK256 DUP2 SWAP1 SSTORE DUP4 MSTORE PUSH1 0x7 SWAP1 SWAP2 MSTORE SWAP1 KECCAK256 DUP2 SWAP1 SSTORE JUMPDEST POP PUSH0 SWAP2 DUP3 MSTORE PUSH1 0x7 PUSH1 0x20 SWAP1 DUP2 MSTORE PUSH1 0x40 DUP1 DUP5 KECCAK256 DUP5 SWAP1 SSTORE PUSH1 0x1 PUSH1 0x1 PUSH1 0xA0 SHL SUB SWAP1 SWAP5 AND DUP4 MSTORE PUSH1 0x6 DUP2 MSTORE DUP4 DUP4 KECCAK256 SWAP2 DUP4 MSTORE MSTORE SWAP1 DUP2 KECCAK256 SSTORE JUMP JUMPDEST PUSH1 0x8 SLOAD PUSH0 SWAP1 PUSH2 0x2F92 SWAP1 PUSH1 0x1 SWAP1 PUSH2 0x3B90 JUMP JUMPDEST PUSH0 DUP4 DUP2 MSTORE PUSH1 0x9 PUSH1 0x20 MSTORE PUSH1 0x40 DUP2 KECCAK256 SLOAD PUSH1 0x8 DUP1 SLOAD SWAP4 SWAP5 POP SWAP1 SWAP3 DUP5 SWAP1 DUP2 LT PUSH2 0x2FB9 JUMPI PUSH2 0x2FB9 PUSH2 0x38FF JUMP JUMPDEST SWAP1 PUSH0 MSTORE PUSH1 0x20 PUSH0 KECCAK256 ADD SLOAD SWAP1 POP DUP1 PUSH1 0x8 DUP4 DUP2 SLOAD DUP2 LT PUSH2 0x2FD8 JUMPI PUSH2 0x2FD8 PUSH2 0x38FF JUMP JUMPDEST PUSH0 SWAP2 DUP3 MSTORE PUSH1 0x20 DUP1 DUP4 KECCAK256 SWAP1 SWAP2 ADD SWAP3 SWAP1 SWAP3 SSTORE DUP3 DUP2 MSTORE PUSH1 0x9 SWAP1 SWAP2 MSTORE PUSH1 0x40 DUP1 DUP3 KECCAK256 DUP5 SWAP1 SSTORE DUP6 DUP3 MSTORE DUP2 KECCAK256 SSTORE PUSH1 0x8 DUP1 SLOAD DUP1 PUSH2 0x300F JUMPI PUSH2 0x300F PUSH2 0x3BA3 JUMP JUMPDEST PUSH1 0x1 SWAP1 SUB DUP2 DUP2 SWAP1 PUSH0 MSTORE PUSH1 0x20 PUSH0 KECCAK256 ADD PUSH0 SWAP1 SSTORE SWAP1 SSTORE POP POP POP POP JUMP JUMPDEST PUSH0 PUSH1 0x1 PUSH2 0x3034 DUP5 PUSH2 0x10A3 JUMP JUMPDEST PUSH2 0x303E SWAP2 SWAP1 PUSH2 0x3B90 JUMP JUMPDEST PUSH1 0x1 PUSH1 0x1 PUSH1 0xA0 SHL SUB SWAP1 SWAP4 AND PUSH0 SWAP1 DUP2 MSTORE PUSH1 0x6 PUSH1 0x20 SWAP1 DUP2 MSTORE PUSH1 0x40 DUP1 DUP4 KECCAK256 DUP7 DUP5 MSTORE DUP3 MSTORE DUP1 DUP4 KECCAK256 DUP6 SWAP1 SSTORE SWAP4 DUP3 MSTORE PUSH1 0x7 SWAP1 MSTORE SWAP2 SWAP1 SWAP2 KECCAK256 SWAP2 SWAP1 SWAP2 SSTORE POP JUMP JUMPDEST PUSH2 0x3081 DUP4 DUP4 DUP4 PUSH2 0x30CC JUMP JUMPDEST PUSH2 0xDA6 JUMPI PUSH1 0x1 PUSH1 0x1 PUSH1 0xA0 SHL SUB DUP4 AND PUSH2 0x30AF JUMPI PUSH1 0x40 MLOAD PUSH4 0x7E273289 PUSH1 0xE0 SHL DUP2 MSTORE PUSH1 0x4 DUP2 ADD DUP3 SWAP1 MSTORE PUSH1 0x24 ADD PUSH2 0x5C6 JUMP JUMPDEST DUP2 DUP2 PUSH1 0x40 MLOAD PUSH4 0x177E802F PUSH1 0xE0 SHL DUP2 MSTORE PUSH1 0x4 ADD PUSH2 0x5C6 SWAP3 SWAP2 SWAP1 PUSH2 0x38E6 JUMP JUMPDEST PUSH0 PUSH1 0x1 PUSH1 0x1 PUSH1 0xA0 SHL SUB DUP4 AND ISZERO DUP1 ISZERO SWAP1 PUSH2 0x2CC2 JUMPI POP DUP3 PUSH1 0x1 PUSH1 0x1 PUSH1 0xA0 SHL SUB AND DUP5 PUSH1 0x1 PUSH1 0x1 PUSH1 0xA0 SHL SUB AND EQ DUP1 PUSH2 0x3105 JUMPI POP PUSH2 0x3105 DUP5 DUP5 PUSH2 0x238D JUMP JUMPDEST DUP1 PUSH2 0x2CC2 JUMPI POP POP PUSH0 SWAP1 DUP2 MSTORE PUSH1 0x4 PUSH1 0x20 MSTORE PUSH1 0x40 SWAP1 KECCAK256 SLOAD PUSH1 0x1 PUSH1 0x1 PUSH1 0xA0 SHL SUB SWAP1 DUP2 AND SWAP2 AND EQ SWAP2 SWAP1 POP JUMP JUMPDEST POP DUP1 SLOAD PUSH2 0x3139 SWAP1 PUSH2 0x36D6 JUMP JUMPDEST PUSH0 DUP3 SSTORE DUP1 PUSH1 0x1F LT PUSH2 0x3148 JUMPI POP POP JUMP JUMPDEST PUSH1 0x1F ADD PUSH1 0x20 SWAP1 DIV SWAP1 PUSH0 MSTORE PUSH1 0x20 PUSH0 KECCAK256 SWAP1 DUP2 ADD SWAP1 PUSH2 0x166D SWAP2 SWAP1 PUSH2 0x31C5 JUMP JUMPDEST DUP3 DUP1 SLOAD DUP3 DUP3 SSTORE SWAP1 PUSH0 MSTORE PUSH1 0x20 PUSH0 KECCAK256 SWAP1 DUP2 ADD SWAP3 DUP3 ISZERO PUSH2 0x31B5 JUMPI SWAP2 PUSH1 0x20 MUL DUP3 ADD JUMPDEST DUP3 DUP2 GT ISZERO PUSH2 0x31B5 JUMPI DUP2 SLOAD PUSH1 0x1 PUSH1 0x1 PUSH1 0xA0 SHL SUB NOT AND PUSH1 0x1 PUSH1 0x1 PUSH1 0xA0 SHL SUB DUP5 CALLDATALOAD AND OR DUP3 SSTORE PUSH1 0x20 SWAP1 SWAP3 ADD SWAP2 PUSH1 0x1 SWAP1 SWAP2 ADD SWAP1 PUSH2 0x3182 JUMP JUMPDEST POP PUSH2 0x31C1 SWAP3 SWAP2 POP PUSH2 0x31C5 JUMP JUMPDEST POP SWAP1 JUMP JUMPDEST JUMPDEST DUP1 DUP3 GT ISZERO PUSH2 0x31C1 JUMPI PUSH0 DUP2 SSTORE PUSH1 0x1 ADD PUSH2 0x31C6 JUMP JUMPDEST PUSH1 0x1 PUSH1 0x1 PUSH1 0xE0 SHL SUB NOT DUP2 AND DUP2 EQ PUSH2 0x166D JUMPI PUSH0 DUP1 REVERT JUMPDEST PUSH0 PUSH1 0x20 DUP3 DUP5 SUB SLT ISZERO PUSH2 0x31FE JUMPI PUSH0 DUP1 REVERT JUMPDEST DUP2 CALLDATALOAD PUSH2 0x1FFB DUP2 PUSH2 0x31D9 JUMP JUMPDEST PUSH0 JUMPDEST DUP4 DUP2 LT ISZERO PUSH2 0x3223 JUMPI DUP2 DUP2 ADD MLOAD DUP4 DUP3 ADD MSTORE PUSH1 0x20 ADD PUSH2 0x320B JUMP JUMPDEST POP POP PUSH0 SWAP2 ADD MSTORE JUMP JUMPDEST PUSH0 DUP2 MLOAD DUP1 DUP5 MSTORE PUSH2 0x3242 DUP2 PUSH1 0x20 DUP7 ADD PUSH1 0x20 DUP7 ADD PUSH2 0x3209 JUMP JUMPDEST PUSH1 0x1F ADD PUSH1 0x1F NOT AND SWAP3 SWAP1 SWAP3 ADD PUSH1 0x20 ADD SWAP3 SWAP2 POP POP JUMP JUMPDEST PUSH1 0x20 DUP2 MSTORE PUSH0 PUSH2 0x1FFB PUSH1 0x20 DUP4 ADD DUP5 PUSH2 0x322B JUMP JUMPDEST PUSH0 PUSH1 0x20 DUP3 DUP5 SUB SLT ISZERO PUSH2 0x3278 JUMPI PUSH0 DUP1 REVERT JUMPDEST POP CALLDATALOAD SWAP2 SWAP1 POP JUMP JUMPDEST PUSH1 0x1 PUSH1 0x1 PUSH1 0xA0 SHL SUB SWAP2 SWAP1 SWAP2 AND DUP2 MSTORE PUSH1 0x20 ADD SWAP1 JUMP JUMPDEST DUP1 CALLDATALOAD PUSH1 0x1 PUSH1 0x1 PUSH1 0xA0 SHL SUB DUP2 AND DUP2 EQ PUSH2 0x32A9 JUMPI PUSH0 DUP1 REVERT JUMPDEST SWAP2 SWAP1 POP JUMP JUMPDEST PUSH0 DUP1 PUSH1 0x40 DUP4 DUP6 SUB SLT ISZERO PUSH2 0x32BF JUMPI PUSH0 DUP1 REVERT JUMPDEST PUSH2 0x32C8 DUP4 PUSH2 0x3293 JUMP JUMPDEST SWAP5 PUSH1 0x20 SWAP4 SWAP1 SWAP4 ADD CALLDATALOAD SWAP4 POP POP POP JUMP JUMPDEST PUSH4 0x4E487B71 PUSH1 0xE0 SHL PUSH0 MSTORE PUSH1 0x41 PUSH1 0x4 MSTORE PUSH1 0x24 PUSH0 REVERT JUMPDEST PUSH0 PUSH1 0x1 PUSH1 0x1 PUSH1 0x40 SHL SUB DUP1 DUP5 GT ISZERO PUSH2 0x3303 JUMPI PUSH2 0x3303 PUSH2 0x32D6 JUMP JUMPDEST PUSH1 0x40 MLOAD PUSH1 0x1F DUP6 ADD PUSH1 0x1F NOT SWAP1 DUP2 AND PUSH1 0x3F ADD AND DUP2 ADD SWAP1 DUP3 DUP3 GT DUP2 DUP4 LT OR ISZERO PUSH2 0x332B JUMPI PUSH2 0x332B PUSH2 0x32D6 JUMP JUMPDEST DUP2 PUSH1 0x40 MSTORE DUP1 SWAP4 POP DUP6 DUP2 MSTORE DUP7 DUP7 DUP7 ADD GT ISZERO PUSH2 0x3343 JUMPI PUSH0 DUP1 REVERT JUMPDEST DUP6 DUP6 PUSH1 0x20 DUP4 ADD CALLDATACOPY PUSH0 PUSH1 0x20 DUP8 DUP4 ADD ADD MSTORE POP POP POP SWAP4 SWAP3 POP POP POP JUMP JUMPDEST PUSH0 DUP3 PUSH1 0x1F DUP4 ADD SLT PUSH2 0x336B JUMPI PUSH0 DUP1 REVERT JUMPDEST PUSH2 0x1FFB DUP4 DUP4 CALLDATALOAD PUSH1 0x20 DUP6 ADD PUSH2 0x32EA JUMP JUMPDEST PUSH0 DUP1 PUSH0 DUP1 PUSH0 DUP1 PUSH1 0xC0 DUP8 DUP10 SUB SLT ISZERO PUSH2 0x338F JUMPI PUSH0 DUP1 REVERT JUMPDEST DUP7 CALLDATALOAD PUSH1 0x1 PUSH1 0x1 PUSH1 0x40 SHL SUB DUP1 DUP3 GT ISZERO PUSH2 0x33A5 JUMPI PUSH0 DUP1 REVERT JUMPDEST PUSH2 0x33B1 DUP11 DUP4 DUP12 ADD PUSH2 0x335C JUMP JUMPDEST SWAP8 POP PUSH1 0x20 DUP10 ADD CALLDATALOAD SWAP7 POP PUSH2 0x33C6 PUSH1 0x40 DUP11 ADD PUSH2 0x3293 JUMP JUMPDEST SWAP6 POP PUSH1 0x60 DUP10 ADD CALLDATALOAD SWAP2 POP DUP1 DUP3 GT ISZERO PUSH2 0x33DB JUMPI PUSH0 DUP1 REVERT JUMPDEST POP PUSH2 0x33E8 DUP10 DUP3 DUP11 ADD PUSH2 0x335C JUMP JUMPDEST SWAP4 POP POP PUSH1 0x80 DUP8 ADD CALLDATALOAD SWAP2 POP PUSH1 0xA0 DUP8 ADD CALLDATALOAD SWAP1 POP SWAP3 SWAP6 POP SWAP3 SWAP6 POP SWAP3 SWAP6 JUMP JUMPDEST PUSH0 DUP1 PUSH0 PUSH1 0x60 DUP5 DUP7 SUB SLT ISZERO PUSH2 0x3415 JUMPI PUSH0 DUP1 REVERT JUMPDEST PUSH2 0x341E DUP5 PUSH2 0x3293 JUMP JUMPDEST SWAP3 POP PUSH2 0x342C PUSH1 0x20 DUP6 ADD PUSH2 0x3293 JUMP JUMPDEST SWAP2 POP PUSH1 0x40 DUP5 ADD CALLDATALOAD SWAP1 POP SWAP3 POP SWAP3 POP SWAP3 JUMP JUMPDEST PUSH0 PUSH1 0x20 DUP3 DUP5 SUB SLT ISZERO PUSH2 0x344C JUMPI PUSH0 DUP1 REVERT JUMPDEST PUSH2 0x1FFB DUP3 PUSH2 0x3293 JUMP JUMPDEST PUSH1 0x20 DUP1 DUP3 MSTORE DUP3 MLOAD DUP3 DUP3 ADD DUP2 SWAP1 MSTORE PUSH0 SWAP2 SWAP1 DUP5 DUP3 ADD SWAP1 PUSH1 0x40 DUP6 ADD SWAP1 DUP5 JUMPDEST DUP2 DUP2 LT ISZERO PUSH2 0x3495 JUMPI DUP4 MLOAD PUSH1 0x1 PUSH1 0x1 PUSH1 0xA0 SHL SUB AND DUP4 MSTORE SWAP3 DUP5 ADD SWAP3 SWAP2 DUP5 ADD SWAP2 PUSH1 0x1 ADD PUSH2 0x3470 JUMP JUMPDEST POP SWAP1 SWAP7 SWAP6 POP POP POP POP POP POP JUMP JUMPDEST PUSH0 DUP1 PUSH1 0x20 DUP4 DUP6 SUB SLT ISZERO PUSH2 0x34B2 JUMPI PUSH0 DUP1 REVERT JUMPDEST DUP3 CALLDATALOAD PUSH1 0x1 PUSH1 0x1 PUSH1 0x40 SHL SUB DUP1 DUP3 GT ISZERO PUSH2 0x34C8 JUMPI PUSH0 DUP1 REVERT JUMPDEST DUP2 DUP6 ADD SWAP2 POP DUP6 PUSH1 0x1F DUP4 ADD SLT PUSH2 0x34DB JUMPI PUSH0 DUP1 REVERT JUMPDEST DUP2 CALLDATALOAD DUP2 DUP2 GT ISZERO PUSH2 0x34E9 JUMPI PUSH0 DUP1 REVERT JUMPDEST DUP7 PUSH1 0x20 DUP3 PUSH1 0x5 SHL DUP6 ADD ADD GT ISZERO PUSH2 0x34FD JUMPI PUSH0 DUP1 REVERT JUMPDEST PUSH1 0x20 SWAP3 SWAP1 SWAP3 ADD SWAP7 SWAP2 SWAP6 POP SWAP1 SWAP4 POP POP POP POP JUMP JUMPDEST PUSH0 DUP1 PUSH1 0x40 DUP4 DUP6 SUB SLT ISZERO PUSH2 0x3520 JUMPI PUSH0 DUP1 REVERT JUMPDEST PUSH2 0x3529 DUP4 PUSH2 0x3293 JUMP JUMPDEST SWAP2 POP PUSH2 0x3537 PUSH1 0x20 DUP5 ADD PUSH2 0x3293 JUMP JUMPDEST SWAP1 POP SWAP3 POP SWAP3 SWAP1 POP JUMP JUMPDEST PUSH1 0x1 DUP1 PUSH1 0xA0 SHL SUB DUP2 MLOAD AND DUP3 MSTORE PUSH1 0x20 DUP2 ADD MLOAD PUSH1 0x20 DUP4 ADD MSTORE PUSH0 PUSH1 0x40 DUP3 ADD MLOAD PUSH1 0xA0 PUSH1 0x40 DUP6 ADD MSTORE PUSH2 0x3570 PUSH1 0xA0 DUP6 ADD DUP3 PUSH2 0x322B JUMP JUMPDEST SWAP1 POP PUSH1 0x60 DUP4 ADD MLOAD ISZERO ISZERO PUSH1 0x60 DUP6 ADD MSTORE PUSH1 0x80 DUP4 ADD MLOAD ISZERO ISZERO PUSH1 0x80 DUP6 ADD MSTORE DUP1 SWAP2 POP POP SWAP3 SWAP2 POP POP JUMP JUMPDEST PUSH1 0xE0 DUP2 MSTORE PUSH0 PUSH2 0x35A6 PUSH1 0xE0 DUP4 ADD DUP11 PUSH2 0x3540 JUMP JUMPDEST DUP3 DUP2 SUB PUSH1 0x20 DUP5 ADD MSTORE PUSH2 0x35B8 DUP2 DUP11 PUSH2 0x3540 JUMP JUMPDEST PUSH1 0x40 DUP5 ADD SWAP9 SWAP1 SWAP9 MSTORE POP POP SWAP4 ISZERO ISZERO PUSH1 0x60 DUP6 ADD MSTORE SWAP2 ISZERO ISZERO PUSH1 0x80 DUP5 ADD MSTORE ISZERO ISZERO PUSH1 0xA0 DUP4 ADD MSTORE PUSH1 0xFF AND PUSH1 0xC0 SWAP1 SWAP2 ADD MSTORE SWAP3 SWAP2 POP POP JUMP JUMPDEST PUSH0 DUP1 PUSH1 0x40 DUP4 DUP6 SUB SLT ISZERO PUSH2 0x35F9 JUMPI PUSH0 DUP1 REVERT JUMPDEST PUSH2 0x3602 DUP4 PUSH2 0x3293 JUMP JUMPDEST SWAP2 POP PUSH1 0x20 DUP4 ADD CALLDATALOAD DUP1 ISZERO ISZERO DUP2 EQ PUSH2 0x3616 JUMPI PUSH0 DUP1 REVERT JUMPDEST DUP1 SWAP2 POP POP SWAP3 POP SWAP3 SWAP1 POP JUMP JUMPDEST PUSH1 0x1 DUP1 PUSH1 0xA0 SHL SUB DUP7 AND DUP2 MSTORE DUP5 PUSH1 0x20 DUP3 ADD MSTORE PUSH1 0xA0 PUSH1 0x40 DUP3 ADD MSTORE PUSH0 PUSH2 0x3647 PUSH1 0xA0 DUP4 ADD DUP7 PUSH2 0x322B JUMP JUMPDEST SWAP4 ISZERO ISZERO PUSH1 0x60 DUP4 ADD MSTORE POP SWAP1 ISZERO ISZERO PUSH1 0x80 SWAP1 SWAP2 ADD MSTORE SWAP4 SWAP3 POP POP POP JUMP JUMPDEST PUSH0 DUP1 PUSH0 DUP1 PUSH1 0x80 DUP6 DUP8 SUB SLT ISZERO PUSH2 0x3673 JUMPI PUSH0 DUP1 REVERT JUMPDEST PUSH2 0x367C DUP6 PUSH2 0x3293 JUMP JUMPDEST SWAP4 POP PUSH2 0x368A PUSH1 0x20 DUP7 ADD PUSH2 0x3293 JUMP JUMPDEST SWAP3 POP PUSH1 0x40 DUP6 ADD CALLDATALOAD SWAP2 POP PUSH1 0x60 DUP6 ADD CALLDATALOAD PUSH1 0x1 PUSH1 0x1 PUSH1 0x40 SHL SUB DUP2 GT ISZERO PUSH2 0x36AB JUMPI PUSH0 DUP1 REVERT JUMPDEST DUP6 ADD PUSH1 0x1F DUP2 ADD DUP8 SGT PUSH2 0x36BB JUMPI PUSH0 DUP1 REVERT JUMPDEST PUSH2 0x36CA DUP8 DUP3 CALLDATALOAD PUSH1 0x20 DUP5 ADD PUSH2 0x32EA JUMP JUMPDEST SWAP2 POP POP SWAP3 SWAP6 SWAP2 SWAP5 POP SWAP3 POP JUMP JUMPDEST PUSH1 0x1 DUP2 DUP2 SHR SWAP1 DUP3 AND DUP1 PUSH2 0x36EA JUMPI PUSH1 0x7F DUP3 AND SWAP2 POP JUMPDEST PUSH1 0x20 DUP3 LT DUP2 SUB PUSH2 0x26C7 JUMPI PUSH4 0x4E487B71 PUSH1 0xE0 SHL PUSH0 MSTORE PUSH1 0x22 PUSH1 0x4 MSTORE PUSH1 0x24 PUSH0 REVERT JUMPDEST PUSH1 0x1F DUP3 GT ISZERO PUSH2 0xDA6 JUMPI PUSH0 DUP2 DUP2 MSTORE PUSH1 0x20 DUP2 KECCAK256 PUSH1 0x1F DUP6 ADD PUSH1 0x5 SHR DUP2 ADD PUSH1 0x20 DUP7 LT ISZERO PUSH2 0x372E JUMPI POP DUP1 JUMPDEST PUSH1 0x1F DUP6 ADD PUSH1 0x5 SHR DUP3 ADD SWAP2 POP JUMPDEST DUP2 DUP2 LT ISZERO PUSH2 0x374D JUMPI DUP3 DUP2 SSTORE PUSH1 0x1 ADD PUSH2 0x373A JUMP JUMPDEST POP POP POP POP POP POP JUMP JUMPDEST PUSH0 NOT PUSH1 0x3 DUP4 SWAP1 SHL SHR NOT AND PUSH1 0x1 SWAP2 SWAP1 SWAP2 SHL OR SWAP1 JUMP JUMPDEST DUP2 MLOAD PUSH1 0x1 PUSH1 0x1 PUSH1 0x40 SHL SUB DUP2 GT ISZERO PUSH2 0x3782 JUMPI PUSH2 0x3782 PUSH2 0x32D6 JUMP JUMPDEST PUSH2 0x3796 DUP2 PUSH2 0x3790 DUP5 SLOAD PUSH2 0x36D6 JUMP JUMPDEST DUP5 PUSH2 0x3708 JUMP JUMPDEST PUSH1 0x20 DUP1 PUSH1 0x1F DUP4 GT PUSH1 0x1 DUP2 EQ PUSH2 0x37C4 JUMPI PUSH0 DUP5 ISZERO PUSH2 0x37B2 JUMPI POP DUP6 DUP4 ADD MLOAD JUMPDEST PUSH2 0x37BC DUP6 DUP3 PUSH2 0x3755 JUMP JUMPDEST DUP7 SSTORE POP PUSH2 0x374D JUMP JUMPDEST PUSH0 DUP6 DUP2 MSTORE PUSH1 0x20 DUP2 KECCAK256 PUSH1 0x1F NOT DUP7 AND SWAP2 JUMPDEST DUP3 DUP2 LT ISZERO PUSH2 0x37F2 JUMPI DUP9 DUP7 ADD MLOAD DUP3 SSTORE SWAP5 DUP5 ADD SWAP5 PUSH1 0x1 SWAP1 SWAP2 ADD SWAP1 DUP5 ADD PUSH2 0x37D3 JUMP JUMPDEST POP DUP6 DUP3 LT ISZERO PUSH2 0x380F JUMPI DUP8 DUP6 ADD MLOAD PUSH0 NOT PUSH1 0x3 DUP9 SWAP1 SHL PUSH1 0xF8 AND SHR NOT AND DUP2 SSTORE JUMPDEST POP POP POP POP POP PUSH1 0x1 SWAP1 DUP2 SHL ADD SWAP1 SSTORE POP JUMP JUMPDEST DUP2 DUP2 SUB PUSH2 0x382A JUMPI POP POP JUMP JUMPDEST PUSH2 0x3834 DUP3 SLOAD PUSH2 0x36D6 JUMP JUMPDEST PUSH1 0x1 PUSH1 0x1 PUSH1 0x40 SHL SUB DUP2 GT ISZERO PUSH2 0x384B JUMPI PUSH2 0x384B PUSH2 0x32D6 JUMP JUMPDEST PUSH2 0x3859 DUP2 PUSH2 0x3790 DUP5 SLOAD PUSH2 0x36D6 JUMP JUMPDEST PUSH0 PUSH1 0x1F DUP3 GT PUSH1 0x1 DUP2 EQ PUSH2 0x3885 JUMPI PUSH0 DUP4 ISZERO PUSH2 0x3873 JUMPI POP DUP5 DUP3 ADD SLOAD JUMPDEST PUSH2 0x387D DUP5 DUP3 PUSH2 0x3755 JUMP JUMPDEST DUP6 SSTORE POP PUSH2 0x2386 JUMP JUMPDEST PUSH0 DUP6 DUP2 MSTORE PUSH1 0x20 SWAP1 KECCAK256 PUSH1 0x1F NOT DUP5 AND SWAP1 PUSH0 DUP7 DUP2 MSTORE PUSH1 0x20 SWAP1 KECCAK256 DUP5 JUMPDEST DUP4 DUP2 LT ISZERO PUSH2 0x38BD JUMPI DUP3 DUP7 ADD SLOAD DUP3 SSTORE PUSH1 0x1 SWAP6 DUP7 ADD SWAP6 SWAP1 SWAP2 ADD SWAP1 PUSH1 0x20 ADD PUSH2 0x389D JUMP JUMPDEST POP DUP6 DUP4 LT ISZERO PUSH2 0x380F JUMPI SWAP4 ADD SLOAD PUSH0 NOT PUSH1 0xF8 PUSH1 0x3 DUP8 SWAP1 SHL AND SHR NOT AND SWAP1 SWAP3 SSTORE POP POP PUSH1 0x1 SWAP1 DUP2 SHL ADD SWAP1 SSTORE POP JUMP JUMPDEST PUSH1 0x1 PUSH1 0x1 PUSH1 0xA0 SHL SUB SWAP3 SWAP1 SWAP3 AND DUP3 MSTORE PUSH1 0x20 DUP3 ADD MSTORE PUSH1 0x40 ADD SWAP1 JUMP JUMPDEST PUSH4 0x4E487B71 PUSH1 0xE0 SHL PUSH0 MSTORE PUSH1 0x32 PUSH1 0x4 MSTORE PUSH1 0x24 PUSH0 REVERT JUMPDEST PUSH1 0x20 DUP1 DUP3 MSTORE PUSH1 0x14 SWAP1 DUP3 ADD MSTORE PUSH20 0x20B2323932B9B9903737BA1032B733B0B3B2B217 PUSH1 0x61 SHL PUSH1 0x40 DUP3 ADD MSTORE PUSH1 0x60 ADD SWAP1 JUMP JUMPDEST PUSH1 0x20 DUP1 DUP3 MSTORE PUSH1 0x22 SWAP1 DUP3 ADD MSTORE PUSH32 0x54686520656E676167656D656E7420697320616C7265616479207265766F6B65 PUSH1 0x40 DUP3 ADD MSTORE PUSH2 0x3217 PUSH1 0xF1 SHL PUSH1 0x60 DUP3 ADD MSTORE PUSH1 0x80 ADD SWAP1 JUMP JUMPDEST PUSH1 0x20 DUP1 DUP3 MSTORE PUSH1 0xF SWAP1 DUP3 ADD MSTORE PUSH15 0x105B1C9958591E481B585C9C9A5959 PUSH1 0x8A SHL PUSH1 0x40 DUP3 ADD MSTORE PUSH1 0x60 ADD SWAP1 JUMP JUMPDEST PUSH4 0x4E487B71 PUSH1 0xE0 SHL PUSH0 MSTORE PUSH1 0x11 PUSH1 0x4 MSTORE PUSH1 0x24 PUSH0 REVERT JUMPDEST DUP1 DUP3 ADD DUP1 DUP3 GT ISZERO PUSH2 0x4AB JUMPI PUSH2 0x4AB PUSH2 0x39AC JUMP JUMPDEST PUSH1 0x20 DUP1 DUP3 MSTORE PUSH1 0x29 SWAP1 DUP3 ADD MSTORE PUSH32 0x43616C6C6572206D757374206265206F6E65206F662074686520656E67616765 PUSH1 0x40 DUP3 ADD MSTORE PUSH9 0x642070617274696573 PUSH1 0xB8 SHL PUSH1 0x60 DUP3 ADD MSTORE PUSH1 0x80 ADD SWAP1 JUMP JUMPDEST PUSH1 0x1 PUSH1 0x1 PUSH1 0xA0 SHL SUB DUP5 DUP2 AND DUP3 MSTORE PUSH1 0x40 PUSH1 0x20 DUP1 DUP5 ADD DUP3 SWAP1 MSTORE SWAP1 DUP4 ADD DUP5 SWAP1 MSTORE PUSH0 SWAP2 DUP6 SWAP2 PUSH1 0x60 DUP6 ADD DUP5 JUMPDEST DUP8 DUP2 LT ISZERO PUSH2 0x3A68 JUMPI DUP4 PUSH2 0x3A55 DUP7 PUSH2 0x3293 JUMP JUMPDEST AND DUP3 MSTORE SWAP4 DUP3 ADD SWAP4 SWAP1 DUP3 ADD SWAP1 PUSH1 0x1 ADD PUSH2 0x3A43 JUMP JUMPDEST POP SWAP9 SWAP8 POP POP POP POP POP POP POP POP JUMP JUMPDEST PUSH1 0x20 DUP1 DUP3 MSTORE PUSH1 0xE SWAP1 DUP3 ADD MSTORE PUSH14 0x139BDD08185D5D1A1BDC9A5E9959 PUSH1 0x92 SHL PUSH1 0x40 DUP3 ADD MSTORE PUSH1 0x60 ADD SWAP1 JUMP JUMPDEST PUSH0 PUSH1 0xFF DUP3 AND PUSH1 0xFF DUP2 SUB PUSH2 0x3AB2 JUMPI PUSH2 0x3AB2 PUSH2 0x39AC JUMP JUMPDEST PUSH1 0x1 ADD SWAP3 SWAP2 POP POP JUMP JUMPDEST PUSH0 PUSH1 0x1 DUP3 ADD PUSH2 0x3ACC JUMPI PUSH2 0x3ACC PUSH2 0x39AC JUMP JUMPDEST POP PUSH1 0x1 ADD SWAP1 JUMP JUMPDEST PUSH1 0xFF DUP2 DUP2 AND DUP4 DUP3 AND ADD SWAP1 DUP2 GT ISZERO PUSH2 0x4AB JUMPI PUSH2 0x4AB PUSH2 0x39AC JUMP JUMPDEST PUSH0 DUP4 MLOAD PUSH2 0x3AFD DUP2 DUP5 PUSH1 0x20 DUP9 ADD PUSH2 0x3209 JUMP JUMPDEST DUP4 MLOAD SWAP1 DUP4 ADD SWAP1 PUSH2 0x3B11 DUP2 DUP4 PUSH1 0x20 DUP9 ADD PUSH2 0x3209 JUMP JUMPDEST ADD SWAP5 SWAP4 POP POP POP POP JUMP JUMPDEST PUSH0 DUP3 PUSH2 0x3B34 JUMPI PUSH4 0x4E487B71 PUSH1 0xE0 SHL PUSH0 MSTORE PUSH1 0x12 PUSH1 0x4 MSTORE PUSH1 0x24 PUSH0 REVERT JUMPDEST POP DIV SWAP1 JUMP JUMPDEST PUSH1 0x1 PUSH1 0x1 PUSH1 0xA0 SHL SUB DUP6 DUP2 AND DUP3 MSTORE DUP5 AND PUSH1 0x20 DUP3 ADD MSTORE PUSH1 0x40 DUP2 ADD DUP4 SWAP1 MSTORE PUSH1 0x80 PUSH1 0x60 DUP3 ADD DUP2 SWAP1 MSTORE PUSH0 SWAP1 PUSH2 0x3B6B SWAP1 DUP4 ADD DUP5 PUSH2 0x322B JUMP JUMPDEST SWAP7 SWAP6 POP POP POP POP POP POP JUMP JUMPDEST PUSH0 PUSH1 0x20 DUP3 DUP5 SUB SLT ISZERO PUSH2 0x3B85 JUMPI PUSH0 DUP1 REVERT JUMPDEST DUP2 MLOAD PUSH2 0x1FFB DUP2 PUSH2 0x31D9 JUMP JUMPDEST DUP2 DUP2 SUB DUP2 DUP2 GT ISZERO PUSH2 0x4AB JUMPI PUSH2 0x4AB PUSH2 0x39AC JUMP JUMPDEST PUSH4 0x4E487B71 PUSH1 0xE0 SHL PUSH0 MSTORE PUSH1 0x31 PUSH1 0x4 MSTORE PUSH1 0x24 PUSH0 REVERT INVALID LOG2 PUSH5 0x6970667358 0x22 SLT KECCAK256 0xD7 0xE0 NUMBER CALLDATASIZE 0xED PUSH17 0xF210A1135CCD4341D2E7D3AF51E758804A CODESIZE PUSH19 0x3EBA38176759E064736F6C6343000815003300 "
		},
		"gasEstimates": {
			"creation": {
				"codeDepositCost": "3068200",
				"executionCost": "infinite",
				"totalCost": "infinite"
			},
			"external": {
				"approve(address,uint256)": "31531",
				"authorisedAccount()": "2471",
				"balanceOf(address)": "2608",
				"burnCertificate(uint256)": "238179",
				"confirmGuestList()": "infinite",
				"engagements(address)": "infinite",
				"getApproved(uint256)": "infinite",
				"getEngagementInfo(address)": "infinite",
				"getGuestList(address)": "infinite",
				"guestLists(address)": "4740",
				"isApprovedForAll(address,address)": "infinite",
				"isGuestConfirmed(address,address)": "infinite",
				"marry()": "infinite",
				"name()": "infinite",
				"ownerOf(uint256)": "infinite",
				"proposeGuestList(address[])": "infinite",
				"registerEngagement(string,uint256,address,string,uint256,uint256)": "infinite",
				"revokeEngagement()": "infinite",
				"safeTransferFrom(address,address,uint256)": "infinite",
				"safeTransferFrom(address,address,uint256,bytes)": "infinite",
				"setApprovalForAll(address,bool)": "26678",
				"spouses(address)": "infinite",
				"supportsInterface(bytes4)": "infinite",
				"symbol()": "infinite",
				"tokenByIndex(uint256)": "6799",
				"tokenOfOwnerByIndex(address,uint256)": "4969",
				"tokenURI(uint256)": "infinite",
				"totalSupply()": "2414",
				"transferFrom(address,address,uint256)": "infinite",
				"voteAgainstWedding(address)": "infinite",
				"voteBurn()": "33381"
			},
			"internal": {
				"_checkAndInvalidateWedding(address)": "infinite",
				"getGuestListKey(address)": "infinite"
			}
		},
		"methodIdentifiers": {
			"approve(address,uint256)": "095ea7b3",
			"authorisedAccount()": "5d00927e",
			"balanceOf(address)": "70a08231",
			"burnCertificate(uint256)": "93b16b45",
			"confirmGuestList()": "e83dc185",
			"engagements(address)": "a22690a8",
			"getApproved(uint256)": "081812fc",
			"getEngagementInfo(address)": "b95afe03",
			"getGuestList(address)": "5dd4e938",
			"guestLists(address)": "2b80fa28",
			"isApprovedForAll(address,address)": "e985e9c5",
			"isGuestConfirmed(address,address)": "9dcaf479",
			"marry()": "85b9a11f",
			"name()": "06fdde03",
			"ownerOf(uint256)": "6352211e",
			"proposeGuestList(address[])": "90106c5e",
			"registerEngagement(string,uint256,address,string,uint256,uint256)": "0e12f150",
			"revokeEngagement()": "6d955eb5",
			"safeTransferFrom(address,address,uint256)": "42842e0e",
			"safeTransferFrom(address,address,uint256,bytes)": "b88d4fde",
			"setApprovalForAll(address,bool)": "a22cb465",
			"spouses(address)": "a498e802",
			"supportsInterface(bytes4)": "01ffc9a7",
			"symbol()": "95d89b41",
			"tokenByIndex(uint256)": "4f6ccce7",
			"tokenOfOwnerByIndex(address,uint256)": "2f745c59",
			"tokenURI(uint256)": "c87b56dd",
			"totalSupply()": "18160ddd",
			"transferFrom(address,address,uint256)": "23b872dd",
			"voteAgainstWedding(address)": "a1905e4e",
			"voteBurn()": "bfd44472"
		}
	},
	"abi": [
		{
			"inputs": [],
			"stateMutability": "nonpayable",
			"type": "constructor"
		},
		{
			"inputs": [],
			"name": "ERC721EnumerableForbiddenBatchMint",
			"type": "error"
		},
		{
			"inputs": [
				{
					"internalType": "address",
					"name": "sender",
					"type": "address"
				},
				{
					"internalType": "uint256",
					"name": "tokenId",
					"type": "uint256"
				},
				{
					"internalType": "address",
					"name": "owner",
					"type": "address"
				}
			],
			"name": "ERC721IncorrectOwner",
			"type": "error"
		},
		{
			"inputs": [
				{
					"internalType": "address",
					"name": "operator",
					"type": "address"
				},
				{
					"internalType": "uint256",
					"name": "tokenId",
					"type": "uint256"
				}
			],
			"name": "ERC721InsufficientApproval",
			"type": "error"
		},
		{
			"inputs": [
				{
					"internalType": "address",
					"name": "approver",
					"type": "address"
				}
			],
			"name": "ERC721InvalidApprover",
			"type": "error"
		},
		{
			"inputs": [
				{
					"internalType": "address",
					"name": "operator",
					"type": "address"
				}
			],
			"name": "ERC721InvalidOperator",
			"type": "error"
		},
		{
			"inputs": [
				{
					"internalType": "address",
					"name": "owner",
					"type": "address"
				}
			],
			"name": "ERC721InvalidOwner",
			"type": "error"
		},
		{
			"inputs": [
				{
					"internalType": "address",
					"name": "receiver",
					"type": "address"
				}
			],
			"name": "ERC721InvalidReceiver",
			"type": "error"
		},
		{
			"inputs": [
				{
					"internalType": "address",
					"name": "sender",
					"type": "address"
				}
			],
			"name": "ERC721InvalidSender",
			"type": "error"
		},
		{
			"inputs": [
				{
					"internalType": "uint256",
					"name": "tokenId",
					"type": "uint256"
				}
			],
			"name": "ERC721NonexistentToken",
			"type": "error"
		},
		{
			"inputs": [
				{
					"internalType": "address",
					"name": "owner",
					"type": "address"
				},
				{
					"internalType": "uint256",
					"name": "index",
					"type": "uint256"
				}
			],
			"name": "ERC721OutOfBoundsIndex",
			"type": "error"
		},
		{
			"anonymous": false,
			"inputs": [
				{
					"indexed": true,
					"internalType": "address",
					"name": "owner",
					"type": "address"
				},
				{
					"indexed": true,
					"internalType": "address",
					"name": "approved",
					"type": "address"
				},
				{
					"indexed": true,
					"internalType": "uint256",
					"name": "tokenId",
					"type": "uint256"
				}
			],
			"name": "Approval",
			"type": "event"
		},
		{
			"anonymous": false,
			"inputs": [
				{
					"indexed": true,
					"internalType": "address",
					"name": "owner",
					"type": "address"
				},
				{
					"indexed": true,
					"internalType": "address",
					"name": "operator",
					"type": "address"
				},
				{
					"indexed": false,
					"internalType": "bool",
					"name": "approved",
					"type": "bool"
				}
			],
			"name": "ApprovalForAll",
			"type": "event"
		},
		{
			"anonymous": false,
			"inputs": [
				{
					"indexed": false,
					"internalType": "address",
					"name": "spouse1",
					"type": "address"
				},
				{
					"indexed": false,
					"internalType": "address",
					"name": "spouse2",
					"type": "address"
				},
				{
					"indexed": false,
					"internalType": "uint256",
					"name": "weddingDate",
					"type": "uint256"
				}
			],
			"name": "EngagementRegistered",
			"type": "event"
		},
		{
			"anonymous": false,
			"inputs": [
				{
					"indexed": false,
					"internalType": "address",
					"name": "caller",
					"type": "address"
				},
				{
					"indexed": false,
					"internalType": "uint256",
					"name": "revokedDate",
					"type": "uint256"
				}
			],
			"name": "EngagementRevoked",
			"type": "event"
		},
		{
			"anonymous": false,
			"inputs": [
				{
					"indexed": false,
					"internalType": "address",
					"name": "spouse",
					"type": "address"
				}
			],
			"name": "GuestListConfirmed",
			"type": "event"
		},
		{
			"anonymous": false,
			"inputs": [
				{
					"indexed": false,
					"internalType": "address",
					"name": "spouse",
					"type": "address"
				},
				{
					"indexed": false,
					"internalType": "address[]",
					"name": "guests",
					"type": "address[]"
				}
			],
			"name": "GuestListProposed",
			"type": "event"
		},
		{
			"anonymous": false,
			"inputs": [
				{
					"indexed": false,
					"internalType": "address",
					"name": "guest",
					"type": "address"
				},
				{
					"indexed": false,
					"internalType": "address",
					"name": "spouse",
					"type": "address"
				}
			],
			"name": "GuestVotedAgainst",
			"type": "event"
		},
		{
			"anonymous": false,
			"inputs": [
				{
					"indexed": false,
					"internalType": "address",
					"name": "spouse1",
					"type": "address"
				},
				{
					"indexed": false,
					"internalType": "address",
					"name": "spouse2",
					"type": "address"
				}
			],
			"name": "MarriageConfirmed",
			"type": "event"
		},
		{
			"anonymous": false,
			"inputs": [
				{
					"indexed": true,
					"internalType": "address",
					"name": "from",
					"type": "address"
				},
				{
					"indexed": true,
					"internalType": "address",
					"name": "to",
					"type": "address"
				},
				{
					"indexed": true,
					"internalType": "uint256",
					"name": "tokenId",
					"type": "uint256"
				}
			],
			"name": "Transfer",
			"type": "event"
		},
		{
			"anonymous": false,
			"inputs": [
				{
					"indexed": false,
					"internalType": "address",
					"name": "spouse",
					"type": "address"
				}
			],
			"name": "WeddingInvalidated",
			"type": "event"
		},
		{
			"anonymous": false,
			"inputs": [
				{
					"indexed": false,
					"internalType": "uint256",
					"name": "token",
					"type": "uint256"
				}
			],
			"name": "token",
			"type": "event"
		},
		{
			"inputs": [
				{
					"internalType": "address",
					"name": "to",
					"type": "address"
				},
				{
					"internalType": "uint256",
					"name": "tokenId",
					"type": "uint256"
				}
			],
			"name": "approve",
			"outputs": [],
			"stateMutability": "nonpayable",
			"type": "function"
		},
		{
			"inputs": [],
			"name": "authorisedAccount",
			"outputs": [
				{
					"internalType": "address",
					"name": "",
					"type": "address"
				}
			],
			"stateMutability": "view",
			"type": "function"
		},
		{
			"inputs": [
				{
					"internalType": "address",
					"name": "owner",
					"type": "address"
				}
			],
			"name": "balanceOf",
			"outputs": [
				{
					"internalType": "uint256",
					"name": "",
					"type": "uint256"
				}
			],
			"stateMutability": "view",
			"type": "function"
		},
		{
			"inputs": [
				{
					"internalType": "uint256",
					"name": "tokenId",
					"type": "uint256"
				}
			],
			"name": "burnCertificate",
			"outputs": [],
			"stateMutability": "nonpayable",
			"type": "function"
		},
		{
			"inputs": [],
			"name": "confirmGuestList",
			"outputs": [],
			"stateMutability": "nonpayable",
			"type": "function"
		},
		{
			"inputs": [
				{
					"internalType": "address",
					"name": "",
					"type": "address"
				}
			],
			"name": "engagements",
			"outputs": [
				{
					"components": [
						{
							"internalType": "address",
							"name": "spouseAddress",
							"type": "address"
						},
						{
							"internalType": "uint256",
							"name": "id",
							"type": "uint256"
						},
						{
							"internalType": "string",
							"name": "name",
							"type": "string"
						},
						{
							"internalType": "bool",
							"name": "isEngaged",
							"type": "bool"
						},
						{
							"internalType": "bool",
							"name": "isMarried",
							"type": "bool"
						}
					],
					"internalType": "struct EngagementRegistry.Spouse",
					"name": "spouse1",
					"type": "tuple"
				},
				{
					"components": [
						{
							"internalType": "address",
							"name": "spouseAddress",
							"type": "address"
						},
						{
							"internalType": "uint256",
							"name": "id",
							"type": "uint256"
						},
						{
							"internalType": "string",
							"name": "name",
							"type": "string"
						},
						{
							"internalType": "bool",
							"name": "isEngaged",
							"type": "bool"
						},
						{
							"internalType": "bool",
							"name": "isMarried",
							"type": "bool"
						}
					],
					"internalType": "struct EngagementRegistry.Spouse",
					"name": "spouse2",
					"type": "tuple"
				},
				{
					"internalType": "uint256",
					"name": "weddingDate",
					"type": "uint256"
				},
				{
					"internalType": "bool",
					"name": "isRevoked",
					"type": "bool"
				},
				{
					"internalType": "bool",
					"name": "spouse1ConfirmedMarriage",
					"type": "bool"
				},
				{
					"internalType": "bool",
					"name": "spouse2ConfirmedMarriage",
					"type": "bool"
				},
				{
					"internalType": "uint8",
					"name": "burnCertificate",
					"type": "uint8"
				}
			],
			"stateMutability": "view",
			"type": "function"
		},
		{
			"inputs": [
				{
					"internalType": "uint256",
					"name": "tokenId",
					"type": "uint256"
				}
			],
			"name": "getApproved",
			"outputs": [
				{
					"internalType": "address",
					"name": "",
					"type": "address"
				}
			],
			"stateMutability": "view",
			"type": "function"
		},
		{
			"inputs": [
				{
					"internalType": "address",
					"name": "_spouse",
					"type": "address"
				}
			],
			"name": "getEngagementInfo",
			"outputs": [
				{
					"internalType": "address",
					"name": "",
					"type": "address"
				},
				{
					"internalType": "address",
					"name": "",
					"type": "address"
				},
				{
					"internalType": "uint256",
					"name": "",
					"type": "uint256"
				},
				{
					"internalType": "bool",
					"name": "",
					"type": "bool"
				},
				{
					"internalType": "bool",
					"name": "",
					"type": "bool"
				}
			],
			"stateMutability": "view",
			"type": "function"
		},
		{
			"inputs": [
				{
					"internalType": "address",
					"name": "_spouse",
					"type": "address"
				}
			],
			"name": "getGuestList",
			"outputs": [
				{
					"internalType": "address[]",
					"name": "",
					"type": "address[]"
				}
			],
			"stateMutability": "view",
			"type": "function"
		},
		{
			"inputs": [
				{
					"internalType": "address",
					"name": "",
					"type": "address"
				}
			],
			"name": "guestLists",
			"outputs": [
				{
					"internalType": "bool",
					"name": "spouse1Confirmed",
					"type": "bool"
				},
				{
					"internalType": "bool",
					"name": "spouse2Confirmed",
					"type": "bool"
				},
				{
					"internalType": "uint256",
					"name": "votesAgainst",
					"type": "uint256"
				}
			],
			"stateMutability": "view",
			"type": "function"
		},
		{
			"inputs": [
				{
					"internalType": "address",
					"name": "owner",
					"type": "address"
				},
				{
					"internalType": "address",
					"name": "operator",
					"type": "address"
				}
			],
			"name": "isApprovedForAll",
			"outputs": [
				{
					"internalType": "bool",
					"name": "",
					"type": "bool"
				}
			],
			"stateMutability": "view",
			"type": "function"
		},
		{
			"inputs": [
				{
					"internalType": "address",
					"name": "_spouse",
					"type": "address"
				},
				{
					"internalType": "address",
					"name": "_guest",
					"type": "address"
				}
			],
			"name": "isGuestConfirmed",
			"outputs": [
				{
					"internalType": "bool",
					"name": "",
					"type": "bool"
				}
			],
			"stateMutability": "view",
			"type": "function"
		},
		{
			"inputs": [],
			"name": "marry",
			"outputs": [],
			"stateMutability": "nonpayable",
			"type": "function"
		},
		{
			"inputs": [],
			"name": "name",
			"outputs": [
				{
					"internalType": "string",
					"name": "",
					"type": "string"
				}
			],
			"stateMutability": "view",
			"type": "function"
		},
		{
			"inputs": [
				{
					"internalType": "uint256",
					"name": "tokenId",
					"type": "uint256"
				}
			],
			"name": "ownerOf",
			"outputs": [
				{
					"internalType": "address",
					"name": "",
					"type": "address"
				}
			],
			"stateMutability": "view",
			"type": "function"
		},
		{
			"inputs": [
				{
					"internalType": "address[]",
					"name": "_guests",
					"type": "address[]"
				}
			],
			"name": "proposeGuestList",
			"outputs": [],
			"stateMutability": "nonpayable",
			"type": "function"
		},
		{
			"inputs": [
				{
					"internalType": "string",
					"name": "_proposerName",
					"type": "string"
				},
				{
					"internalType": "uint256",
					"name": "_proposerID",
					"type": "uint256"
				},
				{
					"internalType": "address",
					"name": "_proposeeAddress",
					"type": "address"
				},
				{
					"internalType": "string",
					"name": "_proposeeName",
					"type": "string"
				},
				{
					"internalType": "uint256",
					"name": "_proposeeID",
					"type": "uint256"
				},
				{
					"internalType": "uint256",
					"name": "_weddingDate",
					"type": "uint256"
				}
			],
			"name": "registerEngagement",
			"outputs": [],
			"stateMutability": "nonpayable",
			"type": "function"
		},
		{
			"inputs": [],
			"name": "revokeEngagement",
			"outputs": [],
			"stateMutability": "nonpayable",
			"type": "function"
		},
		{
			"inputs": [
				{
					"internalType": "address",
					"name": "from",
					"type": "address"
				},
				{
					"internalType": "address",
					"name": "to",
					"type": "address"
				},
				{
					"internalType": "uint256",
					"name": "tokenId",
					"type": "uint256"
				}
			],
			"name": "safeTransferFrom",
			"outputs": [],
			"stateMutability": "nonpayable",
			"type": "function"
		},
		{
			"inputs": [
				{
					"internalType": "address",
					"name": "from",
					"type": "address"
				},
				{
					"internalType": "address",
					"name": "to",
					"type": "address"
				},
				{
					"internalType": "uint256",
					"name": "tokenId",
					"type": "uint256"
				},
				{
					"internalType": "bytes",
					"name": "data",
					"type": "bytes"
				}
			],
			"name": "safeTransferFrom",
			"outputs": [],
			"stateMutability": "nonpayable",
			"type": "function"
		},
		{
			"inputs": [
				{
					"internalType": "address",
					"name": "operator",
					"type": "address"
				},
				{
					"internalType": "bool",
					"name": "approved",
					"type": "bool"
				}
			],
			"name": "setApprovalForAll",
			"outputs": [],
			"stateMutability": "nonpayable",
			"type": "function"
		},
		{
			"inputs": [
				{
					"internalType": "address",
					"name": "",
					"type": "address"
				}
			],
			"name": "spouses",
			"outputs": [
				{
					"internalType": "address",
					"name": "spouseAddress",
					"type": "address"
				},
				{
					"internalType": "uint256",
					"name": "id",
					"type": "uint256"
				},
				{
					"internalType": "string",
					"name": "name",
					"type": "string"
				},
				{
					"internalType": "bool",
					"name": "isEngaged",
					"type": "bool"
				},
				{
					"internalType": "bool",
					"name": "isMarried",
					"type": "bool"
				}
			],
			"stateMutability": "view",
			"type": "function"
		},
		{
			"inputs": [
				{
					"internalType": "bytes4",
					"name": "interfaceId",
					"type": "bytes4"
				}
			],
			"name": "supportsInterface",
			"outputs": [
				{
					"internalType": "bool",
					"name": "",
					"type": "bool"
				}
			],
			"stateMutability": "view",
			"type": "function"
		},
		{
			"inputs": [],
			"name": "symbol",
			"outputs": [
				{
					"internalType": "string",
					"name": "",
					"type": "string"
				}
			],
			"stateMutability": "view",
			"type": "function"
		},
		{
			"inputs": [
				{
					"internalType": "uint256",
					"name": "index",
					"type": "uint256"
				}
			],
			"name": "tokenByIndex",
			"outputs": [
				{
					"internalType": "uint256",
					"name": "",
					"type": "uint256"
				}
			],
			"stateMutability": "view",
			"type": "function"
		},
		{
			"inputs": [
				{
					"internalType": "address",
					"name": "owner",
					"type": "address"
				},
				{
					"internalType": "uint256",
					"name": "index",
					"type": "uint256"
				}
			],
			"name": "tokenOfOwnerByIndex",
			"outputs": [
				{
					"internalType": "uint256",
					"name": "",
					"type": "uint256"
				}
			],
			"stateMutability": "view",
			"type": "function"
		},
		{
			"inputs": [
				{
					"internalType": "uint256",
					"name": "tokenId",
					"type": "uint256"
				}
			],
			"name": "tokenURI",
			"outputs": [
				{
					"internalType": "string",
					"name": "",
					"type": "string"
				}
			],
			"stateMutability": "view",
			"type": "function"
		},
		{
			"inputs": [],
			"name": "totalSupply",
			"outputs": [
				{
					"internalType": "uint256",
					"name": "",
					"type": "uint256"
				}
			],
			"stateMutability": "view",
			"type": "function"
		},
		{
			"inputs": [
				{
					"internalType": "address",
					"name": "from",
					"type": "address"
				},
				{
					"internalType": "address",
					"name": "to",
					"type": "address"
				},
				{
					"internalType": "uint256",
					"name": "tokenId",
					"type": "uint256"
				}
			],
			"name": "transferFrom",
			"outputs": [],
			"stateMutability": "nonpayable",
			"type": "function"
		},
		{
			"inputs": [
				{
					"internalType": "address",
					"name": "_spouse",
					"type": "address"
				}
			],
			"name": "voteAgainstWedding",
			"outputs": [],
			"stateMutability": "nonpayable",
			"type": "function"
		},
		{
			"inputs": [],
			"name": "voteBurn",
			"outputs": [],
			"stateMutability": "nonpayable",
			"type": "function"
		}
	]
}