{
	"data": {
		"bytecode": {
			"linkReferences": {},
			"object": "608060405234801562000010575f80fd5b5060405180604001604052806012815260200171456e676167656d656e74526567697374727960701b8152506040518060400160405280600381526020016222a72960e91b815250815f908162000068919062000146565b50600162000077828262000146565b5050600a80546001600160a01b031916731ae0ea34a72d944a8c7603ffb3ec30a6669e454c179055506200020e565b634e487b7160e01b5f52604160045260245ffd5b600181811c90821680620000cf57607f821691505b602082108103620000ee57634e487b7160e01b5f52602260045260245ffd5b50919050565b601f82111562000141575f81815260208120601f850160051c810160208610156200011c5750805b601f850160051c820191505b818110156200013d5782815560010162000128565b5050505b505050565b81516001600160401b03811115620001625762000162620000a6565b6200017a81620001738454620000ba565b84620000f4565b602080601f831160018114620001b0575f8415620001985750858301515b5f19600386901b1c1916600185901b1785556200013d565b5f85815260208120601f198616915b82811015620001e057888601518255948401946001909101908401620001bf565b5085821015620001fe57878501515f19600388901b60f8161c191681555b5050505050600190811b01905550565b6130a3806200021c5f395ff3fe608060405234801561000f575f80fd5b5060043610610173575f3560e01c806301ffc9a71461017757806306fdde031461019f578063081812fc146101b4578063095ea7b3146101d457806318160ddd146101e957806323b872dd146101fb57806329cb924d1461020e5780632b80fa28146102145780632f745c591461026757806342842e0e1461027a5780634f6ccce71461028d5780635d00927e146102a05780636352211e146102b35780636d955eb5146102c657806370a08231146102ce5780638c434709146102e157806390106c5e146102e957806393b16b45146102fc57806395d89b411461030f578063987e9533146103175780639dcaf4791461032a578063a1905e4e1461033d578063a22690a814610350578063a22cb46514610415578063a498e80214610428578063b88d4fde1461048d578063bfd44472146104a0578063c87b56dd146104a8578063e83dc185146104bb578063e985e9c5146104c3578063ed9f8d1c146104d6575b5f80fd5b61018a6101853660046129c0565b6104de565b60405190151581526020015b60405180910390f35b6101a7610508565b6040516101969190612a28565b6101c76101c2366004612a3a565b610597565b6040516101969190612a51565b6101e76101e2366004612a80565b6105ab565b005b6008545b604051908152602001610196565b6101e7610209366004612aa8565b6105ba565b426101ed565b61024a610222366004612ae1565b600d6020525f90815260409020600181015460039091015460ff808316926101009004169083565b604080519315158452911515602084015290820152606001610196565b6101ed610275366004612a80565b61061f565b6101e7610288366004612aa8565b610674565b6101ed61029b366004612a3a565b610693565b600a546101c7906001600160a01b031681565b6101c76102c1366004612a3a565b6106e3565b6101e76106ed565b6101ed6102dc366004612ae1565b61080f565b6101e7610854565b6101e76102f7366004612afa565b610a95565b6101e761030a366004612a3a565b610c77565b6101a7610cbf565b6101e7610325366004612a80565b610cce565b61018a610338366004612b68565b611412565b6101e761034b366004612ae1565b6114cc565b61040261035e366004612ae1565b600c60209081525f91825260409182902082516060808201855282546001600160a01b03808216845260ff600160a01b8084048216151586890152600160a81b9384900482161515868a01528851948501895260018701549283168552820481161515968401969096520484161515948101949094526002820154600390920154909392818116916101008104821691620100008204811691630100000090041687565b6040516101969796959493929190612bbf565b6101e7610423366004612c0c565b61170e565b610466610436366004612ae1565b600b6020525f90815260409020546001600160a01b0381169060ff600160a01b8204811691600160a81b90041683565b604080516001600160a01b0390941684529115156020840152151590820152606001610196565b6101e761049b366004612c59565b611719565b6101e7611736565b6101a76104b6366004612a3a565b6117d7565b6101e7611848565b61018a6104d1366004612b68565b611a37565b6101e7611a64565b5f6001600160e01b0319821663780e9d6360e01b1480610502575061050282611cf4565b92915050565b60605f805461051690612d2d565b80601f016020809104026020016040519081016040528092919081815260200182805461054290612d2d565b801561058d5780601f106105645761010080835404028352916020019161058d565b820191905f5260205f20905b81548152906001019060200180831161057057829003601f168201915b5050505050905090565b5f6105a182611d43565b5061050282611d7a565b6105b6828233611d94565b5050565b60405162461bcd60e51b815260206004820152602f60248201527f57656464696e67206365727469666963617465207472616e736665722061726560448201526e081b9bdd08185d5d1a1bdc9a5e9959608a1b60648201526084015b60405180910390fd5b5f6106298361080f565b821061064c57828260405163295f44f760e21b8152600401610616929190612d65565b506001600160a01b03919091165f908152600660209081526040808320938352929052205490565b61068e83838360405180602001604052805f815250611719565b505050565b5f61069d60085490565b82106106c0575f8260405163295f44f760e21b8152600401610616929190612d65565b600882815481106106d3576106d3612d7e565b905f5260205f2001549050919050565b5f61050282611d43565b335f818152600c602052604090206003015460ff161561071f5760405162461bcd60e51b815260040161061690612d92565b335f818152600c6020908152604080832080546001600160a01b03908116855282852080546001600160b01b03199081168255600182810180548316905560028084018990556003938401805463ffffffff19908116909155828701805487168b52888b20805486168155938401805490951690945590820189905592018054909216909155825482168652600b909452828520805460ff60a01b1990811690915593541684529281902080549092169091555190917f1271c287650062f685bd2f225144d7b6b046826a5a70632c8f873240d04a54c69161080391904290612d65565b60405180910390a15050565b5f6001600160a01b038216610839575f6040516322718ad960e21b81526004016106169190612a51565b506001600160a01b03165f9081526003602052604090205490565b335f818152600c6020908152604080832081516101408101835281546001600160a01b0381811660e0840190815260ff600160a01b8085048216151561010080880191909152600160a81b9586900483161515610120880152928652875160608181018a526001890154808716835292830484161515828c01529590910482161515818901528589015260028601548588015260039095015480861615159385019390935282048416151560808401526201000082048416151560a0840152630100000090910490921660c082015280515182168552600b9093529220549091168214806109625750602081810151516001600160a01b039081165f908152600b9092526040909120541633145b61097e5760405162461bcd60e51b815260040161061690612dd4565b335f818152600c602052604090206003015460ff16156109b05760405162461bcd60e51b815260040161061690612d92565b335f818152600b6020526040902054600160a81b900460ff16156109e65760405162461bcd60e51b815260040161061690612e1d565b5f600c5f6109f333611da1565b6001600160a01b03908116825260208201929092526040015f208054909250163303610a2f5760038101805461ff001916610100179055610a57565b60018101546001600160a01b03163303610a575760038101805462ff00001916620100001790555b7f046d8abd270fce195a0de9f22fc55ed1b5c6b4a38b0723362f84126d24e6817133604051610a869190612a51565b60405180910390a15050505050565b335f818152600c6020908152604080832081516101408101835281546001600160a01b0381811660e0840190815260ff600160a01b8085048216151561010080880191909152600160a81b9586900483161515610120880152928652875160608181018a526001890154808716835292830484161515828c01529590910482161515818901528589015260028601548588015260039095015480861615159385019390935282048416151560808401526201000082048416151560a0840152630100000090910490921660c082015280515182168552600b909352922054909116821480610ba35750602081810151516001600160a01b039081165f908152600b9092526040909120541633145b610bbf5760405162461bcd60e51b815260040161061690612dd4565b335f818152600b6020526040902054600160a81b900460ff1615610bf55760405162461bcd60e51b815260040161061690612e1d565b5f610bff33611da1565b6001600160a01b0381165f908152600d60205260409020909150610c24818888612936565b5060018101805461ffff191690556040517f402f0cdbbd3e7bdbd2c1fc4d920fa1ee7a733238220198df262284a1259d0be690610c669033908a908a90612e46565b60405180910390a150505050505050565b335f908152600c60205260409020600301546001630100000090910460ff1611610cb35760405162461bcd60e51b815260040161061690612e9f565b610cbc81611e7f565b50565b60606001805461051690612d2d565b816001600160a01b0381163303610d225760405162461bcd60e51b815260206004820152601860248201527721b0b73737ba1032b733b0b3b2903a379037b732b9b2b63360411b6044820152606401610616565b335f908152600b60205260409020548390600160a01b900460ff16158015610d6957506001600160a01b0381165f908152600b6020526040902054600160a01b900460ff16155b610dcd5760405162461bcd60e51b815260206004820152602f60248201527f4f6e65206f7220626f7468206f66207468652073706f7573657320617265206160448201526e363932b0b23c9032b733b0b3b2b21760891b6064820152608401610616565b6040518060600160405280336001600160a01b031681526020016001151581526020015f1515815250600b5f336001600160a01b03166001600160a01b031681526020019081526020015f205f820151815f015f6101000a8154816001600160a01b0302191690836001600160a01b031602179055506020820151815f0160146101000a81548160ff0219169083151502179055506040820151815f0160156101000a81548160ff0219169083151502179055509050506040518060600160405280856001600160a01b031681526020016001151581526020015f1515815250600b5f866001600160a01b03166001600160a01b031681526020019081526020015f205f820151815f015f6101000a8154816001600160a01b0302191690836001600160a01b031602179055506020820151815f0160146101000a81548160ff0219169083151502179055506040820151815f0160156101000a81548160ff0219169083151502179055509050505f6040518060e00160405280600b5f336001600160a01b03166001600160a01b031681526020019081526020015f206040518060600160405290815f82015f9054906101000a90046001600160a01b03166001600160a01b03166001600160a01b031681526020015f820160149054906101000a900460ff161515151581526020015f820160159054906101000a900460ff1615151515815250508152602001600b5f886001600160a01b03166001600160a01b031681526020019081526020015f206040518060600160405290815f82015f9054906101000a90046001600160a01b03166001600160a01b03166001600160a01b031681526020015f820160149054906101000a900460ff161515151581526020015f820160159054906101000a900460ff16151515158152505081526020018581526020015f151581526020015f151581526020015f151581526020015f60ff16815250905080600c5f336001600160a01b03166001600160a01b031681526020019081526020015f205f820151815f015f820151815f015f6101000a8154816001600160a01b0302191690836001600160a01b031602179055506020820151815f0160146101000a81548160ff0219169083151502179055506040820151815f0160156101000a81548160ff02191690831515021790555050506020820151816001015f820151815f015f6101000a8154816001600160a01b0302191690836001600160a01b031602179055506020820151815f0160146101000a81548160ff0219169083151502179055506040820151815f0160156101000a81548160ff0219169083151502179055505050604082015181600201556060820151816003015f6101000a81548160ff02191690831515021790555060808201518160030160016101000a81548160ff02191690831515021790555060a08201518160030160026101000a81548160ff02191690831515021790555060c08201518160030160036101000a81548160ff021916908360ff16021790555090505080600c5f876001600160a01b03166001600160a01b031681526020019081526020015f205f820151815f015f820151815f015f6101000a8154816001600160a01b0302191690836001600160a01b031602179055506020820151815f0160146101000a81548160ff0219169083151502179055506040820151815f0160156101000a81548160ff02191690831515021790555050506020820151816001015f820151815f015f6101000a8154816001600160a01b0302191690836001600160a01b031602179055506020820151815f0160146101000a81548160ff0219169083151502179055506040820151815f0160156101000a81548160ff0219169083151502179055505050604082015181600201556060820151816003015f6101000a81548160ff02191690831515021790555060808201518160030160016101000a81548160ff02191690831515021790555060a08201518160030160026101000a81548160ff02191690831515021790555060c08201518160030160036101000a81548160ff021916908360ff1602179055509050507f7a7f38be04afb87e39b4cb52bec76c69c4d999f605bd21054b71a3f2dc085821338686604051610a86939291906001600160a01b039384168152919092166020820152604081019190915260600190565b5f8061141d84611da1565b6001600160a01b0381165f908152600d6020526040902060018101549192509060ff16801561145557506001810154610100900460ff165b156114c2575f5b815460ff821610156114c057846001600160a01b0316825f018260ff168154811061148957611489612d7e565b5f918252602090912001546001600160a01b0316036114ae5760019350505050610502565b806114b881612edb565b91505061145c565b505b505f949350505050565b6001600160a01b0381165f908152600c6020526040902060030154819060ff16156115095760405162461bcd60e51b815260040161061690612d92565b6001600160a01b0382165f908152600b60205260409020548290600160a81b900460ff161561154a5760405162461bcd60e51b815260040161061690612e1d565b6001600160a01b0383165f908152600b60205260409020548390600160a01b900460ff1615156001146115b65760405162461bcd60e51b815260206004820152601460248201527320b2323932b9b9903737ba1032b733b0b3b2b21760611b6044820152606401610616565b836115c18133611412565b6116055760405162461bcd60e51b8152602060048201526015602482015274139bdd08184818dbdb999a5c9b59590819dd595cdd605a1b6044820152606401610616565b6001600160a01b0385165f908152600d60209081526040808320338452600201909152902054859060ff161561166d5760405162461bcd60e51b815260206004820152600d60248201526c105b1c9958591e481d9bdd1959609a1b6044820152606401610616565b5f61167787611da1565b6001600160a01b0381165f908152600d60209081526040808320338452600281019092528220805460ff191660011790556003810180549394509092916116bd83612ef9565b91905055507fa9862c5f43caca0b960b097a111ce8c3752d27df0e0f1f170b4a06a823e612b133896040516116f3929190612f11565b60405180910390a161170488611eb7565b5050505050505050565b6105b6338383611fc6565b6117248484846105ba565b6117308484848461205b565b50505050565b335f818152600c60205260409020805490916001600160a01b0390911614806117695750600a546001600160a01b031633145b80611780575060018101546001600160a01b031633145b61179c5760405162461bcd60e51b815260040161061690612e9f565b60038181018054600192906117bc9084906301000000900460ff16612f2b565b92506101000a81548160ff021916908360ff16021790555050565b60606117e282611d43565b505f6117f860408051602081019091525f815290565b90505f8151116118165760405180602001604052805f815250611841565b8061182084612168565b604051602001611831929190612f44565b6040516020818303038152906040525b9392505050565b335f818152600c6020908152604080832081516101408101835281546001600160a01b0381811660e0840190815260ff600160a01b8085048216151561010080880191909152600160a81b9586900483161515610120880152928652875160608181018a526001890154808716835292830484161515828c01529590910482161515818901528589015260028601548588015260039095015480861615159385019390935282048416151560808401526201000082048416151560a0840152630100000090910490921660c082015280515182168552600b9093529220549091168214806119565750602081810151516001600160a01b039081165f908152600b9092526040909120541633145b6119725760405162461bcd60e51b815260040161061690612dd4565b5f61197c33611da1565b6001600160a01b038082165f908152600d6020908152604080832033808552600c909352922054939450909290911690036119c6576001818101805460ff191690911790556119d8565b60018101805461ff0019166101001790555b600181015460ff1680156119f557506001810154610100900460ff165b15611730577fffacc21903a9db21c6031d4c12c9825f13ac6469f9b894f7058a45cf1f9a3e8d33604051611a299190612a51565b60405180910390a150505050565b6001600160a01b039182165f90815260056020908152604080832093909416825291909152205460ff1690565b335f818152600c6020908152604080832081516101408101835281546001600160a01b0381811660e0840190815260ff600160a01b8085048216151561010080880191909152600160a81b9586900483161515610120880152928652875160608181018a526001890154808716835292830484161515828c01529590910482161515818901528589015260028601548588015260039095015480861615159385019390935282048416151560808401526201000082048416151560a0840152630100000090910490921660c082015280515182168552600b909352922054909116821480611b725750602081810151516001600160a01b039081165f908152600b9092526040909120541633145b611b8e5760405162461bcd60e51b815260040161061690612dd4565b335f818152600c602052604090206003015460ff1615611bc05760405162461bcd60e51b815260040161061690612d92565b335f818152600b6020526040902054600160a81b900460ff1615611bf65760405162461bcd60e51b815260040161061690612e1d565b5f600c5f611c0333611da1565b6001600160a01b03908116825260208201929092526040015f208054909250163303611c69576003810154610100900460ff1615611c535760405162461bcd60e51b815260040161061690612f72565b60038101805461ff001916610100179055611cbc565b60018101546001600160a01b03163303611cbc57600381015462010000900460ff1615611ca85760405162461bcd60e51b815260040161061690612f72565b60038101805462ff00001916620100001790555b6003810154610100900460ff168015611cdf5750600381015462010000900460ff165b15611ced57611ced816121f7565b5050505050565b5f6001600160e01b031982166380ac58cd60e01b1480611d2457506001600160e01b03198216635b5e139f60e01b145b8061050257506301ffc9a760e01b6001600160e01b0319831614610502565b5f80611d4e836122c0565b90506001600160a01b03811661050257604051637e27328960e01b815260048101849052602401610616565b5f908152600460205260409020546001600160a01b031690565b61068e83838360016122da565b6001600160a01b039081165f908152600c6020908152604091829020825161014081018452815480861660e0830190815260ff600160a01b8084048216151561010080870191909152600160a81b9485900483161515610120870152928552875160608181018a5260018801549a8b168252918a048316151581890152939098048116151583880152948301919091526002830154948201949094526003909101548083161515948201949094529183048116151560808301526201000083048116151560a0830152630100000090920490911660c0820152515190565b5f611e8b5f835f6123d5565b90506001600160a01b0381166105b657604051637e27328960e01b815260048101839052602401610616565b5f611ec182611da1565b6001600160a01b038082165f908152600d602090815260408083209387168352600c909152812082549394509192906002611efd836001612f9d565b611f079190612fb0565b905080846003015410611fbe5760038301805460ff1916600190811790915583546001600160a01b039081165f908152600b6020526040808220805460ff60a01b199081169091559387015483168252908190208054909316909255845491515f8051602061304e83398151915292611f81921690612a51565b60405180910390a160018301546040515f8051602061304e83398151915291611fb5916001600160a01b0390911690612a51565b60405180910390a15b505050505050565b6001600160a01b038216611fef5781604051630b61174360e31b81526004016106169190612a51565b6001600160a01b038381165f81815260056020908152604080832094871680845294825291829020805460ff191686151590811790915591519182527f17307eab39ab6107e8899845ad3d59bd9653f200f220920489ca2b5937696c31910160405180910390a3505050565b6001600160a01b0383163b1561173057604051630a85bd0160e11b81526001600160a01b0384169063150b7a029061209d903390889087908790600401612fcf565b6020604051808303815f875af19250505080156120d7575060408051601f3d908101601f191682019092526120d49181019061300b565b60015b612135573d808015612104576040519150601f19603f3d011682016040523d82523d5f602084013e612109565b606091505b5080515f0361212d5783604051633250574960e11b81526004016106169190612a51565b805181602001fd5b6001600160e01b03198116630a85bd0160e11b14611ced5783604051633250574960e11b81526004016106169190612a51565b60605f612174836124a8565b60010190505f816001600160401b0381111561219257612192612c45565b6040519080825280601f01601f1916602001820160405280156121bc576020820181803683370190505b5090508181016020015b5f19016f181899199a1a9b1b9c1cb0b131b232b360811b600a86061a8153600a85049450846121c657509392505050565b80546001600160a01b039081165f908152600b60205260408082208054600160a81b60ff60a81b1991821681179092556001860180548616855293839020805490911690911790558354915490517f5c8ec7a25a142b043ee1d70b00b983786a266ced5b4e6b540ddc76927662681993612275938116921690612f11565b60405180910390a180546122a5906001600160a01b031661229560085490565b6122a0906001612f9d565b61257d565b6001810154610cbc906001600160a01b031661229560085490565b5f908152600260205260409020546001600160a01b031690565b80806122ee57506001600160a01b03821615155b156123a6575f6122fd84611d43565b90506001600160a01b038316158015906123295750826001600160a01b0316816001600160a01b031614155b801561233c575061233a8184611a37565b155b1561235c578260405163a9fbf51f60e01b81526004016106169190612a51565b81156123a45783856001600160a01b0316826001600160a01b03167f8c5be1e5ebec7d5bd14f71427d1e84f3dd0314c0f7b2291e5b200ac8c7c3b92560405160405180910390a45b505b50505f90815260046020526040902080546001600160a01b0319166001600160a01b0392909216919091179055565b5f806123e2858585612596565b90506001600160a01b03811661243e5761243984600880545f838152600960205260408120829055600182018355919091527ff3f7a9fe364faab93b216da50a3214154f22a0a2b415b23a84c8169e8b636ee30155565b612461565b846001600160a01b0316816001600160a01b031614612461576124618185612683565b6001600160a01b03851661247d5761247884612710565b6124a0565b846001600160a01b0316816001600160a01b0316146124a0576124a085856127b7565b949350505050565b5f8072184f03e93ff9f4daa797ed6e38ed64bf6a1f0160401b83106124e65772184f03e93ff9f4daa797ed6e38ed64bf6a1f0160401b830492506040015b6904ee2d6d415b85acef8160201b8310612510576904ee2d6d415b85acef8160201b830492506020015b662386f26fc10000831061252e57662386f26fc10000830492506010015b6305f5e1008310612546576305f5e100830492506008015b612710831061255a57612710830492506004015b6064831061256c576064830492506002015b600a83106105025760010192915050565b6105b6828260405180602001604052805f815250612805565b5f806125a1846122c0565b90506001600160a01b038316156125bd576125bd81848661281b565b6001600160a01b038116156125f7576125d85f855f806122da565b6001600160a01b0381165f90815260036020526040902080545f190190555b6001600160a01b03851615612625576001600160a01b0385165f908152600360205260409020805460010190555b5f8481526002602052604080822080546001600160a01b0319166001600160a01b0389811691821790925591518793918516917fddf252ad1be2c89b69c2b068fc378daa952ba7f163c4a11628f55a4df523b3ef91a4949350505050565b5f61268d8361080f565b5f838152600760205260409020549091508082146126de576001600160a01b0384165f9081526006602090815260408083208584528252808320548484528184208190558352600790915290208190555b505f9182526007602090815260408084208490556001600160a01b039094168352600681528383209183525290812055565b6008545f9061272190600190613026565b5f838152600960205260408120546008805493945090928490811061274857612748612d7e565b905f5260205f2001549050806008838154811061276757612767612d7e565b5f91825260208083209091019290925582815260099091526040808220849055858252812055600880548061279e5761279e613039565b600190038181905f5260205f20015f9055905550505050565b5f60016127c38461080f565b6127cd9190613026565b6001600160a01b039093165f908152600660209081526040808320868452825280832085905593825260079052919091209190915550565b61280f8383612871565b61068e5f84848461205b565b6128268383836128d2565b61068e576001600160a01b03831661285457604051637e27328960e01b815260048101829052602401610616565b818160405163177e802f60e01b8152600401610616929190612d65565b6001600160a01b03821661289a575f604051633250574960e11b81526004016106169190612a51565b5f6128a683835f6123d5565b90506001600160a01b0381161561068e575f6040516339e3563760e11b81526004016106169190612a51565b5f6001600160a01b038316158015906124a05750826001600160a01b0316846001600160a01b0316148061290b575061290b8484611a37565b806124a05750826001600160a01b031661292483611d7a565b6001600160a01b031614949350505050565b828054828255905f5260205f20908101928215612987579160200282015b828111156129875781546001600160a01b0319166001600160a01b03843516178255602090920191600190910190612954565b50612993929150612997565b5090565b5b80821115612993575f8155600101612998565b6001600160e01b031981168114610cbc575f80fd5b5f602082840312156129d0575f80fd5b8135611841816129ab565b5f5b838110156129f55781810151838201526020016129dd565b50505f910152565b5f8151808452612a148160208601602086016129db565b601f01601f19169290920160200192915050565b602081525f61184160208301846129fd565b5f60208284031215612a4a575f80fd5b5035919050565b6001600160a01b0391909116815260200190565b80356001600160a01b0381168114612a7b575f80fd5b919050565b5f8060408385031215612a91575f80fd5b612a9a83612a65565b946020939093013593505050565b5f805f60608486031215612aba575f80fd5b612ac384612a65565b9250612ad160208501612a65565b9150604084013590509250925092565b5f60208284031215612af1575f80fd5b61184182612a65565b5f8060208385031215612b0b575f80fd5b82356001600160401b0380821115612b21575f80fd5b818501915085601f830112612b34575f80fd5b813581811115612b42575f80fd5b8660208260051b8501011115612b56575f80fd5b60209290920196919550909350505050565b5f8060408385031215612b79575f80fd5b612b8283612a65565b9150612b9060208401612a65565b90509250929050565b80516001600160a01b031682526020808201511515908301526040908101511515910152565b6101608101612bce828a612b99565b612bdb6060830189612b99565b60c082019690965293151560e0850152911515610100840152151561012083015260ff166101409091015292915050565b5f8060408385031215612c1d575f80fd5b612c2683612a65565b915060208301358015158114612c3a575f80fd5b809150509250929050565b634e487b7160e01b5f52604160045260245ffd5b5f805f8060808587031215612c6c575f80fd5b612c7585612a65565b9350612c8360208601612a65565b92506040850135915060608501356001600160401b0380821115612ca5575f80fd5b818701915087601f830112612cb8575f80fd5b813581811115612cca57612cca612c45565b604051601f8201601f19908116603f01168101908382118183101715612cf257612cf2612c45565b816040528281528a6020848701011115612d0a575f80fd5b826020860160208301375f60208483010152809550505050505092959194509250565b600181811c90821680612d4157607f821691505b602082108103612d5f57634e487b7160e01b5f52602260045260245ffd5b50919050565b6001600160a01b03929092168252602082015260400190565b634e487b7160e01b5f52603260045260245ffd5b60208082526022908201527f54686520656e676167656d656e7420697320616c7265616479207265766f6b65604082015261321760f11b606082015260800190565b60208082526029908201527f43616c6c6572206d757374206265206f6e65206f662074686520656e6761676560408201526864207061727469657360b81b606082015260800190565b6020808252600f908201526e105b1c9958591e481b585c9c9a5959608a1b604082015260600190565b6001600160a01b038481168252604060208084018290529083018490525f91859160608501845b87811015612e925783612e7f86612a65565b1682529382019390820190600101612e6d565b5098975050505050505050565b6020808252600e908201526d139bdd08185d5d1a1bdc9a5e995960921b604082015260600190565b634e487b7160e01b5f52601160045260245ffd5b5f60ff821660ff8103612ef057612ef0612ec7565b60010192915050565b5f60018201612f0a57612f0a612ec7565b5060010190565b6001600160a01b0392831681529116602082015260400190565b60ff818116838216019081111561050257610502612ec7565b5f8351612f558184602088016129db565b835190830190612f698183602088016129db565b01949350505050565b602080825260119082015270105b1c9958591e4818dbdb999a5c9b5959607a1b604082015260600190565b8082018082111561050257610502612ec7565b5f82612fca57634e487b7160e01b5f52601260045260245ffd5b500490565b6001600160a01b03858116825284166020820152604081018390526080606082018190525f90613001908301846129fd565b9695505050505050565b5f6020828403121561301b575f80fd5b8151611841816129ab565b8181038181111561050257610502612ec7565b634e487b7160e01b5f52603160045260245ffdfeca5145a860413368885bd057fa646c0895a34d43c6f7c897fc1954cf51c33045a2646970667358221220f243b1d89ba6aabac390aa4bd804759d26210b2ad835b775ac27013d18394aaa64736f6c63430008150033",
			"opcodes": "PUSH1 0x80 PUSH1 0x40 MSTORE CALLVALUE DUP1 ISZERO PUSH3 0x10 JUMPI PUSH0 DUP1 REVERT JUMPDEST POP PUSH1 0x40 MLOAD DUP1 PUSH1 0x40 ADD PUSH1 0x40 MSTORE DUP1 PUSH1 0x12 DUP2 MSTORE PUSH1 0x20 ADD PUSH18 0x456E676167656D656E745265676973747279 PUSH1 0x70 SHL DUP2 MSTORE POP PUSH1 0x40 MLOAD DUP1 PUSH1 0x40 ADD PUSH1 0x40 MSTORE DUP1 PUSH1 0x3 DUP2 MSTORE PUSH1 0x20 ADD PUSH3 0x22A729 PUSH1 0xE9 SHL DUP2 MSTORE POP DUP2 PUSH0 SWAP1 DUP2 PUSH3 0x68 SWAP2 SWAP1 PUSH3 0x146 JUMP JUMPDEST POP PUSH1 0x1 PUSH3 0x77 DUP3 DUP3 PUSH3 0x146 JUMP JUMPDEST POP POP PUSH1 0xA DUP1 SLOAD PUSH1 0x1 PUSH1 0x1 PUSH1 0xA0 SHL SUB NOT AND PUSH20 0x1AE0EA34A72D944A8C7603FFB3EC30A6669E454C OR SWAP1 SSTORE POP PUSH3 0x20E JUMP JUMPDEST PUSH4 0x4E487B71 PUSH1 0xE0 SHL PUSH0 MSTORE PUSH1 0x41 PUSH1 0x4 MSTORE PUSH1 0x24 PUSH0 REVERT JUMPDEST PUSH1 0x1 DUP2 DUP2 SHR SWAP1 DUP3 AND DUP1 PUSH3 0xCF JUMPI PUSH1 0x7F DUP3 AND SWAP2 POP JUMPDEST PUSH1 0x20 DUP3 LT DUP2 SUB PUSH3 0xEE JUMPI PUSH4 0x4E487B71 PUSH1 0xE0 SHL PUSH0 MSTORE PUSH1 0x22 PUSH1 0x4 MSTORE PUSH1 0x24 PUSH0 REVERT JUMPDEST POP SWAP2 SWAP1 POP JUMP JUMPDEST PUSH1 0x1F DUP3 GT ISZERO PUSH3 0x141 JUMPI PUSH0 DUP2 DUP2 MSTORE PUSH1 0x20 DUP2 KECCAK256 PUSH1 0x1F DUP6 ADD PUSH1 0x5 SHR DUP2 ADD PUSH1 0x20 DUP7 LT ISZERO PUSH3 0x11C JUMPI POP DUP1 JUMPDEST PUSH1 0x1F DUP6 ADD PUSH1 0x5 SHR DUP3 ADD SWAP2 POP JUMPDEST DUP2 DUP2 LT ISZERO PUSH3 0x13D JUMPI DUP3 DUP2 SSTORE PUSH1 0x1 ADD PUSH3 0x128 JUMP JUMPDEST POP POP POP JUMPDEST POP POP POP JUMP JUMPDEST DUP2 MLOAD PUSH1 0x1 PUSH1 0x1 PUSH1 0x40 SHL SUB DUP2 GT ISZERO PUSH3 0x162 JUMPI PUSH3 0x162 PUSH3 0xA6 JUMP JUMPDEST PUSH3 0x17A DUP2 PUSH3 0x173 DUP5 SLOAD PUSH3 0xBA JUMP JUMPDEST DUP5 PUSH3 0xF4 JUMP JUMPDEST PUSH1 0x20 DUP1 PUSH1 0x1F DUP4 GT PUSH1 0x1 DUP2 EQ PUSH3 0x1B0 JUMPI PUSH0 DUP5 ISZERO PUSH3 0x198 JUMPI POP DUP6 DUP4 ADD MLOAD JUMPDEST PUSH0 NOT PUSH1 0x3 DUP7 SWAP1 SHL SHR NOT AND PUSH1 0x1 DUP6 SWAP1 SHL OR DUP6 SSTORE PUSH3 0x13D JUMP JUMPDEST PUSH0 DUP6 DUP2 MSTORE PUSH1 0x20 DUP2 KECCAK256 PUSH1 0x1F NOT DUP7 AND SWAP2 JUMPDEST DUP3 DUP2 LT ISZERO PUSH3 0x1E0 JUMPI DUP9 DUP7 ADD MLOAD DUP3 SSTORE SWAP5 DUP5 ADD SWAP5 PUSH1 0x1 SWAP1 SWAP2 ADD SWAP1 DUP5 ADD PUSH3 0x1BF JUMP JUMPDEST POP DUP6 DUP3 LT ISZERO PUSH3 0x1FE JUMPI DUP8 DUP6 ADD MLOAD PUSH0 NOT PUSH1 0x3 DUP9 SWAP1 SHL PUSH1 0xF8 AND SHR NOT AND DUP2 SSTORE JUMPDEST POP POP POP POP POP PUSH1 0x1 SWAP1 DUP2 SHL ADD SWAP1 SSTORE POP JUMP JUMPDEST PUSH2 0x30A3 DUP1 PUSH3 0x21C PUSH0 CODECOPY PUSH0 RETURN INVALID PUSH1 0x80 PUSH1 0x40 MSTORE CALLVALUE DUP1 ISZERO PUSH2 0xF JUMPI PUSH0 DUP1 REVERT JUMPDEST POP PUSH1 0x4 CALLDATASIZE LT PUSH2 0x173 JUMPI PUSH0 CALLDATALOAD PUSH1 0xE0 SHR DUP1 PUSH4 0x1FFC9A7 EQ PUSH2 0x177 JUMPI DUP1 PUSH4 0x6FDDE03 EQ PUSH2 0x19F JUMPI DUP1 PUSH4 0x81812FC EQ PUSH2 0x1B4 JUMPI DUP1 PUSH4 0x95EA7B3 EQ PUSH2 0x1D4 JUMPI DUP1 PUSH4 0x18160DDD EQ PUSH2 0x1E9 JUMPI DUP1 PUSH4 0x23B872DD EQ PUSH2 0x1FB JUMPI DUP1 PUSH4 0x29CB924D EQ PUSH2 0x20E JUMPI DUP1 PUSH4 0x2B80FA28 EQ PUSH2 0x214 JUMPI DUP1 PUSH4 0x2F745C59 EQ PUSH2 0x267 JUMPI DUP1 PUSH4 0x42842E0E EQ PUSH2 0x27A JUMPI DUP1 PUSH4 0x4F6CCCE7 EQ PUSH2 0x28D JUMPI DUP1 PUSH4 0x5D00927E EQ PUSH2 0x2A0 JUMPI DUP1 PUSH4 0x6352211E EQ PUSH2 0x2B3 JUMPI DUP1 PUSH4 0x6D955EB5 EQ PUSH2 0x2C6 JUMPI DUP1 PUSH4 0x70A08231 EQ PUSH2 0x2CE JUMPI DUP1 PUSH4 0x8C434709 EQ PUSH2 0x2E1 JUMPI DUP1 PUSH4 0x90106C5E EQ PUSH2 0x2E9 JUMPI DUP1 PUSH4 0x93B16B45 EQ PUSH2 0x2FC JUMPI DUP1 PUSH4 0x95D89B41 EQ PUSH2 0x30F JUMPI DUP1 PUSH4 0x987E9533 EQ PUSH2 0x317 JUMPI DUP1 PUSH4 0x9DCAF479 EQ PUSH2 0x32A JUMPI DUP1 PUSH4 0xA1905E4E EQ PUSH2 0x33D JUMPI DUP1 PUSH4 0xA22690A8 EQ PUSH2 0x350 JUMPI DUP1 PUSH4 0xA22CB465 EQ PUSH2 0x415 JUMPI DUP1 PUSH4 0xA498E802 EQ PUSH2 0x428 JUMPI DUP1 PUSH4 0xB88D4FDE EQ PUSH2 0x48D JUMPI DUP1 PUSH4 0xBFD44472 EQ PUSH2 0x4A0 JUMPI DUP1 PUSH4 0xC87B56DD EQ PUSH2 0x4A8 JUMPI DUP1 PUSH4 0xE83DC185 EQ PUSH2 0x4BB JUMPI DUP1 PUSH4 0xE985E9C5 EQ PUSH2 0x4C3 JUMPI DUP1 PUSH4 0xED9F8D1C EQ PUSH2 0x4D6 JUMPI JUMPDEST PUSH0 DUP1 REVERT JUMPDEST PUSH2 0x18A PUSH2 0x185 CALLDATASIZE PUSH1 0x4 PUSH2 0x29C0 JUMP JUMPDEST PUSH2 0x4DE JUMP JUMPDEST PUSH1 0x40 MLOAD SWAP1 ISZERO ISZERO DUP2 MSTORE PUSH1 0x20 ADD JUMPDEST PUSH1 0x40 MLOAD DUP1 SWAP2 SUB SWAP1 RETURN JUMPDEST PUSH2 0x1A7 PUSH2 0x508 JUMP JUMPDEST PUSH1 0x40 MLOAD PUSH2 0x196 SWAP2 SWAP1 PUSH2 0x2A28 JUMP JUMPDEST PUSH2 0x1C7 PUSH2 0x1C2 CALLDATASIZE PUSH1 0x4 PUSH2 0x2A3A JUMP JUMPDEST PUSH2 0x597 JUMP JUMPDEST PUSH1 0x40 MLOAD PUSH2 0x196 SWAP2 SWAP1 PUSH2 0x2A51 JUMP JUMPDEST PUSH2 0x1E7 PUSH2 0x1E2 CALLDATASIZE PUSH1 0x4 PUSH2 0x2A80 JUMP JUMPDEST PUSH2 0x5AB JUMP JUMPDEST STOP JUMPDEST PUSH1 0x8 SLOAD JUMPDEST PUSH1 0x40 MLOAD SWAP1 DUP2 MSTORE PUSH1 0x20 ADD PUSH2 0x196 JUMP JUMPDEST PUSH2 0x1E7 PUSH2 0x209 CALLDATASIZE PUSH1 0x4 PUSH2 0x2AA8 JUMP JUMPDEST PUSH2 0x5BA JUMP JUMPDEST TIMESTAMP PUSH2 0x1ED JUMP JUMPDEST PUSH2 0x24A PUSH2 0x222 CALLDATASIZE PUSH1 0x4 PUSH2 0x2AE1 JUMP JUMPDEST PUSH1 0xD PUSH1 0x20 MSTORE PUSH0 SWAP1 DUP2 MSTORE PUSH1 0x40 SWAP1 KECCAK256 PUSH1 0x1 DUP2 ADD SLOAD PUSH1 0x3 SWAP1 SWAP2 ADD SLOAD PUSH1 0xFF DUP1 DUP4 AND SWAP3 PUSH2 0x100 SWAP1 DIV AND SWAP1 DUP4 JUMP JUMPDEST PUSH1 0x40 DUP1 MLOAD SWAP4 ISZERO ISZERO DUP5 MSTORE SWAP2 ISZERO ISZERO PUSH1 0x20 DUP5 ADD MSTORE SWAP1 DUP3 ADD MSTORE PUSH1 0x60 ADD PUSH2 0x196 JUMP JUMPDEST PUSH2 0x1ED PUSH2 0x275 CALLDATASIZE PUSH1 0x4 PUSH2 0x2A80 JUMP JUMPDEST PUSH2 0x61F JUMP JUMPDEST PUSH2 0x1E7 PUSH2 0x288 CALLDATASIZE PUSH1 0x4 PUSH2 0x2AA8 JUMP JUMPDEST PUSH2 0x674 JUMP JUMPDEST PUSH2 0x1ED PUSH2 0x29B CALLDATASIZE PUSH1 0x4 PUSH2 0x2A3A JUMP JUMPDEST PUSH2 0x693 JUMP JUMPDEST PUSH1 0xA SLOAD PUSH2 0x1C7 SWAP1 PUSH1 0x1 PUSH1 0x1 PUSH1 0xA0 SHL SUB AND DUP2 JUMP JUMPDEST PUSH2 0x1C7 PUSH2 0x2C1 CALLDATASIZE PUSH1 0x4 PUSH2 0x2A3A JUMP JUMPDEST PUSH2 0x6E3 JUMP JUMPDEST PUSH2 0x1E7 PUSH2 0x6ED JUMP JUMPDEST PUSH2 0x1ED PUSH2 0x2DC CALLDATASIZE PUSH1 0x4 PUSH2 0x2AE1 JUMP JUMPDEST PUSH2 0x80F JUMP JUMPDEST PUSH2 0x1E7 PUSH2 0x854 JUMP JUMPDEST PUSH2 0x1E7 PUSH2 0x2F7 CALLDATASIZE PUSH1 0x4 PUSH2 0x2AFA JUMP JUMPDEST PUSH2 0xA95 JUMP JUMPDEST PUSH2 0x1E7 PUSH2 0x30A CALLDATASIZE PUSH1 0x4 PUSH2 0x2A3A JUMP JUMPDEST PUSH2 0xC77 JUMP JUMPDEST PUSH2 0x1A7 PUSH2 0xCBF JUMP JUMPDEST PUSH2 0x1E7 PUSH2 0x325 CALLDATASIZE PUSH1 0x4 PUSH2 0x2A80 JUMP JUMPDEST PUSH2 0xCCE JUMP JUMPDEST PUSH2 0x18A PUSH2 0x338 CALLDATASIZE PUSH1 0x4 PUSH2 0x2B68 JUMP JUMPDEST PUSH2 0x1412 JUMP JUMPDEST PUSH2 0x1E7 PUSH2 0x34B CALLDATASIZE PUSH1 0x4 PUSH2 0x2AE1 JUMP JUMPDEST PUSH2 0x14CC JUMP JUMPDEST PUSH2 0x402 PUSH2 0x35E CALLDATASIZE PUSH1 0x4 PUSH2 0x2AE1 JUMP JUMPDEST PUSH1 0xC PUSH1 0x20 SWAP1 DUP2 MSTORE PUSH0 SWAP2 DUP3 MSTORE PUSH1 0x40 SWAP2 DUP3 SWAP1 KECCAK256 DUP3 MLOAD PUSH1 0x60 DUP1 DUP3 ADD DUP6 MSTORE DUP3 SLOAD PUSH1 0x1 PUSH1 0x1 PUSH1 0xA0 SHL SUB DUP1 DUP3 AND DUP5 MSTORE PUSH1 0xFF PUSH1 0x1 PUSH1 0xA0 SHL DUP1 DUP5 DIV DUP3 AND ISZERO ISZERO DUP7 DUP10 ADD MSTORE PUSH1 0x1 PUSH1 0xA8 SHL SWAP4 DUP5 SWAP1 DIV DUP3 AND ISZERO ISZERO DUP7 DUP11 ADD MSTORE DUP9 MLOAD SWAP5 DUP6 ADD DUP10 MSTORE PUSH1 0x1 DUP8 ADD SLOAD SWAP3 DUP4 AND DUP6 MSTORE DUP3 DIV DUP2 AND ISZERO ISZERO SWAP7 DUP5 ADD SWAP7 SWAP1 SWAP7 MSTORE DIV DUP5 AND ISZERO ISZERO SWAP5 DUP2 ADD SWAP5 SWAP1 SWAP5 MSTORE PUSH1 0x2 DUP3 ADD SLOAD PUSH1 0x3 SWAP1 SWAP3 ADD SLOAD SWAP1 SWAP4 SWAP3 DUP2 DUP2 AND SWAP2 PUSH2 0x100 DUP2 DIV DUP3 AND SWAP2 PUSH3 0x10000 DUP3 DIV DUP2 AND SWAP2 PUSH4 0x1000000 SWAP1 DIV AND DUP8 JUMP JUMPDEST PUSH1 0x40 MLOAD PUSH2 0x196 SWAP8 SWAP7 SWAP6 SWAP5 SWAP4 SWAP3 SWAP2 SWAP1 PUSH2 0x2BBF JUMP JUMPDEST PUSH2 0x1E7 PUSH2 0x423 CALLDATASIZE PUSH1 0x4 PUSH2 0x2C0C JUMP JUMPDEST PUSH2 0x170E JUMP JUMPDEST PUSH2 0x466 PUSH2 0x436 CALLDATASIZE PUSH1 0x4 PUSH2 0x2AE1 JUMP JUMPDEST PUSH1 0xB PUSH1 0x20 MSTORE PUSH0 SWAP1 DUP2 MSTORE PUSH1 0x40 SWAP1 KECCAK256 SLOAD PUSH1 0x1 PUSH1 0x1 PUSH1 0xA0 SHL SUB DUP2 AND SWAP1 PUSH1 0xFF PUSH1 0x1 PUSH1 0xA0 SHL DUP3 DIV DUP2 AND SWAP2 PUSH1 0x1 PUSH1 0xA8 SHL SWAP1 DIV AND DUP4 JUMP JUMPDEST PUSH1 0x40 DUP1 MLOAD PUSH1 0x1 PUSH1 0x1 PUSH1 0xA0 SHL SUB SWAP1 SWAP5 AND DUP5 MSTORE SWAP2 ISZERO ISZERO PUSH1 0x20 DUP5 ADD MSTORE ISZERO ISZERO SWAP1 DUP3 ADD MSTORE PUSH1 0x60 ADD PUSH2 0x196 JUMP JUMPDEST PUSH2 0x1E7 PUSH2 0x49B CALLDATASIZE PUSH1 0x4 PUSH2 0x2C59 JUMP JUMPDEST PUSH2 0x1719 JUMP JUMPDEST PUSH2 0x1E7 PUSH2 0x1736 JUMP JUMPDEST PUSH2 0x1A7 PUSH2 0x4B6 CALLDATASIZE PUSH1 0x4 PUSH2 0x2A3A JUMP JUMPDEST PUSH2 0x17D7 JUMP JUMPDEST PUSH2 0x1E7 PUSH2 0x1848 JUMP JUMPDEST PUSH2 0x18A PUSH2 0x4D1 CALLDATASIZE PUSH1 0x4 PUSH2 0x2B68 JUMP JUMPDEST PUSH2 0x1A37 JUMP JUMPDEST PUSH2 0x1E7 PUSH2 0x1A64 JUMP JUMPDEST PUSH0 PUSH1 0x1 PUSH1 0x1 PUSH1 0xE0 SHL SUB NOT DUP3 AND PUSH4 0x780E9D63 PUSH1 0xE0 SHL EQ DUP1 PUSH2 0x502 JUMPI POP PUSH2 0x502 DUP3 PUSH2 0x1CF4 JUMP JUMPDEST SWAP3 SWAP2 POP POP JUMP JUMPDEST PUSH1 0x60 PUSH0 DUP1 SLOAD PUSH2 0x516 SWAP1 PUSH2 0x2D2D JUMP JUMPDEST DUP1 PUSH1 0x1F ADD PUSH1 0x20 DUP1 SWAP2 DIV MUL PUSH1 0x20 ADD PUSH1 0x40 MLOAD SWAP1 DUP2 ADD PUSH1 0x40 MSTORE DUP1 SWAP3 SWAP2 SWAP1 DUP2 DUP2 MSTORE PUSH1 0x20 ADD DUP3 DUP1 SLOAD PUSH2 0x542 SWAP1 PUSH2 0x2D2D JUMP JUMPDEST DUP1 ISZERO PUSH2 0x58D JUMPI DUP1 PUSH1 0x1F LT PUSH2 0x564 JUMPI PUSH2 0x100 DUP1 DUP4 SLOAD DIV MUL DUP4 MSTORE SWAP2 PUSH1 0x20 ADD SWAP2 PUSH2 0x58D JUMP JUMPDEST DUP3 ADD SWAP2 SWAP1 PUSH0 MSTORE PUSH1 0x20 PUSH0 KECCAK256 SWAP1 JUMPDEST DUP2 SLOAD DUP2 MSTORE SWAP1 PUSH1 0x1 ADD SWAP1 PUSH1 0x20 ADD DUP1 DUP4 GT PUSH2 0x570 JUMPI DUP3 SWAP1 SUB PUSH1 0x1F AND DUP3 ADD SWAP2 JUMPDEST POP POP POP POP POP SWAP1 POP SWAP1 JUMP JUMPDEST PUSH0 PUSH2 0x5A1 DUP3 PUSH2 0x1D43 JUMP JUMPDEST POP PUSH2 0x502 DUP3 PUSH2 0x1D7A JUMP JUMPDEST PUSH2 0x5B6 DUP3 DUP3 CALLER PUSH2 0x1D94 JUMP JUMPDEST POP POP JUMP JUMPDEST PUSH1 0x40 MLOAD PUSH3 0x461BCD PUSH1 0xE5 SHL DUP2 MSTORE PUSH1 0x20 PUSH1 0x4 DUP3 ADD MSTORE PUSH1 0x2F PUSH1 0x24 DUP3 ADD MSTORE PUSH32 0x57656464696E67206365727469666963617465207472616E7366657220617265 PUSH1 0x44 DUP3 ADD MSTORE PUSH15 0x81B9BDD08185D5D1A1BDC9A5E9959 PUSH1 0x8A SHL PUSH1 0x64 DUP3 ADD MSTORE PUSH1 0x84 ADD JUMPDEST PUSH1 0x40 MLOAD DUP1 SWAP2 SUB SWAP1 REVERT JUMPDEST PUSH0 PUSH2 0x629 DUP4 PUSH2 0x80F JUMP JUMPDEST DUP3 LT PUSH2 0x64C JUMPI DUP3 DUP3 PUSH1 0x40 MLOAD PUSH4 0x295F44F7 PUSH1 0xE2 SHL DUP2 MSTORE PUSH1 0x4 ADD PUSH2 0x616 SWAP3 SWAP2 SWAP1 PUSH2 0x2D65 JUMP JUMPDEST POP PUSH1 0x1 PUSH1 0x1 PUSH1 0xA0 SHL SUB SWAP2 SWAP1 SWAP2 AND PUSH0 SWAP1 DUP2 MSTORE PUSH1 0x6 PUSH1 0x20 SWAP1 DUP2 MSTORE PUSH1 0x40 DUP1 DUP4 KECCAK256 SWAP4 DUP4 MSTORE SWAP3 SWAP1 MSTORE KECCAK256 SLOAD SWAP1 JUMP JUMPDEST PUSH2 0x68E DUP4 DUP4 DUP4 PUSH1 0x40 MLOAD DUP1 PUSH1 0x20 ADD PUSH1 0x40 MSTORE DUP1 PUSH0 DUP2 MSTORE POP PUSH2 0x1719 JUMP JUMPDEST POP POP POP JUMP JUMPDEST PUSH0 PUSH2 0x69D PUSH1 0x8 SLOAD SWAP1 JUMP JUMPDEST DUP3 LT PUSH2 0x6C0 JUMPI PUSH0 DUP3 PUSH1 0x40 MLOAD PUSH4 0x295F44F7 PUSH1 0xE2 SHL DUP2 MSTORE PUSH1 0x4 ADD PUSH2 0x616 SWAP3 SWAP2 SWAP1 PUSH2 0x2D65 JUMP JUMPDEST PUSH1 0x8 DUP3 DUP2 SLOAD DUP2 LT PUSH2 0x6D3 JUMPI PUSH2 0x6D3 PUSH2 0x2D7E JUMP JUMPDEST SWAP1 PUSH0 MSTORE PUSH1 0x20 PUSH0 KECCAK256 ADD SLOAD SWAP1 POP SWAP2 SWAP1 POP JUMP JUMPDEST PUSH0 PUSH2 0x502 DUP3 PUSH2 0x1D43 JUMP JUMPDEST CALLER PUSH0 DUP2 DUP2 MSTORE PUSH1 0xC PUSH1 0x20 MSTORE PUSH1 0x40 SWAP1 KECCAK256 PUSH1 0x3 ADD SLOAD PUSH1 0xFF AND ISZERO PUSH2 0x71F JUMPI PUSH1 0x40 MLOAD PUSH3 0x461BCD PUSH1 0xE5 SHL DUP2 MSTORE PUSH1 0x4 ADD PUSH2 0x616 SWAP1 PUSH2 0x2D92 JUMP JUMPDEST CALLER PUSH0 DUP2 DUP2 MSTORE PUSH1 0xC PUSH1 0x20 SWAP1 DUP2 MSTORE PUSH1 0x40 DUP1 DUP4 KECCAK256 DUP1 SLOAD PUSH1 0x1 PUSH1 0x1 PUSH1 0xA0 SHL SUB SWAP1 DUP2 AND DUP6 MSTORE DUP3 DUP6 KECCAK256 DUP1 SLOAD PUSH1 0x1 PUSH1 0x1 PUSH1 0xB0 SHL SUB NOT SWAP1 DUP2 AND DUP3 SSTORE PUSH1 0x1 DUP3 DUP2 ADD DUP1 SLOAD DUP4 AND SWAP1 SSTORE PUSH1 0x2 DUP1 DUP5 ADD DUP10 SWAP1 SSTORE PUSH1 0x3 SWAP4 DUP5 ADD DUP1 SLOAD PUSH4 0xFFFFFFFF NOT SWAP1 DUP2 AND SWAP1 SWAP2 SSTORE DUP3 DUP8 ADD DUP1 SLOAD DUP8 AND DUP12 MSTORE DUP9 DUP12 KECCAK256 DUP1 SLOAD DUP7 AND DUP2 SSTORE SWAP4 DUP5 ADD DUP1 SLOAD SWAP1 SWAP6 AND SWAP1 SWAP5 SSTORE SWAP1 DUP3 ADD DUP10 SWAP1 SSTORE SWAP3 ADD DUP1 SLOAD SWAP1 SWAP3 AND SWAP1 SWAP2 SSTORE DUP3 SLOAD DUP3 AND DUP7 MSTORE PUSH1 0xB SWAP1 SWAP5 MSTORE DUP3 DUP6 KECCAK256 DUP1 SLOAD PUSH1 0xFF PUSH1 0xA0 SHL NOT SWAP1 DUP2 AND SWAP1 SWAP2 SSTORE SWAP4 SLOAD AND DUP5 MSTORE SWAP3 DUP2 SWAP1 KECCAK256 DUP1 SLOAD SWAP1 SWAP3 AND SWAP1 SWAP2 SSTORE MLOAD SWAP1 SWAP2 PUSH32 0x1271C287650062F685BD2F225144D7B6B046826A5A70632C8F873240D04A54C6 SWAP2 PUSH2 0x803 SWAP2 SWAP1 TIMESTAMP SWAP1 PUSH2 0x2D65 JUMP JUMPDEST PUSH1 0x40 MLOAD DUP1 SWAP2 SUB SWAP1 LOG1 POP POP JUMP JUMPDEST PUSH0 PUSH1 0x1 PUSH1 0x1 PUSH1 0xA0 SHL SUB DUP3 AND PUSH2 0x839 JUMPI PUSH0 PUSH1 0x40 MLOAD PUSH4 0x22718AD9 PUSH1 0xE2 SHL DUP2 MSTORE PUSH1 0x4 ADD PUSH2 0x616 SWAP2 SWAP1 PUSH2 0x2A51 JUMP JUMPDEST POP PUSH1 0x1 PUSH1 0x1 PUSH1 0xA0 SHL SUB AND PUSH0 SWAP1 DUP2 MSTORE PUSH1 0x3 PUSH1 0x20 MSTORE PUSH1 0x40 SWAP1 KECCAK256 SLOAD SWAP1 JUMP JUMPDEST CALLER PUSH0 DUP2 DUP2 MSTORE PUSH1 0xC PUSH1 0x20 SWAP1 DUP2 MSTORE PUSH1 0x40 DUP1 DUP4 KECCAK256 DUP2 MLOAD PUSH2 0x140 DUP2 ADD DUP4 MSTORE DUP2 SLOAD PUSH1 0x1 PUSH1 0x1 PUSH1 0xA0 SHL SUB DUP2 DUP2 AND PUSH1 0xE0 DUP5 ADD SWAP1 DUP2 MSTORE PUSH1 0xFF PUSH1 0x1 PUSH1 0xA0 SHL DUP1 DUP6 DIV DUP3 AND ISZERO ISZERO PUSH2 0x100 DUP1 DUP9 ADD SWAP2 SWAP1 SWAP2 MSTORE PUSH1 0x1 PUSH1 0xA8 SHL SWAP6 DUP7 SWAP1 DIV DUP4 AND ISZERO ISZERO PUSH2 0x120 DUP9 ADD MSTORE SWAP3 DUP7 MSTORE DUP8 MLOAD PUSH1 0x60 DUP2 DUP2 ADD DUP11 MSTORE PUSH1 0x1 DUP10 ADD SLOAD DUP1 DUP8 AND DUP4 MSTORE SWAP3 DUP4 DIV DUP5 AND ISZERO ISZERO DUP3 DUP13 ADD MSTORE SWAP6 SWAP1 SWAP2 DIV DUP3 AND ISZERO ISZERO DUP2 DUP10 ADD MSTORE DUP6 DUP10 ADD MSTORE PUSH1 0x2 DUP7 ADD SLOAD DUP6 DUP9 ADD MSTORE PUSH1 0x3 SWAP1 SWAP6 ADD SLOAD DUP1 DUP7 AND ISZERO ISZERO SWAP4 DUP6 ADD SWAP4 SWAP1 SWAP4 MSTORE DUP3 DIV DUP5 AND ISZERO ISZERO PUSH1 0x80 DUP5 ADD MSTORE PUSH3 0x10000 DUP3 DIV DUP5 AND ISZERO ISZERO PUSH1 0xA0 DUP5 ADD MSTORE PUSH4 0x1000000 SWAP1 SWAP2 DIV SWAP1 SWAP3 AND PUSH1 0xC0 DUP3 ADD MSTORE DUP1 MLOAD MLOAD DUP3 AND DUP6 MSTORE PUSH1 0xB SWAP1 SWAP4 MSTORE SWAP3 KECCAK256 SLOAD SWAP1 SWAP2 AND DUP3 EQ DUP1 PUSH2 0x962 JUMPI POP PUSH1 0x20 DUP2 DUP2 ADD MLOAD MLOAD PUSH1 0x1 PUSH1 0x1 PUSH1 0xA0 SHL SUB SWAP1 DUP2 AND PUSH0 SWAP1 DUP2 MSTORE PUSH1 0xB SWAP1 SWAP3 MSTORE PUSH1 0x40 SWAP1 SWAP2 KECCAK256 SLOAD AND CALLER EQ JUMPDEST PUSH2 0x97E JUMPI PUSH1 0x40 MLOAD PUSH3 0x461BCD PUSH1 0xE5 SHL DUP2 MSTORE PUSH1 0x4 ADD PUSH2 0x616 SWAP1 PUSH2 0x2DD4 JUMP JUMPDEST CALLER PUSH0 DUP2 DUP2 MSTORE PUSH1 0xC PUSH1 0x20 MSTORE PUSH1 0x40 SWAP1 KECCAK256 PUSH1 0x3 ADD SLOAD PUSH1 0xFF AND ISZERO PUSH2 0x9B0 JUMPI PUSH1 0x40 MLOAD PUSH3 0x461BCD PUSH1 0xE5 SHL DUP2 MSTORE PUSH1 0x4 ADD PUSH2 0x616 SWAP1 PUSH2 0x2D92 JUMP JUMPDEST CALLER PUSH0 DUP2 DUP2 MSTORE PUSH1 0xB PUSH1 0x20 MSTORE PUSH1 0x40 SWAP1 KECCAK256 SLOAD PUSH1 0x1 PUSH1 0xA8 SHL SWAP1 DIV PUSH1 0xFF AND ISZERO PUSH2 0x9E6 JUMPI PUSH1 0x40 MLOAD PUSH3 0x461BCD PUSH1 0xE5 SHL DUP2 MSTORE PUSH1 0x4 ADD PUSH2 0x616 SWAP1 PUSH2 0x2E1D JUMP JUMPDEST PUSH0 PUSH1 0xC PUSH0 PUSH2 0x9F3 CALLER PUSH2 0x1DA1 JUMP JUMPDEST PUSH1 0x1 PUSH1 0x1 PUSH1 0xA0 SHL SUB SWAP1 DUP2 AND DUP3 MSTORE PUSH1 0x20 DUP3 ADD SWAP3 SWAP1 SWAP3 MSTORE PUSH1 0x40 ADD PUSH0 KECCAK256 DUP1 SLOAD SWAP1 SWAP3 POP AND CALLER SUB PUSH2 0xA2F JUMPI PUSH1 0x3 DUP2 ADD DUP1 SLOAD PUSH2 0xFF00 NOT AND PUSH2 0x100 OR SWAP1 SSTORE PUSH2 0xA57 JUMP JUMPDEST PUSH1 0x1 DUP2 ADD SLOAD PUSH1 0x1 PUSH1 0x1 PUSH1 0xA0 SHL SUB AND CALLER SUB PUSH2 0xA57 JUMPI PUSH1 0x3 DUP2 ADD DUP1 SLOAD PUSH3 0xFF0000 NOT AND PUSH3 0x10000 OR SWAP1 SSTORE JUMPDEST PUSH32 0x46D8ABD270FCE195A0DE9F22FC55ED1B5C6B4A38B0723362F84126D24E68171 CALLER PUSH1 0x40 MLOAD PUSH2 0xA86 SWAP2 SWAP1 PUSH2 0x2A51 JUMP JUMPDEST PUSH1 0x40 MLOAD DUP1 SWAP2 SUB SWAP1 LOG1 POP POP POP POP POP JUMP JUMPDEST CALLER PUSH0 DUP2 DUP2 MSTORE PUSH1 0xC PUSH1 0x20 SWAP1 DUP2 MSTORE PUSH1 0x40 DUP1 DUP4 KECCAK256 DUP2 MLOAD PUSH2 0x140 DUP2 ADD DUP4 MSTORE DUP2 SLOAD PUSH1 0x1 PUSH1 0x1 PUSH1 0xA0 SHL SUB DUP2 DUP2 AND PUSH1 0xE0 DUP5 ADD SWAP1 DUP2 MSTORE PUSH1 0xFF PUSH1 0x1 PUSH1 0xA0 SHL DUP1 DUP6 DIV DUP3 AND ISZERO ISZERO PUSH2 0x100 DUP1 DUP9 ADD SWAP2 SWAP1 SWAP2 MSTORE PUSH1 0x1 PUSH1 0xA8 SHL SWAP6 DUP7 SWAP1 DIV DUP4 AND ISZERO ISZERO PUSH2 0x120 DUP9 ADD MSTORE SWAP3 DUP7 MSTORE DUP8 MLOAD PUSH1 0x60 DUP2 DUP2 ADD DUP11 MSTORE PUSH1 0x1 DUP10 ADD SLOAD DUP1 DUP8 AND DUP4 MSTORE SWAP3 DUP4 DIV DUP5 AND ISZERO ISZERO DUP3 DUP13 ADD MSTORE SWAP6 SWAP1 SWAP2 DIV DUP3 AND ISZERO ISZERO DUP2 DUP10 ADD MSTORE DUP6 DUP10 ADD MSTORE PUSH1 0x2 DUP7 ADD SLOAD DUP6 DUP9 ADD MSTORE PUSH1 0x3 SWAP1 SWAP6 ADD SLOAD DUP1 DUP7 AND ISZERO ISZERO SWAP4 DUP6 ADD SWAP4 SWAP1 SWAP4 MSTORE DUP3 DIV DUP5 AND ISZERO ISZERO PUSH1 0x80 DUP5 ADD MSTORE PUSH3 0x10000 DUP3 DIV DUP5 AND ISZERO ISZERO PUSH1 0xA0 DUP5 ADD MSTORE PUSH4 0x1000000 SWAP1 SWAP2 DIV SWAP1 SWAP3 AND PUSH1 0xC0 DUP3 ADD MSTORE DUP1 MLOAD MLOAD DUP3 AND DUP6 MSTORE PUSH1 0xB SWAP1 SWAP4 MSTORE SWAP3 KECCAK256 SLOAD SWAP1 SWAP2 AND DUP3 EQ DUP1 PUSH2 0xBA3 JUMPI POP PUSH1 0x20 DUP2 DUP2 ADD MLOAD MLOAD PUSH1 0x1 PUSH1 0x1 PUSH1 0xA0 SHL SUB SWAP1 DUP2 AND PUSH0 SWAP1 DUP2 MSTORE PUSH1 0xB SWAP1 SWAP3 MSTORE PUSH1 0x40 SWAP1 SWAP2 KECCAK256 SLOAD AND CALLER EQ JUMPDEST PUSH2 0xBBF JUMPI PUSH1 0x40 MLOAD PUSH3 0x461BCD PUSH1 0xE5 SHL DUP2 MSTORE PUSH1 0x4 ADD PUSH2 0x616 SWAP1 PUSH2 0x2DD4 JUMP JUMPDEST CALLER PUSH0 DUP2 DUP2 MSTORE PUSH1 0xB PUSH1 0x20 MSTORE PUSH1 0x40 SWAP1 KECCAK256 SLOAD PUSH1 0x1 PUSH1 0xA8 SHL SWAP1 DIV PUSH1 0xFF AND ISZERO PUSH2 0xBF5 JUMPI PUSH1 0x40 MLOAD PUSH3 0x461BCD PUSH1 0xE5 SHL DUP2 MSTORE PUSH1 0x4 ADD PUSH2 0x616 SWAP1 PUSH2 0x2E1D JUMP JUMPDEST PUSH0 PUSH2 0xBFF CALLER PUSH2 0x1DA1 JUMP JUMPDEST PUSH1 0x1 PUSH1 0x1 PUSH1 0xA0 SHL SUB DUP2 AND PUSH0 SWAP1 DUP2 MSTORE PUSH1 0xD PUSH1 0x20 MSTORE PUSH1 0x40 SWAP1 KECCAK256 SWAP1 SWAP2 POP PUSH2 0xC24 DUP2 DUP9 DUP9 PUSH2 0x2936 JUMP JUMPDEST POP PUSH1 0x1 DUP2 ADD DUP1 SLOAD PUSH2 0xFFFF NOT AND SWAP1 SSTORE PUSH1 0x40 MLOAD PUSH32 0x402F0CDBBD3E7BDBD2C1FC4D920FA1EE7A733238220198DF262284A1259D0BE6 SWAP1 PUSH2 0xC66 SWAP1 CALLER SWAP1 DUP11 SWAP1 DUP11 SWAP1 PUSH2 0x2E46 JUMP JUMPDEST PUSH1 0x40 MLOAD DUP1 SWAP2 SUB SWAP1 LOG1 POP POP POP POP POP POP POP JUMP JUMPDEST CALLER PUSH0 SWAP1 DUP2 MSTORE PUSH1 0xC PUSH1 0x20 MSTORE PUSH1 0x40 SWAP1 KECCAK256 PUSH1 0x3 ADD SLOAD PUSH1 0x1 PUSH4 0x1000000 SWAP1 SWAP2 DIV PUSH1 0xFF AND GT PUSH2 0xCB3 JUMPI PUSH1 0x40 MLOAD PUSH3 0x461BCD PUSH1 0xE5 SHL DUP2 MSTORE PUSH1 0x4 ADD PUSH2 0x616 SWAP1 PUSH2 0x2E9F JUMP JUMPDEST PUSH2 0xCBC DUP2 PUSH2 0x1E7F JUMP JUMPDEST POP JUMP JUMPDEST PUSH1 0x60 PUSH1 0x1 DUP1 SLOAD PUSH2 0x516 SWAP1 PUSH2 0x2D2D JUMP JUMPDEST DUP2 PUSH1 0x1 PUSH1 0x1 PUSH1 0xA0 SHL SUB DUP2 AND CALLER SUB PUSH2 0xD22 JUMPI PUSH1 0x40 MLOAD PUSH3 0x461BCD PUSH1 0xE5 SHL DUP2 MSTORE PUSH1 0x20 PUSH1 0x4 DUP3 ADD MSTORE PUSH1 0x18 PUSH1 0x24 DUP3 ADD MSTORE PUSH24 0x21B0B73737BA1032B733B0B3B2903A379037B732B9B2B633 PUSH1 0x41 SHL PUSH1 0x44 DUP3 ADD MSTORE PUSH1 0x64 ADD PUSH2 0x616 JUMP JUMPDEST CALLER PUSH0 SWAP1 DUP2 MSTORE PUSH1 0xB PUSH1 0x20 MSTORE PUSH1 0x40 SWAP1 KECCAK256 SLOAD DUP4 SWAP1 PUSH1 0x1 PUSH1 0xA0 SHL SWAP1 DIV PUSH1 0xFF AND ISZERO DUP1 ISZERO PUSH2 0xD69 JUMPI POP PUSH1 0x1 PUSH1 0x1 PUSH1 0xA0 SHL SUB DUP2 AND PUSH0 SWAP1 DUP2 MSTORE PUSH1 0xB PUSH1 0x20 MSTORE PUSH1 0x40 SWAP1 KECCAK256 SLOAD PUSH1 0x1 PUSH1 0xA0 SHL SWAP1 DIV PUSH1 0xFF AND ISZERO JUMPDEST PUSH2 0xDCD JUMPI PUSH1 0x40 MLOAD PUSH3 0x461BCD PUSH1 0xE5 SHL DUP2 MSTORE PUSH1 0x20 PUSH1 0x4 DUP3 ADD MSTORE PUSH1 0x2F PUSH1 0x24 DUP3 ADD MSTORE PUSH32 0x4F6E65206F7220626F7468206F66207468652073706F75736573206172652061 PUSH1 0x44 DUP3 ADD MSTORE PUSH15 0x363932B0B23C9032B733B0B3B2B217 PUSH1 0x89 SHL PUSH1 0x64 DUP3 ADD MSTORE PUSH1 0x84 ADD PUSH2 0x616 JUMP JUMPDEST PUSH1 0x40 MLOAD DUP1 PUSH1 0x60 ADD PUSH1 0x40 MSTORE DUP1 CALLER PUSH1 0x1 PUSH1 0x1 PUSH1 0xA0 SHL SUB AND DUP2 MSTORE PUSH1 0x20 ADD PUSH1 0x1 ISZERO ISZERO DUP2 MSTORE PUSH1 0x20 ADD PUSH0 ISZERO ISZERO DUP2 MSTORE POP PUSH1 0xB PUSH0 CALLER PUSH1 0x1 PUSH1 0x1 PUSH1 0xA0 SHL SUB AND PUSH1 0x1 PUSH1 0x1 PUSH1 0xA0 SHL SUB AND DUP2 MSTORE PUSH1 0x20 ADD SWAP1 DUP2 MSTORE PUSH1 0x20 ADD PUSH0 KECCAK256 PUSH0 DUP3 ADD MLOAD DUP2 PUSH0 ADD PUSH0 PUSH2 0x100 EXP DUP2 SLOAD DUP2 PUSH1 0x1 PUSH1 0x1 PUSH1 0xA0 SHL SUB MUL NOT AND SWAP1 DUP4 PUSH1 0x1 PUSH1 0x1 PUSH1 0xA0 SHL SUB AND MUL OR SWAP1 SSTORE POP PUSH1 0x20 DUP3 ADD MLOAD DUP2 PUSH0 ADD PUSH1 0x14 PUSH2 0x100 EXP DUP2 SLOAD DUP2 PUSH1 0xFF MUL NOT AND SWAP1 DUP4 ISZERO ISZERO MUL OR SWAP1 SSTORE POP PUSH1 0x40 DUP3 ADD MLOAD DUP2 PUSH0 ADD PUSH1 0x15 PUSH2 0x100 EXP DUP2 SLOAD DUP2 PUSH1 0xFF MUL NOT AND SWAP1 DUP4 ISZERO ISZERO MUL OR SWAP1 SSTORE POP SWAP1 POP POP PUSH1 0x40 MLOAD DUP1 PUSH1 0x60 ADD PUSH1 0x40 MSTORE DUP1 DUP6 PUSH1 0x1 PUSH1 0x1 PUSH1 0xA0 SHL SUB AND DUP2 MSTORE PUSH1 0x20 ADD PUSH1 0x1 ISZERO ISZERO DUP2 MSTORE PUSH1 0x20 ADD PUSH0 ISZERO ISZERO DUP2 MSTORE POP PUSH1 0xB PUSH0 DUP7 PUSH1 0x1 PUSH1 0x1 PUSH1 0xA0 SHL SUB AND PUSH1 0x1 PUSH1 0x1 PUSH1 0xA0 SHL SUB AND DUP2 MSTORE PUSH1 0x20 ADD SWAP1 DUP2 MSTORE PUSH1 0x20 ADD PUSH0 KECCAK256 PUSH0 DUP3 ADD MLOAD DUP2 PUSH0 ADD PUSH0 PUSH2 0x100 EXP DUP2 SLOAD DUP2 PUSH1 0x1 PUSH1 0x1 PUSH1 0xA0 SHL SUB MUL NOT AND SWAP1 DUP4 PUSH1 0x1 PUSH1 0x1 PUSH1 0xA0 SHL SUB AND MUL OR SWAP1 SSTORE POP PUSH1 0x20 DUP3 ADD MLOAD DUP2 PUSH0 ADD PUSH1 0x14 PUSH2 0x100 EXP DUP2 SLOAD DUP2 PUSH1 0xFF MUL NOT AND SWAP1 DUP4 ISZERO ISZERO MUL OR SWAP1 SSTORE POP PUSH1 0x40 DUP3 ADD MLOAD DUP2 PUSH0 ADD PUSH1 0x15 PUSH2 0x100 EXP DUP2 SLOAD DUP2 PUSH1 0xFF MUL NOT AND SWAP1 DUP4 ISZERO ISZERO MUL OR SWAP1 SSTORE POP SWAP1 POP POP PUSH0 PUSH1 0x40 MLOAD DUP1 PUSH1 0xE0 ADD PUSH1 0x40 MSTORE DUP1 PUSH1 0xB PUSH0 CALLER PUSH1 0x1 PUSH1 0x1 PUSH1 0xA0 SHL SUB AND PUSH1 0x1 PUSH1 0x1 PUSH1 0xA0 SHL SUB AND DUP2 MSTORE PUSH1 0x20 ADD SWAP1 DUP2 MSTORE PUSH1 0x20 ADD PUSH0 KECCAK256 PUSH1 0x40 MLOAD DUP1 PUSH1 0x60 ADD PUSH1 0x40 MSTORE SWAP1 DUP2 PUSH0 DUP3 ADD PUSH0 SWAP1 SLOAD SWAP1 PUSH2 0x100 EXP SWAP1 DIV PUSH1 0x1 PUSH1 0x1 PUSH1 0xA0 SHL SUB AND PUSH1 0x1 PUSH1 0x1 PUSH1 0xA0 SHL SUB AND PUSH1 0x1 PUSH1 0x1 PUSH1 0xA0 SHL SUB AND DUP2 MSTORE PUSH1 0x20 ADD PUSH0 DUP3 ADD PUSH1 0x14 SWAP1 SLOAD SWAP1 PUSH2 0x100 EXP SWAP1 DIV PUSH1 0xFF AND ISZERO ISZERO ISZERO ISZERO DUP2 MSTORE PUSH1 0x20 ADD PUSH0 DUP3 ADD PUSH1 0x15 SWAP1 SLOAD SWAP1 PUSH2 0x100 EXP SWAP1 DIV PUSH1 0xFF AND ISZERO ISZERO ISZERO ISZERO DUP2 MSTORE POP POP DUP2 MSTORE PUSH1 0x20 ADD PUSH1 0xB PUSH0 DUP9 PUSH1 0x1 PUSH1 0x1 PUSH1 0xA0 SHL SUB AND PUSH1 0x1 PUSH1 0x1 PUSH1 0xA0 SHL SUB AND DUP2 MSTORE PUSH1 0x20 ADD SWAP1 DUP2 MSTORE PUSH1 0x20 ADD PUSH0 KECCAK256 PUSH1 0x40 MLOAD DUP1 PUSH1 0x60 ADD PUSH1 0x40 MSTORE SWAP1 DUP2 PUSH0 DUP3 ADD PUSH0 SWAP1 SLOAD SWAP1 PUSH2 0x100 EXP SWAP1 DIV PUSH1 0x1 PUSH1 0x1 PUSH1 0xA0 SHL SUB AND PUSH1 0x1 PUSH1 0x1 PUSH1 0xA0 SHL SUB AND PUSH1 0x1 PUSH1 0x1 PUSH1 0xA0 SHL SUB AND DUP2 MSTORE PUSH1 0x20 ADD PUSH0 DUP3 ADD PUSH1 0x14 SWAP1 SLOAD SWAP1 PUSH2 0x100 EXP SWAP1 DIV PUSH1 0xFF AND ISZERO ISZERO ISZERO ISZERO DUP2 MSTORE PUSH1 0x20 ADD PUSH0 DUP3 ADD PUSH1 0x15 SWAP1 SLOAD SWAP1 PUSH2 0x100 EXP SWAP1 DIV PUSH1 0xFF AND ISZERO ISZERO ISZERO ISZERO DUP2 MSTORE POP POP DUP2 MSTORE PUSH1 0x20 ADD DUP6 DUP2 MSTORE PUSH1 0x20 ADD PUSH0 ISZERO ISZERO DUP2 MSTORE PUSH1 0x20 ADD PUSH0 ISZERO ISZERO DUP2 MSTORE PUSH1 0x20 ADD PUSH0 ISZERO ISZERO DUP2 MSTORE PUSH1 0x20 ADD PUSH0 PUSH1 0xFF AND DUP2 MSTORE POP SWAP1 POP DUP1 PUSH1 0xC PUSH0 CALLER PUSH1 0x1 PUSH1 0x1 PUSH1 0xA0 SHL SUB AND PUSH1 0x1 PUSH1 0x1 PUSH1 0xA0 SHL SUB AND DUP2 MSTORE PUSH1 0x20 ADD SWAP1 DUP2 MSTORE PUSH1 0x20 ADD PUSH0 KECCAK256 PUSH0 DUP3 ADD MLOAD DUP2 PUSH0 ADD PUSH0 DUP3 ADD MLOAD DUP2 PUSH0 ADD PUSH0 PUSH2 0x100 EXP DUP2 SLOAD DUP2 PUSH1 0x1 PUSH1 0x1 PUSH1 0xA0 SHL SUB MUL NOT AND SWAP1 DUP4 PUSH1 0x1 PUSH1 0x1 PUSH1 0xA0 SHL SUB AND MUL OR SWAP1 SSTORE POP PUSH1 0x20 DUP3 ADD MLOAD DUP2 PUSH0 ADD PUSH1 0x14 PUSH2 0x100 EXP DUP2 SLOAD DUP2 PUSH1 0xFF MUL NOT AND SWAP1 DUP4 ISZERO ISZERO MUL OR SWAP1 SSTORE POP PUSH1 0x40 DUP3 ADD MLOAD DUP2 PUSH0 ADD PUSH1 0x15 PUSH2 0x100 EXP DUP2 SLOAD DUP2 PUSH1 0xFF MUL NOT AND SWAP1 DUP4 ISZERO ISZERO MUL OR SWAP1 SSTORE POP POP POP PUSH1 0x20 DUP3 ADD MLOAD DUP2 PUSH1 0x1 ADD PUSH0 DUP3 ADD MLOAD DUP2 PUSH0 ADD PUSH0 PUSH2 0x100 EXP DUP2 SLOAD DUP2 PUSH1 0x1 PUSH1 0x1 PUSH1 0xA0 SHL SUB MUL NOT AND SWAP1 DUP4 PUSH1 0x1 PUSH1 0x1 PUSH1 0xA0 SHL SUB AND MUL OR SWAP1 SSTORE POP PUSH1 0x20 DUP3 ADD MLOAD DUP2 PUSH0 ADD PUSH1 0x14 PUSH2 0x100 EXP DUP2 SLOAD DUP2 PUSH1 0xFF MUL NOT AND SWAP1 DUP4 ISZERO ISZERO MUL OR SWAP1 SSTORE POP PUSH1 0x40 DUP3 ADD MLOAD DUP2 PUSH0 ADD PUSH1 0x15 PUSH2 0x100 EXP DUP2 SLOAD DUP2 PUSH1 0xFF MUL NOT AND SWAP1 DUP4 ISZERO ISZERO MUL OR SWAP1 SSTORE POP POP POP PUSH1 0x40 DUP3 ADD MLOAD DUP2 PUSH1 0x2 ADD SSTORE PUSH1 0x60 DUP3 ADD MLOAD DUP2 PUSH1 0x3 ADD PUSH0 PUSH2 0x100 EXP DUP2 SLOAD DUP2 PUSH1 0xFF MUL NOT AND SWAP1 DUP4 ISZERO ISZERO MUL OR SWAP1 SSTORE POP PUSH1 0x80 DUP3 ADD MLOAD DUP2 PUSH1 0x3 ADD PUSH1 0x1 PUSH2 0x100 EXP DUP2 SLOAD DUP2 PUSH1 0xFF MUL NOT AND SWAP1 DUP4 ISZERO ISZERO MUL OR SWAP1 SSTORE POP PUSH1 0xA0 DUP3 ADD MLOAD DUP2 PUSH1 0x3 ADD PUSH1 0x2 PUSH2 0x100 EXP DUP2 SLOAD DUP2 PUSH1 0xFF MUL NOT AND SWAP1 DUP4 ISZERO ISZERO MUL OR SWAP1 SSTORE POP PUSH1 0xC0 DUP3 ADD MLOAD DUP2 PUSH1 0x3 ADD PUSH1 0x3 PUSH2 0x100 EXP DUP2 SLOAD DUP2 PUSH1 0xFF MUL NOT AND SWAP1 DUP4 PUSH1 0xFF AND MUL OR SWAP1 SSTORE POP SWAP1 POP POP DUP1 PUSH1 0xC PUSH0 DUP8 PUSH1 0x1 PUSH1 0x1 PUSH1 0xA0 SHL SUB AND PUSH1 0x1 PUSH1 0x1 PUSH1 0xA0 SHL SUB AND DUP2 MSTORE PUSH1 0x20 ADD SWAP1 DUP2 MSTORE PUSH1 0x20 ADD PUSH0 KECCAK256 PUSH0 DUP3 ADD MLOAD DUP2 PUSH0 ADD PUSH0 DUP3 ADD MLOAD DUP2 PUSH0 ADD PUSH0 PUSH2 0x100 EXP DUP2 SLOAD DUP2 PUSH1 0x1 PUSH1 0x1 PUSH1 0xA0 SHL SUB MUL NOT AND SWAP1 DUP4 PUSH1 0x1 PUSH1 0x1 PUSH1 0xA0 SHL SUB AND MUL OR SWAP1 SSTORE POP PUSH1 0x20 DUP3 ADD MLOAD DUP2 PUSH0 ADD PUSH1 0x14 PUSH2 0x100 EXP DUP2 SLOAD DUP2 PUSH1 0xFF MUL NOT AND SWAP1 DUP4 ISZERO ISZERO MUL OR SWAP1 SSTORE POP PUSH1 0x40 DUP3 ADD MLOAD DUP2 PUSH0 ADD PUSH1 0x15 PUSH2 0x100 EXP DUP2 SLOAD DUP2 PUSH1 0xFF MUL NOT AND SWAP1 DUP4 ISZERO ISZERO MUL OR SWAP1 SSTORE POP POP POP PUSH1 0x20 DUP3 ADD MLOAD DUP2 PUSH1 0x1 ADD PUSH0 DUP3 ADD MLOAD DUP2 PUSH0 ADD PUSH0 PUSH2 0x100 EXP DUP2 SLOAD DUP2 PUSH1 0x1 PUSH1 0x1 PUSH1 0xA0 SHL SUB MUL NOT AND SWAP1 DUP4 PUSH1 0x1 PUSH1 0x1 PUSH1 0xA0 SHL SUB AND MUL OR SWAP1 SSTORE POP PUSH1 0x20 DUP3 ADD MLOAD DUP2 PUSH0 ADD PUSH1 0x14 PUSH2 0x100 EXP DUP2 SLOAD DUP2 PUSH1 0xFF MUL NOT AND SWAP1 DUP4 ISZERO ISZERO MUL OR SWAP1 SSTORE POP PUSH1 0x40 DUP3 ADD MLOAD DUP2 PUSH0 ADD PUSH1 0x15 PUSH2 0x100 EXP DUP2 SLOAD DUP2 PUSH1 0xFF MUL NOT AND SWAP1 DUP4 ISZERO ISZERO MUL OR SWAP1 SSTORE POP POP POP PUSH1 0x40 DUP3 ADD MLOAD DUP2 PUSH1 0x2 ADD SSTORE PUSH1 0x60 DUP3 ADD MLOAD DUP2 PUSH1 0x3 ADD PUSH0 PUSH2 0x100 EXP DUP2 SLOAD DUP2 PUSH1 0xFF MUL NOT AND SWAP1 DUP4 ISZERO ISZERO MUL OR SWAP1 SSTORE POP PUSH1 0x80 DUP3 ADD MLOAD DUP2 PUSH1 0x3 ADD PUSH1 0x1 PUSH2 0x100 EXP DUP2 SLOAD DUP2 PUSH1 0xFF MUL NOT AND SWAP1 DUP4 ISZERO ISZERO MUL OR SWAP1 SSTORE POP PUSH1 0xA0 DUP3 ADD MLOAD DUP2 PUSH1 0x3 ADD PUSH1 0x2 PUSH2 0x100 EXP DUP2 SLOAD DUP2 PUSH1 0xFF MUL NOT AND SWAP1 DUP4 ISZERO ISZERO MUL OR SWAP1 SSTORE POP PUSH1 0xC0 DUP3 ADD MLOAD DUP2 PUSH1 0x3 ADD PUSH1 0x3 PUSH2 0x100 EXP DUP2 SLOAD DUP2 PUSH1 0xFF MUL NOT AND SWAP1 DUP4 PUSH1 0xFF AND MUL OR SWAP1 SSTORE POP SWAP1 POP POP PUSH32 0x7A7F38BE04AFB87E39B4CB52BEC76C69C4D999F605BD21054B71A3F2DC085821 CALLER DUP7 DUP7 PUSH1 0x40 MLOAD PUSH2 0xA86 SWAP4 SWAP3 SWAP2 SWAP1 PUSH1 0x1 PUSH1 0x1 PUSH1 0xA0 SHL SUB SWAP4 DUP5 AND DUP2 MSTORE SWAP2 SWAP1 SWAP3 AND PUSH1 0x20 DUP3 ADD MSTORE PUSH1 0x40 DUP2 ADD SWAP2 SWAP1 SWAP2 MSTORE PUSH1 0x60 ADD SWAP1 JUMP JUMPDEST PUSH0 DUP1 PUSH2 0x141D DUP5 PUSH2 0x1DA1 JUMP JUMPDEST PUSH1 0x1 PUSH1 0x1 PUSH1 0xA0 SHL SUB DUP2 AND PUSH0 SWAP1 DUP2 MSTORE PUSH1 0xD PUSH1 0x20 MSTORE PUSH1 0x40 SWAP1 KECCAK256 PUSH1 0x1 DUP2 ADD SLOAD SWAP2 SWAP3 POP SWAP1 PUSH1 0xFF AND DUP1 ISZERO PUSH2 0x1455 JUMPI POP PUSH1 0x1 DUP2 ADD SLOAD PUSH2 0x100 SWAP1 DIV PUSH1 0xFF AND JUMPDEST ISZERO PUSH2 0x14C2 JUMPI PUSH0 JUMPDEST DUP2 SLOAD PUSH1 0xFF DUP3 AND LT ISZERO PUSH2 0x14C0 JUMPI DUP5 PUSH1 0x1 PUSH1 0x1 PUSH1 0xA0 SHL SUB AND DUP3 PUSH0 ADD DUP3 PUSH1 0xFF AND DUP2 SLOAD DUP2 LT PUSH2 0x1489 JUMPI PUSH2 0x1489 PUSH2 0x2D7E JUMP JUMPDEST PUSH0 SWAP2 DUP3 MSTORE PUSH1 0x20 SWAP1 SWAP2 KECCAK256 ADD SLOAD PUSH1 0x1 PUSH1 0x1 PUSH1 0xA0 SHL SUB AND SUB PUSH2 0x14AE JUMPI PUSH1 0x1 SWAP4 POP POP POP POP PUSH2 0x502 JUMP JUMPDEST DUP1 PUSH2 0x14B8 DUP2 PUSH2 0x2EDB JUMP JUMPDEST SWAP2 POP POP PUSH2 0x145C JUMP JUMPDEST POP JUMPDEST POP PUSH0 SWAP5 SWAP4 POP POP POP POP JUMP JUMPDEST PUSH1 0x1 PUSH1 0x1 PUSH1 0xA0 SHL SUB DUP2 AND PUSH0 SWAP1 DUP2 MSTORE PUSH1 0xC PUSH1 0x20 MSTORE PUSH1 0x40 SWAP1 KECCAK256 PUSH1 0x3 ADD SLOAD DUP2 SWAP1 PUSH1 0xFF AND ISZERO PUSH2 0x1509 JUMPI PUSH1 0x40 MLOAD PUSH3 0x461BCD PUSH1 0xE5 SHL DUP2 MSTORE PUSH1 0x4 ADD PUSH2 0x616 SWAP1 PUSH2 0x2D92 JUMP JUMPDEST PUSH1 0x1 PUSH1 0x1 PUSH1 0xA0 SHL SUB DUP3 AND PUSH0 SWAP1 DUP2 MSTORE PUSH1 0xB PUSH1 0x20 MSTORE PUSH1 0x40 SWAP1 KECCAK256 SLOAD DUP3 SWAP1 PUSH1 0x1 PUSH1 0xA8 SHL SWAP1 DIV PUSH1 0xFF AND ISZERO PUSH2 0x154A JUMPI PUSH1 0x40 MLOAD PUSH3 0x461BCD PUSH1 0xE5 SHL DUP2 MSTORE PUSH1 0x4 ADD PUSH2 0x616 SWAP1 PUSH2 0x2E1D JUMP JUMPDEST PUSH1 0x1 PUSH1 0x1 PUSH1 0xA0 SHL SUB DUP4 AND PUSH0 SWAP1 DUP2 MSTORE PUSH1 0xB PUSH1 0x20 MSTORE PUSH1 0x40 SWAP1 KECCAK256 SLOAD DUP4 SWAP1 PUSH1 0x1 PUSH1 0xA0 SHL SWAP1 DIV PUSH1 0xFF AND ISZERO ISZERO PUSH1 0x1 EQ PUSH2 0x15B6 JUMPI PUSH1 0x40 MLOAD PUSH3 0x461BCD PUSH1 0xE5 SHL DUP2 MSTORE PUSH1 0x20 PUSH1 0x4 DUP3 ADD MSTORE PUSH1 0x14 PUSH1 0x24 DUP3 ADD MSTORE PUSH20 0x20B2323932B9B9903737BA1032B733B0B3B2B217 PUSH1 0x61 SHL PUSH1 0x44 DUP3 ADD MSTORE PUSH1 0x64 ADD PUSH2 0x616 JUMP JUMPDEST DUP4 PUSH2 0x15C1 DUP2 CALLER PUSH2 0x1412 JUMP JUMPDEST PUSH2 0x1605 JUMPI PUSH1 0x40 MLOAD PUSH3 0x461BCD PUSH1 0xE5 SHL DUP2 MSTORE PUSH1 0x20 PUSH1 0x4 DUP3 ADD MSTORE PUSH1 0x15 PUSH1 0x24 DUP3 ADD MSTORE PUSH21 0x139BDD08184818DBDB999A5C9B59590819DD595CDD PUSH1 0x5A SHL PUSH1 0x44 DUP3 ADD MSTORE PUSH1 0x64 ADD PUSH2 0x616 JUMP JUMPDEST PUSH1 0x1 PUSH1 0x1 PUSH1 0xA0 SHL SUB DUP6 AND PUSH0 SWAP1 DUP2 MSTORE PUSH1 0xD PUSH1 0x20 SWAP1 DUP2 MSTORE PUSH1 0x40 DUP1 DUP4 KECCAK256 CALLER DUP5 MSTORE PUSH1 0x2 ADD SWAP1 SWAP2 MSTORE SWAP1 KECCAK256 SLOAD DUP6 SWAP1 PUSH1 0xFF AND ISZERO PUSH2 0x166D JUMPI PUSH1 0x40 MLOAD PUSH3 0x461BCD PUSH1 0xE5 SHL DUP2 MSTORE PUSH1 0x20 PUSH1 0x4 DUP3 ADD MSTORE PUSH1 0xD PUSH1 0x24 DUP3 ADD MSTORE PUSH13 0x105B1C9958591E481D9BDD1959 PUSH1 0x9A SHL PUSH1 0x44 DUP3 ADD MSTORE PUSH1 0x64 ADD PUSH2 0x616 JUMP JUMPDEST PUSH0 PUSH2 0x1677 DUP8 PUSH2 0x1DA1 JUMP JUMPDEST PUSH1 0x1 PUSH1 0x1 PUSH1 0xA0 SHL SUB DUP2 AND PUSH0 SWAP1 DUP2 MSTORE PUSH1 0xD PUSH1 0x20 SWAP1 DUP2 MSTORE PUSH1 0x40 DUP1 DUP4 KECCAK256 CALLER DUP5 MSTORE PUSH1 0x2 DUP2 ADD SWAP1 SWAP3 MSTORE DUP3 KECCAK256 DUP1 SLOAD PUSH1 0xFF NOT AND PUSH1 0x1 OR SWAP1 SSTORE PUSH1 0x3 DUP2 ADD DUP1 SLOAD SWAP4 SWAP5 POP SWAP1 SWAP3 SWAP2 PUSH2 0x16BD DUP4 PUSH2 0x2EF9 JUMP JUMPDEST SWAP2 SWAP1 POP SSTORE POP PUSH32 0xA9862C5F43CACA0B960B097A111CE8C3752D27DF0E0F1F170B4A06A823E612B1 CALLER DUP10 PUSH1 0x40 MLOAD PUSH2 0x16F3 SWAP3 SWAP2 SWAP1 PUSH2 0x2F11 JUMP JUMPDEST PUSH1 0x40 MLOAD DUP1 SWAP2 SUB SWAP1 LOG1 PUSH2 0x1704 DUP9 PUSH2 0x1EB7 JUMP JUMPDEST POP POP POP POP POP POP POP POP JUMP JUMPDEST PUSH2 0x5B6 CALLER DUP4 DUP4 PUSH2 0x1FC6 JUMP JUMPDEST PUSH2 0x1724 DUP5 DUP5 DUP5 PUSH2 0x5BA JUMP JUMPDEST PUSH2 0x1730 DUP5 DUP5 DUP5 DUP5 PUSH2 0x205B JUMP JUMPDEST POP POP POP POP JUMP JUMPDEST CALLER PUSH0 DUP2 DUP2 MSTORE PUSH1 0xC PUSH1 0x20 MSTORE PUSH1 0x40 SWAP1 KECCAK256 DUP1 SLOAD SWAP1 SWAP2 PUSH1 0x1 PUSH1 0x1 PUSH1 0xA0 SHL SUB SWAP1 SWAP2 AND EQ DUP1 PUSH2 0x1769 JUMPI POP PUSH1 0xA SLOAD PUSH1 0x1 PUSH1 0x1 PUSH1 0xA0 SHL SUB AND CALLER EQ JUMPDEST DUP1 PUSH2 0x1780 JUMPI POP PUSH1 0x1 DUP2 ADD SLOAD PUSH1 0x1 PUSH1 0x1 PUSH1 0xA0 SHL SUB AND CALLER EQ JUMPDEST PUSH2 0x179C JUMPI PUSH1 0x40 MLOAD PUSH3 0x461BCD PUSH1 0xE5 SHL DUP2 MSTORE PUSH1 0x4 ADD PUSH2 0x616 SWAP1 PUSH2 0x2E9F JUMP JUMPDEST PUSH1 0x3 DUP2 DUP2 ADD DUP1 SLOAD PUSH1 0x1 SWAP3 SWAP1 PUSH2 0x17BC SWAP1 DUP5 SWAP1 PUSH4 0x1000000 SWAP1 DIV PUSH1 0xFF AND PUSH2 0x2F2B JUMP JUMPDEST SWAP3 POP PUSH2 0x100 EXP DUP2 SLOAD DUP2 PUSH1 0xFF MUL NOT AND SWAP1 DUP4 PUSH1 0xFF AND MUL OR SWAP1 SSTORE POP POP JUMP JUMPDEST PUSH1 0x60 PUSH2 0x17E2 DUP3 PUSH2 0x1D43 JUMP JUMPDEST POP PUSH0 PUSH2 0x17F8 PUSH1 0x40 DUP1 MLOAD PUSH1 0x20 DUP2 ADD SWAP1 SWAP2 MSTORE PUSH0 DUP2 MSTORE SWAP1 JUMP JUMPDEST SWAP1 POP PUSH0 DUP2 MLOAD GT PUSH2 0x1816 JUMPI PUSH1 0x40 MLOAD DUP1 PUSH1 0x20 ADD PUSH1 0x40 MSTORE DUP1 PUSH0 DUP2 MSTORE POP PUSH2 0x1841 JUMP JUMPDEST DUP1 PUSH2 0x1820 DUP5 PUSH2 0x2168 JUMP JUMPDEST PUSH1 0x40 MLOAD PUSH1 0x20 ADD PUSH2 0x1831 SWAP3 SWAP2 SWAP1 PUSH2 0x2F44 JUMP JUMPDEST PUSH1 0x40 MLOAD PUSH1 0x20 DUP2 DUP4 SUB SUB DUP2 MSTORE SWAP1 PUSH1 0x40 MSTORE JUMPDEST SWAP4 SWAP3 POP POP POP JUMP JUMPDEST CALLER PUSH0 DUP2 DUP2 MSTORE PUSH1 0xC PUSH1 0x20 SWAP1 DUP2 MSTORE PUSH1 0x40 DUP1 DUP4 KECCAK256 DUP2 MLOAD PUSH2 0x140 DUP2 ADD DUP4 MSTORE DUP2 SLOAD PUSH1 0x1 PUSH1 0x1 PUSH1 0xA0 SHL SUB DUP2 DUP2 AND PUSH1 0xE0 DUP5 ADD SWAP1 DUP2 MSTORE PUSH1 0xFF PUSH1 0x1 PUSH1 0xA0 SHL DUP1 DUP6 DIV DUP3 AND ISZERO ISZERO PUSH2 0x100 DUP1 DUP9 ADD SWAP2 SWAP1 SWAP2 MSTORE PUSH1 0x1 PUSH1 0xA8 SHL SWAP6 DUP7 SWAP1 DIV DUP4 AND ISZERO ISZERO PUSH2 0x120 DUP9 ADD MSTORE SWAP3 DUP7 MSTORE DUP8 MLOAD PUSH1 0x60 DUP2 DUP2 ADD DUP11 MSTORE PUSH1 0x1 DUP10 ADD SLOAD DUP1 DUP8 AND DUP4 MSTORE SWAP3 DUP4 DIV DUP5 AND ISZERO ISZERO DUP3 DUP13 ADD MSTORE SWAP6 SWAP1 SWAP2 DIV DUP3 AND ISZERO ISZERO DUP2 DUP10 ADD MSTORE DUP6 DUP10 ADD MSTORE PUSH1 0x2 DUP7 ADD SLOAD DUP6 DUP9 ADD MSTORE PUSH1 0x3 SWAP1 SWAP6 ADD SLOAD DUP1 DUP7 AND ISZERO ISZERO SWAP4 DUP6 ADD SWAP4 SWAP1 SWAP4 MSTORE DUP3 DIV DUP5 AND ISZERO ISZERO PUSH1 0x80 DUP5 ADD MSTORE PUSH3 0x10000 DUP3 DIV DUP5 AND ISZERO ISZERO PUSH1 0xA0 DUP5 ADD MSTORE PUSH4 0x1000000 SWAP1 SWAP2 DIV SWAP1 SWAP3 AND PUSH1 0xC0 DUP3 ADD MSTORE DUP1 MLOAD MLOAD DUP3 AND DUP6 MSTORE PUSH1 0xB SWAP1 SWAP4 MSTORE SWAP3 KECCAK256 SLOAD SWAP1 SWAP2 AND DUP3 EQ DUP1 PUSH2 0x1956 JUMPI POP PUSH1 0x20 DUP2 DUP2 ADD MLOAD MLOAD PUSH1 0x1 PUSH1 0x1 PUSH1 0xA0 SHL SUB SWAP1 DUP2 AND PUSH0 SWAP1 DUP2 MSTORE PUSH1 0xB SWAP1 SWAP3 MSTORE PUSH1 0x40 SWAP1 SWAP2 KECCAK256 SLOAD AND CALLER EQ JUMPDEST PUSH2 0x1972 JUMPI PUSH1 0x40 MLOAD PUSH3 0x461BCD PUSH1 0xE5 SHL DUP2 MSTORE PUSH1 0x4 ADD PUSH2 0x616 SWAP1 PUSH2 0x2DD4 JUMP JUMPDEST PUSH0 PUSH2 0x197C CALLER PUSH2 0x1DA1 JUMP JUMPDEST PUSH1 0x1 PUSH1 0x1 PUSH1 0xA0 SHL SUB DUP1 DUP3 AND PUSH0 SWAP1 DUP2 MSTORE PUSH1 0xD PUSH1 0x20 SWAP1 DUP2 MSTORE PUSH1 0x40 DUP1 DUP4 KECCAK256 CALLER DUP1 DUP6 MSTORE PUSH1 0xC SWAP1 SWAP4 MSTORE SWAP3 KECCAK256 SLOAD SWAP4 SWAP5 POP SWAP1 SWAP3 SWAP1 SWAP2 AND SWAP1 SUB PUSH2 0x19C6 JUMPI PUSH1 0x1 DUP2 DUP2 ADD DUP1 SLOAD PUSH1 0xFF NOT AND SWAP1 SWAP2 OR SWAP1 SSTORE PUSH2 0x19D8 JUMP JUMPDEST PUSH1 0x1 DUP2 ADD DUP1 SLOAD PUSH2 0xFF00 NOT AND PUSH2 0x100 OR SWAP1 SSTORE JUMPDEST PUSH1 0x1 DUP2 ADD SLOAD PUSH1 0xFF AND DUP1 ISZERO PUSH2 0x19F5 JUMPI POP PUSH1 0x1 DUP2 ADD SLOAD PUSH2 0x100 SWAP1 DIV PUSH1 0xFF AND JUMPDEST ISZERO PUSH2 0x1730 JUMPI PUSH32 0xFFACC21903A9DB21C6031D4C12C9825F13AC6469F9B894F7058A45CF1F9A3E8D CALLER PUSH1 0x40 MLOAD PUSH2 0x1A29 SWAP2 SWAP1 PUSH2 0x2A51 JUMP JUMPDEST PUSH1 0x40 MLOAD DUP1 SWAP2 SUB SWAP1 LOG1 POP POP POP POP JUMP JUMPDEST PUSH1 0x1 PUSH1 0x1 PUSH1 0xA0 SHL SUB SWAP2 DUP3 AND PUSH0 SWAP1 DUP2 MSTORE PUSH1 0x5 PUSH1 0x20 SWAP1 DUP2 MSTORE PUSH1 0x40 DUP1 DUP4 KECCAK256 SWAP4 SWAP1 SWAP5 AND DUP3 MSTORE SWAP2 SWAP1 SWAP2 MSTORE KECCAK256 SLOAD PUSH1 0xFF AND SWAP1 JUMP JUMPDEST CALLER PUSH0 DUP2 DUP2 MSTORE PUSH1 0xC PUSH1 0x20 SWAP1 DUP2 MSTORE PUSH1 0x40 DUP1 DUP4 KECCAK256 DUP2 MLOAD PUSH2 0x140 DUP2 ADD DUP4 MSTORE DUP2 SLOAD PUSH1 0x1 PUSH1 0x1 PUSH1 0xA0 SHL SUB DUP2 DUP2 AND PUSH1 0xE0 DUP5 ADD SWAP1 DUP2 MSTORE PUSH1 0xFF PUSH1 0x1 PUSH1 0xA0 SHL DUP1 DUP6 DIV DUP3 AND ISZERO ISZERO PUSH2 0x100 DUP1 DUP9 ADD SWAP2 SWAP1 SWAP2 MSTORE PUSH1 0x1 PUSH1 0xA8 SHL SWAP6 DUP7 SWAP1 DIV DUP4 AND ISZERO ISZERO PUSH2 0x120 DUP9 ADD MSTORE SWAP3 DUP7 MSTORE DUP8 MLOAD PUSH1 0x60 DUP2 DUP2 ADD DUP11 MSTORE PUSH1 0x1 DUP10 ADD SLOAD DUP1 DUP8 AND DUP4 MSTORE SWAP3 DUP4 DIV DUP5 AND ISZERO ISZERO DUP3 DUP13 ADD MSTORE SWAP6 SWAP1 SWAP2 DIV DUP3 AND ISZERO ISZERO DUP2 DUP10 ADD MSTORE DUP6 DUP10 ADD MSTORE PUSH1 0x2 DUP7 ADD SLOAD DUP6 DUP9 ADD MSTORE PUSH1 0x3 SWAP1 SWAP6 ADD SLOAD DUP1 DUP7 AND ISZERO ISZERO SWAP4 DUP6 ADD SWAP4 SWAP1 SWAP4 MSTORE DUP3 DIV DUP5 AND ISZERO ISZERO PUSH1 0x80 DUP5 ADD MSTORE PUSH3 0x10000 DUP3 DIV DUP5 AND ISZERO ISZERO PUSH1 0xA0 DUP5 ADD MSTORE PUSH4 0x1000000 SWAP1 SWAP2 DIV SWAP1 SWAP3 AND PUSH1 0xC0 DUP3 ADD MSTORE DUP1 MLOAD MLOAD DUP3 AND DUP6 MSTORE PUSH1 0xB SWAP1 SWAP4 MSTORE SWAP3 KECCAK256 SLOAD SWAP1 SWAP2 AND DUP3 EQ DUP1 PUSH2 0x1B72 JUMPI POP PUSH1 0x20 DUP2 DUP2 ADD MLOAD MLOAD PUSH1 0x1 PUSH1 0x1 PUSH1 0xA0 SHL SUB SWAP1 DUP2 AND PUSH0 SWAP1 DUP2 MSTORE PUSH1 0xB SWAP1 SWAP3 MSTORE PUSH1 0x40 SWAP1 SWAP2 KECCAK256 SLOAD AND CALLER EQ JUMPDEST PUSH2 0x1B8E JUMPI PUSH1 0x40 MLOAD PUSH3 0x461BCD PUSH1 0xE5 SHL DUP2 MSTORE PUSH1 0x4 ADD PUSH2 0x616 SWAP1 PUSH2 0x2DD4 JUMP JUMPDEST CALLER PUSH0 DUP2 DUP2 MSTORE PUSH1 0xC PUSH1 0x20 MSTORE PUSH1 0x40 SWAP1 KECCAK256 PUSH1 0x3 ADD SLOAD PUSH1 0xFF AND ISZERO PUSH2 0x1BC0 JUMPI PUSH1 0x40 MLOAD PUSH3 0x461BCD PUSH1 0xE5 SHL DUP2 MSTORE PUSH1 0x4 ADD PUSH2 0x616 SWAP1 PUSH2 0x2D92 JUMP JUMPDEST CALLER PUSH0 DUP2 DUP2 MSTORE PUSH1 0xB PUSH1 0x20 MSTORE PUSH1 0x40 SWAP1 KECCAK256 SLOAD PUSH1 0x1 PUSH1 0xA8 SHL SWAP1 DIV PUSH1 0xFF AND ISZERO PUSH2 0x1BF6 JUMPI PUSH1 0x40 MLOAD PUSH3 0x461BCD PUSH1 0xE5 SHL DUP2 MSTORE PUSH1 0x4 ADD PUSH2 0x616 SWAP1 PUSH2 0x2E1D JUMP JUMPDEST PUSH0 PUSH1 0xC PUSH0 PUSH2 0x1C03 CALLER PUSH2 0x1DA1 JUMP JUMPDEST PUSH1 0x1 PUSH1 0x1 PUSH1 0xA0 SHL SUB SWAP1 DUP2 AND DUP3 MSTORE PUSH1 0x20 DUP3 ADD SWAP3 SWAP1 SWAP3 MSTORE PUSH1 0x40 ADD PUSH0 KECCAK256 DUP1 SLOAD SWAP1 SWAP3 POP AND CALLER SUB PUSH2 0x1C69 JUMPI PUSH1 0x3 DUP2 ADD SLOAD PUSH2 0x100 SWAP1 DIV PUSH1 0xFF AND ISZERO PUSH2 0x1C53 JUMPI PUSH1 0x40 MLOAD PUSH3 0x461BCD PUSH1 0xE5 SHL DUP2 MSTORE PUSH1 0x4 ADD PUSH2 0x616 SWAP1 PUSH2 0x2F72 JUMP JUMPDEST PUSH1 0x3 DUP2 ADD DUP1 SLOAD PUSH2 0xFF00 NOT AND PUSH2 0x100 OR SWAP1 SSTORE PUSH2 0x1CBC JUMP JUMPDEST PUSH1 0x1 DUP2 ADD SLOAD PUSH1 0x1 PUSH1 0x1 PUSH1 0xA0 SHL SUB AND CALLER SUB PUSH2 0x1CBC JUMPI PUSH1 0x3 DUP2 ADD SLOAD PUSH3 0x10000 SWAP1 DIV PUSH1 0xFF AND ISZERO PUSH2 0x1CA8 JUMPI PUSH1 0x40 MLOAD PUSH3 0x461BCD PUSH1 0xE5 SHL DUP2 MSTORE PUSH1 0x4 ADD PUSH2 0x616 SWAP1 PUSH2 0x2F72 JUMP JUMPDEST PUSH1 0x3 DUP2 ADD DUP1 SLOAD PUSH3 0xFF0000 NOT AND PUSH3 0x10000 OR SWAP1 SSTORE JUMPDEST PUSH1 0x3 DUP2 ADD SLOAD PUSH2 0x100 SWAP1 DIV PUSH1 0xFF AND DUP1 ISZERO PUSH2 0x1CDF JUMPI POP PUSH1 0x3 DUP2 ADD SLOAD PUSH3 0x10000 SWAP1 DIV PUSH1 0xFF AND JUMPDEST ISZERO PUSH2 0x1CED JUMPI PUSH2 0x1CED DUP2 PUSH2 0x21F7 JUMP JUMPDEST POP POP POP POP POP JUMP JUMPDEST PUSH0 PUSH1 0x1 PUSH1 0x1 PUSH1 0xE0 SHL SUB NOT DUP3 AND PUSH4 0x80AC58CD PUSH1 0xE0 SHL EQ DUP1 PUSH2 0x1D24 JUMPI POP PUSH1 0x1 PUSH1 0x1 PUSH1 0xE0 SHL SUB NOT DUP3 AND PUSH4 0x5B5E139F PUSH1 0xE0 SHL EQ JUMPDEST DUP1 PUSH2 0x502 JUMPI POP PUSH4 0x1FFC9A7 PUSH1 0xE0 SHL PUSH1 0x1 PUSH1 0x1 PUSH1 0xE0 SHL SUB NOT DUP4 AND EQ PUSH2 0x502 JUMP JUMPDEST PUSH0 DUP1 PUSH2 0x1D4E DUP4 PUSH2 0x22C0 JUMP JUMPDEST SWAP1 POP PUSH1 0x1 PUSH1 0x1 PUSH1 0xA0 SHL SUB DUP2 AND PUSH2 0x502 JUMPI PUSH1 0x40 MLOAD PUSH4 0x7E273289 PUSH1 0xE0 SHL DUP2 MSTORE PUSH1 0x4 DUP2 ADD DUP5 SWAP1 MSTORE PUSH1 0x24 ADD PUSH2 0x616 JUMP JUMPDEST PUSH0 SWAP1 DUP2 MSTORE PUSH1 0x4 PUSH1 0x20 MSTORE PUSH1 0x40 SWAP1 KECCAK256 SLOAD PUSH1 0x1 PUSH1 0x1 PUSH1 0xA0 SHL SUB AND SWAP1 JUMP JUMPDEST PUSH2 0x68E DUP4 DUP4 DUP4 PUSH1 0x1 PUSH2 0x22DA JUMP JUMPDEST PUSH1 0x1 PUSH1 0x1 PUSH1 0xA0 SHL SUB SWAP1 DUP2 AND PUSH0 SWAP1 DUP2 MSTORE PUSH1 0xC PUSH1 0x20 SWAP1 DUP2 MSTORE PUSH1 0x40 SWAP2 DUP3 SWAP1 KECCAK256 DUP3 MLOAD PUSH2 0x140 DUP2 ADD DUP5 MSTORE DUP2 SLOAD DUP1 DUP7 AND PUSH1 0xE0 DUP4 ADD SWAP1 DUP2 MSTORE PUSH1 0xFF PUSH1 0x1 PUSH1 0xA0 SHL DUP1 DUP5 DIV DUP3 AND ISZERO ISZERO PUSH2 0x100 DUP1 DUP8 ADD SWAP2 SWAP1 SWAP2 MSTORE PUSH1 0x1 PUSH1 0xA8 SHL SWAP5 DUP6 SWAP1 DIV DUP4 AND ISZERO ISZERO PUSH2 0x120 DUP8 ADD MSTORE SWAP3 DUP6 MSTORE DUP8 MLOAD PUSH1 0x60 DUP2 DUP2 ADD DUP11 MSTORE PUSH1 0x1 DUP9 ADD SLOAD SWAP11 DUP12 AND DUP3 MSTORE SWAP2 DUP11 DIV DUP4 AND ISZERO ISZERO DUP2 DUP10 ADD MSTORE SWAP4 SWAP1 SWAP9 DIV DUP2 AND ISZERO ISZERO DUP4 DUP9 ADD MSTORE SWAP5 DUP4 ADD SWAP2 SWAP1 SWAP2 MSTORE PUSH1 0x2 DUP4 ADD SLOAD SWAP5 DUP3 ADD SWAP5 SWAP1 SWAP5 MSTORE PUSH1 0x3 SWAP1 SWAP2 ADD SLOAD DUP1 DUP4 AND ISZERO ISZERO SWAP5 DUP3 ADD SWAP5 SWAP1 SWAP5 MSTORE SWAP2 DUP4 DIV DUP2 AND ISZERO ISZERO PUSH1 0x80 DUP4 ADD MSTORE PUSH3 0x10000 DUP4 DIV DUP2 AND ISZERO ISZERO PUSH1 0xA0 DUP4 ADD MSTORE PUSH4 0x1000000 SWAP1 SWAP3 DIV SWAP1 SWAP2 AND PUSH1 0xC0 DUP3 ADD MSTORE MLOAD MLOAD SWAP1 JUMP JUMPDEST PUSH0 PUSH2 0x1E8B PUSH0 DUP4 PUSH0 PUSH2 0x23D5 JUMP JUMPDEST SWAP1 POP PUSH1 0x1 PUSH1 0x1 PUSH1 0xA0 SHL SUB DUP2 AND PUSH2 0x5B6 JUMPI PUSH1 0x40 MLOAD PUSH4 0x7E273289 PUSH1 0xE0 SHL DUP2 MSTORE PUSH1 0x4 DUP2 ADD DUP4 SWAP1 MSTORE PUSH1 0x24 ADD PUSH2 0x616 JUMP JUMPDEST PUSH0 PUSH2 0x1EC1 DUP3 PUSH2 0x1DA1 JUMP JUMPDEST PUSH1 0x1 PUSH1 0x1 PUSH1 0xA0 SHL SUB DUP1 DUP3 AND PUSH0 SWAP1 DUP2 MSTORE PUSH1 0xD PUSH1 0x20 SWAP1 DUP2 MSTORE PUSH1 0x40 DUP1 DUP4 KECCAK256 SWAP4 DUP8 AND DUP4 MSTORE PUSH1 0xC SWAP1 SWAP2 MSTORE DUP2 KECCAK256 DUP3 SLOAD SWAP4 SWAP5 POP SWAP2 SWAP3 SWAP1 PUSH1 0x2 PUSH2 0x1EFD DUP4 PUSH1 0x1 PUSH2 0x2F9D JUMP JUMPDEST PUSH2 0x1F07 SWAP2 SWAP1 PUSH2 0x2FB0 JUMP JUMPDEST SWAP1 POP DUP1 DUP5 PUSH1 0x3 ADD SLOAD LT PUSH2 0x1FBE JUMPI PUSH1 0x3 DUP4 ADD DUP1 SLOAD PUSH1 0xFF NOT AND PUSH1 0x1 SWAP1 DUP2 OR SWAP1 SWAP2 SSTORE DUP4 SLOAD PUSH1 0x1 PUSH1 0x1 PUSH1 0xA0 SHL SUB SWAP1 DUP2 AND PUSH0 SWAP1 DUP2 MSTORE PUSH1 0xB PUSH1 0x20 MSTORE PUSH1 0x40 DUP1 DUP3 KECCAK256 DUP1 SLOAD PUSH1 0xFF PUSH1 0xA0 SHL NOT SWAP1 DUP2 AND SWAP1 SWAP2 SSTORE SWAP4 DUP8 ADD SLOAD DUP4 AND DUP3 MSTORE SWAP1 DUP2 SWAP1 KECCAK256 DUP1 SLOAD SWAP1 SWAP4 AND SWAP1 SWAP3 SSTORE DUP5 SLOAD SWAP2 MLOAD PUSH0 DUP1 MLOAD PUSH1 0x20 PUSH2 0x304E DUP4 CODECOPY DUP2 MLOAD SWAP2 MSTORE SWAP3 PUSH2 0x1F81 SWAP3 AND SWAP1 PUSH2 0x2A51 JUMP JUMPDEST PUSH1 0x40 MLOAD DUP1 SWAP2 SUB SWAP1 LOG1 PUSH1 0x1 DUP4 ADD SLOAD PUSH1 0x40 MLOAD PUSH0 DUP1 MLOAD PUSH1 0x20 PUSH2 0x304E DUP4 CODECOPY DUP2 MLOAD SWAP2 MSTORE SWAP2 PUSH2 0x1FB5 SWAP2 PUSH1 0x1 PUSH1 0x1 PUSH1 0xA0 SHL SUB SWAP1 SWAP2 AND SWAP1 PUSH2 0x2A51 JUMP JUMPDEST PUSH1 0x40 MLOAD DUP1 SWAP2 SUB SWAP1 LOG1 JUMPDEST POP POP POP POP POP POP JUMP JUMPDEST PUSH1 0x1 PUSH1 0x1 PUSH1 0xA0 SHL SUB DUP3 AND PUSH2 0x1FEF JUMPI DUP2 PUSH1 0x40 MLOAD PUSH4 0xB611743 PUSH1 0xE3 SHL DUP2 MSTORE PUSH1 0x4 ADD PUSH2 0x616 SWAP2 SWAP1 PUSH2 0x2A51 JUMP JUMPDEST PUSH1 0x1 PUSH1 0x1 PUSH1 0xA0 SHL SUB DUP4 DUP2 AND PUSH0 DUP2 DUP2 MSTORE PUSH1 0x5 PUSH1 0x20 SWAP1 DUP2 MSTORE PUSH1 0x40 DUP1 DUP4 KECCAK256 SWAP5 DUP8 AND DUP1 DUP5 MSTORE SWAP5 DUP3 MSTORE SWAP2 DUP3 SWAP1 KECCAK256 DUP1 SLOAD PUSH1 0xFF NOT AND DUP7 ISZERO ISZERO SWAP1 DUP2 OR SWAP1 SWAP2 SSTORE SWAP2 MLOAD SWAP2 DUP3 MSTORE PUSH32 0x17307EAB39AB6107E8899845AD3D59BD9653F200F220920489CA2B5937696C31 SWAP2 ADD PUSH1 0x40 MLOAD DUP1 SWAP2 SUB SWAP1 LOG3 POP POP POP JUMP JUMPDEST PUSH1 0x1 PUSH1 0x1 PUSH1 0xA0 SHL SUB DUP4 AND EXTCODESIZE ISZERO PUSH2 0x1730 JUMPI PUSH1 0x40 MLOAD PUSH4 0xA85BD01 PUSH1 0xE1 SHL DUP2 MSTORE PUSH1 0x1 PUSH1 0x1 PUSH1 0xA0 SHL SUB DUP5 AND SWAP1 PUSH4 0x150B7A02 SWAP1 PUSH2 0x209D SWAP1 CALLER SWAP1 DUP9 SWAP1 DUP8 SWAP1 DUP8 SWAP1 PUSH1 0x4 ADD PUSH2 0x2FCF JUMP JUMPDEST PUSH1 0x20 PUSH1 0x40 MLOAD DUP1 DUP4 SUB DUP2 PUSH0 DUP8 GAS CALL SWAP3 POP POP POP DUP1 ISZERO PUSH2 0x20D7 JUMPI POP PUSH1 0x40 DUP1 MLOAD PUSH1 0x1F RETURNDATASIZE SWAP1 DUP2 ADD PUSH1 0x1F NOT AND DUP3 ADD SWAP1 SWAP3 MSTORE PUSH2 0x20D4 SWAP2 DUP2 ADD SWAP1 PUSH2 0x300B JUMP JUMPDEST PUSH1 0x1 JUMPDEST PUSH2 0x2135 JUMPI RETURNDATASIZE DUP1 DUP1 ISZERO PUSH2 0x2104 JUMPI PUSH1 0x40 MLOAD SWAP2 POP PUSH1 0x1F NOT PUSH1 0x3F RETURNDATASIZE ADD AND DUP3 ADD PUSH1 0x40 MSTORE RETURNDATASIZE DUP3 MSTORE RETURNDATASIZE PUSH0 PUSH1 0x20 DUP5 ADD RETURNDATACOPY PUSH2 0x2109 JUMP JUMPDEST PUSH1 0x60 SWAP2 POP JUMPDEST POP DUP1 MLOAD PUSH0 SUB PUSH2 0x212D JUMPI DUP4 PUSH1 0x40 MLOAD PUSH4 0x32505749 PUSH1 0xE1 SHL DUP2 MSTORE PUSH1 0x4 ADD PUSH2 0x616 SWAP2 SWAP1 PUSH2 0x2A51 JUMP JUMPDEST DUP1 MLOAD DUP2 PUSH1 0x20 ADD REVERT JUMPDEST PUSH1 0x1 PUSH1 0x1 PUSH1 0xE0 SHL SUB NOT DUP2 AND PUSH4 0xA85BD01 PUSH1 0xE1 SHL EQ PUSH2 0x1CED JUMPI DUP4 PUSH1 0x40 MLOAD PUSH4 0x32505749 PUSH1 0xE1 SHL DUP2 MSTORE PUSH1 0x4 ADD PUSH2 0x616 SWAP2 SWAP1 PUSH2 0x2A51 JUMP JUMPDEST PUSH1 0x60 PUSH0 PUSH2 0x2174 DUP4 PUSH2 0x24A8 JUMP JUMPDEST PUSH1 0x1 ADD SWAP1 POP PUSH0 DUP2 PUSH1 0x1 PUSH1 0x1 PUSH1 0x40 SHL SUB DUP2 GT ISZERO PUSH2 0x2192 JUMPI PUSH2 0x2192 PUSH2 0x2C45 JUMP JUMPDEST PUSH1 0x40 MLOAD SWAP1 DUP1 DUP3 MSTORE DUP1 PUSH1 0x1F ADD PUSH1 0x1F NOT AND PUSH1 0x20 ADD DUP3 ADD PUSH1 0x40 MSTORE DUP1 ISZERO PUSH2 0x21BC JUMPI PUSH1 0x20 DUP3 ADD DUP2 DUP1 CALLDATASIZE DUP4 CALLDATACOPY ADD SWAP1 POP JUMPDEST POP SWAP1 POP DUP2 DUP2 ADD PUSH1 0x20 ADD JUMPDEST PUSH0 NOT ADD PUSH16 0x181899199A1A9B1B9C1CB0B131B232B3 PUSH1 0x81 SHL PUSH1 0xA DUP7 MOD BYTE DUP2 MSTORE8 PUSH1 0xA DUP6 DIV SWAP5 POP DUP5 PUSH2 0x21C6 JUMPI POP SWAP4 SWAP3 POP POP POP JUMP JUMPDEST DUP1 SLOAD PUSH1 0x1 PUSH1 0x1 PUSH1 0xA0 SHL SUB SWAP1 DUP2 AND PUSH0 SWAP1 DUP2 MSTORE PUSH1 0xB PUSH1 0x20 MSTORE PUSH1 0x40 DUP1 DUP3 KECCAK256 DUP1 SLOAD PUSH1 0x1 PUSH1 0xA8 SHL PUSH1 0xFF PUSH1 0xA8 SHL NOT SWAP2 DUP3 AND DUP2 OR SWAP1 SWAP3 SSTORE PUSH1 0x1 DUP7 ADD DUP1 SLOAD DUP7 AND DUP6 MSTORE SWAP4 DUP4 SWAP1 KECCAK256 DUP1 SLOAD SWAP1 SWAP2 AND SWAP1 SWAP2 OR SWAP1 SSTORE DUP4 SLOAD SWAP2 SLOAD SWAP1 MLOAD PUSH32 0x5C8EC7A25A142B043EE1D70B00B983786A266CED5B4E6B540DDC769276626819 SWAP4 PUSH2 0x2275 SWAP4 DUP2 AND SWAP3 AND SWAP1 PUSH2 0x2F11 JUMP JUMPDEST PUSH1 0x40 MLOAD DUP1 SWAP2 SUB SWAP1 LOG1 DUP1 SLOAD PUSH2 0x22A5 SWAP1 PUSH1 0x1 PUSH1 0x1 PUSH1 0xA0 SHL SUB AND PUSH2 0x2295 PUSH1 0x8 SLOAD SWAP1 JUMP JUMPDEST PUSH2 0x22A0 SWAP1 PUSH1 0x1 PUSH2 0x2F9D JUMP JUMPDEST PUSH2 0x257D JUMP JUMPDEST PUSH1 0x1 DUP2 ADD SLOAD PUSH2 0xCBC SWAP1 PUSH1 0x1 PUSH1 0x1 PUSH1 0xA0 SHL SUB AND PUSH2 0x2295 PUSH1 0x8 SLOAD SWAP1 JUMP JUMPDEST PUSH0 SWAP1 DUP2 MSTORE PUSH1 0x2 PUSH1 0x20 MSTORE PUSH1 0x40 SWAP1 KECCAK256 SLOAD PUSH1 0x1 PUSH1 0x1 PUSH1 0xA0 SHL SUB AND SWAP1 JUMP JUMPDEST DUP1 DUP1 PUSH2 0x22EE JUMPI POP PUSH1 0x1 PUSH1 0x1 PUSH1 0xA0 SHL SUB DUP3 AND ISZERO ISZERO JUMPDEST ISZERO PUSH2 0x23A6 JUMPI PUSH0 PUSH2 0x22FD DUP5 PUSH2 0x1D43 JUMP JUMPDEST SWAP1 POP PUSH1 0x1 PUSH1 0x1 PUSH1 0xA0 SHL SUB DUP4 AND ISZERO DUP1 ISZERO SWAP1 PUSH2 0x2329 JUMPI POP DUP3 PUSH1 0x1 PUSH1 0x1 PUSH1 0xA0 SHL SUB AND DUP2 PUSH1 0x1 PUSH1 0x1 PUSH1 0xA0 SHL SUB AND EQ ISZERO JUMPDEST DUP1 ISZERO PUSH2 0x233C JUMPI POP PUSH2 0x233A DUP2 DUP5 PUSH2 0x1A37 JUMP JUMPDEST ISZERO JUMPDEST ISZERO PUSH2 0x235C JUMPI DUP3 PUSH1 0x40 MLOAD PUSH4 0xA9FBF51F PUSH1 0xE0 SHL DUP2 MSTORE PUSH1 0x4 ADD PUSH2 0x616 SWAP2 SWAP1 PUSH2 0x2A51 JUMP JUMPDEST DUP2 ISZERO PUSH2 0x23A4 JUMPI DUP4 DUP6 PUSH1 0x1 PUSH1 0x1 PUSH1 0xA0 SHL SUB AND DUP3 PUSH1 0x1 PUSH1 0x1 PUSH1 0xA0 SHL SUB AND PUSH32 0x8C5BE1E5EBEC7D5BD14F71427D1E84F3DD0314C0F7B2291E5B200AC8C7C3B925 PUSH1 0x40 MLOAD PUSH1 0x40 MLOAD DUP1 SWAP2 SUB SWAP1 LOG4 JUMPDEST POP JUMPDEST POP POP PUSH0 SWAP1 DUP2 MSTORE PUSH1 0x4 PUSH1 0x20 MSTORE PUSH1 0x40 SWAP1 KECCAK256 DUP1 SLOAD PUSH1 0x1 PUSH1 0x1 PUSH1 0xA0 SHL SUB NOT AND PUSH1 0x1 PUSH1 0x1 PUSH1 0xA0 SHL SUB SWAP3 SWAP1 SWAP3 AND SWAP2 SWAP1 SWAP2 OR SWAP1 SSTORE JUMP JUMPDEST PUSH0 DUP1 PUSH2 0x23E2 DUP6 DUP6 DUP6 PUSH2 0x2596 JUMP JUMPDEST SWAP1 POP PUSH1 0x1 PUSH1 0x1 PUSH1 0xA0 SHL SUB DUP2 AND PUSH2 0x243E JUMPI PUSH2 0x2439 DUP5 PUSH1 0x8 DUP1 SLOAD PUSH0 DUP4 DUP2 MSTORE PUSH1 0x9 PUSH1 0x20 MSTORE PUSH1 0x40 DUP2 KECCAK256 DUP3 SWAP1 SSTORE PUSH1 0x1 DUP3 ADD DUP4 SSTORE SWAP2 SWAP1 SWAP2 MSTORE PUSH32 0xF3F7A9FE364FAAB93B216DA50A3214154F22A0A2B415B23A84C8169E8B636EE3 ADD SSTORE JUMP JUMPDEST PUSH2 0x2461 JUMP JUMPDEST DUP5 PUSH1 0x1 PUSH1 0x1 PUSH1 0xA0 SHL SUB AND DUP2 PUSH1 0x1 PUSH1 0x1 PUSH1 0xA0 SHL SUB AND EQ PUSH2 0x2461 JUMPI PUSH2 0x2461 DUP2 DUP6 PUSH2 0x2683 JUMP JUMPDEST PUSH1 0x1 PUSH1 0x1 PUSH1 0xA0 SHL SUB DUP6 AND PUSH2 0x247D JUMPI PUSH2 0x2478 DUP5 PUSH2 0x2710 JUMP JUMPDEST PUSH2 0x24A0 JUMP JUMPDEST DUP5 PUSH1 0x1 PUSH1 0x1 PUSH1 0xA0 SHL SUB AND DUP2 PUSH1 0x1 PUSH1 0x1 PUSH1 0xA0 SHL SUB AND EQ PUSH2 0x24A0 JUMPI PUSH2 0x24A0 DUP6 DUP6 PUSH2 0x27B7 JUMP JUMPDEST SWAP5 SWAP4 POP POP POP POP JUMP JUMPDEST PUSH0 DUP1 PUSH19 0x184F03E93FF9F4DAA797ED6E38ED64BF6A1F01 PUSH1 0x40 SHL DUP4 LT PUSH2 0x24E6 JUMPI PUSH19 0x184F03E93FF9F4DAA797ED6E38ED64BF6A1F01 PUSH1 0x40 SHL DUP4 DIV SWAP3 POP PUSH1 0x40 ADD JUMPDEST PUSH10 0x4EE2D6D415B85ACEF81 PUSH1 0x20 SHL DUP4 LT PUSH2 0x2510 JUMPI PUSH10 0x4EE2D6D415B85ACEF81 PUSH1 0x20 SHL DUP4 DIV SWAP3 POP PUSH1 0x20 ADD JUMPDEST PUSH7 0x2386F26FC10000 DUP4 LT PUSH2 0x252E JUMPI PUSH7 0x2386F26FC10000 DUP4 DIV SWAP3 POP PUSH1 0x10 ADD JUMPDEST PUSH4 0x5F5E100 DUP4 LT PUSH2 0x2546 JUMPI PUSH4 0x5F5E100 DUP4 DIV SWAP3 POP PUSH1 0x8 ADD JUMPDEST PUSH2 0x2710 DUP4 LT PUSH2 0x255A JUMPI PUSH2 0x2710 DUP4 DIV SWAP3 POP PUSH1 0x4 ADD JUMPDEST PUSH1 0x64 DUP4 LT PUSH2 0x256C JUMPI PUSH1 0x64 DUP4 DIV SWAP3 POP PUSH1 0x2 ADD JUMPDEST PUSH1 0xA DUP4 LT PUSH2 0x502 JUMPI PUSH1 0x1 ADD SWAP3 SWAP2 POP POP JUMP JUMPDEST PUSH2 0x5B6 DUP3 DUP3 PUSH1 0x40 MLOAD DUP1 PUSH1 0x20 ADD PUSH1 0x40 MSTORE DUP1 PUSH0 DUP2 MSTORE POP PUSH2 0x2805 JUMP JUMPDEST PUSH0 DUP1 PUSH2 0x25A1 DUP5 PUSH2 0x22C0 JUMP JUMPDEST SWAP1 POP PUSH1 0x1 PUSH1 0x1 PUSH1 0xA0 SHL SUB DUP4 AND ISZERO PUSH2 0x25BD JUMPI PUSH2 0x25BD DUP2 DUP5 DUP7 PUSH2 0x281B JUMP JUMPDEST PUSH1 0x1 PUSH1 0x1 PUSH1 0xA0 SHL SUB DUP2 AND ISZERO PUSH2 0x25F7 JUMPI PUSH2 0x25D8 PUSH0 DUP6 PUSH0 DUP1 PUSH2 0x22DA JUMP JUMPDEST PUSH1 0x1 PUSH1 0x1 PUSH1 0xA0 SHL SUB DUP2 AND PUSH0 SWAP1 DUP2 MSTORE PUSH1 0x3 PUSH1 0x20 MSTORE PUSH1 0x40 SWAP1 KECCAK256 DUP1 SLOAD PUSH0 NOT ADD SWAP1 SSTORE JUMPDEST PUSH1 0x1 PUSH1 0x1 PUSH1 0xA0 SHL SUB DUP6 AND ISZERO PUSH2 0x2625 JUMPI PUSH1 0x1 PUSH1 0x1 PUSH1 0xA0 SHL SUB DUP6 AND PUSH0 SWAP1 DUP2 MSTORE PUSH1 0x3 PUSH1 0x20 MSTORE PUSH1 0x40 SWAP1 KECCAK256 DUP1 SLOAD PUSH1 0x1 ADD SWAP1 SSTORE JUMPDEST PUSH0 DUP5 DUP2 MSTORE PUSH1 0x2 PUSH1 0x20 MSTORE PUSH1 0x40 DUP1 DUP3 KECCAK256 DUP1 SLOAD PUSH1 0x1 PUSH1 0x1 PUSH1 0xA0 SHL SUB NOT AND PUSH1 0x1 PUSH1 0x1 PUSH1 0xA0 SHL SUB DUP10 DUP2 AND SWAP2 DUP3 OR SWAP1 SWAP3 SSTORE SWAP2 MLOAD DUP8 SWAP4 SWAP2 DUP6 AND SWAP2 PUSH32 0xDDF252AD1BE2C89B69C2B068FC378DAA952BA7F163C4A11628F55A4DF523B3EF SWAP2 LOG4 SWAP5 SWAP4 POP POP POP POP JUMP JUMPDEST PUSH0 PUSH2 0x268D DUP4 PUSH2 0x80F JUMP JUMPDEST PUSH0 DUP4 DUP2 MSTORE PUSH1 0x7 PUSH1 0x20 MSTORE PUSH1 0x40 SWAP1 KECCAK256 SLOAD SWAP1 SWAP2 POP DUP1 DUP3 EQ PUSH2 0x26DE JUMPI PUSH1 0x1 PUSH1 0x1 PUSH1 0xA0 SHL SUB DUP5 AND PUSH0 SWAP1 DUP2 MSTORE PUSH1 0x6 PUSH1 0x20 SWAP1 DUP2 MSTORE PUSH1 0x40 DUP1 DUP4 KECCAK256 DUP6 DUP5 MSTORE DUP3 MSTORE DUP1 DUP4 KECCAK256 SLOAD DUP5 DUP5 MSTORE DUP2 DUP5 KECCAK256 DUP2 SWAP1 SSTORE DUP4 MSTORE PUSH1 0x7 SWAP1 SWAP2 MSTORE SWAP1 KECCAK256 DUP2 SWAP1 SSTORE JUMPDEST POP PUSH0 SWAP2 DUP3 MSTORE PUSH1 0x7 PUSH1 0x20 SWAP1 DUP2 MSTORE PUSH1 0x40 DUP1 DUP5 KECCAK256 DUP5 SWAP1 SSTORE PUSH1 0x1 PUSH1 0x1 PUSH1 0xA0 SHL SUB SWAP1 SWAP5 AND DUP4 MSTORE PUSH1 0x6 DUP2 MSTORE DUP4 DUP4 KECCAK256 SWAP2 DUP4 MSTORE MSTORE SWAP1 DUP2 KECCAK256 SSTORE JUMP JUMPDEST PUSH1 0x8 SLOAD PUSH0 SWAP1 PUSH2 0x2721 SWAP1 PUSH1 0x1 SWAP1 PUSH2 0x3026 JUMP JUMPDEST PUSH0 DUP4 DUP2 MSTORE PUSH1 0x9 PUSH1 0x20 MSTORE PUSH1 0x40 DUP2 KECCAK256 SLOAD PUSH1 0x8 DUP1 SLOAD SWAP4 SWAP5 POP SWAP1 SWAP3 DUP5 SWAP1 DUP2 LT PUSH2 0x2748 JUMPI PUSH2 0x2748 PUSH2 0x2D7E JUMP JUMPDEST SWAP1 PUSH0 MSTORE PUSH1 0x20 PUSH0 KECCAK256 ADD SLOAD SWAP1 POP DUP1 PUSH1 0x8 DUP4 DUP2 SLOAD DUP2 LT PUSH2 0x2767 JUMPI PUSH2 0x2767 PUSH2 0x2D7E JUMP JUMPDEST PUSH0 SWAP2 DUP3 MSTORE PUSH1 0x20 DUP1 DUP4 KECCAK256 SWAP1 SWAP2 ADD SWAP3 SWAP1 SWAP3 SSTORE DUP3 DUP2 MSTORE PUSH1 0x9 SWAP1 SWAP2 MSTORE PUSH1 0x40 DUP1 DUP3 KECCAK256 DUP5 SWAP1 SSTORE DUP6 DUP3 MSTORE DUP2 KECCAK256 SSTORE PUSH1 0x8 DUP1 SLOAD DUP1 PUSH2 0x279E JUMPI PUSH2 0x279E PUSH2 0x3039 JUMP JUMPDEST PUSH1 0x1 SWAP1 SUB DUP2 DUP2 SWAP1 PUSH0 MSTORE PUSH1 0x20 PUSH0 KECCAK256 ADD PUSH0 SWAP1 SSTORE SWAP1 SSTORE POP POP POP POP JUMP JUMPDEST PUSH0 PUSH1 0x1 PUSH2 0x27C3 DUP5 PUSH2 0x80F JUMP JUMPDEST PUSH2 0x27CD SWAP2 SWAP1 PUSH2 0x3026 JUMP JUMPDEST PUSH1 0x1 PUSH1 0x1 PUSH1 0xA0 SHL SUB SWAP1 SWAP4 AND PUSH0 SWAP1 DUP2 MSTORE PUSH1 0x6 PUSH1 0x20 SWAP1 DUP2 MSTORE PUSH1 0x40 DUP1 DUP4 KECCAK256 DUP7 DUP5 MSTORE DUP3 MSTORE DUP1 DUP4 KECCAK256 DUP6 SWAP1 SSTORE SWAP4 DUP3 MSTORE PUSH1 0x7 SWAP1 MSTORE SWAP2 SWAP1 SWAP2 KECCAK256 SWAP2 SWAP1 SWAP2 SSTORE POP JUMP JUMPDEST PUSH2 0x280F DUP4 DUP4 PUSH2 0x2871 JUMP JUMPDEST PUSH2 0x68E PUSH0 DUP5 DUP5 DUP5 PUSH2 0x205B JUMP JUMPDEST PUSH2 0x2826 DUP4 DUP4 DUP4 PUSH2 0x28D2 JUMP JUMPDEST PUSH2 0x68E JUMPI PUSH1 0x1 PUSH1 0x1 PUSH1 0xA0 SHL SUB DUP4 AND PUSH2 0x2854 JUMPI PUSH1 0x40 MLOAD PUSH4 0x7E273289 PUSH1 0xE0 SHL DUP2 MSTORE PUSH1 0x4 DUP2 ADD DUP3 SWAP1 MSTORE PUSH1 0x24 ADD PUSH2 0x616 JUMP JUMPDEST DUP2 DUP2 PUSH1 0x40 MLOAD PUSH4 0x177E802F PUSH1 0xE0 SHL DUP2 MSTORE PUSH1 0x4 ADD PUSH2 0x616 SWAP3 SWAP2 SWAP1 PUSH2 0x2D65 JUMP JUMPDEST PUSH1 0x1 PUSH1 0x1 PUSH1 0xA0 SHL SUB DUP3 AND PUSH2 0x289A JUMPI PUSH0 PUSH1 0x40 MLOAD PUSH4 0x32505749 PUSH1 0xE1 SHL DUP2 MSTORE PUSH1 0x4 ADD PUSH2 0x616 SWAP2 SWAP1 PUSH2 0x2A51 JUMP JUMPDEST PUSH0 PUSH2 0x28A6 DUP4 DUP4 PUSH0 PUSH2 0x23D5 JUMP JUMPDEST SWAP1 POP PUSH1 0x1 PUSH1 0x1 PUSH1 0xA0 SHL SUB DUP2 AND ISZERO PUSH2 0x68E JUMPI PUSH0 PUSH1 0x40 MLOAD PUSH4 0x39E35637 PUSH1 0xE1 SHL DUP2 MSTORE PUSH1 0x4 ADD PUSH2 0x616 SWAP2 SWAP1 PUSH2 0x2A51 JUMP JUMPDEST PUSH0 PUSH1 0x1 PUSH1 0x1 PUSH1 0xA0 SHL SUB DUP4 AND ISZERO DUP1 ISZERO SWAP1 PUSH2 0x24A0 JUMPI POP DUP3 PUSH1 0x1 PUSH1 0x1 PUSH1 0xA0 SHL SUB AND DUP5 PUSH1 0x1 PUSH1 0x1 PUSH1 0xA0 SHL SUB AND EQ DUP1 PUSH2 0x290B JUMPI POP PUSH2 0x290B DUP5 DUP5 PUSH2 0x1A37 JUMP JUMPDEST DUP1 PUSH2 0x24A0 JUMPI POP DUP3 PUSH1 0x1 PUSH1 0x1 PUSH1 0xA0 SHL SUB AND PUSH2 0x2924 DUP4 PUSH2 0x1D7A JUMP JUMPDEST PUSH1 0x1 PUSH1 0x1 PUSH1 0xA0 SHL SUB AND EQ SWAP5 SWAP4 POP POP POP POP JUMP JUMPDEST DUP3 DUP1 SLOAD DUP3 DUP3 SSTORE SWAP1 PUSH0 MSTORE PUSH1 0x20 PUSH0 KECCAK256 SWAP1 DUP2 ADD SWAP3 DUP3 ISZERO PUSH2 0x2987 JUMPI SWAP2 PUSH1 0x20 MUL DUP3 ADD JUMPDEST DUP3 DUP2 GT ISZERO PUSH2 0x2987 JUMPI DUP2 SLOAD PUSH1 0x1 PUSH1 0x1 PUSH1 0xA0 SHL SUB NOT AND PUSH1 0x1 PUSH1 0x1 PUSH1 0xA0 SHL SUB DUP5 CALLDATALOAD AND OR DUP3 SSTORE PUSH1 0x20 SWAP1 SWAP3 ADD SWAP2 PUSH1 0x1 SWAP1 SWAP2 ADD SWAP1 PUSH2 0x2954 JUMP JUMPDEST POP PUSH2 0x2993 SWAP3 SWAP2 POP PUSH2 0x2997 JUMP JUMPDEST POP SWAP1 JUMP JUMPDEST JUMPDEST DUP1 DUP3 GT ISZERO PUSH2 0x2993 JUMPI PUSH0 DUP2 SSTORE PUSH1 0x1 ADD PUSH2 0x2998 JUMP JUMPDEST PUSH1 0x1 PUSH1 0x1 PUSH1 0xE0 SHL SUB NOT DUP2 AND DUP2 EQ PUSH2 0xCBC JUMPI PUSH0 DUP1 REVERT JUMPDEST PUSH0 PUSH1 0x20 DUP3 DUP5 SUB SLT ISZERO PUSH2 0x29D0 JUMPI PUSH0 DUP1 REVERT JUMPDEST DUP2 CALLDATALOAD PUSH2 0x1841 DUP2 PUSH2 0x29AB JUMP JUMPDEST PUSH0 JUMPDEST DUP4 DUP2 LT ISZERO PUSH2 0x29F5 JUMPI DUP2 DUP2 ADD MLOAD DUP4 DUP3 ADD MSTORE PUSH1 0x20 ADD PUSH2 0x29DD JUMP JUMPDEST POP POP PUSH0 SWAP2 ADD MSTORE JUMP JUMPDEST PUSH0 DUP2 MLOAD DUP1 DUP5 MSTORE PUSH2 0x2A14 DUP2 PUSH1 0x20 DUP7 ADD PUSH1 0x20 DUP7 ADD PUSH2 0x29DB JUMP JUMPDEST PUSH1 0x1F ADD PUSH1 0x1F NOT AND SWAP3 SWAP1 SWAP3 ADD PUSH1 0x20 ADD SWAP3 SWAP2 POP POP JUMP JUMPDEST PUSH1 0x20 DUP2 MSTORE PUSH0 PUSH2 0x1841 PUSH1 0x20 DUP4 ADD DUP5 PUSH2 0x29FD JUMP JUMPDEST PUSH0 PUSH1 0x20 DUP3 DUP5 SUB SLT ISZERO PUSH2 0x2A4A JUMPI PUSH0 DUP1 REVERT JUMPDEST POP CALLDATALOAD SWAP2 SWAP1 POP JUMP JUMPDEST PUSH1 0x1 PUSH1 0x1 PUSH1 0xA0 SHL SUB SWAP2 SWAP1 SWAP2 AND DUP2 MSTORE PUSH1 0x20 ADD SWAP1 JUMP JUMPDEST DUP1 CALLDATALOAD PUSH1 0x1 PUSH1 0x1 PUSH1 0xA0 SHL SUB DUP2 AND DUP2 EQ PUSH2 0x2A7B JUMPI PUSH0 DUP1 REVERT JUMPDEST SWAP2 SWAP1 POP JUMP JUMPDEST PUSH0 DUP1 PUSH1 0x40 DUP4 DUP6 SUB SLT ISZERO PUSH2 0x2A91 JUMPI PUSH0 DUP1 REVERT JUMPDEST PUSH2 0x2A9A DUP4 PUSH2 0x2A65 JUMP JUMPDEST SWAP5 PUSH1 0x20 SWAP4 SWAP1 SWAP4 ADD CALLDATALOAD SWAP4 POP POP POP JUMP JUMPDEST PUSH0 DUP1 PUSH0 PUSH1 0x60 DUP5 DUP7 SUB SLT ISZERO PUSH2 0x2ABA JUMPI PUSH0 DUP1 REVERT JUMPDEST PUSH2 0x2AC3 DUP5 PUSH2 0x2A65 JUMP JUMPDEST SWAP3 POP PUSH2 0x2AD1 PUSH1 0x20 DUP6 ADD PUSH2 0x2A65 JUMP JUMPDEST SWAP2 POP PUSH1 0x40 DUP5 ADD CALLDATALOAD SWAP1 POP SWAP3 POP SWAP3 POP SWAP3 JUMP JUMPDEST PUSH0 PUSH1 0x20 DUP3 DUP5 SUB SLT ISZERO PUSH2 0x2AF1 JUMPI PUSH0 DUP1 REVERT JUMPDEST PUSH2 0x1841 DUP3 PUSH2 0x2A65 JUMP JUMPDEST PUSH0 DUP1 PUSH1 0x20 DUP4 DUP6 SUB SLT ISZERO PUSH2 0x2B0B JUMPI PUSH0 DUP1 REVERT JUMPDEST DUP3 CALLDATALOAD PUSH1 0x1 PUSH1 0x1 PUSH1 0x40 SHL SUB DUP1 DUP3 GT ISZERO PUSH2 0x2B21 JUMPI PUSH0 DUP1 REVERT JUMPDEST DUP2 DUP6 ADD SWAP2 POP DUP6 PUSH1 0x1F DUP4 ADD SLT PUSH2 0x2B34 JUMPI PUSH0 DUP1 REVERT JUMPDEST DUP2 CALLDATALOAD DUP2 DUP2 GT ISZERO PUSH2 0x2B42 JUMPI PUSH0 DUP1 REVERT JUMPDEST DUP7 PUSH1 0x20 DUP3 PUSH1 0x5 SHL DUP6 ADD ADD GT ISZERO PUSH2 0x2B56 JUMPI PUSH0 DUP1 REVERT JUMPDEST PUSH1 0x20 SWAP3 SWAP1 SWAP3 ADD SWAP7 SWAP2 SWAP6 POP SWAP1 SWAP4 POP POP POP POP JUMP JUMPDEST PUSH0 DUP1 PUSH1 0x40 DUP4 DUP6 SUB SLT ISZERO PUSH2 0x2B79 JUMPI PUSH0 DUP1 REVERT JUMPDEST PUSH2 0x2B82 DUP4 PUSH2 0x2A65 JUMP JUMPDEST SWAP2 POP PUSH2 0x2B90 PUSH1 0x20 DUP5 ADD PUSH2 0x2A65 JUMP JUMPDEST SWAP1 POP SWAP3 POP SWAP3 SWAP1 POP JUMP JUMPDEST DUP1 MLOAD PUSH1 0x1 PUSH1 0x1 PUSH1 0xA0 SHL SUB AND DUP3 MSTORE PUSH1 0x20 DUP1 DUP3 ADD MLOAD ISZERO ISZERO SWAP1 DUP4 ADD MSTORE PUSH1 0x40 SWAP1 DUP2 ADD MLOAD ISZERO ISZERO SWAP2 ADD MSTORE JUMP JUMPDEST PUSH2 0x160 DUP2 ADD PUSH2 0x2BCE DUP3 DUP11 PUSH2 0x2B99 JUMP JUMPDEST PUSH2 0x2BDB PUSH1 0x60 DUP4 ADD DUP10 PUSH2 0x2B99 JUMP JUMPDEST PUSH1 0xC0 DUP3 ADD SWAP7 SWAP1 SWAP7 MSTORE SWAP4 ISZERO ISZERO PUSH1 0xE0 DUP6 ADD MSTORE SWAP2 ISZERO ISZERO PUSH2 0x100 DUP5 ADD MSTORE ISZERO ISZERO PUSH2 0x120 DUP4 ADD MSTORE PUSH1 0xFF AND PUSH2 0x140 SWAP1 SWAP2 ADD MSTORE SWAP3 SWAP2 POP POP JUMP JUMPDEST PUSH0 DUP1 PUSH1 0x40 DUP4 DUP6 SUB SLT ISZERO PUSH2 0x2C1D JUMPI PUSH0 DUP1 REVERT JUMPDEST PUSH2 0x2C26 DUP4 PUSH2 0x2A65 JUMP JUMPDEST SWAP2 POP PUSH1 0x20 DUP4 ADD CALLDATALOAD DUP1 ISZERO ISZERO DUP2 EQ PUSH2 0x2C3A JUMPI PUSH0 DUP1 REVERT JUMPDEST DUP1 SWAP2 POP POP SWAP3 POP SWAP3 SWAP1 POP JUMP JUMPDEST PUSH4 0x4E487B71 PUSH1 0xE0 SHL PUSH0 MSTORE PUSH1 0x41 PUSH1 0x4 MSTORE PUSH1 0x24 PUSH0 REVERT JUMPDEST PUSH0 DUP1 PUSH0 DUP1 PUSH1 0x80 DUP6 DUP8 SUB SLT ISZERO PUSH2 0x2C6C JUMPI PUSH0 DUP1 REVERT JUMPDEST PUSH2 0x2C75 DUP6 PUSH2 0x2A65 JUMP JUMPDEST SWAP4 POP PUSH2 0x2C83 PUSH1 0x20 DUP7 ADD PUSH2 0x2A65 JUMP JUMPDEST SWAP3 POP PUSH1 0x40 DUP6 ADD CALLDATALOAD SWAP2 POP PUSH1 0x60 DUP6 ADD CALLDATALOAD PUSH1 0x1 PUSH1 0x1 PUSH1 0x40 SHL SUB DUP1 DUP3 GT ISZERO PUSH2 0x2CA5 JUMPI PUSH0 DUP1 REVERT JUMPDEST DUP2 DUP8 ADD SWAP2 POP DUP8 PUSH1 0x1F DUP4 ADD SLT PUSH2 0x2CB8 JUMPI PUSH0 DUP1 REVERT JUMPDEST DUP2 CALLDATALOAD DUP2 DUP2 GT ISZERO PUSH2 0x2CCA JUMPI PUSH2 0x2CCA PUSH2 0x2C45 JUMP JUMPDEST PUSH1 0x40 MLOAD PUSH1 0x1F DUP3 ADD PUSH1 0x1F NOT SWAP1 DUP2 AND PUSH1 0x3F ADD AND DUP2 ADD SWAP1 DUP4 DUP3 GT DUP2 DUP4 LT OR ISZERO PUSH2 0x2CF2 JUMPI PUSH2 0x2CF2 PUSH2 0x2C45 JUMP JUMPDEST DUP2 PUSH1 0x40 MSTORE DUP3 DUP2 MSTORE DUP11 PUSH1 0x20 DUP5 DUP8 ADD ADD GT ISZERO PUSH2 0x2D0A JUMPI PUSH0 DUP1 REVERT JUMPDEST DUP3 PUSH1 0x20 DUP7 ADD PUSH1 0x20 DUP4 ADD CALLDATACOPY PUSH0 PUSH1 0x20 DUP5 DUP4 ADD ADD MSTORE DUP1 SWAP6 POP POP POP POP POP POP SWAP3 SWAP6 SWAP2 SWAP5 POP SWAP3 POP JUMP JUMPDEST PUSH1 0x1 DUP2 DUP2 SHR SWAP1 DUP3 AND DUP1 PUSH2 0x2D41 JUMPI PUSH1 0x7F DUP3 AND SWAP2 POP JUMPDEST PUSH1 0x20 DUP3 LT DUP2 SUB PUSH2 0x2D5F JUMPI PUSH4 0x4E487B71 PUSH1 0xE0 SHL PUSH0 MSTORE PUSH1 0x22 PUSH1 0x4 MSTORE PUSH1 0x24 PUSH0 REVERT JUMPDEST POP SWAP2 SWAP1 POP JUMP JUMPDEST PUSH1 0x1 PUSH1 0x1 PUSH1 0xA0 SHL SUB SWAP3 SWAP1 SWAP3 AND DUP3 MSTORE PUSH1 0x20 DUP3 ADD MSTORE PUSH1 0x40 ADD SWAP1 JUMP JUMPDEST PUSH4 0x4E487B71 PUSH1 0xE0 SHL PUSH0 MSTORE PUSH1 0x32 PUSH1 0x4 MSTORE PUSH1 0x24 PUSH0 REVERT JUMPDEST PUSH1 0x20 DUP1 DUP3 MSTORE PUSH1 0x22 SWAP1 DUP3 ADD MSTORE PUSH32 0x54686520656E676167656D656E7420697320616C7265616479207265766F6B65 PUSH1 0x40 DUP3 ADD MSTORE PUSH2 0x3217 PUSH1 0xF1 SHL PUSH1 0x60 DUP3 ADD MSTORE PUSH1 0x80 ADD SWAP1 JUMP JUMPDEST PUSH1 0x20 DUP1 DUP3 MSTORE PUSH1 0x29 SWAP1 DUP3 ADD MSTORE PUSH32 0x43616C6C6572206D757374206265206F6E65206F662074686520656E67616765 PUSH1 0x40 DUP3 ADD MSTORE PUSH9 0x642070617274696573 PUSH1 0xB8 SHL PUSH1 0x60 DUP3 ADD MSTORE PUSH1 0x80 ADD SWAP1 JUMP JUMPDEST PUSH1 0x20 DUP1 DUP3 MSTORE PUSH1 0xF SWAP1 DUP3 ADD MSTORE PUSH15 0x105B1C9958591E481B585C9C9A5959 PUSH1 0x8A SHL PUSH1 0x40 DUP3 ADD MSTORE PUSH1 0x60 ADD SWAP1 JUMP JUMPDEST PUSH1 0x1 PUSH1 0x1 PUSH1 0xA0 SHL SUB DUP5 DUP2 AND DUP3 MSTORE PUSH1 0x40 PUSH1 0x20 DUP1 DUP5 ADD DUP3 SWAP1 MSTORE SWAP1 DUP4 ADD DUP5 SWAP1 MSTORE PUSH0 SWAP2 DUP6 SWAP2 PUSH1 0x60 DUP6 ADD DUP5 JUMPDEST DUP8 DUP2 LT ISZERO PUSH2 0x2E92 JUMPI DUP4 PUSH2 0x2E7F DUP7 PUSH2 0x2A65 JUMP JUMPDEST AND DUP3 MSTORE SWAP4 DUP3 ADD SWAP4 SWAP1 DUP3 ADD SWAP1 PUSH1 0x1 ADD PUSH2 0x2E6D JUMP JUMPDEST POP SWAP9 SWAP8 POP POP POP POP POP POP POP POP JUMP JUMPDEST PUSH1 0x20 DUP1 DUP3 MSTORE PUSH1 0xE SWAP1 DUP3 ADD MSTORE PUSH14 0x139BDD08185D5D1A1BDC9A5E9959 PUSH1 0x92 SHL PUSH1 0x40 DUP3 ADD MSTORE PUSH1 0x60 ADD SWAP1 JUMP JUMPDEST PUSH4 0x4E487B71 PUSH1 0xE0 SHL PUSH0 MSTORE PUSH1 0x11 PUSH1 0x4 MSTORE PUSH1 0x24 PUSH0 REVERT JUMPDEST PUSH0 PUSH1 0xFF DUP3 AND PUSH1 0xFF DUP2 SUB PUSH2 0x2EF0 JUMPI PUSH2 0x2EF0 PUSH2 0x2EC7 JUMP JUMPDEST PUSH1 0x1 ADD SWAP3 SWAP2 POP POP JUMP JUMPDEST PUSH0 PUSH1 0x1 DUP3 ADD PUSH2 0x2F0A JUMPI PUSH2 0x2F0A PUSH2 0x2EC7 JUMP JUMPDEST POP PUSH1 0x1 ADD SWAP1 JUMP JUMPDEST PUSH1 0x1 PUSH1 0x1 PUSH1 0xA0 SHL SUB SWAP3 DUP4 AND DUP2 MSTORE SWAP2 AND PUSH1 0x20 DUP3 ADD MSTORE PUSH1 0x40 ADD SWAP1 JUMP JUMPDEST PUSH1 0xFF DUP2 DUP2 AND DUP4 DUP3 AND ADD SWAP1 DUP2 GT ISZERO PUSH2 0x502 JUMPI PUSH2 0x502 PUSH2 0x2EC7 JUMP JUMPDEST PUSH0 DUP4 MLOAD PUSH2 0x2F55 DUP2 DUP5 PUSH1 0x20 DUP9 ADD PUSH2 0x29DB JUMP JUMPDEST DUP4 MLOAD SWAP1 DUP4 ADD SWAP1 PUSH2 0x2F69 DUP2 DUP4 PUSH1 0x20 DUP9 ADD PUSH2 0x29DB JUMP JUMPDEST ADD SWAP5 SWAP4 POP POP POP POP JUMP JUMPDEST PUSH1 0x20 DUP1 DUP3 MSTORE PUSH1 0x11 SWAP1 DUP3 ADD MSTORE PUSH17 0x105B1C9958591E4818DBDB999A5C9B5959 PUSH1 0x7A SHL PUSH1 0x40 DUP3 ADD MSTORE PUSH1 0x60 ADD SWAP1 JUMP JUMPDEST DUP1 DUP3 ADD DUP1 DUP3 GT ISZERO PUSH2 0x502 JUMPI PUSH2 0x502 PUSH2 0x2EC7 JUMP JUMPDEST PUSH0 DUP3 PUSH2 0x2FCA JUMPI PUSH4 0x4E487B71 PUSH1 0xE0 SHL PUSH0 MSTORE PUSH1 0x12 PUSH1 0x4 MSTORE PUSH1 0x24 PUSH0 REVERT JUMPDEST POP DIV SWAP1 JUMP JUMPDEST PUSH1 0x1 PUSH1 0x1 PUSH1 0xA0 SHL SUB DUP6 DUP2 AND DUP3 MSTORE DUP5 AND PUSH1 0x20 DUP3 ADD MSTORE PUSH1 0x40 DUP2 ADD DUP4 SWAP1 MSTORE PUSH1 0x80 PUSH1 0x60 DUP3 ADD DUP2 SWAP1 MSTORE PUSH0 SWAP1 PUSH2 0x3001 SWAP1 DUP4 ADD DUP5 PUSH2 0x29FD JUMP JUMPDEST SWAP7 SWAP6 POP POP POP POP POP POP JUMP JUMPDEST PUSH0 PUSH1 0x20 DUP3 DUP5 SUB SLT ISZERO PUSH2 0x301B JUMPI PUSH0 DUP1 REVERT JUMPDEST DUP2 MLOAD PUSH2 0x1841 DUP2 PUSH2 0x29AB JUMP JUMPDEST DUP2 DUP2 SUB DUP2 DUP2 GT ISZERO PUSH2 0x502 JUMPI PUSH2 0x502 PUSH2 0x2EC7 JUMP JUMPDEST PUSH4 0x4E487B71 PUSH1 0xE0 SHL PUSH0 MSTORE PUSH1 0x31 PUSH1 0x4 MSTORE PUSH1 0x24 PUSH0 REVERT INVALID 0xCA MLOAD GASLIMIT 0xA8 PUSH1 0x41 CALLER PUSH9 0x885BD057FA646C0895 LOG3 0x4D NUMBER 0xC6 0xF7 0xC8 SWAP8 0xFC NOT SLOAD 0xCF MLOAD 0xC3 ADDRESS GASLIMIT LOG2 PUSH5 0x6970667358 0x22 SLT KECCAK256 CALLCODE NUMBER 0xB1 0xD8 SWAP12 0xA6 0xAA 0xBA 0xC3 SWAP1 0xAA 0x4B 0xD8 DIV PUSH22 0x9D26210B2AD835B775AC27013D18394AAA64736F6C63 NUMBER STOP ADDMOD ISZERO STOP CALLER "
		},
		"gasEstimates": {
			"creation": {
				"codeDepositCost": "2490200",
				"executionCost": "infinite",
				"totalCost": "infinite"
			},
			"external": {
				"approve(address,uint256)": "31543",
				"authorisedAccount()": "2580",
				"balanceOf(address)": "2871",
				"burnCertificate(uint256)": "238488",
				"confirmGuestList()": "55221",
				"confirmMarriage()": "infinite",
				"engagements(address)": "infinite",
				"getApproved(uint256)": "infinite",
				"getCurrentTime()": "300",
				"guestLists(address)": "4849",
				"isApprovedForAll(address,address)": "infinite",
				"isGuestConfirmed(address,address)": "infinite",
				"name()": "infinite",
				"ownerOf(uint256)": "infinite",
				"proposeGuestList(address[])": "infinite",
				"proposeMarriage()": "57123",
				"registerEngagement(address,uint256)": "698018",
				"revokeEngagement()": "216610",
				"safeTransferFrom(address,address,uint256)": "infinite",
				"safeTransferFrom(address,address,uint256,bytes)": "infinite",
				"setApprovalForAll(address,bool)": "27140",
				"spouses(address)": "3164",
				"supportsInterface(bytes4)": "infinite",
				"symbol()": "infinite",
				"tokenByIndex(uint256)": "6908",
				"tokenOfOwnerByIndex(address,uint256)": "5078",
				"tokenURI(uint256)": "infinite",
				"totalSupply()": "2346",
				"transferFrom(address,address,uint256)": "infinite",
				"voteAgainstWedding(address)": "infinite",
				"voteBurn()": "33758"
			},
			"internal": {
				"_checkAndInvalidateWedding(address)": "infinite",
				"finalizeMarriage(struct EngagementRegistry.Engagement storage pointer)": "infinite",
				"getGuestListKey(address)": "infinite",
				"getPrimarySpouseAddress(address)": "infinite"
			}
		},
		"methodIdentifiers": {
			"approve(address,uint256)": "095ea7b3",
			"authorisedAccount()": "5d00927e",
			"balanceOf(address)": "70a08231",
			"burnCertificate(uint256)": "93b16b45",
			"confirmGuestList()": "e83dc185",
			"confirmMarriage()": "ed9f8d1c",
			"engagements(address)": "a22690a8",
			"getApproved(uint256)": "081812fc",
			"getCurrentTime()": "29cb924d",
			"guestLists(address)": "2b80fa28",
			"isApprovedForAll(address,address)": "e985e9c5",
			"isGuestConfirmed(address,address)": "9dcaf479",
			"name()": "06fdde03",
			"ownerOf(uint256)": "6352211e",
			"proposeGuestList(address[])": "90106c5e",
			"proposeMarriage()": "8c434709",
			"registerEngagement(address,uint256)": "987e9533",
			"revokeEngagement()": "6d955eb5",
			"safeTransferFrom(address,address,uint256)": "42842e0e",
			"safeTransferFrom(address,address,uint256,bytes)": "b88d4fde",
			"setApprovalForAll(address,bool)": "a22cb465",
			"spouses(address)": "a498e802",
			"supportsInterface(bytes4)": "01ffc9a7",
			"symbol()": "95d89b41",
			"tokenByIndex(uint256)": "4f6ccce7",
			"tokenOfOwnerByIndex(address,uint256)": "2f745c59",
			"tokenURI(uint256)": "c87b56dd",
			"totalSupply()": "18160ddd",
			"transferFrom(address,address,uint256)": "23b872dd",
			"voteAgainstWedding(address)": "a1905e4e",
			"voteBurn()": "bfd44472"
		}
	},
	"abi": [
		{
			"inputs": [],
			"stateMutability": "nonpayable",
			"type": "constructor"
		},
		{
			"inputs": [],
			"name": "ERC721EnumerableForbiddenBatchMint",
			"type": "error"
		},
		{
			"inputs": [
				{
					"internalType": "address",
					"name": "sender",
					"type": "address"
				},
				{
					"internalType": "uint256",
					"name": "tokenId",
					"type": "uint256"
				},
				{
					"internalType": "address",
					"name": "owner",
					"type": "address"
				}
			],
			"name": "ERC721IncorrectOwner",
			"type": "error"
		},
		{
			"inputs": [
				{
					"internalType": "address",
					"name": "operator",
					"type": "address"
				},
				{
					"internalType": "uint256",
					"name": "tokenId",
					"type": "uint256"
				}
			],
			"name": "ERC721InsufficientApproval",
			"type": "error"
		},
		{
			"inputs": [
				{
					"internalType": "address",
					"name": "approver",
					"type": "address"
				}
			],
			"name": "ERC721InvalidApprover",
			"type": "error"
		},
		{
			"inputs": [
				{
					"internalType": "address",
					"name": "operator",
					"type": "address"
				}
			],
			"name": "ERC721InvalidOperator",
			"type": "error"
		},
		{
			"inputs": [
				{
					"internalType": "address",
					"name": "owner",
					"type": "address"
				}
			],
			"name": "ERC721InvalidOwner",
			"type": "error"
		},
		{
			"inputs": [
				{
					"internalType": "address",
					"name": "receiver",
					"type": "address"
				}
			],
			"name": "ERC721InvalidReceiver",
			"type": "error"
		},
		{
			"inputs": [
				{
					"internalType": "address",
					"name": "sender",
					"type": "address"
				}
			],
			"name": "ERC721InvalidSender",
			"type": "error"
		},
		{
			"inputs": [
				{
					"internalType": "uint256",
					"name": "tokenId",
					"type": "uint256"
				}
			],
			"name": "ERC721NonexistentToken",
			"type": "error"
		},
		{
			"inputs": [
				{
					"internalType": "address",
					"name": "owner",
					"type": "address"
				},
				{
					"internalType": "uint256",
					"name": "index",
					"type": "uint256"
				}
			],
			"name": "ERC721OutOfBoundsIndex",
			"type": "error"
		},
		{
			"anonymous": false,
			"inputs": [
				{
					"indexed": true,
					"internalType": "address",
					"name": "owner",
					"type": "address"
				},
				{
					"indexed": true,
					"internalType": "address",
					"name": "approved",
					"type": "address"
				},
				{
					"indexed": true,
					"internalType": "uint256",
					"name": "tokenId",
					"type": "uint256"
				}
			],
			"name": "Approval",
			"type": "event"
		},
		{
			"anonymous": false,
			"inputs": [
				{
					"indexed": true,
					"internalType": "address",
					"name": "owner",
					"type": "address"
				},
				{
					"indexed": true,
					"internalType": "address",
					"name": "operator",
					"type": "address"
				},
				{
					"indexed": false,
					"internalType": "bool",
					"name": "approved",
					"type": "bool"
				}
			],
			"name": "ApprovalForAll",
			"type": "event"
		},
		{
			"anonymous": false,
			"inputs": [
				{
					"indexed": false,
					"internalType": "address",
					"name": "spouse1",
					"type": "address"
				},
				{
					"indexed": false,
					"internalType": "address",
					"name": "spouse2",
					"type": "address"
				},
				{
					"indexed": false,
					"internalType": "uint256",
					"name": "weddingDate",
					"type": "uint256"
				}
			],
			"name": "EngagementRegistered",
			"type": "event"
		},
		{
			"anonymous": false,
			"inputs": [
				{
					"indexed": false,
					"internalType": "address",
					"name": "caller",
					"type": "address"
				},
				{
					"indexed": false,
					"internalType": "uint256",
					"name": "revokedDate",
					"type": "uint256"
				}
			],
			"name": "EngagementRevoked",
			"type": "event"
		},
		{
			"anonymous": false,
			"inputs": [
				{
					"indexed": false,
					"internalType": "address",
					"name": "spouse",
					"type": "address"
				}
			],
			"name": "GuestListConfirmed",
			"type": "event"
		},
		{
			"anonymous": false,
			"inputs": [
				{
					"indexed": false,
					"internalType": "address",
					"name": "spouse",
					"type": "address"
				},
				{
					"indexed": false,
					"internalType": "address[]",
					"name": "guests",
					"type": "address[]"
				}
			],
			"name": "GuestListProposed",
			"type": "event"
		},
		{
			"anonymous": false,
			"inputs": [
				{
					"indexed": false,
					"internalType": "address",
					"name": "guest",
					"type": "address"
				},
				{
					"indexed": false,
					"internalType": "address",
					"name": "spouse",
					"type": "address"
				}
			],
			"name": "GuestVotedAgainst",
			"type": "event"
		},
		{
			"anonymous": false,
			"inputs": [
				{
					"indexed": false,
					"internalType": "address",
					"name": "spouse1",
					"type": "address"
				},
				{
					"indexed": false,
					"internalType": "address",
					"name": "spouse2",
					"type": "address"
				}
			],
			"name": "MarriageConfirmed",
			"type": "event"
		},
		{
			"anonymous": false,
			"inputs": [
				{
					"indexed": false,
					"internalType": "address",
					"name": "proposer",
					"type": "address"
				}
			],
			"name": "MarriageProposed",
			"type": "event"
		},
		{
			"anonymous": false,
			"inputs": [
				{
					"indexed": true,
					"internalType": "address",
					"name": "from",
					"type": "address"
				},
				{
					"indexed": true,
					"internalType": "address",
					"name": "to",
					"type": "address"
				},
				{
					"indexed": true,
					"internalType": "uint256",
					"name": "tokenId",
					"type": "uint256"
				}
			],
			"name": "Transfer",
			"type": "event"
		},
		{
			"anonymous": false,
			"inputs": [
				{
					"indexed": false,
					"internalType": "address",
					"name": "spouse",
					"type": "address"
				}
			],
			"name": "WeddingInvalidated",
			"type": "event"
		},
		{
			"anonymous": false,
			"inputs": [
				{
					"indexed": false,
					"internalType": "uint256",
					"name": "token",
					"type": "uint256"
				}
			],
			"name": "token",
			"type": "event"
		},
		{
			"inputs": [
				{
					"internalType": "address",
					"name": "to",
					"type": "address"
				},
				{
					"internalType": "uint256",
					"name": "tokenId",
					"type": "uint256"
				}
			],
			"name": "approve",
			"outputs": [],
			"stateMutability": "nonpayable",
			"type": "function"
		},
		{
			"inputs": [],
			"name": "authorisedAccount",
			"outputs": [
				{
					"internalType": "address",
					"name": "",
					"type": "address"
				}
			],
			"stateMutability": "view",
			"type": "function"
		},
		{
			"inputs": [
				{
					"internalType": "address",
					"name": "owner",
					"type": "address"
				}
			],
			"name": "balanceOf",
			"outputs": [
				{
					"internalType": "uint256",
					"name": "",
					"type": "uint256"
				}
			],
			"stateMutability": "view",
			"type": "function"
		},
		{
			"inputs": [
				{
					"internalType": "uint256",
					"name": "tokenId",
					"type": "uint256"
				}
			],
			"name": "burnCertificate",
			"outputs": [],
			"stateMutability": "nonpayable",
			"type": "function"
		},
		{
			"inputs": [],
			"name": "confirmGuestList",
			"outputs": [],
			"stateMutability": "nonpayable",
			"type": "function"
		},
		{
			"inputs": [],
			"name": "confirmMarriage",
			"outputs": [],
			"stateMutability": "nonpayable",
			"type": "function"
		},
		{
			"inputs": [
				{
					"internalType": "address",
					"name": "",
					"type": "address"
				}
			],
			"name": "engagements",
			"outputs": [
				{
					"components": [
						{
							"internalType": "address",
							"name": "spouseAddress",
							"type": "address"
						},
						{
							"internalType": "bool",
							"name": "isEngaged",
							"type": "bool"
						},
						{
							"internalType": "bool",
							"name": "isMarried",
							"type": "bool"
						}
					],
					"internalType": "struct EngagementRegistry.Spouse",
					"name": "spouse1",
					"type": "tuple"
				},
				{
					"components": [
						{
							"internalType": "address",
							"name": "spouseAddress",
							"type": "address"
						},
						{
							"internalType": "bool",
							"name": "isEngaged",
							"type": "bool"
						},
						{
							"internalType": "bool",
							"name": "isMarried",
							"type": "bool"
						}
					],
					"internalType": "struct EngagementRegistry.Spouse",
					"name": "spouse2",
					"type": "tuple"
				},
				{
					"internalType": "uint256",
					"name": "weddingDate",
					"type": "uint256"
				},
				{
					"internalType": "bool",
					"name": "isRevoked",
					"type": "bool"
				},
				{
					"internalType": "bool",
					"name": "spouse1ConfirmedMarriage",
					"type": "bool"
				},
				{
					"internalType": "bool",
					"name": "spouse2ConfirmedMarriage",
					"type": "bool"
				},
				{
					"internalType": "uint8",
					"name": "burnCertificate",
					"type": "uint8"
				}
			],
			"stateMutability": "view",
			"type": "function"
		},
		{
			"inputs": [
				{
					"internalType": "uint256",
					"name": "tokenId",
					"type": "uint256"
				}
			],
			"name": "getApproved",
			"outputs": [
				{
					"internalType": "address",
					"name": "",
					"type": "address"
				}
			],
			"stateMutability": "view",
			"type": "function"
		},
		{
			"inputs": [],
			"name": "getCurrentTime",
			"outputs": [
				{
					"internalType": "uint256",
					"name": "",
					"type": "uint256"
				}
			],
			"stateMutability": "view",
			"type": "function"
		},
		{
			"inputs": [
				{
					"internalType": "address",
					"name": "",
					"type": "address"
				}
			],
			"name": "guestLists",
			"outputs": [
				{
					"internalType": "bool",
					"name": "spouse1Confirmed",
					"type": "bool"
				},
				{
					"internalType": "bool",
					"name": "spouse2Confirmed",
					"type": "bool"
				},
				{
					"internalType": "uint256",
					"name": "votesAgainst",
					"type": "uint256"
				}
			],
			"stateMutability": "view",
			"type": "function"
		},
		{
			"inputs": [
				{
					"internalType": "address",
					"name": "owner",
					"type": "address"
				},
				{
					"internalType": "address",
					"name": "operator",
					"type": "address"
				}
			],
			"name": "isApprovedForAll",
			"outputs": [
				{
					"internalType": "bool",
					"name": "",
					"type": "bool"
				}
			],
			"stateMutability": "view",
			"type": "function"
		},
		{
			"inputs": [
				{
					"internalType": "address",
					"name": "_spouse",
					"type": "address"
				},
				{
					"internalType": "address",
					"name": "_guest",
					"type": "address"
				}
			],
			"name": "isGuestConfirmed",
			"outputs": [
				{
					"internalType": "bool",
					"name": "",
					"type": "bool"
				}
			],
			"stateMutability": "view",
			"type": "function"
		},
		{
			"inputs": [],
			"name": "name",
			"outputs": [
				{
					"internalType": "string",
					"name": "",
					"type": "string"
				}
			],
			"stateMutability": "view",
			"type": "function"
		},
		{
			"inputs": [
				{
					"internalType": "uint256",
					"name": "tokenId",
					"type": "uint256"
				}
			],
			"name": "ownerOf",
			"outputs": [
				{
					"internalType": "address",
					"name": "",
					"type": "address"
				}
			],
			"stateMutability": "view",
			"type": "function"
		},
		{
			"inputs": [
				{
					"internalType": "address[]",
					"name": "_guests",
					"type": "address[]"
				}
			],
			"name": "proposeGuestList",
			"outputs": [],
			"stateMutability": "nonpayable",
			"type": "function"
		},
		{
			"inputs": [],
			"name": "proposeMarriage",
			"outputs": [],
			"stateMutability": "nonpayable",
			"type": "function"
		},
		{
			"inputs": [
				{
					"internalType": "address",
					"name": "_proposeeAddress",
					"type": "address"
				},
				{
					"internalType": "uint256",
					"name": "_weddingDate",
					"type": "uint256"
				}
			],
			"name": "registerEngagement",
			"outputs": [],
			"stateMutability": "nonpayable",
			"type": "function"
		},
		{
			"inputs": [],
			"name": "revokeEngagement",
			"outputs": [],
			"stateMutability": "nonpayable",
			"type": "function"
		},
		{
			"inputs": [
				{
					"internalType": "address",
					"name": "from",
					"type": "address"
				},
				{
					"internalType": "address",
					"name": "to",
					"type": "address"
				},
				{
					"internalType": "uint256",
					"name": "tokenId",
					"type": "uint256"
				}
			],
			"name": "safeTransferFrom",
			"outputs": [],
			"stateMutability": "nonpayable",
			"type": "function"
		},
		{
			"inputs": [
				{
					"internalType": "address",
					"name": "from",
					"type": "address"
				},
				{
					"internalType": "address",
					"name": "to",
					"type": "address"
				},
				{
					"internalType": "uint256",
					"name": "tokenId",
					"type": "uint256"
				},
				{
					"internalType": "bytes",
					"name": "data",
					"type": "bytes"
				}
			],
			"name": "safeTransferFrom",
			"outputs": [],
			"stateMutability": "nonpayable",
			"type": "function"
		},
		{
			"inputs": [
				{
					"internalType": "address",
					"name": "operator",
					"type": "address"
				},
				{
					"internalType": "bool",
					"name": "approved",
					"type": "bool"
				}
			],
			"name": "setApprovalForAll",
			"outputs": [],
			"stateMutability": "nonpayable",
			"type": "function"
		},
		{
			"inputs": [
				{
					"internalType": "address",
					"name": "",
					"type": "address"
				}
			],
			"name": "spouses",
			"outputs": [
				{
					"internalType": "address",
					"name": "spouseAddress",
					"type": "address"
				},
				{
					"internalType": "bool",
					"name": "isEngaged",
					"type": "bool"
				},
				{
					"internalType": "bool",
					"name": "isMarried",
					"type": "bool"
				}
			],
			"stateMutability": "view",
			"type": "function"
		},
		{
			"inputs": [
				{
					"internalType": "bytes4",
					"name": "interfaceId",
					"type": "bytes4"
				}
			],
			"name": "supportsInterface",
			"outputs": [
				{
					"internalType": "bool",
					"name": "",
					"type": "bool"
				}
			],
			"stateMutability": "view",
			"type": "function"
		},
		{
			"inputs": [],
			"name": "symbol",
			"outputs": [
				{
					"internalType": "string",
					"name": "",
					"type": "string"
				}
			],
			"stateMutability": "view",
			"type": "function"
		},
		{
			"inputs": [
				{
					"internalType": "uint256",
					"name": "index",
					"type": "uint256"
				}
			],
			"name": "tokenByIndex",
			"outputs": [
				{
					"internalType": "uint256",
					"name": "",
					"type": "uint256"
				}
			],
			"stateMutability": "view",
			"type": "function"
		},
		{
			"inputs": [
				{
					"internalType": "address",
					"name": "owner",
					"type": "address"
				},
				{
					"internalType": "uint256",
					"name": "index",
					"type": "uint256"
				}
			],
			"name": "tokenOfOwnerByIndex",
			"outputs": [
				{
					"internalType": "uint256",
					"name": "",
					"type": "uint256"
				}
			],
			"stateMutability": "view",
			"type": "function"
		},
		{
			"inputs": [
				{
					"internalType": "uint256",
					"name": "tokenId",
					"type": "uint256"
				}
			],
			"name": "tokenURI",
			"outputs": [
				{
					"internalType": "string",
					"name": "",
					"type": "string"
				}
			],
			"stateMutability": "view",
			"type": "function"
		},
		{
			"inputs": [],
			"name": "totalSupply",
			"outputs": [
				{
					"internalType": "uint256",
					"name": "",
					"type": "uint256"
				}
			],
			"stateMutability": "view",
			"type": "function"
		},
		{
			"inputs": [
				{
					"internalType": "address",
					"name": "from",
					"type": "address"
				},
				{
					"internalType": "address",
					"name": "to",
					"type": "address"
				},
				{
					"internalType": "uint256",
					"name": "tokenId",
					"type": "uint256"
				}
			],
			"name": "transferFrom",
			"outputs": [],
			"stateMutability": "nonpayable",
			"type": "function"
		},
		{
			"inputs": [
				{
					"internalType": "address",
					"name": "_spouse",
					"type": "address"
				}
			],
			"name": "voteAgainstWedding",
			"outputs": [],
			"stateMutability": "nonpayable",
			"type": "function"
		},
		{
			"inputs": [],
			"name": "voteBurn",
			"outputs": [],
			"stateMutability": "nonpayable",
			"type": "function"
		}
	]
}