{
	"data": {
		"bytecode": {
			"linkReferences": {},
			"object": "608060405234801562000010575f80fd5b506040518060400160405280600481526020017f4a6f686e000000000000000000000000000000000000000000000000000000008152505f80600181526020019081526020015f2090816200006691906200037d565b506040518060400160405280600c81526020017f4a6f68616e2050657474657200000000000000000000000000000000000000008152505f80600281526020019081526020015f209081620000bc91906200037d565b506040518060400160405280600581526020017f4a6f726e790000000000000000000000000000000000000000000000000000008152505f80600381526020019081526020015f2090816200011291906200037d565b5062000461565b5f81519050919050565b7f4e487b71000000000000000000000000000000000000000000000000000000005f52604160045260245ffd5b7f4e487b71000000000000000000000000000000000000000000000000000000005f52602260045260245ffd5b5f60028204905060018216806200019557607f821691505b602082108103620001ab57620001aa62000150565b5b50919050565b5f819050815f5260205f209050919050565b5f6020601f8301049050919050565b5f82821b905092915050565b5f600883026200020f7fffffffffffffffffffffffffffffffffffffffffffffffffffffffffffffffff82620001d2565b6200021b8683620001d2565b95508019841693508086168417925050509392505050565b5f819050919050565b5f819050919050565b5f620002656200025f620002598462000233565b6200023c565b62000233565b9050919050565b5f819050919050565b620002808362000245565b620002986200028f826200026c565b848454620001de565b825550505050565b5f90565b620002ae620002a0565b620002bb81848462000275565b505050565b5b81811015620002e257620002d65f82620002a4565b600181019050620002c1565b5050565b601f8211156200033157620002fb81620001b1565b6200030684620001c3565b8101602085101562000316578190505b6200032e6200032585620001c3565b830182620002c0565b50505b505050565b5f82821c905092915050565b5f620003535f198460080262000336565b1980831691505092915050565b5f6200036d838362000342565b9150826002028217905092915050565b620003888262000119565b67ffffffffffffffff811115620003a457620003a362000123565b5b620003b082546200017d565b620003bd828285620002e6565b5f60209050601f831160018114620003f3575f8415620003de578287015190505b620003ea858262000360565b86555062000459565b601f1984166200040386620001b1565b5f5b828110156200042c5784890151825560018201915060208501945060208101905062000405565b868310156200044c578489015162000448601f89168262000342565b8355505b6001600288020188555050505b505050505050565b611143806200046f5f395ff3fe608060405234801561000f575f80fd5b5060043610610086575f3560e01c80639aa36590116100595780639aa3659014610126578063ac2447f114610142578063c417216214610175578063db6e35b2146101a657610086565b8063028414f21461008a5780632036d295146100a657806368744046146100c25780637c73709a146100f3575b5f80fd5b6100a4600480360381019061009f9190610b18565b6101c2565b005b6100c060048036038101906100bb9190610b18565b61021a565b005b6100dc60048036038101906100d79190610ba0565b610272565b6040516100ea929190610c45565b60405180910390f35b61010d60048036038101906101089190610cd4565b61039e565b60405161011d9493929190610d21565b60405180910390f35b610140600480360381019061013b9190610d79565b610567565b005b61015c60048036038101906101579190610ba0565b6105ed565b60405161016c9493929190610d21565b60405180910390f35b61018f600480360381019061018a9190610ba0565b6107ab565b60405161019d929190610c45565b60405180910390f35b6101c060048036038101906101bb9190610d79565b6108d7565b005b60405180604001604052808381526020018281525060015f8581526020019081526020015f205f820151815f0190816101fb919061103e565b506020820151816001019081610211919061103e565b50905050505050565b60405180604001604052808381526020018281525060025f8581526020019081526020015f205f820151815f019081610253919061103e565b506020820151816001019081610269919061103e565b50905050505050565b6001602052805f5260405f205f91509050805f01805461029190610e71565b80601f01602080910402602001604051908101604052809291908181526020018280546102bd90610e71565b80156103085780601f106102df57610100808354040283529160200191610308565b820191905f5260205f20905b8154815290600101906020018083116102eb57829003601f168201915b50505050509080600101805461031d90610e71565b80601f016020809104026020016040519081016040528092919081815260200182805461034990610e71565b80156103945780601f1061036b57610100808354040283529160200191610394565b820191905f5260205f20905b81548152906001019060200180831161037757829003601f168201915b5050505050905082565b6004602052815f5260405f20602052805f5260405f205f9150915050805f0154908060010180546103ce90610e71565b80601f01602080910402602001604051908101604052809291908181526020018280546103fa90610e71565b80156104455780601f1061041c57610100808354040283529160200191610445565b820191905f5260205f20905b81548152906001019060200180831161042857829003601f168201915b50505050509080600201805461045a90610e71565b80601f016020809104026020016040519081016040528092919081815260200182805461048690610e71565b80156104d15780601f106104a8576101008083540402835291602001916104d1565b820191905f5260205f20905b8154815290600101906020018083116104b457829003601f168201915b5050505050908060030180546104e690610e71565b80601f016020809104026020016040519081016040528092919081815260200182805461051290610e71565b801561055d5780601f106105345761010080835404028352916020019161055d565b820191905f5260205f20905b81548152906001019060200180831161054057829003601f168201915b5050505050905084565b60405180608001604052808581526020018481526020018381526020018281525060035f8781526020019081526020015f205f820151815f015560208201518160010190816105b6919061103e565b5060408201518160020190816105cc919061103e565b5060608201518160030190816105e2919061103e565b509050505050505050565b6003602052805f5260405f205f91509050805f01549080600101805461061290610e71565b80601f016020809104026020016040519081016040528092919081815260200182805461063e90610e71565b80156106895780601f1061066057610100808354040283529160200191610689565b820191905f5260205f20905b81548152906001019060200180831161066c57829003601f168201915b50505050509080600201805461069e90610e71565b80601f01602080910402602001604051908101604052809291908181526020018280546106ca90610e71565b80156107155780601f106106ec57610100808354040283529160200191610715565b820191905f5260205f20905b8154815290600101906020018083116106f857829003601f168201915b50505050509080600301805461072a90610e71565b80601f016020809104026020016040519081016040528092919081815260200182805461075690610e71565b80156107a15780601f10610778576101008083540402835291602001916107a1565b820191905f5260205f20905b81548152906001019060200180831161078457829003601f168201915b5050505050905084565b6002602052805f5260405f205f91509050805f0180546107ca90610e71565b80601f01602080910402602001604051908101604052809291908181526020018280546107f690610e71565b80156108415780601f1061081857610100808354040283529160200191610841565b820191905f5260205f20905b81548152906001019060200180831161082457829003601f168201915b50505050509080600101805461085690610e71565b80601f016020809104026020016040519081016040528092919081815260200182805461088290610e71565b80156108cd5780601f106108a4576101008083540402835291602001916108cd565b820191905f5260205f20905b8154815290600101906020018083116108b057829003601f168201915b5050505050905082565b60405180608001604052808581526020018481526020018381526020018281525060045f3373ffffffffffffffffffffffffffffffffffffffff1673ffffffffffffffffffffffffffffffffffffffff1681526020019081526020015f205f8781526020019081526020015f205f820151815f01556020820151816001019081610961919061103e565b506040820151816002019081610977919061103e565b50606082015181600301908161098d919061103e565b509050505050505050565b5f604051905090565b5f80fd5b5f80fd5b5f819050919050565b6109bb816109a9565b81146109c5575f80fd5b50565b5f813590506109d6816109b2565b92915050565b5f80fd5b5f80fd5b5f601f19601f8301169050919050565b7f4e487b71000000000000000000000000000000000000000000000000000000005f52604160045260245ffd5b610a2a826109e4565b810181811067ffffffffffffffff82111715610a4957610a486109f4565b5b80604052505050565b5f610a5b610998565b9050610a678282610a21565b919050565b5f67ffffffffffffffff821115610a8657610a856109f4565b5b610a8f826109e4565b9050602081019050919050565b828183375f83830152505050565b5f610abc610ab784610a6c565b610a52565b905082815260208101848484011115610ad857610ad76109e0565b5b610ae3848285610a9c565b509392505050565b5f82601f830112610aff57610afe6109dc565b5b8135610b0f848260208601610aaa565b91505092915050565b5f805f60608486031215610b2f57610b2e6109a1565b5b5f610b3c868287016109c8565b935050602084013567ffffffffffffffff811115610b5d57610b5c6109a5565b5b610b6986828701610aeb565b925050604084013567ffffffffffffffff811115610b8a57610b896109a5565b5b610b9686828701610aeb565b9150509250925092565b5f60208284031215610bb557610bb46109a1565b5b5f610bc2848285016109c8565b91505092915050565b5f81519050919050565b5f82825260208201905092915050565b5f5b83811015610c02578082015181840152602081019050610be7565b5f8484015250505050565b5f610c1782610bcb565b610c218185610bd5565b9350610c31818560208601610be5565b610c3a816109e4565b840191505092915050565b5f6040820190508181035f830152610c5d8185610c0d565b90508181036020830152610c718184610c0d565b90509392505050565b5f73ffffffffffffffffffffffffffffffffffffffff82169050919050565b5f610ca382610c7a565b9050919050565b610cb381610c99565b8114610cbd575f80fd5b50565b5f81359050610cce81610caa565b92915050565b5f8060408385031215610cea57610ce96109a1565b5b5f610cf785828601610cc0565b9250506020610d08858286016109c8565b9150509250929050565b610d1b816109a9565b82525050565b5f608082019050610d345f830187610d12565b8181036020830152610d468186610c0d565b90508181036040830152610d5a8185610c0d565b90508181036060830152610d6e8184610c0d565b905095945050505050565b5f805f805f60a08688031215610d9257610d916109a1565b5b5f610d9f888289016109c8565b9550506020610db0888289016109c8565b945050604086013567ffffffffffffffff811115610dd157610dd06109a5565b5b610ddd88828901610aeb565b935050606086013567ffffffffffffffff811115610dfe57610dfd6109a5565b5b610e0a88828901610aeb565b925050608086013567ffffffffffffffff811115610e2b57610e2a6109a5565b5b610e3788828901610aeb565b9150509295509295909350565b7f4e487b71000000000000000000000000000000000000000000000000000000005f52602260045260245ffd5b5f6002820490506001821680610e8857607f821691505b602082108103610e9b57610e9a610e44565b5b50919050565b5f819050815f5260205f209050919050565b5f6020601f8301049050919050565b5f82821b905092915050565b5f60088302610efd7fffffffffffffffffffffffffffffffffffffffffffffffffffffffffffffffff82610ec2565b610f078683610ec2565b95508019841693508086168417925050509392505050565b5f819050919050565b5f610f42610f3d610f38846109a9565b610f1f565b6109a9565b9050919050565b5f819050919050565b610f5b83610f28565b610f6f610f6782610f49565b848454610ece565b825550505050565b5f90565b610f83610f77565b610f8e818484610f52565b505050565b5b81811015610fb157610fa65f82610f7b565b600181019050610f94565b5050565b601f821115610ff657610fc781610ea1565b610fd084610eb3565b81016020851015610fdf578190505b610ff3610feb85610eb3565b830182610f93565b50505b505050565b5f82821c905092915050565b5f6110165f1984600802610ffb565b1980831691505092915050565b5f61102e8383611007565b9150826002028217905092915050565b61104782610bcb565b67ffffffffffffffff8111156110605761105f6109f4565b5b61106a8254610e71565b611075828285610fb5565b5f60209050601f8311600181146110a6575f8415611094578287015190505b61109e8582611023565b865550611105565b601f1984166110b486610ea1565b5f5b828110156110db578489015182556001820191506020850194506020810190506110b6565b868310156110f857848901516110f4601f891682611007565b8355505b6001600288020188555050505b50505050505056fea26469706673582212204489e1e3d77c8ddf2512296c2f33568a5c0acf8dfcfdc306a05a6368217db84b64736f6c63430008160033",
			"opcodes": "PUSH1 0x80 PUSH1 0x40 MSTORE CALLVALUE DUP1 ISZERO PUSH3 0x10 JUMPI PUSH0 DUP1 REVERT JUMPDEST POP PUSH1 0x40 MLOAD DUP1 PUSH1 0x40 ADD PUSH1 0x40 MSTORE DUP1 PUSH1 0x4 DUP2 MSTORE PUSH1 0x20 ADD PUSH32 0x4A6F686E00000000000000000000000000000000000000000000000000000000 DUP2 MSTORE POP PUSH0 DUP1 PUSH1 0x1 DUP2 MSTORE PUSH1 0x20 ADD SWAP1 DUP2 MSTORE PUSH1 0x20 ADD PUSH0 KECCAK256 SWAP1 DUP2 PUSH3 0x66 SWAP2 SWAP1 PUSH3 0x37D JUMP JUMPDEST POP PUSH1 0x40 MLOAD DUP1 PUSH1 0x40 ADD PUSH1 0x40 MSTORE DUP1 PUSH1 0xC DUP2 MSTORE PUSH1 0x20 ADD PUSH32 0x4A6F68616E205065747465720000000000000000000000000000000000000000 DUP2 MSTORE POP PUSH0 DUP1 PUSH1 0x2 DUP2 MSTORE PUSH1 0x20 ADD SWAP1 DUP2 MSTORE PUSH1 0x20 ADD PUSH0 KECCAK256 SWAP1 DUP2 PUSH3 0xBC SWAP2 SWAP1 PUSH3 0x37D JUMP JUMPDEST POP PUSH1 0x40 MLOAD DUP1 PUSH1 0x40 ADD PUSH1 0x40 MSTORE DUP1 PUSH1 0x5 DUP2 MSTORE PUSH1 0x20 ADD PUSH32 0x4A6F726E79000000000000000000000000000000000000000000000000000000 DUP2 MSTORE POP PUSH0 DUP1 PUSH1 0x3 DUP2 MSTORE PUSH1 0x20 ADD SWAP1 DUP2 MSTORE PUSH1 0x20 ADD PUSH0 KECCAK256 SWAP1 DUP2 PUSH3 0x112 SWAP2 SWAP1 PUSH3 0x37D JUMP JUMPDEST POP PUSH3 0x461 JUMP JUMPDEST PUSH0 DUP2 MLOAD SWAP1 POP SWAP2 SWAP1 POP JUMP JUMPDEST PUSH32 0x4E487B7100000000000000000000000000000000000000000000000000000000 PUSH0 MSTORE PUSH1 0x41 PUSH1 0x4 MSTORE PUSH1 0x24 PUSH0 REVERT JUMPDEST PUSH32 0x4E487B7100000000000000000000000000000000000000000000000000000000 PUSH0 MSTORE PUSH1 0x22 PUSH1 0x4 MSTORE PUSH1 0x24 PUSH0 REVERT JUMPDEST PUSH0 PUSH1 0x2 DUP3 DIV SWAP1 POP PUSH1 0x1 DUP3 AND DUP1 PUSH3 0x195 JUMPI PUSH1 0x7F DUP3 AND SWAP2 POP JUMPDEST PUSH1 0x20 DUP3 LT DUP2 SUB PUSH3 0x1AB JUMPI PUSH3 0x1AA PUSH3 0x150 JUMP JUMPDEST JUMPDEST POP SWAP2 SWAP1 POP JUMP JUMPDEST PUSH0 DUP2 SWAP1 POP DUP2 PUSH0 MSTORE PUSH1 0x20 PUSH0 KECCAK256 SWAP1 POP SWAP2 SWAP1 POP JUMP JUMPDEST PUSH0 PUSH1 0x20 PUSH1 0x1F DUP4 ADD DIV SWAP1 POP SWAP2 SWAP1 POP JUMP JUMPDEST PUSH0 DUP3 DUP3 SHL SWAP1 POP SWAP3 SWAP2 POP POP JUMP JUMPDEST PUSH0 PUSH1 0x8 DUP4 MUL PUSH3 0x20F PUSH32 0xFFFFFFFFFFFFFFFFFFFFFFFFFFFFFFFFFFFFFFFFFFFFFFFFFFFFFFFFFFFFFFFF DUP3 PUSH3 0x1D2 JUMP JUMPDEST PUSH3 0x21B DUP7 DUP4 PUSH3 0x1D2 JUMP JUMPDEST SWAP6 POP DUP1 NOT DUP5 AND SWAP4 POP DUP1 DUP7 AND DUP5 OR SWAP3 POP POP POP SWAP4 SWAP3 POP POP POP JUMP JUMPDEST PUSH0 DUP2 SWAP1 POP SWAP2 SWAP1 POP JUMP JUMPDEST PUSH0 DUP2 SWAP1 POP SWAP2 SWAP1 POP JUMP JUMPDEST PUSH0 PUSH3 0x265 PUSH3 0x25F PUSH3 0x259 DUP5 PUSH3 0x233 JUMP JUMPDEST PUSH3 0x23C JUMP JUMPDEST PUSH3 0x233 JUMP JUMPDEST SWAP1 POP SWAP2 SWAP1 POP JUMP JUMPDEST PUSH0 DUP2 SWAP1 POP SWAP2 SWAP1 POP JUMP JUMPDEST PUSH3 0x280 DUP4 PUSH3 0x245 JUMP JUMPDEST PUSH3 0x298 PUSH3 0x28F DUP3 PUSH3 0x26C JUMP JUMPDEST DUP5 DUP5 SLOAD PUSH3 0x1DE JUMP JUMPDEST DUP3 SSTORE POP POP POP POP JUMP JUMPDEST PUSH0 SWAP1 JUMP JUMPDEST PUSH3 0x2AE PUSH3 0x2A0 JUMP JUMPDEST PUSH3 0x2BB DUP2 DUP5 DUP5 PUSH3 0x275 JUMP JUMPDEST POP POP POP JUMP JUMPDEST JUMPDEST DUP2 DUP2 LT ISZERO PUSH3 0x2E2 JUMPI PUSH3 0x2D6 PUSH0 DUP3 PUSH3 0x2A4 JUMP JUMPDEST PUSH1 0x1 DUP2 ADD SWAP1 POP PUSH3 0x2C1 JUMP JUMPDEST POP POP JUMP JUMPDEST PUSH1 0x1F DUP3 GT ISZERO PUSH3 0x331 JUMPI PUSH3 0x2FB DUP2 PUSH3 0x1B1 JUMP JUMPDEST PUSH3 0x306 DUP5 PUSH3 0x1C3 JUMP JUMPDEST DUP2 ADD PUSH1 0x20 DUP6 LT ISZERO PUSH3 0x316 JUMPI DUP2 SWAP1 POP JUMPDEST PUSH3 0x32E PUSH3 0x325 DUP6 PUSH3 0x1C3 JUMP JUMPDEST DUP4 ADD DUP3 PUSH3 0x2C0 JUMP JUMPDEST POP POP JUMPDEST POP POP POP JUMP JUMPDEST PUSH0 DUP3 DUP3 SHR SWAP1 POP SWAP3 SWAP2 POP POP JUMP JUMPDEST PUSH0 PUSH3 0x353 PUSH0 NOT DUP5 PUSH1 0x8 MUL PUSH3 0x336 JUMP JUMPDEST NOT DUP1 DUP4 AND SWAP2 POP POP SWAP3 SWAP2 POP POP JUMP JUMPDEST PUSH0 PUSH3 0x36D DUP4 DUP4 PUSH3 0x342 JUMP JUMPDEST SWAP2 POP DUP3 PUSH1 0x2 MUL DUP3 OR SWAP1 POP SWAP3 SWAP2 POP POP JUMP JUMPDEST PUSH3 0x388 DUP3 PUSH3 0x119 JUMP JUMPDEST PUSH8 0xFFFFFFFFFFFFFFFF DUP2 GT ISZERO PUSH3 0x3A4 JUMPI PUSH3 0x3A3 PUSH3 0x123 JUMP JUMPDEST JUMPDEST PUSH3 0x3B0 DUP3 SLOAD PUSH3 0x17D JUMP JUMPDEST PUSH3 0x3BD DUP3 DUP3 DUP6 PUSH3 0x2E6 JUMP JUMPDEST PUSH0 PUSH1 0x20 SWAP1 POP PUSH1 0x1F DUP4 GT PUSH1 0x1 DUP2 EQ PUSH3 0x3F3 JUMPI PUSH0 DUP5 ISZERO PUSH3 0x3DE JUMPI DUP3 DUP8 ADD MLOAD SWAP1 POP JUMPDEST PUSH3 0x3EA DUP6 DUP3 PUSH3 0x360 JUMP JUMPDEST DUP7 SSTORE POP PUSH3 0x459 JUMP JUMPDEST PUSH1 0x1F NOT DUP5 AND PUSH3 0x403 DUP7 PUSH3 0x1B1 JUMP JUMPDEST PUSH0 JUMPDEST DUP3 DUP2 LT ISZERO PUSH3 0x42C JUMPI DUP5 DUP10 ADD MLOAD DUP3 SSTORE PUSH1 0x1 DUP3 ADD SWAP2 POP PUSH1 0x20 DUP6 ADD SWAP5 POP PUSH1 0x20 DUP2 ADD SWAP1 POP PUSH3 0x405 JUMP JUMPDEST DUP7 DUP4 LT ISZERO PUSH3 0x44C JUMPI DUP5 DUP10 ADD MLOAD PUSH3 0x448 PUSH1 0x1F DUP10 AND DUP3 PUSH3 0x342 JUMP JUMPDEST DUP4 SSTORE POP JUMPDEST PUSH1 0x1 PUSH1 0x2 DUP9 MUL ADD DUP9 SSTORE POP POP POP JUMPDEST POP POP POP POP POP POP JUMP JUMPDEST PUSH2 0x1143 DUP1 PUSH3 0x46F PUSH0 CODECOPY PUSH0 RETURN INVALID PUSH1 0x80 PUSH1 0x40 MSTORE CALLVALUE DUP1 ISZERO PUSH2 0xF JUMPI PUSH0 DUP1 REVERT JUMPDEST POP PUSH1 0x4 CALLDATASIZE LT PUSH2 0x86 JUMPI PUSH0 CALLDATALOAD PUSH1 0xE0 SHR DUP1 PUSH4 0x9AA36590 GT PUSH2 0x59 JUMPI DUP1 PUSH4 0x9AA36590 EQ PUSH2 0x126 JUMPI DUP1 PUSH4 0xAC2447F1 EQ PUSH2 0x142 JUMPI DUP1 PUSH4 0xC4172162 EQ PUSH2 0x175 JUMPI DUP1 PUSH4 0xDB6E35B2 EQ PUSH2 0x1A6 JUMPI PUSH2 0x86 JUMP JUMPDEST DUP1 PUSH4 0x28414F2 EQ PUSH2 0x8A JUMPI DUP1 PUSH4 0x2036D295 EQ PUSH2 0xA6 JUMPI DUP1 PUSH4 0x68744046 EQ PUSH2 0xC2 JUMPI DUP1 PUSH4 0x7C73709A EQ PUSH2 0xF3 JUMPI JUMPDEST PUSH0 DUP1 REVERT JUMPDEST PUSH2 0xA4 PUSH1 0x4 DUP1 CALLDATASIZE SUB DUP2 ADD SWAP1 PUSH2 0x9F SWAP2 SWAP1 PUSH2 0xB18 JUMP JUMPDEST PUSH2 0x1C2 JUMP JUMPDEST STOP JUMPDEST PUSH2 0xC0 PUSH1 0x4 DUP1 CALLDATASIZE SUB DUP2 ADD SWAP1 PUSH2 0xBB SWAP2 SWAP1 PUSH2 0xB18 JUMP JUMPDEST PUSH2 0x21A JUMP JUMPDEST STOP JUMPDEST PUSH2 0xDC PUSH1 0x4 DUP1 CALLDATASIZE SUB DUP2 ADD SWAP1 PUSH2 0xD7 SWAP2 SWAP1 PUSH2 0xBA0 JUMP JUMPDEST PUSH2 0x272 JUMP JUMPDEST PUSH1 0x40 MLOAD PUSH2 0xEA SWAP3 SWAP2 SWAP1 PUSH2 0xC45 JUMP JUMPDEST PUSH1 0x40 MLOAD DUP1 SWAP2 SUB SWAP1 RETURN JUMPDEST PUSH2 0x10D PUSH1 0x4 DUP1 CALLDATASIZE SUB DUP2 ADD SWAP1 PUSH2 0x108 SWAP2 SWAP1 PUSH2 0xCD4 JUMP JUMPDEST PUSH2 0x39E JUMP JUMPDEST PUSH1 0x40 MLOAD PUSH2 0x11D SWAP5 SWAP4 SWAP3 SWAP2 SWAP1 PUSH2 0xD21 JUMP JUMPDEST PUSH1 0x40 MLOAD DUP1 SWAP2 SUB SWAP1 RETURN JUMPDEST PUSH2 0x140 PUSH1 0x4 DUP1 CALLDATASIZE SUB DUP2 ADD SWAP1 PUSH2 0x13B SWAP2 SWAP1 PUSH2 0xD79 JUMP JUMPDEST PUSH2 0x567 JUMP JUMPDEST STOP JUMPDEST PUSH2 0x15C PUSH1 0x4 DUP1 CALLDATASIZE SUB DUP2 ADD SWAP1 PUSH2 0x157 SWAP2 SWAP1 PUSH2 0xBA0 JUMP JUMPDEST PUSH2 0x5ED JUMP JUMPDEST PUSH1 0x40 MLOAD PUSH2 0x16C SWAP5 SWAP4 SWAP3 SWAP2 SWAP1 PUSH2 0xD21 JUMP JUMPDEST PUSH1 0x40 MLOAD DUP1 SWAP2 SUB SWAP1 RETURN JUMPDEST PUSH2 0x18F PUSH1 0x4 DUP1 CALLDATASIZE SUB DUP2 ADD SWAP1 PUSH2 0x18A SWAP2 SWAP1 PUSH2 0xBA0 JUMP JUMPDEST PUSH2 0x7AB JUMP JUMPDEST PUSH1 0x40 MLOAD PUSH2 0x19D SWAP3 SWAP2 SWAP1 PUSH2 0xC45 JUMP JUMPDEST PUSH1 0x40 MLOAD DUP1 SWAP2 SUB SWAP1 RETURN JUMPDEST PUSH2 0x1C0 PUSH1 0x4 DUP1 CALLDATASIZE SUB DUP2 ADD SWAP1 PUSH2 0x1BB SWAP2 SWAP1 PUSH2 0xD79 JUMP JUMPDEST PUSH2 0x8D7 JUMP JUMPDEST STOP JUMPDEST PUSH1 0x40 MLOAD DUP1 PUSH1 0x40 ADD PUSH1 0x40 MSTORE DUP1 DUP4 DUP2 MSTORE PUSH1 0x20 ADD DUP3 DUP2 MSTORE POP PUSH1 0x1 PUSH0 DUP6 DUP2 MSTORE PUSH1 0x20 ADD SWAP1 DUP2 MSTORE PUSH1 0x20 ADD PUSH0 KECCAK256 PUSH0 DUP3 ADD MLOAD DUP2 PUSH0 ADD SWAP1 DUP2 PUSH2 0x1FB SWAP2 SWAP1 PUSH2 0x103E JUMP JUMPDEST POP PUSH1 0x20 DUP3 ADD MLOAD DUP2 PUSH1 0x1 ADD SWAP1 DUP2 PUSH2 0x211 SWAP2 SWAP1 PUSH2 0x103E JUMP JUMPDEST POP SWAP1 POP POP POP POP POP JUMP JUMPDEST PUSH1 0x40 MLOAD DUP1 PUSH1 0x40 ADD PUSH1 0x40 MSTORE DUP1 DUP4 DUP2 MSTORE PUSH1 0x20 ADD DUP3 DUP2 MSTORE POP PUSH1 0x2 PUSH0 DUP6 DUP2 MSTORE PUSH1 0x20 ADD SWAP1 DUP2 MSTORE PUSH1 0x20 ADD PUSH0 KECCAK256 PUSH0 DUP3 ADD MLOAD DUP2 PUSH0 ADD SWAP1 DUP2 PUSH2 0x253 SWAP2 SWAP1 PUSH2 0x103E JUMP JUMPDEST POP PUSH1 0x20 DUP3 ADD MLOAD DUP2 PUSH1 0x1 ADD SWAP1 DUP2 PUSH2 0x269 SWAP2 SWAP1 PUSH2 0x103E JUMP JUMPDEST POP SWAP1 POP POP POP POP POP JUMP JUMPDEST PUSH1 0x1 PUSH1 0x20 MSTORE DUP1 PUSH0 MSTORE PUSH1 0x40 PUSH0 KECCAK256 PUSH0 SWAP2 POP SWAP1 POP DUP1 PUSH0 ADD DUP1 SLOAD PUSH2 0x291 SWAP1 PUSH2 0xE71 JUMP JUMPDEST DUP1 PUSH1 0x1F ADD PUSH1 0x20 DUP1 SWAP2 DIV MUL PUSH1 0x20 ADD PUSH1 0x40 MLOAD SWAP1 DUP2 ADD PUSH1 0x40 MSTORE DUP1 SWAP3 SWAP2 SWAP1 DUP2 DUP2 MSTORE PUSH1 0x20 ADD DUP3 DUP1 SLOAD PUSH2 0x2BD SWAP1 PUSH2 0xE71 JUMP JUMPDEST DUP1 ISZERO PUSH2 0x308 JUMPI DUP1 PUSH1 0x1F LT PUSH2 0x2DF JUMPI PUSH2 0x100 DUP1 DUP4 SLOAD DIV MUL DUP4 MSTORE SWAP2 PUSH1 0x20 ADD SWAP2 PUSH2 0x308 JUMP JUMPDEST DUP3 ADD SWAP2 SWAP1 PUSH0 MSTORE PUSH1 0x20 PUSH0 KECCAK256 SWAP1 JUMPDEST DUP2 SLOAD DUP2 MSTORE SWAP1 PUSH1 0x1 ADD SWAP1 PUSH1 0x20 ADD DUP1 DUP4 GT PUSH2 0x2EB JUMPI DUP3 SWAP1 SUB PUSH1 0x1F AND DUP3 ADD SWAP2 JUMPDEST POP POP POP POP POP SWAP1 DUP1 PUSH1 0x1 ADD DUP1 SLOAD PUSH2 0x31D SWAP1 PUSH2 0xE71 JUMP JUMPDEST DUP1 PUSH1 0x1F ADD PUSH1 0x20 DUP1 SWAP2 DIV MUL PUSH1 0x20 ADD PUSH1 0x40 MLOAD SWAP1 DUP2 ADD PUSH1 0x40 MSTORE DUP1 SWAP3 SWAP2 SWAP1 DUP2 DUP2 MSTORE PUSH1 0x20 ADD DUP3 DUP1 SLOAD PUSH2 0x349 SWAP1 PUSH2 0xE71 JUMP JUMPDEST DUP1 ISZERO PUSH2 0x394 JUMPI DUP1 PUSH1 0x1F LT PUSH2 0x36B JUMPI PUSH2 0x100 DUP1 DUP4 SLOAD DIV MUL DUP4 MSTORE SWAP2 PUSH1 0x20 ADD SWAP2 PUSH2 0x394 JUMP JUMPDEST DUP3 ADD SWAP2 SWAP1 PUSH0 MSTORE PUSH1 0x20 PUSH0 KECCAK256 SWAP1 JUMPDEST DUP2 SLOAD DUP2 MSTORE SWAP1 PUSH1 0x1 ADD SWAP1 PUSH1 0x20 ADD DUP1 DUP4 GT PUSH2 0x377 JUMPI DUP3 SWAP1 SUB PUSH1 0x1F AND DUP3 ADD SWAP2 JUMPDEST POP POP POP POP POP SWAP1 POP DUP3 JUMP JUMPDEST PUSH1 0x4 PUSH1 0x20 MSTORE DUP2 PUSH0 MSTORE PUSH1 0x40 PUSH0 KECCAK256 PUSH1 0x20 MSTORE DUP1 PUSH0 MSTORE PUSH1 0x40 PUSH0 KECCAK256 PUSH0 SWAP2 POP SWAP2 POP POP DUP1 PUSH0 ADD SLOAD SWAP1 DUP1 PUSH1 0x1 ADD DUP1 SLOAD PUSH2 0x3CE SWAP1 PUSH2 0xE71 JUMP JUMPDEST DUP1 PUSH1 0x1F ADD PUSH1 0x20 DUP1 SWAP2 DIV MUL PUSH1 0x20 ADD PUSH1 0x40 MLOAD SWAP1 DUP2 ADD PUSH1 0x40 MSTORE DUP1 SWAP3 SWAP2 SWAP1 DUP2 DUP2 MSTORE PUSH1 0x20 ADD DUP3 DUP1 SLOAD PUSH2 0x3FA SWAP1 PUSH2 0xE71 JUMP JUMPDEST DUP1 ISZERO PUSH2 0x445 JUMPI DUP1 PUSH1 0x1F LT PUSH2 0x41C JUMPI PUSH2 0x100 DUP1 DUP4 SLOAD DIV MUL DUP4 MSTORE SWAP2 PUSH1 0x20 ADD SWAP2 PUSH2 0x445 JUMP JUMPDEST DUP3 ADD SWAP2 SWAP1 PUSH0 MSTORE PUSH1 0x20 PUSH0 KECCAK256 SWAP1 JUMPDEST DUP2 SLOAD DUP2 MSTORE SWAP1 PUSH1 0x1 ADD SWAP1 PUSH1 0x20 ADD DUP1 DUP4 GT PUSH2 0x428 JUMPI DUP3 SWAP1 SUB PUSH1 0x1F AND DUP3 ADD SWAP2 JUMPDEST POP POP POP POP POP SWAP1 DUP1 PUSH1 0x2 ADD DUP1 SLOAD PUSH2 0x45A SWAP1 PUSH2 0xE71 JUMP JUMPDEST DUP1 PUSH1 0x1F ADD PUSH1 0x20 DUP1 SWAP2 DIV MUL PUSH1 0x20 ADD PUSH1 0x40 MLOAD SWAP1 DUP2 ADD PUSH1 0x40 MSTORE DUP1 SWAP3 SWAP2 SWAP1 DUP2 DUP2 MSTORE PUSH1 0x20 ADD DUP3 DUP1 SLOAD PUSH2 0x486 SWAP1 PUSH2 0xE71 JUMP JUMPDEST DUP1 ISZERO PUSH2 0x4D1 JUMPI DUP1 PUSH1 0x1F LT PUSH2 0x4A8 JUMPI PUSH2 0x100 DUP1 DUP4 SLOAD DIV MUL DUP4 MSTORE SWAP2 PUSH1 0x20 ADD SWAP2 PUSH2 0x4D1 JUMP JUMPDEST DUP3 ADD SWAP2 SWAP1 PUSH0 MSTORE PUSH1 0x20 PUSH0 KECCAK256 SWAP1 JUMPDEST DUP2 SLOAD DUP2 MSTORE SWAP1 PUSH1 0x1 ADD SWAP1 PUSH1 0x20 ADD DUP1 DUP4 GT PUSH2 0x4B4 JUMPI DUP3 SWAP1 SUB PUSH1 0x1F AND DUP3 ADD SWAP2 JUMPDEST POP POP POP POP POP SWAP1 DUP1 PUSH1 0x3 ADD DUP1 SLOAD PUSH2 0x4E6 SWAP1 PUSH2 0xE71 JUMP JUMPDEST DUP1 PUSH1 0x1F ADD PUSH1 0x20 DUP1 SWAP2 DIV MUL PUSH1 0x20 ADD PUSH1 0x40 MLOAD SWAP1 DUP2 ADD PUSH1 0x40 MSTORE DUP1 SWAP3 SWAP2 SWAP1 DUP2 DUP2 MSTORE PUSH1 0x20 ADD DUP3 DUP1 SLOAD PUSH2 0x512 SWAP1 PUSH2 0xE71 JUMP JUMPDEST DUP1 ISZERO PUSH2 0x55D JUMPI DUP1 PUSH1 0x1F LT PUSH2 0x534 JUMPI PUSH2 0x100 DUP1 DUP4 SLOAD DIV MUL DUP4 MSTORE SWAP2 PUSH1 0x20 ADD SWAP2 PUSH2 0x55D JUMP JUMPDEST DUP3 ADD SWAP2 SWAP1 PUSH0 MSTORE PUSH1 0x20 PUSH0 KECCAK256 SWAP1 JUMPDEST DUP2 SLOAD DUP2 MSTORE SWAP1 PUSH1 0x1 ADD SWAP1 PUSH1 0x20 ADD DUP1 DUP4 GT PUSH2 0x540 JUMPI DUP3 SWAP1 SUB PUSH1 0x1F AND DUP3 ADD SWAP2 JUMPDEST POP POP POP POP POP SWAP1 POP DUP5 JUMP JUMPDEST PUSH1 0x40 MLOAD DUP1 PUSH1 0x80 ADD PUSH1 0x40 MSTORE DUP1 DUP6 DUP2 MSTORE PUSH1 0x20 ADD DUP5 DUP2 MSTORE PUSH1 0x20 ADD DUP4 DUP2 MSTORE PUSH1 0x20 ADD DUP3 DUP2 MSTORE POP PUSH1 0x3 PUSH0 DUP8 DUP2 MSTORE PUSH1 0x20 ADD SWAP1 DUP2 MSTORE PUSH1 0x20 ADD PUSH0 KECCAK256 PUSH0 DUP3 ADD MLOAD DUP2 PUSH0 ADD SSTORE PUSH1 0x20 DUP3 ADD MLOAD DUP2 PUSH1 0x1 ADD SWAP1 DUP2 PUSH2 0x5B6 SWAP2 SWAP1 PUSH2 0x103E JUMP JUMPDEST POP PUSH1 0x40 DUP3 ADD MLOAD DUP2 PUSH1 0x2 ADD SWAP1 DUP2 PUSH2 0x5CC SWAP2 SWAP1 PUSH2 0x103E JUMP JUMPDEST POP PUSH1 0x60 DUP3 ADD MLOAD DUP2 PUSH1 0x3 ADD SWAP1 DUP2 PUSH2 0x5E2 SWAP2 SWAP1 PUSH2 0x103E JUMP JUMPDEST POP SWAP1 POP POP POP POP POP POP POP JUMP JUMPDEST PUSH1 0x3 PUSH1 0x20 MSTORE DUP1 PUSH0 MSTORE PUSH1 0x40 PUSH0 KECCAK256 PUSH0 SWAP2 POP SWAP1 POP DUP1 PUSH0 ADD SLOAD SWAP1 DUP1 PUSH1 0x1 ADD DUP1 SLOAD PUSH2 0x612 SWAP1 PUSH2 0xE71 JUMP JUMPDEST DUP1 PUSH1 0x1F ADD PUSH1 0x20 DUP1 SWAP2 DIV MUL PUSH1 0x20 ADD PUSH1 0x40 MLOAD SWAP1 DUP2 ADD PUSH1 0x40 MSTORE DUP1 SWAP3 SWAP2 SWAP1 DUP2 DUP2 MSTORE PUSH1 0x20 ADD DUP3 DUP1 SLOAD PUSH2 0x63E SWAP1 PUSH2 0xE71 JUMP JUMPDEST DUP1 ISZERO PUSH2 0x689 JUMPI DUP1 PUSH1 0x1F LT PUSH2 0x660 JUMPI PUSH2 0x100 DUP1 DUP4 SLOAD DIV MUL DUP4 MSTORE SWAP2 PUSH1 0x20 ADD SWAP2 PUSH2 0x689 JUMP JUMPDEST DUP3 ADD SWAP2 SWAP1 PUSH0 MSTORE PUSH1 0x20 PUSH0 KECCAK256 SWAP1 JUMPDEST DUP2 SLOAD DUP2 MSTORE SWAP1 PUSH1 0x1 ADD SWAP1 PUSH1 0x20 ADD DUP1 DUP4 GT PUSH2 0x66C JUMPI DUP3 SWAP1 SUB PUSH1 0x1F AND DUP3 ADD SWAP2 JUMPDEST POP POP POP POP POP SWAP1 DUP1 PUSH1 0x2 ADD DUP1 SLOAD PUSH2 0x69E SWAP1 PUSH2 0xE71 JUMP JUMPDEST DUP1 PUSH1 0x1F ADD PUSH1 0x20 DUP1 SWAP2 DIV MUL PUSH1 0x20 ADD PUSH1 0x40 MLOAD SWAP1 DUP2 ADD PUSH1 0x40 MSTORE DUP1 SWAP3 SWAP2 SWAP1 DUP2 DUP2 MSTORE PUSH1 0x20 ADD DUP3 DUP1 SLOAD PUSH2 0x6CA SWAP1 PUSH2 0xE71 JUMP JUMPDEST DUP1 ISZERO PUSH2 0x715 JUMPI DUP1 PUSH1 0x1F LT PUSH2 0x6EC JUMPI PUSH2 0x100 DUP1 DUP4 SLOAD DIV MUL DUP4 MSTORE SWAP2 PUSH1 0x20 ADD SWAP2 PUSH2 0x715 JUMP JUMPDEST DUP3 ADD SWAP2 SWAP1 PUSH0 MSTORE PUSH1 0x20 PUSH0 KECCAK256 SWAP1 JUMPDEST DUP2 SLOAD DUP2 MSTORE SWAP1 PUSH1 0x1 ADD SWAP1 PUSH1 0x20 ADD DUP1 DUP4 GT PUSH2 0x6F8 JUMPI DUP3 SWAP1 SUB PUSH1 0x1F AND DUP3 ADD SWAP2 JUMPDEST POP POP POP POP POP SWAP1 DUP1 PUSH1 0x3 ADD DUP1 SLOAD PUSH2 0x72A SWAP1 PUSH2 0xE71 JUMP JUMPDEST DUP1 PUSH1 0x1F ADD PUSH1 0x20 DUP1 SWAP2 DIV MUL PUSH1 0x20 ADD PUSH1 0x40 MLOAD SWAP1 DUP2 ADD PUSH1 0x40 MSTORE DUP1 SWAP3 SWAP2 SWAP1 DUP2 DUP2 MSTORE PUSH1 0x20 ADD DUP3 DUP1 SLOAD PUSH2 0x756 SWAP1 PUSH2 0xE71 JUMP JUMPDEST DUP1 ISZERO PUSH2 0x7A1 JUMPI DUP1 PUSH1 0x1F LT PUSH2 0x778 JUMPI PUSH2 0x100 DUP1 DUP4 SLOAD DIV MUL DUP4 MSTORE SWAP2 PUSH1 0x20 ADD SWAP2 PUSH2 0x7A1 JUMP JUMPDEST DUP3 ADD SWAP2 SWAP1 PUSH0 MSTORE PUSH1 0x20 PUSH0 KECCAK256 SWAP1 JUMPDEST DUP2 SLOAD DUP2 MSTORE SWAP1 PUSH1 0x1 ADD SWAP1 PUSH1 0x20 ADD DUP1 DUP4 GT PUSH2 0x784 JUMPI DUP3 SWAP1 SUB PUSH1 0x1F AND DUP3 ADD SWAP2 JUMPDEST POP POP POP POP POP SWAP1 POP DUP5 JUMP JUMPDEST PUSH1 0x2 PUSH1 0x20 MSTORE DUP1 PUSH0 MSTORE PUSH1 0x40 PUSH0 KECCAK256 PUSH0 SWAP2 POP SWAP1 POP DUP1 PUSH0 ADD DUP1 SLOAD PUSH2 0x7CA SWAP1 PUSH2 0xE71 JUMP JUMPDEST DUP1 PUSH1 0x1F ADD PUSH1 0x20 DUP1 SWAP2 DIV MUL PUSH1 0x20 ADD PUSH1 0x40 MLOAD SWAP1 DUP2 ADD PUSH1 0x40 MSTORE DUP1 SWAP3 SWAP2 SWAP1 DUP2 DUP2 MSTORE PUSH1 0x20 ADD DUP3 DUP1 SLOAD PUSH2 0x7F6 SWAP1 PUSH2 0xE71 JUMP JUMPDEST DUP1 ISZERO PUSH2 0x841 JUMPI DUP1 PUSH1 0x1F LT PUSH2 0x818 JUMPI PUSH2 0x100 DUP1 DUP4 SLOAD DIV MUL DUP4 MSTORE SWAP2 PUSH1 0x20 ADD SWAP2 PUSH2 0x841 JUMP JUMPDEST DUP3 ADD SWAP2 SWAP1 PUSH0 MSTORE PUSH1 0x20 PUSH0 KECCAK256 SWAP1 JUMPDEST DUP2 SLOAD DUP2 MSTORE SWAP1 PUSH1 0x1 ADD SWAP1 PUSH1 0x20 ADD DUP1 DUP4 GT PUSH2 0x824 JUMPI DUP3 SWAP1 SUB PUSH1 0x1F AND DUP3 ADD SWAP2 JUMPDEST POP POP POP POP POP SWAP1 DUP1 PUSH1 0x1 ADD DUP1 SLOAD PUSH2 0x856 SWAP1 PUSH2 0xE71 JUMP JUMPDEST DUP1 PUSH1 0x1F ADD PUSH1 0x20 DUP1 SWAP2 DIV MUL PUSH1 0x20 ADD PUSH1 0x40 MLOAD SWAP1 DUP2 ADD PUSH1 0x40 MSTORE DUP1 SWAP3 SWAP2 SWAP1 DUP2 DUP2 MSTORE PUSH1 0x20 ADD DUP3 DUP1 SLOAD PUSH2 0x882 SWAP1 PUSH2 0xE71 JUMP JUMPDEST DUP1 ISZERO PUSH2 0x8CD JUMPI DUP1 PUSH1 0x1F LT PUSH2 0x8A4 JUMPI PUSH2 0x100 DUP1 DUP4 SLOAD DIV MUL DUP4 MSTORE SWAP2 PUSH1 0x20 ADD SWAP2 PUSH2 0x8CD JUMP JUMPDEST DUP3 ADD SWAP2 SWAP1 PUSH0 MSTORE PUSH1 0x20 PUSH0 KECCAK256 SWAP1 JUMPDEST DUP2 SLOAD DUP2 MSTORE SWAP1 PUSH1 0x1 ADD SWAP1 PUSH1 0x20 ADD DUP1 DUP4 GT PUSH2 0x8B0 JUMPI DUP3 SWAP1 SUB PUSH1 0x1F AND DUP3 ADD SWAP2 JUMPDEST POP POP POP POP POP SWAP1 POP DUP3 JUMP JUMPDEST PUSH1 0x40 MLOAD DUP1 PUSH1 0x80 ADD PUSH1 0x40 MSTORE DUP1 DUP6 DUP2 MSTORE PUSH1 0x20 ADD DUP5 DUP2 MSTORE PUSH1 0x20 ADD DUP4 DUP2 MSTORE PUSH1 0x20 ADD DUP3 DUP2 MSTORE POP PUSH1 0x4 PUSH0 CALLER PUSH20 0xFFFFFFFFFFFFFFFFFFFFFFFFFFFFFFFFFFFFFFFF AND PUSH20 0xFFFFFFFFFFFFFFFFFFFFFFFFFFFFFFFFFFFFFFFF AND DUP2 MSTORE PUSH1 0x20 ADD SWAP1 DUP2 MSTORE PUSH1 0x20 ADD PUSH0 KECCAK256 PUSH0 DUP8 DUP2 MSTORE PUSH1 0x20 ADD SWAP1 DUP2 MSTORE PUSH1 0x20 ADD PUSH0 KECCAK256 PUSH0 DUP3 ADD MLOAD DUP2 PUSH0 ADD SSTORE PUSH1 0x20 DUP3 ADD MLOAD DUP2 PUSH1 0x1 ADD SWAP1 DUP2 PUSH2 0x961 SWAP2 SWAP1 PUSH2 0x103E JUMP JUMPDEST POP PUSH1 0x40 DUP3 ADD MLOAD DUP2 PUSH1 0x2 ADD SWAP1 DUP2 PUSH2 0x977 SWAP2 SWAP1 PUSH2 0x103E JUMP JUMPDEST POP PUSH1 0x60 DUP3 ADD MLOAD DUP2 PUSH1 0x3 ADD SWAP1 DUP2 PUSH2 0x98D SWAP2 SWAP1 PUSH2 0x103E JUMP JUMPDEST POP SWAP1 POP POP POP POP POP POP POP JUMP JUMPDEST PUSH0 PUSH1 0x40 MLOAD SWAP1 POP SWAP1 JUMP JUMPDEST PUSH0 DUP1 REVERT JUMPDEST PUSH0 DUP1 REVERT JUMPDEST PUSH0 DUP2 SWAP1 POP SWAP2 SWAP1 POP JUMP JUMPDEST PUSH2 0x9BB DUP2 PUSH2 0x9A9 JUMP JUMPDEST DUP2 EQ PUSH2 0x9C5 JUMPI PUSH0 DUP1 REVERT JUMPDEST POP JUMP JUMPDEST PUSH0 DUP2 CALLDATALOAD SWAP1 POP PUSH2 0x9D6 DUP2 PUSH2 0x9B2 JUMP JUMPDEST SWAP3 SWAP2 POP POP JUMP JUMPDEST PUSH0 DUP1 REVERT JUMPDEST PUSH0 DUP1 REVERT JUMPDEST PUSH0 PUSH1 0x1F NOT PUSH1 0x1F DUP4 ADD AND SWAP1 POP SWAP2 SWAP1 POP JUMP JUMPDEST PUSH32 0x4E487B7100000000000000000000000000000000000000000000000000000000 PUSH0 MSTORE PUSH1 0x41 PUSH1 0x4 MSTORE PUSH1 0x24 PUSH0 REVERT JUMPDEST PUSH2 0xA2A DUP3 PUSH2 0x9E4 JUMP JUMPDEST DUP2 ADD DUP2 DUP2 LT PUSH8 0xFFFFFFFFFFFFFFFF DUP3 GT OR ISZERO PUSH2 0xA49 JUMPI PUSH2 0xA48 PUSH2 0x9F4 JUMP JUMPDEST JUMPDEST DUP1 PUSH1 0x40 MSTORE POP POP POP JUMP JUMPDEST PUSH0 PUSH2 0xA5B PUSH2 0x998 JUMP JUMPDEST SWAP1 POP PUSH2 0xA67 DUP3 DUP3 PUSH2 0xA21 JUMP JUMPDEST SWAP2 SWAP1 POP JUMP JUMPDEST PUSH0 PUSH8 0xFFFFFFFFFFFFFFFF DUP3 GT ISZERO PUSH2 0xA86 JUMPI PUSH2 0xA85 PUSH2 0x9F4 JUMP JUMPDEST JUMPDEST PUSH2 0xA8F DUP3 PUSH2 0x9E4 JUMP JUMPDEST SWAP1 POP PUSH1 0x20 DUP2 ADD SWAP1 POP SWAP2 SWAP1 POP JUMP JUMPDEST DUP3 DUP2 DUP4 CALLDATACOPY PUSH0 DUP4 DUP4 ADD MSTORE POP POP POP JUMP JUMPDEST PUSH0 PUSH2 0xABC PUSH2 0xAB7 DUP5 PUSH2 0xA6C JUMP JUMPDEST PUSH2 0xA52 JUMP JUMPDEST SWAP1 POP DUP3 DUP2 MSTORE PUSH1 0x20 DUP2 ADD DUP5 DUP5 DUP5 ADD GT ISZERO PUSH2 0xAD8 JUMPI PUSH2 0xAD7 PUSH2 0x9E0 JUMP JUMPDEST JUMPDEST PUSH2 0xAE3 DUP5 DUP3 DUP6 PUSH2 0xA9C JUMP JUMPDEST POP SWAP4 SWAP3 POP POP POP JUMP JUMPDEST PUSH0 DUP3 PUSH1 0x1F DUP4 ADD SLT PUSH2 0xAFF JUMPI PUSH2 0xAFE PUSH2 0x9DC JUMP JUMPDEST JUMPDEST DUP2 CALLDATALOAD PUSH2 0xB0F DUP5 DUP3 PUSH1 0x20 DUP7 ADD PUSH2 0xAAA JUMP JUMPDEST SWAP2 POP POP SWAP3 SWAP2 POP POP JUMP JUMPDEST PUSH0 DUP1 PUSH0 PUSH1 0x60 DUP5 DUP7 SUB SLT ISZERO PUSH2 0xB2F JUMPI PUSH2 0xB2E PUSH2 0x9A1 JUMP JUMPDEST JUMPDEST PUSH0 PUSH2 0xB3C DUP7 DUP3 DUP8 ADD PUSH2 0x9C8 JUMP JUMPDEST SWAP4 POP POP PUSH1 0x20 DUP5 ADD CALLDATALOAD PUSH8 0xFFFFFFFFFFFFFFFF DUP2 GT ISZERO PUSH2 0xB5D JUMPI PUSH2 0xB5C PUSH2 0x9A5 JUMP JUMPDEST JUMPDEST PUSH2 0xB69 DUP7 DUP3 DUP8 ADD PUSH2 0xAEB JUMP JUMPDEST SWAP3 POP POP PUSH1 0x40 DUP5 ADD CALLDATALOAD PUSH8 0xFFFFFFFFFFFFFFFF DUP2 GT ISZERO PUSH2 0xB8A JUMPI PUSH2 0xB89 PUSH2 0x9A5 JUMP JUMPDEST JUMPDEST PUSH2 0xB96 DUP7 DUP3 DUP8 ADD PUSH2 0xAEB JUMP JUMPDEST SWAP2 POP POP SWAP3 POP SWAP3 POP SWAP3 JUMP JUMPDEST PUSH0 PUSH1 0x20 DUP3 DUP5 SUB SLT ISZERO PUSH2 0xBB5 JUMPI PUSH2 0xBB4 PUSH2 0x9A1 JUMP JUMPDEST JUMPDEST PUSH0 PUSH2 0xBC2 DUP5 DUP3 DUP6 ADD PUSH2 0x9C8 JUMP JUMPDEST SWAP2 POP POP SWAP3 SWAP2 POP POP JUMP JUMPDEST PUSH0 DUP2 MLOAD SWAP1 POP SWAP2 SWAP1 POP JUMP JUMPDEST PUSH0 DUP3 DUP3 MSTORE PUSH1 0x20 DUP3 ADD SWAP1 POP SWAP3 SWAP2 POP POP JUMP JUMPDEST PUSH0 JUMPDEST DUP4 DUP2 LT ISZERO PUSH2 0xC02 JUMPI DUP1 DUP3 ADD MLOAD DUP2 DUP5 ADD MSTORE PUSH1 0x20 DUP2 ADD SWAP1 POP PUSH2 0xBE7 JUMP JUMPDEST PUSH0 DUP5 DUP5 ADD MSTORE POP POP POP POP JUMP JUMPDEST PUSH0 PUSH2 0xC17 DUP3 PUSH2 0xBCB JUMP JUMPDEST PUSH2 0xC21 DUP2 DUP6 PUSH2 0xBD5 JUMP JUMPDEST SWAP4 POP PUSH2 0xC31 DUP2 DUP6 PUSH1 0x20 DUP7 ADD PUSH2 0xBE5 JUMP JUMPDEST PUSH2 0xC3A DUP2 PUSH2 0x9E4 JUMP JUMPDEST DUP5 ADD SWAP2 POP POP SWAP3 SWAP2 POP POP JUMP JUMPDEST PUSH0 PUSH1 0x40 DUP3 ADD SWAP1 POP DUP2 DUP2 SUB PUSH0 DUP4 ADD MSTORE PUSH2 0xC5D DUP2 DUP6 PUSH2 0xC0D JUMP JUMPDEST SWAP1 POP DUP2 DUP2 SUB PUSH1 0x20 DUP4 ADD MSTORE PUSH2 0xC71 DUP2 DUP5 PUSH2 0xC0D JUMP JUMPDEST SWAP1 POP SWAP4 SWAP3 POP POP POP JUMP JUMPDEST PUSH0 PUSH20 0xFFFFFFFFFFFFFFFFFFFFFFFFFFFFFFFFFFFFFFFF DUP3 AND SWAP1 POP SWAP2 SWAP1 POP JUMP JUMPDEST PUSH0 PUSH2 0xCA3 DUP3 PUSH2 0xC7A JUMP JUMPDEST SWAP1 POP SWAP2 SWAP1 POP JUMP JUMPDEST PUSH2 0xCB3 DUP2 PUSH2 0xC99 JUMP JUMPDEST DUP2 EQ PUSH2 0xCBD JUMPI PUSH0 DUP1 REVERT JUMPDEST POP JUMP JUMPDEST PUSH0 DUP2 CALLDATALOAD SWAP1 POP PUSH2 0xCCE DUP2 PUSH2 0xCAA JUMP JUMPDEST SWAP3 SWAP2 POP POP JUMP JUMPDEST PUSH0 DUP1 PUSH1 0x40 DUP4 DUP6 SUB SLT ISZERO PUSH2 0xCEA JUMPI PUSH2 0xCE9 PUSH2 0x9A1 JUMP JUMPDEST JUMPDEST PUSH0 PUSH2 0xCF7 DUP6 DUP3 DUP7 ADD PUSH2 0xCC0 JUMP JUMPDEST SWAP3 POP POP PUSH1 0x20 PUSH2 0xD08 DUP6 DUP3 DUP7 ADD PUSH2 0x9C8 JUMP JUMPDEST SWAP2 POP POP SWAP3 POP SWAP3 SWAP1 POP JUMP JUMPDEST PUSH2 0xD1B DUP2 PUSH2 0x9A9 JUMP JUMPDEST DUP3 MSTORE POP POP JUMP JUMPDEST PUSH0 PUSH1 0x80 DUP3 ADD SWAP1 POP PUSH2 0xD34 PUSH0 DUP4 ADD DUP8 PUSH2 0xD12 JUMP JUMPDEST DUP2 DUP2 SUB PUSH1 0x20 DUP4 ADD MSTORE PUSH2 0xD46 DUP2 DUP7 PUSH2 0xC0D JUMP JUMPDEST SWAP1 POP DUP2 DUP2 SUB PUSH1 0x40 DUP4 ADD MSTORE PUSH2 0xD5A DUP2 DUP6 PUSH2 0xC0D JUMP JUMPDEST SWAP1 POP DUP2 DUP2 SUB PUSH1 0x60 DUP4 ADD MSTORE PUSH2 0xD6E DUP2 DUP5 PUSH2 0xC0D JUMP JUMPDEST SWAP1 POP SWAP6 SWAP5 POP POP POP POP POP JUMP JUMPDEST PUSH0 DUP1 PUSH0 DUP1 PUSH0 PUSH1 0xA0 DUP7 DUP9 SUB SLT ISZERO PUSH2 0xD92 JUMPI PUSH2 0xD91 PUSH2 0x9A1 JUMP JUMPDEST JUMPDEST PUSH0 PUSH2 0xD9F DUP9 DUP3 DUP10 ADD PUSH2 0x9C8 JUMP JUMPDEST SWAP6 POP POP PUSH1 0x20 PUSH2 0xDB0 DUP9 DUP3 DUP10 ADD PUSH2 0x9C8 JUMP JUMPDEST SWAP5 POP POP PUSH1 0x40 DUP7 ADD CALLDATALOAD PUSH8 0xFFFFFFFFFFFFFFFF DUP2 GT ISZERO PUSH2 0xDD1 JUMPI PUSH2 0xDD0 PUSH2 0x9A5 JUMP JUMPDEST JUMPDEST PUSH2 0xDDD DUP9 DUP3 DUP10 ADD PUSH2 0xAEB JUMP JUMPDEST SWAP4 POP POP PUSH1 0x60 DUP7 ADD CALLDATALOAD PUSH8 0xFFFFFFFFFFFFFFFF DUP2 GT ISZERO PUSH2 0xDFE JUMPI PUSH2 0xDFD PUSH2 0x9A5 JUMP JUMPDEST JUMPDEST PUSH2 0xE0A DUP9 DUP3 DUP10 ADD PUSH2 0xAEB JUMP JUMPDEST SWAP3 POP POP PUSH1 0x80 DUP7 ADD CALLDATALOAD PUSH8 0xFFFFFFFFFFFFFFFF DUP2 GT ISZERO PUSH2 0xE2B JUMPI PUSH2 0xE2A PUSH2 0x9A5 JUMP JUMPDEST JUMPDEST PUSH2 0xE37 DUP9 DUP3 DUP10 ADD PUSH2 0xAEB JUMP JUMPDEST SWAP2 POP POP SWAP3 SWAP6 POP SWAP3 SWAP6 SWAP1 SWAP4 POP JUMP JUMPDEST PUSH32 0x4E487B7100000000000000000000000000000000000000000000000000000000 PUSH0 MSTORE PUSH1 0x22 PUSH1 0x4 MSTORE PUSH1 0x24 PUSH0 REVERT JUMPDEST PUSH0 PUSH1 0x2 DUP3 DIV SWAP1 POP PUSH1 0x1 DUP3 AND DUP1 PUSH2 0xE88 JUMPI PUSH1 0x7F DUP3 AND SWAP2 POP JUMPDEST PUSH1 0x20 DUP3 LT DUP2 SUB PUSH2 0xE9B JUMPI PUSH2 0xE9A PUSH2 0xE44 JUMP JUMPDEST JUMPDEST POP SWAP2 SWAP1 POP JUMP JUMPDEST PUSH0 DUP2 SWAP1 POP DUP2 PUSH0 MSTORE PUSH1 0x20 PUSH0 KECCAK256 SWAP1 POP SWAP2 SWAP1 POP JUMP JUMPDEST PUSH0 PUSH1 0x20 PUSH1 0x1F DUP4 ADD DIV SWAP1 POP SWAP2 SWAP1 POP JUMP JUMPDEST PUSH0 DUP3 DUP3 SHL SWAP1 POP SWAP3 SWAP2 POP POP JUMP JUMPDEST PUSH0 PUSH1 0x8 DUP4 MUL PUSH2 0xEFD PUSH32 0xFFFFFFFFFFFFFFFFFFFFFFFFFFFFFFFFFFFFFFFFFFFFFFFFFFFFFFFFFFFFFFFF DUP3 PUSH2 0xEC2 JUMP JUMPDEST PUSH2 0xF07 DUP7 DUP4 PUSH2 0xEC2 JUMP JUMPDEST SWAP6 POP DUP1 NOT DUP5 AND SWAP4 POP DUP1 DUP7 AND DUP5 OR SWAP3 POP POP POP SWAP4 SWAP3 POP POP POP JUMP JUMPDEST PUSH0 DUP2 SWAP1 POP SWAP2 SWAP1 POP JUMP JUMPDEST PUSH0 PUSH2 0xF42 PUSH2 0xF3D PUSH2 0xF38 DUP5 PUSH2 0x9A9 JUMP JUMPDEST PUSH2 0xF1F JUMP JUMPDEST PUSH2 0x9A9 JUMP JUMPDEST SWAP1 POP SWAP2 SWAP1 POP JUMP JUMPDEST PUSH0 DUP2 SWAP1 POP SWAP2 SWAP1 POP JUMP JUMPDEST PUSH2 0xF5B DUP4 PUSH2 0xF28 JUMP JUMPDEST PUSH2 0xF6F PUSH2 0xF67 DUP3 PUSH2 0xF49 JUMP JUMPDEST DUP5 DUP5 SLOAD PUSH2 0xECE JUMP JUMPDEST DUP3 SSTORE POP POP POP POP JUMP JUMPDEST PUSH0 SWAP1 JUMP JUMPDEST PUSH2 0xF83 PUSH2 0xF77 JUMP JUMPDEST PUSH2 0xF8E DUP2 DUP5 DUP5 PUSH2 0xF52 JUMP JUMPDEST POP POP POP JUMP JUMPDEST JUMPDEST DUP2 DUP2 LT ISZERO PUSH2 0xFB1 JUMPI PUSH2 0xFA6 PUSH0 DUP3 PUSH2 0xF7B JUMP JUMPDEST PUSH1 0x1 DUP2 ADD SWAP1 POP PUSH2 0xF94 JUMP JUMPDEST POP POP JUMP JUMPDEST PUSH1 0x1F DUP3 GT ISZERO PUSH2 0xFF6 JUMPI PUSH2 0xFC7 DUP2 PUSH2 0xEA1 JUMP JUMPDEST PUSH2 0xFD0 DUP5 PUSH2 0xEB3 JUMP JUMPDEST DUP2 ADD PUSH1 0x20 DUP6 LT ISZERO PUSH2 0xFDF JUMPI DUP2 SWAP1 POP JUMPDEST PUSH2 0xFF3 PUSH2 0xFEB DUP6 PUSH2 0xEB3 JUMP JUMPDEST DUP4 ADD DUP3 PUSH2 0xF93 JUMP JUMPDEST POP POP JUMPDEST POP POP POP JUMP JUMPDEST PUSH0 DUP3 DUP3 SHR SWAP1 POP SWAP3 SWAP2 POP POP JUMP JUMPDEST PUSH0 PUSH2 0x1016 PUSH0 NOT DUP5 PUSH1 0x8 MUL PUSH2 0xFFB JUMP JUMPDEST NOT DUP1 DUP4 AND SWAP2 POP POP SWAP3 SWAP2 POP POP JUMP JUMPDEST PUSH0 PUSH2 0x102E DUP4 DUP4 PUSH2 0x1007 JUMP JUMPDEST SWAP2 POP DUP3 PUSH1 0x2 MUL DUP3 OR SWAP1 POP SWAP3 SWAP2 POP POP JUMP JUMPDEST PUSH2 0x1047 DUP3 PUSH2 0xBCB JUMP JUMPDEST PUSH8 0xFFFFFFFFFFFFFFFF DUP2 GT ISZERO PUSH2 0x1060 JUMPI PUSH2 0x105F PUSH2 0x9F4 JUMP JUMPDEST JUMPDEST PUSH2 0x106A DUP3 SLOAD PUSH2 0xE71 JUMP JUMPDEST PUSH2 0x1075 DUP3 DUP3 DUP6 PUSH2 0xFB5 JUMP JUMPDEST PUSH0 PUSH1 0x20 SWAP1 POP PUSH1 0x1F DUP4 GT PUSH1 0x1 DUP2 EQ PUSH2 0x10A6 JUMPI PUSH0 DUP5 ISZERO PUSH2 0x1094 JUMPI DUP3 DUP8 ADD MLOAD SWAP1 POP JUMPDEST PUSH2 0x109E DUP6 DUP3 PUSH2 0x1023 JUMP JUMPDEST DUP7 SSTORE POP PUSH2 0x1105 JUMP JUMPDEST PUSH1 0x1F NOT DUP5 AND PUSH2 0x10B4 DUP7 PUSH2 0xEA1 JUMP JUMPDEST PUSH0 JUMPDEST DUP3 DUP2 LT ISZERO PUSH2 0x10DB JUMPI DUP5 DUP10 ADD MLOAD DUP3 SSTORE PUSH1 0x1 DUP3 ADD SWAP2 POP PUSH1 0x20 DUP6 ADD SWAP5 POP PUSH1 0x20 DUP2 ADD SWAP1 POP PUSH2 0x10B6 JUMP JUMPDEST DUP7 DUP4 LT ISZERO PUSH2 0x10F8 JUMPI DUP5 DUP10 ADD MLOAD PUSH2 0x10F4 PUSH1 0x1F DUP10 AND DUP3 PUSH2 0x1007 JUMP JUMPDEST DUP4 SSTORE POP JUMPDEST PUSH1 0x1 PUSH1 0x2 DUP9 MUL ADD DUP9 SSTORE POP POP POP JUMPDEST POP POP POP POP POP POP JUMP INVALID LOG2 PUSH5 0x6970667358 0x22 SLT KECCAK256 PREVRANDAO DUP10 0xE1 0xE3 0xD7 PUSH29 0x8DDF2512296C2F33568A5C0ACF8DFCFDC306A05A6368217DB84B64736F PUSH13 0x63430008160033000000000000 "
		},
		"gasEstimates": {
			"creation": {
				"codeDepositCost": "883800",
				"executionCost": "infinite",
				"totalCost": "infinite"
			},
			"external": {
				"addBook(uint256,string,string)": "infinite",
				"addFruit(uint256,string,string)": "infinite",
				"addLiquor(uint256,uint256,string,string,string)": "infinite",
				"addMyLiquor(uint256,uint256,string,string,string)": "infinite",
				"books(uint256)": "infinite",
				"fruits(uint256)": "infinite",
				"liquors(uint256)": "infinite",
				"myLiquors(address,uint256)": "infinite"
			}
		},
		"methodIdentifiers": {
			"addBook(uint256,string,string)": "028414f2",
			"addFruit(uint256,string,string)": "2036d295",
			"addLiquor(uint256,uint256,string,string,string)": "9aa36590",
			"addMyLiquor(uint256,uint256,string,string,string)": "db6e35b2",
			"books(uint256)": "68744046",
			"fruits(uint256)": "c4172162",
			"liquors(uint256)": "ac2447f1",
			"myLiquors(address,uint256)": "7c73709a"
		}
	},
	"abi": [
		{
			"inputs": [],
			"stateMutability": "nonpayable",
			"type": "constructor"
		},
		{
			"inputs": [
				{
					"internalType": "uint256",
					"name": "_id",
					"type": "uint256"
				},
				{
					"internalType": "string",
					"name": "_title",
					"type": "string"
				},
				{
					"internalType": "string",
					"name": "_author",
					"type": "string"
				}
			],
			"name": "addBook",
			"outputs": [],
			"stateMutability": "nonpayable",
			"type": "function"
		},
		{
			"inputs": [
				{
					"internalType": "uint256",
					"name": "_id",
					"type": "uint256"
				},
				{
					"internalType": "string",
					"name": "_name",
					"type": "string"
				},
				{
					"internalType": "string",
					"name": "_origin",
					"type": "string"
				}
			],
			"name": "addFruit",
			"outputs": [],
			"stateMutability": "nonpayable",
			"type": "function"
		},
		{
			"inputs": [
				{
					"internalType": "uint256",
					"name": "_id",
					"type": "uint256"
				},
				{
					"internalType": "uint256",
					"name": "_percent",
					"type": "uint256"
				},
				{
					"internalType": "string",
					"name": "_category",
					"type": "string"
				},
				{
					"internalType": "string",
					"name": "_brand",
					"type": "string"
				},
				{
					"internalType": "string",
					"name": "_name",
					"type": "string"
				}
			],
			"name": "addLiquor",
			"outputs": [],
			"stateMutability": "nonpayable",
			"type": "function"
		},
		{
			"inputs": [
				{
					"internalType": "uint256",
					"name": "_id",
					"type": "uint256"
				},
				{
					"internalType": "uint256",
					"name": "_percent",
					"type": "uint256"
				},
				{
					"internalType": "string",
					"name": "_category",
					"type": "string"
				},
				{
					"internalType": "string",
					"name": "_brand",
					"type": "string"
				},
				{
					"internalType": "string",
					"name": "_name",
					"type": "string"
				}
			],
			"name": "addMyLiquor",
			"outputs": [],
			"stateMutability": "nonpayable",
			"type": "function"
		},
		{
			"inputs": [
				{
					"internalType": "uint256",
					"name": "",
					"type": "uint256"
				}
			],
			"name": "books",
			"outputs": [
				{
					"internalType": "string",
					"name": "title",
					"type": "string"
				},
				{
					"internalType": "string",
					"name": "author",
					"type": "string"
				}
			],
			"stateMutability": "view",
			"type": "function"
		},
		{
			"inputs": [
				{
					"internalType": "uint256",
					"name": "",
					"type": "uint256"
				}
			],
			"name": "fruits",
			"outputs": [
				{
					"internalType": "string",
					"name": "name",
					"type": "string"
				},
				{
					"internalType": "string",
					"name": "origin",
					"type": "string"
				}
			],
			"stateMutability": "view",
			"type": "function"
		},
		{
			"inputs": [
				{
					"internalType": "uint256",
					"name": "",
					"type": "uint256"
				}
			],
			"name": "liquors",
			"outputs": [
				{
					"internalType": "uint256",
					"name": "percent",
					"type": "uint256"
				},
				{
					"internalType": "string",
					"name": "category",
					"type": "string"
				},
				{
					"internalType": "string",
					"name": "brand",
					"type": "string"
				},
				{
					"internalType": "string",
					"name": "name",
					"type": "string"
				}
			],
			"stateMutability": "view",
			"type": "function"
		},
		{
			"inputs": [
				{
					"internalType": "address",
					"name": "",
					"type": "address"
				},
				{
					"internalType": "uint256",
					"name": "",
					"type": "uint256"
				}
			],
			"name": "myLiquors",
			"outputs": [
				{
					"internalType": "uint256",
					"name": "percent",
					"type": "uint256"
				},
				{
					"internalType": "string",
					"name": "category",
					"type": "string"
				},
				{
					"internalType": "string",
					"name": "brand",
					"type": "string"
				},
				{
					"internalType": "string",
					"name": "name",
					"type": "string"
				}
			],
			"stateMutability": "view",
			"type": "function"
		}
	]
}