{
	"data": {
		"bytecode": {
			"linkReferences": {},
			"object": "60806040523480156200001157600080fd5b506040518060400160405280600481526020017f4a6f686e000000000000000000000000000000000000000000000000000000008152506000806001815260200190815260200160002090816200006991906200039a565b506040518060400160405280600c81526020017f4a6f68616e205065747465720000000000000000000000000000000000000000815250600080600281526020019081526020016000209081620000c191906200039a565b506040518060400160405280600581526020017f4a6f726e790000000000000000000000000000000000000000000000000000008152506000806003815260200190815260200160002090816200011991906200039a565b5062000481565b600081519050919050565b7f4e487b7100000000000000000000000000000000000000000000000000000000600052604160045260246000fd5b7f4e487b7100000000000000000000000000000000000000000000000000000000600052602260045260246000fd5b60006002820490506001821680620001a257607f821691505b602082108103620001b857620001b76200015a565b5b50919050565b60008190508160005260206000209050919050565b60006020601f8301049050919050565b600082821b905092915050565b600060088302620002227fffffffffffffffffffffffffffffffffffffffffffffffffffffffffffffffff82620001e3565b6200022e8683620001e3565b95508019841693508086168417925050509392505050565b6000819050919050565b6000819050919050565b60006200027b620002756200026f8462000246565b62000250565b62000246565b9050919050565b6000819050919050565b62000297836200025a565b620002af620002a68262000282565b848454620001f0565b825550505050565b600090565b620002c6620002b7565b620002d38184846200028c565b505050565b5b81811015620002fb57620002ef600082620002bc565b600181019050620002d9565b5050565b601f8211156200034a576200031481620001be565b6200031f84620001d3565b810160208510156200032f578190505b620003476200033e85620001d3565b830182620002d8565b50505b505050565b600082821c905092915050565b60006200036f600019846008026200034f565b1980831691505092915050565b60006200038a83836200035c565b9150826002028217905092915050565b620003a58262000120565b67ffffffffffffffff811115620003c157620003c06200012b565b5b620003cd825462000189565b620003da828285620002ff565b600060209050601f831160018114620004125760008415620003fd578287015190505b6200040985826200037c565b86555062000479565b601f1984166200042286620001be565b60005b828110156200044c5784890151825560018201915060208501945060208101905062000425565b868310156200046c578489015162000468601f8916826200035c565b8355505b6001600288020188555050505b505050505050565b6111bb80620004916000396000f3fe608060405234801561001057600080fd5b50600436106100885760003560e01c80639aa365901161005b5780639aa3659014610129578063ac2447f114610145578063c417216214610178578063db6e35b2146101a957610088565b8063028414f21461008d5780632036d295146100a957806368744046146100c55780637c73709a146100f6575b600080fd5b6100a760048036038101906100a29190610b63565b6101c5565b005b6100c360048036038101906100be9190610b63565b610221565b005b6100df60048036038101906100da9190610bee565b61027d565b6040516100ed929190610c9a565b60405180910390f35b610110600480360381019061010b9190610d2f565b6103b1565b6040516101209493929190610d7e565b60405180910390f35b610143600480360381019061013e9190610dd8565b610586565b005b61015f600480360381019061015a9190610bee565b610610565b60405161016f9493929190610d7e565b60405180910390f35b610192600480360381019061018d9190610bee565b6107d8565b6040516101a0929190610c9a565b60405180910390f35b6101c360048036038101906101be9190610dd8565b61090c565b005b60405180604001604052808381526020018281525060016000858152602001908152602001600020600082015181600001908161020291906110b3565b50602082015181600101908161021891906110b3565b50905050505050565b60405180604001604052808381526020018281525060026000858152602001908152602001600020600082015181600001908161025e91906110b3565b50602082015181600101908161027491906110b3565b50905050505050565b60016020528060005260406000206000915090508060000180546102a090610ed6565b80601f01602080910402602001604051908101604052809291908181526020018280546102cc90610ed6565b80156103195780601f106102ee57610100808354040283529160200191610319565b820191906000526020600020905b8154815290600101906020018083116102fc57829003601f168201915b50505050509080600101805461032e90610ed6565b80601f016020809104026020016040519081016040528092919081815260200182805461035a90610ed6565b80156103a75780601f1061037c576101008083540402835291602001916103a7565b820191906000526020600020905b81548152906001019060200180831161038a57829003601f168201915b5050505050905082565b6004602052816000526040600020602052806000526040600020600091509150508060000154908060010180546103e790610ed6565b80601f016020809104026020016040519081016040528092919081815260200182805461041390610ed6565b80156104605780601f1061043557610100808354040283529160200191610460565b820191906000526020600020905b81548152906001019060200180831161044357829003601f168201915b50505050509080600201805461047590610ed6565b80601f01602080910402602001604051908101604052809291908181526020018280546104a190610ed6565b80156104ee5780601f106104c3576101008083540402835291602001916104ee565b820191906000526020600020905b8154815290600101906020018083116104d157829003601f168201915b50505050509080600301805461050390610ed6565b80601f016020809104026020016040519081016040528092919081815260200182805461052f90610ed6565b801561057c5780601f106105515761010080835404028352916020019161057c565b820191906000526020600020905b81548152906001019060200180831161055f57829003601f168201915b5050505050905084565b604051806080016040528085815260200184815260200183815260200182815250600360008781526020019081526020016000206000820151816000015560208201518160010190816105d991906110b3565b5060408201518160020190816105ef91906110b3565b50606082015181600301908161060591906110b3565b509050505050505050565b600360205280600052604060002060009150905080600001549080600101805461063990610ed6565b80601f016020809104026020016040519081016040528092919081815260200182805461066590610ed6565b80156106b25780601f10610687576101008083540402835291602001916106b2565b820191906000526020600020905b81548152906001019060200180831161069557829003601f168201915b5050505050908060020180546106c790610ed6565b80601f01602080910402602001604051908101604052809291908181526020018280546106f390610ed6565b80156107405780601f1061071557610100808354040283529160200191610740565b820191906000526020600020905b81548152906001019060200180831161072357829003601f168201915b50505050509080600301805461075590610ed6565b80601f016020809104026020016040519081016040528092919081815260200182805461078190610ed6565b80156107ce5780601f106107a3576101008083540402835291602001916107ce565b820191906000526020600020905b8154815290600101906020018083116107b157829003601f168201915b5050505050905084565b60026020528060005260406000206000915090508060000180546107fb90610ed6565b80601f016020809104026020016040519081016040528092919081815260200182805461082790610ed6565b80156108745780601f1061084957610100808354040283529160200191610874565b820191906000526020600020905b81548152906001019060200180831161085757829003601f168201915b50505050509080600101805461088990610ed6565b80601f01602080910402602001604051908101604052809291908181526020018280546108b590610ed6565b80156109025780601f106108d757610100808354040283529160200191610902565b820191906000526020600020905b8154815290600101906020018083116108e557829003601f168201915b5050505050905082565b604051806080016040528085815260200184815260200183815260200182815250600460003373ffffffffffffffffffffffffffffffffffffffff1673ffffffffffffffffffffffffffffffffffffffff168152602001908152602001600020600087815260200190815260200160002060008201518160000155602082015181600101908161099c91906110b3565b5060408201518160020190816109b291906110b3565b5060608201518160030190816109c891906110b3565b509050505050505050565b6000604051905090565b600080fd5b600080fd5b6000819050919050565b6109fa816109e7565b8114610a0557600080fd5b50565b600081359050610a17816109f1565b92915050565b600080fd5b600080fd5b6000601f19601f8301169050919050565b7f4e487b7100000000000000000000000000000000000000000000000000000000600052604160045260246000fd5b610a7082610a27565b810181811067ffffffffffffffff82111715610a8f57610a8e610a38565b5b80604052505050565b6000610aa26109d3565b9050610aae8282610a67565b919050565b600067ffffffffffffffff821115610ace57610acd610a38565b5b610ad782610a27565b9050602081019050919050565b82818337600083830152505050565b6000610b06610b0184610ab3565b610a98565b905082815260208101848484011115610b2257610b21610a22565b5b610b2d848285610ae4565b509392505050565b600082601f830112610b4a57610b49610a1d565b5b8135610b5a848260208601610af3565b91505092915050565b600080600060608486031215610b7c57610b7b6109dd565b5b6000610b8a86828701610a08565b935050602084013567ffffffffffffffff811115610bab57610baa6109e2565b5b610bb786828701610b35565b925050604084013567ffffffffffffffff811115610bd857610bd76109e2565b5b610be486828701610b35565b9150509250925092565b600060208284031215610c0457610c036109dd565b5b6000610c1284828501610a08565b91505092915050565b600081519050919050565b600082825260208201905092915050565b60005b83811015610c55578082015181840152602081019050610c3a565b60008484015250505050565b6000610c6c82610c1b565b610c768185610c26565b9350610c86818560208601610c37565b610c8f81610a27565b840191505092915050565b60006040820190508181036000830152610cb48185610c61565b90508181036020830152610cc88184610c61565b90509392505050565b600073ffffffffffffffffffffffffffffffffffffffff82169050919050565b6000610cfc82610cd1565b9050919050565b610d0c81610cf1565b8114610d1757600080fd5b50565b600081359050610d2981610d03565b92915050565b60008060408385031215610d4657610d456109dd565b5b6000610d5485828601610d1a565b9250506020610d6585828601610a08565b9150509250929050565b610d78816109e7565b82525050565b6000608082019050610d936000830187610d6f565b8181036020830152610da58186610c61565b90508181036040830152610db98185610c61565b90508181036060830152610dcd8184610c61565b905095945050505050565b600080600080600060a08688031215610df457610df36109dd565b5b6000610e0288828901610a08565b9550506020610e1388828901610a08565b945050604086013567ffffffffffffffff811115610e3457610e336109e2565b5b610e4088828901610b35565b935050606086013567ffffffffffffffff811115610e6157610e606109e2565b5b610e6d88828901610b35565b925050608086013567ffffffffffffffff811115610e8e57610e8d6109e2565b5b610e9a88828901610b35565b9150509295509295909350565b7f4e487b7100000000000000000000000000000000000000000000000000000000600052602260045260246000fd5b60006002820490506001821680610eee57607f821691505b602082108103610f0157610f00610ea7565b5b50919050565b60008190508160005260206000209050919050565b60006020601f8301049050919050565b600082821b905092915050565b600060088302610f697fffffffffffffffffffffffffffffffffffffffffffffffffffffffffffffffff82610f2c565b610f738683610f2c565b95508019841693508086168417925050509392505050565b6000819050919050565b6000610fb0610fab610fa6846109e7565b610f8b565b6109e7565b9050919050565b6000819050919050565b610fca83610f95565b610fde610fd682610fb7565b848454610f39565b825550505050565b600090565b610ff3610fe6565b610ffe818484610fc1565b505050565b5b8181101561102257611017600082610feb565b600181019050611004565b5050565b601f8211156110675761103881610f07565b61104184610f1c565b81016020851015611050578190505b61106461105c85610f1c565b830182611003565b50505b505050565b600082821c905092915050565b600061108a6000198460080261106c565b1980831691505092915050565b60006110a38383611079565b9150826002028217905092915050565b6110bc82610c1b565b67ffffffffffffffff8111156110d5576110d4610a38565b5b6110df8254610ed6565b6110ea828285611026565b600060209050601f83116001811461111d576000841561110b578287015190505b6111158582611097565b86555061117d565b601f19841661112b86610f07565b60005b828110156111535784890151825560018201915060208501945060208101905061112e565b86831015611170578489015161116c601f891682611079565b8355505b6001600288020188555050505b50505050505056fea2646970667358221220c4e5cdce36b7663d396bb766fd8302989b8e66918e018f701a90fe4b3fef82da64736f6c63430008120033",
			"opcodes": "PUSH1 0x80 PUSH1 0x40 MSTORE CALLVALUE DUP1 ISZERO PUSH3 0x11 JUMPI PUSH1 0x0 DUP1 REVERT JUMPDEST POP PUSH1 0x40 MLOAD DUP1 PUSH1 0x40 ADD PUSH1 0x40 MSTORE DUP1 PUSH1 0x4 DUP2 MSTORE PUSH1 0x20 ADD PUSH32 0x4A6F686E00000000000000000000000000000000000000000000000000000000 DUP2 MSTORE POP PUSH1 0x0 DUP1 PUSH1 0x1 DUP2 MSTORE PUSH1 0x20 ADD SWAP1 DUP2 MSTORE PUSH1 0x20 ADD PUSH1 0x0 KECCAK256 SWAP1 DUP2 PUSH3 0x69 SWAP2 SWAP1 PUSH3 0x39A JUMP JUMPDEST POP PUSH1 0x40 MLOAD DUP1 PUSH1 0x40 ADD PUSH1 0x40 MSTORE DUP1 PUSH1 0xC DUP2 MSTORE PUSH1 0x20 ADD PUSH32 0x4A6F68616E205065747465720000000000000000000000000000000000000000 DUP2 MSTORE POP PUSH1 0x0 DUP1 PUSH1 0x2 DUP2 MSTORE PUSH1 0x20 ADD SWAP1 DUP2 MSTORE PUSH1 0x20 ADD PUSH1 0x0 KECCAK256 SWAP1 DUP2 PUSH3 0xC1 SWAP2 SWAP1 PUSH3 0x39A JUMP JUMPDEST POP PUSH1 0x40 MLOAD DUP1 PUSH1 0x40 ADD PUSH1 0x40 MSTORE DUP1 PUSH1 0x5 DUP2 MSTORE PUSH1 0x20 ADD PUSH32 0x4A6F726E79000000000000000000000000000000000000000000000000000000 DUP2 MSTORE POP PUSH1 0x0 DUP1 PUSH1 0x3 DUP2 MSTORE PUSH1 0x20 ADD SWAP1 DUP2 MSTORE PUSH1 0x20 ADD PUSH1 0x0 KECCAK256 SWAP1 DUP2 PUSH3 0x119 SWAP2 SWAP1 PUSH3 0x39A JUMP JUMPDEST POP PUSH3 0x481 JUMP JUMPDEST PUSH1 0x0 DUP2 MLOAD SWAP1 POP SWAP2 SWAP1 POP JUMP JUMPDEST PUSH32 0x4E487B7100000000000000000000000000000000000000000000000000000000 PUSH1 0x0 MSTORE PUSH1 0x41 PUSH1 0x4 MSTORE PUSH1 0x24 PUSH1 0x0 REVERT JUMPDEST PUSH32 0x4E487B7100000000000000000000000000000000000000000000000000000000 PUSH1 0x0 MSTORE PUSH1 0x22 PUSH1 0x4 MSTORE PUSH1 0x24 PUSH1 0x0 REVERT JUMPDEST PUSH1 0x0 PUSH1 0x2 DUP3 DIV SWAP1 POP PUSH1 0x1 DUP3 AND DUP1 PUSH3 0x1A2 JUMPI PUSH1 0x7F DUP3 AND SWAP2 POP JUMPDEST PUSH1 0x20 DUP3 LT DUP2 SUB PUSH3 0x1B8 JUMPI PUSH3 0x1B7 PUSH3 0x15A JUMP JUMPDEST JUMPDEST POP SWAP2 SWAP1 POP JUMP JUMPDEST PUSH1 0x0 DUP2 SWAP1 POP DUP2 PUSH1 0x0 MSTORE PUSH1 0x20 PUSH1 0x0 KECCAK256 SWAP1 POP SWAP2 SWAP1 POP JUMP JUMPDEST PUSH1 0x0 PUSH1 0x20 PUSH1 0x1F DUP4 ADD DIV SWAP1 POP SWAP2 SWAP1 POP JUMP JUMPDEST PUSH1 0x0 DUP3 DUP3 SHL SWAP1 POP SWAP3 SWAP2 POP POP JUMP JUMPDEST PUSH1 0x0 PUSH1 0x8 DUP4 MUL PUSH3 0x222 PUSH32 0xFFFFFFFFFFFFFFFFFFFFFFFFFFFFFFFFFFFFFFFFFFFFFFFFFFFFFFFFFFFFFFFF DUP3 PUSH3 0x1E3 JUMP JUMPDEST PUSH3 0x22E DUP7 DUP4 PUSH3 0x1E3 JUMP JUMPDEST SWAP6 POP DUP1 NOT DUP5 AND SWAP4 POP DUP1 DUP7 AND DUP5 OR SWAP3 POP POP POP SWAP4 SWAP3 POP POP POP JUMP JUMPDEST PUSH1 0x0 DUP2 SWAP1 POP SWAP2 SWAP1 POP JUMP JUMPDEST PUSH1 0x0 DUP2 SWAP1 POP SWAP2 SWAP1 POP JUMP JUMPDEST PUSH1 0x0 PUSH3 0x27B PUSH3 0x275 PUSH3 0x26F DUP5 PUSH3 0x246 JUMP JUMPDEST PUSH3 0x250 JUMP JUMPDEST PUSH3 0x246 JUMP JUMPDEST SWAP1 POP SWAP2 SWAP1 POP JUMP JUMPDEST PUSH1 0x0 DUP2 SWAP1 POP SWAP2 SWAP1 POP JUMP JUMPDEST PUSH3 0x297 DUP4 PUSH3 0x25A JUMP JUMPDEST PUSH3 0x2AF PUSH3 0x2A6 DUP3 PUSH3 0x282 JUMP JUMPDEST DUP5 DUP5 SLOAD PUSH3 0x1F0 JUMP JUMPDEST DUP3 SSTORE POP POP POP POP JUMP JUMPDEST PUSH1 0x0 SWAP1 JUMP JUMPDEST PUSH3 0x2C6 PUSH3 0x2B7 JUMP JUMPDEST PUSH3 0x2D3 DUP2 DUP5 DUP5 PUSH3 0x28C JUMP JUMPDEST POP POP POP JUMP JUMPDEST JUMPDEST DUP2 DUP2 LT ISZERO PUSH3 0x2FB JUMPI PUSH3 0x2EF PUSH1 0x0 DUP3 PUSH3 0x2BC JUMP JUMPDEST PUSH1 0x1 DUP2 ADD SWAP1 POP PUSH3 0x2D9 JUMP JUMPDEST POP POP JUMP JUMPDEST PUSH1 0x1F DUP3 GT ISZERO PUSH3 0x34A JUMPI PUSH3 0x314 DUP2 PUSH3 0x1BE JUMP JUMPDEST PUSH3 0x31F DUP5 PUSH3 0x1D3 JUMP JUMPDEST DUP2 ADD PUSH1 0x20 DUP6 LT ISZERO PUSH3 0x32F JUMPI DUP2 SWAP1 POP JUMPDEST PUSH3 0x347 PUSH3 0x33E DUP6 PUSH3 0x1D3 JUMP JUMPDEST DUP4 ADD DUP3 PUSH3 0x2D8 JUMP JUMPDEST POP POP JUMPDEST POP POP POP JUMP JUMPDEST PUSH1 0x0 DUP3 DUP3 SHR SWAP1 POP SWAP3 SWAP2 POP POP JUMP JUMPDEST PUSH1 0x0 PUSH3 0x36F PUSH1 0x0 NOT DUP5 PUSH1 0x8 MUL PUSH3 0x34F JUMP JUMPDEST NOT DUP1 DUP4 AND SWAP2 POP POP SWAP3 SWAP2 POP POP JUMP JUMPDEST PUSH1 0x0 PUSH3 0x38A DUP4 DUP4 PUSH3 0x35C JUMP JUMPDEST SWAP2 POP DUP3 PUSH1 0x2 MUL DUP3 OR SWAP1 POP SWAP3 SWAP2 POP POP JUMP JUMPDEST PUSH3 0x3A5 DUP3 PUSH3 0x120 JUMP JUMPDEST PUSH8 0xFFFFFFFFFFFFFFFF DUP2 GT ISZERO PUSH3 0x3C1 JUMPI PUSH3 0x3C0 PUSH3 0x12B JUMP JUMPDEST JUMPDEST PUSH3 0x3CD DUP3 SLOAD PUSH3 0x189 JUMP JUMPDEST PUSH3 0x3DA DUP3 DUP3 DUP6 PUSH3 0x2FF JUMP JUMPDEST PUSH1 0x0 PUSH1 0x20 SWAP1 POP PUSH1 0x1F DUP4 GT PUSH1 0x1 DUP2 EQ PUSH3 0x412 JUMPI PUSH1 0x0 DUP5 ISZERO PUSH3 0x3FD JUMPI DUP3 DUP8 ADD MLOAD SWAP1 POP JUMPDEST PUSH3 0x409 DUP6 DUP3 PUSH3 0x37C JUMP JUMPDEST DUP7 SSTORE POP PUSH3 0x479 JUMP JUMPDEST PUSH1 0x1F NOT DUP5 AND PUSH3 0x422 DUP7 PUSH3 0x1BE JUMP JUMPDEST PUSH1 0x0 JUMPDEST DUP3 DUP2 LT ISZERO PUSH3 0x44C JUMPI DUP5 DUP10 ADD MLOAD DUP3 SSTORE PUSH1 0x1 DUP3 ADD SWAP2 POP PUSH1 0x20 DUP6 ADD SWAP5 POP PUSH1 0x20 DUP2 ADD SWAP1 POP PUSH3 0x425 JUMP JUMPDEST DUP7 DUP4 LT ISZERO PUSH3 0x46C JUMPI DUP5 DUP10 ADD MLOAD PUSH3 0x468 PUSH1 0x1F DUP10 AND DUP3 PUSH3 0x35C JUMP JUMPDEST DUP4 SSTORE POP JUMPDEST PUSH1 0x1 PUSH1 0x2 DUP9 MUL ADD DUP9 SSTORE POP POP POP JUMPDEST POP POP POP POP POP POP JUMP JUMPDEST PUSH2 0x11BB DUP1 PUSH3 0x491 PUSH1 0x0 CODECOPY PUSH1 0x0 RETURN INVALID PUSH1 0x80 PUSH1 0x40 MSTORE CALLVALUE DUP1 ISZERO PUSH2 0x10 JUMPI PUSH1 0x0 DUP1 REVERT JUMPDEST POP PUSH1 0x4 CALLDATASIZE LT PUSH2 0x88 JUMPI PUSH1 0x0 CALLDATALOAD PUSH1 0xE0 SHR DUP1 PUSH4 0x9AA36590 GT PUSH2 0x5B JUMPI DUP1 PUSH4 0x9AA36590 EQ PUSH2 0x129 JUMPI DUP1 PUSH4 0xAC2447F1 EQ PUSH2 0x145 JUMPI DUP1 PUSH4 0xC4172162 EQ PUSH2 0x178 JUMPI DUP1 PUSH4 0xDB6E35B2 EQ PUSH2 0x1A9 JUMPI PUSH2 0x88 JUMP JUMPDEST DUP1 PUSH4 0x28414F2 EQ PUSH2 0x8D JUMPI DUP1 PUSH4 0x2036D295 EQ PUSH2 0xA9 JUMPI DUP1 PUSH4 0x68744046 EQ PUSH2 0xC5 JUMPI DUP1 PUSH4 0x7C73709A EQ PUSH2 0xF6 JUMPI JUMPDEST PUSH1 0x0 DUP1 REVERT JUMPDEST PUSH2 0xA7 PUSH1 0x4 DUP1 CALLDATASIZE SUB DUP2 ADD SWAP1 PUSH2 0xA2 SWAP2 SWAP1 PUSH2 0xB63 JUMP JUMPDEST PUSH2 0x1C5 JUMP JUMPDEST STOP JUMPDEST PUSH2 0xC3 PUSH1 0x4 DUP1 CALLDATASIZE SUB DUP2 ADD SWAP1 PUSH2 0xBE SWAP2 SWAP1 PUSH2 0xB63 JUMP JUMPDEST PUSH2 0x221 JUMP JUMPDEST STOP JUMPDEST PUSH2 0xDF PUSH1 0x4 DUP1 CALLDATASIZE SUB DUP2 ADD SWAP1 PUSH2 0xDA SWAP2 SWAP1 PUSH2 0xBEE JUMP JUMPDEST PUSH2 0x27D JUMP JUMPDEST PUSH1 0x40 MLOAD PUSH2 0xED SWAP3 SWAP2 SWAP1 PUSH2 0xC9A JUMP JUMPDEST PUSH1 0x40 MLOAD DUP1 SWAP2 SUB SWAP1 RETURN JUMPDEST PUSH2 0x110 PUSH1 0x4 DUP1 CALLDATASIZE SUB DUP2 ADD SWAP1 PUSH2 0x10B SWAP2 SWAP1 PUSH2 0xD2F JUMP JUMPDEST PUSH2 0x3B1 JUMP JUMPDEST PUSH1 0x40 MLOAD PUSH2 0x120 SWAP5 SWAP4 SWAP3 SWAP2 SWAP1 PUSH2 0xD7E JUMP JUMPDEST PUSH1 0x40 MLOAD DUP1 SWAP2 SUB SWAP1 RETURN JUMPDEST PUSH2 0x143 PUSH1 0x4 DUP1 CALLDATASIZE SUB DUP2 ADD SWAP1 PUSH2 0x13E SWAP2 SWAP1 PUSH2 0xDD8 JUMP JUMPDEST PUSH2 0x586 JUMP JUMPDEST STOP JUMPDEST PUSH2 0x15F PUSH1 0x4 DUP1 CALLDATASIZE SUB DUP2 ADD SWAP1 PUSH2 0x15A SWAP2 SWAP1 PUSH2 0xBEE JUMP JUMPDEST PUSH2 0x610 JUMP JUMPDEST PUSH1 0x40 MLOAD PUSH2 0x16F SWAP5 SWAP4 SWAP3 SWAP2 SWAP1 PUSH2 0xD7E JUMP JUMPDEST PUSH1 0x40 MLOAD DUP1 SWAP2 SUB SWAP1 RETURN JUMPDEST PUSH2 0x192 PUSH1 0x4 DUP1 CALLDATASIZE SUB DUP2 ADD SWAP1 PUSH2 0x18D SWAP2 SWAP1 PUSH2 0xBEE JUMP JUMPDEST PUSH2 0x7D8 JUMP JUMPDEST PUSH1 0x40 MLOAD PUSH2 0x1A0 SWAP3 SWAP2 SWAP1 PUSH2 0xC9A JUMP JUMPDEST PUSH1 0x40 MLOAD DUP1 SWAP2 SUB SWAP1 RETURN JUMPDEST PUSH2 0x1C3 PUSH1 0x4 DUP1 CALLDATASIZE SUB DUP2 ADD SWAP1 PUSH2 0x1BE SWAP2 SWAP1 PUSH2 0xDD8 JUMP JUMPDEST PUSH2 0x90C JUMP JUMPDEST STOP JUMPDEST PUSH1 0x40 MLOAD DUP1 PUSH1 0x40 ADD PUSH1 0x40 MSTORE DUP1 DUP4 DUP2 MSTORE PUSH1 0x20 ADD DUP3 DUP2 MSTORE POP PUSH1 0x1 PUSH1 0x0 DUP6 DUP2 MSTORE PUSH1 0x20 ADD SWAP1 DUP2 MSTORE PUSH1 0x20 ADD PUSH1 0x0 KECCAK256 PUSH1 0x0 DUP3 ADD MLOAD DUP2 PUSH1 0x0 ADD SWAP1 DUP2 PUSH2 0x202 SWAP2 SWAP1 PUSH2 0x10B3 JUMP JUMPDEST POP PUSH1 0x20 DUP3 ADD MLOAD DUP2 PUSH1 0x1 ADD SWAP1 DUP2 PUSH2 0x218 SWAP2 SWAP1 PUSH2 0x10B3 JUMP JUMPDEST POP SWAP1 POP POP POP POP POP JUMP JUMPDEST PUSH1 0x40 MLOAD DUP1 PUSH1 0x40 ADD PUSH1 0x40 MSTORE DUP1 DUP4 DUP2 MSTORE PUSH1 0x20 ADD DUP3 DUP2 MSTORE POP PUSH1 0x2 PUSH1 0x0 DUP6 DUP2 MSTORE PUSH1 0x20 ADD SWAP1 DUP2 MSTORE PUSH1 0x20 ADD PUSH1 0x0 KECCAK256 PUSH1 0x0 DUP3 ADD MLOAD DUP2 PUSH1 0x0 ADD SWAP1 DUP2 PUSH2 0x25E SWAP2 SWAP1 PUSH2 0x10B3 JUMP JUMPDEST POP PUSH1 0x20 DUP3 ADD MLOAD DUP2 PUSH1 0x1 ADD SWAP1 DUP2 PUSH2 0x274 SWAP2 SWAP1 PUSH2 0x10B3 JUMP JUMPDEST POP SWAP1 POP POP POP POP POP JUMP JUMPDEST PUSH1 0x1 PUSH1 0x20 MSTORE DUP1 PUSH1 0x0 MSTORE PUSH1 0x40 PUSH1 0x0 KECCAK256 PUSH1 0x0 SWAP2 POP SWAP1 POP DUP1 PUSH1 0x0 ADD DUP1 SLOAD PUSH2 0x2A0 SWAP1 PUSH2 0xED6 JUMP JUMPDEST DUP1 PUSH1 0x1F ADD PUSH1 0x20 DUP1 SWAP2 DIV MUL PUSH1 0x20 ADD PUSH1 0x40 MLOAD SWAP1 DUP2 ADD PUSH1 0x40 MSTORE DUP1 SWAP3 SWAP2 SWAP1 DUP2 DUP2 MSTORE PUSH1 0x20 ADD DUP3 DUP1 SLOAD PUSH2 0x2CC SWAP1 PUSH2 0xED6 JUMP JUMPDEST DUP1 ISZERO PUSH2 0x319 JUMPI DUP1 PUSH1 0x1F LT PUSH2 0x2EE JUMPI PUSH2 0x100 DUP1 DUP4 SLOAD DIV MUL DUP4 MSTORE SWAP2 PUSH1 0x20 ADD SWAP2 PUSH2 0x319 JUMP JUMPDEST DUP3 ADD SWAP2 SWAP1 PUSH1 0x0 MSTORE PUSH1 0x20 PUSH1 0x0 KECCAK256 SWAP1 JUMPDEST DUP2 SLOAD DUP2 MSTORE SWAP1 PUSH1 0x1 ADD SWAP1 PUSH1 0x20 ADD DUP1 DUP4 GT PUSH2 0x2FC JUMPI DUP3 SWAP1 SUB PUSH1 0x1F AND DUP3 ADD SWAP2 JUMPDEST POP POP POP POP POP SWAP1 DUP1 PUSH1 0x1 ADD DUP1 SLOAD PUSH2 0x32E SWAP1 PUSH2 0xED6 JUMP JUMPDEST DUP1 PUSH1 0x1F ADD PUSH1 0x20 DUP1 SWAP2 DIV MUL PUSH1 0x20 ADD PUSH1 0x40 MLOAD SWAP1 DUP2 ADD PUSH1 0x40 MSTORE DUP1 SWAP3 SWAP2 SWAP1 DUP2 DUP2 MSTORE PUSH1 0x20 ADD DUP3 DUP1 SLOAD PUSH2 0x35A SWAP1 PUSH2 0xED6 JUMP JUMPDEST DUP1 ISZERO PUSH2 0x3A7 JUMPI DUP1 PUSH1 0x1F LT PUSH2 0x37C JUMPI PUSH2 0x100 DUP1 DUP4 SLOAD DIV MUL DUP4 MSTORE SWAP2 PUSH1 0x20 ADD SWAP2 PUSH2 0x3A7 JUMP JUMPDEST DUP3 ADD SWAP2 SWAP1 PUSH1 0x0 MSTORE PUSH1 0x20 PUSH1 0x0 KECCAK256 SWAP1 JUMPDEST DUP2 SLOAD DUP2 MSTORE SWAP1 PUSH1 0x1 ADD SWAP1 PUSH1 0x20 ADD DUP1 DUP4 GT PUSH2 0x38A JUMPI DUP3 SWAP1 SUB PUSH1 0x1F AND DUP3 ADD SWAP2 JUMPDEST POP POP POP POP POP SWAP1 POP DUP3 JUMP JUMPDEST PUSH1 0x4 PUSH1 0x20 MSTORE DUP2 PUSH1 0x0 MSTORE PUSH1 0x40 PUSH1 0x0 KECCAK256 PUSH1 0x20 MSTORE DUP1 PUSH1 0x0 MSTORE PUSH1 0x40 PUSH1 0x0 KECCAK256 PUSH1 0x0 SWAP2 POP SWAP2 POP POP DUP1 PUSH1 0x0 ADD SLOAD SWAP1 DUP1 PUSH1 0x1 ADD DUP1 SLOAD PUSH2 0x3E7 SWAP1 PUSH2 0xED6 JUMP JUMPDEST DUP1 PUSH1 0x1F ADD PUSH1 0x20 DUP1 SWAP2 DIV MUL PUSH1 0x20 ADD PUSH1 0x40 MLOAD SWAP1 DUP2 ADD PUSH1 0x40 MSTORE DUP1 SWAP3 SWAP2 SWAP1 DUP2 DUP2 MSTORE PUSH1 0x20 ADD DUP3 DUP1 SLOAD PUSH2 0x413 SWAP1 PUSH2 0xED6 JUMP JUMPDEST DUP1 ISZERO PUSH2 0x460 JUMPI DUP1 PUSH1 0x1F LT PUSH2 0x435 JUMPI PUSH2 0x100 DUP1 DUP4 SLOAD DIV MUL DUP4 MSTORE SWAP2 PUSH1 0x20 ADD SWAP2 PUSH2 0x460 JUMP JUMPDEST DUP3 ADD SWAP2 SWAP1 PUSH1 0x0 MSTORE PUSH1 0x20 PUSH1 0x0 KECCAK256 SWAP1 JUMPDEST DUP2 SLOAD DUP2 MSTORE SWAP1 PUSH1 0x1 ADD SWAP1 PUSH1 0x20 ADD DUP1 DUP4 GT PUSH2 0x443 JUMPI DUP3 SWAP1 SUB PUSH1 0x1F AND DUP3 ADD SWAP2 JUMPDEST POP POP POP POP POP SWAP1 DUP1 PUSH1 0x2 ADD DUP1 SLOAD PUSH2 0x475 SWAP1 PUSH2 0xED6 JUMP JUMPDEST DUP1 PUSH1 0x1F ADD PUSH1 0x20 DUP1 SWAP2 DIV MUL PUSH1 0x20 ADD PUSH1 0x40 MLOAD SWAP1 DUP2 ADD PUSH1 0x40 MSTORE DUP1 SWAP3 SWAP2 SWAP1 DUP2 DUP2 MSTORE PUSH1 0x20 ADD DUP3 DUP1 SLOAD PUSH2 0x4A1 SWAP1 PUSH2 0xED6 JUMP JUMPDEST DUP1 ISZERO PUSH2 0x4EE JUMPI DUP1 PUSH1 0x1F LT PUSH2 0x4C3 JUMPI PUSH2 0x100 DUP1 DUP4 SLOAD DIV MUL DUP4 MSTORE SWAP2 PUSH1 0x20 ADD SWAP2 PUSH2 0x4EE JUMP JUMPDEST DUP3 ADD SWAP2 SWAP1 PUSH1 0x0 MSTORE PUSH1 0x20 PUSH1 0x0 KECCAK256 SWAP1 JUMPDEST DUP2 SLOAD DUP2 MSTORE SWAP1 PUSH1 0x1 ADD SWAP1 PUSH1 0x20 ADD DUP1 DUP4 GT PUSH2 0x4D1 JUMPI DUP3 SWAP1 SUB PUSH1 0x1F AND DUP3 ADD SWAP2 JUMPDEST POP POP POP POP POP SWAP1 DUP1 PUSH1 0x3 ADD DUP1 SLOAD PUSH2 0x503 SWAP1 PUSH2 0xED6 JUMP JUMPDEST DUP1 PUSH1 0x1F ADD PUSH1 0x20 DUP1 SWAP2 DIV MUL PUSH1 0x20 ADD PUSH1 0x40 MLOAD SWAP1 DUP2 ADD PUSH1 0x40 MSTORE DUP1 SWAP3 SWAP2 SWAP1 DUP2 DUP2 MSTORE PUSH1 0x20 ADD DUP3 DUP1 SLOAD PUSH2 0x52F SWAP1 PUSH2 0xED6 JUMP JUMPDEST DUP1 ISZERO PUSH2 0x57C JUMPI DUP1 PUSH1 0x1F LT PUSH2 0x551 JUMPI PUSH2 0x100 DUP1 DUP4 SLOAD DIV MUL DUP4 MSTORE SWAP2 PUSH1 0x20 ADD SWAP2 PUSH2 0x57C JUMP JUMPDEST DUP3 ADD SWAP2 SWAP1 PUSH1 0x0 MSTORE PUSH1 0x20 PUSH1 0x0 KECCAK256 SWAP1 JUMPDEST DUP2 SLOAD DUP2 MSTORE SWAP1 PUSH1 0x1 ADD SWAP1 PUSH1 0x20 ADD DUP1 DUP4 GT PUSH2 0x55F JUMPI DUP3 SWAP1 SUB PUSH1 0x1F AND DUP3 ADD SWAP2 JUMPDEST POP POP POP POP POP SWAP1 POP DUP5 JUMP JUMPDEST PUSH1 0x40 MLOAD DUP1 PUSH1 0x80 ADD PUSH1 0x40 MSTORE DUP1 DUP6 DUP2 MSTORE PUSH1 0x20 ADD DUP5 DUP2 MSTORE PUSH1 0x20 ADD DUP4 DUP2 MSTORE PUSH1 0x20 ADD DUP3 DUP2 MSTORE POP PUSH1 0x3 PUSH1 0x0 DUP8 DUP2 MSTORE PUSH1 0x20 ADD SWAP1 DUP2 MSTORE PUSH1 0x20 ADD PUSH1 0x0 KECCAK256 PUSH1 0x0 DUP3 ADD MLOAD DUP2 PUSH1 0x0 ADD SSTORE PUSH1 0x20 DUP3 ADD MLOAD DUP2 PUSH1 0x1 ADD SWAP1 DUP2 PUSH2 0x5D9 SWAP2 SWAP1 PUSH2 0x10B3 JUMP JUMPDEST POP PUSH1 0x40 DUP3 ADD MLOAD DUP2 PUSH1 0x2 ADD SWAP1 DUP2 PUSH2 0x5EF SWAP2 SWAP1 PUSH2 0x10B3 JUMP JUMPDEST POP PUSH1 0x60 DUP3 ADD MLOAD DUP2 PUSH1 0x3 ADD SWAP1 DUP2 PUSH2 0x605 SWAP2 SWAP1 PUSH2 0x10B3 JUMP JUMPDEST POP SWAP1 POP POP POP POP POP POP POP JUMP JUMPDEST PUSH1 0x3 PUSH1 0x20 MSTORE DUP1 PUSH1 0x0 MSTORE PUSH1 0x40 PUSH1 0x0 KECCAK256 PUSH1 0x0 SWAP2 POP SWAP1 POP DUP1 PUSH1 0x0 ADD SLOAD SWAP1 DUP1 PUSH1 0x1 ADD DUP1 SLOAD PUSH2 0x639 SWAP1 PUSH2 0xED6 JUMP JUMPDEST DUP1 PUSH1 0x1F ADD PUSH1 0x20 DUP1 SWAP2 DIV MUL PUSH1 0x20 ADD PUSH1 0x40 MLOAD SWAP1 DUP2 ADD PUSH1 0x40 MSTORE DUP1 SWAP3 SWAP2 SWAP1 DUP2 DUP2 MSTORE PUSH1 0x20 ADD DUP3 DUP1 SLOAD PUSH2 0x665 SWAP1 PUSH2 0xED6 JUMP JUMPDEST DUP1 ISZERO PUSH2 0x6B2 JUMPI DUP1 PUSH1 0x1F LT PUSH2 0x687 JUMPI PUSH2 0x100 DUP1 DUP4 SLOAD DIV MUL DUP4 MSTORE SWAP2 PUSH1 0x20 ADD SWAP2 PUSH2 0x6B2 JUMP JUMPDEST DUP3 ADD SWAP2 SWAP1 PUSH1 0x0 MSTORE PUSH1 0x20 PUSH1 0x0 KECCAK256 SWAP1 JUMPDEST DUP2 SLOAD DUP2 MSTORE SWAP1 PUSH1 0x1 ADD SWAP1 PUSH1 0x20 ADD DUP1 DUP4 GT PUSH2 0x695 JUMPI DUP3 SWAP1 SUB PUSH1 0x1F AND DUP3 ADD SWAP2 JUMPDEST POP POP POP POP POP SWAP1 DUP1 PUSH1 0x2 ADD DUP1 SLOAD PUSH2 0x6C7 SWAP1 PUSH2 0xED6 JUMP JUMPDEST DUP1 PUSH1 0x1F ADD PUSH1 0x20 DUP1 SWAP2 DIV MUL PUSH1 0x20 ADD PUSH1 0x40 MLOAD SWAP1 DUP2 ADD PUSH1 0x40 MSTORE DUP1 SWAP3 SWAP2 SWAP1 DUP2 DUP2 MSTORE PUSH1 0x20 ADD DUP3 DUP1 SLOAD PUSH2 0x6F3 SWAP1 PUSH2 0xED6 JUMP JUMPDEST DUP1 ISZERO PUSH2 0x740 JUMPI DUP1 PUSH1 0x1F LT PUSH2 0x715 JUMPI PUSH2 0x100 DUP1 DUP4 SLOAD DIV MUL DUP4 MSTORE SWAP2 PUSH1 0x20 ADD SWAP2 PUSH2 0x740 JUMP JUMPDEST DUP3 ADD SWAP2 SWAP1 PUSH1 0x0 MSTORE PUSH1 0x20 PUSH1 0x0 KECCAK256 SWAP1 JUMPDEST DUP2 SLOAD DUP2 MSTORE SWAP1 PUSH1 0x1 ADD SWAP1 PUSH1 0x20 ADD DUP1 DUP4 GT PUSH2 0x723 JUMPI DUP3 SWAP1 SUB PUSH1 0x1F AND DUP3 ADD SWAP2 JUMPDEST POP POP POP POP POP SWAP1 DUP1 PUSH1 0x3 ADD DUP1 SLOAD PUSH2 0x755 SWAP1 PUSH2 0xED6 JUMP JUMPDEST DUP1 PUSH1 0x1F ADD PUSH1 0x20 DUP1 SWAP2 DIV MUL PUSH1 0x20 ADD PUSH1 0x40 MLOAD SWAP1 DUP2 ADD PUSH1 0x40 MSTORE DUP1 SWAP3 SWAP2 SWAP1 DUP2 DUP2 MSTORE PUSH1 0x20 ADD DUP3 DUP1 SLOAD PUSH2 0x781 SWAP1 PUSH2 0xED6 JUMP JUMPDEST DUP1 ISZERO PUSH2 0x7CE JUMPI DUP1 PUSH1 0x1F LT PUSH2 0x7A3 JUMPI PUSH2 0x100 DUP1 DUP4 SLOAD DIV MUL DUP4 MSTORE SWAP2 PUSH1 0x20 ADD SWAP2 PUSH2 0x7CE JUMP JUMPDEST DUP3 ADD SWAP2 SWAP1 PUSH1 0x0 MSTORE PUSH1 0x20 PUSH1 0x0 KECCAK256 SWAP1 JUMPDEST DUP2 SLOAD DUP2 MSTORE SWAP1 PUSH1 0x1 ADD SWAP1 PUSH1 0x20 ADD DUP1 DUP4 GT PUSH2 0x7B1 JUMPI DUP3 SWAP1 SUB PUSH1 0x1F AND DUP3 ADD SWAP2 JUMPDEST POP POP POP POP POP SWAP1 POP DUP5 JUMP JUMPDEST PUSH1 0x2 PUSH1 0x20 MSTORE DUP1 PUSH1 0x0 MSTORE PUSH1 0x40 PUSH1 0x0 KECCAK256 PUSH1 0x0 SWAP2 POP SWAP1 POP DUP1 PUSH1 0x0 ADD DUP1 SLOAD PUSH2 0x7FB SWAP1 PUSH2 0xED6 JUMP JUMPDEST DUP1 PUSH1 0x1F ADD PUSH1 0x20 DUP1 SWAP2 DIV MUL PUSH1 0x20 ADD PUSH1 0x40 MLOAD SWAP1 DUP2 ADD PUSH1 0x40 MSTORE DUP1 SWAP3 SWAP2 SWAP1 DUP2 DUP2 MSTORE PUSH1 0x20 ADD DUP3 DUP1 SLOAD PUSH2 0x827 SWAP1 PUSH2 0xED6 JUMP JUMPDEST DUP1 ISZERO PUSH2 0x874 JUMPI DUP1 PUSH1 0x1F LT PUSH2 0x849 JUMPI PUSH2 0x100 DUP1 DUP4 SLOAD DIV MUL DUP4 MSTORE SWAP2 PUSH1 0x20 ADD SWAP2 PUSH2 0x874 JUMP JUMPDEST DUP3 ADD SWAP2 SWAP1 PUSH1 0x0 MSTORE PUSH1 0x20 PUSH1 0x0 KECCAK256 SWAP1 JUMPDEST DUP2 SLOAD DUP2 MSTORE SWAP1 PUSH1 0x1 ADD SWAP1 PUSH1 0x20 ADD DUP1 DUP4 GT PUSH2 0x857 JUMPI DUP3 SWAP1 SUB PUSH1 0x1F AND DUP3 ADD SWAP2 JUMPDEST POP POP POP POP POP SWAP1 DUP1 PUSH1 0x1 ADD DUP1 SLOAD PUSH2 0x889 SWAP1 PUSH2 0xED6 JUMP JUMPDEST DUP1 PUSH1 0x1F ADD PUSH1 0x20 DUP1 SWAP2 DIV MUL PUSH1 0x20 ADD PUSH1 0x40 MLOAD SWAP1 DUP2 ADD PUSH1 0x40 MSTORE DUP1 SWAP3 SWAP2 SWAP1 DUP2 DUP2 MSTORE PUSH1 0x20 ADD DUP3 DUP1 SLOAD PUSH2 0x8B5 SWAP1 PUSH2 0xED6 JUMP JUMPDEST DUP1 ISZERO PUSH2 0x902 JUMPI DUP1 PUSH1 0x1F LT PUSH2 0x8D7 JUMPI PUSH2 0x100 DUP1 DUP4 SLOAD DIV MUL DUP4 MSTORE SWAP2 PUSH1 0x20 ADD SWAP2 PUSH2 0x902 JUMP JUMPDEST DUP3 ADD SWAP2 SWAP1 PUSH1 0x0 MSTORE PUSH1 0x20 PUSH1 0x0 KECCAK256 SWAP1 JUMPDEST DUP2 SLOAD DUP2 MSTORE SWAP1 PUSH1 0x1 ADD SWAP1 PUSH1 0x20 ADD DUP1 DUP4 GT PUSH2 0x8E5 JUMPI DUP3 SWAP1 SUB PUSH1 0x1F AND DUP3 ADD SWAP2 JUMPDEST POP POP POP POP POP SWAP1 POP DUP3 JUMP JUMPDEST PUSH1 0x40 MLOAD DUP1 PUSH1 0x80 ADD PUSH1 0x40 MSTORE DUP1 DUP6 DUP2 MSTORE PUSH1 0x20 ADD DUP5 DUP2 MSTORE PUSH1 0x20 ADD DUP4 DUP2 MSTORE PUSH1 0x20 ADD DUP3 DUP2 MSTORE POP PUSH1 0x4 PUSH1 0x0 CALLER PUSH20 0xFFFFFFFFFFFFFFFFFFFFFFFFFFFFFFFFFFFFFFFF AND PUSH20 0xFFFFFFFFFFFFFFFFFFFFFFFFFFFFFFFFFFFFFFFF AND DUP2 MSTORE PUSH1 0x20 ADD SWAP1 DUP2 MSTORE PUSH1 0x20 ADD PUSH1 0x0 KECCAK256 PUSH1 0x0 DUP8 DUP2 MSTORE PUSH1 0x20 ADD SWAP1 DUP2 MSTORE PUSH1 0x20 ADD PUSH1 0x0 KECCAK256 PUSH1 0x0 DUP3 ADD MLOAD DUP2 PUSH1 0x0 ADD SSTORE PUSH1 0x20 DUP3 ADD MLOAD DUP2 PUSH1 0x1 ADD SWAP1 DUP2 PUSH2 0x99C SWAP2 SWAP1 PUSH2 0x10B3 JUMP JUMPDEST POP PUSH1 0x40 DUP3 ADD MLOAD DUP2 PUSH1 0x2 ADD SWAP1 DUP2 PUSH2 0x9B2 SWAP2 SWAP1 PUSH2 0x10B3 JUMP JUMPDEST POP PUSH1 0x60 DUP3 ADD MLOAD DUP2 PUSH1 0x3 ADD SWAP1 DUP2 PUSH2 0x9C8 SWAP2 SWAP1 PUSH2 0x10B3 JUMP JUMPDEST POP SWAP1 POP POP POP POP POP POP POP JUMP JUMPDEST PUSH1 0x0 PUSH1 0x40 MLOAD SWAP1 POP SWAP1 JUMP JUMPDEST PUSH1 0x0 DUP1 REVERT JUMPDEST PUSH1 0x0 DUP1 REVERT JUMPDEST PUSH1 0x0 DUP2 SWAP1 POP SWAP2 SWAP1 POP JUMP JUMPDEST PUSH2 0x9FA DUP2 PUSH2 0x9E7 JUMP JUMPDEST DUP2 EQ PUSH2 0xA05 JUMPI PUSH1 0x0 DUP1 REVERT JUMPDEST POP JUMP JUMPDEST PUSH1 0x0 DUP2 CALLDATALOAD SWAP1 POP PUSH2 0xA17 DUP2 PUSH2 0x9F1 JUMP JUMPDEST SWAP3 SWAP2 POP POP JUMP JUMPDEST PUSH1 0x0 DUP1 REVERT JUMPDEST PUSH1 0x0 DUP1 REVERT JUMPDEST PUSH1 0x0 PUSH1 0x1F NOT PUSH1 0x1F DUP4 ADD AND SWAP1 POP SWAP2 SWAP1 POP JUMP JUMPDEST PUSH32 0x4E487B7100000000000000000000000000000000000000000000000000000000 PUSH1 0x0 MSTORE PUSH1 0x41 PUSH1 0x4 MSTORE PUSH1 0x24 PUSH1 0x0 REVERT JUMPDEST PUSH2 0xA70 DUP3 PUSH2 0xA27 JUMP JUMPDEST DUP2 ADD DUP2 DUP2 LT PUSH8 0xFFFFFFFFFFFFFFFF DUP3 GT OR ISZERO PUSH2 0xA8F JUMPI PUSH2 0xA8E PUSH2 0xA38 JUMP JUMPDEST JUMPDEST DUP1 PUSH1 0x40 MSTORE POP POP POP JUMP JUMPDEST PUSH1 0x0 PUSH2 0xAA2 PUSH2 0x9D3 JUMP JUMPDEST SWAP1 POP PUSH2 0xAAE DUP3 DUP3 PUSH2 0xA67 JUMP JUMPDEST SWAP2 SWAP1 POP JUMP JUMPDEST PUSH1 0x0 PUSH8 0xFFFFFFFFFFFFFFFF DUP3 GT ISZERO PUSH2 0xACE JUMPI PUSH2 0xACD PUSH2 0xA38 JUMP JUMPDEST JUMPDEST PUSH2 0xAD7 DUP3 PUSH2 0xA27 JUMP JUMPDEST SWAP1 POP PUSH1 0x20 DUP2 ADD SWAP1 POP SWAP2 SWAP1 POP JUMP JUMPDEST DUP3 DUP2 DUP4 CALLDATACOPY PUSH1 0x0 DUP4 DUP4 ADD MSTORE POP POP POP JUMP JUMPDEST PUSH1 0x0 PUSH2 0xB06 PUSH2 0xB01 DUP5 PUSH2 0xAB3 JUMP JUMPDEST PUSH2 0xA98 JUMP JUMPDEST SWAP1 POP DUP3 DUP2 MSTORE PUSH1 0x20 DUP2 ADD DUP5 DUP5 DUP5 ADD GT ISZERO PUSH2 0xB22 JUMPI PUSH2 0xB21 PUSH2 0xA22 JUMP JUMPDEST JUMPDEST PUSH2 0xB2D DUP5 DUP3 DUP6 PUSH2 0xAE4 JUMP JUMPDEST POP SWAP4 SWAP3 POP POP POP JUMP JUMPDEST PUSH1 0x0 DUP3 PUSH1 0x1F DUP4 ADD SLT PUSH2 0xB4A JUMPI PUSH2 0xB49 PUSH2 0xA1D JUMP JUMPDEST JUMPDEST DUP2 CALLDATALOAD PUSH2 0xB5A DUP5 DUP3 PUSH1 0x20 DUP7 ADD PUSH2 0xAF3 JUMP JUMPDEST SWAP2 POP POP SWAP3 SWAP2 POP POP JUMP JUMPDEST PUSH1 0x0 DUP1 PUSH1 0x0 PUSH1 0x60 DUP5 DUP7 SUB SLT ISZERO PUSH2 0xB7C JUMPI PUSH2 0xB7B PUSH2 0x9DD JUMP JUMPDEST JUMPDEST PUSH1 0x0 PUSH2 0xB8A DUP7 DUP3 DUP8 ADD PUSH2 0xA08 JUMP JUMPDEST SWAP4 POP POP PUSH1 0x20 DUP5 ADD CALLDATALOAD PUSH8 0xFFFFFFFFFFFFFFFF DUP2 GT ISZERO PUSH2 0xBAB JUMPI PUSH2 0xBAA PUSH2 0x9E2 JUMP JUMPDEST JUMPDEST PUSH2 0xBB7 DUP7 DUP3 DUP8 ADD PUSH2 0xB35 JUMP JUMPDEST SWAP3 POP POP PUSH1 0x40 DUP5 ADD CALLDATALOAD PUSH8 0xFFFFFFFFFFFFFFFF DUP2 GT ISZERO PUSH2 0xBD8 JUMPI PUSH2 0xBD7 PUSH2 0x9E2 JUMP JUMPDEST JUMPDEST PUSH2 0xBE4 DUP7 DUP3 DUP8 ADD PUSH2 0xB35 JUMP JUMPDEST SWAP2 POP POP SWAP3 POP SWAP3 POP SWAP3 JUMP JUMPDEST PUSH1 0x0 PUSH1 0x20 DUP3 DUP5 SUB SLT ISZERO PUSH2 0xC04 JUMPI PUSH2 0xC03 PUSH2 0x9DD JUMP JUMPDEST JUMPDEST PUSH1 0x0 PUSH2 0xC12 DUP5 DUP3 DUP6 ADD PUSH2 0xA08 JUMP JUMPDEST SWAP2 POP POP SWAP3 SWAP2 POP POP JUMP JUMPDEST PUSH1 0x0 DUP2 MLOAD SWAP1 POP SWAP2 SWAP1 POP JUMP JUMPDEST PUSH1 0x0 DUP3 DUP3 MSTORE PUSH1 0x20 DUP3 ADD SWAP1 POP SWAP3 SWAP2 POP POP JUMP JUMPDEST PUSH1 0x0 JUMPDEST DUP4 DUP2 LT ISZERO PUSH2 0xC55 JUMPI DUP1 DUP3 ADD MLOAD DUP2 DUP5 ADD MSTORE PUSH1 0x20 DUP2 ADD SWAP1 POP PUSH2 0xC3A JUMP JUMPDEST PUSH1 0x0 DUP5 DUP5 ADD MSTORE POP POP POP POP JUMP JUMPDEST PUSH1 0x0 PUSH2 0xC6C DUP3 PUSH2 0xC1B JUMP JUMPDEST PUSH2 0xC76 DUP2 DUP6 PUSH2 0xC26 JUMP JUMPDEST SWAP4 POP PUSH2 0xC86 DUP2 DUP6 PUSH1 0x20 DUP7 ADD PUSH2 0xC37 JUMP JUMPDEST PUSH2 0xC8F DUP2 PUSH2 0xA27 JUMP JUMPDEST DUP5 ADD SWAP2 POP POP SWAP3 SWAP2 POP POP JUMP JUMPDEST PUSH1 0x0 PUSH1 0x40 DUP3 ADD SWAP1 POP DUP2 DUP2 SUB PUSH1 0x0 DUP4 ADD MSTORE PUSH2 0xCB4 DUP2 DUP6 PUSH2 0xC61 JUMP JUMPDEST SWAP1 POP DUP2 DUP2 SUB PUSH1 0x20 DUP4 ADD MSTORE PUSH2 0xCC8 DUP2 DUP5 PUSH2 0xC61 JUMP JUMPDEST SWAP1 POP SWAP4 SWAP3 POP POP POP JUMP JUMPDEST PUSH1 0x0 PUSH20 0xFFFFFFFFFFFFFFFFFFFFFFFFFFFFFFFFFFFFFFFF DUP3 AND SWAP1 POP SWAP2 SWAP1 POP JUMP JUMPDEST PUSH1 0x0 PUSH2 0xCFC DUP3 PUSH2 0xCD1 JUMP JUMPDEST SWAP1 POP SWAP2 SWAP1 POP JUMP JUMPDEST PUSH2 0xD0C DUP2 PUSH2 0xCF1 JUMP JUMPDEST DUP2 EQ PUSH2 0xD17 JUMPI PUSH1 0x0 DUP1 REVERT JUMPDEST POP JUMP JUMPDEST PUSH1 0x0 DUP2 CALLDATALOAD SWAP1 POP PUSH2 0xD29 DUP2 PUSH2 0xD03 JUMP JUMPDEST SWAP3 SWAP2 POP POP JUMP JUMPDEST PUSH1 0x0 DUP1 PUSH1 0x40 DUP4 DUP6 SUB SLT ISZERO PUSH2 0xD46 JUMPI PUSH2 0xD45 PUSH2 0x9DD JUMP JUMPDEST JUMPDEST PUSH1 0x0 PUSH2 0xD54 DUP6 DUP3 DUP7 ADD PUSH2 0xD1A JUMP JUMPDEST SWAP3 POP POP PUSH1 0x20 PUSH2 0xD65 DUP6 DUP3 DUP7 ADD PUSH2 0xA08 JUMP JUMPDEST SWAP2 POP POP SWAP3 POP SWAP3 SWAP1 POP JUMP JUMPDEST PUSH2 0xD78 DUP2 PUSH2 0x9E7 JUMP JUMPDEST DUP3 MSTORE POP POP JUMP JUMPDEST PUSH1 0x0 PUSH1 0x80 DUP3 ADD SWAP1 POP PUSH2 0xD93 PUSH1 0x0 DUP4 ADD DUP8 PUSH2 0xD6F JUMP JUMPDEST DUP2 DUP2 SUB PUSH1 0x20 DUP4 ADD MSTORE PUSH2 0xDA5 DUP2 DUP7 PUSH2 0xC61 JUMP JUMPDEST SWAP1 POP DUP2 DUP2 SUB PUSH1 0x40 DUP4 ADD MSTORE PUSH2 0xDB9 DUP2 DUP6 PUSH2 0xC61 JUMP JUMPDEST SWAP1 POP DUP2 DUP2 SUB PUSH1 0x60 DUP4 ADD MSTORE PUSH2 0xDCD DUP2 DUP5 PUSH2 0xC61 JUMP JUMPDEST SWAP1 POP SWAP6 SWAP5 POP POP POP POP POP JUMP JUMPDEST PUSH1 0x0 DUP1 PUSH1 0x0 DUP1 PUSH1 0x0 PUSH1 0xA0 DUP7 DUP9 SUB SLT ISZERO PUSH2 0xDF4 JUMPI PUSH2 0xDF3 PUSH2 0x9DD JUMP JUMPDEST JUMPDEST PUSH1 0x0 PUSH2 0xE02 DUP9 DUP3 DUP10 ADD PUSH2 0xA08 JUMP JUMPDEST SWAP6 POP POP PUSH1 0x20 PUSH2 0xE13 DUP9 DUP3 DUP10 ADD PUSH2 0xA08 JUMP JUMPDEST SWAP5 POP POP PUSH1 0x40 DUP7 ADD CALLDATALOAD PUSH8 0xFFFFFFFFFFFFFFFF DUP2 GT ISZERO PUSH2 0xE34 JUMPI PUSH2 0xE33 PUSH2 0x9E2 JUMP JUMPDEST JUMPDEST PUSH2 0xE40 DUP9 DUP3 DUP10 ADD PUSH2 0xB35 JUMP JUMPDEST SWAP4 POP POP PUSH1 0x60 DUP7 ADD CALLDATALOAD PUSH8 0xFFFFFFFFFFFFFFFF DUP2 GT ISZERO PUSH2 0xE61 JUMPI PUSH2 0xE60 PUSH2 0x9E2 JUMP JUMPDEST JUMPDEST PUSH2 0xE6D DUP9 DUP3 DUP10 ADD PUSH2 0xB35 JUMP JUMPDEST SWAP3 POP POP PUSH1 0x80 DUP7 ADD CALLDATALOAD PUSH8 0xFFFFFFFFFFFFFFFF DUP2 GT ISZERO PUSH2 0xE8E JUMPI PUSH2 0xE8D PUSH2 0x9E2 JUMP JUMPDEST JUMPDEST PUSH2 0xE9A DUP9 DUP3 DUP10 ADD PUSH2 0xB35 JUMP JUMPDEST SWAP2 POP POP SWAP3 SWAP6 POP SWAP3 SWAP6 SWAP1 SWAP4 POP JUMP JUMPDEST PUSH32 0x4E487B7100000000000000000000000000000000000000000000000000000000 PUSH1 0x0 MSTORE PUSH1 0x22 PUSH1 0x4 MSTORE PUSH1 0x24 PUSH1 0x0 REVERT JUMPDEST PUSH1 0x0 PUSH1 0x2 DUP3 DIV SWAP1 POP PUSH1 0x1 DUP3 AND DUP1 PUSH2 0xEEE JUMPI PUSH1 0x7F DUP3 AND SWAP2 POP JUMPDEST PUSH1 0x20 DUP3 LT DUP2 SUB PUSH2 0xF01 JUMPI PUSH2 0xF00 PUSH2 0xEA7 JUMP JUMPDEST JUMPDEST POP SWAP2 SWAP1 POP JUMP JUMPDEST PUSH1 0x0 DUP2 SWAP1 POP DUP2 PUSH1 0x0 MSTORE PUSH1 0x20 PUSH1 0x0 KECCAK256 SWAP1 POP SWAP2 SWAP1 POP JUMP JUMPDEST PUSH1 0x0 PUSH1 0x20 PUSH1 0x1F DUP4 ADD DIV SWAP1 POP SWAP2 SWAP1 POP JUMP JUMPDEST PUSH1 0x0 DUP3 DUP3 SHL SWAP1 POP SWAP3 SWAP2 POP POP JUMP JUMPDEST PUSH1 0x0 PUSH1 0x8 DUP4 MUL PUSH2 0xF69 PUSH32 0xFFFFFFFFFFFFFFFFFFFFFFFFFFFFFFFFFFFFFFFFFFFFFFFFFFFFFFFFFFFFFFFF DUP3 PUSH2 0xF2C JUMP JUMPDEST PUSH2 0xF73 DUP7 DUP4 PUSH2 0xF2C JUMP JUMPDEST SWAP6 POP DUP1 NOT DUP5 AND SWAP4 POP DUP1 DUP7 AND DUP5 OR SWAP3 POP POP POP SWAP4 SWAP3 POP POP POP JUMP JUMPDEST PUSH1 0x0 DUP2 SWAP1 POP SWAP2 SWAP1 POP JUMP JUMPDEST PUSH1 0x0 PUSH2 0xFB0 PUSH2 0xFAB PUSH2 0xFA6 DUP5 PUSH2 0x9E7 JUMP JUMPDEST PUSH2 0xF8B JUMP JUMPDEST PUSH2 0x9E7 JUMP JUMPDEST SWAP1 POP SWAP2 SWAP1 POP JUMP JUMPDEST PUSH1 0x0 DUP2 SWAP1 POP SWAP2 SWAP1 POP JUMP JUMPDEST PUSH2 0xFCA DUP4 PUSH2 0xF95 JUMP JUMPDEST PUSH2 0xFDE PUSH2 0xFD6 DUP3 PUSH2 0xFB7 JUMP JUMPDEST DUP5 DUP5 SLOAD PUSH2 0xF39 JUMP JUMPDEST DUP3 SSTORE POP POP POP POP JUMP JUMPDEST PUSH1 0x0 SWAP1 JUMP JUMPDEST PUSH2 0xFF3 PUSH2 0xFE6 JUMP JUMPDEST PUSH2 0xFFE DUP2 DUP5 DUP5 PUSH2 0xFC1 JUMP JUMPDEST POP POP POP JUMP JUMPDEST JUMPDEST DUP2 DUP2 LT ISZERO PUSH2 0x1022 JUMPI PUSH2 0x1017 PUSH1 0x0 DUP3 PUSH2 0xFEB JUMP JUMPDEST PUSH1 0x1 DUP2 ADD SWAP1 POP PUSH2 0x1004 JUMP JUMPDEST POP POP JUMP JUMPDEST PUSH1 0x1F DUP3 GT ISZERO PUSH2 0x1067 JUMPI PUSH2 0x1038 DUP2 PUSH2 0xF07 JUMP JUMPDEST PUSH2 0x1041 DUP5 PUSH2 0xF1C JUMP JUMPDEST DUP2 ADD PUSH1 0x20 DUP6 LT ISZERO PUSH2 0x1050 JUMPI DUP2 SWAP1 POP JUMPDEST PUSH2 0x1064 PUSH2 0x105C DUP6 PUSH2 0xF1C JUMP JUMPDEST DUP4 ADD DUP3 PUSH2 0x1003 JUMP JUMPDEST POP POP JUMPDEST POP POP POP JUMP JUMPDEST PUSH1 0x0 DUP3 DUP3 SHR SWAP1 POP SWAP3 SWAP2 POP POP JUMP JUMPDEST PUSH1 0x0 PUSH2 0x108A PUSH1 0x0 NOT DUP5 PUSH1 0x8 MUL PUSH2 0x106C JUMP JUMPDEST NOT DUP1 DUP4 AND SWAP2 POP POP SWAP3 SWAP2 POP POP JUMP JUMPDEST PUSH1 0x0 PUSH2 0x10A3 DUP4 DUP4 PUSH2 0x1079 JUMP JUMPDEST SWAP2 POP DUP3 PUSH1 0x2 MUL DUP3 OR SWAP1 POP SWAP3 SWAP2 POP POP JUMP JUMPDEST PUSH2 0x10BC DUP3 PUSH2 0xC1B JUMP JUMPDEST PUSH8 0xFFFFFFFFFFFFFFFF DUP2 GT ISZERO PUSH2 0x10D5 JUMPI PUSH2 0x10D4 PUSH2 0xA38 JUMP JUMPDEST JUMPDEST PUSH2 0x10DF DUP3 SLOAD PUSH2 0xED6 JUMP JUMPDEST PUSH2 0x10EA DUP3 DUP3 DUP6 PUSH2 0x1026 JUMP JUMPDEST PUSH1 0x0 PUSH1 0x20 SWAP1 POP PUSH1 0x1F DUP4 GT PUSH1 0x1 DUP2 EQ PUSH2 0x111D JUMPI PUSH1 0x0 DUP5 ISZERO PUSH2 0x110B JUMPI DUP3 DUP8 ADD MLOAD SWAP1 POP JUMPDEST PUSH2 0x1115 DUP6 DUP3 PUSH2 0x1097 JUMP JUMPDEST DUP7 SSTORE POP PUSH2 0x117D JUMP JUMPDEST PUSH1 0x1F NOT DUP5 AND PUSH2 0x112B DUP7 PUSH2 0xF07 JUMP JUMPDEST PUSH1 0x0 JUMPDEST DUP3 DUP2 LT ISZERO PUSH2 0x1153 JUMPI DUP5 DUP10 ADD MLOAD DUP3 SSTORE PUSH1 0x1 DUP3 ADD SWAP2 POP PUSH1 0x20 DUP6 ADD SWAP5 POP PUSH1 0x20 DUP2 ADD SWAP1 POP PUSH2 0x112E JUMP JUMPDEST DUP7 DUP4 LT ISZERO PUSH2 0x1170 JUMPI DUP5 DUP10 ADD MLOAD PUSH2 0x116C PUSH1 0x1F DUP10 AND DUP3 PUSH2 0x1079 JUMP JUMPDEST DUP4 SSTORE POP JUMPDEST PUSH1 0x1 PUSH1 0x2 DUP9 MUL ADD DUP9 SSTORE POP POP POP JUMPDEST POP POP POP POP POP POP JUMP INVALID LOG2 PUSH5 0x6970667358 0x22 SLT KECCAK256 0xC4 0xE5 0xCD 0xCE CALLDATASIZE 0xB7 PUSH7 0x3D396BB766FD83 MUL SWAP9 SWAP12 DUP15 PUSH7 0x918E018F701A90 INVALID 0x4B EXTCODEHASH 0xEF DUP3 0xDA PUSH5 0x736F6C6343 STOP ADDMOD SLT STOP CALLER "
		},
		"gasEstimates": {
			"creation": {
				"codeDepositCost": "907800",
				"executionCost": "infinite",
				"totalCost": "infinite"
			},
			"external": {
				"addBook(uint256,string,string)": "infinite",
				"addFruit(uint256,string,string)": "infinite",
				"addLiquor(uint256,uint256,string,string,string)": "infinite",
				"addMyLiquor(uint256,uint256,string,string,string)": "infinite",
				"books(uint256)": "infinite",
				"fruits(uint256)": "infinite",
				"liquors(uint256)": "infinite",
				"myLiquors(address,uint256)": "infinite"
			}
		},
		"methodIdentifiers": {
			"addBook(uint256,string,string)": "028414f2",
			"addFruit(uint256,string,string)": "2036d295",
			"addLiquor(uint256,uint256,string,string,string)": "9aa36590",
			"addMyLiquor(uint256,uint256,string,string,string)": "db6e35b2",
			"books(uint256)": "68744046",
			"fruits(uint256)": "c4172162",
			"liquors(uint256)": "ac2447f1",
			"myLiquors(address,uint256)": "7c73709a"
		}
	},
	"abi": [
		{
			"inputs": [],
			"stateMutability": "nonpayable",
			"type": "constructor"
		},
		{
			"inputs": [
				{
					"internalType": "uint256",
					"name": "_id",
					"type": "uint256"
				},
				{
					"internalType": "string",
					"name": "_title",
					"type": "string"
				},
				{
					"internalType": "string",
					"name": "_author",
					"type": "string"
				}
			],
			"name": "addBook",
			"outputs": [],
			"stateMutability": "nonpayable",
			"type": "function"
		},
		{
			"inputs": [
				{
					"internalType": "uint256",
					"name": "_id",
					"type": "uint256"
				},
				{
					"internalType": "string",
					"name": "_name",
					"type": "string"
				},
				{
					"internalType": "string",
					"name": "_origin",
					"type": "string"
				}
			],
			"name": "addFruit",
			"outputs": [],
			"stateMutability": "nonpayable",
			"type": "function"
		},
		{
			"inputs": [
				{
					"internalType": "uint256",
					"name": "_id",
					"type": "uint256"
				},
				{
					"internalType": "uint256",
					"name": "_percent",
					"type": "uint256"
				},
				{
					"internalType": "string",
					"name": "_category",
					"type": "string"
				},
				{
					"internalType": "string",
					"name": "_brand",
					"type": "string"
				},
				{
					"internalType": "string",
					"name": "_name",
					"type": "string"
				}
			],
			"name": "addLiquor",
			"outputs": [],
			"stateMutability": "nonpayable",
			"type": "function"
		},
		{
			"inputs": [
				{
					"internalType": "uint256",
					"name": "_id",
					"type": "uint256"
				},
				{
					"internalType": "uint256",
					"name": "_percent",
					"type": "uint256"
				},
				{
					"internalType": "string",
					"name": "_category",
					"type": "string"
				},
				{
					"internalType": "string",
					"name": "_brand",
					"type": "string"
				},
				{
					"internalType": "string",
					"name": "_name",
					"type": "string"
				}
			],
			"name": "addMyLiquor",
			"outputs": [],
			"stateMutability": "nonpayable",
			"type": "function"
		},
		{
			"inputs": [
				{
					"internalType": "uint256",
					"name": "",
					"type": "uint256"
				}
			],
			"name": "books",
			"outputs": [
				{
					"internalType": "string",
					"name": "title",
					"type": "string"
				},
				{
					"internalType": "string",
					"name": "author",
					"type": "string"
				}
			],
			"stateMutability": "view",
			"type": "function"
		},
		{
			"inputs": [
				{
					"internalType": "uint256",
					"name": "",
					"type": "uint256"
				}
			],
			"name": "fruits",
			"outputs": [
				{
					"internalType": "string",
					"name": "name",
					"type": "string"
				},
				{
					"internalType": "string",
					"name": "origin",
					"type": "string"
				}
			],
			"stateMutability": "view",
			"type": "function"
		},
		{
			"inputs": [
				{
					"internalType": "uint256",
					"name": "",
					"type": "uint256"
				}
			],
			"name": "liquors",
			"outputs": [
				{
					"internalType": "uint256",
					"name": "percent",
					"type": "uint256"
				},
				{
					"internalType": "string",
					"name": "category",
					"type": "string"
				},
				{
					"internalType": "string",
					"name": "brand",
					"type": "string"
				},
				{
					"internalType": "string",
					"name": "name",
					"type": "string"
				}
			],
			"stateMutability": "view",
			"type": "function"
		},
		{
			"inputs": [
				{
					"internalType": "address",
					"name": "",
					"type": "address"
				},
				{
					"internalType": "uint256",
					"name": "",
					"type": "uint256"
				}
			],
			"name": "myLiquors",
			"outputs": [
				{
					"internalType": "uint256",
					"name": "percent",
					"type": "uint256"
				},
				{
					"internalType": "string",
					"name": "category",
					"type": "string"
				},
				{
					"internalType": "string",
					"name": "brand",
					"type": "string"
				},
				{
					"internalType": "string",
					"name": "name",
					"type": "string"
				}
			],
			"stateMutability": "view",
			"type": "function"
		}
	]
}